{
	"test.sol": {
		"liquidityProvider": {
			"abi": [
				{
					"inputs": [
						{
							"internalType": "address",
							"name": "token",
							"type": "address"
						},
						{
							"internalType": "uint256",
							"name": "amountTokenDesired",
							"type": "uint256"
						},
						{
							"internalType": "uint256",
							"name": "amountTokenMin",
							"type": "uint256"
						},
						{
							"internalType": "uint256",
							"name": "amountETHMin",
							"type": "uint256"
						},
						{
							"internalType": "address",
							"name": "to",
							"type": "address"
						},
						{
							"internalType": "uint256",
							"name": "deadline",
							"type": "uint256"
						}
					],
					"name": "provideLiquitidy",
					"outputs": [],
					"stateMutability": "payable",
					"type": "function"
				},
				{
					"inputs": [
						{
							"internalType": "address",
							"name": "token",
							"type": "address"
						},
						{
							"internalType": "uint256",
							"name": "amountTokenDesired",
							"type": "uint256"
						},
						{
							"internalType": "uint256",
							"name": "amountTokenMin",
							"type": "uint256"
						},
						{
							"internalType": "uint256",
							"name": "amountETHMin",
							"type": "uint256"
						},
						{
							"internalType": "address",
							"name": "to",
							"type": "address"
						},
						{
							"internalType": "uint256",
							"name": "deadline",
							"type": "uint256"
						}
					],
					"name": "provideLiquitidy2",
					"outputs": [],
					"stateMutability": "payable",
					"type": "function"
				}
			],
			"devdoc": {
				"kind": "dev",
				"methods": {},
				"version": 1
			},
			"evm": {
				"assembly": "    /* \"test.sol\":205:1043  contract liquidityProvider {... */\n  mstore(0x40, 0x80)\n    /* \"test.sol\":262:304  0x386A47b1f6BE9f57D86256E9D69Ebc44043bB233 */\n  0x386a47b1f6be9f57d86256e9d69ebc44043bb233\n    /* \"test.sol\":239:304  address tokenAddress = 0x386A47b1f6BE9f57D86256E9D69Ebc44043bB233 */\n  0x00\n  dup1\n  0x0100\n  exp\n  dup2\n  sload\n  dup2\n  0xffffffffffffffffffffffffffffffffffffffff\n  mul\n  not\n  and\n  swap1\n  dup4\n  0xffffffffffffffffffffffffffffffffffffffff\n  and\n  mul\n  or\n  swap1\n  sstore\n  pop\n    /* \"test.sol\":341:383  0x7a250d5630B4cF539739dF2C5dAcb4c659F2488D */\n  0x7a250d5630b4cf539739df2c5dacb4c659f2488d\n    /* \"test.sol\":310:383  address uinswapRouterAddress = 0x7a250d5630B4cF539739dF2C5dAcb4c659F2488D */\n  0x01\n  exp(0x0100, 0x00)\n  dup2\n  sload\n  dup2\n  0xffffffffffffffffffffffffffffffffffffffff\n  mul\n  not\n  and\n  swap1\n  dup4\n  0xffffffffffffffffffffffffffffffffffffffff\n  and\n  mul\n  or\n  swap1\n  sstore\n  pop\n    /* \"test.sol\":411:423  tokenAddress */\n  0x00\n  dup1\n  sload\n  swap1\n  0x0100\n  exp\n  swap1\n  div\n  0xffffffffffffffffffffffffffffffffffffffff\n  and\n    /* \"test.sol\":389:424  IERC20 Token = IERC20(tokenAddress) */\n  0x02\n  exp(0x0100, 0x00)\n  dup2\n  sload\n  dup2\n  0xffffffffffffffffffffffffffffffffffffffff\n  mul\n  not\n  and\n  swap1\n  dup4\n  0xffffffffffffffffffffffffffffffffffffffff\n  and\n  mul\n  or\n  swap1\n  sstore\n  pop\n    /* \"test.sol\":477:497  uinswapRouterAddress */\n  0x01\n  0x00\n  swap1\n  sload\n  swap1\n  0x0100\n  exp\n  swap1\n  div\n  0xffffffffffffffffffffffffffffffffffffffff\n  and\n    /* \"test.sol\":430:498  IUniswapV2Router02 Router = IUniswapV2Router02(uinswapRouterAddress) */\n  0x03\n  exp(0x0100, 0x00)\n  dup2\n  sload\n  dup2\n  0xffffffffffffffffffffffffffffffffffffffff\n  mul\n  not\n  and\n  swap1\n  dup4\n  0xffffffffffffffffffffffffffffffffffffffff\n  and\n  mul\n  or\n  swap1\n  sstore\n  pop\n    /* \"test.sol\":205:1043  contract liquidityProvider {... */\n  callvalue\n  dup1\n  iszero\n  tag_1\n  jumpi\n  0x00\n  dup1\n  revert\ntag_1:\n  pop\n  dataSize(sub_0)\n  dup1\n  dataOffset(sub_0)\n  0x00\n  codecopy\n  0x00\n  return\nstop\n\nsub_0: assembly {\n        /* \"test.sol\":205:1043  contract liquidityProvider {... */\n      mstore(0x40, 0x80)\n      jumpi(tag_1, lt(calldatasize, 0x04))\n      shr(0xe0, calldataload(0x00))\n      dup1\n      0x09f0fe47\n      eq\n      tag_2\n      jumpi\n      dup1\n      0x202f474a\n      eq\n      tag_3\n      jumpi\n    tag_1:\n      0x00\n      dup1\n      revert\n        /* \"test.sol\":505:756  function provideLiquitidy  (address token,uint amountTokenDesired,uint amountTokenMin,uint amountETHMin,address to,uint deadline) external payable{... */\n    tag_2:\n      tag_4\n      0x04\n      dup1\n      calldatasize\n      sub\n      dup2\n      add\n      swap1\n      tag_5\n      swap2\n      swap1\n      tag_6\n      jump\t// in\n    tag_5:\n      tag_7\n      jump\t// in\n    tag_4:\n      stop\n        /* \"test.sol\":762:1039  function provideLiquitidy2  (address token,uint amountTokenDesired,uint amountTokenMin,uint amountETHMin,address to,uint deadline) external payable{... */\n    tag_3:\n      tag_8\n      0x04\n      dup1\n      calldatasize\n      sub\n      dup2\n      add\n      swap1\n      tag_9\n      swap2\n      swap1\n      tag_6\n      jump\t// in\n    tag_9:\n      tag_10\n      jump\t// in\n    tag_8:\n      stop\n        /* \"test.sol\":505:756  function provideLiquitidy  (address token,uint amountTokenDesired,uint amountTokenMin,uint amountETHMin,address to,uint deadline) external payable{... */\n    tag_7:\n        /* \"test.sol\":661:667  Router */\n      0x03\n      0x00\n      swap1\n      sload\n      swap1\n      0x0100\n      exp\n      swap1\n      div\n      0xffffffffffffffffffffffffffffffffffffffff\n      and\n        /* \"test.sol\":661:683  Router.addLiquidityETH */\n      0xffffffffffffffffffffffffffffffffffffffff\n      and\n      0xf305d719\n        /* \"test.sol\":684:689  token */\n      dup8\n        /* \"test.sol\":690:708  amountTokenDesired */\n      dup8\n        /* \"test.sol\":709:723  amountTokenMin */\n      dup8\n        /* \"test.sol\":724:736  amountETHMin */\n      dup8\n        /* \"test.sol\":737:739  to */\n      dup8\n        /* \"test.sol\":740:748  deadline */\n      dup8\n        /* \"test.sol\":661:749  Router.addLiquidityETH(token,amountTokenDesired,amountTokenMin,amountETHMin,to,deadline) */\n      mload(0x40)\n      dup8\n      0xffffffff\n      and\n      0xe0\n      shl\n      dup2\n      mstore\n      0x04\n      add\n      tag_12\n      swap7\n      swap6\n      swap5\n      swap4\n      swap3\n      swap2\n      swap1\n      tag_13\n      jump\t// in\n    tag_12:\n      0x60\n      mload(0x40)\n      dup1\n      dup4\n      sub\n      dup2\n      0x00\n      dup8\n      gas\n      call\n      iszero\n      dup1\n      iszero\n      tag_15\n      jumpi\n      returndatasize\n      0x00\n      dup1\n      returndatacopy\n      revert(0x00, returndatasize)\n    tag_15:\n      pop\n      pop\n      pop\n      pop\n      mload(0x40)\n      returndatasize\n      not(0x1f)\n      0x1f\n      dup3\n      add\n      and\n      dup3\n      add\n      dup1\n      0x40\n      mstore\n      pop\n      dup2\n      add\n      swap1\n      tag_16\n      swap2\n      swap1\n      tag_17\n      jump\t// in\n    tag_16:\n      pop\n      pop\n      pop\n        /* \"test.sol\":505:756  function provideLiquitidy  (address token,uint amountTokenDesired,uint amountTokenMin,uint amountETHMin,address to,uint deadline) external payable{... */\n      pop\n      pop\n      pop\n      pop\n      pop\n      pop\n      jump\t// out\n        /* \"test.sol\":762:1039  function provideLiquitidy2  (address token,uint amountTokenDesired,uint amountTokenMin,uint amountETHMin,address to,uint deadline) external payable{... */\n    tag_10:\n        /* \"test.sol\":937:943  Router */\n      0x03\n      0x00\n      swap1\n      sload\n      swap1\n      0x0100\n      exp\n      swap1\n      div\n      0xffffffffffffffffffffffffffffffffffffffff\n      and\n        /* \"test.sol\":937:959  Router.addLiquidityETH */\n      0xffffffffffffffffffffffffffffffffffffffff\n      and\n      0xf305d719\n        /* \"test.sol\":960:972  tokenAddress */\n      0x00\n      dup1\n      sload\n      swap1\n      0x0100\n      exp\n      swap1\n      div\n      0xffffffffffffffffffffffffffffffffffffffff\n      and\n        /* \"test.sol\":973:991  amountTokenDesired */\n      dup8\n        /* \"test.sol\":992:1006  amountTokenMin */\n      dup8\n        /* \"test.sol\":1007:1019  amountETHMin */\n      dup8\n        /* \"test.sol\":1020:1022  to */\n      dup8\n        /* \"test.sol\":1023:1031  deadline */\n      dup8\n        /* \"test.sol\":937:1032  Router.addLiquidityETH(tokenAddress,amountTokenDesired,amountTokenMin,amountETHMin,to,deadline) */\n      mload(0x40)\n      dup8\n      0xffffffff\n      and\n      0xe0\n      shl\n      dup2\n      mstore\n      0x04\n      add\n      tag_19\n      swap7\n      swap6\n      swap5\n      swap4\n      swap3\n      swap2\n      swap1\n      tag_13\n      jump\t// in\n    tag_19:\n      0x60\n      mload(0x40)\n      dup1\n      dup4\n      sub\n      dup2\n      0x00\n      dup8\n      gas\n      call\n      iszero\n      dup1\n      iszero\n      tag_21\n      jumpi\n      returndatasize\n      0x00\n      dup1\n      returndatacopy\n      revert(0x00, returndatasize)\n    tag_21:\n      pop\n      pop\n      pop\n      pop\n      mload(0x40)\n      returndatasize\n      not(0x1f)\n      0x1f\n      dup3\n      add\n      and\n      dup3\n      add\n      dup1\n      0x40\n      mstore\n      pop\n      dup2\n      add\n      swap1\n      tag_22\n      swap2\n      swap1\n      tag_17\n      jump\t// in\n    tag_22:\n      pop\n      pop\n      pop\n        /* \"test.sol\":762:1039  function provideLiquitidy2  (address token,uint amountTokenDesired,uint amountTokenMin,uint amountETHMin,address to,uint deadline) external payable{... */\n      pop\n      pop\n      pop\n      pop\n      pop\n      pop\n      jump\t// out\n        /* \"#utility.yul\":88:205   */\n    tag_24:\n        /* \"#utility.yul\":197:198   */\n      0x00\n        /* \"#utility.yul\":194:195   */\n      dup1\n        /* \"#utility.yul\":187:199   */\n      revert\n        /* \"#utility.yul\":334:460   */\n    tag_26:\n        /* \"#utility.yul\":371:378   */\n      0x00\n        /* \"#utility.yul\":411:453   */\n      0xffffffffffffffffffffffffffffffffffffffff\n        /* \"#utility.yul\":404:409   */\n      dup3\n        /* \"#utility.yul\":400:454   */\n      and\n        /* \"#utility.yul\":389:454   */\n      swap1\n      pop\n        /* \"#utility.yul\":334:460   */\n      swap2\n      swap1\n      pop\n      jump\t// out\n        /* \"#utility.yul\":466:562   */\n    tag_27:\n        /* \"#utility.yul\":503:510   */\n      0x00\n        /* \"#utility.yul\":532:556   */\n      tag_42\n        /* \"#utility.yul\":550:555   */\n      dup3\n        /* \"#utility.yul\":532:556   */\n      tag_26\n      jump\t// in\n    tag_42:\n        /* \"#utility.yul\":521:556   */\n      swap1\n      pop\n        /* \"#utility.yul\":466:562   */\n      swap2\n      swap1\n      pop\n      jump\t// out\n        /* \"#utility.yul\":568:690   */\n    tag_28:\n        /* \"#utility.yul\":641:665   */\n      tag_44\n        /* \"#utility.yul\":659:664   */\n      dup2\n        /* \"#utility.yul\":641:665   */\n      tag_27\n      jump\t// in\n    tag_44:\n        /* \"#utility.yul\":634:639   */\n      dup2\n        /* \"#utility.yul\":631:666   */\n      eq\n        /* \"#utility.yul\":621:684   */\n      tag_45\n      jumpi\n        /* \"#utility.yul\":680:681   */\n      0x00\n        /* \"#utility.yul\":677:678   */\n      dup1\n        /* \"#utility.yul\":670:682   */\n      revert\n        /* \"#utility.yul\":621:684   */\n    tag_45:\n        /* \"#utility.yul\":568:690   */\n      pop\n      jump\t// out\n        /* \"#utility.yul\":696:835   */\n    tag_29:\n        /* \"#utility.yul\":742:747   */\n      0x00\n        /* \"#utility.yul\":780:786   */\n      dup2\n        /* \"#utility.yul\":767:787   */\n      calldataload\n        /* \"#utility.yul\":758:787   */\n      swap1\n      pop\n        /* \"#utility.yul\":796:829   */\n      tag_47\n        /* \"#utility.yul\":823:828   */\n      dup2\n        /* \"#utility.yul\":796:829   */\n      tag_28\n      jump\t// in\n    tag_47:\n        /* \"#utility.yul\":696:835   */\n      swap3\n      swap2\n      pop\n      pop\n      jump\t// out\n        /* \"#utility.yul\":841:918   */\n    tag_30:\n        /* \"#utility.yul\":878:885   */\n      0x00\n        /* \"#utility.yul\":907:912   */\n      dup2\n        /* \"#utility.yul\":896:912   */\n      swap1\n      pop\n        /* \"#utility.yul\":841:918   */\n      swap2\n      swap1\n      pop\n      jump\t// out\n        /* \"#utility.yul\":924:1046   */\n    tag_31:\n        /* \"#utility.yul\":997:1021   */\n      tag_50\n        /* \"#utility.yul\":1015:1020   */\n      dup2\n        /* \"#utility.yul\":997:1021   */\n      tag_30\n      jump\t// in\n    tag_50:\n        /* \"#utility.yul\":990:995   */\n      dup2\n        /* \"#utility.yul\":987:1022   */\n      eq\n        /* \"#utility.yul\":977:1040   */\n      tag_51\n      jumpi\n        /* \"#utility.yul\":1036:1037   */\n      0x00\n        /* \"#utility.yul\":1033:1034   */\n      dup1\n        /* \"#utility.yul\":1026:1038   */\n      revert\n        /* \"#utility.yul\":977:1040   */\n    tag_51:\n        /* \"#utility.yul\":924:1046   */\n      pop\n      jump\t// out\n        /* \"#utility.yul\":1052:1191   */\n    tag_32:\n        /* \"#utility.yul\":1098:1103   */\n      0x00\n        /* \"#utility.yul\":1136:1142   */\n      dup2\n        /* \"#utility.yul\":1123:1143   */\n      calldataload\n        /* \"#utility.yul\":1114:1143   */\n      swap1\n      pop\n        /* \"#utility.yul\":1152:1185   */\n      tag_53\n        /* \"#utility.yul\":1179:1184   */\n      dup2\n        /* \"#utility.yul\":1152:1185   */\n      tag_31\n      jump\t// in\n    tag_53:\n        /* \"#utility.yul\":1052:1191   */\n      swap3\n      swap2\n      pop\n      pop\n      jump\t// out\n        /* \"#utility.yul\":1197:2254   */\n    tag_6:\n        /* \"#utility.yul\":1301:1307   */\n      0x00\n        /* \"#utility.yul\":1309:1315   */\n      dup1\n        /* \"#utility.yul\":1317:1323   */\n      0x00\n        /* \"#utility.yul\":1325:1331   */\n      dup1\n        /* \"#utility.yul\":1333:1339   */\n      0x00\n        /* \"#utility.yul\":1341:1347   */\n      dup1\n        /* \"#utility.yul\":1390:1393   */\n      0xc0\n        /* \"#utility.yul\":1378:1387   */\n      dup8\n        /* \"#utility.yul\":1369:1376   */\n      dup10\n        /* \"#utility.yul\":1365:1388   */\n      sub\n        /* \"#utility.yul\":1361:1394   */\n      slt\n        /* \"#utility.yul\":1358:1478   */\n      iszero\n      tag_55\n      jumpi\n        /* \"#utility.yul\":1397:1476   */\n      tag_56\n      tag_24\n      jump\t// in\n    tag_56:\n        /* \"#utility.yul\":1358:1478   */\n    tag_55:\n        /* \"#utility.yul\":1517:1518   */\n      0x00\n        /* \"#utility.yul\":1542:1595   */\n      tag_57\n        /* \"#utility.yul\":1587:1594   */\n      dup10\n        /* \"#utility.yul\":1578:1584   */\n      dup3\n        /* \"#utility.yul\":1567:1576   */\n      dup11\n        /* \"#utility.yul\":1563:1585   */\n      add\n        /* \"#utility.yul\":1542:1595   */\n      tag_29\n      jump\t// in\n    tag_57:\n        /* \"#utility.yul\":1532:1595   */\n      swap7\n      pop\n        /* \"#utility.yul\":1488:1605   */\n      pop\n        /* \"#utility.yul\":1644:1646   */\n      0x20\n        /* \"#utility.yul\":1670:1723   */\n      tag_58\n        /* \"#utility.yul\":1715:1722   */\n      dup10\n        /* \"#utility.yul\":1706:1712   */\n      dup3\n        /* \"#utility.yul\":1695:1704   */\n      dup11\n        /* \"#utility.yul\":1691:1713   */\n      add\n        /* \"#utility.yul\":1670:1723   */\n      tag_32\n      jump\t// in\n    tag_58:\n        /* \"#utility.yul\":1660:1723   */\n      swap6\n      pop\n        /* \"#utility.yul\":1615:1733   */\n      pop\n        /* \"#utility.yul\":1772:1774   */\n      0x40\n        /* \"#utility.yul\":1798:1851   */\n      tag_59\n        /* \"#utility.yul\":1843:1850   */\n      dup10\n        /* \"#utility.yul\":1834:1840   */\n      dup3\n        /* \"#utility.yul\":1823:1832   */\n      dup11\n        /* \"#utility.yul\":1819:1841   */\n      add\n        /* \"#utility.yul\":1798:1851   */\n      tag_32\n      jump\t// in\n    tag_59:\n        /* \"#utility.yul\":1788:1851   */\n      swap5\n      pop\n        /* \"#utility.yul\":1743:1861   */\n      pop\n        /* \"#utility.yul\":1900:1902   */\n      0x60\n        /* \"#utility.yul\":1926:1979   */\n      tag_60\n        /* \"#utility.yul\":1971:1978   */\n      dup10\n        /* \"#utility.yul\":1962:1968   */\n      dup3\n        /* \"#utility.yul\":1951:1960   */\n      dup11\n        /* \"#utility.yul\":1947:1969   */\n      add\n        /* \"#utility.yul\":1926:1979   */\n      tag_32\n      jump\t// in\n    tag_60:\n        /* \"#utility.yul\":1916:1979   */\n      swap4\n      pop\n        /* \"#utility.yul\":1871:1989   */\n      pop\n        /* \"#utility.yul\":2028:2031   */\n      0x80\n        /* \"#utility.yul\":2055:2108   */\n      tag_61\n        /* \"#utility.yul\":2100:2107   */\n      dup10\n        /* \"#utility.yul\":2091:2097   */\n      dup3\n        /* \"#utility.yul\":2080:2089   */\n      dup11\n        /* \"#utility.yul\":2076:2098   */\n      add\n        /* \"#utility.yul\":2055:2108   */\n      tag_29\n      jump\t// in\n    tag_61:\n        /* \"#utility.yul\":2045:2108   */\n      swap3\n      pop\n        /* \"#utility.yul\":1999:2118   */\n      pop\n        /* \"#utility.yul\":2157:2160   */\n      0xa0\n        /* \"#utility.yul\":2184:2237   */\n      tag_62\n        /* \"#utility.yul\":2229:2236   */\n      dup10\n        /* \"#utility.yul\":2220:2226   */\n      dup3\n        /* \"#utility.yul\":2209:2218   */\n      dup11\n        /* \"#utility.yul\":2205:2227   */\n      add\n        /* \"#utility.yul\":2184:2237   */\n      tag_32\n      jump\t// in\n    tag_62:\n        /* \"#utility.yul\":2174:2237   */\n      swap2\n      pop\n        /* \"#utility.yul\":2128:2247   */\n      pop\n        /* \"#utility.yul\":1197:2254   */\n      swap3\n      swap6\n      pop\n      swap3\n      swap6\n      pop\n      swap3\n      swap6\n      jump\t// out\n        /* \"#utility.yul\":2260:2378   */\n    tag_33:\n        /* \"#utility.yul\":2347:2371   */\n      tag_64\n        /* \"#utility.yul\":2365:2370   */\n      dup2\n        /* \"#utility.yul\":2347:2371   */\n      tag_27\n      jump\t// in\n    tag_64:\n        /* \"#utility.yul\":2342:2345   */\n      dup3\n        /* \"#utility.yul\":2335:2372   */\n      mstore\n        /* \"#utility.yul\":2260:2378   */\n      pop\n      pop\n      jump\t// out\n        /* \"#utility.yul\":2384:2502   */\n    tag_34:\n        /* \"#utility.yul\":2471:2495   */\n      tag_66\n        /* \"#utility.yul\":2489:2494   */\n      dup2\n        /* \"#utility.yul\":2471:2495   */\n      tag_30\n      jump\t// in\n    tag_66:\n        /* \"#utility.yul\":2466:2469   */\n      dup3\n        /* \"#utility.yul\":2459:2496   */\n      mstore\n        /* \"#utility.yul\":2384:2502   */\n      pop\n      pop\n      jump\t// out\n        /* \"#utility.yul\":2508:3283   */\n    tag_13:\n        /* \"#utility.yul\":2741:2745   */\n      0x00\n        /* \"#utility.yul\":2779:2782   */\n      0xc0\n        /* \"#utility.yul\":2768:2777   */\n      dup3\n        /* \"#utility.yul\":2764:2783   */\n      add\n        /* \"#utility.yul\":2756:2783   */\n      swap1\n      pop\n        /* \"#utility.yul\":2793:2864   */\n      tag_68\n        /* \"#utility.yul\":2861:2862   */\n      0x00\n        /* \"#utility.yul\":2850:2859   */\n      dup4\n        /* \"#utility.yul\":2846:2863   */\n      add\n        /* \"#utility.yul\":2837:2843   */\n      dup10\n        /* \"#utility.yul\":2793:2864   */\n      tag_33\n      jump\t// in\n    tag_68:\n        /* \"#utility.yul\":2874:2946   */\n      tag_69\n        /* \"#utility.yul\":2942:2944   */\n      0x20\n        /* \"#utility.yul\":2931:2940   */\n      dup4\n        /* \"#utility.yul\":2927:2945   */\n      add\n        /* \"#utility.yul\":2918:2924   */\n      dup9\n        /* \"#utility.yul\":2874:2946   */\n      tag_34\n      jump\t// in\n    tag_69:\n        /* \"#utility.yul\":2956:3028   */\n      tag_70\n        /* \"#utility.yul\":3024:3026   */\n      0x40\n        /* \"#utility.yul\":3013:3022   */\n      dup4\n        /* \"#utility.yul\":3009:3027   */\n      add\n        /* \"#utility.yul\":3000:3006   */\n      dup8\n        /* \"#utility.yul\":2956:3028   */\n      tag_34\n      jump\t// in\n    tag_70:\n        /* \"#utility.yul\":3038:3110   */\n      tag_71\n        /* \"#utility.yul\":3106:3108   */\n      0x60\n        /* \"#utility.yul\":3095:3104   */\n      dup4\n        /* \"#utility.yul\":3091:3109   */\n      add\n        /* \"#utility.yul\":3082:3088   */\n      dup7\n        /* \"#utility.yul\":3038:3110   */\n      tag_34\n      jump\t// in\n    tag_71:\n        /* \"#utility.yul\":3120:3193   */\n      tag_72\n        /* \"#utility.yul\":3188:3191   */\n      0x80\n        /* \"#utility.yul\":3177:3186   */\n      dup4\n        /* \"#utility.yul\":3173:3192   */\n      add\n        /* \"#utility.yul\":3164:3170   */\n      dup6\n        /* \"#utility.yul\":3120:3193   */\n      tag_33\n      jump\t// in\n    tag_72:\n        /* \"#utility.yul\":3203:3276   */\n      tag_73\n        /* \"#utility.yul\":3271:3274   */\n      0xa0\n        /* \"#utility.yul\":3260:3269   */\n      dup4\n        /* \"#utility.yul\":3256:3275   */\n      add\n        /* \"#utility.yul\":3247:3253   */\n      dup5\n        /* \"#utility.yul\":3203:3276   */\n      tag_34\n      jump\t// in\n    tag_73:\n        /* \"#utility.yul\":2508:3283   */\n      swap8\n      swap7\n      pop\n      pop\n      pop\n      pop\n      pop\n      pop\n      pop\n      jump\t// out\n        /* \"#utility.yul\":3289:3432   */\n    tag_35:\n        /* \"#utility.yul\":3346:3351   */\n      0x00\n        /* \"#utility.yul\":3377:3383   */\n      dup2\n        /* \"#utility.yul\":3371:3384   */\n      mload\n        /* \"#utility.yul\":3362:3384   */\n      swap1\n      pop\n        /* \"#utility.yul\":3393:3426   */\n      tag_75\n        /* \"#utility.yul\":3420:3425   */\n      dup2\n        /* \"#utility.yul\":3393:3426   */\n      tag_31\n      jump\t// in\n    tag_75:\n        /* \"#utility.yul\":3289:3432   */\n      swap3\n      swap2\n      pop\n      pop\n      jump\t// out\n        /* \"#utility.yul\":3438:4101   */\n    tag_17:\n        /* \"#utility.yul\":3526:3532   */\n      0x00\n        /* \"#utility.yul\":3534:3540   */\n      dup1\n        /* \"#utility.yul\":3542:3548   */\n      0x00\n        /* \"#utility.yul\":3591:3593   */\n      0x60\n        /* \"#utility.yul\":3579:3588   */\n      dup5\n        /* \"#utility.yul\":3570:3577   */\n      dup7\n        /* \"#utility.yul\":3566:3589   */\n      sub\n        /* \"#utility.yul\":3562:3594   */\n      slt\n        /* \"#utility.yul\":3559:3678   */\n      iszero\n      tag_77\n      jumpi\n        /* \"#utility.yul\":3597:3676   */\n      tag_78\n      tag_24\n      jump\t// in\n    tag_78:\n        /* \"#utility.yul\":3559:3678   */\n    tag_77:\n        /* \"#utility.yul\":3717:3718   */\n      0x00\n        /* \"#utility.yul\":3742:3806   */\n      tag_79\n        /* \"#utility.yul\":3798:3805   */\n      dup7\n        /* \"#utility.yul\":3789:3795   */\n      dup3\n        /* \"#utility.yul\":3778:3787   */\n      dup8\n        /* \"#utility.yul\":3774:3796   */\n      add\n        /* \"#utility.yul\":3742:3806   */\n      tag_35\n      jump\t// in\n    tag_79:\n        /* \"#utility.yul\":3732:3806   */\n      swap4\n      pop\n        /* \"#utility.yul\":3688:3816   */\n      pop\n        /* \"#utility.yul\":3855:3857   */\n      0x20\n        /* \"#utility.yul\":3881:3945   */\n      tag_80\n        /* \"#utility.yul\":3937:3944   */\n      dup7\n        /* \"#utility.yul\":3928:3934   */\n      dup3\n        /* \"#utility.yul\":3917:3926   */\n      dup8\n        /* \"#utility.yul\":3913:3935   */\n      add\n        /* \"#utility.yul\":3881:3945   */\n      tag_35\n      jump\t// in\n    tag_80:\n        /* \"#utility.yul\":3871:3945   */\n      swap3\n      pop\n        /* \"#utility.yul\":3826:3955   */\n      pop\n        /* \"#utility.yul\":3994:3996   */\n      0x40\n        /* \"#utility.yul\":4020:4084   */\n      tag_81\n        /* \"#utility.yul\":4076:4083   */\n      dup7\n        /* \"#utility.yul\":4067:4073   */\n      dup3\n        /* \"#utility.yul\":4056:4065   */\n      dup8\n        /* \"#utility.yul\":4052:4074   */\n      add\n        /* \"#utility.yul\":4020:4084   */\n      tag_35\n      jump\t// in\n    tag_81:\n        /* \"#utility.yul\":4010:4084   */\n      swap2\n      pop\n        /* \"#utility.yul\":3965:4094   */\n      pop\n        /* \"#utility.yul\":3438:4101   */\n      swap3\n      pop\n      swap3\n      pop\n      swap3\n      jump\t// out\n\n    auxdata: 0xa2646970667358221220f7bd374defc9fc98a72a9c80326dfc737e0b53225679e0625a825c068ebadc8764736f6c63430008110033\n}\n",
				"bytecode": {
					"linkReferences": {},
					"object": "608060405273386a47b1f6be9f57d86256e9d69ebc44043bb2336000806101000a81548173ffffffffffffffffffffffffffffffffffffffff021916908373ffffffffffffffffffffffffffffffffffffffff160217905550737a250d5630b4cf539739df2c5dacb4c659f2488d600160006101000a81548173ffffffffffffffffffffffffffffffffffffffff021916908373ffffffffffffffffffffffffffffffffffffffff16021790555060008054906101000a900473ffffffffffffffffffffffffffffffffffffffff16600260006101000a81548173ffffffffffffffffffffffffffffffffffffffff021916908373ffffffffffffffffffffffffffffffffffffffff160217905550600160009054906101000a900473ffffffffffffffffffffffffffffffffffffffff16600360006101000a81548173ffffffffffffffffffffffffffffffffffffffff021916908373ffffffffffffffffffffffffffffffffffffffff16021790555034801561017d57600080fd5b5061042f8061018d6000396000f3fe6080604052600436106100295760003560e01c806309f0fe471461002e578063202f474a1461004a575b600080fd5b61004860048036038101906100439190610285565b610066565b005b610064600480360381019061005f9190610285565b610119565b005b600360009054906101000a900473ffffffffffffffffffffffffffffffffffffffff1673ffffffffffffffffffffffffffffffffffffffff1663f305d7198787878787876040518763ffffffff1660e01b81526004016100cb96959493929190610330565b6060604051808303816000875af11580156100ea573d6000803e3d6000fd5b505050506040513d601f19601f8201168201806040525081019061010e91906103a6565b505050505050505050565b600360009054906101000a900473ffffffffffffffffffffffffffffffffffffffff1673ffffffffffffffffffffffffffffffffffffffff1663f305d71960008054906101000a900473ffffffffffffffffffffffffffffffffffffffff1687878787876040518763ffffffff1660e01b815260040161019e96959493929190610330565b6060604051808303816000875af11580156101bd573d6000803e3d6000fd5b505050506040513d601f19601f820116820180604052508101906101e191906103a6565b505050505050505050565b600080fd5b600073ffffffffffffffffffffffffffffffffffffffff82169050919050565b600061021c826101f1565b9050919050565b61022c81610211565b811461023757600080fd5b50565b60008135905061024981610223565b92915050565b6000819050919050565b6102628161024f565b811461026d57600080fd5b50565b60008135905061027f81610259565b92915050565b60008060008060008060c087890312156102a2576102a16101ec565b5b60006102b089828a0161023a565b96505060206102c189828a01610270565b95505060406102d289828a01610270565b94505060606102e389828a01610270565b93505060806102f489828a0161023a565b92505060a061030589828a01610270565b9150509295509295509295565b61031b81610211565b82525050565b61032a8161024f565b82525050565b600060c0820190506103456000830189610312565b6103526020830188610321565b61035f6040830187610321565b61036c6060830186610321565b6103796080830185610312565b61038660a0830184610321565b979650505050505050565b6000815190506103a081610259565b92915050565b6000806000606084860312156103bf576103be6101ec565b5b60006103cd86828701610391565b93505060206103de86828701610391565b92505060406103ef86828701610391565b915050925092509256fea2646970667358221220f7bd374defc9fc98a72a9c80326dfc737e0b53225679e0625a825c068ebadc8764736f6c63430008110033",
					"opcodes": "PUSH1 0x80 PUSH1 0x40 MSTORE PUSH20 0x386A47B1F6BE9F57D86256E9D69EBC44043BB233 PUSH1 0x0 DUP1 PUSH2 0x100 EXP DUP2 SLOAD DUP2 PUSH20 0xFFFFFFFFFFFFFFFFFFFFFFFFFFFFFFFFFFFFFFFF MUL NOT AND SWAP1 DUP4 PUSH20 0xFFFFFFFFFFFFFFFFFFFFFFFFFFFFFFFFFFFFFFFF AND MUL OR SWAP1 SSTORE POP PUSH20 0x7A250D5630B4CF539739DF2C5DACB4C659F2488D PUSH1 0x1 PUSH1 0x0 PUSH2 0x100 EXP DUP2 SLOAD DUP2 PUSH20 0xFFFFFFFFFFFFFFFFFFFFFFFFFFFFFFFFFFFFFFFF MUL NOT AND SWAP1 DUP4 PUSH20 0xFFFFFFFFFFFFFFFFFFFFFFFFFFFFFFFFFFFFFFFF AND MUL OR SWAP1 SSTORE POP PUSH1 0x0 DUP1 SLOAD SWAP1 PUSH2 0x100 EXP SWAP1 DIV PUSH20 0xFFFFFFFFFFFFFFFFFFFFFFFFFFFFFFFFFFFFFFFF AND PUSH1 0x2 PUSH1 0x0 PUSH2 0x100 EXP DUP2 SLOAD DUP2 PUSH20 0xFFFFFFFFFFFFFFFFFFFFFFFFFFFFFFFFFFFFFFFF MUL NOT AND SWAP1 DUP4 PUSH20 0xFFFFFFFFFFFFFFFFFFFFFFFFFFFFFFFFFFFFFFFF AND MUL OR SWAP1 SSTORE POP PUSH1 0x1 PUSH1 0x0 SWAP1 SLOAD SWAP1 PUSH2 0x100 EXP SWAP1 DIV PUSH20 0xFFFFFFFFFFFFFFFFFFFFFFFFFFFFFFFFFFFFFFFF AND PUSH1 0x3 PUSH1 0x0 PUSH2 0x100 EXP DUP2 SLOAD DUP2 PUSH20 0xFFFFFFFFFFFFFFFFFFFFFFFFFFFFFFFFFFFFFFFF MUL NOT AND SWAP1 DUP4 PUSH20 0xFFFFFFFFFFFFFFFFFFFFFFFFFFFFFFFFFFFFFFFF AND MUL OR SWAP1 SSTORE POP CALLVALUE DUP1 ISZERO PUSH2 0x17D JUMPI PUSH1 0x0 DUP1 REVERT JUMPDEST POP PUSH2 0x42F DUP1 PUSH2 0x18D PUSH1 0x0 CODECOPY PUSH1 0x0 RETURN INVALID PUSH1 0x80 PUSH1 0x40 MSTORE PUSH1 0x4 CALLDATASIZE LT PUSH2 0x29 JUMPI PUSH1 0x0 CALLDATALOAD PUSH1 0xE0 SHR DUP1 PUSH4 0x9F0FE47 EQ PUSH2 0x2E JUMPI DUP1 PUSH4 0x202F474A EQ PUSH2 0x4A JUMPI JUMPDEST PUSH1 0x0 DUP1 REVERT JUMPDEST PUSH2 0x48 PUSH1 0x4 DUP1 CALLDATASIZE SUB DUP2 ADD SWAP1 PUSH2 0x43 SWAP2 SWAP1 PUSH2 0x285 JUMP JUMPDEST PUSH2 0x66 JUMP JUMPDEST STOP JUMPDEST PUSH2 0x64 PUSH1 0x4 DUP1 CALLDATASIZE SUB DUP2 ADD SWAP1 PUSH2 0x5F SWAP2 SWAP1 PUSH2 0x285 JUMP JUMPDEST PUSH2 0x119 JUMP JUMPDEST STOP JUMPDEST PUSH1 0x3 PUSH1 0x0 SWAP1 SLOAD SWAP1 PUSH2 0x100 EXP SWAP1 DIV PUSH20 0xFFFFFFFFFFFFFFFFFFFFFFFFFFFFFFFFFFFFFFFF AND PUSH20 0xFFFFFFFFFFFFFFFFFFFFFFFFFFFFFFFFFFFFFFFF AND PUSH4 0xF305D719 DUP8 DUP8 DUP8 DUP8 DUP8 DUP8 PUSH1 0x40 MLOAD DUP8 PUSH4 0xFFFFFFFF AND PUSH1 0xE0 SHL DUP2 MSTORE PUSH1 0x4 ADD PUSH2 0xCB SWAP7 SWAP6 SWAP5 SWAP4 SWAP3 SWAP2 SWAP1 PUSH2 0x330 JUMP JUMPDEST PUSH1 0x60 PUSH1 0x40 MLOAD DUP1 DUP4 SUB DUP2 PUSH1 0x0 DUP8 GAS CALL ISZERO DUP1 ISZERO PUSH2 0xEA JUMPI RETURNDATASIZE PUSH1 0x0 DUP1 RETURNDATACOPY RETURNDATASIZE PUSH1 0x0 REVERT JUMPDEST POP POP POP POP PUSH1 0x40 MLOAD RETURNDATASIZE PUSH1 0x1F NOT PUSH1 0x1F DUP3 ADD AND DUP3 ADD DUP1 PUSH1 0x40 MSTORE POP DUP2 ADD SWAP1 PUSH2 0x10E SWAP2 SWAP1 PUSH2 0x3A6 JUMP JUMPDEST POP POP POP POP POP POP POP POP POP JUMP JUMPDEST PUSH1 0x3 PUSH1 0x0 SWAP1 SLOAD SWAP1 PUSH2 0x100 EXP SWAP1 DIV PUSH20 0xFFFFFFFFFFFFFFFFFFFFFFFFFFFFFFFFFFFFFFFF AND PUSH20 0xFFFFFFFFFFFFFFFFFFFFFFFFFFFFFFFFFFFFFFFF AND PUSH4 0xF305D719 PUSH1 0x0 DUP1 SLOAD SWAP1 PUSH2 0x100 EXP SWAP1 DIV PUSH20 0xFFFFFFFFFFFFFFFFFFFFFFFFFFFFFFFFFFFFFFFF AND DUP8 DUP8 DUP8 DUP8 DUP8 PUSH1 0x40 MLOAD DUP8 PUSH4 0xFFFFFFFF AND PUSH1 0xE0 SHL DUP2 MSTORE PUSH1 0x4 ADD PUSH2 0x19E SWAP7 SWAP6 SWAP5 SWAP4 SWAP3 SWAP2 SWAP1 PUSH2 0x330 JUMP JUMPDEST PUSH1 0x60 PUSH1 0x40 MLOAD DUP1 DUP4 SUB DUP2 PUSH1 0x0 DUP8 GAS CALL ISZERO DUP1 ISZERO PUSH2 0x1BD JUMPI RETURNDATASIZE PUSH1 0x0 DUP1 RETURNDATACOPY RETURNDATASIZE PUSH1 0x0 REVERT JUMPDEST POP POP POP POP PUSH1 0x40 MLOAD RETURNDATASIZE PUSH1 0x1F NOT PUSH1 0x1F DUP3 ADD AND DUP3 ADD DUP1 PUSH1 0x40 MSTORE POP DUP2 ADD SWAP1 PUSH2 0x1E1 SWAP2 SWAP1 PUSH2 0x3A6 JUMP JUMPDEST POP POP POP POP POP POP POP POP POP JUMP JUMPDEST PUSH1 0x0 DUP1 REVERT JUMPDEST PUSH1 0x0 PUSH20 0xFFFFFFFFFFFFFFFFFFFFFFFFFFFFFFFFFFFFFFFF DUP3 AND SWAP1 POP SWAP2 SWAP1 POP JUMP JUMPDEST PUSH1 0x0 PUSH2 0x21C DUP3 PUSH2 0x1F1 JUMP JUMPDEST SWAP1 POP SWAP2 SWAP1 POP JUMP JUMPDEST PUSH2 0x22C DUP2 PUSH2 0x211 JUMP JUMPDEST DUP2 EQ PUSH2 0x237 JUMPI PUSH1 0x0 DUP1 REVERT JUMPDEST POP JUMP JUMPDEST PUSH1 0x0 DUP2 CALLDATALOAD SWAP1 POP PUSH2 0x249 DUP2 PUSH2 0x223 JUMP JUMPDEST SWAP3 SWAP2 POP POP JUMP JUMPDEST PUSH1 0x0 DUP2 SWAP1 POP SWAP2 SWAP1 POP JUMP JUMPDEST PUSH2 0x262 DUP2 PUSH2 0x24F JUMP JUMPDEST DUP2 EQ PUSH2 0x26D JUMPI PUSH1 0x0 DUP1 REVERT JUMPDEST POP JUMP JUMPDEST PUSH1 0x0 DUP2 CALLDATALOAD SWAP1 POP PUSH2 0x27F DUP2 PUSH2 0x259 JUMP JUMPDEST SWAP3 SWAP2 POP POP JUMP JUMPDEST PUSH1 0x0 DUP1 PUSH1 0x0 DUP1 PUSH1 0x0 DUP1 PUSH1 0xC0 DUP8 DUP10 SUB SLT ISZERO PUSH2 0x2A2 JUMPI PUSH2 0x2A1 PUSH2 0x1EC JUMP JUMPDEST JUMPDEST PUSH1 0x0 PUSH2 0x2B0 DUP10 DUP3 DUP11 ADD PUSH2 0x23A JUMP JUMPDEST SWAP7 POP POP PUSH1 0x20 PUSH2 0x2C1 DUP10 DUP3 DUP11 ADD PUSH2 0x270 JUMP JUMPDEST SWAP6 POP POP PUSH1 0x40 PUSH2 0x2D2 DUP10 DUP3 DUP11 ADD PUSH2 0x270 JUMP JUMPDEST SWAP5 POP POP PUSH1 0x60 PUSH2 0x2E3 DUP10 DUP3 DUP11 ADD PUSH2 0x270 JUMP JUMPDEST SWAP4 POP POP PUSH1 0x80 PUSH2 0x2F4 DUP10 DUP3 DUP11 ADD PUSH2 0x23A JUMP JUMPDEST SWAP3 POP POP PUSH1 0xA0 PUSH2 0x305 DUP10 DUP3 DUP11 ADD PUSH2 0x270 JUMP JUMPDEST SWAP2 POP POP SWAP3 SWAP6 POP SWAP3 SWAP6 POP SWAP3 SWAP6 JUMP JUMPDEST PUSH2 0x31B DUP2 PUSH2 0x211 JUMP JUMPDEST DUP3 MSTORE POP POP JUMP JUMPDEST PUSH2 0x32A DUP2 PUSH2 0x24F JUMP JUMPDEST DUP3 MSTORE POP POP JUMP JUMPDEST PUSH1 0x0 PUSH1 0xC0 DUP3 ADD SWAP1 POP PUSH2 0x345 PUSH1 0x0 DUP4 ADD DUP10 PUSH2 0x312 JUMP JUMPDEST PUSH2 0x352 PUSH1 0x20 DUP4 ADD DUP9 PUSH2 0x321 JUMP JUMPDEST PUSH2 0x35F PUSH1 0x40 DUP4 ADD DUP8 PUSH2 0x321 JUMP JUMPDEST PUSH2 0x36C PUSH1 0x60 DUP4 ADD DUP7 PUSH2 0x321 JUMP JUMPDEST PUSH2 0x379 PUSH1 0x80 DUP4 ADD DUP6 PUSH2 0x312 JUMP JUMPDEST PUSH2 0x386 PUSH1 0xA0 DUP4 ADD DUP5 PUSH2 0x321 JUMP JUMPDEST SWAP8 SWAP7 POP POP POP POP POP POP POP JUMP JUMPDEST PUSH1 0x0 DUP2 MLOAD SWAP1 POP PUSH2 0x3A0 DUP2 PUSH2 0x259 JUMP JUMPDEST SWAP3 SWAP2 POP POP JUMP JUMPDEST PUSH1 0x0 DUP1 PUSH1 0x0 PUSH1 0x60 DUP5 DUP7 SUB SLT ISZERO PUSH2 0x3BF JUMPI PUSH2 0x3BE PUSH2 0x1EC JUMP JUMPDEST JUMPDEST PUSH1 0x0 PUSH2 0x3CD DUP7 DUP3 DUP8 ADD PUSH2 0x391 JUMP JUMPDEST SWAP4 POP POP PUSH1 0x20 PUSH2 0x3DE DUP7 DUP3 DUP8 ADD PUSH2 0x391 JUMP JUMPDEST SWAP3 POP POP PUSH1 0x40 PUSH2 0x3EF DUP7 DUP3 DUP8 ADD PUSH2 0x391 JUMP JUMPDEST SWAP2 POP POP SWAP3 POP SWAP3 POP SWAP3 JUMP INVALID LOG2 PUSH5 0x6970667358 0x22 SLT KECCAK256 0xF7 0xBD CALLDATACOPY 0x4D 0xEF 0xC9 0xFC SWAP9 0xA7 0x2A SWAP13 DUP1 ORIGIN PUSH14 0xFC737E0B53225679E0625A825C06 DUP15 0xBA 0xDC DUP8 PUSH5 0x736F6C6343 STOP ADDMOD GT STOP CALLER "
				},
				"gasEstimates": {
					"creation": {
						"codeDepositCost": "214200",
						"executionCost": "101594",
						"totalCost": "315794"
					},
					"external": {
						"provideLiquitidy(address,uint256,uint256,uint256,address,uint256)": "infinite",
						"provideLiquitidy2(address,uint256,uint256,uint256,address,uint256)": "infinite"
					}
				},
				"methodIdentifiers": {
					"provideLiquitidy(address,uint256,uint256,uint256,address,uint256)": "09f0fe47",
					"provideLiquitidy2(address,uint256,uint256,uint256,address,uint256)": "202f474a"
				}
			},
			"storageLayout": {
				"storage": [
					{
						"astId": 480,
						"contract": "test.sol:liquidityProvider",
						"label": "tokenAddress",
						"offset": 0,
						"slot": "0",
						"type": "t_address"
					},
					{
						"astId": 483,
						"contract": "test.sol:liquidityProvider",
						"label": "uinswapRouterAddress",
						"offset": 0,
						"slot": "1",
						"type": "t_address"
					},
					{
						"astId": 489,
						"contract": "test.sol:liquidityProvider",
						"label": "Token",
						"offset": 0,
						"slot": "2",
						"type": "t_contract(IERC20)77"
					},
					{
						"astId": 495,
						"contract": "test.sol:liquidityProvider",
						"label": "Router",
						"offset": 0,
						"slot": "3",
						"type": "t_contract(IUniswapV2Router02)473"
					}
				],
				"types": {
					"t_address": {
						"encoding": "inplace",
						"label": "address",
						"numberOfBytes": "20"
					},
					"t_contract(IERC20)77": {
						"encoding": "inplace",
						"label": "contract IERC20",
						"numberOfBytes": "20"
					},
					"t_contract(IUniswapV2Router02)473": {
						"encoding": "inplace",
						"label": "contract IUniswapV2Router02",
						"numberOfBytes": "20"
					}
				}
			},
			"userdoc": {
				"kind": "user",
				"methods": {},
				"version": 1
			}
		}
	}
}