{
	"contracts/Hook.sol": {
		"TransactionsAndHook": {
			"abi": [
				{
					"inputs": [
						{
							"internalType": "address",
							"name": "_ERC20",
							"type": "address"
						},
						{
							"internalType": "address",
							"name": "_uniswapPair",
							"type": "address"
						},
						{
							"internalType": "address",
							"name": "_oracle",
							"type": "address"
						},
						{
							"internalType": "address",
							"name": "_crownNFT",
							"type": "address"
						},
						{
							"internalType": "address",
							"name": "_POAP",
							"type": "address"
						},
						{
							"internalType": "address",
							"name": "_initialHolder",
							"type": "address"
						}
					],
					"stateMutability": "nonpayable",
					"type": "constructor"
				},
				{
					"anonymous": false,
					"inputs": [
						{
							"indexed": false,
							"internalType": "string",
							"name": "message",
							"type": "string"
						}
					],
					"name": "Log",
					"type": "event"
				},
				{
					"anonymous": false,
					"inputs": [
						{
							"indexed": false,
							"internalType": "uint256",
							"name": "number",
							"type": "uint256"
						}
					],
					"name": "Log",
					"type": "event"
				},
				{
					"anonymous": false,
					"inputs": [
						{
							"indexed": false,
							"internalType": "address",
							"name": "ad",
							"type": "address"
						}
					],
					"name": "Log",
					"type": "event"
				},
				{
					"inputs": [],
					"name": "ERC20Address",
					"outputs": [
						{
							"internalType": "address",
							"name": "",
							"type": "address"
						}
					],
					"stateMutability": "view",
					"type": "function"
				},
				{
					"inputs": [],
					"name": "POAPAddress",
					"outputs": [
						{
							"internalType": "address",
							"name": "",
							"type": "address"
						}
					],
					"stateMutability": "view",
					"type": "function"
				},
				{
					"inputs": [],
					"name": "WethAddress",
					"outputs": [
						{
							"internalType": "address",
							"name": "",
							"type": "address"
						}
					],
					"stateMutability": "view",
					"type": "function"
				},
				{
					"inputs": [],
					"name": "buyEth",
					"outputs": [
						{
							"internalType": "uint256",
							"name": "",
							"type": "uint256"
						}
					],
					"stateMutability": "view",
					"type": "function"
				},
				{
					"inputs": [],
					"name": "crownNFTAddress",
					"outputs": [
						{
							"internalType": "address",
							"name": "",
							"type": "address"
						}
					],
					"stateMutability": "view",
					"type": "function"
				},
				{
					"inputs": [],
					"name": "getLastEthRecieved",
					"outputs": [
						{
							"internalType": "uint256",
							"name": "",
							"type": "uint256"
						}
					],
					"stateMutability": "view",
					"type": "function"
				},
				{
					"inputs": [],
					"name": "getWethBalance",
					"outputs": [
						{
							"internalType": "uint256",
							"name": "",
							"type": "uint256"
						}
					],
					"stateMutability": "nonpayable",
					"type": "function"
				},
				{
					"inputs": [],
					"name": "liquidityEth",
					"outputs": [
						{
							"internalType": "uint256",
							"name": "",
							"type": "uint256"
						}
					],
					"stateMutability": "view",
					"type": "function"
				},
				{
					"inputs": [],
					"name": "oracleAddress",
					"outputs": [
						{
							"internalType": "address",
							"name": "",
							"type": "address"
						}
					],
					"stateMutability": "view",
					"type": "function"
				},
				{
					"inputs": [
						{
							"internalType": "uint256",
							"name": "",
							"type": "uint256"
						}
					],
					"name": "path",
					"outputs": [
						{
							"internalType": "address",
							"name": "",
							"type": "address"
						}
					],
					"stateMutability": "view",
					"type": "function"
				},
				{
					"inputs": [],
					"name": "percentLiquidity",
					"outputs": [
						{
							"internalType": "uint256",
							"name": "",
							"type": "uint256"
						}
					],
					"stateMutability": "view",
					"type": "function"
				},
				{
					"inputs": [
						{
							"internalType": "address",
							"name": "_newOwner",
							"type": "address"
						}
					],
					"name": "superBuy",
					"outputs": [],
					"stateMutability": "payable",
					"type": "function"
				},
				{
					"inputs": [],
					"name": "totalRoyalties",
					"outputs": [
						{
							"internalType": "uint256",
							"name": "",
							"type": "uint256"
						}
					],
					"stateMutability": "view",
					"type": "function"
				},
				{
					"inputs": [
						{
							"internalType": "uint256",
							"name": "",
							"type": "uint256"
						}
					],
					"name": "transactionFromPOAPId",
					"outputs": [
						{
							"internalType": "uint256",
							"name": "POAPId",
							"type": "uint256"
						},
						{
							"internalType": "address",
							"name": "purchaser",
							"type": "address"
						},
						{
							"internalType": "uint256",
							"name": "receivedEth",
							"type": "uint256"
						}
					],
					"stateMutability": "view",
					"type": "function"
				},
				{
					"inputs": [],
					"name": "uniswapPairAddress",
					"outputs": [
						{
							"internalType": "address",
							"name": "",
							"type": "address"
						}
					],
					"stateMutability": "view",
					"type": "function"
				},
				{
					"inputs": [],
					"name": "uniswapRouterAddress",
					"outputs": [
						{
							"internalType": "address",
							"name": "",
							"type": "address"
						}
					],
					"stateMutability": "view",
					"type": "function"
				},
				{
					"inputs": [
						{
							"internalType": "address",
							"name": "_address",
							"type": "address"
						}
					],
					"name": "updateERC20Address",
					"outputs": [],
					"stateMutability": "nonpayable",
					"type": "function"
				},
				{
					"inputs": [
						{
							"internalType": "address",
							"name": "_ERC20Address",
							"type": "address"
						}
					],
					"name": "withdraw",
					"outputs": [],
					"stateMutability": "nonpayable",
					"type": "function"
				},
				{
					"stateMutability": "payable",
					"type": "receive"
				}
			],
			"devdoc": {
				"kind": "dev",
				"methods": {},
				"version": 1
			},
			"evm": {
				"assembly": "    /* \"contracts/Hook.sol\":1217:9224  contract TransactionsAndHook{... */\n  mstore(0x40, 0x80)\n    /* \"contracts/Hook.sol\":2019:2061  0xB4FBF271143F4FBf7B91A5ded31805e42b2208d6 */\n  0xb4fbf271143f4fbf7b91a5ded31805e42b2208d6\n    /* \"contracts/Hook.sol\":1990:2061  address public WethAddress = 0xB4FBF271143F4FBf7B91A5ded31805e42b2208d6 */\n  0x00\n  dup1\n  0x0100\n  exp\n  dup2\n  sload\n  dup2\n  0xffffffffffffffffffffffffffffffffffffffff\n  mul\n  not\n  and\n  swap1\n  dup4\n  0xffffffffffffffffffffffffffffffffffffffff\n  and\n  mul\n  or\n  swap1\n  sstore\n  pop\n    /* \"contracts/Hook.sol\":2279:2321  0x7a250d5630B4cF539739dF2C5dAcb4c659F2488D */\n  0x7a250d5630b4cf539739df2c5dacb4c659f2488d\n    /* \"contracts/Hook.sol\":2241:2321  address public uniswapRouterAddress = 0x7a250d5630B4cF539739dF2C5dAcb4c659F2488D */\n  0x06\n  exp(0x0100, 0x00)\n  dup2\n  sload\n  dup2\n  0xffffffffffffffffffffffffffffffffffffffff\n  mul\n  not\n  and\n  swap1\n  dup4\n  0xffffffffffffffffffffffffffffffffffffffff\n  and\n  mul\n  or\n  swap1\n  sstore\n  pop\n    /* \"contracts/Hook.sol\":2327:2377  address[] public path = [WethAddress,ERC20Address] */\n  mload(0x40)\n  dup1\n  0x40\n  add\n  0x40\n  mstore\n  dup1\n    /* \"contracts/Hook.sol\":2352:2363  WethAddress */\n  0x00\n  dup1\n  sload\n  swap1\n  0x0100\n  exp\n  swap1\n  div\n  0xffffffffffffffffffffffffffffffffffffffff\n  and\n    /* \"contracts/Hook.sol\":2327:2377  address[] public path = [WethAddress,ERC20Address] */\n  0xffffffffffffffffffffffffffffffffffffffff\n  and\n  0xffffffffffffffffffffffffffffffffffffffff\n  and\n  dup2\n  mstore\n  0x20\n  add\n    /* \"contracts/Hook.sol\":2364:2376  ERC20Address */\n  0x01\n  0x00\n  swap1\n  sload\n  swap1\n  0x0100\n  exp\n  swap1\n  div\n  0xffffffffffffffffffffffffffffffffffffffff\n  and\n    /* \"contracts/Hook.sol\":2327:2377  address[] public path = [WethAddress,ERC20Address] */\n  0xffffffffffffffffffffffffffffffffffffffff\n  and\n  0xffffffffffffffffffffffffffffffffffffffff\n  and\n  dup2\n  mstore\n  pop\n  0x07\n  swap1\n  0x02\n  tag_1\n  swap3\n  swap2\n  swap1\n  tag_2\n  jump\t// in\ntag_1:\n  pop\n    /* \"contracts/Hook.sol\":2402:2413  POAPAddress */\n  0x05\n  0x00\n  swap1\n  sload\n  swap1\n  0x0100\n  exp\n  swap1\n  div\n  0xffffffffffffffffffffffffffffffffffffffff\n  and\n    /* \"contracts/Hook.sol\":2383:2414  iPOAP POAP = iPOAP(POAPAddress) */\n  0x08\n  exp(0x0100, 0x00)\n  dup2\n  sload\n  dup2\n  0xffffffffffffffffffffffffffffffffffffffff\n  mul\n  not\n  and\n  swap1\n  dup4\n  0xffffffffffffffffffffffffffffffffffffffff\n  and\n  mul\n  or\n  swap1\n  sstore\n  pop\n    /* \"contracts/Hook.sol\":2445:2456  WethAddress */\n  0x00\n  dup1\n  sload\n  swap1\n  0x0100\n  exp\n  swap1\n  div\n  0xffffffffffffffffffffffffffffffffffffffff\n  and\n    /* \"contracts/Hook.sol\":2420:2457  WethLike WETH = WethLike(WethAddress) */\n  0x09\n  exp(0x0100, 0x00)\n  dup2\n  sload\n  dup2\n  0xffffffffffffffffffffffffffffffffffffffff\n  mul\n  not\n  and\n  swap1\n  dup4\n  0xffffffffffffffffffffffffffffffffffffffff\n  and\n  mul\n  or\n  swap1\n  sstore\n  pop\n    /* \"contracts/Hook.sol\":2488:2501  oracleAddress */\n  0x03\n  0x00\n  swap1\n  sload\n  swap1\n  0x0100\n  exp\n  swap1\n  div\n  0xffffffffffffffffffffffffffffffffffffffff\n  and\n    /* \"contracts/Hook.sol\":2463:2502  iOracle Oracle = iOracle(oracleAddress) */\n  0x0a\n  exp(0x0100, 0x00)\n  dup2\n  sload\n  dup2\n  0xffffffffffffffffffffffffffffffffffffffff\n  mul\n  not\n  and\n  swap1\n  dup4\n  0xffffffffffffffffffffffffffffffffffffffff\n  and\n  mul\n  or\n  swap1\n  sstore\n  pop\n    /* \"contracts/Hook.sol\":2562:2582  uniswapRouterAddress */\n  0x06\n  0x00\n  swap1\n  sload\n  swap1\n  0x0100\n  exp\n  swap1\n  div\n  0xffffffffffffffffffffffffffffffffffffffff\n  and\n    /* \"contracts/Hook.sol\":2508:2583  IUniswapV2Router02 UniswapRouter = IUniswapV2Router02(uniswapRouterAddress) */\n  0x0b\n  exp(0x0100, 0x00)\n  dup2\n  sload\n  dup2\n  0xffffffffffffffffffffffffffffffffffffffff\n  mul\n  not\n  and\n  swap1\n  dup4\n  0xffffffffffffffffffffffffffffffffffffffff\n  and\n  mul\n  or\n  swap1\n  sstore\n  pop\n    /* \"contracts/Hook.sol\":1251:1866  constructor(address _ERC20,address _uniswapPair,address _oracle,address _crownNFT,address _POAP, address _initialHolder){... */\n  callvalue\n  dup1\n  iszero\n  tag_3\n  jumpi\n  0x00\n  dup1\n  revert\ntag_3:\n  pop\n  mload(0x40)\n  sub(codesize, bytecodeSize)\n  dup1\n  bytecodeSize\n  dup4\n  codecopy\n  dup2\n  dup2\n  add\n  0x40\n  mstore\n  dup2\n  add\n  swap1\n  tag_4\n  swap2\n  swap1\n  tag_5\n  jump\t// in\ntag_4:\n    /* \"contracts/Hook.sol\":1469:1475  _ERC20 */\n  dup6\n    /* \"contracts/Hook.sol\":1454:1466  ERC20Address */\n  0x01\n  0x00\n    /* \"contracts/Hook.sol\":1454:1475  ERC20Address = _ERC20 */\n  0x0100\n  exp\n  dup2\n  sload\n  dup2\n  0xffffffffffffffffffffffffffffffffffffffff\n  mul\n  not\n  and\n  swap1\n  dup4\n  0xffffffffffffffffffffffffffffffffffffffff\n  and\n  mul\n  or\n  swap1\n  sstore\n  pop\n    /* \"contracts/Hook.sol\":1506:1518  _uniswapPair */\n  dup5\n    /* \"contracts/Hook.sol\":1485:1503  uniswapPairAddress */\n  0x02\n  0x00\n    /* \"contracts/Hook.sol\":1485:1518  uniswapPairAddress = _uniswapPair */\n  0x0100\n  exp\n  dup2\n  sload\n  dup2\n  0xffffffffffffffffffffffffffffffffffffffff\n  mul\n  not\n  and\n  swap1\n  dup4\n  0xffffffffffffffffffffffffffffffffffffffff\n  and\n  mul\n  or\n  swap1\n  sstore\n  pop\n    /* \"contracts/Hook.sol\":1544:1551  _oracle */\n  dup4\n    /* \"contracts/Hook.sol\":1528:1541  oracleAddress */\n  0x03\n  0x00\n    /* \"contracts/Hook.sol\":1528:1551  oracleAddress = _oracle */\n  0x0100\n  exp\n  dup2\n  sload\n  dup2\n  0xffffffffffffffffffffffffffffffffffffffff\n  mul\n  not\n  and\n  swap1\n  dup4\n  0xffffffffffffffffffffffffffffffffffffffff\n  and\n  mul\n  or\n  swap1\n  sstore\n  pop\n    /* \"contracts/Hook.sol\":1578:1591  oracleAddress */\n  0x03\n  0x00\n  swap1\n  sload\n  swap1\n  0x0100\n  exp\n  swap1\n  div\n  0xffffffffffffffffffffffffffffffffffffffff\n  and\n    /* \"contracts/Hook.sol\":1561:1567  Oracle */\n  0x0a\n  0x00\n    /* \"contracts/Hook.sol\":1561:1592  Oracle = iOracle(oracleAddress) */\n  0x0100\n  exp\n  dup2\n  sload\n  dup2\n  0xffffffffffffffffffffffffffffffffffffffff\n  mul\n  not\n  and\n  swap1\n  dup4\n  0xffffffffffffffffffffffffffffffffffffffff\n  and\n  mul\n  or\n  swap1\n  sstore\n  pop\n    /* \"contracts/Hook.sol\":1620:1629  _crownNFT */\n  dup3\n    /* \"contracts/Hook.sol\":1602:1617  crownNFTAddress */\n  0x04\n  0x00\n    /* \"contracts/Hook.sol\":1602:1629  crownNFTAddress = _crownNFT */\n  0x0100\n  exp\n  dup2\n  sload\n  dup2\n  0xffffffffffffffffffffffffffffffffffffffff\n  mul\n  not\n  and\n  swap1\n  dup4\n  0xffffffffffffffffffffffffffffffffffffffff\n  and\n  mul\n  or\n  swap1\n  sstore\n  pop\n    /* \"contracts/Hook.sol\":1653:1658  _POAP */\n  dup2\n    /* \"contracts/Hook.sol\":1639:1650  POAPAddress */\n  0x05\n  0x00\n    /* \"contracts/Hook.sol\":1639:1658  POAPAddress = _POAP */\n  0x0100\n  exp\n  dup2\n  sload\n  dup2\n  0xffffffffffffffffffffffffffffffffffffffff\n  mul\n  not\n  and\n  swap1\n  dup4\n  0xffffffffffffffffffffffffffffffffffffffff\n  and\n  mul\n  or\n  swap1\n  sstore\n  pop\n    /* \"contracts/Hook.sol\":1681:1692  POAPAddress */\n  0x05\n  0x00\n  swap1\n  sload\n  swap1\n  0x0100\n  exp\n  swap1\n  div\n  0xffffffffffffffffffffffffffffffffffffffff\n  and\n    /* \"contracts/Hook.sol\":1668:1672  POAP */\n  0x08\n  0x00\n    /* \"contracts/Hook.sol\":1668:1693  POAP = iPOAP(POAPAddress) */\n  0x0100\n  exp\n  dup2\n  sload\n  dup2\n  0xffffffffffffffffffffffffffffffffffffffff\n  mul\n  not\n  and\n  swap1\n  dup4\n  0xffffffffffffffffffffffffffffffffffffffff\n  and\n  mul\n  or\n  swap1\n  sstore\n  pop\n    /* \"contracts/Hook.sol\":1703:1740  setInitialTranscation(_initialHolder) */\n  tag_8\n    /* \"contracts/Hook.sol\":1725:1739  _initialHolder */\n  dup2\n    /* \"contracts/Hook.sol\":1703:1724  setInitialTranscation */\n  shl(0x20, tag_9)\n    /* \"contracts/Hook.sol\":1703:1740  setInitialTranscation(_initialHolder) */\n  0x20\n  shr\n  jump\t// in\ntag_8:\n    /* \"contracts/Hook.sol\":1251:1866  constructor(address _ERC20,address _uniswapPair,address _oracle,address _crownNFT,address _POAP, address _initialHolder){... */\n  pop\n  pop\n  pop\n  pop\n  pop\n  pop\n    /* \"contracts/Hook.sol\":1217:9224  contract TransactionsAndHook{... */\n  jump(tag_10)\n    /* \"contracts/Hook.sol\":2920:3035  function setInitialTranscation (address _initialHolder) internal {... */\ntag_9:\n    /* \"contracts/Hook.sol\":2995:3028  newTransaction(0, _initialHolder) */\n  tag_12\n    /* \"contracts/Hook.sol\":3010:3011  0 */\n  0x00\n    /* \"contracts/Hook.sol\":3013:3027  _initialHolder */\n  dup3\n    /* \"contracts/Hook.sol\":2995:3009  newTransaction */\n  shl(0x20, tag_13)\n    /* \"contracts/Hook.sol\":2995:3028  newTransaction(0, _initialHolder) */\n  0x20\n  shr\n  jump\t// in\ntag_12:\n    /* \"contracts/Hook.sol\":2920:3035  function setInitialTranscation (address _initialHolder) internal {... */\n  pop\n  jump\t// out\n    /* \"contracts/Hook.sol\":3041:3401  function newTransaction (uint _receivedEth, address _newOwner) internal {... */\ntag_13:\n    /* \"contracts/Hook.sol\":3123:3134  uint POAPId */\n  0x00\n    /* \"contracts/Hook.sol\":3137:3144  POAPIds */\n  0x0d\n    /* \"contracts/Hook.sol\":3137:3151  POAPIds.length */\n  dup1\n  sload\n  swap1\n  pop\n    /* \"contracts/Hook.sol\":3123:3151  uint POAPId = POAPIds.length */\n  swap1\n  pop\n    /* \"contracts/Hook.sol\":3161:3192  Transaction storage transaction */\n  0x00\n    /* \"contracts/Hook.sol\":3195:3216  transactionFromPOAPId */\n  0x0c\n    /* \"contracts/Hook.sol\":3195:3232  transactionFromPOAPId[POAPIds.length] */\n  0x00\n    /* \"contracts/Hook.sol\":3217:3224  POAPIds */\n  0x0d\n    /* \"contracts/Hook.sol\":3217:3231  POAPIds.length */\n  dup1\n  sload\n  swap1\n  pop\n    /* \"contracts/Hook.sol\":3195:3232  transactionFromPOAPId[POAPIds.length] */\n  dup2\n  mstore\n  0x20\n  add\n  swap1\n  dup2\n  mstore\n  0x20\n  add\n  0x00\n  keccak256\n    /* \"contracts/Hook.sol\":3161:3232  Transaction storage transaction = transactionFromPOAPId[POAPIds.length] */\n  swap1\n  pop\n    /* \"contracts/Hook.sol\":3263:3269  POAPId */\n  dup2\n    /* \"contracts/Hook.sol\":3242:3253  transaction */\n  dup2\n    /* \"contracts/Hook.sol\":3242:3260  transaction.POAPId */\n  0x00\n  add\n    /* \"contracts/Hook.sol\":3242:3269  transaction.POAPId = POAPId */\n  dup2\n  swap1\n  sstore\n  pop\n    /* \"contracts/Hook.sol\":3303:3312  _newOwner */\n  dup3\n    /* \"contracts/Hook.sol\":3279:3290  transaction */\n  dup2\n    /* \"contracts/Hook.sol\":3279:3300  transaction.purchaser */\n  0x01\n  add\n  0x00\n    /* \"contracts/Hook.sol\":3279:3312  transaction.purchaser = _newOwner */\n  0x0100\n  exp\n  dup2\n  sload\n  dup2\n  0xffffffffffffffffffffffffffffffffffffffff\n  mul\n  not\n  and\n  swap1\n  dup4\n  0xffffffffffffffffffffffffffffffffffffffff\n  and\n  mul\n  or\n  swap1\n  sstore\n  pop\n    /* \"contracts/Hook.sol\":3348:3360  _receivedEth */\n  dup4\n    /* \"contracts/Hook.sol\":3322:3333  transaction */\n  dup2\n    /* \"contracts/Hook.sol\":3322:3345  transaction.receivedEth */\n  0x02\n  add\n    /* \"contracts/Hook.sol\":3322:3360  transaction.receivedEth = _receivedEth */\n  dup2\n  swap1\n  sstore\n  pop\n    /* \"contracts/Hook.sol\":3370:3377  POAPIds */\n  0x0d\n    /* \"contracts/Hook.sol\":3383:3389  POAPId */\n  dup3\n    /* \"contracts/Hook.sol\":3370:3390  POAPIds.push(POAPId) */\n  swap1\n  dup1\n  0x01\n  dup2\n  sload\n  add\n  dup1\n  dup3\n  sstore\n  dup1\n  swap2\n  pop\n  pop\n  0x01\n  swap1\n  sub\n  swap1\n  0x00\n  mstore\n  keccak256(0x00, 0x20)\n  add\n  0x00\n  swap1\n  swap2\n  swap1\n  swap2\n  swap1\n  swap2\n  pop\n  sstore\n    /* \"contracts/Hook.sol\":3113:3401  {... */\n  pop\n  pop\n    /* \"contracts/Hook.sol\":3041:3401  function newTransaction (uint _receivedEth, address _newOwner) internal {... */\n  pop\n  pop\n  jump\t// out\n    /* \"contracts/Hook.sol\":1217:9224  contract TransactionsAndHook{... */\ntag_2:\n  dup3\n  dup1\n  sload\n  dup3\n  dup3\n  sstore\n  swap1\n  0x00\n  mstore\n  keccak256(0x00, 0x20)\n  swap1\n  dup2\n  add\n  swap3\n  dup3\n  iszero\n  tag_16\n  jumpi\n  swap2\n  0x20\n  mul\n  dup3\n  add\ntag_17:\n  dup3\n  dup2\n  gt\n  iszero\n  tag_18\n  jumpi\n  dup3\n  mload\n  dup3\n  exp(0x0100, 0x00)\n  dup2\n  sload\n  dup2\n  0xffffffffffffffffffffffffffffffffffffffff\n  mul\n  not\n  and\n  swap1\n  dup4\n  0xffffffffffffffffffffffffffffffffffffffff\n  and\n  mul\n  or\n  swap1\n  sstore\n  pop\n  swap2\n  0x20\n  add\n  swap2\n  swap1\n  0x01\n  add\n  swap1\n  jump(tag_17)\ntag_18:\ntag_16:\n  pop\n  swap1\n  pop\n  tag_19\n  swap2\n  swap1\n  tag_20\n  jump\t// in\ntag_19:\n  pop\n  swap1\n  jump\t// out\ntag_20:\ntag_21:\n  dup1\n  dup3\n  gt\n  iszero\n  tag_22\n  jumpi\n  0x00\n  dup2\n  0x00\n  swap1\n  sstore\n  pop\n  0x01\n  add\n  jump(tag_21)\ntag_22:\n  pop\n  swap1\n  jump\t// out\n    /* \"#utility.yul\":88:205   */\ntag_24:\n    /* \"#utility.yul\":197:198   */\n  0x00\n    /* \"#utility.yul\":194:195   */\n  dup1\n    /* \"#utility.yul\":187:199   */\n  revert\n    /* \"#utility.yul\":334:460   */\ntag_26:\n    /* \"#utility.yul\":371:378   */\n  0x00\n    /* \"#utility.yul\":411:453   */\n  0xffffffffffffffffffffffffffffffffffffffff\n    /* \"#utility.yul\":404:409   */\n  dup3\n    /* \"#utility.yul\":400:454   */\n  and\n    /* \"#utility.yul\":389:454   */\n  swap1\n  pop\n    /* \"#utility.yul\":334:460   */\n  swap2\n  swap1\n  pop\n  jump\t// out\n    /* \"#utility.yul\":466:562   */\ntag_27:\n    /* \"#utility.yul\":503:510   */\n  0x00\n    /* \"#utility.yul\":532:556   */\n  tag_36\n    /* \"#utility.yul\":550:555   */\n  dup3\n    /* \"#utility.yul\":532:556   */\n  tag_26\n  jump\t// in\ntag_36:\n    /* \"#utility.yul\":521:556   */\n  swap1\n  pop\n    /* \"#utility.yul\":466:562   */\n  swap2\n  swap1\n  pop\n  jump\t// out\n    /* \"#utility.yul\":568:690   */\ntag_28:\n    /* \"#utility.yul\":641:665   */\n  tag_38\n    /* \"#utility.yul\":659:664   */\n  dup2\n    /* \"#utility.yul\":641:665   */\n  tag_27\n  jump\t// in\ntag_38:\n    /* \"#utility.yul\":634:639   */\n  dup2\n    /* \"#utility.yul\":631:666   */\n  eq\n    /* \"#utility.yul\":621:684   */\n  tag_39\n  jumpi\n    /* \"#utility.yul\":680:681   */\n  0x00\n    /* \"#utility.yul\":677:678   */\n  dup1\n    /* \"#utility.yul\":670:682   */\n  revert\n    /* \"#utility.yul\":621:684   */\ntag_39:\n    /* \"#utility.yul\":568:690   */\n  pop\n  jump\t// out\n    /* \"#utility.yul\":696:839   */\ntag_29:\n    /* \"#utility.yul\":753:758   */\n  0x00\n    /* \"#utility.yul\":784:790   */\n  dup2\n    /* \"#utility.yul\":778:791   */\n  mload\n    /* \"#utility.yul\":769:791   */\n  swap1\n  pop\n    /* \"#utility.yul\":800:833   */\n  tag_41\n    /* \"#utility.yul\":827:832   */\n  dup2\n    /* \"#utility.yul\":800:833   */\n  tag_28\n  jump\t// in\ntag_41:\n    /* \"#utility.yul\":696:839   */\n  swap3\n  swap2\n  pop\n  pop\n  jump\t// out\n    /* \"#utility.yul\":845:1979   */\ntag_5:\n    /* \"#utility.yul\":960:966   */\n  0x00\n    /* \"#utility.yul\":968:974   */\n  dup1\n    /* \"#utility.yul\":976:982   */\n  0x00\n    /* \"#utility.yul\":984:990   */\n  dup1\n    /* \"#utility.yul\":992:998   */\n  0x00\n    /* \"#utility.yul\":1000:1006   */\n  dup1\n    /* \"#utility.yul\":1049:1052   */\n  0xc0\n    /* \"#utility.yul\":1037:1046   */\n  dup8\n    /* \"#utility.yul\":1028:1035   */\n  dup10\n    /* \"#utility.yul\":1024:1047   */\n  sub\n    /* \"#utility.yul\":1020:1053   */\n  slt\n    /* \"#utility.yul\":1017:1137   */\n  iszero\n  tag_43\n  jumpi\n    /* \"#utility.yul\":1056:1135   */\n  tag_44\n  tag_24\n  jump\t// in\ntag_44:\n    /* \"#utility.yul\":1017:1137   */\ntag_43:\n    /* \"#utility.yul\":1176:1177   */\n  0x00\n    /* \"#utility.yul\":1201:1265   */\n  tag_45\n    /* \"#utility.yul\":1257:1264   */\n  dup10\n    /* \"#utility.yul\":1248:1254   */\n  dup3\n    /* \"#utility.yul\":1237:1246   */\n  dup11\n    /* \"#utility.yul\":1233:1255   */\n  add\n    /* \"#utility.yul\":1201:1265   */\n  tag_29\n  jump\t// in\ntag_45:\n    /* \"#utility.yul\":1191:1265   */\n  swap7\n  pop\n    /* \"#utility.yul\":1147:1275   */\n  pop\n    /* \"#utility.yul\":1314:1316   */\n  0x20\n    /* \"#utility.yul\":1340:1404   */\n  tag_46\n    /* \"#utility.yul\":1396:1403   */\n  dup10\n    /* \"#utility.yul\":1387:1393   */\n  dup3\n    /* \"#utility.yul\":1376:1385   */\n  dup11\n    /* \"#utility.yul\":1372:1394   */\n  add\n    /* \"#utility.yul\":1340:1404   */\n  tag_29\n  jump\t// in\ntag_46:\n    /* \"#utility.yul\":1330:1404   */\n  swap6\n  pop\n    /* \"#utility.yul\":1285:1414   */\n  pop\n    /* \"#utility.yul\":1453:1455   */\n  0x40\n    /* \"#utility.yul\":1479:1543   */\n  tag_47\n    /* \"#utility.yul\":1535:1542   */\n  dup10\n    /* \"#utility.yul\":1526:1532   */\n  dup3\n    /* \"#utility.yul\":1515:1524   */\n  dup11\n    /* \"#utility.yul\":1511:1533   */\n  add\n    /* \"#utility.yul\":1479:1543   */\n  tag_29\n  jump\t// in\ntag_47:\n    /* \"#utility.yul\":1469:1543   */\n  swap5\n  pop\n    /* \"#utility.yul\":1424:1553   */\n  pop\n    /* \"#utility.yul\":1592:1594   */\n  0x60\n    /* \"#utility.yul\":1618:1682   */\n  tag_48\n    /* \"#utility.yul\":1674:1681   */\n  dup10\n    /* \"#utility.yul\":1665:1671   */\n  dup3\n    /* \"#utility.yul\":1654:1663   */\n  dup11\n    /* \"#utility.yul\":1650:1672   */\n  add\n    /* \"#utility.yul\":1618:1682   */\n  tag_29\n  jump\t// in\ntag_48:\n    /* \"#utility.yul\":1608:1682   */\n  swap4\n  pop\n    /* \"#utility.yul\":1563:1692   */\n  pop\n    /* \"#utility.yul\":1731:1734   */\n  0x80\n    /* \"#utility.yul\":1758:1822   */\n  tag_49\n    /* \"#utility.yul\":1814:1821   */\n  dup10\n    /* \"#utility.yul\":1805:1811   */\n  dup3\n    /* \"#utility.yul\":1794:1803   */\n  dup11\n    /* \"#utility.yul\":1790:1812   */\n  add\n    /* \"#utility.yul\":1758:1822   */\n  tag_29\n  jump\t// in\ntag_49:\n    /* \"#utility.yul\":1748:1822   */\n  swap3\n  pop\n    /* \"#utility.yul\":1702:1832   */\n  pop\n    /* \"#utility.yul\":1871:1874   */\n  0xa0\n    /* \"#utility.yul\":1898:1962   */\n  tag_50\n    /* \"#utility.yul\":1954:1961   */\n  dup10\n    /* \"#utility.yul\":1945:1951   */\n  dup3\n    /* \"#utility.yul\":1934:1943   */\n  dup11\n    /* \"#utility.yul\":1930:1952   */\n  add\n    /* \"#utility.yul\":1898:1962   */\n  tag_29\n  jump\t// in\ntag_50:\n    /* \"#utility.yul\":1888:1962   */\n  swap2\n  pop\n    /* \"#utility.yul\":1842:1972   */\n  pop\n    /* \"#utility.yul\":845:1979   */\n  swap3\n  swap6\n  pop\n  swap3\n  swap6\n  pop\n  swap3\n  swap6\n  jump\t// out\n    /* \"contracts/Hook.sol\":1217:9224  contract TransactionsAndHook{... */\ntag_10:\n  dataSize(sub_0)\n  dup1\n  dataOffset(sub_0)\n  0x00\n  codecopy\n  0x00\n  return\nstop\n\nsub_0: assembly {\n        /* \"contracts/Hook.sol\":1217:9224  contract TransactionsAndHook{... */\n      mstore(0x40, 0x80)\n      jumpi(tag_1, lt(calldatasize, 0x04))\n      shr(0xe0, calldataload(0x00))\n      dup1\n      0xa09ede07\n      gt\n      tag_21\n      jumpi\n      dup1\n      0xaef75107\n      gt\n      tag_22\n      jumpi\n      dup1\n      0xaef75107\n      eq\n      tag_16\n      jumpi\n      dup1\n      0xaf6d1fe4\n      eq\n      tag_17\n      jumpi\n      dup1\n      0xbd3733fe\n      eq\n      tag_18\n      jumpi\n      dup1\n      0xbfd9ea5b\n      eq\n      tag_19\n      jumpi\n      dup1\n      0xc1f2e5f1\n      eq\n      tag_20\n      jumpi\n      jump(tag_2)\n    tag_22:\n      dup1\n      0xa09ede07\n      eq\n      tag_12\n      jumpi\n      dup1\n      0xa6021ace\n      eq\n      tag_13\n      jumpi\n      dup1\n      0xa785a3d8\n      eq\n      tag_14\n      jumpi\n      dup1\n      0xa89ae4ba\n      eq\n      tag_15\n      jumpi\n      jump(tag_2)\n    tag_21:\n      dup1\n      0x4cfd1ba5\n      gt\n      tag_23\n      jumpi\n      dup1\n      0x4cfd1ba5\n      eq\n      tag_7\n      jumpi\n      dup1\n      0x51cff8d9\n      eq\n      tag_8\n      jumpi\n      dup1\n      0x777b506f\n      eq\n      tag_9\n      jumpi\n      dup1\n      0x86d02608\n      eq\n      tag_10\n      jumpi\n      dup1\n      0x9dd58b58\n      eq\n      tag_11\n      jumpi\n      jump(tag_2)\n    tag_23:\n      dup1\n      0x0b2b4d9b\n      eq\n      tag_3\n      jumpi\n      dup1\n      0x1b017fde\n      eq\n      tag_4\n      jumpi\n      dup1\n      0x20ca3c7f\n      eq\n      tag_5\n      jumpi\n      dup1\n      0x2c4c3c1b\n      eq\n      tag_6\n      jumpi\n      jump(tag_2)\n    tag_1:\n      jumpi(tag_2, calldatasize)\n      stop\n    tag_2:\n      0x00\n      dup1\n      revert\n        /* \"contracts/Hook.sol\":9051:9177  function superBuy(address _newOwner) public payable{... */\n    tag_3:\n      tag_26\n      0x04\n      dup1\n      calldatasize\n      sub\n      dup2\n      add\n      swap1\n      tag_27\n      swap2\n      swap1\n      tag_28\n      jump\t// in\n    tag_27:\n      tag_29\n      jump\t// in\n    tag_26:\n      stop\n        /* \"contracts/Hook.sol\":2715:2807  function updateERC20Address(address _address) public{... */\n    tag_4:\n      callvalue\n      dup1\n      iszero\n      tag_30\n      jumpi\n      0x00\n      dup1\n      revert\n    tag_30:\n      pop\n      tag_31\n      0x04\n      dup1\n      calldatasize\n      sub\n      dup2\n      add\n      swap1\n      tag_32\n      swap2\n      swap1\n      tag_28\n      jump\t// in\n    tag_32:\n      tag_33\n      jump\t// in\n    tag_31:\n      stop\n        /* \"contracts/Hook.sol\":2241:2321  address public uniswapRouterAddress = 0x7a250d5630B4cF539739dF2C5dAcb4c659F2488D */\n    tag_5:\n      callvalue\n      dup1\n      iszero\n      tag_34\n      jumpi\n      0x00\n      dup1\n      revert\n    tag_34:\n      pop\n      tag_35\n      tag_36\n      jump\t// in\n    tag_35:\n      mload(0x40)\n      tag_37\n      swap2\n      swap1\n      tag_38\n      jump\t// in\n    tag_37:\n      mload(0x40)\n      dup1\n      swap2\n      sub\n      swap1\n      return\n        /* \"contracts/Hook.sol\":2589:2647  mapping (uint => Transaction) public transactionFromPOAPId */\n    tag_6:\n      callvalue\n      dup1\n      iszero\n      tag_39\n      jumpi\n      0x00\n      dup1\n      revert\n    tag_39:\n      pop\n      tag_40\n      0x04\n      dup1\n      calldatasize\n      sub\n      dup2\n      add\n      swap1\n      tag_41\n      swap2\n      swap1\n      tag_42\n      jump\t// in\n    tag_41:\n      tag_43\n      jump\t// in\n    tag_40:\n      mload(0x40)\n      tag_44\n      swap4\n      swap3\n      swap2\n      swap1\n      tag_45\n      jump\t// in\n    tag_44:\n      mload(0x40)\n      dup1\n      swap2\n      sub\n      swap1\n      return\n        /* \"contracts/Hook.sol\":5659:5677  uint public buyEth */\n    tag_7:\n      callvalue\n      dup1\n      iszero\n      tag_46\n      jumpi\n      0x00\n      dup1\n      revert\n    tag_46:\n      pop\n      tag_47\n      tag_48\n      jump\t// in\n    tag_47:\n      mload(0x40)\n      tag_49\n      swap2\n      swap1\n      tag_50\n      jump\t// in\n    tag_49:\n      mload(0x40)\n      dup1\n      swap2\n      sub\n      swap1\n      return\n        /* \"contracts/Hook.sol\":3411:3613  function withdraw(address _ERC20Address) public {... */\n    tag_8:\n      callvalue\n      dup1\n      iszero\n      tag_51\n      jumpi\n      0x00\n      dup1\n      revert\n    tag_51:\n      pop\n      tag_52\n      0x04\n      dup1\n      calldatasize\n      sub\n      dup2\n      add\n      swap1\n      tag_53\n      swap2\n      swap1\n      tag_28\n      jump\t// in\n    tag_53:\n      tag_54\n      jump\t// in\n    tag_52:\n      stop\n        /* \"contracts/Hook.sol\":2173:2203  address public crownNFTAddress */\n    tag_9:\n      callvalue\n      dup1\n      iszero\n      tag_55\n      jumpi\n      0x00\n      dup1\n      revert\n    tag_55:\n      pop\n      tag_56\n      tag_57\n      jump\t// in\n    tag_56:\n      mload(0x40)\n      tag_58\n      swap2\n      swap1\n      tag_38\n      jump\t// in\n    tag_58:\n      mload(0x40)\n      dup1\n      swap2\n      sub\n      swap1\n      return\n        /* \"contracts/Hook.sol\":2673:2699  uint public totalRoyalties */\n    tag_10:\n      callvalue\n      dup1\n      iszero\n      tag_59\n      jumpi\n      0x00\n      dup1\n      revert\n    tag_59:\n      pop\n      tag_60\n      tag_61\n      jump\t// in\n    tag_60:\n      mload(0x40)\n      tag_62\n      swap2\n      swap1\n      tag_50\n      jump\t// in\n    tag_62:\n      mload(0x40)\n      dup1\n      swap2\n      sub\n      swap1\n      return\n        /* \"contracts/Hook.sol\":3619:3719  function getWethBalance() public returns (uint){... */\n    tag_11:\n      callvalue\n      dup1\n      iszero\n      tag_63\n      jumpi\n      0x00\n      dup1\n      revert\n    tag_63:\n      pop\n      tag_64\n      tag_65\n      jump\t// in\n    tag_64:\n      mload(0x40)\n      tag_66\n      swap2\n      swap1\n      tag_50\n      jump\t// in\n    tag_66:\n      mload(0x40)\n      dup1\n      swap2\n      sub\n      swap1\n      return\n        /* \"contracts/Hook.sol\":5683:5707  uint public liquidityEth */\n    tag_12:\n      callvalue\n      dup1\n      iszero\n      tag_67\n      jumpi\n      0x00\n      dup1\n      revert\n    tag_67:\n      pop\n      tag_68\n      tag_69\n      jump\t// in\n    tag_68:\n      mload(0x40)\n      tag_70\n      swap2\n      swap1\n      tag_50\n      jump\t// in\n    tag_70:\n      mload(0x40)\n      dup1\n      swap2\n      sub\n      swap1\n      return\n        /* \"contracts/Hook.sol\":2067:2094  address public ERC20Address */\n    tag_13:\n      callvalue\n      dup1\n      iszero\n      tag_71\n      jumpi\n      0x00\n      dup1\n      revert\n    tag_71:\n      pop\n      tag_72\n      tag_73\n      jump\t// in\n    tag_72:\n      mload(0x40)\n      tag_74\n      swap2\n      swap1\n      tag_38\n      jump\t// in\n    tag_74:\n      mload(0x40)\n      dup1\n      swap2\n      sub\n      swap1\n      return\n        /* \"contracts/Hook.sol\":1990:2061  address public WethAddress = 0xB4FBF271143F4FBf7B91A5ded31805e42b2208d6 */\n    tag_14:\n      callvalue\n      dup1\n      iszero\n      tag_75\n      jumpi\n      0x00\n      dup1\n      revert\n    tag_75:\n      pop\n      tag_76\n      tag_77\n      jump\t// in\n    tag_76:\n      mload(0x40)\n      tag_78\n      swap2\n      swap1\n      tag_38\n      jump\t// in\n    tag_78:\n      mload(0x40)\n      dup1\n      swap2\n      sub\n      swap1\n      return\n        /* \"contracts/Hook.sol\":2139:2167  address public oracleAddress */\n    tag_15:\n      callvalue\n      dup1\n      iszero\n      tag_79\n      jumpi\n      0x00\n      dup1\n      revert\n    tag_79:\n      pop\n      tag_80\n      tag_81\n      jump\t// in\n    tag_80:\n      mload(0x40)\n      tag_82\n      swap2\n      swap1\n      tag_38\n      jump\t// in\n    tag_82:\n      mload(0x40)\n      dup1\n      swap2\n      sub\n      swap1\n      return\n        /* \"contracts/Hook.sol\":2209:2235  address public POAPAddress */\n    tag_16:\n      callvalue\n      dup1\n      iszero\n      tag_83\n      jumpi\n      0x00\n      dup1\n      revert\n    tag_83:\n      pop\n      tag_84\n      tag_85\n      jump\t// in\n    tag_84:\n      mload(0x40)\n      tag_86\n      swap2\n      swap1\n      tag_38\n      jump\t// in\n    tag_86:\n      mload(0x40)\n      dup1\n      swap2\n      sub\n      swap1\n      return\n        /* \"contracts/Hook.sol\":2327:2377  address[] public path = [WethAddress,ERC20Address] */\n    tag_17:\n      callvalue\n      dup1\n      iszero\n      tag_87\n      jumpi\n      0x00\n      dup1\n      revert\n    tag_87:\n      pop\n      tag_88\n      0x04\n      dup1\n      calldatasize\n      sub\n      dup2\n      add\n      swap1\n      tag_89\n      swap2\n      swap1\n      tag_42\n      jump\t// in\n    tag_89:\n      tag_90\n      jump\t// in\n    tag_88:\n      mload(0x40)\n      tag_91\n      swap2\n      swap1\n      tag_38\n      jump\t// in\n    tag_91:\n      mload(0x40)\n      dup1\n      swap2\n      sub\n      swap1\n      return\n        /* \"contracts/Hook.sol\":2100:2133  address public uniswapPairAddress */\n    tag_18:\n      callvalue\n      dup1\n      iszero\n      tag_92\n      jumpi\n      0x00\n      dup1\n      revert\n    tag_92:\n      pop\n      tag_93\n      tag_94\n      jump\t// in\n    tag_93:\n      mload(0x40)\n      tag_95\n      swap2\n      swap1\n      tag_38\n      jump\t// in\n    tag_95:\n      mload(0x40)\n      dup1\n      swap2\n      sub\n      swap1\n      return\n        /* \"contracts/Hook.sol\":3726:3855  function getLastEthRecieved() public view returns (uint){... */\n    tag_19:\n      callvalue\n      dup1\n      iszero\n      tag_96\n      jumpi\n      0x00\n      dup1\n      revert\n    tag_96:\n      pop\n      tag_97\n      tag_98\n      jump\t// in\n    tag_97:\n      mload(0x40)\n      tag_99\n      swap2\n      swap1\n      tag_50\n      jump\t// in\n    tag_99:\n      mload(0x40)\n      dup1\n      swap2\n      sub\n      swap1\n      return\n        /* \"contracts/Hook.sol\":3865:4351  function percentLiquidity() public view returns (uint){... */\n    tag_20:\n      callvalue\n      dup1\n      iszero\n      tag_100\n      jumpi\n      0x00\n      dup1\n      revert\n    tag_100:\n      pop\n      tag_101\n      tag_102\n      jump\t// in\n    tag_101:\n      mload(0x40)\n      tag_103\n      swap2\n      swap1\n      tag_50\n      jump\t// in\n    tag_103:\n      mload(0x40)\n      dup1\n      swap2\n      sub\n      swap1\n      return\n        /* \"contracts/Hook.sol\":9051:9177  function superBuy(address _newOwner) public payable{... */\n    tag_29:\n        /* \"contracts/Hook.sol\":9112:9148  newTransaction(msg.value, _newOwner) */\n      tag_105\n        /* \"contracts/Hook.sol\":9127:9136  msg.value */\n      callvalue\n        /* \"contracts/Hook.sol\":9138:9147  _newOwner */\n      dup3\n        /* \"contracts/Hook.sol\":9112:9126  newTransaction */\n      tag_106\n        /* \"contracts/Hook.sol\":9112:9148  newTransaction(msg.value, _newOwner) */\n      jump\t// in\n    tag_105:\n        /* \"contracts/Hook.sol\":9158:9170  processETH() */\n      tag_107\n        /* \"contracts/Hook.sol\":9158:9168  processETH */\n      tag_108\n        /* \"contracts/Hook.sol\":9158:9170  processETH() */\n      jump\t// in\n    tag_107:\n        /* \"contracts/Hook.sol\":9051:9177  function superBuy(address _newOwner) public payable{... */\n      pop\n      jump\t// out\n        /* \"contracts/Hook.sol\":2715:2807  function updateERC20Address(address _address) public{... */\n    tag_33:\n        /* \"contracts/Hook.sol\":2792:2800  _address */\n      dup1\n        /* \"contracts/Hook.sol\":2777:2789  ERC20Address */\n      0x01\n      0x00\n        /* \"contracts/Hook.sol\":2777:2800  ERC20Address = _address */\n      0x0100\n      exp\n      dup2\n      sload\n      dup2\n      0xffffffffffffffffffffffffffffffffffffffff\n      mul\n      not\n      and\n      swap1\n      dup4\n      0xffffffffffffffffffffffffffffffffffffffff\n      and\n      mul\n      or\n      swap1\n      sstore\n      pop\n        /* \"contracts/Hook.sol\":2715:2807  function updateERC20Address(address _address) public{... */\n      pop\n      jump\t// out\n        /* \"contracts/Hook.sol\":2241:2321  address public uniswapRouterAddress = 0x7a250d5630B4cF539739dF2C5dAcb4c659F2488D */\n    tag_36:\n      0x06\n      0x00\n      swap1\n      sload\n      swap1\n      0x0100\n      exp\n      swap1\n      div\n      0xffffffffffffffffffffffffffffffffffffffff\n      and\n      dup2\n      jump\t// out\n        /* \"contracts/Hook.sol\":2589:2647  mapping (uint => Transaction) public transactionFromPOAPId */\n    tag_43:\n      mstore(0x20, 0x0c)\n      dup1\n      0x00\n      mstore\n      keccak256(0x00, 0x40)\n      0x00\n      swap2\n      pop\n      swap1\n      pop\n      dup1\n      0x00\n      add\n      sload\n      swap1\n      dup1\n      0x01\n      add\n      0x00\n      swap1\n      sload\n      swap1\n      0x0100\n      exp\n      swap1\n      div\n      0xffffffffffffffffffffffffffffffffffffffff\n      and\n      swap1\n      dup1\n      0x02\n      add\n      sload\n      swap1\n      pop\n      dup4\n      jump\t// out\n        /* \"contracts/Hook.sol\":5659:5677  uint public buyEth */\n    tag_48:\n      sload(0x0f)\n      dup2\n      jump\t// out\n        /* \"contracts/Hook.sol\":3411:3613  function withdraw(address _ERC20Address) public {... */\n    tag_54:\n        /* \"contracts/Hook.sol\":3469:3481  IERC20 ERC20 */\n      0x00\n        /* \"contracts/Hook.sol\":3491:3504  _ERC20Address */\n      dup2\n        /* \"contracts/Hook.sol\":3469:3505  IERC20 ERC20 = IERC20(_ERC20Address) */\n      swap1\n      pop\n        /* \"contracts/Hook.sol\":3515:3528  uint _balance */\n      0x00\n        /* \"contracts/Hook.sol\":3531:3536  ERC20 */\n      dup2\n        /* \"contracts/Hook.sol\":3531:3546  ERC20.balanceOf */\n      0xffffffffffffffffffffffffffffffffffffffff\n      and\n      0x70a08231\n        /* \"contracts/Hook.sol\":3555:3559  this */\n      address\n        /* \"contracts/Hook.sol\":3531:3561  ERC20.balanceOf(address(this)) */\n      mload(0x40)\n      dup3\n      0xffffffff\n      and\n      0xe0\n      shl\n      dup2\n      mstore\n      0x04\n      add\n      tag_111\n      swap2\n      swap1\n      tag_38\n      jump\t// in\n    tag_111:\n      0x20\n      mload(0x40)\n      dup1\n      dup4\n      sub\n      dup2\n      dup7\n      gas\n      staticcall\n      iszero\n      dup1\n      iszero\n      tag_113\n      jumpi\n      returndatasize\n      0x00\n      dup1\n      returndatacopy\n      revert(0x00, returndatasize)\n    tag_113:\n      pop\n      pop\n      pop\n      pop\n      mload(0x40)\n      returndatasize\n      not(0x1f)\n      0x1f\n      dup3\n      add\n      and\n      dup3\n      add\n      dup1\n      0x40\n      mstore\n      pop\n      dup2\n      add\n      swap1\n      tag_114\n      swap2\n      swap1\n      tag_115\n      jump\t// in\n    tag_114:\n        /* \"contracts/Hook.sol\":3515:3561  uint _balance = ERC20.balanceOf(address(this)) */\n      swap1\n      pop\n        /* \"contracts/Hook.sol\":3571:3576  ERC20 */\n      dup2\n        /* \"contracts/Hook.sol\":3571:3585  ERC20.transfer */\n      0xffffffffffffffffffffffffffffffffffffffff\n      and\n      0xa9059cbb\n        /* \"contracts/Hook.sol\":3586:3596  msg.sender */\n      caller\n        /* \"contracts/Hook.sol\":3597:3605  _balance */\n      dup4\n        /* \"contracts/Hook.sol\":3571:3606  ERC20.transfer(msg.sender,_balance) */\n      mload(0x40)\n      dup4\n      0xffffffff\n      and\n      0xe0\n      shl\n      dup2\n      mstore\n      0x04\n      add\n      tag_116\n      swap3\n      swap2\n      swap1\n      tag_117\n      jump\t// in\n    tag_116:\n      0x20\n      mload(0x40)\n      dup1\n      dup4\n      sub\n      dup2\n      0x00\n      dup8\n      gas\n      call\n      iszero\n      dup1\n      iszero\n      tag_119\n      jumpi\n      returndatasize\n      0x00\n      dup1\n      returndatacopy\n      revert(0x00, returndatasize)\n    tag_119:\n      pop\n      pop\n      pop\n      pop\n      mload(0x40)\n      returndatasize\n      not(0x1f)\n      0x1f\n      dup3\n      add\n      and\n      dup3\n      add\n      dup1\n      0x40\n      mstore\n      pop\n      dup2\n      add\n      swap1\n      tag_120\n      swap2\n      swap1\n      tag_121\n      jump\t// in\n    tag_120:\n      pop\n        /* \"contracts/Hook.sol\":3459:3613  {... */\n      pop\n      pop\n        /* \"contracts/Hook.sol\":3411:3613  function withdraw(address _ERC20Address) public {... */\n      pop\n      jump\t// out\n        /* \"contracts/Hook.sol\":2173:2203  address public crownNFTAddress */\n    tag_57:\n      0x04\n      0x00\n      swap1\n      sload\n      swap1\n      0x0100\n      exp\n      swap1\n      div\n      0xffffffffffffffffffffffffffffffffffffffff\n      and\n      dup2\n      jump\t// out\n        /* \"contracts/Hook.sol\":2673:2699  uint public totalRoyalties */\n    tag_61:\n      sload(0x0e)\n      dup2\n      jump\t// out\n        /* \"contracts/Hook.sol\":3619:3719  function getWethBalance() public returns (uint){... */\n    tag_65:\n        /* \"contracts/Hook.sol\":3661:3665  uint */\n      0x00\n        /* \"contracts/Hook.sol\":3683:3687  WETH */\n      0x09\n      0x00\n      swap1\n      sload\n      swap1\n      0x0100\n      exp\n      swap1\n      div\n      0xffffffffffffffffffffffffffffffffffffffff\n      and\n        /* \"contracts/Hook.sol\":3683:3697  WETH.balanceOf */\n      0xffffffffffffffffffffffffffffffffffffffff\n      and\n      0x70a08231\n        /* \"contracts/Hook.sol\":3706:3710  this */\n      address\n        /* \"contracts/Hook.sol\":3683:3712  WETH.balanceOf(address(this)) */\n      mload(0x40)\n      dup3\n      0xffffffff\n      and\n      0xe0\n      shl\n      dup2\n      mstore\n      0x04\n      add\n      tag_123\n      swap2\n      swap1\n      tag_38\n      jump\t// in\n    tag_123:\n      0x20\n      mload(0x40)\n      dup1\n      dup4\n      sub\n      dup2\n      0x00\n      dup8\n      gas\n      call\n      iszero\n      dup1\n      iszero\n      tag_125\n      jumpi\n      returndatasize\n      0x00\n      dup1\n      returndatacopy\n      revert(0x00, returndatasize)\n    tag_125:\n      pop\n      pop\n      pop\n      pop\n      mload(0x40)\n      returndatasize\n      not(0x1f)\n      0x1f\n      dup3\n      add\n      and\n      dup3\n      add\n      dup1\n      0x40\n      mstore\n      pop\n      dup2\n      add\n      swap1\n      tag_126\n      swap2\n      swap1\n      tag_115\n      jump\t// in\n    tag_126:\n        /* \"contracts/Hook.sol\":3676:3712  return WETH.balanceOf(address(this)) */\n      swap1\n      pop\n        /* \"contracts/Hook.sol\":3619:3719  function getWethBalance() public returns (uint){... */\n      swap1\n      jump\t// out\n        /* \"contracts/Hook.sol\":5683:5707  uint public liquidityEth */\n    tag_69:\n      sload(0x10)\n      dup2\n      jump\t// out\n        /* \"contracts/Hook.sol\":2067:2094  address public ERC20Address */\n    tag_73:\n      0x01\n      0x00\n      swap1\n      sload\n      swap1\n      0x0100\n      exp\n      swap1\n      div\n      0xffffffffffffffffffffffffffffffffffffffff\n      and\n      dup2\n      jump\t// out\n        /* \"contracts/Hook.sol\":1990:2061  address public WethAddress = 0xB4FBF271143F4FBf7B91A5ded31805e42b2208d6 */\n    tag_77:\n      0x00\n      dup1\n      sload\n      swap1\n      0x0100\n      exp\n      swap1\n      div\n      0xffffffffffffffffffffffffffffffffffffffff\n      and\n      dup2\n      jump\t// out\n        /* \"contracts/Hook.sol\":2139:2167  address public oracleAddress */\n    tag_81:\n      0x03\n      0x00\n      swap1\n      sload\n      swap1\n      0x0100\n      exp\n      swap1\n      div\n      0xffffffffffffffffffffffffffffffffffffffff\n      and\n      dup2\n      jump\t// out\n        /* \"contracts/Hook.sol\":2209:2235  address public POAPAddress */\n    tag_85:\n      0x05\n      0x00\n      swap1\n      sload\n      swap1\n      0x0100\n      exp\n      swap1\n      div\n      0xffffffffffffffffffffffffffffffffffffffff\n      and\n      dup2\n      jump\t// out\n        /* \"contracts/Hook.sol\":2327:2377  address[] public path = [WethAddress,ERC20Address] */\n    tag_90:\n      0x07\n      dup2\n      dup2\n      sload\n      dup2\n      lt\n      tag_127\n      jumpi\n      0x00\n      dup1\n      revert\n    tag_127:\n      swap1\n      0x00\n      mstore\n      keccak256(0x00, 0x20)\n      add\n      0x00\n      swap2\n      pop\n      sload\n      swap1\n      0x0100\n      exp\n      swap1\n      div\n      0xffffffffffffffffffffffffffffffffffffffff\n      and\n      dup2\n      jump\t// out\n        /* \"contracts/Hook.sol\":2100:2133  address public uniswapPairAddress */\n    tag_94:\n      0x02\n      0x00\n      swap1\n      sload\n      swap1\n      0x0100\n      exp\n      swap1\n      div\n      0xffffffffffffffffffffffffffffffffffffffff\n      and\n      dup2\n      jump\t// out\n        /* \"contracts/Hook.sol\":3726:3855  function getLastEthRecieved() public view returns (uint){... */\n    tag_98:\n        /* \"contracts/Hook.sol\":3777:3781  uint */\n      0x00\n        /* \"contracts/Hook.sol\":3799:3820  transactionFromPOAPId */\n      0x0c\n        /* \"contracts/Hook.sol\":3799:3836  transactionFromPOAPId[POAPIds.length] */\n      0x00\n        /* \"contracts/Hook.sol\":3821:3828  POAPIds */\n      0x0d\n        /* \"contracts/Hook.sol\":3821:3835  POAPIds.length */\n      dup1\n      sload\n      swap1\n      pop\n        /* \"contracts/Hook.sol\":3799:3836  transactionFromPOAPId[POAPIds.length] */\n      dup2\n      mstore\n      0x20\n      add\n      swap1\n      dup2\n      mstore\n      0x20\n      add\n      0x00\n      keccak256\n        /* \"contracts/Hook.sol\":3799:3848  transactionFromPOAPId[POAPIds.length].receivedEth */\n      0x02\n      add\n      sload\n        /* \"contracts/Hook.sol\":3792:3848  return transactionFromPOAPId[POAPIds.length].receivedEth */\n      swap1\n      pop\n        /* \"contracts/Hook.sol\":3726:3855  function getLastEthRecieved() public view returns (uint){... */\n      swap1\n      jump\t// out\n        /* \"contracts/Hook.sol\":3865:4351  function percentLiquidity() public view returns (uint){... */\n    tag_102:\n        /* \"contracts/Hook.sol\":3914:3918  uint */\n      0x00\n        /* \"contracts/Hook.sol\":4074:4085  uint supply */\n      dup1\n        /* \"contracts/Hook.sol\":4095:4107  ERC20Address */\n      0x01\n      0x00\n      swap1\n      sload\n      swap1\n      0x0100\n      exp\n      swap1\n      div\n      0xffffffffffffffffffffffffffffffffffffffff\n      and\n        /* \"contracts/Hook.sol\":4088:4120  IERC20(ERC20Address).totalSupply */\n      0xffffffffffffffffffffffffffffffffffffffff\n      and\n      0x18160ddd\n        /* \"contracts/Hook.sol\":4088:4122  IERC20(ERC20Address).totalSupply() */\n      mload(0x40)\n      dup2\n      0xffffffff\n      and\n      0xe0\n      shl\n      dup2\n      mstore\n      0x04\n      add\n      0x20\n      mload(0x40)\n      dup1\n      dup4\n      sub\n      dup2\n      dup7\n      gas\n      staticcall\n      iszero\n      dup1\n      iszero\n      tag_132\n      jumpi\n      returndatasize\n      0x00\n      dup1\n      returndatacopy\n      revert(0x00, returndatasize)\n    tag_132:\n      pop\n      pop\n      pop\n      pop\n      mload(0x40)\n      returndatasize\n      not(0x1f)\n      0x1f\n      dup3\n      add\n      and\n      dup3\n      add\n      dup1\n      0x40\n      mstore\n      pop\n      dup2\n      add\n      swap1\n      tag_133\n      swap2\n      swap1\n      tag_115\n      jump\t// in\n    tag_133:\n        /* \"contracts/Hook.sol\":4074:4122  uint supply = IERC20(ERC20Address).totalSupply() */\n      swap1\n      pop\n        /* \"contracts/Hook.sol\":4178:4192  uint liquidity */\n      0x00\n        /* \"contracts/Hook.sol\":4200:4212  ERC20Address */\n      0x01\n      0x00\n      swap1\n      sload\n      swap1\n      0x0100\n      exp\n      swap1\n      div\n      0xffffffffffffffffffffffffffffffffffffffff\n      and\n        /* \"contracts/Hook.sol\":4193:4223  IERC20(ERC20Address).balanceOf */\n      0xffffffffffffffffffffffffffffffffffffffff\n      and\n      0x70a08231\n        /* \"contracts/Hook.sol\":4224:4242  uniswapPairAddress */\n      0x02\n      0x00\n      swap1\n      sload\n      swap1\n      0x0100\n      exp\n      swap1\n      div\n      0xffffffffffffffffffffffffffffffffffffffff\n      and\n        /* \"contracts/Hook.sol\":4193:4243  IERC20(ERC20Address).balanceOf(uniswapPairAddress) */\n      mload(0x40)\n      dup3\n      0xffffffff\n      and\n      0xe0\n      shl\n      dup2\n      mstore\n      0x04\n      add\n      tag_134\n      swap2\n      swap1\n      tag_38\n      jump\t// in\n    tag_134:\n      0x20\n      mload(0x40)\n      dup1\n      dup4\n      sub\n      dup2\n      dup7\n      gas\n      staticcall\n      iszero\n      dup1\n      iszero\n      tag_136\n      jumpi\n      returndatasize\n      0x00\n      dup1\n      returndatacopy\n      revert(0x00, returndatasize)\n    tag_136:\n      pop\n      pop\n      pop\n      pop\n      mload(0x40)\n      returndatasize\n      not(0x1f)\n      0x1f\n      dup3\n      add\n      and\n      dup3\n      add\n      dup1\n      0x40\n      mstore\n      pop\n      dup2\n      add\n      swap1\n      tag_137\n      swap2\n      swap1\n      tag_115\n      jump\t// in\n    tag_137:\n        /* \"contracts/Hook.sol\":4178:4243  uint liquidity=IERC20(ERC20Address).balanceOf(uniswapPairAddress) */\n      swap1\n      pop\n        /* \"contracts/Hook.sol\":4337:4343  supply */\n      dup2\n        /* \"contracts/Hook.sol\":4332:4335  100 */\n      0x64\n        /* \"contracts/Hook.sol\":4322:4331  liquidity */\n      dup3\n        /* \"contracts/Hook.sol\":4322:4335  liquidity*100 */\n      tag_138\n      swap2\n      swap1\n      tag_139\n      jump\t// in\n    tag_138:\n        /* \"contracts/Hook.sol\":4321:4343  (liquidity*100)/supply */\n      tag_140\n      swap2\n      swap1\n      tag_141\n      jump\t// in\n    tag_140:\n        /* \"contracts/Hook.sol\":4314:4344  return((liquidity*100)/supply) */\n      swap3\n      pop\n      pop\n      pop\n        /* \"contracts/Hook.sol\":3865:4351  function percentLiquidity() public view returns (uint){... */\n      swap1\n      jump\t// out\n        /* \"contracts/Hook.sol\":3041:3401  function newTransaction (uint _receivedEth, address _newOwner) internal {... */\n    tag_106:\n        /* \"contracts/Hook.sol\":3123:3134  uint POAPId */\n      0x00\n        /* \"contracts/Hook.sol\":3137:3144  POAPIds */\n      0x0d\n        /* \"contracts/Hook.sol\":3137:3151  POAPIds.length */\n      dup1\n      sload\n      swap1\n      pop\n        /* \"contracts/Hook.sol\":3123:3151  uint POAPId = POAPIds.length */\n      swap1\n      pop\n        /* \"contracts/Hook.sol\":3161:3192  Transaction storage transaction */\n      0x00\n        /* \"contracts/Hook.sol\":3195:3216  transactionFromPOAPId */\n      0x0c\n        /* \"contracts/Hook.sol\":3195:3232  transactionFromPOAPId[POAPIds.length] */\n      0x00\n        /* \"contracts/Hook.sol\":3217:3224  POAPIds */\n      0x0d\n        /* \"contracts/Hook.sol\":3217:3231  POAPIds.length */\n      dup1\n      sload\n      swap1\n      pop\n        /* \"contracts/Hook.sol\":3195:3232  transactionFromPOAPId[POAPIds.length] */\n      dup2\n      mstore\n      0x20\n      add\n      swap1\n      dup2\n      mstore\n      0x20\n      add\n      0x00\n      keccak256\n        /* \"contracts/Hook.sol\":3161:3232  Transaction storage transaction = transactionFromPOAPId[POAPIds.length] */\n      swap1\n      pop\n        /* \"contracts/Hook.sol\":3263:3269  POAPId */\n      dup2\n        /* \"contracts/Hook.sol\":3242:3253  transaction */\n      dup2\n        /* \"contracts/Hook.sol\":3242:3260  transaction.POAPId */\n      0x00\n      add\n        /* \"contracts/Hook.sol\":3242:3269  transaction.POAPId = POAPId */\n      dup2\n      swap1\n      sstore\n      pop\n        /* \"contracts/Hook.sol\":3303:3312  _newOwner */\n      dup3\n        /* \"contracts/Hook.sol\":3279:3290  transaction */\n      dup2\n        /* \"contracts/Hook.sol\":3279:3300  transaction.purchaser */\n      0x01\n      add\n      0x00\n        /* \"contracts/Hook.sol\":3279:3312  transaction.purchaser = _newOwner */\n      0x0100\n      exp\n      dup2\n      sload\n      dup2\n      0xffffffffffffffffffffffffffffffffffffffff\n      mul\n      not\n      and\n      swap1\n      dup4\n      0xffffffffffffffffffffffffffffffffffffffff\n      and\n      mul\n      or\n      swap1\n      sstore\n      pop\n        /* \"contracts/Hook.sol\":3348:3360  _receivedEth */\n      dup4\n        /* \"contracts/Hook.sol\":3322:3333  transaction */\n      dup2\n        /* \"contracts/Hook.sol\":3322:3345  transaction.receivedEth */\n      0x02\n      add\n        /* \"contracts/Hook.sol\":3322:3360  transaction.receivedEth = _receivedEth */\n      dup2\n      swap1\n      sstore\n      pop\n        /* \"contracts/Hook.sol\":3370:3377  POAPIds */\n      0x0d\n        /* \"contracts/Hook.sol\":3383:3389  POAPId */\n      dup3\n        /* \"contracts/Hook.sol\":3370:3390  POAPIds.push(POAPId) */\n      swap1\n      dup1\n      0x01\n      dup2\n      sload\n      add\n      dup1\n      dup3\n      sstore\n      dup1\n      swap2\n      pop\n      pop\n      0x01\n      swap1\n      sub\n      swap1\n      0x00\n      mstore\n      keccak256(0x00, 0x20)\n      add\n      0x00\n      swap1\n      swap2\n      swap1\n      swap2\n      swap1\n      swap2\n      pop\n      sstore\n        /* \"contracts/Hook.sol\":3113:3401  {... */\n      pop\n      pop\n        /* \"contracts/Hook.sol\":3041:3401  function newTransaction (uint _receivedEth, address _newOwner) internal {... */\n      pop\n      pop\n      jump\t// out\n        /* \"contracts/Hook.sol\":7285:9044  function processETH() internal{... */\n    tag_108:\n        /* \"contracts/Hook.sol\":7325:7338  uint msgValue */\n      0x00\n        /* \"contracts/Hook.sol\":7341:7350  msg.value */\n      callvalue\n        /* \"contracts/Hook.sol\":7325:7350  uint msgValue = msg.value */\n      swap1\n      pop\n        /* \"contracts/Hook.sol\":7370:7371  0 */\n      0x00\n        /* \"contracts/Hook.sol\":7363:7369  buyEth */\n      sload(0x0f)\n        /* \"contracts/Hook.sol\":7363:7371  buyEth>0 */\n      gt\n        /* \"contracts/Hook.sol\":7360:7610  if(buyEth>0){... */\n      iszero\n      tag_145\n      jumpi\n        /* \"contracts/Hook.sol\":7386:7399  uint _balance */\n      0x00\n        /* \"contracts/Hook.sol\":7402:7423  address(this).balance */\n      selfbalance\n        /* \"contracts/Hook.sol\":7386:7423  uint _balance = address(this).balance */\n      swap1\n      pop\n        /* \"contracts/Hook.sol\":7437:7455  buyAndBurn(buyEth) */\n      tag_146\n        /* \"contracts/Hook.sol\":7448:7454  buyEth */\n      sload(0x0f)\n        /* \"contracts/Hook.sol\":7437:7447  buyAndBurn */\n      tag_147\n        /* \"contracts/Hook.sol\":7437:7455  buyAndBurn(buyEth) */\n      jump\t// in\n    tag_146:\n        /* \"contracts/Hook.sol\":7469:7485  uint _newBalance */\n      0x00\n        /* \"contracts/Hook.sol\":7488:7509  address(this).balance */\n      selfbalance\n        /* \"contracts/Hook.sol\":7469:7509  uint _newBalance = address(this).balance */\n      swap1\n      pop\n        /* \"contracts/Hook.sol\":7523:7539  uint _difference */\n      0x00\n        /* \"contracts/Hook.sol\":7553:7564  _newBalance */\n      dup2\n        /* \"contracts/Hook.sol\":7542:7550  _balance */\n      dup4\n        /* \"contracts/Hook.sol\":7542:7564  _balance - _newBalance */\n      tag_148\n      swap2\n      swap1\n      tag_149\n      jump\t// in\n    tag_148:\n        /* \"contracts/Hook.sol\":7523:7564  uint _difference = _balance - _newBalance */\n      swap1\n      pop\n        /* \"contracts/Hook.sol\":7588:7599  _difference */\n      dup1\n        /* \"contracts/Hook.sol\":7578:7584  buyEth */\n      0x0f\n      0x00\n        /* \"contracts/Hook.sol\":7578:7599  buyEth -= _difference */\n      dup3\n      dup3\n      sload\n      tag_150\n      swap2\n      swap1\n      tag_149\n      jump\t// in\n    tag_150:\n      swap3\n      pop\n      pop\n      dup2\n      swap1\n      sstore\n      pop\n        /* \"contracts/Hook.sol\":7372:7610  {... */\n      pop\n      pop\n      pop\n        /* \"contracts/Hook.sol\":7360:7610  if(buyEth>0){... */\n    tag_145:\n        /* \"contracts/Hook.sol\":7635:7636  0 */\n      0x00\n        /* \"contracts/Hook.sol\":7622:7634  liquidityEth */\n      sload(0x10)\n        /* \"contracts/Hook.sol\":7622:7636  liquidityEth>0 */\n      gt\n        /* \"contracts/Hook.sol\":7619:7893  if(liquidityEth>0){... */\n      iszero\n      tag_151\n      jumpi\n        /* \"contracts/Hook.sol\":7651:7664  uint _balance */\n      0x00\n        /* \"contracts/Hook.sol\":7667:7688  address(this).balance */\n      selfbalance\n        /* \"contracts/Hook.sol\":7651:7688  uint _balance = address(this).balance */\n      swap1\n      pop\n        /* \"contracts/Hook.sol\":7702:7732  provideLiquidity(liquidityEth) */\n      tag_152\n        /* \"contracts/Hook.sol\":7719:7731  liquidityEth */\n      sload(0x10)\n        /* \"contracts/Hook.sol\":7702:7718  provideLiquidity */\n      tag_153\n        /* \"contracts/Hook.sol\":7702:7732  provideLiquidity(liquidityEth) */\n      jump\t// in\n    tag_152:\n      pop\n        /* \"contracts/Hook.sol\":7746:7762  uint _newBalance */\n      0x00\n        /* \"contracts/Hook.sol\":7765:7786  address(this).balance */\n      selfbalance\n        /* \"contracts/Hook.sol\":7746:7786  uint _newBalance = address(this).balance */\n      swap1\n      pop\n        /* \"contracts/Hook.sol\":7800:7816  uint _difference */\n      0x00\n        /* \"contracts/Hook.sol\":7830:7841  _newBalance */\n      dup2\n        /* \"contracts/Hook.sol\":7819:7827  _balance */\n      dup4\n        /* \"contracts/Hook.sol\":7819:7841  _balance - _newBalance */\n      tag_154\n      swap2\n      swap1\n      tag_149\n      jump\t// in\n    tag_154:\n        /* \"contracts/Hook.sol\":7800:7841  uint _difference = _balance - _newBalance */\n      swap1\n      pop\n        /* \"contracts/Hook.sol\":7871:7882  _difference */\n      dup1\n        /* \"contracts/Hook.sol\":7855:7867  liquidityEth */\n      0x10\n      0x00\n        /* \"contracts/Hook.sol\":7855:7882  liquidityEth -= _difference */\n      dup3\n      dup3\n      sload\n      tag_155\n      swap2\n      swap1\n      tag_149\n      jump\t// in\n    tag_155:\n      swap3\n      pop\n      pop\n      dup2\n      swap1\n      sstore\n      pop\n        /* \"contracts/Hook.sol\":7637:7893  {... */\n      pop\n      pop\n      pop\n        /* \"contracts/Hook.sol\":7619:7893  if(liquidityEth>0){... */\n    tag_151:\n        /* \"contracts/Hook.sol\":7906:7928  address previousHolder */\n      0x00\n        /* \"contracts/Hook.sol\":7931:7952  transactionFromPOAPId */\n      0x0c\n        /* \"contracts/Hook.sol\":7931:7971  transactionFromPOAPId[POAPIds.length -1] */\n      0x00\n        /* \"contracts/Hook.sol\":7969:7970  1 */\n      0x01\n        /* \"contracts/Hook.sol\":7953:7960  POAPIds */\n      0x0d\n        /* \"contracts/Hook.sol\":7953:7967  POAPIds.length */\n      dup1\n      sload\n      swap1\n      pop\n        /* \"contracts/Hook.sol\":7953:7970  POAPIds.length -1 */\n      tag_156\n      swap2\n      swap1\n      tag_149\n      jump\t// in\n    tag_156:\n        /* \"contracts/Hook.sol\":7931:7971  transactionFromPOAPId[POAPIds.length -1] */\n      dup2\n      mstore\n      0x20\n      add\n      swap1\n      dup2\n      mstore\n      0x20\n      add\n      0x00\n      keccak256\n        /* \"contracts/Hook.sol\":7931:7981  transactionFromPOAPId[POAPIds.length -1].purchaser */\n      0x01\n      add\n      0x00\n      swap1\n      sload\n      swap1\n      0x0100\n      exp\n      swap1\n      div\n      0xffffffffffffffffffffffffffffffffffffffff\n      and\n        /* \"contracts/Hook.sol\":7906:7981  address previousHolder = transactionFromPOAPId[POAPIds.length -1].purchaser */\n      swap1\n      pop\n        /* \"contracts/Hook.sol\":7995:8032  erc20ToPreviousHolder(previousHolder) */\n      tag_157\n        /* \"contracts/Hook.sol\":8017:8031  previousHolder */\n      dup2\n        /* \"contracts/Hook.sol\":7995:8016  erc20ToPreviousHolder */\n      tag_158\n        /* \"contracts/Hook.sol\":7995:8032  erc20ToPreviousHolder(previousHolder) */\n      jump\t// in\n    tag_157:\n        /* \"contracts/Hook.sol\":8046:8050  POAP */\n      0x08\n      0x00\n      swap1\n      sload\n      swap1\n      0x0100\n      exp\n      swap1\n      div\n      0xffffffffffffffffffffffffffffffffffffffff\n      and\n        /* \"contracts/Hook.sol\":8046:8055  POAP.mint */\n      0xffffffffffffffffffffffffffffffffffffffff\n      and\n      0x6a627842\n        /* \"contracts/Hook.sol\":8056:8070  previousHolder */\n      dup3\n        /* \"contracts/Hook.sol\":8046:8071  POAP.mint(previousHolder) */\n      mload(0x40)\n      dup3\n      0xffffffff\n      and\n      0xe0\n      shl\n      dup2\n      mstore\n      0x04\n      add\n      tag_159\n      swap2\n      swap1\n      tag_38\n      jump\t// in\n    tag_159:\n      0x00\n      mload(0x40)\n      dup1\n      dup4\n      sub\n      dup2\n      0x00\n      dup8\n      dup1\n      extcodesize\n      iszero\n      dup1\n      iszero\n      tag_160\n      jumpi\n      0x00\n      dup1\n      revert\n    tag_160:\n      pop\n      gas\n      call\n      iszero\n      dup1\n      iszero\n      tag_162\n      jumpi\n      returndatasize\n      0x00\n      dup1\n      returndatacopy\n      revert(0x00, returndatasize)\n    tag_162:\n      pop\n      pop\n      pop\n      pop\n        /* \"contracts/Hook.sol\":8081:8103  uint _percentLiquidity */\n      0x00\n        /* \"contracts/Hook.sol\":8106:8124  percentLiquidity() */\n      tag_163\n        /* \"contracts/Hook.sol\":8106:8122  percentLiquidity */\n      tag_102\n        /* \"contracts/Hook.sol\":8106:8124  percentLiquidity() */\n      jump\t// in\n    tag_163:\n        /* \"contracts/Hook.sol\":8081:8124  uint _percentLiquidity = percentLiquidity() */\n      swap1\n      pop\n        /* \"contracts/Hook.sol\":8139:8164  Log('previous Holder is') */\n      0xcf34ef537ac33ee1ac626ca1587a0a7e8e51561e5514f8cb36afa1c5102b3bab\n      mload(0x40)\n      tag_164\n      swap1\n      tag_165\n      jump\t// in\n    tag_164:\n      mload(0x40)\n      dup1\n      swap2\n      sub\n      swap1\n      log1\n        /* \"contracts/Hook.sol\":8179:8198  Log(previousHolder) */\n      0xb8a00d6d8ca1be30bfec34d8f97e55f0f0fd9eeb7fb46e030516363d4cfe1ad6\n        /* \"contracts/Hook.sol\":8183:8197  previousHolder */\n      dup3\n        /* \"contracts/Hook.sol\":8179:8198  Log(previousHolder) */\n      mload(0x40)\n      tag_166\n      swap2\n      swap1\n      tag_38\n      jump\t// in\n    tag_166:\n      mload(0x40)\n      dup1\n      swap2\n      sub\n      swap1\n      log1\n        /* \"contracts/Hook.sol\":8213:8245  Log('current liquidity percent') */\n      0xcf34ef537ac33ee1ac626ca1587a0a7e8e51561e5514f8cb36afa1c5102b3bab\n      mload(0x40)\n      tag_167\n      swap1\n      tag_168\n      jump\t// in\n    tag_167:\n      mload(0x40)\n      dup1\n      swap2\n      sub\n      swap1\n      log1\n        /* \"contracts/Hook.sol\":8260:8282  Log(_percentLiquidity) */\n      0x909c57d5c6ac08245cf2a6de3900e2b868513fa59099b92b27d8db823d92df9c\n        /* \"contracts/Hook.sol\":8264:8281  _percentLiquidity */\n      dup2\n        /* \"contracts/Hook.sol\":8260:8282  Log(_percentLiquidity) */\n      mload(0x40)\n      tag_169\n      swap2\n      swap1\n      tag_50\n      jump\t// in\n    tag_169:\n      mload(0x40)\n      dup1\n      swap2\n      sub\n      swap1\n      log1\n        /* \"contracts/Hook.sol\":8362:8364  20 */\n      0x14\n        /* \"contracts/Hook.sol\":8344:8361  _percentLiquidity */\n      dup2\n        /* \"contracts/Hook.sol\":8344:8364  _percentLiquidity>20 */\n      gt\n        /* \"contracts/Hook.sol\":8341:9038  if(_percentLiquidity>20){... */\n      iszero\n      tag_170\n      jumpi\n        /* \"contracts/Hook.sol\":8379:8392  uint _balance */\n      0x00\n        /* \"contracts/Hook.sol\":8395:8416  address(this).balance */\n      selfbalance\n        /* \"contracts/Hook.sol\":8379:8416  uint _balance = address(this).balance */\n      swap1\n      pop\n        /* \"contracts/Hook.sol\":8430:8451  buyAndBurn(msg.value) */\n      tag_171\n        /* \"contracts/Hook.sol\":8441:8450  msg.value */\n      callvalue\n        /* \"contracts/Hook.sol\":8430:8440  buyAndBurn */\n      tag_147\n        /* \"contracts/Hook.sol\":8430:8451  buyAndBurn(msg.value) */\n      jump\t// in\n    tag_171:\n        /* \"contracts/Hook.sol\":8465:8481  uint _newBalance */\n      0x00\n        /* \"contracts/Hook.sol\":8484:8505  address(this).balance */\n      selfbalance\n        /* \"contracts/Hook.sol\":8465:8505  uint _newBalance = address(this).balance */\n      swap1\n      pop\n        /* \"contracts/Hook.sol\":8519:8535  uint _difference */\n      0x00\n        /* \"contracts/Hook.sol\":8549:8560  _newBalance */\n      dup2\n        /* \"contracts/Hook.sol\":8538:8546  _balance */\n      dup4\n        /* \"contracts/Hook.sol\":8538:8560  _balance - _newBalance */\n      tag_172\n      swap2\n      swap1\n      tag_149\n      jump\t// in\n    tag_172:\n        /* \"contracts/Hook.sol\":8519:8560  uint _difference = _balance - _newBalance */\n      swap1\n      pop\n        /* \"contracts/Hook.sol\":8574:8602  uint _amountLeftFromMsgValue */\n      0x00\n        /* \"contracts/Hook.sol\":8616:8627  _difference */\n      dup2\n        /* \"contracts/Hook.sol\":8605:8613  msgValue */\n      dup8\n        /* \"contracts/Hook.sol\":8605:8627  msgValue - _difference */\n      tag_173\n      swap2\n      swap1\n      tag_149\n      jump\t// in\n    tag_173:\n        /* \"contracts/Hook.sol\":8574:8627  uint _amountLeftFromMsgValue = msgValue - _difference */\n      swap1\n      pop\n        /* \"contracts/Hook.sol\":8651:8674  _amountLeftFromMsgValue */\n      dup1\n        /* \"contracts/Hook.sol\":8641:8647  buyEth */\n      0x0f\n      0x00\n        /* \"contracts/Hook.sol\":8641:8674  buyEth += _amountLeftFromMsgValue */\n      dup3\n      dup3\n      sload\n      tag_174\n      swap2\n      swap1\n      tag_175\n      jump\t// in\n    tag_174:\n      swap3\n      pop\n      pop\n      dup2\n      swap1\n      sstore\n      pop\n        /* \"contracts/Hook.sol\":8365:8686  {... */\n      pop\n      pop\n      pop\n      pop\n        /* \"contracts/Hook.sol\":8341:9038  if(_percentLiquidity>20){... */\n      jump(tag_176)\n    tag_170:\n        /* \"contracts/Hook.sol\":8706:8719  uint _balance */\n      0x00\n        /* \"contracts/Hook.sol\":8722:8743  address(this).balance */\n      selfbalance\n        /* \"contracts/Hook.sol\":8706:8743  uint _balance = address(this).balance */\n      swap1\n      pop\n        /* \"contracts/Hook.sol\":8757:8797  provideLiquidity(liquidityEth+msg.value) */\n      tag_177\n        /* \"contracts/Hook.sol\":8787:8796  msg.value */\n      callvalue\n        /* \"contracts/Hook.sol\":8774:8786  liquidityEth */\n      sload(0x10)\n        /* \"contracts/Hook.sol\":8774:8796  liquidityEth+msg.value */\n      tag_178\n      swap2\n      swap1\n      tag_175\n      jump\t// in\n    tag_178:\n        /* \"contracts/Hook.sol\":8757:8773  provideLiquidity */\n      tag_153\n        /* \"contracts/Hook.sol\":8757:8797  provideLiquidity(liquidityEth+msg.value) */\n      jump\t// in\n    tag_177:\n      pop\n        /* \"contracts/Hook.sol\":8811:8827  uint _newBalance */\n      0x00\n        /* \"contracts/Hook.sol\":8830:8851  address(this).balance */\n      selfbalance\n        /* \"contracts/Hook.sol\":8811:8851  uint _newBalance = address(this).balance */\n      swap1\n      pop\n        /* \"contracts/Hook.sol\":8865:8881  uint _difference */\n      0x00\n        /* \"contracts/Hook.sol\":8895:8906  _newBalance */\n      dup2\n        /* \"contracts/Hook.sol\":8884:8892  _balance */\n      dup4\n        /* \"contracts/Hook.sol\":8884:8906  _balance - _newBalance */\n      tag_179\n      swap2\n      swap1\n      tag_149\n      jump\t// in\n    tag_179:\n        /* \"contracts/Hook.sol\":8865:8906  uint _difference = _balance - _newBalance */\n      swap1\n      pop\n        /* \"contracts/Hook.sol\":8920:8948  uint _amountLeftFromMsgValue */\n      0x00\n        /* \"contracts/Hook.sol\":8962:8973  _difference */\n      dup2\n        /* \"contracts/Hook.sol\":8951:8959  msgValue */\n      dup8\n        /* \"contracts/Hook.sol\":8951:8973  msgValue - _difference */\n      tag_180\n      swap2\n      swap1\n      tag_149\n      jump\t// in\n    tag_180:\n        /* \"contracts/Hook.sol\":8920:8973  uint _amountLeftFromMsgValue = msgValue - _difference */\n      swap1\n      pop\n        /* \"contracts/Hook.sol\":9003:9026  _amountLeftFromMsgValue */\n      dup1\n        /* \"contracts/Hook.sol\":8987:8999  liquidityEth */\n      0x10\n      0x00\n        /* \"contracts/Hook.sol\":8987:9026  liquidityEth += _amountLeftFromMsgValue */\n      dup3\n      dup3\n      sload\n      tag_181\n      swap2\n      swap1\n      tag_175\n      jump\t// in\n    tag_181:\n      swap3\n      pop\n      pop\n      dup2\n      swap1\n      sstore\n      pop\n        /* \"contracts/Hook.sol\":8692:9038  {... */\n      pop\n      pop\n      pop\n      pop\n        /* \"contracts/Hook.sol\":8341:9038  if(_percentLiquidity>20){... */\n    tag_176:\n        /* \"contracts/Hook.sol\":7315:9044  {... */\n      pop\n      pop\n      pop\n        /* \"contracts/Hook.sol\":7285:9044  function processETH() internal{... */\n      jump\t// out\n        /* \"contracts/Hook.sol\":6358:6582  function buyAndBurn(uint _buyEth) internal{... */\n    tag_147:\n        /* \"contracts/Hook.sol\":6410:6421  uint tokens */\n      0x00\n        /* \"contracts/Hook.sol\":6424:6442  buyTokens(_buyEth) */\n      tag_183\n        /* \"contracts/Hook.sol\":6434:6441  _buyEth */\n      dup3\n        /* \"contracts/Hook.sol\":6424:6433  buyTokens */\n      tag_184\n        /* \"contracts/Hook.sol\":6424:6442  buyTokens(_buyEth) */\n      jump\t// in\n    tag_183:\n        /* \"contracts/Hook.sol\":6410:6442  uint tokens = buyTokens(_buyEth) */\n      swap1\n      pop\n        /* \"contracts/Hook.sol\":6465:6477  ERC20Address */\n      0x01\n      0x00\n      swap1\n      sload\n      swap1\n      0x0100\n      exp\n      swap1\n      div\n      0xffffffffffffffffffffffffffffffffffffffff\n      and\n        /* \"contracts/Hook.sol\":6456:6483  WethLike(ERC20Address).burn */\n      0xffffffffffffffffffffffffffffffffffffffff\n      and\n      0x9dc29fac\n        /* \"contracts/Hook.sol\":6484:6494  msg.sender */\n      caller\n        /* \"contracts/Hook.sol\":6496:6502  tokens */\n      dup4\n        /* \"contracts/Hook.sol\":6456:6503  WethLike(ERC20Address).burn(msg.sender, tokens) */\n      mload(0x40)\n      dup4\n      0xffffffff\n      and\n      0xe0\n      shl\n      dup2\n      mstore\n      0x04\n      add\n      tag_185\n      swap3\n      swap2\n      swap1\n      tag_117\n      jump\t// in\n    tag_185:\n      0x00\n      mload(0x40)\n      dup1\n      dup4\n      sub\n      dup2\n      0x00\n      dup8\n      dup1\n      extcodesize\n      iszero\n      dup1\n      iszero\n      tag_186\n      jumpi\n      0x00\n      dup1\n      revert\n    tag_186:\n      pop\n      gas\n      call\n      swap3\n      pop\n      pop\n      pop\n      dup1\n      iszero\n      tag_187\n      jumpi\n      pop\n      0x01\n    tag_187:\n        /* \"contracts/Hook.sol\":6452:6576  try WethLike(ERC20Address).burn(msg.sender, tokens){... */\n      iszero\n      tag_192\n      jumpi\n        /* \"contracts/Hook.sol\":6522:6549  Log('tokens cant be burnt') */\n      0xcf34ef537ac33ee1ac626ca1587a0a7e8e51561e5514f8cb36afa1c5102b3bab\n      mload(0x40)\n      tag_193\n      swap1\n      tag_194\n      jump\t// in\n    tag_193:\n      mload(0x40)\n      dup1\n      swap2\n      sub\n      swap1\n      log1\n        /* \"contracts/Hook.sol\":6452:6576  try WethLike(ERC20Address).burn(msg.sender, tokens){... */\n    tag_192:\n        /* \"contracts/Hook.sol\":6400:6582  {... */\n      pop\n        /* \"contracts/Hook.sol\":6358:6582  function buyAndBurn(uint _buyEth) internal{... */\n      pop\n      jump\t// out\n        /* \"contracts/Hook.sol\":4357:5653  function provideLiquidity(uint _liquidityEth) internal returns (uint){... */\n    tag_153:\n        /* \"contracts/Hook.sol\":4421:4425  uint */\n      0x00\n        /* \"contracts/Hook.sol\":4445:4472  uint ERC20LiquidityProvided */\n      dup1\n        /* \"contracts/Hook.sol\":4552:4576  uint currentERC20Balance */\n      0x00\n        /* \"contracts/Hook.sol\":4586:4598  ERC20Address */\n      0x01\n      0x00\n      swap1\n      sload\n      swap1\n      0x0100\n      exp\n      swap1\n      div\n      0xffffffffffffffffffffffffffffffffffffffff\n      and\n        /* \"contracts/Hook.sol\":4579:4609  IERC20(ERC20Address).balanceOf */\n      0xffffffffffffffffffffffffffffffffffffffff\n      and\n      0x70a08231\n        /* \"contracts/Hook.sol\":4618:4622  this */\n      address\n        /* \"contracts/Hook.sol\":4579:4624  IERC20(ERC20Address).balanceOf(address(this)) */\n      mload(0x40)\n      dup3\n      0xffffffff\n      and\n      0xe0\n      shl\n      dup2\n      mstore\n      0x04\n      add\n      tag_196\n      swap2\n      swap1\n      tag_38\n      jump\t// in\n    tag_196:\n      0x20\n      mload(0x40)\n      dup1\n      dup4\n      sub\n      dup2\n      dup7\n      gas\n      staticcall\n      iszero\n      dup1\n      iszero\n      tag_198\n      jumpi\n      returndatasize\n      0x00\n      dup1\n      returndatacopy\n      revert(0x00, returndatasize)\n    tag_198:\n      pop\n      pop\n      pop\n      pop\n      mload(0x40)\n      returndatasize\n      not(0x1f)\n      0x1f\n      dup3\n      add\n      and\n      dup3\n      add\n      dup1\n      0x40\n      mstore\n      pop\n      dup2\n      add\n      swap1\n      tag_199\n      swap2\n      swap1\n      tag_115\n      jump\t// in\n    tag_199:\n        /* \"contracts/Hook.sol\":4552:4624  uint currentERC20Balance = IERC20(ERC20Address).balanceOf(address(this)) */\n      swap1\n      pop\n        /* \"contracts/Hook.sol\":4707:4724  uint tokensToSend */\n      0x00\n        /* \"contracts/Hook.sol\":4783:4786  100 */\n      0x64\n        /* \"contracts/Hook.sol\":4777:4780  105 */\n      0x69\n        /* \"contracts/Hook.sol\":4727:4733  Oracle */\n      0x0a\n      0x00\n      swap1\n      sload\n      swap1\n      0x0100\n      exp\n      swap1\n      div\n      0xffffffffffffffffffffffffffffffffffffffff\n      and\n        /* \"contracts/Hook.sol\":4727:4747  Oracle.consultPrices */\n      0xffffffffffffffffffffffffffffffffffffffff\n      and\n      0x3ac35585\n        /* \"contracts/Hook.sol\":4748:4759  WethAddress */\n      0x00\n      dup1\n      sload\n      swap1\n      0x0100\n      exp\n      swap1\n      div\n      0xffffffffffffffffffffffffffffffffffffffff\n      and\n        /* \"contracts/Hook.sol\":4761:4774  _liquidityEth */\n      dup10\n        /* \"contracts/Hook.sol\":4727:4775  Oracle.consultPrices(WethAddress, _liquidityEth) */\n      mload(0x40)\n      dup4\n      0xffffffff\n      and\n      0xe0\n      shl\n      dup2\n      mstore\n      0x04\n      add\n      tag_200\n      swap3\n      swap2\n      swap1\n      tag_117\n      jump\t// in\n    tag_200:\n      0x20\n      mload(0x40)\n      dup1\n      dup4\n      sub\n      dup2\n      dup7\n      gas\n      staticcall\n      iszero\n      dup1\n      iszero\n      tag_202\n      jumpi\n      returndatasize\n      0x00\n      dup1\n      returndatacopy\n      revert(0x00, returndatasize)\n    tag_202:\n      pop\n      pop\n      pop\n      pop\n      mload(0x40)\n      returndatasize\n      not(0x1f)\n      0x1f\n      dup3\n      add\n      and\n      dup3\n      add\n      dup1\n      0x40\n      mstore\n      pop\n      dup2\n      add\n      swap1\n      tag_203\n      swap2\n      swap1\n      tag_115\n      jump\t// in\n    tag_203:\n        /* \"contracts/Hook.sol\":4727:4780  Oracle.consultPrices(WethAddress, _liquidityEth)* 105 */\n      tag_204\n      swap2\n      swap1\n      tag_139\n      jump\t// in\n    tag_204:\n        /* \"contracts/Hook.sol\":4727:4786  Oracle.consultPrices(WethAddress, _liquidityEth)* 105 / 100 */\n      tag_205\n      swap2\n      swap1\n      tag_141\n      jump\t// in\n    tag_205:\n        /* \"contracts/Hook.sol\":4707:4786  uint tokensToSend = Oracle.consultPrices(WethAddress, _liquidityEth)* 105 / 100 */\n      swap1\n      pop\n        /* \"contracts/Hook.sol\":4908:4927  currentERC20Balance */\n      dup2\n        /* \"contracts/Hook.sol\":4893:4905  tokensToSend */\n      dup2\n        /* \"contracts/Hook.sol\":4893:4927  tokensToSend > currentERC20Balance */\n      gt\n        /* \"contracts/Hook.sol\":4890:5113  if(tokensToSend > currentERC20Balance){... */\n      iszero\n      tag_206\n      jumpi\n        /* \"contracts/Hook.sol\":4951:4963  ERC20Address */\n      0x01\n      0x00\n      swap1\n      sload\n      swap1\n      0x0100\n      exp\n      swap1\n      div\n      0xffffffffffffffffffffffffffffffffffffffff\n      and\n        /* \"contracts/Hook.sol\":4942:4973  WethLike(ERC20Address).hookMint */\n      0xffffffffffffffffffffffffffffffffffffffff\n      and\n      0x96fe8349\n        /* \"contracts/Hook.sol\":4987:5006  currentERC20Balance */\n      dup4\n        /* \"contracts/Hook.sol\":4974:4986  tokensToSend */\n      dup4\n        /* \"contracts/Hook.sol\":4974:5006  tokensToSend-currentERC20Balance */\n      tag_207\n      swap2\n      swap1\n      tag_149\n      jump\t// in\n    tag_207:\n        /* \"contracts/Hook.sol\":5015:5019  this */\n      address\n        /* \"contracts/Hook.sol\":4942:5021  WethLike(ERC20Address).hookMint(tokensToSend-currentERC20Balance,address(this)) */\n      mload(0x40)\n      dup4\n      0xffffffff\n      and\n      0xe0\n      shl\n      dup2\n      mstore\n      0x04\n      add\n      tag_208\n      swap3\n      swap2\n      swap1\n      tag_209\n      jump\t// in\n    tag_208:\n      0x00\n      mload(0x40)\n      dup1\n      dup4\n      sub\n      dup2\n      0x00\n      dup8\n      dup1\n      extcodesize\n      iszero\n      dup1\n      iszero\n      tag_210\n      jumpi\n      0x00\n      dup1\n      revert\n    tag_210:\n      pop\n      gas\n      call\n      iszero\n      dup1\n      iszero\n      tag_212\n      jumpi\n      returndatasize\n      0x00\n      dup1\n      returndatacopy\n      revert(0x00, returndatasize)\n    tag_212:\n      pop\n      pop\n      pop\n      pop\n        /* \"contracts/Hook.sol\":5064:5076  ERC20Address */\n      0x01\n      0x00\n      swap1\n      sload\n      swap1\n      0x0100\n      exp\n      swap1\n      div\n      0xffffffffffffffffffffffffffffffffffffffff\n      and\n        /* \"contracts/Hook.sol\":5057:5087  IERC20(ERC20Address).balanceOf */\n      0xffffffffffffffffffffffffffffffffffffffff\n      and\n      0x70a08231\n        /* \"contracts/Hook.sol\":5096:5100  this */\n      address\n        /* \"contracts/Hook.sol\":5057:5102  IERC20(ERC20Address).balanceOf(address(this)) */\n      mload(0x40)\n      dup3\n      0xffffffff\n      and\n      0xe0\n      shl\n      dup2\n      mstore\n      0x04\n      add\n      tag_213\n      swap2\n      swap1\n      tag_38\n      jump\t// in\n    tag_213:\n      0x20\n      mload(0x40)\n      dup1\n      dup4\n      sub\n      dup2\n      dup7\n      gas\n      staticcall\n      iszero\n      dup1\n      iszero\n      tag_215\n      jumpi\n      returndatasize\n      0x00\n      dup1\n      returndatacopy\n      revert(0x00, returndatasize)\n    tag_215:\n      pop\n      pop\n      pop\n      pop\n      mload(0x40)\n      returndatasize\n      not(0x1f)\n      0x1f\n      dup3\n      add\n      and\n      dup3\n      add\n      dup1\n      0x40\n      mstore\n      pop\n      dup2\n      add\n      swap1\n      tag_216\n      swap2\n      swap1\n      tag_115\n      jump\t// in\n    tag_216:\n        /* \"contracts/Hook.sol\":5035:5102  currentERC20Balance = IERC20(ERC20Address).balanceOf(address(this)) */\n      swap2\n      pop\n        /* \"contracts/Hook.sol\":4890:5113  if(tokensToSend > currentERC20Balance){... */\n    tag_206:\n        /* \"contracts/Hook.sol\":5185:5198  UniswapRouter */\n      0x0b\n      0x00\n      swap1\n      sload\n      swap1\n      0x0100\n      exp\n      swap1\n      div\n      0xffffffffffffffffffffffffffffffffffffffff\n      and\n        /* \"contracts/Hook.sol\":5185:5214  UniswapRouter.addLiquidityETH */\n      0xffffffffffffffffffffffffffffffffffffffff\n      and\n      0xf305d719\n        /* \"contracts/Hook.sol\":5223:5236  _liquidityEth */\n      dup7\n        /* \"contracts/Hook.sol\":5247:5251  this */\n      address\n        /* \"contracts/Hook.sol\":5254:5266  tokensToSend */\n      dup5\n        /* \"contracts/Hook.sol\":5288:5291  105 */\n      0x69\n        /* \"contracts/Hook.sol\":5284:5286  95 */\n      0x5f\n        /* \"contracts/Hook.sol\":5269:5281  tokensToSend */\n      dup8\n        /* \"contracts/Hook.sol\":5269:5286  tokensToSend * 95 */\n      tag_217\n      swap2\n      swap1\n      tag_139\n      jump\t// in\n    tag_217:\n        /* \"contracts/Hook.sol\":5268:5291  (tokensToSend * 95)/105 */\n      tag_218\n      swap2\n      swap1\n      tag_141\n      jump\t// in\n    tag_218:\n        /* \"contracts/Hook.sol\":5314:5317  100 */\n      0x64\n        /* \"contracts/Hook.sol\":5310:5312  95 */\n      0x5f\n        /* \"contracts/Hook.sol\":5294:5307  _liquidityEth */\n      dup13\n        /* \"contracts/Hook.sol\":5294:5312  _liquidityEth * 95 */\n      tag_219\n      swap2\n      swap1\n      tag_139\n      jump\t// in\n    tag_219:\n        /* \"contracts/Hook.sol\":5293:5317  (_liquidityEth * 95)/100 */\n      tag_220\n      swap2\n      swap1\n      tag_141\n      jump\t// in\n    tag_220:\n        /* \"contracts/Hook.sol\":5327:5331  this */\n      address\n        /* \"contracts/Hook.sol\":5334:5348  type(uint).max */\n      0xffffffffffffffffffffffffffffffffffffffffffffffffffffffffffffffff\n        /* \"contracts/Hook.sol\":5185:5349  UniswapRouter.addLiquidityETH {value: _liquidityEth} (address(this), tokensToSend, (tokensToSend * 95)/105, (_liquidityEth * 95)/100, address(this), type(uint).max) */\n      mload(0x40)\n      dup9\n      0xffffffff\n      and\n      0xe0\n      shl\n      dup2\n      mstore\n      0x04\n      add\n      tag_221\n      swap7\n      swap6\n      swap5\n      swap4\n      swap3\n      swap2\n      swap1\n      tag_222\n      jump\t// in\n    tag_221:\n      0x60\n      mload(0x40)\n      dup1\n      dup4\n      sub\n      dup2\n      dup6\n      dup9\n      gas\n      call\n      swap4\n      pop\n      pop\n      pop\n      pop\n      dup1\n      iszero\n      tag_223\n      jumpi\n      pop\n      mload(0x40)\n      returndatasize\n      not(0x1f)\n      0x1f\n      dup3\n      add\n      and\n      dup3\n      add\n      dup1\n      0x40\n      mstore\n      pop\n      dup2\n      add\n      swap1\n      tag_224\n      swap2\n      swap1\n      tag_225\n      jump\t// in\n    tag_224:\n      0x01\n    tag_223:\n        /* \"contracts/Hook.sol\":5181:5606  try UniswapRouter.addLiquidityETH {value: _liquidityEth} (address(this), tokensToSend, (tokensToSend * 95)/105, (_liquidityEth * 95)/100, address(this), type(uint).max)... */\n      tag_226\n      jumpi\n        /* \"contracts/Hook.sol\":5566:5595  Log(\"Liquidity Not Provided\") */\n      0xcf34ef537ac33ee1ac626ca1587a0a7e8e51561e5514f8cb36afa1c5102b3bab\n      mload(0x40)\n      tag_230\n      swap1\n      tag_231\n      jump\t// in\n    tag_230:\n      mload(0x40)\n      dup1\n      swap2\n      sub\n      swap1\n      log1\n        /* \"contracts/Hook.sol\":5181:5606  try UniswapRouter.addLiquidityETH {value: _liquidityEth} (address(this), tokensToSend, (tokensToSend * 95)/105, (_liquidityEth * 95)/100, address(this), type(uint).max)... */\n      jump(tag_232)\n    tag_226:\n      pop\n      pop\n      pop\n        /* \"contracts/Hook.sol\":5377:5415  Log(\"liquidity Successfully Provided\") */\n      0xcf34ef537ac33ee1ac626ca1587a0a7e8e51561e5514f8cb36afa1c5102b3bab\n      mload(0x40)\n      tag_233\n      swap1\n      tag_234\n      jump\t// in\n    tag_233:\n      mload(0x40)\n      dup1\n      swap2\n      sub\n      swap1\n      log1\n        /* \"contracts/Hook.sol\":5483:5495  ERC20Address */\n      0x01\n      0x00\n      swap1\n      sload\n      swap1\n      0x0100\n      exp\n      swap1\n      div\n      0xffffffffffffffffffffffffffffffffffffffff\n      and\n        /* \"contracts/Hook.sol\":5476:5506  IERC20(ERC20Address).balanceOf */\n      0xffffffffffffffffffffffffffffffffffffffff\n      and\n      0x70a08231\n        /* \"contracts/Hook.sol\":5515:5519  this */\n      address\n        /* \"contracts/Hook.sol\":5476:5521  IERC20(ERC20Address).balanceOf(address(this)) */\n      mload(0x40)\n      dup3\n      0xffffffff\n      and\n      0xe0\n      shl\n      dup2\n      mstore\n      0x04\n      add\n      tag_235\n      swap2\n      swap1\n      tag_38\n      jump\t// in\n    tag_235:\n      0x20\n      mload(0x40)\n      dup1\n      dup4\n      sub\n      dup2\n      dup7\n      gas\n      staticcall\n      iszero\n      dup1\n      iszero\n      tag_237\n      jumpi\n      returndatasize\n      0x00\n      dup1\n      returndatacopy\n      revert(0x00, returndatasize)\n    tag_237:\n      pop\n      pop\n      pop\n      pop\n      mload(0x40)\n      returndatasize\n      not(0x1f)\n      0x1f\n      dup3\n      add\n      and\n      dup3\n      add\n      dup1\n      0x40\n      mstore\n      pop\n      dup2\n      add\n      swap1\n      tag_238\n      swap2\n      swap1\n      tag_115\n      jump\t// in\n    tag_238:\n        /* \"contracts/Hook.sol\":5454:5473  currentERC20Balance */\n      dup3\n        /* \"contracts/Hook.sol\":5454:5521  currentERC20Balance - IERC20(ERC20Address).balanceOf(address(this)) */\n      tag_239\n      swap2\n      swap1\n      tag_149\n      jump\t// in\n    tag_239:\n        /* \"contracts/Hook.sol\":5429:5521  ERC20LiquidityProvided = currentERC20Balance - IERC20(ERC20Address).balanceOf(address(this)) */\n      swap3\n      pop\n        /* \"contracts/Hook.sol\":5181:5606  try UniswapRouter.addLiquidityETH {value: _liquidityEth} (address(this), tokensToSend, (tokensToSend * 95)/105, (_liquidityEth * 95)/100, address(this), type(uint).max)... */\n    tag_232:\n        /* \"contracts/Hook.sol\":5623:5645  ERC20LiquidityProvided */\n      dup3\n        /* \"contracts/Hook.sol\":5615:5646  return (ERC20LiquidityProvided) */\n      swap4\n      pop\n      pop\n      pop\n      pop\n        /* \"contracts/Hook.sol\":4357:5653  function provideLiquidity(uint _liquidityEth) internal returns (uint){... */\n      swap2\n      swap1\n      pop\n      jump\t// out\n        /* \"contracts/Hook.sol\":6588:7279  function erc20ToPreviousHolder(address previousHolder) internal{... */\n    tag_158:\n        /* \"contracts/Hook.sol\":6661:6675  uint ethAmount */\n      0x00\n        /* \"contracts/Hook.sol\":6678:6699  transactionFromPOAPId */\n      0x0c\n        /* \"contracts/Hook.sol\":6678:6719  transactionFromPOAPId[POAPIds.length - 1] */\n      0x00\n        /* \"contracts/Hook.sol\":6717:6718  1 */\n      0x01\n        /* \"contracts/Hook.sol\":6700:6707  POAPIds */\n      0x0d\n        /* \"contracts/Hook.sol\":6700:6714  POAPIds.length */\n      dup1\n      sload\n      swap1\n      pop\n        /* \"contracts/Hook.sol\":6700:6718  POAPIds.length - 1 */\n      tag_241\n      swap2\n      swap1\n      tag_149\n      jump\t// in\n    tag_241:\n        /* \"contracts/Hook.sol\":6678:6719  transactionFromPOAPId[POAPIds.length - 1] */\n      dup2\n      mstore\n      0x20\n      add\n      swap1\n      dup2\n      mstore\n      0x20\n      add\n      0x00\n      keccak256\n        /* \"contracts/Hook.sol\":6678:6731  transactionFromPOAPId[POAPIds.length - 1].receivedEth */\n      0x02\n      add\n      sload\n        /* \"contracts/Hook.sol\":6661:6731  uint ethAmount = transactionFromPOAPId[POAPIds.length - 1].receivedEth */\n      swap1\n      pop\n        /* \"contracts/Hook.sol\":6757:6758  0 */\n      0x00\n        /* \"contracts/Hook.sol\":6744:6753  ethAmount */\n      dup2\n        /* \"contracts/Hook.sol\":6744:6758  ethAmount == 0 */\n      sub\n        /* \"contracts/Hook.sol\":6741:7273  if(ethAmount == 0){}else{... */\n      iszero\n      tag_243\n      jumpi\n        /* \"contracts/Hook.sol\":6784:6790  Oracle */\n      0x0a\n      0x00\n      swap1\n      sload\n      swap1\n      0x0100\n      exp\n      swap1\n      div\n      0xffffffffffffffffffffffffffffffffffffffff\n      and\n        /* \"contracts/Hook.sol\":6784:6804  Oracle.consultPrices */\n      0xffffffffffffffffffffffffffffffffffffffff\n      and\n      0x3ac35585\n        /* \"contracts/Hook.sol\":6805:6816  WethAddress */\n      0x00\n      dup1\n      sload\n      swap1\n      0x0100\n      exp\n      swap1\n      div\n      0xffffffffffffffffffffffffffffffffffffffff\n      and\n        /* \"contracts/Hook.sol\":6817:6826  ethAmount */\n      dup4\n        /* \"contracts/Hook.sol\":6784:6827  Oracle.consultPrices(WethAddress,ethAmount) */\n      mload(0x40)\n      dup4\n      0xffffffff\n      and\n      0xe0\n      shl\n      dup2\n      mstore\n      0x04\n      add\n      tag_244\n      swap3\n      swap2\n      swap1\n      tag_117\n      jump\t// in\n    tag_244:\n      0x20\n      mload(0x40)\n      dup1\n      dup4\n      sub\n      dup2\n      dup7\n      gas\n      staticcall\n      swap3\n      pop\n      pop\n      pop\n      dup1\n      iszero\n      tag_245\n      jumpi\n      pop\n      mload(0x40)\n      returndatasize\n      not(0x1f)\n      0x1f\n      dup3\n      add\n      and\n      dup3\n      add\n      dup1\n      0x40\n      mstore\n      pop\n      dup2\n      add\n      swap1\n      tag_246\n      swap2\n      swap1\n      tag_115\n      jump\t// in\n    tag_246:\n      0x01\n    tag_245:\n        /* \"contracts/Hook.sol\":6779:7263  try  Oracle.consultPrices(WethAddress,ethAmount){... */\n      tag_247\n      jumpi\n        /* \"contracts/Hook.sol\":7211:7248  Log ('price cant be got from Oracle') */\n      0xcf34ef537ac33ee1ac626ca1587a0a7e8e51561e5514f8cb36afa1c5102b3bab\n      mload(0x40)\n      tag_251\n      swap1\n      tag_252\n      jump\t// in\n    tag_251:\n      mload(0x40)\n      dup1\n      swap2\n      sub\n      swap1\n      log1\n        /* \"contracts/Hook.sol\":6779:7263  try  Oracle.consultPrices(WethAddress,ethAmount){... */\n      jump(tag_253)\n    tag_247:\n      pop\n        /* \"contracts/Hook.sol\":6849:6866  uint amountToMint */\n      0x00\n        /* \"contracts/Hook.sol\":6867:6873  Oracle */\n      0x0a\n      0x00\n      swap1\n      sload\n      swap1\n      0x0100\n      exp\n      swap1\n      div\n      0xffffffffffffffffffffffffffffffffffffffff\n      and\n        /* \"contracts/Hook.sol\":6867:6887  Oracle.consultPrices */\n      0xffffffffffffffffffffffffffffffffffffffff\n      and\n      0x3ac35585\n        /* \"contracts/Hook.sol\":6888:6899  WethAddress */\n      0x00\n      dup1\n      sload\n      swap1\n      0x0100\n      exp\n      swap1\n      div\n      0xffffffffffffffffffffffffffffffffffffffff\n      and\n        /* \"contracts/Hook.sol\":6900:6909  ethAmount */\n      dup5\n        /* \"contracts/Hook.sol\":6867:6910  Oracle.consultPrices(WethAddress,ethAmount) */\n      mload(0x40)\n      dup4\n      0xffffffff\n      and\n      0xe0\n      shl\n      dup2\n      mstore\n      0x04\n      add\n      tag_254\n      swap3\n      swap2\n      swap1\n      tag_117\n      jump\t// in\n    tag_254:\n      0x20\n      mload(0x40)\n      dup1\n      dup4\n      sub\n      dup2\n      dup7\n      gas\n      staticcall\n      iszero\n      dup1\n      iszero\n      tag_256\n      jumpi\n      returndatasize\n      0x00\n      dup1\n      returndatacopy\n      revert(0x00, returndatasize)\n    tag_256:\n      pop\n      pop\n      pop\n      pop\n      mload(0x40)\n      returndatasize\n      not(0x1f)\n      0x1f\n      dup3\n      add\n      and\n      dup3\n      add\n      dup1\n      0x40\n      mstore\n      pop\n      dup2\n      add\n      swap1\n      tag_257\n      swap2\n      swap1\n      tag_115\n      jump\t// in\n    tag_257:\n        /* \"contracts/Hook.sol\":6849:6910  uint amountToMint=Oracle.consultPrices(WethAddress,ethAmount) */\n      swap1\n      pop\n        /* \"contracts/Hook.sol\":6945:6957  ERC20Address */\n      0x01\n      0x00\n      swap1\n      sload\n      swap1\n      0x0100\n      exp\n      swap1\n      div\n      0xffffffffffffffffffffffffffffffffffffffff\n      and\n        /* \"contracts/Hook.sol\":6936:6967  WethLike(ERC20Address).hookMint */\n      0xffffffffffffffffffffffffffffffffffffffff\n      and\n      0x96fe8349\n        /* \"contracts/Hook.sol\":6968:6980  amountToMint */\n      dup3\n        /* \"contracts/Hook.sol\":6981:6995  previousHolder */\n      dup6\n        /* \"contracts/Hook.sol\":6936:6996  WethLike(ERC20Address).hookMint(amountToMint,previousHolder) */\n      mload(0x40)\n      dup4\n      0xffffffff\n      and\n      0xe0\n      shl\n      dup2\n      mstore\n      0x04\n      add\n      tag_258\n      swap3\n      swap2\n      swap1\n      tag_209\n      jump\t// in\n    tag_258:\n      0x00\n      mload(0x40)\n      dup1\n      dup4\n      sub\n      dup2\n      0x00\n      dup8\n      dup1\n      extcodesize\n      iszero\n      dup1\n      iszero\n      tag_259\n      jumpi\n      0x00\n      dup1\n      revert\n    tag_259:\n      pop\n      gas\n      call\n      swap3\n      pop\n      pop\n      pop\n      dup1\n      iszero\n      tag_260\n      jumpi\n      pop\n      0x01\n    tag_260:\n        /* \"contracts/Hook.sol\":6932:7169  try WethLike(ERC20Address).hookMint(amountToMint,previousHolder){... */\n      tag_261\n      jumpi\n        /* \"contracts/Hook.sol\":7122:7167  Log('price got from Oracle but couldnt mint') */\n      0xcf34ef537ac33ee1ac626ca1587a0a7e8e51561e5514f8cb36afa1c5102b3bab\n      mload(0x40)\n      tag_265\n      swap1\n      tag_266\n      jump\t// in\n    tag_265:\n      mload(0x40)\n      dup1\n      swap2\n      sub\n      swap1\n      log1\n        /* \"contracts/Hook.sol\":6932:7169  try WethLike(ERC20Address).hookMint(amountToMint,previousHolder){... */\n      jump(tag_267)\n    tag_261:\n        /* \"contracts/Hook.sol\":7027:7066  Log('tokens minted to previous holder') */\n      0xcf34ef537ac33ee1ac626ca1587a0a7e8e51561e5514f8cb36afa1c5102b3bab\n      mload(0x40)\n      tag_268\n      swap1\n      tag_269\n      jump\t// in\n    tag_268:\n      mload(0x40)\n      dup1\n      swap2\n      sub\n      swap1\n      log1\n        /* \"contracts/Hook.sol\":6932:7169  try WethLike(ERC20Address).hookMint(amountToMint,previousHolder){... */\n    tag_267:\n        /* \"contracts/Hook.sol\":6827:7170  {... */\n      pop\n        /* \"contracts/Hook.sol\":6779:7263  try  Oracle.consultPrices(WethAddress,ethAmount){... */\n    tag_253:\n        /* \"contracts/Hook.sol\":6741:7273  if(ethAmount == 0){}else{... */\n    tag_243:\n        /* \"contracts/Hook.sol\":6651:7279  {... */\n      pop\n        /* \"contracts/Hook.sol\":6588:7279  function erc20ToPreviousHolder(address previousHolder) internal{... */\n      pop\n      jump\t// out\n        /* \"contracts/Hook.sol\":5714:6352  function buyTokens(uint _buyEth) internal returns (uint){... */\n    tag_184:\n        /* \"contracts/Hook.sol\":5765:5769  uint */\n      0x00\n        /* \"contracts/Hook.sol\":5780:5804  uint initialTokenbalance */\n      dup1\n        /* \"contracts/Hook.sol\":5814:5826  ERC20Address */\n      0x01\n      0x00\n      swap1\n      sload\n      swap1\n      0x0100\n      exp\n      swap1\n      div\n      0xffffffffffffffffffffffffffffffffffffffff\n      and\n        /* \"contracts/Hook.sol\":5807:5837  IERC20(ERC20Address).balanceOf */\n      0xffffffffffffffffffffffffffffffffffffffff\n      and\n      0x70a08231\n        /* \"contracts/Hook.sol\":5846:5850  this */\n      address\n        /* \"contracts/Hook.sol\":5807:5852  IERC20(ERC20Address).balanceOf(address(this)) */\n      mload(0x40)\n      dup3\n      0xffffffff\n      and\n      0xe0\n      shl\n      dup2\n      mstore\n      0x04\n      add\n      tag_271\n      swap2\n      swap1\n      tag_38\n      jump\t// in\n    tag_271:\n      0x20\n      mload(0x40)\n      dup1\n      dup4\n      sub\n      dup2\n      dup7\n      gas\n      staticcall\n      iszero\n      dup1\n      iszero\n      tag_273\n      jumpi\n      returndatasize\n      0x00\n      dup1\n      returndatacopy\n      revert(0x00, returndatasize)\n    tag_273:\n      pop\n      pop\n      pop\n      pop\n      mload(0x40)\n      returndatasize\n      not(0x1f)\n      0x1f\n      dup3\n      add\n      and\n      dup3\n      add\n      dup1\n      0x40\n      mstore\n      pop\n      dup2\n      add\n      swap1\n      tag_274\n      swap2\n      swap1\n      tag_115\n      jump\t// in\n    tag_274:\n        /* \"contracts/Hook.sol\":5780:5852  uint initialTokenbalance = IERC20(ERC20Address).balanceOf(address(this)) */\n      swap1\n      pop\n        /* \"contracts/Hook.sol\":5862:5886  uint numberOfTokensToBuy */\n      0x00\n        /* \"contracts/Hook.sol\":5889:5895  Oracle */\n      0x0a\n      0x00\n      swap1\n      sload\n      swap1\n      0x0100\n      exp\n      swap1\n      div\n      0xffffffffffffffffffffffffffffffffffffffff\n      and\n        /* \"contracts/Hook.sol\":5889:5909  Oracle.consultPrices */\n      0xffffffffffffffffffffffffffffffffffffffff\n      and\n      0x3ac35585\n        /* \"contracts/Hook.sol\":5910:5921  WethAddress */\n      0x00\n      dup1\n      sload\n      swap1\n      0x0100\n      exp\n      swap1\n      div\n      0xffffffffffffffffffffffffffffffffffffffff\n      and\n        /* \"contracts/Hook.sol\":5923:5930  _buyEth */\n      dup7\n        /* \"contracts/Hook.sol\":5889:5931  Oracle.consultPrices(WethAddress, _buyEth) */\n      mload(0x40)\n      dup4\n      0xffffffff\n      and\n      0xe0\n      shl\n      dup2\n      mstore\n      0x04\n      add\n      tag_275\n      swap3\n      swap2\n      swap1\n      tag_117\n      jump\t// in\n    tag_275:\n      0x20\n      mload(0x40)\n      dup1\n      dup4\n      sub\n      dup2\n      dup7\n      gas\n      staticcall\n      iszero\n      dup1\n      iszero\n      tag_277\n      jumpi\n      returndatasize\n      0x00\n      dup1\n      returndatacopy\n      revert(0x00, returndatasize)\n    tag_277:\n      pop\n      pop\n      pop\n      pop\n      mload(0x40)\n      returndatasize\n      not(0x1f)\n      0x1f\n      dup3\n      add\n      and\n      dup3\n      add\n      dup1\n      0x40\n      mstore\n      pop\n      dup2\n      add\n      swap1\n      tag_278\n      swap2\n      swap1\n      tag_115\n      jump\t// in\n    tag_278:\n        /* \"contracts/Hook.sol\":5862:5931  uint numberOfTokensToBuy = Oracle.consultPrices(WethAddress, _buyEth) */\n      swap1\n      pop\n        /* \"contracts/Hook.sol\":5941:5958  uint amountOutMin */\n      0x00\n        /* \"contracts/Hook.sol\":5986:5989  100 */\n      0x64\n        /* \"contracts/Hook.sol\":5982:5984  95 */\n      0x5f\n        /* \"contracts/Hook.sol\":5962:5981  numberOfTokensToBuy */\n      dup4\n        /* \"contracts/Hook.sol\":5962:5984  numberOfTokensToBuy*95 */\n      tag_279\n      swap2\n      swap1\n      tag_139\n      jump\t// in\n    tag_279:\n        /* \"contracts/Hook.sol\":5961:5989  (numberOfTokensToBuy*95)/100 */\n      tag_280\n      swap2\n      swap1\n      tag_141\n      jump\t// in\n    tag_280:\n        /* \"contracts/Hook.sol\":5941:5989  uint amountOutMin = (numberOfTokensToBuy*95)/100 */\n      swap1\n      pop\n        /* \"contracts/Hook.sol\":6003:6016  UniswapRouter */\n      0x0b\n      0x00\n      swap1\n      sload\n      swap1\n      0x0100\n      exp\n      swap1\n      div\n      0xffffffffffffffffffffffffffffffffffffffff\n      and\n        /* \"contracts/Hook.sol\":6003:6038  UniswapRouter.swapExactETHForTokens */\n      0xffffffffffffffffffffffffffffffffffffffff\n      and\n      0x7ff36ab5\n        /* \"contracts/Hook.sol\":6046:6053  _buyEth */\n      dup7\n        /* \"contracts/Hook.sol\":6055:6067  amountOutMin */\n      dup4\n        /* \"contracts/Hook.sol\":6069:6073  path */\n      0x07\n        /* \"contracts/Hook.sol\":6075:6085  msg.sender */\n      caller\n        /* \"contracts/Hook.sol\":6087:6101  type(uint).max */\n      0xffffffffffffffffffffffffffffffffffffffffffffffffffffffffffffffff\n        /* \"contracts/Hook.sol\":6003:6102  UniswapRouter.swapExactETHForTokens{value: _buyEth}(amountOutMin, path, msg.sender, type(uint).max) */\n      mload(0x40)\n      dup7\n      0xffffffff\n      and\n      0xe0\n      shl\n      dup2\n      mstore\n      0x04\n      add\n      tag_281\n      swap5\n      swap4\n      swap3\n      swap2\n      swap1\n      tag_282\n      jump\t// in\n    tag_281:\n      0x00\n      mload(0x40)\n      dup1\n      dup4\n      sub\n      dup2\n      dup6\n      dup9\n      gas\n      call\n      swap4\n      pop\n      pop\n      pop\n      pop\n      dup1\n      iszero\n      tag_283\n      jumpi\n      pop\n      mload(0x40)\n      returndatasize\n      0x00\n      dup3\n      returndatacopy\n      returndatasize\n      not(0x1f)\n      0x1f\n      dup3\n      add\n      and\n      dup3\n      add\n      dup1\n      0x40\n      mstore\n      pop\n      dup2\n      add\n      swap1\n      tag_284\n      swap2\n      swap1\n      tag_285\n      jump\t// in\n    tag_284:\n      0x01\n    tag_283:\n        /* \"contracts/Hook.sol\":5999:6208  try UniswapRouter.swapExactETHForTokens{value: _buyEth}(amountOutMin, path, msg.sender, type(uint).max)... */\n      tag_286\n      jumpi\n        /* \"contracts/Hook.sol\":6173:6197  Log(\"tokens not bought\") */\n      0xcf34ef537ac33ee1ac626ca1587a0a7e8e51561e5514f8cb36afa1c5102b3bab\n      mload(0x40)\n      tag_290\n      swap1\n      tag_291\n      jump\t// in\n    tag_290:\n      mload(0x40)\n      dup1\n      swap2\n      sub\n      swap1\n      log1\n        /* \"contracts/Hook.sol\":5999:6208  try UniswapRouter.swapExactETHForTokens{value: _buyEth}(amountOutMin, path, msg.sender, type(uint).max)... */\n      jump(tag_292)\n    tag_286:\n      pop\n        /* \"contracts/Hook.sol\":6118:6138  Log(\"tokens bought\") */\n      0xcf34ef537ac33ee1ac626ca1587a0a7e8e51561e5514f8cb36afa1c5102b3bab\n      mload(0x40)\n      tag_293\n      swap1\n      tag_294\n      jump\t// in\n    tag_293:\n      mload(0x40)\n      dup1\n      swap2\n      sub\n      swap1\n      log1\n        /* \"contracts/Hook.sol\":5999:6208  try UniswapRouter.swapExactETHForTokens{value: _buyEth}(amountOutMin, path, msg.sender, type(uint).max)... */\n    tag_292:\n        /* \"contracts/Hook.sol\":6316:6335  initialTokenbalance */\n      dup3\n        /* \"contracts/Hook.sol\":6275:6287  ERC20Address */\n      0x01\n      0x00\n      swap1\n      sload\n      swap1\n      0x0100\n      exp\n      swap1\n      div\n      0xffffffffffffffffffffffffffffffffffffffff\n      and\n        /* \"contracts/Hook.sol\":6268:6298  IERC20(ERC20Address).balanceOf */\n      0xffffffffffffffffffffffffffffffffffffffff\n      and\n      0x70a08231\n        /* \"contracts/Hook.sol\":6307:6311  this */\n      address\n        /* \"contracts/Hook.sol\":6268:6313  IERC20(ERC20Address).balanceOf(address(this)) */\n      mload(0x40)\n      dup3\n      0xffffffff\n      and\n      0xe0\n      shl\n      dup2\n      mstore\n      0x04\n      add\n      tag_295\n      swap2\n      swap1\n      tag_38\n      jump\t// in\n    tag_295:\n      0x20\n      mload(0x40)\n      dup1\n      dup4\n      sub\n      dup2\n      dup7\n      gas\n      staticcall\n      iszero\n      dup1\n      iszero\n      tag_297\n      jumpi\n      returndatasize\n      0x00\n      dup1\n      returndatacopy\n      revert(0x00, returndatasize)\n    tag_297:\n      pop\n      pop\n      pop\n      pop\n      mload(0x40)\n      returndatasize\n      not(0x1f)\n      0x1f\n      dup3\n      add\n      and\n      dup3\n      add\n      dup1\n      0x40\n      mstore\n      pop\n      dup2\n      add\n      swap1\n      tag_298\n      swap2\n      swap1\n      tag_115\n      jump\t// in\n    tag_298:\n        /* \"contracts/Hook.sol\":6268:6335  IERC20(ERC20Address).balanceOf(address(this)) - initialTokenbalance */\n      tag_299\n      swap2\n      swap1\n      tag_149\n      jump\t// in\n    tag_299:\n        /* \"contracts/Hook.sol\":6261:6335  return IERC20(ERC20Address).balanceOf(address(this)) - initialTokenbalance */\n      swap4\n      pop\n      pop\n      pop\n      pop\n        /* \"contracts/Hook.sol\":5714:6352  function buyTokens(uint _buyEth) internal returns (uint){... */\n      swap2\n      swap1\n      pop\n      jump\t// out\n        /* \"#utility.yul\":7:82   */\n    tag_300:\n        /* \"#utility.yul\":40:46   */\n      0x00\n        /* \"#utility.yul\":73:75   */\n      0x40\n        /* \"#utility.yul\":67:76   */\n      mload\n        /* \"#utility.yul\":57:76   */\n      swap1\n      pop\n        /* \"#utility.yul\":7:82   */\n      swap1\n      jump\t// out\n        /* \"#utility.yul\":88:205   */\n    tag_301:\n        /* \"#utility.yul\":197:198   */\n      0x00\n        /* \"#utility.yul\":194:195   */\n      dup1\n        /* \"#utility.yul\":187:199   */\n      revert\n        /* \"#utility.yul\":211:328   */\n    tag_302:\n        /* \"#utility.yul\":320:321   */\n      0x00\n        /* \"#utility.yul\":317:318   */\n      dup1\n        /* \"#utility.yul\":310:322   */\n      revert\n        /* \"#utility.yul\":334:460   */\n    tag_303:\n        /* \"#utility.yul\":371:378   */\n      0x00\n        /* \"#utility.yul\":411:453   */\n      0xffffffffffffffffffffffffffffffffffffffff\n        /* \"#utility.yul\":404:409   */\n      dup3\n        /* \"#utility.yul\":400:454   */\n      and\n        /* \"#utility.yul\":389:454   */\n      swap1\n      pop\n        /* \"#utility.yul\":334:460   */\n      swap2\n      swap1\n      pop\n      jump\t// out\n        /* \"#utility.yul\":466:562   */\n    tag_304:\n        /* \"#utility.yul\":503:510   */\n      0x00\n        /* \"#utility.yul\":532:556   */\n      tag_365\n        /* \"#utility.yul\":550:555   */\n      dup3\n        /* \"#utility.yul\":532:556   */\n      tag_303\n      jump\t// in\n    tag_365:\n        /* \"#utility.yul\":521:556   */\n      swap1\n      pop\n        /* \"#utility.yul\":466:562   */\n      swap2\n      swap1\n      pop\n      jump\t// out\n        /* \"#utility.yul\":568:690   */\n    tag_305:\n        /* \"#utility.yul\":641:665   */\n      tag_367\n        /* \"#utility.yul\":659:664   */\n      dup2\n        /* \"#utility.yul\":641:665   */\n      tag_304\n      jump\t// in\n    tag_367:\n        /* \"#utility.yul\":634:639   */\n      dup2\n        /* \"#utility.yul\":631:666   */\n      eq\n        /* \"#utility.yul\":621:684   */\n      tag_368\n      jumpi\n        /* \"#utility.yul\":680:681   */\n      0x00\n        /* \"#utility.yul\":677:678   */\n      dup1\n        /* \"#utility.yul\":670:682   */\n      revert\n        /* \"#utility.yul\":621:684   */\n    tag_368:\n        /* \"#utility.yul\":568:690   */\n      pop\n      jump\t// out\n        /* \"#utility.yul\":696:835   */\n    tag_306:\n        /* \"#utility.yul\":742:747   */\n      0x00\n        /* \"#utility.yul\":780:786   */\n      dup2\n        /* \"#utility.yul\":767:787   */\n      calldataload\n        /* \"#utility.yul\":758:787   */\n      swap1\n      pop\n        /* \"#utility.yul\":796:829   */\n      tag_370\n        /* \"#utility.yul\":823:828   */\n      dup2\n        /* \"#utility.yul\":796:829   */\n      tag_305\n      jump\t// in\n    tag_370:\n        /* \"#utility.yul\":696:835   */\n      swap3\n      swap2\n      pop\n      pop\n      jump\t// out\n        /* \"#utility.yul\":841:1170   */\n    tag_28:\n        /* \"#utility.yul\":900:906   */\n      0x00\n        /* \"#utility.yul\":949:951   */\n      0x20\n        /* \"#utility.yul\":937:946   */\n      dup3\n        /* \"#utility.yul\":928:935   */\n      dup5\n        /* \"#utility.yul\":924:947   */\n      sub\n        /* \"#utility.yul\":920:952   */\n      slt\n        /* \"#utility.yul\":917:1036   */\n      iszero\n      tag_372\n      jumpi\n        /* \"#utility.yul\":955:1034   */\n      tag_373\n      tag_301\n      jump\t// in\n    tag_373:\n        /* \"#utility.yul\":917:1036   */\n    tag_372:\n        /* \"#utility.yul\":1075:1076   */\n      0x00\n        /* \"#utility.yul\":1100:1153   */\n      tag_374\n        /* \"#utility.yul\":1145:1152   */\n      dup5\n        /* \"#utility.yul\":1136:1142   */\n      dup3\n        /* \"#utility.yul\":1125:1134   */\n      dup6\n        /* \"#utility.yul\":1121:1143   */\n      add\n        /* \"#utility.yul\":1100:1153   */\n      tag_306\n      jump\t// in\n    tag_374:\n        /* \"#utility.yul\":1090:1153   */\n      swap2\n      pop\n        /* \"#utility.yul\":1046:1163   */\n      pop\n        /* \"#utility.yul\":841:1170   */\n      swap3\n      swap2\n      pop\n      pop\n      jump\t// out\n        /* \"#utility.yul\":1176:1294   */\n    tag_307:\n        /* \"#utility.yul\":1263:1287   */\n      tag_376\n        /* \"#utility.yul\":1281:1286   */\n      dup2\n        /* \"#utility.yul\":1263:1287   */\n      tag_304\n      jump\t// in\n    tag_376:\n        /* \"#utility.yul\":1258:1261   */\n      dup3\n        /* \"#utility.yul\":1251:1288   */\n      mstore\n        /* \"#utility.yul\":1176:1294   */\n      pop\n      pop\n      jump\t// out\n        /* \"#utility.yul\":1300:1522   */\n    tag_38:\n        /* \"#utility.yul\":1393:1397   */\n      0x00\n        /* \"#utility.yul\":1431:1433   */\n      0x20\n        /* \"#utility.yul\":1420:1429   */\n      dup3\n        /* \"#utility.yul\":1416:1434   */\n      add\n        /* \"#utility.yul\":1408:1434   */\n      swap1\n      pop\n        /* \"#utility.yul\":1444:1515   */\n      tag_378\n        /* \"#utility.yul\":1512:1513   */\n      0x00\n        /* \"#utility.yul\":1501:1510   */\n      dup4\n        /* \"#utility.yul\":1497:1514   */\n      add\n        /* \"#utility.yul\":1488:1494   */\n      dup5\n        /* \"#utility.yul\":1444:1515   */\n      tag_307\n      jump\t// in\n    tag_378:\n        /* \"#utility.yul\":1300:1522   */\n      swap3\n      swap2\n      pop\n      pop\n      jump\t// out\n        /* \"#utility.yul\":1528:1605   */\n    tag_308:\n        /* \"#utility.yul\":1565:1572   */\n      0x00\n        /* \"#utility.yul\":1594:1599   */\n      dup2\n        /* \"#utility.yul\":1583:1599   */\n      swap1\n      pop\n        /* \"#utility.yul\":1528:1605   */\n      swap2\n      swap1\n      pop\n      jump\t// out\n        /* \"#utility.yul\":1611:1733   */\n    tag_309:\n        /* \"#utility.yul\":1684:1708   */\n      tag_381\n        /* \"#utility.yul\":1702:1707   */\n      dup2\n        /* \"#utility.yul\":1684:1708   */\n      tag_308\n      jump\t// in\n    tag_381:\n        /* \"#utility.yul\":1677:1682   */\n      dup2\n        /* \"#utility.yul\":1674:1709   */\n      eq\n        /* \"#utility.yul\":1664:1727   */\n      tag_382\n      jumpi\n        /* \"#utility.yul\":1723:1724   */\n      0x00\n        /* \"#utility.yul\":1720:1721   */\n      dup1\n        /* \"#utility.yul\":1713:1725   */\n      revert\n        /* \"#utility.yul\":1664:1727   */\n    tag_382:\n        /* \"#utility.yul\":1611:1733   */\n      pop\n      jump\t// out\n        /* \"#utility.yul\":1739:1878   */\n    tag_310:\n        /* \"#utility.yul\":1785:1790   */\n      0x00\n        /* \"#utility.yul\":1823:1829   */\n      dup2\n        /* \"#utility.yul\":1810:1830   */\n      calldataload\n        /* \"#utility.yul\":1801:1830   */\n      swap1\n      pop\n        /* \"#utility.yul\":1839:1872   */\n      tag_384\n        /* \"#utility.yul\":1866:1871   */\n      dup2\n        /* \"#utility.yul\":1839:1872   */\n      tag_309\n      jump\t// in\n    tag_384:\n        /* \"#utility.yul\":1739:1878   */\n      swap3\n      swap2\n      pop\n      pop\n      jump\t// out\n        /* \"#utility.yul\":1884:2213   */\n    tag_42:\n        /* \"#utility.yul\":1943:1949   */\n      0x00\n        /* \"#utility.yul\":1992:1994   */\n      0x20\n        /* \"#utility.yul\":1980:1989   */\n      dup3\n        /* \"#utility.yul\":1971:1978   */\n      dup5\n        /* \"#utility.yul\":1967:1990   */\n      sub\n        /* \"#utility.yul\":1963:1995   */\n      slt\n        /* \"#utility.yul\":1960:2079   */\n      iszero\n      tag_386\n      jumpi\n        /* \"#utility.yul\":1998:2077   */\n      tag_387\n      tag_301\n      jump\t// in\n    tag_387:\n        /* \"#utility.yul\":1960:2079   */\n    tag_386:\n        /* \"#utility.yul\":2118:2119   */\n      0x00\n        /* \"#utility.yul\":2143:2196   */\n      tag_388\n        /* \"#utility.yul\":2188:2195   */\n      dup5\n        /* \"#utility.yul\":2179:2185   */\n      dup3\n        /* \"#utility.yul\":2168:2177   */\n      dup6\n        /* \"#utility.yul\":2164:2186   */\n      add\n        /* \"#utility.yul\":2143:2196   */\n      tag_310\n      jump\t// in\n    tag_388:\n        /* \"#utility.yul\":2133:2196   */\n      swap2\n      pop\n        /* \"#utility.yul\":2089:2206   */\n      pop\n        /* \"#utility.yul\":1884:2213   */\n      swap3\n      swap2\n      pop\n      pop\n      jump\t// out\n        /* \"#utility.yul\":2219:2337   */\n    tag_311:\n        /* \"#utility.yul\":2306:2330   */\n      tag_390\n        /* \"#utility.yul\":2324:2329   */\n      dup2\n        /* \"#utility.yul\":2306:2330   */\n      tag_308\n      jump\t// in\n    tag_390:\n        /* \"#utility.yul\":2301:2304   */\n      dup3\n        /* \"#utility.yul\":2294:2331   */\n      mstore\n        /* \"#utility.yul\":2219:2337   */\n      pop\n      pop\n      jump\t// out\n        /* \"#utility.yul\":2343:2785   */\n    tag_45:\n        /* \"#utility.yul\":2492:2496   */\n      0x00\n        /* \"#utility.yul\":2530:2532   */\n      0x60\n        /* \"#utility.yul\":2519:2528   */\n      dup3\n        /* \"#utility.yul\":2515:2533   */\n      add\n        /* \"#utility.yul\":2507:2533   */\n      swap1\n      pop\n        /* \"#utility.yul\":2543:2614   */\n      tag_392\n        /* \"#utility.yul\":2611:2612   */\n      0x00\n        /* \"#utility.yul\":2600:2609   */\n      dup4\n        /* \"#utility.yul\":2596:2613   */\n      add\n        /* \"#utility.yul\":2587:2593   */\n      dup7\n        /* \"#utility.yul\":2543:2614   */\n      tag_311\n      jump\t// in\n    tag_392:\n        /* \"#utility.yul\":2624:2696   */\n      tag_393\n        /* \"#utility.yul\":2692:2694   */\n      0x20\n        /* \"#utility.yul\":2681:2690   */\n      dup4\n        /* \"#utility.yul\":2677:2695   */\n      add\n        /* \"#utility.yul\":2668:2674   */\n      dup6\n        /* \"#utility.yul\":2624:2696   */\n      tag_307\n      jump\t// in\n    tag_393:\n        /* \"#utility.yul\":2706:2778   */\n      tag_394\n        /* \"#utility.yul\":2774:2776   */\n      0x40\n        /* \"#utility.yul\":2763:2772   */\n      dup4\n        /* \"#utility.yul\":2759:2777   */\n      add\n        /* \"#utility.yul\":2750:2756   */\n      dup5\n        /* \"#utility.yul\":2706:2778   */\n      tag_311\n      jump\t// in\n    tag_394:\n        /* \"#utility.yul\":2343:2785   */\n      swap5\n      swap4\n      pop\n      pop\n      pop\n      pop\n      jump\t// out\n        /* \"#utility.yul\":2791:3013   */\n    tag_50:\n        /* \"#utility.yul\":2884:2888   */\n      0x00\n        /* \"#utility.yul\":2922:2924   */\n      0x20\n        /* \"#utility.yul\":2911:2920   */\n      dup3\n        /* \"#utility.yul\":2907:2925   */\n      add\n        /* \"#utility.yul\":2899:2925   */\n      swap1\n      pop\n        /* \"#utility.yul\":2935:3006   */\n      tag_396\n        /* \"#utility.yul\":3003:3004   */\n      0x00\n        /* \"#utility.yul\":2992:3001   */\n      dup4\n        /* \"#utility.yul\":2988:3005   */\n      add\n        /* \"#utility.yul\":2979:2985   */\n      dup5\n        /* \"#utility.yul\":2935:3006   */\n      tag_311\n      jump\t// in\n    tag_396:\n        /* \"#utility.yul\":2791:3013   */\n      swap3\n      swap2\n      pop\n      pop\n      jump\t// out\n        /* \"#utility.yul\":3019:3162   */\n    tag_312:\n        /* \"#utility.yul\":3076:3081   */\n      0x00\n        /* \"#utility.yul\":3107:3113   */\n      dup2\n        /* \"#utility.yul\":3101:3114   */\n      mload\n        /* \"#utility.yul\":3092:3114   */\n      swap1\n      pop\n        /* \"#utility.yul\":3123:3156   */\n      tag_398\n        /* \"#utility.yul\":3150:3155   */\n      dup2\n        /* \"#utility.yul\":3123:3156   */\n      tag_309\n      jump\t// in\n    tag_398:\n        /* \"#utility.yul\":3019:3162   */\n      swap3\n      swap2\n      pop\n      pop\n      jump\t// out\n        /* \"#utility.yul\":3168:3519   */\n    tag_115:\n        /* \"#utility.yul\":3238:3244   */\n      0x00\n        /* \"#utility.yul\":3287:3289   */\n      0x20\n        /* \"#utility.yul\":3275:3284   */\n      dup3\n        /* \"#utility.yul\":3266:3273   */\n      dup5\n        /* \"#utility.yul\":3262:3285   */\n      sub\n        /* \"#utility.yul\":3258:3290   */\n      slt\n        /* \"#utility.yul\":3255:3374   */\n      iszero\n      tag_400\n      jumpi\n        /* \"#utility.yul\":3293:3372   */\n      tag_401\n      tag_301\n      jump\t// in\n    tag_401:\n        /* \"#utility.yul\":3255:3374   */\n    tag_400:\n        /* \"#utility.yul\":3413:3414   */\n      0x00\n        /* \"#utility.yul\":3438:3502   */\n      tag_402\n        /* \"#utility.yul\":3494:3501   */\n      dup5\n        /* \"#utility.yul\":3485:3491   */\n      dup3\n        /* \"#utility.yul\":3474:3483   */\n      dup6\n        /* \"#utility.yul\":3470:3492   */\n      add\n        /* \"#utility.yul\":3438:3502   */\n      tag_312\n      jump\t// in\n    tag_402:\n        /* \"#utility.yul\":3428:3502   */\n      swap2\n      pop\n        /* \"#utility.yul\":3384:3512   */\n      pop\n        /* \"#utility.yul\":3168:3519   */\n      swap3\n      swap2\n      pop\n      pop\n      jump\t// out\n        /* \"#utility.yul\":3525:3857   */\n    tag_117:\n        /* \"#utility.yul\":3646:3650   */\n      0x00\n        /* \"#utility.yul\":3684:3686   */\n      0x40\n        /* \"#utility.yul\":3673:3682   */\n      dup3\n        /* \"#utility.yul\":3669:3687   */\n      add\n        /* \"#utility.yul\":3661:3687   */\n      swap1\n      pop\n        /* \"#utility.yul\":3697:3768   */\n      tag_404\n        /* \"#utility.yul\":3765:3766   */\n      0x00\n        /* \"#utility.yul\":3754:3763   */\n      dup4\n        /* \"#utility.yul\":3750:3767   */\n      add\n        /* \"#utility.yul\":3741:3747   */\n      dup6\n        /* \"#utility.yul\":3697:3768   */\n      tag_307\n      jump\t// in\n    tag_404:\n        /* \"#utility.yul\":3778:3850   */\n      tag_405\n        /* \"#utility.yul\":3846:3848   */\n      0x20\n        /* \"#utility.yul\":3835:3844   */\n      dup4\n        /* \"#utility.yul\":3831:3849   */\n      add\n        /* \"#utility.yul\":3822:3828   */\n      dup5\n        /* \"#utility.yul\":3778:3850   */\n      tag_311\n      jump\t// in\n    tag_405:\n        /* \"#utility.yul\":3525:3857   */\n      swap4\n      swap3\n      pop\n      pop\n      pop\n      jump\t// out\n        /* \"#utility.yul\":3863:3953   */\n    tag_313:\n        /* \"#utility.yul\":3897:3904   */\n      0x00\n        /* \"#utility.yul\":3940:3945   */\n      dup2\n        /* \"#utility.yul\":3933:3946   */\n      iszero\n        /* \"#utility.yul\":3926:3947   */\n      iszero\n        /* \"#utility.yul\":3915:3947   */\n      swap1\n      pop\n        /* \"#utility.yul\":3863:3953   */\n      swap2\n      swap1\n      pop\n      jump\t// out\n        /* \"#utility.yul\":3959:4075   */\n    tag_314:\n        /* \"#utility.yul\":4029:4050   */\n      tag_408\n        /* \"#utility.yul\":4044:4049   */\n      dup2\n        /* \"#utility.yul\":4029:4050   */\n      tag_313\n      jump\t// in\n    tag_408:\n        /* \"#utility.yul\":4022:4027   */\n      dup2\n        /* \"#utility.yul\":4019:4051   */\n      eq\n        /* \"#utility.yul\":4009:4069   */\n      tag_409\n      jumpi\n        /* \"#utility.yul\":4065:4066   */\n      0x00\n        /* \"#utility.yul\":4062:4063   */\n      dup1\n        /* \"#utility.yul\":4055:4067   */\n      revert\n        /* \"#utility.yul\":4009:4069   */\n    tag_409:\n        /* \"#utility.yul\":3959:4075   */\n      pop\n      jump\t// out\n        /* \"#utility.yul\":4081:4218   */\n    tag_315:\n        /* \"#utility.yul\":4135:4140   */\n      0x00\n        /* \"#utility.yul\":4166:4172   */\n      dup2\n        /* \"#utility.yul\":4160:4173   */\n      mload\n        /* \"#utility.yul\":4151:4173   */\n      swap1\n      pop\n        /* \"#utility.yul\":4182:4212   */\n      tag_411\n        /* \"#utility.yul\":4206:4211   */\n      dup2\n        /* \"#utility.yul\":4182:4212   */\n      tag_314\n      jump\t// in\n    tag_411:\n        /* \"#utility.yul\":4081:4218   */\n      swap3\n      swap2\n      pop\n      pop\n      jump\t// out\n        /* \"#utility.yul\":4224:4569   */\n    tag_121:\n        /* \"#utility.yul\":4291:4297   */\n      0x00\n        /* \"#utility.yul\":4340:4342   */\n      0x20\n        /* \"#utility.yul\":4328:4337   */\n      dup3\n        /* \"#utility.yul\":4319:4326   */\n      dup5\n        /* \"#utility.yul\":4315:4338   */\n      sub\n        /* \"#utility.yul\":4311:4343   */\n      slt\n        /* \"#utility.yul\":4308:4427   */\n      iszero\n      tag_413\n      jumpi\n        /* \"#utility.yul\":4346:4425   */\n      tag_414\n      tag_301\n      jump\t// in\n    tag_414:\n        /* \"#utility.yul\":4308:4427   */\n    tag_413:\n        /* \"#utility.yul\":4466:4467   */\n      0x00\n        /* \"#utility.yul\":4491:4552   */\n      tag_415\n        /* \"#utility.yul\":4544:4551   */\n      dup5\n        /* \"#utility.yul\":4535:4541   */\n      dup3\n        /* \"#utility.yul\":4524:4533   */\n      dup6\n        /* \"#utility.yul\":4520:4542   */\n      add\n        /* \"#utility.yul\":4491:4552   */\n      tag_315\n      jump\t// in\n    tag_415:\n        /* \"#utility.yul\":4481:4552   */\n      swap2\n      pop\n        /* \"#utility.yul\":4437:4562   */\n      pop\n        /* \"#utility.yul\":4224:4569   */\n      swap3\n      swap2\n      pop\n      pop\n      jump\t// out\n        /* \"#utility.yul\":4575:4755   */\n    tag_316:\n        /* \"#utility.yul\":4623:4700   */\n      0x4e487b7100000000000000000000000000000000000000000000000000000000\n        /* \"#utility.yul\":4620:4621   */\n      0x00\n        /* \"#utility.yul\":4613:4701   */\n      mstore\n        /* \"#utility.yul\":4720:4724   */\n      0x11\n        /* \"#utility.yul\":4717:4718   */\n      0x04\n        /* \"#utility.yul\":4710:4725   */\n      mstore\n        /* \"#utility.yul\":4744:4748   */\n      0x24\n        /* \"#utility.yul\":4741:4742   */\n      0x00\n        /* \"#utility.yul\":4734:4749   */\n      revert\n        /* \"#utility.yul\":4761:5171   */\n    tag_139:\n        /* \"#utility.yul\":4801:4808   */\n      0x00\n        /* \"#utility.yul\":4824:4844   */\n      tag_418\n        /* \"#utility.yul\":4842:4843   */\n      dup3\n        /* \"#utility.yul\":4824:4844   */\n      tag_308\n      jump\t// in\n    tag_418:\n        /* \"#utility.yul\":4819:4844   */\n      swap2\n      pop\n        /* \"#utility.yul\":4858:4878   */\n      tag_419\n        /* \"#utility.yul\":4876:4877   */\n      dup4\n        /* \"#utility.yul\":4858:4878   */\n      tag_308\n      jump\t// in\n    tag_419:\n        /* \"#utility.yul\":4853:4878   */\n      swap3\n      pop\n        /* \"#utility.yul\":4913:4914   */\n      dup3\n        /* \"#utility.yul\":4910:4911   */\n      dup3\n        /* \"#utility.yul\":4906:4915   */\n      mul\n        /* \"#utility.yul\":4935:4965   */\n      tag_420\n        /* \"#utility.yul\":4953:4964   */\n      dup2\n        /* \"#utility.yul\":4935:4965   */\n      tag_308\n      jump\t// in\n    tag_420:\n        /* \"#utility.yul\":4924:4965   */\n      swap2\n      pop\n        /* \"#utility.yul\":5114:5115   */\n      dup3\n        /* \"#utility.yul\":5105:5112   */\n      dup3\n        /* \"#utility.yul\":5101:5116   */\n      div\n        /* \"#utility.yul\":5098:5099   */\n      dup5\n        /* \"#utility.yul\":5095:5117   */\n      eq\n        /* \"#utility.yul\":5075:5076   */\n      dup4\n        /* \"#utility.yul\":5068:5077   */\n      iszero\n        /* \"#utility.yul\":5048:5131   */\n      or\n        /* \"#utility.yul\":5025:5164   */\n      tag_421\n      jumpi\n        /* \"#utility.yul\":5144:5162   */\n      tag_422\n      tag_316\n      jump\t// in\n    tag_422:\n        /* \"#utility.yul\":5025:5164   */\n    tag_421:\n        /* \"#utility.yul\":4809:5171   */\n      pop\n        /* \"#utility.yul\":4761:5171   */\n      swap3\n      swap2\n      pop\n      pop\n      jump\t// out\n        /* \"#utility.yul\":5177:5357   */\n    tag_317:\n        /* \"#utility.yul\":5225:5302   */\n      0x4e487b7100000000000000000000000000000000000000000000000000000000\n        /* \"#utility.yul\":5222:5223   */\n      0x00\n        /* \"#utility.yul\":5215:5303   */\n      mstore\n        /* \"#utility.yul\":5322:5326   */\n      0x12\n        /* \"#utility.yul\":5319:5320   */\n      0x04\n        /* \"#utility.yul\":5312:5327   */\n      mstore\n        /* \"#utility.yul\":5346:5350   */\n      0x24\n        /* \"#utility.yul\":5343:5344   */\n      0x00\n        /* \"#utility.yul\":5336:5351   */\n      revert\n        /* \"#utility.yul\":5363:5548   */\n    tag_141:\n        /* \"#utility.yul\":5403:5404   */\n      0x00\n        /* \"#utility.yul\":5420:5440   */\n      tag_425\n        /* \"#utility.yul\":5438:5439   */\n      dup3\n        /* \"#utility.yul\":5420:5440   */\n      tag_308\n      jump\t// in\n    tag_425:\n        /* \"#utility.yul\":5415:5440   */\n      swap2\n      pop\n        /* \"#utility.yul\":5454:5474   */\n      tag_426\n        /* \"#utility.yul\":5472:5473   */\n      dup4\n        /* \"#utility.yul\":5454:5474   */\n      tag_308\n      jump\t// in\n    tag_426:\n        /* \"#utility.yul\":5449:5474   */\n      swap3\n      pop\n        /* \"#utility.yul\":5493:5494   */\n      dup3\n        /* \"#utility.yul\":5483:5518   */\n      tag_427\n      jumpi\n        /* \"#utility.yul\":5498:5516   */\n      tag_428\n      tag_317\n      jump\t// in\n    tag_428:\n        /* \"#utility.yul\":5483:5518   */\n    tag_427:\n        /* \"#utility.yul\":5540:5541   */\n      dup3\n        /* \"#utility.yul\":5537:5538   */\n      dup3\n        /* \"#utility.yul\":5533:5542   */\n      div\n        /* \"#utility.yul\":5528:5542   */\n      swap1\n      pop\n        /* \"#utility.yul\":5363:5548   */\n      swap3\n      swap2\n      pop\n      pop\n      jump\t// out\n        /* \"#utility.yul\":5554:5748   */\n    tag_149:\n        /* \"#utility.yul\":5594:5598   */\n      0x00\n        /* \"#utility.yul\":5614:5634   */\n      tag_430\n        /* \"#utility.yul\":5632:5633   */\n      dup3\n        /* \"#utility.yul\":5614:5634   */\n      tag_308\n      jump\t// in\n    tag_430:\n        /* \"#utility.yul\":5609:5634   */\n      swap2\n      pop\n        /* \"#utility.yul\":5648:5668   */\n      tag_431\n        /* \"#utility.yul\":5666:5667   */\n      dup4\n        /* \"#utility.yul\":5648:5668   */\n      tag_308\n      jump\t// in\n    tag_431:\n        /* \"#utility.yul\":5643:5668   */\n      swap3\n      pop\n        /* \"#utility.yul\":5692:5693   */\n      dup3\n        /* \"#utility.yul\":5689:5690   */\n      dup3\n        /* \"#utility.yul\":5685:5694   */\n      sub\n        /* \"#utility.yul\":5677:5694   */\n      swap1\n      pop\n        /* \"#utility.yul\":5716:5717   */\n      dup2\n        /* \"#utility.yul\":5710:5714   */\n      dup2\n        /* \"#utility.yul\":5707:5718   */\n      gt\n        /* \"#utility.yul\":5704:5741   */\n      iszero\n      tag_432\n      jumpi\n        /* \"#utility.yul\":5721:5739   */\n      tag_433\n      tag_316\n      jump\t// in\n    tag_433:\n        /* \"#utility.yul\":5704:5741   */\n    tag_432:\n        /* \"#utility.yul\":5554:5748   */\n      swap3\n      swap2\n      pop\n      pop\n      jump\t// out\n        /* \"#utility.yul\":5754:5923   */\n    tag_318:\n        /* \"#utility.yul\":5838:5849   */\n      0x00\n        /* \"#utility.yul\":5872:5878   */\n      dup3\n        /* \"#utility.yul\":5867:5870   */\n      dup3\n        /* \"#utility.yul\":5860:5879   */\n      mstore\n        /* \"#utility.yul\":5912:5916   */\n      0x20\n        /* \"#utility.yul\":5907:5910   */\n      dup3\n        /* \"#utility.yul\":5903:5917   */\n      add\n        /* \"#utility.yul\":5888:5917   */\n      swap1\n      pop\n        /* \"#utility.yul\":5754:5923   */\n      swap3\n      swap2\n      pop\n      pop\n      jump\t// out\n        /* \"#utility.yul\":5929:6097   */\n    tag_319:\n        /* \"#utility.yul\":6069:6089   */\n      0x70726576696f757320486f6c6465722069730000000000000000000000000000\n        /* \"#utility.yul\":6065:6066   */\n      0x00\n        /* \"#utility.yul\":6057:6063   */\n      dup3\n        /* \"#utility.yul\":6053:6067   */\n      add\n        /* \"#utility.yul\":6046:6090   */\n      mstore\n        /* \"#utility.yul\":5929:6097   */\n      pop\n      jump\t// out\n        /* \"#utility.yul\":6103:6469   */\n    tag_320:\n        /* \"#utility.yul\":6245:6248   */\n      0x00\n        /* \"#utility.yul\":6266:6333   */\n      tag_437\n        /* \"#utility.yul\":6330:6332   */\n      0x12\n        /* \"#utility.yul\":6325:6328   */\n      dup4\n        /* \"#utility.yul\":6266:6333   */\n      tag_318\n      jump\t// in\n    tag_437:\n        /* \"#utility.yul\":6259:6333   */\n      swap2\n      pop\n        /* \"#utility.yul\":6342:6435   */\n      tag_438\n        /* \"#utility.yul\":6431:6434   */\n      dup3\n        /* \"#utility.yul\":6342:6435   */\n      tag_319\n      jump\t// in\n    tag_438:\n        /* \"#utility.yul\":6460:6462   */\n      0x20\n        /* \"#utility.yul\":6455:6458   */\n      dup3\n        /* \"#utility.yul\":6451:6463   */\n      add\n        /* \"#utility.yul\":6444:6463   */\n      swap1\n      pop\n        /* \"#utility.yul\":6103:6469   */\n      swap2\n      swap1\n      pop\n      jump\t// out\n        /* \"#utility.yul\":6475:6894   */\n    tag_165:\n        /* \"#utility.yul\":6641:6645   */\n      0x00\n        /* \"#utility.yul\":6679:6681   */\n      0x20\n        /* \"#utility.yul\":6668:6677   */\n      dup3\n        /* \"#utility.yul\":6664:6682   */\n      add\n        /* \"#utility.yul\":6656:6682   */\n      swap1\n      pop\n        /* \"#utility.yul\":6728:6737   */\n      dup2\n        /* \"#utility.yul\":6722:6726   */\n      dup2\n        /* \"#utility.yul\":6718:6738   */\n      sub\n        /* \"#utility.yul\":6714:6715   */\n      0x00\n        /* \"#utility.yul\":6703:6712   */\n      dup4\n        /* \"#utility.yul\":6699:6716   */\n      add\n        /* \"#utility.yul\":6692:6739   */\n      mstore\n        /* \"#utility.yul\":6756:6887   */\n      tag_440\n        /* \"#utility.yul\":6882:6886   */\n      dup2\n        /* \"#utility.yul\":6756:6887   */\n      tag_320\n      jump\t// in\n    tag_440:\n        /* \"#utility.yul\":6748:6887   */\n      swap1\n      pop\n        /* \"#utility.yul\":6475:6894   */\n      swap2\n      swap1\n      pop\n      jump\t// out\n        /* \"#utility.yul\":6900:7075   */\n    tag_321:\n        /* \"#utility.yul\":7040:7067   */\n      0x63757272656e74206c69717569646974792070657263656e7400000000000000\n        /* \"#utility.yul\":7036:7037   */\n      0x00\n        /* \"#utility.yul\":7028:7034   */\n      dup3\n        /* \"#utility.yul\":7024:7038   */\n      add\n        /* \"#utility.yul\":7017:7068   */\n      mstore\n        /* \"#utility.yul\":6900:7075   */\n      pop\n      jump\t// out\n        /* \"#utility.yul\":7081:7447   */\n    tag_322:\n        /* \"#utility.yul\":7223:7226   */\n      0x00\n        /* \"#utility.yul\":7244:7311   */\n      tag_443\n        /* \"#utility.yul\":7308:7310   */\n      0x19\n        /* \"#utility.yul\":7303:7306   */\n      dup4\n        /* \"#utility.yul\":7244:7311   */\n      tag_318\n      jump\t// in\n    tag_443:\n        /* \"#utility.yul\":7237:7311   */\n      swap2\n      pop\n        /* \"#utility.yul\":7320:7413   */\n      tag_444\n        /* \"#utility.yul\":7409:7412   */\n      dup3\n        /* \"#utility.yul\":7320:7413   */\n      tag_321\n      jump\t// in\n    tag_444:\n        /* \"#utility.yul\":7438:7440   */\n      0x20\n        /* \"#utility.yul\":7433:7436   */\n      dup3\n        /* \"#utility.yul\":7429:7441   */\n      add\n        /* \"#utility.yul\":7422:7441   */\n      swap1\n      pop\n        /* \"#utility.yul\":7081:7447   */\n      swap2\n      swap1\n      pop\n      jump\t// out\n        /* \"#utility.yul\":7453:7872   */\n    tag_168:\n        /* \"#utility.yul\":7619:7623   */\n      0x00\n        /* \"#utility.yul\":7657:7659   */\n      0x20\n        /* \"#utility.yul\":7646:7655   */\n      dup3\n        /* \"#utility.yul\":7642:7660   */\n      add\n        /* \"#utility.yul\":7634:7660   */\n      swap1\n      pop\n        /* \"#utility.yul\":7706:7715   */\n      dup2\n        /* \"#utility.yul\":7700:7704   */\n      dup2\n        /* \"#utility.yul\":7696:7716   */\n      sub\n        /* \"#utility.yul\":7692:7693   */\n      0x00\n        /* \"#utility.yul\":7681:7690   */\n      dup4\n        /* \"#utility.yul\":7677:7694   */\n      add\n        /* \"#utility.yul\":7670:7717   */\n      mstore\n        /* \"#utility.yul\":7734:7865   */\n      tag_446\n        /* \"#utility.yul\":7860:7864   */\n      dup2\n        /* \"#utility.yul\":7734:7865   */\n      tag_322\n      jump\t// in\n    tag_446:\n        /* \"#utility.yul\":7726:7865   */\n      swap1\n      pop\n        /* \"#utility.yul\":7453:7872   */\n      swap2\n      swap1\n      pop\n      jump\t// out\n        /* \"#utility.yul\":7878:8069   */\n    tag_175:\n        /* \"#utility.yul\":7918:7921   */\n      0x00\n        /* \"#utility.yul\":7937:7957   */\n      tag_448\n        /* \"#utility.yul\":7955:7956   */\n      dup3\n        /* \"#utility.yul\":7937:7957   */\n      tag_308\n      jump\t// in\n    tag_448:\n        /* \"#utility.yul\":7932:7957   */\n      swap2\n      pop\n        /* \"#utility.yul\":7971:7991   */\n      tag_449\n        /* \"#utility.yul\":7989:7990   */\n      dup4\n        /* \"#utility.yul\":7971:7991   */\n      tag_308\n      jump\t// in\n    tag_449:\n        /* \"#utility.yul\":7966:7991   */\n      swap3\n      pop\n        /* \"#utility.yul\":8014:8015   */\n      dup3\n        /* \"#utility.yul\":8011:8012   */\n      dup3\n        /* \"#utility.yul\":8007:8016   */\n      add\n        /* \"#utility.yul\":8000:8016   */\n      swap1\n      pop\n        /* \"#utility.yul\":8035:8038   */\n      dup1\n        /* \"#utility.yul\":8032:8033   */\n      dup3\n        /* \"#utility.yul\":8029:8039   */\n      gt\n        /* \"#utility.yul\":8026:8062   */\n      iszero\n      tag_450\n      jumpi\n        /* \"#utility.yul\":8042:8060   */\n      tag_451\n      tag_316\n      jump\t// in\n    tag_451:\n        /* \"#utility.yul\":8026:8062   */\n    tag_450:\n        /* \"#utility.yul\":7878:8069   */\n      swap3\n      swap2\n      pop\n      pop\n      jump\t// out\n        /* \"#utility.yul\":8075:8245   */\n    tag_323:\n        /* \"#utility.yul\":8215:8237   */\n      0x746f6b656e732063616e74206265206275726e74000000000000000000000000\n        /* \"#utility.yul\":8211:8212   */\n      0x00\n        /* \"#utility.yul\":8203:8209   */\n      dup3\n        /* \"#utility.yul\":8199:8213   */\n      add\n        /* \"#utility.yul\":8192:8238   */\n      mstore\n        /* \"#utility.yul\":8075:8245   */\n      pop\n      jump\t// out\n        /* \"#utility.yul\":8251:8617   */\n    tag_324:\n        /* \"#utility.yul\":8393:8396   */\n      0x00\n        /* \"#utility.yul\":8414:8481   */\n      tag_454\n        /* \"#utility.yul\":8478:8480   */\n      0x14\n        /* \"#utility.yul\":8473:8476   */\n      dup4\n        /* \"#utility.yul\":8414:8481   */\n      tag_318\n      jump\t// in\n    tag_454:\n        /* \"#utility.yul\":8407:8481   */\n      swap2\n      pop\n        /* \"#utility.yul\":8490:8583   */\n      tag_455\n        /* \"#utility.yul\":8579:8582   */\n      dup3\n        /* \"#utility.yul\":8490:8583   */\n      tag_323\n      jump\t// in\n    tag_455:\n        /* \"#utility.yul\":8608:8610   */\n      0x20\n        /* \"#utility.yul\":8603:8606   */\n      dup3\n        /* \"#utility.yul\":8599:8611   */\n      add\n        /* \"#utility.yul\":8592:8611   */\n      swap1\n      pop\n        /* \"#utility.yul\":8251:8617   */\n      swap2\n      swap1\n      pop\n      jump\t// out\n        /* \"#utility.yul\":8623:9042   */\n    tag_194:\n        /* \"#utility.yul\":8789:8793   */\n      0x00\n        /* \"#utility.yul\":8827:8829   */\n      0x20\n        /* \"#utility.yul\":8816:8825   */\n      dup3\n        /* \"#utility.yul\":8812:8830   */\n      add\n        /* \"#utility.yul\":8804:8830   */\n      swap1\n      pop\n        /* \"#utility.yul\":8876:8885   */\n      dup2\n        /* \"#utility.yul\":8870:8874   */\n      dup2\n        /* \"#utility.yul\":8866:8886   */\n      sub\n        /* \"#utility.yul\":8862:8863   */\n      0x00\n        /* \"#utility.yul\":8851:8860   */\n      dup4\n        /* \"#utility.yul\":8847:8864   */\n      add\n        /* \"#utility.yul\":8840:8887   */\n      mstore\n        /* \"#utility.yul\":8904:9035   */\n      tag_457\n        /* \"#utility.yul\":9030:9034   */\n      dup2\n        /* \"#utility.yul\":8904:9035   */\n      tag_324\n      jump\t// in\n    tag_457:\n        /* \"#utility.yul\":8896:9035   */\n      swap1\n      pop\n        /* \"#utility.yul\":8623:9042   */\n      swap2\n      swap1\n      pop\n      jump\t// out\n        /* \"#utility.yul\":9048:9380   */\n    tag_209:\n        /* \"#utility.yul\":9169:9173   */\n      0x00\n        /* \"#utility.yul\":9207:9209   */\n      0x40\n        /* \"#utility.yul\":9196:9205   */\n      dup3\n        /* \"#utility.yul\":9192:9210   */\n      add\n        /* \"#utility.yul\":9184:9210   */\n      swap1\n      pop\n        /* \"#utility.yul\":9220:9291   */\n      tag_459\n        /* \"#utility.yul\":9288:9289   */\n      0x00\n        /* \"#utility.yul\":9277:9286   */\n      dup4\n        /* \"#utility.yul\":9273:9290   */\n      add\n        /* \"#utility.yul\":9264:9270   */\n      dup6\n        /* \"#utility.yul\":9220:9291   */\n      tag_311\n      jump\t// in\n    tag_459:\n        /* \"#utility.yul\":9301:9373   */\n      tag_460\n        /* \"#utility.yul\":9369:9371   */\n      0x20\n        /* \"#utility.yul\":9358:9367   */\n      dup4\n        /* \"#utility.yul\":9354:9372   */\n      add\n        /* \"#utility.yul\":9345:9351   */\n      dup5\n        /* \"#utility.yul\":9301:9373   */\n      tag_307\n      jump\t// in\n    tag_460:\n        /* \"#utility.yul\":9048:9380   */\n      swap4\n      swap3\n      pop\n      pop\n      pop\n      jump\t// out\n        /* \"#utility.yul\":9386:10161   */\n    tag_222:\n        /* \"#utility.yul\":9619:9623   */\n      0x00\n        /* \"#utility.yul\":9657:9660   */\n      0xc0\n        /* \"#utility.yul\":9646:9655   */\n      dup3\n        /* \"#utility.yul\":9642:9661   */\n      add\n        /* \"#utility.yul\":9634:9661   */\n      swap1\n      pop\n        /* \"#utility.yul\":9671:9742   */\n      tag_462\n        /* \"#utility.yul\":9739:9740   */\n      0x00\n        /* \"#utility.yul\":9728:9737   */\n      dup4\n        /* \"#utility.yul\":9724:9741   */\n      add\n        /* \"#utility.yul\":9715:9721   */\n      dup10\n        /* \"#utility.yul\":9671:9742   */\n      tag_307\n      jump\t// in\n    tag_462:\n        /* \"#utility.yul\":9752:9824   */\n      tag_463\n        /* \"#utility.yul\":9820:9822   */\n      0x20\n        /* \"#utility.yul\":9809:9818   */\n      dup4\n        /* \"#utility.yul\":9805:9823   */\n      add\n        /* \"#utility.yul\":9796:9802   */\n      dup9\n        /* \"#utility.yul\":9752:9824   */\n      tag_311\n      jump\t// in\n    tag_463:\n        /* \"#utility.yul\":9834:9906   */\n      tag_464\n        /* \"#utility.yul\":9902:9904   */\n      0x40\n        /* \"#utility.yul\":9891:9900   */\n      dup4\n        /* \"#utility.yul\":9887:9905   */\n      add\n        /* \"#utility.yul\":9878:9884   */\n      dup8\n        /* \"#utility.yul\":9834:9906   */\n      tag_311\n      jump\t// in\n    tag_464:\n        /* \"#utility.yul\":9916:9988   */\n      tag_465\n        /* \"#utility.yul\":9984:9986   */\n      0x60\n        /* \"#utility.yul\":9973:9982   */\n      dup4\n        /* \"#utility.yul\":9969:9987   */\n      add\n        /* \"#utility.yul\":9960:9966   */\n      dup7\n        /* \"#utility.yul\":9916:9988   */\n      tag_311\n      jump\t// in\n    tag_465:\n        /* \"#utility.yul\":9998:10071   */\n      tag_466\n        /* \"#utility.yul\":10066:10069   */\n      0x80\n        /* \"#utility.yul\":10055:10064   */\n      dup4\n        /* \"#utility.yul\":10051:10070   */\n      add\n        /* \"#utility.yul\":10042:10048   */\n      dup6\n        /* \"#utility.yul\":9998:10071   */\n      tag_307\n      jump\t// in\n    tag_466:\n        /* \"#utility.yul\":10081:10154   */\n      tag_467\n        /* \"#utility.yul\":10149:10152   */\n      0xa0\n        /* \"#utility.yul\":10138:10147   */\n      dup4\n        /* \"#utility.yul\":10134:10153   */\n      add\n        /* \"#utility.yul\":10125:10131   */\n      dup5\n        /* \"#utility.yul\":10081:10154   */\n      tag_311\n      jump\t// in\n    tag_467:\n        /* \"#utility.yul\":9386:10161   */\n      swap8\n      swap7\n      pop\n      pop\n      pop\n      pop\n      pop\n      pop\n      pop\n      jump\t// out\n        /* \"#utility.yul\":10167:10830   */\n    tag_225:\n        /* \"#utility.yul\":10255:10261   */\n      0x00\n        /* \"#utility.yul\":10263:10269   */\n      dup1\n        /* \"#utility.yul\":10271:10277   */\n      0x00\n        /* \"#utility.yul\":10320:10322   */\n      0x60\n        /* \"#utility.yul\":10308:10317   */\n      dup5\n        /* \"#utility.yul\":10299:10306   */\n      dup7\n        /* \"#utility.yul\":10295:10318   */\n      sub\n        /* \"#utility.yul\":10291:10323   */\n      slt\n        /* \"#utility.yul\":10288:10407   */\n      iszero\n      tag_469\n      jumpi\n        /* \"#utility.yul\":10326:10405   */\n      tag_470\n      tag_301\n      jump\t// in\n    tag_470:\n        /* \"#utility.yul\":10288:10407   */\n    tag_469:\n        /* \"#utility.yul\":10446:10447   */\n      0x00\n        /* \"#utility.yul\":10471:10535   */\n      tag_471\n        /* \"#utility.yul\":10527:10534   */\n      dup7\n        /* \"#utility.yul\":10518:10524   */\n      dup3\n        /* \"#utility.yul\":10507:10516   */\n      dup8\n        /* \"#utility.yul\":10503:10525   */\n      add\n        /* \"#utility.yul\":10471:10535   */\n      tag_312\n      jump\t// in\n    tag_471:\n        /* \"#utility.yul\":10461:10535   */\n      swap4\n      pop\n        /* \"#utility.yul\":10417:10545   */\n      pop\n        /* \"#utility.yul\":10584:10586   */\n      0x20\n        /* \"#utility.yul\":10610:10674   */\n      tag_472\n        /* \"#utility.yul\":10666:10673   */\n      dup7\n        /* \"#utility.yul\":10657:10663   */\n      dup3\n        /* \"#utility.yul\":10646:10655   */\n      dup8\n        /* \"#utility.yul\":10642:10664   */\n      add\n        /* \"#utility.yul\":10610:10674   */\n      tag_312\n      jump\t// in\n    tag_472:\n        /* \"#utility.yul\":10600:10674   */\n      swap3\n      pop\n        /* \"#utility.yul\":10555:10684   */\n      pop\n        /* \"#utility.yul\":10723:10725   */\n      0x40\n        /* \"#utility.yul\":10749:10813   */\n      tag_473\n        /* \"#utility.yul\":10805:10812   */\n      dup7\n        /* \"#utility.yul\":10796:10802   */\n      dup3\n        /* \"#utility.yul\":10785:10794   */\n      dup8\n        /* \"#utility.yul\":10781:10803   */\n      add\n        /* \"#utility.yul\":10749:10813   */\n      tag_312\n      jump\t// in\n    tag_473:\n        /* \"#utility.yul\":10739:10813   */\n      swap2\n      pop\n        /* \"#utility.yul\":10694:10823   */\n      pop\n        /* \"#utility.yul\":10167:10830   */\n      swap3\n      pop\n      swap3\n      pop\n      swap3\n      jump\t// out\n        /* \"#utility.yul\":10836:11008   */\n    tag_325:\n        /* \"#utility.yul\":10976:11000   */\n      0x4c6971756964697479204e6f742050726f766964656400000000000000000000\n        /* \"#utility.yul\":10972:10973   */\n      0x00\n        /* \"#utility.yul\":10964:10970   */\n      dup3\n        /* \"#utility.yul\":10960:10974   */\n      add\n        /* \"#utility.yul\":10953:11001   */\n      mstore\n        /* \"#utility.yul\":10836:11008   */\n      pop\n      jump\t// out\n        /* \"#utility.yul\":11014:11380   */\n    tag_326:\n        /* \"#utility.yul\":11156:11159   */\n      0x00\n        /* \"#utility.yul\":11177:11244   */\n      tag_476\n        /* \"#utility.yul\":11241:11243   */\n      0x16\n        /* \"#utility.yul\":11236:11239   */\n      dup4\n        /* \"#utility.yul\":11177:11244   */\n      tag_318\n      jump\t// in\n    tag_476:\n        /* \"#utility.yul\":11170:11244   */\n      swap2\n      pop\n        /* \"#utility.yul\":11253:11346   */\n      tag_477\n        /* \"#utility.yul\":11342:11345   */\n      dup3\n        /* \"#utility.yul\":11253:11346   */\n      tag_325\n      jump\t// in\n    tag_477:\n        /* \"#utility.yul\":11371:11373   */\n      0x20\n        /* \"#utility.yul\":11366:11369   */\n      dup3\n        /* \"#utility.yul\":11362:11374   */\n      add\n        /* \"#utility.yul\":11355:11374   */\n      swap1\n      pop\n        /* \"#utility.yul\":11014:11380   */\n      swap2\n      swap1\n      pop\n      jump\t// out\n        /* \"#utility.yul\":11386:11805   */\n    tag_231:\n        /* \"#utility.yul\":11552:11556   */\n      0x00\n        /* \"#utility.yul\":11590:11592   */\n      0x20\n        /* \"#utility.yul\":11579:11588   */\n      dup3\n        /* \"#utility.yul\":11575:11593   */\n      add\n        /* \"#utility.yul\":11567:11593   */\n      swap1\n      pop\n        /* \"#utility.yul\":11639:11648   */\n      dup2\n        /* \"#utility.yul\":11633:11637   */\n      dup2\n        /* \"#utility.yul\":11629:11649   */\n      sub\n        /* \"#utility.yul\":11625:11626   */\n      0x00\n        /* \"#utility.yul\":11614:11623   */\n      dup4\n        /* \"#utility.yul\":11610:11627   */\n      add\n        /* \"#utility.yul\":11603:11650   */\n      mstore\n        /* \"#utility.yul\":11667:11798   */\n      tag_479\n        /* \"#utility.yul\":11793:11797   */\n      dup2\n        /* \"#utility.yul\":11667:11798   */\n      tag_326\n      jump\t// in\n    tag_479:\n        /* \"#utility.yul\":11659:11798   */\n      swap1\n      pop\n        /* \"#utility.yul\":11386:11805   */\n      swap2\n      swap1\n      pop\n      jump\t// out\n        /* \"#utility.yul\":11811:11992   */\n    tag_327:\n        /* \"#utility.yul\":11951:11984   */\n      0x6c6971756964697479205375636365737366756c6c792050726f766964656400\n        /* \"#utility.yul\":11947:11948   */\n      0x00\n        /* \"#utility.yul\":11939:11945   */\n      dup3\n        /* \"#utility.yul\":11935:11949   */\n      add\n        /* \"#utility.yul\":11928:11985   */\n      mstore\n        /* \"#utility.yul\":11811:11992   */\n      pop\n      jump\t// out\n        /* \"#utility.yul\":11998:12364   */\n    tag_328:\n        /* \"#utility.yul\":12140:12143   */\n      0x00\n        /* \"#utility.yul\":12161:12228   */\n      tag_482\n        /* \"#utility.yul\":12225:12227   */\n      0x1f\n        /* \"#utility.yul\":12220:12223   */\n      dup4\n        /* \"#utility.yul\":12161:12228   */\n      tag_318\n      jump\t// in\n    tag_482:\n        /* \"#utility.yul\":12154:12228   */\n      swap2\n      pop\n        /* \"#utility.yul\":12237:12330   */\n      tag_483\n        /* \"#utility.yul\":12326:12329   */\n      dup3\n        /* \"#utility.yul\":12237:12330   */\n      tag_327\n      jump\t// in\n    tag_483:\n        /* \"#utility.yul\":12355:12357   */\n      0x20\n        /* \"#utility.yul\":12350:12353   */\n      dup3\n        /* \"#utility.yul\":12346:12358   */\n      add\n        /* \"#utility.yul\":12339:12358   */\n      swap1\n      pop\n        /* \"#utility.yul\":11998:12364   */\n      swap2\n      swap1\n      pop\n      jump\t// out\n        /* \"#utility.yul\":12370:12789   */\n    tag_234:\n        /* \"#utility.yul\":12536:12540   */\n      0x00\n        /* \"#utility.yul\":12574:12576   */\n      0x20\n        /* \"#utility.yul\":12563:12572   */\n      dup3\n        /* \"#utility.yul\":12559:12577   */\n      add\n        /* \"#utility.yul\":12551:12577   */\n      swap1\n      pop\n        /* \"#utility.yul\":12623:12632   */\n      dup2\n        /* \"#utility.yul\":12617:12621   */\n      dup2\n        /* \"#utility.yul\":12613:12633   */\n      sub\n        /* \"#utility.yul\":12609:12610   */\n      0x00\n        /* \"#utility.yul\":12598:12607   */\n      dup4\n        /* \"#utility.yul\":12594:12611   */\n      add\n        /* \"#utility.yul\":12587:12634   */\n      mstore\n        /* \"#utility.yul\":12651:12782   */\n      tag_485\n        /* \"#utility.yul\":12777:12781   */\n      dup2\n        /* \"#utility.yul\":12651:12782   */\n      tag_328\n      jump\t// in\n    tag_485:\n        /* \"#utility.yul\":12643:12782   */\n      swap1\n      pop\n        /* \"#utility.yul\":12370:12789   */\n      swap2\n      swap1\n      pop\n      jump\t// out\n        /* \"#utility.yul\":12795:12974   */\n    tag_329:\n        /* \"#utility.yul\":12935:12966   */\n      0x70726963652063616e7420626520676f742066726f6d204f7261636c65000000\n        /* \"#utility.yul\":12931:12932   */\n      0x00\n        /* \"#utility.yul\":12923:12929   */\n      dup3\n        /* \"#utility.yul\":12919:12933   */\n      add\n        /* \"#utility.yul\":12912:12967   */\n      mstore\n        /* \"#utility.yul\":12795:12974   */\n      pop\n      jump\t// out\n        /* \"#utility.yul\":12980:13346   */\n    tag_330:\n        /* \"#utility.yul\":13122:13125   */\n      0x00\n        /* \"#utility.yul\":13143:13210   */\n      tag_488\n        /* \"#utility.yul\":13207:13209   */\n      0x1d\n        /* \"#utility.yul\":13202:13205   */\n      dup4\n        /* \"#utility.yul\":13143:13210   */\n      tag_318\n      jump\t// in\n    tag_488:\n        /* \"#utility.yul\":13136:13210   */\n      swap2\n      pop\n        /* \"#utility.yul\":13219:13312   */\n      tag_489\n        /* \"#utility.yul\":13308:13311   */\n      dup3\n        /* \"#utility.yul\":13219:13312   */\n      tag_329\n      jump\t// in\n    tag_489:\n        /* \"#utility.yul\":13337:13339   */\n      0x20\n        /* \"#utility.yul\":13332:13335   */\n      dup3\n        /* \"#utility.yul\":13328:13340   */\n      add\n        /* \"#utility.yul\":13321:13340   */\n      swap1\n      pop\n        /* \"#utility.yul\":12980:13346   */\n      swap2\n      swap1\n      pop\n      jump\t// out\n        /* \"#utility.yul\":13352:13771   */\n    tag_252:\n        /* \"#utility.yul\":13518:13522   */\n      0x00\n        /* \"#utility.yul\":13556:13558   */\n      0x20\n        /* \"#utility.yul\":13545:13554   */\n      dup3\n        /* \"#utility.yul\":13541:13559   */\n      add\n        /* \"#utility.yul\":13533:13559   */\n      swap1\n      pop\n        /* \"#utility.yul\":13605:13614   */\n      dup2\n        /* \"#utility.yul\":13599:13603   */\n      dup2\n        /* \"#utility.yul\":13595:13615   */\n      sub\n        /* \"#utility.yul\":13591:13592   */\n      0x00\n        /* \"#utility.yul\":13580:13589   */\n      dup4\n        /* \"#utility.yul\":13576:13593   */\n      add\n        /* \"#utility.yul\":13569:13616   */\n      mstore\n        /* \"#utility.yul\":13633:13764   */\n      tag_491\n        /* \"#utility.yul\":13759:13763   */\n      dup2\n        /* \"#utility.yul\":13633:13764   */\n      tag_330\n      jump\t// in\n    tag_491:\n        /* \"#utility.yul\":13625:13764   */\n      swap1\n      pop\n        /* \"#utility.yul\":13352:13771   */\n      swap2\n      swap1\n      pop\n      jump\t// out\n        /* \"#utility.yul\":13777:14002   */\n    tag_331:\n        /* \"#utility.yul\":13917:13951   */\n      0x707269636520676f742066726f6d204f7261636c652062757420636f756c646e\n        /* \"#utility.yul\":13913:13914   */\n      0x00\n        /* \"#utility.yul\":13905:13911   */\n      dup3\n        /* \"#utility.yul\":13901:13915   */\n      add\n        /* \"#utility.yul\":13894:13952   */\n      mstore\n        /* \"#utility.yul\":13986:13994   */\n      0x74206d696e740000000000000000000000000000000000000000000000000000\n        /* \"#utility.yul\":13981:13983   */\n      0x20\n        /* \"#utility.yul\":13973:13979   */\n      dup3\n        /* \"#utility.yul\":13969:13984   */\n      add\n        /* \"#utility.yul\":13962:13995   */\n      mstore\n        /* \"#utility.yul\":13777:14002   */\n      pop\n      jump\t// out\n        /* \"#utility.yul\":14008:14374   */\n    tag_332:\n        /* \"#utility.yul\":14150:14153   */\n      0x00\n        /* \"#utility.yul\":14171:14238   */\n      tag_494\n        /* \"#utility.yul\":14235:14237   */\n      0x26\n        /* \"#utility.yul\":14230:14233   */\n      dup4\n        /* \"#utility.yul\":14171:14238   */\n      tag_318\n      jump\t// in\n    tag_494:\n        /* \"#utility.yul\":14164:14238   */\n      swap2\n      pop\n        /* \"#utility.yul\":14247:14340   */\n      tag_495\n        /* \"#utility.yul\":14336:14339   */\n      dup3\n        /* \"#utility.yul\":14247:14340   */\n      tag_331\n      jump\t// in\n    tag_495:\n        /* \"#utility.yul\":14365:14367   */\n      0x40\n        /* \"#utility.yul\":14360:14363   */\n      dup3\n        /* \"#utility.yul\":14356:14368   */\n      add\n        /* \"#utility.yul\":14349:14368   */\n      swap1\n      pop\n        /* \"#utility.yul\":14008:14374   */\n      swap2\n      swap1\n      pop\n      jump\t// out\n        /* \"#utility.yul\":14380:14799   */\n    tag_266:\n        /* \"#utility.yul\":14546:14550   */\n      0x00\n        /* \"#utility.yul\":14584:14586   */\n      0x20\n        /* \"#utility.yul\":14573:14582   */\n      dup3\n        /* \"#utility.yul\":14569:14587   */\n      add\n        /* \"#utility.yul\":14561:14587   */\n      swap1\n      pop\n        /* \"#utility.yul\":14633:14642   */\n      dup2\n        /* \"#utility.yul\":14627:14631   */\n      dup2\n        /* \"#utility.yul\":14623:14643   */\n      sub\n        /* \"#utility.yul\":14619:14620   */\n      0x00\n        /* \"#utility.yul\":14608:14617   */\n      dup4\n        /* \"#utility.yul\":14604:14621   */\n      add\n        /* \"#utility.yul\":14597:14644   */\n      mstore\n        /* \"#utility.yul\":14661:14792   */\n      tag_497\n        /* \"#utility.yul\":14787:14791   */\n      dup2\n        /* \"#utility.yul\":14661:14792   */\n      tag_332\n      jump\t// in\n    tag_497:\n        /* \"#utility.yul\":14653:14792   */\n      swap1\n      pop\n        /* \"#utility.yul\":14380:14799   */\n      swap2\n      swap1\n      pop\n      jump\t// out\n        /* \"#utility.yul\":14805:14987   */\n    tag_333:\n        /* \"#utility.yul\":14945:14979   */\n      0x746f6b656e73206d696e74656420746f2070726576696f757320686f6c646572\n        /* \"#utility.yul\":14941:14942   */\n      0x00\n        /* \"#utility.yul\":14933:14939   */\n      dup3\n        /* \"#utility.yul\":14929:14943   */\n      add\n        /* \"#utility.yul\":14922:14980   */\n      mstore\n        /* \"#utility.yul\":14805:14987   */\n      pop\n      jump\t// out\n        /* \"#utility.yul\":14993:15359   */\n    tag_334:\n        /* \"#utility.yul\":15135:15138   */\n      0x00\n        /* \"#utility.yul\":15156:15223   */\n      tag_500\n        /* \"#utility.yul\":15220:15222   */\n      0x20\n        /* \"#utility.yul\":15215:15218   */\n      dup4\n        /* \"#utility.yul\":15156:15223   */\n      tag_318\n      jump\t// in\n    tag_500:\n        /* \"#utility.yul\":15149:15223   */\n      swap2\n      pop\n        /* \"#utility.yul\":15232:15325   */\n      tag_501\n        /* \"#utility.yul\":15321:15324   */\n      dup3\n        /* \"#utility.yul\":15232:15325   */\n      tag_333\n      jump\t// in\n    tag_501:\n        /* \"#utility.yul\":15350:15352   */\n      0x20\n        /* \"#utility.yul\":15345:15348   */\n      dup3\n        /* \"#utility.yul\":15341:15353   */\n      add\n        /* \"#utility.yul\":15334:15353   */\n      swap1\n      pop\n        /* \"#utility.yul\":14993:15359   */\n      swap2\n      swap1\n      pop\n      jump\t// out\n        /* \"#utility.yul\":15365:15784   */\n    tag_269:\n        /* \"#utility.yul\":15531:15535   */\n      0x00\n        /* \"#utility.yul\":15569:15571   */\n      0x20\n        /* \"#utility.yul\":15558:15567   */\n      dup3\n        /* \"#utility.yul\":15554:15572   */\n      add\n        /* \"#utility.yul\":15546:15572   */\n      swap1\n      pop\n        /* \"#utility.yul\":15618:15627   */\n      dup2\n        /* \"#utility.yul\":15612:15616   */\n      dup2\n        /* \"#utility.yul\":15608:15628   */\n      sub\n        /* \"#utility.yul\":15604:15605   */\n      0x00\n        /* \"#utility.yul\":15593:15602   */\n      dup4\n        /* \"#utility.yul\":15589:15606   */\n      add\n        /* \"#utility.yul\":15582:15629   */\n      mstore\n        /* \"#utility.yul\":15646:15777   */\n      tag_503\n        /* \"#utility.yul\":15772:15776   */\n      dup2\n        /* \"#utility.yul\":15646:15777   */\n      tag_334\n      jump\t// in\n    tag_503:\n        /* \"#utility.yul\":15638:15777   */\n      swap1\n      pop\n        /* \"#utility.yul\":15365:15784   */\n      swap2\n      swap1\n      pop\n      jump\t// out\n        /* \"#utility.yul\":15790:15901   */\n    tag_335:\n        /* \"#utility.yul\":15854:15860   */\n      0x00\n        /* \"#utility.yul\":15888:15893   */\n      dup2\n        /* \"#utility.yul\":15882:15894   */\n      sload\n        /* \"#utility.yul\":15872:15894   */\n      swap1\n      pop\n        /* \"#utility.yul\":15790:15901   */\n      swap2\n      swap1\n      pop\n      jump\t// out\n        /* \"#utility.yul\":15907:16091   */\n    tag_336:\n        /* \"#utility.yul\":16006:16017   */\n      0x00\n        /* \"#utility.yul\":16040:16046   */\n      dup3\n        /* \"#utility.yul\":16035:16038   */\n      dup3\n        /* \"#utility.yul\":16028:16047   */\n      mstore\n        /* \"#utility.yul\":16080:16084   */\n      0x20\n        /* \"#utility.yul\":16075:16078   */\n      dup3\n        /* \"#utility.yul\":16071:16085   */\n      add\n        /* \"#utility.yul\":16056:16085   */\n      swap1\n      pop\n        /* \"#utility.yul\":15907:16091   */\n      swap3\n      swap2\n      pop\n      pop\n      jump\t// out\n        /* \"#utility.yul\":16097:16253   */\n    tag_337:\n        /* \"#utility.yul\":16161:16165   */\n      0x00\n        /* \"#utility.yul\":16184:16187   */\n      dup2\n        /* \"#utility.yul\":16176:16187   */\n      swap1\n      pop\n        /* \"#utility.yul\":16207:16210   */\n      dup2\n        /* \"#utility.yul\":16204:16205   */\n      0x00\n        /* \"#utility.yul\":16197:16211   */\n      mstore\n        /* \"#utility.yul\":16241:16245   */\n      0x20\n        /* \"#utility.yul\":16238:16239   */\n      0x00\n        /* \"#utility.yul\":16228:16246   */\n      keccak256\n        /* \"#utility.yul\":16220:16246   */\n      swap1\n      pop\n        /* \"#utility.yul\":16097:16253   */\n      swap2\n      swap1\n      pop\n      jump\t// out\n        /* \"#utility.yul\":16259:16367   */\n    tag_338:\n        /* \"#utility.yul\":16336:16360   */\n      tag_508\n        /* \"#utility.yul\":16354:16359   */\n      dup2\n        /* \"#utility.yul\":16336:16360   */\n      tag_304\n      jump\t// in\n    tag_508:\n        /* \"#utility.yul\":16331:16334   */\n      dup3\n        /* \"#utility.yul\":16324:16361   */\n      mstore\n        /* \"#utility.yul\":16259:16367   */\n      pop\n      pop\n      jump\t// out\n        /* \"#utility.yul\":16373:16552   */\n    tag_339:\n        /* \"#utility.yul\":16442:16452   */\n      0x00\n        /* \"#utility.yul\":16463:16509   */\n      tag_510\n        /* \"#utility.yul\":16505:16508   */\n      dup4\n        /* \"#utility.yul\":16497:16503   */\n      dup4\n        /* \"#utility.yul\":16463:16509   */\n      tag_338\n      jump\t// in\n    tag_510:\n        /* \"#utility.yul\":16541:16545   */\n      0x20\n        /* \"#utility.yul\":16536:16539   */\n      dup4\n        /* \"#utility.yul\":16532:16546   */\n      add\n        /* \"#utility.yul\":16518:16546   */\n      swap1\n      pop\n        /* \"#utility.yul\":16373:16552   */\n      swap3\n      swap2\n      pop\n      pop\n      jump\t// out\n        /* \"#utility.yul\":16558:16660   */\n    tag_340:\n        /* \"#utility.yul\":16600:16608   */\n      0x00\n        /* \"#utility.yul\":16647:16652   */\n      dup2\n        /* \"#utility.yul\":16644:16645   */\n      0x00\n        /* \"#utility.yul\":16640:16653   */\n      shr\n        /* \"#utility.yul\":16619:16653   */\n      swap1\n      pop\n        /* \"#utility.yul\":16558:16660   */\n      swap2\n      swap1\n      pop\n      jump\t// out\n        /* \"#utility.yul\":16666:16805   */\n    tag_341:\n        /* \"#utility.yul\":16716:16723   */\n      0x00\n        /* \"#utility.yul\":16756:16798   */\n      0xffffffffffffffffffffffffffffffffffffffff\n        /* \"#utility.yul\":16749:16754   */\n      dup3\n        /* \"#utility.yul\":16745:16799   */\n      and\n        /* \"#utility.yul\":16734:16799   */\n      swap1\n      pop\n        /* \"#utility.yul\":16666:16805   */\n      swap2\n      swap1\n      pop\n      jump\t// out\n        /* \"#utility.yul\":16811:16977   */\n    tag_342:\n        /* \"#utility.yul\":16880:16885   */\n      0x00\n        /* \"#utility.yul\":16905:16971   */\n      tag_514\n        /* \"#utility.yul\":16936:16970   */\n      tag_515\n        /* \"#utility.yul\":16959:16969   */\n      dup4\n        /* \"#utility.yul\":16936:16970   */\n      tag_340\n      jump\t// in\n    tag_515:\n        /* \"#utility.yul\":16905:16971   */\n      tag_341\n      jump\t// in\n    tag_514:\n        /* \"#utility.yul\":16896:16971   */\n      swap1\n      pop\n        /* \"#utility.yul\":16811:16977   */\n      swap2\n      swap1\n      pop\n      jump\t// out\n        /* \"#utility.yul\":16983:17127   */\n    tag_343:\n        /* \"#utility.yul\":17038:17043   */\n      0x00\n        /* \"#utility.yul\":17063:17120   */\n      tag_517\n        /* \"#utility.yul\":17114:17118   */\n      dup3\n        /* \"#utility.yul\":17108:17119   */\n      sload\n        /* \"#utility.yul\":17063:17120   */\n      tag_342\n      jump\t// in\n    tag_517:\n        /* \"#utility.yul\":17054:17120   */\n      swap1\n      pop\n        /* \"#utility.yul\":16983:17127   */\n      swap2\n      swap1\n      pop\n      jump\t// out\n        /* \"#utility.yul\":17133:17243   */\n    tag_344:\n        /* \"#utility.yul\":17200:17204   */\n      0x00\n        /* \"#utility.yul\":17232:17236   */\n      0x01\n        /* \"#utility.yul\":17227:17230   */\n      dup3\n        /* \"#utility.yul\":17223:17237   */\n      add\n        /* \"#utility.yul\":17215:17237   */\n      swap1\n      pop\n        /* \"#utility.yul\":17133:17243   */\n      swap2\n      swap1\n      pop\n      jump\t// out\n        /* \"#utility.yul\":17279:18030   */\n    tag_345:\n        /* \"#utility.yul\":17395:17398   */\n      0x00\n        /* \"#utility.yul\":17424:17475   */\n      tag_520\n        /* \"#utility.yul\":17469:17474   */\n      dup3\n        /* \"#utility.yul\":17424:17475   */\n      tag_335\n      jump\t// in\n    tag_520:\n        /* \"#utility.yul\":17491:17577   */\n      tag_521\n        /* \"#utility.yul\":17570:17576   */\n      dup2\n        /* \"#utility.yul\":17565:17568   */\n      dup6\n        /* \"#utility.yul\":17491:17577   */\n      tag_336\n      jump\t// in\n    tag_521:\n        /* \"#utility.yul\":17484:17577   */\n      swap4\n      pop\n        /* \"#utility.yul\":17601:17654   */\n      tag_522\n        /* \"#utility.yul\":17648:17653   */\n      dup4\n        /* \"#utility.yul\":17601:17654   */\n      tag_337\n      jump\t// in\n    tag_522:\n        /* \"#utility.yul\":17677:17684   */\n      dup1\n        /* \"#utility.yul\":17708:17709   */\n      0x00\n        /* \"#utility.yul\":17693:18005   */\n    tag_523:\n        /* \"#utility.yul\":17718:17724   */\n      dup4\n        /* \"#utility.yul\":17715:17716   */\n      dup2\n        /* \"#utility.yul\":17712:17725   */\n      lt\n        /* \"#utility.yul\":17693:18005   */\n      iszero\n      tag_525\n      jumpi\n        /* \"#utility.yul\":17788:17832   */\n      tag_526\n        /* \"#utility.yul\":17825:17831   */\n      dup3\n        /* \"#utility.yul\":17788:17832   */\n      tag_343\n      jump\t// in\n    tag_526:\n        /* \"#utility.yul\":17852:17915   */\n      tag_527\n        /* \"#utility.yul\":17911:17914   */\n      dup9\n        /* \"#utility.yul\":17896:17909   */\n      dup3\n        /* \"#utility.yul\":17852:17915   */\n      tag_339\n      jump\t// in\n    tag_527:\n        /* \"#utility.yul\":17845:17915   */\n      swap8\n      pop\n        /* \"#utility.yul\":17938:17995   */\n      tag_528\n        /* \"#utility.yul\":17988:17994   */\n      dup4\n        /* \"#utility.yul\":17938:17995   */\n      tag_344\n      jump\t// in\n    tag_528:\n        /* \"#utility.yul\":17928:17995   */\n      swap3\n      pop\n        /* \"#utility.yul\":17753:18005   */\n      pop\n        /* \"#utility.yul\":17740:17741   */\n      0x01\n        /* \"#utility.yul\":17737:17738   */\n      dup2\n        /* \"#utility.yul\":17733:17742   */\n      add\n        /* \"#utility.yul\":17728:17742   */\n      swap1\n      pop\n        /* \"#utility.yul\":17693:18005   */\n      jump(tag_523)\n    tag_525:\n        /* \"#utility.yul\":17697:17711   */\n      pop\n        /* \"#utility.yul\":18021:18024   */\n      dup6\n        /* \"#utility.yul\":18014:18024   */\n      swap4\n      pop\n        /* \"#utility.yul\":17400:18030   */\n      pop\n      pop\n      pop\n        /* \"#utility.yul\":17279:18030   */\n      swap3\n      swap2\n      pop\n      pop\n      jump\t// out\n        /* \"#utility.yul\":18036:18734   */\n    tag_282:\n        /* \"#utility.yul\":18260:18264   */\n      0x00\n        /* \"#utility.yul\":18298:18301   */\n      0x80\n        /* \"#utility.yul\":18287:18296   */\n      dup3\n        /* \"#utility.yul\":18283:18302   */\n      add\n        /* \"#utility.yul\":18275:18302   */\n      swap1\n      pop\n        /* \"#utility.yul\":18312:18383   */\n      tag_530\n        /* \"#utility.yul\":18380:18381   */\n      0x00\n        /* \"#utility.yul\":18369:18378   */\n      dup4\n        /* \"#utility.yul\":18365:18382   */\n      add\n        /* \"#utility.yul\":18356:18362   */\n      dup8\n        /* \"#utility.yul\":18312:18383   */\n      tag_311\n      jump\t// in\n    tag_530:\n        /* \"#utility.yul\":18430:18439   */\n      dup2\n        /* \"#utility.yul\":18424:18428   */\n      dup2\n        /* \"#utility.yul\":18420:18440   */\n      sub\n        /* \"#utility.yul\":18415:18417   */\n      0x20\n        /* \"#utility.yul\":18404:18413   */\n      dup4\n        /* \"#utility.yul\":18400:18418   */\n      add\n        /* \"#utility.yul\":18393:18441   */\n      mstore\n        /* \"#utility.yul\":18458:18563   */\n      tag_531\n        /* \"#utility.yul\":18558:18562   */\n      dup2\n        /* \"#utility.yul\":18549:18555   */\n      dup7\n        /* \"#utility.yul\":18458:18563   */\n      tag_345\n      jump\t// in\n    tag_531:\n        /* \"#utility.yul\":18450:18563   */\n      swap1\n      pop\n        /* \"#utility.yul\":18573:18645   */\n      tag_532\n        /* \"#utility.yul\":18641:18643   */\n      0x40\n        /* \"#utility.yul\":18630:18639   */\n      dup4\n        /* \"#utility.yul\":18626:18644   */\n      add\n        /* \"#utility.yul\":18617:18623   */\n      dup6\n        /* \"#utility.yul\":18573:18645   */\n      tag_307\n      jump\t// in\n    tag_532:\n        /* \"#utility.yul\":18655:18727   */\n      tag_533\n        /* \"#utility.yul\":18723:18725   */\n      0x60\n        /* \"#utility.yul\":18712:18721   */\n      dup4\n        /* \"#utility.yul\":18708:18726   */\n      add\n        /* \"#utility.yul\":18699:18705   */\n      dup5\n        /* \"#utility.yul\":18655:18727   */\n      tag_311\n      jump\t// in\n    tag_533:\n        /* \"#utility.yul\":18036:18734   */\n      swap6\n      swap5\n      pop\n      pop\n      pop\n      pop\n      pop\n      jump\t// out\n        /* \"#utility.yul\":18740:18857   */\n    tag_346:\n        /* \"#utility.yul\":18849:18850   */\n      0x00\n        /* \"#utility.yul\":18846:18847   */\n      dup1\n        /* \"#utility.yul\":18839:18851   */\n      revert\n        /* \"#utility.yul\":18863:18965   */\n    tag_347:\n        /* \"#utility.yul\":18904:18910   */\n      0x00\n        /* \"#utility.yul\":18955:18957   */\n      0x1f\n        /* \"#utility.yul\":18951:18958   */\n      not\n        /* \"#utility.yul\":18946:18948   */\n      0x1f\n        /* \"#utility.yul\":18939:18944   */\n      dup4\n        /* \"#utility.yul\":18935:18949   */\n      add\n        /* \"#utility.yul\":18931:18959   */\n      and\n        /* \"#utility.yul\":18921:18959   */\n      swap1\n      pop\n        /* \"#utility.yul\":18863:18965   */\n      swap2\n      swap1\n      pop\n      jump\t// out\n        /* \"#utility.yul\":18971:19151   */\n    tag_348:\n        /* \"#utility.yul\":19019:19096   */\n      0x4e487b7100000000000000000000000000000000000000000000000000000000\n        /* \"#utility.yul\":19016:19017   */\n      0x00\n        /* \"#utility.yul\":19009:19097   */\n      mstore\n        /* \"#utility.yul\":19116:19120   */\n      0x41\n        /* \"#utility.yul\":19113:19114   */\n      0x04\n        /* \"#utility.yul\":19106:19121   */\n      mstore\n        /* \"#utility.yul\":19140:19144   */\n      0x24\n        /* \"#utility.yul\":19137:19138   */\n      0x00\n        /* \"#utility.yul\":19130:19145   */\n      revert\n        /* \"#utility.yul\":19157:19438   */\n    tag_349:\n        /* \"#utility.yul\":19240:19267   */\n      tag_538\n        /* \"#utility.yul\":19262:19266   */\n      dup3\n        /* \"#utility.yul\":19240:19267   */\n      tag_347\n      jump\t// in\n    tag_538:\n        /* \"#utility.yul\":19232:19238   */\n      dup2\n        /* \"#utility.yul\":19228:19268   */\n      add\n        /* \"#utility.yul\":19370:19376   */\n      dup2\n        /* \"#utility.yul\":19358:19368   */\n      dup2\n        /* \"#utility.yul\":19355:19377   */\n      lt\n        /* \"#utility.yul\":19334:19352   */\n      0xffffffffffffffff\n        /* \"#utility.yul\":19322:19332   */\n      dup3\n        /* \"#utility.yul\":19319:19353   */\n      gt\n        /* \"#utility.yul\":19316:19378   */\n      or\n        /* \"#utility.yul\":19313:19401   */\n      iszero\n      tag_539\n      jumpi\n        /* \"#utility.yul\":19381:19399   */\n      tag_540\n      tag_348\n      jump\t// in\n    tag_540:\n        /* \"#utility.yul\":19313:19401   */\n    tag_539:\n        /* \"#utility.yul\":19421:19431   */\n      dup1\n        /* \"#utility.yul\":19417:19419   */\n      0x40\n        /* \"#utility.yul\":19410:19432   */\n      mstore\n        /* \"#utility.yul\":19200:19438   */\n      pop\n        /* \"#utility.yul\":19157:19438   */\n      pop\n      pop\n      jump\t// out\n        /* \"#utility.yul\":19444:19573   */\n    tag_350:\n        /* \"#utility.yul\":19478:19484   */\n      0x00\n        /* \"#utility.yul\":19505:19525   */\n      tag_542\n      tag_300\n      jump\t// in\n    tag_542:\n        /* \"#utility.yul\":19495:19525   */\n      swap1\n      pop\n        /* \"#utility.yul\":19534:19567   */\n      tag_543\n        /* \"#utility.yul\":19562:19566   */\n      dup3\n        /* \"#utility.yul\":19554:19560   */\n      dup3\n        /* \"#utility.yul\":19534:19567   */\n      tag_349\n      jump\t// in\n    tag_543:\n        /* \"#utility.yul\":19444:19573   */\n      swap2\n      swap1\n      pop\n      jump\t// out\n        /* \"#utility.yul\":19579:19890   */\n    tag_351:\n        /* \"#utility.yul\":19656:19660   */\n      0x00\n        /* \"#utility.yul\":19746:19764   */\n      0xffffffffffffffff\n        /* \"#utility.yul\":19738:19744   */\n      dup3\n        /* \"#utility.yul\":19735:19765   */\n      gt\n        /* \"#utility.yul\":19732:19788   */\n      iszero\n      tag_545\n      jumpi\n        /* \"#utility.yul\":19768:19786   */\n      tag_546\n      tag_348\n      jump\t// in\n    tag_546:\n        /* \"#utility.yul\":19732:19788   */\n    tag_545:\n        /* \"#utility.yul\":19818:19822   */\n      0x20\n        /* \"#utility.yul\":19810:19816   */\n      dup3\n        /* \"#utility.yul\":19806:19823   */\n      mul\n        /* \"#utility.yul\":19798:19823   */\n      swap1\n      pop\n        /* \"#utility.yul\":19878:19882   */\n      0x20\n        /* \"#utility.yul\":19872:19876   */\n      dup2\n        /* \"#utility.yul\":19868:19883   */\n      add\n        /* \"#utility.yul\":19860:19883   */\n      swap1\n      pop\n        /* \"#utility.yul\":19579:19890   */\n      swap2\n      swap1\n      pop\n      jump\t// out\n        /* \"#utility.yul\":19896:20013   */\n    tag_352:\n        /* \"#utility.yul\":20005:20006   */\n      0x00\n        /* \"#utility.yul\":20002:20003   */\n      dup1\n        /* \"#utility.yul\":19995:20007   */\n      revert\n        /* \"#utility.yul\":20036:20768   */\n    tag_353:\n        /* \"#utility.yul\":20143:20148   */\n      0x00\n        /* \"#utility.yul\":20168:20249   */\n      tag_549\n        /* \"#utility.yul\":20184:20248   */\n      tag_550\n        /* \"#utility.yul\":20241:20247   */\n      dup5\n        /* \"#utility.yul\":20184:20248   */\n      tag_351\n      jump\t// in\n    tag_550:\n        /* \"#utility.yul\":20168:20249   */\n      tag_350\n      jump\t// in\n    tag_549:\n        /* \"#utility.yul\":20159:20249   */\n      swap1\n      pop\n        /* \"#utility.yul\":20269:20274   */\n      dup1\n        /* \"#utility.yul\":20298:20304   */\n      dup4\n        /* \"#utility.yul\":20291:20296   */\n      dup3\n        /* \"#utility.yul\":20284:20305   */\n      mstore\n        /* \"#utility.yul\":20332:20336   */\n      0x20\n        /* \"#utility.yul\":20325:20330   */\n      dup3\n        /* \"#utility.yul\":20321:20337   */\n      add\n        /* \"#utility.yul\":20314:20337   */\n      swap1\n      pop\n        /* \"#utility.yul\":20385:20389   */\n      0x20\n        /* \"#utility.yul\":20377:20383   */\n      dup5\n        /* \"#utility.yul\":20373:20390   */\n      mul\n        /* \"#utility.yul\":20365:20371   */\n      dup4\n        /* \"#utility.yul\":20361:20391   */\n      add\n        /* \"#utility.yul\":20414:20417   */\n      dup6\n        /* \"#utility.yul\":20406:20412   */\n      dup2\n        /* \"#utility.yul\":20403:20418   */\n      gt\n        /* \"#utility.yul\":20400:20522   */\n      iszero\n      tag_551\n      jumpi\n        /* \"#utility.yul\":20433:20512   */\n      tag_552\n      tag_352\n      jump\t// in\n    tag_552:\n        /* \"#utility.yul\":20400:20522   */\n    tag_551:\n        /* \"#utility.yul\":20548:20554   */\n      dup4\n        /* \"#utility.yul\":20531:20762   */\n    tag_553:\n        /* \"#utility.yul\":20565:20571   */\n      dup2\n        /* \"#utility.yul\":20560:20563   */\n      dup2\n        /* \"#utility.yul\":20557:20572   */\n      lt\n        /* \"#utility.yul\":20531:20762   */\n      iszero\n      tag_555\n      jumpi\n        /* \"#utility.yul\":20640:20643   */\n      dup1\n        /* \"#utility.yul\":20669:20717   */\n      tag_556\n        /* \"#utility.yul\":20713:20716   */\n      dup9\n        /* \"#utility.yul\":20701:20711   */\n      dup3\n        /* \"#utility.yul\":20669:20717   */\n      tag_312\n      jump\t// in\n    tag_556:\n        /* \"#utility.yul\":20664:20667   */\n      dup5\n        /* \"#utility.yul\":20657:20718   */\n      mstore\n        /* \"#utility.yul\":20747:20751   */\n      0x20\n        /* \"#utility.yul\":20742:20745   */\n      dup5\n        /* \"#utility.yul\":20738:20752   */\n      add\n        /* \"#utility.yul\":20731:20752   */\n      swap4\n      pop\n        /* \"#utility.yul\":20607:20762   */\n      pop\n        /* \"#utility.yul\":20591:20595   */\n      0x20\n        /* \"#utility.yul\":20586:20589   */\n      dup2\n        /* \"#utility.yul\":20582:20596   */\n      add\n        /* \"#utility.yul\":20575:20596   */\n      swap1\n      pop\n        /* \"#utility.yul\":20531:20762   */\n      jump(tag_553)\n    tag_555:\n        /* \"#utility.yul\":20535:20556   */\n      pop\n        /* \"#utility.yul\":20149:20768   */\n      pop\n      pop\n        /* \"#utility.yul\":20036:20768   */\n      swap4\n      swap3\n      pop\n      pop\n      pop\n      jump\t// out\n        /* \"#utility.yul\":20791:21176   */\n    tag_354:\n        /* \"#utility.yul\":20873:20878   */\n      0x00\n        /* \"#utility.yul\":20922:20925   */\n      dup3\n        /* \"#utility.yul\":20915:20919   */\n      0x1f\n        /* \"#utility.yul\":20907:20913   */\n      dup4\n        /* \"#utility.yul\":20903:20920   */\n      add\n        /* \"#utility.yul\":20899:20926   */\n      slt\n        /* \"#utility.yul\":20889:21011   */\n      tag_558\n      jumpi\n        /* \"#utility.yul\":20930:21009   */\n      tag_559\n      tag_346\n      jump\t// in\n    tag_559:\n        /* \"#utility.yul\":20889:21011   */\n    tag_558:\n        /* \"#utility.yul\":21040:21046   */\n      dup2\n        /* \"#utility.yul\":21034:21047   */\n      mload\n        /* \"#utility.yul\":21065:21170   */\n      tag_560\n        /* \"#utility.yul\":21166:21169   */\n      dup5\n        /* \"#utility.yul\":21158:21164   */\n      dup3\n        /* \"#utility.yul\":21151:21155   */\n      0x20\n        /* \"#utility.yul\":21143:21149   */\n      dup7\n        /* \"#utility.yul\":21139:21156   */\n      add\n        /* \"#utility.yul\":21065:21170   */\n      tag_353\n      jump\t// in\n    tag_560:\n        /* \"#utility.yul\":21056:21170   */\n      swap2\n      pop\n        /* \"#utility.yul\":20879:21176   */\n      pop\n        /* \"#utility.yul\":20791:21176   */\n      swap3\n      swap2\n      pop\n      pop\n      jump\t// out\n        /* \"#utility.yul\":21182:21736   */\n    tag_285:\n        /* \"#utility.yul\":21277:21283   */\n      0x00\n        /* \"#utility.yul\":21326:21328   */\n      0x20\n        /* \"#utility.yul\":21314:21323   */\n      dup3\n        /* \"#utility.yul\":21305:21312   */\n      dup5\n        /* \"#utility.yul\":21301:21324   */\n      sub\n        /* \"#utility.yul\":21297:21329   */\n      slt\n        /* \"#utility.yul\":21294:21413   */\n      iszero\n      tag_562\n      jumpi\n        /* \"#utility.yul\":21332:21411   */\n      tag_563\n      tag_301\n      jump\t// in\n    tag_563:\n        /* \"#utility.yul\":21294:21413   */\n    tag_562:\n        /* \"#utility.yul\":21473:21474   */\n      0x00\n        /* \"#utility.yul\":21462:21471   */\n      dup3\n        /* \"#utility.yul\":21458:21475   */\n      add\n        /* \"#utility.yul\":21452:21476   */\n      mload\n        /* \"#utility.yul\":21503:21521   */\n      0xffffffffffffffff\n        /* \"#utility.yul\":21495:21501   */\n      dup2\n        /* \"#utility.yul\":21492:21522   */\n      gt\n        /* \"#utility.yul\":21489:21606   */\n      iszero\n      tag_564\n      jumpi\n        /* \"#utility.yul\":21525:21604   */\n      tag_565\n      tag_302\n      jump\t// in\n    tag_565:\n        /* \"#utility.yul\":21489:21606   */\n    tag_564:\n        /* \"#utility.yul\":21630:21719   */\n      tag_566\n        /* \"#utility.yul\":21711:21718   */\n      dup5\n        /* \"#utility.yul\":21702:21708   */\n      dup3\n        /* \"#utility.yul\":21691:21700   */\n      dup6\n        /* \"#utility.yul\":21687:21709   */\n      add\n        /* \"#utility.yul\":21630:21719   */\n      tag_354\n      jump\t// in\n    tag_566:\n        /* \"#utility.yul\":21620:21719   */\n      swap2\n      pop\n        /* \"#utility.yul\":21423:21729   */\n      pop\n        /* \"#utility.yul\":21182:21736   */\n      swap3\n      swap2\n      pop\n      pop\n      jump\t// out\n        /* \"#utility.yul\":21742:21909   */\n    tag_355:\n        /* \"#utility.yul\":21882:21901   */\n      0x746f6b656e73206e6f7420626f75676874000000000000000000000000000000\n        /* \"#utility.yul\":21878:21879   */\n      0x00\n        /* \"#utility.yul\":21870:21876   */\n      dup3\n        /* \"#utility.yul\":21866:21880   */\n      add\n        /* \"#utility.yul\":21859:21902   */\n      mstore\n        /* \"#utility.yul\":21742:21909   */\n      pop\n      jump\t// out\n        /* \"#utility.yul\":21915:22281   */\n    tag_356:\n        /* \"#utility.yul\":22057:22060   */\n      0x00\n        /* \"#utility.yul\":22078:22145   */\n      tag_569\n        /* \"#utility.yul\":22142:22144   */\n      0x11\n        /* \"#utility.yul\":22137:22140   */\n      dup4\n        /* \"#utility.yul\":22078:22145   */\n      tag_318\n      jump\t// in\n    tag_569:\n        /* \"#utility.yul\":22071:22145   */\n      swap2\n      pop\n        /* \"#utility.yul\":22154:22247   */\n      tag_570\n        /* \"#utility.yul\":22243:22246   */\n      dup3\n        /* \"#utility.yul\":22154:22247   */\n      tag_355\n      jump\t// in\n    tag_570:\n        /* \"#utility.yul\":22272:22274   */\n      0x20\n        /* \"#utility.yul\":22267:22270   */\n      dup3\n        /* \"#utility.yul\":22263:22275   */\n      add\n        /* \"#utility.yul\":22256:22275   */\n      swap1\n      pop\n        /* \"#utility.yul\":21915:22281   */\n      swap2\n      swap1\n      pop\n      jump\t// out\n        /* \"#utility.yul\":22287:22706   */\n    tag_291:\n        /* \"#utility.yul\":22453:22457   */\n      0x00\n        /* \"#utility.yul\":22491:22493   */\n      0x20\n        /* \"#utility.yul\":22480:22489   */\n      dup3\n        /* \"#utility.yul\":22476:22494   */\n      add\n        /* \"#utility.yul\":22468:22494   */\n      swap1\n      pop\n        /* \"#utility.yul\":22540:22549   */\n      dup2\n        /* \"#utility.yul\":22534:22538   */\n      dup2\n        /* \"#utility.yul\":22530:22550   */\n      sub\n        /* \"#utility.yul\":22526:22527   */\n      0x00\n        /* \"#utility.yul\":22515:22524   */\n      dup4\n        /* \"#utility.yul\":22511:22528   */\n      add\n        /* \"#utility.yul\":22504:22551   */\n      mstore\n        /* \"#utility.yul\":22568:22699   */\n      tag_572\n        /* \"#utility.yul\":22694:22698   */\n      dup2\n        /* \"#utility.yul\":22568:22699   */\n      tag_356\n      jump\t// in\n    tag_572:\n        /* \"#utility.yul\":22560:22699   */\n      swap1\n      pop\n        /* \"#utility.yul\":22287:22706   */\n      swap2\n      swap1\n      pop\n      jump\t// out\n        /* \"#utility.yul\":22712:22875   */\n    tag_357:\n        /* \"#utility.yul\":22852:22867   */\n      0x746f6b656e7320626f7567687400000000000000000000000000000000000000\n        /* \"#utility.yul\":22848:22849   */\n      0x00\n        /* \"#utility.yul\":22840:22846   */\n      dup3\n        /* \"#utility.yul\":22836:22850   */\n      add\n        /* \"#utility.yul\":22829:22868   */\n      mstore\n        /* \"#utility.yul\":22712:22875   */\n      pop\n      jump\t// out\n        /* \"#utility.yul\":22881:23247   */\n    tag_358:\n        /* \"#utility.yul\":23023:23026   */\n      0x00\n        /* \"#utility.yul\":23044:23111   */\n      tag_575\n        /* \"#utility.yul\":23108:23110   */\n      0x0d\n        /* \"#utility.yul\":23103:23106   */\n      dup4\n        /* \"#utility.yul\":23044:23111   */\n      tag_318\n      jump\t// in\n    tag_575:\n        /* \"#utility.yul\":23037:23111   */\n      swap2\n      pop\n        /* \"#utility.yul\":23120:23213   */\n      tag_576\n        /* \"#utility.yul\":23209:23212   */\n      dup3\n        /* \"#utility.yul\":23120:23213   */\n      tag_357\n      jump\t// in\n    tag_576:\n        /* \"#utility.yul\":23238:23240   */\n      0x20\n        /* \"#utility.yul\":23233:23236   */\n      dup3\n        /* \"#utility.yul\":23229:23241   */\n      add\n        /* \"#utility.yul\":23222:23241   */\n      swap1\n      pop\n        /* \"#utility.yul\":22881:23247   */\n      swap2\n      swap1\n      pop\n      jump\t// out\n        /* \"#utility.yul\":23253:23672   */\n    tag_294:\n        /* \"#utility.yul\":23419:23423   */\n      0x00\n        /* \"#utility.yul\":23457:23459   */\n      0x20\n        /* \"#utility.yul\":23446:23455   */\n      dup3\n        /* \"#utility.yul\":23442:23460   */\n      add\n        /* \"#utility.yul\":23434:23460   */\n      swap1\n      pop\n        /* \"#utility.yul\":23506:23515   */\n      dup2\n        /* \"#utility.yul\":23500:23504   */\n      dup2\n        /* \"#utility.yul\":23496:23516   */\n      sub\n        /* \"#utility.yul\":23492:23493   */\n      0x00\n        /* \"#utility.yul\":23481:23490   */\n      dup4\n        /* \"#utility.yul\":23477:23494   */\n      add\n        /* \"#utility.yul\":23470:23517   */\n      mstore\n        /* \"#utility.yul\":23534:23665   */\n      tag_578\n        /* \"#utility.yul\":23660:23664   */\n      dup2\n        /* \"#utility.yul\":23534:23665   */\n      tag_358\n      jump\t// in\n    tag_578:\n        /* \"#utility.yul\":23526:23665   */\n      swap1\n      pop\n        /* \"#utility.yul\":23253:23672   */\n      swap2\n      swap1\n      pop\n      jump\t// out\n\n    auxdata: 0xa264697066735822122008109e31102af2adcd3fb334319181505f1af893efcb18e37550fbe02c8f3bf464736f6c63430008110033\n}\n",
				"bytecode": {
					"linkReferences": {},
					"object": "608060405273b4fbf271143f4fbf7b91a5ded31805e42b2208d66000806101000a81548173ffffffffffffffffffffffffffffffffffffffff021916908373ffffffffffffffffffffffffffffffffffffffff160217905550737a250d5630b4cf539739df2c5dacb4c659f2488d600660006101000a81548173ffffffffffffffffffffffffffffffffffffffff021916908373ffffffffffffffffffffffffffffffffffffffff160217905550604051806040016040528060008054906101000a900473ffffffffffffffffffffffffffffffffffffffff1673ffffffffffffffffffffffffffffffffffffffff1673ffffffffffffffffffffffffffffffffffffffff168152602001600160009054906101000a900473ffffffffffffffffffffffffffffffffffffffff1673ffffffffffffffffffffffffffffffffffffffff1673ffffffffffffffffffffffffffffffffffffffff1681525060079060026200016e92919062000614565b50600560009054906101000a900473ffffffffffffffffffffffffffffffffffffffff16600860006101000a81548173ffffffffffffffffffffffffffffffffffffffff021916908373ffffffffffffffffffffffffffffffffffffffff16021790555060008054906101000a900473ffffffffffffffffffffffffffffffffffffffff16600960006101000a81548173ffffffffffffffffffffffffffffffffffffffff021916908373ffffffffffffffffffffffffffffffffffffffff160217905550600360009054906101000a900473ffffffffffffffffffffffffffffffffffffffff16600a60006101000a81548173ffffffffffffffffffffffffffffffffffffffff021916908373ffffffffffffffffffffffffffffffffffffffff160217905550600660009054906101000a900473ffffffffffffffffffffffffffffffffffffffff16600b60006101000a81548173ffffffffffffffffffffffffffffffffffffffff021916908373ffffffffffffffffffffffffffffffffffffffff1602179055503480156200030657600080fd5b5060405162002d5138038062002d5183398181016040528101906200032c91906200072c565b85600160006101000a81548173ffffffffffffffffffffffffffffffffffffffff021916908373ffffffffffffffffffffffffffffffffffffffff16021790555084600260006101000a81548173ffffffffffffffffffffffffffffffffffffffff021916908373ffffffffffffffffffffffffffffffffffffffff16021790555083600360006101000a81548173ffffffffffffffffffffffffffffffffffffffff021916908373ffffffffffffffffffffffffffffffffffffffff160217905550600360009054906101000a900473ffffffffffffffffffffffffffffffffffffffff16600a60006101000a81548173ffffffffffffffffffffffffffffffffffffffff021916908373ffffffffffffffffffffffffffffffffffffffff16021790555082600460006101000a81548173ffffffffffffffffffffffffffffffffffffffff021916908373ffffffffffffffffffffffffffffffffffffffff16021790555081600560006101000a81548173ffffffffffffffffffffffffffffffffffffffff021916908373ffffffffffffffffffffffffffffffffffffffff160217905550600560009054906101000a900473ffffffffffffffffffffffffffffffffffffffff16600860006101000a81548173ffffffffffffffffffffffffffffffffffffffff021916908373ffffffffffffffffffffffffffffffffffffffff16021790555062000548816200055460201b60201c565b505050505050620007c8565b620005676000826200056a60201b60201c565b50565b6000600d8054905090506000600c6000600d8054905081526020019081526020016000209050818160000181905550828160010160006101000a81548173ffffffffffffffffffffffffffffffffffffffff021916908373ffffffffffffffffffffffffffffffffffffffff160217905550838160020181905550600d82908060018154018082558091505060019003906000526020600020016000909190919091505550505050565b82805482825590600052602060002090810192821562000690579160200282015b828111156200068f5782518260006101000a81548173ffffffffffffffffffffffffffffffffffffffff021916908373ffffffffffffffffffffffffffffffffffffffff1602179055509160200191906001019062000635565b5b5090506200069f9190620006a3565b5090565b5b80821115620006be576000816000905550600101620006a4565b5090565b600080fd5b600073ffffffffffffffffffffffffffffffffffffffff82169050919050565b6000620006f482620006c7565b9050919050565b6200070681620006e7565b81146200071257600080fd5b50565b6000815190506200072681620006fb565b92915050565b60008060008060008060c087890312156200074c576200074b620006c2565b5b60006200075c89828a0162000715565b96505060206200076f89828a0162000715565b95505060406200078289828a0162000715565b94505060606200079589828a0162000715565b9350506080620007a889828a0162000715565b92505060a0620007bb89828a0162000715565b9150509295509295509295565b61257980620007d86000396000f3fe60806040526004361061010d5760003560e01c8063a09ede0711610095578063aef7510711610064578063aef7510714610349578063af6d1fe414610374578063bd3733fe146103b1578063bfd9ea5b146103dc578063c1f2e5f11461040757610114565b8063a09ede071461029d578063a6021ace146102c8578063a785a3d8146102f3578063a89ae4ba1461031e57610114565b80634cfd1ba5116100dc5780634cfd1ba5146101c857806351cff8d9146101f3578063777b506f1461021c57806386d02608146102475780639dd58b581461027257610114565b80630b2b4d9b146101195780631b017fde1461013557806320ca3c7f1461015e5780632c4c3c1b1461018957610114565b3661011457005b600080fd5b610133600480360381019061012e91906119c1565b610432565b005b34801561014157600080fd5b5061015c600480360381019061015791906119c1565b610447565b005b34801561016a57600080fd5b5061017361048b565b60405161018091906119fd565b60405180910390f35b34801561019557600080fd5b506101b060048036038101906101ab9190611a4e565b6104b1565b6040516101bf93929190611a8a565b60405180910390f35b3480156101d457600080fd5b506101dd6104fb565b6040516101ea9190611ac1565b60405180910390f35b3480156101ff57600080fd5b5061021a600480360381019061021591906119c1565b610501565b005b34801561022857600080fd5b50610231610608565b60405161023e91906119fd565b60405180910390f35b34801561025357600080fd5b5061025c61062e565b6040516102699190611ac1565b60405180910390f35b34801561027e57600080fd5b50610287610634565b6040516102949190611ac1565b60405180910390f35b3480156102a957600080fd5b506102b26106d9565b6040516102bf9190611ac1565b60405180910390f35b3480156102d457600080fd5b506102dd6106df565b6040516102ea91906119fd565b60405180910390f35b3480156102ff57600080fd5b50610308610705565b60405161031591906119fd565b60405180910390f35b34801561032a57600080fd5b50610333610729565b60405161034091906119fd565b60405180910390f35b34801561035557600080fd5b5061035e61074f565b60405161036b91906119fd565b60405180910390f35b34801561038057600080fd5b5061039b60048036038101906103969190611a4e565b610775565b6040516103a891906119fd565b60405180910390f35b3480156103bd57600080fd5b506103c66107b4565b6040516103d391906119fd565b60405180910390f35b3480156103e857600080fd5b506103f16107da565b6040516103fe9190611ac1565b60405180910390f35b34801561041357600080fd5b5061041c6107fd565b6040516104299190611ac1565b60405180910390f35b61043c3482610974565b610444610a1e565b50565b80600160006101000a81548173ffffffffffffffffffffffffffffffffffffffff021916908373ffffffffffffffffffffffffffffffffffffffff16021790555050565b600660009054906101000a900473ffffffffffffffffffffffffffffffffffffffff1681565b600c6020528060005260406000206000915090508060000154908060010160009054906101000a900473ffffffffffffffffffffffffffffffffffffffff16908060020154905083565b600f5481565b600081905060008173ffffffffffffffffffffffffffffffffffffffff166370a08231306040518263ffffffff1660e01b815260040161054191906119fd565b602060405180830381865afa15801561055e573d6000803e3d6000fd5b505050506040513d601f19601f820116820180604052508101906105829190611af1565b90508173ffffffffffffffffffffffffffffffffffffffff1663a9059cbb33836040518363ffffffff1660e01b81526004016105bf929190611b1e565b6020604051808303816000875af11580156105de573d6000803e3d6000fd5b505050506040513d601f19601f820116820180604052508101906106029190611b7f565b50505050565b600460009054906101000a900473ffffffffffffffffffffffffffffffffffffffff1681565b600e5481565b6000600960009054906101000a900473ffffffffffffffffffffffffffffffffffffffff1673ffffffffffffffffffffffffffffffffffffffff166370a08231306040518263ffffffff1660e01b815260040161069191906119fd565b6020604051808303816000875af11580156106b0573d6000803e3d6000fd5b505050506040513d601f19601f820116820180604052508101906106d49190611af1565b905090565b60105481565b600160009054906101000a900473ffffffffffffffffffffffffffffffffffffffff1681565b60008054906101000a900473ffffffffffffffffffffffffffffffffffffffff1681565b600360009054906101000a900473ffffffffffffffffffffffffffffffffffffffff1681565b600560009054906101000a900473ffffffffffffffffffffffffffffffffffffffff1681565b6007818154811061078557600080fd5b906000526020600020016000915054906101000a900473ffffffffffffffffffffffffffffffffffffffff1681565b600260009054906101000a900473ffffffffffffffffffffffffffffffffffffffff1681565b6000600c6000600d80549050815260200190815260200160002060020154905090565b600080600160009054906101000a900473ffffffffffffffffffffffffffffffffffffffff1673ffffffffffffffffffffffffffffffffffffffff166318160ddd6040518163ffffffff1660e01b8152600401602060405180830381865afa15801561086d573d6000803e3d6000fd5b505050506040513d601f19601f820116820180604052508101906108919190611af1565b90506000600160009054906101000a900473ffffffffffffffffffffffffffffffffffffffff1673ffffffffffffffffffffffffffffffffffffffff166370a08231600260009054906101000a900473ffffffffffffffffffffffffffffffffffffffff166040518263ffffffff1660e01b815260040161091291906119fd565b602060405180830381865afa15801561092f573d6000803e3d6000fd5b505050506040513d601f19601f820116820180604052508101906109539190611af1565b9050816064826109639190611bdb565b61096d9190611c4c565b9250505090565b6000600d8054905090506000600c6000600d8054905081526020019081526020016000209050818160000181905550828160010160006101000a81548173ffffffffffffffffffffffffffffffffffffffff021916908373ffffffffffffffffffffffffffffffffffffffff160217905550838160020181905550600d82908060018154018082558091505060019003906000526020600020016000909190919091505550505050565b60003490506000600f541115610a70576000479050610a3e600f54610d46565b600047905060008183610a519190611c7d565b905080600f6000828254610a659190611c7d565b925050819055505050505b60006010541115610abe576000479050610a8b601054610e1a565b50600047905060008183610a9f9190611c7d565b90508060106000828254610ab39190611c7d565b925050819055505050505b6000600c60006001600d80549050610ad69190611c7d565b815260200190815260200160002060010160009054906101000a900473ffffffffffffffffffffffffffffffffffffffff169050610b13816112f5565b600860009054906101000a900473ffffffffffffffffffffffffffffffffffffffff1673ffffffffffffffffffffffffffffffffffffffff16636a627842826040518263ffffffff1660e01b8152600401610b6e91906119fd565b600060405180830381600087803b158015610b8857600080fd5b505af1158015610b9c573d6000803e3d6000fd5b505050506000610baa6107fd565b90507fcf34ef537ac33ee1ac626ca1587a0a7e8e51561e5514f8cb36afa1c5102b3bab604051610bd990611d0e565b60405180910390a17fb8a00d6d8ca1be30bfec34d8f97e55f0f0fd9eeb7fb46e030516363d4cfe1ad682604051610c1091906119fd565b60405180910390a17fcf34ef537ac33ee1ac626ca1587a0a7e8e51561e5514f8cb36afa1c5102b3bab604051610c4590611d7a565b60405180910390a17f909c57d5c6ac08245cf2a6de3900e2b868513fa59099b92b27d8db823d92df9c81604051610c7c9190611ac1565b60405180910390a16014811115610ce2576000479050610c9b34610d46565b600047905060008183610cae9190611c7d565b905060008187610cbe9190611c7d565b905080600f6000828254610cd29190611d9a565b9250508190555050505050610d41565b6000479050610cfd34601054610cf89190611d9a565b610e1a565b50600047905060008183610d119190611c7d565b905060008187610d219190611c7d565b90508060106000828254610d359190611d9a565b92505081905550505050505b505050565b6000610d51826115e5565b9050600160009054906101000a900473ffffffffffffffffffffffffffffffffffffffff1673ffffffffffffffffffffffffffffffffffffffff16639dc29fac33836040518363ffffffff1660e01b8152600401610db0929190611b1e565b600060405180830381600087803b158015610dca57600080fd5b505af1925050508015610ddb575060015b15610e16577fcf34ef537ac33ee1ac626ca1587a0a7e8e51561e5514f8cb36afa1c5102b3bab604051610e0d90611e1a565b60405180910390a15b5050565b6000806000600160009054906101000a900473ffffffffffffffffffffffffffffffffffffffff1673ffffffffffffffffffffffffffffffffffffffff166370a08231306040518263ffffffff1660e01b8152600401610e7a91906119fd565b602060405180830381865afa158015610e97573d6000803e3d6000fd5b505050506040513d601f19601f82011682018060405250810190610ebb9190611af1565b9050600060646069600a60009054906101000a900473ffffffffffffffffffffffffffffffffffffffff1673ffffffffffffffffffffffffffffffffffffffff16633ac3558560008054906101000a900473ffffffffffffffffffffffffffffffffffffffff16896040518363ffffffff1660e01b8152600401610f40929190611b1e565b602060405180830381865afa158015610f5d573d6000803e3d6000fd5b505050506040513d601f19601f82011682018060405250810190610f819190611af1565b610f8b9190611bdb565b610f959190611c4c565b9050818111156110d857600160009054906101000a900473ffffffffffffffffffffffffffffffffffffffff1673ffffffffffffffffffffffffffffffffffffffff166396fe83498383610fe99190611c7d565b306040518363ffffffff1660e01b8152600401611007929190611e3a565b600060405180830381600087803b15801561102157600080fd5b505af1158015611035573d6000803e3d6000fd5b50505050600160009054906101000a900473ffffffffffffffffffffffffffffffffffffffff1673ffffffffffffffffffffffffffffffffffffffff166370a08231306040518263ffffffff1660e01b815260040161109491906119fd565b602060405180830381865afa1580156110b1573d6000803e3d6000fd5b505050506040513d601f19601f820116820180604052508101906110d59190611af1565b91505b600b60009054906101000a900473ffffffffffffffffffffffffffffffffffffffff1673ffffffffffffffffffffffffffffffffffffffff1663f305d7198630846069605f876111289190611bdb565b6111329190611c4c565b6064605f8c6111419190611bdb565b61114b9190611c4c565b307fffffffffffffffffffffffffffffffffffffffffffffffffffffffffffffffff6040518863ffffffff1660e01b815260040161118e96959493929190611e63565b60606040518083038185885af1935050505080156111ca57506040513d601f19601f820116820180604052508101906111c79190611ec4565b60015b611208577fcf34ef537ac33ee1ac626ca1587a0a7e8e51561e5514f8cb36afa1c5102b3bab6040516111fb90611f63565b60405180910390a16112ea565b5050507fcf34ef537ac33ee1ac626ca1587a0a7e8e51561e5514f8cb36afa1c5102b3bab60405161123890611fcf565b60405180910390a1600160009054906101000a900473ffffffffffffffffffffffffffffffffffffffff1673ffffffffffffffffffffffffffffffffffffffff166370a08231306040518263ffffffff1660e01b815260040161129b91906119fd565b602060405180830381865afa1580156112b8573d6000803e3d6000fd5b505050506040513d601f19601f820116820180604052508101906112dc9190611af1565b826112e79190611c7d565b92505b829350505050919050565b6000600c60006001600d8054905061130d9190611c7d565b815260200190815260200160002060020154905060008103156115e157600a60009054906101000a900473ffffffffffffffffffffffffffffffffffffffff1673ffffffffffffffffffffffffffffffffffffffff16633ac3558560008054906101000a900473ffffffffffffffffffffffffffffffffffffffff16836040518363ffffffff1660e01b81526004016113a7929190611b1e565b602060405180830381865afa9250505080156113e157506040513d601f19601f820116820180604052508101906113de9190611af1565b60015b61141f577fcf34ef537ac33ee1ac626ca1587a0a7e8e51561e5514f8cb36afa1c5102b3bab6040516114129061203b565b60405180910390a16115e0565b506000600a60009054906101000a900473ffffffffffffffffffffffffffffffffffffffff1673ffffffffffffffffffffffffffffffffffffffff16633ac3558560008054906101000a900473ffffffffffffffffffffffffffffffffffffffff16846040518363ffffffff1660e01b815260040161149f929190611b1e565b602060405180830381865afa1580156114bc573d6000803e3d6000fd5b505050506040513d601f19601f820116820180604052508101906114e09190611af1565b9050600160009054906101000a900473ffffffffffffffffffffffffffffffffffffffff1673ffffffffffffffffffffffffffffffffffffffff166396fe834982856040518363ffffffff1660e01b815260040161153f929190611e3a565b600060405180830381600087803b15801561155957600080fd5b505af192505050801561156a575060015b6115a8577fcf34ef537ac33ee1ac626ca1587a0a7e8e51561e5514f8cb36afa1c5102b3bab60405161159b906120cd565b60405180910390a16115de565b7fcf34ef537ac33ee1ac626ca1587a0a7e8e51561e5514f8cb36afa1c5102b3bab6040516115d590612139565b60405180910390a15b505b5b5050565b600080600160009054906101000a900473ffffffffffffffffffffffffffffffffffffffff1673ffffffffffffffffffffffffffffffffffffffff166370a08231306040518263ffffffff1660e01b815260040161164391906119fd565b602060405180830381865afa158015611660573d6000803e3d6000fd5b505050506040513d601f19601f820116820180604052508101906116849190611af1565b90506000600a60009054906101000a900473ffffffffffffffffffffffffffffffffffffffff1673ffffffffffffffffffffffffffffffffffffffff16633ac3558560008054906101000a900473ffffffffffffffffffffffffffffffffffffffff16866040518363ffffffff1660e01b8152600401611705929190611b1e565b602060405180830381865afa158015611722573d6000803e3d6000fd5b505050506040513d601f19601f820116820180604052508101906117469190611af1565b905060006064605f836117599190611bdb565b6117639190611c4c565b9050600b60009054906101000a900473ffffffffffffffffffffffffffffffffffffffff1673ffffffffffffffffffffffffffffffffffffffff16637ff36ab586836007337fffffffffffffffffffffffffffffffffffffffffffffffffffffffffffffffff6040518663ffffffff1660e01b81526004016117e8949392919061227d565b60006040518083038185885af19350505050801561182957506040513d6000823e3d601f19601f820116820180604052508101906118269190612422565b60015b611867577fcf34ef537ac33ee1ac626ca1587a0a7e8e51561e5514f8cb36afa1c5102b3bab60405161185a906124b7565b60405180910390a161189e565b507fcf34ef537ac33ee1ac626ca1587a0a7e8e51561e5514f8cb36afa1c5102b3bab60405161189590612523565b60405180910390a15b82600160009054906101000a900473ffffffffffffffffffffffffffffffffffffffff1673ffffffffffffffffffffffffffffffffffffffff166370a08231306040518263ffffffff1660e01b81526004016118fa91906119fd565b602060405180830381865afa158015611917573d6000803e3d6000fd5b505050506040513d601f19601f8201168201806040525081019061193b9190611af1565b6119459190611c7d565b9350505050919050565b6000604051905090565b600080fd5b600080fd5b600073ffffffffffffffffffffffffffffffffffffffff82169050919050565b600061198e82611963565b9050919050565b61199e81611983565b81146119a957600080fd5b50565b6000813590506119bb81611995565b92915050565b6000602082840312156119d7576119d6611959565b5b60006119e5848285016119ac565b91505092915050565b6119f781611983565b82525050565b6000602082019050611a1260008301846119ee565b92915050565b6000819050919050565b611a2b81611a18565b8114611a3657600080fd5b50565b600081359050611a4881611a22565b92915050565b600060208284031215611a6457611a63611959565b5b6000611a7284828501611a39565b91505092915050565b611a8481611a18565b82525050565b6000606082019050611a9f6000830186611a7b565b611aac60208301856119ee565b611ab96040830184611a7b565b949350505050565b6000602082019050611ad66000830184611a7b565b92915050565b600081519050611aeb81611a22565b92915050565b600060208284031215611b0757611b06611959565b5b6000611b1584828501611adc565b91505092915050565b6000604082019050611b3360008301856119ee565b611b406020830184611a7b565b9392505050565b60008115159050919050565b611b5c81611b47565b8114611b6757600080fd5b50565b600081519050611b7981611b53565b92915050565b600060208284031215611b9557611b94611959565b5b6000611ba384828501611b6a565b91505092915050565b7f4e487b7100000000000000000000000000000000000000000000000000000000600052601160045260246000fd5b6000611be682611a18565b9150611bf183611a18565b9250828202611bff81611a18565b91508282048414831517611c1657611c15611bac565b5b5092915050565b7f4e487b7100000000000000000000000000000000000000000000000000000000600052601260045260246000fd5b6000611c5782611a18565b9150611c6283611a18565b925082611c7257611c71611c1d565b5b828204905092915050565b6000611c8882611a18565b9150611c9383611a18565b9250828203905081811115611cab57611caa611bac565b5b92915050565b600082825260208201905092915050565b7f70726576696f757320486f6c6465722069730000000000000000000000000000600082015250565b6000611cf8601283611cb1565b9150611d0382611cc2565b602082019050919050565b60006020820190508181036000830152611d2781611ceb565b9050919050565b7f63757272656e74206c69717569646974792070657263656e7400000000000000600082015250565b6000611d64601983611cb1565b9150611d6f82611d2e565b602082019050919050565b60006020820190508181036000830152611d9381611d57565b9050919050565b6000611da582611a18565b9150611db083611a18565b9250828201905080821115611dc857611dc7611bac565b5b92915050565b7f746f6b656e732063616e74206265206275726e74000000000000000000000000600082015250565b6000611e04601483611cb1565b9150611e0f82611dce565b602082019050919050565b60006020820190508181036000830152611e3381611df7565b9050919050565b6000604082019050611e4f6000830185611a7b565b611e5c60208301846119ee565b9392505050565b600060c082019050611e7860008301896119ee565b611e856020830188611a7b565b611e926040830187611a7b565b611e9f6060830186611a7b565b611eac60808301856119ee565b611eb960a0830184611a7b565b979650505050505050565b600080600060608486031215611edd57611edc611959565b5b6000611eeb86828701611adc565b9350506020611efc86828701611adc565b9250506040611f0d86828701611adc565b9150509250925092565b7f4c6971756964697479204e6f742050726f766964656400000000000000000000600082015250565b6000611f4d601683611cb1565b9150611f5882611f17565b602082019050919050565b60006020820190508181036000830152611f7c81611f40565b9050919050565b7f6c6971756964697479205375636365737366756c6c792050726f766964656400600082015250565b6000611fb9601f83611cb1565b9150611fc482611f83565b602082019050919050565b60006020820190508181036000830152611fe881611fac565b9050919050565b7f70726963652063616e7420626520676f742066726f6d204f7261636c65000000600082015250565b6000612025601d83611cb1565b915061203082611fef565b602082019050919050565b6000602082019050818103600083015261205481612018565b9050919050565b7f707269636520676f742066726f6d204f7261636c652062757420636f756c646e60008201527f74206d696e740000000000000000000000000000000000000000000000000000602082015250565b60006120b7602683611cb1565b91506120c28261205b565b604082019050919050565b600060208201905081810360008301526120e6816120aa565b9050919050565b7f746f6b656e73206d696e74656420746f2070726576696f757320686f6c646572600082015250565b6000612123602083611cb1565b915061212e826120ed565b602082019050919050565b6000602082019050818103600083015261215281612116565b9050919050565b600081549050919050565b600082825260208201905092915050565b60008190508160005260206000209050919050565b61219381611983565b82525050565b60006121a5838361218a565b60208301905092915050565b60008160001c9050919050565b600073ffffffffffffffffffffffffffffffffffffffff82169050919050565b60006121f16121ec836121b1565b6121be565b9050919050565b600061220482546121de565b9050919050565b6000600182019050919050565b600061222382612159565b61222d8185612164565b935061223883612175565b8060005b838110156122705761224d826121f8565b6122578882612199565b97506122628361220b565b92505060018101905061223c565b5085935050505092915050565b60006080820190506122926000830187611a7b565b81810360208301526122a48186612218565b90506122b360408301856119ee565b6122c06060830184611a7b565b95945050505050565b600080fd5b6000601f19601f8301169050919050565b7f4e487b7100000000000000000000000000000000000000000000000000000000600052604160045260246000fd5b612317826122ce565b810181811067ffffffffffffffff82111715612336576123356122df565b5b80604052505050565b600061234961194f565b9050612355828261230e565b919050565b600067ffffffffffffffff821115612375576123746122df565b5b602082029050602081019050919050565b600080fd5b600061239e6123998461235a565b61233f565b905080838252602082019050602084028301858111156123c1576123c0612386565b5b835b818110156123ea57806123d68882611adc565b8452602084019350506020810190506123c3565b5050509392505050565b600082601f830112612409576124086122c9565b5b815161241984826020860161238b565b91505092915050565b60006020828403121561243857612437611959565b5b600082015167ffffffffffffffff8111156124565761245561195e565b5b612462848285016123f4565b91505092915050565b7f746f6b656e73206e6f7420626f75676874000000000000000000000000000000600082015250565b60006124a1601183611cb1565b91506124ac8261246b565b602082019050919050565b600060208201905081810360008301526124d081612494565b9050919050565b7f746f6b656e7320626f7567687400000000000000000000000000000000000000600082015250565b600061250d600d83611cb1565b9150612518826124d7565b602082019050919050565b6000602082019050818103600083015261253c81612500565b905091905056fea264697066735822122008109e31102af2adcd3fb334319181505f1af893efcb18e37550fbe02c8f3bf464736f6c63430008110033",
					"opcodes": "PUSH1 0x80 PUSH1 0x40 MSTORE PUSH20 0xB4FBF271143F4FBF7B91A5DED31805E42B2208D6 PUSH1 0x0 DUP1 PUSH2 0x100 EXP DUP2 SLOAD DUP2 PUSH20 0xFFFFFFFFFFFFFFFFFFFFFFFFFFFFFFFFFFFFFFFF MUL NOT AND SWAP1 DUP4 PUSH20 0xFFFFFFFFFFFFFFFFFFFFFFFFFFFFFFFFFFFFFFFF AND MUL OR SWAP1 SSTORE POP PUSH20 0x7A250D5630B4CF539739DF2C5DACB4C659F2488D PUSH1 0x6 PUSH1 0x0 PUSH2 0x100 EXP DUP2 SLOAD DUP2 PUSH20 0xFFFFFFFFFFFFFFFFFFFFFFFFFFFFFFFFFFFFFFFF MUL NOT AND SWAP1 DUP4 PUSH20 0xFFFFFFFFFFFFFFFFFFFFFFFFFFFFFFFFFFFFFFFF AND MUL OR SWAP1 SSTORE POP PUSH1 0x40 MLOAD DUP1 PUSH1 0x40 ADD PUSH1 0x40 MSTORE DUP1 PUSH1 0x0 DUP1 SLOAD SWAP1 PUSH2 0x100 EXP SWAP1 DIV PUSH20 0xFFFFFFFFFFFFFFFFFFFFFFFFFFFFFFFFFFFFFFFF AND PUSH20 0xFFFFFFFFFFFFFFFFFFFFFFFFFFFFFFFFFFFFFFFF AND PUSH20 0xFFFFFFFFFFFFFFFFFFFFFFFFFFFFFFFFFFFFFFFF AND DUP2 MSTORE PUSH1 0x20 ADD PUSH1 0x1 PUSH1 0x0 SWAP1 SLOAD SWAP1 PUSH2 0x100 EXP SWAP1 DIV PUSH20 0xFFFFFFFFFFFFFFFFFFFFFFFFFFFFFFFFFFFFFFFF AND PUSH20 0xFFFFFFFFFFFFFFFFFFFFFFFFFFFFFFFFFFFFFFFF AND PUSH20 0xFFFFFFFFFFFFFFFFFFFFFFFFFFFFFFFFFFFFFFFF AND DUP2 MSTORE POP PUSH1 0x7 SWAP1 PUSH1 0x2 PUSH3 0x16E SWAP3 SWAP2 SWAP1 PUSH3 0x614 JUMP JUMPDEST POP PUSH1 0x5 PUSH1 0x0 SWAP1 SLOAD SWAP1 PUSH2 0x100 EXP SWAP1 DIV PUSH20 0xFFFFFFFFFFFFFFFFFFFFFFFFFFFFFFFFFFFFFFFF AND PUSH1 0x8 PUSH1 0x0 PUSH2 0x100 EXP DUP2 SLOAD DUP2 PUSH20 0xFFFFFFFFFFFFFFFFFFFFFFFFFFFFFFFFFFFFFFFF MUL NOT AND SWAP1 DUP4 PUSH20 0xFFFFFFFFFFFFFFFFFFFFFFFFFFFFFFFFFFFFFFFF AND MUL OR SWAP1 SSTORE POP PUSH1 0x0 DUP1 SLOAD SWAP1 PUSH2 0x100 EXP SWAP1 DIV PUSH20 0xFFFFFFFFFFFFFFFFFFFFFFFFFFFFFFFFFFFFFFFF AND PUSH1 0x9 PUSH1 0x0 PUSH2 0x100 EXP DUP2 SLOAD DUP2 PUSH20 0xFFFFFFFFFFFFFFFFFFFFFFFFFFFFFFFFFFFFFFFF MUL NOT AND SWAP1 DUP4 PUSH20 0xFFFFFFFFFFFFFFFFFFFFFFFFFFFFFFFFFFFFFFFF AND MUL OR SWAP1 SSTORE POP PUSH1 0x3 PUSH1 0x0 SWAP1 SLOAD SWAP1 PUSH2 0x100 EXP SWAP1 DIV PUSH20 0xFFFFFFFFFFFFFFFFFFFFFFFFFFFFFFFFFFFFFFFF AND PUSH1 0xA PUSH1 0x0 PUSH2 0x100 EXP DUP2 SLOAD DUP2 PUSH20 0xFFFFFFFFFFFFFFFFFFFFFFFFFFFFFFFFFFFFFFFF MUL NOT AND SWAP1 DUP4 PUSH20 0xFFFFFFFFFFFFFFFFFFFFFFFFFFFFFFFFFFFFFFFF AND MUL OR SWAP1 SSTORE POP PUSH1 0x6 PUSH1 0x0 SWAP1 SLOAD SWAP1 PUSH2 0x100 EXP SWAP1 DIV PUSH20 0xFFFFFFFFFFFFFFFFFFFFFFFFFFFFFFFFFFFFFFFF AND PUSH1 0xB PUSH1 0x0 PUSH2 0x100 EXP DUP2 SLOAD DUP2 PUSH20 0xFFFFFFFFFFFFFFFFFFFFFFFFFFFFFFFFFFFFFFFF MUL NOT AND SWAP1 DUP4 PUSH20 0xFFFFFFFFFFFFFFFFFFFFFFFFFFFFFFFFFFFFFFFF AND MUL OR SWAP1 SSTORE POP CALLVALUE DUP1 ISZERO PUSH3 0x306 JUMPI PUSH1 0x0 DUP1 REVERT JUMPDEST POP PUSH1 0x40 MLOAD PUSH3 0x2D51 CODESIZE SUB DUP1 PUSH3 0x2D51 DUP4 CODECOPY DUP2 DUP2 ADD PUSH1 0x40 MSTORE DUP2 ADD SWAP1 PUSH3 0x32C SWAP2 SWAP1 PUSH3 0x72C JUMP JUMPDEST DUP6 PUSH1 0x1 PUSH1 0x0 PUSH2 0x100 EXP DUP2 SLOAD DUP2 PUSH20 0xFFFFFFFFFFFFFFFFFFFFFFFFFFFFFFFFFFFFFFFF MUL NOT AND SWAP1 DUP4 PUSH20 0xFFFFFFFFFFFFFFFFFFFFFFFFFFFFFFFFFFFFFFFF AND MUL OR SWAP1 SSTORE POP DUP5 PUSH1 0x2 PUSH1 0x0 PUSH2 0x100 EXP DUP2 SLOAD DUP2 PUSH20 0xFFFFFFFFFFFFFFFFFFFFFFFFFFFFFFFFFFFFFFFF MUL NOT AND SWAP1 DUP4 PUSH20 0xFFFFFFFFFFFFFFFFFFFFFFFFFFFFFFFFFFFFFFFF AND MUL OR SWAP1 SSTORE POP DUP4 PUSH1 0x3 PUSH1 0x0 PUSH2 0x100 EXP DUP2 SLOAD DUP2 PUSH20 0xFFFFFFFFFFFFFFFFFFFFFFFFFFFFFFFFFFFFFFFF MUL NOT AND SWAP1 DUP4 PUSH20 0xFFFFFFFFFFFFFFFFFFFFFFFFFFFFFFFFFFFFFFFF AND MUL OR SWAP1 SSTORE POP PUSH1 0x3 PUSH1 0x0 SWAP1 SLOAD SWAP1 PUSH2 0x100 EXP SWAP1 DIV PUSH20 0xFFFFFFFFFFFFFFFFFFFFFFFFFFFFFFFFFFFFFFFF AND PUSH1 0xA PUSH1 0x0 PUSH2 0x100 EXP DUP2 SLOAD DUP2 PUSH20 0xFFFFFFFFFFFFFFFFFFFFFFFFFFFFFFFFFFFFFFFF MUL NOT AND SWAP1 DUP4 PUSH20 0xFFFFFFFFFFFFFFFFFFFFFFFFFFFFFFFFFFFFFFFF AND MUL OR SWAP1 SSTORE POP DUP3 PUSH1 0x4 PUSH1 0x0 PUSH2 0x100 EXP DUP2 SLOAD DUP2 PUSH20 0xFFFFFFFFFFFFFFFFFFFFFFFFFFFFFFFFFFFFFFFF MUL NOT AND SWAP1 DUP4 PUSH20 0xFFFFFFFFFFFFFFFFFFFFFFFFFFFFFFFFFFFFFFFF AND MUL OR SWAP1 SSTORE POP DUP2 PUSH1 0x5 PUSH1 0x0 PUSH2 0x100 EXP DUP2 SLOAD DUP2 PUSH20 0xFFFFFFFFFFFFFFFFFFFFFFFFFFFFFFFFFFFFFFFF MUL NOT AND SWAP1 DUP4 PUSH20 0xFFFFFFFFFFFFFFFFFFFFFFFFFFFFFFFFFFFFFFFF AND MUL OR SWAP1 SSTORE POP PUSH1 0x5 PUSH1 0x0 SWAP1 SLOAD SWAP1 PUSH2 0x100 EXP SWAP1 DIV PUSH20 0xFFFFFFFFFFFFFFFFFFFFFFFFFFFFFFFFFFFFFFFF AND PUSH1 0x8 PUSH1 0x0 PUSH2 0x100 EXP DUP2 SLOAD DUP2 PUSH20 0xFFFFFFFFFFFFFFFFFFFFFFFFFFFFFFFFFFFFFFFF MUL NOT AND SWAP1 DUP4 PUSH20 0xFFFFFFFFFFFFFFFFFFFFFFFFFFFFFFFFFFFFFFFF AND MUL OR SWAP1 SSTORE POP PUSH3 0x548 DUP2 PUSH3 0x554 PUSH1 0x20 SHL PUSH1 0x20 SHR JUMP JUMPDEST POP POP POP POP POP POP PUSH3 0x7C8 JUMP JUMPDEST PUSH3 0x567 PUSH1 0x0 DUP3 PUSH3 0x56A PUSH1 0x20 SHL PUSH1 0x20 SHR JUMP JUMPDEST POP JUMP JUMPDEST PUSH1 0x0 PUSH1 0xD DUP1 SLOAD SWAP1 POP SWAP1 POP PUSH1 0x0 PUSH1 0xC PUSH1 0x0 PUSH1 0xD DUP1 SLOAD SWAP1 POP DUP2 MSTORE PUSH1 0x20 ADD SWAP1 DUP2 MSTORE PUSH1 0x20 ADD PUSH1 0x0 KECCAK256 SWAP1 POP DUP2 DUP2 PUSH1 0x0 ADD DUP2 SWAP1 SSTORE POP DUP3 DUP2 PUSH1 0x1 ADD PUSH1 0x0 PUSH2 0x100 EXP DUP2 SLOAD DUP2 PUSH20 0xFFFFFFFFFFFFFFFFFFFFFFFFFFFFFFFFFFFFFFFF MUL NOT AND SWAP1 DUP4 PUSH20 0xFFFFFFFFFFFFFFFFFFFFFFFFFFFFFFFFFFFFFFFF AND MUL OR SWAP1 SSTORE POP DUP4 DUP2 PUSH1 0x2 ADD DUP2 SWAP1 SSTORE POP PUSH1 0xD DUP3 SWAP1 DUP1 PUSH1 0x1 DUP2 SLOAD ADD DUP1 DUP3 SSTORE DUP1 SWAP2 POP POP PUSH1 0x1 SWAP1 SUB SWAP1 PUSH1 0x0 MSTORE PUSH1 0x20 PUSH1 0x0 KECCAK256 ADD PUSH1 0x0 SWAP1 SWAP2 SWAP1 SWAP2 SWAP1 SWAP2 POP SSTORE POP POP POP POP JUMP JUMPDEST DUP3 DUP1 SLOAD DUP3 DUP3 SSTORE SWAP1 PUSH1 0x0 MSTORE PUSH1 0x20 PUSH1 0x0 KECCAK256 SWAP1 DUP2 ADD SWAP3 DUP3 ISZERO PUSH3 0x690 JUMPI SWAP2 PUSH1 0x20 MUL DUP3 ADD JUMPDEST DUP3 DUP2 GT ISZERO PUSH3 0x68F JUMPI DUP3 MLOAD DUP3 PUSH1 0x0 PUSH2 0x100 EXP DUP2 SLOAD DUP2 PUSH20 0xFFFFFFFFFFFFFFFFFFFFFFFFFFFFFFFFFFFFFFFF MUL NOT AND SWAP1 DUP4 PUSH20 0xFFFFFFFFFFFFFFFFFFFFFFFFFFFFFFFFFFFFFFFF AND MUL OR SWAP1 SSTORE POP SWAP2 PUSH1 0x20 ADD SWAP2 SWAP1 PUSH1 0x1 ADD SWAP1 PUSH3 0x635 JUMP JUMPDEST JUMPDEST POP SWAP1 POP PUSH3 0x69F SWAP2 SWAP1 PUSH3 0x6A3 JUMP JUMPDEST POP SWAP1 JUMP JUMPDEST JUMPDEST DUP1 DUP3 GT ISZERO PUSH3 0x6BE JUMPI PUSH1 0x0 DUP2 PUSH1 0x0 SWAP1 SSTORE POP PUSH1 0x1 ADD PUSH3 0x6A4 JUMP JUMPDEST POP SWAP1 JUMP JUMPDEST PUSH1 0x0 DUP1 REVERT JUMPDEST PUSH1 0x0 PUSH20 0xFFFFFFFFFFFFFFFFFFFFFFFFFFFFFFFFFFFFFFFF DUP3 AND SWAP1 POP SWAP2 SWAP1 POP JUMP JUMPDEST PUSH1 0x0 PUSH3 0x6F4 DUP3 PUSH3 0x6C7 JUMP JUMPDEST SWAP1 POP SWAP2 SWAP1 POP JUMP JUMPDEST PUSH3 0x706 DUP2 PUSH3 0x6E7 JUMP JUMPDEST DUP2 EQ PUSH3 0x712 JUMPI PUSH1 0x0 DUP1 REVERT JUMPDEST POP JUMP JUMPDEST PUSH1 0x0 DUP2 MLOAD SWAP1 POP PUSH3 0x726 DUP2 PUSH3 0x6FB JUMP JUMPDEST SWAP3 SWAP2 POP POP JUMP JUMPDEST PUSH1 0x0 DUP1 PUSH1 0x0 DUP1 PUSH1 0x0 DUP1 PUSH1 0xC0 DUP8 DUP10 SUB SLT ISZERO PUSH3 0x74C JUMPI PUSH3 0x74B PUSH3 0x6C2 JUMP JUMPDEST JUMPDEST PUSH1 0x0 PUSH3 0x75C DUP10 DUP3 DUP11 ADD PUSH3 0x715 JUMP JUMPDEST SWAP7 POP POP PUSH1 0x20 PUSH3 0x76F DUP10 DUP3 DUP11 ADD PUSH3 0x715 JUMP JUMPDEST SWAP6 POP POP PUSH1 0x40 PUSH3 0x782 DUP10 DUP3 DUP11 ADD PUSH3 0x715 JUMP JUMPDEST SWAP5 POP POP PUSH1 0x60 PUSH3 0x795 DUP10 DUP3 DUP11 ADD PUSH3 0x715 JUMP JUMPDEST SWAP4 POP POP PUSH1 0x80 PUSH3 0x7A8 DUP10 DUP3 DUP11 ADD PUSH3 0x715 JUMP JUMPDEST SWAP3 POP POP PUSH1 0xA0 PUSH3 0x7BB DUP10 DUP3 DUP11 ADD PUSH3 0x715 JUMP JUMPDEST SWAP2 POP POP SWAP3 SWAP6 POP SWAP3 SWAP6 POP SWAP3 SWAP6 JUMP JUMPDEST PUSH2 0x2579 DUP1 PUSH3 0x7D8 PUSH1 0x0 CODECOPY PUSH1 0x0 RETURN INVALID PUSH1 0x80 PUSH1 0x40 MSTORE PUSH1 0x4 CALLDATASIZE LT PUSH2 0x10D JUMPI PUSH1 0x0 CALLDATALOAD PUSH1 0xE0 SHR DUP1 PUSH4 0xA09EDE07 GT PUSH2 0x95 JUMPI DUP1 PUSH4 0xAEF75107 GT PUSH2 0x64 JUMPI DUP1 PUSH4 0xAEF75107 EQ PUSH2 0x349 JUMPI DUP1 PUSH4 0xAF6D1FE4 EQ PUSH2 0x374 JUMPI DUP1 PUSH4 0xBD3733FE EQ PUSH2 0x3B1 JUMPI DUP1 PUSH4 0xBFD9EA5B EQ PUSH2 0x3DC JUMPI DUP1 PUSH4 0xC1F2E5F1 EQ PUSH2 0x407 JUMPI PUSH2 0x114 JUMP JUMPDEST DUP1 PUSH4 0xA09EDE07 EQ PUSH2 0x29D JUMPI DUP1 PUSH4 0xA6021ACE EQ PUSH2 0x2C8 JUMPI DUP1 PUSH4 0xA785A3D8 EQ PUSH2 0x2F3 JUMPI DUP1 PUSH4 0xA89AE4BA EQ PUSH2 0x31E JUMPI PUSH2 0x114 JUMP JUMPDEST DUP1 PUSH4 0x4CFD1BA5 GT PUSH2 0xDC JUMPI DUP1 PUSH4 0x4CFD1BA5 EQ PUSH2 0x1C8 JUMPI DUP1 PUSH4 0x51CFF8D9 EQ PUSH2 0x1F3 JUMPI DUP1 PUSH4 0x777B506F EQ PUSH2 0x21C JUMPI DUP1 PUSH4 0x86D02608 EQ PUSH2 0x247 JUMPI DUP1 PUSH4 0x9DD58B58 EQ PUSH2 0x272 JUMPI PUSH2 0x114 JUMP JUMPDEST DUP1 PUSH4 0xB2B4D9B EQ PUSH2 0x119 JUMPI DUP1 PUSH4 0x1B017FDE EQ PUSH2 0x135 JUMPI DUP1 PUSH4 0x20CA3C7F EQ PUSH2 0x15E JUMPI DUP1 PUSH4 0x2C4C3C1B EQ PUSH2 0x189 JUMPI PUSH2 0x114 JUMP JUMPDEST CALLDATASIZE PUSH2 0x114 JUMPI STOP JUMPDEST PUSH1 0x0 DUP1 REVERT JUMPDEST PUSH2 0x133 PUSH1 0x4 DUP1 CALLDATASIZE SUB DUP2 ADD SWAP1 PUSH2 0x12E SWAP2 SWAP1 PUSH2 0x19C1 JUMP JUMPDEST PUSH2 0x432 JUMP JUMPDEST STOP JUMPDEST CALLVALUE DUP1 ISZERO PUSH2 0x141 JUMPI PUSH1 0x0 DUP1 REVERT JUMPDEST POP PUSH2 0x15C PUSH1 0x4 DUP1 CALLDATASIZE SUB DUP2 ADD SWAP1 PUSH2 0x157 SWAP2 SWAP1 PUSH2 0x19C1 JUMP JUMPDEST PUSH2 0x447 JUMP JUMPDEST STOP JUMPDEST CALLVALUE DUP1 ISZERO PUSH2 0x16A JUMPI PUSH1 0x0 DUP1 REVERT JUMPDEST POP PUSH2 0x173 PUSH2 0x48B JUMP JUMPDEST PUSH1 0x40 MLOAD PUSH2 0x180 SWAP2 SWAP1 PUSH2 0x19FD JUMP JUMPDEST PUSH1 0x40 MLOAD DUP1 SWAP2 SUB SWAP1 RETURN JUMPDEST CALLVALUE DUP1 ISZERO PUSH2 0x195 JUMPI PUSH1 0x0 DUP1 REVERT JUMPDEST POP PUSH2 0x1B0 PUSH1 0x4 DUP1 CALLDATASIZE SUB DUP2 ADD SWAP1 PUSH2 0x1AB SWAP2 SWAP1 PUSH2 0x1A4E JUMP JUMPDEST PUSH2 0x4B1 JUMP JUMPDEST PUSH1 0x40 MLOAD PUSH2 0x1BF SWAP4 SWAP3 SWAP2 SWAP1 PUSH2 0x1A8A JUMP JUMPDEST PUSH1 0x40 MLOAD DUP1 SWAP2 SUB SWAP1 RETURN JUMPDEST CALLVALUE DUP1 ISZERO PUSH2 0x1D4 JUMPI PUSH1 0x0 DUP1 REVERT JUMPDEST POP PUSH2 0x1DD PUSH2 0x4FB JUMP JUMPDEST PUSH1 0x40 MLOAD PUSH2 0x1EA SWAP2 SWAP1 PUSH2 0x1AC1 JUMP JUMPDEST PUSH1 0x40 MLOAD DUP1 SWAP2 SUB SWAP1 RETURN JUMPDEST CALLVALUE DUP1 ISZERO PUSH2 0x1FF JUMPI PUSH1 0x0 DUP1 REVERT JUMPDEST POP PUSH2 0x21A PUSH1 0x4 DUP1 CALLDATASIZE SUB DUP2 ADD SWAP1 PUSH2 0x215 SWAP2 SWAP1 PUSH2 0x19C1 JUMP JUMPDEST PUSH2 0x501 JUMP JUMPDEST STOP JUMPDEST CALLVALUE DUP1 ISZERO PUSH2 0x228 JUMPI PUSH1 0x0 DUP1 REVERT JUMPDEST POP PUSH2 0x231 PUSH2 0x608 JUMP JUMPDEST PUSH1 0x40 MLOAD PUSH2 0x23E SWAP2 SWAP1 PUSH2 0x19FD JUMP JUMPDEST PUSH1 0x40 MLOAD DUP1 SWAP2 SUB SWAP1 RETURN JUMPDEST CALLVALUE DUP1 ISZERO PUSH2 0x253 JUMPI PUSH1 0x0 DUP1 REVERT JUMPDEST POP PUSH2 0x25C PUSH2 0x62E JUMP JUMPDEST PUSH1 0x40 MLOAD PUSH2 0x269 SWAP2 SWAP1 PUSH2 0x1AC1 JUMP JUMPDEST PUSH1 0x40 MLOAD DUP1 SWAP2 SUB SWAP1 RETURN JUMPDEST CALLVALUE DUP1 ISZERO PUSH2 0x27E JUMPI PUSH1 0x0 DUP1 REVERT JUMPDEST POP PUSH2 0x287 PUSH2 0x634 JUMP JUMPDEST PUSH1 0x40 MLOAD PUSH2 0x294 SWAP2 SWAP1 PUSH2 0x1AC1 JUMP JUMPDEST PUSH1 0x40 MLOAD DUP1 SWAP2 SUB SWAP1 RETURN JUMPDEST CALLVALUE DUP1 ISZERO PUSH2 0x2A9 JUMPI PUSH1 0x0 DUP1 REVERT JUMPDEST POP PUSH2 0x2B2 PUSH2 0x6D9 JUMP JUMPDEST PUSH1 0x40 MLOAD PUSH2 0x2BF SWAP2 SWAP1 PUSH2 0x1AC1 JUMP JUMPDEST PUSH1 0x40 MLOAD DUP1 SWAP2 SUB SWAP1 RETURN JUMPDEST CALLVALUE DUP1 ISZERO PUSH2 0x2D4 JUMPI PUSH1 0x0 DUP1 REVERT JUMPDEST POP PUSH2 0x2DD PUSH2 0x6DF JUMP JUMPDEST PUSH1 0x40 MLOAD PUSH2 0x2EA SWAP2 SWAP1 PUSH2 0x19FD JUMP JUMPDEST PUSH1 0x40 MLOAD DUP1 SWAP2 SUB SWAP1 RETURN JUMPDEST CALLVALUE DUP1 ISZERO PUSH2 0x2FF JUMPI PUSH1 0x0 DUP1 REVERT JUMPDEST POP PUSH2 0x308 PUSH2 0x705 JUMP JUMPDEST PUSH1 0x40 MLOAD PUSH2 0x315 SWAP2 SWAP1 PUSH2 0x19FD JUMP JUMPDEST PUSH1 0x40 MLOAD DUP1 SWAP2 SUB SWAP1 RETURN JUMPDEST CALLVALUE DUP1 ISZERO PUSH2 0x32A JUMPI PUSH1 0x0 DUP1 REVERT JUMPDEST POP PUSH2 0x333 PUSH2 0x729 JUMP JUMPDEST PUSH1 0x40 MLOAD PUSH2 0x340 SWAP2 SWAP1 PUSH2 0x19FD JUMP JUMPDEST PUSH1 0x40 MLOAD DUP1 SWAP2 SUB SWAP1 RETURN JUMPDEST CALLVALUE DUP1 ISZERO PUSH2 0x355 JUMPI PUSH1 0x0 DUP1 REVERT JUMPDEST POP PUSH2 0x35E PUSH2 0x74F JUMP JUMPDEST PUSH1 0x40 MLOAD PUSH2 0x36B SWAP2 SWAP1 PUSH2 0x19FD JUMP JUMPDEST PUSH1 0x40 MLOAD DUP1 SWAP2 SUB SWAP1 RETURN JUMPDEST CALLVALUE DUP1 ISZERO PUSH2 0x380 JUMPI PUSH1 0x0 DUP1 REVERT JUMPDEST POP PUSH2 0x39B PUSH1 0x4 DUP1 CALLDATASIZE SUB DUP2 ADD SWAP1 PUSH2 0x396 SWAP2 SWAP1 PUSH2 0x1A4E JUMP JUMPDEST PUSH2 0x775 JUMP JUMPDEST PUSH1 0x40 MLOAD PUSH2 0x3A8 SWAP2 SWAP1 PUSH2 0x19FD JUMP JUMPDEST PUSH1 0x40 MLOAD DUP1 SWAP2 SUB SWAP1 RETURN JUMPDEST CALLVALUE DUP1 ISZERO PUSH2 0x3BD JUMPI PUSH1 0x0 DUP1 REVERT JUMPDEST POP PUSH2 0x3C6 PUSH2 0x7B4 JUMP JUMPDEST PUSH1 0x40 MLOAD PUSH2 0x3D3 SWAP2 SWAP1 PUSH2 0x19FD JUMP JUMPDEST PUSH1 0x40 MLOAD DUP1 SWAP2 SUB SWAP1 RETURN JUMPDEST CALLVALUE DUP1 ISZERO PUSH2 0x3E8 JUMPI PUSH1 0x0 DUP1 REVERT JUMPDEST POP PUSH2 0x3F1 PUSH2 0x7DA JUMP JUMPDEST PUSH1 0x40 MLOAD PUSH2 0x3FE SWAP2 SWAP1 PUSH2 0x1AC1 JUMP JUMPDEST PUSH1 0x40 MLOAD DUP1 SWAP2 SUB SWAP1 RETURN JUMPDEST CALLVALUE DUP1 ISZERO PUSH2 0x413 JUMPI PUSH1 0x0 DUP1 REVERT JUMPDEST POP PUSH2 0x41C PUSH2 0x7FD JUMP JUMPDEST PUSH1 0x40 MLOAD PUSH2 0x429 SWAP2 SWAP1 PUSH2 0x1AC1 JUMP JUMPDEST PUSH1 0x40 MLOAD DUP1 SWAP2 SUB SWAP1 RETURN JUMPDEST PUSH2 0x43C CALLVALUE DUP3 PUSH2 0x974 JUMP JUMPDEST PUSH2 0x444 PUSH2 0xA1E JUMP JUMPDEST POP JUMP JUMPDEST DUP1 PUSH1 0x1 PUSH1 0x0 PUSH2 0x100 EXP DUP2 SLOAD DUP2 PUSH20 0xFFFFFFFFFFFFFFFFFFFFFFFFFFFFFFFFFFFFFFFF MUL NOT AND SWAP1 DUP4 PUSH20 0xFFFFFFFFFFFFFFFFFFFFFFFFFFFFFFFFFFFFFFFF AND MUL OR SWAP1 SSTORE POP POP JUMP JUMPDEST PUSH1 0x6 PUSH1 0x0 SWAP1 SLOAD SWAP1 PUSH2 0x100 EXP SWAP1 DIV PUSH20 0xFFFFFFFFFFFFFFFFFFFFFFFFFFFFFFFFFFFFFFFF AND DUP2 JUMP JUMPDEST PUSH1 0xC PUSH1 0x20 MSTORE DUP1 PUSH1 0x0 MSTORE PUSH1 0x40 PUSH1 0x0 KECCAK256 PUSH1 0x0 SWAP2 POP SWAP1 POP DUP1 PUSH1 0x0 ADD SLOAD SWAP1 DUP1 PUSH1 0x1 ADD PUSH1 0x0 SWAP1 SLOAD SWAP1 PUSH2 0x100 EXP SWAP1 DIV PUSH20 0xFFFFFFFFFFFFFFFFFFFFFFFFFFFFFFFFFFFFFFFF AND SWAP1 DUP1 PUSH1 0x2 ADD SLOAD SWAP1 POP DUP4 JUMP JUMPDEST PUSH1 0xF SLOAD DUP2 JUMP JUMPDEST PUSH1 0x0 DUP2 SWAP1 POP PUSH1 0x0 DUP2 PUSH20 0xFFFFFFFFFFFFFFFFFFFFFFFFFFFFFFFFFFFFFFFF AND PUSH4 0x70A08231 ADDRESS PUSH1 0x40 MLOAD DUP3 PUSH4 0xFFFFFFFF AND PUSH1 0xE0 SHL DUP2 MSTORE PUSH1 0x4 ADD PUSH2 0x541 SWAP2 SWAP1 PUSH2 0x19FD JUMP JUMPDEST PUSH1 0x20 PUSH1 0x40 MLOAD DUP1 DUP4 SUB DUP2 DUP7 GAS STATICCALL ISZERO DUP1 ISZERO PUSH2 0x55E JUMPI RETURNDATASIZE PUSH1 0x0 DUP1 RETURNDATACOPY RETURNDATASIZE PUSH1 0x0 REVERT JUMPDEST POP POP POP POP PUSH1 0x40 MLOAD RETURNDATASIZE PUSH1 0x1F NOT PUSH1 0x1F DUP3 ADD AND DUP3 ADD DUP1 PUSH1 0x40 MSTORE POP DUP2 ADD SWAP1 PUSH2 0x582 SWAP2 SWAP1 PUSH2 0x1AF1 JUMP JUMPDEST SWAP1 POP DUP2 PUSH20 0xFFFFFFFFFFFFFFFFFFFFFFFFFFFFFFFFFFFFFFFF AND PUSH4 0xA9059CBB CALLER DUP4 PUSH1 0x40 MLOAD DUP4 PUSH4 0xFFFFFFFF AND PUSH1 0xE0 SHL DUP2 MSTORE PUSH1 0x4 ADD PUSH2 0x5BF SWAP3 SWAP2 SWAP1 PUSH2 0x1B1E JUMP JUMPDEST PUSH1 0x20 PUSH1 0x40 MLOAD DUP1 DUP4 SUB DUP2 PUSH1 0x0 DUP8 GAS CALL ISZERO DUP1 ISZERO PUSH2 0x5DE JUMPI RETURNDATASIZE PUSH1 0x0 DUP1 RETURNDATACOPY RETURNDATASIZE PUSH1 0x0 REVERT JUMPDEST POP POP POP POP PUSH1 0x40 MLOAD RETURNDATASIZE PUSH1 0x1F NOT PUSH1 0x1F DUP3 ADD AND DUP3 ADD DUP1 PUSH1 0x40 MSTORE POP DUP2 ADD SWAP1 PUSH2 0x602 SWAP2 SWAP1 PUSH2 0x1B7F JUMP JUMPDEST POP POP POP POP JUMP JUMPDEST PUSH1 0x4 PUSH1 0x0 SWAP1 SLOAD SWAP1 PUSH2 0x100 EXP SWAP1 DIV PUSH20 0xFFFFFFFFFFFFFFFFFFFFFFFFFFFFFFFFFFFFFFFF AND DUP2 JUMP JUMPDEST PUSH1 0xE SLOAD DUP2 JUMP JUMPDEST PUSH1 0x0 PUSH1 0x9 PUSH1 0x0 SWAP1 SLOAD SWAP1 PUSH2 0x100 EXP SWAP1 DIV PUSH20 0xFFFFFFFFFFFFFFFFFFFFFFFFFFFFFFFFFFFFFFFF AND PUSH20 0xFFFFFFFFFFFFFFFFFFFFFFFFFFFFFFFFFFFFFFFF AND PUSH4 0x70A08231 ADDRESS PUSH1 0x40 MLOAD DUP3 PUSH4 0xFFFFFFFF AND PUSH1 0xE0 SHL DUP2 MSTORE PUSH1 0x4 ADD PUSH2 0x691 SWAP2 SWAP1 PUSH2 0x19FD JUMP JUMPDEST PUSH1 0x20 PUSH1 0x40 MLOAD DUP1 DUP4 SUB DUP2 PUSH1 0x0 DUP8 GAS CALL ISZERO DUP1 ISZERO PUSH2 0x6B0 JUMPI RETURNDATASIZE PUSH1 0x0 DUP1 RETURNDATACOPY RETURNDATASIZE PUSH1 0x0 REVERT JUMPDEST POP POP POP POP PUSH1 0x40 MLOAD RETURNDATASIZE PUSH1 0x1F NOT PUSH1 0x1F DUP3 ADD AND DUP3 ADD DUP1 PUSH1 0x40 MSTORE POP DUP2 ADD SWAP1 PUSH2 0x6D4 SWAP2 SWAP1 PUSH2 0x1AF1 JUMP JUMPDEST SWAP1 POP SWAP1 JUMP JUMPDEST PUSH1 0x10 SLOAD DUP2 JUMP JUMPDEST PUSH1 0x1 PUSH1 0x0 SWAP1 SLOAD SWAP1 PUSH2 0x100 EXP SWAP1 DIV PUSH20 0xFFFFFFFFFFFFFFFFFFFFFFFFFFFFFFFFFFFFFFFF AND DUP2 JUMP JUMPDEST PUSH1 0x0 DUP1 SLOAD SWAP1 PUSH2 0x100 EXP SWAP1 DIV PUSH20 0xFFFFFFFFFFFFFFFFFFFFFFFFFFFFFFFFFFFFFFFF AND DUP2 JUMP JUMPDEST PUSH1 0x3 PUSH1 0x0 SWAP1 SLOAD SWAP1 PUSH2 0x100 EXP SWAP1 DIV PUSH20 0xFFFFFFFFFFFFFFFFFFFFFFFFFFFFFFFFFFFFFFFF AND DUP2 JUMP JUMPDEST PUSH1 0x5 PUSH1 0x0 SWAP1 SLOAD SWAP1 PUSH2 0x100 EXP SWAP1 DIV PUSH20 0xFFFFFFFFFFFFFFFFFFFFFFFFFFFFFFFFFFFFFFFF AND DUP2 JUMP JUMPDEST PUSH1 0x7 DUP2 DUP2 SLOAD DUP2 LT PUSH2 0x785 JUMPI PUSH1 0x0 DUP1 REVERT JUMPDEST SWAP1 PUSH1 0x0 MSTORE PUSH1 0x20 PUSH1 0x0 KECCAK256 ADD PUSH1 0x0 SWAP2 POP SLOAD SWAP1 PUSH2 0x100 EXP SWAP1 DIV PUSH20 0xFFFFFFFFFFFFFFFFFFFFFFFFFFFFFFFFFFFFFFFF AND DUP2 JUMP JUMPDEST PUSH1 0x2 PUSH1 0x0 SWAP1 SLOAD SWAP1 PUSH2 0x100 EXP SWAP1 DIV PUSH20 0xFFFFFFFFFFFFFFFFFFFFFFFFFFFFFFFFFFFFFFFF AND DUP2 JUMP JUMPDEST PUSH1 0x0 PUSH1 0xC PUSH1 0x0 PUSH1 0xD DUP1 SLOAD SWAP1 POP DUP2 MSTORE PUSH1 0x20 ADD SWAP1 DUP2 MSTORE PUSH1 0x20 ADD PUSH1 0x0 KECCAK256 PUSH1 0x2 ADD SLOAD SWAP1 POP SWAP1 JUMP JUMPDEST PUSH1 0x0 DUP1 PUSH1 0x1 PUSH1 0x0 SWAP1 SLOAD SWAP1 PUSH2 0x100 EXP SWAP1 DIV PUSH20 0xFFFFFFFFFFFFFFFFFFFFFFFFFFFFFFFFFFFFFFFF AND PUSH20 0xFFFFFFFFFFFFFFFFFFFFFFFFFFFFFFFFFFFFFFFF AND PUSH4 0x18160DDD PUSH1 0x40 MLOAD DUP2 PUSH4 0xFFFFFFFF AND PUSH1 0xE0 SHL DUP2 MSTORE PUSH1 0x4 ADD PUSH1 0x20 PUSH1 0x40 MLOAD DUP1 DUP4 SUB DUP2 DUP7 GAS STATICCALL ISZERO DUP1 ISZERO PUSH2 0x86D JUMPI RETURNDATASIZE PUSH1 0x0 DUP1 RETURNDATACOPY RETURNDATASIZE PUSH1 0x0 REVERT JUMPDEST POP POP POP POP PUSH1 0x40 MLOAD RETURNDATASIZE PUSH1 0x1F NOT PUSH1 0x1F DUP3 ADD AND DUP3 ADD DUP1 PUSH1 0x40 MSTORE POP DUP2 ADD SWAP1 PUSH2 0x891 SWAP2 SWAP1 PUSH2 0x1AF1 JUMP JUMPDEST SWAP1 POP PUSH1 0x0 PUSH1 0x1 PUSH1 0x0 SWAP1 SLOAD SWAP1 PUSH2 0x100 EXP SWAP1 DIV PUSH20 0xFFFFFFFFFFFFFFFFFFFFFFFFFFFFFFFFFFFFFFFF AND PUSH20 0xFFFFFFFFFFFFFFFFFFFFFFFFFFFFFFFFFFFFFFFF AND PUSH4 0x70A08231 PUSH1 0x2 PUSH1 0x0 SWAP1 SLOAD SWAP1 PUSH2 0x100 EXP SWAP1 DIV PUSH20 0xFFFFFFFFFFFFFFFFFFFFFFFFFFFFFFFFFFFFFFFF AND PUSH1 0x40 MLOAD DUP3 PUSH4 0xFFFFFFFF AND PUSH1 0xE0 SHL DUP2 MSTORE PUSH1 0x4 ADD PUSH2 0x912 SWAP2 SWAP1 PUSH2 0x19FD JUMP JUMPDEST PUSH1 0x20 PUSH1 0x40 MLOAD DUP1 DUP4 SUB DUP2 DUP7 GAS STATICCALL ISZERO DUP1 ISZERO PUSH2 0x92F JUMPI RETURNDATASIZE PUSH1 0x0 DUP1 RETURNDATACOPY RETURNDATASIZE PUSH1 0x0 REVERT JUMPDEST POP POP POP POP PUSH1 0x40 MLOAD RETURNDATASIZE PUSH1 0x1F NOT PUSH1 0x1F DUP3 ADD AND DUP3 ADD DUP1 PUSH1 0x40 MSTORE POP DUP2 ADD SWAP1 PUSH2 0x953 SWAP2 SWAP1 PUSH2 0x1AF1 JUMP JUMPDEST SWAP1 POP DUP2 PUSH1 0x64 DUP3 PUSH2 0x963 SWAP2 SWAP1 PUSH2 0x1BDB JUMP JUMPDEST PUSH2 0x96D SWAP2 SWAP1 PUSH2 0x1C4C JUMP JUMPDEST SWAP3 POP POP POP SWAP1 JUMP JUMPDEST PUSH1 0x0 PUSH1 0xD DUP1 SLOAD SWAP1 POP SWAP1 POP PUSH1 0x0 PUSH1 0xC PUSH1 0x0 PUSH1 0xD DUP1 SLOAD SWAP1 POP DUP2 MSTORE PUSH1 0x20 ADD SWAP1 DUP2 MSTORE PUSH1 0x20 ADD PUSH1 0x0 KECCAK256 SWAP1 POP DUP2 DUP2 PUSH1 0x0 ADD DUP2 SWAP1 SSTORE POP DUP3 DUP2 PUSH1 0x1 ADD PUSH1 0x0 PUSH2 0x100 EXP DUP2 SLOAD DUP2 PUSH20 0xFFFFFFFFFFFFFFFFFFFFFFFFFFFFFFFFFFFFFFFF MUL NOT AND SWAP1 DUP4 PUSH20 0xFFFFFFFFFFFFFFFFFFFFFFFFFFFFFFFFFFFFFFFF AND MUL OR SWAP1 SSTORE POP DUP4 DUP2 PUSH1 0x2 ADD DUP2 SWAP1 SSTORE POP PUSH1 0xD DUP3 SWAP1 DUP1 PUSH1 0x1 DUP2 SLOAD ADD DUP1 DUP3 SSTORE DUP1 SWAP2 POP POP PUSH1 0x1 SWAP1 SUB SWAP1 PUSH1 0x0 MSTORE PUSH1 0x20 PUSH1 0x0 KECCAK256 ADD PUSH1 0x0 SWAP1 SWAP2 SWAP1 SWAP2 SWAP1 SWAP2 POP SSTORE POP POP POP POP JUMP JUMPDEST PUSH1 0x0 CALLVALUE SWAP1 POP PUSH1 0x0 PUSH1 0xF SLOAD GT ISZERO PUSH2 0xA70 JUMPI PUSH1 0x0 SELFBALANCE SWAP1 POP PUSH2 0xA3E PUSH1 0xF SLOAD PUSH2 0xD46 JUMP JUMPDEST PUSH1 0x0 SELFBALANCE SWAP1 POP PUSH1 0x0 DUP2 DUP4 PUSH2 0xA51 SWAP2 SWAP1 PUSH2 0x1C7D JUMP JUMPDEST SWAP1 POP DUP1 PUSH1 0xF PUSH1 0x0 DUP3 DUP3 SLOAD PUSH2 0xA65 SWAP2 SWAP1 PUSH2 0x1C7D JUMP JUMPDEST SWAP3 POP POP DUP2 SWAP1 SSTORE POP POP POP POP JUMPDEST PUSH1 0x0 PUSH1 0x10 SLOAD GT ISZERO PUSH2 0xABE JUMPI PUSH1 0x0 SELFBALANCE SWAP1 POP PUSH2 0xA8B PUSH1 0x10 SLOAD PUSH2 0xE1A JUMP JUMPDEST POP PUSH1 0x0 SELFBALANCE SWAP1 POP PUSH1 0x0 DUP2 DUP4 PUSH2 0xA9F SWAP2 SWAP1 PUSH2 0x1C7D JUMP JUMPDEST SWAP1 POP DUP1 PUSH1 0x10 PUSH1 0x0 DUP3 DUP3 SLOAD PUSH2 0xAB3 SWAP2 SWAP1 PUSH2 0x1C7D JUMP JUMPDEST SWAP3 POP POP DUP2 SWAP1 SSTORE POP POP POP POP JUMPDEST PUSH1 0x0 PUSH1 0xC PUSH1 0x0 PUSH1 0x1 PUSH1 0xD DUP1 SLOAD SWAP1 POP PUSH2 0xAD6 SWAP2 SWAP1 PUSH2 0x1C7D JUMP JUMPDEST DUP2 MSTORE PUSH1 0x20 ADD SWAP1 DUP2 MSTORE PUSH1 0x20 ADD PUSH1 0x0 KECCAK256 PUSH1 0x1 ADD PUSH1 0x0 SWAP1 SLOAD SWAP1 PUSH2 0x100 EXP SWAP1 DIV PUSH20 0xFFFFFFFFFFFFFFFFFFFFFFFFFFFFFFFFFFFFFFFF AND SWAP1 POP PUSH2 0xB13 DUP2 PUSH2 0x12F5 JUMP JUMPDEST PUSH1 0x8 PUSH1 0x0 SWAP1 SLOAD SWAP1 PUSH2 0x100 EXP SWAP1 DIV PUSH20 0xFFFFFFFFFFFFFFFFFFFFFFFFFFFFFFFFFFFFFFFF AND PUSH20 0xFFFFFFFFFFFFFFFFFFFFFFFFFFFFFFFFFFFFFFFF AND PUSH4 0x6A627842 DUP3 PUSH1 0x40 MLOAD DUP3 PUSH4 0xFFFFFFFF AND PUSH1 0xE0 SHL DUP2 MSTORE PUSH1 0x4 ADD PUSH2 0xB6E SWAP2 SWAP1 PUSH2 0x19FD JUMP JUMPDEST PUSH1 0x0 PUSH1 0x40 MLOAD DUP1 DUP4 SUB DUP2 PUSH1 0x0 DUP8 DUP1 EXTCODESIZE ISZERO DUP1 ISZERO PUSH2 0xB88 JUMPI PUSH1 0x0 DUP1 REVERT JUMPDEST POP GAS CALL ISZERO DUP1 ISZERO PUSH2 0xB9C JUMPI RETURNDATASIZE PUSH1 0x0 DUP1 RETURNDATACOPY RETURNDATASIZE PUSH1 0x0 REVERT JUMPDEST POP POP POP POP PUSH1 0x0 PUSH2 0xBAA PUSH2 0x7FD JUMP JUMPDEST SWAP1 POP PUSH32 0xCF34EF537AC33EE1AC626CA1587A0A7E8E51561E5514F8CB36AFA1C5102B3BAB PUSH1 0x40 MLOAD PUSH2 0xBD9 SWAP1 PUSH2 0x1D0E JUMP JUMPDEST PUSH1 0x40 MLOAD DUP1 SWAP2 SUB SWAP1 LOG1 PUSH32 0xB8A00D6D8CA1BE30BFEC34D8F97E55F0F0FD9EEB7FB46E030516363D4CFE1AD6 DUP3 PUSH1 0x40 MLOAD PUSH2 0xC10 SWAP2 SWAP1 PUSH2 0x19FD JUMP JUMPDEST PUSH1 0x40 MLOAD DUP1 SWAP2 SUB SWAP1 LOG1 PUSH32 0xCF34EF537AC33EE1AC626CA1587A0A7E8E51561E5514F8CB36AFA1C5102B3BAB PUSH1 0x40 MLOAD PUSH2 0xC45 SWAP1 PUSH2 0x1D7A JUMP JUMPDEST PUSH1 0x40 MLOAD DUP1 SWAP2 SUB SWAP1 LOG1 PUSH32 0x909C57D5C6AC08245CF2A6DE3900E2B868513FA59099B92B27D8DB823D92DF9C DUP2 PUSH1 0x40 MLOAD PUSH2 0xC7C SWAP2 SWAP1 PUSH2 0x1AC1 JUMP JUMPDEST PUSH1 0x40 MLOAD DUP1 SWAP2 SUB SWAP1 LOG1 PUSH1 0x14 DUP2 GT ISZERO PUSH2 0xCE2 JUMPI PUSH1 0x0 SELFBALANCE SWAP1 POP PUSH2 0xC9B CALLVALUE PUSH2 0xD46 JUMP JUMPDEST PUSH1 0x0 SELFBALANCE SWAP1 POP PUSH1 0x0 DUP2 DUP4 PUSH2 0xCAE SWAP2 SWAP1 PUSH2 0x1C7D JUMP JUMPDEST SWAP1 POP PUSH1 0x0 DUP2 DUP8 PUSH2 0xCBE SWAP2 SWAP1 PUSH2 0x1C7D JUMP JUMPDEST SWAP1 POP DUP1 PUSH1 0xF PUSH1 0x0 DUP3 DUP3 SLOAD PUSH2 0xCD2 SWAP2 SWAP1 PUSH2 0x1D9A JUMP JUMPDEST SWAP3 POP POP DUP2 SWAP1 SSTORE POP POP POP POP POP PUSH2 0xD41 JUMP JUMPDEST PUSH1 0x0 SELFBALANCE SWAP1 POP PUSH2 0xCFD CALLVALUE PUSH1 0x10 SLOAD PUSH2 0xCF8 SWAP2 SWAP1 PUSH2 0x1D9A JUMP JUMPDEST PUSH2 0xE1A JUMP JUMPDEST POP PUSH1 0x0 SELFBALANCE SWAP1 POP PUSH1 0x0 DUP2 DUP4 PUSH2 0xD11 SWAP2 SWAP1 PUSH2 0x1C7D JUMP JUMPDEST SWAP1 POP PUSH1 0x0 DUP2 DUP8 PUSH2 0xD21 SWAP2 SWAP1 PUSH2 0x1C7D JUMP JUMPDEST SWAP1 POP DUP1 PUSH1 0x10 PUSH1 0x0 DUP3 DUP3 SLOAD PUSH2 0xD35 SWAP2 SWAP1 PUSH2 0x1D9A JUMP JUMPDEST SWAP3 POP POP DUP2 SWAP1 SSTORE POP POP POP POP POP JUMPDEST POP POP POP JUMP JUMPDEST PUSH1 0x0 PUSH2 0xD51 DUP3 PUSH2 0x15E5 JUMP JUMPDEST SWAP1 POP PUSH1 0x1 PUSH1 0x0 SWAP1 SLOAD SWAP1 PUSH2 0x100 EXP SWAP1 DIV PUSH20 0xFFFFFFFFFFFFFFFFFFFFFFFFFFFFFFFFFFFFFFFF AND PUSH20 0xFFFFFFFFFFFFFFFFFFFFFFFFFFFFFFFFFFFFFFFF AND PUSH4 0x9DC29FAC CALLER DUP4 PUSH1 0x40 MLOAD DUP4 PUSH4 0xFFFFFFFF AND PUSH1 0xE0 SHL DUP2 MSTORE PUSH1 0x4 ADD PUSH2 0xDB0 SWAP3 SWAP2 SWAP1 PUSH2 0x1B1E JUMP JUMPDEST PUSH1 0x0 PUSH1 0x40 MLOAD DUP1 DUP4 SUB DUP2 PUSH1 0x0 DUP8 DUP1 EXTCODESIZE ISZERO DUP1 ISZERO PUSH2 0xDCA JUMPI PUSH1 0x0 DUP1 REVERT JUMPDEST POP GAS CALL SWAP3 POP POP POP DUP1 ISZERO PUSH2 0xDDB JUMPI POP PUSH1 0x1 JUMPDEST ISZERO PUSH2 0xE16 JUMPI PUSH32 0xCF34EF537AC33EE1AC626CA1587A0A7E8E51561E5514F8CB36AFA1C5102B3BAB PUSH1 0x40 MLOAD PUSH2 0xE0D SWAP1 PUSH2 0x1E1A JUMP JUMPDEST PUSH1 0x40 MLOAD DUP1 SWAP2 SUB SWAP1 LOG1 JUMPDEST POP POP JUMP JUMPDEST PUSH1 0x0 DUP1 PUSH1 0x0 PUSH1 0x1 PUSH1 0x0 SWAP1 SLOAD SWAP1 PUSH2 0x100 EXP SWAP1 DIV PUSH20 0xFFFFFFFFFFFFFFFFFFFFFFFFFFFFFFFFFFFFFFFF AND PUSH20 0xFFFFFFFFFFFFFFFFFFFFFFFFFFFFFFFFFFFFFFFF AND PUSH4 0x70A08231 ADDRESS PUSH1 0x40 MLOAD DUP3 PUSH4 0xFFFFFFFF AND PUSH1 0xE0 SHL DUP2 MSTORE PUSH1 0x4 ADD PUSH2 0xE7A SWAP2 SWAP1 PUSH2 0x19FD JUMP JUMPDEST PUSH1 0x20 PUSH1 0x40 MLOAD DUP1 DUP4 SUB DUP2 DUP7 GAS STATICCALL ISZERO DUP1 ISZERO PUSH2 0xE97 JUMPI RETURNDATASIZE PUSH1 0x0 DUP1 RETURNDATACOPY RETURNDATASIZE PUSH1 0x0 REVERT JUMPDEST POP POP POP POP PUSH1 0x40 MLOAD RETURNDATASIZE PUSH1 0x1F NOT PUSH1 0x1F DUP3 ADD AND DUP3 ADD DUP1 PUSH1 0x40 MSTORE POP DUP2 ADD SWAP1 PUSH2 0xEBB SWAP2 SWAP1 PUSH2 0x1AF1 JUMP JUMPDEST SWAP1 POP PUSH1 0x0 PUSH1 0x64 PUSH1 0x69 PUSH1 0xA PUSH1 0x0 SWAP1 SLOAD SWAP1 PUSH2 0x100 EXP SWAP1 DIV PUSH20 0xFFFFFFFFFFFFFFFFFFFFFFFFFFFFFFFFFFFFFFFF AND PUSH20 0xFFFFFFFFFFFFFFFFFFFFFFFFFFFFFFFFFFFFFFFF AND PUSH4 0x3AC35585 PUSH1 0x0 DUP1 SLOAD SWAP1 PUSH2 0x100 EXP SWAP1 DIV PUSH20 0xFFFFFFFFFFFFFFFFFFFFFFFFFFFFFFFFFFFFFFFF AND DUP10 PUSH1 0x40 MLOAD DUP4 PUSH4 0xFFFFFFFF AND PUSH1 0xE0 SHL DUP2 MSTORE PUSH1 0x4 ADD PUSH2 0xF40 SWAP3 SWAP2 SWAP1 PUSH2 0x1B1E JUMP JUMPDEST PUSH1 0x20 PUSH1 0x40 MLOAD DUP1 DUP4 SUB DUP2 DUP7 GAS STATICCALL ISZERO DUP1 ISZERO PUSH2 0xF5D JUMPI RETURNDATASIZE PUSH1 0x0 DUP1 RETURNDATACOPY RETURNDATASIZE PUSH1 0x0 REVERT JUMPDEST POP POP POP POP PUSH1 0x40 MLOAD RETURNDATASIZE PUSH1 0x1F NOT PUSH1 0x1F DUP3 ADD AND DUP3 ADD DUP1 PUSH1 0x40 MSTORE POP DUP2 ADD SWAP1 PUSH2 0xF81 SWAP2 SWAP1 PUSH2 0x1AF1 JUMP JUMPDEST PUSH2 0xF8B SWAP2 SWAP1 PUSH2 0x1BDB JUMP JUMPDEST PUSH2 0xF95 SWAP2 SWAP1 PUSH2 0x1C4C JUMP JUMPDEST SWAP1 POP DUP2 DUP2 GT ISZERO PUSH2 0x10D8 JUMPI PUSH1 0x1 PUSH1 0x0 SWAP1 SLOAD SWAP1 PUSH2 0x100 EXP SWAP1 DIV PUSH20 0xFFFFFFFFFFFFFFFFFFFFFFFFFFFFFFFFFFFFFFFF AND PUSH20 0xFFFFFFFFFFFFFFFFFFFFFFFFFFFFFFFFFFFFFFFF AND PUSH4 0x96FE8349 DUP4 DUP4 PUSH2 0xFE9 SWAP2 SWAP1 PUSH2 0x1C7D JUMP JUMPDEST ADDRESS PUSH1 0x40 MLOAD DUP4 PUSH4 0xFFFFFFFF AND PUSH1 0xE0 SHL DUP2 MSTORE PUSH1 0x4 ADD PUSH2 0x1007 SWAP3 SWAP2 SWAP1 PUSH2 0x1E3A JUMP JUMPDEST PUSH1 0x0 PUSH1 0x40 MLOAD DUP1 DUP4 SUB DUP2 PUSH1 0x0 DUP8 DUP1 EXTCODESIZE ISZERO DUP1 ISZERO PUSH2 0x1021 JUMPI PUSH1 0x0 DUP1 REVERT JUMPDEST POP GAS CALL ISZERO DUP1 ISZERO PUSH2 0x1035 JUMPI RETURNDATASIZE PUSH1 0x0 DUP1 RETURNDATACOPY RETURNDATASIZE PUSH1 0x0 REVERT JUMPDEST POP POP POP POP PUSH1 0x1 PUSH1 0x0 SWAP1 SLOAD SWAP1 PUSH2 0x100 EXP SWAP1 DIV PUSH20 0xFFFFFFFFFFFFFFFFFFFFFFFFFFFFFFFFFFFFFFFF AND PUSH20 0xFFFFFFFFFFFFFFFFFFFFFFFFFFFFFFFFFFFFFFFF AND PUSH4 0x70A08231 ADDRESS PUSH1 0x40 MLOAD DUP3 PUSH4 0xFFFFFFFF AND PUSH1 0xE0 SHL DUP2 MSTORE PUSH1 0x4 ADD PUSH2 0x1094 SWAP2 SWAP1 PUSH2 0x19FD JUMP JUMPDEST PUSH1 0x20 PUSH1 0x40 MLOAD DUP1 DUP4 SUB DUP2 DUP7 GAS STATICCALL ISZERO DUP1 ISZERO PUSH2 0x10B1 JUMPI RETURNDATASIZE PUSH1 0x0 DUP1 RETURNDATACOPY RETURNDATASIZE PUSH1 0x0 REVERT JUMPDEST POP POP POP POP PUSH1 0x40 MLOAD RETURNDATASIZE PUSH1 0x1F NOT PUSH1 0x1F DUP3 ADD AND DUP3 ADD DUP1 PUSH1 0x40 MSTORE POP DUP2 ADD SWAP1 PUSH2 0x10D5 SWAP2 SWAP1 PUSH2 0x1AF1 JUMP JUMPDEST SWAP2 POP JUMPDEST PUSH1 0xB PUSH1 0x0 SWAP1 SLOAD SWAP1 PUSH2 0x100 EXP SWAP1 DIV PUSH20 0xFFFFFFFFFFFFFFFFFFFFFFFFFFFFFFFFFFFFFFFF AND PUSH20 0xFFFFFFFFFFFFFFFFFFFFFFFFFFFFFFFFFFFFFFFF AND PUSH4 0xF305D719 DUP7 ADDRESS DUP5 PUSH1 0x69 PUSH1 0x5F DUP8 PUSH2 0x1128 SWAP2 SWAP1 PUSH2 0x1BDB JUMP JUMPDEST PUSH2 0x1132 SWAP2 SWAP1 PUSH2 0x1C4C JUMP JUMPDEST PUSH1 0x64 PUSH1 0x5F DUP13 PUSH2 0x1141 SWAP2 SWAP1 PUSH2 0x1BDB JUMP JUMPDEST PUSH2 0x114B SWAP2 SWAP1 PUSH2 0x1C4C JUMP JUMPDEST ADDRESS PUSH32 0xFFFFFFFFFFFFFFFFFFFFFFFFFFFFFFFFFFFFFFFFFFFFFFFFFFFFFFFFFFFFFFFF PUSH1 0x40 MLOAD DUP9 PUSH4 0xFFFFFFFF AND PUSH1 0xE0 SHL DUP2 MSTORE PUSH1 0x4 ADD PUSH2 0x118E SWAP7 SWAP6 SWAP5 SWAP4 SWAP3 SWAP2 SWAP1 PUSH2 0x1E63 JUMP JUMPDEST PUSH1 0x60 PUSH1 0x40 MLOAD DUP1 DUP4 SUB DUP2 DUP6 DUP9 GAS CALL SWAP4 POP POP POP POP DUP1 ISZERO PUSH2 0x11CA JUMPI POP PUSH1 0x40 MLOAD RETURNDATASIZE PUSH1 0x1F NOT PUSH1 0x1F DUP3 ADD AND DUP3 ADD DUP1 PUSH1 0x40 MSTORE POP DUP2 ADD SWAP1 PUSH2 0x11C7 SWAP2 SWAP1 PUSH2 0x1EC4 JUMP JUMPDEST PUSH1 0x1 JUMPDEST PUSH2 0x1208 JUMPI PUSH32 0xCF34EF537AC33EE1AC626CA1587A0A7E8E51561E5514F8CB36AFA1C5102B3BAB PUSH1 0x40 MLOAD PUSH2 0x11FB SWAP1 PUSH2 0x1F63 JUMP JUMPDEST PUSH1 0x40 MLOAD DUP1 SWAP2 SUB SWAP1 LOG1 PUSH2 0x12EA JUMP JUMPDEST POP POP POP PUSH32 0xCF34EF537AC33EE1AC626CA1587A0A7E8E51561E5514F8CB36AFA1C5102B3BAB PUSH1 0x40 MLOAD PUSH2 0x1238 SWAP1 PUSH2 0x1FCF JUMP JUMPDEST PUSH1 0x40 MLOAD DUP1 SWAP2 SUB SWAP1 LOG1 PUSH1 0x1 PUSH1 0x0 SWAP1 SLOAD SWAP1 PUSH2 0x100 EXP SWAP1 DIV PUSH20 0xFFFFFFFFFFFFFFFFFFFFFFFFFFFFFFFFFFFFFFFF AND PUSH20 0xFFFFFFFFFFFFFFFFFFFFFFFFFFFFFFFFFFFFFFFF AND PUSH4 0x70A08231 ADDRESS PUSH1 0x40 MLOAD DUP3 PUSH4 0xFFFFFFFF AND PUSH1 0xE0 SHL DUP2 MSTORE PUSH1 0x4 ADD PUSH2 0x129B SWAP2 SWAP1 PUSH2 0x19FD JUMP JUMPDEST PUSH1 0x20 PUSH1 0x40 MLOAD DUP1 DUP4 SUB DUP2 DUP7 GAS STATICCALL ISZERO DUP1 ISZERO PUSH2 0x12B8 JUMPI RETURNDATASIZE PUSH1 0x0 DUP1 RETURNDATACOPY RETURNDATASIZE PUSH1 0x0 REVERT JUMPDEST POP POP POP POP PUSH1 0x40 MLOAD RETURNDATASIZE PUSH1 0x1F NOT PUSH1 0x1F DUP3 ADD AND DUP3 ADD DUP1 PUSH1 0x40 MSTORE POP DUP2 ADD SWAP1 PUSH2 0x12DC SWAP2 SWAP1 PUSH2 0x1AF1 JUMP JUMPDEST DUP3 PUSH2 0x12E7 SWAP2 SWAP1 PUSH2 0x1C7D JUMP JUMPDEST SWAP3 POP JUMPDEST DUP3 SWAP4 POP POP POP POP SWAP2 SWAP1 POP JUMP JUMPDEST PUSH1 0x0 PUSH1 0xC PUSH1 0x0 PUSH1 0x1 PUSH1 0xD DUP1 SLOAD SWAP1 POP PUSH2 0x130D SWAP2 SWAP1 PUSH2 0x1C7D JUMP JUMPDEST DUP2 MSTORE PUSH1 0x20 ADD SWAP1 DUP2 MSTORE PUSH1 0x20 ADD PUSH1 0x0 KECCAK256 PUSH1 0x2 ADD SLOAD SWAP1 POP PUSH1 0x0 DUP2 SUB ISZERO PUSH2 0x15E1 JUMPI PUSH1 0xA PUSH1 0x0 SWAP1 SLOAD SWAP1 PUSH2 0x100 EXP SWAP1 DIV PUSH20 0xFFFFFFFFFFFFFFFFFFFFFFFFFFFFFFFFFFFFFFFF AND PUSH20 0xFFFFFFFFFFFFFFFFFFFFFFFFFFFFFFFFFFFFFFFF AND PUSH4 0x3AC35585 PUSH1 0x0 DUP1 SLOAD SWAP1 PUSH2 0x100 EXP SWAP1 DIV PUSH20 0xFFFFFFFFFFFFFFFFFFFFFFFFFFFFFFFFFFFFFFFF AND DUP4 PUSH1 0x40 MLOAD DUP4 PUSH4 0xFFFFFFFF AND PUSH1 0xE0 SHL DUP2 MSTORE PUSH1 0x4 ADD PUSH2 0x13A7 SWAP3 SWAP2 SWAP1 PUSH2 0x1B1E JUMP JUMPDEST PUSH1 0x20 PUSH1 0x40 MLOAD DUP1 DUP4 SUB DUP2 DUP7 GAS STATICCALL SWAP3 POP POP POP DUP1 ISZERO PUSH2 0x13E1 JUMPI POP PUSH1 0x40 MLOAD RETURNDATASIZE PUSH1 0x1F NOT PUSH1 0x1F DUP3 ADD AND DUP3 ADD DUP1 PUSH1 0x40 MSTORE POP DUP2 ADD SWAP1 PUSH2 0x13DE SWAP2 SWAP1 PUSH2 0x1AF1 JUMP JUMPDEST PUSH1 0x1 JUMPDEST PUSH2 0x141F JUMPI PUSH32 0xCF34EF537AC33EE1AC626CA1587A0A7E8E51561E5514F8CB36AFA1C5102B3BAB PUSH1 0x40 MLOAD PUSH2 0x1412 SWAP1 PUSH2 0x203B JUMP JUMPDEST PUSH1 0x40 MLOAD DUP1 SWAP2 SUB SWAP1 LOG1 PUSH2 0x15E0 JUMP JUMPDEST POP PUSH1 0x0 PUSH1 0xA PUSH1 0x0 SWAP1 SLOAD SWAP1 PUSH2 0x100 EXP SWAP1 DIV PUSH20 0xFFFFFFFFFFFFFFFFFFFFFFFFFFFFFFFFFFFFFFFF AND PUSH20 0xFFFFFFFFFFFFFFFFFFFFFFFFFFFFFFFFFFFFFFFF AND PUSH4 0x3AC35585 PUSH1 0x0 DUP1 SLOAD SWAP1 PUSH2 0x100 EXP SWAP1 DIV PUSH20 0xFFFFFFFFFFFFFFFFFFFFFFFFFFFFFFFFFFFFFFFF AND DUP5 PUSH1 0x40 MLOAD DUP4 PUSH4 0xFFFFFFFF AND PUSH1 0xE0 SHL DUP2 MSTORE PUSH1 0x4 ADD PUSH2 0x149F SWAP3 SWAP2 SWAP1 PUSH2 0x1B1E JUMP JUMPDEST PUSH1 0x20 PUSH1 0x40 MLOAD DUP1 DUP4 SUB DUP2 DUP7 GAS STATICCALL ISZERO DUP1 ISZERO PUSH2 0x14BC JUMPI RETURNDATASIZE PUSH1 0x0 DUP1 RETURNDATACOPY RETURNDATASIZE PUSH1 0x0 REVERT JUMPDEST POP POP POP POP PUSH1 0x40 MLOAD RETURNDATASIZE PUSH1 0x1F NOT PUSH1 0x1F DUP3 ADD AND DUP3 ADD DUP1 PUSH1 0x40 MSTORE POP DUP2 ADD SWAP1 PUSH2 0x14E0 SWAP2 SWAP1 PUSH2 0x1AF1 JUMP JUMPDEST SWAP1 POP PUSH1 0x1 PUSH1 0x0 SWAP1 SLOAD SWAP1 PUSH2 0x100 EXP SWAP1 DIV PUSH20 0xFFFFFFFFFFFFFFFFFFFFFFFFFFFFFFFFFFFFFFFF AND PUSH20 0xFFFFFFFFFFFFFFFFFFFFFFFFFFFFFFFFFFFFFFFF AND PUSH4 0x96FE8349 DUP3 DUP6 PUSH1 0x40 MLOAD DUP4 PUSH4 0xFFFFFFFF AND PUSH1 0xE0 SHL DUP2 MSTORE PUSH1 0x4 ADD PUSH2 0x153F SWAP3 SWAP2 SWAP1 PUSH2 0x1E3A JUMP JUMPDEST PUSH1 0x0 PUSH1 0x40 MLOAD DUP1 DUP4 SUB DUP2 PUSH1 0x0 DUP8 DUP1 EXTCODESIZE ISZERO DUP1 ISZERO PUSH2 0x1559 JUMPI PUSH1 0x0 DUP1 REVERT JUMPDEST POP GAS CALL SWAP3 POP POP POP DUP1 ISZERO PUSH2 0x156A JUMPI POP PUSH1 0x1 JUMPDEST PUSH2 0x15A8 JUMPI PUSH32 0xCF34EF537AC33EE1AC626CA1587A0A7E8E51561E5514F8CB36AFA1C5102B3BAB PUSH1 0x40 MLOAD PUSH2 0x159B SWAP1 PUSH2 0x20CD JUMP JUMPDEST PUSH1 0x40 MLOAD DUP1 SWAP2 SUB SWAP1 LOG1 PUSH2 0x15DE JUMP JUMPDEST PUSH32 0xCF34EF537AC33EE1AC626CA1587A0A7E8E51561E5514F8CB36AFA1C5102B3BAB PUSH1 0x40 MLOAD PUSH2 0x15D5 SWAP1 PUSH2 0x2139 JUMP JUMPDEST PUSH1 0x40 MLOAD DUP1 SWAP2 SUB SWAP1 LOG1 JUMPDEST POP JUMPDEST JUMPDEST POP POP JUMP JUMPDEST PUSH1 0x0 DUP1 PUSH1 0x1 PUSH1 0x0 SWAP1 SLOAD SWAP1 PUSH2 0x100 EXP SWAP1 DIV PUSH20 0xFFFFFFFFFFFFFFFFFFFFFFFFFFFFFFFFFFFFFFFF AND PUSH20 0xFFFFFFFFFFFFFFFFFFFFFFFFFFFFFFFFFFFFFFFF AND PUSH4 0x70A08231 ADDRESS PUSH1 0x40 MLOAD DUP3 PUSH4 0xFFFFFFFF AND PUSH1 0xE0 SHL DUP2 MSTORE PUSH1 0x4 ADD PUSH2 0x1643 SWAP2 SWAP1 PUSH2 0x19FD JUMP JUMPDEST PUSH1 0x20 PUSH1 0x40 MLOAD DUP1 DUP4 SUB DUP2 DUP7 GAS STATICCALL ISZERO DUP1 ISZERO PUSH2 0x1660 JUMPI RETURNDATASIZE PUSH1 0x0 DUP1 RETURNDATACOPY RETURNDATASIZE PUSH1 0x0 REVERT JUMPDEST POP POP POP POP PUSH1 0x40 MLOAD RETURNDATASIZE PUSH1 0x1F NOT PUSH1 0x1F DUP3 ADD AND DUP3 ADD DUP1 PUSH1 0x40 MSTORE POP DUP2 ADD SWAP1 PUSH2 0x1684 SWAP2 SWAP1 PUSH2 0x1AF1 JUMP JUMPDEST SWAP1 POP PUSH1 0x0 PUSH1 0xA PUSH1 0x0 SWAP1 SLOAD SWAP1 PUSH2 0x100 EXP SWAP1 DIV PUSH20 0xFFFFFFFFFFFFFFFFFFFFFFFFFFFFFFFFFFFFFFFF AND PUSH20 0xFFFFFFFFFFFFFFFFFFFFFFFFFFFFFFFFFFFFFFFF AND PUSH4 0x3AC35585 PUSH1 0x0 DUP1 SLOAD SWAP1 PUSH2 0x100 EXP SWAP1 DIV PUSH20 0xFFFFFFFFFFFFFFFFFFFFFFFFFFFFFFFFFFFFFFFF AND DUP7 PUSH1 0x40 MLOAD DUP4 PUSH4 0xFFFFFFFF AND PUSH1 0xE0 SHL DUP2 MSTORE PUSH1 0x4 ADD PUSH2 0x1705 SWAP3 SWAP2 SWAP1 PUSH2 0x1B1E JUMP JUMPDEST PUSH1 0x20 PUSH1 0x40 MLOAD DUP1 DUP4 SUB DUP2 DUP7 GAS STATICCALL ISZERO DUP1 ISZERO PUSH2 0x1722 JUMPI RETURNDATASIZE PUSH1 0x0 DUP1 RETURNDATACOPY RETURNDATASIZE PUSH1 0x0 REVERT JUMPDEST POP POP POP POP PUSH1 0x40 MLOAD RETURNDATASIZE PUSH1 0x1F NOT PUSH1 0x1F DUP3 ADD AND DUP3 ADD DUP1 PUSH1 0x40 MSTORE POP DUP2 ADD SWAP1 PUSH2 0x1746 SWAP2 SWAP1 PUSH2 0x1AF1 JUMP JUMPDEST SWAP1 POP PUSH1 0x0 PUSH1 0x64 PUSH1 0x5F DUP4 PUSH2 0x1759 SWAP2 SWAP1 PUSH2 0x1BDB JUMP JUMPDEST PUSH2 0x1763 SWAP2 SWAP1 PUSH2 0x1C4C JUMP JUMPDEST SWAP1 POP PUSH1 0xB PUSH1 0x0 SWAP1 SLOAD SWAP1 PUSH2 0x100 EXP SWAP1 DIV PUSH20 0xFFFFFFFFFFFFFFFFFFFFFFFFFFFFFFFFFFFFFFFF AND PUSH20 0xFFFFFFFFFFFFFFFFFFFFFFFFFFFFFFFFFFFFFFFF AND PUSH4 0x7FF36AB5 DUP7 DUP4 PUSH1 0x7 CALLER PUSH32 0xFFFFFFFFFFFFFFFFFFFFFFFFFFFFFFFFFFFFFFFFFFFFFFFFFFFFFFFFFFFFFFFF PUSH1 0x40 MLOAD DUP7 PUSH4 0xFFFFFFFF AND PUSH1 0xE0 SHL DUP2 MSTORE PUSH1 0x4 ADD PUSH2 0x17E8 SWAP5 SWAP4 SWAP3 SWAP2 SWAP1 PUSH2 0x227D JUMP JUMPDEST PUSH1 0x0 PUSH1 0x40 MLOAD DUP1 DUP4 SUB DUP2 DUP6 DUP9 GAS CALL SWAP4 POP POP POP POP DUP1 ISZERO PUSH2 0x1829 JUMPI POP PUSH1 0x40 MLOAD RETURNDATASIZE PUSH1 0x0 DUP3 RETURNDATACOPY RETURNDATASIZE PUSH1 0x1F NOT PUSH1 0x1F DUP3 ADD AND DUP3 ADD DUP1 PUSH1 0x40 MSTORE POP DUP2 ADD SWAP1 PUSH2 0x1826 SWAP2 SWAP1 PUSH2 0x2422 JUMP JUMPDEST PUSH1 0x1 JUMPDEST PUSH2 0x1867 JUMPI PUSH32 0xCF34EF537AC33EE1AC626CA1587A0A7E8E51561E5514F8CB36AFA1C5102B3BAB PUSH1 0x40 MLOAD PUSH2 0x185A SWAP1 PUSH2 0x24B7 JUMP JUMPDEST PUSH1 0x40 MLOAD DUP1 SWAP2 SUB SWAP1 LOG1 PUSH2 0x189E JUMP JUMPDEST POP PUSH32 0xCF34EF537AC33EE1AC626CA1587A0A7E8E51561E5514F8CB36AFA1C5102B3BAB PUSH1 0x40 MLOAD PUSH2 0x1895 SWAP1 PUSH2 0x2523 JUMP JUMPDEST PUSH1 0x40 MLOAD DUP1 SWAP2 SUB SWAP1 LOG1 JUMPDEST DUP3 PUSH1 0x1 PUSH1 0x0 SWAP1 SLOAD SWAP1 PUSH2 0x100 EXP SWAP1 DIV PUSH20 0xFFFFFFFFFFFFFFFFFFFFFFFFFFFFFFFFFFFFFFFF AND PUSH20 0xFFFFFFFFFFFFFFFFFFFFFFFFFFFFFFFFFFFFFFFF AND PUSH4 0x70A08231 ADDRESS PUSH1 0x40 MLOAD DUP3 PUSH4 0xFFFFFFFF AND PUSH1 0xE0 SHL DUP2 MSTORE PUSH1 0x4 ADD PUSH2 0x18FA SWAP2 SWAP1 PUSH2 0x19FD JUMP JUMPDEST PUSH1 0x20 PUSH1 0x40 MLOAD DUP1 DUP4 SUB DUP2 DUP7 GAS STATICCALL ISZERO DUP1 ISZERO PUSH2 0x1917 JUMPI RETURNDATASIZE PUSH1 0x0 DUP1 RETURNDATACOPY RETURNDATASIZE PUSH1 0x0 REVERT JUMPDEST POP POP POP POP PUSH1 0x40 MLOAD RETURNDATASIZE PUSH1 0x1F NOT PUSH1 0x1F DUP3 ADD AND DUP3 ADD DUP1 PUSH1 0x40 MSTORE POP DUP2 ADD SWAP1 PUSH2 0x193B SWAP2 SWAP1 PUSH2 0x1AF1 JUMP JUMPDEST PUSH2 0x1945 SWAP2 SWAP1 PUSH2 0x1C7D JUMP JUMPDEST SWAP4 POP POP POP POP SWAP2 SWAP1 POP JUMP JUMPDEST PUSH1 0x0 PUSH1 0x40 MLOAD SWAP1 POP SWAP1 JUMP JUMPDEST PUSH1 0x0 DUP1 REVERT JUMPDEST PUSH1 0x0 DUP1 REVERT JUMPDEST PUSH1 0x0 PUSH20 0xFFFFFFFFFFFFFFFFFFFFFFFFFFFFFFFFFFFFFFFF DUP3 AND SWAP1 POP SWAP2 SWAP1 POP JUMP JUMPDEST PUSH1 0x0 PUSH2 0x198E DUP3 PUSH2 0x1963 JUMP JUMPDEST SWAP1 POP SWAP2 SWAP1 POP JUMP JUMPDEST PUSH2 0x199E DUP2 PUSH2 0x1983 JUMP JUMPDEST DUP2 EQ PUSH2 0x19A9 JUMPI PUSH1 0x0 DUP1 REVERT JUMPDEST POP JUMP JUMPDEST PUSH1 0x0 DUP2 CALLDATALOAD SWAP1 POP PUSH2 0x19BB DUP2 PUSH2 0x1995 JUMP JUMPDEST SWAP3 SWAP2 POP POP JUMP JUMPDEST PUSH1 0x0 PUSH1 0x20 DUP3 DUP5 SUB SLT ISZERO PUSH2 0x19D7 JUMPI PUSH2 0x19D6 PUSH2 0x1959 JUMP JUMPDEST JUMPDEST PUSH1 0x0 PUSH2 0x19E5 DUP5 DUP3 DUP6 ADD PUSH2 0x19AC JUMP JUMPDEST SWAP2 POP POP SWAP3 SWAP2 POP POP JUMP JUMPDEST PUSH2 0x19F7 DUP2 PUSH2 0x1983 JUMP JUMPDEST DUP3 MSTORE POP POP JUMP JUMPDEST PUSH1 0x0 PUSH1 0x20 DUP3 ADD SWAP1 POP PUSH2 0x1A12 PUSH1 0x0 DUP4 ADD DUP5 PUSH2 0x19EE JUMP JUMPDEST SWAP3 SWAP2 POP POP JUMP JUMPDEST PUSH1 0x0 DUP2 SWAP1 POP SWAP2 SWAP1 POP JUMP JUMPDEST PUSH2 0x1A2B DUP2 PUSH2 0x1A18 JUMP JUMPDEST DUP2 EQ PUSH2 0x1A36 JUMPI PUSH1 0x0 DUP1 REVERT JUMPDEST POP JUMP JUMPDEST PUSH1 0x0 DUP2 CALLDATALOAD SWAP1 POP PUSH2 0x1A48 DUP2 PUSH2 0x1A22 JUMP JUMPDEST SWAP3 SWAP2 POP POP JUMP JUMPDEST PUSH1 0x0 PUSH1 0x20 DUP3 DUP5 SUB SLT ISZERO PUSH2 0x1A64 JUMPI PUSH2 0x1A63 PUSH2 0x1959 JUMP JUMPDEST JUMPDEST PUSH1 0x0 PUSH2 0x1A72 DUP5 DUP3 DUP6 ADD PUSH2 0x1A39 JUMP JUMPDEST SWAP2 POP POP SWAP3 SWAP2 POP POP JUMP JUMPDEST PUSH2 0x1A84 DUP2 PUSH2 0x1A18 JUMP JUMPDEST DUP3 MSTORE POP POP JUMP JUMPDEST PUSH1 0x0 PUSH1 0x60 DUP3 ADD SWAP1 POP PUSH2 0x1A9F PUSH1 0x0 DUP4 ADD DUP7 PUSH2 0x1A7B JUMP JUMPDEST PUSH2 0x1AAC PUSH1 0x20 DUP4 ADD DUP6 PUSH2 0x19EE JUMP JUMPDEST PUSH2 0x1AB9 PUSH1 0x40 DUP4 ADD DUP5 PUSH2 0x1A7B JUMP JUMPDEST SWAP5 SWAP4 POP POP POP POP JUMP JUMPDEST PUSH1 0x0 PUSH1 0x20 DUP3 ADD SWAP1 POP PUSH2 0x1AD6 PUSH1 0x0 DUP4 ADD DUP5 PUSH2 0x1A7B JUMP JUMPDEST SWAP3 SWAP2 POP POP JUMP JUMPDEST PUSH1 0x0 DUP2 MLOAD SWAP1 POP PUSH2 0x1AEB DUP2 PUSH2 0x1A22 JUMP JUMPDEST SWAP3 SWAP2 POP POP JUMP JUMPDEST PUSH1 0x0 PUSH1 0x20 DUP3 DUP5 SUB SLT ISZERO PUSH2 0x1B07 JUMPI PUSH2 0x1B06 PUSH2 0x1959 JUMP JUMPDEST JUMPDEST PUSH1 0x0 PUSH2 0x1B15 DUP5 DUP3 DUP6 ADD PUSH2 0x1ADC JUMP JUMPDEST SWAP2 POP POP SWAP3 SWAP2 POP POP JUMP JUMPDEST PUSH1 0x0 PUSH1 0x40 DUP3 ADD SWAP1 POP PUSH2 0x1B33 PUSH1 0x0 DUP4 ADD DUP6 PUSH2 0x19EE JUMP JUMPDEST PUSH2 0x1B40 PUSH1 0x20 DUP4 ADD DUP5 PUSH2 0x1A7B JUMP JUMPDEST SWAP4 SWAP3 POP POP POP JUMP JUMPDEST PUSH1 0x0 DUP2 ISZERO ISZERO SWAP1 POP SWAP2 SWAP1 POP JUMP JUMPDEST PUSH2 0x1B5C DUP2 PUSH2 0x1B47 JUMP JUMPDEST DUP2 EQ PUSH2 0x1B67 JUMPI PUSH1 0x0 DUP1 REVERT JUMPDEST POP JUMP JUMPDEST PUSH1 0x0 DUP2 MLOAD SWAP1 POP PUSH2 0x1B79 DUP2 PUSH2 0x1B53 JUMP JUMPDEST SWAP3 SWAP2 POP POP JUMP JUMPDEST PUSH1 0x0 PUSH1 0x20 DUP3 DUP5 SUB SLT ISZERO PUSH2 0x1B95 JUMPI PUSH2 0x1B94 PUSH2 0x1959 JUMP JUMPDEST JUMPDEST PUSH1 0x0 PUSH2 0x1BA3 DUP5 DUP3 DUP6 ADD PUSH2 0x1B6A JUMP JUMPDEST SWAP2 POP POP SWAP3 SWAP2 POP POP JUMP JUMPDEST PUSH32 0x4E487B7100000000000000000000000000000000000000000000000000000000 PUSH1 0x0 MSTORE PUSH1 0x11 PUSH1 0x4 MSTORE PUSH1 0x24 PUSH1 0x0 REVERT JUMPDEST PUSH1 0x0 PUSH2 0x1BE6 DUP3 PUSH2 0x1A18 JUMP JUMPDEST SWAP2 POP PUSH2 0x1BF1 DUP4 PUSH2 0x1A18 JUMP JUMPDEST SWAP3 POP DUP3 DUP3 MUL PUSH2 0x1BFF DUP2 PUSH2 0x1A18 JUMP JUMPDEST SWAP2 POP DUP3 DUP3 DIV DUP5 EQ DUP4 ISZERO OR PUSH2 0x1C16 JUMPI PUSH2 0x1C15 PUSH2 0x1BAC JUMP JUMPDEST JUMPDEST POP SWAP3 SWAP2 POP POP JUMP JUMPDEST PUSH32 0x4E487B7100000000000000000000000000000000000000000000000000000000 PUSH1 0x0 MSTORE PUSH1 0x12 PUSH1 0x4 MSTORE PUSH1 0x24 PUSH1 0x0 REVERT JUMPDEST PUSH1 0x0 PUSH2 0x1C57 DUP3 PUSH2 0x1A18 JUMP JUMPDEST SWAP2 POP PUSH2 0x1C62 DUP4 PUSH2 0x1A18 JUMP JUMPDEST SWAP3 POP DUP3 PUSH2 0x1C72 JUMPI PUSH2 0x1C71 PUSH2 0x1C1D JUMP JUMPDEST JUMPDEST DUP3 DUP3 DIV SWAP1 POP SWAP3 SWAP2 POP POP JUMP JUMPDEST PUSH1 0x0 PUSH2 0x1C88 DUP3 PUSH2 0x1A18 JUMP JUMPDEST SWAP2 POP PUSH2 0x1C93 DUP4 PUSH2 0x1A18 JUMP JUMPDEST SWAP3 POP DUP3 DUP3 SUB SWAP1 POP DUP2 DUP2 GT ISZERO PUSH2 0x1CAB JUMPI PUSH2 0x1CAA PUSH2 0x1BAC JUMP JUMPDEST JUMPDEST SWAP3 SWAP2 POP POP JUMP JUMPDEST PUSH1 0x0 DUP3 DUP3 MSTORE PUSH1 0x20 DUP3 ADD SWAP1 POP SWAP3 SWAP2 POP POP JUMP JUMPDEST PUSH32 0x70726576696F757320486F6C6465722069730000000000000000000000000000 PUSH1 0x0 DUP3 ADD MSTORE POP JUMP JUMPDEST PUSH1 0x0 PUSH2 0x1CF8 PUSH1 0x12 DUP4 PUSH2 0x1CB1 JUMP JUMPDEST SWAP2 POP PUSH2 0x1D03 DUP3 PUSH2 0x1CC2 JUMP JUMPDEST PUSH1 0x20 DUP3 ADD SWAP1 POP SWAP2 SWAP1 POP JUMP JUMPDEST PUSH1 0x0 PUSH1 0x20 DUP3 ADD SWAP1 POP DUP2 DUP2 SUB PUSH1 0x0 DUP4 ADD MSTORE PUSH2 0x1D27 DUP2 PUSH2 0x1CEB JUMP JUMPDEST SWAP1 POP SWAP2 SWAP1 POP JUMP JUMPDEST PUSH32 0x63757272656E74206C69717569646974792070657263656E7400000000000000 PUSH1 0x0 DUP3 ADD MSTORE POP JUMP JUMPDEST PUSH1 0x0 PUSH2 0x1D64 PUSH1 0x19 DUP4 PUSH2 0x1CB1 JUMP JUMPDEST SWAP2 POP PUSH2 0x1D6F DUP3 PUSH2 0x1D2E JUMP JUMPDEST PUSH1 0x20 DUP3 ADD SWAP1 POP SWAP2 SWAP1 POP JUMP JUMPDEST PUSH1 0x0 PUSH1 0x20 DUP3 ADD SWAP1 POP DUP2 DUP2 SUB PUSH1 0x0 DUP4 ADD MSTORE PUSH2 0x1D93 DUP2 PUSH2 0x1D57 JUMP JUMPDEST SWAP1 POP SWAP2 SWAP1 POP JUMP JUMPDEST PUSH1 0x0 PUSH2 0x1DA5 DUP3 PUSH2 0x1A18 JUMP JUMPDEST SWAP2 POP PUSH2 0x1DB0 DUP4 PUSH2 0x1A18 JUMP JUMPDEST SWAP3 POP DUP3 DUP3 ADD SWAP1 POP DUP1 DUP3 GT ISZERO PUSH2 0x1DC8 JUMPI PUSH2 0x1DC7 PUSH2 0x1BAC JUMP JUMPDEST JUMPDEST SWAP3 SWAP2 POP POP JUMP JUMPDEST PUSH32 0x746F6B656E732063616E74206265206275726E74000000000000000000000000 PUSH1 0x0 DUP3 ADD MSTORE POP JUMP JUMPDEST PUSH1 0x0 PUSH2 0x1E04 PUSH1 0x14 DUP4 PUSH2 0x1CB1 JUMP JUMPDEST SWAP2 POP PUSH2 0x1E0F DUP3 PUSH2 0x1DCE JUMP JUMPDEST PUSH1 0x20 DUP3 ADD SWAP1 POP SWAP2 SWAP1 POP JUMP JUMPDEST PUSH1 0x0 PUSH1 0x20 DUP3 ADD SWAP1 POP DUP2 DUP2 SUB PUSH1 0x0 DUP4 ADD MSTORE PUSH2 0x1E33 DUP2 PUSH2 0x1DF7 JUMP JUMPDEST SWAP1 POP SWAP2 SWAP1 POP JUMP JUMPDEST PUSH1 0x0 PUSH1 0x40 DUP3 ADD SWAP1 POP PUSH2 0x1E4F PUSH1 0x0 DUP4 ADD DUP6 PUSH2 0x1A7B JUMP JUMPDEST PUSH2 0x1E5C PUSH1 0x20 DUP4 ADD DUP5 PUSH2 0x19EE JUMP JUMPDEST SWAP4 SWAP3 POP POP POP JUMP JUMPDEST PUSH1 0x0 PUSH1 0xC0 DUP3 ADD SWAP1 POP PUSH2 0x1E78 PUSH1 0x0 DUP4 ADD DUP10 PUSH2 0x19EE JUMP JUMPDEST PUSH2 0x1E85 PUSH1 0x20 DUP4 ADD DUP9 PUSH2 0x1A7B JUMP JUMPDEST PUSH2 0x1E92 PUSH1 0x40 DUP4 ADD DUP8 PUSH2 0x1A7B JUMP JUMPDEST PUSH2 0x1E9F PUSH1 0x60 DUP4 ADD DUP7 PUSH2 0x1A7B JUMP JUMPDEST PUSH2 0x1EAC PUSH1 0x80 DUP4 ADD DUP6 PUSH2 0x19EE JUMP JUMPDEST PUSH2 0x1EB9 PUSH1 0xA0 DUP4 ADD DUP5 PUSH2 0x1A7B JUMP JUMPDEST SWAP8 SWAP7 POP POP POP POP POP POP POP JUMP JUMPDEST PUSH1 0x0 DUP1 PUSH1 0x0 PUSH1 0x60 DUP5 DUP7 SUB SLT ISZERO PUSH2 0x1EDD JUMPI PUSH2 0x1EDC PUSH2 0x1959 JUMP JUMPDEST JUMPDEST PUSH1 0x0 PUSH2 0x1EEB DUP7 DUP3 DUP8 ADD PUSH2 0x1ADC JUMP JUMPDEST SWAP4 POP POP PUSH1 0x20 PUSH2 0x1EFC DUP7 DUP3 DUP8 ADD PUSH2 0x1ADC JUMP JUMPDEST SWAP3 POP POP PUSH1 0x40 PUSH2 0x1F0D DUP7 DUP3 DUP8 ADD PUSH2 0x1ADC JUMP JUMPDEST SWAP2 POP POP SWAP3 POP SWAP3 POP SWAP3 JUMP JUMPDEST PUSH32 0x4C6971756964697479204E6F742050726F766964656400000000000000000000 PUSH1 0x0 DUP3 ADD MSTORE POP JUMP JUMPDEST PUSH1 0x0 PUSH2 0x1F4D PUSH1 0x16 DUP4 PUSH2 0x1CB1 JUMP JUMPDEST SWAP2 POP PUSH2 0x1F58 DUP3 PUSH2 0x1F17 JUMP JUMPDEST PUSH1 0x20 DUP3 ADD SWAP1 POP SWAP2 SWAP1 POP JUMP JUMPDEST PUSH1 0x0 PUSH1 0x20 DUP3 ADD SWAP1 POP DUP2 DUP2 SUB PUSH1 0x0 DUP4 ADD MSTORE PUSH2 0x1F7C DUP2 PUSH2 0x1F40 JUMP JUMPDEST SWAP1 POP SWAP2 SWAP1 POP JUMP JUMPDEST PUSH32 0x6C6971756964697479205375636365737366756C6C792050726F766964656400 PUSH1 0x0 DUP3 ADD MSTORE POP JUMP JUMPDEST PUSH1 0x0 PUSH2 0x1FB9 PUSH1 0x1F DUP4 PUSH2 0x1CB1 JUMP JUMPDEST SWAP2 POP PUSH2 0x1FC4 DUP3 PUSH2 0x1F83 JUMP JUMPDEST PUSH1 0x20 DUP3 ADD SWAP1 POP SWAP2 SWAP1 POP JUMP JUMPDEST PUSH1 0x0 PUSH1 0x20 DUP3 ADD SWAP1 POP DUP2 DUP2 SUB PUSH1 0x0 DUP4 ADD MSTORE PUSH2 0x1FE8 DUP2 PUSH2 0x1FAC JUMP JUMPDEST SWAP1 POP SWAP2 SWAP1 POP JUMP JUMPDEST PUSH32 0x70726963652063616E7420626520676F742066726F6D204F7261636C65000000 PUSH1 0x0 DUP3 ADD MSTORE POP JUMP JUMPDEST PUSH1 0x0 PUSH2 0x2025 PUSH1 0x1D DUP4 PUSH2 0x1CB1 JUMP JUMPDEST SWAP2 POP PUSH2 0x2030 DUP3 PUSH2 0x1FEF JUMP JUMPDEST PUSH1 0x20 DUP3 ADD SWAP1 POP SWAP2 SWAP1 POP JUMP JUMPDEST PUSH1 0x0 PUSH1 0x20 DUP3 ADD SWAP1 POP DUP2 DUP2 SUB PUSH1 0x0 DUP4 ADD MSTORE PUSH2 0x2054 DUP2 PUSH2 0x2018 JUMP JUMPDEST SWAP1 POP SWAP2 SWAP1 POP JUMP JUMPDEST PUSH32 0x707269636520676F742066726F6D204F7261636C652062757420636F756C646E PUSH1 0x0 DUP3 ADD MSTORE PUSH32 0x74206D696E740000000000000000000000000000000000000000000000000000 PUSH1 0x20 DUP3 ADD MSTORE POP JUMP JUMPDEST PUSH1 0x0 PUSH2 0x20B7 PUSH1 0x26 DUP4 PUSH2 0x1CB1 JUMP JUMPDEST SWAP2 POP PUSH2 0x20C2 DUP3 PUSH2 0x205B JUMP JUMPDEST PUSH1 0x40 DUP3 ADD SWAP1 POP SWAP2 SWAP1 POP JUMP JUMPDEST PUSH1 0x0 PUSH1 0x20 DUP3 ADD SWAP1 POP DUP2 DUP2 SUB PUSH1 0x0 DUP4 ADD MSTORE PUSH2 0x20E6 DUP2 PUSH2 0x20AA JUMP JUMPDEST SWAP1 POP SWAP2 SWAP1 POP JUMP JUMPDEST PUSH32 0x746F6B656E73206D696E74656420746F2070726576696F757320686F6C646572 PUSH1 0x0 DUP3 ADD MSTORE POP JUMP JUMPDEST PUSH1 0x0 PUSH2 0x2123 PUSH1 0x20 DUP4 PUSH2 0x1CB1 JUMP JUMPDEST SWAP2 POP PUSH2 0x212E DUP3 PUSH2 0x20ED JUMP JUMPDEST PUSH1 0x20 DUP3 ADD SWAP1 POP SWAP2 SWAP1 POP JUMP JUMPDEST PUSH1 0x0 PUSH1 0x20 DUP3 ADD SWAP1 POP DUP2 DUP2 SUB PUSH1 0x0 DUP4 ADD MSTORE PUSH2 0x2152 DUP2 PUSH2 0x2116 JUMP JUMPDEST SWAP1 POP SWAP2 SWAP1 POP JUMP JUMPDEST PUSH1 0x0 DUP2 SLOAD SWAP1 POP SWAP2 SWAP1 POP JUMP JUMPDEST PUSH1 0x0 DUP3 DUP3 MSTORE PUSH1 0x20 DUP3 ADD SWAP1 POP SWAP3 SWAP2 POP POP JUMP JUMPDEST PUSH1 0x0 DUP2 SWAP1 POP DUP2 PUSH1 0x0 MSTORE PUSH1 0x20 PUSH1 0x0 KECCAK256 SWAP1 POP SWAP2 SWAP1 POP JUMP JUMPDEST PUSH2 0x2193 DUP2 PUSH2 0x1983 JUMP JUMPDEST DUP3 MSTORE POP POP JUMP JUMPDEST PUSH1 0x0 PUSH2 0x21A5 DUP4 DUP4 PUSH2 0x218A JUMP JUMPDEST PUSH1 0x20 DUP4 ADD SWAP1 POP SWAP3 SWAP2 POP POP JUMP JUMPDEST PUSH1 0x0 DUP2 PUSH1 0x0 SHR SWAP1 POP SWAP2 SWAP1 POP JUMP JUMPDEST PUSH1 0x0 PUSH20 0xFFFFFFFFFFFFFFFFFFFFFFFFFFFFFFFFFFFFFFFF DUP3 AND SWAP1 POP SWAP2 SWAP1 POP JUMP JUMPDEST PUSH1 0x0 PUSH2 0x21F1 PUSH2 0x21EC DUP4 PUSH2 0x21B1 JUMP JUMPDEST PUSH2 0x21BE JUMP JUMPDEST SWAP1 POP SWAP2 SWAP1 POP JUMP JUMPDEST PUSH1 0x0 PUSH2 0x2204 DUP3 SLOAD PUSH2 0x21DE JUMP JUMPDEST SWAP1 POP SWAP2 SWAP1 POP JUMP JUMPDEST PUSH1 0x0 PUSH1 0x1 DUP3 ADD SWAP1 POP SWAP2 SWAP1 POP JUMP JUMPDEST PUSH1 0x0 PUSH2 0x2223 DUP3 PUSH2 0x2159 JUMP JUMPDEST PUSH2 0x222D DUP2 DUP6 PUSH2 0x2164 JUMP JUMPDEST SWAP4 POP PUSH2 0x2238 DUP4 PUSH2 0x2175 JUMP JUMPDEST DUP1 PUSH1 0x0 JUMPDEST DUP4 DUP2 LT ISZERO PUSH2 0x2270 JUMPI PUSH2 0x224D DUP3 PUSH2 0x21F8 JUMP JUMPDEST PUSH2 0x2257 DUP9 DUP3 PUSH2 0x2199 JUMP JUMPDEST SWAP8 POP PUSH2 0x2262 DUP4 PUSH2 0x220B JUMP JUMPDEST SWAP3 POP POP PUSH1 0x1 DUP2 ADD SWAP1 POP PUSH2 0x223C JUMP JUMPDEST POP DUP6 SWAP4 POP POP POP POP SWAP3 SWAP2 POP POP JUMP JUMPDEST PUSH1 0x0 PUSH1 0x80 DUP3 ADD SWAP1 POP PUSH2 0x2292 PUSH1 0x0 DUP4 ADD DUP8 PUSH2 0x1A7B JUMP JUMPDEST DUP2 DUP2 SUB PUSH1 0x20 DUP4 ADD MSTORE PUSH2 0x22A4 DUP2 DUP7 PUSH2 0x2218 JUMP JUMPDEST SWAP1 POP PUSH2 0x22B3 PUSH1 0x40 DUP4 ADD DUP6 PUSH2 0x19EE JUMP JUMPDEST PUSH2 0x22C0 PUSH1 0x60 DUP4 ADD DUP5 PUSH2 0x1A7B JUMP JUMPDEST SWAP6 SWAP5 POP POP POP POP POP JUMP JUMPDEST PUSH1 0x0 DUP1 REVERT JUMPDEST PUSH1 0x0 PUSH1 0x1F NOT PUSH1 0x1F DUP4 ADD AND SWAP1 POP SWAP2 SWAP1 POP JUMP JUMPDEST PUSH32 0x4E487B7100000000000000000000000000000000000000000000000000000000 PUSH1 0x0 MSTORE PUSH1 0x41 PUSH1 0x4 MSTORE PUSH1 0x24 PUSH1 0x0 REVERT JUMPDEST PUSH2 0x2317 DUP3 PUSH2 0x22CE JUMP JUMPDEST DUP2 ADD DUP2 DUP2 LT PUSH8 0xFFFFFFFFFFFFFFFF DUP3 GT OR ISZERO PUSH2 0x2336 JUMPI PUSH2 0x2335 PUSH2 0x22DF JUMP JUMPDEST JUMPDEST DUP1 PUSH1 0x40 MSTORE POP POP POP JUMP JUMPDEST PUSH1 0x0 PUSH2 0x2349 PUSH2 0x194F JUMP JUMPDEST SWAP1 POP PUSH2 0x2355 DUP3 DUP3 PUSH2 0x230E JUMP JUMPDEST SWAP2 SWAP1 POP JUMP JUMPDEST PUSH1 0x0 PUSH8 0xFFFFFFFFFFFFFFFF DUP3 GT ISZERO PUSH2 0x2375 JUMPI PUSH2 0x2374 PUSH2 0x22DF JUMP JUMPDEST JUMPDEST PUSH1 0x20 DUP3 MUL SWAP1 POP PUSH1 0x20 DUP2 ADD SWAP1 POP SWAP2 SWAP1 POP JUMP JUMPDEST PUSH1 0x0 DUP1 REVERT JUMPDEST PUSH1 0x0 PUSH2 0x239E PUSH2 0x2399 DUP5 PUSH2 0x235A JUMP JUMPDEST PUSH2 0x233F JUMP JUMPDEST SWAP1 POP DUP1 DUP4 DUP3 MSTORE PUSH1 0x20 DUP3 ADD SWAP1 POP PUSH1 0x20 DUP5 MUL DUP4 ADD DUP6 DUP2 GT ISZERO PUSH2 0x23C1 JUMPI PUSH2 0x23C0 PUSH2 0x2386 JUMP JUMPDEST JUMPDEST DUP4 JUMPDEST DUP2 DUP2 LT ISZERO PUSH2 0x23EA JUMPI DUP1 PUSH2 0x23D6 DUP9 DUP3 PUSH2 0x1ADC JUMP JUMPDEST DUP5 MSTORE PUSH1 0x20 DUP5 ADD SWAP4 POP POP PUSH1 0x20 DUP2 ADD SWAP1 POP PUSH2 0x23C3 JUMP JUMPDEST POP POP POP SWAP4 SWAP3 POP POP POP JUMP JUMPDEST PUSH1 0x0 DUP3 PUSH1 0x1F DUP4 ADD SLT PUSH2 0x2409 JUMPI PUSH2 0x2408 PUSH2 0x22C9 JUMP JUMPDEST JUMPDEST DUP2 MLOAD PUSH2 0x2419 DUP5 DUP3 PUSH1 0x20 DUP7 ADD PUSH2 0x238B JUMP JUMPDEST SWAP2 POP POP SWAP3 SWAP2 POP POP JUMP JUMPDEST PUSH1 0x0 PUSH1 0x20 DUP3 DUP5 SUB SLT ISZERO PUSH2 0x2438 JUMPI PUSH2 0x2437 PUSH2 0x1959 JUMP JUMPDEST JUMPDEST PUSH1 0x0 DUP3 ADD MLOAD PUSH8 0xFFFFFFFFFFFFFFFF DUP2 GT ISZERO PUSH2 0x2456 JUMPI PUSH2 0x2455 PUSH2 0x195E JUMP JUMPDEST JUMPDEST PUSH2 0x2462 DUP5 DUP3 DUP6 ADD PUSH2 0x23F4 JUMP JUMPDEST SWAP2 POP POP SWAP3 SWAP2 POP POP JUMP JUMPDEST PUSH32 0x746F6B656E73206E6F7420626F75676874000000000000000000000000000000 PUSH1 0x0 DUP3 ADD MSTORE POP JUMP JUMPDEST PUSH1 0x0 PUSH2 0x24A1 PUSH1 0x11 DUP4 PUSH2 0x1CB1 JUMP JUMPDEST SWAP2 POP PUSH2 0x24AC DUP3 PUSH2 0x246B JUMP JUMPDEST PUSH1 0x20 DUP3 ADD SWAP1 POP SWAP2 SWAP1 POP JUMP JUMPDEST PUSH1 0x0 PUSH1 0x20 DUP3 ADD SWAP1 POP DUP2 DUP2 SUB PUSH1 0x0 DUP4 ADD MSTORE PUSH2 0x24D0 DUP2 PUSH2 0x2494 JUMP JUMPDEST SWAP1 POP SWAP2 SWAP1 POP JUMP JUMPDEST PUSH32 0x746F6B656E7320626F7567687400000000000000000000000000000000000000 PUSH1 0x0 DUP3 ADD MSTORE POP JUMP JUMPDEST PUSH1 0x0 PUSH2 0x250D PUSH1 0xD DUP4 PUSH2 0x1CB1 JUMP JUMPDEST SWAP2 POP PUSH2 0x2518 DUP3 PUSH2 0x24D7 JUMP JUMPDEST PUSH1 0x20 DUP3 ADD SWAP1 POP SWAP2 SWAP1 POP JUMP JUMPDEST PUSH1 0x0 PUSH1 0x20 DUP3 ADD SWAP1 POP DUP2 DUP2 SUB PUSH1 0x0 DUP4 ADD MSTORE PUSH2 0x253C DUP2 PUSH2 0x2500 JUMP JUMPDEST SWAP1 POP SWAP2 SWAP1 POP JUMP INVALID LOG2 PUSH5 0x6970667358 0x22 SLT KECCAK256 ADDMOD LT SWAP15 BALANCE LT 0x2A CALLCODE 0xAD 0xCD EXTCODEHASH 0xB3 CALLVALUE BALANCE SWAP2 DUP2 POP 0x5F BYTE 0xF8 SWAP4 0xEF 0xCB XOR 0xE3 PUSH22 0x50FBE02C8F3BF464736F6C6343000811003300000000 "
				},
				"gasEstimates": {
					"creation": {
						"codeDepositCost": "1918600",
						"executionCost": "infinite",
						"totalCost": "infinite"
					},
					"external": {
						"ERC20Address()": "2559",
						"POAPAddress()": "2536",
						"WethAddress()": "2578",
						"buyEth()": "2452",
						"crownNFTAddress()": "2581",
						"getLastEthRecieved()": "4717",
						"getWethBalance()": "infinite",
						"liquidityEth()": "2452",
						"oracleAddress()": "2603",
						"path(uint256)": "5000",
						"percentLiquidity()": "infinite",
						"superBuy(address)": "infinite",
						"totalRoyalties()": "2518",
						"transactionFromPOAPId(uint256)": "infinite",
						"uniswapPairAddress()": "2580",
						"uniswapRouterAddress()": "2582",
						"updateERC20Address(address)": "24768",
						"withdraw(address)": "infinite"
					},
					"internal": {
						"buyAndBurn(uint256)": "infinite",
						"buyTokens(uint256)": "infinite",
						"erc20ToPreviousHolder(address)": "infinite",
						"newTransaction(uint256,address)": "119275",
						"processETH()": "infinite",
						"provideLiquidity(uint256)": "infinite",
						"setInitialTranscation(address)": "infinite"
					}
				},
				"methodIdentifiers": {
					"ERC20Address()": "a6021ace",
					"POAPAddress()": "aef75107",
					"WethAddress()": "a785a3d8",
					"buyEth()": "4cfd1ba5",
					"crownNFTAddress()": "777b506f",
					"getLastEthRecieved()": "bfd9ea5b",
					"getWethBalance()": "9dd58b58",
					"liquidityEth()": "a09ede07",
					"oracleAddress()": "a89ae4ba",
					"path(uint256)": "af6d1fe4",
					"percentLiquidity()": "c1f2e5f1",
					"superBuy(address)": "0b2b4d9b",
					"totalRoyalties()": "86d02608",
					"transactionFromPOAPId(uint256)": "2c4c3c1b",
					"uniswapPairAddress()": "bd3733fe",
					"uniswapRouterAddress()": "20ca3c7f",
					"updateERC20Address(address)": "1b017fde",
					"withdraw(address)": "51cff8d9"
				}
			},
			"storageLayout": {
				"storage": [
					{
						"astId": 633,
						"contract": "contracts/Hook.sol:TransactionsAndHook",
						"label": "WethAddress",
						"offset": 0,
						"slot": "0",
						"type": "t_address"
					},
					{
						"astId": 635,
						"contract": "contracts/Hook.sol:TransactionsAndHook",
						"label": "ERC20Address",
						"offset": 0,
						"slot": "1",
						"type": "t_address"
					},
					{
						"astId": 637,
						"contract": "contracts/Hook.sol:TransactionsAndHook",
						"label": "uniswapPairAddress",
						"offset": 0,
						"slot": "2",
						"type": "t_address"
					},
					{
						"astId": 639,
						"contract": "contracts/Hook.sol:TransactionsAndHook",
						"label": "oracleAddress",
						"offset": 0,
						"slot": "3",
						"type": "t_address"
					},
					{
						"astId": 641,
						"contract": "contracts/Hook.sol:TransactionsAndHook",
						"label": "crownNFTAddress",
						"offset": 0,
						"slot": "4",
						"type": "t_address"
					},
					{
						"astId": 643,
						"contract": "contracts/Hook.sol:TransactionsAndHook",
						"label": "POAPAddress",
						"offset": 0,
						"slot": "5",
						"type": "t_address"
					},
					{
						"astId": 646,
						"contract": "contracts/Hook.sol:TransactionsAndHook",
						"label": "uniswapRouterAddress",
						"offset": 0,
						"slot": "6",
						"type": "t_address"
					},
					{
						"astId": 652,
						"contract": "contracts/Hook.sol:TransactionsAndHook",
						"label": "path",
						"offset": 0,
						"slot": "7",
						"type": "t_array(t_address)dyn_storage"
					},
					{
						"astId": 658,
						"contract": "contracts/Hook.sol:TransactionsAndHook",
						"label": "POAP",
						"offset": 0,
						"slot": "8",
						"type": "t_contract(iPOAP)483"
					},
					{
						"astId": 664,
						"contract": "contracts/Hook.sol:TransactionsAndHook",
						"label": "WETH",
						"offset": 0,
						"slot": "9",
						"type": "t_contract(WethLike)542"
					},
					{
						"astId": 670,
						"contract": "contracts/Hook.sol:TransactionsAndHook",
						"label": "Oracle",
						"offset": 0,
						"slot": "10",
						"type": "t_contract(iOracle)517"
					},
					{
						"astId": 676,
						"contract": "contracts/Hook.sol:TransactionsAndHook",
						"label": "UniswapRouter",
						"offset": 0,
						"slot": "11",
						"type": "t_contract(IUniswapV2Router02)473"
					},
					{
						"astId": 681,
						"contract": "contracts/Hook.sol:TransactionsAndHook",
						"label": "transactionFromPOAPId",
						"offset": 0,
						"slot": "12",
						"type": "t_mapping(t_uint256,t_struct(Transaction)703_storage)"
					},
					{
						"astId": 684,
						"contract": "contracts/Hook.sol:TransactionsAndHook",
						"label": "POAPIds",
						"offset": 0,
						"slot": "13",
						"type": "t_array(t_uint256)dyn_storage"
					},
					{
						"astId": 686,
						"contract": "contracts/Hook.sol:TransactionsAndHook",
						"label": "totalRoyalties",
						"offset": 0,
						"slot": "14",
						"type": "t_uint256"
					},
					{
						"astId": 975,
						"contract": "contracts/Hook.sol:TransactionsAndHook",
						"label": "buyEth",
						"offset": 0,
						"slot": "15",
						"type": "t_uint256"
					},
					{
						"astId": 977,
						"contract": "contracts/Hook.sol:TransactionsAndHook",
						"label": "liquidityEth",
						"offset": 0,
						"slot": "16",
						"type": "t_uint256"
					}
				],
				"types": {
					"t_address": {
						"encoding": "inplace",
						"label": "address",
						"numberOfBytes": "20"
					},
					"t_array(t_address)dyn_storage": {
						"base": "t_address",
						"encoding": "dynamic_array",
						"label": "address[]",
						"numberOfBytes": "32"
					},
					"t_array(t_uint256)dyn_storage": {
						"base": "t_uint256",
						"encoding": "dynamic_array",
						"label": "uint256[]",
						"numberOfBytes": "32"
					},
					"t_contract(IUniswapV2Router02)473": {
						"encoding": "inplace",
						"label": "contract IUniswapV2Router02",
						"numberOfBytes": "20"
					},
					"t_contract(WethLike)542": {
						"encoding": "inplace",
						"label": "contract WethLike",
						"numberOfBytes": "20"
					},
					"t_contract(iOracle)517": {
						"encoding": "inplace",
						"label": "contract iOracle",
						"numberOfBytes": "20"
					},
					"t_contract(iPOAP)483": {
						"encoding": "inplace",
						"label": "contract iPOAP",
						"numberOfBytes": "20"
					},
					"t_mapping(t_uint256,t_struct(Transaction)703_storage)": {
						"encoding": "mapping",
						"key": "t_uint256",
						"label": "mapping(uint256 => struct TransactionsAndHook.Transaction)",
						"numberOfBytes": "32",
						"value": "t_struct(Transaction)703_storage"
					},
					"t_struct(Transaction)703_storage": {
						"encoding": "inplace",
						"label": "struct TransactionsAndHook.Transaction",
						"members": [
							{
								"astId": 698,
								"contract": "contracts/Hook.sol:TransactionsAndHook",
								"label": "POAPId",
								"offset": 0,
								"slot": "0",
								"type": "t_uint256"
							},
							{
								"astId": 700,
								"contract": "contracts/Hook.sol:TransactionsAndHook",
								"label": "purchaser",
								"offset": 0,
								"slot": "1",
								"type": "t_address"
							},
							{
								"astId": 702,
								"contract": "contracts/Hook.sol:TransactionsAndHook",
								"label": "receivedEth",
								"offset": 0,
								"slot": "2",
								"type": "t_uint256"
							}
						],
						"numberOfBytes": "96"
					},
					"t_uint256": {
						"encoding": "inplace",
						"label": "uint256",
						"numberOfBytes": "32"
					}
				}
			},
			"userdoc": {
				"kind": "user",
				"methods": {},
				"version": 1
			}
		}
	}
}