{
	"helloworld.sol": {
		"HelloWorld": {
			"abi": [
				{
					"inputs": [],
					"stateMutability": "nonpayable",
					"type": "constructor"
				},
				{
					"inputs": [],
					"name": "helloWorld",
					"outputs": [
						{
							"internalType": "string",
							"name": "",
							"type": "string"
						}
					],
					"stateMutability": "view",
					"type": "function"
				},
				{
					"inputs": [
						{
							"internalType": "string",
							"name": "newText",
							"type": "string"
						}
					],
					"name": "setText",
					"outputs": [],
					"stateMutability": "nonpayable",
					"type": "function"
				}
			],
			"devdoc": {
				"kind": "dev",
				"methods": {},
				"version": 1
			},
			"evm": {
				"assembly": "    /* \"helloworld.sol\":161:442  contract HelloWorld {... */\n  mstore(0x40, 0x80)\n    /* \"helloworld.sol\":212:263  constructor() {... */\n  callvalue\n  dup1\n  iszero\n  tag_1\n  jumpi\n  0x00\n  dup1\n  revert\ntag_1:\n  pop\n    /* \"helloworld.sol\":236:256  text = \"Hello World\" */\n  mload(0x40)\n  dup1\n  0x40\n  add\n  0x40\n  mstore\n  dup1\n  0x0b\n  dup2\n  mstore\n  0x20\n  add\n  0x48656c6c6f20576f726c64000000000000000000000000000000000000000000\n  dup2\n  mstore\n  pop\n    /* \"helloworld.sol\":236:240  text */\n  0x00\n    /* \"helloworld.sol\":236:256  text = \"Hello World\" */\n  swap1\n  dup2\n  tag_4\n  swap2\n  swap1\n  tag_5\n  jump\t// in\ntag_4:\n  pop\n    /* \"helloworld.sol\":161:442  contract HelloWorld {... */\n  jump(tag_6)\n    /* \"#utility.yul\":7:106   */\ntag_7:\n    /* \"#utility.yul\":59:65   */\n  0x00\n    /* \"#utility.yul\":93:98   */\n  dup2\n    /* \"#utility.yul\":87:99   */\n  mload\n    /* \"#utility.yul\":77:99   */\n  swap1\n  pop\n    /* \"#utility.yul\":7:106   */\n  swap2\n  swap1\n  pop\n  jump\t// out\n    /* \"#utility.yul\":112:292   */\ntag_8:\n    /* \"#utility.yul\":160:237   */\n  0x4e487b7100000000000000000000000000000000000000000000000000000000\n    /* \"#utility.yul\":157:158   */\n  0x00\n    /* \"#utility.yul\":150:238   */\n  mstore\n    /* \"#utility.yul\":257:261   */\n  0x41\n    /* \"#utility.yul\":254:255   */\n  0x04\n    /* \"#utility.yul\":247:262   */\n  mstore\n    /* \"#utility.yul\":281:285   */\n  0x24\n    /* \"#utility.yul\":278:279   */\n  0x00\n    /* \"#utility.yul\":271:286   */\n  revert\n    /* \"#utility.yul\":298:478   */\ntag_9:\n    /* \"#utility.yul\":346:423   */\n  0x4e487b7100000000000000000000000000000000000000000000000000000000\n    /* \"#utility.yul\":343:344   */\n  0x00\n    /* \"#utility.yul\":336:424   */\n  mstore\n    /* \"#utility.yul\":443:447   */\n  0x22\n    /* \"#utility.yul\":440:441   */\n  0x04\n    /* \"#utility.yul\":433:448   */\n  mstore\n    /* \"#utility.yul\":467:471   */\n  0x24\n    /* \"#utility.yul\":464:465   */\n  0x00\n    /* \"#utility.yul\":457:472   */\n  revert\n    /* \"#utility.yul\":484:804   */\ntag_10:\n    /* \"#utility.yul\":528:534   */\n  0x00\n    /* \"#utility.yul\":565:566   */\n  0x02\n    /* \"#utility.yul\":559:563   */\n  dup3\n    /* \"#utility.yul\":555:567   */\n  div\n    /* \"#utility.yul\":545:567   */\n  swap1\n  pop\n    /* \"#utility.yul\":612:613   */\n  0x01\n    /* \"#utility.yul\":606:610   */\n  dup3\n    /* \"#utility.yul\":602:614   */\n  and\n    /* \"#utility.yul\":633:651   */\n  dup1\n    /* \"#utility.yul\":623:704   */\n  tag_32\n  jumpi\n    /* \"#utility.yul\":689:693   */\n  0x7f\n    /* \"#utility.yul\":681:687   */\n  dup3\n    /* \"#utility.yul\":677:694   */\n  and\n    /* \"#utility.yul\":667:694   */\n  swap2\n  pop\n    /* \"#utility.yul\":623:704   */\ntag_32:\n    /* \"#utility.yul\":751:753   */\n  0x20\n    /* \"#utility.yul\":743:749   */\n  dup3\n    /* \"#utility.yul\":740:754   */\n  lt\n    /* \"#utility.yul\":720:738   */\n  dup2\n    /* \"#utility.yul\":717:755   */\n  sub\n    /* \"#utility.yul\":714:798   */\n  tag_33\n  jumpi\n    /* \"#utility.yul\":770:788   */\n  tag_34\n  tag_9\n  jump\t// in\ntag_34:\n    /* \"#utility.yul\":714:798   */\ntag_33:\n    /* \"#utility.yul\":535:804   */\n  pop\n    /* \"#utility.yul\":484:804   */\n  swap2\n  swap1\n  pop\n  jump\t// out\n    /* \"#utility.yul\":810:951   */\ntag_11:\n    /* \"#utility.yul\":859:863   */\n  0x00\n    /* \"#utility.yul\":882:885   */\n  dup2\n    /* \"#utility.yul\":874:885   */\n  swap1\n  pop\n    /* \"#utility.yul\":905:908   */\n  dup2\n    /* \"#utility.yul\":902:903   */\n  0x00\n    /* \"#utility.yul\":895:909   */\n  mstore\n    /* \"#utility.yul\":939:943   */\n  0x20\n    /* \"#utility.yul\":936:937   */\n  0x00\n    /* \"#utility.yul\":926:944   */\n  keccak256\n    /* \"#utility.yul\":918:944   */\n  swap1\n  pop\n    /* \"#utility.yul\":810:951   */\n  swap2\n  swap1\n  pop\n  jump\t// out\n    /* \"#utility.yul\":957:1050   */\ntag_12:\n    /* \"#utility.yul\":994:1000   */\n  0x00\n    /* \"#utility.yul\":1041:1043   */\n  0x20\n    /* \"#utility.yul\":1036:1038   */\n  0x1f\n    /* \"#utility.yul\":1029:1034   */\n  dup4\n    /* \"#utility.yul\":1025:1039   */\n  add\n    /* \"#utility.yul\":1021:1044   */\n  div\n    /* \"#utility.yul\":1011:1044   */\n  swap1\n  pop\n    /* \"#utility.yul\":957:1050   */\n  swap2\n  swap1\n  pop\n  jump\t// out\n    /* \"#utility.yul\":1056:1163   */\ntag_13:\n    /* \"#utility.yul\":1100:1108   */\n  0x00\n    /* \"#utility.yul\":1150:1155   */\n  dup3\n    /* \"#utility.yul\":1144:1148   */\n  dup3\n    /* \"#utility.yul\":1140:1156   */\n  shl\n    /* \"#utility.yul\":1119:1156   */\n  swap1\n  pop\n    /* \"#utility.yul\":1056:1163   */\n  swap3\n  swap2\n  pop\n  pop\n  jump\t// out\n    /* \"#utility.yul\":1169:1562   */\ntag_14:\n    /* \"#utility.yul\":1238:1244   */\n  0x00\n    /* \"#utility.yul\":1288:1289   */\n  0x08\n    /* \"#utility.yul\":1276:1286   */\n  dup4\n    /* \"#utility.yul\":1272:1290   */\n  mul\n    /* \"#utility.yul\":1311:1408   */\n  tag_39\n    /* \"#utility.yul\":1341:1407   */\n  0xffffffffffffffffffffffffffffffffffffffffffffffffffffffffffffffff\n    /* \"#utility.yul\":1330:1339   */\n  dup3\n    /* \"#utility.yul\":1311:1408   */\n  tag_13\n  jump\t// in\ntag_39:\n    /* \"#utility.yul\":1429:1468   */\n  tag_40\n    /* \"#utility.yul\":1459:1467   */\n  dup7\n    /* \"#utility.yul\":1448:1457   */\n  dup4\n    /* \"#utility.yul\":1429:1468   */\n  tag_13\n  jump\t// in\ntag_40:\n    /* \"#utility.yul\":1417:1468   */\n  swap6\n  pop\n    /* \"#utility.yul\":1501:1505   */\n  dup1\n    /* \"#utility.yul\":1497:1506   */\n  not\n    /* \"#utility.yul\":1490:1495   */\n  dup5\n    /* \"#utility.yul\":1486:1507   */\n  and\n    /* \"#utility.yul\":1477:1507   */\n  swap4\n  pop\n    /* \"#utility.yul\":1550:1554   */\n  dup1\n    /* \"#utility.yul\":1540:1548   */\n  dup7\n    /* \"#utility.yul\":1536:1555   */\n  and\n    /* \"#utility.yul\":1529:1534   */\n  dup5\n    /* \"#utility.yul\":1526:1556   */\n  or\n    /* \"#utility.yul\":1516:1556   */\n  swap3\n  pop\n    /* \"#utility.yul\":1245:1562   */\n  pop\n  pop\n    /* \"#utility.yul\":1169:1562   */\n  swap4\n  swap3\n  pop\n  pop\n  pop\n  jump\t// out\n    /* \"#utility.yul\":1568:1645   */\ntag_15:\n    /* \"#utility.yul\":1605:1612   */\n  0x00\n    /* \"#utility.yul\":1634:1639   */\n  dup2\n    /* \"#utility.yul\":1623:1639   */\n  swap1\n  pop\n    /* \"#utility.yul\":1568:1645   */\n  swap2\n  swap1\n  pop\n  jump\t// out\n    /* \"#utility.yul\":1651:1711   */\ntag_16:\n    /* \"#utility.yul\":1679:1682   */\n  0x00\n    /* \"#utility.yul\":1700:1705   */\n  dup2\n    /* \"#utility.yul\":1693:1705   */\n  swap1\n  pop\n    /* \"#utility.yul\":1651:1711   */\n  swap2\n  swap1\n  pop\n  jump\t// out\n    /* \"#utility.yul\":1717:1859   */\ntag_17:\n    /* \"#utility.yul\":1767:1776   */\n  0x00\n    /* \"#utility.yul\":1800:1853   */\n  tag_44\n    /* \"#utility.yul\":1818:1852   */\n  tag_45\n    /* \"#utility.yul\":1827:1851   */\n  tag_46\n    /* \"#utility.yul\":1845:1850   */\n  dup5\n    /* \"#utility.yul\":1827:1851   */\n  tag_15\n  jump\t// in\ntag_46:\n    /* \"#utility.yul\":1818:1852   */\n  tag_16\n  jump\t// in\ntag_45:\n    /* \"#utility.yul\":1800:1853   */\n  tag_15\n  jump\t// in\ntag_44:\n    /* \"#utility.yul\":1787:1853   */\n  swap1\n  pop\n    /* \"#utility.yul\":1717:1859   */\n  swap2\n  swap1\n  pop\n  jump\t// out\n    /* \"#utility.yul\":1865:1940   */\ntag_18:\n    /* \"#utility.yul\":1908:1911   */\n  0x00\n    /* \"#utility.yul\":1929:1934   */\n  dup2\n    /* \"#utility.yul\":1922:1934   */\n  swap1\n  pop\n    /* \"#utility.yul\":1865:1940   */\n  swap2\n  swap1\n  pop\n  jump\t// out\n    /* \"#utility.yul\":1946:2215   */\ntag_19:\n    /* \"#utility.yul\":2056:2095   */\n  tag_49\n    /* \"#utility.yul\":2087:2094   */\n  dup4\n    /* \"#utility.yul\":2056:2095   */\n  tag_17\n  jump\t// in\ntag_49:\n    /* \"#utility.yul\":2117:2208   */\n  tag_50\n    /* \"#utility.yul\":2166:2207   */\n  tag_51\n    /* \"#utility.yul\":2190:2206   */\n  dup3\n    /* \"#utility.yul\":2166:2207   */\n  tag_18\n  jump\t// in\ntag_51:\n    /* \"#utility.yul\":2158:2164   */\n  dup5\n    /* \"#utility.yul\":2151:2155   */\n  dup5\n    /* \"#utility.yul\":2145:2156   */\n  sload\n    /* \"#utility.yul\":2117:2208   */\n  tag_14\n  jump\t// in\ntag_50:\n    /* \"#utility.yul\":2111:2115   */\n  dup3\n    /* \"#utility.yul\":2104:2209   */\n  sstore\n    /* \"#utility.yul\":2022:2215   */\n  pop\n    /* \"#utility.yul\":1946:2215   */\n  pop\n  pop\n  pop\n  jump\t// out\n    /* \"#utility.yul\":2221:2294   */\ntag_20:\n    /* \"#utility.yul\":2266:2269   */\n  0x00\n    /* \"#utility.yul\":2221:2294   */\n  swap1\n  jump\t// out\n    /* \"#utility.yul\":2300:2489   */\ntag_21:\n    /* \"#utility.yul\":2377:2409   */\n  tag_54\n  tag_20\n  jump\t// in\ntag_54:\n    /* \"#utility.yul\":2418:2483   */\n  tag_55\n    /* \"#utility.yul\":2476:2482   */\n  dup2\n    /* \"#utility.yul\":2468:2474   */\n  dup5\n    /* \"#utility.yul\":2462:2466   */\n  dup5\n    /* \"#utility.yul\":2418:2483   */\n  tag_19\n  jump\t// in\ntag_55:\n    /* \"#utility.yul\":2353:2489   */\n  pop\n    /* \"#utility.yul\":2300:2489   */\n  pop\n  pop\n  jump\t// out\n    /* \"#utility.yul\":2495:2681   */\ntag_22:\n    /* \"#utility.yul\":2555:2675   */\ntag_57:\n    /* \"#utility.yul\":2572:2575   */\n  dup2\n    /* \"#utility.yul\":2565:2570   */\n  dup2\n    /* \"#utility.yul\":2562:2576   */\n  lt\n    /* \"#utility.yul\":2555:2675   */\n  iszero\n  tag_59\n  jumpi\n    /* \"#utility.yul\":2626:2665   */\n  tag_60\n    /* \"#utility.yul\":2663:2664   */\n  0x00\n    /* \"#utility.yul\":2656:2661   */\n  dup3\n    /* \"#utility.yul\":2626:2665   */\n  tag_21\n  jump\t// in\ntag_60:\n    /* \"#utility.yul\":2599:2600   */\n  0x01\n    /* \"#utility.yul\":2592:2597   */\n  dup2\n    /* \"#utility.yul\":2588:2601   */\n  add\n    /* \"#utility.yul\":2579:2601   */\n  swap1\n  pop\n    /* \"#utility.yul\":2555:2675   */\n  jump(tag_57)\ntag_59:\n    /* \"#utility.yul\":2495:2681   */\n  pop\n  pop\n  jump\t// out\n    /* \"#utility.yul\":2687:3230   */\ntag_23:\n    /* \"#utility.yul\":2788:2790   */\n  0x1f\n    /* \"#utility.yul\":2783:2786   */\n  dup3\n    /* \"#utility.yul\":2780:2791   */\n  gt\n    /* \"#utility.yul\":2777:3223   */\n  iszero\n  tag_62\n  jumpi\n    /* \"#utility.yul\":2822:2860   */\n  tag_63\n    /* \"#utility.yul\":2854:2859   */\n  dup2\n    /* \"#utility.yul\":2822:2860   */\n  tag_11\n  jump\t// in\ntag_63:\n    /* \"#utility.yul\":2906:2935   */\n  tag_64\n    /* \"#utility.yul\":2924:2934   */\n  dup5\n    /* \"#utility.yul\":2906:2935   */\n  tag_12\n  jump\t// in\ntag_64:\n    /* \"#utility.yul\":2896:2904   */\n  dup2\n    /* \"#utility.yul\":2892:2936   */\n  add\n    /* \"#utility.yul\":3089:3091   */\n  0x20\n    /* \"#utility.yul\":3077:3087   */\n  dup6\n    /* \"#utility.yul\":3074:3092   */\n  lt\n    /* \"#utility.yul\":3071:3120   */\n  iszero\n  tag_65\n  jumpi\n    /* \"#utility.yul\":3110:3118   */\n  dup2\n    /* \"#utility.yul\":3095:3118   */\n  swap1\n  pop\n    /* \"#utility.yul\":3071:3120   */\ntag_65:\n    /* \"#utility.yul\":3133:3213   */\n  tag_66\n    /* \"#utility.yul\":3189:3211   */\n  tag_67\n    /* \"#utility.yul\":3207:3210   */\n  dup6\n    /* \"#utility.yul\":3189:3211   */\n  tag_12\n  jump\t// in\ntag_67:\n    /* \"#utility.yul\":3179:3187   */\n  dup4\n    /* \"#utility.yul\":3175:3212   */\n  add\n    /* \"#utility.yul\":3162:3173   */\n  dup3\n    /* \"#utility.yul\":3133:3213   */\n  tag_22\n  jump\t// in\ntag_66:\n    /* \"#utility.yul\":2792:3223   */\n  pop\n  pop\n    /* \"#utility.yul\":2777:3223   */\ntag_62:\n    /* \"#utility.yul\":2687:3230   */\n  pop\n  pop\n  pop\n  jump\t// out\n    /* \"#utility.yul\":3236:3353   */\ntag_24:\n    /* \"#utility.yul\":3290:3298   */\n  0x00\n    /* \"#utility.yul\":3340:3345   */\n  dup3\n    /* \"#utility.yul\":3334:3338   */\n  dup3\n    /* \"#utility.yul\":3330:3346   */\n  shr\n    /* \"#utility.yul\":3309:3346   */\n  swap1\n  pop\n    /* \"#utility.yul\":3236:3353   */\n  swap3\n  swap2\n  pop\n  pop\n  jump\t// out\n    /* \"#utility.yul\":3359:3528   */\ntag_25:\n    /* \"#utility.yul\":3403:3409   */\n  0x00\n    /* \"#utility.yul\":3436:3487   */\n  tag_70\n    /* \"#utility.yul\":3484:3485   */\n  0x00\n    /* \"#utility.yul\":3480:3486   */\n  not\n    /* \"#utility.yul\":3472:3477   */\n  dup5\n    /* \"#utility.yul\":3469:3470   */\n  0x08\n    /* \"#utility.yul\":3465:3478   */\n  mul\n    /* \"#utility.yul\":3436:3487   */\n  tag_24\n  jump\t// in\ntag_70:\n    /* \"#utility.yul\":3432:3488   */\n  not\n    /* \"#utility.yul\":3517:3521   */\n  dup1\n    /* \"#utility.yul\":3511:3515   */\n  dup4\n    /* \"#utility.yul\":3507:3522   */\n  and\n    /* \"#utility.yul\":3497:3522   */\n  swap2\n  pop\n    /* \"#utility.yul\":3410:3528   */\n  pop\n    /* \"#utility.yul\":3359:3528   */\n  swap3\n  swap2\n  pop\n  pop\n  jump\t// out\n    /* \"#utility.yul\":3533:3828   */\ntag_26:\n    /* \"#utility.yul\":3609:3613   */\n  0x00\n    /* \"#utility.yul\":3755:3784   */\n  tag_72\n    /* \"#utility.yul\":3780:3783   */\n  dup4\n    /* \"#utility.yul\":3774:3778   */\n  dup4\n    /* \"#utility.yul\":3755:3784   */\n  tag_25\n  jump\t// in\ntag_72:\n    /* \"#utility.yul\":3747:3784   */\n  swap2\n  pop\n    /* \"#utility.yul\":3817:3820   */\n  dup3\n    /* \"#utility.yul\":3814:3815   */\n  0x02\n    /* \"#utility.yul\":3810:3821   */\n  mul\n    /* \"#utility.yul\":3804:3808   */\n  dup3\n    /* \"#utility.yul\":3801:3822   */\n  or\n    /* \"#utility.yul\":3793:3822   */\n  swap1\n  pop\n    /* \"#utility.yul\":3533:3828   */\n  swap3\n  swap2\n  pop\n  pop\n  jump\t// out\n    /* \"#utility.yul\":3833:5228   */\ntag_5:\n    /* \"#utility.yul\":3950:3987   */\n  tag_74\n    /* \"#utility.yul\":3983:3986   */\n  dup3\n    /* \"#utility.yul\":3950:3987   */\n  tag_7\n  jump\t// in\ntag_74:\n    /* \"#utility.yul\":4052:4070   */\n  0xffffffffffffffff\n    /* \"#utility.yul\":4044:4050   */\n  dup2\n    /* \"#utility.yul\":4041:4071   */\n  gt\n    /* \"#utility.yul\":4038:4094   */\n  iszero\n  tag_75\n  jumpi\n    /* \"#utility.yul\":4074:4092   */\n  tag_76\n  tag_8\n  jump\t// in\ntag_76:\n    /* \"#utility.yul\":4038:4094   */\ntag_75:\n    /* \"#utility.yul\":4118:4156   */\n  tag_77\n    /* \"#utility.yul\":4150:4154   */\n  dup3\n    /* \"#utility.yul\":4144:4155   */\n  sload\n    /* \"#utility.yul\":4118:4156   */\n  tag_10\n  jump\t// in\ntag_77:\n    /* \"#utility.yul\":4203:4270   */\n  tag_78\n    /* \"#utility.yul\":4263:4269   */\n  dup3\n    /* \"#utility.yul\":4255:4261   */\n  dup3\n    /* \"#utility.yul\":4249:4253   */\n  dup6\n    /* \"#utility.yul\":4203:4270   */\n  tag_23\n  jump\t// in\ntag_78:\n    /* \"#utility.yul\":4297:4298   */\n  0x00\n    /* \"#utility.yul\":4321:4325   */\n  0x20\n    /* \"#utility.yul\":4308:4325   */\n  swap1\n  pop\n    /* \"#utility.yul\":4353:4355   */\n  0x1f\n    /* \"#utility.yul\":4345:4351   */\n  dup4\n    /* \"#utility.yul\":4342:4356   */\n  gt\n    /* \"#utility.yul\":4370:4371   */\n  0x01\n    /* \"#utility.yul\":4365:4983   */\n  dup2\n  eq\n  tag_80\n  jumpi\n    /* \"#utility.yul\":5027:5028   */\n  0x00\n    /* \"#utility.yul\":5044:5050   */\n  dup5\n    /* \"#utility.yul\":5041:5118   */\n  iszero\n  tag_81\n  jumpi\n    /* \"#utility.yul\":5093:5102   */\n  dup3\n    /* \"#utility.yul\":5088:5091   */\n  dup8\n    /* \"#utility.yul\":5084:5103   */\n  add\n    /* \"#utility.yul\":5078:5104   */\n  mload\n    /* \"#utility.yul\":5069:5104   */\n  swap1\n  pop\n    /* \"#utility.yul\":5041:5118   */\ntag_81:\n    /* \"#utility.yul\":5144:5211   */\n  tag_82\n    /* \"#utility.yul\":5204:5210   */\n  dup6\n    /* \"#utility.yul\":5197:5202   */\n  dup3\n    /* \"#utility.yul\":5144:5211   */\n  tag_26\n  jump\t// in\ntag_82:\n    /* \"#utility.yul\":5138:5142   */\n  dup7\n    /* \"#utility.yul\":5131:5212   */\n  sstore\n    /* \"#utility.yul\":5000:5222   */\n  pop\n    /* \"#utility.yul\":4335:5222   */\n  jump(tag_79)\n    /* \"#utility.yul\":4365:4983   */\ntag_80:\n    /* \"#utility.yul\":4417:4421   */\n  0x1f\n    /* \"#utility.yul\":4413:4422   */\n  not\n    /* \"#utility.yul\":4405:4411   */\n  dup5\n    /* \"#utility.yul\":4401:4423   */\n  and\n    /* \"#utility.yul\":4451:4488   */\n  tag_83\n    /* \"#utility.yul\":4483:4487   */\n  dup7\n    /* \"#utility.yul\":4451:4488   */\n  tag_11\n  jump\t// in\ntag_83:\n    /* \"#utility.yul\":4510:4511   */\n  0x00\n    /* \"#utility.yul\":4524:4732   */\ntag_84:\n    /* \"#utility.yul\":4538:4545   */\n  dup3\n    /* \"#utility.yul\":4535:4536   */\n  dup2\n    /* \"#utility.yul\":4532:4546   */\n  lt\n    /* \"#utility.yul\":4524:4732   */\n  iszero\n  tag_86\n  jumpi\n    /* \"#utility.yul\":4617:4626   */\n  dup5\n    /* \"#utility.yul\":4612:4615   */\n  dup10\n    /* \"#utility.yul\":4608:4627   */\n  add\n    /* \"#utility.yul\":4602:4628   */\n  mload\n    /* \"#utility.yul\":4594:4600   */\n  dup3\n    /* \"#utility.yul\":4587:4629   */\n  sstore\n    /* \"#utility.yul\":4668:4669   */\n  0x01\n    /* \"#utility.yul\":4660:4666   */\n  dup3\n    /* \"#utility.yul\":4656:4670   */\n  add\n    /* \"#utility.yul\":4646:4670   */\n  swap2\n  pop\n    /* \"#utility.yul\":4715:4717   */\n  0x20\n    /* \"#utility.yul\":4704:4713   */\n  dup6\n    /* \"#utility.yul\":4700:4718   */\n  add\n    /* \"#utility.yul\":4687:4718   */\n  swap5\n  pop\n    /* \"#utility.yul\":4561:4565   */\n  0x20\n    /* \"#utility.yul\":4558:4559   */\n  dup2\n    /* \"#utility.yul\":4554:4566   */\n  add\n    /* \"#utility.yul\":4549:4566   */\n  swap1\n  pop\n    /* \"#utility.yul\":4524:4732   */\n  jump(tag_84)\ntag_86:\n    /* \"#utility.yul\":4760:4766   */\n  dup7\n    /* \"#utility.yul\":4751:4758   */\n  dup4\n    /* \"#utility.yul\":4748:4767   */\n  lt\n    /* \"#utility.yul\":4745:4924   */\n  iszero\n  tag_87\n  jumpi\n    /* \"#utility.yul\":4818:4827   */\n  dup5\n    /* \"#utility.yul\":4813:4816   */\n  dup10\n    /* \"#utility.yul\":4809:4828   */\n  add\n    /* \"#utility.yul\":4803:4829   */\n  mload\n    /* \"#utility.yul\":4861:4909   */\n  tag_88\n    /* \"#utility.yul\":4903:4907   */\n  0x1f\n    /* \"#utility.yul\":4895:4901   */\n  dup10\n    /* \"#utility.yul\":4891:4908   */\n  and\n    /* \"#utility.yul\":4880:4889   */\n  dup3\n    /* \"#utility.yul\":4861:4909   */\n  tag_25\n  jump\t// in\ntag_88:\n    /* \"#utility.yul\":4853:4859   */\n  dup4\n    /* \"#utility.yul\":4846:4910   */\n  sstore\n    /* \"#utility.yul\":4768:4924   */\n  pop\n    /* \"#utility.yul\":4745:4924   */\ntag_87:\n    /* \"#utility.yul\":4970:4971   */\n  0x01\n    /* \"#utility.yul\":4966:4967   */\n  0x02\n    /* \"#utility.yul\":4958:4964   */\n  dup9\n    /* \"#utility.yul\":4954:4968   */\n  mul\n    /* \"#utility.yul\":4950:4972   */\n  add\n    /* \"#utility.yul\":4944:4948   */\n  dup9\n    /* \"#utility.yul\":4937:4973   */\n  sstore\n    /* \"#utility.yul\":4372:4983   */\n  pop\n  pop\n  pop\n    /* \"#utility.yul\":4335:5222   */\ntag_79:\n  pop\n    /* \"#utility.yul\":3925:5228   */\n  pop\n  pop\n  pop\n    /* \"#utility.yul\":3833:5228   */\n  pop\n  pop\n  jump\t// out\n    /* \"helloworld.sol\":161:442  contract HelloWorld {... */\ntag_6:\n  dataSize(sub_0)\n  dup1\n  dataOffset(sub_0)\n  0x00\n  codecopy\n  0x00\n  return\nstop\n\nsub_0: assembly {\n        /* \"helloworld.sol\":161:442  contract HelloWorld {... */\n      mstore(0x40, 0x80)\n      callvalue\n      dup1\n      iszero\n      tag_1\n      jumpi\n      0x00\n      dup1\n      revert\n    tag_1:\n      pop\n      jumpi(tag_2, lt(calldatasize, 0x04))\n      shr(0xe0, calldataload(0x00))\n      dup1\n      0x5d3a1f9d\n      eq\n      tag_3\n      jumpi\n      dup1\n      0xc605f76c\n      eq\n      tag_4\n      jumpi\n    tag_2:\n      0x00\n      dup1\n      revert\n        /* \"helloworld.sol\":360:440  function setText(string calldata newText) public {... */\n    tag_3:\n      tag_5\n      0x04\n      dup1\n      calldatasize\n      sub\n      dup2\n      add\n      swap1\n      tag_6\n      swap2\n      swap1\n      tag_7\n      jump\t// in\n    tag_6:\n      tag_8\n      jump\t// in\n    tag_5:\n      stop\n        /* \"helloworld.sol\":269:354  function helloWorld() public view returns (string memory){... */\n    tag_4:\n      tag_9\n      tag_10\n      jump\t// in\n    tag_9:\n      mload(0x40)\n      tag_11\n      swap2\n      swap1\n      tag_12\n      jump\t// in\n    tag_11:\n      mload(0x40)\n      dup1\n      swap2\n      sub\n      swap1\n      return\n        /* \"helloworld.sol\":360:440  function setText(string calldata newText) public {... */\n    tag_8:\n        /* \"helloworld.sol\":426:433  newText */\n      dup2\n      dup2\n        /* \"helloworld.sol\":419:423  text */\n      0x00\n        /* \"helloworld.sol\":419:433  text = newText */\n      swap2\n      dup3\n      tag_14\n      swap3\n      swap2\n      swap1\n      tag_15\n      jump\t// in\n    tag_14:\n      pop\n        /* \"helloworld.sol\":360:440  function setText(string calldata newText) public {... */\n      pop\n      pop\n      jump\t// out\n        /* \"helloworld.sol\":269:354  function helloWorld() public view returns (string memory){... */\n    tag_10:\n        /* \"helloworld.sol\":312:325  string memory */\n      0x60\n        /* \"helloworld.sol\":343:347  text */\n      0x00\n        /* \"helloworld.sol\":336:347  return text */\n      dup1\n      sload\n      tag_17\n      swap1\n      tag_18\n      jump\t// in\n    tag_17:\n      dup1\n      0x1f\n      add\n      0x20\n      dup1\n      swap2\n      div\n      mul\n      0x20\n      add\n      mload(0x40)\n      swap1\n      dup2\n      add\n      0x40\n      mstore\n      dup1\n      swap3\n      swap2\n      swap1\n      dup2\n      dup2\n      mstore\n      0x20\n      add\n      dup3\n      dup1\n      sload\n      tag_19\n      swap1\n      tag_18\n      jump\t// in\n    tag_19:\n      dup1\n      iszero\n      tag_20\n      jumpi\n      dup1\n      0x1f\n      lt\n      tag_21\n      jumpi\n      0x0100\n      dup1\n      dup4\n      sload\n      div\n      mul\n      dup4\n      mstore\n      swap2\n      0x20\n      add\n      swap2\n      jump(tag_20)\n    tag_21:\n      dup3\n      add\n      swap2\n      swap1\n      0x00\n      mstore\n      keccak256(0x00, 0x20)\n      swap1\n    tag_22:\n      dup2\n      sload\n      dup2\n      mstore\n      swap1\n      0x01\n      add\n      swap1\n      0x20\n      add\n      dup1\n      dup4\n      gt\n      tag_22\n      jumpi\n      dup3\n      swap1\n      sub\n      0x1f\n      and\n      dup3\n      add\n      swap2\n    tag_20:\n      pop\n      pop\n      pop\n      pop\n      pop\n      swap1\n      pop\n        /* \"helloworld.sol\":269:354  function helloWorld() public view returns (string memory){... */\n      swap1\n      jump\t// out\n        /* \"#utility.yul\":88:205   */\n    tag_24:\n        /* \"#utility.yul\":197:198   */\n      0x00\n        /* \"#utility.yul\":194:195   */\n      dup1\n        /* \"#utility.yul\":187:199   */\n      revert\n        /* \"#utility.yul\":211:328   */\n    tag_25:\n        /* \"#utility.yul\":320:321   */\n      0x00\n        /* \"#utility.yul\":317:318   */\n      dup1\n        /* \"#utility.yul\":310:322   */\n      revert\n        /* \"#utility.yul\":334:451   */\n    tag_26:\n        /* \"#utility.yul\":443:444   */\n      0x00\n        /* \"#utility.yul\":440:441   */\n      dup1\n        /* \"#utility.yul\":433:445   */\n      revert\n        /* \"#utility.yul\":457:574   */\n    tag_27:\n        /* \"#utility.yul\":566:567   */\n      0x00\n        /* \"#utility.yul\":563:564   */\n      dup1\n        /* \"#utility.yul\":556:568   */\n      revert\n        /* \"#utility.yul\":580:697   */\n    tag_28:\n        /* \"#utility.yul\":689:690   */\n      0x00\n        /* \"#utility.yul\":686:687   */\n      dup1\n        /* \"#utility.yul\":679:691   */\n      revert\n        /* \"#utility.yul\":717:1270   */\n    tag_29:\n        /* \"#utility.yul\":775:783   */\n      0x00\n        /* \"#utility.yul\":785:791   */\n      dup1\n        /* \"#utility.yul\":835:838   */\n      dup4\n        /* \"#utility.yul\":828:832   */\n      0x1f\n        /* \"#utility.yul\":820:826   */\n      dup5\n        /* \"#utility.yul\":816:833   */\n      add\n        /* \"#utility.yul\":812:839   */\n      slt\n        /* \"#utility.yul\":802:924   */\n      tag_62\n      jumpi\n        /* \"#utility.yul\":843:922   */\n      tag_63\n      tag_26\n      jump\t// in\n    tag_63:\n        /* \"#utility.yul\":802:924   */\n    tag_62:\n        /* \"#utility.yul\":956:962   */\n      dup3\n        /* \"#utility.yul\":943:963   */\n      calldataload\n        /* \"#utility.yul\":933:963   */\n      swap1\n      pop\n        /* \"#utility.yul\":986:1004   */\n      0xffffffffffffffff\n        /* \"#utility.yul\":978:984   */\n      dup2\n        /* \"#utility.yul\":975:1005   */\n      gt\n        /* \"#utility.yul\":972:1089   */\n      iszero\n      tag_64\n      jumpi\n        /* \"#utility.yul\":1008:1087   */\n      tag_65\n      tag_27\n      jump\t// in\n    tag_65:\n        /* \"#utility.yul\":972:1089   */\n    tag_64:\n        /* \"#utility.yul\":1122:1126   */\n      0x20\n        /* \"#utility.yul\":1114:1120   */\n      dup4\n        /* \"#utility.yul\":1110:1127   */\n      add\n        /* \"#utility.yul\":1098:1127   */\n      swap2\n      pop\n        /* \"#utility.yul\":1176:1179   */\n      dup4\n        /* \"#utility.yul\":1168:1172   */\n      0x01\n        /* \"#utility.yul\":1160:1166   */\n      dup3\n        /* \"#utility.yul\":1156:1173   */\n      mul\n        /* \"#utility.yul\":1146:1154   */\n      dup4\n        /* \"#utility.yul\":1142:1174   */\n      add\n        /* \"#utility.yul\":1139:1180   */\n      gt\n        /* \"#utility.yul\":1136:1264   */\n      iszero\n      tag_66\n      jumpi\n        /* \"#utility.yul\":1183:1262   */\n      tag_67\n      tag_28\n      jump\t// in\n    tag_67:\n        /* \"#utility.yul\":1136:1264   */\n    tag_66:\n        /* \"#utility.yul\":717:1270   */\n      swap3\n      pop\n      swap3\n      swap1\n      pop\n      jump\t// out\n        /* \"#utility.yul\":1276:1805   */\n    tag_7:\n        /* \"#utility.yul\":1347:1353   */\n      0x00\n        /* \"#utility.yul\":1355:1361   */\n      dup1\n        /* \"#utility.yul\":1404:1406   */\n      0x20\n        /* \"#utility.yul\":1392:1401   */\n      dup4\n        /* \"#utility.yul\":1383:1390   */\n      dup6\n        /* \"#utility.yul\":1379:1402   */\n      sub\n        /* \"#utility.yul\":1375:1407   */\n      slt\n        /* \"#utility.yul\":1372:1491   */\n      iszero\n      tag_69\n      jumpi\n        /* \"#utility.yul\":1410:1489   */\n      tag_70\n      tag_24\n      jump\t// in\n    tag_70:\n        /* \"#utility.yul\":1372:1491   */\n    tag_69:\n        /* \"#utility.yul\":1558:1559   */\n      0x00\n        /* \"#utility.yul\":1547:1556   */\n      dup4\n        /* \"#utility.yul\":1543:1560   */\n      add\n        /* \"#utility.yul\":1530:1561   */\n      calldataload\n        /* \"#utility.yul\":1588:1606   */\n      0xffffffffffffffff\n        /* \"#utility.yul\":1580:1586   */\n      dup2\n        /* \"#utility.yul\":1577:1607   */\n      gt\n        /* \"#utility.yul\":1574:1691   */\n      iszero\n      tag_71\n      jumpi\n        /* \"#utility.yul\":1610:1689   */\n      tag_72\n      tag_25\n      jump\t// in\n    tag_72:\n        /* \"#utility.yul\":1574:1691   */\n    tag_71:\n        /* \"#utility.yul\":1723:1788   */\n      tag_73\n        /* \"#utility.yul\":1780:1787   */\n      dup6\n        /* \"#utility.yul\":1771:1777   */\n      dup3\n        /* \"#utility.yul\":1760:1769   */\n      dup7\n        /* \"#utility.yul\":1756:1778   */\n      add\n        /* \"#utility.yul\":1723:1788   */\n      tag_29\n      jump\t// in\n    tag_73:\n        /* \"#utility.yul\":1705:1788   */\n      swap3\n      pop\n      swap3\n      pop\n        /* \"#utility.yul\":1501:1798   */\n      pop\n        /* \"#utility.yul\":1276:1805   */\n      swap3\n      pop\n      swap3\n      swap1\n      pop\n      jump\t// out\n        /* \"#utility.yul\":1811:1910   */\n    tag_30:\n        /* \"#utility.yul\":1863:1869   */\n      0x00\n        /* \"#utility.yul\":1897:1902   */\n      dup2\n        /* \"#utility.yul\":1891:1903   */\n      mload\n        /* \"#utility.yul\":1881:1903   */\n      swap1\n      pop\n        /* \"#utility.yul\":1811:1910   */\n      swap2\n      swap1\n      pop\n      jump\t// out\n        /* \"#utility.yul\":1916:2085   */\n    tag_31:\n        /* \"#utility.yul\":2000:2011   */\n      0x00\n        /* \"#utility.yul\":2034:2040   */\n      dup3\n        /* \"#utility.yul\":2029:2032   */\n      dup3\n        /* \"#utility.yul\":2022:2041   */\n      mstore\n        /* \"#utility.yul\":2074:2078   */\n      0x20\n        /* \"#utility.yul\":2069:2072   */\n      dup3\n        /* \"#utility.yul\":2065:2079   */\n      add\n        /* \"#utility.yul\":2050:2079   */\n      swap1\n      pop\n        /* \"#utility.yul\":1916:2085   */\n      swap3\n      swap2\n      pop\n      pop\n      jump\t// out\n        /* \"#utility.yul\":2091:2337   */\n    tag_32:\n        /* \"#utility.yul\":2172:2173   */\n      0x00\n        /* \"#utility.yul\":2182:2295   */\n    tag_77:\n        /* \"#utility.yul\":2196:2202   */\n      dup4\n        /* \"#utility.yul\":2193:2194   */\n      dup2\n        /* \"#utility.yul\":2190:2203   */\n      lt\n        /* \"#utility.yul\":2182:2295   */\n      iszero\n      tag_79\n      jumpi\n        /* \"#utility.yul\":2281:2282   */\n      dup1\n        /* \"#utility.yul\":2276:2279   */\n      dup3\n        /* \"#utility.yul\":2272:2283   */\n      add\n        /* \"#utility.yul\":2266:2284   */\n      mload\n        /* \"#utility.yul\":2262:2263   */\n      dup2\n        /* \"#utility.yul\":2257:2260   */\n      dup5\n        /* \"#utility.yul\":2253:2264   */\n      add\n        /* \"#utility.yul\":2246:2285   */\n      mstore\n        /* \"#utility.yul\":2218:2220   */\n      0x20\n        /* \"#utility.yul\":2215:2216   */\n      dup2\n        /* \"#utility.yul\":2211:2221   */\n      add\n        /* \"#utility.yul\":2206:2221   */\n      swap1\n      pop\n        /* \"#utility.yul\":2182:2295   */\n      jump(tag_77)\n    tag_79:\n        /* \"#utility.yul\":2329:2330   */\n      0x00\n        /* \"#utility.yul\":2320:2326   */\n      dup5\n        /* \"#utility.yul\":2315:2318   */\n      dup5\n        /* \"#utility.yul\":2311:2327   */\n      add\n        /* \"#utility.yul\":2304:2331   */\n      mstore\n        /* \"#utility.yul\":2153:2337   */\n      pop\n        /* \"#utility.yul\":2091:2337   */\n      pop\n      pop\n      pop\n      jump\t// out\n        /* \"#utility.yul\":2343:2445   */\n    tag_33:\n        /* \"#utility.yul\":2384:2390   */\n      0x00\n        /* \"#utility.yul\":2435:2437   */\n      0x1f\n        /* \"#utility.yul\":2431:2438   */\n      not\n        /* \"#utility.yul\":2426:2428   */\n      0x1f\n        /* \"#utility.yul\":2419:2424   */\n      dup4\n        /* \"#utility.yul\":2415:2429   */\n      add\n        /* \"#utility.yul\":2411:2439   */\n      and\n        /* \"#utility.yul\":2401:2439   */\n      swap1\n      pop\n        /* \"#utility.yul\":2343:2445   */\n      swap2\n      swap1\n      pop\n      jump\t// out\n        /* \"#utility.yul\":2451:2828   */\n    tag_34:\n        /* \"#utility.yul\":2539:2542   */\n      0x00\n        /* \"#utility.yul\":2567:2606   */\n      tag_82\n        /* \"#utility.yul\":2600:2605   */\n      dup3\n        /* \"#utility.yul\":2567:2606   */\n      tag_30\n      jump\t// in\n    tag_82:\n        /* \"#utility.yul\":2622:2693   */\n      tag_83\n        /* \"#utility.yul\":2686:2692   */\n      dup2\n        /* \"#utility.yul\":2681:2684   */\n      dup6\n        /* \"#utility.yul\":2622:2693   */\n      tag_31\n      jump\t// in\n    tag_83:\n        /* \"#utility.yul\":2615:2693   */\n      swap4\n      pop\n        /* \"#utility.yul\":2702:2767   */\n      tag_84\n        /* \"#utility.yul\":2760:2766   */\n      dup2\n        /* \"#utility.yul\":2755:2758   */\n      dup6\n        /* \"#utility.yul\":2748:2752   */\n      0x20\n        /* \"#utility.yul\":2741:2746   */\n      dup7\n        /* \"#utility.yul\":2737:2753   */\n      add\n        /* \"#utility.yul\":2702:2767   */\n      tag_32\n      jump\t// in\n    tag_84:\n        /* \"#utility.yul\":2792:2821   */\n      tag_85\n        /* \"#utility.yul\":2814:2820   */\n      dup2\n        /* \"#utility.yul\":2792:2821   */\n      tag_33\n      jump\t// in\n    tag_85:\n        /* \"#utility.yul\":2787:2790   */\n      dup5\n        /* \"#utility.yul\":2783:2822   */\n      add\n        /* \"#utility.yul\":2776:2822   */\n      swap2\n      pop\n        /* \"#utility.yul\":2543:2828   */\n      pop\n        /* \"#utility.yul\":2451:2828   */\n      swap3\n      swap2\n      pop\n      pop\n      jump\t// out\n        /* \"#utility.yul\":2834:3147   */\n    tag_12:\n        /* \"#utility.yul\":2947:2951   */\n      0x00\n        /* \"#utility.yul\":2985:2987   */\n      0x20\n        /* \"#utility.yul\":2974:2983   */\n      dup3\n        /* \"#utility.yul\":2970:2988   */\n      add\n        /* \"#utility.yul\":2962:2988   */\n      swap1\n      pop\n        /* \"#utility.yul\":3034:3043   */\n      dup2\n        /* \"#utility.yul\":3028:3032   */\n      dup2\n        /* \"#utility.yul\":3024:3044   */\n      sub\n        /* \"#utility.yul\":3020:3021   */\n      0x00\n        /* \"#utility.yul\":3009:3018   */\n      dup4\n        /* \"#utility.yul\":3005:3022   */\n      add\n        /* \"#utility.yul\":2998:3045   */\n      mstore\n        /* \"#utility.yul\":3062:3140   */\n      tag_87\n        /* \"#utility.yul\":3135:3139   */\n      dup2\n        /* \"#utility.yul\":3126:3132   */\n      dup5\n        /* \"#utility.yul\":3062:3140   */\n      tag_34\n      jump\t// in\n    tag_87:\n        /* \"#utility.yul\":3054:3140   */\n      swap1\n      pop\n        /* \"#utility.yul\":2834:3147   */\n      swap3\n      swap2\n      pop\n      pop\n      jump\t// out\n        /* \"#utility.yul\":3153:3250   */\n    tag_35:\n        /* \"#utility.yul\":3212:3218   */\n      0x00\n        /* \"#utility.yul\":3240:3243   */\n      dup3\n        /* \"#utility.yul\":3230:3243   */\n      swap1\n      pop\n        /* \"#utility.yul\":3153:3250   */\n      swap3\n      swap2\n      pop\n      pop\n      jump\t// out\n        /* \"#utility.yul\":3256:3436   */\n    tag_36:\n        /* \"#utility.yul\":3304:3381   */\n      0x4e487b7100000000000000000000000000000000000000000000000000000000\n        /* \"#utility.yul\":3301:3302   */\n      0x00\n        /* \"#utility.yul\":3294:3382   */\n      mstore\n        /* \"#utility.yul\":3401:3405   */\n      0x41\n        /* \"#utility.yul\":3398:3399   */\n      0x04\n        /* \"#utility.yul\":3391:3406   */\n      mstore\n        /* \"#utility.yul\":3425:3429   */\n      0x24\n        /* \"#utility.yul\":3422:3423   */\n      0x00\n        /* \"#utility.yul\":3415:3430   */\n      revert\n        /* \"#utility.yul\":3442:3622   */\n    tag_37:\n        /* \"#utility.yul\":3490:3567   */\n      0x4e487b7100000000000000000000000000000000000000000000000000000000\n        /* \"#utility.yul\":3487:3488   */\n      0x00\n        /* \"#utility.yul\":3480:3568   */\n      mstore\n        /* \"#utility.yul\":3587:3591   */\n      0x22\n        /* \"#utility.yul\":3584:3585   */\n      0x04\n        /* \"#utility.yul\":3577:3592   */\n      mstore\n        /* \"#utility.yul\":3611:3615   */\n      0x24\n        /* \"#utility.yul\":3608:3609   */\n      0x00\n        /* \"#utility.yul\":3601:3616   */\n      revert\n        /* \"#utility.yul\":3628:3948   */\n    tag_18:\n        /* \"#utility.yul\":3672:3678   */\n      0x00\n        /* \"#utility.yul\":3709:3710   */\n      0x02\n        /* \"#utility.yul\":3703:3707   */\n      dup3\n        /* \"#utility.yul\":3699:3711   */\n      div\n        /* \"#utility.yul\":3689:3711   */\n      swap1\n      pop\n        /* \"#utility.yul\":3756:3757   */\n      0x01\n        /* \"#utility.yul\":3750:3754   */\n      dup3\n        /* \"#utility.yul\":3746:3758   */\n      and\n        /* \"#utility.yul\":3777:3795   */\n      dup1\n        /* \"#utility.yul\":3767:3848   */\n      tag_92\n      jumpi\n        /* \"#utility.yul\":3833:3837   */\n      0x7f\n        /* \"#utility.yul\":3825:3831   */\n      dup3\n        /* \"#utility.yul\":3821:3838   */\n      and\n        /* \"#utility.yul\":3811:3838   */\n      swap2\n      pop\n        /* \"#utility.yul\":3767:3848   */\n    tag_92:\n        /* \"#utility.yul\":3895:3897   */\n      0x20\n        /* \"#utility.yul\":3887:3893   */\n      dup3\n        /* \"#utility.yul\":3884:3898   */\n      lt\n        /* \"#utility.yul\":3864:3882   */\n      dup2\n        /* \"#utility.yul\":3861:3899   */\n      sub\n        /* \"#utility.yul\":3858:3942   */\n      tag_93\n      jumpi\n        /* \"#utility.yul\":3914:3932   */\n      tag_94\n      tag_37\n      jump\t// in\n    tag_94:\n        /* \"#utility.yul\":3858:3942   */\n    tag_93:\n        /* \"#utility.yul\":3679:3948   */\n      pop\n        /* \"#utility.yul\":3628:3948   */\n      swap2\n      swap1\n      pop\n      jump\t// out\n        /* \"#utility.yul\":3954:4095   */\n    tag_38:\n        /* \"#utility.yul\":4003:4007   */\n      0x00\n        /* \"#utility.yul\":4026:4029   */\n      dup2\n        /* \"#utility.yul\":4018:4029   */\n      swap1\n      pop\n        /* \"#utility.yul\":4049:4052   */\n      dup2\n        /* \"#utility.yul\":4046:4047   */\n      0x00\n        /* \"#utility.yul\":4039:4053   */\n      mstore\n        /* \"#utility.yul\":4083:4087   */\n      0x20\n        /* \"#utility.yul\":4080:4081   */\n      0x00\n        /* \"#utility.yul\":4070:4088   */\n      keccak256\n        /* \"#utility.yul\":4062:4088   */\n      swap1\n      pop\n        /* \"#utility.yul\":3954:4095   */\n      swap2\n      swap1\n      pop\n      jump\t// out\n        /* \"#utility.yul\":4101:4194   */\n    tag_39:\n        /* \"#utility.yul\":4138:4144   */\n      0x00\n        /* \"#utility.yul\":4185:4187   */\n      0x20\n        /* \"#utility.yul\":4180:4182   */\n      0x1f\n        /* \"#utility.yul\":4173:4178   */\n      dup4\n        /* \"#utility.yul\":4169:4183   */\n      add\n        /* \"#utility.yul\":4165:4188   */\n      div\n        /* \"#utility.yul\":4155:4188   */\n      swap1\n      pop\n        /* \"#utility.yul\":4101:4194   */\n      swap2\n      swap1\n      pop\n      jump\t// out\n        /* \"#utility.yul\":4200:4307   */\n    tag_40:\n        /* \"#utility.yul\":4244:4252   */\n      0x00\n        /* \"#utility.yul\":4294:4299   */\n      dup3\n        /* \"#utility.yul\":4288:4292   */\n      dup3\n        /* \"#utility.yul\":4284:4300   */\n      shl\n        /* \"#utility.yul\":4263:4300   */\n      swap1\n      pop\n        /* \"#utility.yul\":4200:4307   */\n      swap3\n      swap2\n      pop\n      pop\n      jump\t// out\n        /* \"#utility.yul\":4313:4706   */\n    tag_41:\n        /* \"#utility.yul\":4382:4388   */\n      0x00\n        /* \"#utility.yul\":4432:4433   */\n      0x08\n        /* \"#utility.yul\":4420:4430   */\n      dup4\n        /* \"#utility.yul\":4416:4434   */\n      mul\n        /* \"#utility.yul\":4455:4552   */\n      tag_99\n        /* \"#utility.yul\":4485:4551   */\n      0xffffffffffffffffffffffffffffffffffffffffffffffffffffffffffffffff\n        /* \"#utility.yul\":4474:4483   */\n      dup3\n        /* \"#utility.yul\":4455:4552   */\n      tag_40\n      jump\t// in\n    tag_99:\n        /* \"#utility.yul\":4573:4612   */\n      tag_100\n        /* \"#utility.yul\":4603:4611   */\n      dup7\n        /* \"#utility.yul\":4592:4601   */\n      dup4\n        /* \"#utility.yul\":4573:4612   */\n      tag_40\n      jump\t// in\n    tag_100:\n        /* \"#utility.yul\":4561:4612   */\n      swap6\n      pop\n        /* \"#utility.yul\":4645:4649   */\n      dup1\n        /* \"#utility.yul\":4641:4650   */\n      not\n        /* \"#utility.yul\":4634:4639   */\n      dup5\n        /* \"#utility.yul\":4630:4651   */\n      and\n        /* \"#utility.yul\":4621:4651   */\n      swap4\n      pop\n        /* \"#utility.yul\":4694:4698   */\n      dup1\n        /* \"#utility.yul\":4684:4692   */\n      dup7\n        /* \"#utility.yul\":4680:4699   */\n      and\n        /* \"#utility.yul\":4673:4678   */\n      dup5\n        /* \"#utility.yul\":4670:4700   */\n      or\n        /* \"#utility.yul\":4660:4700   */\n      swap3\n      pop\n        /* \"#utility.yul\":4389:4706   */\n      pop\n      pop\n        /* \"#utility.yul\":4313:4706   */\n      swap4\n      swap3\n      pop\n      pop\n      pop\n      jump\t// out\n        /* \"#utility.yul\":4712:4789   */\n    tag_42:\n        /* \"#utility.yul\":4749:4756   */\n      0x00\n        /* \"#utility.yul\":4778:4783   */\n      dup2\n        /* \"#utility.yul\":4767:4783   */\n      swap1\n      pop\n        /* \"#utility.yul\":4712:4789   */\n      swap2\n      swap1\n      pop\n      jump\t// out\n        /* \"#utility.yul\":4795:4855   */\n    tag_43:\n        /* \"#utility.yul\":4823:4826   */\n      0x00\n        /* \"#utility.yul\":4844:4849   */\n      dup2\n        /* \"#utility.yul\":4837:4849   */\n      swap1\n      pop\n        /* \"#utility.yul\":4795:4855   */\n      swap2\n      swap1\n      pop\n      jump\t// out\n        /* \"#utility.yul\":4861:5003   */\n    tag_44:\n        /* \"#utility.yul\":4911:4920   */\n      0x00\n        /* \"#utility.yul\":4944:4997   */\n      tag_104\n        /* \"#utility.yul\":4962:4996   */\n      tag_105\n        /* \"#utility.yul\":4971:4995   */\n      tag_106\n        /* \"#utility.yul\":4989:4994   */\n      dup5\n        /* \"#utility.yul\":4971:4995   */\n      tag_42\n      jump\t// in\n    tag_106:\n        /* \"#utility.yul\":4962:4996   */\n      tag_43\n      jump\t// in\n    tag_105:\n        /* \"#utility.yul\":4944:4997   */\n      tag_42\n      jump\t// in\n    tag_104:\n        /* \"#utility.yul\":4931:4997   */\n      swap1\n      pop\n        /* \"#utility.yul\":4861:5003   */\n      swap2\n      swap1\n      pop\n      jump\t// out\n        /* \"#utility.yul\":5009:5084   */\n    tag_45:\n        /* \"#utility.yul\":5052:5055   */\n      0x00\n        /* \"#utility.yul\":5073:5078   */\n      dup2\n        /* \"#utility.yul\":5066:5078   */\n      swap1\n      pop\n        /* \"#utility.yul\":5009:5084   */\n      swap2\n      swap1\n      pop\n      jump\t// out\n        /* \"#utility.yul\":5090:5359   */\n    tag_46:\n        /* \"#utility.yul\":5200:5239   */\n      tag_109\n        /* \"#utility.yul\":5231:5238   */\n      dup4\n        /* \"#utility.yul\":5200:5239   */\n      tag_44\n      jump\t// in\n    tag_109:\n        /* \"#utility.yul\":5261:5352   */\n      tag_110\n        /* \"#utility.yul\":5310:5351   */\n      tag_111\n        /* \"#utility.yul\":5334:5350   */\n      dup3\n        /* \"#utility.yul\":5310:5351   */\n      tag_45\n      jump\t// in\n    tag_111:\n        /* \"#utility.yul\":5302:5308   */\n      dup5\n        /* \"#utility.yul\":5295:5299   */\n      dup5\n        /* \"#utility.yul\":5289:5300   */\n      sload\n        /* \"#utility.yul\":5261:5352   */\n      tag_41\n      jump\t// in\n    tag_110:\n        /* \"#utility.yul\":5255:5259   */\n      dup3\n        /* \"#utility.yul\":5248:5353   */\n      sstore\n        /* \"#utility.yul\":5166:5359   */\n      pop\n        /* \"#utility.yul\":5090:5359   */\n      pop\n      pop\n      pop\n      jump\t// out\n        /* \"#utility.yul\":5365:5438   */\n    tag_47:\n        /* \"#utility.yul\":5410:5413   */\n      0x00\n        /* \"#utility.yul\":5365:5438   */\n      swap1\n      jump\t// out\n        /* \"#utility.yul\":5444:5633   */\n    tag_48:\n        /* \"#utility.yul\":5521:5553   */\n      tag_114\n      tag_47\n      jump\t// in\n    tag_114:\n        /* \"#utility.yul\":5562:5627   */\n      tag_115\n        /* \"#utility.yul\":5620:5626   */\n      dup2\n        /* \"#utility.yul\":5612:5618   */\n      dup5\n        /* \"#utility.yul\":5606:5610   */\n      dup5\n        /* \"#utility.yul\":5562:5627   */\n      tag_46\n      jump\t// in\n    tag_115:\n        /* \"#utility.yul\":5497:5633   */\n      pop\n        /* \"#utility.yul\":5444:5633   */\n      pop\n      pop\n      jump\t// out\n        /* \"#utility.yul\":5639:5825   */\n    tag_49:\n        /* \"#utility.yul\":5699:5819   */\n    tag_117:\n        /* \"#utility.yul\":5716:5719   */\n      dup2\n        /* \"#utility.yul\":5709:5714   */\n      dup2\n        /* \"#utility.yul\":5706:5720   */\n      lt\n        /* \"#utility.yul\":5699:5819   */\n      iszero\n      tag_119\n      jumpi\n        /* \"#utility.yul\":5770:5809   */\n      tag_120\n        /* \"#utility.yul\":5807:5808   */\n      0x00\n        /* \"#utility.yul\":5800:5805   */\n      dup3\n        /* \"#utility.yul\":5770:5809   */\n      tag_48\n      jump\t// in\n    tag_120:\n        /* \"#utility.yul\":5743:5744   */\n      0x01\n        /* \"#utility.yul\":5736:5741   */\n      dup2\n        /* \"#utility.yul\":5732:5745   */\n      add\n        /* \"#utility.yul\":5723:5745   */\n      swap1\n      pop\n        /* \"#utility.yul\":5699:5819   */\n      jump(tag_117)\n    tag_119:\n        /* \"#utility.yul\":5639:5825   */\n      pop\n      pop\n      jump\t// out\n        /* \"#utility.yul\":5831:6374   */\n    tag_50:\n        /* \"#utility.yul\":5932:5934   */\n      0x1f\n        /* \"#utility.yul\":5927:5930   */\n      dup3\n        /* \"#utility.yul\":5924:5935   */\n      gt\n        /* \"#utility.yul\":5921:6367   */\n      iszero\n      tag_122\n      jumpi\n        /* \"#utility.yul\":5966:6004   */\n      tag_123\n        /* \"#utility.yul\":5998:6003   */\n      dup2\n        /* \"#utility.yul\":5966:6004   */\n      tag_38\n      jump\t// in\n    tag_123:\n        /* \"#utility.yul\":6050:6079   */\n      tag_124\n        /* \"#utility.yul\":6068:6078   */\n      dup5\n        /* \"#utility.yul\":6050:6079   */\n      tag_39\n      jump\t// in\n    tag_124:\n        /* \"#utility.yul\":6040:6048   */\n      dup2\n        /* \"#utility.yul\":6036:6080   */\n      add\n        /* \"#utility.yul\":6233:6235   */\n      0x20\n        /* \"#utility.yul\":6221:6231   */\n      dup6\n        /* \"#utility.yul\":6218:6236   */\n      lt\n        /* \"#utility.yul\":6215:6264   */\n      iszero\n      tag_125\n      jumpi\n        /* \"#utility.yul\":6254:6262   */\n      dup2\n        /* \"#utility.yul\":6239:6262   */\n      swap1\n      pop\n        /* \"#utility.yul\":6215:6264   */\n    tag_125:\n        /* \"#utility.yul\":6277:6357   */\n      tag_126\n        /* \"#utility.yul\":6333:6355   */\n      tag_127\n        /* \"#utility.yul\":6351:6354   */\n      dup6\n        /* \"#utility.yul\":6333:6355   */\n      tag_39\n      jump\t// in\n    tag_127:\n        /* \"#utility.yul\":6323:6331   */\n      dup4\n        /* \"#utility.yul\":6319:6356   */\n      add\n        /* \"#utility.yul\":6306:6317   */\n      dup3\n        /* \"#utility.yul\":6277:6357   */\n      tag_49\n      jump\t// in\n    tag_126:\n        /* \"#utility.yul\":5936:6367   */\n      pop\n      pop\n        /* \"#utility.yul\":5921:6367   */\n    tag_122:\n        /* \"#utility.yul\":5831:6374   */\n      pop\n      pop\n      pop\n      jump\t// out\n        /* \"#utility.yul\":6380:6497   */\n    tag_51:\n        /* \"#utility.yul\":6434:6442   */\n      0x00\n        /* \"#utility.yul\":6484:6489   */\n      dup3\n        /* \"#utility.yul\":6478:6482   */\n      dup3\n        /* \"#utility.yul\":6474:6490   */\n      shr\n        /* \"#utility.yul\":6453:6490   */\n      swap1\n      pop\n        /* \"#utility.yul\":6380:6497   */\n      swap3\n      swap2\n      pop\n      pop\n      jump\t// out\n        /* \"#utility.yul\":6503:6672   */\n    tag_52:\n        /* \"#utility.yul\":6547:6553   */\n      0x00\n        /* \"#utility.yul\":6580:6631   */\n      tag_130\n        /* \"#utility.yul\":6628:6629   */\n      0x00\n        /* \"#utility.yul\":6624:6630   */\n      not\n        /* \"#utility.yul\":6616:6621   */\n      dup5\n        /* \"#utility.yul\":6613:6614   */\n      0x08\n        /* \"#utility.yul\":6609:6622   */\n      mul\n        /* \"#utility.yul\":6580:6631   */\n      tag_51\n      jump\t// in\n    tag_130:\n        /* \"#utility.yul\":6576:6632   */\n      not\n        /* \"#utility.yul\":6661:6665   */\n      dup1\n        /* \"#utility.yul\":6655:6659   */\n      dup4\n        /* \"#utility.yul\":6651:6666   */\n      and\n        /* \"#utility.yul\":6641:6666   */\n      swap2\n      pop\n        /* \"#utility.yul\":6554:6672   */\n      pop\n        /* \"#utility.yul\":6503:6672   */\n      swap3\n      swap2\n      pop\n      pop\n      jump\t// out\n        /* \"#utility.yul\":6677:6972   */\n    tag_53:\n        /* \"#utility.yul\":6753:6757   */\n      0x00\n        /* \"#utility.yul\":6899:6928   */\n      tag_132\n        /* \"#utility.yul\":6924:6927   */\n      dup4\n        /* \"#utility.yul\":6918:6922   */\n      dup4\n        /* \"#utility.yul\":6899:6928   */\n      tag_52\n      jump\t// in\n    tag_132:\n        /* \"#utility.yul\":6891:6928   */\n      swap2\n      pop\n        /* \"#utility.yul\":6961:6964   */\n      dup3\n        /* \"#utility.yul\":6958:6959   */\n      0x02\n        /* \"#utility.yul\":6954:6965   */\n      mul\n        /* \"#utility.yul\":6948:6952   */\n      dup3\n        /* \"#utility.yul\":6945:6966   */\n      or\n        /* \"#utility.yul\":6937:6966   */\n      swap1\n      pop\n        /* \"#utility.yul\":6677:6972   */\n      swap3\n      swap2\n      pop\n      pop\n      jump\t// out\n        /* \"#utility.yul\":6977:8380   */\n    tag_15:\n        /* \"#utility.yul\":7101:7145   */\n      tag_134\n        /* \"#utility.yul\":7141:7144   */\n      dup4\n        /* \"#utility.yul\":7136:7139   */\n      dup4\n        /* \"#utility.yul\":7101:7145   */\n      tag_35\n      jump\t// in\n    tag_134:\n        /* \"#utility.yul\":7210:7228   */\n      0xffffffffffffffff\n        /* \"#utility.yul\":7202:7208   */\n      dup2\n        /* \"#utility.yul\":7199:7229   */\n      gt\n        /* \"#utility.yul\":7196:7252   */\n      iszero\n      tag_135\n      jumpi\n        /* \"#utility.yul\":7232:7250   */\n      tag_136\n      tag_36\n      jump\t// in\n    tag_136:\n        /* \"#utility.yul\":7196:7252   */\n    tag_135:\n        /* \"#utility.yul\":7276:7314   */\n      tag_137\n        /* \"#utility.yul\":7308:7312   */\n      dup3\n        /* \"#utility.yul\":7302:7313   */\n      sload\n        /* \"#utility.yul\":7276:7314   */\n      tag_18\n      jump\t// in\n    tag_137:\n        /* \"#utility.yul\":7361:7428   */\n      tag_138\n        /* \"#utility.yul\":7421:7427   */\n      dup3\n        /* \"#utility.yul\":7413:7419   */\n      dup3\n        /* \"#utility.yul\":7407:7411   */\n      dup6\n        /* \"#utility.yul\":7361:7428   */\n      tag_50\n      jump\t// in\n    tag_138:\n        /* \"#utility.yul\":7455:7456   */\n      0x00\n        /* \"#utility.yul\":7484:7486   */\n      0x1f\n        /* \"#utility.yul\":7476:7482   */\n      dup4\n        /* \"#utility.yul\":7473:7487   */\n      gt\n        /* \"#utility.yul\":7501:7502   */\n      0x01\n        /* \"#utility.yul\":7496:8128   */\n      dup2\n      eq\n      tag_140\n      jumpi\n        /* \"#utility.yul\":8172:8173   */\n      0x00\n        /* \"#utility.yul\":8189:8195   */\n      dup5\n        /* \"#utility.yul\":8186:8270   */\n      iszero\n      tag_141\n      jumpi\n        /* \"#utility.yul\":8245:8254   */\n      dup3\n        /* \"#utility.yul\":8240:8243   */\n      dup8\n        /* \"#utility.yul\":8236:8255   */\n      add\n        /* \"#utility.yul\":8223:8256   */\n      calldataload\n        /* \"#utility.yul\":8214:8256   */\n      swap1\n      pop\n        /* \"#utility.yul\":8186:8270   */\n    tag_141:\n        /* \"#utility.yul\":8296:8363   */\n      tag_142\n        /* \"#utility.yul\":8356:8362   */\n      dup6\n        /* \"#utility.yul\":8349:8354   */\n      dup3\n        /* \"#utility.yul\":8296:8363   */\n      tag_53\n      jump\t// in\n    tag_142:\n        /* \"#utility.yul\":8290:8294   */\n      dup7\n        /* \"#utility.yul\":8283:8364   */\n      sstore\n        /* \"#utility.yul\":8145:8374   */\n      pop\n        /* \"#utility.yul\":7466:8374   */\n      jump(tag_139)\n        /* \"#utility.yul\":7496:8128   */\n    tag_140:\n        /* \"#utility.yul\":7548:7552   */\n      0x1f\n        /* \"#utility.yul\":7544:7553   */\n      not\n        /* \"#utility.yul\":7536:7542   */\n      dup5\n        /* \"#utility.yul\":7532:7554   */\n      and\n        /* \"#utility.yul\":7582:7619   */\n      tag_143\n        /* \"#utility.yul\":7614:7618   */\n      dup7\n        /* \"#utility.yul\":7582:7619   */\n      tag_38\n      jump\t// in\n    tag_143:\n        /* \"#utility.yul\":7641:7642   */\n      0x00\n        /* \"#utility.yul\":7655:7870   */\n    tag_144:\n        /* \"#utility.yul\":7669:7676   */\n      dup3\n        /* \"#utility.yul\":7666:7667   */\n      dup2\n        /* \"#utility.yul\":7663:7677   */\n      lt\n        /* \"#utility.yul\":7655:7870   */\n      iszero\n      tag_146\n      jumpi\n        /* \"#utility.yul\":7755:7764   */\n      dup5\n        /* \"#utility.yul\":7750:7753   */\n      dup10\n        /* \"#utility.yul\":7746:7765   */\n      add\n        /* \"#utility.yul\":7733:7766   */\n      calldataload\n        /* \"#utility.yul\":7725:7731   */\n      dup3\n        /* \"#utility.yul\":7718:7767   */\n      sstore\n        /* \"#utility.yul\":7806:7807   */\n      0x01\n        /* \"#utility.yul\":7798:7804   */\n      dup3\n        /* \"#utility.yul\":7794:7808   */\n      add\n        /* \"#utility.yul\":7784:7808   */\n      swap2\n      pop\n        /* \"#utility.yul\":7853:7855   */\n      0x20\n        /* \"#utility.yul\":7842:7851   */\n      dup6\n        /* \"#utility.yul\":7838:7856   */\n      add\n        /* \"#utility.yul\":7825:7856   */\n      swap5\n      pop\n        /* \"#utility.yul\":7692:7696   */\n      0x20\n        /* \"#utility.yul\":7689:7690   */\n      dup2\n        /* \"#utility.yul\":7685:7697   */\n      add\n        /* \"#utility.yul\":7680:7697   */\n      swap1\n      pop\n        /* \"#utility.yul\":7655:7870   */\n      jump(tag_144)\n    tag_146:\n        /* \"#utility.yul\":7898:7904   */\n      dup7\n        /* \"#utility.yul\":7889:7896   */\n      dup4\n        /* \"#utility.yul\":7886:7905   */\n      lt\n        /* \"#utility.yul\":7883:8069   */\n      iszero\n      tag_147\n      jumpi\n        /* \"#utility.yul\":7963:7972   */\n      dup5\n        /* \"#utility.yul\":7958:7961   */\n      dup10\n        /* \"#utility.yul\":7954:7973   */\n      add\n        /* \"#utility.yul\":7941:7974   */\n      calldataload\n        /* \"#utility.yul\":8006:8054   */\n      tag_148\n        /* \"#utility.yul\":8048:8052   */\n      0x1f\n        /* \"#utility.yul\":8040:8046   */\n      dup10\n        /* \"#utility.yul\":8036:8053   */\n      and\n        /* \"#utility.yul\":8025:8034   */\n      dup3\n        /* \"#utility.yul\":8006:8054   */\n      tag_52\n      jump\t// in\n    tag_148:\n        /* \"#utility.yul\":7998:8004   */\n      dup4\n        /* \"#utility.yul\":7991:8055   */\n      sstore\n        /* \"#utility.yul\":7906:8069   */\n      pop\n        /* \"#utility.yul\":7883:8069   */\n    tag_147:\n        /* \"#utility.yul\":8115:8116   */\n      0x01\n        /* \"#utility.yul\":8111:8112   */\n      0x02\n        /* \"#utility.yul\":8103:8109   */\n      dup9\n        /* \"#utility.yul\":8099:8113   */\n      mul\n        /* \"#utility.yul\":8095:8117   */\n      add\n        /* \"#utility.yul\":8089:8093   */\n      dup9\n        /* \"#utility.yul\":8082:8118   */\n      sstore\n        /* \"#utility.yul\":7503:8128   */\n      pop\n      pop\n      pop\n        /* \"#utility.yul\":7466:8374   */\n    tag_139:\n      pop\n        /* \"#utility.yul\":7076:8380   */\n      pop\n      pop\n      pop\n        /* \"#utility.yul\":6977:8380   */\n      pop\n      pop\n      pop\n      jump\t// out\n\n    auxdata: 0xa264697066735822122084e0a3d1d890e584b53acefcf6dd6b9d1b57d9e0346c90baf27f551cda65a3b164736f6c63430008110033\n}\n",
				"bytecode": {
					"linkReferences": {},
					"object": "60806040523480156200001157600080fd5b506040518060400160405280600b81526020017f48656c6c6f20576f726c6400000000000000000000000000000000000000000081525060009081620000589190620002d9565b50620003c0565b600081519050919050565b7f4e487b7100000000000000000000000000000000000000000000000000000000600052604160045260246000fd5b7f4e487b7100000000000000000000000000000000000000000000000000000000600052602260045260246000fd5b60006002820490506001821680620000e157607f821691505b602082108103620000f757620000f662000099565b5b50919050565b60008190508160005260206000209050919050565b60006020601f8301049050919050565b600082821b905092915050565b600060088302620001617fffffffffffffffffffffffffffffffffffffffffffffffffffffffffffffffff8262000122565b6200016d868362000122565b95508019841693508086168417925050509392505050565b6000819050919050565b6000819050919050565b6000620001ba620001b4620001ae8462000185565b6200018f565b62000185565b9050919050565b6000819050919050565b620001d68362000199565b620001ee620001e582620001c1565b8484546200012f565b825550505050565b600090565b62000205620001f6565b62000212818484620001cb565b505050565b5b818110156200023a576200022e600082620001fb565b60018101905062000218565b5050565b601f82111562000289576200025381620000fd565b6200025e8462000112565b810160208510156200026e578190505b620002866200027d8562000112565b83018262000217565b50505b505050565b600082821c905092915050565b6000620002ae600019846008026200028e565b1980831691505092915050565b6000620002c983836200029b565b9150826002028217905092915050565b620002e4826200005f565b67ffffffffffffffff8111156200030057620002ff6200006a565b5b6200030c8254620000c8565b620003198282856200023e565b600060209050601f8311600181146200035157600084156200033c578287015190505b620003488582620002bb565b865550620003b8565b601f1984166200036186620000fd565b60005b828110156200038b5784890151825560018201915060208501945060208101905062000364565b86831015620003ab5784890151620003a7601f8916826200029b565b8355505b6001600288020188555050505b505050505050565b6105e180620003d06000396000f3fe608060405234801561001057600080fd5b50600436106100365760003560e01c80635d3a1f9d1461003b578063c605f76c14610057575b600080fd5b6100556004803603810190610050919061018c565b610075565b005b61005f61008b565b60405161006c9190610269565b60405180910390f35b8181600091826100869291906104db565b505050565b60606000805461009a906102f4565b80601f01602080910402602001604051908101604052809291908181526020018280546100c6906102f4565b80156101135780601f106100e857610100808354040283529160200191610113565b820191906000526020600020905b8154815290600101906020018083116100f657829003601f168201915b5050505050905090565b600080fd5b600080fd5b600080fd5b600080fd5b600080fd5b60008083601f84011261014c5761014b610127565b5b8235905067ffffffffffffffff8111156101695761016861012c565b5b60208301915083600182028301111561018557610184610131565b5b9250929050565b600080602083850312156101a3576101a261011d565b5b600083013567ffffffffffffffff8111156101c1576101c0610122565b5b6101cd85828601610136565b92509250509250929050565b600081519050919050565b600082825260208201905092915050565b60005b838110156102135780820151818401526020810190506101f8565b60008484015250505050565b6000601f19601f8301169050919050565b600061023b826101d9565b61024581856101e4565b93506102558185602086016101f5565b61025e8161021f565b840191505092915050565b600060208201905081810360008301526102838184610230565b905092915050565b600082905092915050565b7f4e487b7100000000000000000000000000000000000000000000000000000000600052604160045260246000fd5b7f4e487b7100000000000000000000000000000000000000000000000000000000600052602260045260246000fd5b6000600282049050600182168061030c57607f821691505b60208210810361031f5761031e6102c5565b5b50919050565b60008190508160005260206000209050919050565b60006020601f8301049050919050565b600082821b905092915050565b6000600883026103877fffffffffffffffffffffffffffffffffffffffffffffffffffffffffffffffff8261034a565b610391868361034a565b95508019841693508086168417925050509392505050565b6000819050919050565b6000819050919050565b60006103d86103d36103ce846103a9565b6103b3565b6103a9565b9050919050565b6000819050919050565b6103f2836103bd565b6104066103fe826103df565b848454610357565b825550505050565b600090565b61041b61040e565b6104268184846103e9565b505050565b5b8181101561044a5761043f600082610413565b60018101905061042c565b5050565b601f82111561048f5761046081610325565b6104698461033a565b81016020851015610478578190505b61048c6104848561033a565b83018261042b565b50505b505050565b600082821c905092915050565b60006104b260001984600802610494565b1980831691505092915050565b60006104cb83836104a1565b9150826002028217905092915050565b6104e5838361028b565b67ffffffffffffffff8111156104fe576104fd610296565b5b61050882546102f4565b61051382828561044e565b6000601f8311600181146105425760008415610530578287013590505b61053a85826104bf565b8655506105a2565b601f19841661055086610325565b60005b8281101561057857848901358255600182019150602085019450602081019050610553565b868310156105955784890135610591601f8916826104a1565b8355505b6001600288020188555050505b5050505050505056fea264697066735822122084e0a3d1d890e584b53acefcf6dd6b9d1b57d9e0346c90baf27f551cda65a3b164736f6c63430008110033",
					"opcodes": "PUSH1 0x80 PUSH1 0x40 MSTORE CALLVALUE DUP1 ISZERO PUSH3 0x11 JUMPI PUSH1 0x0 DUP1 REVERT JUMPDEST POP PUSH1 0x40 MLOAD DUP1 PUSH1 0x40 ADD PUSH1 0x40 MSTORE DUP1 PUSH1 0xB DUP2 MSTORE PUSH1 0x20 ADD PUSH32 0x48656C6C6F20576F726C64000000000000000000000000000000000000000000 DUP2 MSTORE POP PUSH1 0x0 SWAP1 DUP2 PUSH3 0x58 SWAP2 SWAP1 PUSH3 0x2D9 JUMP JUMPDEST POP PUSH3 0x3C0 JUMP JUMPDEST PUSH1 0x0 DUP2 MLOAD SWAP1 POP SWAP2 SWAP1 POP JUMP JUMPDEST PUSH32 0x4E487B7100000000000000000000000000000000000000000000000000000000 PUSH1 0x0 MSTORE PUSH1 0x41 PUSH1 0x4 MSTORE PUSH1 0x24 PUSH1 0x0 REVERT JUMPDEST PUSH32 0x4E487B7100000000000000000000000000000000000000000000000000000000 PUSH1 0x0 MSTORE PUSH1 0x22 PUSH1 0x4 MSTORE PUSH1 0x24 PUSH1 0x0 REVERT JUMPDEST PUSH1 0x0 PUSH1 0x2 DUP3 DIV SWAP1 POP PUSH1 0x1 DUP3 AND DUP1 PUSH3 0xE1 JUMPI PUSH1 0x7F DUP3 AND SWAP2 POP JUMPDEST PUSH1 0x20 DUP3 LT DUP2 SUB PUSH3 0xF7 JUMPI PUSH3 0xF6 PUSH3 0x99 JUMP JUMPDEST JUMPDEST POP SWAP2 SWAP1 POP JUMP JUMPDEST PUSH1 0x0 DUP2 SWAP1 POP DUP2 PUSH1 0x0 MSTORE PUSH1 0x20 PUSH1 0x0 KECCAK256 SWAP1 POP SWAP2 SWAP1 POP JUMP JUMPDEST PUSH1 0x0 PUSH1 0x20 PUSH1 0x1F DUP4 ADD DIV SWAP1 POP SWAP2 SWAP1 POP JUMP JUMPDEST PUSH1 0x0 DUP3 DUP3 SHL SWAP1 POP SWAP3 SWAP2 POP POP JUMP JUMPDEST PUSH1 0x0 PUSH1 0x8 DUP4 MUL PUSH3 0x161 PUSH32 0xFFFFFFFFFFFFFFFFFFFFFFFFFFFFFFFFFFFFFFFFFFFFFFFFFFFFFFFFFFFFFFFF DUP3 PUSH3 0x122 JUMP JUMPDEST PUSH3 0x16D DUP7 DUP4 PUSH3 0x122 JUMP JUMPDEST SWAP6 POP DUP1 NOT DUP5 AND SWAP4 POP DUP1 DUP7 AND DUP5 OR SWAP3 POP POP POP SWAP4 SWAP3 POP POP POP JUMP JUMPDEST PUSH1 0x0 DUP2 SWAP1 POP SWAP2 SWAP1 POP JUMP JUMPDEST PUSH1 0x0 DUP2 SWAP1 POP SWAP2 SWAP1 POP JUMP JUMPDEST PUSH1 0x0 PUSH3 0x1BA PUSH3 0x1B4 PUSH3 0x1AE DUP5 PUSH3 0x185 JUMP JUMPDEST PUSH3 0x18F JUMP JUMPDEST PUSH3 0x185 JUMP JUMPDEST SWAP1 POP SWAP2 SWAP1 POP JUMP JUMPDEST PUSH1 0x0 DUP2 SWAP1 POP SWAP2 SWAP1 POP JUMP JUMPDEST PUSH3 0x1D6 DUP4 PUSH3 0x199 JUMP JUMPDEST PUSH3 0x1EE PUSH3 0x1E5 DUP3 PUSH3 0x1C1 JUMP JUMPDEST DUP5 DUP5 SLOAD PUSH3 0x12F JUMP JUMPDEST DUP3 SSTORE POP POP POP POP JUMP JUMPDEST PUSH1 0x0 SWAP1 JUMP JUMPDEST PUSH3 0x205 PUSH3 0x1F6 JUMP JUMPDEST PUSH3 0x212 DUP2 DUP5 DUP5 PUSH3 0x1CB JUMP JUMPDEST POP POP POP JUMP JUMPDEST JUMPDEST DUP2 DUP2 LT ISZERO PUSH3 0x23A JUMPI PUSH3 0x22E PUSH1 0x0 DUP3 PUSH3 0x1FB JUMP JUMPDEST PUSH1 0x1 DUP2 ADD SWAP1 POP PUSH3 0x218 JUMP JUMPDEST POP POP JUMP JUMPDEST PUSH1 0x1F DUP3 GT ISZERO PUSH3 0x289 JUMPI PUSH3 0x253 DUP2 PUSH3 0xFD JUMP JUMPDEST PUSH3 0x25E DUP5 PUSH3 0x112 JUMP JUMPDEST DUP2 ADD PUSH1 0x20 DUP6 LT ISZERO PUSH3 0x26E JUMPI DUP2 SWAP1 POP JUMPDEST PUSH3 0x286 PUSH3 0x27D DUP6 PUSH3 0x112 JUMP JUMPDEST DUP4 ADD DUP3 PUSH3 0x217 JUMP JUMPDEST POP POP JUMPDEST POP POP POP JUMP JUMPDEST PUSH1 0x0 DUP3 DUP3 SHR SWAP1 POP SWAP3 SWAP2 POP POP JUMP JUMPDEST PUSH1 0x0 PUSH3 0x2AE PUSH1 0x0 NOT DUP5 PUSH1 0x8 MUL PUSH3 0x28E JUMP JUMPDEST NOT DUP1 DUP4 AND SWAP2 POP POP SWAP3 SWAP2 POP POP JUMP JUMPDEST PUSH1 0x0 PUSH3 0x2C9 DUP4 DUP4 PUSH3 0x29B JUMP JUMPDEST SWAP2 POP DUP3 PUSH1 0x2 MUL DUP3 OR SWAP1 POP SWAP3 SWAP2 POP POP JUMP JUMPDEST PUSH3 0x2E4 DUP3 PUSH3 0x5F JUMP JUMPDEST PUSH8 0xFFFFFFFFFFFFFFFF DUP2 GT ISZERO PUSH3 0x300 JUMPI PUSH3 0x2FF PUSH3 0x6A JUMP JUMPDEST JUMPDEST PUSH3 0x30C DUP3 SLOAD PUSH3 0xC8 JUMP JUMPDEST PUSH3 0x319 DUP3 DUP3 DUP6 PUSH3 0x23E JUMP JUMPDEST PUSH1 0x0 PUSH1 0x20 SWAP1 POP PUSH1 0x1F DUP4 GT PUSH1 0x1 DUP2 EQ PUSH3 0x351 JUMPI PUSH1 0x0 DUP5 ISZERO PUSH3 0x33C JUMPI DUP3 DUP8 ADD MLOAD SWAP1 POP JUMPDEST PUSH3 0x348 DUP6 DUP3 PUSH3 0x2BB JUMP JUMPDEST DUP7 SSTORE POP PUSH3 0x3B8 JUMP JUMPDEST PUSH1 0x1F NOT DUP5 AND PUSH3 0x361 DUP7 PUSH3 0xFD JUMP JUMPDEST PUSH1 0x0 JUMPDEST DUP3 DUP2 LT ISZERO PUSH3 0x38B JUMPI DUP5 DUP10 ADD MLOAD DUP3 SSTORE PUSH1 0x1 DUP3 ADD SWAP2 POP PUSH1 0x20 DUP6 ADD SWAP5 POP PUSH1 0x20 DUP2 ADD SWAP1 POP PUSH3 0x364 JUMP JUMPDEST DUP7 DUP4 LT ISZERO PUSH3 0x3AB JUMPI DUP5 DUP10 ADD MLOAD PUSH3 0x3A7 PUSH1 0x1F DUP10 AND DUP3 PUSH3 0x29B JUMP JUMPDEST DUP4 SSTORE POP JUMPDEST PUSH1 0x1 PUSH1 0x2 DUP9 MUL ADD DUP9 SSTORE POP POP POP JUMPDEST POP POP POP POP POP POP JUMP JUMPDEST PUSH2 0x5E1 DUP1 PUSH3 0x3D0 PUSH1 0x0 CODECOPY PUSH1 0x0 RETURN INVALID PUSH1 0x80 PUSH1 0x40 MSTORE CALLVALUE DUP1 ISZERO PUSH2 0x10 JUMPI PUSH1 0x0 DUP1 REVERT JUMPDEST POP PUSH1 0x4 CALLDATASIZE LT PUSH2 0x36 JUMPI PUSH1 0x0 CALLDATALOAD PUSH1 0xE0 SHR DUP1 PUSH4 0x5D3A1F9D EQ PUSH2 0x3B JUMPI DUP1 PUSH4 0xC605F76C EQ PUSH2 0x57 JUMPI JUMPDEST PUSH1 0x0 DUP1 REVERT JUMPDEST PUSH2 0x55 PUSH1 0x4 DUP1 CALLDATASIZE SUB DUP2 ADD SWAP1 PUSH2 0x50 SWAP2 SWAP1 PUSH2 0x18C JUMP JUMPDEST PUSH2 0x75 JUMP JUMPDEST STOP JUMPDEST PUSH2 0x5F PUSH2 0x8B JUMP JUMPDEST PUSH1 0x40 MLOAD PUSH2 0x6C SWAP2 SWAP1 PUSH2 0x269 JUMP JUMPDEST PUSH1 0x40 MLOAD DUP1 SWAP2 SUB SWAP1 RETURN JUMPDEST DUP2 DUP2 PUSH1 0x0 SWAP2 DUP3 PUSH2 0x86 SWAP3 SWAP2 SWAP1 PUSH2 0x4DB JUMP JUMPDEST POP POP POP JUMP JUMPDEST PUSH1 0x60 PUSH1 0x0 DUP1 SLOAD PUSH2 0x9A SWAP1 PUSH2 0x2F4 JUMP JUMPDEST DUP1 PUSH1 0x1F ADD PUSH1 0x20 DUP1 SWAP2 DIV MUL PUSH1 0x20 ADD PUSH1 0x40 MLOAD SWAP1 DUP2 ADD PUSH1 0x40 MSTORE DUP1 SWAP3 SWAP2 SWAP1 DUP2 DUP2 MSTORE PUSH1 0x20 ADD DUP3 DUP1 SLOAD PUSH2 0xC6 SWAP1 PUSH2 0x2F4 JUMP JUMPDEST DUP1 ISZERO PUSH2 0x113 JUMPI DUP1 PUSH1 0x1F LT PUSH2 0xE8 JUMPI PUSH2 0x100 DUP1 DUP4 SLOAD DIV MUL DUP4 MSTORE SWAP2 PUSH1 0x20 ADD SWAP2 PUSH2 0x113 JUMP JUMPDEST DUP3 ADD SWAP2 SWAP1 PUSH1 0x0 MSTORE PUSH1 0x20 PUSH1 0x0 KECCAK256 SWAP1 JUMPDEST DUP2 SLOAD DUP2 MSTORE SWAP1 PUSH1 0x1 ADD SWAP1 PUSH1 0x20 ADD DUP1 DUP4 GT PUSH2 0xF6 JUMPI DUP3 SWAP1 SUB PUSH1 0x1F AND DUP3 ADD SWAP2 JUMPDEST POP POP POP POP POP SWAP1 POP SWAP1 JUMP JUMPDEST PUSH1 0x0 DUP1 REVERT JUMPDEST PUSH1 0x0 DUP1 REVERT JUMPDEST PUSH1 0x0 DUP1 REVERT JUMPDEST PUSH1 0x0 DUP1 REVERT JUMPDEST PUSH1 0x0 DUP1 REVERT JUMPDEST PUSH1 0x0 DUP1 DUP4 PUSH1 0x1F DUP5 ADD SLT PUSH2 0x14C JUMPI PUSH2 0x14B PUSH2 0x127 JUMP JUMPDEST JUMPDEST DUP3 CALLDATALOAD SWAP1 POP PUSH8 0xFFFFFFFFFFFFFFFF DUP2 GT ISZERO PUSH2 0x169 JUMPI PUSH2 0x168 PUSH2 0x12C JUMP JUMPDEST JUMPDEST PUSH1 0x20 DUP4 ADD SWAP2 POP DUP4 PUSH1 0x1 DUP3 MUL DUP4 ADD GT ISZERO PUSH2 0x185 JUMPI PUSH2 0x184 PUSH2 0x131 JUMP JUMPDEST JUMPDEST SWAP3 POP SWAP3 SWAP1 POP JUMP JUMPDEST PUSH1 0x0 DUP1 PUSH1 0x20 DUP4 DUP6 SUB SLT ISZERO PUSH2 0x1A3 JUMPI PUSH2 0x1A2 PUSH2 0x11D JUMP JUMPDEST JUMPDEST PUSH1 0x0 DUP4 ADD CALLDATALOAD PUSH8 0xFFFFFFFFFFFFFFFF DUP2 GT ISZERO PUSH2 0x1C1 JUMPI PUSH2 0x1C0 PUSH2 0x122 JUMP JUMPDEST JUMPDEST PUSH2 0x1CD DUP6 DUP3 DUP7 ADD PUSH2 0x136 JUMP JUMPDEST SWAP3 POP SWAP3 POP POP SWAP3 POP SWAP3 SWAP1 POP JUMP JUMPDEST PUSH1 0x0 DUP2 MLOAD SWAP1 POP SWAP2 SWAP1 POP JUMP JUMPDEST PUSH1 0x0 DUP3 DUP3 MSTORE PUSH1 0x20 DUP3 ADD SWAP1 POP SWAP3 SWAP2 POP POP JUMP JUMPDEST PUSH1 0x0 JUMPDEST DUP4 DUP2 LT ISZERO PUSH2 0x213 JUMPI DUP1 DUP3 ADD MLOAD DUP2 DUP5 ADD MSTORE PUSH1 0x20 DUP2 ADD SWAP1 POP PUSH2 0x1F8 JUMP JUMPDEST PUSH1 0x0 DUP5 DUP5 ADD MSTORE POP POP POP POP JUMP JUMPDEST PUSH1 0x0 PUSH1 0x1F NOT PUSH1 0x1F DUP4 ADD AND SWAP1 POP SWAP2 SWAP1 POP JUMP JUMPDEST PUSH1 0x0 PUSH2 0x23B DUP3 PUSH2 0x1D9 JUMP JUMPDEST PUSH2 0x245 DUP2 DUP6 PUSH2 0x1E4 JUMP JUMPDEST SWAP4 POP PUSH2 0x255 DUP2 DUP6 PUSH1 0x20 DUP7 ADD PUSH2 0x1F5 JUMP JUMPDEST PUSH2 0x25E DUP2 PUSH2 0x21F JUMP JUMPDEST DUP5 ADD SWAP2 POP POP SWAP3 SWAP2 POP POP JUMP JUMPDEST PUSH1 0x0 PUSH1 0x20 DUP3 ADD SWAP1 POP DUP2 DUP2 SUB PUSH1 0x0 DUP4 ADD MSTORE PUSH2 0x283 DUP2 DUP5 PUSH2 0x230 JUMP JUMPDEST SWAP1 POP SWAP3 SWAP2 POP POP JUMP JUMPDEST PUSH1 0x0 DUP3 SWAP1 POP SWAP3 SWAP2 POP POP JUMP JUMPDEST PUSH32 0x4E487B7100000000000000000000000000000000000000000000000000000000 PUSH1 0x0 MSTORE PUSH1 0x41 PUSH1 0x4 MSTORE PUSH1 0x24 PUSH1 0x0 REVERT JUMPDEST PUSH32 0x4E487B7100000000000000000000000000000000000000000000000000000000 PUSH1 0x0 MSTORE PUSH1 0x22 PUSH1 0x4 MSTORE PUSH1 0x24 PUSH1 0x0 REVERT JUMPDEST PUSH1 0x0 PUSH1 0x2 DUP3 DIV SWAP1 POP PUSH1 0x1 DUP3 AND DUP1 PUSH2 0x30C JUMPI PUSH1 0x7F DUP3 AND SWAP2 POP JUMPDEST PUSH1 0x20 DUP3 LT DUP2 SUB PUSH2 0x31F JUMPI PUSH2 0x31E PUSH2 0x2C5 JUMP JUMPDEST JUMPDEST POP SWAP2 SWAP1 POP JUMP JUMPDEST PUSH1 0x0 DUP2 SWAP1 POP DUP2 PUSH1 0x0 MSTORE PUSH1 0x20 PUSH1 0x0 KECCAK256 SWAP1 POP SWAP2 SWAP1 POP JUMP JUMPDEST PUSH1 0x0 PUSH1 0x20 PUSH1 0x1F DUP4 ADD DIV SWAP1 POP SWAP2 SWAP1 POP JUMP JUMPDEST PUSH1 0x0 DUP3 DUP3 SHL SWAP1 POP SWAP3 SWAP2 POP POP JUMP JUMPDEST PUSH1 0x0 PUSH1 0x8 DUP4 MUL PUSH2 0x387 PUSH32 0xFFFFFFFFFFFFFFFFFFFFFFFFFFFFFFFFFFFFFFFFFFFFFFFFFFFFFFFFFFFFFFFF DUP3 PUSH2 0x34A JUMP JUMPDEST PUSH2 0x391 DUP7 DUP4 PUSH2 0x34A JUMP JUMPDEST SWAP6 POP DUP1 NOT DUP5 AND SWAP4 POP DUP1 DUP7 AND DUP5 OR SWAP3 POP POP POP SWAP4 SWAP3 POP POP POP JUMP JUMPDEST PUSH1 0x0 DUP2 SWAP1 POP SWAP2 SWAP1 POP JUMP JUMPDEST PUSH1 0x0 DUP2 SWAP1 POP SWAP2 SWAP1 POP JUMP JUMPDEST PUSH1 0x0 PUSH2 0x3D8 PUSH2 0x3D3 PUSH2 0x3CE DUP5 PUSH2 0x3A9 JUMP JUMPDEST PUSH2 0x3B3 JUMP JUMPDEST PUSH2 0x3A9 JUMP JUMPDEST SWAP1 POP SWAP2 SWAP1 POP JUMP JUMPDEST PUSH1 0x0 DUP2 SWAP1 POP SWAP2 SWAP1 POP JUMP JUMPDEST PUSH2 0x3F2 DUP4 PUSH2 0x3BD JUMP JUMPDEST PUSH2 0x406 PUSH2 0x3FE DUP3 PUSH2 0x3DF JUMP JUMPDEST DUP5 DUP5 SLOAD PUSH2 0x357 JUMP JUMPDEST DUP3 SSTORE POP POP POP POP JUMP JUMPDEST PUSH1 0x0 SWAP1 JUMP JUMPDEST PUSH2 0x41B PUSH2 0x40E JUMP JUMPDEST PUSH2 0x426 DUP2 DUP5 DUP5 PUSH2 0x3E9 JUMP JUMPDEST POP POP POP JUMP JUMPDEST JUMPDEST DUP2 DUP2 LT ISZERO PUSH2 0x44A JUMPI PUSH2 0x43F PUSH1 0x0 DUP3 PUSH2 0x413 JUMP JUMPDEST PUSH1 0x1 DUP2 ADD SWAP1 POP PUSH2 0x42C JUMP JUMPDEST POP POP JUMP JUMPDEST PUSH1 0x1F DUP3 GT ISZERO PUSH2 0x48F JUMPI PUSH2 0x460 DUP2 PUSH2 0x325 JUMP JUMPDEST PUSH2 0x469 DUP5 PUSH2 0x33A JUMP JUMPDEST DUP2 ADD PUSH1 0x20 DUP6 LT ISZERO PUSH2 0x478 JUMPI DUP2 SWAP1 POP JUMPDEST PUSH2 0x48C PUSH2 0x484 DUP6 PUSH2 0x33A JUMP JUMPDEST DUP4 ADD DUP3 PUSH2 0x42B JUMP JUMPDEST POP POP JUMPDEST POP POP POP JUMP JUMPDEST PUSH1 0x0 DUP3 DUP3 SHR SWAP1 POP SWAP3 SWAP2 POP POP JUMP JUMPDEST PUSH1 0x0 PUSH2 0x4B2 PUSH1 0x0 NOT DUP5 PUSH1 0x8 MUL PUSH2 0x494 JUMP JUMPDEST NOT DUP1 DUP4 AND SWAP2 POP POP SWAP3 SWAP2 POP POP JUMP JUMPDEST PUSH1 0x0 PUSH2 0x4CB DUP4 DUP4 PUSH2 0x4A1 JUMP JUMPDEST SWAP2 POP DUP3 PUSH1 0x2 MUL DUP3 OR SWAP1 POP SWAP3 SWAP2 POP POP JUMP JUMPDEST PUSH2 0x4E5 DUP4 DUP4 PUSH2 0x28B JUMP JUMPDEST PUSH8 0xFFFFFFFFFFFFFFFF DUP2 GT ISZERO PUSH2 0x4FE JUMPI PUSH2 0x4FD PUSH2 0x296 JUMP JUMPDEST JUMPDEST PUSH2 0x508 DUP3 SLOAD PUSH2 0x2F4 JUMP JUMPDEST PUSH2 0x513 DUP3 DUP3 DUP6 PUSH2 0x44E JUMP JUMPDEST PUSH1 0x0 PUSH1 0x1F DUP4 GT PUSH1 0x1 DUP2 EQ PUSH2 0x542 JUMPI PUSH1 0x0 DUP5 ISZERO PUSH2 0x530 JUMPI DUP3 DUP8 ADD CALLDATALOAD SWAP1 POP JUMPDEST PUSH2 0x53A DUP6 DUP3 PUSH2 0x4BF JUMP JUMPDEST DUP7 SSTORE POP PUSH2 0x5A2 JUMP JUMPDEST PUSH1 0x1F NOT DUP5 AND PUSH2 0x550 DUP7 PUSH2 0x325 JUMP JUMPDEST PUSH1 0x0 JUMPDEST DUP3 DUP2 LT ISZERO PUSH2 0x578 JUMPI DUP5 DUP10 ADD CALLDATALOAD DUP3 SSTORE PUSH1 0x1 DUP3 ADD SWAP2 POP PUSH1 0x20 DUP6 ADD SWAP5 POP PUSH1 0x20 DUP2 ADD SWAP1 POP PUSH2 0x553 JUMP JUMPDEST DUP7 DUP4 LT ISZERO PUSH2 0x595 JUMPI DUP5 DUP10 ADD CALLDATALOAD PUSH2 0x591 PUSH1 0x1F DUP10 AND DUP3 PUSH2 0x4A1 JUMP JUMPDEST DUP4 SSTORE POP JUMPDEST PUSH1 0x1 PUSH1 0x2 DUP9 MUL ADD DUP9 SSTORE POP POP POP JUMPDEST POP POP POP POP POP POP POP JUMP INVALID LOG2 PUSH5 0x6970667358 0x22 SLT KECCAK256 DUP5 0xE0 LOG3 0xD1 0xD8 SWAP1 0xE5 DUP5 0xB5 GASPRICE 0xCE 0xFC 0xF6 0xDD PUSH12 0x9D1B57D9E0346C90BAF27F55 SHR 0xDA PUSH6 0xA3B164736F6C PUSH4 0x43000811 STOP CALLER "
				},
				"gasEstimates": {
					"creation": {
						"codeDepositCost": "301000",
						"executionCost": "infinite",
						"totalCost": "infinite"
					},
					"external": {
						"helloWorld()": "infinite",
						"setText(string)": "infinite"
					}
				},
				"methodIdentifiers": {
					"helloWorld()": "c605f76c",
					"setText(string)": "5d3a1f9d"
				}
			},
			"storageLayout": {
				"storage": [
					{
						"astId": 9,
						"contract": "helloworld.sol:HelloWorld",
						"label": "text",
						"offset": 0,
						"slot": "0",
						"type": "t_string_storage"
					}
				],
				"types": {
					"t_string_storage": {
						"encoding": "bytes",
						"label": "string",
						"numberOfBytes": "32"
					}
				}
			},
			"userdoc": {
				"kind": "user",
				"methods": {},
				"version": 1
			}
		}
	}
}