{
	"Hook.sol": {
		"TransactionsAndHook": {
			"abi": [
				{
					"inputs": [
						{
							"internalType": "address",
							"name": "_ERC20",
							"type": "address"
						},
						{
							"internalType": "address",
							"name": "_crownNFT",
							"type": "address"
						},
						{
							"internalType": "address",
							"name": "_POAP",
							"type": "address"
						},
						{
							"internalType": "address",
							"name": "_initialHolder",
							"type": "address"
						}
					],
					"stateMutability": "nonpayable",
					"type": "constructor"
				},
				{
					"anonymous": false,
					"inputs": [
						{
							"indexed": false,
							"internalType": "string",
							"name": "message",
							"type": "string"
						}
					],
					"name": "Log",
					"type": "event"
				},
				{
					"anonymous": false,
					"inputs": [
						{
							"indexed": false,
							"internalType": "uint256",
							"name": "number",
							"type": "uint256"
						}
					],
					"name": "Log",
					"type": "event"
				},
				{
					"anonymous": false,
					"inputs": [
						{
							"indexed": false,
							"internalType": "address",
							"name": "ad",
							"type": "address"
						}
					],
					"name": "Log",
					"type": "event"
				},
				{
					"inputs": [],
					"name": "ERC20Address",
					"outputs": [
						{
							"internalType": "address",
							"name": "",
							"type": "address"
						}
					],
					"stateMutability": "view",
					"type": "function"
				},
				{
					"inputs": [],
					"name": "POAPAddress",
					"outputs": [
						{
							"internalType": "address",
							"name": "",
							"type": "address"
						}
					],
					"stateMutability": "view",
					"type": "function"
				},
				{
					"inputs": [],
					"name": "WethAddress",
					"outputs": [
						{
							"internalType": "address",
							"name": "",
							"type": "address"
						}
					],
					"stateMutability": "view",
					"type": "function"
				},
				{
					"inputs": [],
					"name": "buyEth",
					"outputs": [
						{
							"internalType": "uint256",
							"name": "",
							"type": "uint256"
						}
					],
					"stateMutability": "view",
					"type": "function"
				},
				{
					"inputs": [],
					"name": "crownNFTAddress",
					"outputs": [
						{
							"internalType": "address",
							"name": "",
							"type": "address"
						}
					],
					"stateMutability": "view",
					"type": "function"
				},
				{
					"inputs": [],
					"name": "getLastEthRecieved",
					"outputs": [
						{
							"internalType": "uint256",
							"name": "",
							"type": "uint256"
						}
					],
					"stateMutability": "view",
					"type": "function"
				},
				{
					"inputs": [],
					"name": "getWethBalance",
					"outputs": [
						{
							"internalType": "uint256",
							"name": "",
							"type": "uint256"
						}
					],
					"stateMutability": "view",
					"type": "function"
				},
				{
					"inputs": [],
					"name": "liquidityEth",
					"outputs": [
						{
							"internalType": "uint256",
							"name": "",
							"type": "uint256"
						}
					],
					"stateMutability": "view",
					"type": "function"
				},
				{
					"inputs": [
						{
							"internalType": "uint256",
							"name": "tokens",
							"type": "uint256"
						}
					],
					"name": "mintSomeTokens",
					"outputs": [],
					"stateMutability": "nonpayable",
					"type": "function"
				},
				{
					"inputs": [],
					"name": "oracleAddress",
					"outputs": [
						{
							"internalType": "address",
							"name": "",
							"type": "address"
						}
					],
					"stateMutability": "view",
					"type": "function"
				},
				{
					"inputs": [
						{
							"internalType": "uint256",
							"name": "",
							"type": "uint256"
						}
					],
					"name": "path",
					"outputs": [
						{
							"internalType": "address",
							"name": "",
							"type": "address"
						}
					],
					"stateMutability": "view",
					"type": "function"
				},
				{
					"inputs": [],
					"name": "percentLiquidity",
					"outputs": [
						{
							"internalType": "uint256",
							"name": "",
							"type": "uint256"
						}
					],
					"stateMutability": "view",
					"type": "function"
				},
				{
					"inputs": [
						{
							"internalType": "address",
							"name": "_newOwner",
							"type": "address"
						}
					],
					"name": "superBuy",
					"outputs": [],
					"stateMutability": "payable",
					"type": "function"
				},
				{
					"inputs": [],
					"name": "totalRoyalties",
					"outputs": [
						{
							"internalType": "uint256",
							"name": "",
							"type": "uint256"
						}
					],
					"stateMutability": "view",
					"type": "function"
				},
				{
					"inputs": [
						{
							"internalType": "uint256",
							"name": "",
							"type": "uint256"
						}
					],
					"name": "transactionFromPOAPId",
					"outputs": [
						{
							"internalType": "uint256",
							"name": "POAPId",
							"type": "uint256"
						},
						{
							"internalType": "address",
							"name": "purchaser",
							"type": "address"
						},
						{
							"internalType": "uint256",
							"name": "receivedEth",
							"type": "uint256"
						}
					],
					"stateMutability": "view",
					"type": "function"
				},
				{
					"inputs": [],
					"name": "uniswapPairAddress",
					"outputs": [
						{
							"internalType": "address",
							"name": "",
							"type": "address"
						}
					],
					"stateMutability": "view",
					"type": "function"
				},
				{
					"inputs": [],
					"name": "uniswapRouterAddress",
					"outputs": [
						{
							"internalType": "address",
							"name": "",
							"type": "address"
						}
					],
					"stateMutability": "view",
					"type": "function"
				},
				{
					"inputs": [
						{
							"internalType": "address",
							"name": "_address",
							"type": "address"
						}
					],
					"name": "updateERC20Address",
					"outputs": [],
					"stateMutability": "nonpayable",
					"type": "function"
				},
				{
					"inputs": [
						{
							"internalType": "address",
							"name": "_ERC20Address",
							"type": "address"
						}
					],
					"name": "withdraw",
					"outputs": [],
					"stateMutability": "nonpayable",
					"type": "function"
				},
				{
					"inputs": [
						{
							"internalType": "uint256",
							"name": "_liquidityEth",
							"type": "uint256"
						}
					],
					"name": "xprovideLiquidity",
					"outputs": [
						{
							"internalType": "uint256",
							"name": "",
							"type": "uint256"
						}
					],
					"stateMutability": "payable",
					"type": "function"
				},
				{
					"stateMutability": "payable",
					"type": "receive"
				}
			],
			"devdoc": {
				"kind": "dev",
				"methods": {},
				"version": 1
			},
			"evm": {
				"assembly": "    /* \"Hook.sol\":1346:11383  contract TransactionsAndHook{... */\n  mstore(0x40, 0x80)\n    /* \"Hook.sol\":2357:2399  0xB4FBF271143F4FBf7B91A5ded31805e42b2208d6 */\n  0xb4fbf271143f4fbf7b91a5ded31805e42b2208d6\n    /* \"Hook.sol\":2328:2399  address public WethAddress = 0xB4FBF271143F4FBf7B91A5ded31805e42b2208d6 */\n  0x00\n  dup1\n  0x0100\n  exp\n  dup2\n  sload\n  dup2\n  0xffffffffffffffffffffffffffffffffffffffff\n  mul\n  not\n  and\n  swap1\n  dup4\n  0xffffffffffffffffffffffffffffffffffffffff\n  and\n  mul\n  or\n  swap1\n  sstore\n  pop\n    /* \"Hook.sol\":2617:2659  0x7a250d5630B4cF539739dF2C5dAcb4c659F2488D */\n  0x7a250d5630b4cf539739df2c5dacb4c659f2488d\n    /* \"Hook.sol\":2579:2659  address public uniswapRouterAddress = 0x7a250d5630B4cF539739dF2C5dAcb4c659F2488D */\n  0x06\n  exp(0x0100, 0x00)\n  dup2\n  sload\n  dup2\n  0xffffffffffffffffffffffffffffffffffffffff\n  mul\n  not\n  and\n  swap1\n  dup4\n  0xffffffffffffffffffffffffffffffffffffffff\n  and\n  mul\n  or\n  swap1\n  sstore\n  pop\n    /* \"Hook.sol\":2711:2722  POAPAddress */\n  0x05\n  0x00\n  swap1\n  sload\n  swap1\n  0x0100\n  exp\n  swap1\n  div\n  0xffffffffffffffffffffffffffffffffffffffff\n  and\n    /* \"Hook.sol\":2692:2723  iPOAP POAP = iPOAP(POAPAddress) */\n  0x08\n  exp(0x0100, 0x00)\n  dup2\n  sload\n  dup2\n  0xffffffffffffffffffffffffffffffffffffffff\n  mul\n  not\n  and\n  swap1\n  dup4\n  0xffffffffffffffffffffffffffffffffffffffff\n  and\n  mul\n  or\n  swap1\n  sstore\n  pop\n    /* \"Hook.sol\":2754:2765  WethAddress */\n  0x00\n  dup1\n  sload\n  swap1\n  0x0100\n  exp\n  swap1\n  div\n  0xffffffffffffffffffffffffffffffffffffffff\n  and\n    /* \"Hook.sol\":2729:2766  WethLike WETH = WethLike(WethAddress) */\n  0x09\n  exp(0x0100, 0x00)\n  dup2\n  sload\n  dup2\n  0xffffffffffffffffffffffffffffffffffffffff\n  mul\n  not\n  and\n  swap1\n  dup4\n  0xffffffffffffffffffffffffffffffffffffffff\n  and\n  mul\n  or\n  swap1\n  sstore\n  pop\n    /* \"Hook.sol\":2797:2810  oracleAddress */\n  0x03\n  0x00\n  swap1\n  sload\n  swap1\n  0x0100\n  exp\n  swap1\n  div\n  0xffffffffffffffffffffffffffffffffffffffff\n  and\n    /* \"Hook.sol\":2772:2811  iOracle Oracle = iOracle(oracleAddress) */\n  0x0a\n  exp(0x0100, 0x00)\n  dup2\n  sload\n  dup2\n  0xffffffffffffffffffffffffffffffffffffffff\n  mul\n  not\n  and\n  swap1\n  dup4\n  0xffffffffffffffffffffffffffffffffffffffff\n  and\n  mul\n  or\n  swap1\n  sstore\n  pop\n    /* \"Hook.sol\":2871:2891  uniswapRouterAddress */\n  0x06\n  0x00\n  swap1\n  sload\n  swap1\n  0x0100\n  exp\n  swap1\n  div\n  0xffffffffffffffffffffffffffffffffffffffff\n  and\n    /* \"Hook.sol\":2817:2892  IUniswapV2Router02 UniswapRouter = IUniswapV2Router02(uniswapRouterAddress) */\n  0x0b\n  exp(0x0100, 0x00)\n  dup2\n  sload\n  dup2\n  0xffffffffffffffffffffffffffffffffffffffff\n  mul\n  not\n  and\n  swap1\n  dup4\n  0xffffffffffffffffffffffffffffffffffffffff\n  and\n  mul\n  or\n  swap1\n  sstore\n  pop\n    /* \"Hook.sol\":1380:2204  constructor(address _ERC20,address _crownNFT,address _POAP, address _initialHolder){... */\n  callvalue\n  dup1\n  iszero\n  tag_1\n  jumpi\n  0x00\n  dup1\n  revert\ntag_1:\n  pop\n  mload(0x40)\n  sub(codesize, bytecodeSize)\n  dup1\n  bytecodeSize\n  dup4\n  codecopy\n  dup2\n  dup2\n  add\n  0x40\n  mstore\n  dup2\n  add\n  swap1\n  tag_2\n  swap2\n  swap1\n  tag_3\n  jump\t// in\ntag_2:\n    /* \"Hook.sol\":1561:1567  _ERC20 */\n  dup4\n    /* \"Hook.sol\":1546:1558  ERC20Address */\n  0x01\n  0x00\n    /* \"Hook.sol\":1546:1567  ERC20Address = _ERC20 */\n  0x0100\n  exp\n  dup2\n  sload\n  dup2\n  0xffffffffffffffffffffffffffffffffffffffff\n  mul\n  not\n  and\n  swap1\n  dup4\n  0xffffffffffffffffffffffffffffffffffffffff\n  and\n  mul\n  or\n  swap1\n  sstore\n  pop\n    /* \"Hook.sol\":1607:1619  ERC20Address */\n  0x01\n  0x00\n  swap1\n  sload\n  swap1\n  0x0100\n  exp\n  swap1\n  div\n  0xffffffffffffffffffffffffffffffffffffffff\n  and\n    /* \"Hook.sol\":1598:1639  WethLike(ERC20Address).uniswapPairAddress */\n  0xffffffffffffffffffffffffffffffffffffffff\n  and\n  0xbd3733fe\n    /* \"Hook.sol\":1598:1641  WethLike(ERC20Address).uniswapPairAddress() */\n  mload(0x40)\n  dup2\n  0xffffffff\n  and\n  0xe0\n  shl\n  dup2\n  mstore\n  0x04\n  add\n  0x20\n  mload(0x40)\n  dup1\n  dup4\n  sub\n  dup2\n  dup7\n  gas\n  staticcall\n  iszero\n  dup1\n  iszero\n  tag_7\n  jumpi\n  returndatasize\n  0x00\n  dup1\n  returndatacopy\n  revert(0x00, returndatasize)\ntag_7:\n  pop\n  pop\n  pop\n  pop\n  mload(0x40)\n  returndatasize\n  not(0x1f)\n  0x1f\n  dup3\n  add\n  and\n  dup3\n  add\n  dup1\n  0x40\n  mstore\n  pop\n  dup2\n  add\n  swap1\n  tag_8\n  swap2\n  swap1\n  tag_9\n  jump\t// in\ntag_8:\n    /* \"Hook.sol\":1577:1595  uniswapPairAddress */\n  0x02\n  0x00\n    /* \"Hook.sol\":1577:1641  uniswapPairAddress = WethLike(ERC20Address).uniswapPairAddress() */\n  0x0100\n  exp\n  dup2\n  sload\n  dup2\n  0xffffffffffffffffffffffffffffffffffffffff\n  mul\n  not\n  and\n  swap1\n  dup4\n  0xffffffffffffffffffffffffffffffffffffffff\n  and\n  mul\n  or\n  swap1\n  sstore\n  pop\n    /* \"Hook.sol\":1676:1688  ERC20Address */\n  0x01\n  0x00\n  swap1\n  sload\n  swap1\n  0x0100\n  exp\n  swap1\n  div\n  0xffffffffffffffffffffffffffffffffffffffff\n  and\n    /* \"Hook.sol\":1667:1706  WethLike(ERC20Address).getOracleAddress */\n  0xffffffffffffffffffffffffffffffffffffffff\n  and\n  0xb18b78dd\n    /* \"Hook.sol\":1667:1708  WethLike(ERC20Address).getOracleAddress() */\n  mload(0x40)\n  dup2\n  0xffffffff\n  and\n  0xe0\n  shl\n  dup2\n  mstore\n  0x04\n  add\n  0x20\n  mload(0x40)\n  dup1\n  dup4\n  sub\n  dup2\n  dup7\n  gas\n  staticcall\n  iszero\n  dup1\n  iszero\n  tag_11\n  jumpi\n  returndatasize\n  0x00\n  dup1\n  returndatacopy\n  revert(0x00, returndatasize)\ntag_11:\n  pop\n  pop\n  pop\n  pop\n  mload(0x40)\n  returndatasize\n  not(0x1f)\n  0x1f\n  dup3\n  add\n  and\n  dup3\n  add\n  dup1\n  0x40\n  mstore\n  pop\n  dup2\n  add\n  swap1\n  tag_12\n  swap2\n  swap1\n  tag_9\n  jump\t// in\ntag_12:\n    /* \"Hook.sol\":1651:1664  oracleAddress */\n  0x03\n  0x00\n    /* \"Hook.sol\":1651:1708  oracleAddress = WethLike(ERC20Address).getOracleAddress() */\n  0x0100\n  exp\n  dup2\n  sload\n  dup2\n  0xffffffffffffffffffffffffffffffffffffffff\n  mul\n  not\n  and\n  swap1\n  dup4\n  0xffffffffffffffffffffffffffffffffffffffff\n  and\n  mul\n  or\n  swap1\n  sstore\n  pop\n    /* \"Hook.sol\":1735:1748  oracleAddress */\n  0x03\n  0x00\n  swap1\n  sload\n  swap1\n  0x0100\n  exp\n  swap1\n  div\n  0xffffffffffffffffffffffffffffffffffffffff\n  and\n    /* \"Hook.sol\":1718:1724  Oracle */\n  0x0a\n  0x00\n    /* \"Hook.sol\":1718:1749  Oracle = iOracle(oracleAddress) */\n  0x0100\n  exp\n  dup2\n  sload\n  dup2\n  0xffffffffffffffffffffffffffffffffffffffff\n  mul\n  not\n  and\n  swap1\n  dup4\n  0xffffffffffffffffffffffffffffffffffffffff\n  and\n  mul\n  or\n  swap1\n  sstore\n  pop\n    /* \"Hook.sol\":1777:1786  _crownNFT */\n  dup3\n    /* \"Hook.sol\":1759:1774  crownNFTAddress */\n  0x04\n  0x00\n    /* \"Hook.sol\":1759:1786  crownNFTAddress = _crownNFT */\n  0x0100\n  exp\n  dup2\n  sload\n  dup2\n  0xffffffffffffffffffffffffffffffffffffffff\n  mul\n  not\n  and\n  swap1\n  dup4\n  0xffffffffffffffffffffffffffffffffffffffff\n  and\n  mul\n  or\n  swap1\n  sstore\n  pop\n    /* \"Hook.sol\":1810:1815  _POAP */\n  dup2\n    /* \"Hook.sol\":1796:1807  POAPAddress */\n  0x05\n  0x00\n    /* \"Hook.sol\":1796:1815  POAPAddress = _POAP */\n  0x0100\n  exp\n  dup2\n  sload\n  dup2\n  0xffffffffffffffffffffffffffffffffffffffff\n  mul\n  not\n  and\n  swap1\n  dup4\n  0xffffffffffffffffffffffffffffffffffffffff\n  and\n  mul\n  or\n  swap1\n  sstore\n  pop\n    /* \"Hook.sol\":1838:1849  POAPAddress */\n  0x05\n  0x00\n  swap1\n  sload\n  swap1\n  0x0100\n  exp\n  swap1\n  div\n  0xffffffffffffffffffffffffffffffffffffffff\n  and\n    /* \"Hook.sol\":1825:1829  POAP */\n  0x08\n  0x00\n    /* \"Hook.sol\":1825:1850  POAP = iPOAP(POAPAddress) */\n  0x0100\n  exp\n  dup2\n  sload\n  dup2\n  0xffffffffffffffffffffffffffffffffffffffff\n  mul\n  not\n  and\n  swap1\n  dup4\n  0xffffffffffffffffffffffffffffffffffffffff\n  and\n  mul\n  or\n  swap1\n  sstore\n  pop\n    /* \"Hook.sol\":1860:1897  setInitialTranscation(_initialHolder) */\n  tag_13\n    /* \"Hook.sol\":1882:1896  _initialHolder */\n  dup2\n    /* \"Hook.sol\":1860:1881  setInitialTranscation */\n  shl(0x20, tag_14)\n    /* \"Hook.sol\":1860:1897  setInitialTranscation(_initialHolder) */\n  0x20\n  shr\n  jump\t// in\ntag_13:\n    /* \"Hook.sol\":1907:1940  path = [WethAddress,ERC20Address] */\n  mload(0x40)\n  dup1\n  0x40\n  add\n  0x40\n  mstore\n  dup1\n    /* \"Hook.sol\":1915:1926  WethAddress */\n  0x00\n  dup1\n  sload\n  swap1\n  0x0100\n  exp\n  swap1\n  div\n  0xffffffffffffffffffffffffffffffffffffffff\n  and\n    /* \"Hook.sol\":1907:1940  path = [WethAddress,ERC20Address] */\n  0xffffffffffffffffffffffffffffffffffffffff\n  and\n  0xffffffffffffffffffffffffffffffffffffffff\n  and\n  dup2\n  mstore\n  0x20\n  add\n    /* \"Hook.sol\":1927:1939  ERC20Address */\n  0x01\n  0x00\n  swap1\n  sload\n  swap1\n  0x0100\n  exp\n  swap1\n  div\n  0xffffffffffffffffffffffffffffffffffffffff\n  and\n    /* \"Hook.sol\":1907:1940  path = [WethAddress,ERC20Address] */\n  0xffffffffffffffffffffffffffffffffffffffff\n  and\n  0xffffffffffffffffffffffffffffffffffffffff\n  and\n  dup2\n  mstore\n  pop\n    /* \"Hook.sol\":1907:1911  path */\n  0x07\n    /* \"Hook.sol\":1907:1940  path = [WethAddress,ERC20Address] */\n  swap1\n  0x02\n  tag_15\n  swap3\n  swap2\n  swap1\n  tag_16\n  jump\t// in\ntag_15:\n  pop\n    /* \"Hook.sol\":2020:2032  ERC20Address */\n  0x01\n  0x00\n  swap1\n  sload\n  swap1\n  0x0100\n  exp\n  swap1\n  div\n  0xffffffffffffffffffffffffffffffffffffffff\n  and\n    /* \"Hook.sol\":2013:2041  IERC20(ERC20Address).approve */\n  0xffffffffffffffffffffffffffffffffffffffff\n  and\n  0x095ea7b3\n    /* \"Hook.sol\":2042:2062  uniswapRouterAddress */\n  0x06\n  0x00\n  swap1\n  sload\n  swap1\n  0x0100\n  exp\n  swap1\n  div\n  0xffffffffffffffffffffffffffffffffffffffff\n  and\n    /* \"Hook.sol\":2063:2077  type(uint).max */\n  0xffffffffffffffffffffffffffffffffffffffffffffffffffffffffffffffff\n    /* \"Hook.sol\":2013:2078  IERC20(ERC20Address).approve(uniswapRouterAddress,type(uint).max) */\n  mload(0x40)\n  dup4\n  0xffffffff\n  and\n  0xe0\n  shl\n  dup2\n  mstore\n  0x04\n  add\n  tag_17\n  swap3\n  swap2\n  swap1\n  tag_18\n  jump\t// in\ntag_17:\n  0x20\n  mload(0x40)\n  dup1\n  dup4\n  sub\n  dup2\n  0x00\n  dup8\n  gas\n  call\n  iszero\n  dup1\n  iszero\n  tag_20\n  jumpi\n  returndatasize\n  0x00\n  dup1\n  returndatacopy\n  revert(0x00, returndatasize)\ntag_20:\n  pop\n  pop\n  pop\n  pop\n  mload(0x40)\n  returndatasize\n  not(0x1f)\n  0x1f\n  dup3\n  add\n  and\n  dup3\n  add\n  dup1\n  0x40\n  mstore\n  pop\n  dup2\n  add\n  swap1\n  tag_21\n  swap2\n  swap1\n  tag_22\n  jump\t// in\ntag_21:\n  pop\n    /* \"Hook.sol\":1380:2204  constructor(address _ERC20,address _crownNFT,address _POAP, address _initialHolder){... */\n  pop\n  pop\n  pop\n  pop\n    /* \"Hook.sol\":1346:11383  contract TransactionsAndHook{... */\n  jump(tag_23)\n    /* \"Hook.sol\":3229:3344  function setInitialTranscation (address _initialHolder) internal {... */\ntag_14:\n    /* \"Hook.sol\":3304:3337  newTransaction(0, _initialHolder) */\n  tag_25\n    /* \"Hook.sol\":3319:3320  0 */\n  0x00\n    /* \"Hook.sol\":3322:3336  _initialHolder */\n  dup3\n    /* \"Hook.sol\":3304:3318  newTransaction */\n  shl(0x20, tag_26)\n    /* \"Hook.sol\":3304:3337  newTransaction(0, _initialHolder) */\n  0x20\n  shr\n  jump\t// in\ntag_25:\n    /* \"Hook.sol\":3229:3344  function setInitialTranscation (address _initialHolder) internal {... */\n  pop\n  jump\t// out\n    /* \"Hook.sol\":3350:3710  function newTransaction (uint _receivedEth, address _newOwner) internal {... */\ntag_26:\n    /* \"Hook.sol\":3432:3443  uint POAPId */\n  0x00\n    /* \"Hook.sol\":3446:3453  POAPIds */\n  0x0d\n    /* \"Hook.sol\":3446:3460  POAPIds.length */\n  dup1\n  sload\n  swap1\n  pop\n    /* \"Hook.sol\":3432:3460  uint POAPId = POAPIds.length */\n  swap1\n  pop\n    /* \"Hook.sol\":3470:3501  Transaction storage transaction */\n  0x00\n    /* \"Hook.sol\":3504:3525  transactionFromPOAPId */\n  0x0c\n    /* \"Hook.sol\":3504:3541  transactionFromPOAPId[POAPIds.length] */\n  0x00\n    /* \"Hook.sol\":3526:3533  POAPIds */\n  0x0d\n    /* \"Hook.sol\":3526:3540  POAPIds.length */\n  dup1\n  sload\n  swap1\n  pop\n    /* \"Hook.sol\":3504:3541  transactionFromPOAPId[POAPIds.length] */\n  dup2\n  mstore\n  0x20\n  add\n  swap1\n  dup2\n  mstore\n  0x20\n  add\n  0x00\n  keccak256\n    /* \"Hook.sol\":3470:3541  Transaction storage transaction = transactionFromPOAPId[POAPIds.length] */\n  swap1\n  pop\n    /* \"Hook.sol\":3572:3578  POAPId */\n  dup2\n    /* \"Hook.sol\":3551:3562  transaction */\n  dup2\n    /* \"Hook.sol\":3551:3569  transaction.POAPId */\n  0x00\n  add\n    /* \"Hook.sol\":3551:3578  transaction.POAPId = POAPId */\n  dup2\n  swap1\n  sstore\n  pop\n    /* \"Hook.sol\":3612:3621  _newOwner */\n  dup3\n    /* \"Hook.sol\":3588:3599  transaction */\n  dup2\n    /* \"Hook.sol\":3588:3609  transaction.purchaser */\n  0x01\n  add\n  0x00\n    /* \"Hook.sol\":3588:3621  transaction.purchaser = _newOwner */\n  0x0100\n  exp\n  dup2\n  sload\n  dup2\n  0xffffffffffffffffffffffffffffffffffffffff\n  mul\n  not\n  and\n  swap1\n  dup4\n  0xffffffffffffffffffffffffffffffffffffffff\n  and\n  mul\n  or\n  swap1\n  sstore\n  pop\n    /* \"Hook.sol\":3657:3669  _receivedEth */\n  dup4\n    /* \"Hook.sol\":3631:3642  transaction */\n  dup2\n    /* \"Hook.sol\":3631:3654  transaction.receivedEth */\n  0x02\n  add\n    /* \"Hook.sol\":3631:3669  transaction.receivedEth = _receivedEth */\n  dup2\n  swap1\n  sstore\n  pop\n    /* \"Hook.sol\":3679:3686  POAPIds */\n  0x0d\n    /* \"Hook.sol\":3692:3698  POAPId */\n  dup3\n    /* \"Hook.sol\":3679:3699  POAPIds.push(POAPId) */\n  swap1\n  dup1\n  0x01\n  dup2\n  sload\n  add\n  dup1\n  dup3\n  sstore\n  dup1\n  swap2\n  pop\n  pop\n  0x01\n  swap1\n  sub\n  swap1\n  0x00\n  mstore\n  keccak256(0x00, 0x20)\n  add\n  0x00\n  swap1\n  swap2\n  swap1\n  swap2\n  swap1\n  swap2\n  pop\n  sstore\n    /* \"Hook.sol\":3422:3710  {... */\n  pop\n  pop\n    /* \"Hook.sol\":3350:3710  function newTransaction (uint _receivedEth, address _newOwner) internal {... */\n  pop\n  pop\n  jump\t// out\n    /* \"Hook.sol\":1346:11383  contract TransactionsAndHook{... */\ntag_16:\n  dup3\n  dup1\n  sload\n  dup3\n  dup3\n  sstore\n  swap1\n  0x00\n  mstore\n  keccak256(0x00, 0x20)\n  swap1\n  dup2\n  add\n  swap3\n  dup3\n  iszero\n  tag_29\n  jumpi\n  swap2\n  0x20\n  mul\n  dup3\n  add\ntag_30:\n  dup3\n  dup2\n  gt\n  iszero\n  tag_31\n  jumpi\n  dup3\n  mload\n  dup3\n  exp(0x0100, 0x00)\n  dup2\n  sload\n  dup2\n  0xffffffffffffffffffffffffffffffffffffffff\n  mul\n  not\n  and\n  swap1\n  dup4\n  0xffffffffffffffffffffffffffffffffffffffff\n  and\n  mul\n  or\n  swap1\n  sstore\n  pop\n  swap2\n  0x20\n  add\n  swap2\n  swap1\n  0x01\n  add\n  swap1\n  jump(tag_30)\ntag_31:\ntag_29:\n  pop\n  swap1\n  pop\n  tag_32\n  swap2\n  swap1\n  tag_33\n  jump\t// in\ntag_32:\n  pop\n  swap1\n  jump\t// out\ntag_33:\ntag_34:\n  dup1\n  dup3\n  gt\n  iszero\n  tag_35\n  jumpi\n  0x00\n  dup2\n  0x00\n  swap1\n  sstore\n  pop\n  0x01\n  add\n  jump(tag_34)\ntag_35:\n  pop\n  swap1\n  jump\t// out\n    /* \"#utility.yul\":88:205   */\ntag_37:\n    /* \"#utility.yul\":197:198   */\n  0x00\n    /* \"#utility.yul\":194:195   */\n  dup1\n    /* \"#utility.yul\":187:199   */\n  revert\n    /* \"#utility.yul\":334:460   */\ntag_39:\n    /* \"#utility.yul\":371:378   */\n  0x00\n    /* \"#utility.yul\":411:453   */\n  0xffffffffffffffffffffffffffffffffffffffff\n    /* \"#utility.yul\":404:409   */\n  dup3\n    /* \"#utility.yul\":400:454   */\n  and\n    /* \"#utility.yul\":389:454   */\n  swap1\n  pop\n    /* \"#utility.yul\":334:460   */\n  swap2\n  swap1\n  pop\n  jump\t// out\n    /* \"#utility.yul\":466:562   */\ntag_40:\n    /* \"#utility.yul\":503:510   */\n  0x00\n    /* \"#utility.yul\":532:556   */\n  tag_55\n    /* \"#utility.yul\":550:555   */\n  dup3\n    /* \"#utility.yul\":532:556   */\n  tag_39\n  jump\t// in\ntag_55:\n    /* \"#utility.yul\":521:556   */\n  swap1\n  pop\n    /* \"#utility.yul\":466:562   */\n  swap2\n  swap1\n  pop\n  jump\t// out\n    /* \"#utility.yul\":568:690   */\ntag_41:\n    /* \"#utility.yul\":641:665   */\n  tag_57\n    /* \"#utility.yul\":659:664   */\n  dup2\n    /* \"#utility.yul\":641:665   */\n  tag_40\n  jump\t// in\ntag_57:\n    /* \"#utility.yul\":634:639   */\n  dup2\n    /* \"#utility.yul\":631:666   */\n  eq\n    /* \"#utility.yul\":621:684   */\n  tag_58\n  jumpi\n    /* \"#utility.yul\":680:681   */\n  0x00\n    /* \"#utility.yul\":677:678   */\n  dup1\n    /* \"#utility.yul\":670:682   */\n  revert\n    /* \"#utility.yul\":621:684   */\ntag_58:\n    /* \"#utility.yul\":568:690   */\n  pop\n  jump\t// out\n    /* \"#utility.yul\":696:839   */\ntag_42:\n    /* \"#utility.yul\":753:758   */\n  0x00\n    /* \"#utility.yul\":784:790   */\n  dup2\n    /* \"#utility.yul\":778:791   */\n  mload\n    /* \"#utility.yul\":769:791   */\n  swap1\n  pop\n    /* \"#utility.yul\":800:833   */\n  tag_60\n    /* \"#utility.yul\":827:832   */\n  dup2\n    /* \"#utility.yul\":800:833   */\n  tag_41\n  jump\t// in\ntag_60:\n    /* \"#utility.yul\":696:839   */\n  swap3\n  swap2\n  pop\n  pop\n  jump\t// out\n    /* \"#utility.yul\":845:1665   */\ntag_3:\n    /* \"#utility.yul\":942:948   */\n  0x00\n    /* \"#utility.yul\":950:956   */\n  dup1\n    /* \"#utility.yul\":958:964   */\n  0x00\n    /* \"#utility.yul\":966:972   */\n  dup1\n    /* \"#utility.yul\":1015:1018   */\n  0x80\n    /* \"#utility.yul\":1003:1012   */\n  dup6\n    /* \"#utility.yul\":994:1001   */\n  dup8\n    /* \"#utility.yul\":990:1013   */\n  sub\n    /* \"#utility.yul\":986:1019   */\n  slt\n    /* \"#utility.yul\":983:1103   */\n  iszero\n  tag_62\n  jumpi\n    /* \"#utility.yul\":1022:1101   */\n  tag_63\n  tag_37\n  jump\t// in\ntag_63:\n    /* \"#utility.yul\":983:1103   */\ntag_62:\n    /* \"#utility.yul\":1142:1143   */\n  0x00\n    /* \"#utility.yul\":1167:1231   */\n  tag_64\n    /* \"#utility.yul\":1223:1230   */\n  dup8\n    /* \"#utility.yul\":1214:1220   */\n  dup3\n    /* \"#utility.yul\":1203:1212   */\n  dup9\n    /* \"#utility.yul\":1199:1221   */\n  add\n    /* \"#utility.yul\":1167:1231   */\n  tag_42\n  jump\t// in\ntag_64:\n    /* \"#utility.yul\":1157:1231   */\n  swap5\n  pop\n    /* \"#utility.yul\":1113:1241   */\n  pop\n    /* \"#utility.yul\":1280:1282   */\n  0x20\n    /* \"#utility.yul\":1306:1370   */\n  tag_65\n    /* \"#utility.yul\":1362:1369   */\n  dup8\n    /* \"#utility.yul\":1353:1359   */\n  dup3\n    /* \"#utility.yul\":1342:1351   */\n  dup9\n    /* \"#utility.yul\":1338:1360   */\n  add\n    /* \"#utility.yul\":1306:1370   */\n  tag_42\n  jump\t// in\ntag_65:\n    /* \"#utility.yul\":1296:1370   */\n  swap4\n  pop\n    /* \"#utility.yul\":1251:1380   */\n  pop\n    /* \"#utility.yul\":1419:1421   */\n  0x40\n    /* \"#utility.yul\":1445:1509   */\n  tag_66\n    /* \"#utility.yul\":1501:1508   */\n  dup8\n    /* \"#utility.yul\":1492:1498   */\n  dup3\n    /* \"#utility.yul\":1481:1490   */\n  dup9\n    /* \"#utility.yul\":1477:1499   */\n  add\n    /* \"#utility.yul\":1445:1509   */\n  tag_42\n  jump\t// in\ntag_66:\n    /* \"#utility.yul\":1435:1509   */\n  swap3\n  pop\n    /* \"#utility.yul\":1390:1519   */\n  pop\n    /* \"#utility.yul\":1558:1560   */\n  0x60\n    /* \"#utility.yul\":1584:1648   */\n  tag_67\n    /* \"#utility.yul\":1640:1647   */\n  dup8\n    /* \"#utility.yul\":1631:1637   */\n  dup3\n    /* \"#utility.yul\":1620:1629   */\n  dup9\n    /* \"#utility.yul\":1616:1638   */\n  add\n    /* \"#utility.yul\":1584:1648   */\n  tag_42\n  jump\t// in\ntag_67:\n    /* \"#utility.yul\":1574:1648   */\n  swap2\n  pop\n    /* \"#utility.yul\":1529:1658   */\n  pop\n    /* \"#utility.yul\":845:1665   */\n  swap3\n  swap6\n  swap2\n  swap5\n  pop\n  swap3\n  pop\n  jump\t// out\n    /* \"#utility.yul\":1671:2022   */\ntag_9:\n    /* \"#utility.yul\":1741:1747   */\n  0x00\n    /* \"#utility.yul\":1790:1792   */\n  0x20\n    /* \"#utility.yul\":1778:1787   */\n  dup3\n    /* \"#utility.yul\":1769:1776   */\n  dup5\n    /* \"#utility.yul\":1765:1788   */\n  sub\n    /* \"#utility.yul\":1761:1793   */\n  slt\n    /* \"#utility.yul\":1758:1877   */\n  iszero\n  tag_69\n  jumpi\n    /* \"#utility.yul\":1796:1875   */\n  tag_70\n  tag_37\n  jump\t// in\ntag_70:\n    /* \"#utility.yul\":1758:1877   */\ntag_69:\n    /* \"#utility.yul\":1916:1917   */\n  0x00\n    /* \"#utility.yul\":1941:2005   */\n  tag_71\n    /* \"#utility.yul\":1997:2004   */\n  dup5\n    /* \"#utility.yul\":1988:1994   */\n  dup3\n    /* \"#utility.yul\":1977:1986   */\n  dup6\n    /* \"#utility.yul\":1973:1995   */\n  add\n    /* \"#utility.yul\":1941:2005   */\n  tag_42\n  jump\t// in\ntag_71:\n    /* \"#utility.yul\":1931:2005   */\n  swap2\n  pop\n    /* \"#utility.yul\":1887:2015   */\n  pop\n    /* \"#utility.yul\":1671:2022   */\n  swap3\n  swap2\n  pop\n  pop\n  jump\t// out\n    /* \"#utility.yul\":2028:2146   */\ntag_43:\n    /* \"#utility.yul\":2115:2139   */\n  tag_73\n    /* \"#utility.yul\":2133:2138   */\n  dup2\n    /* \"#utility.yul\":2115:2139   */\n  tag_40\n  jump\t// in\ntag_73:\n    /* \"#utility.yul\":2110:2113   */\n  dup3\n    /* \"#utility.yul\":2103:2140   */\n  mstore\n    /* \"#utility.yul\":2028:2146   */\n  pop\n  pop\n  jump\t// out\n    /* \"#utility.yul\":2152:2229   */\ntag_44:\n    /* \"#utility.yul\":2189:2196   */\n  0x00\n    /* \"#utility.yul\":2218:2223   */\n  dup2\n    /* \"#utility.yul\":2207:2223   */\n  swap1\n  pop\n    /* \"#utility.yul\":2152:2229   */\n  swap2\n  swap1\n  pop\n  jump\t// out\n    /* \"#utility.yul\":2235:2353   */\ntag_45:\n    /* \"#utility.yul\":2322:2346   */\n  tag_76\n    /* \"#utility.yul\":2340:2345   */\n  dup2\n    /* \"#utility.yul\":2322:2346   */\n  tag_44\n  jump\t// in\ntag_76:\n    /* \"#utility.yul\":2317:2320   */\n  dup3\n    /* \"#utility.yul\":2310:2347   */\n  mstore\n    /* \"#utility.yul\":2235:2353   */\n  pop\n  pop\n  jump\t// out\n    /* \"#utility.yul\":2359:2691   */\ntag_18:\n    /* \"#utility.yul\":2480:2484   */\n  0x00\n    /* \"#utility.yul\":2518:2520   */\n  0x40\n    /* \"#utility.yul\":2507:2516   */\n  dup3\n    /* \"#utility.yul\":2503:2521   */\n  add\n    /* \"#utility.yul\":2495:2521   */\n  swap1\n  pop\n    /* \"#utility.yul\":2531:2602   */\n  tag_78\n    /* \"#utility.yul\":2599:2600   */\n  0x00\n    /* \"#utility.yul\":2588:2597   */\n  dup4\n    /* \"#utility.yul\":2584:2601   */\n  add\n    /* \"#utility.yul\":2575:2581   */\n  dup6\n    /* \"#utility.yul\":2531:2602   */\n  tag_43\n  jump\t// in\ntag_78:\n    /* \"#utility.yul\":2612:2684   */\n  tag_79\n    /* \"#utility.yul\":2680:2682   */\n  0x20\n    /* \"#utility.yul\":2669:2678   */\n  dup4\n    /* \"#utility.yul\":2665:2683   */\n  add\n    /* \"#utility.yul\":2656:2662   */\n  dup5\n    /* \"#utility.yul\":2612:2684   */\n  tag_45\n  jump\t// in\ntag_79:\n    /* \"#utility.yul\":2359:2691   */\n  swap4\n  swap3\n  pop\n  pop\n  pop\n  jump\t// out\n    /* \"#utility.yul\":2697:2787   */\ntag_46:\n    /* \"#utility.yul\":2731:2738   */\n  0x00\n    /* \"#utility.yul\":2774:2779   */\n  dup2\n    /* \"#utility.yul\":2767:2780   */\n  iszero\n    /* \"#utility.yul\":2760:2781   */\n  iszero\n    /* \"#utility.yul\":2749:2781   */\n  swap1\n  pop\n    /* \"#utility.yul\":2697:2787   */\n  swap2\n  swap1\n  pop\n  jump\t// out\n    /* \"#utility.yul\":2793:2909   */\ntag_47:\n    /* \"#utility.yul\":2863:2884   */\n  tag_82\n    /* \"#utility.yul\":2878:2883   */\n  dup2\n    /* \"#utility.yul\":2863:2884   */\n  tag_46\n  jump\t// in\ntag_82:\n    /* \"#utility.yul\":2856:2861   */\n  dup2\n    /* \"#utility.yul\":2853:2885   */\n  eq\n    /* \"#utility.yul\":2843:2903   */\n  tag_83\n  jumpi\n    /* \"#utility.yul\":2899:2900   */\n  0x00\n    /* \"#utility.yul\":2896:2897   */\n  dup1\n    /* \"#utility.yul\":2889:2901   */\n  revert\n    /* \"#utility.yul\":2843:2903   */\ntag_83:\n    /* \"#utility.yul\":2793:2909   */\n  pop\n  jump\t// out\n    /* \"#utility.yul\":2915:3052   */\ntag_48:\n    /* \"#utility.yul\":2969:2974   */\n  0x00\n    /* \"#utility.yul\":3000:3006   */\n  dup2\n    /* \"#utility.yul\":2994:3007   */\n  mload\n    /* \"#utility.yul\":2985:3007   */\n  swap1\n  pop\n    /* \"#utility.yul\":3016:3046   */\n  tag_85\n    /* \"#utility.yul\":3040:3045   */\n  dup2\n    /* \"#utility.yul\":3016:3046   */\n  tag_47\n  jump\t// in\ntag_85:\n    /* \"#utility.yul\":2915:3052   */\n  swap3\n  swap2\n  pop\n  pop\n  jump\t// out\n    /* \"#utility.yul\":3058:3403   */\ntag_22:\n    /* \"#utility.yul\":3125:3131   */\n  0x00\n    /* \"#utility.yul\":3174:3176   */\n  0x20\n    /* \"#utility.yul\":3162:3171   */\n  dup3\n    /* \"#utility.yul\":3153:3160   */\n  dup5\n    /* \"#utility.yul\":3149:3172   */\n  sub\n    /* \"#utility.yul\":3145:3177   */\n  slt\n    /* \"#utility.yul\":3142:3261   */\n  iszero\n  tag_87\n  jumpi\n    /* \"#utility.yul\":3180:3259   */\n  tag_88\n  tag_37\n  jump\t// in\ntag_88:\n    /* \"#utility.yul\":3142:3261   */\ntag_87:\n    /* \"#utility.yul\":3300:3301   */\n  0x00\n    /* \"#utility.yul\":3325:3386   */\n  tag_89\n    /* \"#utility.yul\":3378:3385   */\n  dup5\n    /* \"#utility.yul\":3369:3375   */\n  dup3\n    /* \"#utility.yul\":3358:3367   */\n  dup6\n    /* \"#utility.yul\":3354:3376   */\n  add\n    /* \"#utility.yul\":3325:3386   */\n  tag_48\n  jump\t// in\ntag_89:\n    /* \"#utility.yul\":3315:3386   */\n  swap2\n  pop\n    /* \"#utility.yul\":3271:3396   */\n  pop\n    /* \"#utility.yul\":3058:3403   */\n  swap3\n  swap2\n  pop\n  pop\n  jump\t// out\n    /* \"Hook.sol\":1346:11383  contract TransactionsAndHook{... */\ntag_23:\n  dataSize(sub_0)\n  dup1\n  dataOffset(sub_0)\n  0x00\n  codecopy\n  0x00\n  return\nstop\n\nsub_0: assembly {\n        /* \"Hook.sol\":1346:11383  contract TransactionsAndHook{... */\n      mstore(0x40, 0x80)\n      jumpi(tag_1, lt(calldatasize, 0x04))\n      shr(0xe0, calldataload(0x00))\n      dup1\n      0xa09ede07\n      gt\n      tag_23\n      jumpi\n      dup1\n      0xaf6d1fe4\n      gt\n      tag_24\n      jumpi\n      dup1\n      0xaf6d1fe4\n      eq\n      tag_18\n      jumpi\n      dup1\n      0xbd3733fe\n      eq\n      tag_19\n      jumpi\n      dup1\n      0xbfd9ea5b\n      eq\n      tag_20\n      jumpi\n      dup1\n      0xc1f2e5f1\n      eq\n      tag_21\n      jumpi\n      dup1\n      0xd4afa675\n      eq\n      tag_22\n      jumpi\n      jump(tag_2)\n    tag_24:\n      dup1\n      0xa09ede07\n      eq\n      tag_13\n      jumpi\n      dup1\n      0xa6021ace\n      eq\n      tag_14\n      jumpi\n      dup1\n      0xa785a3d8\n      eq\n      tag_15\n      jumpi\n      dup1\n      0xa89ae4ba\n      eq\n      tag_16\n      jumpi\n      dup1\n      0xaef75107\n      eq\n      tag_17\n      jumpi\n      jump(tag_2)\n    tag_23:\n      dup1\n      0x4cfd1ba5\n      gt\n      tag_25\n      jumpi\n      dup1\n      0x4cfd1ba5\n      eq\n      tag_8\n      jumpi\n      dup1\n      0x51cff8d9\n      eq\n      tag_9\n      jumpi\n      dup1\n      0x777b506f\n      eq\n      tag_10\n      jumpi\n      dup1\n      0x86d02608\n      eq\n      tag_11\n      jumpi\n      dup1\n      0x9dd58b58\n      eq\n      tag_12\n      jumpi\n      jump(tag_2)\n    tag_25:\n      dup1\n      0x0b2b4d9b\n      eq\n      tag_3\n      jumpi\n      dup1\n      0x1b017fde\n      eq\n      tag_4\n      jumpi\n      dup1\n      0x20ca3c7f\n      eq\n      tag_5\n      jumpi\n      dup1\n      0x2c4c3c1b\n      eq\n      tag_6\n      jumpi\n      dup1\n      0x2ee9525b\n      eq\n      tag_7\n      jumpi\n      jump(tag_2)\n    tag_1:\n      jumpi(tag_2, calldatasize)\n      stop\n    tag_2:\n      0x00\n      dup1\n      revert\n        /* \"Hook.sol\":11210:11336  function superBuy(address _newOwner) public payable{... */\n    tag_3:\n      tag_28\n      0x04\n      dup1\n      calldatasize\n      sub\n      dup2\n      add\n      swap1\n      tag_29\n      swap2\n      swap1\n      tag_30\n      jump\t// in\n    tag_29:\n      tag_31\n      jump\t// in\n    tag_28:\n      stop\n        /* \"Hook.sol\":3024:3116  function updateERC20Address(address _address) public{... */\n    tag_4:\n      callvalue\n      dup1\n      iszero\n      tag_32\n      jumpi\n      0x00\n      dup1\n      revert\n    tag_32:\n      pop\n      tag_33\n      0x04\n      dup1\n      calldatasize\n      sub\n      dup2\n      add\n      swap1\n      tag_34\n      swap2\n      swap1\n      tag_30\n      jump\t// in\n    tag_34:\n      tag_35\n      jump\t// in\n    tag_33:\n      stop\n        /* \"Hook.sol\":2579:2659  address public uniswapRouterAddress = 0x7a250d5630B4cF539739dF2C5dAcb4c659F2488D */\n    tag_5:\n      callvalue\n      dup1\n      iszero\n      tag_36\n      jumpi\n      0x00\n      dup1\n      revert\n    tag_36:\n      pop\n      tag_37\n      tag_38\n      jump\t// in\n    tag_37:\n      mload(0x40)\n      tag_39\n      swap2\n      swap1\n      tag_40\n      jump\t// in\n    tag_39:\n      mload(0x40)\n      dup1\n      swap2\n      sub\n      swap1\n      return\n        /* \"Hook.sol\":2898:2956  mapping (uint => Transaction) public transactionFromPOAPId */\n    tag_6:\n      callvalue\n      dup1\n      iszero\n      tag_41\n      jumpi\n      0x00\n      dup1\n      revert\n    tag_41:\n      pop\n      tag_42\n      0x04\n      dup1\n      calldatasize\n      sub\n      dup2\n      add\n      swap1\n      tag_43\n      swap2\n      swap1\n      tag_44\n      jump\t// in\n    tag_43:\n      tag_45\n      jump\t// in\n    tag_42:\n      mload(0x40)\n      tag_46\n      swap4\n      swap3\n      swap2\n      swap1\n      tag_47\n      jump\t// in\n    tag_46:\n      mload(0x40)\n      dup1\n      swap2\n      sub\n      swap1\n      return\n        /* \"Hook.sol\":4674:5957  function xprovideLiquidity(uint _liquidityEth) external payable returns (uint){... */\n    tag_7:\n      tag_48\n      0x04\n      dup1\n      calldatasize\n      sub\n      dup2\n      add\n      swap1\n      tag_49\n      swap2\n      swap1\n      tag_44\n      jump\t// in\n    tag_49:\n      tag_50\n      jump\t// in\n    tag_48:\n      mload(0x40)\n      tag_51\n      swap2\n      swap1\n      tag_52\n      jump\t// in\n    tag_51:\n      mload(0x40)\n      dup1\n      swap2\n      sub\n      swap1\n      return\n        /* \"Hook.sol\":7243:7261  uint public buyEth */\n    tag_8:\n      callvalue\n      dup1\n      iszero\n      tag_53\n      jumpi\n      0x00\n      dup1\n      revert\n    tag_53:\n      pop\n      tag_54\n      tag_55\n      jump\t// in\n    tag_54:\n      mload(0x40)\n      tag_56\n      swap2\n      swap1\n      tag_52\n      jump\t// in\n    tag_56:\n      mload(0x40)\n      dup1\n      swap2\n      sub\n      swap1\n      return\n        /* \"Hook.sol\":3720:3922  function withdraw(address _ERC20Address) public {... */\n    tag_9:\n      callvalue\n      dup1\n      iszero\n      tag_57\n      jumpi\n      0x00\n      dup1\n      revert\n    tag_57:\n      pop\n      tag_58\n      0x04\n      dup1\n      calldatasize\n      sub\n      dup2\n      add\n      swap1\n      tag_59\n      swap2\n      swap1\n      tag_30\n      jump\t// in\n    tag_59:\n      tag_60\n      jump\t// in\n    tag_58:\n      stop\n        /* \"Hook.sol\":2511:2541  address public crownNFTAddress */\n    tag_10:\n      callvalue\n      dup1\n      iszero\n      tag_61\n      jumpi\n      0x00\n      dup1\n      revert\n    tag_61:\n      pop\n      tag_62\n      tag_63\n      jump\t// in\n    tag_62:\n      mload(0x40)\n      tag_64\n      swap2\n      swap1\n      tag_40\n      jump\t// in\n    tag_64:\n      mload(0x40)\n      dup1\n      swap2\n      sub\n      swap1\n      return\n        /* \"Hook.sol\":2982:3008  uint public totalRoyalties */\n    tag_11:\n      callvalue\n      dup1\n      iszero\n      tag_65\n      jumpi\n      0x00\n      dup1\n      revert\n    tag_65:\n      pop\n      tag_66\n      tag_67\n      jump\t// in\n    tag_66:\n      mload(0x40)\n      tag_68\n      swap2\n      swap1\n      tag_52\n      jump\t// in\n    tag_68:\n      mload(0x40)\n      dup1\n      swap2\n      sub\n      swap1\n      return\n        /* \"Hook.sol\":3928:4033  function getWethBalance() public view returns (uint){... */\n    tag_12:\n      callvalue\n      dup1\n      iszero\n      tag_69\n      jumpi\n      0x00\n      dup1\n      revert\n    tag_69:\n      pop\n      tag_70\n      tag_71\n      jump\t// in\n    tag_70:\n      mload(0x40)\n      tag_72\n      swap2\n      swap1\n      tag_52\n      jump\t// in\n    tag_72:\n      mload(0x40)\n      dup1\n      swap2\n      sub\n      swap1\n      return\n        /* \"Hook.sol\":7267:7291  uint public liquidityEth */\n    tag_13:\n      callvalue\n      dup1\n      iszero\n      tag_73\n      jumpi\n      0x00\n      dup1\n      revert\n    tag_73:\n      pop\n      tag_74\n      tag_75\n      jump\t// in\n    tag_74:\n      mload(0x40)\n      tag_76\n      swap2\n      swap1\n      tag_52\n      jump\t// in\n    tag_76:\n      mload(0x40)\n      dup1\n      swap2\n      sub\n      swap1\n      return\n        /* \"Hook.sol\":2405:2432  address public ERC20Address */\n    tag_14:\n      callvalue\n      dup1\n      iszero\n      tag_77\n      jumpi\n      0x00\n      dup1\n      revert\n    tag_77:\n      pop\n      tag_78\n      tag_79\n      jump\t// in\n    tag_78:\n      mload(0x40)\n      tag_80\n      swap2\n      swap1\n      tag_40\n      jump\t// in\n    tag_80:\n      mload(0x40)\n      dup1\n      swap2\n      sub\n      swap1\n      return\n        /* \"Hook.sol\":2328:2399  address public WethAddress = 0xB4FBF271143F4FBf7B91A5ded31805e42b2208d6 */\n    tag_15:\n      callvalue\n      dup1\n      iszero\n      tag_81\n      jumpi\n      0x00\n      dup1\n      revert\n    tag_81:\n      pop\n      tag_82\n      tag_83\n      jump\t// in\n    tag_82:\n      mload(0x40)\n      tag_84\n      swap2\n      swap1\n      tag_40\n      jump\t// in\n    tag_84:\n      mload(0x40)\n      dup1\n      swap2\n      sub\n      swap1\n      return\n        /* \"Hook.sol\":2477:2505  address public oracleAddress */\n    tag_16:\n      callvalue\n      dup1\n      iszero\n      tag_85\n      jumpi\n      0x00\n      dup1\n      revert\n    tag_85:\n      pop\n      tag_86\n      tag_87\n      jump\t// in\n    tag_86:\n      mload(0x40)\n      tag_88\n      swap2\n      swap1\n      tag_40\n      jump\t// in\n    tag_88:\n      mload(0x40)\n      dup1\n      swap2\n      sub\n      swap1\n      return\n        /* \"Hook.sol\":2547:2573  address public POAPAddress */\n    tag_17:\n      callvalue\n      dup1\n      iszero\n      tag_89\n      jumpi\n      0x00\n      dup1\n      revert\n    tag_89:\n      pop\n      tag_90\n      tag_91\n      jump\t// in\n    tag_90:\n      mload(0x40)\n      tag_92\n      swap2\n      swap1\n      tag_40\n      jump\t// in\n    tag_92:\n      mload(0x40)\n      dup1\n      swap2\n      sub\n      swap1\n      return\n        /* \"Hook.sol\":2665:2686  address[] public path */\n    tag_18:\n      callvalue\n      dup1\n      iszero\n      tag_93\n      jumpi\n      0x00\n      dup1\n      revert\n    tag_93:\n      pop\n      tag_94\n      0x04\n      dup1\n      calldatasize\n      sub\n      dup2\n      add\n      swap1\n      tag_95\n      swap2\n      swap1\n      tag_44\n      jump\t// in\n    tag_95:\n      tag_96\n      jump\t// in\n    tag_94:\n      mload(0x40)\n      tag_97\n      swap2\n      swap1\n      tag_40\n      jump\t// in\n    tag_97:\n      mload(0x40)\n      dup1\n      swap2\n      sub\n      swap1\n      return\n        /* \"Hook.sol\":2438:2471  address public uniswapPairAddress */\n    tag_19:\n      callvalue\n      dup1\n      iszero\n      tag_98\n      jumpi\n      0x00\n      dup1\n      revert\n    tag_98:\n      pop\n      tag_99\n      tag_100\n      jump\t// in\n    tag_99:\n      mload(0x40)\n      tag_101\n      swap2\n      swap1\n      tag_40\n      jump\t// in\n    tag_101:\n      mload(0x40)\n      dup1\n      swap2\n      sub\n      swap1\n      return\n        /* \"Hook.sol\":4040:4172  function getLastEthRecieved() public view returns (uint){... */\n    tag_20:\n      callvalue\n      dup1\n      iszero\n      tag_102\n      jumpi\n      0x00\n      dup1\n      revert\n    tag_102:\n      pop\n      tag_103\n      tag_104\n      jump\t// in\n    tag_103:\n      mload(0x40)\n      tag_105\n      swap2\n      swap1\n      tag_52\n      jump\t// in\n    tag_105:\n      mload(0x40)\n      dup1\n      swap2\n      sub\n      swap1\n      return\n        /* \"Hook.sol\":4182:4668  function percentLiquidity() public view returns (uint){... */\n    tag_21:\n      callvalue\n      dup1\n      iszero\n      tag_106\n      jumpi\n      0x00\n      dup1\n      revert\n    tag_106:\n      pop\n      tag_107\n      tag_108\n      jump\t// in\n    tag_107:\n      mload(0x40)\n      tag_109\n      swap2\n      swap1\n      tag_52\n      jump\t// in\n    tag_109:\n      mload(0x40)\n      dup1\n      swap2\n      sub\n      swap1\n      return\n        /* \"Hook.sol\":11091:11204  function mintSomeTokens (uint tokens) public {... */\n    tag_22:\n      callvalue\n      dup1\n      iszero\n      tag_110\n      jumpi\n      0x00\n      dup1\n      revert\n    tag_110:\n      pop\n      tag_111\n      0x04\n      dup1\n      calldatasize\n      sub\n      dup2\n      add\n      swap1\n      tag_112\n      swap2\n      swap1\n      tag_44\n      jump\t// in\n    tag_112:\n      tag_113\n      jump\t// in\n    tag_111:\n      stop\n        /* \"Hook.sol\":11210:11336  function superBuy(address _newOwner) public payable{... */\n    tag_31:\n        /* \"Hook.sol\":11271:11307  newTransaction(msg.value, _newOwner) */\n      tag_115\n        /* \"Hook.sol\":11286:11295  msg.value */\n      callvalue\n        /* \"Hook.sol\":11297:11306  _newOwner */\n      dup3\n        /* \"Hook.sol\":11271:11285  newTransaction */\n      tag_116\n        /* \"Hook.sol\":11271:11307  newTransaction(msg.value, _newOwner) */\n      jump\t// in\n    tag_115:\n        /* \"Hook.sol\":11317:11329  processETH() */\n      tag_117\n        /* \"Hook.sol\":11317:11327  processETH */\n      tag_118\n        /* \"Hook.sol\":11317:11329  processETH() */\n      jump\t// in\n    tag_117:\n        /* \"Hook.sol\":11210:11336  function superBuy(address _newOwner) public payable{... */\n      pop\n      jump\t// out\n        /* \"Hook.sol\":3024:3116  function updateERC20Address(address _address) public{... */\n    tag_35:\n        /* \"Hook.sol\":3101:3109  _address */\n      dup1\n        /* \"Hook.sol\":3086:3098  ERC20Address */\n      0x01\n      0x00\n        /* \"Hook.sol\":3086:3109  ERC20Address = _address */\n      0x0100\n      exp\n      dup2\n      sload\n      dup2\n      0xffffffffffffffffffffffffffffffffffffffff\n      mul\n      not\n      and\n      swap1\n      dup4\n      0xffffffffffffffffffffffffffffffffffffffff\n      and\n      mul\n      or\n      swap1\n      sstore\n      pop\n        /* \"Hook.sol\":3024:3116  function updateERC20Address(address _address) public{... */\n      pop\n      jump\t// out\n        /* \"Hook.sol\":2579:2659  address public uniswapRouterAddress = 0x7a250d5630B4cF539739dF2C5dAcb4c659F2488D */\n    tag_38:\n      0x06\n      0x00\n      swap1\n      sload\n      swap1\n      0x0100\n      exp\n      swap1\n      div\n      0xffffffffffffffffffffffffffffffffffffffff\n      and\n      dup2\n      jump\t// out\n        /* \"Hook.sol\":2898:2956  mapping (uint => Transaction) public transactionFromPOAPId */\n    tag_45:\n      mstore(0x20, 0x0c)\n      dup1\n      0x00\n      mstore\n      keccak256(0x00, 0x40)\n      0x00\n      swap2\n      pop\n      swap1\n      pop\n      dup1\n      0x00\n      add\n      sload\n      swap1\n      dup1\n      0x01\n      add\n      0x00\n      swap1\n      sload\n      swap1\n      0x0100\n      exp\n      swap1\n      div\n      0xffffffffffffffffffffffffffffffffffffffff\n      and\n      swap1\n      dup1\n      0x02\n      add\n      sload\n      swap1\n      pop\n      dup4\n      jump\t// out\n        /* \"Hook.sol\":4674:5957  function xprovideLiquidity(uint _liquidityEth) external payable returns (uint){... */\n    tag_50:\n        /* \"Hook.sol\":4747:4751  uint */\n      0x00\n        /* \"Hook.sol\":4771:4798  uint ERC20LiquidityProvided */\n      dup1\n        /* \"Hook.sol\":4878:4902  uint currentERC20Balance */\n      0x00\n        /* \"Hook.sol\":4912:4924  ERC20Address */\n      0x01\n      0x00\n      swap1\n      sload\n      swap1\n      0x0100\n      exp\n      swap1\n      div\n      0xffffffffffffffffffffffffffffffffffffffff\n      and\n        /* \"Hook.sol\":4905:4935  IERC20(ERC20Address).balanceOf */\n      0xffffffffffffffffffffffffffffffffffffffff\n      and\n      0x70a08231\n        /* \"Hook.sol\":4944:4948  this */\n      address\n        /* \"Hook.sol\":4905:4950  IERC20(ERC20Address).balanceOf(address(this)) */\n      mload(0x40)\n      dup3\n      0xffffffff\n      and\n      0xe0\n      shl\n      dup2\n      mstore\n      0x04\n      add\n      tag_121\n      swap2\n      swap1\n      tag_40\n      jump\t// in\n    tag_121:\n      0x20\n      mload(0x40)\n      dup1\n      dup4\n      sub\n      dup2\n      dup7\n      gas\n      staticcall\n      iszero\n      dup1\n      iszero\n      tag_123\n      jumpi\n      returndatasize\n      0x00\n      dup1\n      returndatacopy\n      revert(0x00, returndatasize)\n    tag_123:\n      pop\n      pop\n      pop\n      pop\n      mload(0x40)\n      returndatasize\n      not(0x1f)\n      0x1f\n      dup3\n      add\n      and\n      dup3\n      add\n      dup1\n      0x40\n      mstore\n      pop\n      dup2\n      add\n      swap1\n      tag_124\n      swap2\n      swap1\n      tag_125\n      jump\t// in\n    tag_124:\n        /* \"Hook.sol\":4878:4950  uint currentERC20Balance = IERC20(ERC20Address).balanceOf(address(this)) */\n      swap1\n      pop\n        /* \"Hook.sol\":5033:5050  uint tokensToSend */\n      0x00\n        /* \"Hook.sol\":5109:5112  100 */\n      0x64\n        /* \"Hook.sol\":5103:5106  105 */\n      0x69\n        /* \"Hook.sol\":5053:5059  Oracle */\n      0x0a\n      0x00\n      swap1\n      sload\n      swap1\n      0x0100\n      exp\n      swap1\n      div\n      0xffffffffffffffffffffffffffffffffffffffff\n      and\n        /* \"Hook.sol\":5053:5073  Oracle.consultPrices */\n      0xffffffffffffffffffffffffffffffffffffffff\n      and\n      0x3ac35585\n        /* \"Hook.sol\":5074:5085  WethAddress */\n      0x00\n      dup1\n      sload\n      swap1\n      0x0100\n      exp\n      swap1\n      div\n      0xffffffffffffffffffffffffffffffffffffffff\n      and\n        /* \"Hook.sol\":5087:5100  _liquidityEth */\n      dup10\n        /* \"Hook.sol\":5053:5101  Oracle.consultPrices(WethAddress, _liquidityEth) */\n      mload(0x40)\n      dup4\n      0xffffffff\n      and\n      0xe0\n      shl\n      dup2\n      mstore\n      0x04\n      add\n      tag_126\n      swap3\n      swap2\n      swap1\n      tag_127\n      jump\t// in\n    tag_126:\n      0x20\n      mload(0x40)\n      dup1\n      dup4\n      sub\n      dup2\n      dup7\n      gas\n      staticcall\n      iszero\n      dup1\n      iszero\n      tag_129\n      jumpi\n      returndatasize\n      0x00\n      dup1\n      returndatacopy\n      revert(0x00, returndatasize)\n    tag_129:\n      pop\n      pop\n      pop\n      pop\n      mload(0x40)\n      returndatasize\n      not(0x1f)\n      0x1f\n      dup3\n      add\n      and\n      dup3\n      add\n      dup1\n      0x40\n      mstore\n      pop\n      dup2\n      add\n      swap1\n      tag_130\n      swap2\n      swap1\n      tag_125\n      jump\t// in\n    tag_130:\n        /* \"Hook.sol\":5053:5106  Oracle.consultPrices(WethAddress, _liquidityEth)* 105 */\n      tag_131\n      swap2\n      swap1\n      tag_132\n      jump\t// in\n    tag_131:\n        /* \"Hook.sol\":5053:5112  Oracle.consultPrices(WethAddress, _liquidityEth)* 105 / 100 */\n      tag_133\n      swap2\n      swap1\n      tag_134\n      jump\t// in\n    tag_133:\n        /* \"Hook.sol\":5033:5112  uint tokensToSend = Oracle.consultPrices(WethAddress, _liquidityEth)* 105 / 100 */\n      swap1\n      pop\n        /* \"Hook.sol\":5234:5253  currentERC20Balance */\n      dup2\n        /* \"Hook.sol\":5219:5231  tokensToSend */\n      dup2\n        /* \"Hook.sol\":5219:5253  tokensToSend > currentERC20Balance */\n      gt\n        /* \"Hook.sol\":5216:5439  if(tokensToSend > currentERC20Balance){... */\n      iszero\n      tag_135\n      jumpi\n        /* \"Hook.sol\":5277:5289  ERC20Address */\n      0x01\n      0x00\n      swap1\n      sload\n      swap1\n      0x0100\n      exp\n      swap1\n      div\n      0xffffffffffffffffffffffffffffffffffffffff\n      and\n        /* \"Hook.sol\":5268:5299  WethLike(ERC20Address).hookMint */\n      0xffffffffffffffffffffffffffffffffffffffff\n      and\n      0x96fe8349\n        /* \"Hook.sol\":5313:5332  currentERC20Balance */\n      dup4\n        /* \"Hook.sol\":5300:5312  tokensToSend */\n      dup4\n        /* \"Hook.sol\":5300:5332  tokensToSend-currentERC20Balance */\n      tag_136\n      swap2\n      swap1\n      tag_137\n      jump\t// in\n    tag_136:\n        /* \"Hook.sol\":5341:5345  this */\n      address\n        /* \"Hook.sol\":5268:5347  WethLike(ERC20Address).hookMint(tokensToSend-currentERC20Balance,address(this)) */\n      mload(0x40)\n      dup4\n      0xffffffff\n      and\n      0xe0\n      shl\n      dup2\n      mstore\n      0x04\n      add\n      tag_138\n      swap3\n      swap2\n      swap1\n      tag_139\n      jump\t// in\n    tag_138:\n      0x00\n      mload(0x40)\n      dup1\n      dup4\n      sub\n      dup2\n      0x00\n      dup8\n      dup1\n      extcodesize\n      iszero\n      dup1\n      iszero\n      tag_140\n      jumpi\n      0x00\n      dup1\n      revert\n    tag_140:\n      pop\n      gas\n      call\n      iszero\n      dup1\n      iszero\n      tag_142\n      jumpi\n      returndatasize\n      0x00\n      dup1\n      returndatacopy\n      revert(0x00, returndatasize)\n    tag_142:\n      pop\n      pop\n      pop\n      pop\n        /* \"Hook.sol\":5390:5402  ERC20Address */\n      0x01\n      0x00\n      swap1\n      sload\n      swap1\n      0x0100\n      exp\n      swap1\n      div\n      0xffffffffffffffffffffffffffffffffffffffff\n      and\n        /* \"Hook.sol\":5383:5413  IERC20(ERC20Address).balanceOf */\n      0xffffffffffffffffffffffffffffffffffffffff\n      and\n      0x70a08231\n        /* \"Hook.sol\":5422:5426  this */\n      address\n        /* \"Hook.sol\":5383:5428  IERC20(ERC20Address).balanceOf(address(this)) */\n      mload(0x40)\n      dup3\n      0xffffffff\n      and\n      0xe0\n      shl\n      dup2\n      mstore\n      0x04\n      add\n      tag_143\n      swap2\n      swap1\n      tag_40\n      jump\t// in\n    tag_143:\n      0x20\n      mload(0x40)\n      dup1\n      dup4\n      sub\n      dup2\n      dup7\n      gas\n      staticcall\n      iszero\n      dup1\n      iszero\n      tag_145\n      jumpi\n      returndatasize\n      0x00\n      dup1\n      returndatacopy\n      revert(0x00, returndatasize)\n    tag_145:\n      pop\n      pop\n      pop\n      pop\n      mload(0x40)\n      returndatasize\n      not(0x1f)\n      0x1f\n      dup3\n      add\n      and\n      dup3\n      add\n      dup1\n      0x40\n      mstore\n      pop\n      dup2\n      add\n      swap1\n      tag_146\n      swap2\n      swap1\n      tag_125\n      jump\t// in\n    tag_146:\n        /* \"Hook.sol\":5361:5428  currentERC20Balance = IERC20(ERC20Address).balanceOf(address(this)) */\n      swap2\n      pop\n        /* \"Hook.sol\":5216:5439  if(tokensToSend > currentERC20Balance){... */\n    tag_135:\n        /* \"Hook.sol\":5511:5524  UniswapRouter */\n      0x0b\n      0x00\n      swap1\n      sload\n      swap1\n      0x0100\n      exp\n      swap1\n      div\n      0xffffffffffffffffffffffffffffffffffffffff\n      and\n        /* \"Hook.sol\":5511:5540  UniswapRouter.addLiquidityETH */\n      0xffffffffffffffffffffffffffffffffffffffff\n      and\n      0xf305d719\n        /* \"Hook.sol\":5549:5562  _liquidityEth */\n      dup7\n        /* \"Hook.sol\":5573:5577  this */\n      address\n        /* \"Hook.sol\":5580:5592  tokensToSend */\n      dup5\n        /* \"Hook.sol\":5594:5595  0 */\n      0x00\n        /* \"Hook.sol\":5618:5621  100 */\n      0x64\n        /* \"Hook.sol\":5614:5616  95 */\n      0x5f\n        /* \"Hook.sol\":5598:5611  _liquidityEth */\n      dup13\n        /* \"Hook.sol\":5598:5616  _liquidityEth * 95 */\n      tag_147\n      swap2\n      swap1\n      tag_132\n      jump\t// in\n    tag_147:\n        /* \"Hook.sol\":5597:5621  (_liquidityEth * 95)/100 */\n      tag_148\n      swap2\n      swap1\n      tag_134\n      jump\t// in\n    tag_148:\n        /* \"Hook.sol\":5631:5635  this */\n      address\n        /* \"Hook.sol\":5638:5652  type(uint).max */\n      0xffffffffffffffffffffffffffffffffffffffffffffffffffffffffffffffff\n        /* \"Hook.sol\":5511:5653  UniswapRouter.addLiquidityETH {value: _liquidityEth} (address(this), tokensToSend, 0, (_liquidityEth * 95)/100, address(this), type(uint).max) */\n      mload(0x40)\n      dup9\n      0xffffffff\n      and\n      0xe0\n      shl\n      dup2\n      mstore\n      0x04\n      add\n      tag_149\n      swap7\n      swap6\n      swap5\n      swap4\n      swap3\n      swap2\n      swap1\n      tag_150\n      jump\t// in\n    tag_149:\n      0x60\n      mload(0x40)\n      dup1\n      dup4\n      sub\n      dup2\n      dup6\n      dup9\n      gas\n      call\n      swap4\n      pop\n      pop\n      pop\n      pop\n      dup1\n      iszero\n      tag_151\n      jumpi\n      pop\n      mload(0x40)\n      returndatasize\n      not(0x1f)\n      0x1f\n      dup3\n      add\n      and\n      dup3\n      add\n      dup1\n      0x40\n      mstore\n      pop\n      dup2\n      add\n      swap1\n      tag_152\n      swap2\n      swap1\n      tag_153\n      jump\t// in\n    tag_152:\n      0x01\n    tag_151:\n        /* \"Hook.sol\":5507:5910  try UniswapRouter.addLiquidityETH {value: _liquidityEth} (address(this), tokensToSend, 0, (_liquidityEth * 95)/100, address(this), type(uint).max)... */\n      tag_154\n      jumpi\n        /* \"Hook.sol\":5870:5899  Log(\"Liquidity Not Provided\") */\n      0xcf34ef537ac33ee1ac626ca1587a0a7e8e51561e5514f8cb36afa1c5102b3bab\n      mload(0x40)\n      tag_158\n      swap1\n      tag_159\n      jump\t// in\n    tag_158:\n      mload(0x40)\n      dup1\n      swap2\n      sub\n      swap1\n      log1\n        /* \"Hook.sol\":5507:5910  try UniswapRouter.addLiquidityETH {value: _liquidityEth} (address(this), tokensToSend, 0, (_liquidityEth * 95)/100, address(this), type(uint).max)... */\n      jump(tag_160)\n    tag_154:\n      pop\n      pop\n      pop\n        /* \"Hook.sol\":5681:5719  Log(\"liquidity Successfully Provided\") */\n      0xcf34ef537ac33ee1ac626ca1587a0a7e8e51561e5514f8cb36afa1c5102b3bab\n      mload(0x40)\n      tag_161\n      swap1\n      tag_162\n      jump\t// in\n    tag_161:\n      mload(0x40)\n      dup1\n      swap2\n      sub\n      swap1\n      log1\n        /* \"Hook.sol\":5787:5799  ERC20Address */\n      0x01\n      0x00\n      swap1\n      sload\n      swap1\n      0x0100\n      exp\n      swap1\n      div\n      0xffffffffffffffffffffffffffffffffffffffff\n      and\n        /* \"Hook.sol\":5780:5810  IERC20(ERC20Address).balanceOf */\n      0xffffffffffffffffffffffffffffffffffffffff\n      and\n      0x70a08231\n        /* \"Hook.sol\":5819:5823  this */\n      address\n        /* \"Hook.sol\":5780:5825  IERC20(ERC20Address).balanceOf(address(this)) */\n      mload(0x40)\n      dup3\n      0xffffffff\n      and\n      0xe0\n      shl\n      dup2\n      mstore\n      0x04\n      add\n      tag_163\n      swap2\n      swap1\n      tag_40\n      jump\t// in\n    tag_163:\n      0x20\n      mload(0x40)\n      dup1\n      dup4\n      sub\n      dup2\n      dup7\n      gas\n      staticcall\n      iszero\n      dup1\n      iszero\n      tag_165\n      jumpi\n      returndatasize\n      0x00\n      dup1\n      returndatacopy\n      revert(0x00, returndatasize)\n    tag_165:\n      pop\n      pop\n      pop\n      pop\n      mload(0x40)\n      returndatasize\n      not(0x1f)\n      0x1f\n      dup3\n      add\n      and\n      dup3\n      add\n      dup1\n      0x40\n      mstore\n      pop\n      dup2\n      add\n      swap1\n      tag_166\n      swap2\n      swap1\n      tag_125\n      jump\t// in\n    tag_166:\n        /* \"Hook.sol\":5758:5777  currentERC20Balance */\n      dup3\n        /* \"Hook.sol\":5758:5825  currentERC20Balance - IERC20(ERC20Address).balanceOf(address(this)) */\n      tag_167\n      swap2\n      swap1\n      tag_137\n      jump\t// in\n    tag_167:\n        /* \"Hook.sol\":5733:5825  ERC20LiquidityProvided = currentERC20Balance - IERC20(ERC20Address).balanceOf(address(this)) */\n      swap3\n      pop\n        /* \"Hook.sol\":5507:5910  try UniswapRouter.addLiquidityETH {value: _liquidityEth} (address(this), tokensToSend, 0, (_liquidityEth * 95)/100, address(this), type(uint).max)... */\n    tag_160:\n        /* \"Hook.sol\":5927:5949  ERC20LiquidityProvided */\n      dup3\n        /* \"Hook.sol\":5919:5950  return (ERC20LiquidityProvided) */\n      swap4\n      pop\n      pop\n      pop\n      pop\n        /* \"Hook.sol\":4674:5957  function xprovideLiquidity(uint _liquidityEth) external payable returns (uint){... */\n      swap2\n      swap1\n      pop\n      jump\t// out\n        /* \"Hook.sol\":7243:7261  uint public buyEth */\n    tag_55:\n      sload(0x0f)\n      dup2\n      jump\t// out\n        /* \"Hook.sol\":3720:3922  function withdraw(address _ERC20Address) public {... */\n    tag_60:\n        /* \"Hook.sol\":3778:3790  IERC20 ERC20 */\n      0x00\n        /* \"Hook.sol\":3800:3813  _ERC20Address */\n      dup2\n        /* \"Hook.sol\":3778:3814  IERC20 ERC20 = IERC20(_ERC20Address) */\n      swap1\n      pop\n        /* \"Hook.sol\":3824:3837  uint _balance */\n      0x00\n        /* \"Hook.sol\":3840:3845  ERC20 */\n      dup2\n        /* \"Hook.sol\":3840:3855  ERC20.balanceOf */\n      0xffffffffffffffffffffffffffffffffffffffff\n      and\n      0x70a08231\n        /* \"Hook.sol\":3864:3868  this */\n      address\n        /* \"Hook.sol\":3840:3870  ERC20.balanceOf(address(this)) */\n      mload(0x40)\n      dup3\n      0xffffffff\n      and\n      0xe0\n      shl\n      dup2\n      mstore\n      0x04\n      add\n      tag_169\n      swap2\n      swap1\n      tag_40\n      jump\t// in\n    tag_169:\n      0x20\n      mload(0x40)\n      dup1\n      dup4\n      sub\n      dup2\n      dup7\n      gas\n      staticcall\n      iszero\n      dup1\n      iszero\n      tag_171\n      jumpi\n      returndatasize\n      0x00\n      dup1\n      returndatacopy\n      revert(0x00, returndatasize)\n    tag_171:\n      pop\n      pop\n      pop\n      pop\n      mload(0x40)\n      returndatasize\n      not(0x1f)\n      0x1f\n      dup3\n      add\n      and\n      dup3\n      add\n      dup1\n      0x40\n      mstore\n      pop\n      dup2\n      add\n      swap1\n      tag_172\n      swap2\n      swap1\n      tag_125\n      jump\t// in\n    tag_172:\n        /* \"Hook.sol\":3824:3870  uint _balance = ERC20.balanceOf(address(this)) */\n      swap1\n      pop\n        /* \"Hook.sol\":3880:3885  ERC20 */\n      dup2\n        /* \"Hook.sol\":3880:3894  ERC20.transfer */\n      0xffffffffffffffffffffffffffffffffffffffff\n      and\n      0xa9059cbb\n        /* \"Hook.sol\":3895:3905  msg.sender */\n      caller\n        /* \"Hook.sol\":3906:3914  _balance */\n      dup4\n        /* \"Hook.sol\":3880:3915  ERC20.transfer(msg.sender,_balance) */\n      mload(0x40)\n      dup4\n      0xffffffff\n      and\n      0xe0\n      shl\n      dup2\n      mstore\n      0x04\n      add\n      tag_173\n      swap3\n      swap2\n      swap1\n      tag_127\n      jump\t// in\n    tag_173:\n      0x20\n      mload(0x40)\n      dup1\n      dup4\n      sub\n      dup2\n      0x00\n      dup8\n      gas\n      call\n      iszero\n      dup1\n      iszero\n      tag_175\n      jumpi\n      returndatasize\n      0x00\n      dup1\n      returndatacopy\n      revert(0x00, returndatasize)\n    tag_175:\n      pop\n      pop\n      pop\n      pop\n      mload(0x40)\n      returndatasize\n      not(0x1f)\n      0x1f\n      dup3\n      add\n      and\n      dup3\n      add\n      dup1\n      0x40\n      mstore\n      pop\n      dup2\n      add\n      swap1\n      tag_176\n      swap2\n      swap1\n      tag_177\n      jump\t// in\n    tag_176:\n      pop\n        /* \"Hook.sol\":3768:3922  {... */\n      pop\n      pop\n        /* \"Hook.sol\":3720:3922  function withdraw(address _ERC20Address) public {... */\n      pop\n      jump\t// out\n        /* \"Hook.sol\":2511:2541  address public crownNFTAddress */\n    tag_63:\n      0x04\n      0x00\n      swap1\n      sload\n      swap1\n      0x0100\n      exp\n      swap1\n      div\n      0xffffffffffffffffffffffffffffffffffffffff\n      and\n      dup2\n      jump\t// out\n        /* \"Hook.sol\":2982:3008  uint public totalRoyalties */\n    tag_67:\n      sload(0x0e)\n      dup2\n      jump\t// out\n        /* \"Hook.sol\":3928:4033  function getWethBalance() public view returns (uint){... */\n    tag_71:\n        /* \"Hook.sol\":3975:3979  uint */\n      0x00\n        /* \"Hook.sol\":3997:4001  WETH */\n      0x09\n      0x00\n      swap1\n      sload\n      swap1\n      0x0100\n      exp\n      swap1\n      div\n      0xffffffffffffffffffffffffffffffffffffffff\n      and\n        /* \"Hook.sol\":3997:4011  WETH.balanceOf */\n      0xffffffffffffffffffffffffffffffffffffffff\n      and\n      0x70a08231\n        /* \"Hook.sol\":4020:4024  this */\n      address\n        /* \"Hook.sol\":3997:4026  WETH.balanceOf(address(this)) */\n      mload(0x40)\n      dup3\n      0xffffffff\n      and\n      0xe0\n      shl\n      dup2\n      mstore\n      0x04\n      add\n      tag_179\n      swap2\n      swap1\n      tag_40\n      jump\t// in\n    tag_179:\n      0x20\n      mload(0x40)\n      dup1\n      dup4\n      sub\n      dup2\n      dup7\n      gas\n      staticcall\n      iszero\n      dup1\n      iszero\n      tag_181\n      jumpi\n      returndatasize\n      0x00\n      dup1\n      returndatacopy\n      revert(0x00, returndatasize)\n    tag_181:\n      pop\n      pop\n      pop\n      pop\n      mload(0x40)\n      returndatasize\n      not(0x1f)\n      0x1f\n      dup3\n      add\n      and\n      dup3\n      add\n      dup1\n      0x40\n      mstore\n      pop\n      dup2\n      add\n      swap1\n      tag_182\n      swap2\n      swap1\n      tag_125\n      jump\t// in\n    tag_182:\n        /* \"Hook.sol\":3990:4026  return WETH.balanceOf(address(this)) */\n      swap1\n      pop\n        /* \"Hook.sol\":3928:4033  function getWethBalance() public view returns (uint){... */\n      swap1\n      jump\t// out\n        /* \"Hook.sol\":7267:7291  uint public liquidityEth */\n    tag_75:\n      sload(0x10)\n      dup2\n      jump\t// out\n        /* \"Hook.sol\":2405:2432  address public ERC20Address */\n    tag_79:\n      0x01\n      0x00\n      swap1\n      sload\n      swap1\n      0x0100\n      exp\n      swap1\n      div\n      0xffffffffffffffffffffffffffffffffffffffff\n      and\n      dup2\n      jump\t// out\n        /* \"Hook.sol\":2328:2399  address public WethAddress = 0xB4FBF271143F4FBf7B91A5ded31805e42b2208d6 */\n    tag_83:\n      0x00\n      dup1\n      sload\n      swap1\n      0x0100\n      exp\n      swap1\n      div\n      0xffffffffffffffffffffffffffffffffffffffff\n      and\n      dup2\n      jump\t// out\n        /* \"Hook.sol\":2477:2505  address public oracleAddress */\n    tag_87:\n      0x03\n      0x00\n      swap1\n      sload\n      swap1\n      0x0100\n      exp\n      swap1\n      div\n      0xffffffffffffffffffffffffffffffffffffffff\n      and\n      dup2\n      jump\t// out\n        /* \"Hook.sol\":2547:2573  address public POAPAddress */\n    tag_91:\n      0x05\n      0x00\n      swap1\n      sload\n      swap1\n      0x0100\n      exp\n      swap1\n      div\n      0xffffffffffffffffffffffffffffffffffffffff\n      and\n      dup2\n      jump\t// out\n        /* \"Hook.sol\":2665:2686  address[] public path */\n    tag_96:\n      0x07\n      dup2\n      dup2\n      sload\n      dup2\n      lt\n      tag_183\n      jumpi\n      0x00\n      dup1\n      revert\n    tag_183:\n      swap1\n      0x00\n      mstore\n      keccak256(0x00, 0x20)\n      add\n      0x00\n      swap2\n      pop\n      sload\n      swap1\n      0x0100\n      exp\n      swap1\n      div\n      0xffffffffffffffffffffffffffffffffffffffff\n      and\n      dup2\n      jump\t// out\n        /* \"Hook.sol\":2438:2471  address public uniswapPairAddress */\n    tag_100:\n      0x02\n      0x00\n      swap1\n      sload\n      swap1\n      0x0100\n      exp\n      swap1\n      div\n      0xffffffffffffffffffffffffffffffffffffffff\n      and\n      dup2\n      jump\t// out\n        /* \"Hook.sol\":4040:4172  function getLastEthRecieved() public view returns (uint){... */\n    tag_104:\n        /* \"Hook.sol\":4091:4095  uint */\n      0x00\n        /* \"Hook.sol\":4113:4134  transactionFromPOAPId */\n      0x0c\n        /* \"Hook.sol\":4113:4153  transactionFromPOAPId[POAPIds.length -1] */\n      0x00\n        /* \"Hook.sol\":4151:4152  1 */\n      0x01\n        /* \"Hook.sol\":4135:4142  POAPIds */\n      0x0d\n        /* \"Hook.sol\":4135:4149  POAPIds.length */\n      dup1\n      sload\n      swap1\n      pop\n        /* \"Hook.sol\":4135:4152  POAPIds.length -1 */\n      tag_186\n      swap2\n      swap1\n      tag_137\n      jump\t// in\n    tag_186:\n        /* \"Hook.sol\":4113:4153  transactionFromPOAPId[POAPIds.length -1] */\n      dup2\n      mstore\n      0x20\n      add\n      swap1\n      dup2\n      mstore\n      0x20\n      add\n      0x00\n      keccak256\n        /* \"Hook.sol\":4113:4165  transactionFromPOAPId[POAPIds.length -1].receivedEth */\n      0x02\n      add\n      sload\n        /* \"Hook.sol\":4106:4165  return transactionFromPOAPId[POAPIds.length -1].receivedEth */\n      swap1\n      pop\n        /* \"Hook.sol\":4040:4172  function getLastEthRecieved() public view returns (uint){... */\n      swap1\n      jump\t// out\n        /* \"Hook.sol\":4182:4668  function percentLiquidity() public view returns (uint){... */\n    tag_108:\n        /* \"Hook.sol\":4231:4235  uint */\n      0x00\n        /* \"Hook.sol\":4391:4402  uint supply */\n      dup1\n        /* \"Hook.sol\":4412:4424  ERC20Address */\n      0x01\n      0x00\n      swap1\n      sload\n      swap1\n      0x0100\n      exp\n      swap1\n      div\n      0xffffffffffffffffffffffffffffffffffffffff\n      and\n        /* \"Hook.sol\":4405:4437  IERC20(ERC20Address).totalSupply */\n      0xffffffffffffffffffffffffffffffffffffffff\n      and\n      0x18160ddd\n        /* \"Hook.sol\":4405:4439  IERC20(ERC20Address).totalSupply() */\n      mload(0x40)\n      dup2\n      0xffffffff\n      and\n      0xe0\n      shl\n      dup2\n      mstore\n      0x04\n      add\n      0x20\n      mload(0x40)\n      dup1\n      dup4\n      sub\n      dup2\n      dup7\n      gas\n      staticcall\n      iszero\n      dup1\n      iszero\n      tag_189\n      jumpi\n      returndatasize\n      0x00\n      dup1\n      returndatacopy\n      revert(0x00, returndatasize)\n    tag_189:\n      pop\n      pop\n      pop\n      pop\n      mload(0x40)\n      returndatasize\n      not(0x1f)\n      0x1f\n      dup3\n      add\n      and\n      dup3\n      add\n      dup1\n      0x40\n      mstore\n      pop\n      dup2\n      add\n      swap1\n      tag_190\n      swap2\n      swap1\n      tag_125\n      jump\t// in\n    tag_190:\n        /* \"Hook.sol\":4391:4439  uint supply = IERC20(ERC20Address).totalSupply() */\n      swap1\n      pop\n        /* \"Hook.sol\":4495:4509  uint liquidity */\n      0x00\n        /* \"Hook.sol\":4517:4529  ERC20Address */\n      0x01\n      0x00\n      swap1\n      sload\n      swap1\n      0x0100\n      exp\n      swap1\n      div\n      0xffffffffffffffffffffffffffffffffffffffff\n      and\n        /* \"Hook.sol\":4510:4540  IERC20(ERC20Address).balanceOf */\n      0xffffffffffffffffffffffffffffffffffffffff\n      and\n      0x70a08231\n        /* \"Hook.sol\":4541:4559  uniswapPairAddress */\n      0x02\n      0x00\n      swap1\n      sload\n      swap1\n      0x0100\n      exp\n      swap1\n      div\n      0xffffffffffffffffffffffffffffffffffffffff\n      and\n        /* \"Hook.sol\":4510:4560  IERC20(ERC20Address).balanceOf(uniswapPairAddress) */\n      mload(0x40)\n      dup3\n      0xffffffff\n      and\n      0xe0\n      shl\n      dup2\n      mstore\n      0x04\n      add\n      tag_191\n      swap2\n      swap1\n      tag_40\n      jump\t// in\n    tag_191:\n      0x20\n      mload(0x40)\n      dup1\n      dup4\n      sub\n      dup2\n      dup7\n      gas\n      staticcall\n      iszero\n      dup1\n      iszero\n      tag_193\n      jumpi\n      returndatasize\n      0x00\n      dup1\n      returndatacopy\n      revert(0x00, returndatasize)\n    tag_193:\n      pop\n      pop\n      pop\n      pop\n      mload(0x40)\n      returndatasize\n      not(0x1f)\n      0x1f\n      dup3\n      add\n      and\n      dup3\n      add\n      dup1\n      0x40\n      mstore\n      pop\n      dup2\n      add\n      swap1\n      tag_194\n      swap2\n      swap1\n      tag_125\n      jump\t// in\n    tag_194:\n        /* \"Hook.sol\":4495:4560  uint liquidity=IERC20(ERC20Address).balanceOf(uniswapPairAddress) */\n      swap1\n      pop\n        /* \"Hook.sol\":4654:4660  supply */\n      dup2\n        /* \"Hook.sol\":4649:4652  100 */\n      0x64\n        /* \"Hook.sol\":4639:4648  liquidity */\n      dup3\n        /* \"Hook.sol\":4639:4652  liquidity*100 */\n      tag_195\n      swap2\n      swap1\n      tag_132\n      jump\t// in\n    tag_195:\n        /* \"Hook.sol\":4638:4660  (liquidity*100)/supply */\n      tag_196\n      swap2\n      swap1\n      tag_134\n      jump\t// in\n    tag_196:\n        /* \"Hook.sol\":4631:4661  return((liquidity*100)/supply) */\n      swap3\n      pop\n      pop\n      pop\n        /* \"Hook.sol\":4182:4668  function percentLiquidity() public view returns (uint){... */\n      swap1\n      jump\t// out\n        /* \"Hook.sol\":11091:11204  function mintSomeTokens (uint tokens) public {... */\n    tag_113:\n        /* \"Hook.sol\":11155:11167  ERC20Address */\n      0x01\n      0x00\n      swap1\n      sload\n      swap1\n      0x0100\n      exp\n      swap1\n      div\n      0xffffffffffffffffffffffffffffffffffffffff\n      and\n        /* \"Hook.sol\":11146:11177  WethLike(ERC20Address).hookMint */\n      0xffffffffffffffffffffffffffffffffffffffff\n      and\n      0x96fe8349\n        /* \"Hook.sol\":11178:11184  tokens */\n      dup3\n        /* \"Hook.sol\":11186:11196  msg.sender */\n      caller\n        /* \"Hook.sol\":11146:11197  WethLike(ERC20Address).hookMint(tokens, msg.sender) */\n      mload(0x40)\n      dup4\n      0xffffffff\n      and\n      0xe0\n      shl\n      dup2\n      mstore\n      0x04\n      add\n      tag_198\n      swap3\n      swap2\n      swap1\n      tag_139\n      jump\t// in\n    tag_198:\n      0x00\n      mload(0x40)\n      dup1\n      dup4\n      sub\n      dup2\n      0x00\n      dup8\n      dup1\n      extcodesize\n      iszero\n      dup1\n      iszero\n      tag_199\n      jumpi\n      0x00\n      dup1\n      revert\n    tag_199:\n      pop\n      gas\n      call\n      iszero\n      dup1\n      iszero\n      tag_201\n      jumpi\n      returndatasize\n      0x00\n      dup1\n      returndatacopy\n      revert(0x00, returndatasize)\n    tag_201:\n      pop\n      pop\n      pop\n      pop\n        /* \"Hook.sol\":11091:11204  function mintSomeTokens (uint tokens) public {... */\n      pop\n      jump\t// out\n        /* \"Hook.sol\":3350:3710  function newTransaction (uint _receivedEth, address _newOwner) internal {... */\n    tag_116:\n        /* \"Hook.sol\":3432:3443  uint POAPId */\n      0x00\n        /* \"Hook.sol\":3446:3453  POAPIds */\n      0x0d\n        /* \"Hook.sol\":3446:3460  POAPIds.length */\n      dup1\n      sload\n      swap1\n      pop\n        /* \"Hook.sol\":3432:3460  uint POAPId = POAPIds.length */\n      swap1\n      pop\n        /* \"Hook.sol\":3470:3501  Transaction storage transaction */\n      0x00\n        /* \"Hook.sol\":3504:3525  transactionFromPOAPId */\n      0x0c\n        /* \"Hook.sol\":3504:3541  transactionFromPOAPId[POAPIds.length] */\n      0x00\n        /* \"Hook.sol\":3526:3533  POAPIds */\n      0x0d\n        /* \"Hook.sol\":3526:3540  POAPIds.length */\n      dup1\n      sload\n      swap1\n      pop\n        /* \"Hook.sol\":3504:3541  transactionFromPOAPId[POAPIds.length] */\n      dup2\n      mstore\n      0x20\n      add\n      swap1\n      dup2\n      mstore\n      0x20\n      add\n      0x00\n      keccak256\n        /* \"Hook.sol\":3470:3541  Transaction storage transaction = transactionFromPOAPId[POAPIds.length] */\n      swap1\n      pop\n        /* \"Hook.sol\":3572:3578  POAPId */\n      dup2\n        /* \"Hook.sol\":3551:3562  transaction */\n      dup2\n        /* \"Hook.sol\":3551:3569  transaction.POAPId */\n      0x00\n      add\n        /* \"Hook.sol\":3551:3578  transaction.POAPId = POAPId */\n      dup2\n      swap1\n      sstore\n      pop\n        /* \"Hook.sol\":3612:3621  _newOwner */\n      dup3\n        /* \"Hook.sol\":3588:3599  transaction */\n      dup2\n        /* \"Hook.sol\":3588:3609  transaction.purchaser */\n      0x01\n      add\n      0x00\n        /* \"Hook.sol\":3588:3621  transaction.purchaser = _newOwner */\n      0x0100\n      exp\n      dup2\n      sload\n      dup2\n      0xffffffffffffffffffffffffffffffffffffffff\n      mul\n      not\n      and\n      swap1\n      dup4\n      0xffffffffffffffffffffffffffffffffffffffff\n      and\n      mul\n      or\n      swap1\n      sstore\n      pop\n        /* \"Hook.sol\":3657:3669  _receivedEth */\n      dup4\n        /* \"Hook.sol\":3631:3642  transaction */\n      dup2\n        /* \"Hook.sol\":3631:3654  transaction.receivedEth */\n      0x02\n      add\n        /* \"Hook.sol\":3631:3669  transaction.receivedEth = _receivedEth */\n      dup2\n      swap1\n      sstore\n      pop\n        /* \"Hook.sol\":3679:3686  POAPIds */\n      0x0d\n        /* \"Hook.sol\":3692:3698  POAPId */\n      dup3\n        /* \"Hook.sol\":3679:3699  POAPIds.push(POAPId) */\n      swap1\n      dup1\n      0x01\n      dup2\n      sload\n      add\n      dup1\n      dup3\n      sstore\n      dup1\n      swap2\n      pop\n      pop\n      0x01\n      swap1\n      sub\n      swap1\n      0x00\n      mstore\n      keccak256(0x00, 0x20)\n      add\n      0x00\n      swap1\n      swap2\n      swap1\n      swap2\n      swap1\n      swap2\n      pop\n      sstore\n        /* \"Hook.sol\":3422:3710  {... */\n      pop\n      pop\n        /* \"Hook.sol\":3350:3710  function newTransaction (uint _receivedEth, address _newOwner) internal {... */\n      pop\n      pop\n      jump\t// out\n        /* \"Hook.sol\":9326:11085  function processETH() internal{... */\n    tag_118:\n        /* \"Hook.sol\":9366:9379  uint msgValue */\n      0x00\n        /* \"Hook.sol\":9382:9391  msg.value */\n      callvalue\n        /* \"Hook.sol\":9366:9391  uint msgValue = msg.value */\n      swap1\n      pop\n        /* \"Hook.sol\":9411:9412  0 */\n      0x00\n        /* \"Hook.sol\":9404:9410  buyEth */\n      sload(0x0f)\n        /* \"Hook.sol\":9404:9412  buyEth>0 */\n      gt\n        /* \"Hook.sol\":9401:9651  if(buyEth>0){... */\n      iszero\n      tag_205\n      jumpi\n        /* \"Hook.sol\":9427:9440  uint _balance */\n      0x00\n        /* \"Hook.sol\":9443:9464  address(this).balance */\n      selfbalance\n        /* \"Hook.sol\":9427:9464  uint _balance = address(this).balance */\n      swap1\n      pop\n        /* \"Hook.sol\":9478:9496  buyAndBurn(buyEth) */\n      tag_206\n        /* \"Hook.sol\":9489:9495  buyEth */\n      sload(0x0f)\n        /* \"Hook.sol\":9478:9488  buyAndBurn */\n      tag_207\n        /* \"Hook.sol\":9478:9496  buyAndBurn(buyEth) */\n      jump\t// in\n    tag_206:\n        /* \"Hook.sol\":9510:9526  uint _newBalance */\n      0x00\n        /* \"Hook.sol\":9529:9550  address(this).balance */\n      selfbalance\n        /* \"Hook.sol\":9510:9550  uint _newBalance = address(this).balance */\n      swap1\n      pop\n        /* \"Hook.sol\":9564:9580  uint _difference */\n      0x00\n        /* \"Hook.sol\":9594:9605  _newBalance */\n      dup2\n        /* \"Hook.sol\":9583:9591  _balance */\n      dup4\n        /* \"Hook.sol\":9583:9605  _balance - _newBalance */\n      tag_208\n      swap2\n      swap1\n      tag_137\n      jump\t// in\n    tag_208:\n        /* \"Hook.sol\":9564:9605  uint _difference = _balance - _newBalance */\n      swap1\n      pop\n        /* \"Hook.sol\":9629:9640  _difference */\n      dup1\n        /* \"Hook.sol\":9619:9625  buyEth */\n      0x0f\n      0x00\n        /* \"Hook.sol\":9619:9640  buyEth -= _difference */\n      dup3\n      dup3\n      sload\n      tag_209\n      swap2\n      swap1\n      tag_137\n      jump\t// in\n    tag_209:\n      swap3\n      pop\n      pop\n      dup2\n      swap1\n      sstore\n      pop\n        /* \"Hook.sol\":9413:9651  {... */\n      pop\n      pop\n      pop\n        /* \"Hook.sol\":9401:9651  if(buyEth>0){... */\n    tag_205:\n        /* \"Hook.sol\":9676:9677  0 */\n      0x00\n        /* \"Hook.sol\":9663:9675  liquidityEth */\n      sload(0x10)\n        /* \"Hook.sol\":9663:9677  liquidityEth>0 */\n      gt\n        /* \"Hook.sol\":9660:9934  if(liquidityEth>0){... */\n      iszero\n      tag_210\n      jumpi\n        /* \"Hook.sol\":9692:9705  uint _balance */\n      0x00\n        /* \"Hook.sol\":9708:9729  address(this).balance */\n      selfbalance\n        /* \"Hook.sol\":9692:9729  uint _balance = address(this).balance */\n      swap1\n      pop\n        /* \"Hook.sol\":9743:9773  provideLiquidity(liquidityEth) */\n      tag_211\n        /* \"Hook.sol\":9760:9772  liquidityEth */\n      sload(0x10)\n        /* \"Hook.sol\":9743:9759  provideLiquidity */\n      tag_212\n        /* \"Hook.sol\":9743:9773  provideLiquidity(liquidityEth) */\n      jump\t// in\n    tag_211:\n      pop\n        /* \"Hook.sol\":9787:9803  uint _newBalance */\n      0x00\n        /* \"Hook.sol\":9806:9827  address(this).balance */\n      selfbalance\n        /* \"Hook.sol\":9787:9827  uint _newBalance = address(this).balance */\n      swap1\n      pop\n        /* \"Hook.sol\":9841:9857  uint _difference */\n      0x00\n        /* \"Hook.sol\":9871:9882  _newBalance */\n      dup2\n        /* \"Hook.sol\":9860:9868  _balance */\n      dup4\n        /* \"Hook.sol\":9860:9882  _balance - _newBalance */\n      tag_213\n      swap2\n      swap1\n      tag_137\n      jump\t// in\n    tag_213:\n        /* \"Hook.sol\":9841:9882  uint _difference = _balance - _newBalance */\n      swap1\n      pop\n        /* \"Hook.sol\":9912:9923  _difference */\n      dup1\n        /* \"Hook.sol\":9896:9908  liquidityEth */\n      0x10\n      0x00\n        /* \"Hook.sol\":9896:9923  liquidityEth -= _difference */\n      dup3\n      dup3\n      sload\n      tag_214\n      swap2\n      swap1\n      tag_137\n      jump\t// in\n    tag_214:\n      swap3\n      pop\n      pop\n      dup2\n      swap1\n      sstore\n      pop\n        /* \"Hook.sol\":9678:9934  {... */\n      pop\n      pop\n      pop\n        /* \"Hook.sol\":9660:9934  if(liquidityEth>0){... */\n    tag_210:\n        /* \"Hook.sol\":9947:9969  address previousHolder */\n      0x00\n        /* \"Hook.sol\":9972:9993  transactionFromPOAPId */\n      0x0c\n        /* \"Hook.sol\":9972:10012  transactionFromPOAPId[POAPIds.length -1] */\n      0x00\n        /* \"Hook.sol\":10010:10011  1 */\n      0x01\n        /* \"Hook.sol\":9994:10001  POAPIds */\n      0x0d\n        /* \"Hook.sol\":9994:10008  POAPIds.length */\n      dup1\n      sload\n      swap1\n      pop\n        /* \"Hook.sol\":9994:10011  POAPIds.length -1 */\n      tag_215\n      swap2\n      swap1\n      tag_137\n      jump\t// in\n    tag_215:\n        /* \"Hook.sol\":9972:10012  transactionFromPOAPId[POAPIds.length -1] */\n      dup2\n      mstore\n      0x20\n      add\n      swap1\n      dup2\n      mstore\n      0x20\n      add\n      0x00\n      keccak256\n        /* \"Hook.sol\":9972:10022  transactionFromPOAPId[POAPIds.length -1].purchaser */\n      0x01\n      add\n      0x00\n      swap1\n      sload\n      swap1\n      0x0100\n      exp\n      swap1\n      div\n      0xffffffffffffffffffffffffffffffffffffffff\n      and\n        /* \"Hook.sol\":9947:10022  address previousHolder = transactionFromPOAPId[POAPIds.length -1].purchaser */\n      swap1\n      pop\n        /* \"Hook.sol\":10036:10073  erc20ToPreviousHolder(previousHolder) */\n      tag_216\n        /* \"Hook.sol\":10058:10072  previousHolder */\n      dup2\n        /* \"Hook.sol\":10036:10057  erc20ToPreviousHolder */\n      tag_217\n        /* \"Hook.sol\":10036:10073  erc20ToPreviousHolder(previousHolder) */\n      jump\t// in\n    tag_216:\n        /* \"Hook.sol\":10087:10091  POAP */\n      0x08\n      0x00\n      swap1\n      sload\n      swap1\n      0x0100\n      exp\n      swap1\n      div\n      0xffffffffffffffffffffffffffffffffffffffff\n      and\n        /* \"Hook.sol\":10087:10096  POAP.mint */\n      0xffffffffffffffffffffffffffffffffffffffff\n      and\n      0x6a627842\n        /* \"Hook.sol\":10097:10111  previousHolder */\n      dup3\n        /* \"Hook.sol\":10087:10112  POAP.mint(previousHolder) */\n      mload(0x40)\n      dup3\n      0xffffffff\n      and\n      0xe0\n      shl\n      dup2\n      mstore\n      0x04\n      add\n      tag_218\n      swap2\n      swap1\n      tag_40\n      jump\t// in\n    tag_218:\n      0x00\n      mload(0x40)\n      dup1\n      dup4\n      sub\n      dup2\n      0x00\n      dup8\n      dup1\n      extcodesize\n      iszero\n      dup1\n      iszero\n      tag_219\n      jumpi\n      0x00\n      dup1\n      revert\n    tag_219:\n      pop\n      gas\n      call\n      iszero\n      dup1\n      iszero\n      tag_221\n      jumpi\n      returndatasize\n      0x00\n      dup1\n      returndatacopy\n      revert(0x00, returndatasize)\n    tag_221:\n      pop\n      pop\n      pop\n      pop\n        /* \"Hook.sol\":10122:10144  uint _percentLiquidity */\n      0x00\n        /* \"Hook.sol\":10147:10165  percentLiquidity() */\n      tag_222\n        /* \"Hook.sol\":10147:10163  percentLiquidity */\n      tag_108\n        /* \"Hook.sol\":10147:10165  percentLiquidity() */\n      jump\t// in\n    tag_222:\n        /* \"Hook.sol\":10122:10165  uint _percentLiquidity = percentLiquidity() */\n      swap1\n      pop\n        /* \"Hook.sol\":10180:10205  Log('previous Holder is') */\n      0xcf34ef537ac33ee1ac626ca1587a0a7e8e51561e5514f8cb36afa1c5102b3bab\n      mload(0x40)\n      tag_223\n      swap1\n      tag_224\n      jump\t// in\n    tag_223:\n      mload(0x40)\n      dup1\n      swap2\n      sub\n      swap1\n      log1\n        /* \"Hook.sol\":10220:10239  Log(previousHolder) */\n      0xb8a00d6d8ca1be30bfec34d8f97e55f0f0fd9eeb7fb46e030516363d4cfe1ad6\n        /* \"Hook.sol\":10224:10238  previousHolder */\n      dup3\n        /* \"Hook.sol\":10220:10239  Log(previousHolder) */\n      mload(0x40)\n      tag_225\n      swap2\n      swap1\n      tag_40\n      jump\t// in\n    tag_225:\n      mload(0x40)\n      dup1\n      swap2\n      sub\n      swap1\n      log1\n        /* \"Hook.sol\":10254:10286  Log('current liquidity percent') */\n      0xcf34ef537ac33ee1ac626ca1587a0a7e8e51561e5514f8cb36afa1c5102b3bab\n      mload(0x40)\n      tag_226\n      swap1\n      tag_227\n      jump\t// in\n    tag_226:\n      mload(0x40)\n      dup1\n      swap2\n      sub\n      swap1\n      log1\n        /* \"Hook.sol\":10301:10323  Log(_percentLiquidity) */\n      0x909c57d5c6ac08245cf2a6de3900e2b868513fa59099b92b27d8db823d92df9c\n        /* \"Hook.sol\":10305:10322  _percentLiquidity */\n      dup2\n        /* \"Hook.sol\":10301:10323  Log(_percentLiquidity) */\n      mload(0x40)\n      tag_228\n      swap2\n      swap1\n      tag_52\n      jump\t// in\n    tag_228:\n      mload(0x40)\n      dup1\n      swap2\n      sub\n      swap1\n      log1\n        /* \"Hook.sol\":10403:10405  20 */\n      0x14\n        /* \"Hook.sol\":10385:10402  _percentLiquidity */\n      dup2\n        /* \"Hook.sol\":10385:10405  _percentLiquidity>20 */\n      gt\n        /* \"Hook.sol\":10382:11079  if(_percentLiquidity>20){... */\n      iszero\n      tag_229\n      jumpi\n        /* \"Hook.sol\":10420:10433  uint _balance */\n      0x00\n        /* \"Hook.sol\":10436:10457  address(this).balance */\n      selfbalance\n        /* \"Hook.sol\":10420:10457  uint _balance = address(this).balance */\n      swap1\n      pop\n        /* \"Hook.sol\":10471:10492  buyAndBurn(msg.value) */\n      tag_230\n        /* \"Hook.sol\":10482:10491  msg.value */\n      callvalue\n        /* \"Hook.sol\":10471:10481  buyAndBurn */\n      tag_207\n        /* \"Hook.sol\":10471:10492  buyAndBurn(msg.value) */\n      jump\t// in\n    tag_230:\n        /* \"Hook.sol\":10506:10522  uint _newBalance */\n      0x00\n        /* \"Hook.sol\":10525:10546  address(this).balance */\n      selfbalance\n        /* \"Hook.sol\":10506:10546  uint _newBalance = address(this).balance */\n      swap1\n      pop\n        /* \"Hook.sol\":10560:10576  uint _difference */\n      0x00\n        /* \"Hook.sol\":10590:10601  _newBalance */\n      dup2\n        /* \"Hook.sol\":10579:10587  _balance */\n      dup4\n        /* \"Hook.sol\":10579:10601  _balance - _newBalance */\n      tag_231\n      swap2\n      swap1\n      tag_137\n      jump\t// in\n    tag_231:\n        /* \"Hook.sol\":10560:10601  uint _difference = _balance - _newBalance */\n      swap1\n      pop\n        /* \"Hook.sol\":10615:10643  uint _amountLeftFromMsgValue */\n      0x00\n        /* \"Hook.sol\":10657:10668  _difference */\n      dup2\n        /* \"Hook.sol\":10646:10654  msgValue */\n      dup8\n        /* \"Hook.sol\":10646:10668  msgValue - _difference */\n      tag_232\n      swap2\n      swap1\n      tag_137\n      jump\t// in\n    tag_232:\n        /* \"Hook.sol\":10615:10668  uint _amountLeftFromMsgValue = msgValue - _difference */\n      swap1\n      pop\n        /* \"Hook.sol\":10692:10715  _amountLeftFromMsgValue */\n      dup1\n        /* \"Hook.sol\":10682:10688  buyEth */\n      0x0f\n      0x00\n        /* \"Hook.sol\":10682:10715  buyEth += _amountLeftFromMsgValue */\n      dup3\n      dup3\n      sload\n      tag_233\n      swap2\n      swap1\n      tag_234\n      jump\t// in\n    tag_233:\n      swap3\n      pop\n      pop\n      dup2\n      swap1\n      sstore\n      pop\n        /* \"Hook.sol\":10406:10727  {... */\n      pop\n      pop\n      pop\n      pop\n        /* \"Hook.sol\":10382:11079  if(_percentLiquidity>20){... */\n      jump(tag_235)\n    tag_229:\n        /* \"Hook.sol\":10747:10760  uint _balance */\n      0x00\n        /* \"Hook.sol\":10763:10784  address(this).balance */\n      selfbalance\n        /* \"Hook.sol\":10747:10784  uint _balance = address(this).balance */\n      swap1\n      pop\n        /* \"Hook.sol\":10798:10838  provideLiquidity(liquidityEth+msg.value) */\n      tag_236\n        /* \"Hook.sol\":10828:10837  msg.value */\n      callvalue\n        /* \"Hook.sol\":10815:10827  liquidityEth */\n      sload(0x10)\n        /* \"Hook.sol\":10815:10837  liquidityEth+msg.value */\n      tag_237\n      swap2\n      swap1\n      tag_234\n      jump\t// in\n    tag_237:\n        /* \"Hook.sol\":10798:10814  provideLiquidity */\n      tag_212\n        /* \"Hook.sol\":10798:10838  provideLiquidity(liquidityEth+msg.value) */\n      jump\t// in\n    tag_236:\n      pop\n        /* \"Hook.sol\":10852:10868  uint _newBalance */\n      0x00\n        /* \"Hook.sol\":10871:10892  address(this).balance */\n      selfbalance\n        /* \"Hook.sol\":10852:10892  uint _newBalance = address(this).balance */\n      swap1\n      pop\n        /* \"Hook.sol\":10906:10922  uint _difference */\n      0x00\n        /* \"Hook.sol\":10936:10947  _newBalance */\n      dup2\n        /* \"Hook.sol\":10925:10933  _balance */\n      dup4\n        /* \"Hook.sol\":10925:10947  _balance - _newBalance */\n      tag_238\n      swap2\n      swap1\n      tag_137\n      jump\t// in\n    tag_238:\n        /* \"Hook.sol\":10906:10947  uint _difference = _balance - _newBalance */\n      swap1\n      pop\n        /* \"Hook.sol\":10961:10989  uint _amountLeftFromMsgValue */\n      0x00\n        /* \"Hook.sol\":11003:11014  _difference */\n      dup2\n        /* \"Hook.sol\":10992:11000  msgValue */\n      dup8\n        /* \"Hook.sol\":10992:11014  msgValue - _difference */\n      tag_239\n      swap2\n      swap1\n      tag_137\n      jump\t// in\n    tag_239:\n        /* \"Hook.sol\":10961:11014  uint _amountLeftFromMsgValue = msgValue - _difference */\n      swap1\n      pop\n        /* \"Hook.sol\":11044:11067  _amountLeftFromMsgValue */\n      dup1\n        /* \"Hook.sol\":11028:11040  liquidityEth */\n      0x10\n      0x00\n        /* \"Hook.sol\":11028:11067  liquidityEth += _amountLeftFromMsgValue */\n      dup3\n      dup3\n      sload\n      tag_240\n      swap2\n      swap1\n      tag_234\n      jump\t// in\n    tag_240:\n      swap3\n      pop\n      pop\n      dup2\n      swap1\n      sstore\n      pop\n        /* \"Hook.sol\":10733:11079  {... */\n      pop\n      pop\n      pop\n      pop\n        /* \"Hook.sol\":10382:11079  if(_percentLiquidity>20){... */\n    tag_235:\n        /* \"Hook.sol\":9356:11085  {... */\n      pop\n      pop\n      pop\n        /* \"Hook.sol\":9326:11085  function processETH() internal{... */\n      jump\t// out\n        /* \"Hook.sol\":8354:8623  function buyAndBurn(uint _buyEth) internal{... */\n    tag_207:\n        /* \"Hook.sol\":8406:8417  uint tokens */\n      0x00\n        /* \"Hook.sol\":8420:8438  buyTokens(_buyEth) */\n      tag_242\n        /* \"Hook.sol\":8430:8437  _buyEth */\n      dup3\n        /* \"Hook.sol\":8420:8429  buyTokens */\n      tag_243\n        /* \"Hook.sol\":8420:8438  buyTokens(_buyEth) */\n      jump\t// in\n    tag_242:\n        /* \"Hook.sol\":8406:8438  uint tokens = buyTokens(_buyEth) */\n      swap1\n      pop\n        /* \"Hook.sol\":8461:8473  ERC20Address */\n      0x01\n      0x00\n      swap1\n      sload\n      swap1\n      0x0100\n      exp\n      swap1\n      div\n      0xffffffffffffffffffffffffffffffffffffffff\n      and\n        /* \"Hook.sol\":8452:8479  WethLike(ERC20Address).burn */\n      0xffffffffffffffffffffffffffffffffffffffff\n      and\n      0x42966c68\n        /* \"Hook.sol\":8480:8486  tokens */\n      dup3\n        /* \"Hook.sol\":8452:8487  WethLike(ERC20Address).burn(tokens) */\n      mload(0x40)\n      dup3\n      0xffffffff\n      and\n      0xe0\n      shl\n      dup2\n      mstore\n      0x04\n      add\n      tag_244\n      swap2\n      swap1\n      tag_52\n      jump\t// in\n    tag_244:\n      0x00\n      mload(0x40)\n      dup1\n      dup4\n      sub\n      dup2\n      0x00\n      dup8\n      dup1\n      extcodesize\n      iszero\n      dup1\n      iszero\n      tag_245\n      jumpi\n      0x00\n      dup1\n      revert\n    tag_245:\n      pop\n      gas\n      call\n      swap3\n      pop\n      pop\n      pop\n      dup1\n      iszero\n      tag_246\n      jumpi\n      pop\n      0x01\n    tag_246:\n        /* \"Hook.sol\":8448:8617  try WethLike(ERC20Address).burn(tokens){... */\n      tag_247\n      jumpi\n        /* \"Hook.sol\":8579:8606  Log('tokens cant be burnt') */\n      0xcf34ef537ac33ee1ac626ca1587a0a7e8e51561e5514f8cb36afa1c5102b3bab\n      mload(0x40)\n      tag_251\n      swap1\n      tag_252\n      jump\t// in\n    tag_251:\n      mload(0x40)\n      dup1\n      swap2\n      sub\n      swap1\n      log1\n        /* \"Hook.sol\":8448:8617  try WethLike(ERC20Address).burn(tokens){... */\n      jump(tag_253)\n    tag_247:\n        /* \"Hook.sol\":8506:8535  Log('tokens have been burnt') */\n      0xcf34ef537ac33ee1ac626ca1587a0a7e8e51561e5514f8cb36afa1c5102b3bab\n      mload(0x40)\n      tag_254\n      swap1\n      tag_255\n      jump\t// in\n    tag_254:\n      mload(0x40)\n      dup1\n      swap2\n      sub\n      swap1\n      log1\n        /* \"Hook.sol\":8448:8617  try WethLike(ERC20Address).burn(tokens){... */\n    tag_253:\n        /* \"Hook.sol\":8396:8623  {... */\n      pop\n        /* \"Hook.sol\":8354:8623  function buyAndBurn(uint _buyEth) internal{... */\n      pop\n      jump\t// out\n        /* \"Hook.sol\":5963:7237  function provideLiquidity(uint _liquidityEth) internal returns (uint){... */\n    tag_212:\n        /* \"Hook.sol\":6027:6031  uint */\n      0x00\n        /* \"Hook.sol\":6051:6078  uint ERC20LiquidityProvided */\n      dup1\n        /* \"Hook.sol\":6158:6182  uint currentERC20Balance */\n      0x00\n        /* \"Hook.sol\":6192:6204  ERC20Address */\n      0x01\n      0x00\n      swap1\n      sload\n      swap1\n      0x0100\n      exp\n      swap1\n      div\n      0xffffffffffffffffffffffffffffffffffffffff\n      and\n        /* \"Hook.sol\":6185:6215  IERC20(ERC20Address).balanceOf */\n      0xffffffffffffffffffffffffffffffffffffffff\n      and\n      0x70a08231\n        /* \"Hook.sol\":6224:6228  this */\n      address\n        /* \"Hook.sol\":6185:6230  IERC20(ERC20Address).balanceOf(address(this)) */\n      mload(0x40)\n      dup3\n      0xffffffff\n      and\n      0xe0\n      shl\n      dup2\n      mstore\n      0x04\n      add\n      tag_257\n      swap2\n      swap1\n      tag_40\n      jump\t// in\n    tag_257:\n      0x20\n      mload(0x40)\n      dup1\n      dup4\n      sub\n      dup2\n      dup7\n      gas\n      staticcall\n      iszero\n      dup1\n      iszero\n      tag_259\n      jumpi\n      returndatasize\n      0x00\n      dup1\n      returndatacopy\n      revert(0x00, returndatasize)\n    tag_259:\n      pop\n      pop\n      pop\n      pop\n      mload(0x40)\n      returndatasize\n      not(0x1f)\n      0x1f\n      dup3\n      add\n      and\n      dup3\n      add\n      dup1\n      0x40\n      mstore\n      pop\n      dup2\n      add\n      swap1\n      tag_260\n      swap2\n      swap1\n      tag_125\n      jump\t// in\n    tag_260:\n        /* \"Hook.sol\":6158:6230  uint currentERC20Balance = IERC20(ERC20Address).balanceOf(address(this)) */\n      swap1\n      pop\n        /* \"Hook.sol\":6313:6330  uint tokensToSend */\n      0x00\n        /* \"Hook.sol\":6389:6392  100 */\n      0x64\n        /* \"Hook.sol\":6383:6386  105 */\n      0x69\n        /* \"Hook.sol\":6333:6339  Oracle */\n      0x0a\n      0x00\n      swap1\n      sload\n      swap1\n      0x0100\n      exp\n      swap1\n      div\n      0xffffffffffffffffffffffffffffffffffffffff\n      and\n        /* \"Hook.sol\":6333:6353  Oracle.consultPrices */\n      0xffffffffffffffffffffffffffffffffffffffff\n      and\n      0x3ac35585\n        /* \"Hook.sol\":6354:6365  WethAddress */\n      0x00\n      dup1\n      sload\n      swap1\n      0x0100\n      exp\n      swap1\n      div\n      0xffffffffffffffffffffffffffffffffffffffff\n      and\n        /* \"Hook.sol\":6367:6380  _liquidityEth */\n      dup10\n        /* \"Hook.sol\":6333:6381  Oracle.consultPrices(WethAddress, _liquidityEth) */\n      mload(0x40)\n      dup4\n      0xffffffff\n      and\n      0xe0\n      shl\n      dup2\n      mstore\n      0x04\n      add\n      tag_261\n      swap3\n      swap2\n      swap1\n      tag_127\n      jump\t// in\n    tag_261:\n      0x20\n      mload(0x40)\n      dup1\n      dup4\n      sub\n      dup2\n      dup7\n      gas\n      staticcall\n      iszero\n      dup1\n      iszero\n      tag_263\n      jumpi\n      returndatasize\n      0x00\n      dup1\n      returndatacopy\n      revert(0x00, returndatasize)\n    tag_263:\n      pop\n      pop\n      pop\n      pop\n      mload(0x40)\n      returndatasize\n      not(0x1f)\n      0x1f\n      dup3\n      add\n      and\n      dup3\n      add\n      dup1\n      0x40\n      mstore\n      pop\n      dup2\n      add\n      swap1\n      tag_264\n      swap2\n      swap1\n      tag_125\n      jump\t// in\n    tag_264:\n        /* \"Hook.sol\":6333:6386  Oracle.consultPrices(WethAddress, _liquidityEth)* 105 */\n      tag_265\n      swap2\n      swap1\n      tag_132\n      jump\t// in\n    tag_265:\n        /* \"Hook.sol\":6333:6392  Oracle.consultPrices(WethAddress, _liquidityEth)* 105 / 100 */\n      tag_266\n      swap2\n      swap1\n      tag_134\n      jump\t// in\n    tag_266:\n        /* \"Hook.sol\":6313:6392  uint tokensToSend = Oracle.consultPrices(WethAddress, _liquidityEth)* 105 / 100 */\n      swap1\n      pop\n        /* \"Hook.sol\":6514:6533  currentERC20Balance */\n      dup2\n        /* \"Hook.sol\":6499:6511  tokensToSend */\n      dup2\n        /* \"Hook.sol\":6499:6533  tokensToSend > currentERC20Balance */\n      gt\n        /* \"Hook.sol\":6496:6719  if(tokensToSend > currentERC20Balance){... */\n      iszero\n      tag_267\n      jumpi\n        /* \"Hook.sol\":6557:6569  ERC20Address */\n      0x01\n      0x00\n      swap1\n      sload\n      swap1\n      0x0100\n      exp\n      swap1\n      div\n      0xffffffffffffffffffffffffffffffffffffffff\n      and\n        /* \"Hook.sol\":6548:6579  WethLike(ERC20Address).hookMint */\n      0xffffffffffffffffffffffffffffffffffffffff\n      and\n      0x96fe8349\n        /* \"Hook.sol\":6593:6612  currentERC20Balance */\n      dup4\n        /* \"Hook.sol\":6580:6592  tokensToSend */\n      dup4\n        /* \"Hook.sol\":6580:6612  tokensToSend-currentERC20Balance */\n      tag_268\n      swap2\n      swap1\n      tag_137\n      jump\t// in\n    tag_268:\n        /* \"Hook.sol\":6621:6625  this */\n      address\n        /* \"Hook.sol\":6548:6627  WethLike(ERC20Address).hookMint(tokensToSend-currentERC20Balance,address(this)) */\n      mload(0x40)\n      dup4\n      0xffffffff\n      and\n      0xe0\n      shl\n      dup2\n      mstore\n      0x04\n      add\n      tag_269\n      swap3\n      swap2\n      swap1\n      tag_139\n      jump\t// in\n    tag_269:\n      0x00\n      mload(0x40)\n      dup1\n      dup4\n      sub\n      dup2\n      0x00\n      dup8\n      dup1\n      extcodesize\n      iszero\n      dup1\n      iszero\n      tag_270\n      jumpi\n      0x00\n      dup1\n      revert\n    tag_270:\n      pop\n      gas\n      call\n      iszero\n      dup1\n      iszero\n      tag_272\n      jumpi\n      returndatasize\n      0x00\n      dup1\n      returndatacopy\n      revert(0x00, returndatasize)\n    tag_272:\n      pop\n      pop\n      pop\n      pop\n        /* \"Hook.sol\":6670:6682  ERC20Address */\n      0x01\n      0x00\n      swap1\n      sload\n      swap1\n      0x0100\n      exp\n      swap1\n      div\n      0xffffffffffffffffffffffffffffffffffffffff\n      and\n        /* \"Hook.sol\":6663:6693  IERC20(ERC20Address).balanceOf */\n      0xffffffffffffffffffffffffffffffffffffffff\n      and\n      0x70a08231\n        /* \"Hook.sol\":6702:6706  this */\n      address\n        /* \"Hook.sol\":6663:6708  IERC20(ERC20Address).balanceOf(address(this)) */\n      mload(0x40)\n      dup3\n      0xffffffff\n      and\n      0xe0\n      shl\n      dup2\n      mstore\n      0x04\n      add\n      tag_273\n      swap2\n      swap1\n      tag_40\n      jump\t// in\n    tag_273:\n      0x20\n      mload(0x40)\n      dup1\n      dup4\n      sub\n      dup2\n      dup7\n      gas\n      staticcall\n      iszero\n      dup1\n      iszero\n      tag_275\n      jumpi\n      returndatasize\n      0x00\n      dup1\n      returndatacopy\n      revert(0x00, returndatasize)\n    tag_275:\n      pop\n      pop\n      pop\n      pop\n      mload(0x40)\n      returndatasize\n      not(0x1f)\n      0x1f\n      dup3\n      add\n      and\n      dup3\n      add\n      dup1\n      0x40\n      mstore\n      pop\n      dup2\n      add\n      swap1\n      tag_276\n      swap2\n      swap1\n      tag_125\n      jump\t// in\n    tag_276:\n        /* \"Hook.sol\":6641:6708  currentERC20Balance = IERC20(ERC20Address).balanceOf(address(this)) */\n      swap2\n      pop\n        /* \"Hook.sol\":6496:6719  if(tokensToSend > currentERC20Balance){... */\n    tag_267:\n        /* \"Hook.sol\":6791:6804  UniswapRouter */\n      0x0b\n      0x00\n      swap1\n      sload\n      swap1\n      0x0100\n      exp\n      swap1\n      div\n      0xffffffffffffffffffffffffffffffffffffffff\n      and\n        /* \"Hook.sol\":6791:6820  UniswapRouter.addLiquidityETH */\n      0xffffffffffffffffffffffffffffffffffffffff\n      and\n      0xf305d719\n        /* \"Hook.sol\":6829:6842  _liquidityEth */\n      dup7\n        /* \"Hook.sol\":6853:6857  this */\n      address\n        /* \"Hook.sol\":6860:6872  tokensToSend */\n      dup5\n        /* \"Hook.sol\":6874:6875  0 */\n      0x00\n        /* \"Hook.sol\":6898:6901  100 */\n      0x64\n        /* \"Hook.sol\":6894:6896  95 */\n      0x5f\n        /* \"Hook.sol\":6878:6891  _liquidityEth */\n      dup13\n        /* \"Hook.sol\":6878:6896  _liquidityEth * 95 */\n      tag_277\n      swap2\n      swap1\n      tag_132\n      jump\t// in\n    tag_277:\n        /* \"Hook.sol\":6877:6901  (_liquidityEth * 95)/100 */\n      tag_278\n      swap2\n      swap1\n      tag_134\n      jump\t// in\n    tag_278:\n        /* \"Hook.sol\":6911:6915  this */\n      address\n        /* \"Hook.sol\":6918:6932  type(uint).max */\n      0xffffffffffffffffffffffffffffffffffffffffffffffffffffffffffffffff\n        /* \"Hook.sol\":6791:6933  UniswapRouter.addLiquidityETH {value: _liquidityEth} (address(this), tokensToSend, 0, (_liquidityEth * 95)/100, address(this), type(uint).max) */\n      mload(0x40)\n      dup9\n      0xffffffff\n      and\n      0xe0\n      shl\n      dup2\n      mstore\n      0x04\n      add\n      tag_279\n      swap7\n      swap6\n      swap5\n      swap4\n      swap3\n      swap2\n      swap1\n      tag_150\n      jump\t// in\n    tag_279:\n      0x60\n      mload(0x40)\n      dup1\n      dup4\n      sub\n      dup2\n      dup6\n      dup9\n      gas\n      call\n      swap4\n      pop\n      pop\n      pop\n      pop\n      dup1\n      iszero\n      tag_280\n      jumpi\n      pop\n      mload(0x40)\n      returndatasize\n      not(0x1f)\n      0x1f\n      dup3\n      add\n      and\n      dup3\n      add\n      dup1\n      0x40\n      mstore\n      pop\n      dup2\n      add\n      swap1\n      tag_281\n      swap2\n      swap1\n      tag_153\n      jump\t// in\n    tag_281:\n      0x01\n    tag_280:\n        /* \"Hook.sol\":6787:7190  try UniswapRouter.addLiquidityETH {value: _liquidityEth} (address(this), tokensToSend, 0, (_liquidityEth * 95)/100, address(this), type(uint).max)... */\n      tag_282\n      jumpi\n        /* \"Hook.sol\":7150:7179  Log(\"Liquidity Not Provided\") */\n      0xcf34ef537ac33ee1ac626ca1587a0a7e8e51561e5514f8cb36afa1c5102b3bab\n      mload(0x40)\n      tag_286\n      swap1\n      tag_159\n      jump\t// in\n    tag_286:\n      mload(0x40)\n      dup1\n      swap2\n      sub\n      swap1\n      log1\n        /* \"Hook.sol\":6787:7190  try UniswapRouter.addLiquidityETH {value: _liquidityEth} (address(this), tokensToSend, 0, (_liquidityEth * 95)/100, address(this), type(uint).max)... */\n      jump(tag_287)\n    tag_282:\n      pop\n      pop\n      pop\n        /* \"Hook.sol\":6961:6999  Log(\"liquidity Successfully Provided\") */\n      0xcf34ef537ac33ee1ac626ca1587a0a7e8e51561e5514f8cb36afa1c5102b3bab\n      mload(0x40)\n      tag_288\n      swap1\n      tag_162\n      jump\t// in\n    tag_288:\n      mload(0x40)\n      dup1\n      swap2\n      sub\n      swap1\n      log1\n        /* \"Hook.sol\":7067:7079  ERC20Address */\n      0x01\n      0x00\n      swap1\n      sload\n      swap1\n      0x0100\n      exp\n      swap1\n      div\n      0xffffffffffffffffffffffffffffffffffffffff\n      and\n        /* \"Hook.sol\":7060:7090  IERC20(ERC20Address).balanceOf */\n      0xffffffffffffffffffffffffffffffffffffffff\n      and\n      0x70a08231\n        /* \"Hook.sol\":7099:7103  this */\n      address\n        /* \"Hook.sol\":7060:7105  IERC20(ERC20Address).balanceOf(address(this)) */\n      mload(0x40)\n      dup3\n      0xffffffff\n      and\n      0xe0\n      shl\n      dup2\n      mstore\n      0x04\n      add\n      tag_289\n      swap2\n      swap1\n      tag_40\n      jump\t// in\n    tag_289:\n      0x20\n      mload(0x40)\n      dup1\n      dup4\n      sub\n      dup2\n      dup7\n      gas\n      staticcall\n      iszero\n      dup1\n      iszero\n      tag_291\n      jumpi\n      returndatasize\n      0x00\n      dup1\n      returndatacopy\n      revert(0x00, returndatasize)\n    tag_291:\n      pop\n      pop\n      pop\n      pop\n      mload(0x40)\n      returndatasize\n      not(0x1f)\n      0x1f\n      dup3\n      add\n      and\n      dup3\n      add\n      dup1\n      0x40\n      mstore\n      pop\n      dup2\n      add\n      swap1\n      tag_292\n      swap2\n      swap1\n      tag_125\n      jump\t// in\n    tag_292:\n        /* \"Hook.sol\":7038:7057  currentERC20Balance */\n      dup3\n        /* \"Hook.sol\":7038:7105  currentERC20Balance - IERC20(ERC20Address).balanceOf(address(this)) */\n      tag_293\n      swap2\n      swap1\n      tag_137\n      jump\t// in\n    tag_293:\n        /* \"Hook.sol\":7013:7105  ERC20LiquidityProvided = currentERC20Balance - IERC20(ERC20Address).balanceOf(address(this)) */\n      swap3\n      pop\n        /* \"Hook.sol\":6787:7190  try UniswapRouter.addLiquidityETH {value: _liquidityEth} (address(this), tokensToSend, 0, (_liquidityEth * 95)/100, address(this), type(uint).max)... */\n    tag_287:\n        /* \"Hook.sol\":7207:7229  ERC20LiquidityProvided */\n      dup3\n        /* \"Hook.sol\":7199:7230  return (ERC20LiquidityProvided) */\n      swap4\n      pop\n      pop\n      pop\n      pop\n        /* \"Hook.sol\":5963:7237  function provideLiquidity(uint _liquidityEth) internal returns (uint){... */\n      swap2\n      swap1\n      pop\n      jump\t// out\n        /* \"Hook.sol\":8629:9320  function erc20ToPreviousHolder(address previousHolder) internal{... */\n    tag_217:\n        /* \"Hook.sol\":8702:8716  uint ethAmount */\n      0x00\n        /* \"Hook.sol\":8719:8740  transactionFromPOAPId */\n      0x0c\n        /* \"Hook.sol\":8719:8760  transactionFromPOAPId[POAPIds.length - 1] */\n      0x00\n        /* \"Hook.sol\":8758:8759  1 */\n      0x01\n        /* \"Hook.sol\":8741:8748  POAPIds */\n      0x0d\n        /* \"Hook.sol\":8741:8755  POAPIds.length */\n      dup1\n      sload\n      swap1\n      pop\n        /* \"Hook.sol\":8741:8759  POAPIds.length - 1 */\n      tag_295\n      swap2\n      swap1\n      tag_137\n      jump\t// in\n    tag_295:\n        /* \"Hook.sol\":8719:8760  transactionFromPOAPId[POAPIds.length - 1] */\n      dup2\n      mstore\n      0x20\n      add\n      swap1\n      dup2\n      mstore\n      0x20\n      add\n      0x00\n      keccak256\n        /* \"Hook.sol\":8719:8772  transactionFromPOAPId[POAPIds.length - 1].receivedEth */\n      0x02\n      add\n      sload\n        /* \"Hook.sol\":8702:8772  uint ethAmount = transactionFromPOAPId[POAPIds.length - 1].receivedEth */\n      swap1\n      pop\n        /* \"Hook.sol\":8798:8799  0 */\n      0x00\n        /* \"Hook.sol\":8785:8794  ethAmount */\n      dup2\n        /* \"Hook.sol\":8785:8799  ethAmount == 0 */\n      sub\n        /* \"Hook.sol\":8782:9314  if(ethAmount == 0){}else{... */\n      iszero\n      tag_297\n      jumpi\n        /* \"Hook.sol\":8825:8831  Oracle */\n      0x0a\n      0x00\n      swap1\n      sload\n      swap1\n      0x0100\n      exp\n      swap1\n      div\n      0xffffffffffffffffffffffffffffffffffffffff\n      and\n        /* \"Hook.sol\":8825:8845  Oracle.consultPrices */\n      0xffffffffffffffffffffffffffffffffffffffff\n      and\n      0x3ac35585\n        /* \"Hook.sol\":8846:8857  WethAddress */\n      0x00\n      dup1\n      sload\n      swap1\n      0x0100\n      exp\n      swap1\n      div\n      0xffffffffffffffffffffffffffffffffffffffff\n      and\n        /* \"Hook.sol\":8858:8867  ethAmount */\n      dup4\n        /* \"Hook.sol\":8825:8868  Oracle.consultPrices(WethAddress,ethAmount) */\n      mload(0x40)\n      dup4\n      0xffffffff\n      and\n      0xe0\n      shl\n      dup2\n      mstore\n      0x04\n      add\n      tag_298\n      swap3\n      swap2\n      swap1\n      tag_127\n      jump\t// in\n    tag_298:\n      0x20\n      mload(0x40)\n      dup1\n      dup4\n      sub\n      dup2\n      dup7\n      gas\n      staticcall\n      swap3\n      pop\n      pop\n      pop\n      dup1\n      iszero\n      tag_299\n      jumpi\n      pop\n      mload(0x40)\n      returndatasize\n      not(0x1f)\n      0x1f\n      dup3\n      add\n      and\n      dup3\n      add\n      dup1\n      0x40\n      mstore\n      pop\n      dup2\n      add\n      swap1\n      tag_300\n      swap2\n      swap1\n      tag_125\n      jump\t// in\n    tag_300:\n      0x01\n    tag_299:\n        /* \"Hook.sol\":8820:9304  try  Oracle.consultPrices(WethAddress,ethAmount){... */\n      tag_301\n      jumpi\n        /* \"Hook.sol\":9252:9289  Log ('price cant be got from Oracle') */\n      0xcf34ef537ac33ee1ac626ca1587a0a7e8e51561e5514f8cb36afa1c5102b3bab\n      mload(0x40)\n      tag_305\n      swap1\n      tag_306\n      jump\t// in\n    tag_305:\n      mload(0x40)\n      dup1\n      swap2\n      sub\n      swap1\n      log1\n        /* \"Hook.sol\":8820:9304  try  Oracle.consultPrices(WethAddress,ethAmount){... */\n      jump(tag_307)\n    tag_301:\n      pop\n        /* \"Hook.sol\":8890:8907  uint amountToMint */\n      0x00\n        /* \"Hook.sol\":8908:8914  Oracle */\n      0x0a\n      0x00\n      swap1\n      sload\n      swap1\n      0x0100\n      exp\n      swap1\n      div\n      0xffffffffffffffffffffffffffffffffffffffff\n      and\n        /* \"Hook.sol\":8908:8928  Oracle.consultPrices */\n      0xffffffffffffffffffffffffffffffffffffffff\n      and\n      0x3ac35585\n        /* \"Hook.sol\":8929:8940  WethAddress */\n      0x00\n      dup1\n      sload\n      swap1\n      0x0100\n      exp\n      swap1\n      div\n      0xffffffffffffffffffffffffffffffffffffffff\n      and\n        /* \"Hook.sol\":8941:8950  ethAmount */\n      dup5\n        /* \"Hook.sol\":8908:8951  Oracle.consultPrices(WethAddress,ethAmount) */\n      mload(0x40)\n      dup4\n      0xffffffff\n      and\n      0xe0\n      shl\n      dup2\n      mstore\n      0x04\n      add\n      tag_308\n      swap3\n      swap2\n      swap1\n      tag_127\n      jump\t// in\n    tag_308:\n      0x20\n      mload(0x40)\n      dup1\n      dup4\n      sub\n      dup2\n      dup7\n      gas\n      staticcall\n      iszero\n      dup1\n      iszero\n      tag_310\n      jumpi\n      returndatasize\n      0x00\n      dup1\n      returndatacopy\n      revert(0x00, returndatasize)\n    tag_310:\n      pop\n      pop\n      pop\n      pop\n      mload(0x40)\n      returndatasize\n      not(0x1f)\n      0x1f\n      dup3\n      add\n      and\n      dup3\n      add\n      dup1\n      0x40\n      mstore\n      pop\n      dup2\n      add\n      swap1\n      tag_311\n      swap2\n      swap1\n      tag_125\n      jump\t// in\n    tag_311:\n        /* \"Hook.sol\":8890:8951  uint amountToMint=Oracle.consultPrices(WethAddress,ethAmount) */\n      swap1\n      pop\n        /* \"Hook.sol\":8986:8998  ERC20Address */\n      0x01\n      0x00\n      swap1\n      sload\n      swap1\n      0x0100\n      exp\n      swap1\n      div\n      0xffffffffffffffffffffffffffffffffffffffff\n      and\n        /* \"Hook.sol\":8977:9008  WethLike(ERC20Address).hookMint */\n      0xffffffffffffffffffffffffffffffffffffffff\n      and\n      0x96fe8349\n        /* \"Hook.sol\":9009:9021  amountToMint */\n      dup3\n        /* \"Hook.sol\":9022:9036  previousHolder */\n      dup6\n        /* \"Hook.sol\":8977:9037  WethLike(ERC20Address).hookMint(amountToMint,previousHolder) */\n      mload(0x40)\n      dup4\n      0xffffffff\n      and\n      0xe0\n      shl\n      dup2\n      mstore\n      0x04\n      add\n      tag_312\n      swap3\n      swap2\n      swap1\n      tag_139\n      jump\t// in\n    tag_312:\n      0x00\n      mload(0x40)\n      dup1\n      dup4\n      sub\n      dup2\n      0x00\n      dup8\n      dup1\n      extcodesize\n      iszero\n      dup1\n      iszero\n      tag_313\n      jumpi\n      0x00\n      dup1\n      revert\n    tag_313:\n      pop\n      gas\n      call\n      swap3\n      pop\n      pop\n      pop\n      dup1\n      iszero\n      tag_314\n      jumpi\n      pop\n      0x01\n    tag_314:\n        /* \"Hook.sol\":8973:9210  try WethLike(ERC20Address).hookMint(amountToMint,previousHolder){... */\n      tag_315\n      jumpi\n        /* \"Hook.sol\":9163:9208  Log('price got from Oracle but couldnt mint') */\n      0xcf34ef537ac33ee1ac626ca1587a0a7e8e51561e5514f8cb36afa1c5102b3bab\n      mload(0x40)\n      tag_319\n      swap1\n      tag_320\n      jump\t// in\n    tag_319:\n      mload(0x40)\n      dup1\n      swap2\n      sub\n      swap1\n      log1\n        /* \"Hook.sol\":8973:9210  try WethLike(ERC20Address).hookMint(amountToMint,previousHolder){... */\n      jump(tag_321)\n    tag_315:\n        /* \"Hook.sol\":9068:9107  Log('tokens minted to previous holder') */\n      0xcf34ef537ac33ee1ac626ca1587a0a7e8e51561e5514f8cb36afa1c5102b3bab\n      mload(0x40)\n      tag_322\n      swap1\n      tag_323\n      jump\t// in\n    tag_322:\n      mload(0x40)\n      dup1\n      swap2\n      sub\n      swap1\n      log1\n        /* \"Hook.sol\":8973:9210  try WethLike(ERC20Address).hookMint(amountToMint,previousHolder){... */\n    tag_321:\n        /* \"Hook.sol\":8868:9211  {... */\n      pop\n        /* \"Hook.sol\":8820:9304  try  Oracle.consultPrices(WethAddress,ethAmount){... */\n    tag_307:\n        /* \"Hook.sol\":8782:9314  if(ethAmount == 0){}else{... */\n    tag_297:\n        /* \"Hook.sol\":8692:9320  {... */\n      pop\n        /* \"Hook.sol\":8629:9320  function erc20ToPreviousHolder(address previousHolder) internal{... */\n      pop\n      jump\t// out\n        /* \"Hook.sol\":7298:8348  function buyTokens(uint _buyEth) internal returns (uint){... */\n    tag_243:\n        /* \"Hook.sol\":7349:7353  uint */\n      0x00\n        /* \"Hook.sol\":7364:7388  uint initialTokenbalance */\n      dup1\n        /* \"Hook.sol\":7398:7422  uint numberOfTokensToBuy */\n      0x00\n        /* \"Hook.sol\":7443:7455  ERC20Address */\n      0x01\n      0x00\n      swap1\n      sload\n      swap1\n      0x0100\n      exp\n      swap1\n      div\n      0xffffffffffffffffffffffffffffffffffffffff\n      and\n        /* \"Hook.sol\":7436:7466  IERC20(ERC20Address).balanceOf */\n      0xffffffffffffffffffffffffffffffffffffffff\n      and\n      0x70a08231\n        /* \"Hook.sol\":7475:7479  this */\n      address\n        /* \"Hook.sol\":7436:7481  IERC20(ERC20Address).balanceOf(address(this)) */\n      mload(0x40)\n      dup3\n      0xffffffff\n      and\n      0xe0\n      shl\n      dup2\n      mstore\n      0x04\n      add\n      tag_325\n      swap2\n      swap1\n      tag_40\n      jump\t// in\n    tag_325:\n      0x20\n      mload(0x40)\n      dup1\n      dup4\n      sub\n      dup2\n      dup7\n      gas\n      staticcall\n      swap3\n      pop\n      pop\n      pop\n      dup1\n      iszero\n      tag_326\n      jumpi\n      pop\n      mload(0x40)\n      returndatasize\n      not(0x1f)\n      0x1f\n      dup3\n      add\n      and\n      dup3\n      add\n      dup1\n      0x40\n      mstore\n      pop\n      dup2\n      add\n      swap1\n      tag_327\n      swap2\n      swap1\n      tag_125\n      jump\t// in\n    tag_327:\n      0x01\n    tag_326:\n        /* \"Hook.sol\":7432:7655  try IERC20(ERC20Address).balanceOf(address(this)) {... */\n      tag_328\n      jumpi\n        /* \"Hook.sol\":7604:7644  Log('cant get balance of this contract') */\n      0xcf34ef537ac33ee1ac626ca1587a0a7e8e51561e5514f8cb36afa1c5102b3bab\n      mload(0x40)\n      tag_332\n      swap1\n      tag_333\n      jump\t// in\n    tag_332:\n      mload(0x40)\n      dup1\n      swap2\n      sub\n      swap1\n      log1\n        /* \"Hook.sol\":7432:7655  try IERC20(ERC20Address).balanceOf(address(this)) {... */\n      jump(tag_334)\n    tag_328:\n      pop\n        /* \"Hook.sol\":7521:7533  ERC20Address */\n      0x01\n      0x00\n      swap1\n      sload\n      swap1\n      0x0100\n      exp\n      swap1\n      div\n      0xffffffffffffffffffffffffffffffffffffffff\n      and\n        /* \"Hook.sol\":7514:7544  IERC20(ERC20Address).balanceOf */\n      0xffffffffffffffffffffffffffffffffffffffff\n      and\n      0x70a08231\n        /* \"Hook.sol\":7553:7557  this */\n      address\n        /* \"Hook.sol\":7514:7559  IERC20(ERC20Address).balanceOf(address(this)) */\n      mload(0x40)\n      dup3\n      0xffffffff\n      and\n      0xe0\n      shl\n      dup2\n      mstore\n      0x04\n      add\n      tag_335\n      swap2\n      swap1\n      tag_40\n      jump\t// in\n    tag_335:\n      0x20\n      mload(0x40)\n      dup1\n      dup4\n      sub\n      dup2\n      dup7\n      gas\n      staticcall\n      iszero\n      dup1\n      iszero\n      tag_337\n      jumpi\n      returndatasize\n      0x00\n      dup1\n      returndatacopy\n      revert(0x00, returndatasize)\n    tag_337:\n      pop\n      pop\n      pop\n      pop\n      mload(0x40)\n      returndatasize\n      not(0x1f)\n      0x1f\n      dup3\n      add\n      and\n      dup3\n      add\n      dup1\n      0x40\n      mstore\n      pop\n      dup2\n      add\n      swap1\n      tag_338\n      swap2\n      swap1\n      tag_125\n      jump\t// in\n    tag_338:\n        /* \"Hook.sol\":7492:7559  initialTokenbalance = IERC20(ERC20Address).balanceOf(address(this)) */\n      swap2\n      pop\n        /* \"Hook.sol\":7432:7655  try IERC20(ERC20Address).balanceOf(address(this)) {... */\n    tag_334:\n        /* \"Hook.sol\":7668:7674  Oracle */\n      0x0a\n      0x00\n      swap1\n      sload\n      swap1\n      0x0100\n      exp\n      swap1\n      div\n      0xffffffffffffffffffffffffffffffffffffffff\n      and\n        /* \"Hook.sol\":7668:7688  Oracle.consultPrices */\n      0xffffffffffffffffffffffffffffffffffffffff\n      and\n      0x3ac35585\n        /* \"Hook.sol\":7689:7700  WethAddress */\n      0x00\n      dup1\n      sload\n      swap1\n      0x0100\n      exp\n      swap1\n      div\n      0xffffffffffffffffffffffffffffffffffffffff\n      and\n        /* \"Hook.sol\":7702:7709  _buyEth */\n      dup7\n        /* \"Hook.sol\":7668:7710  Oracle.consultPrices(WethAddress, _buyEth) */\n      mload(0x40)\n      dup4\n      0xffffffff\n      and\n      0xe0\n      shl\n      dup2\n      mstore\n      0x04\n      add\n      tag_339\n      swap3\n      swap2\n      swap1\n      tag_127\n      jump\t// in\n    tag_339:\n      0x20\n      mload(0x40)\n      dup1\n      dup4\n      sub\n      dup2\n      dup7\n      gas\n      staticcall\n      swap3\n      pop\n      pop\n      pop\n      dup1\n      iszero\n      tag_340\n      jumpi\n      pop\n      mload(0x40)\n      returndatasize\n      not(0x1f)\n      0x1f\n      dup3\n      add\n      and\n      dup3\n      add\n      dup1\n      0x40\n      mstore\n      pop\n      dup2\n      add\n      swap1\n      tag_341\n      swap2\n      swap1\n      tag_125\n      jump\t// in\n    tag_341:\n      0x01\n    tag_340:\n        /* \"Hook.sol\":7664:7963  try Oracle.consultPrices(WethAddress, _buyEth) {... */\n      tag_342\n      jumpi\n        /* \"Hook.sol\":7919:7952  Log('cant get price from Oracle') */\n      0xcf34ef537ac33ee1ac626ca1587a0a7e8e51561e5514f8cb36afa1c5102b3bab\n      mload(0x40)\n      tag_346\n      swap1\n      tag_347\n      jump\t// in\n    tag_346:\n      mload(0x40)\n      dup1\n      swap2\n      sub\n      swap1\n      log1\n        /* \"Hook.sol\":7664:7963  try Oracle.consultPrices(WethAddress, _buyEth) {... */\n      jump(tag_348)\n    tag_342:\n      pop\n        /* \"Hook.sol\":7743:7749  Oracle */\n      0x0a\n      0x00\n      swap1\n      sload\n      swap1\n      0x0100\n      exp\n      swap1\n      div\n      0xffffffffffffffffffffffffffffffffffffffff\n      and\n        /* \"Hook.sol\":7743:7763  Oracle.consultPrices */\n      0xffffffffffffffffffffffffffffffffffffffff\n      and\n      0x3ac35585\n        /* \"Hook.sol\":7764:7775  WethAddress */\n      0x00\n      dup1\n      sload\n      swap1\n      0x0100\n      exp\n      swap1\n      div\n      0xffffffffffffffffffffffffffffffffffffffff\n      and\n        /* \"Hook.sol\":7777:7784  _buyEth */\n      dup7\n        /* \"Hook.sol\":7743:7785  Oracle.consultPrices(WethAddress, _buyEth) */\n      mload(0x40)\n      dup4\n      0xffffffff\n      and\n      0xe0\n      shl\n      dup2\n      mstore\n      0x04\n      add\n      tag_349\n      swap3\n      swap2\n      swap1\n      tag_127\n      jump\t// in\n    tag_349:\n      0x20\n      mload(0x40)\n      dup1\n      dup4\n      sub\n      dup2\n      dup7\n      gas\n      staticcall\n      iszero\n      dup1\n      iszero\n      tag_351\n      jumpi\n      returndatasize\n      0x00\n      dup1\n      returndatacopy\n      revert(0x00, returndatasize)\n    tag_351:\n      pop\n      pop\n      pop\n      pop\n      mload(0x40)\n      returndatasize\n      not(0x1f)\n      0x1f\n      dup3\n      add\n      and\n      dup3\n      add\n      dup1\n      0x40\n      mstore\n      pop\n      dup2\n      add\n      swap1\n      tag_352\n      swap2\n      swap1\n      tag_125\n      jump\t// in\n    tag_352:\n        /* \"Hook.sol\":7721:7785  numberOfTokensToBuy = Oracle.consultPrices(WethAddress, _buyEth) */\n      swap1\n      pop\n        /* \"Hook.sol\":7800:7834  Log ('number of Tokens to Buy is') */\n      0xcf34ef537ac33ee1ac626ca1587a0a7e8e51561e5514f8cb36afa1c5102b3bab\n      mload(0x40)\n      tag_353\n      swap1\n      tag_354\n      jump\t// in\n    tag_353:\n      mload(0x40)\n      dup1\n      swap2\n      sub\n      swap1\n      log1\n        /* \"Hook.sol\":7849:7874  Log (numberOfTokensToBuy) */\n      0x909c57d5c6ac08245cf2a6de3900e2b868513fa59099b92b27d8db823d92df9c\n        /* \"Hook.sol\":7854:7873  numberOfTokensToBuy */\n      dup2\n        /* \"Hook.sol\":7849:7874  Log (numberOfTokensToBuy) */\n      mload(0x40)\n      tag_355\n      swap2\n      swap1\n      tag_52\n      jump\t// in\n    tag_355:\n      mload(0x40)\n      dup1\n      swap2\n      sub\n      swap1\n      log1\n        /* \"Hook.sol\":7664:7963  try Oracle.consultPrices(WethAddress, _buyEth) {... */\n    tag_348:\n        /* \"Hook.sol\":7973:7990  uint amountOutMin */\n      0x00\n        /* \"Hook.sol\":8041:8054  UniswapRouter */\n      0x0b\n      0x00\n      swap1\n      sload\n      swap1\n      0x0100\n      exp\n      swap1\n      div\n      0xffffffffffffffffffffffffffffffffffffffff\n      and\n        /* \"Hook.sol\":8041:8076  UniswapRouter.swapExactETHForTokens */\n      0xffffffffffffffffffffffffffffffffffffffff\n      and\n      0x7ff36ab5\n        /* \"Hook.sol\":8084:8091  _buyEth */\n      dup7\n        /* \"Hook.sol\":8093:8105  amountOutMin */\n      dup4\n        /* \"Hook.sol\":8107:8111  path */\n      0x07\n        /* \"Hook.sol\":8113:8123  msg.sender */\n      caller\n        /* \"Hook.sol\":8125:8139  type(uint).max */\n      0xffffffffffffffffffffffffffffffffffffffffffffffffffffffffffffffff\n        /* \"Hook.sol\":8041:8140  UniswapRouter.swapExactETHForTokens{value: _buyEth}(amountOutMin, path, msg.sender, type(uint).max) */\n      mload(0x40)\n      dup7\n      0xffffffff\n      and\n      0xe0\n      shl\n      dup2\n      mstore\n      0x04\n      add\n      tag_356\n      swap5\n      swap4\n      swap3\n      swap2\n      swap1\n      tag_357\n      jump\t// in\n    tag_356:\n      0x00\n      mload(0x40)\n      dup1\n      dup4\n      sub\n      dup2\n      dup6\n      dup9\n      gas\n      call\n      swap4\n      pop\n      pop\n      pop\n      pop\n      dup1\n      iszero\n      tag_358\n      jumpi\n      pop\n      mload(0x40)\n      returndatasize\n      0x00\n      dup3\n      returndatacopy\n      returndatasize\n      not(0x1f)\n      0x1f\n      dup3\n      add\n      and\n      dup3\n      add\n      dup1\n      0x40\n      mstore\n      pop\n      dup2\n      add\n      swap1\n      tag_359\n      swap2\n      swap1\n      tag_360\n      jump\t// in\n    tag_359:\n      0x01\n    tag_358:\n        /* \"Hook.sol\":8037:8246  try UniswapRouter.swapExactETHForTokens{value: _buyEth}(amountOutMin, path, msg.sender, type(uint).max)... */\n      tag_361\n      jumpi\n        /* \"Hook.sol\":8211:8235  Log(\"tokens not bought\") */\n      0xcf34ef537ac33ee1ac626ca1587a0a7e8e51561e5514f8cb36afa1c5102b3bab\n      mload(0x40)\n      tag_365\n      swap1\n      tag_366\n      jump\t// in\n    tag_365:\n      mload(0x40)\n      dup1\n      swap2\n      sub\n      swap1\n      log1\n        /* \"Hook.sol\":8037:8246  try UniswapRouter.swapExactETHForTokens{value: _buyEth}(amountOutMin, path, msg.sender, type(uint).max)... */\n      jump(tag_367)\n    tag_361:\n      pop\n        /* \"Hook.sol\":8156:8176  Log(\"tokens bought\") */\n      0xcf34ef537ac33ee1ac626ca1587a0a7e8e51561e5514f8cb36afa1c5102b3bab\n      mload(0x40)\n      tag_368\n      swap1\n      tag_369\n      jump\t// in\n    tag_368:\n      mload(0x40)\n      dup1\n      swap2\n      sub\n      swap1\n      log1\n        /* \"Hook.sol\":8037:8246  try UniswapRouter.swapExactETHForTokens{value: _buyEth}(amountOutMin, path, msg.sender, type(uint).max)... */\n    tag_367:\n        /* \"Hook.sol\":8312:8331  initialTokenbalance */\n      dup3\n        /* \"Hook.sol\":8271:8283  ERC20Address */\n      0x01\n      0x00\n      swap1\n      sload\n      swap1\n      0x0100\n      exp\n      swap1\n      div\n      0xffffffffffffffffffffffffffffffffffffffff\n      and\n        /* \"Hook.sol\":8264:8294  IERC20(ERC20Address).balanceOf */\n      0xffffffffffffffffffffffffffffffffffffffff\n      and\n      0x70a08231\n        /* \"Hook.sol\":8303:8307  this */\n      address\n        /* \"Hook.sol\":8264:8309  IERC20(ERC20Address).balanceOf(address(this)) */\n      mload(0x40)\n      dup3\n      0xffffffff\n      and\n      0xe0\n      shl\n      dup2\n      mstore\n      0x04\n      add\n      tag_370\n      swap2\n      swap1\n      tag_40\n      jump\t// in\n    tag_370:\n      0x20\n      mload(0x40)\n      dup1\n      dup4\n      sub\n      dup2\n      dup7\n      gas\n      staticcall\n      iszero\n      dup1\n      iszero\n      tag_372\n      jumpi\n      returndatasize\n      0x00\n      dup1\n      returndatacopy\n      revert(0x00, returndatasize)\n    tag_372:\n      pop\n      pop\n      pop\n      pop\n      mload(0x40)\n      returndatasize\n      not(0x1f)\n      0x1f\n      dup3\n      add\n      and\n      dup3\n      add\n      dup1\n      0x40\n      mstore\n      pop\n      dup2\n      add\n      swap1\n      tag_373\n      swap2\n      swap1\n      tag_125\n      jump\t// in\n    tag_373:\n        /* \"Hook.sol\":8264:8331  IERC20(ERC20Address).balanceOf(address(this)) - initialTokenbalance */\n      tag_374\n      swap2\n      swap1\n      tag_137\n      jump\t// in\n    tag_374:\n        /* \"Hook.sol\":8257:8331  return IERC20(ERC20Address).balanceOf(address(this)) - initialTokenbalance */\n      swap4\n      pop\n      pop\n      pop\n      pop\n        /* \"Hook.sol\":7298:8348  function buyTokens(uint _buyEth) internal returns (uint){... */\n      swap2\n      swap1\n      pop\n      jump\t// out\n        /* \"#utility.yul\":7:82   */\n    tag_375:\n        /* \"#utility.yul\":40:46   */\n      0x00\n        /* \"#utility.yul\":73:75   */\n      0x40\n        /* \"#utility.yul\":67:76   */\n      mload\n        /* \"#utility.yul\":57:76   */\n      swap1\n      pop\n        /* \"#utility.yul\":7:82   */\n      swap1\n      jump\t// out\n        /* \"#utility.yul\":88:205   */\n    tag_376:\n        /* \"#utility.yul\":197:198   */\n      0x00\n        /* \"#utility.yul\":194:195   */\n      dup1\n        /* \"#utility.yul\":187:199   */\n      revert\n        /* \"#utility.yul\":211:328   */\n    tag_377:\n        /* \"#utility.yul\":320:321   */\n      0x00\n        /* \"#utility.yul\":317:318   */\n      dup1\n        /* \"#utility.yul\":310:322   */\n      revert\n        /* \"#utility.yul\":334:460   */\n    tag_378:\n        /* \"#utility.yul\":371:378   */\n      0x00\n        /* \"#utility.yul\":411:453   */\n      0xffffffffffffffffffffffffffffffffffffffff\n        /* \"#utility.yul\":404:409   */\n      dup3\n        /* \"#utility.yul\":400:454   */\n      and\n        /* \"#utility.yul\":389:454   */\n      swap1\n      pop\n        /* \"#utility.yul\":334:460   */\n      swap2\n      swap1\n      pop\n      jump\t// out\n        /* \"#utility.yul\":466:562   */\n    tag_379:\n        /* \"#utility.yul\":503:510   */\n      0x00\n        /* \"#utility.yul\":532:556   */\n      tag_452\n        /* \"#utility.yul\":550:555   */\n      dup3\n        /* \"#utility.yul\":532:556   */\n      tag_378\n      jump\t// in\n    tag_452:\n        /* \"#utility.yul\":521:556   */\n      swap1\n      pop\n        /* \"#utility.yul\":466:562   */\n      swap2\n      swap1\n      pop\n      jump\t// out\n        /* \"#utility.yul\":568:690   */\n    tag_380:\n        /* \"#utility.yul\":641:665   */\n      tag_454\n        /* \"#utility.yul\":659:664   */\n      dup2\n        /* \"#utility.yul\":641:665   */\n      tag_379\n      jump\t// in\n    tag_454:\n        /* \"#utility.yul\":634:639   */\n      dup2\n        /* \"#utility.yul\":631:666   */\n      eq\n        /* \"#utility.yul\":621:684   */\n      tag_455\n      jumpi\n        /* \"#utility.yul\":680:681   */\n      0x00\n        /* \"#utility.yul\":677:678   */\n      dup1\n        /* \"#utility.yul\":670:682   */\n      revert\n        /* \"#utility.yul\":621:684   */\n    tag_455:\n        /* \"#utility.yul\":568:690   */\n      pop\n      jump\t// out\n        /* \"#utility.yul\":696:835   */\n    tag_381:\n        /* \"#utility.yul\":742:747   */\n      0x00\n        /* \"#utility.yul\":780:786   */\n      dup2\n        /* \"#utility.yul\":767:787   */\n      calldataload\n        /* \"#utility.yul\":758:787   */\n      swap1\n      pop\n        /* \"#utility.yul\":796:829   */\n      tag_457\n        /* \"#utility.yul\":823:828   */\n      dup2\n        /* \"#utility.yul\":796:829   */\n      tag_380\n      jump\t// in\n    tag_457:\n        /* \"#utility.yul\":696:835   */\n      swap3\n      swap2\n      pop\n      pop\n      jump\t// out\n        /* \"#utility.yul\":841:1170   */\n    tag_30:\n        /* \"#utility.yul\":900:906   */\n      0x00\n        /* \"#utility.yul\":949:951   */\n      0x20\n        /* \"#utility.yul\":937:946   */\n      dup3\n        /* \"#utility.yul\":928:935   */\n      dup5\n        /* \"#utility.yul\":924:947   */\n      sub\n        /* \"#utility.yul\":920:952   */\n      slt\n        /* \"#utility.yul\":917:1036   */\n      iszero\n      tag_459\n      jumpi\n        /* \"#utility.yul\":955:1034   */\n      tag_460\n      tag_376\n      jump\t// in\n    tag_460:\n        /* \"#utility.yul\":917:1036   */\n    tag_459:\n        /* \"#utility.yul\":1075:1076   */\n      0x00\n        /* \"#utility.yul\":1100:1153   */\n      tag_461\n        /* \"#utility.yul\":1145:1152   */\n      dup5\n        /* \"#utility.yul\":1136:1142   */\n      dup3\n        /* \"#utility.yul\":1125:1134   */\n      dup6\n        /* \"#utility.yul\":1121:1143   */\n      add\n        /* \"#utility.yul\":1100:1153   */\n      tag_381\n      jump\t// in\n    tag_461:\n        /* \"#utility.yul\":1090:1153   */\n      swap2\n      pop\n        /* \"#utility.yul\":1046:1163   */\n      pop\n        /* \"#utility.yul\":841:1170   */\n      swap3\n      swap2\n      pop\n      pop\n      jump\t// out\n        /* \"#utility.yul\":1176:1294   */\n    tag_382:\n        /* \"#utility.yul\":1263:1287   */\n      tag_463\n        /* \"#utility.yul\":1281:1286   */\n      dup2\n        /* \"#utility.yul\":1263:1287   */\n      tag_379\n      jump\t// in\n    tag_463:\n        /* \"#utility.yul\":1258:1261   */\n      dup3\n        /* \"#utility.yul\":1251:1288   */\n      mstore\n        /* \"#utility.yul\":1176:1294   */\n      pop\n      pop\n      jump\t// out\n        /* \"#utility.yul\":1300:1522   */\n    tag_40:\n        /* \"#utility.yul\":1393:1397   */\n      0x00\n        /* \"#utility.yul\":1431:1433   */\n      0x20\n        /* \"#utility.yul\":1420:1429   */\n      dup3\n        /* \"#utility.yul\":1416:1434   */\n      add\n        /* \"#utility.yul\":1408:1434   */\n      swap1\n      pop\n        /* \"#utility.yul\":1444:1515   */\n      tag_465\n        /* \"#utility.yul\":1512:1513   */\n      0x00\n        /* \"#utility.yul\":1501:1510   */\n      dup4\n        /* \"#utility.yul\":1497:1514   */\n      add\n        /* \"#utility.yul\":1488:1494   */\n      dup5\n        /* \"#utility.yul\":1444:1515   */\n      tag_382\n      jump\t// in\n    tag_465:\n        /* \"#utility.yul\":1300:1522   */\n      swap3\n      swap2\n      pop\n      pop\n      jump\t// out\n        /* \"#utility.yul\":1528:1605   */\n    tag_383:\n        /* \"#utility.yul\":1565:1572   */\n      0x00\n        /* \"#utility.yul\":1594:1599   */\n      dup2\n        /* \"#utility.yul\":1583:1599   */\n      swap1\n      pop\n        /* \"#utility.yul\":1528:1605   */\n      swap2\n      swap1\n      pop\n      jump\t// out\n        /* \"#utility.yul\":1611:1733   */\n    tag_384:\n        /* \"#utility.yul\":1684:1708   */\n      tag_468\n        /* \"#utility.yul\":1702:1707   */\n      dup2\n        /* \"#utility.yul\":1684:1708   */\n      tag_383\n      jump\t// in\n    tag_468:\n        /* \"#utility.yul\":1677:1682   */\n      dup2\n        /* \"#utility.yul\":1674:1709   */\n      eq\n        /* \"#utility.yul\":1664:1727   */\n      tag_469\n      jumpi\n        /* \"#utility.yul\":1723:1724   */\n      0x00\n        /* \"#utility.yul\":1720:1721   */\n      dup1\n        /* \"#utility.yul\":1713:1725   */\n      revert\n        /* \"#utility.yul\":1664:1727   */\n    tag_469:\n        /* \"#utility.yul\":1611:1733   */\n      pop\n      jump\t// out\n        /* \"#utility.yul\":1739:1878   */\n    tag_385:\n        /* \"#utility.yul\":1785:1790   */\n      0x00\n        /* \"#utility.yul\":1823:1829   */\n      dup2\n        /* \"#utility.yul\":1810:1830   */\n      calldataload\n        /* \"#utility.yul\":1801:1830   */\n      swap1\n      pop\n        /* \"#utility.yul\":1839:1872   */\n      tag_471\n        /* \"#utility.yul\":1866:1871   */\n      dup2\n        /* \"#utility.yul\":1839:1872   */\n      tag_384\n      jump\t// in\n    tag_471:\n        /* \"#utility.yul\":1739:1878   */\n      swap3\n      swap2\n      pop\n      pop\n      jump\t// out\n        /* \"#utility.yul\":1884:2213   */\n    tag_44:\n        /* \"#utility.yul\":1943:1949   */\n      0x00\n        /* \"#utility.yul\":1992:1994   */\n      0x20\n        /* \"#utility.yul\":1980:1989   */\n      dup3\n        /* \"#utility.yul\":1971:1978   */\n      dup5\n        /* \"#utility.yul\":1967:1990   */\n      sub\n        /* \"#utility.yul\":1963:1995   */\n      slt\n        /* \"#utility.yul\":1960:2079   */\n      iszero\n      tag_473\n      jumpi\n        /* \"#utility.yul\":1998:2077   */\n      tag_474\n      tag_376\n      jump\t// in\n    tag_474:\n        /* \"#utility.yul\":1960:2079   */\n    tag_473:\n        /* \"#utility.yul\":2118:2119   */\n      0x00\n        /* \"#utility.yul\":2143:2196   */\n      tag_475\n        /* \"#utility.yul\":2188:2195   */\n      dup5\n        /* \"#utility.yul\":2179:2185   */\n      dup3\n        /* \"#utility.yul\":2168:2177   */\n      dup6\n        /* \"#utility.yul\":2164:2186   */\n      add\n        /* \"#utility.yul\":2143:2196   */\n      tag_385\n      jump\t// in\n    tag_475:\n        /* \"#utility.yul\":2133:2196   */\n      swap2\n      pop\n        /* \"#utility.yul\":2089:2206   */\n      pop\n        /* \"#utility.yul\":1884:2213   */\n      swap3\n      swap2\n      pop\n      pop\n      jump\t// out\n        /* \"#utility.yul\":2219:2337   */\n    tag_386:\n        /* \"#utility.yul\":2306:2330   */\n      tag_477\n        /* \"#utility.yul\":2324:2329   */\n      dup2\n        /* \"#utility.yul\":2306:2330   */\n      tag_383\n      jump\t// in\n    tag_477:\n        /* \"#utility.yul\":2301:2304   */\n      dup3\n        /* \"#utility.yul\":2294:2331   */\n      mstore\n        /* \"#utility.yul\":2219:2337   */\n      pop\n      pop\n      jump\t// out\n        /* \"#utility.yul\":2343:2785   */\n    tag_47:\n        /* \"#utility.yul\":2492:2496   */\n      0x00\n        /* \"#utility.yul\":2530:2532   */\n      0x60\n        /* \"#utility.yul\":2519:2528   */\n      dup3\n        /* \"#utility.yul\":2515:2533   */\n      add\n        /* \"#utility.yul\":2507:2533   */\n      swap1\n      pop\n        /* \"#utility.yul\":2543:2614   */\n      tag_479\n        /* \"#utility.yul\":2611:2612   */\n      0x00\n        /* \"#utility.yul\":2600:2609   */\n      dup4\n        /* \"#utility.yul\":2596:2613   */\n      add\n        /* \"#utility.yul\":2587:2593   */\n      dup7\n        /* \"#utility.yul\":2543:2614   */\n      tag_386\n      jump\t// in\n    tag_479:\n        /* \"#utility.yul\":2624:2696   */\n      tag_480\n        /* \"#utility.yul\":2692:2694   */\n      0x20\n        /* \"#utility.yul\":2681:2690   */\n      dup4\n        /* \"#utility.yul\":2677:2695   */\n      add\n        /* \"#utility.yul\":2668:2674   */\n      dup6\n        /* \"#utility.yul\":2624:2696   */\n      tag_382\n      jump\t// in\n    tag_480:\n        /* \"#utility.yul\":2706:2778   */\n      tag_481\n        /* \"#utility.yul\":2774:2776   */\n      0x40\n        /* \"#utility.yul\":2763:2772   */\n      dup4\n        /* \"#utility.yul\":2759:2777   */\n      add\n        /* \"#utility.yul\":2750:2756   */\n      dup5\n        /* \"#utility.yul\":2706:2778   */\n      tag_386\n      jump\t// in\n    tag_481:\n        /* \"#utility.yul\":2343:2785   */\n      swap5\n      swap4\n      pop\n      pop\n      pop\n      pop\n      jump\t// out\n        /* \"#utility.yul\":2791:3013   */\n    tag_52:\n        /* \"#utility.yul\":2884:2888   */\n      0x00\n        /* \"#utility.yul\":2922:2924   */\n      0x20\n        /* \"#utility.yul\":2911:2920   */\n      dup3\n        /* \"#utility.yul\":2907:2925   */\n      add\n        /* \"#utility.yul\":2899:2925   */\n      swap1\n      pop\n        /* \"#utility.yul\":2935:3006   */\n      tag_483\n        /* \"#utility.yul\":3003:3004   */\n      0x00\n        /* \"#utility.yul\":2992:3001   */\n      dup4\n        /* \"#utility.yul\":2988:3005   */\n      add\n        /* \"#utility.yul\":2979:2985   */\n      dup5\n        /* \"#utility.yul\":2935:3006   */\n      tag_386\n      jump\t// in\n    tag_483:\n        /* \"#utility.yul\":2791:3013   */\n      swap3\n      swap2\n      pop\n      pop\n      jump\t// out\n        /* \"#utility.yul\":3019:3162   */\n    tag_387:\n        /* \"#utility.yul\":3076:3081   */\n      0x00\n        /* \"#utility.yul\":3107:3113   */\n      dup2\n        /* \"#utility.yul\":3101:3114   */\n      mload\n        /* \"#utility.yul\":3092:3114   */\n      swap1\n      pop\n        /* \"#utility.yul\":3123:3156   */\n      tag_485\n        /* \"#utility.yul\":3150:3155   */\n      dup2\n        /* \"#utility.yul\":3123:3156   */\n      tag_384\n      jump\t// in\n    tag_485:\n        /* \"#utility.yul\":3019:3162   */\n      swap3\n      swap2\n      pop\n      pop\n      jump\t// out\n        /* \"#utility.yul\":3168:3519   */\n    tag_125:\n        /* \"#utility.yul\":3238:3244   */\n      0x00\n        /* \"#utility.yul\":3287:3289   */\n      0x20\n        /* \"#utility.yul\":3275:3284   */\n      dup3\n        /* \"#utility.yul\":3266:3273   */\n      dup5\n        /* \"#utility.yul\":3262:3285   */\n      sub\n        /* \"#utility.yul\":3258:3290   */\n      slt\n        /* \"#utility.yul\":3255:3374   */\n      iszero\n      tag_487\n      jumpi\n        /* \"#utility.yul\":3293:3372   */\n      tag_488\n      tag_376\n      jump\t// in\n    tag_488:\n        /* \"#utility.yul\":3255:3374   */\n    tag_487:\n        /* \"#utility.yul\":3413:3414   */\n      0x00\n        /* \"#utility.yul\":3438:3502   */\n      tag_489\n        /* \"#utility.yul\":3494:3501   */\n      dup5\n        /* \"#utility.yul\":3485:3491   */\n      dup3\n        /* \"#utility.yul\":3474:3483   */\n      dup6\n        /* \"#utility.yul\":3470:3492   */\n      add\n        /* \"#utility.yul\":3438:3502   */\n      tag_387\n      jump\t// in\n    tag_489:\n        /* \"#utility.yul\":3428:3502   */\n      swap2\n      pop\n        /* \"#utility.yul\":3384:3512   */\n      pop\n        /* \"#utility.yul\":3168:3519   */\n      swap3\n      swap2\n      pop\n      pop\n      jump\t// out\n        /* \"#utility.yul\":3525:3857   */\n    tag_127:\n        /* \"#utility.yul\":3646:3650   */\n      0x00\n        /* \"#utility.yul\":3684:3686   */\n      0x40\n        /* \"#utility.yul\":3673:3682   */\n      dup3\n        /* \"#utility.yul\":3669:3687   */\n      add\n        /* \"#utility.yul\":3661:3687   */\n      swap1\n      pop\n        /* \"#utility.yul\":3697:3768   */\n      tag_491\n        /* \"#utility.yul\":3765:3766   */\n      0x00\n        /* \"#utility.yul\":3754:3763   */\n      dup4\n        /* \"#utility.yul\":3750:3767   */\n      add\n        /* \"#utility.yul\":3741:3747   */\n      dup6\n        /* \"#utility.yul\":3697:3768   */\n      tag_382\n      jump\t// in\n    tag_491:\n        /* \"#utility.yul\":3778:3850   */\n      tag_492\n        /* \"#utility.yul\":3846:3848   */\n      0x20\n        /* \"#utility.yul\":3835:3844   */\n      dup4\n        /* \"#utility.yul\":3831:3849   */\n      add\n        /* \"#utility.yul\":3822:3828   */\n      dup5\n        /* \"#utility.yul\":3778:3850   */\n      tag_386\n      jump\t// in\n    tag_492:\n        /* \"#utility.yul\":3525:3857   */\n      swap4\n      swap3\n      pop\n      pop\n      pop\n      jump\t// out\n        /* \"#utility.yul\":3863:4043   */\n    tag_388:\n        /* \"#utility.yul\":3911:3988   */\n      0x4e487b7100000000000000000000000000000000000000000000000000000000\n        /* \"#utility.yul\":3908:3909   */\n      0x00\n        /* \"#utility.yul\":3901:3989   */\n      mstore\n        /* \"#utility.yul\":4008:4012   */\n      0x11\n        /* \"#utility.yul\":4005:4006   */\n      0x04\n        /* \"#utility.yul\":3998:4013   */\n      mstore\n        /* \"#utility.yul\":4032:4036   */\n      0x24\n        /* \"#utility.yul\":4029:4030   */\n      0x00\n        /* \"#utility.yul\":4022:4037   */\n      revert\n        /* \"#utility.yul\":4049:4459   */\n    tag_132:\n        /* \"#utility.yul\":4089:4096   */\n      0x00\n        /* \"#utility.yul\":4112:4132   */\n      tag_495\n        /* \"#utility.yul\":4130:4131   */\n      dup3\n        /* \"#utility.yul\":4112:4132   */\n      tag_383\n      jump\t// in\n    tag_495:\n        /* \"#utility.yul\":4107:4132   */\n      swap2\n      pop\n        /* \"#utility.yul\":4146:4166   */\n      tag_496\n        /* \"#utility.yul\":4164:4165   */\n      dup4\n        /* \"#utility.yul\":4146:4166   */\n      tag_383\n      jump\t// in\n    tag_496:\n        /* \"#utility.yul\":4141:4166   */\n      swap3\n      pop\n        /* \"#utility.yul\":4201:4202   */\n      dup3\n        /* \"#utility.yul\":4198:4199   */\n      dup3\n        /* \"#utility.yul\":4194:4203   */\n      mul\n        /* \"#utility.yul\":4223:4253   */\n      tag_497\n        /* \"#utility.yul\":4241:4252   */\n      dup2\n        /* \"#utility.yul\":4223:4253   */\n      tag_383\n      jump\t// in\n    tag_497:\n        /* \"#utility.yul\":4212:4253   */\n      swap2\n      pop\n        /* \"#utility.yul\":4402:4403   */\n      dup3\n        /* \"#utility.yul\":4393:4400   */\n      dup3\n        /* \"#utility.yul\":4389:4404   */\n      div\n        /* \"#utility.yul\":4386:4387   */\n      dup5\n        /* \"#utility.yul\":4383:4405   */\n      eq\n        /* \"#utility.yul\":4363:4364   */\n      dup4\n        /* \"#utility.yul\":4356:4365   */\n      iszero\n        /* \"#utility.yul\":4336:4419   */\n      or\n        /* \"#utility.yul\":4313:4452   */\n      tag_498\n      jumpi\n        /* \"#utility.yul\":4432:4450   */\n      tag_499\n      tag_388\n      jump\t// in\n    tag_499:\n        /* \"#utility.yul\":4313:4452   */\n    tag_498:\n        /* \"#utility.yul\":4097:4459   */\n      pop\n        /* \"#utility.yul\":4049:4459   */\n      swap3\n      swap2\n      pop\n      pop\n      jump\t// out\n        /* \"#utility.yul\":4465:4645   */\n    tag_389:\n        /* \"#utility.yul\":4513:4590   */\n      0x4e487b7100000000000000000000000000000000000000000000000000000000\n        /* \"#utility.yul\":4510:4511   */\n      0x00\n        /* \"#utility.yul\":4503:4591   */\n      mstore\n        /* \"#utility.yul\":4610:4614   */\n      0x12\n        /* \"#utility.yul\":4607:4608   */\n      0x04\n        /* \"#utility.yul\":4600:4615   */\n      mstore\n        /* \"#utility.yul\":4634:4638   */\n      0x24\n        /* \"#utility.yul\":4631:4632   */\n      0x00\n        /* \"#utility.yul\":4624:4639   */\n      revert\n        /* \"#utility.yul\":4651:4836   */\n    tag_134:\n        /* \"#utility.yul\":4691:4692   */\n      0x00\n        /* \"#utility.yul\":4708:4728   */\n      tag_502\n        /* \"#utility.yul\":4726:4727   */\n      dup3\n        /* \"#utility.yul\":4708:4728   */\n      tag_383\n      jump\t// in\n    tag_502:\n        /* \"#utility.yul\":4703:4728   */\n      swap2\n      pop\n        /* \"#utility.yul\":4742:4762   */\n      tag_503\n        /* \"#utility.yul\":4760:4761   */\n      dup4\n        /* \"#utility.yul\":4742:4762   */\n      tag_383\n      jump\t// in\n    tag_503:\n        /* \"#utility.yul\":4737:4762   */\n      swap3\n      pop\n        /* \"#utility.yul\":4781:4782   */\n      dup3\n        /* \"#utility.yul\":4771:4806   */\n      tag_504\n      jumpi\n        /* \"#utility.yul\":4786:4804   */\n      tag_505\n      tag_389\n      jump\t// in\n    tag_505:\n        /* \"#utility.yul\":4771:4806   */\n    tag_504:\n        /* \"#utility.yul\":4828:4829   */\n      dup3\n        /* \"#utility.yul\":4825:4826   */\n      dup3\n        /* \"#utility.yul\":4821:4830   */\n      div\n        /* \"#utility.yul\":4816:4830   */\n      swap1\n      pop\n        /* \"#utility.yul\":4651:4836   */\n      swap3\n      swap2\n      pop\n      pop\n      jump\t// out\n        /* \"#utility.yul\":4842:5036   */\n    tag_137:\n        /* \"#utility.yul\":4882:4886   */\n      0x00\n        /* \"#utility.yul\":4902:4922   */\n      tag_507\n        /* \"#utility.yul\":4920:4921   */\n      dup3\n        /* \"#utility.yul\":4902:4922   */\n      tag_383\n      jump\t// in\n    tag_507:\n        /* \"#utility.yul\":4897:4922   */\n      swap2\n      pop\n        /* \"#utility.yul\":4936:4956   */\n      tag_508\n        /* \"#utility.yul\":4954:4955   */\n      dup4\n        /* \"#utility.yul\":4936:4956   */\n      tag_383\n      jump\t// in\n    tag_508:\n        /* \"#utility.yul\":4931:4956   */\n      swap3\n      pop\n        /* \"#utility.yul\":4980:4981   */\n      dup3\n        /* \"#utility.yul\":4977:4978   */\n      dup3\n        /* \"#utility.yul\":4973:4982   */\n      sub\n        /* \"#utility.yul\":4965:4982   */\n      swap1\n      pop\n        /* \"#utility.yul\":5004:5005   */\n      dup2\n        /* \"#utility.yul\":4998:5002   */\n      dup2\n        /* \"#utility.yul\":4995:5006   */\n      gt\n        /* \"#utility.yul\":4992:5029   */\n      iszero\n      tag_509\n      jumpi\n        /* \"#utility.yul\":5009:5027   */\n      tag_510\n      tag_388\n      jump\t// in\n    tag_510:\n        /* \"#utility.yul\":4992:5029   */\n    tag_509:\n        /* \"#utility.yul\":4842:5036   */\n      swap3\n      swap2\n      pop\n      pop\n      jump\t// out\n        /* \"#utility.yul\":5042:5374   */\n    tag_139:\n        /* \"#utility.yul\":5163:5167   */\n      0x00\n        /* \"#utility.yul\":5201:5203   */\n      0x40\n        /* \"#utility.yul\":5190:5199   */\n      dup3\n        /* \"#utility.yul\":5186:5204   */\n      add\n        /* \"#utility.yul\":5178:5204   */\n      swap1\n      pop\n        /* \"#utility.yul\":5214:5285   */\n      tag_512\n        /* \"#utility.yul\":5282:5283   */\n      0x00\n        /* \"#utility.yul\":5271:5280   */\n      dup4\n        /* \"#utility.yul\":5267:5284   */\n      add\n        /* \"#utility.yul\":5258:5264   */\n      dup6\n        /* \"#utility.yul\":5214:5285   */\n      tag_386\n      jump\t// in\n    tag_512:\n        /* \"#utility.yul\":5295:5367   */\n      tag_513\n        /* \"#utility.yul\":5363:5365   */\n      0x20\n        /* \"#utility.yul\":5352:5361   */\n      dup4\n        /* \"#utility.yul\":5348:5366   */\n      add\n        /* \"#utility.yul\":5339:5345   */\n      dup5\n        /* \"#utility.yul\":5295:5367   */\n      tag_382\n      jump\t// in\n    tag_513:\n        /* \"#utility.yul\":5042:5374   */\n      swap4\n      swap3\n      pop\n      pop\n      pop\n      jump\t// out\n        /* \"#utility.yul\":5380:5465   */\n    tag_390:\n        /* \"#utility.yul\":5425:5432   */\n      0x00\n        /* \"#utility.yul\":5454:5459   */\n      dup2\n        /* \"#utility.yul\":5443:5459   */\n      swap1\n      pop\n        /* \"#utility.yul\":5380:5465   */\n      swap2\n      swap1\n      pop\n      jump\t// out\n        /* \"#utility.yul\":5471:5531   */\n    tag_391:\n        /* \"#utility.yul\":5499:5502   */\n      0x00\n        /* \"#utility.yul\":5520:5525   */\n      dup2\n        /* \"#utility.yul\":5513:5525   */\n      swap1\n      pop\n        /* \"#utility.yul\":5471:5531   */\n      swap2\n      swap1\n      pop\n      jump\t// out\n        /* \"#utility.yul\":5537:5695   */\n    tag_392:\n        /* \"#utility.yul\":5595:5604   */\n      0x00\n        /* \"#utility.yul\":5628:5689   */\n      tag_517\n        /* \"#utility.yul\":5646:5688   */\n      tag_518\n        /* \"#utility.yul\":5655:5687   */\n      tag_519\n        /* \"#utility.yul\":5681:5686   */\n      dup5\n        /* \"#utility.yul\":5655:5687   */\n      tag_390\n      jump\t// in\n    tag_519:\n        /* \"#utility.yul\":5646:5688   */\n      tag_391\n      jump\t// in\n    tag_518:\n        /* \"#utility.yul\":5628:5689   */\n      tag_383\n      jump\t// in\n    tag_517:\n        /* \"#utility.yul\":5615:5689   */\n      swap1\n      pop\n        /* \"#utility.yul\":5537:5695   */\n      swap2\n      swap1\n      pop\n      jump\t// out\n        /* \"#utility.yul\":5701:5848   */\n    tag_393:\n        /* \"#utility.yul\":5796:5841   */\n      tag_521\n        /* \"#utility.yul\":5835:5840   */\n      dup2\n        /* \"#utility.yul\":5796:5841   */\n      tag_392\n      jump\t// in\n    tag_521:\n        /* \"#utility.yul\":5791:5794   */\n      dup3\n        /* \"#utility.yul\":5784:5842   */\n      mstore\n        /* \"#utility.yul\":5701:5848   */\n      pop\n      pop\n      jump\t// out\n        /* \"#utility.yul\":5854:6645   */\n    tag_150:\n        /* \"#utility.yul\":6095:6099   */\n      0x00\n        /* \"#utility.yul\":6133:6136   */\n      0xc0\n        /* \"#utility.yul\":6122:6131   */\n      dup3\n        /* \"#utility.yul\":6118:6137   */\n      add\n        /* \"#utility.yul\":6110:6137   */\n      swap1\n      pop\n        /* \"#utility.yul\":6147:6218   */\n      tag_523\n        /* \"#utility.yul\":6215:6216   */\n      0x00\n        /* \"#utility.yul\":6204:6213   */\n      dup4\n        /* \"#utility.yul\":6200:6217   */\n      add\n        /* \"#utility.yul\":6191:6197   */\n      dup10\n        /* \"#utility.yul\":6147:6218   */\n      tag_382\n      jump\t// in\n    tag_523:\n        /* \"#utility.yul\":6228:6300   */\n      tag_524\n        /* \"#utility.yul\":6296:6298   */\n      0x20\n        /* \"#utility.yul\":6285:6294   */\n      dup4\n        /* \"#utility.yul\":6281:6299   */\n      add\n        /* \"#utility.yul\":6272:6278   */\n      dup9\n        /* \"#utility.yul\":6228:6300   */\n      tag_386\n      jump\t// in\n    tag_524:\n        /* \"#utility.yul\":6310:6390   */\n      tag_525\n        /* \"#utility.yul\":6386:6388   */\n      0x40\n        /* \"#utility.yul\":6375:6384   */\n      dup4\n        /* \"#utility.yul\":6371:6389   */\n      add\n        /* \"#utility.yul\":6362:6368   */\n      dup8\n        /* \"#utility.yul\":6310:6390   */\n      tag_393\n      jump\t// in\n    tag_525:\n        /* \"#utility.yul\":6400:6472   */\n      tag_526\n        /* \"#utility.yul\":6468:6470   */\n      0x60\n        /* \"#utility.yul\":6457:6466   */\n      dup4\n        /* \"#utility.yul\":6453:6471   */\n      add\n        /* \"#utility.yul\":6444:6450   */\n      dup7\n        /* \"#utility.yul\":6400:6472   */\n      tag_386\n      jump\t// in\n    tag_526:\n        /* \"#utility.yul\":6482:6555   */\n      tag_527\n        /* \"#utility.yul\":6550:6553   */\n      0x80\n        /* \"#utility.yul\":6539:6548   */\n      dup4\n        /* \"#utility.yul\":6535:6554   */\n      add\n        /* \"#utility.yul\":6526:6532   */\n      dup6\n        /* \"#utility.yul\":6482:6555   */\n      tag_382\n      jump\t// in\n    tag_527:\n        /* \"#utility.yul\":6565:6638   */\n      tag_528\n        /* \"#utility.yul\":6633:6636   */\n      0xa0\n        /* \"#utility.yul\":6622:6631   */\n      dup4\n        /* \"#utility.yul\":6618:6637   */\n      add\n        /* \"#utility.yul\":6609:6615   */\n      dup5\n        /* \"#utility.yul\":6565:6638   */\n      tag_386\n      jump\t// in\n    tag_528:\n        /* \"#utility.yul\":5854:6645   */\n      swap8\n      swap7\n      pop\n      pop\n      pop\n      pop\n      pop\n      pop\n      pop\n      jump\t// out\n        /* \"#utility.yul\":6651:7314   */\n    tag_153:\n        /* \"#utility.yul\":6739:6745   */\n      0x00\n        /* \"#utility.yul\":6747:6753   */\n      dup1\n        /* \"#utility.yul\":6755:6761   */\n      0x00\n        /* \"#utility.yul\":6804:6806   */\n      0x60\n        /* \"#utility.yul\":6792:6801   */\n      dup5\n        /* \"#utility.yul\":6783:6790   */\n      dup7\n        /* \"#utility.yul\":6779:6802   */\n      sub\n        /* \"#utility.yul\":6775:6807   */\n      slt\n        /* \"#utility.yul\":6772:6891   */\n      iszero\n      tag_530\n      jumpi\n        /* \"#utility.yul\":6810:6889   */\n      tag_531\n      tag_376\n      jump\t// in\n    tag_531:\n        /* \"#utility.yul\":6772:6891   */\n    tag_530:\n        /* \"#utility.yul\":6930:6931   */\n      0x00\n        /* \"#utility.yul\":6955:7019   */\n      tag_532\n        /* \"#utility.yul\":7011:7018   */\n      dup7\n        /* \"#utility.yul\":7002:7008   */\n      dup3\n        /* \"#utility.yul\":6991:7000   */\n      dup8\n        /* \"#utility.yul\":6987:7009   */\n      add\n        /* \"#utility.yul\":6955:7019   */\n      tag_387\n      jump\t// in\n    tag_532:\n        /* \"#utility.yul\":6945:7019   */\n      swap4\n      pop\n        /* \"#utility.yul\":6901:7029   */\n      pop\n        /* \"#utility.yul\":7068:7070   */\n      0x20\n        /* \"#utility.yul\":7094:7158   */\n      tag_533\n        /* \"#utility.yul\":7150:7157   */\n      dup7\n        /* \"#utility.yul\":7141:7147   */\n      dup3\n        /* \"#utility.yul\":7130:7139   */\n      dup8\n        /* \"#utility.yul\":7126:7148   */\n      add\n        /* \"#utility.yul\":7094:7158   */\n      tag_387\n      jump\t// in\n    tag_533:\n        /* \"#utility.yul\":7084:7158   */\n      swap3\n      pop\n        /* \"#utility.yul\":7039:7168   */\n      pop\n        /* \"#utility.yul\":7207:7209   */\n      0x40\n        /* \"#utility.yul\":7233:7297   */\n      tag_534\n        /* \"#utility.yul\":7289:7296   */\n      dup7\n        /* \"#utility.yul\":7280:7286   */\n      dup3\n        /* \"#utility.yul\":7269:7278   */\n      dup8\n        /* \"#utility.yul\":7265:7287   */\n      add\n        /* \"#utility.yul\":7233:7297   */\n      tag_387\n      jump\t// in\n    tag_534:\n        /* \"#utility.yul\":7223:7297   */\n      swap2\n      pop\n        /* \"#utility.yul\":7178:7307   */\n      pop\n        /* \"#utility.yul\":6651:7314   */\n      swap3\n      pop\n      swap3\n      pop\n      swap3\n      jump\t// out\n        /* \"#utility.yul\":7320:7489   */\n    tag_394:\n        /* \"#utility.yul\":7404:7415   */\n      0x00\n        /* \"#utility.yul\":7438:7444   */\n      dup3\n        /* \"#utility.yul\":7433:7436   */\n      dup3\n        /* \"#utility.yul\":7426:7445   */\n      mstore\n        /* \"#utility.yul\":7478:7482   */\n      0x20\n        /* \"#utility.yul\":7473:7476   */\n      dup3\n        /* \"#utility.yul\":7469:7483   */\n      add\n        /* \"#utility.yul\":7454:7483   */\n      swap1\n      pop\n        /* \"#utility.yul\":7320:7489   */\n      swap3\n      swap2\n      pop\n      pop\n      jump\t// out\n        /* \"#utility.yul\":7495:7667   */\n    tag_395:\n        /* \"#utility.yul\":7635:7659   */\n      0x4c6971756964697479204e6f742050726f766964656400000000000000000000\n        /* \"#utility.yul\":7631:7632   */\n      0x00\n        /* \"#utility.yul\":7623:7629   */\n      dup3\n        /* \"#utility.yul\":7619:7633   */\n      add\n        /* \"#utility.yul\":7612:7660   */\n      mstore\n        /* \"#utility.yul\":7495:7667   */\n      pop\n      jump\t// out\n        /* \"#utility.yul\":7673:8039   */\n    tag_396:\n        /* \"#utility.yul\":7815:7818   */\n      0x00\n        /* \"#utility.yul\":7836:7903   */\n      tag_538\n        /* \"#utility.yul\":7900:7902   */\n      0x16\n        /* \"#utility.yul\":7895:7898   */\n      dup4\n        /* \"#utility.yul\":7836:7903   */\n      tag_394\n      jump\t// in\n    tag_538:\n        /* \"#utility.yul\":7829:7903   */\n      swap2\n      pop\n        /* \"#utility.yul\":7912:8005   */\n      tag_539\n        /* \"#utility.yul\":8001:8004   */\n      dup3\n        /* \"#utility.yul\":7912:8005   */\n      tag_395\n      jump\t// in\n    tag_539:\n        /* \"#utility.yul\":8030:8032   */\n      0x20\n        /* \"#utility.yul\":8025:8028   */\n      dup3\n        /* \"#utility.yul\":8021:8033   */\n      add\n        /* \"#utility.yul\":8014:8033   */\n      swap1\n      pop\n        /* \"#utility.yul\":7673:8039   */\n      swap2\n      swap1\n      pop\n      jump\t// out\n        /* \"#utility.yul\":8045:8464   */\n    tag_159:\n        /* \"#utility.yul\":8211:8215   */\n      0x00\n        /* \"#utility.yul\":8249:8251   */\n      0x20\n        /* \"#utility.yul\":8238:8247   */\n      dup3\n        /* \"#utility.yul\":8234:8252   */\n      add\n        /* \"#utility.yul\":8226:8252   */\n      swap1\n      pop\n        /* \"#utility.yul\":8298:8307   */\n      dup2\n        /* \"#utility.yul\":8292:8296   */\n      dup2\n        /* \"#utility.yul\":8288:8308   */\n      sub\n        /* \"#utility.yul\":8284:8285   */\n      0x00\n        /* \"#utility.yul\":8273:8282   */\n      dup4\n        /* \"#utility.yul\":8269:8286   */\n      add\n        /* \"#utility.yul\":8262:8309   */\n      mstore\n        /* \"#utility.yul\":8326:8457   */\n      tag_541\n        /* \"#utility.yul\":8452:8456   */\n      dup2\n        /* \"#utility.yul\":8326:8457   */\n      tag_396\n      jump\t// in\n    tag_541:\n        /* \"#utility.yul\":8318:8457   */\n      swap1\n      pop\n        /* \"#utility.yul\":8045:8464   */\n      swap2\n      swap1\n      pop\n      jump\t// out\n        /* \"#utility.yul\":8470:8651   */\n    tag_397:\n        /* \"#utility.yul\":8610:8643   */\n      0x6c6971756964697479205375636365737366756c6c792050726f766964656400\n        /* \"#utility.yul\":8606:8607   */\n      0x00\n        /* \"#utility.yul\":8598:8604   */\n      dup3\n        /* \"#utility.yul\":8594:8608   */\n      add\n        /* \"#utility.yul\":8587:8644   */\n      mstore\n        /* \"#utility.yul\":8470:8651   */\n      pop\n      jump\t// out\n        /* \"#utility.yul\":8657:9023   */\n    tag_398:\n        /* \"#utility.yul\":8799:8802   */\n      0x00\n        /* \"#utility.yul\":8820:8887   */\n      tag_544\n        /* \"#utility.yul\":8884:8886   */\n      0x1f\n        /* \"#utility.yul\":8879:8882   */\n      dup4\n        /* \"#utility.yul\":8820:8887   */\n      tag_394\n      jump\t// in\n    tag_544:\n        /* \"#utility.yul\":8813:8887   */\n      swap2\n      pop\n        /* \"#utility.yul\":8896:8989   */\n      tag_545\n        /* \"#utility.yul\":8985:8988   */\n      dup3\n        /* \"#utility.yul\":8896:8989   */\n      tag_397\n      jump\t// in\n    tag_545:\n        /* \"#utility.yul\":9014:9016   */\n      0x20\n        /* \"#utility.yul\":9009:9012   */\n      dup3\n        /* \"#utility.yul\":9005:9017   */\n      add\n        /* \"#utility.yul\":8998:9017   */\n      swap1\n      pop\n        /* \"#utility.yul\":8657:9023   */\n      swap2\n      swap1\n      pop\n      jump\t// out\n        /* \"#utility.yul\":9029:9448   */\n    tag_162:\n        /* \"#utility.yul\":9195:9199   */\n      0x00\n        /* \"#utility.yul\":9233:9235   */\n      0x20\n        /* \"#utility.yul\":9222:9231   */\n      dup3\n        /* \"#utility.yul\":9218:9236   */\n      add\n        /* \"#utility.yul\":9210:9236   */\n      swap1\n      pop\n        /* \"#utility.yul\":9282:9291   */\n      dup2\n        /* \"#utility.yul\":9276:9280   */\n      dup2\n        /* \"#utility.yul\":9272:9292   */\n      sub\n        /* \"#utility.yul\":9268:9269   */\n      0x00\n        /* \"#utility.yul\":9257:9266   */\n      dup4\n        /* \"#utility.yul\":9253:9270   */\n      add\n        /* \"#utility.yul\":9246:9293   */\n      mstore\n        /* \"#utility.yul\":9310:9441   */\n      tag_547\n        /* \"#utility.yul\":9436:9440   */\n      dup2\n        /* \"#utility.yul\":9310:9441   */\n      tag_398\n      jump\t// in\n    tag_547:\n        /* \"#utility.yul\":9302:9441   */\n      swap1\n      pop\n        /* \"#utility.yul\":9029:9448   */\n      swap2\n      swap1\n      pop\n      jump\t// out\n        /* \"#utility.yul\":9454:9544   */\n    tag_399:\n        /* \"#utility.yul\":9488:9495   */\n      0x00\n        /* \"#utility.yul\":9531:9536   */\n      dup2\n        /* \"#utility.yul\":9524:9537   */\n      iszero\n        /* \"#utility.yul\":9517:9538   */\n      iszero\n        /* \"#utility.yul\":9506:9538   */\n      swap1\n      pop\n        /* \"#utility.yul\":9454:9544   */\n      swap2\n      swap1\n      pop\n      jump\t// out\n        /* \"#utility.yul\":9550:9666   */\n    tag_400:\n        /* \"#utility.yul\":9620:9641   */\n      tag_550\n        /* \"#utility.yul\":9635:9640   */\n      dup2\n        /* \"#utility.yul\":9620:9641   */\n      tag_399\n      jump\t// in\n    tag_550:\n        /* \"#utility.yul\":9613:9618   */\n      dup2\n        /* \"#utility.yul\":9610:9642   */\n      eq\n        /* \"#utility.yul\":9600:9660   */\n      tag_551\n      jumpi\n        /* \"#utility.yul\":9656:9657   */\n      0x00\n        /* \"#utility.yul\":9653:9654   */\n      dup1\n        /* \"#utility.yul\":9646:9658   */\n      revert\n        /* \"#utility.yul\":9600:9660   */\n    tag_551:\n        /* \"#utility.yul\":9550:9666   */\n      pop\n      jump\t// out\n        /* \"#utility.yul\":9672:9809   */\n    tag_401:\n        /* \"#utility.yul\":9726:9731   */\n      0x00\n        /* \"#utility.yul\":9757:9763   */\n      dup2\n        /* \"#utility.yul\":9751:9764   */\n      mload\n        /* \"#utility.yul\":9742:9764   */\n      swap1\n      pop\n        /* \"#utility.yul\":9773:9803   */\n      tag_553\n        /* \"#utility.yul\":9797:9802   */\n      dup2\n        /* \"#utility.yul\":9773:9803   */\n      tag_400\n      jump\t// in\n    tag_553:\n        /* \"#utility.yul\":9672:9809   */\n      swap3\n      swap2\n      pop\n      pop\n      jump\t// out\n        /* \"#utility.yul\":9815:10160   */\n    tag_177:\n        /* \"#utility.yul\":9882:9888   */\n      0x00\n        /* \"#utility.yul\":9931:9933   */\n      0x20\n        /* \"#utility.yul\":9919:9928   */\n      dup3\n        /* \"#utility.yul\":9910:9917   */\n      dup5\n        /* \"#utility.yul\":9906:9929   */\n      sub\n        /* \"#utility.yul\":9902:9934   */\n      slt\n        /* \"#utility.yul\":9899:10018   */\n      iszero\n      tag_555\n      jumpi\n        /* \"#utility.yul\":9937:10016   */\n      tag_556\n      tag_376\n      jump\t// in\n    tag_556:\n        /* \"#utility.yul\":9899:10018   */\n    tag_555:\n        /* \"#utility.yul\":10057:10058   */\n      0x00\n        /* \"#utility.yul\":10082:10143   */\n      tag_557\n        /* \"#utility.yul\":10135:10142   */\n      dup5\n        /* \"#utility.yul\":10126:10132   */\n      dup3\n        /* \"#utility.yul\":10115:10124   */\n      dup6\n        /* \"#utility.yul\":10111:10133   */\n      add\n        /* \"#utility.yul\":10082:10143   */\n      tag_401\n      jump\t// in\n    tag_557:\n        /* \"#utility.yul\":10072:10143   */\n      swap2\n      pop\n        /* \"#utility.yul\":10028:10153   */\n      pop\n        /* \"#utility.yul\":9815:10160   */\n      swap3\n      swap2\n      pop\n      pop\n      jump\t// out\n        /* \"#utility.yul\":10166:10334   */\n    tag_402:\n        /* \"#utility.yul\":10306:10326   */\n      0x70726576696f757320486f6c6465722069730000000000000000000000000000\n        /* \"#utility.yul\":10302:10303   */\n      0x00\n        /* \"#utility.yul\":10294:10300   */\n      dup3\n        /* \"#utility.yul\":10290:10304   */\n      add\n        /* \"#utility.yul\":10283:10327   */\n      mstore\n        /* \"#utility.yul\":10166:10334   */\n      pop\n      jump\t// out\n        /* \"#utility.yul\":10340:10706   */\n    tag_403:\n        /* \"#utility.yul\":10482:10485   */\n      0x00\n        /* \"#utility.yul\":10503:10570   */\n      tag_560\n        /* \"#utility.yul\":10567:10569   */\n      0x12\n        /* \"#utility.yul\":10562:10565   */\n      dup4\n        /* \"#utility.yul\":10503:10570   */\n      tag_394\n      jump\t// in\n    tag_560:\n        /* \"#utility.yul\":10496:10570   */\n      swap2\n      pop\n        /* \"#utility.yul\":10579:10672   */\n      tag_561\n        /* \"#utility.yul\":10668:10671   */\n      dup3\n        /* \"#utility.yul\":10579:10672   */\n      tag_402\n      jump\t// in\n    tag_561:\n        /* \"#utility.yul\":10697:10699   */\n      0x20\n        /* \"#utility.yul\":10692:10695   */\n      dup3\n        /* \"#utility.yul\":10688:10700   */\n      add\n        /* \"#utility.yul\":10681:10700   */\n      swap1\n      pop\n        /* \"#utility.yul\":10340:10706   */\n      swap2\n      swap1\n      pop\n      jump\t// out\n        /* \"#utility.yul\":10712:11131   */\n    tag_224:\n        /* \"#utility.yul\":10878:10882   */\n      0x00\n        /* \"#utility.yul\":10916:10918   */\n      0x20\n        /* \"#utility.yul\":10905:10914   */\n      dup3\n        /* \"#utility.yul\":10901:10919   */\n      add\n        /* \"#utility.yul\":10893:10919   */\n      swap1\n      pop\n        /* \"#utility.yul\":10965:10974   */\n      dup2\n        /* \"#utility.yul\":10959:10963   */\n      dup2\n        /* \"#utility.yul\":10955:10975   */\n      sub\n        /* \"#utility.yul\":10951:10952   */\n      0x00\n        /* \"#utility.yul\":10940:10949   */\n      dup4\n        /* \"#utility.yul\":10936:10953   */\n      add\n        /* \"#utility.yul\":10929:10976   */\n      mstore\n        /* \"#utility.yul\":10993:11124   */\n      tag_563\n        /* \"#utility.yul\":11119:11123   */\n      dup2\n        /* \"#utility.yul\":10993:11124   */\n      tag_403\n      jump\t// in\n    tag_563:\n        /* \"#utility.yul\":10985:11124   */\n      swap1\n      pop\n        /* \"#utility.yul\":10712:11131   */\n      swap2\n      swap1\n      pop\n      jump\t// out\n        /* \"#utility.yul\":11137:11312   */\n    tag_404:\n        /* \"#utility.yul\":11277:11304   */\n      0x63757272656e74206c69717569646974792070657263656e7400000000000000\n        /* \"#utility.yul\":11273:11274   */\n      0x00\n        /* \"#utility.yul\":11265:11271   */\n      dup3\n        /* \"#utility.yul\":11261:11275   */\n      add\n        /* \"#utility.yul\":11254:11305   */\n      mstore\n        /* \"#utility.yul\":11137:11312   */\n      pop\n      jump\t// out\n        /* \"#utility.yul\":11318:11684   */\n    tag_405:\n        /* \"#utility.yul\":11460:11463   */\n      0x00\n        /* \"#utility.yul\":11481:11548   */\n      tag_566\n        /* \"#utility.yul\":11545:11547   */\n      0x19\n        /* \"#utility.yul\":11540:11543   */\n      dup4\n        /* \"#utility.yul\":11481:11548   */\n      tag_394\n      jump\t// in\n    tag_566:\n        /* \"#utility.yul\":11474:11548   */\n      swap2\n      pop\n        /* \"#utility.yul\":11557:11650   */\n      tag_567\n        /* \"#utility.yul\":11646:11649   */\n      dup3\n        /* \"#utility.yul\":11557:11650   */\n      tag_404\n      jump\t// in\n    tag_567:\n        /* \"#utility.yul\":11675:11677   */\n      0x20\n        /* \"#utility.yul\":11670:11673   */\n      dup3\n        /* \"#utility.yul\":11666:11678   */\n      add\n        /* \"#utility.yul\":11659:11678   */\n      swap1\n      pop\n        /* \"#utility.yul\":11318:11684   */\n      swap2\n      swap1\n      pop\n      jump\t// out\n        /* \"#utility.yul\":11690:12109   */\n    tag_227:\n        /* \"#utility.yul\":11856:11860   */\n      0x00\n        /* \"#utility.yul\":11894:11896   */\n      0x20\n        /* \"#utility.yul\":11883:11892   */\n      dup3\n        /* \"#utility.yul\":11879:11897   */\n      add\n        /* \"#utility.yul\":11871:11897   */\n      swap1\n      pop\n        /* \"#utility.yul\":11943:11952   */\n      dup2\n        /* \"#utility.yul\":11937:11941   */\n      dup2\n        /* \"#utility.yul\":11933:11953   */\n      sub\n        /* \"#utility.yul\":11929:11930   */\n      0x00\n        /* \"#utility.yul\":11918:11927   */\n      dup4\n        /* \"#utility.yul\":11914:11931   */\n      add\n        /* \"#utility.yul\":11907:11954   */\n      mstore\n        /* \"#utility.yul\":11971:12102   */\n      tag_569\n        /* \"#utility.yul\":12097:12101   */\n      dup2\n        /* \"#utility.yul\":11971:12102   */\n      tag_405\n      jump\t// in\n    tag_569:\n        /* \"#utility.yul\":11963:12102   */\n      swap1\n      pop\n        /* \"#utility.yul\":11690:12109   */\n      swap2\n      swap1\n      pop\n      jump\t// out\n        /* \"#utility.yul\":12115:12306   */\n    tag_234:\n        /* \"#utility.yul\":12155:12158   */\n      0x00\n        /* \"#utility.yul\":12174:12194   */\n      tag_571\n        /* \"#utility.yul\":12192:12193   */\n      dup3\n        /* \"#utility.yul\":12174:12194   */\n      tag_383\n      jump\t// in\n    tag_571:\n        /* \"#utility.yul\":12169:12194   */\n      swap2\n      pop\n        /* \"#utility.yul\":12208:12228   */\n      tag_572\n        /* \"#utility.yul\":12226:12227   */\n      dup4\n        /* \"#utility.yul\":12208:12228   */\n      tag_383\n      jump\t// in\n    tag_572:\n        /* \"#utility.yul\":12203:12228   */\n      swap3\n      pop\n        /* \"#utility.yul\":12251:12252   */\n      dup3\n        /* \"#utility.yul\":12248:12249   */\n      dup3\n        /* \"#utility.yul\":12244:12253   */\n      add\n        /* \"#utility.yul\":12237:12253   */\n      swap1\n      pop\n        /* \"#utility.yul\":12272:12275   */\n      dup1\n        /* \"#utility.yul\":12269:12270   */\n      dup3\n        /* \"#utility.yul\":12266:12276   */\n      gt\n        /* \"#utility.yul\":12263:12299   */\n      iszero\n      tag_573\n      jumpi\n        /* \"#utility.yul\":12279:12297   */\n      tag_574\n      tag_388\n      jump\t// in\n    tag_574:\n        /* \"#utility.yul\":12263:12299   */\n    tag_573:\n        /* \"#utility.yul\":12115:12306   */\n      swap3\n      swap2\n      pop\n      pop\n      jump\t// out\n        /* \"#utility.yul\":12312:12482   */\n    tag_406:\n        /* \"#utility.yul\":12452:12474   */\n      0x746f6b656e732063616e74206265206275726e74000000000000000000000000\n        /* \"#utility.yul\":12448:12449   */\n      0x00\n        /* \"#utility.yul\":12440:12446   */\n      dup3\n        /* \"#utility.yul\":12436:12450   */\n      add\n        /* \"#utility.yul\":12429:12475   */\n      mstore\n        /* \"#utility.yul\":12312:12482   */\n      pop\n      jump\t// out\n        /* \"#utility.yul\":12488:12854   */\n    tag_407:\n        /* \"#utility.yul\":12630:12633   */\n      0x00\n        /* \"#utility.yul\":12651:12718   */\n      tag_577\n        /* \"#utility.yul\":12715:12717   */\n      0x14\n        /* \"#utility.yul\":12710:12713   */\n      dup4\n        /* \"#utility.yul\":12651:12718   */\n      tag_394\n      jump\t// in\n    tag_577:\n        /* \"#utility.yul\":12644:12718   */\n      swap2\n      pop\n        /* \"#utility.yul\":12727:12820   */\n      tag_578\n        /* \"#utility.yul\":12816:12819   */\n      dup3\n        /* \"#utility.yul\":12727:12820   */\n      tag_406\n      jump\t// in\n    tag_578:\n        /* \"#utility.yul\":12845:12847   */\n      0x20\n        /* \"#utility.yul\":12840:12843   */\n      dup3\n        /* \"#utility.yul\":12836:12848   */\n      add\n        /* \"#utility.yul\":12829:12848   */\n      swap1\n      pop\n        /* \"#utility.yul\":12488:12854   */\n      swap2\n      swap1\n      pop\n      jump\t// out\n        /* \"#utility.yul\":12860:13279   */\n    tag_252:\n        /* \"#utility.yul\":13026:13030   */\n      0x00\n        /* \"#utility.yul\":13064:13066   */\n      0x20\n        /* \"#utility.yul\":13053:13062   */\n      dup3\n        /* \"#utility.yul\":13049:13067   */\n      add\n        /* \"#utility.yul\":13041:13067   */\n      swap1\n      pop\n        /* \"#utility.yul\":13113:13122   */\n      dup2\n        /* \"#utility.yul\":13107:13111   */\n      dup2\n        /* \"#utility.yul\":13103:13123   */\n      sub\n        /* \"#utility.yul\":13099:13100   */\n      0x00\n        /* \"#utility.yul\":13088:13097   */\n      dup4\n        /* \"#utility.yul\":13084:13101   */\n      add\n        /* \"#utility.yul\":13077:13124   */\n      mstore\n        /* \"#utility.yul\":13141:13272   */\n      tag_580\n        /* \"#utility.yul\":13267:13271   */\n      dup2\n        /* \"#utility.yul\":13141:13272   */\n      tag_407\n      jump\t// in\n    tag_580:\n        /* \"#utility.yul\":13133:13272   */\n      swap1\n      pop\n        /* \"#utility.yul\":12860:13279   */\n      swap2\n      swap1\n      pop\n      jump\t// out\n        /* \"#utility.yul\":13285:13457   */\n    tag_408:\n        /* \"#utility.yul\":13425:13449   */\n      0x746f6b656e732068617665206265656e206275726e7400000000000000000000\n        /* \"#utility.yul\":13421:13422   */\n      0x00\n        /* \"#utility.yul\":13413:13419   */\n      dup3\n        /* \"#utility.yul\":13409:13423   */\n      add\n        /* \"#utility.yul\":13402:13450   */\n      mstore\n        /* \"#utility.yul\":13285:13457   */\n      pop\n      jump\t// out\n        /* \"#utility.yul\":13463:13829   */\n    tag_409:\n        /* \"#utility.yul\":13605:13608   */\n      0x00\n        /* \"#utility.yul\":13626:13693   */\n      tag_583\n        /* \"#utility.yul\":13690:13692   */\n      0x16\n        /* \"#utility.yul\":13685:13688   */\n      dup4\n        /* \"#utility.yul\":13626:13693   */\n      tag_394\n      jump\t// in\n    tag_583:\n        /* \"#utility.yul\":13619:13693   */\n      swap2\n      pop\n        /* \"#utility.yul\":13702:13795   */\n      tag_584\n        /* \"#utility.yul\":13791:13794   */\n      dup3\n        /* \"#utility.yul\":13702:13795   */\n      tag_408\n      jump\t// in\n    tag_584:\n        /* \"#utility.yul\":13820:13822   */\n      0x20\n        /* \"#utility.yul\":13815:13818   */\n      dup3\n        /* \"#utility.yul\":13811:13823   */\n      add\n        /* \"#utility.yul\":13804:13823   */\n      swap1\n      pop\n        /* \"#utility.yul\":13463:13829   */\n      swap2\n      swap1\n      pop\n      jump\t// out\n        /* \"#utility.yul\":13835:14254   */\n    tag_255:\n        /* \"#utility.yul\":14001:14005   */\n      0x00\n        /* \"#utility.yul\":14039:14041   */\n      0x20\n        /* \"#utility.yul\":14028:14037   */\n      dup3\n        /* \"#utility.yul\":14024:14042   */\n      add\n        /* \"#utility.yul\":14016:14042   */\n      swap1\n      pop\n        /* \"#utility.yul\":14088:14097   */\n      dup2\n        /* \"#utility.yul\":14082:14086   */\n      dup2\n        /* \"#utility.yul\":14078:14098   */\n      sub\n        /* \"#utility.yul\":14074:14075   */\n      0x00\n        /* \"#utility.yul\":14063:14072   */\n      dup4\n        /* \"#utility.yul\":14059:14076   */\n      add\n        /* \"#utility.yul\":14052:14099   */\n      mstore\n        /* \"#utility.yul\":14116:14247   */\n      tag_586\n        /* \"#utility.yul\":14242:14246   */\n      dup2\n        /* \"#utility.yul\":14116:14247   */\n      tag_409\n      jump\t// in\n    tag_586:\n        /* \"#utility.yul\":14108:14247   */\n      swap1\n      pop\n        /* \"#utility.yul\":13835:14254   */\n      swap2\n      swap1\n      pop\n      jump\t// out\n        /* \"#utility.yul\":14260:14439   */\n    tag_410:\n        /* \"#utility.yul\":14400:14431   */\n      0x70726963652063616e7420626520676f742066726f6d204f7261636c65000000\n        /* \"#utility.yul\":14396:14397   */\n      0x00\n        /* \"#utility.yul\":14388:14394   */\n      dup3\n        /* \"#utility.yul\":14384:14398   */\n      add\n        /* \"#utility.yul\":14377:14432   */\n      mstore\n        /* \"#utility.yul\":14260:14439   */\n      pop\n      jump\t// out\n        /* \"#utility.yul\":14445:14811   */\n    tag_411:\n        /* \"#utility.yul\":14587:14590   */\n      0x00\n        /* \"#utility.yul\":14608:14675   */\n      tag_589\n        /* \"#utility.yul\":14672:14674   */\n      0x1d\n        /* \"#utility.yul\":14667:14670   */\n      dup4\n        /* \"#utility.yul\":14608:14675   */\n      tag_394\n      jump\t// in\n    tag_589:\n        /* \"#utility.yul\":14601:14675   */\n      swap2\n      pop\n        /* \"#utility.yul\":14684:14777   */\n      tag_590\n        /* \"#utility.yul\":14773:14776   */\n      dup3\n        /* \"#utility.yul\":14684:14777   */\n      tag_410\n      jump\t// in\n    tag_590:\n        /* \"#utility.yul\":14802:14804   */\n      0x20\n        /* \"#utility.yul\":14797:14800   */\n      dup3\n        /* \"#utility.yul\":14793:14805   */\n      add\n        /* \"#utility.yul\":14786:14805   */\n      swap1\n      pop\n        /* \"#utility.yul\":14445:14811   */\n      swap2\n      swap1\n      pop\n      jump\t// out\n        /* \"#utility.yul\":14817:15236   */\n    tag_306:\n        /* \"#utility.yul\":14983:14987   */\n      0x00\n        /* \"#utility.yul\":15021:15023   */\n      0x20\n        /* \"#utility.yul\":15010:15019   */\n      dup3\n        /* \"#utility.yul\":15006:15024   */\n      add\n        /* \"#utility.yul\":14998:15024   */\n      swap1\n      pop\n        /* \"#utility.yul\":15070:15079   */\n      dup2\n        /* \"#utility.yul\":15064:15068   */\n      dup2\n        /* \"#utility.yul\":15060:15080   */\n      sub\n        /* \"#utility.yul\":15056:15057   */\n      0x00\n        /* \"#utility.yul\":15045:15054   */\n      dup4\n        /* \"#utility.yul\":15041:15058   */\n      add\n        /* \"#utility.yul\":15034:15081   */\n      mstore\n        /* \"#utility.yul\":15098:15229   */\n      tag_592\n        /* \"#utility.yul\":15224:15228   */\n      dup2\n        /* \"#utility.yul\":15098:15229   */\n      tag_411\n      jump\t// in\n    tag_592:\n        /* \"#utility.yul\":15090:15229   */\n      swap1\n      pop\n        /* \"#utility.yul\":14817:15236   */\n      swap2\n      swap1\n      pop\n      jump\t// out\n        /* \"#utility.yul\":15242:15467   */\n    tag_412:\n        /* \"#utility.yul\":15382:15416   */\n      0x707269636520676f742066726f6d204f7261636c652062757420636f756c646e\n        /* \"#utility.yul\":15378:15379   */\n      0x00\n        /* \"#utility.yul\":15370:15376   */\n      dup3\n        /* \"#utility.yul\":15366:15380   */\n      add\n        /* \"#utility.yul\":15359:15417   */\n      mstore\n        /* \"#utility.yul\":15451:15459   */\n      0x74206d696e740000000000000000000000000000000000000000000000000000\n        /* \"#utility.yul\":15446:15448   */\n      0x20\n        /* \"#utility.yul\":15438:15444   */\n      dup3\n        /* \"#utility.yul\":15434:15449   */\n      add\n        /* \"#utility.yul\":15427:15460   */\n      mstore\n        /* \"#utility.yul\":15242:15467   */\n      pop\n      jump\t// out\n        /* \"#utility.yul\":15473:15839   */\n    tag_413:\n        /* \"#utility.yul\":15615:15618   */\n      0x00\n        /* \"#utility.yul\":15636:15703   */\n      tag_595\n        /* \"#utility.yul\":15700:15702   */\n      0x26\n        /* \"#utility.yul\":15695:15698   */\n      dup4\n        /* \"#utility.yul\":15636:15703   */\n      tag_394\n      jump\t// in\n    tag_595:\n        /* \"#utility.yul\":15629:15703   */\n      swap2\n      pop\n        /* \"#utility.yul\":15712:15805   */\n      tag_596\n        /* \"#utility.yul\":15801:15804   */\n      dup3\n        /* \"#utility.yul\":15712:15805   */\n      tag_412\n      jump\t// in\n    tag_596:\n        /* \"#utility.yul\":15830:15832   */\n      0x40\n        /* \"#utility.yul\":15825:15828   */\n      dup3\n        /* \"#utility.yul\":15821:15833   */\n      add\n        /* \"#utility.yul\":15814:15833   */\n      swap1\n      pop\n        /* \"#utility.yul\":15473:15839   */\n      swap2\n      swap1\n      pop\n      jump\t// out\n        /* \"#utility.yul\":15845:16264   */\n    tag_320:\n        /* \"#utility.yul\":16011:16015   */\n      0x00\n        /* \"#utility.yul\":16049:16051   */\n      0x20\n        /* \"#utility.yul\":16038:16047   */\n      dup3\n        /* \"#utility.yul\":16034:16052   */\n      add\n        /* \"#utility.yul\":16026:16052   */\n      swap1\n      pop\n        /* \"#utility.yul\":16098:16107   */\n      dup2\n        /* \"#utility.yul\":16092:16096   */\n      dup2\n        /* \"#utility.yul\":16088:16108   */\n      sub\n        /* \"#utility.yul\":16084:16085   */\n      0x00\n        /* \"#utility.yul\":16073:16082   */\n      dup4\n        /* \"#utility.yul\":16069:16086   */\n      add\n        /* \"#utility.yul\":16062:16109   */\n      mstore\n        /* \"#utility.yul\":16126:16257   */\n      tag_598\n        /* \"#utility.yul\":16252:16256   */\n      dup2\n        /* \"#utility.yul\":16126:16257   */\n      tag_413\n      jump\t// in\n    tag_598:\n        /* \"#utility.yul\":16118:16257   */\n      swap1\n      pop\n        /* \"#utility.yul\":15845:16264   */\n      swap2\n      swap1\n      pop\n      jump\t// out\n        /* \"#utility.yul\":16270:16452   */\n    tag_414:\n        /* \"#utility.yul\":16410:16444   */\n      0x746f6b656e73206d696e74656420746f2070726576696f757320686f6c646572\n        /* \"#utility.yul\":16406:16407   */\n      0x00\n        /* \"#utility.yul\":16398:16404   */\n      dup3\n        /* \"#utility.yul\":16394:16408   */\n      add\n        /* \"#utility.yul\":16387:16445   */\n      mstore\n        /* \"#utility.yul\":16270:16452   */\n      pop\n      jump\t// out\n        /* \"#utility.yul\":16458:16824   */\n    tag_415:\n        /* \"#utility.yul\":16600:16603   */\n      0x00\n        /* \"#utility.yul\":16621:16688   */\n      tag_601\n        /* \"#utility.yul\":16685:16687   */\n      0x20\n        /* \"#utility.yul\":16680:16683   */\n      dup4\n        /* \"#utility.yul\":16621:16688   */\n      tag_394\n      jump\t// in\n    tag_601:\n        /* \"#utility.yul\":16614:16688   */\n      swap2\n      pop\n        /* \"#utility.yul\":16697:16790   */\n      tag_602\n        /* \"#utility.yul\":16786:16789   */\n      dup3\n        /* \"#utility.yul\":16697:16790   */\n      tag_414\n      jump\t// in\n    tag_602:\n        /* \"#utility.yul\":16815:16817   */\n      0x20\n        /* \"#utility.yul\":16810:16813   */\n      dup3\n        /* \"#utility.yul\":16806:16818   */\n      add\n        /* \"#utility.yul\":16799:16818   */\n      swap1\n      pop\n        /* \"#utility.yul\":16458:16824   */\n      swap2\n      swap1\n      pop\n      jump\t// out\n        /* \"#utility.yul\":16830:17249   */\n    tag_323:\n        /* \"#utility.yul\":16996:17000   */\n      0x00\n        /* \"#utility.yul\":17034:17036   */\n      0x20\n        /* \"#utility.yul\":17023:17032   */\n      dup3\n        /* \"#utility.yul\":17019:17037   */\n      add\n        /* \"#utility.yul\":17011:17037   */\n      swap1\n      pop\n        /* \"#utility.yul\":17083:17092   */\n      dup2\n        /* \"#utility.yul\":17077:17081   */\n      dup2\n        /* \"#utility.yul\":17073:17093   */\n      sub\n        /* \"#utility.yul\":17069:17070   */\n      0x00\n        /* \"#utility.yul\":17058:17067   */\n      dup4\n        /* \"#utility.yul\":17054:17071   */\n      add\n        /* \"#utility.yul\":17047:17094   */\n      mstore\n        /* \"#utility.yul\":17111:17242   */\n      tag_604\n        /* \"#utility.yul\":17237:17241   */\n      dup2\n        /* \"#utility.yul\":17111:17242   */\n      tag_415\n      jump\t// in\n    tag_604:\n        /* \"#utility.yul\":17103:17242   */\n      swap1\n      pop\n        /* \"#utility.yul\":16830:17249   */\n      swap2\n      swap1\n      pop\n      jump\t// out\n        /* \"#utility.yul\":17255:17475   */\n    tag_416:\n        /* \"#utility.yul\":17395:17429   */\n      0x63616e74206765742062616c616e6365206f66207468697320636f6e74726163\n        /* \"#utility.yul\":17391:17392   */\n      0x00\n        /* \"#utility.yul\":17383:17389   */\n      dup3\n        /* \"#utility.yul\":17379:17393   */\n      add\n        /* \"#utility.yul\":17372:17430   */\n      mstore\n        /* \"#utility.yul\":17464:17467   */\n      0x7400000000000000000000000000000000000000000000000000000000000000\n        /* \"#utility.yul\":17459:17461   */\n      0x20\n        /* \"#utility.yul\":17451:17457   */\n      dup3\n        /* \"#utility.yul\":17447:17462   */\n      add\n        /* \"#utility.yul\":17440:17468   */\n      mstore\n        /* \"#utility.yul\":17255:17475   */\n      pop\n      jump\t// out\n        /* \"#utility.yul\":17481:17847   */\n    tag_417:\n        /* \"#utility.yul\":17623:17626   */\n      0x00\n        /* \"#utility.yul\":17644:17711   */\n      tag_607\n        /* \"#utility.yul\":17708:17710   */\n      0x21\n        /* \"#utility.yul\":17703:17706   */\n      dup4\n        /* \"#utility.yul\":17644:17711   */\n      tag_394\n      jump\t// in\n    tag_607:\n        /* \"#utility.yul\":17637:17711   */\n      swap2\n      pop\n        /* \"#utility.yul\":17720:17813   */\n      tag_608\n        /* \"#utility.yul\":17809:17812   */\n      dup3\n        /* \"#utility.yul\":17720:17813   */\n      tag_416\n      jump\t// in\n    tag_608:\n        /* \"#utility.yul\":17838:17840   */\n      0x40\n        /* \"#utility.yul\":17833:17836   */\n      dup3\n        /* \"#utility.yul\":17829:17841   */\n      add\n        /* \"#utility.yul\":17822:17841   */\n      swap1\n      pop\n        /* \"#utility.yul\":17481:17847   */\n      swap2\n      swap1\n      pop\n      jump\t// out\n        /* \"#utility.yul\":17853:18272   */\n    tag_333:\n        /* \"#utility.yul\":18019:18023   */\n      0x00\n        /* \"#utility.yul\":18057:18059   */\n      0x20\n        /* \"#utility.yul\":18046:18055   */\n      dup3\n        /* \"#utility.yul\":18042:18060   */\n      add\n        /* \"#utility.yul\":18034:18060   */\n      swap1\n      pop\n        /* \"#utility.yul\":18106:18115   */\n      dup2\n        /* \"#utility.yul\":18100:18104   */\n      dup2\n        /* \"#utility.yul\":18096:18116   */\n      sub\n        /* \"#utility.yul\":18092:18093   */\n      0x00\n        /* \"#utility.yul\":18081:18090   */\n      dup4\n        /* \"#utility.yul\":18077:18094   */\n      add\n        /* \"#utility.yul\":18070:18117   */\n      mstore\n        /* \"#utility.yul\":18134:18265   */\n      tag_610\n        /* \"#utility.yul\":18260:18264   */\n      dup2\n        /* \"#utility.yul\":18134:18265   */\n      tag_417\n      jump\t// in\n    tag_610:\n        /* \"#utility.yul\":18126:18265   */\n      swap1\n      pop\n        /* \"#utility.yul\":17853:18272   */\n      swap2\n      swap1\n      pop\n      jump\t// out\n        /* \"#utility.yul\":18278:18454   */\n    tag_418:\n        /* \"#utility.yul\":18418:18446   */\n      0x63616e74206765742070726963652066726f6d204f7261636c65000000000000\n        /* \"#utility.yul\":18414:18415   */\n      0x00\n        /* \"#utility.yul\":18406:18412   */\n      dup3\n        /* \"#utility.yul\":18402:18416   */\n      add\n        /* \"#utility.yul\":18395:18447   */\n      mstore\n        /* \"#utility.yul\":18278:18454   */\n      pop\n      jump\t// out\n        /* \"#utility.yul\":18460:18826   */\n    tag_419:\n        /* \"#utility.yul\":18602:18605   */\n      0x00\n        /* \"#utility.yul\":18623:18690   */\n      tag_613\n        /* \"#utility.yul\":18687:18689   */\n      0x1a\n        /* \"#utility.yul\":18682:18685   */\n      dup4\n        /* \"#utility.yul\":18623:18690   */\n      tag_394\n      jump\t// in\n    tag_613:\n        /* \"#utility.yul\":18616:18690   */\n      swap2\n      pop\n        /* \"#utility.yul\":18699:18792   */\n      tag_614\n        /* \"#utility.yul\":18788:18791   */\n      dup3\n        /* \"#utility.yul\":18699:18792   */\n      tag_418\n      jump\t// in\n    tag_614:\n        /* \"#utility.yul\":18817:18819   */\n      0x20\n        /* \"#utility.yul\":18812:18815   */\n      dup3\n        /* \"#utility.yul\":18808:18820   */\n      add\n        /* \"#utility.yul\":18801:18820   */\n      swap1\n      pop\n        /* \"#utility.yul\":18460:18826   */\n      swap2\n      swap1\n      pop\n      jump\t// out\n        /* \"#utility.yul\":18832:19251   */\n    tag_347:\n        /* \"#utility.yul\":18998:19002   */\n      0x00\n        /* \"#utility.yul\":19036:19038   */\n      0x20\n        /* \"#utility.yul\":19025:19034   */\n      dup3\n        /* \"#utility.yul\":19021:19039   */\n      add\n        /* \"#utility.yul\":19013:19039   */\n      swap1\n      pop\n        /* \"#utility.yul\":19085:19094   */\n      dup2\n        /* \"#utility.yul\":19079:19083   */\n      dup2\n        /* \"#utility.yul\":19075:19095   */\n      sub\n        /* \"#utility.yul\":19071:19072   */\n      0x00\n        /* \"#utility.yul\":19060:19069   */\n      dup4\n        /* \"#utility.yul\":19056:19073   */\n      add\n        /* \"#utility.yul\":19049:19096   */\n      mstore\n        /* \"#utility.yul\":19113:19244   */\n      tag_616\n        /* \"#utility.yul\":19239:19243   */\n      dup2\n        /* \"#utility.yul\":19113:19244   */\n      tag_419\n      jump\t// in\n    tag_616:\n        /* \"#utility.yul\":19105:19244   */\n      swap1\n      pop\n        /* \"#utility.yul\":18832:19251   */\n      swap2\n      swap1\n      pop\n      jump\t// out\n        /* \"#utility.yul\":19257:19433   */\n    tag_420:\n        /* \"#utility.yul\":19397:19425   */\n      0x6e756d626572206f6620546f6b656e7320746f20427579206973000000000000\n        /* \"#utility.yul\":19393:19394   */\n      0x00\n        /* \"#utility.yul\":19385:19391   */\n      dup3\n        /* \"#utility.yul\":19381:19395   */\n      add\n        /* \"#utility.yul\":19374:19426   */\n      mstore\n        /* \"#utility.yul\":19257:19433   */\n      pop\n      jump\t// out\n        /* \"#utility.yul\":19439:19805   */\n    tag_421:\n        /* \"#utility.yul\":19581:19584   */\n      0x00\n        /* \"#utility.yul\":19602:19669   */\n      tag_619\n        /* \"#utility.yul\":19666:19668   */\n      0x1a\n        /* \"#utility.yul\":19661:19664   */\n      dup4\n        /* \"#utility.yul\":19602:19669   */\n      tag_394\n      jump\t// in\n    tag_619:\n        /* \"#utility.yul\":19595:19669   */\n      swap2\n      pop\n        /* \"#utility.yul\":19678:19771   */\n      tag_620\n        /* \"#utility.yul\":19767:19770   */\n      dup3\n        /* \"#utility.yul\":19678:19771   */\n      tag_420\n      jump\t// in\n    tag_620:\n        /* \"#utility.yul\":19796:19798   */\n      0x20\n        /* \"#utility.yul\":19791:19794   */\n      dup3\n        /* \"#utility.yul\":19787:19799   */\n      add\n        /* \"#utility.yul\":19780:19799   */\n      swap1\n      pop\n        /* \"#utility.yul\":19439:19805   */\n      swap2\n      swap1\n      pop\n      jump\t// out\n        /* \"#utility.yul\":19811:20230   */\n    tag_354:\n        /* \"#utility.yul\":19977:19981   */\n      0x00\n        /* \"#utility.yul\":20015:20017   */\n      0x20\n        /* \"#utility.yul\":20004:20013   */\n      dup3\n        /* \"#utility.yul\":20000:20018   */\n      add\n        /* \"#utility.yul\":19992:20018   */\n      swap1\n      pop\n        /* \"#utility.yul\":20064:20073   */\n      dup2\n        /* \"#utility.yul\":20058:20062   */\n      dup2\n        /* \"#utility.yul\":20054:20074   */\n      sub\n        /* \"#utility.yul\":20050:20051   */\n      0x00\n        /* \"#utility.yul\":20039:20048   */\n      dup4\n        /* \"#utility.yul\":20035:20052   */\n      add\n        /* \"#utility.yul\":20028:20075   */\n      mstore\n        /* \"#utility.yul\":20092:20223   */\n      tag_622\n        /* \"#utility.yul\":20218:20222   */\n      dup2\n        /* \"#utility.yul\":20092:20223   */\n      tag_421\n      jump\t// in\n    tag_622:\n        /* \"#utility.yul\":20084:20223   */\n      swap1\n      pop\n        /* \"#utility.yul\":19811:20230   */\n      swap2\n      swap1\n      pop\n      jump\t// out\n        /* \"#utility.yul\":20236:20347   */\n    tag_422:\n        /* \"#utility.yul\":20300:20306   */\n      0x00\n        /* \"#utility.yul\":20334:20339   */\n      dup2\n        /* \"#utility.yul\":20328:20340   */\n      sload\n        /* \"#utility.yul\":20318:20340   */\n      swap1\n      pop\n        /* \"#utility.yul\":20236:20347   */\n      swap2\n      swap1\n      pop\n      jump\t// out\n        /* \"#utility.yul\":20353:20537   */\n    tag_423:\n        /* \"#utility.yul\":20452:20463   */\n      0x00\n        /* \"#utility.yul\":20486:20492   */\n      dup3\n        /* \"#utility.yul\":20481:20484   */\n      dup3\n        /* \"#utility.yul\":20474:20493   */\n      mstore\n        /* \"#utility.yul\":20526:20530   */\n      0x20\n        /* \"#utility.yul\":20521:20524   */\n      dup3\n        /* \"#utility.yul\":20517:20531   */\n      add\n        /* \"#utility.yul\":20502:20531   */\n      swap1\n      pop\n        /* \"#utility.yul\":20353:20537   */\n      swap3\n      swap2\n      pop\n      pop\n      jump\t// out\n        /* \"#utility.yul\":20543:20699   */\n    tag_424:\n        /* \"#utility.yul\":20607:20611   */\n      0x00\n        /* \"#utility.yul\":20630:20633   */\n      dup2\n        /* \"#utility.yul\":20622:20633   */\n      swap1\n      pop\n        /* \"#utility.yul\":20653:20656   */\n      dup2\n        /* \"#utility.yul\":20650:20651   */\n      0x00\n        /* \"#utility.yul\":20643:20657   */\n      mstore\n        /* \"#utility.yul\":20687:20691   */\n      0x20\n        /* \"#utility.yul\":20684:20685   */\n      0x00\n        /* \"#utility.yul\":20674:20692   */\n      keccak256\n        /* \"#utility.yul\":20666:20692   */\n      swap1\n      pop\n        /* \"#utility.yul\":20543:20699   */\n      swap2\n      swap1\n      pop\n      jump\t// out\n        /* \"#utility.yul\":20705:20813   */\n    tag_425:\n        /* \"#utility.yul\":20782:20806   */\n      tag_627\n        /* \"#utility.yul\":20800:20805   */\n      dup2\n        /* \"#utility.yul\":20782:20806   */\n      tag_379\n      jump\t// in\n    tag_627:\n        /* \"#utility.yul\":20777:20780   */\n      dup3\n        /* \"#utility.yul\":20770:20807   */\n      mstore\n        /* \"#utility.yul\":20705:20813   */\n      pop\n      pop\n      jump\t// out\n        /* \"#utility.yul\":20819:20998   */\n    tag_426:\n        /* \"#utility.yul\":20888:20898   */\n      0x00\n        /* \"#utility.yul\":20909:20955   */\n      tag_629\n        /* \"#utility.yul\":20951:20954   */\n      dup4\n        /* \"#utility.yul\":20943:20949   */\n      dup4\n        /* \"#utility.yul\":20909:20955   */\n      tag_425\n      jump\t// in\n    tag_629:\n        /* \"#utility.yul\":20987:20991   */\n      0x20\n        /* \"#utility.yul\":20982:20985   */\n      dup4\n        /* \"#utility.yul\":20978:20992   */\n      add\n        /* \"#utility.yul\":20964:20992   */\n      swap1\n      pop\n        /* \"#utility.yul\":20819:20998   */\n      swap3\n      swap2\n      pop\n      pop\n      jump\t// out\n        /* \"#utility.yul\":21004:21106   */\n    tag_427:\n        /* \"#utility.yul\":21046:21054   */\n      0x00\n        /* \"#utility.yul\":21093:21098   */\n      dup2\n        /* \"#utility.yul\":21090:21091   */\n      0x00\n        /* \"#utility.yul\":21086:21099   */\n      shr\n        /* \"#utility.yul\":21065:21099   */\n      swap1\n      pop\n        /* \"#utility.yul\":21004:21106   */\n      swap2\n      swap1\n      pop\n      jump\t// out\n        /* \"#utility.yul\":21112:21251   */\n    tag_428:\n        /* \"#utility.yul\":21162:21169   */\n      0x00\n        /* \"#utility.yul\":21202:21244   */\n      0xffffffffffffffffffffffffffffffffffffffff\n        /* \"#utility.yul\":21195:21200   */\n      dup3\n        /* \"#utility.yul\":21191:21245   */\n      and\n        /* \"#utility.yul\":21180:21245   */\n      swap1\n      pop\n        /* \"#utility.yul\":21112:21251   */\n      swap2\n      swap1\n      pop\n      jump\t// out\n        /* \"#utility.yul\":21257:21423   */\n    tag_429:\n        /* \"#utility.yul\":21326:21331   */\n      0x00\n        /* \"#utility.yul\":21351:21417   */\n      tag_633\n        /* \"#utility.yul\":21382:21416   */\n      tag_634\n        /* \"#utility.yul\":21405:21415   */\n      dup4\n        /* \"#utility.yul\":21382:21416   */\n      tag_427\n      jump\t// in\n    tag_634:\n        /* \"#utility.yul\":21351:21417   */\n      tag_428\n      jump\t// in\n    tag_633:\n        /* \"#utility.yul\":21342:21417   */\n      swap1\n      pop\n        /* \"#utility.yul\":21257:21423   */\n      swap2\n      swap1\n      pop\n      jump\t// out\n        /* \"#utility.yul\":21429:21573   */\n    tag_430:\n        /* \"#utility.yul\":21484:21489   */\n      0x00\n        /* \"#utility.yul\":21509:21566   */\n      tag_636\n        /* \"#utility.yul\":21560:21564   */\n      dup3\n        /* \"#utility.yul\":21554:21565   */\n      sload\n        /* \"#utility.yul\":21509:21566   */\n      tag_429\n      jump\t// in\n    tag_636:\n        /* \"#utility.yul\":21500:21566   */\n      swap1\n      pop\n        /* \"#utility.yul\":21429:21573   */\n      swap2\n      swap1\n      pop\n      jump\t// out\n        /* \"#utility.yul\":21579:21689   */\n    tag_431:\n        /* \"#utility.yul\":21646:21650   */\n      0x00\n        /* \"#utility.yul\":21678:21682   */\n      0x01\n        /* \"#utility.yul\":21673:21676   */\n      dup3\n        /* \"#utility.yul\":21669:21683   */\n      add\n        /* \"#utility.yul\":21661:21683   */\n      swap1\n      pop\n        /* \"#utility.yul\":21579:21689   */\n      swap2\n      swap1\n      pop\n      jump\t// out\n        /* \"#utility.yul\":21725:22476   */\n    tag_432:\n        /* \"#utility.yul\":21841:21844   */\n      0x00\n        /* \"#utility.yul\":21870:21921   */\n      tag_639\n        /* \"#utility.yul\":21915:21920   */\n      dup3\n        /* \"#utility.yul\":21870:21921   */\n      tag_422\n      jump\t// in\n    tag_639:\n        /* \"#utility.yul\":21937:22023   */\n      tag_640\n        /* \"#utility.yul\":22016:22022   */\n      dup2\n        /* \"#utility.yul\":22011:22014   */\n      dup6\n        /* \"#utility.yul\":21937:22023   */\n      tag_423\n      jump\t// in\n    tag_640:\n        /* \"#utility.yul\":21930:22023   */\n      swap4\n      pop\n        /* \"#utility.yul\":22047:22100   */\n      tag_641\n        /* \"#utility.yul\":22094:22099   */\n      dup4\n        /* \"#utility.yul\":22047:22100   */\n      tag_424\n      jump\t// in\n    tag_641:\n        /* \"#utility.yul\":22123:22130   */\n      dup1\n        /* \"#utility.yul\":22154:22155   */\n      0x00\n        /* \"#utility.yul\":22139:22451   */\n    tag_642:\n        /* \"#utility.yul\":22164:22170   */\n      dup4\n        /* \"#utility.yul\":22161:22162   */\n      dup2\n        /* \"#utility.yul\":22158:22171   */\n      lt\n        /* \"#utility.yul\":22139:22451   */\n      iszero\n      tag_644\n      jumpi\n        /* \"#utility.yul\":22234:22278   */\n      tag_645\n        /* \"#utility.yul\":22271:22277   */\n      dup3\n        /* \"#utility.yul\":22234:22278   */\n      tag_430\n      jump\t// in\n    tag_645:\n        /* \"#utility.yul\":22298:22361   */\n      tag_646\n        /* \"#utility.yul\":22357:22360   */\n      dup9\n        /* \"#utility.yul\":22342:22355   */\n      dup3\n        /* \"#utility.yul\":22298:22361   */\n      tag_426\n      jump\t// in\n    tag_646:\n        /* \"#utility.yul\":22291:22361   */\n      swap8\n      pop\n        /* \"#utility.yul\":22384:22441   */\n      tag_647\n        /* \"#utility.yul\":22434:22440   */\n      dup4\n        /* \"#utility.yul\":22384:22441   */\n      tag_431\n      jump\t// in\n    tag_647:\n        /* \"#utility.yul\":22374:22441   */\n      swap3\n      pop\n        /* \"#utility.yul\":22199:22451   */\n      pop\n        /* \"#utility.yul\":22186:22187   */\n      0x01\n        /* \"#utility.yul\":22183:22184   */\n      dup2\n        /* \"#utility.yul\":22179:22188   */\n      add\n        /* \"#utility.yul\":22174:22188   */\n      swap1\n      pop\n        /* \"#utility.yul\":22139:22451   */\n      jump(tag_642)\n    tag_644:\n        /* \"#utility.yul\":22143:22157   */\n      pop\n        /* \"#utility.yul\":22467:22470   */\n      dup6\n        /* \"#utility.yul\":22460:22470   */\n      swap4\n      pop\n        /* \"#utility.yul\":21846:22476   */\n      pop\n      pop\n      pop\n        /* \"#utility.yul\":21725:22476   */\n      swap3\n      swap2\n      pop\n      pop\n      jump\t// out\n        /* \"#utility.yul\":22482:23180   */\n    tag_357:\n        /* \"#utility.yul\":22706:22710   */\n      0x00\n        /* \"#utility.yul\":22744:22747   */\n      0x80\n        /* \"#utility.yul\":22733:22742   */\n      dup3\n        /* \"#utility.yul\":22729:22748   */\n      add\n        /* \"#utility.yul\":22721:22748   */\n      swap1\n      pop\n        /* \"#utility.yul\":22758:22829   */\n      tag_649\n        /* \"#utility.yul\":22826:22827   */\n      0x00\n        /* \"#utility.yul\":22815:22824   */\n      dup4\n        /* \"#utility.yul\":22811:22828   */\n      add\n        /* \"#utility.yul\":22802:22808   */\n      dup8\n        /* \"#utility.yul\":22758:22829   */\n      tag_386\n      jump\t// in\n    tag_649:\n        /* \"#utility.yul\":22876:22885   */\n      dup2\n        /* \"#utility.yul\":22870:22874   */\n      dup2\n        /* \"#utility.yul\":22866:22886   */\n      sub\n        /* \"#utility.yul\":22861:22863   */\n      0x20\n        /* \"#utility.yul\":22850:22859   */\n      dup4\n        /* \"#utility.yul\":22846:22864   */\n      add\n        /* \"#utility.yul\":22839:22887   */\n      mstore\n        /* \"#utility.yul\":22904:23009   */\n      tag_650\n        /* \"#utility.yul\":23004:23008   */\n      dup2\n        /* \"#utility.yul\":22995:23001   */\n      dup7\n        /* \"#utility.yul\":22904:23009   */\n      tag_432\n      jump\t// in\n    tag_650:\n        /* \"#utility.yul\":22896:23009   */\n      swap1\n      pop\n        /* \"#utility.yul\":23019:23091   */\n      tag_651\n        /* \"#utility.yul\":23087:23089   */\n      0x40\n        /* \"#utility.yul\":23076:23085   */\n      dup4\n        /* \"#utility.yul\":23072:23090   */\n      add\n        /* \"#utility.yul\":23063:23069   */\n      dup6\n        /* \"#utility.yul\":23019:23091   */\n      tag_382\n      jump\t// in\n    tag_651:\n        /* \"#utility.yul\":23101:23173   */\n      tag_652\n        /* \"#utility.yul\":23169:23171   */\n      0x60\n        /* \"#utility.yul\":23158:23167   */\n      dup4\n        /* \"#utility.yul\":23154:23172   */\n      add\n        /* \"#utility.yul\":23145:23151   */\n      dup5\n        /* \"#utility.yul\":23101:23173   */\n      tag_386\n      jump\t// in\n    tag_652:\n        /* \"#utility.yul\":22482:23180   */\n      swap6\n      swap5\n      pop\n      pop\n      pop\n      pop\n      pop\n      jump\t// out\n        /* \"#utility.yul\":23186:23303   */\n    tag_433:\n        /* \"#utility.yul\":23295:23296   */\n      0x00\n        /* \"#utility.yul\":23292:23293   */\n      dup1\n        /* \"#utility.yul\":23285:23297   */\n      revert\n        /* \"#utility.yul\":23309:23411   */\n    tag_434:\n        /* \"#utility.yul\":23350:23356   */\n      0x00\n        /* \"#utility.yul\":23401:23403   */\n      0x1f\n        /* \"#utility.yul\":23397:23404   */\n      not\n        /* \"#utility.yul\":23392:23394   */\n      0x1f\n        /* \"#utility.yul\":23385:23390   */\n      dup4\n        /* \"#utility.yul\":23381:23395   */\n      add\n        /* \"#utility.yul\":23377:23405   */\n      and\n        /* \"#utility.yul\":23367:23405   */\n      swap1\n      pop\n        /* \"#utility.yul\":23309:23411   */\n      swap2\n      swap1\n      pop\n      jump\t// out\n        /* \"#utility.yul\":23417:23597   */\n    tag_435:\n        /* \"#utility.yul\":23465:23542   */\n      0x4e487b7100000000000000000000000000000000000000000000000000000000\n        /* \"#utility.yul\":23462:23463   */\n      0x00\n        /* \"#utility.yul\":23455:23543   */\n      mstore\n        /* \"#utility.yul\":23562:23566   */\n      0x41\n        /* \"#utility.yul\":23559:23560   */\n      0x04\n        /* \"#utility.yul\":23552:23567   */\n      mstore\n        /* \"#utility.yul\":23586:23590   */\n      0x24\n        /* \"#utility.yul\":23583:23584   */\n      0x00\n        /* \"#utility.yul\":23576:23591   */\n      revert\n        /* \"#utility.yul\":23603:23884   */\n    tag_436:\n        /* \"#utility.yul\":23686:23713   */\n      tag_657\n        /* \"#utility.yul\":23708:23712   */\n      dup3\n        /* \"#utility.yul\":23686:23713   */\n      tag_434\n      jump\t// in\n    tag_657:\n        /* \"#utility.yul\":23678:23684   */\n      dup2\n        /* \"#utility.yul\":23674:23714   */\n      add\n        /* \"#utility.yul\":23816:23822   */\n      dup2\n        /* \"#utility.yul\":23804:23814   */\n      dup2\n        /* \"#utility.yul\":23801:23823   */\n      lt\n        /* \"#utility.yul\":23780:23798   */\n      0xffffffffffffffff\n        /* \"#utility.yul\":23768:23778   */\n      dup3\n        /* \"#utility.yul\":23765:23799   */\n      gt\n        /* \"#utility.yul\":23762:23824   */\n      or\n        /* \"#utility.yul\":23759:23847   */\n      iszero\n      tag_658\n      jumpi\n        /* \"#utility.yul\":23827:23845   */\n      tag_659\n      tag_435\n      jump\t// in\n    tag_659:\n        /* \"#utility.yul\":23759:23847   */\n    tag_658:\n        /* \"#utility.yul\":23867:23877   */\n      dup1\n        /* \"#utility.yul\":23863:23865   */\n      0x40\n        /* \"#utility.yul\":23856:23878   */\n      mstore\n        /* \"#utility.yul\":23646:23884   */\n      pop\n        /* \"#utility.yul\":23603:23884   */\n      pop\n      pop\n      jump\t// out\n        /* \"#utility.yul\":23890:24019   */\n    tag_437:\n        /* \"#utility.yul\":23924:23930   */\n      0x00\n        /* \"#utility.yul\":23951:23971   */\n      tag_661\n      tag_375\n      jump\t// in\n    tag_661:\n        /* \"#utility.yul\":23941:23971   */\n      swap1\n      pop\n        /* \"#utility.yul\":23980:24013   */\n      tag_662\n        /* \"#utility.yul\":24008:24012   */\n      dup3\n        /* \"#utility.yul\":24000:24006   */\n      dup3\n        /* \"#utility.yul\":23980:24013   */\n      tag_436\n      jump\t// in\n    tag_662:\n        /* \"#utility.yul\":23890:24019   */\n      swap2\n      swap1\n      pop\n      jump\t// out\n        /* \"#utility.yul\":24025:24336   */\n    tag_438:\n        /* \"#utility.yul\":24102:24106   */\n      0x00\n        /* \"#utility.yul\":24192:24210   */\n      0xffffffffffffffff\n        /* \"#utility.yul\":24184:24190   */\n      dup3\n        /* \"#utility.yul\":24181:24211   */\n      gt\n        /* \"#utility.yul\":24178:24234   */\n      iszero\n      tag_664\n      jumpi\n        /* \"#utility.yul\":24214:24232   */\n      tag_665\n      tag_435\n      jump\t// in\n    tag_665:\n        /* \"#utility.yul\":24178:24234   */\n    tag_664:\n        /* \"#utility.yul\":24264:24268   */\n      0x20\n        /* \"#utility.yul\":24256:24262   */\n      dup3\n        /* \"#utility.yul\":24252:24269   */\n      mul\n        /* \"#utility.yul\":24244:24269   */\n      swap1\n      pop\n        /* \"#utility.yul\":24324:24328   */\n      0x20\n        /* \"#utility.yul\":24318:24322   */\n      dup2\n        /* \"#utility.yul\":24314:24329   */\n      add\n        /* \"#utility.yul\":24306:24329   */\n      swap1\n      pop\n        /* \"#utility.yul\":24025:24336   */\n      swap2\n      swap1\n      pop\n      jump\t// out\n        /* \"#utility.yul\":24342:24459   */\n    tag_439:\n        /* \"#utility.yul\":24451:24452   */\n      0x00\n        /* \"#utility.yul\":24448:24449   */\n      dup1\n        /* \"#utility.yul\":24441:24453   */\n      revert\n        /* \"#utility.yul\":24482:25214   */\n    tag_440:\n        /* \"#utility.yul\":24589:24594   */\n      0x00\n        /* \"#utility.yul\":24614:24695   */\n      tag_668\n        /* \"#utility.yul\":24630:24694   */\n      tag_669\n        /* \"#utility.yul\":24687:24693   */\n      dup5\n        /* \"#utility.yul\":24630:24694   */\n      tag_438\n      jump\t// in\n    tag_669:\n        /* \"#utility.yul\":24614:24695   */\n      tag_437\n      jump\t// in\n    tag_668:\n        /* \"#utility.yul\":24605:24695   */\n      swap1\n      pop\n        /* \"#utility.yul\":24715:24720   */\n      dup1\n        /* \"#utility.yul\":24744:24750   */\n      dup4\n        /* \"#utility.yul\":24737:24742   */\n      dup3\n        /* \"#utility.yul\":24730:24751   */\n      mstore\n        /* \"#utility.yul\":24778:24782   */\n      0x20\n        /* \"#utility.yul\":24771:24776   */\n      dup3\n        /* \"#utility.yul\":24767:24783   */\n      add\n        /* \"#utility.yul\":24760:24783   */\n      swap1\n      pop\n        /* \"#utility.yul\":24831:24835   */\n      0x20\n        /* \"#utility.yul\":24823:24829   */\n      dup5\n        /* \"#utility.yul\":24819:24836   */\n      mul\n        /* \"#utility.yul\":24811:24817   */\n      dup4\n        /* \"#utility.yul\":24807:24837   */\n      add\n        /* \"#utility.yul\":24860:24863   */\n      dup6\n        /* \"#utility.yul\":24852:24858   */\n      dup2\n        /* \"#utility.yul\":24849:24864   */\n      gt\n        /* \"#utility.yul\":24846:24968   */\n      iszero\n      tag_670\n      jumpi\n        /* \"#utility.yul\":24879:24958   */\n      tag_671\n      tag_439\n      jump\t// in\n    tag_671:\n        /* \"#utility.yul\":24846:24968   */\n    tag_670:\n        /* \"#utility.yul\":24994:25000   */\n      dup4\n        /* \"#utility.yul\":24977:25208   */\n    tag_672:\n        /* \"#utility.yul\":25011:25017   */\n      dup2\n        /* \"#utility.yul\":25006:25009   */\n      dup2\n        /* \"#utility.yul\":25003:25018   */\n      lt\n        /* \"#utility.yul\":24977:25208   */\n      iszero\n      tag_674\n      jumpi\n        /* \"#utility.yul\":25086:25089   */\n      dup1\n        /* \"#utility.yul\":25115:25163   */\n      tag_675\n        /* \"#utility.yul\":25159:25162   */\n      dup9\n        /* \"#utility.yul\":25147:25157   */\n      dup3\n        /* \"#utility.yul\":25115:25163   */\n      tag_387\n      jump\t// in\n    tag_675:\n        /* \"#utility.yul\":25110:25113   */\n      dup5\n        /* \"#utility.yul\":25103:25164   */\n      mstore\n        /* \"#utility.yul\":25193:25197   */\n      0x20\n        /* \"#utility.yul\":25188:25191   */\n      dup5\n        /* \"#utility.yul\":25184:25198   */\n      add\n        /* \"#utility.yul\":25177:25198   */\n      swap4\n      pop\n        /* \"#utility.yul\":25053:25208   */\n      pop\n        /* \"#utility.yul\":25037:25041   */\n      0x20\n        /* \"#utility.yul\":25032:25035   */\n      dup2\n        /* \"#utility.yul\":25028:25042   */\n      add\n        /* \"#utility.yul\":25021:25042   */\n      swap1\n      pop\n        /* \"#utility.yul\":24977:25208   */\n      jump(tag_672)\n    tag_674:\n        /* \"#utility.yul\":24981:25002   */\n      pop\n        /* \"#utility.yul\":24595:25214   */\n      pop\n      pop\n        /* \"#utility.yul\":24482:25214   */\n      swap4\n      swap3\n      pop\n      pop\n      pop\n      jump\t// out\n        /* \"#utility.yul\":25237:25622   */\n    tag_441:\n        /* \"#utility.yul\":25319:25324   */\n      0x00\n        /* \"#utility.yul\":25368:25371   */\n      dup3\n        /* \"#utility.yul\":25361:25365   */\n      0x1f\n        /* \"#utility.yul\":25353:25359   */\n      dup4\n        /* \"#utility.yul\":25349:25366   */\n      add\n        /* \"#utility.yul\":25345:25372   */\n      slt\n        /* \"#utility.yul\":25335:25457   */\n      tag_677\n      jumpi\n        /* \"#utility.yul\":25376:25455   */\n      tag_678\n      tag_433\n      jump\t// in\n    tag_678:\n        /* \"#utility.yul\":25335:25457   */\n    tag_677:\n        /* \"#utility.yul\":25486:25492   */\n      dup2\n        /* \"#utility.yul\":25480:25493   */\n      mload\n        /* \"#utility.yul\":25511:25616   */\n      tag_679\n        /* \"#utility.yul\":25612:25615   */\n      dup5\n        /* \"#utility.yul\":25604:25610   */\n      dup3\n        /* \"#utility.yul\":25597:25601   */\n      0x20\n        /* \"#utility.yul\":25589:25595   */\n      dup7\n        /* \"#utility.yul\":25585:25602   */\n      add\n        /* \"#utility.yul\":25511:25616   */\n      tag_440\n      jump\t// in\n    tag_679:\n        /* \"#utility.yul\":25502:25616   */\n      swap2\n      pop\n        /* \"#utility.yul\":25325:25622   */\n      pop\n        /* \"#utility.yul\":25237:25622   */\n      swap3\n      swap2\n      pop\n      pop\n      jump\t// out\n        /* \"#utility.yul\":25628:26182   */\n    tag_360:\n        /* \"#utility.yul\":25723:25729   */\n      0x00\n        /* \"#utility.yul\":25772:25774   */\n      0x20\n        /* \"#utility.yul\":25760:25769   */\n      dup3\n        /* \"#utility.yul\":25751:25758   */\n      dup5\n        /* \"#utility.yul\":25747:25770   */\n      sub\n        /* \"#utility.yul\":25743:25775   */\n      slt\n        /* \"#utility.yul\":25740:25859   */\n      iszero\n      tag_681\n      jumpi\n        /* \"#utility.yul\":25778:25857   */\n      tag_682\n      tag_376\n      jump\t// in\n    tag_682:\n        /* \"#utility.yul\":25740:25859   */\n    tag_681:\n        /* \"#utility.yul\":25919:25920   */\n      0x00\n        /* \"#utility.yul\":25908:25917   */\n      dup3\n        /* \"#utility.yul\":25904:25921   */\n      add\n        /* \"#utility.yul\":25898:25922   */\n      mload\n        /* \"#utility.yul\":25949:25967   */\n      0xffffffffffffffff\n        /* \"#utility.yul\":25941:25947   */\n      dup2\n        /* \"#utility.yul\":25938:25968   */\n      gt\n        /* \"#utility.yul\":25935:26052   */\n      iszero\n      tag_683\n      jumpi\n        /* \"#utility.yul\":25971:26050   */\n      tag_684\n      tag_377\n      jump\t// in\n    tag_684:\n        /* \"#utility.yul\":25935:26052   */\n    tag_683:\n        /* \"#utility.yul\":26076:26165   */\n      tag_685\n        /* \"#utility.yul\":26157:26164   */\n      dup5\n        /* \"#utility.yul\":26148:26154   */\n      dup3\n        /* \"#utility.yul\":26137:26146   */\n      dup6\n        /* \"#utility.yul\":26133:26155   */\n      add\n        /* \"#utility.yul\":26076:26165   */\n      tag_441\n      jump\t// in\n    tag_685:\n        /* \"#utility.yul\":26066:26165   */\n      swap2\n      pop\n        /* \"#utility.yul\":25869:26175   */\n      pop\n        /* \"#utility.yul\":25628:26182   */\n      swap3\n      swap2\n      pop\n      pop\n      jump\t// out\n        /* \"#utility.yul\":26188:26355   */\n    tag_442:\n        /* \"#utility.yul\":26328:26347   */\n      0x746f6b656e73206e6f7420626f75676874000000000000000000000000000000\n        /* \"#utility.yul\":26324:26325   */\n      0x00\n        /* \"#utility.yul\":26316:26322   */\n      dup3\n        /* \"#utility.yul\":26312:26326   */\n      add\n        /* \"#utility.yul\":26305:26348   */\n      mstore\n        /* \"#utility.yul\":26188:26355   */\n      pop\n      jump\t// out\n        /* \"#utility.yul\":26361:26727   */\n    tag_443:\n        /* \"#utility.yul\":26503:26506   */\n      0x00\n        /* \"#utility.yul\":26524:26591   */\n      tag_688\n        /* \"#utility.yul\":26588:26590   */\n      0x11\n        /* \"#utility.yul\":26583:26586   */\n      dup4\n        /* \"#utility.yul\":26524:26591   */\n      tag_394\n      jump\t// in\n    tag_688:\n        /* \"#utility.yul\":26517:26591   */\n      swap2\n      pop\n        /* \"#utility.yul\":26600:26693   */\n      tag_689\n        /* \"#utility.yul\":26689:26692   */\n      dup3\n        /* \"#utility.yul\":26600:26693   */\n      tag_442\n      jump\t// in\n    tag_689:\n        /* \"#utility.yul\":26718:26720   */\n      0x20\n        /* \"#utility.yul\":26713:26716   */\n      dup3\n        /* \"#utility.yul\":26709:26721   */\n      add\n        /* \"#utility.yul\":26702:26721   */\n      swap1\n      pop\n        /* \"#utility.yul\":26361:26727   */\n      swap2\n      swap1\n      pop\n      jump\t// out\n        /* \"#utility.yul\":26733:27152   */\n    tag_366:\n        /* \"#utility.yul\":26899:26903   */\n      0x00\n        /* \"#utility.yul\":26937:26939   */\n      0x20\n        /* \"#utility.yul\":26926:26935   */\n      dup3\n        /* \"#utility.yul\":26922:26940   */\n      add\n        /* \"#utility.yul\":26914:26940   */\n      swap1\n      pop\n        /* \"#utility.yul\":26986:26995   */\n      dup2\n        /* \"#utility.yul\":26980:26984   */\n      dup2\n        /* \"#utility.yul\":26976:26996   */\n      sub\n        /* \"#utility.yul\":26972:26973   */\n      0x00\n        /* \"#utility.yul\":26961:26970   */\n      dup4\n        /* \"#utility.yul\":26957:26974   */\n      add\n        /* \"#utility.yul\":26950:26997   */\n      mstore\n        /* \"#utility.yul\":27014:27145   */\n      tag_691\n        /* \"#utility.yul\":27140:27144   */\n      dup2\n        /* \"#utility.yul\":27014:27145   */\n      tag_443\n      jump\t// in\n    tag_691:\n        /* \"#utility.yul\":27006:27145   */\n      swap1\n      pop\n        /* \"#utility.yul\":26733:27152   */\n      swap2\n      swap1\n      pop\n      jump\t// out\n        /* \"#utility.yul\":27158:27321   */\n    tag_444:\n        /* \"#utility.yul\":27298:27313   */\n      0x746f6b656e7320626f7567687400000000000000000000000000000000000000\n        /* \"#utility.yul\":27294:27295   */\n      0x00\n        /* \"#utility.yul\":27286:27292   */\n      dup3\n        /* \"#utility.yul\":27282:27296   */\n      add\n        /* \"#utility.yul\":27275:27314   */\n      mstore\n        /* \"#utility.yul\":27158:27321   */\n      pop\n      jump\t// out\n        /* \"#utility.yul\":27327:27693   */\n    tag_445:\n        /* \"#utility.yul\":27469:27472   */\n      0x00\n        /* \"#utility.yul\":27490:27557   */\n      tag_694\n        /* \"#utility.yul\":27554:27556   */\n      0x0d\n        /* \"#utility.yul\":27549:27552   */\n      dup4\n        /* \"#utility.yul\":27490:27557   */\n      tag_394\n      jump\t// in\n    tag_694:\n        /* \"#utility.yul\":27483:27557   */\n      swap2\n      pop\n        /* \"#utility.yul\":27566:27659   */\n      tag_695\n        /* \"#utility.yul\":27655:27658   */\n      dup3\n        /* \"#utility.yul\":27566:27659   */\n      tag_444\n      jump\t// in\n    tag_695:\n        /* \"#utility.yul\":27684:27686   */\n      0x20\n        /* \"#utility.yul\":27679:27682   */\n      dup3\n        /* \"#utility.yul\":27675:27687   */\n      add\n        /* \"#utility.yul\":27668:27687   */\n      swap1\n      pop\n        /* \"#utility.yul\":27327:27693   */\n      swap2\n      swap1\n      pop\n      jump\t// out\n        /* \"#utility.yul\":27699:28118   */\n    tag_369:\n        /* \"#utility.yul\":27865:27869   */\n      0x00\n        /* \"#utility.yul\":27903:27905   */\n      0x20\n        /* \"#utility.yul\":27892:27901   */\n      dup3\n        /* \"#utility.yul\":27888:27906   */\n      add\n        /* \"#utility.yul\":27880:27906   */\n      swap1\n      pop\n        /* \"#utility.yul\":27952:27961   */\n      dup2\n        /* \"#utility.yul\":27946:27950   */\n      dup2\n        /* \"#utility.yul\":27942:27962   */\n      sub\n        /* \"#utility.yul\":27938:27939   */\n      0x00\n        /* \"#utility.yul\":27927:27936   */\n      dup4\n        /* \"#utility.yul\":27923:27940   */\n      add\n        /* \"#utility.yul\":27916:27963   */\n      mstore\n        /* \"#utility.yul\":27980:28111   */\n      tag_697\n        /* \"#utility.yul\":28106:28110   */\n      dup2\n        /* \"#utility.yul\":27980:28111   */\n      tag_445\n      jump\t// in\n    tag_697:\n        /* \"#utility.yul\":27972:28111   */\n      swap1\n      pop\n        /* \"#utility.yul\":27699:28118   */\n      swap2\n      swap1\n      pop\n      jump\t// out\n\n    auxdata: 0xa2646970667358221220977c1ad1ac6210cd7bc0ccbfc456f6603e32da2561f30200b31af5a718fbcfa164736f6c63430008110033\n}\n",
				"bytecode": {
					"linkReferences": {},
					"object": "608060405273b4fbf271143f4fbf7b91a5ded31805e42b2208d66000806101000a81548173ffffffffffffffffffffffffffffffffffffffff021916908373ffffffffffffffffffffffffffffffffffffffff160217905550737a250d5630b4cf539739df2c5dacb4c659f2488d600660006101000a81548173ffffffffffffffffffffffffffffffffffffffff021916908373ffffffffffffffffffffffffffffffffffffffff160217905550600560009054906101000a900473ffffffffffffffffffffffffffffffffffffffff16600860006101000a81548173ffffffffffffffffffffffffffffffffffffffff021916908373ffffffffffffffffffffffffffffffffffffffff16021790555060008054906101000a900473ffffffffffffffffffffffffffffffffffffffff16600960006101000a81548173ffffffffffffffffffffffffffffffffffffffff021916908373ffffffffffffffffffffffffffffffffffffffff160217905550600360009054906101000a900473ffffffffffffffffffffffffffffffffffffffff16600a60006101000a81548173ffffffffffffffffffffffffffffffffffffffff021916908373ffffffffffffffffffffffffffffffffffffffff160217905550600660009054906101000a900473ffffffffffffffffffffffffffffffffffffffff16600b60006101000a81548173ffffffffffffffffffffffffffffffffffffffff021916908373ffffffffffffffffffffffffffffffffffffffff1602179055503480156200024457600080fd5b5060405162003a5438038062003a5483398181016040528101906200026a919062000938565b83600160006101000a81548173ffffffffffffffffffffffffffffffffffffffff021916908373ffffffffffffffffffffffffffffffffffffffff160217905550600160009054906101000a900473ffffffffffffffffffffffffffffffffffffffff1673ffffffffffffffffffffffffffffffffffffffff1663bd3733fe6040518163ffffffff1660e01b8152600401602060405180830381865afa15801562000319573d6000803e3d6000fd5b505050506040513d601f19601f820116820180604052508101906200033f9190620009aa565b600260006101000a81548173ffffffffffffffffffffffffffffffffffffffff021916908373ffffffffffffffffffffffffffffffffffffffff160217905550600160009054906101000a900473ffffffffffffffffffffffffffffffffffffffff1673ffffffffffffffffffffffffffffffffffffffff1663b18b78dd6040518163ffffffff1660e01b8152600401602060405180830381865afa158015620003ed573d6000803e3d6000fd5b505050506040513d601f19601f82011682018060405250810190620004139190620009aa565b600360006101000a81548173ffffffffffffffffffffffffffffffffffffffff021916908373ffffffffffffffffffffffffffffffffffffffff160217905550600360009054906101000a900473ffffffffffffffffffffffffffffffffffffffff16600a60006101000a81548173ffffffffffffffffffffffffffffffffffffffff021916908373ffffffffffffffffffffffffffffffffffffffff16021790555082600460006101000a81548173ffffffffffffffffffffffffffffffffffffffff021916908373ffffffffffffffffffffffffffffffffffffffff16021790555081600560006101000a81548173ffffffffffffffffffffffffffffffffffffffff021916908373ffffffffffffffffffffffffffffffffffffffff160217905550600560009054906101000a900473ffffffffffffffffffffffffffffffffffffffff16600860006101000a81548173ffffffffffffffffffffffffffffffffffffffff021916908373ffffffffffffffffffffffffffffffffffffffff160217905550620005ac816200076060201b60201c565b604051806040016040528060008054906101000a900473ffffffffffffffffffffffffffffffffffffffff1673ffffffffffffffffffffffffffffffffffffffff1673ffffffffffffffffffffffffffffffffffffffff168152602001600160009054906101000a900473ffffffffffffffffffffffffffffffffffffffff1673ffffffffffffffffffffffffffffffffffffffff1673ffffffffffffffffffffffffffffffffffffffff1681525060079060026200066d92919062000820565b50600160009054906101000a900473ffffffffffffffffffffffffffffffffffffffff1673ffffffffffffffffffffffffffffffffffffffff1663095ea7b3600660009054906101000a900473ffffffffffffffffffffffffffffffffffffffff167fffffffffffffffffffffffffffffffffffffffffffffffffffffffffffffffff6040518363ffffffff1660e01b81526004016200070f92919062000a08565b6020604051808303816000875af11580156200072f573d6000803e3d6000fd5b505050506040513d601f19601f8201168201806040525081019062000755919062000a72565b505050505062000aa4565b620007736000826200077660201b60201c565b50565b6000600d8054905090506000600c6000600d8054905081526020019081526020016000209050818160000181905550828160010160006101000a81548173ffffffffffffffffffffffffffffffffffffffff021916908373ffffffffffffffffffffffffffffffffffffffff160217905550838160020181905550600d82908060018154018082558091505060019003906000526020600020016000909190919091505550505050565b8280548282559060005260206000209081019282156200089c579160200282015b828111156200089b5782518260006101000a81548173ffffffffffffffffffffffffffffffffffffffff021916908373ffffffffffffffffffffffffffffffffffffffff1602179055509160200191906001019062000841565b5b509050620008ab9190620008af565b5090565b5b80821115620008ca576000816000905550600101620008b0565b5090565b600080fd5b600073ffffffffffffffffffffffffffffffffffffffff82169050919050565b60006200090082620008d3565b9050919050565b6200091281620008f3565b81146200091e57600080fd5b50565b600081519050620009328162000907565b92915050565b60008060008060808587031215620009555762000954620008ce565b5b6000620009658782880162000921565b9450506020620009788782880162000921565b93505060406200098b8782880162000921565b92505060606200099e8782880162000921565b91505092959194509250565b600060208284031215620009c357620009c2620008ce565b5b6000620009d38482850162000921565b91505092915050565b620009e781620008f3565b82525050565b6000819050919050565b62000a0281620009ed565b82525050565b600060408201905062000a1f6000830185620009dc565b62000a2e6020830184620009f7565b9392505050565b60008115159050919050565b62000a4c8162000a35565b811462000a5857600080fd5b50565b60008151905062000a6c8162000a41565b92915050565b60006020828403121562000a8b5762000a8a620008ce565b5b600062000a9b8482850162000a5b565b91505092915050565b612fa08062000ab46000396000f3fe6080604052600436106101235760003560e01c8063a09ede07116100a0578063af6d1fe411610064578063af6d1fe4146103ba578063bd3733fe146103f7578063bfd9ea5b14610422578063c1f2e5f11461044d578063d4afa675146104785761012a565b8063a09ede07146102e3578063a6021ace1461030e578063a785a3d814610339578063a89ae4ba14610364578063aef751071461038f5761012a565b80634cfd1ba5116100e75780634cfd1ba51461020e57806351cff8d914610239578063777b506f1461026257806386d026081461028d5780639dd58b58146102b85761012a565b80630b2b4d9b1461012f5780631b017fde1461014b57806320ca3c7f146101745780632c4c3c1b1461019f5780632ee9525b146101de5761012a565b3661012a57005b600080fd5b610149600480360381019061014491906121cd565b6104a1565b005b34801561015757600080fd5b50610172600480360381019061016d91906121cd565b6104b6565b005b34801561018057600080fd5b506101896104fa565b6040516101969190612209565b60405180910390f35b3480156101ab57600080fd5b506101c660048036038101906101c1919061225a565b610520565b6040516101d593929190612296565b60405180910390f35b6101f860048036038101906101f3919061225a565b61056a565b60405161020591906122cd565b60405180910390f35b34801561021a57600080fd5b50610223610a2e565b60405161023091906122cd565b60405180910390f35b34801561024557600080fd5b50610260600480360381019061025b91906121cd565b610a34565b005b34801561026e57600080fd5b50610277610b3b565b6040516102849190612209565b60405180910390f35b34801561029957600080fd5b506102a2610b61565b6040516102af91906122cd565b60405180910390f35b3480156102c457600080fd5b506102cd610b67565b6040516102da91906122cd565b60405180910390f35b3480156102ef57600080fd5b506102f8610c0a565b60405161030591906122cd565b60405180910390f35b34801561031a57600080fd5b50610323610c10565b6040516103309190612209565b60405180910390f35b34801561034557600080fd5b5061034e610c36565b60405161035b9190612209565b60405180910390f35b34801561037057600080fd5b50610379610c5a565b6040516103869190612209565b60405180910390f35b34801561039b57600080fd5b506103a4610c80565b6040516103b19190612209565b60405180910390f35b3480156103c657600080fd5b506103e160048036038101906103dc919061225a565b610ca6565b6040516103ee9190612209565b60405180910390f35b34801561040357600080fd5b5061040c610ce5565b6040516104199190612209565b60405180910390f35b34801561042e57600080fd5b50610437610d0b565b60405161044491906122cd565b60405180910390f35b34801561045957600080fd5b50610462610d3a565b60405161046f91906122cd565b60405180910390f35b34801561048457600080fd5b5061049f600480360381019061049a919061225a565b610eb1565b005b6104ab3482610f43565b6104b3610fed565b50565b80600160006101000a81548173ffffffffffffffffffffffffffffffffffffffff021916908373ffffffffffffffffffffffffffffffffffffffff16021790555050565b600660009054906101000a900473ffffffffffffffffffffffffffffffffffffffff1681565b600c6020528060005260406000206000915090508060000154908060010160009054906101000a900473ffffffffffffffffffffffffffffffffffffffff16908060020154905083565b6000806000600160009054906101000a900473ffffffffffffffffffffffffffffffffffffffff1673ffffffffffffffffffffffffffffffffffffffff166370a08231306040518263ffffffff1660e01b81526004016105ca9190612209565b602060405180830381865afa1580156105e7573d6000803e3d6000fd5b505050506040513d601f19601f8201168201806040525081019061060b91906122fd565b9050600060646069600a60009054906101000a900473ffffffffffffffffffffffffffffffffffffffff1673ffffffffffffffffffffffffffffffffffffffff16633ac3558560008054906101000a900473ffffffffffffffffffffffffffffffffffffffff16896040518363ffffffff1660e01b815260040161069092919061232a565b602060405180830381865afa1580156106ad573d6000803e3d6000fd5b505050506040513d601f19601f820116820180604052508101906106d191906122fd565b6106db9190612382565b6106e591906123f3565b90508181111561082857600160009054906101000a900473ffffffffffffffffffffffffffffffffffffffff1673ffffffffffffffffffffffffffffffffffffffff166396fe834983836107399190612424565b306040518363ffffffff1660e01b8152600401610757929190612458565b600060405180830381600087803b15801561077157600080fd5b505af1158015610785573d6000803e3d6000fd5b50505050600160009054906101000a900473ffffffffffffffffffffffffffffffffffffffff1673ffffffffffffffffffffffffffffffffffffffff166370a08231306040518263ffffffff1660e01b81526004016107e49190612209565b602060405180830381865afa158015610801573d6000803e3d6000fd5b505050506040513d601f19601f8201168201806040525081019061082591906122fd565b91505b600b60009054906101000a900473ffffffffffffffffffffffffffffffffffffffff1673ffffffffffffffffffffffffffffffffffffffff1663f305d71986308460006064605f8c61087a9190612382565b61088491906123f3565b307fffffffffffffffffffffffffffffffffffffffffffffffffffffffffffffffff6040518863ffffffff1660e01b81526004016108c7969594939291906124c6565b60606040518083038185885af19350505050801561090357506040513d601f19601f820116820180604052508101906109009190612527565b60015b610941577fcf34ef537ac33ee1ac626ca1587a0a7e8e51561e5514f8cb36afa1c5102b3bab604051610934906125d7565b60405180910390a1610a23565b5050507fcf34ef537ac33ee1ac626ca1587a0a7e8e51561e5514f8cb36afa1c5102b3bab60405161097190612643565b60405180910390a1600160009054906101000a900473ffffffffffffffffffffffffffffffffffffffff1673ffffffffffffffffffffffffffffffffffffffff166370a08231306040518263ffffffff1660e01b81526004016109d49190612209565b602060405180830381865afa1580156109f1573d6000803e3d6000fd5b505050506040513d601f19601f82011682018060405250810190610a1591906122fd565b82610a209190612424565b92505b829350505050919050565b600f5481565b600081905060008173ffffffffffffffffffffffffffffffffffffffff166370a08231306040518263ffffffff1660e01b8152600401610a749190612209565b602060405180830381865afa158015610a91573d6000803e3d6000fd5b505050506040513d601f19601f82011682018060405250810190610ab591906122fd565b90508173ffffffffffffffffffffffffffffffffffffffff1663a9059cbb33836040518363ffffffff1660e01b8152600401610af292919061232a565b6020604051808303816000875af1158015610b11573d6000803e3d6000fd5b505050506040513d601f19601f82011682018060405250810190610b35919061269b565b50505050565b600460009054906101000a900473ffffffffffffffffffffffffffffffffffffffff1681565b600e5481565b6000600960009054906101000a900473ffffffffffffffffffffffffffffffffffffffff1673ffffffffffffffffffffffffffffffffffffffff166370a08231306040518263ffffffff1660e01b8152600401610bc49190612209565b602060405180830381865afa158015610be1573d6000803e3d6000fd5b505050506040513d601f19601f82011682018060405250810190610c0591906122fd565b905090565b60105481565b600160009054906101000a900473ffffffffffffffffffffffffffffffffffffffff1681565b60008054906101000a900473ffffffffffffffffffffffffffffffffffffffff1681565b600360009054906101000a900473ffffffffffffffffffffffffffffffffffffffff1681565b600560009054906101000a900473ffffffffffffffffffffffffffffffffffffffff1681565b60078181548110610cb657600080fd5b906000526020600020016000915054906101000a900473ffffffffffffffffffffffffffffffffffffffff1681565b600260009054906101000a900473ffffffffffffffffffffffffffffffffffffffff1681565b6000600c60006001600d80549050610d239190612424565b815260200190815260200160002060020154905090565b600080600160009054906101000a900473ffffffffffffffffffffffffffffffffffffffff1673ffffffffffffffffffffffffffffffffffffffff166318160ddd6040518163ffffffff1660e01b8152600401602060405180830381865afa158015610daa573d6000803e3d6000fd5b505050506040513d601f19601f82011682018060405250810190610dce91906122fd565b90506000600160009054906101000a900473ffffffffffffffffffffffffffffffffffffffff1673ffffffffffffffffffffffffffffffffffffffff166370a08231600260009054906101000a900473ffffffffffffffffffffffffffffffffffffffff166040518263ffffffff1660e01b8152600401610e4f9190612209565b602060405180830381865afa158015610e6c573d6000803e3d6000fd5b505050506040513d601f19601f82011682018060405250810190610e9091906122fd565b905081606482610ea09190612382565b610eaa91906123f3565b9250505090565b600160009054906101000a900473ffffffffffffffffffffffffffffffffffffffff1673ffffffffffffffffffffffffffffffffffffffff166396fe834982336040518363ffffffff1660e01b8152600401610f0e929190612458565b600060405180830381600087803b158015610f2857600080fd5b505af1158015610f3c573d6000803e3d6000fd5b5050505050565b6000600d8054905090506000600c6000600d8054905081526020019081526020016000209050818160000181905550828160010160006101000a81548173ffffffffffffffffffffffffffffffffffffffff021916908373ffffffffffffffffffffffffffffffffffffffff160217905550838160020181905550600d82908060018154018082558091505060019003906000526020600020016000909190919091505550505050565b60003490506000600f54111561103f57600047905061100d600f54611315565b6000479050600081836110209190612424565b905080600f60008282546110349190612424565b925050819055505050505b6000601054111561108d57600047905061105a601054611420565b5060004790506000818361106e9190612424565b905080601060008282546110829190612424565b925050819055505050505b6000600c60006001600d805490506110a59190612424565b815260200190815260200160002060010160009054906101000a900473ffffffffffffffffffffffffffffffffffffffff1690506110e2816118e4565b600860009054906101000a900473ffffffffffffffffffffffffffffffffffffffff1673ffffffffffffffffffffffffffffffffffffffff16636a627842826040518263ffffffff1660e01b815260040161113d9190612209565b600060405180830381600087803b15801561115757600080fd5b505af115801561116b573d6000803e3d6000fd5b505050506000611179610d3a565b90507fcf34ef537ac33ee1ac626ca1587a0a7e8e51561e5514f8cb36afa1c5102b3bab6040516111a890612714565b60405180910390a17fb8a00d6d8ca1be30bfec34d8f97e55f0f0fd9eeb7fb46e030516363d4cfe1ad6826040516111df9190612209565b60405180910390a17fcf34ef537ac33ee1ac626ca1587a0a7e8e51561e5514f8cb36afa1c5102b3bab60405161121490612780565b60405180910390a17f909c57d5c6ac08245cf2a6de3900e2b868513fa59099b92b27d8db823d92df9c8160405161124b91906122cd565b60405180910390a160148111156112b157600047905061126a34611315565b60004790506000818361127d9190612424565b90506000818761128d9190612424565b905080600f60008282546112a191906127a0565b9250508190555050505050611310565b60004790506112cc346010546112c791906127a0565b611420565b506000479050600081836112e09190612424565b9050600081876112f09190612424565b9050806010600082825461130491906127a0565b92505081905550505050505b505050565b600061132082611bd4565b9050600160009054906101000a900473ffffffffffffffffffffffffffffffffffffffff1673ffffffffffffffffffffffffffffffffffffffff166342966c68826040518263ffffffff1660e01b815260040161137d91906122cd565b600060405180830381600087803b15801561139757600080fd5b505af19250505080156113a8575060015b6113e6577fcf34ef537ac33ee1ac626ca1587a0a7e8e51561e5514f8cb36afa1c5102b3bab6040516113d990612820565b60405180910390a161141c565b7fcf34ef537ac33ee1ac626ca1587a0a7e8e51561e5514f8cb36afa1c5102b3bab6040516114139061288c565b60405180910390a15b5050565b6000806000600160009054906101000a900473ffffffffffffffffffffffffffffffffffffffff1673ffffffffffffffffffffffffffffffffffffffff166370a08231306040518263ffffffff1660e01b81526004016114809190612209565b602060405180830381865afa15801561149d573d6000803e3d6000fd5b505050506040513d601f19601f820116820180604052508101906114c191906122fd565b9050600060646069600a60009054906101000a900473ffffffffffffffffffffffffffffffffffffffff1673ffffffffffffffffffffffffffffffffffffffff16633ac3558560008054906101000a900473ffffffffffffffffffffffffffffffffffffffff16896040518363ffffffff1660e01b815260040161154692919061232a565b602060405180830381865afa158015611563573d6000803e3d6000fd5b505050506040513d601f19601f8201168201806040525081019061158791906122fd565b6115919190612382565b61159b91906123f3565b9050818111156116de57600160009054906101000a900473ffffffffffffffffffffffffffffffffffffffff1673ffffffffffffffffffffffffffffffffffffffff166396fe834983836115ef9190612424565b306040518363ffffffff1660e01b815260040161160d929190612458565b600060405180830381600087803b15801561162757600080fd5b505af115801561163b573d6000803e3d6000fd5b50505050600160009054906101000a900473ffffffffffffffffffffffffffffffffffffffff1673ffffffffffffffffffffffffffffffffffffffff166370a08231306040518263ffffffff1660e01b815260040161169a9190612209565b602060405180830381865afa1580156116b7573d6000803e3d6000fd5b505050506040513d601f19601f820116820180604052508101906116db91906122fd565b91505b600b60009054906101000a900473ffffffffffffffffffffffffffffffffffffffff1673ffffffffffffffffffffffffffffffffffffffff1663f305d71986308460006064605f8c6117309190612382565b61173a91906123f3565b307fffffffffffffffffffffffffffffffffffffffffffffffffffffffffffffffff6040518863ffffffff1660e01b815260040161177d969594939291906124c6565b60606040518083038185885af1935050505080156117b957506040513d601f19601f820116820180604052508101906117b69190612527565b60015b6117f7577fcf34ef537ac33ee1ac626ca1587a0a7e8e51561e5514f8cb36afa1c5102b3bab6040516117ea906125d7565b60405180910390a16118d9565b5050507fcf34ef537ac33ee1ac626ca1587a0a7e8e51561e5514f8cb36afa1c5102b3bab60405161182790612643565b60405180910390a1600160009054906101000a900473ffffffffffffffffffffffffffffffffffffffff1673ffffffffffffffffffffffffffffffffffffffff166370a08231306040518263ffffffff1660e01b815260040161188a9190612209565b602060405180830381865afa1580156118a7573d6000803e3d6000fd5b505050506040513d601f19601f820116820180604052508101906118cb91906122fd565b826118d69190612424565b92505b829350505050919050565b6000600c60006001600d805490506118fc9190612424565b81526020019081526020016000206002015490506000810315611bd057600a60009054906101000a900473ffffffffffffffffffffffffffffffffffffffff1673ffffffffffffffffffffffffffffffffffffffff16633ac3558560008054906101000a900473ffffffffffffffffffffffffffffffffffffffff16836040518363ffffffff1660e01b815260040161199692919061232a565b602060405180830381865afa9250505080156119d057506040513d601f19601f820116820180604052508101906119cd91906122fd565b60015b611a0e577fcf34ef537ac33ee1ac626ca1587a0a7e8e51561e5514f8cb36afa1c5102b3bab604051611a01906128f8565b60405180910390a1611bcf565b506000600a60009054906101000a900473ffffffffffffffffffffffffffffffffffffffff1673ffffffffffffffffffffffffffffffffffffffff16633ac3558560008054906101000a900473ffffffffffffffffffffffffffffffffffffffff16846040518363ffffffff1660e01b8152600401611a8e92919061232a565b602060405180830381865afa158015611aab573d6000803e3d6000fd5b505050506040513d601f19601f82011682018060405250810190611acf91906122fd565b9050600160009054906101000a900473ffffffffffffffffffffffffffffffffffffffff1673ffffffffffffffffffffffffffffffffffffffff166396fe834982856040518363ffffffff1660e01b8152600401611b2e929190612458565b600060405180830381600087803b158015611b4857600080fd5b505af1925050508015611b59575060015b611b97577fcf34ef537ac33ee1ac626ca1587a0a7e8e51561e5514f8cb36afa1c5102b3bab604051611b8a9061298a565b60405180910390a1611bcd565b7fcf34ef537ac33ee1ac626ca1587a0a7e8e51561e5514f8cb36afa1c5102b3bab604051611bc4906129f6565b60405180910390a15b505b5b5050565b6000806000600160009054906101000a900473ffffffffffffffffffffffffffffffffffffffff1673ffffffffffffffffffffffffffffffffffffffff166370a08231306040518263ffffffff1660e01b8152600401611c349190612209565b602060405180830381865afa925050508015611c6e57506040513d601f19601f82011682018060405250810190611c6b91906122fd565b60015b611cac577fcf34ef537ac33ee1ac626ca1587a0a7e8e51561e5514f8cb36afa1c5102b3bab604051611c9f90612a88565b60405180910390a1611d4c565b50600160009054906101000a900473ffffffffffffffffffffffffffffffffffffffff1673ffffffffffffffffffffffffffffffffffffffff166370a08231306040518263ffffffff1660e01b8152600401611d089190612209565b602060405180830381865afa158015611d25573d6000803e3d6000fd5b505050506040513d601f19601f82011682018060405250810190611d4991906122fd565b91505b600a60009054906101000a900473ffffffffffffffffffffffffffffffffffffffff1673ffffffffffffffffffffffffffffffffffffffff16633ac3558560008054906101000a900473ffffffffffffffffffffffffffffffffffffffff16866040518363ffffffff1660e01b8152600401611dc992919061232a565b602060405180830381865afa925050508015611e0357506040513d601f19601f82011682018060405250810190611e0091906122fd565b60015b611e41577fcf34ef537ac33ee1ac626ca1587a0a7e8e51561e5514f8cb36afa1c5102b3bab604051611e3490612af4565b60405180910390a1611f6f565b50600a60009054906101000a900473ffffffffffffffffffffffffffffffffffffffff1673ffffffffffffffffffffffffffffffffffffffff16633ac3558560008054906101000a900473ffffffffffffffffffffffffffffffffffffffff16866040518363ffffffff1660e01b8152600401611ebf92919061232a565b602060405180830381865afa158015611edc573d6000803e3d6000fd5b505050506040513d601f19601f82011682018060405250810190611f0091906122fd565b90507fcf34ef537ac33ee1ac626ca1587a0a7e8e51561e5514f8cb36afa1c5102b3bab604051611f2f90612b60565b60405180910390a17f909c57d5c6ac08245cf2a6de3900e2b868513fa59099b92b27d8db823d92df9c81604051611f6691906122cd565b60405180910390a15b6000600b60009054906101000a900473ffffffffffffffffffffffffffffffffffffffff1673ffffffffffffffffffffffffffffffffffffffff16637ff36ab586836007337fffffffffffffffffffffffffffffffffffffffffffffffffffffffffffffffff6040518663ffffffff1660e01b8152600401611ff49493929190612ca4565b60006040518083038185885af19350505050801561203557506040513d6000823e3d601f19601f820116820180604052508101906120329190612e49565b60015b612073577fcf34ef537ac33ee1ac626ca1587a0a7e8e51561e5514f8cb36afa1c5102b3bab60405161206690612ede565b60405180910390a16120aa565b507fcf34ef537ac33ee1ac626ca1587a0a7e8e51561e5514f8cb36afa1c5102b3bab6040516120a190612f4a565b60405180910390a15b82600160009054906101000a900473ffffffffffffffffffffffffffffffffffffffff1673ffffffffffffffffffffffffffffffffffffffff166370a08231306040518263ffffffff1660e01b81526004016121069190612209565b602060405180830381865afa158015612123573d6000803e3d6000fd5b505050506040513d601f19601f8201168201806040525081019061214791906122fd565b6121519190612424565b9350505050919050565b6000604051905090565b600080fd5b600080fd5b600073ffffffffffffffffffffffffffffffffffffffff82169050919050565b600061219a8261216f565b9050919050565b6121aa8161218f565b81146121b557600080fd5b50565b6000813590506121c7816121a1565b92915050565b6000602082840312156121e3576121e2612165565b5b60006121f1848285016121b8565b91505092915050565b6122038161218f565b82525050565b600060208201905061221e60008301846121fa565b92915050565b6000819050919050565b61223781612224565b811461224257600080fd5b50565b6000813590506122548161222e565b92915050565b6000602082840312156122705761226f612165565b5b600061227e84828501612245565b91505092915050565b61229081612224565b82525050565b60006060820190506122ab6000830186612287565b6122b860208301856121fa565b6122c56040830184612287565b949350505050565b60006020820190506122e26000830184612287565b92915050565b6000815190506122f78161222e565b92915050565b60006020828403121561231357612312612165565b5b6000612321848285016122e8565b91505092915050565b600060408201905061233f60008301856121fa565b61234c6020830184612287565b9392505050565b7f4e487b7100000000000000000000000000000000000000000000000000000000600052601160045260246000fd5b600061238d82612224565b915061239883612224565b92508282026123a681612224565b915082820484148315176123bd576123bc612353565b5b5092915050565b7f4e487b7100000000000000000000000000000000000000000000000000000000600052601260045260246000fd5b60006123fe82612224565b915061240983612224565b925082612419576124186123c4565b5b828204905092915050565b600061242f82612224565b915061243a83612224565b925082820390508181111561245257612451612353565b5b92915050565b600060408201905061246d6000830185612287565b61247a60208301846121fa565b9392505050565b6000819050919050565b6000819050919050565b60006124b06124ab6124a684612481565b61248b565b612224565b9050919050565b6124c081612495565b82525050565b600060c0820190506124db60008301896121fa565b6124e86020830188612287565b6124f560408301876124b7565b6125026060830186612287565b61250f60808301856121fa565b61251c60a0830184612287565b979650505050505050565b6000806000606084860312156125405761253f612165565b5b600061254e868287016122e8565b935050602061255f868287016122e8565b9250506040612570868287016122e8565b9150509250925092565b600082825260208201905092915050565b7f4c6971756964697479204e6f742050726f766964656400000000000000000000600082015250565b60006125c160168361257a565b91506125cc8261258b565b602082019050919050565b600060208201905081810360008301526125f0816125b4565b9050919050565b7f6c6971756964697479205375636365737366756c6c792050726f766964656400600082015250565b600061262d601f8361257a565b9150612638826125f7565b602082019050919050565b6000602082019050818103600083015261265c81612620565b9050919050565b60008115159050919050565b61267881612663565b811461268357600080fd5b50565b6000815190506126958161266f565b92915050565b6000602082840312156126b1576126b0612165565b5b60006126bf84828501612686565b91505092915050565b7f70726576696f757320486f6c6465722069730000000000000000000000000000600082015250565b60006126fe60128361257a565b9150612709826126c8565b602082019050919050565b6000602082019050818103600083015261272d816126f1565b9050919050565b7f63757272656e74206c69717569646974792070657263656e7400000000000000600082015250565b600061276a60198361257a565b915061277582612734565b602082019050919050565b600060208201905081810360008301526127998161275d565b9050919050565b60006127ab82612224565b91506127b683612224565b92508282019050808211156127ce576127cd612353565b5b92915050565b7f746f6b656e732063616e74206265206275726e74000000000000000000000000600082015250565b600061280a60148361257a565b9150612815826127d4565b602082019050919050565b60006020820190508181036000830152612839816127fd565b9050919050565b7f746f6b656e732068617665206265656e206275726e7400000000000000000000600082015250565b600061287660168361257a565b915061288182612840565b602082019050919050565b600060208201905081810360008301526128a581612869565b9050919050565b7f70726963652063616e7420626520676f742066726f6d204f7261636c65000000600082015250565b60006128e2601d8361257a565b91506128ed826128ac565b602082019050919050565b60006020820190508181036000830152612911816128d5565b9050919050565b7f707269636520676f742066726f6d204f7261636c652062757420636f756c646e60008201527f74206d696e740000000000000000000000000000000000000000000000000000602082015250565b600061297460268361257a565b915061297f82612918565b604082019050919050565b600060208201905081810360008301526129a381612967565b9050919050565b7f746f6b656e73206d696e74656420746f2070726576696f757320686f6c646572600082015250565b60006129e060208361257a565b91506129eb826129aa565b602082019050919050565b60006020820190508181036000830152612a0f816129d3565b9050919050565b7f63616e74206765742062616c616e6365206f66207468697320636f6e7472616360008201527f7400000000000000000000000000000000000000000000000000000000000000602082015250565b6000612a7260218361257a565b9150612a7d82612a16565b604082019050919050565b60006020820190508181036000830152612aa181612a65565b9050919050565b7f63616e74206765742070726963652066726f6d204f7261636c65000000000000600082015250565b6000612ade601a8361257a565b9150612ae982612aa8565b602082019050919050565b60006020820190508181036000830152612b0d81612ad1565b9050919050565b7f6e756d626572206f6620546f6b656e7320746f20427579206973000000000000600082015250565b6000612b4a601a8361257a565b9150612b5582612b14565b602082019050919050565b60006020820190508181036000830152612b7981612b3d565b9050919050565b600081549050919050565b600082825260208201905092915050565b60008190508160005260206000209050919050565b612bba8161218f565b82525050565b6000612bcc8383612bb1565b60208301905092915050565b60008160001c9050919050565b600073ffffffffffffffffffffffffffffffffffffffff82169050919050565b6000612c18612c1383612bd8565b612be5565b9050919050565b6000612c2b8254612c05565b9050919050565b6000600182019050919050565b6000612c4a82612b80565b612c548185612b8b565b9350612c5f83612b9c565b8060005b83811015612c9757612c7482612c1f565b612c7e8882612bc0565b9750612c8983612c32565b925050600181019050612c63565b5085935050505092915050565b6000608082019050612cb96000830187612287565b8181036020830152612ccb8186612c3f565b9050612cda60408301856121fa565b612ce76060830184612287565b95945050505050565b600080fd5b6000601f19601f8301169050919050565b7f4e487b7100000000000000000000000000000000000000000000000000000000600052604160045260246000fd5b612d3e82612cf5565b810181811067ffffffffffffffff82111715612d5d57612d5c612d06565b5b80604052505050565b6000612d7061215b565b9050612d7c8282612d35565b919050565b600067ffffffffffffffff821115612d9c57612d9b612d06565b5b602082029050602081019050919050565b600080fd5b6000612dc5612dc084612d81565b612d66565b90508083825260208201905060208402830185811115612de857612de7612dad565b5b835b81811015612e115780612dfd88826122e8565b845260208401935050602081019050612dea565b5050509392505050565b600082601f830112612e3057612e2f612cf0565b5b8151612e40848260208601612db2565b91505092915050565b600060208284031215612e5f57612e5e612165565b5b600082015167ffffffffffffffff811115612e7d57612e7c61216a565b5b612e8984828501612e1b565b91505092915050565b7f746f6b656e73206e6f7420626f75676874000000000000000000000000000000600082015250565b6000612ec860118361257a565b9150612ed382612e92565b602082019050919050565b60006020820190508181036000830152612ef781612ebb565b9050919050565b7f746f6b656e7320626f7567687400000000000000000000000000000000000000600082015250565b6000612f34600d8361257a565b9150612f3f82612efe565b602082019050919050565b60006020820190508181036000830152612f6381612f27565b905091905056fea2646970667358221220977c1ad1ac6210cd7bc0ccbfc456f6603e32da2561f30200b31af5a718fbcfa164736f6c63430008110033",
					"opcodes": "PUSH1 0x80 PUSH1 0x40 MSTORE PUSH20 0xB4FBF271143F4FBF7B91A5DED31805E42B2208D6 PUSH1 0x0 DUP1 PUSH2 0x100 EXP DUP2 SLOAD DUP2 PUSH20 0xFFFFFFFFFFFFFFFFFFFFFFFFFFFFFFFFFFFFFFFF MUL NOT AND SWAP1 DUP4 PUSH20 0xFFFFFFFFFFFFFFFFFFFFFFFFFFFFFFFFFFFFFFFF AND MUL OR SWAP1 SSTORE POP PUSH20 0x7A250D5630B4CF539739DF2C5DACB4C659F2488D PUSH1 0x6 PUSH1 0x0 PUSH2 0x100 EXP DUP2 SLOAD DUP2 PUSH20 0xFFFFFFFFFFFFFFFFFFFFFFFFFFFFFFFFFFFFFFFF MUL NOT AND SWAP1 DUP4 PUSH20 0xFFFFFFFFFFFFFFFFFFFFFFFFFFFFFFFFFFFFFFFF AND MUL OR SWAP1 SSTORE POP PUSH1 0x5 PUSH1 0x0 SWAP1 SLOAD SWAP1 PUSH2 0x100 EXP SWAP1 DIV PUSH20 0xFFFFFFFFFFFFFFFFFFFFFFFFFFFFFFFFFFFFFFFF AND PUSH1 0x8 PUSH1 0x0 PUSH2 0x100 EXP DUP2 SLOAD DUP2 PUSH20 0xFFFFFFFFFFFFFFFFFFFFFFFFFFFFFFFFFFFFFFFF MUL NOT AND SWAP1 DUP4 PUSH20 0xFFFFFFFFFFFFFFFFFFFFFFFFFFFFFFFFFFFFFFFF AND MUL OR SWAP1 SSTORE POP PUSH1 0x0 DUP1 SLOAD SWAP1 PUSH2 0x100 EXP SWAP1 DIV PUSH20 0xFFFFFFFFFFFFFFFFFFFFFFFFFFFFFFFFFFFFFFFF AND PUSH1 0x9 PUSH1 0x0 PUSH2 0x100 EXP DUP2 SLOAD DUP2 PUSH20 0xFFFFFFFFFFFFFFFFFFFFFFFFFFFFFFFFFFFFFFFF MUL NOT AND SWAP1 DUP4 PUSH20 0xFFFFFFFFFFFFFFFFFFFFFFFFFFFFFFFFFFFFFFFF AND MUL OR SWAP1 SSTORE POP PUSH1 0x3 PUSH1 0x0 SWAP1 SLOAD SWAP1 PUSH2 0x100 EXP SWAP1 DIV PUSH20 0xFFFFFFFFFFFFFFFFFFFFFFFFFFFFFFFFFFFFFFFF AND PUSH1 0xA PUSH1 0x0 PUSH2 0x100 EXP DUP2 SLOAD DUP2 PUSH20 0xFFFFFFFFFFFFFFFFFFFFFFFFFFFFFFFFFFFFFFFF MUL NOT AND SWAP1 DUP4 PUSH20 0xFFFFFFFFFFFFFFFFFFFFFFFFFFFFFFFFFFFFFFFF AND MUL OR SWAP1 SSTORE POP PUSH1 0x6 PUSH1 0x0 SWAP1 SLOAD SWAP1 PUSH2 0x100 EXP SWAP1 DIV PUSH20 0xFFFFFFFFFFFFFFFFFFFFFFFFFFFFFFFFFFFFFFFF AND PUSH1 0xB PUSH1 0x0 PUSH2 0x100 EXP DUP2 SLOAD DUP2 PUSH20 0xFFFFFFFFFFFFFFFFFFFFFFFFFFFFFFFFFFFFFFFF MUL NOT AND SWAP1 DUP4 PUSH20 0xFFFFFFFFFFFFFFFFFFFFFFFFFFFFFFFFFFFFFFFF AND MUL OR SWAP1 SSTORE POP CALLVALUE DUP1 ISZERO PUSH3 0x244 JUMPI PUSH1 0x0 DUP1 REVERT JUMPDEST POP PUSH1 0x40 MLOAD PUSH3 0x3A54 CODESIZE SUB DUP1 PUSH3 0x3A54 DUP4 CODECOPY DUP2 DUP2 ADD PUSH1 0x40 MSTORE DUP2 ADD SWAP1 PUSH3 0x26A SWAP2 SWAP1 PUSH3 0x938 JUMP JUMPDEST DUP4 PUSH1 0x1 PUSH1 0x0 PUSH2 0x100 EXP DUP2 SLOAD DUP2 PUSH20 0xFFFFFFFFFFFFFFFFFFFFFFFFFFFFFFFFFFFFFFFF MUL NOT AND SWAP1 DUP4 PUSH20 0xFFFFFFFFFFFFFFFFFFFFFFFFFFFFFFFFFFFFFFFF AND MUL OR SWAP1 SSTORE POP PUSH1 0x1 PUSH1 0x0 SWAP1 SLOAD SWAP1 PUSH2 0x100 EXP SWAP1 DIV PUSH20 0xFFFFFFFFFFFFFFFFFFFFFFFFFFFFFFFFFFFFFFFF AND PUSH20 0xFFFFFFFFFFFFFFFFFFFFFFFFFFFFFFFFFFFFFFFF AND PUSH4 0xBD3733FE PUSH1 0x40 MLOAD DUP2 PUSH4 0xFFFFFFFF AND PUSH1 0xE0 SHL DUP2 MSTORE PUSH1 0x4 ADD PUSH1 0x20 PUSH1 0x40 MLOAD DUP1 DUP4 SUB DUP2 DUP7 GAS STATICCALL ISZERO DUP1 ISZERO PUSH3 0x319 JUMPI RETURNDATASIZE PUSH1 0x0 DUP1 RETURNDATACOPY RETURNDATASIZE PUSH1 0x0 REVERT JUMPDEST POP POP POP POP PUSH1 0x40 MLOAD RETURNDATASIZE PUSH1 0x1F NOT PUSH1 0x1F DUP3 ADD AND DUP3 ADD DUP1 PUSH1 0x40 MSTORE POP DUP2 ADD SWAP1 PUSH3 0x33F SWAP2 SWAP1 PUSH3 0x9AA JUMP JUMPDEST PUSH1 0x2 PUSH1 0x0 PUSH2 0x100 EXP DUP2 SLOAD DUP2 PUSH20 0xFFFFFFFFFFFFFFFFFFFFFFFFFFFFFFFFFFFFFFFF MUL NOT AND SWAP1 DUP4 PUSH20 0xFFFFFFFFFFFFFFFFFFFFFFFFFFFFFFFFFFFFFFFF AND MUL OR SWAP1 SSTORE POP PUSH1 0x1 PUSH1 0x0 SWAP1 SLOAD SWAP1 PUSH2 0x100 EXP SWAP1 DIV PUSH20 0xFFFFFFFFFFFFFFFFFFFFFFFFFFFFFFFFFFFFFFFF AND PUSH20 0xFFFFFFFFFFFFFFFFFFFFFFFFFFFFFFFFFFFFFFFF AND PUSH4 0xB18B78DD PUSH1 0x40 MLOAD DUP2 PUSH4 0xFFFFFFFF AND PUSH1 0xE0 SHL DUP2 MSTORE PUSH1 0x4 ADD PUSH1 0x20 PUSH1 0x40 MLOAD DUP1 DUP4 SUB DUP2 DUP7 GAS STATICCALL ISZERO DUP1 ISZERO PUSH3 0x3ED JUMPI RETURNDATASIZE PUSH1 0x0 DUP1 RETURNDATACOPY RETURNDATASIZE PUSH1 0x0 REVERT JUMPDEST POP POP POP POP PUSH1 0x40 MLOAD RETURNDATASIZE PUSH1 0x1F NOT PUSH1 0x1F DUP3 ADD AND DUP3 ADD DUP1 PUSH1 0x40 MSTORE POP DUP2 ADD SWAP1 PUSH3 0x413 SWAP2 SWAP1 PUSH3 0x9AA JUMP JUMPDEST PUSH1 0x3 PUSH1 0x0 PUSH2 0x100 EXP DUP2 SLOAD DUP2 PUSH20 0xFFFFFFFFFFFFFFFFFFFFFFFFFFFFFFFFFFFFFFFF MUL NOT AND SWAP1 DUP4 PUSH20 0xFFFFFFFFFFFFFFFFFFFFFFFFFFFFFFFFFFFFFFFF AND MUL OR SWAP1 SSTORE POP PUSH1 0x3 PUSH1 0x0 SWAP1 SLOAD SWAP1 PUSH2 0x100 EXP SWAP1 DIV PUSH20 0xFFFFFFFFFFFFFFFFFFFFFFFFFFFFFFFFFFFFFFFF AND PUSH1 0xA PUSH1 0x0 PUSH2 0x100 EXP DUP2 SLOAD DUP2 PUSH20 0xFFFFFFFFFFFFFFFFFFFFFFFFFFFFFFFFFFFFFFFF MUL NOT AND SWAP1 DUP4 PUSH20 0xFFFFFFFFFFFFFFFFFFFFFFFFFFFFFFFFFFFFFFFF AND MUL OR SWAP1 SSTORE POP DUP3 PUSH1 0x4 PUSH1 0x0 PUSH2 0x100 EXP DUP2 SLOAD DUP2 PUSH20 0xFFFFFFFFFFFFFFFFFFFFFFFFFFFFFFFFFFFFFFFF MUL NOT AND SWAP1 DUP4 PUSH20 0xFFFFFFFFFFFFFFFFFFFFFFFFFFFFFFFFFFFFFFFF AND MUL OR SWAP1 SSTORE POP DUP2 PUSH1 0x5 PUSH1 0x0 PUSH2 0x100 EXP DUP2 SLOAD DUP2 PUSH20 0xFFFFFFFFFFFFFFFFFFFFFFFFFFFFFFFFFFFFFFFF MUL NOT AND SWAP1 DUP4 PUSH20 0xFFFFFFFFFFFFFFFFFFFFFFFFFFFFFFFFFFFFFFFF AND MUL OR SWAP1 SSTORE POP PUSH1 0x5 PUSH1 0x0 SWAP1 SLOAD SWAP1 PUSH2 0x100 EXP SWAP1 DIV PUSH20 0xFFFFFFFFFFFFFFFFFFFFFFFFFFFFFFFFFFFFFFFF AND PUSH1 0x8 PUSH1 0x0 PUSH2 0x100 EXP DUP2 SLOAD DUP2 PUSH20 0xFFFFFFFFFFFFFFFFFFFFFFFFFFFFFFFFFFFFFFFF MUL NOT AND SWAP1 DUP4 PUSH20 0xFFFFFFFFFFFFFFFFFFFFFFFFFFFFFFFFFFFFFFFF AND MUL OR SWAP1 SSTORE POP PUSH3 0x5AC DUP2 PUSH3 0x760 PUSH1 0x20 SHL PUSH1 0x20 SHR JUMP JUMPDEST PUSH1 0x40 MLOAD DUP1 PUSH1 0x40 ADD PUSH1 0x40 MSTORE DUP1 PUSH1 0x0 DUP1 SLOAD SWAP1 PUSH2 0x100 EXP SWAP1 DIV PUSH20 0xFFFFFFFFFFFFFFFFFFFFFFFFFFFFFFFFFFFFFFFF AND PUSH20 0xFFFFFFFFFFFFFFFFFFFFFFFFFFFFFFFFFFFFFFFF AND PUSH20 0xFFFFFFFFFFFFFFFFFFFFFFFFFFFFFFFFFFFFFFFF AND DUP2 MSTORE PUSH1 0x20 ADD PUSH1 0x1 PUSH1 0x0 SWAP1 SLOAD SWAP1 PUSH2 0x100 EXP SWAP1 DIV PUSH20 0xFFFFFFFFFFFFFFFFFFFFFFFFFFFFFFFFFFFFFFFF AND PUSH20 0xFFFFFFFFFFFFFFFFFFFFFFFFFFFFFFFFFFFFFFFF AND PUSH20 0xFFFFFFFFFFFFFFFFFFFFFFFFFFFFFFFFFFFFFFFF AND DUP2 MSTORE POP PUSH1 0x7 SWAP1 PUSH1 0x2 PUSH3 0x66D SWAP3 SWAP2 SWAP1 PUSH3 0x820 JUMP JUMPDEST POP PUSH1 0x1 PUSH1 0x0 SWAP1 SLOAD SWAP1 PUSH2 0x100 EXP SWAP1 DIV PUSH20 0xFFFFFFFFFFFFFFFFFFFFFFFFFFFFFFFFFFFFFFFF AND PUSH20 0xFFFFFFFFFFFFFFFFFFFFFFFFFFFFFFFFFFFFFFFF AND PUSH4 0x95EA7B3 PUSH1 0x6 PUSH1 0x0 SWAP1 SLOAD SWAP1 PUSH2 0x100 EXP SWAP1 DIV PUSH20 0xFFFFFFFFFFFFFFFFFFFFFFFFFFFFFFFFFFFFFFFF AND PUSH32 0xFFFFFFFFFFFFFFFFFFFFFFFFFFFFFFFFFFFFFFFFFFFFFFFFFFFFFFFFFFFFFFFF PUSH1 0x40 MLOAD DUP4 PUSH4 0xFFFFFFFF AND PUSH1 0xE0 SHL DUP2 MSTORE PUSH1 0x4 ADD PUSH3 0x70F SWAP3 SWAP2 SWAP1 PUSH3 0xA08 JUMP JUMPDEST PUSH1 0x20 PUSH1 0x40 MLOAD DUP1 DUP4 SUB DUP2 PUSH1 0x0 DUP8 GAS CALL ISZERO DUP1 ISZERO PUSH3 0x72F JUMPI RETURNDATASIZE PUSH1 0x0 DUP1 RETURNDATACOPY RETURNDATASIZE PUSH1 0x0 REVERT JUMPDEST POP POP POP POP PUSH1 0x40 MLOAD RETURNDATASIZE PUSH1 0x1F NOT PUSH1 0x1F DUP3 ADD AND DUP3 ADD DUP1 PUSH1 0x40 MSTORE POP DUP2 ADD SWAP1 PUSH3 0x755 SWAP2 SWAP1 PUSH3 0xA72 JUMP JUMPDEST POP POP POP POP POP PUSH3 0xAA4 JUMP JUMPDEST PUSH3 0x773 PUSH1 0x0 DUP3 PUSH3 0x776 PUSH1 0x20 SHL PUSH1 0x20 SHR JUMP JUMPDEST POP JUMP JUMPDEST PUSH1 0x0 PUSH1 0xD DUP1 SLOAD SWAP1 POP SWAP1 POP PUSH1 0x0 PUSH1 0xC PUSH1 0x0 PUSH1 0xD DUP1 SLOAD SWAP1 POP DUP2 MSTORE PUSH1 0x20 ADD SWAP1 DUP2 MSTORE PUSH1 0x20 ADD PUSH1 0x0 KECCAK256 SWAP1 POP DUP2 DUP2 PUSH1 0x0 ADD DUP2 SWAP1 SSTORE POP DUP3 DUP2 PUSH1 0x1 ADD PUSH1 0x0 PUSH2 0x100 EXP DUP2 SLOAD DUP2 PUSH20 0xFFFFFFFFFFFFFFFFFFFFFFFFFFFFFFFFFFFFFFFF MUL NOT AND SWAP1 DUP4 PUSH20 0xFFFFFFFFFFFFFFFFFFFFFFFFFFFFFFFFFFFFFFFF AND MUL OR SWAP1 SSTORE POP DUP4 DUP2 PUSH1 0x2 ADD DUP2 SWAP1 SSTORE POP PUSH1 0xD DUP3 SWAP1 DUP1 PUSH1 0x1 DUP2 SLOAD ADD DUP1 DUP3 SSTORE DUP1 SWAP2 POP POP PUSH1 0x1 SWAP1 SUB SWAP1 PUSH1 0x0 MSTORE PUSH1 0x20 PUSH1 0x0 KECCAK256 ADD PUSH1 0x0 SWAP1 SWAP2 SWAP1 SWAP2 SWAP1 SWAP2 POP SSTORE POP POP POP POP JUMP JUMPDEST DUP3 DUP1 SLOAD DUP3 DUP3 SSTORE SWAP1 PUSH1 0x0 MSTORE PUSH1 0x20 PUSH1 0x0 KECCAK256 SWAP1 DUP2 ADD SWAP3 DUP3 ISZERO PUSH3 0x89C JUMPI SWAP2 PUSH1 0x20 MUL DUP3 ADD JUMPDEST DUP3 DUP2 GT ISZERO PUSH3 0x89B JUMPI DUP3 MLOAD DUP3 PUSH1 0x0 PUSH2 0x100 EXP DUP2 SLOAD DUP2 PUSH20 0xFFFFFFFFFFFFFFFFFFFFFFFFFFFFFFFFFFFFFFFF MUL NOT AND SWAP1 DUP4 PUSH20 0xFFFFFFFFFFFFFFFFFFFFFFFFFFFFFFFFFFFFFFFF AND MUL OR SWAP1 SSTORE POP SWAP2 PUSH1 0x20 ADD SWAP2 SWAP1 PUSH1 0x1 ADD SWAP1 PUSH3 0x841 JUMP JUMPDEST JUMPDEST POP SWAP1 POP PUSH3 0x8AB SWAP2 SWAP1 PUSH3 0x8AF JUMP JUMPDEST POP SWAP1 JUMP JUMPDEST JUMPDEST DUP1 DUP3 GT ISZERO PUSH3 0x8CA JUMPI PUSH1 0x0 DUP2 PUSH1 0x0 SWAP1 SSTORE POP PUSH1 0x1 ADD PUSH3 0x8B0 JUMP JUMPDEST POP SWAP1 JUMP JUMPDEST PUSH1 0x0 DUP1 REVERT JUMPDEST PUSH1 0x0 PUSH20 0xFFFFFFFFFFFFFFFFFFFFFFFFFFFFFFFFFFFFFFFF DUP3 AND SWAP1 POP SWAP2 SWAP1 POP JUMP JUMPDEST PUSH1 0x0 PUSH3 0x900 DUP3 PUSH3 0x8D3 JUMP JUMPDEST SWAP1 POP SWAP2 SWAP1 POP JUMP JUMPDEST PUSH3 0x912 DUP2 PUSH3 0x8F3 JUMP JUMPDEST DUP2 EQ PUSH3 0x91E JUMPI PUSH1 0x0 DUP1 REVERT JUMPDEST POP JUMP JUMPDEST PUSH1 0x0 DUP2 MLOAD SWAP1 POP PUSH3 0x932 DUP2 PUSH3 0x907 JUMP JUMPDEST SWAP3 SWAP2 POP POP JUMP JUMPDEST PUSH1 0x0 DUP1 PUSH1 0x0 DUP1 PUSH1 0x80 DUP6 DUP8 SUB SLT ISZERO PUSH3 0x955 JUMPI PUSH3 0x954 PUSH3 0x8CE JUMP JUMPDEST JUMPDEST PUSH1 0x0 PUSH3 0x965 DUP8 DUP3 DUP9 ADD PUSH3 0x921 JUMP JUMPDEST SWAP5 POP POP PUSH1 0x20 PUSH3 0x978 DUP8 DUP3 DUP9 ADD PUSH3 0x921 JUMP JUMPDEST SWAP4 POP POP PUSH1 0x40 PUSH3 0x98B DUP8 DUP3 DUP9 ADD PUSH3 0x921 JUMP JUMPDEST SWAP3 POP POP PUSH1 0x60 PUSH3 0x99E DUP8 DUP3 DUP9 ADD PUSH3 0x921 JUMP JUMPDEST SWAP2 POP POP SWAP3 SWAP6 SWAP2 SWAP5 POP SWAP3 POP JUMP JUMPDEST PUSH1 0x0 PUSH1 0x20 DUP3 DUP5 SUB SLT ISZERO PUSH3 0x9C3 JUMPI PUSH3 0x9C2 PUSH3 0x8CE JUMP JUMPDEST JUMPDEST PUSH1 0x0 PUSH3 0x9D3 DUP5 DUP3 DUP6 ADD PUSH3 0x921 JUMP JUMPDEST SWAP2 POP POP SWAP3 SWAP2 POP POP JUMP JUMPDEST PUSH3 0x9E7 DUP2 PUSH3 0x8F3 JUMP JUMPDEST DUP3 MSTORE POP POP JUMP JUMPDEST PUSH1 0x0 DUP2 SWAP1 POP SWAP2 SWAP1 POP JUMP JUMPDEST PUSH3 0xA02 DUP2 PUSH3 0x9ED JUMP JUMPDEST DUP3 MSTORE POP POP JUMP JUMPDEST PUSH1 0x0 PUSH1 0x40 DUP3 ADD SWAP1 POP PUSH3 0xA1F PUSH1 0x0 DUP4 ADD DUP6 PUSH3 0x9DC JUMP JUMPDEST PUSH3 0xA2E PUSH1 0x20 DUP4 ADD DUP5 PUSH3 0x9F7 JUMP JUMPDEST SWAP4 SWAP3 POP POP POP JUMP JUMPDEST PUSH1 0x0 DUP2 ISZERO ISZERO SWAP1 POP SWAP2 SWAP1 POP JUMP JUMPDEST PUSH3 0xA4C DUP2 PUSH3 0xA35 JUMP JUMPDEST DUP2 EQ PUSH3 0xA58 JUMPI PUSH1 0x0 DUP1 REVERT JUMPDEST POP JUMP JUMPDEST PUSH1 0x0 DUP2 MLOAD SWAP1 POP PUSH3 0xA6C DUP2 PUSH3 0xA41 JUMP JUMPDEST SWAP3 SWAP2 POP POP JUMP JUMPDEST PUSH1 0x0 PUSH1 0x20 DUP3 DUP5 SUB SLT ISZERO PUSH3 0xA8B JUMPI PUSH3 0xA8A PUSH3 0x8CE JUMP JUMPDEST JUMPDEST PUSH1 0x0 PUSH3 0xA9B DUP5 DUP3 DUP6 ADD PUSH3 0xA5B JUMP JUMPDEST SWAP2 POP POP SWAP3 SWAP2 POP POP JUMP JUMPDEST PUSH2 0x2FA0 DUP1 PUSH3 0xAB4 PUSH1 0x0 CODECOPY PUSH1 0x0 RETURN INVALID PUSH1 0x80 PUSH1 0x40 MSTORE PUSH1 0x4 CALLDATASIZE LT PUSH2 0x123 JUMPI PUSH1 0x0 CALLDATALOAD PUSH1 0xE0 SHR DUP1 PUSH4 0xA09EDE07 GT PUSH2 0xA0 JUMPI DUP1 PUSH4 0xAF6D1FE4 GT PUSH2 0x64 JUMPI DUP1 PUSH4 0xAF6D1FE4 EQ PUSH2 0x3BA JUMPI DUP1 PUSH4 0xBD3733FE EQ PUSH2 0x3F7 JUMPI DUP1 PUSH4 0xBFD9EA5B EQ PUSH2 0x422 JUMPI DUP1 PUSH4 0xC1F2E5F1 EQ PUSH2 0x44D JUMPI DUP1 PUSH4 0xD4AFA675 EQ PUSH2 0x478 JUMPI PUSH2 0x12A JUMP JUMPDEST DUP1 PUSH4 0xA09EDE07 EQ PUSH2 0x2E3 JUMPI DUP1 PUSH4 0xA6021ACE EQ PUSH2 0x30E JUMPI DUP1 PUSH4 0xA785A3D8 EQ PUSH2 0x339 JUMPI DUP1 PUSH4 0xA89AE4BA EQ PUSH2 0x364 JUMPI DUP1 PUSH4 0xAEF75107 EQ PUSH2 0x38F JUMPI PUSH2 0x12A JUMP JUMPDEST DUP1 PUSH4 0x4CFD1BA5 GT PUSH2 0xE7 JUMPI DUP1 PUSH4 0x4CFD1BA5 EQ PUSH2 0x20E JUMPI DUP1 PUSH4 0x51CFF8D9 EQ PUSH2 0x239 JUMPI DUP1 PUSH4 0x777B506F EQ PUSH2 0x262 JUMPI DUP1 PUSH4 0x86D02608 EQ PUSH2 0x28D JUMPI DUP1 PUSH4 0x9DD58B58 EQ PUSH2 0x2B8 JUMPI PUSH2 0x12A JUMP JUMPDEST DUP1 PUSH4 0xB2B4D9B EQ PUSH2 0x12F JUMPI DUP1 PUSH4 0x1B017FDE EQ PUSH2 0x14B JUMPI DUP1 PUSH4 0x20CA3C7F EQ PUSH2 0x174 JUMPI DUP1 PUSH4 0x2C4C3C1B EQ PUSH2 0x19F JUMPI DUP1 PUSH4 0x2EE9525B EQ PUSH2 0x1DE JUMPI PUSH2 0x12A JUMP JUMPDEST CALLDATASIZE PUSH2 0x12A JUMPI STOP JUMPDEST PUSH1 0x0 DUP1 REVERT JUMPDEST PUSH2 0x149 PUSH1 0x4 DUP1 CALLDATASIZE SUB DUP2 ADD SWAP1 PUSH2 0x144 SWAP2 SWAP1 PUSH2 0x21CD JUMP JUMPDEST PUSH2 0x4A1 JUMP JUMPDEST STOP JUMPDEST CALLVALUE DUP1 ISZERO PUSH2 0x157 JUMPI PUSH1 0x0 DUP1 REVERT JUMPDEST POP PUSH2 0x172 PUSH1 0x4 DUP1 CALLDATASIZE SUB DUP2 ADD SWAP1 PUSH2 0x16D SWAP2 SWAP1 PUSH2 0x21CD JUMP JUMPDEST PUSH2 0x4B6 JUMP JUMPDEST STOP JUMPDEST CALLVALUE DUP1 ISZERO PUSH2 0x180 JUMPI PUSH1 0x0 DUP1 REVERT JUMPDEST POP PUSH2 0x189 PUSH2 0x4FA JUMP JUMPDEST PUSH1 0x40 MLOAD PUSH2 0x196 SWAP2 SWAP1 PUSH2 0x2209 JUMP JUMPDEST PUSH1 0x40 MLOAD DUP1 SWAP2 SUB SWAP1 RETURN JUMPDEST CALLVALUE DUP1 ISZERO PUSH2 0x1AB JUMPI PUSH1 0x0 DUP1 REVERT JUMPDEST POP PUSH2 0x1C6 PUSH1 0x4 DUP1 CALLDATASIZE SUB DUP2 ADD SWAP1 PUSH2 0x1C1 SWAP2 SWAP1 PUSH2 0x225A JUMP JUMPDEST PUSH2 0x520 JUMP JUMPDEST PUSH1 0x40 MLOAD PUSH2 0x1D5 SWAP4 SWAP3 SWAP2 SWAP1 PUSH2 0x2296 JUMP JUMPDEST PUSH1 0x40 MLOAD DUP1 SWAP2 SUB SWAP1 RETURN JUMPDEST PUSH2 0x1F8 PUSH1 0x4 DUP1 CALLDATASIZE SUB DUP2 ADD SWAP1 PUSH2 0x1F3 SWAP2 SWAP1 PUSH2 0x225A JUMP JUMPDEST PUSH2 0x56A JUMP JUMPDEST PUSH1 0x40 MLOAD PUSH2 0x205 SWAP2 SWAP1 PUSH2 0x22CD JUMP JUMPDEST PUSH1 0x40 MLOAD DUP1 SWAP2 SUB SWAP1 RETURN JUMPDEST CALLVALUE DUP1 ISZERO PUSH2 0x21A JUMPI PUSH1 0x0 DUP1 REVERT JUMPDEST POP PUSH2 0x223 PUSH2 0xA2E JUMP JUMPDEST PUSH1 0x40 MLOAD PUSH2 0x230 SWAP2 SWAP1 PUSH2 0x22CD JUMP JUMPDEST PUSH1 0x40 MLOAD DUP1 SWAP2 SUB SWAP1 RETURN JUMPDEST CALLVALUE DUP1 ISZERO PUSH2 0x245 JUMPI PUSH1 0x0 DUP1 REVERT JUMPDEST POP PUSH2 0x260 PUSH1 0x4 DUP1 CALLDATASIZE SUB DUP2 ADD SWAP1 PUSH2 0x25B SWAP2 SWAP1 PUSH2 0x21CD JUMP JUMPDEST PUSH2 0xA34 JUMP JUMPDEST STOP JUMPDEST CALLVALUE DUP1 ISZERO PUSH2 0x26E JUMPI PUSH1 0x0 DUP1 REVERT JUMPDEST POP PUSH2 0x277 PUSH2 0xB3B JUMP JUMPDEST PUSH1 0x40 MLOAD PUSH2 0x284 SWAP2 SWAP1 PUSH2 0x2209 JUMP JUMPDEST PUSH1 0x40 MLOAD DUP1 SWAP2 SUB SWAP1 RETURN JUMPDEST CALLVALUE DUP1 ISZERO PUSH2 0x299 JUMPI PUSH1 0x0 DUP1 REVERT JUMPDEST POP PUSH2 0x2A2 PUSH2 0xB61 JUMP JUMPDEST PUSH1 0x40 MLOAD PUSH2 0x2AF SWAP2 SWAP1 PUSH2 0x22CD JUMP JUMPDEST PUSH1 0x40 MLOAD DUP1 SWAP2 SUB SWAP1 RETURN JUMPDEST CALLVALUE DUP1 ISZERO PUSH2 0x2C4 JUMPI PUSH1 0x0 DUP1 REVERT JUMPDEST POP PUSH2 0x2CD PUSH2 0xB67 JUMP JUMPDEST PUSH1 0x40 MLOAD PUSH2 0x2DA SWAP2 SWAP1 PUSH2 0x22CD JUMP JUMPDEST PUSH1 0x40 MLOAD DUP1 SWAP2 SUB SWAP1 RETURN JUMPDEST CALLVALUE DUP1 ISZERO PUSH2 0x2EF JUMPI PUSH1 0x0 DUP1 REVERT JUMPDEST POP PUSH2 0x2F8 PUSH2 0xC0A JUMP JUMPDEST PUSH1 0x40 MLOAD PUSH2 0x305 SWAP2 SWAP1 PUSH2 0x22CD JUMP JUMPDEST PUSH1 0x40 MLOAD DUP1 SWAP2 SUB SWAP1 RETURN JUMPDEST CALLVALUE DUP1 ISZERO PUSH2 0x31A JUMPI PUSH1 0x0 DUP1 REVERT JUMPDEST POP PUSH2 0x323 PUSH2 0xC10 JUMP JUMPDEST PUSH1 0x40 MLOAD PUSH2 0x330 SWAP2 SWAP1 PUSH2 0x2209 JUMP JUMPDEST PUSH1 0x40 MLOAD DUP1 SWAP2 SUB SWAP1 RETURN JUMPDEST CALLVALUE DUP1 ISZERO PUSH2 0x345 JUMPI PUSH1 0x0 DUP1 REVERT JUMPDEST POP PUSH2 0x34E PUSH2 0xC36 JUMP JUMPDEST PUSH1 0x40 MLOAD PUSH2 0x35B SWAP2 SWAP1 PUSH2 0x2209 JUMP JUMPDEST PUSH1 0x40 MLOAD DUP1 SWAP2 SUB SWAP1 RETURN JUMPDEST CALLVALUE DUP1 ISZERO PUSH2 0x370 JUMPI PUSH1 0x0 DUP1 REVERT JUMPDEST POP PUSH2 0x379 PUSH2 0xC5A JUMP JUMPDEST PUSH1 0x40 MLOAD PUSH2 0x386 SWAP2 SWAP1 PUSH2 0x2209 JUMP JUMPDEST PUSH1 0x40 MLOAD DUP1 SWAP2 SUB SWAP1 RETURN JUMPDEST CALLVALUE DUP1 ISZERO PUSH2 0x39B JUMPI PUSH1 0x0 DUP1 REVERT JUMPDEST POP PUSH2 0x3A4 PUSH2 0xC80 JUMP JUMPDEST PUSH1 0x40 MLOAD PUSH2 0x3B1 SWAP2 SWAP1 PUSH2 0x2209 JUMP JUMPDEST PUSH1 0x40 MLOAD DUP1 SWAP2 SUB SWAP1 RETURN JUMPDEST CALLVALUE DUP1 ISZERO PUSH2 0x3C6 JUMPI PUSH1 0x0 DUP1 REVERT JUMPDEST POP PUSH2 0x3E1 PUSH1 0x4 DUP1 CALLDATASIZE SUB DUP2 ADD SWAP1 PUSH2 0x3DC SWAP2 SWAP1 PUSH2 0x225A JUMP JUMPDEST PUSH2 0xCA6 JUMP JUMPDEST PUSH1 0x40 MLOAD PUSH2 0x3EE SWAP2 SWAP1 PUSH2 0x2209 JUMP JUMPDEST PUSH1 0x40 MLOAD DUP1 SWAP2 SUB SWAP1 RETURN JUMPDEST CALLVALUE DUP1 ISZERO PUSH2 0x403 JUMPI PUSH1 0x0 DUP1 REVERT JUMPDEST POP PUSH2 0x40C PUSH2 0xCE5 JUMP JUMPDEST PUSH1 0x40 MLOAD PUSH2 0x419 SWAP2 SWAP1 PUSH2 0x2209 JUMP JUMPDEST PUSH1 0x40 MLOAD DUP1 SWAP2 SUB SWAP1 RETURN JUMPDEST CALLVALUE DUP1 ISZERO PUSH2 0x42E JUMPI PUSH1 0x0 DUP1 REVERT JUMPDEST POP PUSH2 0x437 PUSH2 0xD0B JUMP JUMPDEST PUSH1 0x40 MLOAD PUSH2 0x444 SWAP2 SWAP1 PUSH2 0x22CD JUMP JUMPDEST PUSH1 0x40 MLOAD DUP1 SWAP2 SUB SWAP1 RETURN JUMPDEST CALLVALUE DUP1 ISZERO PUSH2 0x459 JUMPI PUSH1 0x0 DUP1 REVERT JUMPDEST POP PUSH2 0x462 PUSH2 0xD3A JUMP JUMPDEST PUSH1 0x40 MLOAD PUSH2 0x46F SWAP2 SWAP1 PUSH2 0x22CD JUMP JUMPDEST PUSH1 0x40 MLOAD DUP1 SWAP2 SUB SWAP1 RETURN JUMPDEST CALLVALUE DUP1 ISZERO PUSH2 0x484 JUMPI PUSH1 0x0 DUP1 REVERT JUMPDEST POP PUSH2 0x49F PUSH1 0x4 DUP1 CALLDATASIZE SUB DUP2 ADD SWAP1 PUSH2 0x49A SWAP2 SWAP1 PUSH2 0x225A JUMP JUMPDEST PUSH2 0xEB1 JUMP JUMPDEST STOP JUMPDEST PUSH2 0x4AB CALLVALUE DUP3 PUSH2 0xF43 JUMP JUMPDEST PUSH2 0x4B3 PUSH2 0xFED JUMP JUMPDEST POP JUMP JUMPDEST DUP1 PUSH1 0x1 PUSH1 0x0 PUSH2 0x100 EXP DUP2 SLOAD DUP2 PUSH20 0xFFFFFFFFFFFFFFFFFFFFFFFFFFFFFFFFFFFFFFFF MUL NOT AND SWAP1 DUP4 PUSH20 0xFFFFFFFFFFFFFFFFFFFFFFFFFFFFFFFFFFFFFFFF AND MUL OR SWAP1 SSTORE POP POP JUMP JUMPDEST PUSH1 0x6 PUSH1 0x0 SWAP1 SLOAD SWAP1 PUSH2 0x100 EXP SWAP1 DIV PUSH20 0xFFFFFFFFFFFFFFFFFFFFFFFFFFFFFFFFFFFFFFFF AND DUP2 JUMP JUMPDEST PUSH1 0xC PUSH1 0x20 MSTORE DUP1 PUSH1 0x0 MSTORE PUSH1 0x40 PUSH1 0x0 KECCAK256 PUSH1 0x0 SWAP2 POP SWAP1 POP DUP1 PUSH1 0x0 ADD SLOAD SWAP1 DUP1 PUSH1 0x1 ADD PUSH1 0x0 SWAP1 SLOAD SWAP1 PUSH2 0x100 EXP SWAP1 DIV PUSH20 0xFFFFFFFFFFFFFFFFFFFFFFFFFFFFFFFFFFFFFFFF AND SWAP1 DUP1 PUSH1 0x2 ADD SLOAD SWAP1 POP DUP4 JUMP JUMPDEST PUSH1 0x0 DUP1 PUSH1 0x0 PUSH1 0x1 PUSH1 0x0 SWAP1 SLOAD SWAP1 PUSH2 0x100 EXP SWAP1 DIV PUSH20 0xFFFFFFFFFFFFFFFFFFFFFFFFFFFFFFFFFFFFFFFF AND PUSH20 0xFFFFFFFFFFFFFFFFFFFFFFFFFFFFFFFFFFFFFFFF AND PUSH4 0x70A08231 ADDRESS PUSH1 0x40 MLOAD DUP3 PUSH4 0xFFFFFFFF AND PUSH1 0xE0 SHL DUP2 MSTORE PUSH1 0x4 ADD PUSH2 0x5CA SWAP2 SWAP1 PUSH2 0x2209 JUMP JUMPDEST PUSH1 0x20 PUSH1 0x40 MLOAD DUP1 DUP4 SUB DUP2 DUP7 GAS STATICCALL ISZERO DUP1 ISZERO PUSH2 0x5E7 JUMPI RETURNDATASIZE PUSH1 0x0 DUP1 RETURNDATACOPY RETURNDATASIZE PUSH1 0x0 REVERT JUMPDEST POP POP POP POP PUSH1 0x40 MLOAD RETURNDATASIZE PUSH1 0x1F NOT PUSH1 0x1F DUP3 ADD AND DUP3 ADD DUP1 PUSH1 0x40 MSTORE POP DUP2 ADD SWAP1 PUSH2 0x60B SWAP2 SWAP1 PUSH2 0x22FD JUMP JUMPDEST SWAP1 POP PUSH1 0x0 PUSH1 0x64 PUSH1 0x69 PUSH1 0xA PUSH1 0x0 SWAP1 SLOAD SWAP1 PUSH2 0x100 EXP SWAP1 DIV PUSH20 0xFFFFFFFFFFFFFFFFFFFFFFFFFFFFFFFFFFFFFFFF AND PUSH20 0xFFFFFFFFFFFFFFFFFFFFFFFFFFFFFFFFFFFFFFFF AND PUSH4 0x3AC35585 PUSH1 0x0 DUP1 SLOAD SWAP1 PUSH2 0x100 EXP SWAP1 DIV PUSH20 0xFFFFFFFFFFFFFFFFFFFFFFFFFFFFFFFFFFFFFFFF AND DUP10 PUSH1 0x40 MLOAD DUP4 PUSH4 0xFFFFFFFF AND PUSH1 0xE0 SHL DUP2 MSTORE PUSH1 0x4 ADD PUSH2 0x690 SWAP3 SWAP2 SWAP1 PUSH2 0x232A JUMP JUMPDEST PUSH1 0x20 PUSH1 0x40 MLOAD DUP1 DUP4 SUB DUP2 DUP7 GAS STATICCALL ISZERO DUP1 ISZERO PUSH2 0x6AD JUMPI RETURNDATASIZE PUSH1 0x0 DUP1 RETURNDATACOPY RETURNDATASIZE PUSH1 0x0 REVERT JUMPDEST POP POP POP POP PUSH1 0x40 MLOAD RETURNDATASIZE PUSH1 0x1F NOT PUSH1 0x1F DUP3 ADD AND DUP3 ADD DUP1 PUSH1 0x40 MSTORE POP DUP2 ADD SWAP1 PUSH2 0x6D1 SWAP2 SWAP1 PUSH2 0x22FD JUMP JUMPDEST PUSH2 0x6DB SWAP2 SWAP1 PUSH2 0x2382 JUMP JUMPDEST PUSH2 0x6E5 SWAP2 SWAP1 PUSH2 0x23F3 JUMP JUMPDEST SWAP1 POP DUP2 DUP2 GT ISZERO PUSH2 0x828 JUMPI PUSH1 0x1 PUSH1 0x0 SWAP1 SLOAD SWAP1 PUSH2 0x100 EXP SWAP1 DIV PUSH20 0xFFFFFFFFFFFFFFFFFFFFFFFFFFFFFFFFFFFFFFFF AND PUSH20 0xFFFFFFFFFFFFFFFFFFFFFFFFFFFFFFFFFFFFFFFF AND PUSH4 0x96FE8349 DUP4 DUP4 PUSH2 0x739 SWAP2 SWAP1 PUSH2 0x2424 JUMP JUMPDEST ADDRESS PUSH1 0x40 MLOAD DUP4 PUSH4 0xFFFFFFFF AND PUSH1 0xE0 SHL DUP2 MSTORE PUSH1 0x4 ADD PUSH2 0x757 SWAP3 SWAP2 SWAP1 PUSH2 0x2458 JUMP JUMPDEST PUSH1 0x0 PUSH1 0x40 MLOAD DUP1 DUP4 SUB DUP2 PUSH1 0x0 DUP8 DUP1 EXTCODESIZE ISZERO DUP1 ISZERO PUSH2 0x771 JUMPI PUSH1 0x0 DUP1 REVERT JUMPDEST POP GAS CALL ISZERO DUP1 ISZERO PUSH2 0x785 JUMPI RETURNDATASIZE PUSH1 0x0 DUP1 RETURNDATACOPY RETURNDATASIZE PUSH1 0x0 REVERT JUMPDEST POP POP POP POP PUSH1 0x1 PUSH1 0x0 SWAP1 SLOAD SWAP1 PUSH2 0x100 EXP SWAP1 DIV PUSH20 0xFFFFFFFFFFFFFFFFFFFFFFFFFFFFFFFFFFFFFFFF AND PUSH20 0xFFFFFFFFFFFFFFFFFFFFFFFFFFFFFFFFFFFFFFFF AND PUSH4 0x70A08231 ADDRESS PUSH1 0x40 MLOAD DUP3 PUSH4 0xFFFFFFFF AND PUSH1 0xE0 SHL DUP2 MSTORE PUSH1 0x4 ADD PUSH2 0x7E4 SWAP2 SWAP1 PUSH2 0x2209 JUMP JUMPDEST PUSH1 0x20 PUSH1 0x40 MLOAD DUP1 DUP4 SUB DUP2 DUP7 GAS STATICCALL ISZERO DUP1 ISZERO PUSH2 0x801 JUMPI RETURNDATASIZE PUSH1 0x0 DUP1 RETURNDATACOPY RETURNDATASIZE PUSH1 0x0 REVERT JUMPDEST POP POP POP POP PUSH1 0x40 MLOAD RETURNDATASIZE PUSH1 0x1F NOT PUSH1 0x1F DUP3 ADD AND DUP3 ADD DUP1 PUSH1 0x40 MSTORE POP DUP2 ADD SWAP1 PUSH2 0x825 SWAP2 SWAP1 PUSH2 0x22FD JUMP JUMPDEST SWAP2 POP JUMPDEST PUSH1 0xB PUSH1 0x0 SWAP1 SLOAD SWAP1 PUSH2 0x100 EXP SWAP1 DIV PUSH20 0xFFFFFFFFFFFFFFFFFFFFFFFFFFFFFFFFFFFFFFFF AND PUSH20 0xFFFFFFFFFFFFFFFFFFFFFFFFFFFFFFFFFFFFFFFF AND PUSH4 0xF305D719 DUP7 ADDRESS DUP5 PUSH1 0x0 PUSH1 0x64 PUSH1 0x5F DUP13 PUSH2 0x87A SWAP2 SWAP1 PUSH2 0x2382 JUMP JUMPDEST PUSH2 0x884 SWAP2 SWAP1 PUSH2 0x23F3 JUMP JUMPDEST ADDRESS PUSH32 0xFFFFFFFFFFFFFFFFFFFFFFFFFFFFFFFFFFFFFFFFFFFFFFFFFFFFFFFFFFFFFFFF PUSH1 0x40 MLOAD DUP9 PUSH4 0xFFFFFFFF AND PUSH1 0xE0 SHL DUP2 MSTORE PUSH1 0x4 ADD PUSH2 0x8C7 SWAP7 SWAP6 SWAP5 SWAP4 SWAP3 SWAP2 SWAP1 PUSH2 0x24C6 JUMP JUMPDEST PUSH1 0x60 PUSH1 0x40 MLOAD DUP1 DUP4 SUB DUP2 DUP6 DUP9 GAS CALL SWAP4 POP POP POP POP DUP1 ISZERO PUSH2 0x903 JUMPI POP PUSH1 0x40 MLOAD RETURNDATASIZE PUSH1 0x1F NOT PUSH1 0x1F DUP3 ADD AND DUP3 ADD DUP1 PUSH1 0x40 MSTORE POP DUP2 ADD SWAP1 PUSH2 0x900 SWAP2 SWAP1 PUSH2 0x2527 JUMP JUMPDEST PUSH1 0x1 JUMPDEST PUSH2 0x941 JUMPI PUSH32 0xCF34EF537AC33EE1AC626CA1587A0A7E8E51561E5514F8CB36AFA1C5102B3BAB PUSH1 0x40 MLOAD PUSH2 0x934 SWAP1 PUSH2 0x25D7 JUMP JUMPDEST PUSH1 0x40 MLOAD DUP1 SWAP2 SUB SWAP1 LOG1 PUSH2 0xA23 JUMP JUMPDEST POP POP POP PUSH32 0xCF34EF537AC33EE1AC626CA1587A0A7E8E51561E5514F8CB36AFA1C5102B3BAB PUSH1 0x40 MLOAD PUSH2 0x971 SWAP1 PUSH2 0x2643 JUMP JUMPDEST PUSH1 0x40 MLOAD DUP1 SWAP2 SUB SWAP1 LOG1 PUSH1 0x1 PUSH1 0x0 SWAP1 SLOAD SWAP1 PUSH2 0x100 EXP SWAP1 DIV PUSH20 0xFFFFFFFFFFFFFFFFFFFFFFFFFFFFFFFFFFFFFFFF AND PUSH20 0xFFFFFFFFFFFFFFFFFFFFFFFFFFFFFFFFFFFFFFFF AND PUSH4 0x70A08231 ADDRESS PUSH1 0x40 MLOAD DUP3 PUSH4 0xFFFFFFFF AND PUSH1 0xE0 SHL DUP2 MSTORE PUSH1 0x4 ADD PUSH2 0x9D4 SWAP2 SWAP1 PUSH2 0x2209 JUMP JUMPDEST PUSH1 0x20 PUSH1 0x40 MLOAD DUP1 DUP4 SUB DUP2 DUP7 GAS STATICCALL ISZERO DUP1 ISZERO PUSH2 0x9F1 JUMPI RETURNDATASIZE PUSH1 0x0 DUP1 RETURNDATACOPY RETURNDATASIZE PUSH1 0x0 REVERT JUMPDEST POP POP POP POP PUSH1 0x40 MLOAD RETURNDATASIZE PUSH1 0x1F NOT PUSH1 0x1F DUP3 ADD AND DUP3 ADD DUP1 PUSH1 0x40 MSTORE POP DUP2 ADD SWAP1 PUSH2 0xA15 SWAP2 SWAP1 PUSH2 0x22FD JUMP JUMPDEST DUP3 PUSH2 0xA20 SWAP2 SWAP1 PUSH2 0x2424 JUMP JUMPDEST SWAP3 POP JUMPDEST DUP3 SWAP4 POP POP POP POP SWAP2 SWAP1 POP JUMP JUMPDEST PUSH1 0xF SLOAD DUP2 JUMP JUMPDEST PUSH1 0x0 DUP2 SWAP1 POP PUSH1 0x0 DUP2 PUSH20 0xFFFFFFFFFFFFFFFFFFFFFFFFFFFFFFFFFFFFFFFF AND PUSH4 0x70A08231 ADDRESS PUSH1 0x40 MLOAD DUP3 PUSH4 0xFFFFFFFF AND PUSH1 0xE0 SHL DUP2 MSTORE PUSH1 0x4 ADD PUSH2 0xA74 SWAP2 SWAP1 PUSH2 0x2209 JUMP JUMPDEST PUSH1 0x20 PUSH1 0x40 MLOAD DUP1 DUP4 SUB DUP2 DUP7 GAS STATICCALL ISZERO DUP1 ISZERO PUSH2 0xA91 JUMPI RETURNDATASIZE PUSH1 0x0 DUP1 RETURNDATACOPY RETURNDATASIZE PUSH1 0x0 REVERT JUMPDEST POP POP POP POP PUSH1 0x40 MLOAD RETURNDATASIZE PUSH1 0x1F NOT PUSH1 0x1F DUP3 ADD AND DUP3 ADD DUP1 PUSH1 0x40 MSTORE POP DUP2 ADD SWAP1 PUSH2 0xAB5 SWAP2 SWAP1 PUSH2 0x22FD JUMP JUMPDEST SWAP1 POP DUP2 PUSH20 0xFFFFFFFFFFFFFFFFFFFFFFFFFFFFFFFFFFFFFFFF AND PUSH4 0xA9059CBB CALLER DUP4 PUSH1 0x40 MLOAD DUP4 PUSH4 0xFFFFFFFF AND PUSH1 0xE0 SHL DUP2 MSTORE PUSH1 0x4 ADD PUSH2 0xAF2 SWAP3 SWAP2 SWAP1 PUSH2 0x232A JUMP JUMPDEST PUSH1 0x20 PUSH1 0x40 MLOAD DUP1 DUP4 SUB DUP2 PUSH1 0x0 DUP8 GAS CALL ISZERO DUP1 ISZERO PUSH2 0xB11 JUMPI RETURNDATASIZE PUSH1 0x0 DUP1 RETURNDATACOPY RETURNDATASIZE PUSH1 0x0 REVERT JUMPDEST POP POP POP POP PUSH1 0x40 MLOAD RETURNDATASIZE PUSH1 0x1F NOT PUSH1 0x1F DUP3 ADD AND DUP3 ADD DUP1 PUSH1 0x40 MSTORE POP DUP2 ADD SWAP1 PUSH2 0xB35 SWAP2 SWAP1 PUSH2 0x269B JUMP JUMPDEST POP POP POP POP JUMP JUMPDEST PUSH1 0x4 PUSH1 0x0 SWAP1 SLOAD SWAP1 PUSH2 0x100 EXP SWAP1 DIV PUSH20 0xFFFFFFFFFFFFFFFFFFFFFFFFFFFFFFFFFFFFFFFF AND DUP2 JUMP JUMPDEST PUSH1 0xE SLOAD DUP2 JUMP JUMPDEST PUSH1 0x0 PUSH1 0x9 PUSH1 0x0 SWAP1 SLOAD SWAP1 PUSH2 0x100 EXP SWAP1 DIV PUSH20 0xFFFFFFFFFFFFFFFFFFFFFFFFFFFFFFFFFFFFFFFF AND PUSH20 0xFFFFFFFFFFFFFFFFFFFFFFFFFFFFFFFFFFFFFFFF AND PUSH4 0x70A08231 ADDRESS PUSH1 0x40 MLOAD DUP3 PUSH4 0xFFFFFFFF AND PUSH1 0xE0 SHL DUP2 MSTORE PUSH1 0x4 ADD PUSH2 0xBC4 SWAP2 SWAP1 PUSH2 0x2209 JUMP JUMPDEST PUSH1 0x20 PUSH1 0x40 MLOAD DUP1 DUP4 SUB DUP2 DUP7 GAS STATICCALL ISZERO DUP1 ISZERO PUSH2 0xBE1 JUMPI RETURNDATASIZE PUSH1 0x0 DUP1 RETURNDATACOPY RETURNDATASIZE PUSH1 0x0 REVERT JUMPDEST POP POP POP POP PUSH1 0x40 MLOAD RETURNDATASIZE PUSH1 0x1F NOT PUSH1 0x1F DUP3 ADD AND DUP3 ADD DUP1 PUSH1 0x40 MSTORE POP DUP2 ADD SWAP1 PUSH2 0xC05 SWAP2 SWAP1 PUSH2 0x22FD JUMP JUMPDEST SWAP1 POP SWAP1 JUMP JUMPDEST PUSH1 0x10 SLOAD DUP2 JUMP JUMPDEST PUSH1 0x1 PUSH1 0x0 SWAP1 SLOAD SWAP1 PUSH2 0x100 EXP SWAP1 DIV PUSH20 0xFFFFFFFFFFFFFFFFFFFFFFFFFFFFFFFFFFFFFFFF AND DUP2 JUMP JUMPDEST PUSH1 0x0 DUP1 SLOAD SWAP1 PUSH2 0x100 EXP SWAP1 DIV PUSH20 0xFFFFFFFFFFFFFFFFFFFFFFFFFFFFFFFFFFFFFFFF AND DUP2 JUMP JUMPDEST PUSH1 0x3 PUSH1 0x0 SWAP1 SLOAD SWAP1 PUSH2 0x100 EXP SWAP1 DIV PUSH20 0xFFFFFFFFFFFFFFFFFFFFFFFFFFFFFFFFFFFFFFFF AND DUP2 JUMP JUMPDEST PUSH1 0x5 PUSH1 0x0 SWAP1 SLOAD SWAP1 PUSH2 0x100 EXP SWAP1 DIV PUSH20 0xFFFFFFFFFFFFFFFFFFFFFFFFFFFFFFFFFFFFFFFF AND DUP2 JUMP JUMPDEST PUSH1 0x7 DUP2 DUP2 SLOAD DUP2 LT PUSH2 0xCB6 JUMPI PUSH1 0x0 DUP1 REVERT JUMPDEST SWAP1 PUSH1 0x0 MSTORE PUSH1 0x20 PUSH1 0x0 KECCAK256 ADD PUSH1 0x0 SWAP2 POP SLOAD SWAP1 PUSH2 0x100 EXP SWAP1 DIV PUSH20 0xFFFFFFFFFFFFFFFFFFFFFFFFFFFFFFFFFFFFFFFF AND DUP2 JUMP JUMPDEST PUSH1 0x2 PUSH1 0x0 SWAP1 SLOAD SWAP1 PUSH2 0x100 EXP SWAP1 DIV PUSH20 0xFFFFFFFFFFFFFFFFFFFFFFFFFFFFFFFFFFFFFFFF AND DUP2 JUMP JUMPDEST PUSH1 0x0 PUSH1 0xC PUSH1 0x0 PUSH1 0x1 PUSH1 0xD DUP1 SLOAD SWAP1 POP PUSH2 0xD23 SWAP2 SWAP1 PUSH2 0x2424 JUMP JUMPDEST DUP2 MSTORE PUSH1 0x20 ADD SWAP1 DUP2 MSTORE PUSH1 0x20 ADD PUSH1 0x0 KECCAK256 PUSH1 0x2 ADD SLOAD SWAP1 POP SWAP1 JUMP JUMPDEST PUSH1 0x0 DUP1 PUSH1 0x1 PUSH1 0x0 SWAP1 SLOAD SWAP1 PUSH2 0x100 EXP SWAP1 DIV PUSH20 0xFFFFFFFFFFFFFFFFFFFFFFFFFFFFFFFFFFFFFFFF AND PUSH20 0xFFFFFFFFFFFFFFFFFFFFFFFFFFFFFFFFFFFFFFFF AND PUSH4 0x18160DDD PUSH1 0x40 MLOAD DUP2 PUSH4 0xFFFFFFFF AND PUSH1 0xE0 SHL DUP2 MSTORE PUSH1 0x4 ADD PUSH1 0x20 PUSH1 0x40 MLOAD DUP1 DUP4 SUB DUP2 DUP7 GAS STATICCALL ISZERO DUP1 ISZERO PUSH2 0xDAA JUMPI RETURNDATASIZE PUSH1 0x0 DUP1 RETURNDATACOPY RETURNDATASIZE PUSH1 0x0 REVERT JUMPDEST POP POP POP POP PUSH1 0x40 MLOAD RETURNDATASIZE PUSH1 0x1F NOT PUSH1 0x1F DUP3 ADD AND DUP3 ADD DUP1 PUSH1 0x40 MSTORE POP DUP2 ADD SWAP1 PUSH2 0xDCE SWAP2 SWAP1 PUSH2 0x22FD JUMP JUMPDEST SWAP1 POP PUSH1 0x0 PUSH1 0x1 PUSH1 0x0 SWAP1 SLOAD SWAP1 PUSH2 0x100 EXP SWAP1 DIV PUSH20 0xFFFFFFFFFFFFFFFFFFFFFFFFFFFFFFFFFFFFFFFF AND PUSH20 0xFFFFFFFFFFFFFFFFFFFFFFFFFFFFFFFFFFFFFFFF AND PUSH4 0x70A08231 PUSH1 0x2 PUSH1 0x0 SWAP1 SLOAD SWAP1 PUSH2 0x100 EXP SWAP1 DIV PUSH20 0xFFFFFFFFFFFFFFFFFFFFFFFFFFFFFFFFFFFFFFFF AND PUSH1 0x40 MLOAD DUP3 PUSH4 0xFFFFFFFF AND PUSH1 0xE0 SHL DUP2 MSTORE PUSH1 0x4 ADD PUSH2 0xE4F SWAP2 SWAP1 PUSH2 0x2209 JUMP JUMPDEST PUSH1 0x20 PUSH1 0x40 MLOAD DUP1 DUP4 SUB DUP2 DUP7 GAS STATICCALL ISZERO DUP1 ISZERO PUSH2 0xE6C JUMPI RETURNDATASIZE PUSH1 0x0 DUP1 RETURNDATACOPY RETURNDATASIZE PUSH1 0x0 REVERT JUMPDEST POP POP POP POP PUSH1 0x40 MLOAD RETURNDATASIZE PUSH1 0x1F NOT PUSH1 0x1F DUP3 ADD AND DUP3 ADD DUP1 PUSH1 0x40 MSTORE POP DUP2 ADD SWAP1 PUSH2 0xE90 SWAP2 SWAP1 PUSH2 0x22FD JUMP JUMPDEST SWAP1 POP DUP2 PUSH1 0x64 DUP3 PUSH2 0xEA0 SWAP2 SWAP1 PUSH2 0x2382 JUMP JUMPDEST PUSH2 0xEAA SWAP2 SWAP1 PUSH2 0x23F3 JUMP JUMPDEST SWAP3 POP POP POP SWAP1 JUMP JUMPDEST PUSH1 0x1 PUSH1 0x0 SWAP1 SLOAD SWAP1 PUSH2 0x100 EXP SWAP1 DIV PUSH20 0xFFFFFFFFFFFFFFFFFFFFFFFFFFFFFFFFFFFFFFFF AND PUSH20 0xFFFFFFFFFFFFFFFFFFFFFFFFFFFFFFFFFFFFFFFF AND PUSH4 0x96FE8349 DUP3 CALLER PUSH1 0x40 MLOAD DUP4 PUSH4 0xFFFFFFFF AND PUSH1 0xE0 SHL DUP2 MSTORE PUSH1 0x4 ADD PUSH2 0xF0E SWAP3 SWAP2 SWAP1 PUSH2 0x2458 JUMP JUMPDEST PUSH1 0x0 PUSH1 0x40 MLOAD DUP1 DUP4 SUB DUP2 PUSH1 0x0 DUP8 DUP1 EXTCODESIZE ISZERO DUP1 ISZERO PUSH2 0xF28 JUMPI PUSH1 0x0 DUP1 REVERT JUMPDEST POP GAS CALL ISZERO DUP1 ISZERO PUSH2 0xF3C JUMPI RETURNDATASIZE PUSH1 0x0 DUP1 RETURNDATACOPY RETURNDATASIZE PUSH1 0x0 REVERT JUMPDEST POP POP POP POP POP JUMP JUMPDEST PUSH1 0x0 PUSH1 0xD DUP1 SLOAD SWAP1 POP SWAP1 POP PUSH1 0x0 PUSH1 0xC PUSH1 0x0 PUSH1 0xD DUP1 SLOAD SWAP1 POP DUP2 MSTORE PUSH1 0x20 ADD SWAP1 DUP2 MSTORE PUSH1 0x20 ADD PUSH1 0x0 KECCAK256 SWAP1 POP DUP2 DUP2 PUSH1 0x0 ADD DUP2 SWAP1 SSTORE POP DUP3 DUP2 PUSH1 0x1 ADD PUSH1 0x0 PUSH2 0x100 EXP DUP2 SLOAD DUP2 PUSH20 0xFFFFFFFFFFFFFFFFFFFFFFFFFFFFFFFFFFFFFFFF MUL NOT AND SWAP1 DUP4 PUSH20 0xFFFFFFFFFFFFFFFFFFFFFFFFFFFFFFFFFFFFFFFF AND MUL OR SWAP1 SSTORE POP DUP4 DUP2 PUSH1 0x2 ADD DUP2 SWAP1 SSTORE POP PUSH1 0xD DUP3 SWAP1 DUP1 PUSH1 0x1 DUP2 SLOAD ADD DUP1 DUP3 SSTORE DUP1 SWAP2 POP POP PUSH1 0x1 SWAP1 SUB SWAP1 PUSH1 0x0 MSTORE PUSH1 0x20 PUSH1 0x0 KECCAK256 ADD PUSH1 0x0 SWAP1 SWAP2 SWAP1 SWAP2 SWAP1 SWAP2 POP SSTORE POP POP POP POP JUMP JUMPDEST PUSH1 0x0 CALLVALUE SWAP1 POP PUSH1 0x0 PUSH1 0xF SLOAD GT ISZERO PUSH2 0x103F JUMPI PUSH1 0x0 SELFBALANCE SWAP1 POP PUSH2 0x100D PUSH1 0xF SLOAD PUSH2 0x1315 JUMP JUMPDEST PUSH1 0x0 SELFBALANCE SWAP1 POP PUSH1 0x0 DUP2 DUP4 PUSH2 0x1020 SWAP2 SWAP1 PUSH2 0x2424 JUMP JUMPDEST SWAP1 POP DUP1 PUSH1 0xF PUSH1 0x0 DUP3 DUP3 SLOAD PUSH2 0x1034 SWAP2 SWAP1 PUSH2 0x2424 JUMP JUMPDEST SWAP3 POP POP DUP2 SWAP1 SSTORE POP POP POP POP JUMPDEST PUSH1 0x0 PUSH1 0x10 SLOAD GT ISZERO PUSH2 0x108D JUMPI PUSH1 0x0 SELFBALANCE SWAP1 POP PUSH2 0x105A PUSH1 0x10 SLOAD PUSH2 0x1420 JUMP JUMPDEST POP PUSH1 0x0 SELFBALANCE SWAP1 POP PUSH1 0x0 DUP2 DUP4 PUSH2 0x106E SWAP2 SWAP1 PUSH2 0x2424 JUMP JUMPDEST SWAP1 POP DUP1 PUSH1 0x10 PUSH1 0x0 DUP3 DUP3 SLOAD PUSH2 0x1082 SWAP2 SWAP1 PUSH2 0x2424 JUMP JUMPDEST SWAP3 POP POP DUP2 SWAP1 SSTORE POP POP POP POP JUMPDEST PUSH1 0x0 PUSH1 0xC PUSH1 0x0 PUSH1 0x1 PUSH1 0xD DUP1 SLOAD SWAP1 POP PUSH2 0x10A5 SWAP2 SWAP1 PUSH2 0x2424 JUMP JUMPDEST DUP2 MSTORE PUSH1 0x20 ADD SWAP1 DUP2 MSTORE PUSH1 0x20 ADD PUSH1 0x0 KECCAK256 PUSH1 0x1 ADD PUSH1 0x0 SWAP1 SLOAD SWAP1 PUSH2 0x100 EXP SWAP1 DIV PUSH20 0xFFFFFFFFFFFFFFFFFFFFFFFFFFFFFFFFFFFFFFFF AND SWAP1 POP PUSH2 0x10E2 DUP2 PUSH2 0x18E4 JUMP JUMPDEST PUSH1 0x8 PUSH1 0x0 SWAP1 SLOAD SWAP1 PUSH2 0x100 EXP SWAP1 DIV PUSH20 0xFFFFFFFFFFFFFFFFFFFFFFFFFFFFFFFFFFFFFFFF AND PUSH20 0xFFFFFFFFFFFFFFFFFFFFFFFFFFFFFFFFFFFFFFFF AND PUSH4 0x6A627842 DUP3 PUSH1 0x40 MLOAD DUP3 PUSH4 0xFFFFFFFF AND PUSH1 0xE0 SHL DUP2 MSTORE PUSH1 0x4 ADD PUSH2 0x113D SWAP2 SWAP1 PUSH2 0x2209 JUMP JUMPDEST PUSH1 0x0 PUSH1 0x40 MLOAD DUP1 DUP4 SUB DUP2 PUSH1 0x0 DUP8 DUP1 EXTCODESIZE ISZERO DUP1 ISZERO PUSH2 0x1157 JUMPI PUSH1 0x0 DUP1 REVERT JUMPDEST POP GAS CALL ISZERO DUP1 ISZERO PUSH2 0x116B JUMPI RETURNDATASIZE PUSH1 0x0 DUP1 RETURNDATACOPY RETURNDATASIZE PUSH1 0x0 REVERT JUMPDEST POP POP POP POP PUSH1 0x0 PUSH2 0x1179 PUSH2 0xD3A JUMP JUMPDEST SWAP1 POP PUSH32 0xCF34EF537AC33EE1AC626CA1587A0A7E8E51561E5514F8CB36AFA1C5102B3BAB PUSH1 0x40 MLOAD PUSH2 0x11A8 SWAP1 PUSH2 0x2714 JUMP JUMPDEST PUSH1 0x40 MLOAD DUP1 SWAP2 SUB SWAP1 LOG1 PUSH32 0xB8A00D6D8CA1BE30BFEC34D8F97E55F0F0FD9EEB7FB46E030516363D4CFE1AD6 DUP3 PUSH1 0x40 MLOAD PUSH2 0x11DF SWAP2 SWAP1 PUSH2 0x2209 JUMP JUMPDEST PUSH1 0x40 MLOAD DUP1 SWAP2 SUB SWAP1 LOG1 PUSH32 0xCF34EF537AC33EE1AC626CA1587A0A7E8E51561E5514F8CB36AFA1C5102B3BAB PUSH1 0x40 MLOAD PUSH2 0x1214 SWAP1 PUSH2 0x2780 JUMP JUMPDEST PUSH1 0x40 MLOAD DUP1 SWAP2 SUB SWAP1 LOG1 PUSH32 0x909C57D5C6AC08245CF2A6DE3900E2B868513FA59099B92B27D8DB823D92DF9C DUP2 PUSH1 0x40 MLOAD PUSH2 0x124B SWAP2 SWAP1 PUSH2 0x22CD JUMP JUMPDEST PUSH1 0x40 MLOAD DUP1 SWAP2 SUB SWAP1 LOG1 PUSH1 0x14 DUP2 GT ISZERO PUSH2 0x12B1 JUMPI PUSH1 0x0 SELFBALANCE SWAP1 POP PUSH2 0x126A CALLVALUE PUSH2 0x1315 JUMP JUMPDEST PUSH1 0x0 SELFBALANCE SWAP1 POP PUSH1 0x0 DUP2 DUP4 PUSH2 0x127D SWAP2 SWAP1 PUSH2 0x2424 JUMP JUMPDEST SWAP1 POP PUSH1 0x0 DUP2 DUP8 PUSH2 0x128D SWAP2 SWAP1 PUSH2 0x2424 JUMP JUMPDEST SWAP1 POP DUP1 PUSH1 0xF PUSH1 0x0 DUP3 DUP3 SLOAD PUSH2 0x12A1 SWAP2 SWAP1 PUSH2 0x27A0 JUMP JUMPDEST SWAP3 POP POP DUP2 SWAP1 SSTORE POP POP POP POP POP PUSH2 0x1310 JUMP JUMPDEST PUSH1 0x0 SELFBALANCE SWAP1 POP PUSH2 0x12CC CALLVALUE PUSH1 0x10 SLOAD PUSH2 0x12C7 SWAP2 SWAP1 PUSH2 0x27A0 JUMP JUMPDEST PUSH2 0x1420 JUMP JUMPDEST POP PUSH1 0x0 SELFBALANCE SWAP1 POP PUSH1 0x0 DUP2 DUP4 PUSH2 0x12E0 SWAP2 SWAP1 PUSH2 0x2424 JUMP JUMPDEST SWAP1 POP PUSH1 0x0 DUP2 DUP8 PUSH2 0x12F0 SWAP2 SWAP1 PUSH2 0x2424 JUMP JUMPDEST SWAP1 POP DUP1 PUSH1 0x10 PUSH1 0x0 DUP3 DUP3 SLOAD PUSH2 0x1304 SWAP2 SWAP1 PUSH2 0x27A0 JUMP JUMPDEST SWAP3 POP POP DUP2 SWAP1 SSTORE POP POP POP POP POP JUMPDEST POP POP POP JUMP JUMPDEST PUSH1 0x0 PUSH2 0x1320 DUP3 PUSH2 0x1BD4 JUMP JUMPDEST SWAP1 POP PUSH1 0x1 PUSH1 0x0 SWAP1 SLOAD SWAP1 PUSH2 0x100 EXP SWAP1 DIV PUSH20 0xFFFFFFFFFFFFFFFFFFFFFFFFFFFFFFFFFFFFFFFF AND PUSH20 0xFFFFFFFFFFFFFFFFFFFFFFFFFFFFFFFFFFFFFFFF AND PUSH4 0x42966C68 DUP3 PUSH1 0x40 MLOAD DUP3 PUSH4 0xFFFFFFFF AND PUSH1 0xE0 SHL DUP2 MSTORE PUSH1 0x4 ADD PUSH2 0x137D SWAP2 SWAP1 PUSH2 0x22CD JUMP JUMPDEST PUSH1 0x0 PUSH1 0x40 MLOAD DUP1 DUP4 SUB DUP2 PUSH1 0x0 DUP8 DUP1 EXTCODESIZE ISZERO DUP1 ISZERO PUSH2 0x1397 JUMPI PUSH1 0x0 DUP1 REVERT JUMPDEST POP GAS CALL SWAP3 POP POP POP DUP1 ISZERO PUSH2 0x13A8 JUMPI POP PUSH1 0x1 JUMPDEST PUSH2 0x13E6 JUMPI PUSH32 0xCF34EF537AC33EE1AC626CA1587A0A7E8E51561E5514F8CB36AFA1C5102B3BAB PUSH1 0x40 MLOAD PUSH2 0x13D9 SWAP1 PUSH2 0x2820 JUMP JUMPDEST PUSH1 0x40 MLOAD DUP1 SWAP2 SUB SWAP1 LOG1 PUSH2 0x141C JUMP JUMPDEST PUSH32 0xCF34EF537AC33EE1AC626CA1587A0A7E8E51561E5514F8CB36AFA1C5102B3BAB PUSH1 0x40 MLOAD PUSH2 0x1413 SWAP1 PUSH2 0x288C JUMP JUMPDEST PUSH1 0x40 MLOAD DUP1 SWAP2 SUB SWAP1 LOG1 JUMPDEST POP POP JUMP JUMPDEST PUSH1 0x0 DUP1 PUSH1 0x0 PUSH1 0x1 PUSH1 0x0 SWAP1 SLOAD SWAP1 PUSH2 0x100 EXP SWAP1 DIV PUSH20 0xFFFFFFFFFFFFFFFFFFFFFFFFFFFFFFFFFFFFFFFF AND PUSH20 0xFFFFFFFFFFFFFFFFFFFFFFFFFFFFFFFFFFFFFFFF AND PUSH4 0x70A08231 ADDRESS PUSH1 0x40 MLOAD DUP3 PUSH4 0xFFFFFFFF AND PUSH1 0xE0 SHL DUP2 MSTORE PUSH1 0x4 ADD PUSH2 0x1480 SWAP2 SWAP1 PUSH2 0x2209 JUMP JUMPDEST PUSH1 0x20 PUSH1 0x40 MLOAD DUP1 DUP4 SUB DUP2 DUP7 GAS STATICCALL ISZERO DUP1 ISZERO PUSH2 0x149D JUMPI RETURNDATASIZE PUSH1 0x0 DUP1 RETURNDATACOPY RETURNDATASIZE PUSH1 0x0 REVERT JUMPDEST POP POP POP POP PUSH1 0x40 MLOAD RETURNDATASIZE PUSH1 0x1F NOT PUSH1 0x1F DUP3 ADD AND DUP3 ADD DUP1 PUSH1 0x40 MSTORE POP DUP2 ADD SWAP1 PUSH2 0x14C1 SWAP2 SWAP1 PUSH2 0x22FD JUMP JUMPDEST SWAP1 POP PUSH1 0x0 PUSH1 0x64 PUSH1 0x69 PUSH1 0xA PUSH1 0x0 SWAP1 SLOAD SWAP1 PUSH2 0x100 EXP SWAP1 DIV PUSH20 0xFFFFFFFFFFFFFFFFFFFFFFFFFFFFFFFFFFFFFFFF AND PUSH20 0xFFFFFFFFFFFFFFFFFFFFFFFFFFFFFFFFFFFFFFFF AND PUSH4 0x3AC35585 PUSH1 0x0 DUP1 SLOAD SWAP1 PUSH2 0x100 EXP SWAP1 DIV PUSH20 0xFFFFFFFFFFFFFFFFFFFFFFFFFFFFFFFFFFFFFFFF AND DUP10 PUSH1 0x40 MLOAD DUP4 PUSH4 0xFFFFFFFF AND PUSH1 0xE0 SHL DUP2 MSTORE PUSH1 0x4 ADD PUSH2 0x1546 SWAP3 SWAP2 SWAP1 PUSH2 0x232A JUMP JUMPDEST PUSH1 0x20 PUSH1 0x40 MLOAD DUP1 DUP4 SUB DUP2 DUP7 GAS STATICCALL ISZERO DUP1 ISZERO PUSH2 0x1563 JUMPI RETURNDATASIZE PUSH1 0x0 DUP1 RETURNDATACOPY RETURNDATASIZE PUSH1 0x0 REVERT JUMPDEST POP POP POP POP PUSH1 0x40 MLOAD RETURNDATASIZE PUSH1 0x1F NOT PUSH1 0x1F DUP3 ADD AND DUP3 ADD DUP1 PUSH1 0x40 MSTORE POP DUP2 ADD SWAP1 PUSH2 0x1587 SWAP2 SWAP1 PUSH2 0x22FD JUMP JUMPDEST PUSH2 0x1591 SWAP2 SWAP1 PUSH2 0x2382 JUMP JUMPDEST PUSH2 0x159B SWAP2 SWAP1 PUSH2 0x23F3 JUMP JUMPDEST SWAP1 POP DUP2 DUP2 GT ISZERO PUSH2 0x16DE JUMPI PUSH1 0x1 PUSH1 0x0 SWAP1 SLOAD SWAP1 PUSH2 0x100 EXP SWAP1 DIV PUSH20 0xFFFFFFFFFFFFFFFFFFFFFFFFFFFFFFFFFFFFFFFF AND PUSH20 0xFFFFFFFFFFFFFFFFFFFFFFFFFFFFFFFFFFFFFFFF AND PUSH4 0x96FE8349 DUP4 DUP4 PUSH2 0x15EF SWAP2 SWAP1 PUSH2 0x2424 JUMP JUMPDEST ADDRESS PUSH1 0x40 MLOAD DUP4 PUSH4 0xFFFFFFFF AND PUSH1 0xE0 SHL DUP2 MSTORE PUSH1 0x4 ADD PUSH2 0x160D SWAP3 SWAP2 SWAP1 PUSH2 0x2458 JUMP JUMPDEST PUSH1 0x0 PUSH1 0x40 MLOAD DUP1 DUP4 SUB DUP2 PUSH1 0x0 DUP8 DUP1 EXTCODESIZE ISZERO DUP1 ISZERO PUSH2 0x1627 JUMPI PUSH1 0x0 DUP1 REVERT JUMPDEST POP GAS CALL ISZERO DUP1 ISZERO PUSH2 0x163B JUMPI RETURNDATASIZE PUSH1 0x0 DUP1 RETURNDATACOPY RETURNDATASIZE PUSH1 0x0 REVERT JUMPDEST POP POP POP POP PUSH1 0x1 PUSH1 0x0 SWAP1 SLOAD SWAP1 PUSH2 0x100 EXP SWAP1 DIV PUSH20 0xFFFFFFFFFFFFFFFFFFFFFFFFFFFFFFFFFFFFFFFF AND PUSH20 0xFFFFFFFFFFFFFFFFFFFFFFFFFFFFFFFFFFFFFFFF AND PUSH4 0x70A08231 ADDRESS PUSH1 0x40 MLOAD DUP3 PUSH4 0xFFFFFFFF AND PUSH1 0xE0 SHL DUP2 MSTORE PUSH1 0x4 ADD PUSH2 0x169A SWAP2 SWAP1 PUSH2 0x2209 JUMP JUMPDEST PUSH1 0x20 PUSH1 0x40 MLOAD DUP1 DUP4 SUB DUP2 DUP7 GAS STATICCALL ISZERO DUP1 ISZERO PUSH2 0x16B7 JUMPI RETURNDATASIZE PUSH1 0x0 DUP1 RETURNDATACOPY RETURNDATASIZE PUSH1 0x0 REVERT JUMPDEST POP POP POP POP PUSH1 0x40 MLOAD RETURNDATASIZE PUSH1 0x1F NOT PUSH1 0x1F DUP3 ADD AND DUP3 ADD DUP1 PUSH1 0x40 MSTORE POP DUP2 ADD SWAP1 PUSH2 0x16DB SWAP2 SWAP1 PUSH2 0x22FD JUMP JUMPDEST SWAP2 POP JUMPDEST PUSH1 0xB PUSH1 0x0 SWAP1 SLOAD SWAP1 PUSH2 0x100 EXP SWAP1 DIV PUSH20 0xFFFFFFFFFFFFFFFFFFFFFFFFFFFFFFFFFFFFFFFF AND PUSH20 0xFFFFFFFFFFFFFFFFFFFFFFFFFFFFFFFFFFFFFFFF AND PUSH4 0xF305D719 DUP7 ADDRESS DUP5 PUSH1 0x0 PUSH1 0x64 PUSH1 0x5F DUP13 PUSH2 0x1730 SWAP2 SWAP1 PUSH2 0x2382 JUMP JUMPDEST PUSH2 0x173A SWAP2 SWAP1 PUSH2 0x23F3 JUMP JUMPDEST ADDRESS PUSH32 0xFFFFFFFFFFFFFFFFFFFFFFFFFFFFFFFFFFFFFFFFFFFFFFFFFFFFFFFFFFFFFFFF PUSH1 0x40 MLOAD DUP9 PUSH4 0xFFFFFFFF AND PUSH1 0xE0 SHL DUP2 MSTORE PUSH1 0x4 ADD PUSH2 0x177D SWAP7 SWAP6 SWAP5 SWAP4 SWAP3 SWAP2 SWAP1 PUSH2 0x24C6 JUMP JUMPDEST PUSH1 0x60 PUSH1 0x40 MLOAD DUP1 DUP4 SUB DUP2 DUP6 DUP9 GAS CALL SWAP4 POP POP POP POP DUP1 ISZERO PUSH2 0x17B9 JUMPI POP PUSH1 0x40 MLOAD RETURNDATASIZE PUSH1 0x1F NOT PUSH1 0x1F DUP3 ADD AND DUP3 ADD DUP1 PUSH1 0x40 MSTORE POP DUP2 ADD SWAP1 PUSH2 0x17B6 SWAP2 SWAP1 PUSH2 0x2527 JUMP JUMPDEST PUSH1 0x1 JUMPDEST PUSH2 0x17F7 JUMPI PUSH32 0xCF34EF537AC33EE1AC626CA1587A0A7E8E51561E5514F8CB36AFA1C5102B3BAB PUSH1 0x40 MLOAD PUSH2 0x17EA SWAP1 PUSH2 0x25D7 JUMP JUMPDEST PUSH1 0x40 MLOAD DUP1 SWAP2 SUB SWAP1 LOG1 PUSH2 0x18D9 JUMP JUMPDEST POP POP POP PUSH32 0xCF34EF537AC33EE1AC626CA1587A0A7E8E51561E5514F8CB36AFA1C5102B3BAB PUSH1 0x40 MLOAD PUSH2 0x1827 SWAP1 PUSH2 0x2643 JUMP JUMPDEST PUSH1 0x40 MLOAD DUP1 SWAP2 SUB SWAP1 LOG1 PUSH1 0x1 PUSH1 0x0 SWAP1 SLOAD SWAP1 PUSH2 0x100 EXP SWAP1 DIV PUSH20 0xFFFFFFFFFFFFFFFFFFFFFFFFFFFFFFFFFFFFFFFF AND PUSH20 0xFFFFFFFFFFFFFFFFFFFFFFFFFFFFFFFFFFFFFFFF AND PUSH4 0x70A08231 ADDRESS PUSH1 0x40 MLOAD DUP3 PUSH4 0xFFFFFFFF AND PUSH1 0xE0 SHL DUP2 MSTORE PUSH1 0x4 ADD PUSH2 0x188A SWAP2 SWAP1 PUSH2 0x2209 JUMP JUMPDEST PUSH1 0x20 PUSH1 0x40 MLOAD DUP1 DUP4 SUB DUP2 DUP7 GAS STATICCALL ISZERO DUP1 ISZERO PUSH2 0x18A7 JUMPI RETURNDATASIZE PUSH1 0x0 DUP1 RETURNDATACOPY RETURNDATASIZE PUSH1 0x0 REVERT JUMPDEST POP POP POP POP PUSH1 0x40 MLOAD RETURNDATASIZE PUSH1 0x1F NOT PUSH1 0x1F DUP3 ADD AND DUP3 ADD DUP1 PUSH1 0x40 MSTORE POP DUP2 ADD SWAP1 PUSH2 0x18CB SWAP2 SWAP1 PUSH2 0x22FD JUMP JUMPDEST DUP3 PUSH2 0x18D6 SWAP2 SWAP1 PUSH2 0x2424 JUMP JUMPDEST SWAP3 POP JUMPDEST DUP3 SWAP4 POP POP POP POP SWAP2 SWAP1 POP JUMP JUMPDEST PUSH1 0x0 PUSH1 0xC PUSH1 0x0 PUSH1 0x1 PUSH1 0xD DUP1 SLOAD SWAP1 POP PUSH2 0x18FC SWAP2 SWAP1 PUSH2 0x2424 JUMP JUMPDEST DUP2 MSTORE PUSH1 0x20 ADD SWAP1 DUP2 MSTORE PUSH1 0x20 ADD PUSH1 0x0 KECCAK256 PUSH1 0x2 ADD SLOAD SWAP1 POP PUSH1 0x0 DUP2 SUB ISZERO PUSH2 0x1BD0 JUMPI PUSH1 0xA PUSH1 0x0 SWAP1 SLOAD SWAP1 PUSH2 0x100 EXP SWAP1 DIV PUSH20 0xFFFFFFFFFFFFFFFFFFFFFFFFFFFFFFFFFFFFFFFF AND PUSH20 0xFFFFFFFFFFFFFFFFFFFFFFFFFFFFFFFFFFFFFFFF AND PUSH4 0x3AC35585 PUSH1 0x0 DUP1 SLOAD SWAP1 PUSH2 0x100 EXP SWAP1 DIV PUSH20 0xFFFFFFFFFFFFFFFFFFFFFFFFFFFFFFFFFFFFFFFF AND DUP4 PUSH1 0x40 MLOAD DUP4 PUSH4 0xFFFFFFFF AND PUSH1 0xE0 SHL DUP2 MSTORE PUSH1 0x4 ADD PUSH2 0x1996 SWAP3 SWAP2 SWAP1 PUSH2 0x232A JUMP JUMPDEST PUSH1 0x20 PUSH1 0x40 MLOAD DUP1 DUP4 SUB DUP2 DUP7 GAS STATICCALL SWAP3 POP POP POP DUP1 ISZERO PUSH2 0x19D0 JUMPI POP PUSH1 0x40 MLOAD RETURNDATASIZE PUSH1 0x1F NOT PUSH1 0x1F DUP3 ADD AND DUP3 ADD DUP1 PUSH1 0x40 MSTORE POP DUP2 ADD SWAP1 PUSH2 0x19CD SWAP2 SWAP1 PUSH2 0x22FD JUMP JUMPDEST PUSH1 0x1 JUMPDEST PUSH2 0x1A0E JUMPI PUSH32 0xCF34EF537AC33EE1AC626CA1587A0A7E8E51561E5514F8CB36AFA1C5102B3BAB PUSH1 0x40 MLOAD PUSH2 0x1A01 SWAP1 PUSH2 0x28F8 JUMP JUMPDEST PUSH1 0x40 MLOAD DUP1 SWAP2 SUB SWAP1 LOG1 PUSH2 0x1BCF JUMP JUMPDEST POP PUSH1 0x0 PUSH1 0xA PUSH1 0x0 SWAP1 SLOAD SWAP1 PUSH2 0x100 EXP SWAP1 DIV PUSH20 0xFFFFFFFFFFFFFFFFFFFFFFFFFFFFFFFFFFFFFFFF AND PUSH20 0xFFFFFFFFFFFFFFFFFFFFFFFFFFFFFFFFFFFFFFFF AND PUSH4 0x3AC35585 PUSH1 0x0 DUP1 SLOAD SWAP1 PUSH2 0x100 EXP SWAP1 DIV PUSH20 0xFFFFFFFFFFFFFFFFFFFFFFFFFFFFFFFFFFFFFFFF AND DUP5 PUSH1 0x40 MLOAD DUP4 PUSH4 0xFFFFFFFF AND PUSH1 0xE0 SHL DUP2 MSTORE PUSH1 0x4 ADD PUSH2 0x1A8E SWAP3 SWAP2 SWAP1 PUSH2 0x232A JUMP JUMPDEST PUSH1 0x20 PUSH1 0x40 MLOAD DUP1 DUP4 SUB DUP2 DUP7 GAS STATICCALL ISZERO DUP1 ISZERO PUSH2 0x1AAB JUMPI RETURNDATASIZE PUSH1 0x0 DUP1 RETURNDATACOPY RETURNDATASIZE PUSH1 0x0 REVERT JUMPDEST POP POP POP POP PUSH1 0x40 MLOAD RETURNDATASIZE PUSH1 0x1F NOT PUSH1 0x1F DUP3 ADD AND DUP3 ADD DUP1 PUSH1 0x40 MSTORE POP DUP2 ADD SWAP1 PUSH2 0x1ACF SWAP2 SWAP1 PUSH2 0x22FD JUMP JUMPDEST SWAP1 POP PUSH1 0x1 PUSH1 0x0 SWAP1 SLOAD SWAP1 PUSH2 0x100 EXP SWAP1 DIV PUSH20 0xFFFFFFFFFFFFFFFFFFFFFFFFFFFFFFFFFFFFFFFF AND PUSH20 0xFFFFFFFFFFFFFFFFFFFFFFFFFFFFFFFFFFFFFFFF AND PUSH4 0x96FE8349 DUP3 DUP6 PUSH1 0x40 MLOAD DUP4 PUSH4 0xFFFFFFFF AND PUSH1 0xE0 SHL DUP2 MSTORE PUSH1 0x4 ADD PUSH2 0x1B2E SWAP3 SWAP2 SWAP1 PUSH2 0x2458 JUMP JUMPDEST PUSH1 0x0 PUSH1 0x40 MLOAD DUP1 DUP4 SUB DUP2 PUSH1 0x0 DUP8 DUP1 EXTCODESIZE ISZERO DUP1 ISZERO PUSH2 0x1B48 JUMPI PUSH1 0x0 DUP1 REVERT JUMPDEST POP GAS CALL SWAP3 POP POP POP DUP1 ISZERO PUSH2 0x1B59 JUMPI POP PUSH1 0x1 JUMPDEST PUSH2 0x1B97 JUMPI PUSH32 0xCF34EF537AC33EE1AC626CA1587A0A7E8E51561E5514F8CB36AFA1C5102B3BAB PUSH1 0x40 MLOAD PUSH2 0x1B8A SWAP1 PUSH2 0x298A JUMP JUMPDEST PUSH1 0x40 MLOAD DUP1 SWAP2 SUB SWAP1 LOG1 PUSH2 0x1BCD JUMP JUMPDEST PUSH32 0xCF34EF537AC33EE1AC626CA1587A0A7E8E51561E5514F8CB36AFA1C5102B3BAB PUSH1 0x40 MLOAD PUSH2 0x1BC4 SWAP1 PUSH2 0x29F6 JUMP JUMPDEST PUSH1 0x40 MLOAD DUP1 SWAP2 SUB SWAP1 LOG1 JUMPDEST POP JUMPDEST JUMPDEST POP POP JUMP JUMPDEST PUSH1 0x0 DUP1 PUSH1 0x0 PUSH1 0x1 PUSH1 0x0 SWAP1 SLOAD SWAP1 PUSH2 0x100 EXP SWAP1 DIV PUSH20 0xFFFFFFFFFFFFFFFFFFFFFFFFFFFFFFFFFFFFFFFF AND PUSH20 0xFFFFFFFFFFFFFFFFFFFFFFFFFFFFFFFFFFFFFFFF AND PUSH4 0x70A08231 ADDRESS PUSH1 0x40 MLOAD DUP3 PUSH4 0xFFFFFFFF AND PUSH1 0xE0 SHL DUP2 MSTORE PUSH1 0x4 ADD PUSH2 0x1C34 SWAP2 SWAP1 PUSH2 0x2209 JUMP JUMPDEST PUSH1 0x20 PUSH1 0x40 MLOAD DUP1 DUP4 SUB DUP2 DUP7 GAS STATICCALL SWAP3 POP POP POP DUP1 ISZERO PUSH2 0x1C6E JUMPI POP PUSH1 0x40 MLOAD RETURNDATASIZE PUSH1 0x1F NOT PUSH1 0x1F DUP3 ADD AND DUP3 ADD DUP1 PUSH1 0x40 MSTORE POP DUP2 ADD SWAP1 PUSH2 0x1C6B SWAP2 SWAP1 PUSH2 0x22FD JUMP JUMPDEST PUSH1 0x1 JUMPDEST PUSH2 0x1CAC JUMPI PUSH32 0xCF34EF537AC33EE1AC626CA1587A0A7E8E51561E5514F8CB36AFA1C5102B3BAB PUSH1 0x40 MLOAD PUSH2 0x1C9F SWAP1 PUSH2 0x2A88 JUMP JUMPDEST PUSH1 0x40 MLOAD DUP1 SWAP2 SUB SWAP1 LOG1 PUSH2 0x1D4C JUMP JUMPDEST POP PUSH1 0x1 PUSH1 0x0 SWAP1 SLOAD SWAP1 PUSH2 0x100 EXP SWAP1 DIV PUSH20 0xFFFFFFFFFFFFFFFFFFFFFFFFFFFFFFFFFFFFFFFF AND PUSH20 0xFFFFFFFFFFFFFFFFFFFFFFFFFFFFFFFFFFFFFFFF AND PUSH4 0x70A08231 ADDRESS PUSH1 0x40 MLOAD DUP3 PUSH4 0xFFFFFFFF AND PUSH1 0xE0 SHL DUP2 MSTORE PUSH1 0x4 ADD PUSH2 0x1D08 SWAP2 SWAP1 PUSH2 0x2209 JUMP JUMPDEST PUSH1 0x20 PUSH1 0x40 MLOAD DUP1 DUP4 SUB DUP2 DUP7 GAS STATICCALL ISZERO DUP1 ISZERO PUSH2 0x1D25 JUMPI RETURNDATASIZE PUSH1 0x0 DUP1 RETURNDATACOPY RETURNDATASIZE PUSH1 0x0 REVERT JUMPDEST POP POP POP POP PUSH1 0x40 MLOAD RETURNDATASIZE PUSH1 0x1F NOT PUSH1 0x1F DUP3 ADD AND DUP3 ADD DUP1 PUSH1 0x40 MSTORE POP DUP2 ADD SWAP1 PUSH2 0x1D49 SWAP2 SWAP1 PUSH2 0x22FD JUMP JUMPDEST SWAP2 POP JUMPDEST PUSH1 0xA PUSH1 0x0 SWAP1 SLOAD SWAP1 PUSH2 0x100 EXP SWAP1 DIV PUSH20 0xFFFFFFFFFFFFFFFFFFFFFFFFFFFFFFFFFFFFFFFF AND PUSH20 0xFFFFFFFFFFFFFFFFFFFFFFFFFFFFFFFFFFFFFFFF AND PUSH4 0x3AC35585 PUSH1 0x0 DUP1 SLOAD SWAP1 PUSH2 0x100 EXP SWAP1 DIV PUSH20 0xFFFFFFFFFFFFFFFFFFFFFFFFFFFFFFFFFFFFFFFF AND DUP7 PUSH1 0x40 MLOAD DUP4 PUSH4 0xFFFFFFFF AND PUSH1 0xE0 SHL DUP2 MSTORE PUSH1 0x4 ADD PUSH2 0x1DC9 SWAP3 SWAP2 SWAP1 PUSH2 0x232A JUMP JUMPDEST PUSH1 0x20 PUSH1 0x40 MLOAD DUP1 DUP4 SUB DUP2 DUP7 GAS STATICCALL SWAP3 POP POP POP DUP1 ISZERO PUSH2 0x1E03 JUMPI POP PUSH1 0x40 MLOAD RETURNDATASIZE PUSH1 0x1F NOT PUSH1 0x1F DUP3 ADD AND DUP3 ADD DUP1 PUSH1 0x40 MSTORE POP DUP2 ADD SWAP1 PUSH2 0x1E00 SWAP2 SWAP1 PUSH2 0x22FD JUMP JUMPDEST PUSH1 0x1 JUMPDEST PUSH2 0x1E41 JUMPI PUSH32 0xCF34EF537AC33EE1AC626CA1587A0A7E8E51561E5514F8CB36AFA1C5102B3BAB PUSH1 0x40 MLOAD PUSH2 0x1E34 SWAP1 PUSH2 0x2AF4 JUMP JUMPDEST PUSH1 0x40 MLOAD DUP1 SWAP2 SUB SWAP1 LOG1 PUSH2 0x1F6F JUMP JUMPDEST POP PUSH1 0xA PUSH1 0x0 SWAP1 SLOAD SWAP1 PUSH2 0x100 EXP SWAP1 DIV PUSH20 0xFFFFFFFFFFFFFFFFFFFFFFFFFFFFFFFFFFFFFFFF AND PUSH20 0xFFFFFFFFFFFFFFFFFFFFFFFFFFFFFFFFFFFFFFFF AND PUSH4 0x3AC35585 PUSH1 0x0 DUP1 SLOAD SWAP1 PUSH2 0x100 EXP SWAP1 DIV PUSH20 0xFFFFFFFFFFFFFFFFFFFFFFFFFFFFFFFFFFFFFFFF AND DUP7 PUSH1 0x40 MLOAD DUP4 PUSH4 0xFFFFFFFF AND PUSH1 0xE0 SHL DUP2 MSTORE PUSH1 0x4 ADD PUSH2 0x1EBF SWAP3 SWAP2 SWAP1 PUSH2 0x232A JUMP JUMPDEST PUSH1 0x20 PUSH1 0x40 MLOAD DUP1 DUP4 SUB DUP2 DUP7 GAS STATICCALL ISZERO DUP1 ISZERO PUSH2 0x1EDC JUMPI RETURNDATASIZE PUSH1 0x0 DUP1 RETURNDATACOPY RETURNDATASIZE PUSH1 0x0 REVERT JUMPDEST POP POP POP POP PUSH1 0x40 MLOAD RETURNDATASIZE PUSH1 0x1F NOT PUSH1 0x1F DUP3 ADD AND DUP3 ADD DUP1 PUSH1 0x40 MSTORE POP DUP2 ADD SWAP1 PUSH2 0x1F00 SWAP2 SWAP1 PUSH2 0x22FD JUMP JUMPDEST SWAP1 POP PUSH32 0xCF34EF537AC33EE1AC626CA1587A0A7E8E51561E5514F8CB36AFA1C5102B3BAB PUSH1 0x40 MLOAD PUSH2 0x1F2F SWAP1 PUSH2 0x2B60 JUMP JUMPDEST PUSH1 0x40 MLOAD DUP1 SWAP2 SUB SWAP1 LOG1 PUSH32 0x909C57D5C6AC08245CF2A6DE3900E2B868513FA59099B92B27D8DB823D92DF9C DUP2 PUSH1 0x40 MLOAD PUSH2 0x1F66 SWAP2 SWAP1 PUSH2 0x22CD JUMP JUMPDEST PUSH1 0x40 MLOAD DUP1 SWAP2 SUB SWAP1 LOG1 JUMPDEST PUSH1 0x0 PUSH1 0xB PUSH1 0x0 SWAP1 SLOAD SWAP1 PUSH2 0x100 EXP SWAP1 DIV PUSH20 0xFFFFFFFFFFFFFFFFFFFFFFFFFFFFFFFFFFFFFFFF AND PUSH20 0xFFFFFFFFFFFFFFFFFFFFFFFFFFFFFFFFFFFFFFFF AND PUSH4 0x7FF36AB5 DUP7 DUP4 PUSH1 0x7 CALLER PUSH32 0xFFFFFFFFFFFFFFFFFFFFFFFFFFFFFFFFFFFFFFFFFFFFFFFFFFFFFFFFFFFFFFFF PUSH1 0x40 MLOAD DUP7 PUSH4 0xFFFFFFFF AND PUSH1 0xE0 SHL DUP2 MSTORE PUSH1 0x4 ADD PUSH2 0x1FF4 SWAP5 SWAP4 SWAP3 SWAP2 SWAP1 PUSH2 0x2CA4 JUMP JUMPDEST PUSH1 0x0 PUSH1 0x40 MLOAD DUP1 DUP4 SUB DUP2 DUP6 DUP9 GAS CALL SWAP4 POP POP POP POP DUP1 ISZERO PUSH2 0x2035 JUMPI POP PUSH1 0x40 MLOAD RETURNDATASIZE PUSH1 0x0 DUP3 RETURNDATACOPY RETURNDATASIZE PUSH1 0x1F NOT PUSH1 0x1F DUP3 ADD AND DUP3 ADD DUP1 PUSH1 0x40 MSTORE POP DUP2 ADD SWAP1 PUSH2 0x2032 SWAP2 SWAP1 PUSH2 0x2E49 JUMP JUMPDEST PUSH1 0x1 JUMPDEST PUSH2 0x2073 JUMPI PUSH32 0xCF34EF537AC33EE1AC626CA1587A0A7E8E51561E5514F8CB36AFA1C5102B3BAB PUSH1 0x40 MLOAD PUSH2 0x2066 SWAP1 PUSH2 0x2EDE JUMP JUMPDEST PUSH1 0x40 MLOAD DUP1 SWAP2 SUB SWAP1 LOG1 PUSH2 0x20AA JUMP JUMPDEST POP PUSH32 0xCF34EF537AC33EE1AC626CA1587A0A7E8E51561E5514F8CB36AFA1C5102B3BAB PUSH1 0x40 MLOAD PUSH2 0x20A1 SWAP1 PUSH2 0x2F4A JUMP JUMPDEST PUSH1 0x40 MLOAD DUP1 SWAP2 SUB SWAP1 LOG1 JUMPDEST DUP3 PUSH1 0x1 PUSH1 0x0 SWAP1 SLOAD SWAP1 PUSH2 0x100 EXP SWAP1 DIV PUSH20 0xFFFFFFFFFFFFFFFFFFFFFFFFFFFFFFFFFFFFFFFF AND PUSH20 0xFFFFFFFFFFFFFFFFFFFFFFFFFFFFFFFFFFFFFFFF AND PUSH4 0x70A08231 ADDRESS PUSH1 0x40 MLOAD DUP3 PUSH4 0xFFFFFFFF AND PUSH1 0xE0 SHL DUP2 MSTORE PUSH1 0x4 ADD PUSH2 0x2106 SWAP2 SWAP1 PUSH2 0x2209 JUMP JUMPDEST PUSH1 0x20 PUSH1 0x40 MLOAD DUP1 DUP4 SUB DUP2 DUP7 GAS STATICCALL ISZERO DUP1 ISZERO PUSH2 0x2123 JUMPI RETURNDATASIZE PUSH1 0x0 DUP1 RETURNDATACOPY RETURNDATASIZE PUSH1 0x0 REVERT JUMPDEST POP POP POP POP PUSH1 0x40 MLOAD RETURNDATASIZE PUSH1 0x1F NOT PUSH1 0x1F DUP3 ADD AND DUP3 ADD DUP1 PUSH1 0x40 MSTORE POP DUP2 ADD SWAP1 PUSH2 0x2147 SWAP2 SWAP1 PUSH2 0x22FD JUMP JUMPDEST PUSH2 0x2151 SWAP2 SWAP1 PUSH2 0x2424 JUMP JUMPDEST SWAP4 POP POP POP POP SWAP2 SWAP1 POP JUMP JUMPDEST PUSH1 0x0 PUSH1 0x40 MLOAD SWAP1 POP SWAP1 JUMP JUMPDEST PUSH1 0x0 DUP1 REVERT JUMPDEST PUSH1 0x0 DUP1 REVERT JUMPDEST PUSH1 0x0 PUSH20 0xFFFFFFFFFFFFFFFFFFFFFFFFFFFFFFFFFFFFFFFF DUP3 AND SWAP1 POP SWAP2 SWAP1 POP JUMP JUMPDEST PUSH1 0x0 PUSH2 0x219A DUP3 PUSH2 0x216F JUMP JUMPDEST SWAP1 POP SWAP2 SWAP1 POP JUMP JUMPDEST PUSH2 0x21AA DUP2 PUSH2 0x218F JUMP JUMPDEST DUP2 EQ PUSH2 0x21B5 JUMPI PUSH1 0x0 DUP1 REVERT JUMPDEST POP JUMP JUMPDEST PUSH1 0x0 DUP2 CALLDATALOAD SWAP1 POP PUSH2 0x21C7 DUP2 PUSH2 0x21A1 JUMP JUMPDEST SWAP3 SWAP2 POP POP JUMP JUMPDEST PUSH1 0x0 PUSH1 0x20 DUP3 DUP5 SUB SLT ISZERO PUSH2 0x21E3 JUMPI PUSH2 0x21E2 PUSH2 0x2165 JUMP JUMPDEST JUMPDEST PUSH1 0x0 PUSH2 0x21F1 DUP5 DUP3 DUP6 ADD PUSH2 0x21B8 JUMP JUMPDEST SWAP2 POP POP SWAP3 SWAP2 POP POP JUMP JUMPDEST PUSH2 0x2203 DUP2 PUSH2 0x218F JUMP JUMPDEST DUP3 MSTORE POP POP JUMP JUMPDEST PUSH1 0x0 PUSH1 0x20 DUP3 ADD SWAP1 POP PUSH2 0x221E PUSH1 0x0 DUP4 ADD DUP5 PUSH2 0x21FA JUMP JUMPDEST SWAP3 SWAP2 POP POP JUMP JUMPDEST PUSH1 0x0 DUP2 SWAP1 POP SWAP2 SWAP1 POP JUMP JUMPDEST PUSH2 0x2237 DUP2 PUSH2 0x2224 JUMP JUMPDEST DUP2 EQ PUSH2 0x2242 JUMPI PUSH1 0x0 DUP1 REVERT JUMPDEST POP JUMP JUMPDEST PUSH1 0x0 DUP2 CALLDATALOAD SWAP1 POP PUSH2 0x2254 DUP2 PUSH2 0x222E JUMP JUMPDEST SWAP3 SWAP2 POP POP JUMP JUMPDEST PUSH1 0x0 PUSH1 0x20 DUP3 DUP5 SUB SLT ISZERO PUSH2 0x2270 JUMPI PUSH2 0x226F PUSH2 0x2165 JUMP JUMPDEST JUMPDEST PUSH1 0x0 PUSH2 0x227E DUP5 DUP3 DUP6 ADD PUSH2 0x2245 JUMP JUMPDEST SWAP2 POP POP SWAP3 SWAP2 POP POP JUMP JUMPDEST PUSH2 0x2290 DUP2 PUSH2 0x2224 JUMP JUMPDEST DUP3 MSTORE POP POP JUMP JUMPDEST PUSH1 0x0 PUSH1 0x60 DUP3 ADD SWAP1 POP PUSH2 0x22AB PUSH1 0x0 DUP4 ADD DUP7 PUSH2 0x2287 JUMP JUMPDEST PUSH2 0x22B8 PUSH1 0x20 DUP4 ADD DUP6 PUSH2 0x21FA JUMP JUMPDEST PUSH2 0x22C5 PUSH1 0x40 DUP4 ADD DUP5 PUSH2 0x2287 JUMP JUMPDEST SWAP5 SWAP4 POP POP POP POP JUMP JUMPDEST PUSH1 0x0 PUSH1 0x20 DUP3 ADD SWAP1 POP PUSH2 0x22E2 PUSH1 0x0 DUP4 ADD DUP5 PUSH2 0x2287 JUMP JUMPDEST SWAP3 SWAP2 POP POP JUMP JUMPDEST PUSH1 0x0 DUP2 MLOAD SWAP1 POP PUSH2 0x22F7 DUP2 PUSH2 0x222E JUMP JUMPDEST SWAP3 SWAP2 POP POP JUMP JUMPDEST PUSH1 0x0 PUSH1 0x20 DUP3 DUP5 SUB SLT ISZERO PUSH2 0x2313 JUMPI PUSH2 0x2312 PUSH2 0x2165 JUMP JUMPDEST JUMPDEST PUSH1 0x0 PUSH2 0x2321 DUP5 DUP3 DUP6 ADD PUSH2 0x22E8 JUMP JUMPDEST SWAP2 POP POP SWAP3 SWAP2 POP POP JUMP JUMPDEST PUSH1 0x0 PUSH1 0x40 DUP3 ADD SWAP1 POP PUSH2 0x233F PUSH1 0x0 DUP4 ADD DUP6 PUSH2 0x21FA JUMP JUMPDEST PUSH2 0x234C PUSH1 0x20 DUP4 ADD DUP5 PUSH2 0x2287 JUMP JUMPDEST SWAP4 SWAP3 POP POP POP JUMP JUMPDEST PUSH32 0x4E487B7100000000000000000000000000000000000000000000000000000000 PUSH1 0x0 MSTORE PUSH1 0x11 PUSH1 0x4 MSTORE PUSH1 0x24 PUSH1 0x0 REVERT JUMPDEST PUSH1 0x0 PUSH2 0x238D DUP3 PUSH2 0x2224 JUMP JUMPDEST SWAP2 POP PUSH2 0x2398 DUP4 PUSH2 0x2224 JUMP JUMPDEST SWAP3 POP DUP3 DUP3 MUL PUSH2 0x23A6 DUP2 PUSH2 0x2224 JUMP JUMPDEST SWAP2 POP DUP3 DUP3 DIV DUP5 EQ DUP4 ISZERO OR PUSH2 0x23BD JUMPI PUSH2 0x23BC PUSH2 0x2353 JUMP JUMPDEST JUMPDEST POP SWAP3 SWAP2 POP POP JUMP JUMPDEST PUSH32 0x4E487B7100000000000000000000000000000000000000000000000000000000 PUSH1 0x0 MSTORE PUSH1 0x12 PUSH1 0x4 MSTORE PUSH1 0x24 PUSH1 0x0 REVERT JUMPDEST PUSH1 0x0 PUSH2 0x23FE DUP3 PUSH2 0x2224 JUMP JUMPDEST SWAP2 POP PUSH2 0x2409 DUP4 PUSH2 0x2224 JUMP JUMPDEST SWAP3 POP DUP3 PUSH2 0x2419 JUMPI PUSH2 0x2418 PUSH2 0x23C4 JUMP JUMPDEST JUMPDEST DUP3 DUP3 DIV SWAP1 POP SWAP3 SWAP2 POP POP JUMP JUMPDEST PUSH1 0x0 PUSH2 0x242F DUP3 PUSH2 0x2224 JUMP JUMPDEST SWAP2 POP PUSH2 0x243A DUP4 PUSH2 0x2224 JUMP JUMPDEST SWAP3 POP DUP3 DUP3 SUB SWAP1 POP DUP2 DUP2 GT ISZERO PUSH2 0x2452 JUMPI PUSH2 0x2451 PUSH2 0x2353 JUMP JUMPDEST JUMPDEST SWAP3 SWAP2 POP POP JUMP JUMPDEST PUSH1 0x0 PUSH1 0x40 DUP3 ADD SWAP1 POP PUSH2 0x246D PUSH1 0x0 DUP4 ADD DUP6 PUSH2 0x2287 JUMP JUMPDEST PUSH2 0x247A PUSH1 0x20 DUP4 ADD DUP5 PUSH2 0x21FA JUMP JUMPDEST SWAP4 SWAP3 POP POP POP JUMP JUMPDEST PUSH1 0x0 DUP2 SWAP1 POP SWAP2 SWAP1 POP JUMP JUMPDEST PUSH1 0x0 DUP2 SWAP1 POP SWAP2 SWAP1 POP JUMP JUMPDEST PUSH1 0x0 PUSH2 0x24B0 PUSH2 0x24AB PUSH2 0x24A6 DUP5 PUSH2 0x2481 JUMP JUMPDEST PUSH2 0x248B JUMP JUMPDEST PUSH2 0x2224 JUMP JUMPDEST SWAP1 POP SWAP2 SWAP1 POP JUMP JUMPDEST PUSH2 0x24C0 DUP2 PUSH2 0x2495 JUMP JUMPDEST DUP3 MSTORE POP POP JUMP JUMPDEST PUSH1 0x0 PUSH1 0xC0 DUP3 ADD SWAP1 POP PUSH2 0x24DB PUSH1 0x0 DUP4 ADD DUP10 PUSH2 0x21FA JUMP JUMPDEST PUSH2 0x24E8 PUSH1 0x20 DUP4 ADD DUP9 PUSH2 0x2287 JUMP JUMPDEST PUSH2 0x24F5 PUSH1 0x40 DUP4 ADD DUP8 PUSH2 0x24B7 JUMP JUMPDEST PUSH2 0x2502 PUSH1 0x60 DUP4 ADD DUP7 PUSH2 0x2287 JUMP JUMPDEST PUSH2 0x250F PUSH1 0x80 DUP4 ADD DUP6 PUSH2 0x21FA JUMP JUMPDEST PUSH2 0x251C PUSH1 0xA0 DUP4 ADD DUP5 PUSH2 0x2287 JUMP JUMPDEST SWAP8 SWAP7 POP POP POP POP POP POP POP JUMP JUMPDEST PUSH1 0x0 DUP1 PUSH1 0x0 PUSH1 0x60 DUP5 DUP7 SUB SLT ISZERO PUSH2 0x2540 JUMPI PUSH2 0x253F PUSH2 0x2165 JUMP JUMPDEST JUMPDEST PUSH1 0x0 PUSH2 0x254E DUP7 DUP3 DUP8 ADD PUSH2 0x22E8 JUMP JUMPDEST SWAP4 POP POP PUSH1 0x20 PUSH2 0x255F DUP7 DUP3 DUP8 ADD PUSH2 0x22E8 JUMP JUMPDEST SWAP3 POP POP PUSH1 0x40 PUSH2 0x2570 DUP7 DUP3 DUP8 ADD PUSH2 0x22E8 JUMP JUMPDEST SWAP2 POP POP SWAP3 POP SWAP3 POP SWAP3 JUMP JUMPDEST PUSH1 0x0 DUP3 DUP3 MSTORE PUSH1 0x20 DUP3 ADD SWAP1 POP SWAP3 SWAP2 POP POP JUMP JUMPDEST PUSH32 0x4C6971756964697479204E6F742050726F766964656400000000000000000000 PUSH1 0x0 DUP3 ADD MSTORE POP JUMP JUMPDEST PUSH1 0x0 PUSH2 0x25C1 PUSH1 0x16 DUP4 PUSH2 0x257A JUMP JUMPDEST SWAP2 POP PUSH2 0x25CC DUP3 PUSH2 0x258B JUMP JUMPDEST PUSH1 0x20 DUP3 ADD SWAP1 POP SWAP2 SWAP1 POP JUMP JUMPDEST PUSH1 0x0 PUSH1 0x20 DUP3 ADD SWAP1 POP DUP2 DUP2 SUB PUSH1 0x0 DUP4 ADD MSTORE PUSH2 0x25F0 DUP2 PUSH2 0x25B4 JUMP JUMPDEST SWAP1 POP SWAP2 SWAP1 POP JUMP JUMPDEST PUSH32 0x6C6971756964697479205375636365737366756C6C792050726F766964656400 PUSH1 0x0 DUP3 ADD MSTORE POP JUMP JUMPDEST PUSH1 0x0 PUSH2 0x262D PUSH1 0x1F DUP4 PUSH2 0x257A JUMP JUMPDEST SWAP2 POP PUSH2 0x2638 DUP3 PUSH2 0x25F7 JUMP JUMPDEST PUSH1 0x20 DUP3 ADD SWAP1 POP SWAP2 SWAP1 POP JUMP JUMPDEST PUSH1 0x0 PUSH1 0x20 DUP3 ADD SWAP1 POP DUP2 DUP2 SUB PUSH1 0x0 DUP4 ADD MSTORE PUSH2 0x265C DUP2 PUSH2 0x2620 JUMP JUMPDEST SWAP1 POP SWAP2 SWAP1 POP JUMP JUMPDEST PUSH1 0x0 DUP2 ISZERO ISZERO SWAP1 POP SWAP2 SWAP1 POP JUMP JUMPDEST PUSH2 0x2678 DUP2 PUSH2 0x2663 JUMP JUMPDEST DUP2 EQ PUSH2 0x2683 JUMPI PUSH1 0x0 DUP1 REVERT JUMPDEST POP JUMP JUMPDEST PUSH1 0x0 DUP2 MLOAD SWAP1 POP PUSH2 0x2695 DUP2 PUSH2 0x266F JUMP JUMPDEST SWAP3 SWAP2 POP POP JUMP JUMPDEST PUSH1 0x0 PUSH1 0x20 DUP3 DUP5 SUB SLT ISZERO PUSH2 0x26B1 JUMPI PUSH2 0x26B0 PUSH2 0x2165 JUMP JUMPDEST JUMPDEST PUSH1 0x0 PUSH2 0x26BF DUP5 DUP3 DUP6 ADD PUSH2 0x2686 JUMP JUMPDEST SWAP2 POP POP SWAP3 SWAP2 POP POP JUMP JUMPDEST PUSH32 0x70726576696F757320486F6C6465722069730000000000000000000000000000 PUSH1 0x0 DUP3 ADD MSTORE POP JUMP JUMPDEST PUSH1 0x0 PUSH2 0x26FE PUSH1 0x12 DUP4 PUSH2 0x257A JUMP JUMPDEST SWAP2 POP PUSH2 0x2709 DUP3 PUSH2 0x26C8 JUMP JUMPDEST PUSH1 0x20 DUP3 ADD SWAP1 POP SWAP2 SWAP1 POP JUMP JUMPDEST PUSH1 0x0 PUSH1 0x20 DUP3 ADD SWAP1 POP DUP2 DUP2 SUB PUSH1 0x0 DUP4 ADD MSTORE PUSH2 0x272D DUP2 PUSH2 0x26F1 JUMP JUMPDEST SWAP1 POP SWAP2 SWAP1 POP JUMP JUMPDEST PUSH32 0x63757272656E74206C69717569646974792070657263656E7400000000000000 PUSH1 0x0 DUP3 ADD MSTORE POP JUMP JUMPDEST PUSH1 0x0 PUSH2 0x276A PUSH1 0x19 DUP4 PUSH2 0x257A JUMP JUMPDEST SWAP2 POP PUSH2 0x2775 DUP3 PUSH2 0x2734 JUMP JUMPDEST PUSH1 0x20 DUP3 ADD SWAP1 POP SWAP2 SWAP1 POP JUMP JUMPDEST PUSH1 0x0 PUSH1 0x20 DUP3 ADD SWAP1 POP DUP2 DUP2 SUB PUSH1 0x0 DUP4 ADD MSTORE PUSH2 0x2799 DUP2 PUSH2 0x275D JUMP JUMPDEST SWAP1 POP SWAP2 SWAP1 POP JUMP JUMPDEST PUSH1 0x0 PUSH2 0x27AB DUP3 PUSH2 0x2224 JUMP JUMPDEST SWAP2 POP PUSH2 0x27B6 DUP4 PUSH2 0x2224 JUMP JUMPDEST SWAP3 POP DUP3 DUP3 ADD SWAP1 POP DUP1 DUP3 GT ISZERO PUSH2 0x27CE JUMPI PUSH2 0x27CD PUSH2 0x2353 JUMP JUMPDEST JUMPDEST SWAP3 SWAP2 POP POP JUMP JUMPDEST PUSH32 0x746F6B656E732063616E74206265206275726E74000000000000000000000000 PUSH1 0x0 DUP3 ADD MSTORE POP JUMP JUMPDEST PUSH1 0x0 PUSH2 0x280A PUSH1 0x14 DUP4 PUSH2 0x257A JUMP JUMPDEST SWAP2 POP PUSH2 0x2815 DUP3 PUSH2 0x27D4 JUMP JUMPDEST PUSH1 0x20 DUP3 ADD SWAP1 POP SWAP2 SWAP1 POP JUMP JUMPDEST PUSH1 0x0 PUSH1 0x20 DUP3 ADD SWAP1 POP DUP2 DUP2 SUB PUSH1 0x0 DUP4 ADD MSTORE PUSH2 0x2839 DUP2 PUSH2 0x27FD JUMP JUMPDEST SWAP1 POP SWAP2 SWAP1 POP JUMP JUMPDEST PUSH32 0x746F6B656E732068617665206265656E206275726E7400000000000000000000 PUSH1 0x0 DUP3 ADD MSTORE POP JUMP JUMPDEST PUSH1 0x0 PUSH2 0x2876 PUSH1 0x16 DUP4 PUSH2 0x257A JUMP JUMPDEST SWAP2 POP PUSH2 0x2881 DUP3 PUSH2 0x2840 JUMP JUMPDEST PUSH1 0x20 DUP3 ADD SWAP1 POP SWAP2 SWAP1 POP JUMP JUMPDEST PUSH1 0x0 PUSH1 0x20 DUP3 ADD SWAP1 POP DUP2 DUP2 SUB PUSH1 0x0 DUP4 ADD MSTORE PUSH2 0x28A5 DUP2 PUSH2 0x2869 JUMP JUMPDEST SWAP1 POP SWAP2 SWAP1 POP JUMP JUMPDEST PUSH32 0x70726963652063616E7420626520676F742066726F6D204F7261636C65000000 PUSH1 0x0 DUP3 ADD MSTORE POP JUMP JUMPDEST PUSH1 0x0 PUSH2 0x28E2 PUSH1 0x1D DUP4 PUSH2 0x257A JUMP JUMPDEST SWAP2 POP PUSH2 0x28ED DUP3 PUSH2 0x28AC JUMP JUMPDEST PUSH1 0x20 DUP3 ADD SWAP1 POP SWAP2 SWAP1 POP JUMP JUMPDEST PUSH1 0x0 PUSH1 0x20 DUP3 ADD SWAP1 POP DUP2 DUP2 SUB PUSH1 0x0 DUP4 ADD MSTORE PUSH2 0x2911 DUP2 PUSH2 0x28D5 JUMP JUMPDEST SWAP1 POP SWAP2 SWAP1 POP JUMP JUMPDEST PUSH32 0x707269636520676F742066726F6D204F7261636C652062757420636F756C646E PUSH1 0x0 DUP3 ADD MSTORE PUSH32 0x74206D696E740000000000000000000000000000000000000000000000000000 PUSH1 0x20 DUP3 ADD MSTORE POP JUMP JUMPDEST PUSH1 0x0 PUSH2 0x2974 PUSH1 0x26 DUP4 PUSH2 0x257A JUMP JUMPDEST SWAP2 POP PUSH2 0x297F DUP3 PUSH2 0x2918 JUMP JUMPDEST PUSH1 0x40 DUP3 ADD SWAP1 POP SWAP2 SWAP1 POP JUMP JUMPDEST PUSH1 0x0 PUSH1 0x20 DUP3 ADD SWAP1 POP DUP2 DUP2 SUB PUSH1 0x0 DUP4 ADD MSTORE PUSH2 0x29A3 DUP2 PUSH2 0x2967 JUMP JUMPDEST SWAP1 POP SWAP2 SWAP1 POP JUMP JUMPDEST PUSH32 0x746F6B656E73206D696E74656420746F2070726576696F757320686F6C646572 PUSH1 0x0 DUP3 ADD MSTORE POP JUMP JUMPDEST PUSH1 0x0 PUSH2 0x29E0 PUSH1 0x20 DUP4 PUSH2 0x257A JUMP JUMPDEST SWAP2 POP PUSH2 0x29EB DUP3 PUSH2 0x29AA JUMP JUMPDEST PUSH1 0x20 DUP3 ADD SWAP1 POP SWAP2 SWAP1 POP JUMP JUMPDEST PUSH1 0x0 PUSH1 0x20 DUP3 ADD SWAP1 POP DUP2 DUP2 SUB PUSH1 0x0 DUP4 ADD MSTORE PUSH2 0x2A0F DUP2 PUSH2 0x29D3 JUMP JUMPDEST SWAP1 POP SWAP2 SWAP1 POP JUMP JUMPDEST PUSH32 0x63616E74206765742062616C616E6365206F66207468697320636F6E74726163 PUSH1 0x0 DUP3 ADD MSTORE PUSH32 0x7400000000000000000000000000000000000000000000000000000000000000 PUSH1 0x20 DUP3 ADD MSTORE POP JUMP JUMPDEST PUSH1 0x0 PUSH2 0x2A72 PUSH1 0x21 DUP4 PUSH2 0x257A JUMP JUMPDEST SWAP2 POP PUSH2 0x2A7D DUP3 PUSH2 0x2A16 JUMP JUMPDEST PUSH1 0x40 DUP3 ADD SWAP1 POP SWAP2 SWAP1 POP JUMP JUMPDEST PUSH1 0x0 PUSH1 0x20 DUP3 ADD SWAP1 POP DUP2 DUP2 SUB PUSH1 0x0 DUP4 ADD MSTORE PUSH2 0x2AA1 DUP2 PUSH2 0x2A65 JUMP JUMPDEST SWAP1 POP SWAP2 SWAP1 POP JUMP JUMPDEST PUSH32 0x63616E74206765742070726963652066726F6D204F7261636C65000000000000 PUSH1 0x0 DUP3 ADD MSTORE POP JUMP JUMPDEST PUSH1 0x0 PUSH2 0x2ADE PUSH1 0x1A DUP4 PUSH2 0x257A JUMP JUMPDEST SWAP2 POP PUSH2 0x2AE9 DUP3 PUSH2 0x2AA8 JUMP JUMPDEST PUSH1 0x20 DUP3 ADD SWAP1 POP SWAP2 SWAP1 POP JUMP JUMPDEST PUSH1 0x0 PUSH1 0x20 DUP3 ADD SWAP1 POP DUP2 DUP2 SUB PUSH1 0x0 DUP4 ADD MSTORE PUSH2 0x2B0D DUP2 PUSH2 0x2AD1 JUMP JUMPDEST SWAP1 POP SWAP2 SWAP1 POP JUMP JUMPDEST PUSH32 0x6E756D626572206F6620546F6B656E7320746F20427579206973000000000000 PUSH1 0x0 DUP3 ADD MSTORE POP JUMP JUMPDEST PUSH1 0x0 PUSH2 0x2B4A PUSH1 0x1A DUP4 PUSH2 0x257A JUMP JUMPDEST SWAP2 POP PUSH2 0x2B55 DUP3 PUSH2 0x2B14 JUMP JUMPDEST PUSH1 0x20 DUP3 ADD SWAP1 POP SWAP2 SWAP1 POP JUMP JUMPDEST PUSH1 0x0 PUSH1 0x20 DUP3 ADD SWAP1 POP DUP2 DUP2 SUB PUSH1 0x0 DUP4 ADD MSTORE PUSH2 0x2B79 DUP2 PUSH2 0x2B3D JUMP JUMPDEST SWAP1 POP SWAP2 SWAP1 POP JUMP JUMPDEST PUSH1 0x0 DUP2 SLOAD SWAP1 POP SWAP2 SWAP1 POP JUMP JUMPDEST PUSH1 0x0 DUP3 DUP3 MSTORE PUSH1 0x20 DUP3 ADD SWAP1 POP SWAP3 SWAP2 POP POP JUMP JUMPDEST PUSH1 0x0 DUP2 SWAP1 POP DUP2 PUSH1 0x0 MSTORE PUSH1 0x20 PUSH1 0x0 KECCAK256 SWAP1 POP SWAP2 SWAP1 POP JUMP JUMPDEST PUSH2 0x2BBA DUP2 PUSH2 0x218F JUMP JUMPDEST DUP3 MSTORE POP POP JUMP JUMPDEST PUSH1 0x0 PUSH2 0x2BCC DUP4 DUP4 PUSH2 0x2BB1 JUMP JUMPDEST PUSH1 0x20 DUP4 ADD SWAP1 POP SWAP3 SWAP2 POP POP JUMP JUMPDEST PUSH1 0x0 DUP2 PUSH1 0x0 SHR SWAP1 POP SWAP2 SWAP1 POP JUMP JUMPDEST PUSH1 0x0 PUSH20 0xFFFFFFFFFFFFFFFFFFFFFFFFFFFFFFFFFFFFFFFF DUP3 AND SWAP1 POP SWAP2 SWAP1 POP JUMP JUMPDEST PUSH1 0x0 PUSH2 0x2C18 PUSH2 0x2C13 DUP4 PUSH2 0x2BD8 JUMP JUMPDEST PUSH2 0x2BE5 JUMP JUMPDEST SWAP1 POP SWAP2 SWAP1 POP JUMP JUMPDEST PUSH1 0x0 PUSH2 0x2C2B DUP3 SLOAD PUSH2 0x2C05 JUMP JUMPDEST SWAP1 POP SWAP2 SWAP1 POP JUMP JUMPDEST PUSH1 0x0 PUSH1 0x1 DUP3 ADD SWAP1 POP SWAP2 SWAP1 POP JUMP JUMPDEST PUSH1 0x0 PUSH2 0x2C4A DUP3 PUSH2 0x2B80 JUMP JUMPDEST PUSH2 0x2C54 DUP2 DUP6 PUSH2 0x2B8B JUMP JUMPDEST SWAP4 POP PUSH2 0x2C5F DUP4 PUSH2 0x2B9C JUMP JUMPDEST DUP1 PUSH1 0x0 JUMPDEST DUP4 DUP2 LT ISZERO PUSH2 0x2C97 JUMPI PUSH2 0x2C74 DUP3 PUSH2 0x2C1F JUMP JUMPDEST PUSH2 0x2C7E DUP9 DUP3 PUSH2 0x2BC0 JUMP JUMPDEST SWAP8 POP PUSH2 0x2C89 DUP4 PUSH2 0x2C32 JUMP JUMPDEST SWAP3 POP POP PUSH1 0x1 DUP2 ADD SWAP1 POP PUSH2 0x2C63 JUMP JUMPDEST POP DUP6 SWAP4 POP POP POP POP SWAP3 SWAP2 POP POP JUMP JUMPDEST PUSH1 0x0 PUSH1 0x80 DUP3 ADD SWAP1 POP PUSH2 0x2CB9 PUSH1 0x0 DUP4 ADD DUP8 PUSH2 0x2287 JUMP JUMPDEST DUP2 DUP2 SUB PUSH1 0x20 DUP4 ADD MSTORE PUSH2 0x2CCB DUP2 DUP7 PUSH2 0x2C3F JUMP JUMPDEST SWAP1 POP PUSH2 0x2CDA PUSH1 0x40 DUP4 ADD DUP6 PUSH2 0x21FA JUMP JUMPDEST PUSH2 0x2CE7 PUSH1 0x60 DUP4 ADD DUP5 PUSH2 0x2287 JUMP JUMPDEST SWAP6 SWAP5 POP POP POP POP POP JUMP JUMPDEST PUSH1 0x0 DUP1 REVERT JUMPDEST PUSH1 0x0 PUSH1 0x1F NOT PUSH1 0x1F DUP4 ADD AND SWAP1 POP SWAP2 SWAP1 POP JUMP JUMPDEST PUSH32 0x4E487B7100000000000000000000000000000000000000000000000000000000 PUSH1 0x0 MSTORE PUSH1 0x41 PUSH1 0x4 MSTORE PUSH1 0x24 PUSH1 0x0 REVERT JUMPDEST PUSH2 0x2D3E DUP3 PUSH2 0x2CF5 JUMP JUMPDEST DUP2 ADD DUP2 DUP2 LT PUSH8 0xFFFFFFFFFFFFFFFF DUP3 GT OR ISZERO PUSH2 0x2D5D JUMPI PUSH2 0x2D5C PUSH2 0x2D06 JUMP JUMPDEST JUMPDEST DUP1 PUSH1 0x40 MSTORE POP POP POP JUMP JUMPDEST PUSH1 0x0 PUSH2 0x2D70 PUSH2 0x215B JUMP JUMPDEST SWAP1 POP PUSH2 0x2D7C DUP3 DUP3 PUSH2 0x2D35 JUMP JUMPDEST SWAP2 SWAP1 POP JUMP JUMPDEST PUSH1 0x0 PUSH8 0xFFFFFFFFFFFFFFFF DUP3 GT ISZERO PUSH2 0x2D9C JUMPI PUSH2 0x2D9B PUSH2 0x2D06 JUMP JUMPDEST JUMPDEST PUSH1 0x20 DUP3 MUL SWAP1 POP PUSH1 0x20 DUP2 ADD SWAP1 POP SWAP2 SWAP1 POP JUMP JUMPDEST PUSH1 0x0 DUP1 REVERT JUMPDEST PUSH1 0x0 PUSH2 0x2DC5 PUSH2 0x2DC0 DUP5 PUSH2 0x2D81 JUMP JUMPDEST PUSH2 0x2D66 JUMP JUMPDEST SWAP1 POP DUP1 DUP4 DUP3 MSTORE PUSH1 0x20 DUP3 ADD SWAP1 POP PUSH1 0x20 DUP5 MUL DUP4 ADD DUP6 DUP2 GT ISZERO PUSH2 0x2DE8 JUMPI PUSH2 0x2DE7 PUSH2 0x2DAD JUMP JUMPDEST JUMPDEST DUP4 JUMPDEST DUP2 DUP2 LT ISZERO PUSH2 0x2E11 JUMPI DUP1 PUSH2 0x2DFD DUP9 DUP3 PUSH2 0x22E8 JUMP JUMPDEST DUP5 MSTORE PUSH1 0x20 DUP5 ADD SWAP4 POP POP PUSH1 0x20 DUP2 ADD SWAP1 POP PUSH2 0x2DEA JUMP JUMPDEST POP POP POP SWAP4 SWAP3 POP POP POP JUMP JUMPDEST PUSH1 0x0 DUP3 PUSH1 0x1F DUP4 ADD SLT PUSH2 0x2E30 JUMPI PUSH2 0x2E2F PUSH2 0x2CF0 JUMP JUMPDEST JUMPDEST DUP2 MLOAD PUSH2 0x2E40 DUP5 DUP3 PUSH1 0x20 DUP7 ADD PUSH2 0x2DB2 JUMP JUMPDEST SWAP2 POP POP SWAP3 SWAP2 POP POP JUMP JUMPDEST PUSH1 0x0 PUSH1 0x20 DUP3 DUP5 SUB SLT ISZERO PUSH2 0x2E5F JUMPI PUSH2 0x2E5E PUSH2 0x2165 JUMP JUMPDEST JUMPDEST PUSH1 0x0 DUP3 ADD MLOAD PUSH8 0xFFFFFFFFFFFFFFFF DUP2 GT ISZERO PUSH2 0x2E7D JUMPI PUSH2 0x2E7C PUSH2 0x216A JUMP JUMPDEST JUMPDEST PUSH2 0x2E89 DUP5 DUP3 DUP6 ADD PUSH2 0x2E1B JUMP JUMPDEST SWAP2 POP POP SWAP3 SWAP2 POP POP JUMP JUMPDEST PUSH32 0x746F6B656E73206E6F7420626F75676874000000000000000000000000000000 PUSH1 0x0 DUP3 ADD MSTORE POP JUMP JUMPDEST PUSH1 0x0 PUSH2 0x2EC8 PUSH1 0x11 DUP4 PUSH2 0x257A JUMP JUMPDEST SWAP2 POP PUSH2 0x2ED3 DUP3 PUSH2 0x2E92 JUMP JUMPDEST PUSH1 0x20 DUP3 ADD SWAP1 POP SWAP2 SWAP1 POP JUMP JUMPDEST PUSH1 0x0 PUSH1 0x20 DUP3 ADD SWAP1 POP DUP2 DUP2 SUB PUSH1 0x0 DUP4 ADD MSTORE PUSH2 0x2EF7 DUP2 PUSH2 0x2EBB JUMP JUMPDEST SWAP1 POP SWAP2 SWAP1 POP JUMP JUMPDEST PUSH32 0x746F6B656E7320626F7567687400000000000000000000000000000000000000 PUSH1 0x0 DUP3 ADD MSTORE POP JUMP JUMPDEST PUSH1 0x0 PUSH2 0x2F34 PUSH1 0xD DUP4 PUSH2 0x257A JUMP JUMPDEST SWAP2 POP PUSH2 0x2F3F DUP3 PUSH2 0x2EFE JUMP JUMPDEST PUSH1 0x20 DUP3 ADD SWAP1 POP SWAP2 SWAP1 POP JUMP JUMPDEST PUSH1 0x0 PUSH1 0x20 DUP3 ADD SWAP1 POP DUP2 DUP2 SUB PUSH1 0x0 DUP4 ADD MSTORE PUSH2 0x2F63 DUP2 PUSH2 0x2F27 JUMP JUMPDEST SWAP1 POP SWAP2 SWAP1 POP JUMP INVALID LOG2 PUSH5 0x6970667358 0x22 SLT KECCAK256 SWAP8 PUSH29 0x1AD1AC6210CD7BC0CCBFC456F6603E32DA2561F30200B31AF5A718FBCF LOG1 PUSH5 0x736F6C6343 STOP ADDMOD GT STOP CALLER "
				},
				"gasEstimates": {
					"creation": {
						"codeDepositCost": "2438400",
						"executionCost": "infinite",
						"totalCost": "infinite"
					},
					"external": {
						"ERC20Address()": "2559",
						"POAPAddress()": "2625",
						"WethAddress()": "2578",
						"buyEth()": "2452",
						"crownNFTAddress()": "2581",
						"getLastEthRecieved()": "infinite",
						"getWethBalance()": "infinite",
						"liquidityEth()": "2452",
						"mintSomeTokens(uint256)": "infinite",
						"oracleAddress()": "2603",
						"path(uint256)": "4978",
						"percentLiquidity()": "infinite",
						"superBuy(address)": "infinite",
						"totalRoyalties()": "2518",
						"transactionFromPOAPId(uint256)": "infinite",
						"uniswapPairAddress()": "2558",
						"uniswapRouterAddress()": "2582",
						"updateERC20Address(address)": "24768",
						"withdraw(address)": "infinite",
						"xprovideLiquidity(uint256)": "infinite"
					},
					"internal": {
						"buyAndBurn(uint256)": "infinite",
						"buyTokens(uint256)": "infinite",
						"erc20ToPreviousHolder(address)": "infinite",
						"newTransaction(uint256,address)": "119275",
						"processETH()": "infinite",
						"provideLiquidity(uint256)": "infinite",
						"setInitialTranscation(address)": "infinite"
					}
				},
				"methodIdentifiers": {
					"ERC20Address()": "a6021ace",
					"POAPAddress()": "aef75107",
					"WethAddress()": "a785a3d8",
					"buyEth()": "4cfd1ba5",
					"crownNFTAddress()": "777b506f",
					"getLastEthRecieved()": "bfd9ea5b",
					"getWethBalance()": "9dd58b58",
					"liquidityEth()": "a09ede07",
					"mintSomeTokens(uint256)": "d4afa675",
					"oracleAddress()": "a89ae4ba",
					"path(uint256)": "af6d1fe4",
					"percentLiquidity()": "c1f2e5f1",
					"superBuy(address)": "0b2b4d9b",
					"totalRoyalties()": "86d02608",
					"transactionFromPOAPId(uint256)": "2c4c3c1b",
					"uniswapPairAddress()": "bd3733fe",
					"uniswapRouterAddress()": "20ca3c7f",
					"updateERC20Address(address)": "1b017fde",
					"withdraw(address)": "51cff8d9",
					"xprovideLiquidity(uint256)": "2ee9525b"
				}
			},
			"storageLayout": {
				"storage": [
					{
						"astId": 663,
						"contract": "Hook.sol:TransactionsAndHook",
						"label": "WethAddress",
						"offset": 0,
						"slot": "0",
						"type": "t_address"
					},
					{
						"astId": 665,
						"contract": "Hook.sol:TransactionsAndHook",
						"label": "ERC20Address",
						"offset": 0,
						"slot": "1",
						"type": "t_address"
					},
					{
						"astId": 667,
						"contract": "Hook.sol:TransactionsAndHook",
						"label": "uniswapPairAddress",
						"offset": 0,
						"slot": "2",
						"type": "t_address"
					},
					{
						"astId": 669,
						"contract": "Hook.sol:TransactionsAndHook",
						"label": "oracleAddress",
						"offset": 0,
						"slot": "3",
						"type": "t_address"
					},
					{
						"astId": 671,
						"contract": "Hook.sol:TransactionsAndHook",
						"label": "crownNFTAddress",
						"offset": 0,
						"slot": "4",
						"type": "t_address"
					},
					{
						"astId": 673,
						"contract": "Hook.sol:TransactionsAndHook",
						"label": "POAPAddress",
						"offset": 0,
						"slot": "5",
						"type": "t_address"
					},
					{
						"astId": 676,
						"contract": "Hook.sol:TransactionsAndHook",
						"label": "uniswapRouterAddress",
						"offset": 0,
						"slot": "6",
						"type": "t_address"
					},
					{
						"astId": 679,
						"contract": "Hook.sol:TransactionsAndHook",
						"label": "path",
						"offset": 0,
						"slot": "7",
						"type": "t_array(t_address)dyn_storage"
					},
					{
						"astId": 685,
						"contract": "Hook.sol:TransactionsAndHook",
						"label": "POAP",
						"offset": 0,
						"slot": "8",
						"type": "t_contract(iPOAP)483"
					},
					{
						"astId": 691,
						"contract": "Hook.sol:TransactionsAndHook",
						"label": "WETH",
						"offset": 0,
						"slot": "9",
						"type": "t_contract(WethLike)550"
					},
					{
						"astId": 697,
						"contract": "Hook.sol:TransactionsAndHook",
						"label": "Oracle",
						"offset": 0,
						"slot": "10",
						"type": "t_contract(iOracle)517"
					},
					{
						"astId": 703,
						"contract": "Hook.sol:TransactionsAndHook",
						"label": "UniswapRouter",
						"offset": 0,
						"slot": "11",
						"type": "t_contract(IUniswapV2Router02)473"
					},
					{
						"astId": 708,
						"contract": "Hook.sol:TransactionsAndHook",
						"label": "transactionFromPOAPId",
						"offset": 0,
						"slot": "12",
						"type": "t_mapping(t_uint256,t_struct(Transaction)730_storage)"
					},
					{
						"astId": 711,
						"contract": "Hook.sol:TransactionsAndHook",
						"label": "POAPIds",
						"offset": 0,
						"slot": "13",
						"type": "t_array(t_uint256)dyn_storage"
					},
					{
						"astId": 713,
						"contract": "Hook.sol:TransactionsAndHook",
						"label": "totalRoyalties",
						"offset": 0,
						"slot": "14",
						"type": "t_uint256"
					},
					{
						"astId": 1120,
						"contract": "Hook.sol:TransactionsAndHook",
						"label": "buyEth",
						"offset": 0,
						"slot": "15",
						"type": "t_uint256"
					},
					{
						"astId": 1122,
						"contract": "Hook.sol:TransactionsAndHook",
						"label": "liquidityEth",
						"offset": 0,
						"slot": "16",
						"type": "t_uint256"
					}
				],
				"types": {
					"t_address": {
						"encoding": "inplace",
						"label": "address",
						"numberOfBytes": "20"
					},
					"t_array(t_address)dyn_storage": {
						"base": "t_address",
						"encoding": "dynamic_array",
						"label": "address[]",
						"numberOfBytes": "32"
					},
					"t_array(t_uint256)dyn_storage": {
						"base": "t_uint256",
						"encoding": "dynamic_array",
						"label": "uint256[]",
						"numberOfBytes": "32"
					},
					"t_contract(IUniswapV2Router02)473": {
						"encoding": "inplace",
						"label": "contract IUniswapV2Router02",
						"numberOfBytes": "20"
					},
					"t_contract(WethLike)550": {
						"encoding": "inplace",
						"label": "contract WethLike",
						"numberOfBytes": "20"
					},
					"t_contract(iOracle)517": {
						"encoding": "inplace",
						"label": "contract iOracle",
						"numberOfBytes": "20"
					},
					"t_contract(iPOAP)483": {
						"encoding": "inplace",
						"label": "contract iPOAP",
						"numberOfBytes": "20"
					},
					"t_mapping(t_uint256,t_struct(Transaction)730_storage)": {
						"encoding": "mapping",
						"key": "t_uint256",
						"label": "mapping(uint256 => struct TransactionsAndHook.Transaction)",
						"numberOfBytes": "32",
						"value": "t_struct(Transaction)730_storage"
					},
					"t_struct(Transaction)730_storage": {
						"encoding": "inplace",
						"label": "struct TransactionsAndHook.Transaction",
						"members": [
							{
								"astId": 725,
								"contract": "Hook.sol:TransactionsAndHook",
								"label": "POAPId",
								"offset": 0,
								"slot": "0",
								"type": "t_uint256"
							},
							{
								"astId": 727,
								"contract": "Hook.sol:TransactionsAndHook",
								"label": "purchaser",
								"offset": 0,
								"slot": "1",
								"type": "t_address"
							},
							{
								"astId": 729,
								"contract": "Hook.sol:TransactionsAndHook",
								"label": "receivedEth",
								"offset": 0,
								"slot": "2",
								"type": "t_uint256"
							}
						],
						"numberOfBytes": "96"
					},
					"t_uint256": {
						"encoding": "inplace",
						"label": "uint256",
						"numberOfBytes": "32"
					}
				}
			},
			"userdoc": {
				"kind": "user",
				"methods": {},
				"version": 1
			}
		}
	}
}