{
	"contracts/Oracle.sol": {
		"Oracle": {
			"abi": [
				{
					"inputs": [
						{
							"internalType": "contract IUniswapV2Pair",
							"name": "_pair",
							"type": "address"
						}
					],
					"stateMutability": "nonpayable",
					"type": "constructor"
				},
				{
					"anonymous": false,
					"inputs": [
						{
							"indexed": false,
							"internalType": "string",
							"name": "message",
							"type": "string"
						}
					],
					"name": "Log",
					"type": "event"
				},
				{
					"inputs": [],
					"name": "PERIOD",
					"outputs": [
						{
							"internalType": "uint256",
							"name": "",
							"type": "uint256"
						}
					],
					"stateMutability": "view",
					"type": "function"
				},
				{
					"inputs": [
						{
							"internalType": "address",
							"name": "token",
							"type": "address"
						},
						{
							"internalType": "uint256",
							"name": "amountIn",
							"type": "uint256"
						}
					],
					"name": "consultPrices",
					"outputs": [
						{
							"internalType": "uint256",
							"name": "amountOut",
							"type": "uint256"
						}
					],
					"stateMutability": "view",
					"type": "function"
				},
				{
					"inputs": [],
					"name": "getPair",
					"outputs": [
						{
							"internalType": "address",
							"name": "",
							"type": "address"
						}
					],
					"stateMutability": "view",
					"type": "function"
				},
				{
					"inputs": [],
					"name": "getToken0",
					"outputs": [
						{
							"internalType": "address",
							"name": "",
							"type": "address"
						}
					],
					"stateMutability": "view",
					"type": "function"
				},
				{
					"inputs": [],
					"name": "getToken1",
					"outputs": [
						{
							"internalType": "address",
							"name": "",
							"type": "address"
						}
					],
					"stateMutability": "view",
					"type": "function"
				},
				{
					"inputs": [],
					"name": "pair",
					"outputs": [
						{
							"internalType": "contract IUniswapV2Pair",
							"name": "",
							"type": "address"
						}
					],
					"stateMutability": "view",
					"type": "function"
				},
				{
					"inputs": [],
					"name": "token0",
					"outputs": [
						{
							"internalType": "address",
							"name": "",
							"type": "address"
						}
					],
					"stateMutability": "view",
					"type": "function"
				},
				{
					"inputs": [],
					"name": "token1",
					"outputs": [
						{
							"internalType": "address",
							"name": "",
							"type": "address"
						}
					],
					"stateMutability": "view",
					"type": "function"
				},
				{
					"inputs": [],
					"name": "trackCumulativePoolQuantity",
					"outputs": [],
					"stateMutability": "nonpayable",
					"type": "function"
				},
				{
					"inputs": [],
					"name": "updatePrices",
					"outputs": [],
					"stateMutability": "nonpayable",
					"type": "function"
				},
				{
					"inputs": [],
					"name": "updateQuantities",
					"outputs": [],
					"stateMutability": "nonpayable",
					"type": "function"
				}
			],
			"devdoc": {
				"methods": {}
			},
			"evm": {
				"assembly": "    /* \"contracts/Oracle.sol\":1154:6034  contract Oracle {... */\n  mstore(0x40, 0xe0)\n    /* \"contracts/Oracle.sol\":2484:2819  constructor(IUniswapV2Pair _pair) public {... */\n  callvalue\n    /* \"--CODEGEN--\":5:14   */\n  dup1\n    /* \"--CODEGEN--\":2:4   */\n  iszero\n  tag_1\n  jumpi\n    /* \"--CODEGEN--\":27:28   */\n  0x00\n    /* \"--CODEGEN--\":24:25   */\n  dup1\n    /* \"--CODEGEN--\":17:29   */\n  revert\n    /* \"--CODEGEN--\":2:4   */\ntag_1:\n    /* \"contracts/Oracle.sol\":2484:2819  constructor(IUniswapV2Pair _pair) public {... */\n  pop\n  mload(0x40)\n  sub(codesize, bytecodeSize)\n  dup1\n  bytecodeSize\n  dup4\n  codecopy\n  dup2\n  dup2\n  add\n  0x40\n  mstore\n    /* \"--CODEGEN--\":15:17   */\n  0x20\n    /* \"--CODEGEN--\":10:13   */\n  dup2\n    /* \"--CODEGEN--\":7:18   */\n  lt\n    /* \"--CODEGEN--\":4:6   */\n  iszero\n  tag_2\n  jumpi\n    /* \"--CODEGEN--\":31:32   */\n  0x00\n    /* \"--CODEGEN--\":28:29   */\n  dup1\n    /* \"--CODEGEN--\":21:33   */\n  revert\n    /* \"--CODEGEN--\":4:6   */\ntag_2:\n    /* \"contracts/Oracle.sol\":2484:2819  constructor(IUniswapV2Pair _pair) public {... */\n  dup2\n  add\n  swap1\n  dup1\n  dup1\n  mload\n  swap1\n  0x20\n  add\n  swap1\n  swap3\n  swap2\n  swap1\n  pop\n  pop\n  pop\n    /* \"contracts/Oracle.sol\":2542:2547  _pair */\n  dup1\n    /* \"contracts/Oracle.sol\":2535:2547  pair = _pair */\n  0xffffffffffffffffffffffffffffffffffffffff\n  and\n  0x80\n  dup2\n  0xffffffffffffffffffffffffffffffffffffffff\n  and\n  0x60\n  shl\n  dup2\n  mstore\n  pop\n  pop\n    /* \"contracts/Oracle.sol\":2566:2571  _pair */\n  dup1\n    /* \"contracts/Oracle.sol\":2566:2578  _pair.token0 */\n  0xffffffffffffffffffffffffffffffffffffffff\n  and\n  0x0dfe1681\n    /* \"contracts/Oracle.sol\":2566:2580  _pair.token0() */\n  mload(0x40)\n  dup2\n  0xffffffff\n  and\n  0xe0\n  shl\n  dup2\n  mstore\n  0x04\n  add\n  0x20\n  mload(0x40)\n  dup1\n  dup4\n  sub\n  dup2\n  dup7\n  dup1\n  extcodesize\n  iszero\n    /* \"--CODEGEN--\":5:14   */\n  dup1\n    /* \"--CODEGEN--\":2:4   */\n  iszero\n  tag_5\n  jumpi\n    /* \"--CODEGEN--\":27:28   */\n  0x00\n    /* \"--CODEGEN--\":24:25   */\n  dup1\n    /* \"--CODEGEN--\":17:29   */\n  revert\n    /* \"--CODEGEN--\":2:4   */\ntag_5:\n    /* \"contracts/Oracle.sol\":2566:2580  _pair.token0() */\n  pop\n  gas\n  staticcall\n  iszero\n    /* \"--CODEGEN--\":8:17   */\n  dup1\n    /* \"--CODEGEN--\":5:7   */\n  iszero\n  tag_7\n  jumpi\n    /* \"--CODEGEN--\":45:61   */\n  returndatasize\n    /* \"--CODEGEN--\":42:43   */\n  0x00\n    /* \"--CODEGEN--\":39:40   */\n  dup1\n    /* \"--CODEGEN--\":24:62   */\n  returndatacopy\n    /* \"--CODEGEN--\":77:93   */\n  returndatasize\n    /* \"--CODEGEN--\":74:75   */\n  0x00\n    /* \"--CODEGEN--\":67:94   */\n  revert\n    /* \"--CODEGEN--\":5:7   */\ntag_7:\n    /* \"contracts/Oracle.sol\":2566:2580  _pair.token0() */\n  pop\n  pop\n  pop\n  pop\n  mload(0x40)\n  returndatasize\n    /* \"--CODEGEN--\":15:17   */\n  0x20\n    /* \"--CODEGEN--\":10:13   */\n  dup2\n    /* \"--CODEGEN--\":7:18   */\n  lt\n    /* \"--CODEGEN--\":4:6   */\n  iszero\n  tag_8\n  jumpi\n    /* \"--CODEGEN--\":31:32   */\n  0x00\n    /* \"--CODEGEN--\":28:29   */\n  dup1\n    /* \"--CODEGEN--\":21:33   */\n  revert\n    /* \"--CODEGEN--\":4:6   */\ntag_8:\n    /* \"contracts/Oracle.sol\":2566:2580  _pair.token0() */\n  dup2\n  add\n  swap1\n  dup1\n  dup1\n  mload\n  swap1\n  0x20\n  add\n  swap1\n  swap3\n  swap2\n  swap1\n  pop\n  pop\n  pop\n    /* \"contracts/Oracle.sol\":2557:2580  token0 = _pair.token0() */\n  0xffffffffffffffffffffffffffffffffffffffff\n  and\n  0xa0\n  dup2\n  0xffffffffffffffffffffffffffffffffffffffff\n  and\n  0x60\n  shl\n  dup2\n  mstore\n  pop\n  pop\n    /* \"contracts/Oracle.sol\":2599:2604  _pair */\n  dup1\n    /* \"contracts/Oracle.sol\":2599:2611  _pair.token1 */\n  0xffffffffffffffffffffffffffffffffffffffff\n  and\n  0xd21220a7\n    /* \"contracts/Oracle.sol\":2599:2613  _pair.token1() */\n  mload(0x40)\n  dup2\n  0xffffffff\n  and\n  0xe0\n  shl\n  dup2\n  mstore\n  0x04\n  add\n  0x20\n  mload(0x40)\n  dup1\n  dup4\n  sub\n  dup2\n  dup7\n  dup1\n  extcodesize\n  iszero\n    /* \"--CODEGEN--\":5:14   */\n  dup1\n    /* \"--CODEGEN--\":2:4   */\n  iszero\n  tag_9\n  jumpi\n    /* \"--CODEGEN--\":27:28   */\n  0x00\n    /* \"--CODEGEN--\":24:25   */\n  dup1\n    /* \"--CODEGEN--\":17:29   */\n  revert\n    /* \"--CODEGEN--\":2:4   */\ntag_9:\n    /* \"contracts/Oracle.sol\":2599:2613  _pair.token1() */\n  pop\n  gas\n  staticcall\n  iszero\n    /* \"--CODEGEN--\":8:17   */\n  dup1\n    /* \"--CODEGEN--\":5:7   */\n  iszero\n  tag_11\n  jumpi\n    /* \"--CODEGEN--\":45:61   */\n  returndatasize\n    /* \"--CODEGEN--\":42:43   */\n  0x00\n    /* \"--CODEGEN--\":39:40   */\n  dup1\n    /* \"--CODEGEN--\":24:62   */\n  returndatacopy\n    /* \"--CODEGEN--\":77:93   */\n  returndatasize\n    /* \"--CODEGEN--\":74:75   */\n  0x00\n    /* \"--CODEGEN--\":67:94   */\n  revert\n    /* \"--CODEGEN--\":5:7   */\ntag_11:\n    /* \"contracts/Oracle.sol\":2599:2613  _pair.token1() */\n  pop\n  pop\n  pop\n  pop\n  mload(0x40)\n  returndatasize\n    /* \"--CODEGEN--\":15:17   */\n  0x20\n    /* \"--CODEGEN--\":10:13   */\n  dup2\n    /* \"--CODEGEN--\":7:18   */\n  lt\n    /* \"--CODEGEN--\":4:6   */\n  iszero\n  tag_12\n  jumpi\n    /* \"--CODEGEN--\":31:32   */\n  0x00\n    /* \"--CODEGEN--\":28:29   */\n  dup1\n    /* \"--CODEGEN--\":21:33   */\n  revert\n    /* \"--CODEGEN--\":4:6   */\ntag_12:\n    /* \"contracts/Oracle.sol\":2599:2613  _pair.token1() */\n  dup2\n  add\n  swap1\n  dup1\n  dup1\n  mload\n  swap1\n  0x20\n  add\n  swap1\n  swap3\n  swap2\n  swap1\n  pop\n  pop\n  pop\n    /* \"contracts/Oracle.sol\":2590:2613  token1 = _pair.token1() */\n  0xffffffffffffffffffffffffffffffffffffffff\n  and\n  0xc0\n  dup2\n  0xffffffffffffffffffffffffffffffffffffffff\n  and\n  0x60\n  shl\n  dup2\n  mstore\n  pop\n  pop\n    /* \"contracts/Oracle.sol\":2653:2658  _pair */\n  dup1\n    /* \"contracts/Oracle.sol\":2653:2679  _pair.price0CumulativeLast */\n  0xffffffffffffffffffffffffffffffffffffffff\n  and\n  0x5909c0d5\n    /* \"contracts/Oracle.sol\":2653:2681  _pair.price0CumulativeLast() */\n  mload(0x40)\n  dup2\n  0xffffffff\n  and\n  0xe0\n  shl\n  dup2\n  mstore\n  0x04\n  add\n  0x20\n  mload(0x40)\n  dup1\n  dup4\n  sub\n  dup2\n  dup7\n  dup1\n  extcodesize\n  iszero\n    /* \"--CODEGEN--\":5:14   */\n  dup1\n    /* \"--CODEGEN--\":2:4   */\n  iszero\n  tag_13\n  jumpi\n    /* \"--CODEGEN--\":27:28   */\n  0x00\n    /* \"--CODEGEN--\":24:25   */\n  dup1\n    /* \"--CODEGEN--\":17:29   */\n  revert\n    /* \"--CODEGEN--\":2:4   */\ntag_13:\n    /* \"contracts/Oracle.sol\":2653:2681  _pair.price0CumulativeLast() */\n  pop\n  gas\n  staticcall\n  iszero\n    /* \"--CODEGEN--\":8:17   */\n  dup1\n    /* \"--CODEGEN--\":5:7   */\n  iszero\n  tag_15\n  jumpi\n    /* \"--CODEGEN--\":45:61   */\n  returndatasize\n    /* \"--CODEGEN--\":42:43   */\n  0x00\n    /* \"--CODEGEN--\":39:40   */\n  dup1\n    /* \"--CODEGEN--\":24:62   */\n  returndatacopy\n    /* \"--CODEGEN--\":77:93   */\n  returndatasize\n    /* \"--CODEGEN--\":74:75   */\n  0x00\n    /* \"--CODEGEN--\":67:94   */\n  revert\n    /* \"--CODEGEN--\":5:7   */\ntag_15:\n    /* \"contracts/Oracle.sol\":2653:2681  _pair.price0CumulativeLast() */\n  pop\n  pop\n  pop\n  pop\n  mload(0x40)\n  returndatasize\n    /* \"--CODEGEN--\":15:17   */\n  0x20\n    /* \"--CODEGEN--\":10:13   */\n  dup2\n    /* \"--CODEGEN--\":7:18   */\n  lt\n    /* \"--CODEGEN--\":4:6   */\n  iszero\n  tag_16\n  jumpi\n    /* \"--CODEGEN--\":31:32   */\n  0x00\n    /* \"--CODEGEN--\":28:29   */\n  dup1\n    /* \"--CODEGEN--\":21:33   */\n  revert\n    /* \"--CODEGEN--\":4:6   */\ntag_16:\n    /* \"contracts/Oracle.sol\":2653:2681  _pair.price0CumulativeLast() */\n  dup2\n  add\n  swap1\n  dup1\n  dup1\n  mload\n  swap1\n  0x20\n  add\n  swap1\n  swap3\n  swap2\n  swap1\n  pop\n  pop\n  pop\n    /* \"contracts/Oracle.sol\":2623:2629  prices */\n  0x00\n    /* \"contracts/Oracle.sol\":2623:2650  prices.price0CumulativeLast */\n  dup1\n  add\n    /* \"contracts/Oracle.sol\":2623:2681  prices.price0CumulativeLast = _pair.price0CumulativeLast() */\n  dup2\n  swap1\n  sstore\n  pop\n    /* \"contracts/Oracle.sol\":2721:2726  _pair */\n  dup1\n    /* \"contracts/Oracle.sol\":2721:2747  _pair.price1CumulativeLast */\n  0xffffffffffffffffffffffffffffffffffffffff\n  and\n  0x5a3d5493\n    /* \"contracts/Oracle.sol\":2721:2749  _pair.price1CumulativeLast() */\n  mload(0x40)\n  dup2\n  0xffffffff\n  and\n  0xe0\n  shl\n  dup2\n  mstore\n  0x04\n  add\n  0x20\n  mload(0x40)\n  dup1\n  dup4\n  sub\n  dup2\n  dup7\n  dup1\n  extcodesize\n  iszero\n    /* \"--CODEGEN--\":5:14   */\n  dup1\n    /* \"--CODEGEN--\":2:4   */\n  iszero\n  tag_17\n  jumpi\n    /* \"--CODEGEN--\":27:28   */\n  0x00\n    /* \"--CODEGEN--\":24:25   */\n  dup1\n    /* \"--CODEGEN--\":17:29   */\n  revert\n    /* \"--CODEGEN--\":2:4   */\ntag_17:\n    /* \"contracts/Oracle.sol\":2721:2749  _pair.price1CumulativeLast() */\n  pop\n  gas\n  staticcall\n  iszero\n    /* \"--CODEGEN--\":8:17   */\n  dup1\n    /* \"--CODEGEN--\":5:7   */\n  iszero\n  tag_19\n  jumpi\n    /* \"--CODEGEN--\":45:61   */\n  returndatasize\n    /* \"--CODEGEN--\":42:43   */\n  0x00\n    /* \"--CODEGEN--\":39:40   */\n  dup1\n    /* \"--CODEGEN--\":24:62   */\n  returndatacopy\n    /* \"--CODEGEN--\":77:93   */\n  returndatasize\n    /* \"--CODEGEN--\":74:75   */\n  0x00\n    /* \"--CODEGEN--\":67:94   */\n  revert\n    /* \"--CODEGEN--\":5:7   */\ntag_19:\n    /* \"contracts/Oracle.sol\":2721:2749  _pair.price1CumulativeLast() */\n  pop\n  pop\n  pop\n  pop\n  mload(0x40)\n  returndatasize\n    /* \"--CODEGEN--\":15:17   */\n  0x20\n    /* \"--CODEGEN--\":10:13   */\n  dup2\n    /* \"--CODEGEN--\":7:18   */\n  lt\n    /* \"--CODEGEN--\":4:6   */\n  iszero\n  tag_20\n  jumpi\n    /* \"--CODEGEN--\":31:32   */\n  0x00\n    /* \"--CODEGEN--\":28:29   */\n  dup1\n    /* \"--CODEGEN--\":21:33   */\n  revert\n    /* \"--CODEGEN--\":4:6   */\ntag_20:\n    /* \"contracts/Oracle.sol\":2721:2749  _pair.price1CumulativeLast() */\n  dup2\n  add\n  swap1\n  dup1\n  dup1\n  mload\n  swap1\n  0x20\n  add\n  swap1\n  swap3\n  swap2\n  swap1\n  pop\n  pop\n  pop\n    /* \"contracts/Oracle.sol\":2691:2697  prices */\n  0x00\n    /* \"contracts/Oracle.sol\":2691:2718  prices.price1CumulativeLast */\n  0x01\n  add\n    /* \"contracts/Oracle.sol\":2691:2749  prices.price1CumulativeLast = _pair.price1CumulativeLast() */\n  dup2\n  swap1\n  sstore\n  pop\n    /* \"contracts/Oracle.sol\":2793:2798  _pair */\n  dup1\n    /* \"contracts/Oracle.sol\":2793:2810  _pair.getReserves */\n  0xffffffffffffffffffffffffffffffffffffffff\n  and\n  0x0902f1ac\n    /* \"contracts/Oracle.sol\":2793:2812  _pair.getReserves() */\n  mload(0x40)\n  dup2\n  0xffffffff\n  and\n  0xe0\n  shl\n  dup2\n  mstore\n  0x04\n  add\n  0x60\n  mload(0x40)\n  dup1\n  dup4\n  sub\n  dup2\n  dup7\n  dup1\n  extcodesize\n  iszero\n    /* \"--CODEGEN--\":5:14   */\n  dup1\n    /* \"--CODEGEN--\":2:4   */\n  iszero\n  tag_21\n  jumpi\n    /* \"--CODEGEN--\":27:28   */\n  0x00\n    /* \"--CODEGEN--\":24:25   */\n  dup1\n    /* \"--CODEGEN--\":17:29   */\n  revert\n    /* \"--CODEGEN--\":2:4   */\ntag_21:\n    /* \"contracts/Oracle.sol\":2793:2812  _pair.getReserves() */\n  pop\n  gas\n  staticcall\n  iszero\n    /* \"--CODEGEN--\":8:17   */\n  dup1\n    /* \"--CODEGEN--\":5:7   */\n  iszero\n  tag_23\n  jumpi\n    /* \"--CODEGEN--\":45:61   */\n  returndatasize\n    /* \"--CODEGEN--\":42:43   */\n  0x00\n    /* \"--CODEGEN--\":39:40   */\n  dup1\n    /* \"--CODEGEN--\":24:62   */\n  returndatacopy\n    /* \"--CODEGEN--\":77:93   */\n  returndatasize\n    /* \"--CODEGEN--\":74:75   */\n  0x00\n    /* \"--CODEGEN--\":67:94   */\n  revert\n    /* \"--CODEGEN--\":5:7   */\ntag_23:\n    /* \"contracts/Oracle.sol\":2793:2812  _pair.getReserves() */\n  pop\n  pop\n  pop\n  pop\n  mload(0x40)\n  returndatasize\n    /* \"--CODEGEN--\":15:17   */\n  0x60\n    /* \"--CODEGEN--\":10:13   */\n  dup2\n    /* \"--CODEGEN--\":7:18   */\n  lt\n    /* \"--CODEGEN--\":4:6   */\n  iszero\n  tag_24\n  jumpi\n    /* \"--CODEGEN--\":31:32   */\n  0x00\n    /* \"--CODEGEN--\":28:29   */\n  dup1\n    /* \"--CODEGEN--\":21:33   */\n  revert\n    /* \"--CODEGEN--\":4:6   */\ntag_24:\n    /* \"contracts/Oracle.sol\":2793:2812  _pair.getReserves() */\n  dup2\n  add\n  swap1\n  dup1\n  dup1\n  mload\n  swap1\n  0x20\n  add\n  swap1\n  swap3\n  swap2\n  swap1\n  dup1\n  mload\n  swap1\n  0x20\n  add\n  swap1\n  swap3\n  swap2\n  swap1\n  dup1\n  mload\n  swap1\n  0x20\n  add\n  swap1\n  swap3\n  swap2\n  swap1\n  pop\n  pop\n  pop\n    /* \"contracts/Oracle.sol\":2759:2812  (, , prices.blockTimestampLast) = _pair.getReserves() */\n  swap1\n  swap2\n  pop\n  swap1\n  pop\n    /* \"contracts/Oracle.sol\":2764:2770  prices */\n  0x00\n    /* \"contracts/Oracle.sol\":2764:2789  prices.blockTimestampLast */\n  0x02\n  add\n  0x00\n    /* \"contracts/Oracle.sol\":2759:2812  (, , prices.blockTimestampLast) = _pair.getReserves() */\n  dup3\n  swap2\n  swap1\n  0x0100\n  exp\n  dup2\n  sload\n  dup2\n  0xffffffff\n  mul\n  not\n  and\n  swap1\n  dup4\n  0xffffffff\n  and\n  mul\n  or\n  swap1\n  sstore\n  pop\n  pop\n    /* \"contracts/Oracle.sol\":2484:2819  constructor(IUniswapV2Pair _pair) public {... */\n  pop\n    /* \"contracts/Oracle.sol\":1154:6034  contract Oracle {... */\n  shr(0x60, mload(0x80))\n  shr(0x60, mload(0xa0))\n  shr(0x60, mload(0xc0))\n  codecopy(0x00, dataOffset(sub_0), dataSize(sub_0))\n  assignImmutable(\"0x767071e1144097b0d9745bd1667c089e84a8eb72a91c7ca29fb1669a0afb2c57\")\n  assignImmutable(\"0x272fee19618bddbc00febd3897af287776f225c94084e4d859902021d48f698c\")\n  assignImmutable(\"0xea994d2cc87c93e1ab72467e05b549102ec4527b08396c2914bbe3dd65320445\")\n  return(0x00, dataSize(sub_0))\nstop\n\nsub_0: assembly {\n        /* \"contracts/Oracle.sol\":1154:6034  contract Oracle {... */\n      mstore(0x40, 0x80)\n      callvalue\n        /* \"--CODEGEN--\":5:14   */\n      dup1\n        /* \"--CODEGEN--\":2:4   */\n      iszero\n      tag_1\n      jumpi\n        /* \"--CODEGEN--\":27:28   */\n      0x00\n        /* \"--CODEGEN--\":24:25   */\n      dup1\n        /* \"--CODEGEN--\":17:29   */\n      revert\n        /* \"--CODEGEN--\":2:4   */\n    tag_1:\n        /* \"contracts/Oracle.sol\":1154:6034  contract Oracle {... */\n      pop\n      jumpi(tag_2, lt(calldatasize, 0x04))\n      shr(0xe0, calldataload(0x00))\n      dup1\n      0xa8aa1b31\n      gt\n      tag_14\n      jumpi\n      dup1\n      0xa8aa1b31\n      eq\n      tag_8\n      jumpi\n      dup1\n      0xb4d1d795\n      eq\n      tag_9\n      jumpi\n      dup1\n      0xba94a315\n      eq\n      tag_10\n      jumpi\n      dup1\n      0xc1f1b1b5\n      eq\n      tag_11\n      jumpi\n      dup1\n      0xd21220a7\n      eq\n      tag_12\n      jumpi\n      dup1\n      0xd36fc0ff\n      eq\n      tag_13\n      jumpi\n      jump(tag_2)\n    tag_14:\n      dup1\n      0x0dfe1681\n      eq\n      tag_3\n      jumpi\n      dup1\n      0x3ac35585\n      eq\n      tag_4\n      jumpi\n      dup1\n      0x49394411\n      eq\n      tag_5\n      jumpi\n      dup1\n      0x49dd1262\n      eq\n      tag_6\n      jumpi\n      dup1\n      0x6f26a710\n      eq\n      tag_7\n      jumpi\n    tag_2:\n        /* \"--CODEGEN--\":12:13   */\n      0x00\n        /* \"--CODEGEN--\":9:10   */\n      dup1\n        /* \"--CODEGEN--\":2:14   */\n      revert\n        /* \"contracts/Oracle.sol\":1317:1348  address public immutable token0 */\n    tag_3:\n      tag_15\n      tag_16\n      jump\t// in\n    tag_15:\n      mload(0x40)\n      dup1\n      dup3\n      0xffffffffffffffffffffffffffffffffffffffff\n      and\n      0xffffffffffffffffffffffffffffffffffffffff\n      and\n      dup2\n      mstore\n      0x20\n      add\n      swap2\n      pop\n      pop\n      mload(0x40)\n      dup1\n      swap2\n      sub\n      swap1\n      return\n        /* \"contracts/Oracle.sol\":5485:6032  function consultPrices(address token, uint amountIn)... */\n    tag_4:\n      tag_17\n      0x04\n      dup1\n      calldatasize\n      sub\n        /* \"--CODEGEN--\":15:17   */\n      0x40\n        /* \"--CODEGEN--\":10:13   */\n      dup2\n        /* \"--CODEGEN--\":7:18   */\n      lt\n        /* \"--CODEGEN--\":4:6   */\n      iszero\n      tag_18\n      jumpi\n        /* \"--CODEGEN--\":31:32   */\n      0x00\n        /* \"--CODEGEN--\":28:29   */\n      dup1\n        /* \"--CODEGEN--\":21:33   */\n      revert\n        /* \"--CODEGEN--\":4:6   */\n    tag_18:\n        /* \"contracts/Oracle.sol\":5485:6032  function consultPrices(address token, uint amountIn)... */\n      dup2\n      add\n      swap1\n      dup1\n      dup1\n      calldataload\n      0xffffffffffffffffffffffffffffffffffffffff\n      and\n      swap1\n      0x20\n      add\n      swap1\n      swap3\n      swap2\n      swap1\n      dup1\n      calldataload\n      swap1\n      0x20\n      add\n      swap1\n      swap3\n      swap2\n      swap1\n      pop\n      pop\n      pop\n      tag_19\n      jump\t// in\n    tag_17:\n      mload(0x40)\n      dup1\n      dup3\n      dup2\n      mstore\n      0x20\n      add\n      swap2\n      pop\n      pop\n      mload(0x40)\n      dup1\n      swap2\n      sub\n      swap1\n      return\n        /* \"contracts/Oracle.sol\":2825:3296  function trackCumulativePoolQuantity() external {... */\n    tag_5:\n      tag_20\n      tag_21\n      jump\t// in\n    tag_20:\n      stop\n        /* \"contracts/Oracle.sol\":4566:5478  function updatePrices() external {... */\n    tag_6:\n      tag_22\n      tag_23\n      jump\t// in\n    tag_22:\n      stop\n        /* \"contracts/Oracle.sol\":1482:1562  function getToken1() public view returns (address){... */\n    tag_7:\n      tag_24\n      tag_25\n      jump\t// in\n    tag_24:\n      mload(0x40)\n      dup1\n      dup3\n      0xffffffffffffffffffffffffffffffffffffffff\n      and\n      0xffffffffffffffffffffffffffffffffffffffff\n      and\n      dup2\n      mstore\n      0x20\n      add\n      swap2\n      pop\n      pop\n      mload(0x40)\n      dup1\n      swap2\n      sub\n      swap1\n      return\n        /* \"contracts/Oracle.sol\":1275:1311  IUniswapV2Pair public immutable pair */\n    tag_8:\n      tag_26\n      tag_27\n      jump\t// in\n    tag_26:\n      mload(0x40)\n      dup1\n      dup3\n      0xffffffffffffffffffffffffffffffffffffffff\n      and\n      0xffffffffffffffffffffffffffffffffffffffff\n      and\n      dup2\n      mstore\n      0x20\n      add\n      swap2\n      pop\n      pop\n      mload(0x40)\n      dup1\n      swap2\n      sub\n      swap1\n      return\n        /* \"contracts/Oracle.sol\":1236:1268  uint public constant PERIOD = 10 */\n    tag_9:\n      tag_28\n      tag_29\n      jump\t// in\n    tag_28:\n      mload(0x40)\n      dup1\n      dup3\n      dup2\n      mstore\n      0x20\n      add\n      swap2\n      pop\n      pop\n      mload(0x40)\n      dup1\n      swap2\n      sub\n      swap1\n      return\n        /* \"contracts/Oracle.sol\":1572:1652  function getToken0() public view returns (address){... */\n    tag_10:\n      tag_30\n      tag_31\n      jump\t// in\n    tag_30:\n      mload(0x40)\n      dup1\n      dup3\n      0xffffffffffffffffffffffffffffffffffffffff\n      and\n      0xffffffffffffffffffffffffffffffffffffffff\n      and\n      dup2\n      mstore\n      0x20\n      add\n      swap2\n      pop\n      pop\n      mload(0x40)\n      dup1\n      swap2\n      sub\n      swap1\n      return\n        /* \"contracts/Oracle.sol\":1392:1476  function getPair() public view returns(address){... */\n    tag_11:\n      tag_32\n      tag_33\n      jump\t// in\n    tag_32:\n      mload(0x40)\n      dup1\n      dup3\n      0xffffffffffffffffffffffffffffffffffffffff\n      and\n      0xffffffffffffffffffffffffffffffffffffffff\n      and\n      dup2\n      mstore\n      0x20\n      add\n      swap2\n      pop\n      pop\n      mload(0x40)\n      dup1\n      swap2\n      sub\n      swap1\n      return\n        /* \"contracts/Oracle.sol\":1354:1385  address public immutable token1 */\n    tag_12:\n      tag_34\n      tag_35\n      jump\t// in\n    tag_34:\n      mload(0x40)\n      dup1\n      dup3\n      0xffffffffffffffffffffffffffffffffffffffff\n      and\n      0xffffffffffffffffffffffffffffffffffffffff\n      and\n      dup2\n      mstore\n      0x20\n      add\n      swap2\n      pop\n      pop\n      mload(0x40)\n      dup1\n      swap2\n      sub\n      swap1\n      return\n        /* \"contracts/Oracle.sol\":3302:4560  function updateQuantities() external {... */\n    tag_13:\n      tag_36\n      tag_37\n      jump\t// in\n    tag_36:\n      stop\n        /* \"contracts/Oracle.sol\":1317:1348  address public immutable token0 */\n    tag_16:\n      immutable(\"0x272fee19618bddbc00febd3897af287776f225c94084e4d859902021d48f698c\")\n      dup2\n      jump\t// out\n        /* \"contracts/Oracle.sol\":5485:6032  function consultPrices(address token, uint amountIn)... */\n    tag_19:\n        /* \"contracts/Oracle.sol\":5585:5599  uint amountOut */\n      0x00\n        /* \"contracts/Oracle.sol\":5632:5638  token0 */\n      immutable(\"0x272fee19618bddbc00febd3897af287776f225c94084e4d859902021d48f698c\")\n        /* \"contracts/Oracle.sol\":5623:5638  token == token0 */\n      0xffffffffffffffffffffffffffffffffffffffff\n      and\n        /* \"contracts/Oracle.sol\":5623:5628  token */\n      dup4\n        /* \"contracts/Oracle.sol\":5623:5638  token == token0 */\n      0xffffffffffffffffffffffffffffffffffffffff\n      and\n      eq\n        /* \"contracts/Oracle.sol\":5623:5657  token == token0 || token == token1 */\n      dup1\n      tag_39\n      jumpi\n      pop\n        /* \"contracts/Oracle.sol\":5651:5657  token1 */\n      immutable(\"0x767071e1144097b0d9745bd1667c089e84a8eb72a91c7ca29fb1669a0afb2c57\")\n        /* \"contracts/Oracle.sol\":5642:5657  token == token1 */\n      0xffffffffffffffffffffffffffffffffffffffff\n      and\n        /* \"contracts/Oracle.sol\":5642:5647  token */\n      dup4\n        /* \"contracts/Oracle.sol\":5642:5657  token == token1 */\n      0xffffffffffffffffffffffffffffffffffffffff\n      and\n      eq\n        /* \"contracts/Oracle.sol\":5623:5657  token == token0 || token == token1 */\n    tag_39:\n        /* \"contracts/Oracle.sol\":5615:5675  require(token == token0 || token == token1, \"invalid token\") */\n      tag_40\n      jumpi\n      mload(0x40)\n      0x08c379a000000000000000000000000000000000000000000000000000000000\n      dup2\n      mstore\n      0x04\n      add\n      dup1\n      dup1\n      0x20\n      add\n      dup3\n      dup2\n      sub\n      dup3\n      mstore\n      0x0d\n      dup2\n      mstore\n      0x20\n      add\n      dup1\n      0x696e76616c696420746f6b656e00000000000000000000000000000000000000\n      dup2\n      mstore\n      pop\n      0x20\n      add\n      swap2\n      pop\n      pop\n      mload(0x40)\n      dup1\n      swap2\n      sub\n      swap1\n      revert\n    tag_40:\n        /* \"contracts/Oracle.sol\":5699:5705  token0 */\n      immutable(\"0x272fee19618bddbc00febd3897af287776f225c94084e4d859902021d48f698c\")\n        /* \"contracts/Oracle.sol\":5690:5705  token == token0 */\n      0xffffffffffffffffffffffffffffffffffffffff\n      and\n        /* \"contracts/Oracle.sol\":5690:5695  token */\n      dup4\n        /* \"contracts/Oracle.sol\":5690:5705  token == token0 */\n      0xffffffffffffffffffffffffffffffffffffffff\n      and\n      eq\n        /* \"contracts/Oracle.sol\":5686:6026  if (token == token0) {... */\n      iszero\n      tag_41\n      jumpi\n        /* \"contracts/Oracle.sol\":5880:5926  prices.price0Average.mul(amountIn).decode144() */\n      tag_42\n        /* \"contracts/Oracle.sol\":5880:5914  prices.price0Average.mul(amountIn) */\n      tag_43\n        /* \"contracts/Oracle.sol\":5905:5913  amountIn */\n      dup4\n        /* \"contracts/Oracle.sol\":5880:5886  prices */\n      0x00\n        /* \"contracts/Oracle.sol\":5880:5900  prices.price0Average */\n      0x03\n      add\n        /* \"contracts/Oracle.sol\":5880:5904  prices.price0Average.mul */\n      mload(0x40)\n      dup1\n      0x20\n      add\n      0x40\n      mstore\n      swap1\n      dup2\n      0x00\n      dup3\n      add\n      0x00\n      swap1\n      sload\n      swap1\n      0x0100\n      exp\n      swap1\n      div\n      0xffffffffffffffffffffffffffffffffffffffffffffffffffffffff\n      and\n      0xffffffffffffffffffffffffffffffffffffffffffffffffffffffff\n      and\n      0xffffffffffffffffffffffffffffffffffffffffffffffffffffffff\n      and\n      dup2\n      mstore\n      pop\n      pop\n      tag_44\n      swap1\n        /* \"contracts/Oracle.sol\":5880:5914  prices.price0Average.mul(amountIn) */\n      swap2\n      swap1\n      0xffffffff\n      and\n      jump\t// in\n    tag_43:\n        /* \"contracts/Oracle.sol\":5880:5924  prices.price0Average.mul(amountIn).decode144 */\n      tag_45\n        /* \"contracts/Oracle.sol\":5880:5926  prices.price0Average.mul(amountIn).decode144() */\n      jump\t// in\n    tag_42:\n        /* \"contracts/Oracle.sol\":5868:5926  amountOut = prices.price0Average.mul(amountIn).decode144() */\n      0xffffffffffffffffffffffffffffffffffff\n      and\n      swap1\n      pop\n        /* \"contracts/Oracle.sol\":5686:6026  if (token == token0) {... */\n      jump(tag_46)\n    tag_41:\n        /* \"contracts/Oracle.sol\":5969:6015  prices.price1Average.mul(amountIn).decode144() */\n      tag_47\n        /* \"contracts/Oracle.sol\":5969:6003  prices.price1Average.mul(amountIn) */\n      tag_48\n        /* \"contracts/Oracle.sol\":5994:6002  amountIn */\n      dup4\n        /* \"contracts/Oracle.sol\":5969:5975  prices */\n      0x00\n        /* \"contracts/Oracle.sol\":5969:5989  prices.price1Average */\n      0x04\n      add\n        /* \"contracts/Oracle.sol\":5969:5993  prices.price1Average.mul */\n      mload(0x40)\n      dup1\n      0x20\n      add\n      0x40\n      mstore\n      swap1\n      dup2\n      0x00\n      dup3\n      add\n      0x00\n      swap1\n      sload\n      swap1\n      0x0100\n      exp\n      swap1\n      div\n      0xffffffffffffffffffffffffffffffffffffffffffffffffffffffff\n      and\n      0xffffffffffffffffffffffffffffffffffffffffffffffffffffffff\n      and\n      0xffffffffffffffffffffffffffffffffffffffffffffffffffffffff\n      and\n      dup2\n      mstore\n      pop\n      pop\n      tag_44\n      swap1\n        /* \"contracts/Oracle.sol\":5969:6003  prices.price1Average.mul(amountIn) */\n      swap2\n      swap1\n      0xffffffff\n      and\n      jump\t// in\n    tag_48:\n        /* \"contracts/Oracle.sol\":5969:6013  prices.price1Average.mul(amountIn).decode144 */\n      tag_45\n        /* \"contracts/Oracle.sol\":5969:6015  prices.price1Average.mul(amountIn).decode144() */\n      jump\t// in\n    tag_47:\n        /* \"contracts/Oracle.sol\":5957:6015  amountOut = prices.price1Average.mul(amountIn).decode144() */\n      0xffffffffffffffffffffffffffffffffffff\n      and\n      swap1\n      pop\n        /* \"contracts/Oracle.sol\":5686:6026  if (token == token0) {... */\n    tag_46:\n        /* \"contracts/Oracle.sol\":5485:6032  function consultPrices(address token, uint amountIn)... */\n      swap3\n      swap2\n      pop\n      pop\n      jump\t// out\n        /* \"contracts/Oracle.sol\":2825:3296  function trackCumulativePoolQuantity() external {... */\n    tag_21:\n        /* \"contracts/Oracle.sol\":2905:2911  token1 */\n      immutable(\"0x767071e1144097b0d9745bd1667c089e84a8eb72a91c7ca29fb1669a0afb2c57\")\n        /* \"contracts/Oracle.sol\":2891:2911  msg.sender == token1 */\n      0xffffffffffffffffffffffffffffffffffffffff\n      and\n        /* \"contracts/Oracle.sol\":2891:2901  msg.sender */\n      caller\n        /* \"contracts/Oracle.sol\":2891:2911  msg.sender == token1 */\n      0xffffffffffffffffffffffffffffffffffffffff\n      and\n      eq\n        /* \"contracts/Oracle.sol\":2883:2912  require(msg.sender == token1) */\n      tag_50\n      jumpi\n        /* \"--CODEGEN--\":12:13   */\n      0x00\n        /* \"--CODEGEN--\":9:10   */\n      dup1\n        /* \"--CODEGEN--\":2:14   */\n      revert\n        /* \"contracts/Oracle.sol\":2883:2912  require(msg.sender == token1) */\n    tag_50:\n        /* \"contracts/Oracle.sol\":2923:2936  uint reserve0 */\n      0x00\n        /* \"contracts/Oracle.sol\":2938:2951  uint reserve1 */\n      dup1\n        /* \"contracts/Oracle.sol\":2953:2978  uint32 blockTimestampLast */\n      0x00\n        /* \"contracts/Oracle.sol\":2982:2986  pair */\n      immutable(\"0xea994d2cc87c93e1ab72467e05b549102ec4527b08396c2914bbe3dd65320445\")\n        /* \"contracts/Oracle.sol\":2982:2998  pair.getReserves */\n      0xffffffffffffffffffffffffffffffffffffffff\n      and\n      0x0902f1ac\n        /* \"contracts/Oracle.sol\":2982:3000  pair.getReserves() */\n      mload(0x40)\n      dup2\n      0xffffffff\n      and\n      0xe0\n      shl\n      dup2\n      mstore\n      0x04\n      add\n      0x60\n      mload(0x40)\n      dup1\n      dup4\n      sub\n      dup2\n      dup7\n      dup1\n      extcodesize\n      iszero\n        /* \"--CODEGEN--\":5:14   */\n      dup1\n        /* \"--CODEGEN--\":2:4   */\n      iszero\n      tag_51\n      jumpi\n        /* \"--CODEGEN--\":27:28   */\n      0x00\n        /* \"--CODEGEN--\":24:25   */\n      dup1\n        /* \"--CODEGEN--\":17:29   */\n      revert\n        /* \"--CODEGEN--\":2:4   */\n    tag_51:\n        /* \"contracts/Oracle.sol\":2982:3000  pair.getReserves() */\n      pop\n      gas\n      staticcall\n      iszero\n        /* \"--CODEGEN--\":8:17   */\n      dup1\n        /* \"--CODEGEN--\":5:7   */\n      iszero\n      tag_53\n      jumpi\n        /* \"--CODEGEN--\":45:61   */\n      returndatasize\n        /* \"--CODEGEN--\":42:43   */\n      0x00\n        /* \"--CODEGEN--\":39:40   */\n      dup1\n        /* \"--CODEGEN--\":24:62   */\n      returndatacopy\n        /* \"--CODEGEN--\":77:93   */\n      returndatasize\n        /* \"--CODEGEN--\":74:75   */\n      0x00\n        /* \"--CODEGEN--\":67:94   */\n      revert\n        /* \"--CODEGEN--\":5:7   */\n    tag_53:\n        /* \"contracts/Oracle.sol\":2982:3000  pair.getReserves() */\n      pop\n      pop\n      pop\n      pop\n      mload(0x40)\n      returndatasize\n        /* \"--CODEGEN--\":15:17   */\n      0x60\n        /* \"--CODEGEN--\":10:13   */\n      dup2\n        /* \"--CODEGEN--\":7:18   */\n      lt\n        /* \"--CODEGEN--\":4:6   */\n      iszero\n      tag_54\n      jumpi\n        /* \"--CODEGEN--\":31:32   */\n      0x00\n        /* \"--CODEGEN--\":28:29   */\n      dup1\n        /* \"--CODEGEN--\":21:33   */\n      revert\n        /* \"--CODEGEN--\":4:6   */\n    tag_54:\n        /* \"contracts/Oracle.sol\":2982:3000  pair.getReserves() */\n      dup2\n      add\n      swap1\n      dup1\n      dup1\n      mload\n      swap1\n      0x20\n      add\n      swap1\n      swap3\n      swap2\n      swap1\n      dup1\n      mload\n      swap1\n      0x20\n      add\n      swap1\n      swap3\n      swap2\n      swap1\n      dup1\n      mload\n      swap1\n      0x20\n      add\n      swap1\n      swap3\n      swap2\n      swap1\n      pop\n      pop\n      pop\n        /* \"contracts/Oracle.sol\":2922:3000  (uint reserve0, uint reserve1, uint32 blockTimestampLast) = pair.getReserves() */\n      swap3\n      pop\n      0xffffffffffffffffffffffffffff\n      and\n      swap3\n      pop\n      0xffffffffffffffffffffffffffff\n      and\n      swap3\n      pop\n        /* \"contracts/Oracle.sol\":3014:3032  uint32 timeElapsed */\n      0x00\n        /* \"contracts/Oracle.sol\":3056:3069  trackQuantity */\n      0x0a\n        /* \"contracts/Oracle.sol\":3056:3084  trackQuantity.blockTimestamp */\n      0x02\n      add\n      0x00\n      swap1\n      sload\n      swap1\n      0x0100\n      exp\n      swap1\n      div\n      0xffffffff\n      and\n        /* \"contracts/Oracle.sol\":3035:3053  blockTimestampLast */\n      dup3\n        /* \"contracts/Oracle.sol\":3035:3084  blockTimestampLast - trackQuantity.blockTimestamp */\n      sub\n        /* \"contracts/Oracle.sol\":3014:3084  uint32 timeElapsed = blockTimestampLast - trackQuantity.blockTimestamp */\n      swap1\n      pop\n        /* \"contracts/Oracle.sol\":3147:3155  reserve0 */\n      dup4\n        /* \"contracts/Oracle.sol\":3133:3144  timeElapsed */\n      dup2\n        /* \"contracts/Oracle.sol\":3133:3155  timeElapsed * reserve0 */\n      0xffffffff\n      and\n      mul\n        /* \"contracts/Oracle.sol\":3098:3111  trackQuantity */\n      0x0a\n        /* \"contracts/Oracle.sol\":3098:3129  trackQuantity.amount0Cumulative */\n      0x00\n      add\n      0x00\n        /* \"contracts/Oracle.sol\":3098:3155  trackQuantity.amount0Cumulative += timeElapsed * reserve0 */\n      dup3\n      dup3\n      sload\n      add\n      swap3\n      pop\n      pop\n      dup2\n      swap1\n      sstore\n      pop\n        /* \"contracts/Oracle.sol\":3218:3226  reserve1 */\n      dup3\n        /* \"contracts/Oracle.sol\":3204:3215  timeElapsed */\n      dup2\n        /* \"contracts/Oracle.sol\":3204:3226  timeElapsed * reserve1 */\n      0xffffffff\n      and\n      mul\n        /* \"contracts/Oracle.sol\":3169:3182  trackQuantity */\n      0x0a\n        /* \"contracts/Oracle.sol\":3169:3200  trackQuantity.amount1Cumulative */\n      0x01\n      add\n      0x00\n        /* \"contracts/Oracle.sol\":3169:3226  trackQuantity.amount1Cumulative += timeElapsed * reserve1 */\n      dup3\n      dup3\n      sload\n      add\n      swap3\n      pop\n      pop\n      dup2\n      swap1\n      sstore\n      pop\n        /* \"contracts/Oracle.sol\":3271:3289  blockTimestampLast */\n      dup2\n        /* \"contracts/Oracle.sol\":3240:3253  trackQuantity */\n      0x0a\n        /* \"contracts/Oracle.sol\":3240:3268  trackQuantity.blockTimestamp */\n      0x02\n      add\n      0x00\n        /* \"contracts/Oracle.sol\":3240:3289  trackQuantity.blockTimestamp = blockTimestampLast */\n      0x0100\n      exp\n      dup2\n      sload\n      dup2\n      0xffffffff\n      mul\n      not\n      and\n      swap1\n      dup4\n      0xffffffff\n      and\n      mul\n      or\n      swap1\n      sstore\n      pop\n        /* \"contracts/Oracle.sol\":2825:3296  function trackCumulativePoolQuantity() external {... */\n      pop\n      pop\n      pop\n      pop\n      jump\t// out\n        /* \"contracts/Oracle.sol\":4566:5478  function updatePrices() external {... */\n    tag_23:\n        /* \"contracts/Oracle.sol\":4623:4644  uint price0Cumulative */\n      0x00\n        /* \"contracts/Oracle.sol\":4658:4679  uint price1Cumulative */\n      dup1\n        /* \"contracts/Oracle.sol\":4693:4714  uint32 blockTimestamp */\n      0x00\n        /* \"contracts/Oracle.sol\":4727:4788  UniswapV2OracleLibrary.currentCumulativePrices(address(pair)) */\n      tag_56\n        /* \"contracts/Oracle.sol\":4782:4786  pair */\n      immutable(\"0xea994d2cc87c93e1ab72467e05b549102ec4527b08396c2914bbe3dd65320445\")\n        /* \"contracts/Oracle.sol\":4727:4773  UniswapV2OracleLibrary.currentCumulativePrices */\n      tag_57\n        /* \"contracts/Oracle.sol\":4727:4788  UniswapV2OracleLibrary.currentCumulativePrices(address(pair)) */\n      jump\t// in\n    tag_56:\n        /* \"contracts/Oracle.sol\":4609:4788  (... */\n      swap3\n      pop\n      swap3\n      pop\n      swap3\n      pop\n        /* \"contracts/Oracle.sol\":4798:4816  uint32 timeElapsed */\n      0x00\n        /* \"contracts/Oracle.sol\":4836:4842  prices */\n      dup1\n        /* \"contracts/Oracle.sol\":4836:4861  prices.blockTimestampLast */\n      0x02\n      add\n      0x00\n      swap1\n      sload\n      swap1\n      0x0100\n      exp\n      swap1\n      div\n      0xffffffff\n      and\n        /* \"contracts/Oracle.sol\":4819:4833  blockTimestamp */\n      dup3\n        /* \"contracts/Oracle.sol\":4819:4861  blockTimestamp - prices.blockTimestampLast */\n      sub\n        /* \"contracts/Oracle.sol\":4798:4861  uint32 timeElapsed = blockTimestamp - prices.blockTimestampLast */\n      swap1\n      pop\n        /* \"contracts/Oracle.sol\":1266:1268  10 */\n      0x0a\n        /* \"contracts/Oracle.sol\":4875:4886  timeElapsed */\n      dup2\n        /* \"contracts/Oracle.sol\":4875:4896  timeElapsed >= PERIOD */\n      0xffffffff\n      and\n      lt\n        /* \"contracts/Oracle.sol\":4872:5472  if(timeElapsed >= PERIOD){... */\n      tag_58\n      jumpi\n        /* \"contracts/Oracle.sol\":4931:5046  FixedPoint.uq112x112(... */\n      mload(0x40)\n      dup1\n      0x20\n      add\n      0x40\n      mstore\n      dup1\n        /* \"contracts/Oracle.sol\":5024:5035  timeElapsed */\n      dup3\n        /* \"contracts/Oracle.sol\":4973:5035  (price0Cumulative - prices.price0CumulativeLast) / timeElapsed */\n      0xffffffff\n      and\n        /* \"contracts/Oracle.sol\":4993:4999  prices */\n      0x00\n        /* \"contracts/Oracle.sol\":4993:5020  prices.price0CumulativeLast */\n      dup1\n      add\n      sload\n        /* \"contracts/Oracle.sol\":4974:4990  price0Cumulative */\n      dup8\n        /* \"contracts/Oracle.sol\":4974:5020  price0Cumulative - prices.price0CumulativeLast */\n      sub\n        /* \"contracts/Oracle.sol\":4973:5035  (price0Cumulative - prices.price0CumulativeLast) / timeElapsed */\n      dup2\n      tag_59\n      jumpi\n      invalid\n    tag_59:\n      div\n        /* \"contracts/Oracle.sol\":4931:5046  FixedPoint.uq112x112(... */\n      0xffffffffffffffffffffffffffffffffffffffffffffffffffffffff\n      and\n      dup2\n      mstore\n      pop\n        /* \"contracts/Oracle.sol\":4908:4914  prices */\n      0x00\n        /* \"contracts/Oracle.sol\":4908:4928  prices.price0Average */\n      0x03\n      add\n        /* \"contracts/Oracle.sol\":4908:5046  prices.price0Average = FixedPoint.uq112x112(... */\n      0x00\n      dup3\n      add\n      mload\n      dup2\n      0x00\n      add\n      exp(0x0100, 0x00)\n      dup2\n      sload\n      dup2\n      0xffffffffffffffffffffffffffffffffffffffffffffffffffffffff\n      mul\n      not\n      and\n      swap1\n      dup4\n      0xffffffffffffffffffffffffffffffffffffffffffffffffffffffff\n      and\n      mul\n      or\n      swap1\n      sstore\n      pop\n      swap1\n      pop\n      pop\n        /* \"contracts/Oracle.sol\":5079:5194  FixedPoint.uq112x112(... */\n      mload(0x40)\n      dup1\n      0x20\n      add\n      0x40\n      mstore\n      dup1\n        /* \"contracts/Oracle.sol\":5172:5183  timeElapsed */\n      dup3\n        /* \"contracts/Oracle.sol\":5121:5183  (price1Cumulative - prices.price1CumulativeLast) / timeElapsed */\n      0xffffffff\n      and\n        /* \"contracts/Oracle.sol\":5141:5147  prices */\n      0x00\n        /* \"contracts/Oracle.sol\":5141:5168  prices.price1CumulativeLast */\n      0x01\n      add\n      sload\n        /* \"contracts/Oracle.sol\":5122:5138  price1Cumulative */\n      dup7\n        /* \"contracts/Oracle.sol\":5122:5168  price1Cumulative - prices.price1CumulativeLast */\n      sub\n        /* \"contracts/Oracle.sol\":5121:5183  (price1Cumulative - prices.price1CumulativeLast) / timeElapsed */\n      dup2\n      tag_60\n      jumpi\n      invalid\n    tag_60:\n      div\n        /* \"contracts/Oracle.sol\":5079:5194  FixedPoint.uq112x112(... */\n      0xffffffffffffffffffffffffffffffffffffffffffffffffffffffff\n      and\n      dup2\n      mstore\n      pop\n        /* \"contracts/Oracle.sol\":5056:5062  prices */\n      0x00\n        /* \"contracts/Oracle.sol\":5056:5076  prices.price1Average */\n      0x04\n      add\n        /* \"contracts/Oracle.sol\":5056:5194  prices.price1Average = FixedPoint.uq112x112(... */\n      0x00\n      dup3\n      add\n      mload\n      dup2\n      0x00\n      add\n      exp(0x0100, 0x00)\n      dup2\n      sload\n      dup2\n      0xffffffffffffffffffffffffffffffffffffffffffffffffffffffff\n      mul\n      not\n      and\n      swap1\n      dup4\n      0xffffffffffffffffffffffffffffffffffffffffffffffffffffffff\n      and\n      mul\n      or\n      swap1\n      sstore\n      pop\n      swap1\n      pop\n      pop\n        /* \"contracts/Oracle.sol\":5235:5251  price0Cumulative */\n      dup4\n        /* \"contracts/Oracle.sol\":5205:5211  prices */\n      0x00\n        /* \"contracts/Oracle.sol\":5205:5232  prices.price0CumulativeLast */\n      dup1\n      add\n        /* \"contracts/Oracle.sol\":5205:5251  prices.price0CumulativeLast = price0Cumulative */\n      dup2\n      swap1\n      sstore\n      pop\n        /* \"contracts/Oracle.sol\":5291:5307  price1Cumulative */\n      dup3\n        /* \"contracts/Oracle.sol\":5261:5267  prices */\n      0x00\n        /* \"contracts/Oracle.sol\":5261:5288  prices.price1CumulativeLast */\n      0x01\n      add\n        /* \"contracts/Oracle.sol\":5261:5307  prices.price1CumulativeLast = price1Cumulative */\n      dup2\n      swap1\n      sstore\n      pop\n        /* \"contracts/Oracle.sol\":5345:5359  blockTimestamp */\n      dup2\n        /* \"contracts/Oracle.sol\":5317:5323  prices */\n      0x00\n        /* \"contracts/Oracle.sol\":5317:5342  prices.blockTimestampLast */\n      0x02\n      add\n      0x00\n        /* \"contracts/Oracle.sol\":5317:5359  prices.blockTimestampLast = blockTimestamp */\n      0x0100\n      exp\n      dup2\n      sload\n      dup2\n      0xffffffff\n      mul\n      not\n      and\n      swap1\n      dup4\n      0xffffffff\n      and\n      mul\n      or\n      swap1\n      sstore\n      pop\n        /* \"contracts/Oracle.sol\":5374:5394  Log(\"Price updated\") */\n      0xcf34ef537ac33ee1ac626ca1587a0a7e8e51561e5514f8cb36afa1c5102b3bab\n      mload(0x40)\n      dup1\n      dup1\n      0x20\n      add\n      dup3\n      dup2\n      sub\n      dup3\n      mstore\n      0x0d\n      dup2\n      mstore\n      0x20\n      add\n      dup1\n      0x5072696365207570646174656400000000000000000000000000000000000000\n      dup2\n      mstore\n      pop\n      0x20\n      add\n      swap2\n      pop\n      pop\n      mload(0x40)\n      dup1\n      swap2\n      sub\n      swap1\n      log1\n        /* \"contracts/Oracle.sol\":4872:5472  if(timeElapsed >= PERIOD){... */\n      jump(tag_61)\n    tag_58:\n        /* \"contracts/Oracle.sol\":5437:5461  Log(\"Price not updated\") */\n      0xcf34ef537ac33ee1ac626ca1587a0a7e8e51561e5514f8cb36afa1c5102b3bab\n      mload(0x40)\n      dup1\n      dup1\n      0x20\n      add\n      dup3\n      dup2\n      sub\n      dup3\n      mstore\n      0x11\n      dup2\n      mstore\n      0x20\n      add\n      dup1\n      0x5072696365206e6f742075706461746564000000000000000000000000000000\n      dup2\n      mstore\n      pop\n      0x20\n      add\n      swap2\n      pop\n      pop\n      mload(0x40)\n      dup1\n      swap2\n      sub\n      swap1\n      log1\n        /* \"contracts/Oracle.sol\":4872:5472  if(timeElapsed >= PERIOD){... */\n    tag_61:\n        /* \"contracts/Oracle.sol\":4566:5478  function updatePrices() external {... */\n      pop\n      pop\n      pop\n      pop\n      jump\t// out\n        /* \"contracts/Oracle.sol\":1482:1562  function getToken1() public view returns (address){... */\n    tag_25:\n        /* \"contracts/Oracle.sol\":1524:1531  address */\n      0x00\n        /* \"contracts/Oracle.sol\":1549:1555  token1 */\n      immutable(\"0x767071e1144097b0d9745bd1667c089e84a8eb72a91c7ca29fb1669a0afb2c57\")\n        /* \"contracts/Oracle.sol\":1542:1555  return token1 */\n      swap1\n      pop\n        /* \"contracts/Oracle.sol\":1482:1562  function getToken1() public view returns (address){... */\n      swap1\n      jump\t// out\n        /* \"contracts/Oracle.sol\":1275:1311  IUniswapV2Pair public immutable pair */\n    tag_27:\n      immutable(\"0xea994d2cc87c93e1ab72467e05b549102ec4527b08396c2914bbe3dd65320445\")\n      dup2\n      jump\t// out\n        /* \"contracts/Oracle.sol\":1236:1268  uint public constant PERIOD = 10 */\n    tag_29:\n        /* \"contracts/Oracle.sol\":1266:1268  10 */\n      0x0a\n        /* \"contracts/Oracle.sol\":1236:1268  uint public constant PERIOD = 10 */\n      dup2\n      jump\t// out\n        /* \"contracts/Oracle.sol\":1572:1652  function getToken0() public view returns (address){... */\n    tag_31:\n        /* \"contracts/Oracle.sol\":1614:1621  address */\n      0x00\n        /* \"contracts/Oracle.sol\":1639:1645  token0 */\n      immutable(\"0x272fee19618bddbc00febd3897af287776f225c94084e4d859902021d48f698c\")\n        /* \"contracts/Oracle.sol\":1632:1645  return token0 */\n      swap1\n      pop\n        /* \"contracts/Oracle.sol\":1572:1652  function getToken0() public view returns (address){... */\n      swap1\n      jump\t// out\n        /* \"contracts/Oracle.sol\":1392:1476  function getPair() public view returns(address){... */\n    tag_33:\n        /* \"contracts/Oracle.sol\":1431:1438  address */\n      0x00\n        /* \"contracts/Oracle.sol\":1464:1468  pair */\n      immutable(\"0xea994d2cc87c93e1ab72467e05b549102ec4527b08396c2914bbe3dd65320445\")\n        /* \"contracts/Oracle.sol\":1449:1469  return address(pair) */\n      swap1\n      pop\n        /* \"contracts/Oracle.sol\":1392:1476  function getPair() public view returns(address){... */\n      swap1\n      jump\t// out\n        /* \"contracts/Oracle.sol\":1354:1385  address public immutable token1 */\n    tag_35:\n      immutable(\"0x767071e1144097b0d9745bd1667c089e84a8eb72a91c7ca29fb1669a0afb2c57\")\n      dup2\n      jump\t// out\n        /* \"contracts/Oracle.sol\":3302:4560  function updateQuantities() external {... */\n    tag_37:\n        /* \"contracts/Oracle.sol\":3396:3397  0 */\n      0x00\n        /* \"contracts/Oracle.sol\":3362:3370  quantity */\n      0x05\n        /* \"contracts/Oracle.sol\":3362:3392  quantity.amount0CumulativeLast */\n      0x00\n      add\n      sload\n        /* \"contracts/Oracle.sol\":3362:3397  quantity.amount0CumulativeLast == 0 */\n      eq\n        /* \"contracts/Oracle.sol\":3358:4554  if (quantity.amount0CumulativeLast == 0){... */\n      iszero\n      tag_66\n      jumpi\n        /* \"contracts/Oracle.sol\":3445:3458  trackQuantity */\n      0x0a\n        /* \"contracts/Oracle.sol\":3445:3476  trackQuantity.amount0Cumulative */\n      0x00\n      add\n      sload\n        /* \"contracts/Oracle.sol\":3412:3420  quantity */\n      0x05\n        /* \"contracts/Oracle.sol\":3412:3442  quantity.amount0CumulativeLast */\n      0x00\n      add\n        /* \"contracts/Oracle.sol\":3412:3476  quantity.amount0CumulativeLast = trackQuantity.amount0Cumulative */\n      dup2\n      swap1\n      sstore\n      pop\n        /* \"contracts/Oracle.sol\":3523:3536  trackQuantity */\n      0x0a\n        /* \"contracts/Oracle.sol\":3523:3554  trackQuantity.amount1Cumulative */\n      0x01\n      add\n      sload\n        /* \"contracts/Oracle.sol\":3490:3498  quantity */\n      0x05\n        /* \"contracts/Oracle.sol\":3490:3520  quantity.amount1CumulativeLast */\n      0x01\n      add\n        /* \"contracts/Oracle.sol\":3490:3554  quantity.amount1CumulativeLast = trackQuantity.amount1Cumulative */\n      dup2\n      swap1\n      sstore\n      pop\n        /* \"contracts/Oracle.sol\":3598:3611  trackQuantity */\n      0x0a\n        /* \"contracts/Oracle.sol\":3598:3626  trackQuantity.blockTimestamp */\n      0x02\n      add\n      0x00\n      swap1\n      sload\n      swap1\n      0x0100\n      exp\n      swap1\n      div\n      0xffffffff\n      and\n        /* \"contracts/Oracle.sol\":3568:3576  quantity */\n      0x05\n        /* \"contracts/Oracle.sol\":3568:3595  quantity.blockTimestampLast */\n      0x02\n      add\n      0x00\n        /* \"contracts/Oracle.sol\":3568:3626  quantity.blockTimestampLast = trackQuantity.blockTimestamp */\n      0x0100\n      exp\n      dup2\n      sload\n      dup2\n      0xffffffff\n      mul\n      not\n      and\n      swap1\n      dup4\n      0xffffffff\n      and\n      mul\n      or\n      swap1\n      sstore\n      pop\n        /* \"contracts/Oracle.sol\":3358:4554  if (quantity.amount0CumulativeLast == 0){... */\n      jump(tag_67)\n    tag_66:\n        /* \"contracts/Oracle.sol\":3666:3684  uint32 timeElapsed */\n      0x00\n        /* \"contracts/Oracle.sol\":3718:3726  quantity */\n      0x05\n        /* \"contracts/Oracle.sol\":3718:3745  quantity.blockTimestampLast */\n      0x02\n      add\n      0x00\n      swap1\n      sload\n      swap1\n      0x0100\n      exp\n      swap1\n      div\n      0xffffffff\n      and\n        /* \"contracts/Oracle.sol\":3687:3700  trackQuantity */\n      0x0a\n        /* \"contracts/Oracle.sol\":3687:3715  trackQuantity.blockTimestamp */\n      0x02\n      add\n      0x00\n      swap1\n      sload\n      swap1\n      0x0100\n      exp\n      swap1\n      div\n      0xffffffff\n      and\n        /* \"contracts/Oracle.sol\":3687:3745  trackQuantity.blockTimestamp - quantity.blockTimestampLast */\n      sub\n        /* \"contracts/Oracle.sol\":3666:3745  uint32 timeElapsed = trackQuantity.blockTimestamp - quantity.blockTimestampLast */\n      swap1\n      pop\n        /* \"contracts/Oracle.sol\":1266:1268  10 */\n      0x0a\n        /* \"contracts/Oracle.sol\":3762:3773  timeElapsed */\n      dup2\n        /* \"contracts/Oracle.sol\":3762:3783  timeElapsed >= PERIOD */\n      0xffffffff\n      and\n      lt\n        /* \"contracts/Oracle.sol\":3759:4547  if(timeElapsed >= PERIOD) {... */\n      tag_68\n      jumpi\n        /* \"contracts/Oracle.sol\":3829:3978  FixedPoint.uq112x112(... */\n      mload(0x40)\n      dup1\n      0x20\n      add\n      0x40\n      mstore\n      dup1\n        /* \"contracts/Oracle.sol\":3948:3959  timeElapsed */\n      dup3\n        /* \"contracts/Oracle.sol\":3879:3959  (trackQuantity.amount0Cumulative - quantity.amount0CumulativeLast) / timeElapsed */\n      0xffffffff\n      and\n        /* \"contracts/Oracle.sol\":3914:3922  quantity */\n      0x05\n        /* \"contracts/Oracle.sol\":3914:3944  quantity.amount0CumulativeLast */\n      0x00\n      add\n      sload\n        /* \"contracts/Oracle.sol\":3880:3893  trackQuantity */\n      0x0a\n        /* \"contracts/Oracle.sol\":3880:3911  trackQuantity.amount0Cumulative */\n      0x00\n      add\n      sload\n        /* \"contracts/Oracle.sol\":3880:3944  trackQuantity.amount0Cumulative - quantity.amount0CumulativeLast */\n      sub\n        /* \"contracts/Oracle.sol\":3879:3959  (trackQuantity.amount0Cumulative - quantity.amount0CumulativeLast) / timeElapsed */\n      dup2\n      tag_69\n      jumpi\n      invalid\n    tag_69:\n      div\n        /* \"contracts/Oracle.sol\":3829:3978  FixedPoint.uq112x112(... */\n      0xffffffffffffffffffffffffffffffffffffffffffffffffffffffff\n      and\n      dup2\n      mstore\n      pop\n        /* \"contracts/Oracle.sol\":3803:3811  quantity */\n      0x05\n        /* \"contracts/Oracle.sol\":3803:3826  quantity.amount0Average */\n      0x03\n      add\n        /* \"contracts/Oracle.sol\":3803:3978  quantity.amount0Average = FixedPoint.uq112x112(... */\n      0x00\n      dup3\n      add\n      mload\n      dup2\n      0x00\n      add\n      exp(0x0100, 0x00)\n      dup2\n      sload\n      dup2\n      0xffffffffffffffffffffffffffffffffffffffffffffffffffffffff\n      mul\n      not\n      and\n      swap1\n      dup4\n      0xffffffffffffffffffffffffffffffffffffffffffffffffffffffff\n      and\n      mul\n      or\n      swap1\n      sstore\n      pop\n      swap1\n      pop\n      pop\n        /* \"contracts/Oracle.sol\":4022:4171  FixedPoint.uq112x112(... */\n      mload(0x40)\n      dup1\n      0x20\n      add\n      0x40\n      mstore\n      dup1\n        /* \"contracts/Oracle.sol\":4141:4152  timeElapsed */\n      dup3\n        /* \"contracts/Oracle.sol\":4072:4152  (trackQuantity.amount1Cumulative - quantity.amount1CumulativeLast) / timeElapsed */\n      0xffffffff\n      and\n        /* \"contracts/Oracle.sol\":4107:4115  quantity */\n      0x05\n        /* \"contracts/Oracle.sol\":4107:4137  quantity.amount1CumulativeLast */\n      0x01\n      add\n      sload\n        /* \"contracts/Oracle.sol\":4073:4086  trackQuantity */\n      0x0a\n        /* \"contracts/Oracle.sol\":4073:4104  trackQuantity.amount1Cumulative */\n      0x01\n      add\n      sload\n        /* \"contracts/Oracle.sol\":4073:4137  trackQuantity.amount1Cumulative - quantity.amount1CumulativeLast */\n      sub\n        /* \"contracts/Oracle.sol\":4072:4152  (trackQuantity.amount1Cumulative - quantity.amount1CumulativeLast) / timeElapsed */\n      dup2\n      tag_70\n      jumpi\n      invalid\n    tag_70:\n      div\n        /* \"contracts/Oracle.sol\":4022:4171  FixedPoint.uq112x112(... */\n      0xffffffffffffffffffffffffffffffffffffffffffffffffffffffff\n      and\n      dup2\n      mstore\n      pop\n        /* \"contracts/Oracle.sol\":3996:4004  quantity */\n      0x05\n        /* \"contracts/Oracle.sol\":3996:4019  quantity.amount1Average */\n      0x04\n      add\n        /* \"contracts/Oracle.sol\":3996:4171  quantity.amount1Average = FixedPoint.uq112x112(... */\n      0x00\n      dup3\n      add\n      mload\n      dup2\n      0x00\n      add\n      exp(0x0100, 0x00)\n      dup2\n      sload\n      dup2\n      0xffffffffffffffffffffffffffffffffffffffffffffffffffffffff\n      mul\n      not\n      and\n      swap1\n      dup4\n      0xffffffffffffffffffffffffffffffffffffffffffffffffffffffff\n      and\n      mul\n      or\n      swap1\n      sstore\n      pop\n      swap1\n      pop\n      pop\n        /* \"contracts/Oracle.sol\":4219:4232  trackQuantity */\n      0x0a\n        /* \"contracts/Oracle.sol\":4219:4250  trackQuantity.amount0Cumulative */\n      0x00\n      add\n      sload\n        /* \"contracts/Oracle.sol\":4186:4194  quantity */\n      0x05\n        /* \"contracts/Oracle.sol\":4186:4216  quantity.amount0CumulativeLast */\n      0x00\n      add\n        /* \"contracts/Oracle.sol\":4186:4250  quantity.amount0CumulativeLast = trackQuantity.amount0Cumulative */\n      dup2\n      swap1\n      sstore\n      pop\n        /* \"contracts/Oracle.sol\":4297:4310  trackQuantity */\n      0x0a\n        /* \"contracts/Oracle.sol\":4297:4328  trackQuantity.amount1Cumulative */\n      0x01\n      add\n      sload\n        /* \"contracts/Oracle.sol\":4264:4272  quantity */\n      0x05\n        /* \"contracts/Oracle.sol\":4264:4294  quantity.amount1CumulativeLast */\n      0x01\n      add\n        /* \"contracts/Oracle.sol\":4264:4328  quantity.amount1CumulativeLast = trackQuantity.amount1Cumulative */\n      dup2\n      swap1\n      sstore\n      pop\n        /* \"contracts/Oracle.sol\":4372:4385  trackQuantity */\n      0x0a\n        /* \"contracts/Oracle.sol\":4372:4400  trackQuantity.blockTimestamp */\n      0x02\n      add\n      0x00\n      swap1\n      sload\n      swap1\n      0x0100\n      exp\n      swap1\n      div\n      0xffffffff\n      and\n        /* \"contracts/Oracle.sol\":4342:4350  quantity */\n      0x05\n        /* \"contracts/Oracle.sol\":4342:4369  quantity.blockTimestampLast */\n      0x02\n      add\n      0x00\n        /* \"contracts/Oracle.sol\":4342:4400  quantity.blockTimestampLast = trackQuantity.blockTimestamp */\n      0x0100\n      exp\n      dup2\n      sload\n      dup2\n      0xffffffff\n      mul\n      not\n      and\n      swap1\n      dup4\n      0xffffffff\n      and\n      mul\n      or\n      swap1\n      sstore\n      pop\n        /* \"contracts/Oracle.sol\":4420:4446  Log (\"Quantities Updated\") */\n      0xcf34ef537ac33ee1ac626ca1587a0a7e8e51561e5514f8cb36afa1c5102b3bab\n      mload(0x40)\n      dup1\n      dup1\n      0x20\n      add\n      dup3\n      dup2\n      sub\n      dup3\n      mstore\n      0x12\n      dup2\n      mstore\n      0x20\n      add\n      dup1\n      0x5175616e74697469657320557064617465640000000000000000000000000000\n      dup2\n      mstore\n      pop\n      0x20\n      add\n      swap2\n      pop\n      pop\n      mload(0x40)\n      dup1\n      swap2\n      sub\n      swap1\n      log1\n        /* \"contracts/Oracle.sol\":3759:4547  if(timeElapsed >= PERIOD) {... */\n      jump(tag_71)\n    tag_68:\n        /* \"contracts/Oracle.sol\":4502:4532  Log (\"Quantities Not Updated\") */\n      0xcf34ef537ac33ee1ac626ca1587a0a7e8e51561e5514f8cb36afa1c5102b3bab\n      mload(0x40)\n      dup1\n      dup1\n      0x20\n      add\n      dup3\n      dup2\n      sub\n      dup3\n      mstore\n      0x16\n      dup2\n      mstore\n      0x20\n      add\n      dup1\n      0x5175616e746974696573204e6f74205570646174656400000000000000000000\n      dup2\n      mstore\n      pop\n      0x20\n      add\n      swap2\n      pop\n      pop\n      mload(0x40)\n      dup1\n      swap2\n      sub\n      swap1\n      log1\n        /* \"contracts/Oracle.sol\":3759:4547  if(timeElapsed >= PERIOD) {... */\n    tag_71:\n        /* \"contracts/Oracle.sol\":3358:4554  if (quantity.amount0CumulativeLast == 0){... */\n      pop\n    tag_67:\n        /* \"contracts/Oracle.sol\":3302:4560  function updateQuantities() external {... */\n      jump\t// out\n        /* \"@uniswap/lib/contracts/libraries/FixedPoint.sol\":1694:1931  function mul(uq112x112 memory self, uint256 y) internal pure returns (uq144x112 memory) {... */\n    tag_44:\n        /* \"@uniswap/lib/contracts/libraries/FixedPoint.sol\":1764:1780  uq144x112 memory */\n      tag_72\n      tag_73\n      jump\t// in\n    tag_72:\n        /* \"@uniswap/lib/contracts/libraries/FixedPoint.sol\":1792:1801  uint256 z */\n      0x00\n        /* \"@uniswap/lib/contracts/libraries/FixedPoint.sol\":1804:1805  0 */\n      dup1\n        /* \"@uniswap/lib/contracts/libraries/FixedPoint.sol\":1792:1805  uint256 z = 0 */\n      swap1\n      pop\n        /* \"@uniswap/lib/contracts/libraries/FixedPoint.sol\":1828:1829  0 */\n      0x00\n        /* \"@uniswap/lib/contracts/libraries/FixedPoint.sol\":1823:1824  y */\n      dup4\n        /* \"@uniswap/lib/contracts/libraries/FixedPoint.sol\":1823:1829  y == 0 */\n      eq\n        /* \"@uniswap/lib/contracts/libraries/FixedPoint.sol\":1823:1865  y == 0 || (z = self._x * y) / y == self._x */\n      dup1\n      tag_75\n      jumpi\n      pop\n        /* \"@uniswap/lib/contracts/libraries/FixedPoint.sol\":1858:1862  self */\n      dup4\n        /* \"@uniswap/lib/contracts/libraries/FixedPoint.sol\":1858:1865  self._x */\n      0x00\n      add\n      mload\n        /* \"@uniswap/lib/contracts/libraries/FixedPoint.sol\":1833:1865  (z = self._x * y) / y == self._x */\n      0xffffffffffffffffffffffffffffffffffffffffffffffffffffffff\n      and\n        /* \"@uniswap/lib/contracts/libraries/FixedPoint.sol\":1853:1854  y */\n      dup4\n        /* \"@uniswap/lib/contracts/libraries/FixedPoint.sol\":1848:1849  y */\n      dup5\n        /* \"@uniswap/lib/contracts/libraries/FixedPoint.sol\":1838:1842  self */\n      dup7\n        /* \"@uniswap/lib/contracts/libraries/FixedPoint.sol\":1838:1845  self._x */\n      0x00\n      add\n      mload\n        /* \"@uniswap/lib/contracts/libraries/FixedPoint.sol\":1838:1849  self._x * y */\n      0xffffffffffffffffffffffffffffffffffffffffffffffffffffffff\n      and\n      mul\n        /* \"@uniswap/lib/contracts/libraries/FixedPoint.sol\":1834:1849  z = self._x * y */\n      swap3\n      pop\n      dup3\n        /* \"@uniswap/lib/contracts/libraries/FixedPoint.sol\":1833:1854  (z = self._x * y) / y */\n      dup2\n      tag_76\n      jumpi\n      invalid\n    tag_76:\n      div\n        /* \"@uniswap/lib/contracts/libraries/FixedPoint.sol\":1833:1865  (z = self._x * y) / y == self._x */\n      eq\n        /* \"@uniswap/lib/contracts/libraries/FixedPoint.sol\":1823:1865  y == 0 || (z = self._x * y) / y == self._x */\n    tag_75:\n        /* \"@uniswap/lib/contracts/libraries/FixedPoint.sol\":1815:1895  require(y == 0 || (z = self._x * y) / y == self._x, 'FixedPoint::mul: overflow') */\n      tag_77\n      jumpi\n      mload(0x40)\n      0x08c379a000000000000000000000000000000000000000000000000000000000\n      dup2\n      mstore\n      0x04\n      add\n      dup1\n      dup1\n      0x20\n      add\n      dup3\n      dup2\n      sub\n      dup3\n      mstore\n      0x19\n      dup2\n      mstore\n      0x20\n      add\n      dup1\n      0x4669786564506f696e743a3a6d756c3a206f766572666c6f7700000000000000\n      dup2\n      mstore\n      pop\n      0x20\n      add\n      swap2\n      pop\n      pop\n      mload(0x40)\n      dup1\n      swap2\n      sub\n      swap1\n      revert\n    tag_77:\n        /* \"@uniswap/lib/contracts/libraries/FixedPoint.sol\":1912:1924  uq144x112(z) */\n      mload(0x40)\n      dup1\n      0x20\n      add\n      0x40\n      mstore\n      dup1\n        /* \"@uniswap/lib/contracts/libraries/FixedPoint.sol\":1922:1923  z */\n      dup3\n        /* \"@uniswap/lib/contracts/libraries/FixedPoint.sol\":1912:1924  uq144x112(z) */\n      dup2\n      mstore\n      pop\n        /* \"@uniswap/lib/contracts/libraries/FixedPoint.sol\":1905:1924  return uq144x112(z) */\n      swap2\n      pop\n      pop\n        /* \"@uniswap/lib/contracts/libraries/FixedPoint.sol\":1694:1931  function mul(uq112x112 memory self, uint256 y) internal pure returns (uq144x112 memory) {... */\n      swap3\n      swap2\n      pop\n      pop\n      jump\t// out\n        /* \"@uniswap/lib/contracts/libraries/FixedPoint.sol\":1472:1600  function decode144(uq144x112 memory self) internal pure returns (uint144) {... */\n    tag_45:\n        /* \"@uniswap/lib/contracts/libraries/FixedPoint.sol\":1537:1544  uint144 */\n      0x00\n        /* \"@uniswap/lib/contracts/libraries/FixedPoint.sol\":531:534  112 */\n      0x70\n        /* \"@uniswap/lib/contracts/libraries/FixedPoint.sol\":1571:1592  self._x >> RESOLUTION */\n      0xff\n      and\n        /* \"@uniswap/lib/contracts/libraries/FixedPoint.sol\":1571:1575  self */\n      dup3\n        /* \"@uniswap/lib/contracts/libraries/FixedPoint.sol\":1571:1578  self._x */\n      0x00\n      add\n      mload\n        /* \"@uniswap/lib/contracts/libraries/FixedPoint.sol\":1571:1592  self._x >> RESOLUTION */\n      swap1\n      shr\n        /* \"@uniswap/lib/contracts/libraries/FixedPoint.sol\":1556:1593  return uint144(self._x >> RESOLUTION) */\n      swap1\n      pop\n        /* \"@uniswap/lib/contracts/libraries/FixedPoint.sol\":1472:1600  function decode144(uq144x112 memory self) internal pure returns (uint144) {... */\n      swap2\n      swap1\n      pop\n      jump\t// out\n        /* \"@uniswap/v2-periphery/contracts/libraries/UniswapV2OracleLibrary.sol\":646:1686  function currentCumulativePrices(... */\n    tag_57:\n        /* \"@uniswap/v2-periphery/contracts/libraries/UniswapV2OracleLibrary.sol\":730:751  uint price0Cumulative */\n      0x00\n        /* \"@uniswap/v2-periphery/contracts/libraries/UniswapV2OracleLibrary.sol\":753:774  uint price1Cumulative */\n      dup1\n        /* \"@uniswap/v2-periphery/contracts/libraries/UniswapV2OracleLibrary.sol\":776:797  uint32 blockTimestamp */\n      0x00\n        /* \"@uniswap/v2-periphery/contracts/libraries/UniswapV2OracleLibrary.sol\":826:849  currentBlockTimestamp() */\n      tag_80\n        /* \"@uniswap/v2-periphery/contracts/libraries/UniswapV2OracleLibrary.sol\":826:847  currentBlockTimestamp */\n      tag_81\n        /* \"@uniswap/v2-periphery/contracts/libraries/UniswapV2OracleLibrary.sol\":826:849  currentBlockTimestamp() */\n      jump\t// in\n    tag_80:\n        /* \"@uniswap/v2-periphery/contracts/libraries/UniswapV2OracleLibrary.sol\":809:849  blockTimestamp = currentBlockTimestamp() */\n      swap1\n      pop\n        /* \"@uniswap/v2-periphery/contracts/libraries/UniswapV2OracleLibrary.sol\":893:897  pair */\n      dup4\n        /* \"@uniswap/v2-periphery/contracts/libraries/UniswapV2OracleLibrary.sol\":878:919  IUniswapV2Pair(pair).price0CumulativeLast */\n      0xffffffffffffffffffffffffffffffffffffffff\n      and\n      0x5909c0d5\n        /* \"@uniswap/v2-periphery/contracts/libraries/UniswapV2OracleLibrary.sol\":878:921  IUniswapV2Pair(pair).price0CumulativeLast() */\n      mload(0x40)\n      dup2\n      0xffffffff\n      and\n      0xe0\n      shl\n      dup2\n      mstore\n      0x04\n      add\n      0x20\n      mload(0x40)\n      dup1\n      dup4\n      sub\n      dup2\n      dup7\n      dup1\n      extcodesize\n      iszero\n        /* \"--CODEGEN--\":5:14   */\n      dup1\n        /* \"--CODEGEN--\":2:4   */\n      iszero\n      tag_82\n      jumpi\n        /* \"--CODEGEN--\":27:28   */\n      0x00\n        /* \"--CODEGEN--\":24:25   */\n      dup1\n        /* \"--CODEGEN--\":17:29   */\n      revert\n        /* \"--CODEGEN--\":2:4   */\n    tag_82:\n        /* \"@uniswap/v2-periphery/contracts/libraries/UniswapV2OracleLibrary.sol\":878:921  IUniswapV2Pair(pair).price0CumulativeLast() */\n      pop\n      gas\n      staticcall\n      iszero\n        /* \"--CODEGEN--\":8:17   */\n      dup1\n        /* \"--CODEGEN--\":5:7   */\n      iszero\n      tag_84\n      jumpi\n        /* \"--CODEGEN--\":45:61   */\n      returndatasize\n        /* \"--CODEGEN--\":42:43   */\n      0x00\n        /* \"--CODEGEN--\":39:40   */\n      dup1\n        /* \"--CODEGEN--\":24:62   */\n      returndatacopy\n        /* \"--CODEGEN--\":77:93   */\n      returndatasize\n        /* \"--CODEGEN--\":74:75   */\n      0x00\n        /* \"--CODEGEN--\":67:94   */\n      revert\n        /* \"--CODEGEN--\":5:7   */\n    tag_84:\n        /* \"@uniswap/v2-periphery/contracts/libraries/UniswapV2OracleLibrary.sol\":878:921  IUniswapV2Pair(pair).price0CumulativeLast() */\n      pop\n      pop\n      pop\n      pop\n      mload(0x40)\n      returndatasize\n        /* \"--CODEGEN--\":15:17   */\n      0x20\n        /* \"--CODEGEN--\":10:13   */\n      dup2\n        /* \"--CODEGEN--\":7:18   */\n      lt\n        /* \"--CODEGEN--\":4:6   */\n      iszero\n      tag_85\n      jumpi\n        /* \"--CODEGEN--\":31:32   */\n      0x00\n        /* \"--CODEGEN--\":28:29   */\n      dup1\n        /* \"--CODEGEN--\":21:33   */\n      revert\n        /* \"--CODEGEN--\":4:6   */\n    tag_85:\n        /* \"@uniswap/v2-periphery/contracts/libraries/UniswapV2OracleLibrary.sol\":878:921  IUniswapV2Pair(pair).price0CumulativeLast() */\n      dup2\n      add\n      swap1\n      dup1\n      dup1\n      mload\n      swap1\n      0x20\n      add\n      swap1\n      swap3\n      swap2\n      swap1\n      pop\n      pop\n      pop\n        /* \"@uniswap/v2-periphery/contracts/libraries/UniswapV2OracleLibrary.sol\":859:921  price0Cumulative = IUniswapV2Pair(pair).price0CumulativeLast() */\n      swap3\n      pop\n        /* \"@uniswap/v2-periphery/contracts/libraries/UniswapV2OracleLibrary.sol\":965:969  pair */\n      dup4\n        /* \"@uniswap/v2-periphery/contracts/libraries/UniswapV2OracleLibrary.sol\":950:991  IUniswapV2Pair(pair).price1CumulativeLast */\n      0xffffffffffffffffffffffffffffffffffffffff\n      and\n      0x5a3d5493\n        /* \"@uniswap/v2-periphery/contracts/libraries/UniswapV2OracleLibrary.sol\":950:993  IUniswapV2Pair(pair).price1CumulativeLast() */\n      mload(0x40)\n      dup2\n      0xffffffff\n      and\n      0xe0\n      shl\n      dup2\n      mstore\n      0x04\n      add\n      0x20\n      mload(0x40)\n      dup1\n      dup4\n      sub\n      dup2\n      dup7\n      dup1\n      extcodesize\n      iszero\n        /* \"--CODEGEN--\":5:14   */\n      dup1\n        /* \"--CODEGEN--\":2:4   */\n      iszero\n      tag_86\n      jumpi\n        /* \"--CODEGEN--\":27:28   */\n      0x00\n        /* \"--CODEGEN--\":24:25   */\n      dup1\n        /* \"--CODEGEN--\":17:29   */\n      revert\n        /* \"--CODEGEN--\":2:4   */\n    tag_86:\n        /* \"@uniswap/v2-periphery/contracts/libraries/UniswapV2OracleLibrary.sol\":950:993  IUniswapV2Pair(pair).price1CumulativeLast() */\n      pop\n      gas\n      staticcall\n      iszero\n        /* \"--CODEGEN--\":8:17   */\n      dup1\n        /* \"--CODEGEN--\":5:7   */\n      iszero\n      tag_88\n      jumpi\n        /* \"--CODEGEN--\":45:61   */\n      returndatasize\n        /* \"--CODEGEN--\":42:43   */\n      0x00\n        /* \"--CODEGEN--\":39:40   */\n      dup1\n        /* \"--CODEGEN--\":24:62   */\n      returndatacopy\n        /* \"--CODEGEN--\":77:93   */\n      returndatasize\n        /* \"--CODEGEN--\":74:75   */\n      0x00\n        /* \"--CODEGEN--\":67:94   */\n      revert\n        /* \"--CODEGEN--\":5:7   */\n    tag_88:\n        /* \"@uniswap/v2-periphery/contracts/libraries/UniswapV2OracleLibrary.sol\":950:993  IUniswapV2Pair(pair).price1CumulativeLast() */\n      pop\n      pop\n      pop\n      pop\n      mload(0x40)\n      returndatasize\n        /* \"--CODEGEN--\":15:17   */\n      0x20\n        /* \"--CODEGEN--\":10:13   */\n      dup2\n        /* \"--CODEGEN--\":7:18   */\n      lt\n        /* \"--CODEGEN--\":4:6   */\n      iszero\n      tag_89\n      jumpi\n        /* \"--CODEGEN--\":31:32   */\n      0x00\n        /* \"--CODEGEN--\":28:29   */\n      dup1\n        /* \"--CODEGEN--\":21:33   */\n      revert\n        /* \"--CODEGEN--\":4:6   */\n    tag_89:\n        /* \"@uniswap/v2-periphery/contracts/libraries/UniswapV2OracleLibrary.sol\":950:993  IUniswapV2Pair(pair).price1CumulativeLast() */\n      dup2\n      add\n      swap1\n      dup1\n      dup1\n      mload\n      swap1\n      0x20\n      add\n      swap1\n      swap3\n      swap2\n      swap1\n      pop\n      pop\n      pop\n        /* \"@uniswap/v2-periphery/contracts/libraries/UniswapV2OracleLibrary.sol\":931:993  price1Cumulative = IUniswapV2Pair(pair).price1CumulativeLast() */\n      swap2\n      pop\n        /* \"@uniswap/v2-periphery/contracts/libraries/UniswapV2OracleLibrary.sol\":1105:1121  uint112 reserve0 */\n      0x00\n        /* \"@uniswap/v2-periphery/contracts/libraries/UniswapV2OracleLibrary.sol\":1123:1139  uint112 reserve1 */\n      dup1\n        /* \"@uniswap/v2-periphery/contracts/libraries/UniswapV2OracleLibrary.sol\":1141:1166  uint32 blockTimestampLast */\n      0x00\n        /* \"@uniswap/v2-periphery/contracts/libraries/UniswapV2OracleLibrary.sol\":1185:1189  pair */\n      dup7\n        /* \"@uniswap/v2-periphery/contracts/libraries/UniswapV2OracleLibrary.sol\":1170:1202  IUniswapV2Pair(pair).getReserves */\n      0xffffffffffffffffffffffffffffffffffffffff\n      and\n      0x0902f1ac\n        /* \"@uniswap/v2-periphery/contracts/libraries/UniswapV2OracleLibrary.sol\":1170:1204  IUniswapV2Pair(pair).getReserves() */\n      mload(0x40)\n      dup2\n      0xffffffff\n      and\n      0xe0\n      shl\n      dup2\n      mstore\n      0x04\n      add\n      0x60\n      mload(0x40)\n      dup1\n      dup4\n      sub\n      dup2\n      dup7\n      dup1\n      extcodesize\n      iszero\n        /* \"--CODEGEN--\":5:14   */\n      dup1\n        /* \"--CODEGEN--\":2:4   */\n      iszero\n      tag_90\n      jumpi\n        /* \"--CODEGEN--\":27:28   */\n      0x00\n        /* \"--CODEGEN--\":24:25   */\n      dup1\n        /* \"--CODEGEN--\":17:29   */\n      revert\n        /* \"--CODEGEN--\":2:4   */\n    tag_90:\n        /* \"@uniswap/v2-periphery/contracts/libraries/UniswapV2OracleLibrary.sol\":1170:1204  IUniswapV2Pair(pair).getReserves() */\n      pop\n      gas\n      staticcall\n      iszero\n        /* \"--CODEGEN--\":8:17   */\n      dup1\n        /* \"--CODEGEN--\":5:7   */\n      iszero\n      tag_92\n      jumpi\n        /* \"--CODEGEN--\":45:61   */\n      returndatasize\n        /* \"--CODEGEN--\":42:43   */\n      0x00\n        /* \"--CODEGEN--\":39:40   */\n      dup1\n        /* \"--CODEGEN--\":24:62   */\n      returndatacopy\n        /* \"--CODEGEN--\":77:93   */\n      returndatasize\n        /* \"--CODEGEN--\":74:75   */\n      0x00\n        /* \"--CODEGEN--\":67:94   */\n      revert\n        /* \"--CODEGEN--\":5:7   */\n    tag_92:\n        /* \"@uniswap/v2-periphery/contracts/libraries/UniswapV2OracleLibrary.sol\":1170:1204  IUniswapV2Pair(pair).getReserves() */\n      pop\n      pop\n      pop\n      pop\n      mload(0x40)\n      returndatasize\n        /* \"--CODEGEN--\":15:17   */\n      0x60\n        /* \"--CODEGEN--\":10:13   */\n      dup2\n        /* \"--CODEGEN--\":7:18   */\n      lt\n        /* \"--CODEGEN--\":4:6   */\n      iszero\n      tag_93\n      jumpi\n        /* \"--CODEGEN--\":31:32   */\n      0x00\n        /* \"--CODEGEN--\":28:29   */\n      dup1\n        /* \"--CODEGEN--\":21:33   */\n      revert\n        /* \"--CODEGEN--\":4:6   */\n    tag_93:\n        /* \"@uniswap/v2-periphery/contracts/libraries/UniswapV2OracleLibrary.sol\":1170:1204  IUniswapV2Pair(pair).getReserves() */\n      dup2\n      add\n      swap1\n      dup1\n      dup1\n      mload\n      swap1\n      0x20\n      add\n      swap1\n      swap3\n      swap2\n      swap1\n      dup1\n      mload\n      swap1\n      0x20\n      add\n      swap1\n      swap3\n      swap2\n      swap1\n      dup1\n      mload\n      swap1\n      0x20\n      add\n      swap1\n      swap3\n      swap2\n      swap1\n      pop\n      pop\n      pop\n        /* \"@uniswap/v2-periphery/contracts/libraries/UniswapV2OracleLibrary.sol\":1104:1204  (uint112 reserve0, uint112 reserve1, uint32 blockTimestampLast) = IUniswapV2Pair(pair).getReserves() */\n      swap3\n      pop\n      swap3\n      pop\n      swap3\n      pop\n        /* \"@uniswap/v2-periphery/contracts/libraries/UniswapV2OracleLibrary.sol\":1240:1254  blockTimestamp */\n      dup4\n        /* \"@uniswap/v2-periphery/contracts/libraries/UniswapV2OracleLibrary.sol\":1218:1254  blockTimestampLast != blockTimestamp */\n      0xffffffff\n      and\n        /* \"@uniswap/v2-periphery/contracts/libraries/UniswapV2OracleLibrary.sol\":1218:1236  blockTimestampLast */\n      dup2\n        /* \"@uniswap/v2-periphery/contracts/libraries/UniswapV2OracleLibrary.sol\":1218:1254  blockTimestampLast != blockTimestamp */\n      0xffffffff\n      and\n      eq\n        /* \"@uniswap/v2-periphery/contracts/libraries/UniswapV2OracleLibrary.sol\":1214:1680  if (blockTimestampLast != blockTimestamp) {... */\n      tag_94\n      jumpi\n        /* \"@uniswap/v2-periphery/contracts/libraries/UniswapV2OracleLibrary.sol\":1317:1335  uint32 timeElapsed */\n      0x00\n        /* \"@uniswap/v2-periphery/contracts/libraries/UniswapV2OracleLibrary.sol\":1355:1373  blockTimestampLast */\n      dup2\n        /* \"@uniswap/v2-periphery/contracts/libraries/UniswapV2OracleLibrary.sol\":1338:1352  blockTimestamp */\n      dup6\n        /* \"@uniswap/v2-periphery/contracts/libraries/UniswapV2OracleLibrary.sol\":1338:1373  blockTimestamp - blockTimestampLast */\n      sub\n        /* \"@uniswap/v2-periphery/contracts/libraries/UniswapV2OracleLibrary.sol\":1317:1373  uint32 timeElapsed = blockTimestamp - blockTimestampLast */\n      swap1\n      pop\n        /* \"@uniswap/v2-periphery/contracts/libraries/UniswapV2OracleLibrary.sol\":1532:1543  timeElapsed */\n      dup1\n        /* \"@uniswap/v2-periphery/contracts/libraries/UniswapV2OracleLibrary.sol\":1481:1543  uint(FixedPoint.fraction(reserve1, reserve0)._x) * timeElapsed */\n      0xffffffff\n      and\n        /* \"@uniswap/v2-periphery/contracts/libraries/UniswapV2OracleLibrary.sol\":1486:1525  FixedPoint.fraction(reserve1, reserve0) */\n      tag_95\n        /* \"@uniswap/v2-periphery/contracts/libraries/UniswapV2OracleLibrary.sol\":1506:1514  reserve1 */\n      dup5\n        /* \"@uniswap/v2-periphery/contracts/libraries/UniswapV2OracleLibrary.sol\":1486:1525  FixedPoint.fraction(reserve1, reserve0) */\n      0xffffffffffffffffffffffffffff\n      and\n        /* \"@uniswap/v2-periphery/contracts/libraries/UniswapV2OracleLibrary.sol\":1516:1524  reserve0 */\n      dup7\n        /* \"@uniswap/v2-periphery/contracts/libraries/UniswapV2OracleLibrary.sol\":1486:1525  FixedPoint.fraction(reserve1, reserve0) */\n      0xffffffffffffffffffffffffffff\n      and\n        /* \"@uniswap/v2-periphery/contracts/libraries/UniswapV2OracleLibrary.sol\":1486:1505  FixedPoint.fraction */\n      tag_96\n        /* \"@uniswap/v2-periphery/contracts/libraries/UniswapV2OracleLibrary.sol\":1486:1525  FixedPoint.fraction(reserve1, reserve0) */\n      jump\t// in\n    tag_95:\n        /* \"@uniswap/v2-periphery/contracts/libraries/UniswapV2OracleLibrary.sol\":1486:1528  FixedPoint.fraction(reserve1, reserve0)._x */\n      0x00\n      add\n      mload\n        /* \"@uniswap/v2-periphery/contracts/libraries/UniswapV2OracleLibrary.sol\":1481:1529  uint(FixedPoint.fraction(reserve1, reserve0)._x) */\n      0xffffffffffffffffffffffffffffffffffffffffffffffffffffffff\n      and\n        /* \"@uniswap/v2-periphery/contracts/libraries/UniswapV2OracleLibrary.sol\":1481:1543  uint(FixedPoint.fraction(reserve1, reserve0)._x) * timeElapsed */\n      mul\n        /* \"@uniswap/v2-periphery/contracts/libraries/UniswapV2OracleLibrary.sol\":1461:1543  price0Cumulative += uint(FixedPoint.fraction(reserve1, reserve0)._x) * timeElapsed */\n      dup8\n      add\n      swap7\n      pop\n        /* \"@uniswap/v2-periphery/contracts/libraries/UniswapV2OracleLibrary.sol\":1658:1669  timeElapsed */\n      dup1\n        /* \"@uniswap/v2-periphery/contracts/libraries/UniswapV2OracleLibrary.sol\":1607:1669  uint(FixedPoint.fraction(reserve0, reserve1)._x) * timeElapsed */\n      0xffffffff\n      and\n        /* \"@uniswap/v2-periphery/contracts/libraries/UniswapV2OracleLibrary.sol\":1612:1651  FixedPoint.fraction(reserve0, reserve1) */\n      tag_97\n        /* \"@uniswap/v2-periphery/contracts/libraries/UniswapV2OracleLibrary.sol\":1632:1640  reserve0 */\n      dup6\n        /* \"@uniswap/v2-periphery/contracts/libraries/UniswapV2OracleLibrary.sol\":1612:1651  FixedPoint.fraction(reserve0, reserve1) */\n      0xffffffffffffffffffffffffffff\n      and\n        /* \"@uniswap/v2-periphery/contracts/libraries/UniswapV2OracleLibrary.sol\":1642:1650  reserve1 */\n      dup6\n        /* \"@uniswap/v2-periphery/contracts/libraries/UniswapV2OracleLibrary.sol\":1612:1651  FixedPoint.fraction(reserve0, reserve1) */\n      0xffffffffffffffffffffffffffff\n      and\n        /* \"@uniswap/v2-periphery/contracts/libraries/UniswapV2OracleLibrary.sol\":1612:1631  FixedPoint.fraction */\n      tag_96\n        /* \"@uniswap/v2-periphery/contracts/libraries/UniswapV2OracleLibrary.sol\":1612:1651  FixedPoint.fraction(reserve0, reserve1) */\n      jump\t// in\n    tag_97:\n        /* \"@uniswap/v2-periphery/contracts/libraries/UniswapV2OracleLibrary.sol\":1612:1654  FixedPoint.fraction(reserve0, reserve1)._x */\n      0x00\n      add\n      mload\n        /* \"@uniswap/v2-periphery/contracts/libraries/UniswapV2OracleLibrary.sol\":1607:1655  uint(FixedPoint.fraction(reserve0, reserve1)._x) */\n      0xffffffffffffffffffffffffffffffffffffffffffffffffffffffff\n      and\n        /* \"@uniswap/v2-periphery/contracts/libraries/UniswapV2OracleLibrary.sol\":1607:1669  uint(FixedPoint.fraction(reserve0, reserve1)._x) * timeElapsed */\n      mul\n        /* \"@uniswap/v2-periphery/contracts/libraries/UniswapV2OracleLibrary.sol\":1587:1669  price1Cumulative += uint(FixedPoint.fraction(reserve0, reserve1)._x) * timeElapsed */\n      dup7\n      add\n      swap6\n      pop\n        /* \"@uniswap/v2-periphery/contracts/libraries/UniswapV2OracleLibrary.sol\":1214:1680  if (blockTimestampLast != blockTimestamp) {... */\n      pop\n    tag_94:\n        /* \"@uniswap/v2-periphery/contracts/libraries/UniswapV2OracleLibrary.sol\":646:1686  function currentCumulativePrices(... */\n      pop\n      pop\n      pop\n      swap2\n      swap4\n      swap1\n      swap3\n      pop\n      jump\t// out\n        /* \"@uniswap/v2-periphery/contracts/libraries/UniswapV2OracleLibrary.sol\":422:543  function currentBlockTimestamp() internal view returns (uint32) {... */\n    tag_81:\n        /* \"@uniswap/v2-periphery/contracts/libraries/UniswapV2OracleLibrary.sol\":478:484  uint32 */\n      0x00\n        /* \"@uniswap/v2-periphery/contracts/libraries/UniswapV2OracleLibrary.sol\":528:535  2 ** 32 */\n      0x0100000000\n        /* \"@uniswap/v2-periphery/contracts/libraries/UniswapV2OracleLibrary.sol\":510:525  block.timestamp */\n      timestamp\n        /* \"@uniswap/v2-periphery/contracts/libraries/UniswapV2OracleLibrary.sol\":510:535  block.timestamp % 2 ** 32 */\n      dup2\n      tag_99\n      jumpi\n      invalid\n    tag_99:\n      mod\n        /* \"@uniswap/v2-periphery/contracts/libraries/UniswapV2OracleLibrary.sol\":496:536  return uint32(block.timestamp % 2 ** 32) */\n      swap1\n      pop\n        /* \"@uniswap/v2-periphery/contracts/libraries/UniswapV2OracleLibrary.sol\":422:543  function currentBlockTimestamp() internal view returns (uint32) {... */\n      swap1\n      jump\t// out\n        /* \"@uniswap/lib/contracts/libraries/FixedPoint.sol\":4526:5232  function fraction(uint256 numerator, uint256 denominator) internal pure returns (uq112x112 memory) {... */\n    tag_96:\n        /* \"@uniswap/lib/contracts/libraries/FixedPoint.sol\":4607:4623  uq112x112 memory */\n      tag_100\n      tag_101\n      jump\t// in\n    tag_100:\n        /* \"@uniswap/lib/contracts/libraries/FixedPoint.sol\":4657:4658  0 */\n      0x00\n        /* \"@uniswap/lib/contracts/libraries/FixedPoint.sol\":4643:4654  denominator */\n      dup3\n        /* \"@uniswap/lib/contracts/libraries/FixedPoint.sol\":4643:4658  denominator > 0 */\n      gt\n        /* \"@uniswap/lib/contracts/libraries/FixedPoint.sol\":4635:4701  require(denominator > 0, 'FixedPoint::fraction: division by zero') */\n      tag_103\n      jumpi\n      mload(0x40)\n      0x08c379a000000000000000000000000000000000000000000000000000000000\n      dup2\n      mstore\n      0x04\n      add\n      dup1\n      dup1\n      0x20\n      add\n      dup3\n      dup2\n      sub\n      dup3\n      mstore\n      0x26\n      dup2\n      mstore\n      0x20\n      add\n      dup1\n      data_5e8a6c8dfacd0a41f2501735d8ee26d996b9e7e81ff5467dfdfd11a3728a15e7\n      0x26\n      swap2\n      codecopy\n      0x40\n      add\n      swap2\n      pop\n      pop\n      mload(0x40)\n      dup1\n      swap2\n      sub\n      swap1\n      revert\n    tag_103:\n        /* \"@uniswap/lib/contracts/libraries/FixedPoint.sol\":4728:4729  0 */\n      0x00\n        /* \"@uniswap/lib/contracts/libraries/FixedPoint.sol\":4715:4724  numerator */\n      dup4\n        /* \"@uniswap/lib/contracts/libraries/FixedPoint.sol\":4715:4729  numerator == 0 */\n      eq\n        /* \"@uniswap/lib/contracts/libraries/FixedPoint.sol\":4711:4761  if (numerator == 0) return FixedPoint.uq112x112(0) */\n      iszero\n      tag_104\n      jumpi\n        /* \"@uniswap/lib/contracts/libraries/FixedPoint.sol\":4738:4761  FixedPoint.uq112x112(0) */\n      mload(0x40)\n      dup1\n      0x20\n      add\n      0x40\n      mstore\n      dup1\n        /* \"@uniswap/lib/contracts/libraries/FixedPoint.sol\":4759:4760  0 */\n      0x00\n        /* \"@uniswap/lib/contracts/libraries/FixedPoint.sol\":4738:4761  FixedPoint.uq112x112(0) */\n      0xffffffffffffffffffffffffffffffffffffffffffffffffffffffff\n      and\n      dup2\n      mstore\n      pop\n        /* \"@uniswap/lib/contracts/libraries/FixedPoint.sol\":4731:4761  return FixedPoint.uq112x112(0) */\n      swap1\n      pop\n      jump(tag_102)\n        /* \"@uniswap/lib/contracts/libraries/FixedPoint.sol\":4711:4761  if (numerator == 0) return FixedPoint.uq112x112(0) */\n    tag_104:\n        /* \"@uniswap/lib/contracts/libraries/FixedPoint.sol\":4797:4799  -1 */\n      0xffffffffffffffffffffffffffffffffffffffffffffffffffffffffffffffff\n        /* \"@uniswap/lib/contracts/libraries/FixedPoint.sol\":4776:4800  numerator <= uint144(-1) */\n      0xffffffffffffffffffffffffffffffffffff\n      and\n        /* \"@uniswap/lib/contracts/libraries/FixedPoint.sol\":4776:4785  numerator */\n      dup4\n        /* \"@uniswap/lib/contracts/libraries/FixedPoint.sol\":4776:4800  numerator <= uint144(-1) */\n      gt\n        /* \"@uniswap/lib/contracts/libraries/FixedPoint.sol\":4772:5226  if (numerator <= uint144(-1)) {... */\n      tag_105\n      jumpi\n        /* \"@uniswap/lib/contracts/libraries/FixedPoint.sol\":4816:4830  uint256 result */\n      0x00\n        /* \"@uniswap/lib/contracts/libraries/FixedPoint.sol\":4861:4872  denominator */\n      dup3\n        /* \"@uniswap/lib/contracts/libraries/FixedPoint.sol\":531:534  112 */\n      0x70\n        /* \"@uniswap/lib/contracts/libraries/FixedPoint.sol\":4834:4857  numerator << RESOLUTION */\n      0xff\n      and\n        /* \"@uniswap/lib/contracts/libraries/FixedPoint.sol\":4834:4843  numerator */\n      dup6\n        /* \"@uniswap/lib/contracts/libraries/FixedPoint.sol\":4834:4857  numerator << RESOLUTION */\n      swap1\n      shl\n        /* \"@uniswap/lib/contracts/libraries/FixedPoint.sol\":4833:4872  (numerator << RESOLUTION) / denominator */\n      dup2\n      tag_106\n      jumpi\n      invalid\n    tag_106:\n      div\n        /* \"@uniswap/lib/contracts/libraries/FixedPoint.sol\":4816:4872  uint256 result = (numerator << RESOLUTION) / denominator */\n      swap1\n      pop\n        /* \"@uniswap/lib/contracts/libraries/FixedPoint.sol\":4912:4914  -1 */\n      0xffffffffffffffffffffffffffffffffffffffffffffffffffffffffffffffff\n        /* \"@uniswap/lib/contracts/libraries/FixedPoint.sol\":4894:4915  result <= uint224(-1) */\n      0xffffffffffffffffffffffffffffffffffffffffffffffffffffffff\n      and\n        /* \"@uniswap/lib/contracts/libraries/FixedPoint.sol\":4894:4900  result */\n      dup2\n        /* \"@uniswap/lib/contracts/libraries/FixedPoint.sol\":4894:4915  result <= uint224(-1) */\n      gt\n      iszero\n        /* \"@uniswap/lib/contracts/libraries/FixedPoint.sol\":4886:4950  require(result <= uint224(-1), 'FixedPoint::fraction: overflow') */\n      tag_107\n      jumpi\n      mload(0x40)\n      0x08c379a000000000000000000000000000000000000000000000000000000000\n      dup2\n      mstore\n      0x04\n      add\n      dup1\n      dup1\n      0x20\n      add\n      dup3\n      dup2\n      sub\n      dup3\n      mstore\n      0x1e\n      dup2\n      mstore\n      0x20\n      add\n      dup1\n      0x4669786564506f696e743a3a6672616374696f6e3a206f766572666c6f770000\n      dup2\n      mstore\n      pop\n      0x20\n      add\n      swap2\n      pop\n      pop\n      mload(0x40)\n      dup1\n      swap2\n      sub\n      swap1\n      revert\n    tag_107:\n        /* \"@uniswap/lib/contracts/libraries/FixedPoint.sol\":4971:4997  uq112x112(uint224(result)) */\n      mload(0x40)\n      dup1\n      0x20\n      add\n      0x40\n      mstore\n      dup1\n        /* \"@uniswap/lib/contracts/libraries/FixedPoint.sol\":4989:4995  result */\n      dup3\n        /* \"@uniswap/lib/contracts/libraries/FixedPoint.sol\":4971:4997  uq112x112(uint224(result)) */\n      0xffffffffffffffffffffffffffffffffffffffffffffffffffffffff\n      and\n      dup2\n      mstore\n      pop\n        /* \"@uniswap/lib/contracts/libraries/FixedPoint.sol\":4964:4997  return uq112x112(uint224(result)) */\n      swap2\n      pop\n      pop\n      jump(tag_102)\n        /* \"@uniswap/lib/contracts/libraries/FixedPoint.sol\":4772:5226  if (numerator <= uint144(-1)) {... */\n    tag_105:\n        /* \"@uniswap/lib/contracts/libraries/FixedPoint.sol\":5028:5042  uint256 result */\n      0x00\n        /* \"@uniswap/lib/contracts/libraries/FixedPoint.sol\":5045:5090  FullMath.mulDiv(numerator, Q112, denominator) */\n      tag_109\n        /* \"@uniswap/lib/contracts/libraries/FixedPoint.sol\":5061:5070  numerator */\n      dup5\n        /* \"@uniswap/lib/contracts/libraries/FixedPoint.sol\":571:602  0x10000000000000000000000000000 */\n      0x010000000000000000000000000000\n        /* \"@uniswap/lib/contracts/libraries/FixedPoint.sol\":5078:5089  denominator */\n      dup6\n        /* \"@uniswap/lib/contracts/libraries/FixedPoint.sol\":5045:5060  FullMath.mulDiv */\n      tag_110\n        /* \"@uniswap/lib/contracts/libraries/FixedPoint.sol\":5045:5090  FullMath.mulDiv(numerator, Q112, denominator) */\n      jump\t// in\n    tag_109:\n        /* \"@uniswap/lib/contracts/libraries/FixedPoint.sol\":5028:5090  uint256 result = FullMath.mulDiv(numerator, Q112, denominator) */\n      swap1\n      pop\n        /* \"@uniswap/lib/contracts/libraries/FixedPoint.sol\":5130:5132  -1 */\n      0xffffffffffffffffffffffffffffffffffffffffffffffffffffffffffffffff\n        /* \"@uniswap/lib/contracts/libraries/FixedPoint.sol\":5112:5133  result <= uint224(-1) */\n      0xffffffffffffffffffffffffffffffffffffffffffffffffffffffff\n      and\n        /* \"@uniswap/lib/contracts/libraries/FixedPoint.sol\":5112:5118  result */\n      dup2\n        /* \"@uniswap/lib/contracts/libraries/FixedPoint.sol\":5112:5133  result <= uint224(-1) */\n      gt\n      iszero\n        /* \"@uniswap/lib/contracts/libraries/FixedPoint.sol\":5104:5168  require(result <= uint224(-1), 'FixedPoint::fraction: overflow') */\n      tag_111\n      jumpi\n      mload(0x40)\n      0x08c379a000000000000000000000000000000000000000000000000000000000\n      dup2\n      mstore\n      0x04\n      add\n      dup1\n      dup1\n      0x20\n      add\n      dup3\n      dup2\n      sub\n      dup3\n      mstore\n      0x1e\n      dup2\n      mstore\n      0x20\n      add\n      dup1\n      0x4669786564506f696e743a3a6672616374696f6e3a206f766572666c6f770000\n      dup2\n      mstore\n      pop\n      0x20\n      add\n      swap2\n      pop\n      pop\n      mload(0x40)\n      dup1\n      swap2\n      sub\n      swap1\n      revert\n    tag_111:\n        /* \"@uniswap/lib/contracts/libraries/FixedPoint.sol\":5189:5215  uq112x112(uint224(result)) */\n      mload(0x40)\n      dup1\n      0x20\n      add\n      0x40\n      mstore\n      dup1\n        /* \"@uniswap/lib/contracts/libraries/FixedPoint.sol\":5207:5213  result */\n      dup3\n        /* \"@uniswap/lib/contracts/libraries/FixedPoint.sol\":5189:5215  uq112x112(uint224(result)) */\n      0xffffffffffffffffffffffffffffffffffffffffffffffffffffffff\n      and\n      dup2\n      mstore\n      pop\n        /* \"@uniswap/lib/contracts/libraries/FixedPoint.sol\":5182:5215  return uq112x112(uint224(result)) */\n      swap2\n      pop\n      pop\n        /* \"@uniswap/lib/contracts/libraries/FixedPoint.sol\":4526:5232  function fraction(uint256 numerator, uint256 denominator) internal pure returns (uq112x112 memory) {... */\n    tag_102:\n      swap3\n      swap2\n      pop\n      pop\n      jump\t// out\n        /* \"@uniswap/lib/contracts/libraries/FullMath.sol\":897:1270  function mulDiv(... */\n    tag_110:\n        /* \"@uniswap/lib/contracts/libraries/FullMath.sol\":999:1006  uint256 */\n      0x00\n        /* \"@uniswap/lib/contracts/libraries/FullMath.sol\":1019:1028  uint256 l */\n      dup1\n        /* \"@uniswap/lib/contracts/libraries/FullMath.sol\":1030:1039  uint256 h */\n      0x00\n        /* \"@uniswap/lib/contracts/libraries/FullMath.sol\":1043:1056  fullMul(x, y) */\n      tag_113\n        /* \"@uniswap/lib/contracts/libraries/FullMath.sol\":1051:1052  x */\n      dup7\n        /* \"@uniswap/lib/contracts/libraries/FullMath.sol\":1054:1055  y */\n      dup7\n        /* \"@uniswap/lib/contracts/libraries/FullMath.sol\":1043:1050  fullMul */\n      tag_114\n        /* \"@uniswap/lib/contracts/libraries/FullMath.sol\":1043:1056  fullMul(x, y) */\n      jump\t// in\n    tag_113:\n        /* \"@uniswap/lib/contracts/libraries/FullMath.sol\":1018:1056  (uint256 l, uint256 h) = fullMul(x, y) */\n      swap2\n      pop\n      swap2\n      pop\n        /* \"@uniswap/lib/contracts/libraries/FullMath.sol\":1067:1077  uint256 mm */\n      0x00\n        /* \"@uniswap/lib/contracts/libraries/FullMath.sol\":1093:1094  d */\n      dup5\n        /* \"@uniswap/lib/contracts/libraries/FullMath.sol\":1080:1095  mulmod(x, y, d) */\n      dup1\n      tag_115\n      jumpi\n      invalid\n    tag_115:\n        /* \"@uniswap/lib/contracts/libraries/FullMath.sol\":1090:1091  y */\n      dup7\n        /* \"@uniswap/lib/contracts/libraries/FullMath.sol\":1087:1088  x */\n      dup9\n        /* \"@uniswap/lib/contracts/libraries/FullMath.sol\":1080:1095  mulmod(x, y, d) */\n      mulmod\n        /* \"@uniswap/lib/contracts/libraries/FullMath.sol\":1067:1095  uint256 mm = mulmod(x, y, d) */\n      swap1\n      pop\n        /* \"@uniswap/lib/contracts/libraries/FullMath.sol\":1114:1115  l */\n      dup3\n        /* \"@uniswap/lib/contracts/libraries/FullMath.sol\":1109:1111  mm */\n      dup2\n        /* \"@uniswap/lib/contracts/libraries/FullMath.sol\":1109:1115  mm > l */\n      gt\n        /* \"@uniswap/lib/contracts/libraries/FullMath.sol\":1105:1123  if (mm > l) h -= 1 */\n      iszero\n      tag_116\n      jumpi\n        /* \"@uniswap/lib/contracts/libraries/FullMath.sol\":1122:1123  1 */\n      0x01\n        /* \"@uniswap/lib/contracts/libraries/FullMath.sol\":1117:1123  h -= 1 */\n      dup3\n      sub\n      swap2\n      pop\n        /* \"@uniswap/lib/contracts/libraries/FullMath.sol\":1105:1123  if (mm > l) h -= 1 */\n    tag_116:\n        /* \"@uniswap/lib/contracts/libraries/FullMath.sol\":1138:1140  mm */\n      dup1\n        /* \"@uniswap/lib/contracts/libraries/FullMath.sol\":1133:1140  l -= mm */\n      dup4\n      sub\n      swap3\n      pop\n        /* \"@uniswap/lib/contracts/libraries/FullMath.sol\":1160:1161  0 */\n      0x00\n        /* \"@uniswap/lib/contracts/libraries/FullMath.sol\":1155:1156  h */\n      dup3\n        /* \"@uniswap/lib/contracts/libraries/FullMath.sol\":1155:1161  h == 0 */\n      eq\n        /* \"@uniswap/lib/contracts/libraries/FullMath.sol\":1151:1175  if (h == 0) return l / d */\n      iszero\n      tag_117\n      jumpi\n        /* \"@uniswap/lib/contracts/libraries/FullMath.sol\":1174:1175  d */\n      dup5\n        /* \"@uniswap/lib/contracts/libraries/FullMath.sol\":1170:1171  l */\n      dup4\n        /* \"@uniswap/lib/contracts/libraries/FullMath.sol\":1170:1175  l / d */\n      dup2\n      tag_118\n      jumpi\n      invalid\n    tag_118:\n      div\n        /* \"@uniswap/lib/contracts/libraries/FullMath.sol\":1163:1175  return l / d */\n      swap4\n      pop\n      pop\n      pop\n      pop\n      jump(tag_112)\n        /* \"@uniswap/lib/contracts/libraries/FullMath.sol\":1151:1175  if (h == 0) return l / d */\n    tag_117:\n        /* \"@uniswap/lib/contracts/libraries/FullMath.sol\":1198:1199  d */\n      dup5\n        /* \"@uniswap/lib/contracts/libraries/FullMath.sol\":1194:1195  h */\n      dup3\n        /* \"@uniswap/lib/contracts/libraries/FullMath.sol\":1194:1199  h < d */\n      lt\n        /* \"@uniswap/lib/contracts/libraries/FullMath.sol\":1186:1230  require(h < d, 'FullMath: FULLDIV_OVERFLOW') */\n      tag_119\n      jumpi\n      mload(0x40)\n      0x08c379a000000000000000000000000000000000000000000000000000000000\n      dup2\n      mstore\n      0x04\n      add\n      dup1\n      dup1\n      0x20\n      add\n      dup3\n      dup2\n      sub\n      dup3\n      mstore\n      0x1a\n      dup2\n      mstore\n      0x20\n      add\n      dup1\n      0x46756c6c4d6174683a2046554c4c4449565f4f564552464c4f57000000000000\n      dup2\n      mstore\n      pop\n      0x20\n      add\n      swap2\n      pop\n      pop\n      mload(0x40)\n      dup1\n      swap2\n      sub\n      swap1\n      revert\n    tag_119:\n        /* \"@uniswap/lib/contracts/libraries/FullMath.sol\":1247:1263  fullDiv(l, h, d) */\n      tag_120\n        /* \"@uniswap/lib/contracts/libraries/FullMath.sol\":1255:1256  l */\n      dup4\n        /* \"@uniswap/lib/contracts/libraries/FullMath.sol\":1258:1259  h */\n      dup4\n        /* \"@uniswap/lib/contracts/libraries/FullMath.sol\":1261:1262  d */\n      dup8\n        /* \"@uniswap/lib/contracts/libraries/FullMath.sol\":1247:1254  fullDiv */\n      tag_121\n        /* \"@uniswap/lib/contracts/libraries/FullMath.sol\":1247:1263  fullDiv(l, h, d) */\n      jump\t// in\n    tag_120:\n        /* \"@uniswap/lib/contracts/libraries/FullMath.sol\":1240:1263  return fullDiv(l, h, d) */\n      swap4\n      pop\n      pop\n      pop\n      pop\n        /* \"@uniswap/lib/contracts/libraries/FullMath.sol\":897:1270  function mulDiv(... */\n    tag_112:\n      swap4\n      swap3\n      pop\n      pop\n      pop\n      jump\t// out\n        /* \"@uniswap/lib/contracts/libraries/FullMath.sol\":216:422  function fullMul(uint256 x, uint256 y) internal pure returns (uint256 l, uint256 h) {... */\n    tag_114:\n        /* \"@uniswap/lib/contracts/libraries/FullMath.sol\":278:287  uint256 l */\n      0x00\n        /* \"@uniswap/lib/contracts/libraries/FullMath.sol\":289:298  uint256 h */\n      dup1\n        /* \"@uniswap/lib/contracts/libraries/FullMath.sol\":310:320  uint256 mm */\n      0x00\n        /* \"@uniswap/lib/contracts/libraries/FullMath.sol\":344:346  -1 */\n      0xffffffffffffffffffffffffffffffffffffffffffffffffffffffffffffffff\n        /* \"@uniswap/lib/contracts/libraries/FullMath.sol\":323:348  mulmod(x, y, uint256(-1)) */\n      dup1\n      tag_123\n      jumpi\n      invalid\n    tag_123:\n        /* \"@uniswap/lib/contracts/libraries/FullMath.sol\":333:334  y */\n      dup5\n        /* \"@uniswap/lib/contracts/libraries/FullMath.sol\":330:331  x */\n      dup7\n        /* \"@uniswap/lib/contracts/libraries/FullMath.sol\":323:348  mulmod(x, y, uint256(-1)) */\n      mulmod\n        /* \"@uniswap/lib/contracts/libraries/FullMath.sol\":310:348  uint256 mm = mulmod(x, y, uint256(-1)) */\n      swap1\n      pop\n        /* \"@uniswap/lib/contracts/libraries/FullMath.sol\":366:367  y */\n      dup4\n        /* \"@uniswap/lib/contracts/libraries/FullMath.sol\":362:363  x */\n      dup6\n        /* \"@uniswap/lib/contracts/libraries/FullMath.sol\":362:367  x * y */\n      mul\n        /* \"@uniswap/lib/contracts/libraries/FullMath.sol\":358:367  l = x * y */\n      swap3\n      pop\n        /* \"@uniswap/lib/contracts/libraries/FullMath.sol\":386:387  l */\n      dup3\n        /* \"@uniswap/lib/contracts/libraries/FullMath.sol\":381:383  mm */\n      dup2\n        /* \"@uniswap/lib/contracts/libraries/FullMath.sol\":381:387  mm - l */\n      sub\n        /* \"@uniswap/lib/contracts/libraries/FullMath.sol\":377:387  h = mm - l */\n      swap2\n      pop\n        /* \"@uniswap/lib/contracts/libraries/FullMath.sol\":406:407  l */\n      dup3\n        /* \"@uniswap/lib/contracts/libraries/FullMath.sol\":401:403  mm */\n      dup2\n        /* \"@uniswap/lib/contracts/libraries/FullMath.sol\":401:407  mm < l */\n      lt\n        /* \"@uniswap/lib/contracts/libraries/FullMath.sol\":397:415  if (mm < l) h -= 1 */\n      iszero\n      tag_124\n      jumpi\n        /* \"@uniswap/lib/contracts/libraries/FullMath.sol\":414:415  1 */\n      0x01\n        /* \"@uniswap/lib/contracts/libraries/FullMath.sol\":409:415  h -= 1 */\n      dup3\n      sub\n      swap2\n      pop\n        /* \"@uniswap/lib/contracts/libraries/FullMath.sol\":397:415  if (mm < l) h -= 1 */\n    tag_124:\n        /* \"@uniswap/lib/contracts/libraries/FullMath.sol\":216:422  function fullMul(uint256 x, uint256 y) internal pure returns (uint256 l, uint256 h) {... */\n      pop\n      swap3\n      pop\n      swap3\n      swap1\n      pop\n      jump\t// out\n        /* \"@uniswap/lib/contracts/libraries/FullMath.sol\":428:891  function fullDiv(... */\n    tag_121:\n        /* \"@uniswap/lib/contracts/libraries/FullMath.sol\":530:537  uint256 */\n      0x00\n        /* \"@uniswap/lib/contracts/libraries/FullMath.sol\":549:561  uint256 pow2 */\n      dup1\n        /* \"@uniswap/lib/contracts/libraries/FullMath.sol\":569:570  d */\n      dup3\n        /* \"@uniswap/lib/contracts/libraries/FullMath.sol\":568:570  -d */\n      0x00\n      sub\n        /* \"@uniswap/lib/contracts/libraries/FullMath.sol\":564:565  d */\n      dup4\n        /* \"@uniswap/lib/contracts/libraries/FullMath.sol\":564:570  d & -d */\n      and\n        /* \"@uniswap/lib/contracts/libraries/FullMath.sol\":549:570  uint256 pow2 = d & -d */\n      swap1\n      pop\n        /* \"@uniswap/lib/contracts/libraries/FullMath.sol\":585:589  pow2 */\n      dup1\n        /* \"@uniswap/lib/contracts/libraries/FullMath.sol\":580:589  d /= pow2 */\n      dup4\n      dup2\n      tag_126\n      jumpi\n      invalid\n    tag_126:\n      div\n      swap3\n      pop\n        /* \"@uniswap/lib/contracts/libraries/FullMath.sol\":604:608  pow2 */\n      dup1\n        /* \"@uniswap/lib/contracts/libraries/FullMath.sol\":599:608  l /= pow2 */\n      dup6\n      dup2\n      tag_127\n      jumpi\n      invalid\n    tag_127:\n      div\n      swap5\n      pop\n        /* \"@uniswap/lib/contracts/libraries/FullMath.sol\":645:646  1 */\n      0x01\n        /* \"@uniswap/lib/contracts/libraries/FullMath.sol\":638:642  pow2 */\n      dup2\n        /* \"@uniswap/lib/contracts/libraries/FullMath.sol\":630:634  pow2 */\n      dup3\n        /* \"@uniswap/lib/contracts/libraries/FullMath.sol\":629:634  -pow2 */\n      0x00\n      sub\n        /* \"@uniswap/lib/contracts/libraries/FullMath.sol\":628:642  (-pow2) / pow2 */\n      dup2\n      tag_128\n      jumpi\n      invalid\n    tag_128:\n      div\n        /* \"@uniswap/lib/contracts/libraries/FullMath.sol\":628:646  (-pow2) / pow2 + 1 */\n      add\n        /* \"@uniswap/lib/contracts/libraries/FullMath.sol\":623:624  h */\n      dup5\n        /* \"@uniswap/lib/contracts/libraries/FullMath.sol\":623:647  h * ((-pow2) / pow2 + 1) */\n      mul\n        /* \"@uniswap/lib/contracts/libraries/FullMath.sol\":618:647  l += h * ((-pow2) / pow2 + 1) */\n      dup6\n      add\n      swap5\n      pop\n        /* \"@uniswap/lib/contracts/libraries/FullMath.sol\":657:666  uint256 r */\n      0x00\n        /* \"@uniswap/lib/contracts/libraries/FullMath.sol\":669:670  1 */\n      0x01\n        /* \"@uniswap/lib/contracts/libraries/FullMath.sol\":657:670  uint256 r = 1 */\n      swap1\n      pop\n        /* \"@uniswap/lib/contracts/libraries/FullMath.sol\":693:694  r */\n      dup1\n        /* \"@uniswap/lib/contracts/libraries/FullMath.sol\":689:690  d */\n      dup5\n        /* \"@uniswap/lib/contracts/libraries/FullMath.sol\":689:694  d * r */\n      mul\n        /* \"@uniswap/lib/contracts/libraries/FullMath.sol\":685:686  2 */\n      0x02\n        /* \"@uniswap/lib/contracts/libraries/FullMath.sol\":685:694  2 - d * r */\n      sub\n        /* \"@uniswap/lib/contracts/libraries/FullMath.sol\":680:694  r *= 2 - d * r */\n      dup2\n      mul\n      swap1\n      pop\n        /* \"@uniswap/lib/contracts/libraries/FullMath.sol\":717:718  r */\n      dup1\n        /* \"@uniswap/lib/contracts/libraries/FullMath.sol\":713:714  d */\n      dup5\n        /* \"@uniswap/lib/contracts/libraries/FullMath.sol\":713:718  d * r */\n      mul\n        /* \"@uniswap/lib/contracts/libraries/FullMath.sol\":709:710  2 */\n      0x02\n        /* \"@uniswap/lib/contracts/libraries/FullMath.sol\":709:718  2 - d * r */\n      sub\n        /* \"@uniswap/lib/contracts/libraries/FullMath.sol\":704:718  r *= 2 - d * r */\n      dup2\n      mul\n      swap1\n      pop\n        /* \"@uniswap/lib/contracts/libraries/FullMath.sol\":741:742  r */\n      dup1\n        /* \"@uniswap/lib/contracts/libraries/FullMath.sol\":737:738  d */\n      dup5\n        /* \"@uniswap/lib/contracts/libraries/FullMath.sol\":737:742  d * r */\n      mul\n        /* \"@uniswap/lib/contracts/libraries/FullMath.sol\":733:734  2 */\n      0x02\n        /* \"@uniswap/lib/contracts/libraries/FullMath.sol\":733:742  2 - d * r */\n      sub\n        /* \"@uniswap/lib/contracts/libraries/FullMath.sol\":728:742  r *= 2 - d * r */\n      dup2\n      mul\n      swap1\n      pop\n        /* \"@uniswap/lib/contracts/libraries/FullMath.sol\":765:766  r */\n      dup1\n        /* \"@uniswap/lib/contracts/libraries/FullMath.sol\":761:762  d */\n      dup5\n        /* \"@uniswap/lib/contracts/libraries/FullMath.sol\":761:766  d * r */\n      mul\n        /* \"@uniswap/lib/contracts/libraries/FullMath.sol\":757:758  2 */\n      0x02\n        /* \"@uniswap/lib/contracts/libraries/FullMath.sol\":757:766  2 - d * r */\n      sub\n        /* \"@uniswap/lib/contracts/libraries/FullMath.sol\":752:766  r *= 2 - d * r */\n      dup2\n      mul\n      swap1\n      pop\n        /* \"@uniswap/lib/contracts/libraries/FullMath.sol\":789:790  r */\n      dup1\n        /* \"@uniswap/lib/contracts/libraries/FullMath.sol\":785:786  d */\n      dup5\n        /* \"@uniswap/lib/contracts/libraries/FullMath.sol\":785:790  d * r */\n      mul\n        /* \"@uniswap/lib/contracts/libraries/FullMath.sol\":781:782  2 */\n      0x02\n        /* \"@uniswap/lib/contracts/libraries/FullMath.sol\":781:790  2 - d * r */\n      sub\n        /* \"@uniswap/lib/contracts/libraries/FullMath.sol\":776:790  r *= 2 - d * r */\n      dup2\n      mul\n      swap1\n      pop\n        /* \"@uniswap/lib/contracts/libraries/FullMath.sol\":813:814  r */\n      dup1\n        /* \"@uniswap/lib/contracts/libraries/FullMath.sol\":809:810  d */\n      dup5\n        /* \"@uniswap/lib/contracts/libraries/FullMath.sol\":809:814  d * r */\n      mul\n        /* \"@uniswap/lib/contracts/libraries/FullMath.sol\":805:806  2 */\n      0x02\n        /* \"@uniswap/lib/contracts/libraries/FullMath.sol\":805:814  2 - d * r */\n      sub\n        /* \"@uniswap/lib/contracts/libraries/FullMath.sol\":800:814  r *= 2 - d * r */\n      dup2\n      mul\n      swap1\n      pop\n        /* \"@uniswap/lib/contracts/libraries/FullMath.sol\":837:838  r */\n      dup1\n        /* \"@uniswap/lib/contracts/libraries/FullMath.sol\":833:834  d */\n      dup5\n        /* \"@uniswap/lib/contracts/libraries/FullMath.sol\":833:838  d * r */\n      mul\n        /* \"@uniswap/lib/contracts/libraries/FullMath.sol\":829:830  2 */\n      0x02\n        /* \"@uniswap/lib/contracts/libraries/FullMath.sol\":829:838  2 - d * r */\n      sub\n        /* \"@uniswap/lib/contracts/libraries/FullMath.sol\":824:838  r *= 2 - d * r */\n      dup2\n      mul\n      swap1\n      pop\n        /* \"@uniswap/lib/contracts/libraries/FullMath.sol\":861:862  r */\n      dup1\n        /* \"@uniswap/lib/contracts/libraries/FullMath.sol\":857:858  d */\n      dup5\n        /* \"@uniswap/lib/contracts/libraries/FullMath.sol\":857:862  d * r */\n      mul\n        /* \"@uniswap/lib/contracts/libraries/FullMath.sol\":853:854  2 */\n      0x02\n        /* \"@uniswap/lib/contracts/libraries/FullMath.sol\":853:862  2 - d * r */\n      sub\n        /* \"@uniswap/lib/contracts/libraries/FullMath.sol\":848:862  r *= 2 - d * r */\n      dup2\n      mul\n      swap1\n      pop\n        /* \"@uniswap/lib/contracts/libraries/FullMath.sol\":883:884  r */\n      dup1\n        /* \"@uniswap/lib/contracts/libraries/FullMath.sol\":879:880  l */\n      dup7\n        /* \"@uniswap/lib/contracts/libraries/FullMath.sol\":879:884  l * r */\n      mul\n        /* \"@uniswap/lib/contracts/libraries/FullMath.sol\":872:884  return l * r */\n      swap3\n      pop\n      pop\n      pop\n        /* \"@uniswap/lib/contracts/libraries/FullMath.sol\":428:891  function fullDiv(... */\n      swap4\n      swap3\n      pop\n      pop\n      pop\n      jump\t// out\n        /* \"contracts/Oracle.sol\":1154:6034  contract Oracle {... */\n    tag_73:\n      mload(0x40)\n      dup1\n      0x20\n      add\n      0x40\n      mstore\n      dup1\n      0x00\n      dup2\n      mstore\n      pop\n      swap1\n      jump\t// out\n    tag_101:\n      mload(0x40)\n      dup1\n      0x20\n      add\n      0x40\n      mstore\n      dup1\n      and(0xffffffffffffffffffffffffffffffffffffffffffffffffffffffff, 0x00)\n      dup2\n      mstore\n      pop\n      swap1\n      jump\t// out\n    stop\n    data_5e8a6c8dfacd0a41f2501735d8ee26d996b9e7e81ff5467dfdfd11a3728a15e7 4669786564506f696e743a3a6672616374696f6e3a206469766973696f6e206279207a65726f\n\n    auxdata: 0xa2646970667358221220a267e27355e126ff5952ced0a7e556341eee7361c97dcbef1239ffd8a428accb64736f6c63430006060033\n}\n",
				"bytecode": {
					"linkReferences": {},
					"object": "60e06040523480156200001157600080fd5b5060405162001b8738038062001b87833981810160405260208110156200003757600080fd5b81019080805190602001909291905050508073ffffffffffffffffffffffffffffffffffffffff1660808173ffffffffffffffffffffffffffffffffffffffff1660601b815250508073ffffffffffffffffffffffffffffffffffffffff16630dfe16816040518163ffffffff1660e01b815260040160206040518083038186803b158015620000c657600080fd5b505afa158015620000db573d6000803e3d6000fd5b505050506040513d6020811015620000f257600080fd5b810190808051906020019092919050505073ffffffffffffffffffffffffffffffffffffffff1660a08173ffffffffffffffffffffffffffffffffffffffff1660601b815250508073ffffffffffffffffffffffffffffffffffffffff1663d21220a76040518163ffffffff1660e01b815260040160206040518083038186803b1580156200018057600080fd5b505afa15801562000195573d6000803e3d6000fd5b505050506040513d6020811015620001ac57600080fd5b810190808051906020019092919050505073ffffffffffffffffffffffffffffffffffffffff1660c08173ffffffffffffffffffffffffffffffffffffffff1660601b815250508073ffffffffffffffffffffffffffffffffffffffff16635909c0d56040518163ffffffff1660e01b815260040160206040518083038186803b1580156200023a57600080fd5b505afa1580156200024f573d6000803e3d6000fd5b505050506040513d60208110156200026657600080fd5b810190808051906020019092919050505060008001819055508073ffffffffffffffffffffffffffffffffffffffff16635a3d54936040518163ffffffff1660e01b815260040160206040518083038186803b158015620002c657600080fd5b505afa158015620002db573d6000803e3d6000fd5b505050506040513d6020811015620002f257600080fd5b81019080805190602001909291905050506000600101819055508073ffffffffffffffffffffffffffffffffffffffff16630902f1ac6040518163ffffffff1660e01b815260040160606040518083038186803b1580156200035357600080fd5b505afa15801562000368573d6000803e3d6000fd5b505050506040513d60608110156200037f57600080fd5b810190808051906020019092919080519060200190929190805190602001909291905050509091509050600060020160008291906101000a81548163ffffffff021916908363ffffffff160217905550505060805160601c60a05160601c60c05160601c611753620004346000398061038552806106035280610a6c5280610b0b52508061030a528061033052806104475280610abd52508061066052806107bf5280610a925280610ae552506117536000f3fe608060405234801561001057600080fd5b50600436106100a95760003560e01c8063a8aa1b3111610071578063a8aa1b31146101b8578063b4d1d79514610202578063ba94a31514610220578063c1f1b1b51461026a578063d21220a7146102b4578063d36fc0ff146102fe576100a9565b80630dfe1681146100ae5780633ac35585146100f8578063493944111461015a57806349dd1262146101645780636f26a7101461016e575b600080fd5b6100b6610308565b604051808273ffffffffffffffffffffffffffffffffffffffff1673ffffffffffffffffffffffffffffffffffffffff16815260200191505060405180910390f35b6101446004803603604081101561010e57600080fd5b81019080803573ffffffffffffffffffffffffffffffffffffffff1690602001909291908035906020019092919050505061032c565b6040518082815260200191505060405180910390f35b610162610601565b005b61016c6107b5565b005b610176610a68565b604051808273ffffffffffffffffffffffffffffffffffffffff1673ffffffffffffffffffffffffffffffffffffffff16815260200191505060405180910390f35b6101c0610a90565b604051808273ffffffffffffffffffffffffffffffffffffffff1673ffffffffffffffffffffffffffffffffffffffff16815260200191505060405180910390f35b61020a610ab4565b6040518082815260200191505060405180910390f35b610228610ab9565b604051808273ffffffffffffffffffffffffffffffffffffffff1673ffffffffffffffffffffffffffffffffffffffff16815260200191505060405180910390f35b610272610ae1565b604051808273ffffffffffffffffffffffffffffffffffffffff1673ffffffffffffffffffffffffffffffffffffffff16815260200191505060405180910390f35b6102bc610b09565b604051808273ffffffffffffffffffffffffffffffffffffffff1673ffffffffffffffffffffffffffffffffffffffff16815260200191505060405180910390f35b610306610b2d565b005b7f000000000000000000000000000000000000000000000000000000000000000081565b60007f000000000000000000000000000000000000000000000000000000000000000073ffffffffffffffffffffffffffffffffffffffff168373ffffffffffffffffffffffffffffffffffffffff1614806103d357507f000000000000000000000000000000000000000000000000000000000000000073ffffffffffffffffffffffffffffffffffffffff168373ffffffffffffffffffffffffffffffffffffffff16145b610445576040517f08c379a000000000000000000000000000000000000000000000000000000000815260040180806020018281038252600d8152602001807f696e76616c696420746f6b656e0000000000000000000000000000000000000081525060200191505060405180910390fd5b7f000000000000000000000000000000000000000000000000000000000000000073ffffffffffffffffffffffffffffffffffffffff168373ffffffffffffffffffffffffffffffffffffffff16141561054c5761053161052c8360006003016040518060200160405290816000820160009054906101000a90047bffffffffffffffffffffffffffffffffffffffffffffffffffffffff167bffffffffffffffffffffffffffffffffffffffffffffffffffffffff167bffffffffffffffffffffffffffffffffffffffffffffffffffffffff1681525050610e5590919063ffffffff16565b610f4c565b71ffffffffffffffffffffffffffffffffffff1690506105fb565b6105e46105df8360006004016040518060200160405290816000820160009054906101000a90047bffffffffffffffffffffffffffffffffffffffffffffffffffffffff167bffffffffffffffffffffffffffffffffffffffffffffffffffffffff167bffffffffffffffffffffffffffffffffffffffffffffffffffffffff1681525050610e5590919063ffffffff16565b610f4c565b71ffffffffffffffffffffffffffffffffffff1690505b92915050565b7f000000000000000000000000000000000000000000000000000000000000000073ffffffffffffffffffffffffffffffffffffffff163373ffffffffffffffffffffffffffffffffffffffff161461065957600080fd5b60008060007f000000000000000000000000000000000000000000000000000000000000000073ffffffffffffffffffffffffffffffffffffffff16630902f1ac6040518163ffffffff1660e01b815260040160606040518083038186803b1580156106c457600080fd5b505afa1580156106d8573d6000803e3d6000fd5b505050506040513d60608110156106ee57600080fd5b8101908080519060200190929190805190602001909291908051906020019092919050505092506dffffffffffffffffffffffffffff1692506dffffffffffffffffffffffffffff1692506000600a60020160009054906101000a900463ffffffff1682039050838163ffffffff1602600a60000160008282540192505081905550828163ffffffff1602600a6001016000828254019250508190555081600a60020160006101000a81548163ffffffff021916908363ffffffff16021790555050505050565b60008060006107e37f0000000000000000000000000000000000000000000000000000000000000000610f61565b92509250925060008060020160009054906101000a900463ffffffff1682039050600a8163ffffffff16106109f95760405180602001604052808263ffffffff16600080015487038161083257fe5b047bffffffffffffffffffffffffffffffffffffffffffffffffffffffff16815250600060030160008201518160000160006101000a8154817bffffffffffffffffffffffffffffffffffffffffffffffffffffffff02191690837bffffffffffffffffffffffffffffffffffffffffffffffffffffffff16021790555090505060405180602001604052808263ffffffff166000600101548603816108d457fe5b047bffffffffffffffffffffffffffffffffffffffffffffffffffffffff16815250600060040160008201518160000160006101000a8154817bffffffffffffffffffffffffffffffffffffffffffffffffffffffff02191690837bffffffffffffffffffffffffffffffffffffffffffffffffffffffff1602179055509050508360008001819055508260006001018190555081600060020160006101000a81548163ffffffff021916908363ffffffff1602179055507fcf34ef537ac33ee1ac626ca1587a0a7e8e51561e5514f8cb36afa1c5102b3bab60405180806020018281038252600d8152602001807f507269636520757064617465640000000000000000000000000000000000000081525060200191505060405180910390a1610a62565b7fcf34ef537ac33ee1ac626ca1587a0a7e8e51561e5514f8cb36afa1c5102b3bab6040518080602001828103825260118152602001807f5072696365206e6f74207570646174656400000000000000000000000000000081525060200191505060405180910390a15b50505050565b60007f0000000000000000000000000000000000000000000000000000000000000000905090565b7f000000000000000000000000000000000000000000000000000000000000000081565b600a81565b60007f0000000000000000000000000000000000000000000000000000000000000000905090565b60007f0000000000000000000000000000000000000000000000000000000000000000905090565b7f000000000000000000000000000000000000000000000000000000000000000081565b60006005600001541415610b9757600a60000154600560000181905550600a60010154600560010181905550600a60020160009054906101000a900463ffffffff16600560020160006101000a81548163ffffffff021916908363ffffffff160217905550610e53565b6000600560020160009054906101000a900463ffffffff16600a60020160009054906101000a900463ffffffff16039050600a8163ffffffff1610610de85760405180602001604052808263ffffffff16600560000154600a600001540381610bfc57fe5b047bffffffffffffffffffffffffffffffffffffffffffffffffffffffff16815250600560030160008201518160000160006101000a8154817bffffffffffffffffffffffffffffffffffffffffffffffffffffffff02191690837bffffffffffffffffffffffffffffffffffffffffffffffffffffffff16021790555090505060405180602001604052808263ffffffff16600560010154600a600101540381610ca357fe5b047bffffffffffffffffffffffffffffffffffffffffffffffffffffffff16815250600560040160008201518160000160006101000a8154817bffffffffffffffffffffffffffffffffffffffffffffffffffffffff02191690837bffffffffffffffffffffffffffffffffffffffffffffffffffffffff160217905550905050600a60000154600560000181905550600a60010154600560010181905550600a60020160009054906101000a900463ffffffff16600560020160006101000a81548163ffffffff021916908363ffffffff1602179055507fcf34ef537ac33ee1ac626ca1587a0a7e8e51561e5514f8cb36afa1c5102b3bab6040518080602001828103825260128152602001807f5175616e7469746965732055706461746564000000000000000000000000000081525060200191505060405180910390a1610e51565b7fcf34ef537ac33ee1ac626ca1587a0a7e8e51561e5514f8cb36afa1c5102b3bab6040518080602001828103825260168152602001807f5175616e746974696573204e6f7420557064617465640000000000000000000081525060200191505060405180910390a15b505b565b610e5d6116b3565b60008090506000831480610ec2575083600001517bffffffffffffffffffffffffffffffffffffffffffffffffffffffff16838486600001517bffffffffffffffffffffffffffffffffffffffffffffffffffffffff160292508281610ebf57fe5b04145b610f34576040517f08c379a00000000000000000000000000000000000000000000000000000000081526004018080602001828103825260198152602001807f4669786564506f696e743a3a6d756c3a206f766572666c6f770000000000000081525060200191505060405180910390fd5b60405180602001604052808281525091505092915050565b6000607060ff168260000151901c9050919050565b6000806000610f6e6111ec565b90508373ffffffffffffffffffffffffffffffffffffffff16635909c0d56040518163ffffffff1660e01b815260040160206040518083038186803b158015610fb657600080fd5b505afa158015610fca573d6000803e3d6000fd5b505050506040513d6020811015610fe057600080fd5b810190808051906020019092919050505092508373ffffffffffffffffffffffffffffffffffffffff16635a3d54936040518163ffffffff1660e01b815260040160206040518083038186803b15801561103957600080fd5b505afa15801561104d573d6000803e3d6000fd5b505050506040513d602081101561106357600080fd5b8101908080519060200190929190505050915060008060008673ffffffffffffffffffffffffffffffffffffffff16630902f1ac6040518163ffffffff1660e01b815260040160606040518083038186803b1580156110c157600080fd5b505afa1580156110d5573d6000803e3d6000fd5b505050506040513d60608110156110eb57600080fd5b810190808051906020019092919080519060200190929190805190602001909291905050509250925092508363ffffffff168163ffffffff16146111e257600081850390508063ffffffff16611161846dffffffffffffffffffffffffffff16866dffffffffffffffffffffffffffff16611202565b600001517bffffffffffffffffffffffffffffffffffffffffffffffffffffffff1602870196508063ffffffff166111b9856dffffffffffffffffffffffffffff16856dffffffffffffffffffffffffffff16611202565b600001517bffffffffffffffffffffffffffffffffffffffffffffffffffffffff160286019550505b5050509193909250565b600064010000000042816111fc57fe5b06905090565b61120a6116c6565b60008211611263576040517f08c379a00000000000000000000000000000000000000000000000000000000081526004018080602001828103825260268152602001806116f86026913960400191505060405180910390fd5b60008314156112a157604051806020016040528060007bffffffffffffffffffffffffffffffffffffffffffffffffffffffff1681525090506114dd565b7fffffffffffffffffffffffffffffffffffffffffffffffffffffffffffffffff71ffffffffffffffffffffffffffffffffffff1683116113da57600082607060ff1685901b816112ee57fe5b0490507fffffffffffffffffffffffffffffffffffffffffffffffffffffffffffffffff7bffffffffffffffffffffffffffffffffffffffffffffffffffffffff168111156113a5576040517f08c379a000000000000000000000000000000000000000000000000000000000815260040180806020018281038252601e8152602001807f4669786564506f696e743a3a6672616374696f6e3a206f766572666c6f77000081525060200191505060405180910390fd5b6040518060200160405280827bffffffffffffffffffffffffffffffffffffffffffffffffffffffff168152509150506114dd565b60006113f6846e010000000000000000000000000000856114e3565b90507fffffffffffffffffffffffffffffffffffffffffffffffffffffffffffffffff7bffffffffffffffffffffffffffffffffffffffffffffffffffffffff168111156114ac576040517f08c379a000000000000000000000000000000000000000000000000000000000815260040180806020018281038252601e8152602001807f4669786564506f696e743a3a6672616374696f6e3a206f766572666c6f77000081525060200191505060405180910390fd5b6040518060200160405280827bffffffffffffffffffffffffffffffffffffffffffffffffffffffff168152509150505b92915050565b60008060006114f286866115c3565b915091506000848061150057fe5b868809905082811115611514576001820391505b808303925060008214156115365784838161152b57fe5b0493505050506115bc565b8482106115ab576040517f08c379a000000000000000000000000000000000000000000000000000000000815260040180806020018281038252601a8152602001807f46756c6c4d6174683a2046554c4c4449565f4f564552464c4f5700000000000081525060200191505060405180910390fd5b6115b6838387611616565b93505050505b9392505050565b60008060007fffffffffffffffffffffffffffffffffffffffffffffffffffffffffffffffff806115f057fe5b8486099050838502925082810391508281101561160e576001820391505b509250929050565b600080826000038316905080838161162a57fe5b04925080858161163657fe5b049450600181826000038161164757fe5b04018402850194506000600190508084026002038102905080840260020381029050808402600203810290508084026002038102905080840260020381029050808402600203810290508084026002038102905080840260020381029050808602925050509392505050565b6040518060200160405280600081525090565b604051806020016040528060007bffffffffffffffffffffffffffffffffffffffffffffffffffffffff168152509056fe4669786564506f696e743a3a6672616374696f6e3a206469766973696f6e206279207a65726fa2646970667358221220a267e27355e126ff5952ced0a7e556341eee7361c97dcbef1239ffd8a428accb64736f6c63430006060033",
					"opcodes": "PUSH1 0xE0 PUSH1 0x40 MSTORE CALLVALUE DUP1 ISZERO PUSH3 0x11 JUMPI PUSH1 0x0 DUP1 REVERT JUMPDEST POP PUSH1 0x40 MLOAD PUSH3 0x1B87 CODESIZE SUB DUP1 PUSH3 0x1B87 DUP4 CODECOPY DUP2 DUP2 ADD PUSH1 0x40 MSTORE PUSH1 0x20 DUP2 LT ISZERO PUSH3 0x37 JUMPI PUSH1 0x0 DUP1 REVERT JUMPDEST DUP2 ADD SWAP1 DUP1 DUP1 MLOAD SWAP1 PUSH1 0x20 ADD SWAP1 SWAP3 SWAP2 SWAP1 POP POP POP DUP1 PUSH20 0xFFFFFFFFFFFFFFFFFFFFFFFFFFFFFFFFFFFFFFFF AND PUSH1 0x80 DUP2 PUSH20 0xFFFFFFFFFFFFFFFFFFFFFFFFFFFFFFFFFFFFFFFF AND PUSH1 0x60 SHL DUP2 MSTORE POP POP DUP1 PUSH20 0xFFFFFFFFFFFFFFFFFFFFFFFFFFFFFFFFFFFFFFFF AND PUSH4 0xDFE1681 PUSH1 0x40 MLOAD DUP2 PUSH4 0xFFFFFFFF AND PUSH1 0xE0 SHL DUP2 MSTORE PUSH1 0x4 ADD PUSH1 0x20 PUSH1 0x40 MLOAD DUP1 DUP4 SUB DUP2 DUP7 DUP1 EXTCODESIZE ISZERO DUP1 ISZERO PUSH3 0xC6 JUMPI PUSH1 0x0 DUP1 REVERT JUMPDEST POP GAS STATICCALL ISZERO DUP1 ISZERO PUSH3 0xDB JUMPI RETURNDATASIZE PUSH1 0x0 DUP1 RETURNDATACOPY RETURNDATASIZE PUSH1 0x0 REVERT JUMPDEST POP POP POP POP PUSH1 0x40 MLOAD RETURNDATASIZE PUSH1 0x20 DUP2 LT ISZERO PUSH3 0xF2 JUMPI PUSH1 0x0 DUP1 REVERT JUMPDEST DUP2 ADD SWAP1 DUP1 DUP1 MLOAD SWAP1 PUSH1 0x20 ADD SWAP1 SWAP3 SWAP2 SWAP1 POP POP POP PUSH20 0xFFFFFFFFFFFFFFFFFFFFFFFFFFFFFFFFFFFFFFFF AND PUSH1 0xA0 DUP2 PUSH20 0xFFFFFFFFFFFFFFFFFFFFFFFFFFFFFFFFFFFFFFFF AND PUSH1 0x60 SHL DUP2 MSTORE POP POP DUP1 PUSH20 0xFFFFFFFFFFFFFFFFFFFFFFFFFFFFFFFFFFFFFFFF AND PUSH4 0xD21220A7 PUSH1 0x40 MLOAD DUP2 PUSH4 0xFFFFFFFF AND PUSH1 0xE0 SHL DUP2 MSTORE PUSH1 0x4 ADD PUSH1 0x20 PUSH1 0x40 MLOAD DUP1 DUP4 SUB DUP2 DUP7 DUP1 EXTCODESIZE ISZERO DUP1 ISZERO PUSH3 0x180 JUMPI PUSH1 0x0 DUP1 REVERT JUMPDEST POP GAS STATICCALL ISZERO DUP1 ISZERO PUSH3 0x195 JUMPI RETURNDATASIZE PUSH1 0x0 DUP1 RETURNDATACOPY RETURNDATASIZE PUSH1 0x0 REVERT JUMPDEST POP POP POP POP PUSH1 0x40 MLOAD RETURNDATASIZE PUSH1 0x20 DUP2 LT ISZERO PUSH3 0x1AC JUMPI PUSH1 0x0 DUP1 REVERT JUMPDEST DUP2 ADD SWAP1 DUP1 DUP1 MLOAD SWAP1 PUSH1 0x20 ADD SWAP1 SWAP3 SWAP2 SWAP1 POP POP POP PUSH20 0xFFFFFFFFFFFFFFFFFFFFFFFFFFFFFFFFFFFFFFFF AND PUSH1 0xC0 DUP2 PUSH20 0xFFFFFFFFFFFFFFFFFFFFFFFFFFFFFFFFFFFFFFFF AND PUSH1 0x60 SHL DUP2 MSTORE POP POP DUP1 PUSH20 0xFFFFFFFFFFFFFFFFFFFFFFFFFFFFFFFFFFFFFFFF AND PUSH4 0x5909C0D5 PUSH1 0x40 MLOAD DUP2 PUSH4 0xFFFFFFFF AND PUSH1 0xE0 SHL DUP2 MSTORE PUSH1 0x4 ADD PUSH1 0x20 PUSH1 0x40 MLOAD DUP1 DUP4 SUB DUP2 DUP7 DUP1 EXTCODESIZE ISZERO DUP1 ISZERO PUSH3 0x23A JUMPI PUSH1 0x0 DUP1 REVERT JUMPDEST POP GAS STATICCALL ISZERO DUP1 ISZERO PUSH3 0x24F JUMPI RETURNDATASIZE PUSH1 0x0 DUP1 RETURNDATACOPY RETURNDATASIZE PUSH1 0x0 REVERT JUMPDEST POP POP POP POP PUSH1 0x40 MLOAD RETURNDATASIZE PUSH1 0x20 DUP2 LT ISZERO PUSH3 0x266 JUMPI PUSH1 0x0 DUP1 REVERT JUMPDEST DUP2 ADD SWAP1 DUP1 DUP1 MLOAD SWAP1 PUSH1 0x20 ADD SWAP1 SWAP3 SWAP2 SWAP1 POP POP POP PUSH1 0x0 DUP1 ADD DUP2 SWAP1 SSTORE POP DUP1 PUSH20 0xFFFFFFFFFFFFFFFFFFFFFFFFFFFFFFFFFFFFFFFF AND PUSH4 0x5A3D5493 PUSH1 0x40 MLOAD DUP2 PUSH4 0xFFFFFFFF AND PUSH1 0xE0 SHL DUP2 MSTORE PUSH1 0x4 ADD PUSH1 0x20 PUSH1 0x40 MLOAD DUP1 DUP4 SUB DUP2 DUP7 DUP1 EXTCODESIZE ISZERO DUP1 ISZERO PUSH3 0x2C6 JUMPI PUSH1 0x0 DUP1 REVERT JUMPDEST POP GAS STATICCALL ISZERO DUP1 ISZERO PUSH3 0x2DB JUMPI RETURNDATASIZE PUSH1 0x0 DUP1 RETURNDATACOPY RETURNDATASIZE PUSH1 0x0 REVERT JUMPDEST POP POP POP POP PUSH1 0x40 MLOAD RETURNDATASIZE PUSH1 0x20 DUP2 LT ISZERO PUSH3 0x2F2 JUMPI PUSH1 0x0 DUP1 REVERT JUMPDEST DUP2 ADD SWAP1 DUP1 DUP1 MLOAD SWAP1 PUSH1 0x20 ADD SWAP1 SWAP3 SWAP2 SWAP1 POP POP POP PUSH1 0x0 PUSH1 0x1 ADD DUP2 SWAP1 SSTORE POP DUP1 PUSH20 0xFFFFFFFFFFFFFFFFFFFFFFFFFFFFFFFFFFFFFFFF AND PUSH4 0x902F1AC PUSH1 0x40 MLOAD DUP2 PUSH4 0xFFFFFFFF AND PUSH1 0xE0 SHL DUP2 MSTORE PUSH1 0x4 ADD PUSH1 0x60 PUSH1 0x40 MLOAD DUP1 DUP4 SUB DUP2 DUP7 DUP1 EXTCODESIZE ISZERO DUP1 ISZERO PUSH3 0x353 JUMPI PUSH1 0x0 DUP1 REVERT JUMPDEST POP GAS STATICCALL ISZERO DUP1 ISZERO PUSH3 0x368 JUMPI RETURNDATASIZE PUSH1 0x0 DUP1 RETURNDATACOPY RETURNDATASIZE PUSH1 0x0 REVERT JUMPDEST POP POP POP POP PUSH1 0x40 MLOAD RETURNDATASIZE PUSH1 0x60 DUP2 LT ISZERO PUSH3 0x37F JUMPI PUSH1 0x0 DUP1 REVERT JUMPDEST DUP2 ADD SWAP1 DUP1 DUP1 MLOAD SWAP1 PUSH1 0x20 ADD SWAP1 SWAP3 SWAP2 SWAP1 DUP1 MLOAD SWAP1 PUSH1 0x20 ADD SWAP1 SWAP3 SWAP2 SWAP1 DUP1 MLOAD SWAP1 PUSH1 0x20 ADD SWAP1 SWAP3 SWAP2 SWAP1 POP POP POP SWAP1 SWAP2 POP SWAP1 POP PUSH1 0x0 PUSH1 0x2 ADD PUSH1 0x0 DUP3 SWAP2 SWAP1 PUSH2 0x100 EXP DUP2 SLOAD DUP2 PUSH4 0xFFFFFFFF MUL NOT AND SWAP1 DUP4 PUSH4 0xFFFFFFFF AND MUL OR SWAP1 SSTORE POP POP POP PUSH1 0x80 MLOAD PUSH1 0x60 SHR PUSH1 0xA0 MLOAD PUSH1 0x60 SHR PUSH1 0xC0 MLOAD PUSH1 0x60 SHR PUSH2 0x1753 PUSH3 0x434 PUSH1 0x0 CODECOPY DUP1 PUSH2 0x385 MSTORE DUP1 PUSH2 0x603 MSTORE DUP1 PUSH2 0xA6C MSTORE DUP1 PUSH2 0xB0B MSTORE POP DUP1 PUSH2 0x30A MSTORE DUP1 PUSH2 0x330 MSTORE DUP1 PUSH2 0x447 MSTORE DUP1 PUSH2 0xABD MSTORE POP DUP1 PUSH2 0x660 MSTORE DUP1 PUSH2 0x7BF MSTORE DUP1 PUSH2 0xA92 MSTORE DUP1 PUSH2 0xAE5 MSTORE POP PUSH2 0x1753 PUSH1 0x0 RETURN INVALID PUSH1 0x80 PUSH1 0x40 MSTORE CALLVALUE DUP1 ISZERO PUSH2 0x10 JUMPI PUSH1 0x0 DUP1 REVERT JUMPDEST POP PUSH1 0x4 CALLDATASIZE LT PUSH2 0xA9 JUMPI PUSH1 0x0 CALLDATALOAD PUSH1 0xE0 SHR DUP1 PUSH4 0xA8AA1B31 GT PUSH2 0x71 JUMPI DUP1 PUSH4 0xA8AA1B31 EQ PUSH2 0x1B8 JUMPI DUP1 PUSH4 0xB4D1D795 EQ PUSH2 0x202 JUMPI DUP1 PUSH4 0xBA94A315 EQ PUSH2 0x220 JUMPI DUP1 PUSH4 0xC1F1B1B5 EQ PUSH2 0x26A JUMPI DUP1 PUSH4 0xD21220A7 EQ PUSH2 0x2B4 JUMPI DUP1 PUSH4 0xD36FC0FF EQ PUSH2 0x2FE JUMPI PUSH2 0xA9 JUMP JUMPDEST DUP1 PUSH4 0xDFE1681 EQ PUSH2 0xAE JUMPI DUP1 PUSH4 0x3AC35585 EQ PUSH2 0xF8 JUMPI DUP1 PUSH4 0x49394411 EQ PUSH2 0x15A JUMPI DUP1 PUSH4 0x49DD1262 EQ PUSH2 0x164 JUMPI DUP1 PUSH4 0x6F26A710 EQ PUSH2 0x16E JUMPI JUMPDEST PUSH1 0x0 DUP1 REVERT JUMPDEST PUSH2 0xB6 PUSH2 0x308 JUMP JUMPDEST PUSH1 0x40 MLOAD DUP1 DUP3 PUSH20 0xFFFFFFFFFFFFFFFFFFFFFFFFFFFFFFFFFFFFFFFF AND PUSH20 0xFFFFFFFFFFFFFFFFFFFFFFFFFFFFFFFFFFFFFFFF AND DUP2 MSTORE PUSH1 0x20 ADD SWAP2 POP POP PUSH1 0x40 MLOAD DUP1 SWAP2 SUB SWAP1 RETURN JUMPDEST PUSH2 0x144 PUSH1 0x4 DUP1 CALLDATASIZE SUB PUSH1 0x40 DUP2 LT ISZERO PUSH2 0x10E JUMPI PUSH1 0x0 DUP1 REVERT JUMPDEST DUP2 ADD SWAP1 DUP1 DUP1 CALLDATALOAD PUSH20 0xFFFFFFFFFFFFFFFFFFFFFFFFFFFFFFFFFFFFFFFF AND SWAP1 PUSH1 0x20 ADD SWAP1 SWAP3 SWAP2 SWAP1 DUP1 CALLDATALOAD SWAP1 PUSH1 0x20 ADD SWAP1 SWAP3 SWAP2 SWAP1 POP POP POP PUSH2 0x32C JUMP JUMPDEST PUSH1 0x40 MLOAD DUP1 DUP3 DUP2 MSTORE PUSH1 0x20 ADD SWAP2 POP POP PUSH1 0x40 MLOAD DUP1 SWAP2 SUB SWAP1 RETURN JUMPDEST PUSH2 0x162 PUSH2 0x601 JUMP JUMPDEST STOP JUMPDEST PUSH2 0x16C PUSH2 0x7B5 JUMP JUMPDEST STOP JUMPDEST PUSH2 0x176 PUSH2 0xA68 JUMP JUMPDEST PUSH1 0x40 MLOAD DUP1 DUP3 PUSH20 0xFFFFFFFFFFFFFFFFFFFFFFFFFFFFFFFFFFFFFFFF AND PUSH20 0xFFFFFFFFFFFFFFFFFFFFFFFFFFFFFFFFFFFFFFFF AND DUP2 MSTORE PUSH1 0x20 ADD SWAP2 POP POP PUSH1 0x40 MLOAD DUP1 SWAP2 SUB SWAP1 RETURN JUMPDEST PUSH2 0x1C0 PUSH2 0xA90 JUMP JUMPDEST PUSH1 0x40 MLOAD DUP1 DUP3 PUSH20 0xFFFFFFFFFFFFFFFFFFFFFFFFFFFFFFFFFFFFFFFF AND PUSH20 0xFFFFFFFFFFFFFFFFFFFFFFFFFFFFFFFFFFFFFFFF AND DUP2 MSTORE PUSH1 0x20 ADD SWAP2 POP POP PUSH1 0x40 MLOAD DUP1 SWAP2 SUB SWAP1 RETURN JUMPDEST PUSH2 0x20A PUSH2 0xAB4 JUMP JUMPDEST PUSH1 0x40 MLOAD DUP1 DUP3 DUP2 MSTORE PUSH1 0x20 ADD SWAP2 POP POP PUSH1 0x40 MLOAD DUP1 SWAP2 SUB SWAP1 RETURN JUMPDEST PUSH2 0x228 PUSH2 0xAB9 JUMP JUMPDEST PUSH1 0x40 MLOAD DUP1 DUP3 PUSH20 0xFFFFFFFFFFFFFFFFFFFFFFFFFFFFFFFFFFFFFFFF AND PUSH20 0xFFFFFFFFFFFFFFFFFFFFFFFFFFFFFFFFFFFFFFFF AND DUP2 MSTORE PUSH1 0x20 ADD SWAP2 POP POP PUSH1 0x40 MLOAD DUP1 SWAP2 SUB SWAP1 RETURN JUMPDEST PUSH2 0x272 PUSH2 0xAE1 JUMP JUMPDEST PUSH1 0x40 MLOAD DUP1 DUP3 PUSH20 0xFFFFFFFFFFFFFFFFFFFFFFFFFFFFFFFFFFFFFFFF AND PUSH20 0xFFFFFFFFFFFFFFFFFFFFFFFFFFFFFFFFFFFFFFFF AND DUP2 MSTORE PUSH1 0x20 ADD SWAP2 POP POP PUSH1 0x40 MLOAD DUP1 SWAP2 SUB SWAP1 RETURN JUMPDEST PUSH2 0x2BC PUSH2 0xB09 JUMP JUMPDEST PUSH1 0x40 MLOAD DUP1 DUP3 PUSH20 0xFFFFFFFFFFFFFFFFFFFFFFFFFFFFFFFFFFFFFFFF AND PUSH20 0xFFFFFFFFFFFFFFFFFFFFFFFFFFFFFFFFFFFFFFFF AND DUP2 MSTORE PUSH1 0x20 ADD SWAP2 POP POP PUSH1 0x40 MLOAD DUP1 SWAP2 SUB SWAP1 RETURN JUMPDEST PUSH2 0x306 PUSH2 0xB2D JUMP JUMPDEST STOP JUMPDEST PUSH32 0x0 DUP2 JUMP JUMPDEST PUSH1 0x0 PUSH32 0x0 PUSH20 0xFFFFFFFFFFFFFFFFFFFFFFFFFFFFFFFFFFFFFFFF AND DUP4 PUSH20 0xFFFFFFFFFFFFFFFFFFFFFFFFFFFFFFFFFFFFFFFF AND EQ DUP1 PUSH2 0x3D3 JUMPI POP PUSH32 0x0 PUSH20 0xFFFFFFFFFFFFFFFFFFFFFFFFFFFFFFFFFFFFFFFF AND DUP4 PUSH20 0xFFFFFFFFFFFFFFFFFFFFFFFFFFFFFFFFFFFFFFFF AND EQ JUMPDEST PUSH2 0x445 JUMPI PUSH1 0x40 MLOAD PUSH32 0x8C379A000000000000000000000000000000000000000000000000000000000 DUP2 MSTORE PUSH1 0x4 ADD DUP1 DUP1 PUSH1 0x20 ADD DUP3 DUP2 SUB DUP3 MSTORE PUSH1 0xD DUP2 MSTORE PUSH1 0x20 ADD DUP1 PUSH32 0x696E76616C696420746F6B656E00000000000000000000000000000000000000 DUP2 MSTORE POP PUSH1 0x20 ADD SWAP2 POP POP PUSH1 0x40 MLOAD DUP1 SWAP2 SUB SWAP1 REVERT JUMPDEST PUSH32 0x0 PUSH20 0xFFFFFFFFFFFFFFFFFFFFFFFFFFFFFFFFFFFFFFFF AND DUP4 PUSH20 0xFFFFFFFFFFFFFFFFFFFFFFFFFFFFFFFFFFFFFFFF AND EQ ISZERO PUSH2 0x54C JUMPI PUSH2 0x531 PUSH2 0x52C DUP4 PUSH1 0x0 PUSH1 0x3 ADD PUSH1 0x40 MLOAD DUP1 PUSH1 0x20 ADD PUSH1 0x40 MSTORE SWAP1 DUP2 PUSH1 0x0 DUP3 ADD PUSH1 0x0 SWAP1 SLOAD SWAP1 PUSH2 0x100 EXP SWAP1 DIV PUSH28 0xFFFFFFFFFFFFFFFFFFFFFFFFFFFFFFFFFFFFFFFFFFFFFFFFFFFFFFFF AND PUSH28 0xFFFFFFFFFFFFFFFFFFFFFFFFFFFFFFFFFFFFFFFFFFFFFFFFFFFFFFFF AND PUSH28 0xFFFFFFFFFFFFFFFFFFFFFFFFFFFFFFFFFFFFFFFFFFFFFFFFFFFFFFFF AND DUP2 MSTORE POP POP PUSH2 0xE55 SWAP1 SWAP2 SWAP1 PUSH4 0xFFFFFFFF AND JUMP JUMPDEST PUSH2 0xF4C JUMP JUMPDEST PUSH18 0xFFFFFFFFFFFFFFFFFFFFFFFFFFFFFFFFFFFF AND SWAP1 POP PUSH2 0x5FB JUMP JUMPDEST PUSH2 0x5E4 PUSH2 0x5DF DUP4 PUSH1 0x0 PUSH1 0x4 ADD PUSH1 0x40 MLOAD DUP1 PUSH1 0x20 ADD PUSH1 0x40 MSTORE SWAP1 DUP2 PUSH1 0x0 DUP3 ADD PUSH1 0x0 SWAP1 SLOAD SWAP1 PUSH2 0x100 EXP SWAP1 DIV PUSH28 0xFFFFFFFFFFFFFFFFFFFFFFFFFFFFFFFFFFFFFFFFFFFFFFFFFFFFFFFF AND PUSH28 0xFFFFFFFFFFFFFFFFFFFFFFFFFFFFFFFFFFFFFFFFFFFFFFFFFFFFFFFF AND PUSH28 0xFFFFFFFFFFFFFFFFFFFFFFFFFFFFFFFFFFFFFFFFFFFFFFFFFFFFFFFF AND DUP2 MSTORE POP POP PUSH2 0xE55 SWAP1 SWAP2 SWAP1 PUSH4 0xFFFFFFFF AND JUMP JUMPDEST PUSH2 0xF4C JUMP JUMPDEST PUSH18 0xFFFFFFFFFFFFFFFFFFFFFFFFFFFFFFFFFFFF AND SWAP1 POP JUMPDEST SWAP3 SWAP2 POP POP JUMP JUMPDEST PUSH32 0x0 PUSH20 0xFFFFFFFFFFFFFFFFFFFFFFFFFFFFFFFFFFFFFFFF AND CALLER PUSH20 0xFFFFFFFFFFFFFFFFFFFFFFFFFFFFFFFFFFFFFFFF AND EQ PUSH2 0x659 JUMPI PUSH1 0x0 DUP1 REVERT JUMPDEST PUSH1 0x0 DUP1 PUSH1 0x0 PUSH32 0x0 PUSH20 0xFFFFFFFFFFFFFFFFFFFFFFFFFFFFFFFFFFFFFFFF AND PUSH4 0x902F1AC PUSH1 0x40 MLOAD DUP2 PUSH4 0xFFFFFFFF AND PUSH1 0xE0 SHL DUP2 MSTORE PUSH1 0x4 ADD PUSH1 0x60 PUSH1 0x40 MLOAD DUP1 DUP4 SUB DUP2 DUP7 DUP1 EXTCODESIZE ISZERO DUP1 ISZERO PUSH2 0x6C4 JUMPI PUSH1 0x0 DUP1 REVERT JUMPDEST POP GAS STATICCALL ISZERO DUP1 ISZERO PUSH2 0x6D8 JUMPI RETURNDATASIZE PUSH1 0x0 DUP1 RETURNDATACOPY RETURNDATASIZE PUSH1 0x0 REVERT JUMPDEST POP POP POP POP PUSH1 0x40 MLOAD RETURNDATASIZE PUSH1 0x60 DUP2 LT ISZERO PUSH2 0x6EE JUMPI PUSH1 0x0 DUP1 REVERT JUMPDEST DUP2 ADD SWAP1 DUP1 DUP1 MLOAD SWAP1 PUSH1 0x20 ADD SWAP1 SWAP3 SWAP2 SWAP1 DUP1 MLOAD SWAP1 PUSH1 0x20 ADD SWAP1 SWAP3 SWAP2 SWAP1 DUP1 MLOAD SWAP1 PUSH1 0x20 ADD SWAP1 SWAP3 SWAP2 SWAP1 POP POP POP SWAP3 POP PUSH14 0xFFFFFFFFFFFFFFFFFFFFFFFFFFFF AND SWAP3 POP PUSH14 0xFFFFFFFFFFFFFFFFFFFFFFFFFFFF AND SWAP3 POP PUSH1 0x0 PUSH1 0xA PUSH1 0x2 ADD PUSH1 0x0 SWAP1 SLOAD SWAP1 PUSH2 0x100 EXP SWAP1 DIV PUSH4 0xFFFFFFFF AND DUP3 SUB SWAP1 POP DUP4 DUP2 PUSH4 0xFFFFFFFF AND MUL PUSH1 0xA PUSH1 0x0 ADD PUSH1 0x0 DUP3 DUP3 SLOAD ADD SWAP3 POP POP DUP2 SWAP1 SSTORE POP DUP3 DUP2 PUSH4 0xFFFFFFFF AND MUL PUSH1 0xA PUSH1 0x1 ADD PUSH1 0x0 DUP3 DUP3 SLOAD ADD SWAP3 POP POP DUP2 SWAP1 SSTORE POP DUP2 PUSH1 0xA PUSH1 0x2 ADD PUSH1 0x0 PUSH2 0x100 EXP DUP2 SLOAD DUP2 PUSH4 0xFFFFFFFF MUL NOT AND SWAP1 DUP4 PUSH4 0xFFFFFFFF AND MUL OR SWAP1 SSTORE POP POP POP POP POP JUMP JUMPDEST PUSH1 0x0 DUP1 PUSH1 0x0 PUSH2 0x7E3 PUSH32 0x0 PUSH2 0xF61 JUMP JUMPDEST SWAP3 POP SWAP3 POP SWAP3 POP PUSH1 0x0 DUP1 PUSH1 0x2 ADD PUSH1 0x0 SWAP1 SLOAD SWAP1 PUSH2 0x100 EXP SWAP1 DIV PUSH4 0xFFFFFFFF AND DUP3 SUB SWAP1 POP PUSH1 0xA DUP2 PUSH4 0xFFFFFFFF AND LT PUSH2 0x9F9 JUMPI PUSH1 0x40 MLOAD DUP1 PUSH1 0x20 ADD PUSH1 0x40 MSTORE DUP1 DUP3 PUSH4 0xFFFFFFFF AND PUSH1 0x0 DUP1 ADD SLOAD DUP8 SUB DUP2 PUSH2 0x832 JUMPI INVALID JUMPDEST DIV PUSH28 0xFFFFFFFFFFFFFFFFFFFFFFFFFFFFFFFFFFFFFFFFFFFFFFFFFFFFFFFF AND DUP2 MSTORE POP PUSH1 0x0 PUSH1 0x3 ADD PUSH1 0x0 DUP3 ADD MLOAD DUP2 PUSH1 0x0 ADD PUSH1 0x0 PUSH2 0x100 EXP DUP2 SLOAD DUP2 PUSH28 0xFFFFFFFFFFFFFFFFFFFFFFFFFFFFFFFFFFFFFFFFFFFFFFFFFFFFFFFF MUL NOT AND SWAP1 DUP4 PUSH28 0xFFFFFFFFFFFFFFFFFFFFFFFFFFFFFFFFFFFFFFFFFFFFFFFFFFFFFFFF AND MUL OR SWAP1 SSTORE POP SWAP1 POP POP PUSH1 0x40 MLOAD DUP1 PUSH1 0x20 ADD PUSH1 0x40 MSTORE DUP1 DUP3 PUSH4 0xFFFFFFFF AND PUSH1 0x0 PUSH1 0x1 ADD SLOAD DUP7 SUB DUP2 PUSH2 0x8D4 JUMPI INVALID JUMPDEST DIV PUSH28 0xFFFFFFFFFFFFFFFFFFFFFFFFFFFFFFFFFFFFFFFFFFFFFFFFFFFFFFFF AND DUP2 MSTORE POP PUSH1 0x0 PUSH1 0x4 ADD PUSH1 0x0 DUP3 ADD MLOAD DUP2 PUSH1 0x0 ADD PUSH1 0x0 PUSH2 0x100 EXP DUP2 SLOAD DUP2 PUSH28 0xFFFFFFFFFFFFFFFFFFFFFFFFFFFFFFFFFFFFFFFFFFFFFFFFFFFFFFFF MUL NOT AND SWAP1 DUP4 PUSH28 0xFFFFFFFFFFFFFFFFFFFFFFFFFFFFFFFFFFFFFFFFFFFFFFFFFFFFFFFF AND MUL OR SWAP1 SSTORE POP SWAP1 POP POP DUP4 PUSH1 0x0 DUP1 ADD DUP2 SWAP1 SSTORE POP DUP3 PUSH1 0x0 PUSH1 0x1 ADD DUP2 SWAP1 SSTORE POP DUP2 PUSH1 0x0 PUSH1 0x2 ADD PUSH1 0x0 PUSH2 0x100 EXP DUP2 SLOAD DUP2 PUSH4 0xFFFFFFFF MUL NOT AND SWAP1 DUP4 PUSH4 0xFFFFFFFF AND MUL OR SWAP1 SSTORE POP PUSH32 0xCF34EF537AC33EE1AC626CA1587A0A7E8E51561E5514F8CB36AFA1C5102B3BAB PUSH1 0x40 MLOAD DUP1 DUP1 PUSH1 0x20 ADD DUP3 DUP2 SUB DUP3 MSTORE PUSH1 0xD DUP2 MSTORE PUSH1 0x20 ADD DUP1 PUSH32 0x5072696365207570646174656400000000000000000000000000000000000000 DUP2 MSTORE POP PUSH1 0x20 ADD SWAP2 POP POP PUSH1 0x40 MLOAD DUP1 SWAP2 SUB SWAP1 LOG1 PUSH2 0xA62 JUMP JUMPDEST PUSH32 0xCF34EF537AC33EE1AC626CA1587A0A7E8E51561E5514F8CB36AFA1C5102B3BAB PUSH1 0x40 MLOAD DUP1 DUP1 PUSH1 0x20 ADD DUP3 DUP2 SUB DUP3 MSTORE PUSH1 0x11 DUP2 MSTORE PUSH1 0x20 ADD DUP1 PUSH32 0x5072696365206E6F742075706461746564000000000000000000000000000000 DUP2 MSTORE POP PUSH1 0x20 ADD SWAP2 POP POP PUSH1 0x40 MLOAD DUP1 SWAP2 SUB SWAP1 LOG1 JUMPDEST POP POP POP POP JUMP JUMPDEST PUSH1 0x0 PUSH32 0x0 SWAP1 POP SWAP1 JUMP JUMPDEST PUSH32 0x0 DUP2 JUMP JUMPDEST PUSH1 0xA DUP2 JUMP JUMPDEST PUSH1 0x0 PUSH32 0x0 SWAP1 POP SWAP1 JUMP JUMPDEST PUSH1 0x0 PUSH32 0x0 SWAP1 POP SWAP1 JUMP JUMPDEST PUSH32 0x0 DUP2 JUMP JUMPDEST PUSH1 0x0 PUSH1 0x5 PUSH1 0x0 ADD SLOAD EQ ISZERO PUSH2 0xB97 JUMPI PUSH1 0xA PUSH1 0x0 ADD SLOAD PUSH1 0x5 PUSH1 0x0 ADD DUP2 SWAP1 SSTORE POP PUSH1 0xA PUSH1 0x1 ADD SLOAD PUSH1 0x5 PUSH1 0x1 ADD DUP2 SWAP1 SSTORE POP PUSH1 0xA PUSH1 0x2 ADD PUSH1 0x0 SWAP1 SLOAD SWAP1 PUSH2 0x100 EXP SWAP1 DIV PUSH4 0xFFFFFFFF AND PUSH1 0x5 PUSH1 0x2 ADD PUSH1 0x0 PUSH2 0x100 EXP DUP2 SLOAD DUP2 PUSH4 0xFFFFFFFF MUL NOT AND SWAP1 DUP4 PUSH4 0xFFFFFFFF AND MUL OR SWAP1 SSTORE POP PUSH2 0xE53 JUMP JUMPDEST PUSH1 0x0 PUSH1 0x5 PUSH1 0x2 ADD PUSH1 0x0 SWAP1 SLOAD SWAP1 PUSH2 0x100 EXP SWAP1 DIV PUSH4 0xFFFFFFFF AND PUSH1 0xA PUSH1 0x2 ADD PUSH1 0x0 SWAP1 SLOAD SWAP1 PUSH2 0x100 EXP SWAP1 DIV PUSH4 0xFFFFFFFF AND SUB SWAP1 POP PUSH1 0xA DUP2 PUSH4 0xFFFFFFFF AND LT PUSH2 0xDE8 JUMPI PUSH1 0x40 MLOAD DUP1 PUSH1 0x20 ADD PUSH1 0x40 MSTORE DUP1 DUP3 PUSH4 0xFFFFFFFF AND PUSH1 0x5 PUSH1 0x0 ADD SLOAD PUSH1 0xA PUSH1 0x0 ADD SLOAD SUB DUP2 PUSH2 0xBFC JUMPI INVALID JUMPDEST DIV PUSH28 0xFFFFFFFFFFFFFFFFFFFFFFFFFFFFFFFFFFFFFFFFFFFFFFFFFFFFFFFF AND DUP2 MSTORE POP PUSH1 0x5 PUSH1 0x3 ADD PUSH1 0x0 DUP3 ADD MLOAD DUP2 PUSH1 0x0 ADD PUSH1 0x0 PUSH2 0x100 EXP DUP2 SLOAD DUP2 PUSH28 0xFFFFFFFFFFFFFFFFFFFFFFFFFFFFFFFFFFFFFFFFFFFFFFFFFFFFFFFF MUL NOT AND SWAP1 DUP4 PUSH28 0xFFFFFFFFFFFFFFFFFFFFFFFFFFFFFFFFFFFFFFFFFFFFFFFFFFFFFFFF AND MUL OR SWAP1 SSTORE POP SWAP1 POP POP PUSH1 0x40 MLOAD DUP1 PUSH1 0x20 ADD PUSH1 0x40 MSTORE DUP1 DUP3 PUSH4 0xFFFFFFFF AND PUSH1 0x5 PUSH1 0x1 ADD SLOAD PUSH1 0xA PUSH1 0x1 ADD SLOAD SUB DUP2 PUSH2 0xCA3 JUMPI INVALID JUMPDEST DIV PUSH28 0xFFFFFFFFFFFFFFFFFFFFFFFFFFFFFFFFFFFFFFFFFFFFFFFFFFFFFFFF AND DUP2 MSTORE POP PUSH1 0x5 PUSH1 0x4 ADD PUSH1 0x0 DUP3 ADD MLOAD DUP2 PUSH1 0x0 ADD PUSH1 0x0 PUSH2 0x100 EXP DUP2 SLOAD DUP2 PUSH28 0xFFFFFFFFFFFFFFFFFFFFFFFFFFFFFFFFFFFFFFFFFFFFFFFFFFFFFFFF MUL NOT AND SWAP1 DUP4 PUSH28 0xFFFFFFFFFFFFFFFFFFFFFFFFFFFFFFFFFFFFFFFFFFFFFFFFFFFFFFFF AND MUL OR SWAP1 SSTORE POP SWAP1 POP POP PUSH1 0xA PUSH1 0x0 ADD SLOAD PUSH1 0x5 PUSH1 0x0 ADD DUP2 SWAP1 SSTORE POP PUSH1 0xA PUSH1 0x1 ADD SLOAD PUSH1 0x5 PUSH1 0x1 ADD DUP2 SWAP1 SSTORE POP PUSH1 0xA PUSH1 0x2 ADD PUSH1 0x0 SWAP1 SLOAD SWAP1 PUSH2 0x100 EXP SWAP1 DIV PUSH4 0xFFFFFFFF AND PUSH1 0x5 PUSH1 0x2 ADD PUSH1 0x0 PUSH2 0x100 EXP DUP2 SLOAD DUP2 PUSH4 0xFFFFFFFF MUL NOT AND SWAP1 DUP4 PUSH4 0xFFFFFFFF AND MUL OR SWAP1 SSTORE POP PUSH32 0xCF34EF537AC33EE1AC626CA1587A0A7E8E51561E5514F8CB36AFA1C5102B3BAB PUSH1 0x40 MLOAD DUP1 DUP1 PUSH1 0x20 ADD DUP3 DUP2 SUB DUP3 MSTORE PUSH1 0x12 DUP2 MSTORE PUSH1 0x20 ADD DUP1 PUSH32 0x5175616E74697469657320557064617465640000000000000000000000000000 DUP2 MSTORE POP PUSH1 0x20 ADD SWAP2 POP POP PUSH1 0x40 MLOAD DUP1 SWAP2 SUB SWAP1 LOG1 PUSH2 0xE51 JUMP JUMPDEST PUSH32 0xCF34EF537AC33EE1AC626CA1587A0A7E8E51561E5514F8CB36AFA1C5102B3BAB PUSH1 0x40 MLOAD DUP1 DUP1 PUSH1 0x20 ADD DUP3 DUP2 SUB DUP3 MSTORE PUSH1 0x16 DUP2 MSTORE PUSH1 0x20 ADD DUP1 PUSH32 0x5175616E746974696573204E6F74205570646174656400000000000000000000 DUP2 MSTORE POP PUSH1 0x20 ADD SWAP2 POP POP PUSH1 0x40 MLOAD DUP1 SWAP2 SUB SWAP1 LOG1 JUMPDEST POP JUMPDEST JUMP JUMPDEST PUSH2 0xE5D PUSH2 0x16B3 JUMP JUMPDEST PUSH1 0x0 DUP1 SWAP1 POP PUSH1 0x0 DUP4 EQ DUP1 PUSH2 0xEC2 JUMPI POP DUP4 PUSH1 0x0 ADD MLOAD PUSH28 0xFFFFFFFFFFFFFFFFFFFFFFFFFFFFFFFFFFFFFFFFFFFFFFFFFFFFFFFF AND DUP4 DUP5 DUP7 PUSH1 0x0 ADD MLOAD PUSH28 0xFFFFFFFFFFFFFFFFFFFFFFFFFFFFFFFFFFFFFFFFFFFFFFFFFFFFFFFF AND MUL SWAP3 POP DUP3 DUP2 PUSH2 0xEBF JUMPI INVALID JUMPDEST DIV EQ JUMPDEST PUSH2 0xF34 JUMPI PUSH1 0x40 MLOAD PUSH32 0x8C379A000000000000000000000000000000000000000000000000000000000 DUP2 MSTORE PUSH1 0x4 ADD DUP1 DUP1 PUSH1 0x20 ADD DUP3 DUP2 SUB DUP3 MSTORE PUSH1 0x19 DUP2 MSTORE PUSH1 0x20 ADD DUP1 PUSH32 0x4669786564506F696E743A3A6D756C3A206F766572666C6F7700000000000000 DUP2 MSTORE POP PUSH1 0x20 ADD SWAP2 POP POP PUSH1 0x40 MLOAD DUP1 SWAP2 SUB SWAP1 REVERT JUMPDEST PUSH1 0x40 MLOAD DUP1 PUSH1 0x20 ADD PUSH1 0x40 MSTORE DUP1 DUP3 DUP2 MSTORE POP SWAP2 POP POP SWAP3 SWAP2 POP POP JUMP JUMPDEST PUSH1 0x0 PUSH1 0x70 PUSH1 0xFF AND DUP3 PUSH1 0x0 ADD MLOAD SWAP1 SHR SWAP1 POP SWAP2 SWAP1 POP JUMP JUMPDEST PUSH1 0x0 DUP1 PUSH1 0x0 PUSH2 0xF6E PUSH2 0x11EC JUMP JUMPDEST SWAP1 POP DUP4 PUSH20 0xFFFFFFFFFFFFFFFFFFFFFFFFFFFFFFFFFFFFFFFF AND PUSH4 0x5909C0D5 PUSH1 0x40 MLOAD DUP2 PUSH4 0xFFFFFFFF AND PUSH1 0xE0 SHL DUP2 MSTORE PUSH1 0x4 ADD PUSH1 0x20 PUSH1 0x40 MLOAD DUP1 DUP4 SUB DUP2 DUP7 DUP1 EXTCODESIZE ISZERO DUP1 ISZERO PUSH2 0xFB6 JUMPI PUSH1 0x0 DUP1 REVERT JUMPDEST POP GAS STATICCALL ISZERO DUP1 ISZERO PUSH2 0xFCA JUMPI RETURNDATASIZE PUSH1 0x0 DUP1 RETURNDATACOPY RETURNDATASIZE PUSH1 0x0 REVERT JUMPDEST POP POP POP POP PUSH1 0x40 MLOAD RETURNDATASIZE PUSH1 0x20 DUP2 LT ISZERO PUSH2 0xFE0 JUMPI PUSH1 0x0 DUP1 REVERT JUMPDEST DUP2 ADD SWAP1 DUP1 DUP1 MLOAD SWAP1 PUSH1 0x20 ADD SWAP1 SWAP3 SWAP2 SWAP1 POP POP POP SWAP3 POP DUP4 PUSH20 0xFFFFFFFFFFFFFFFFFFFFFFFFFFFFFFFFFFFFFFFF AND PUSH4 0x5A3D5493 PUSH1 0x40 MLOAD DUP2 PUSH4 0xFFFFFFFF AND PUSH1 0xE0 SHL DUP2 MSTORE PUSH1 0x4 ADD PUSH1 0x20 PUSH1 0x40 MLOAD DUP1 DUP4 SUB DUP2 DUP7 DUP1 EXTCODESIZE ISZERO DUP1 ISZERO PUSH2 0x1039 JUMPI PUSH1 0x0 DUP1 REVERT JUMPDEST POP GAS STATICCALL ISZERO DUP1 ISZERO PUSH2 0x104D JUMPI RETURNDATASIZE PUSH1 0x0 DUP1 RETURNDATACOPY RETURNDATASIZE PUSH1 0x0 REVERT JUMPDEST POP POP POP POP PUSH1 0x40 MLOAD RETURNDATASIZE PUSH1 0x20 DUP2 LT ISZERO PUSH2 0x1063 JUMPI PUSH1 0x0 DUP1 REVERT JUMPDEST DUP2 ADD SWAP1 DUP1 DUP1 MLOAD SWAP1 PUSH1 0x20 ADD SWAP1 SWAP3 SWAP2 SWAP1 POP POP POP SWAP2 POP PUSH1 0x0 DUP1 PUSH1 0x0 DUP7 PUSH20 0xFFFFFFFFFFFFFFFFFFFFFFFFFFFFFFFFFFFFFFFF AND PUSH4 0x902F1AC PUSH1 0x40 MLOAD DUP2 PUSH4 0xFFFFFFFF AND PUSH1 0xE0 SHL DUP2 MSTORE PUSH1 0x4 ADD PUSH1 0x60 PUSH1 0x40 MLOAD DUP1 DUP4 SUB DUP2 DUP7 DUP1 EXTCODESIZE ISZERO DUP1 ISZERO PUSH2 0x10C1 JUMPI PUSH1 0x0 DUP1 REVERT JUMPDEST POP GAS STATICCALL ISZERO DUP1 ISZERO PUSH2 0x10D5 JUMPI RETURNDATASIZE PUSH1 0x0 DUP1 RETURNDATACOPY RETURNDATASIZE PUSH1 0x0 REVERT JUMPDEST POP POP POP POP PUSH1 0x40 MLOAD RETURNDATASIZE PUSH1 0x60 DUP2 LT ISZERO PUSH2 0x10EB JUMPI PUSH1 0x0 DUP1 REVERT JUMPDEST DUP2 ADD SWAP1 DUP1 DUP1 MLOAD SWAP1 PUSH1 0x20 ADD SWAP1 SWAP3 SWAP2 SWAP1 DUP1 MLOAD SWAP1 PUSH1 0x20 ADD SWAP1 SWAP3 SWAP2 SWAP1 DUP1 MLOAD SWAP1 PUSH1 0x20 ADD SWAP1 SWAP3 SWAP2 SWAP1 POP POP POP SWAP3 POP SWAP3 POP SWAP3 POP DUP4 PUSH4 0xFFFFFFFF AND DUP2 PUSH4 0xFFFFFFFF AND EQ PUSH2 0x11E2 JUMPI PUSH1 0x0 DUP2 DUP6 SUB SWAP1 POP DUP1 PUSH4 0xFFFFFFFF AND PUSH2 0x1161 DUP5 PUSH14 0xFFFFFFFFFFFFFFFFFFFFFFFFFFFF AND DUP7 PUSH14 0xFFFFFFFFFFFFFFFFFFFFFFFFFFFF AND PUSH2 0x1202 JUMP JUMPDEST PUSH1 0x0 ADD MLOAD PUSH28 0xFFFFFFFFFFFFFFFFFFFFFFFFFFFFFFFFFFFFFFFFFFFFFFFFFFFFFFFF AND MUL DUP8 ADD SWAP7 POP DUP1 PUSH4 0xFFFFFFFF AND PUSH2 0x11B9 DUP6 PUSH14 0xFFFFFFFFFFFFFFFFFFFFFFFFFFFF AND DUP6 PUSH14 0xFFFFFFFFFFFFFFFFFFFFFFFFFFFF AND PUSH2 0x1202 JUMP JUMPDEST PUSH1 0x0 ADD MLOAD PUSH28 0xFFFFFFFFFFFFFFFFFFFFFFFFFFFFFFFFFFFFFFFFFFFFFFFFFFFFFFFF AND MUL DUP7 ADD SWAP6 POP POP JUMPDEST POP POP POP SWAP2 SWAP4 SWAP1 SWAP3 POP JUMP JUMPDEST PUSH1 0x0 PUSH5 0x100000000 TIMESTAMP DUP2 PUSH2 0x11FC JUMPI INVALID JUMPDEST MOD SWAP1 POP SWAP1 JUMP JUMPDEST PUSH2 0x120A PUSH2 0x16C6 JUMP JUMPDEST PUSH1 0x0 DUP3 GT PUSH2 0x1263 JUMPI PUSH1 0x40 MLOAD PUSH32 0x8C379A000000000000000000000000000000000000000000000000000000000 DUP2 MSTORE PUSH1 0x4 ADD DUP1 DUP1 PUSH1 0x20 ADD DUP3 DUP2 SUB DUP3 MSTORE PUSH1 0x26 DUP2 MSTORE PUSH1 0x20 ADD DUP1 PUSH2 0x16F8 PUSH1 0x26 SWAP2 CODECOPY PUSH1 0x40 ADD SWAP2 POP POP PUSH1 0x40 MLOAD DUP1 SWAP2 SUB SWAP1 REVERT JUMPDEST PUSH1 0x0 DUP4 EQ ISZERO PUSH2 0x12A1 JUMPI PUSH1 0x40 MLOAD DUP1 PUSH1 0x20 ADD PUSH1 0x40 MSTORE DUP1 PUSH1 0x0 PUSH28 0xFFFFFFFFFFFFFFFFFFFFFFFFFFFFFFFFFFFFFFFFFFFFFFFFFFFFFFFF AND DUP2 MSTORE POP SWAP1 POP PUSH2 0x14DD JUMP JUMPDEST PUSH32 0xFFFFFFFFFFFFFFFFFFFFFFFFFFFFFFFFFFFFFFFFFFFFFFFFFFFFFFFFFFFFFFFF PUSH18 0xFFFFFFFFFFFFFFFFFFFFFFFFFFFFFFFFFFFF AND DUP4 GT PUSH2 0x13DA JUMPI PUSH1 0x0 DUP3 PUSH1 0x70 PUSH1 0xFF AND DUP6 SWAP1 SHL DUP2 PUSH2 0x12EE JUMPI INVALID JUMPDEST DIV SWAP1 POP PUSH32 0xFFFFFFFFFFFFFFFFFFFFFFFFFFFFFFFFFFFFFFFFFFFFFFFFFFFFFFFFFFFFFFFF PUSH28 0xFFFFFFFFFFFFFFFFFFFFFFFFFFFFFFFFFFFFFFFFFFFFFFFFFFFFFFFF AND DUP2 GT ISZERO PUSH2 0x13A5 JUMPI PUSH1 0x40 MLOAD PUSH32 0x8C379A000000000000000000000000000000000000000000000000000000000 DUP2 MSTORE PUSH1 0x4 ADD DUP1 DUP1 PUSH1 0x20 ADD DUP3 DUP2 SUB DUP3 MSTORE PUSH1 0x1E DUP2 MSTORE PUSH1 0x20 ADD DUP1 PUSH32 0x4669786564506F696E743A3A6672616374696F6E3A206F766572666C6F770000 DUP2 MSTORE POP PUSH1 0x20 ADD SWAP2 POP POP PUSH1 0x40 MLOAD DUP1 SWAP2 SUB SWAP1 REVERT JUMPDEST PUSH1 0x40 MLOAD DUP1 PUSH1 0x20 ADD PUSH1 0x40 MSTORE DUP1 DUP3 PUSH28 0xFFFFFFFFFFFFFFFFFFFFFFFFFFFFFFFFFFFFFFFFFFFFFFFFFFFFFFFF AND DUP2 MSTORE POP SWAP2 POP POP PUSH2 0x14DD JUMP JUMPDEST PUSH1 0x0 PUSH2 0x13F6 DUP5 PUSH15 0x10000000000000000000000000000 DUP6 PUSH2 0x14E3 JUMP JUMPDEST SWAP1 POP PUSH32 0xFFFFFFFFFFFFFFFFFFFFFFFFFFFFFFFFFFFFFFFFFFFFFFFFFFFFFFFFFFFFFFFF PUSH28 0xFFFFFFFFFFFFFFFFFFFFFFFFFFFFFFFFFFFFFFFFFFFFFFFFFFFFFFFF AND DUP2 GT ISZERO PUSH2 0x14AC JUMPI PUSH1 0x40 MLOAD PUSH32 0x8C379A000000000000000000000000000000000000000000000000000000000 DUP2 MSTORE PUSH1 0x4 ADD DUP1 DUP1 PUSH1 0x20 ADD DUP3 DUP2 SUB DUP3 MSTORE PUSH1 0x1E DUP2 MSTORE PUSH1 0x20 ADD DUP1 PUSH32 0x4669786564506F696E743A3A6672616374696F6E3A206F766572666C6F770000 DUP2 MSTORE POP PUSH1 0x20 ADD SWAP2 POP POP PUSH1 0x40 MLOAD DUP1 SWAP2 SUB SWAP1 REVERT JUMPDEST PUSH1 0x40 MLOAD DUP1 PUSH1 0x20 ADD PUSH1 0x40 MSTORE DUP1 DUP3 PUSH28 0xFFFFFFFFFFFFFFFFFFFFFFFFFFFFFFFFFFFFFFFFFFFFFFFFFFFFFFFF AND DUP2 MSTORE POP SWAP2 POP POP JUMPDEST SWAP3 SWAP2 POP POP JUMP JUMPDEST PUSH1 0x0 DUP1 PUSH1 0x0 PUSH2 0x14F2 DUP7 DUP7 PUSH2 0x15C3 JUMP JUMPDEST SWAP2 POP SWAP2 POP PUSH1 0x0 DUP5 DUP1 PUSH2 0x1500 JUMPI INVALID JUMPDEST DUP7 DUP9 MULMOD SWAP1 POP DUP3 DUP2 GT ISZERO PUSH2 0x1514 JUMPI PUSH1 0x1 DUP3 SUB SWAP2 POP JUMPDEST DUP1 DUP4 SUB SWAP3 POP PUSH1 0x0 DUP3 EQ ISZERO PUSH2 0x1536 JUMPI DUP5 DUP4 DUP2 PUSH2 0x152B JUMPI INVALID JUMPDEST DIV SWAP4 POP POP POP POP PUSH2 0x15BC JUMP JUMPDEST DUP5 DUP3 LT PUSH2 0x15AB JUMPI PUSH1 0x40 MLOAD PUSH32 0x8C379A000000000000000000000000000000000000000000000000000000000 DUP2 MSTORE PUSH1 0x4 ADD DUP1 DUP1 PUSH1 0x20 ADD DUP3 DUP2 SUB DUP3 MSTORE PUSH1 0x1A DUP2 MSTORE PUSH1 0x20 ADD DUP1 PUSH32 0x46756C6C4D6174683A2046554C4C4449565F4F564552464C4F57000000000000 DUP2 MSTORE POP PUSH1 0x20 ADD SWAP2 POP POP PUSH1 0x40 MLOAD DUP1 SWAP2 SUB SWAP1 REVERT JUMPDEST PUSH2 0x15B6 DUP4 DUP4 DUP8 PUSH2 0x1616 JUMP JUMPDEST SWAP4 POP POP POP POP JUMPDEST SWAP4 SWAP3 POP POP POP JUMP JUMPDEST PUSH1 0x0 DUP1 PUSH1 0x0 PUSH32 0xFFFFFFFFFFFFFFFFFFFFFFFFFFFFFFFFFFFFFFFFFFFFFFFFFFFFFFFFFFFFFFFF DUP1 PUSH2 0x15F0 JUMPI INVALID JUMPDEST DUP5 DUP7 MULMOD SWAP1 POP DUP4 DUP6 MUL SWAP3 POP DUP3 DUP2 SUB SWAP2 POP DUP3 DUP2 LT ISZERO PUSH2 0x160E JUMPI PUSH1 0x1 DUP3 SUB SWAP2 POP JUMPDEST POP SWAP3 POP SWAP3 SWAP1 POP JUMP JUMPDEST PUSH1 0x0 DUP1 DUP3 PUSH1 0x0 SUB DUP4 AND SWAP1 POP DUP1 DUP4 DUP2 PUSH2 0x162A JUMPI INVALID JUMPDEST DIV SWAP3 POP DUP1 DUP6 DUP2 PUSH2 0x1636 JUMPI INVALID JUMPDEST DIV SWAP5 POP PUSH1 0x1 DUP2 DUP3 PUSH1 0x0 SUB DUP2 PUSH2 0x1647 JUMPI INVALID JUMPDEST DIV ADD DUP5 MUL DUP6 ADD SWAP5 POP PUSH1 0x0 PUSH1 0x1 SWAP1 POP DUP1 DUP5 MUL PUSH1 0x2 SUB DUP2 MUL SWAP1 POP DUP1 DUP5 MUL PUSH1 0x2 SUB DUP2 MUL SWAP1 POP DUP1 DUP5 MUL PUSH1 0x2 SUB DUP2 MUL SWAP1 POP DUP1 DUP5 MUL PUSH1 0x2 SUB DUP2 MUL SWAP1 POP DUP1 DUP5 MUL PUSH1 0x2 SUB DUP2 MUL SWAP1 POP DUP1 DUP5 MUL PUSH1 0x2 SUB DUP2 MUL SWAP1 POP DUP1 DUP5 MUL PUSH1 0x2 SUB DUP2 MUL SWAP1 POP DUP1 DUP5 MUL PUSH1 0x2 SUB DUP2 MUL SWAP1 POP DUP1 DUP7 MUL SWAP3 POP POP POP SWAP4 SWAP3 POP POP POP JUMP JUMPDEST PUSH1 0x40 MLOAD DUP1 PUSH1 0x20 ADD PUSH1 0x40 MSTORE DUP1 PUSH1 0x0 DUP2 MSTORE POP SWAP1 JUMP JUMPDEST PUSH1 0x40 MLOAD DUP1 PUSH1 0x20 ADD PUSH1 0x40 MSTORE DUP1 PUSH1 0x0 PUSH28 0xFFFFFFFFFFFFFFFFFFFFFFFFFFFFFFFFFFFFFFFFFFFFFFFFFFFFFFFF AND DUP2 MSTORE POP SWAP1 JUMP INVALID CHAINID PUSH10 0x786564506F696E743A3A PUSH7 0x72616374696F6E GASPRICE KECCAK256 PUSH5 0x6976697369 PUSH16 0x6E206279207A65726FA2646970667358 0x22 SLT KECCAK256 LOG2 PUSH8 0xE27355E126FF5952 0xCE 0xD0 0xA7 0xE5 JUMP CALLVALUE 0x1E 0xEE PUSH20 0x61C97DCBEF1239FFD8A428ACCB64736F6C634300 MOD MOD STOP CALLER "
				},
				"gasEstimates": {
					"creation": {
						"codeDepositCost": "1194200",
						"executionCost": "infinite",
						"totalCost": "infinite"
					},
					"external": {
						"PERIOD()": "227",
						"consultPrices(address,uint256)": "infinite",
						"getPair()": "infinite",
						"getToken0()": "infinite",
						"getToken1()": "infinite",
						"pair()": "infinite",
						"token0()": "infinite",
						"token1()": "infinite",
						"trackCumulativePoolQuantity()": "infinite",
						"updatePrices()": "infinite",
						"updateQuantities()": "113005"
					}
				},
				"methodIdentifiers": {
					"PERIOD()": "b4d1d795",
					"consultPrices(address,uint256)": "3ac35585",
					"getPair()": "c1f1b1b5",
					"getToken0()": "ba94a315",
					"getToken1()": "6f26a710",
					"pair()": "a8aa1b31",
					"token0()": "0dfe1681",
					"token1()": "d21220a7",
					"trackCumulativePoolQuantity()": "49394411",
					"updatePrices()": "49dd1262",
					"updateQuantities()": "d36fc0ff"
				}
			},
			"storageLayout": {
				"storage": [
					{
						"astId": 2339,
						"contract": "contracts/Oracle.sol:Oracle",
						"label": "prices",
						"offset": 0,
						"slot": "0",
						"type": "t_struct(Prices)2319_storage"
					},
					{
						"astId": 2341,
						"contract": "contracts/Oracle.sol:Oracle",
						"label": "quantity",
						"offset": 0,
						"slot": "5",
						"type": "t_struct(Quantity)2337_storage"
					},
					{
						"astId": 2343,
						"contract": "contracts/Oracle.sol:Oracle",
						"label": "trackQuantity",
						"offset": 0,
						"slot": "10",
						"type": "t_struct(TrackQuantity)2326_storage"
					}
				],
				"types": {
					"t_struct(Prices)2319_storage": {
						"encoding": "inplace",
						"label": "struct Oracle.Prices",
						"members": [
							{
								"astId": 2310,
								"contract": "contracts/Oracle.sol:Oracle",
								"label": "price0CumulativeLast",
								"offset": 0,
								"slot": "0",
								"type": "t_uint256"
							},
							{
								"astId": 2312,
								"contract": "contracts/Oracle.sol:Oracle",
								"label": "price1CumulativeLast",
								"offset": 0,
								"slot": "1",
								"type": "t_uint256"
							},
							{
								"astId": 2314,
								"contract": "contracts/Oracle.sol:Oracle",
								"label": "blockTimestampLast",
								"offset": 0,
								"slot": "2",
								"type": "t_uint32"
							},
							{
								"astId": 2316,
								"contract": "contracts/Oracle.sol:Oracle",
								"label": "price0Average",
								"offset": 0,
								"slot": "3",
								"type": "t_struct(uq112x112)488_storage"
							},
							{
								"astId": 2318,
								"contract": "contracts/Oracle.sol:Oracle",
								"label": "price1Average",
								"offset": 0,
								"slot": "4",
								"type": "t_struct(uq112x112)488_storage"
							}
						],
						"numberOfBytes": "160"
					},
					"t_struct(Quantity)2337_storage": {
						"encoding": "inplace",
						"label": "struct Oracle.Quantity",
						"members": [
							{
								"astId": 2328,
								"contract": "contracts/Oracle.sol:Oracle",
								"label": "amount0CumulativeLast",
								"offset": 0,
								"slot": "0",
								"type": "t_uint256"
							},
							{
								"astId": 2330,
								"contract": "contracts/Oracle.sol:Oracle",
								"label": "amount1CumulativeLast",
								"offset": 0,
								"slot": "1",
								"type": "t_uint256"
							},
							{
								"astId": 2332,
								"contract": "contracts/Oracle.sol:Oracle",
								"label": "blockTimestampLast",
								"offset": 0,
								"slot": "2",
								"type": "t_uint32"
							},
							{
								"astId": 2334,
								"contract": "contracts/Oracle.sol:Oracle",
								"label": "amount0Average",
								"offset": 0,
								"slot": "3",
								"type": "t_struct(uq112x112)488_storage"
							},
							{
								"astId": 2336,
								"contract": "contracts/Oracle.sol:Oracle",
								"label": "amount1Average",
								"offset": 0,
								"slot": "4",
								"type": "t_struct(uq112x112)488_storage"
							}
						],
						"numberOfBytes": "160"
					},
					"t_struct(TrackQuantity)2326_storage": {
						"encoding": "inplace",
						"label": "struct Oracle.TrackQuantity",
						"members": [
							{
								"astId": 2321,
								"contract": "contracts/Oracle.sol:Oracle",
								"label": "amount0Cumulative",
								"offset": 0,
								"slot": "0",
								"type": "t_uint256"
							},
							{
								"astId": 2323,
								"contract": "contracts/Oracle.sol:Oracle",
								"label": "amount1Cumulative",
								"offset": 0,
								"slot": "1",
								"type": "t_uint256"
							},
							{
								"astId": 2325,
								"contract": "contracts/Oracle.sol:Oracle",
								"label": "blockTimestamp",
								"offset": 0,
								"slot": "2",
								"type": "t_uint32"
							}
						],
						"numberOfBytes": "96"
					},
					"t_struct(uq112x112)488_storage": {
						"encoding": "inplace",
						"label": "struct FixedPoint.uq112x112",
						"members": [
							{
								"astId": 487,
								"contract": "contracts/Oracle.sol:Oracle",
								"label": "_x",
								"offset": 0,
								"slot": "0",
								"type": "t_uint224"
							}
						],
						"numberOfBytes": "32"
					},
					"t_uint224": {
						"encoding": "inplace",
						"label": "uint224",
						"numberOfBytes": "28"
					},
					"t_uint256": {
						"encoding": "inplace",
						"label": "uint256",
						"numberOfBytes": "32"
					},
					"t_uint32": {
						"encoding": "inplace",
						"label": "uint32",
						"numberOfBytes": "4"
					}
				}
			},
			"userdoc": {
				"methods": {}
			}
		}
	}
}