{
	"contracts/Hook.sol": {
		"TransactionsAndHook": {
			"abi": [
				{
					"anonymous": false,
					"inputs": [
						{
							"indexed": false,
							"internalType": "string",
							"name": "message",
							"type": "string"
						}
					],
					"name": "Log",
					"type": "event"
				},
				{
					"inputs": [],
					"name": "ERC20Address",
					"outputs": [
						{
							"internalType": "address",
							"name": "",
							"type": "address"
						}
					],
					"stateMutability": "view",
					"type": "function"
				},
				{
					"inputs": [],
					"name": "POAPAddress",
					"outputs": [
						{
							"internalType": "address",
							"name": "",
							"type": "address"
						}
					],
					"stateMutability": "view",
					"type": "function"
				},
				{
					"inputs": [],
					"name": "WethAddress",
					"outputs": [
						{
							"internalType": "address",
							"name": "",
							"type": "address"
						}
					],
					"stateMutability": "view",
					"type": "function"
				},
				{
					"inputs": [],
					"name": "buyEth",
					"outputs": [
						{
							"internalType": "uint256",
							"name": "",
							"type": "uint256"
						}
					],
					"stateMutability": "view",
					"type": "function"
				},
				{
					"inputs": [],
					"name": "createTransfer",
					"outputs": [
						{
							"internalType": "bool",
							"name": "",
							"type": "bool"
						}
					],
					"stateMutability": "nonpayable",
					"type": "function"
				},
				{
					"inputs": [],
					"name": "crownNFTAddress",
					"outputs": [
						{
							"internalType": "address",
							"name": "",
							"type": "address"
						}
					],
					"stateMutability": "view",
					"type": "function"
				},
				{
					"inputs": [],
					"name": "getLastEthRecieved",
					"outputs": [
						{
							"internalType": "uint256",
							"name": "",
							"type": "uint256"
						}
					],
					"stateMutability": "view",
					"type": "function"
				},
				{
					"inputs": [],
					"name": "getWethBalance",
					"outputs": [
						{
							"internalType": "uint256",
							"name": "",
							"type": "uint256"
						}
					],
					"stateMutability": "nonpayable",
					"type": "function"
				},
				{
					"inputs": [],
					"name": "liquidityEth",
					"outputs": [
						{
							"internalType": "uint256",
							"name": "",
							"type": "uint256"
						}
					],
					"stateMutability": "view",
					"type": "function"
				},
				{
					"inputs": [],
					"name": "oracleAddress",
					"outputs": [
						{
							"internalType": "address",
							"name": "",
							"type": "address"
						}
					],
					"stateMutability": "view",
					"type": "function"
				},
				{
					"inputs": [
						{
							"internalType": "uint256",
							"name": "",
							"type": "uint256"
						}
					],
					"name": "path",
					"outputs": [
						{
							"internalType": "address",
							"name": "",
							"type": "address"
						}
					],
					"stateMutability": "view",
					"type": "function"
				},
				{
					"inputs": [],
					"name": "percentLiquidity",
					"outputs": [
						{
							"internalType": "uint256",
							"name": "",
							"type": "uint256"
						}
					],
					"stateMutability": "view",
					"type": "function"
				},
				{
					"inputs": [],
					"name": "superBuy",
					"outputs": [],
					"stateMutability": "payable",
					"type": "function"
				},
				{
					"inputs": [],
					"name": "totalRoyalties",
					"outputs": [
						{
							"internalType": "uint256",
							"name": "",
							"type": "uint256"
						}
					],
					"stateMutability": "view",
					"type": "function"
				},
				{
					"inputs": [
						{
							"internalType": "uint256",
							"name": "",
							"type": "uint256"
						}
					],
					"name": "transactionFromPOAPId",
					"outputs": [
						{
							"internalType": "uint256",
							"name": "POAPId",
							"type": "uint256"
						},
						{
							"internalType": "address",
							"name": "purchaser",
							"type": "address"
						},
						{
							"internalType": "bool",
							"name": "transactionInProgress",
							"type": "bool"
						},
						{
							"internalType": "uint256",
							"name": "receivedEth",
							"type": "uint256"
						},
						{
							"internalType": "bool",
							"name": "POAPreceived",
							"type": "bool"
						},
						{
							"internalType": "uint256",
							"name": "tokenValueOfPOAP",
							"type": "uint256"
						},
						{
							"internalType": "bool",
							"name": "POAPburned",
							"type": "bool"
						}
					],
					"stateMutability": "view",
					"type": "function"
				},
				{
					"inputs": [],
					"name": "uniswapPairAddress",
					"outputs": [
						{
							"internalType": "address",
							"name": "",
							"type": "address"
						}
					],
					"stateMutability": "view",
					"type": "function"
				},
				{
					"inputs": [],
					"name": "uniswapRouterAddress",
					"outputs": [
						{
							"internalType": "address",
							"name": "",
							"type": "address"
						}
					],
					"stateMutability": "view",
					"type": "function"
				},
				{
					"inputs": [
						{
							"internalType": "address",
							"name": "_address",
							"type": "address"
						}
					],
					"name": "updateERC20Address",
					"outputs": [],
					"stateMutability": "nonpayable",
					"type": "function"
				},
				{
					"inputs": [
						{
							"internalType": "address",
							"name": "_ERC20Address",
							"type": "address"
						}
					],
					"name": "withdraw",
					"outputs": [],
					"stateMutability": "nonpayable",
					"type": "function"
				},
				{
					"stateMutability": "payable",
					"type": "receive"
				}
			],
			"devdoc": {
				"kind": "dev",
				"methods": {},
				"version": 1
			},
			"evm": {
				"assembly": "    /* \"contracts/Hook.sol\":1217:9305  contract TransactionsAndHook {... */\n  mstore(0x40, 0x80)\n    /* \"contracts/Hook.sol\":1348:1390  0xB4FBF271143F4FBf7B91A5ded31805e42b2208d6 */\n  0xb4fbf271143f4fbf7b91a5ded31805e42b2208d6\n    /* \"contracts/Hook.sol\":1319:1390  address public WethAddress = 0xB4FBF271143F4FBf7B91A5ded31805e42b2208d6 */\n  0x00\n  dup1\n  0x0100\n  exp\n  dup2\n  sload\n  dup2\n  0xffffffffffffffffffffffffffffffffffffffff\n  mul\n  not\n  and\n  swap1\n  dup4\n  0xffffffffffffffffffffffffffffffffffffffff\n  and\n  mul\n  or\n  swap1\n  sstore\n  pop\n    /* \"contracts/Hook.sol\":1611:1661  address[] public path = [WethAddress,ERC20Address] */\n  mload(0x40)\n  dup1\n  0x40\n  add\n  0x40\n  mstore\n  dup1\n    /* \"contracts/Hook.sol\":1636:1647  WethAddress */\n  0x00\n  dup1\n  sload\n  swap1\n  0x0100\n  exp\n  swap1\n  div\n  0xffffffffffffffffffffffffffffffffffffffff\n  and\n    /* \"contracts/Hook.sol\":1611:1661  address[] public path = [WethAddress,ERC20Address] */\n  0xffffffffffffffffffffffffffffffffffffffff\n  and\n  0xffffffffffffffffffffffffffffffffffffffff\n  and\n  dup2\n  mstore\n  0x20\n  add\n    /* \"contracts/Hook.sol\":1648:1660  ERC20Address */\n  0x01\n  0x00\n  swap1\n  sload\n  swap1\n  0x0100\n  exp\n  swap1\n  div\n  0xffffffffffffffffffffffffffffffffffffffff\n  and\n    /* \"contracts/Hook.sol\":1611:1661  address[] public path = [WethAddress,ERC20Address] */\n  0xffffffffffffffffffffffffffffffffffffffff\n  and\n  0xffffffffffffffffffffffffffffffffffffffff\n  and\n  dup2\n  mstore\n  pop\n  0x07\n  swap1\n  0x02\n  tag_1\n  swap3\n  swap2\n  swap1\n  tag_2\n  jump\t// in\ntag_1:\n  pop\n    /* \"contracts/Hook.sol\":1686:1697  POAPAddress */\n  0x05\n  0x00\n  swap1\n  sload\n  swap1\n  0x0100\n  exp\n  swap1\n  div\n  0xffffffffffffffffffffffffffffffffffffffff\n  and\n    /* \"contracts/Hook.sol\":1667:1698  iPOAP POAP = iPOAP(POAPAddress) */\n  0x08\n  exp(0x0100, 0x00)\n  dup2\n  sload\n  dup2\n  0xffffffffffffffffffffffffffffffffffffffff\n  mul\n  not\n  and\n  swap1\n  dup4\n  0xffffffffffffffffffffffffffffffffffffffff\n  and\n  mul\n  or\n  swap1\n  sstore\n  pop\n    /* \"contracts/Hook.sol\":1729:1740  WethAddress */\n  0x00\n  dup1\n  sload\n  swap1\n  0x0100\n  exp\n  swap1\n  div\n  0xffffffffffffffffffffffffffffffffffffffff\n  and\n    /* \"contracts/Hook.sol\":1704:1741  WethLike WETH = WethLike(WethAddress) */\n  0x09\n  exp(0x0100, 0x00)\n  dup2\n  sload\n  dup2\n  0xffffffffffffffffffffffffffffffffffffffff\n  mul\n  not\n  and\n  swap1\n  dup4\n  0xffffffffffffffffffffffffffffffffffffffff\n  and\n  mul\n  or\n  swap1\n  sstore\n  pop\n    /* \"contracts/Hook.sol\":1772:1785  oracleAddress */\n  0x03\n  0x00\n  swap1\n  sload\n  swap1\n  0x0100\n  exp\n  swap1\n  div\n  0xffffffffffffffffffffffffffffffffffffffff\n  and\n    /* \"contracts/Hook.sol\":1747:1786  iOracle Oracle = iOracle(oracleAddress) */\n  0x0a\n  exp(0x0100, 0x00)\n  dup2\n  sload\n  dup2\n  0xffffffffffffffffffffffffffffffffffffffff\n  mul\n  not\n  and\n  swap1\n  dup4\n  0xffffffffffffffffffffffffffffffffffffffff\n  and\n  mul\n  or\n  swap1\n  sstore\n  pop\n    /* \"contracts/Hook.sol\":1846:1866  uniswapRouterAddress */\n  0x06\n  0x00\n  swap1\n  sload\n  swap1\n  0x0100\n  exp\n  swap1\n  div\n  0xffffffffffffffffffffffffffffffffffffffff\n  and\n    /* \"contracts/Hook.sol\":1792:1867  IUniswapV2Router02 UniswapRouter = IUniswapV2Router02(uniswapRouterAddress) */\n  0x0b\n  exp(0x0100, 0x00)\n  dup2\n  sload\n  dup2\n  0xffffffffffffffffffffffffffffffffffffffff\n  mul\n  not\n  and\n  swap1\n  dup4\n  0xffffffffffffffffffffffffffffffffffffffff\n  and\n  mul\n  or\n  swap1\n  sstore\n  pop\n    /* \"contracts/Hook.sol\":1217:9305  contract TransactionsAndHook {... */\n  callvalue\n  dup1\n  iszero\n  tag_3\n  jumpi\n  0x00\n  dup1\n  revert\ntag_3:\n  pop\n  jump(tag_4)\ntag_2:\n  dup3\n  dup1\n  sload\n  dup3\n  dup3\n  sstore\n  swap1\n  0x00\n  mstore\n  keccak256(0x00, 0x20)\n  swap1\n  dup2\n  add\n  swap3\n  dup3\n  iszero\n  tag_5\n  jumpi\n  swap2\n  0x20\n  mul\n  dup3\n  add\ntag_6:\n  dup3\n  dup2\n  gt\n  iszero\n  tag_7\n  jumpi\n  dup3\n  mload\n  dup3\n  exp(0x0100, 0x00)\n  dup2\n  sload\n  dup2\n  0xffffffffffffffffffffffffffffffffffffffff\n  mul\n  not\n  and\n  swap1\n  dup4\n  0xffffffffffffffffffffffffffffffffffffffff\n  and\n  mul\n  or\n  swap1\n  sstore\n  pop\n  swap2\n  0x20\n  add\n  swap2\n  swap1\n  0x01\n  add\n  swap1\n  jump(tag_6)\ntag_7:\ntag_5:\n  pop\n  swap1\n  pop\n  tag_8\n  swap2\n  swap1\n  tag_9\n  jump\t// in\ntag_8:\n  pop\n  swap1\n  jump\t// out\ntag_9:\ntag_10:\n  dup1\n  dup3\n  gt\n  iszero\n  tag_11\n  jumpi\n  0x00\n  dup2\n  0x00\n  swap1\n  sstore\n  pop\n  0x01\n  add\n  jump(tag_10)\ntag_11:\n  pop\n  swap1\n  jump\t// out\ntag_4:\n  dataSize(sub_0)\n  dup1\n  dataOffset(sub_0)\n  0x00\n  codecopy\n  0x00\n  return\nstop\n\nsub_0: assembly {\n        /* \"contracts/Hook.sol\":1217:9305  contract TransactionsAndHook {... */\n      mstore(0x40, 0x80)\n      jumpi(tag_1, lt(calldatasize, 0x04))\n      shr(0xe0, calldataload(0x00))\n      dup1\n      0x9dd58b58\n      gt\n      tag_22\n      jumpi\n      dup1\n      0xaef75107\n      gt\n      tag_23\n      jumpi\n      dup1\n      0xaef75107\n      eq\n      tag_17\n      jumpi\n      dup1\n      0xaf6d1fe4\n      eq\n      tag_18\n      jumpi\n      dup1\n      0xbd3733fe\n      eq\n      tag_19\n      jumpi\n      dup1\n      0xbfd9ea5b\n      eq\n      tag_20\n      jumpi\n      dup1\n      0xc1f2e5f1\n      eq\n      tag_21\n      jumpi\n      jump(tag_2)\n    tag_23:\n      dup1\n      0x9dd58b58\n      eq\n      tag_12\n      jumpi\n      dup1\n      0xa09ede07\n      eq\n      tag_13\n      jumpi\n      dup1\n      0xa6021ace\n      eq\n      tag_14\n      jumpi\n      dup1\n      0xa785a3d8\n      eq\n      tag_15\n      jumpi\n      dup1\n      0xa89ae4ba\n      eq\n      tag_16\n      jumpi\n      jump(tag_2)\n    tag_22:\n      dup1\n      0x4cfd1ba5\n      gt\n      tag_24\n      jumpi\n      dup1\n      0x4cfd1ba5\n      eq\n      tag_7\n      jumpi\n      dup1\n      0x51cff8d9\n      eq\n      tag_8\n      jumpi\n      dup1\n      0x777b506f\n      eq\n      tag_9\n      jumpi\n      dup1\n      0x86d02608\n      eq\n      tag_10\n      jumpi\n      dup1\n      0x966824a3\n      eq\n      tag_11\n      jumpi\n      jump(tag_2)\n    tag_24:\n      dup1\n      0x01ac552d\n      eq\n      tag_3\n      jumpi\n      dup1\n      0x1b017fde\n      eq\n      tag_4\n      jumpi\n      dup1\n      0x20ca3c7f\n      eq\n      tag_5\n      jumpi\n      dup1\n      0x2c4c3c1b\n      eq\n      tag_6\n      jumpi\n      jump(tag_2)\n    tag_1:\n      jumpi(tag_2, calldatasize)\n        /* \"contracts/Hook.sol\":8688:8709  transactionFromPOAPId */\n      0x0c\n        /* \"contracts/Hook.sol\":8688:8729  transactionFromPOAPId[POAPIds.length - 1] */\n      0x00\n        /* \"contracts/Hook.sol\":8727:8728  1 */\n      0x01\n        /* \"contracts/Hook.sol\":8710:8717  POAPIds */\n      0x0d\n        /* \"contracts/Hook.sol\":8710:8724  POAPIds.length */\n      dup1\n      sload\n      swap1\n      pop\n        /* \"contracts/Hook.sol\":8710:8728  POAPIds.length - 1 */\n      tag_27\n      swap2\n      swap1\n      tag_28\n      jump\t// in\n    tag_27:\n        /* \"contracts/Hook.sol\":8688:8729  transactionFromPOAPId[POAPIds.length - 1] */\n      dup2\n      mstore\n      0x20\n      add\n      swap1\n      dup2\n      mstore\n      0x20\n      add\n      0x00\n      keccak256\n        /* \"contracts/Hook.sol\":8688:8751  transactionFromPOAPId[POAPIds.length - 1].transactionInProgress */\n      0x01\n      add\n      0x14\n      swap1\n      sload\n      swap1\n      0x0100\n      exp\n      swap1\n      div\n      0xff\n      and\n        /* \"contracts/Hook.sol\":8680:8790  require(transactionFromPOAPId[POAPIds.length - 1].transactionInProgress, 'latest transaction not in progress') */\n      tag_29\n      jumpi\n      mload(0x40)\n      0x08c379a000000000000000000000000000000000000000000000000000000000\n      dup2\n      mstore\n      0x04\n      add\n      tag_30\n      swap1\n      tag_31\n      jump\t// in\n    tag_30:\n      mload(0x40)\n      dup1\n      swap2\n      sub\n      swap1\n      revert\n    tag_29:\n        /* \"contracts/Hook.sol\":8908:8929  transactionFromPOAPId */\n      0x0c\n        /* \"contracts/Hook.sol\":8908:8948  transactionFromPOAPId[POAPIds.length -2] */\n      0x00\n        /* \"contracts/Hook.sol\":8946:8947  2 */\n      0x02\n        /* \"contracts/Hook.sol\":8930:8937  POAPIds */\n      0x0d\n        /* \"contracts/Hook.sol\":8930:8944  POAPIds.length */\n      dup1\n      sload\n      swap1\n      pop\n        /* \"contracts/Hook.sol\":8930:8947  POAPIds.length -2 */\n      tag_32\n      swap2\n      swap1\n      tag_28\n      jump\t// in\n    tag_32:\n        /* \"contracts/Hook.sol\":8908:8948  transactionFromPOAPId[POAPIds.length -2] */\n      dup2\n      mstore\n      0x20\n      add\n      swap1\n      dup2\n      mstore\n      0x20\n      add\n      0x00\n      keccak256\n        /* \"contracts/Hook.sol\":8908:8960  transactionFromPOAPId[POAPIds.length -2].receivedEth */\n      0x02\n      add\n      sload\n        /* \"contracts/Hook.sol\":8902:8904  10 */\n      0x0a\n        /* \"contracts/Hook.sol\":8898:8900  13 */\n      0x0d\n        /* \"contracts/Hook.sol\":8886:8895  msg.value */\n      callvalue\n        /* \"contracts/Hook.sol\":8886:8900  msg.value * 13 */\n      tag_33\n      swap2\n      swap1\n      tag_34\n      jump\t// in\n    tag_33:\n        /* \"contracts/Hook.sol\":8885:8904  (msg.value * 13)/10 */\n      tag_35\n      swap2\n      swap1\n      tag_36\n      jump\t// in\n    tag_35:\n        /* \"contracts/Hook.sol\":8884:8960  ((msg.value * 13)/10) > transactionFromPOAPId[POAPIds.length -2].receivedEth */\n      gt\n        /* \"contracts/Hook.sol\":8876:8989  require(((msg.value * 13)/10) > transactionFromPOAPId[POAPIds.length -2].receivedEth, 'eth sent not high enough') */\n      tag_37\n      jumpi\n      mload(0x40)\n      0x08c379a000000000000000000000000000000000000000000000000000000000\n      dup2\n      mstore\n      0x04\n      add\n      tag_38\n      swap1\n      tag_39\n      jump\t// in\n    tag_38:\n      mload(0x40)\n      dup1\n      swap2\n      sub\n      swap1\n      revert\n    tag_37:\n        /* \"contracts/Hook.sol\":9097:9106  msg.value */\n      callvalue\n        /* \"contracts/Hook.sol\":9041:9062  transactionFromPOAPId */\n      0x0c\n        /* \"contracts/Hook.sol\":9041:9082  transactionFromPOAPId[POAPIds.length - 1] */\n      0x00\n        /* \"contracts/Hook.sol\":9080:9081  1 */\n      0x01\n        /* \"contracts/Hook.sol\":9063:9070  POAPIds */\n      0x0d\n        /* \"contracts/Hook.sol\":9063:9077  POAPIds.length */\n      dup1\n      sload\n      swap1\n      pop\n        /* \"contracts/Hook.sol\":9063:9081  POAPIds.length - 1 */\n      tag_40\n      swap2\n      swap1\n      tag_28\n      jump\t// in\n    tag_40:\n        /* \"contracts/Hook.sol\":9041:9082  transactionFromPOAPId[POAPIds.length - 1] */\n      dup2\n      mstore\n      0x20\n      add\n      swap1\n      dup2\n      mstore\n      0x20\n      add\n      0x00\n      keccak256\n        /* \"contracts/Hook.sol\":9041:9094  transactionFromPOAPId[POAPIds.length - 1].receivedEth */\n      0x02\n      add\n        /* \"contracts/Hook.sol\":9041:9106  transactionFromPOAPId[POAPIds.length - 1].receivedEth = msg.value */\n      dup2\n      swap1\n      sstore\n      pop\n        /* \"contracts/Hook.sol\":9228:9233  false */\n      0x00\n        /* \"contracts/Hook.sol\":9162:9183  transactionFromPOAPId */\n      0x0c\n        /* \"contracts/Hook.sol\":9162:9203  transactionFromPOAPId[POAPIds.length - 1] */\n      0x00\n        /* \"contracts/Hook.sol\":9201:9202  1 */\n      0x01\n        /* \"contracts/Hook.sol\":9184:9191  POAPIds */\n      0x0d\n        /* \"contracts/Hook.sol\":9184:9198  POAPIds.length */\n      dup1\n      sload\n      swap1\n      pop\n        /* \"contracts/Hook.sol\":9184:9202  POAPIds.length - 1 */\n      tag_41\n      swap2\n      swap1\n      tag_28\n      jump\t// in\n    tag_41:\n        /* \"contracts/Hook.sol\":9162:9203  transactionFromPOAPId[POAPIds.length - 1] */\n      dup2\n      mstore\n      0x20\n      add\n      swap1\n      dup2\n      mstore\n      0x20\n      add\n      0x00\n      keccak256\n        /* \"contracts/Hook.sol\":9162:9225  transactionFromPOAPId[POAPIds.length - 1].transactionInProgress */\n      0x01\n      add\n      0x14\n        /* \"contracts/Hook.sol\":9162:9233  transactionFromPOAPId[POAPIds.length - 1].transactionInProgress = false */\n      0x0100\n      exp\n      dup2\n      sload\n      dup2\n      0xff\n      mul\n      not\n      and\n      swap1\n      dup4\n      iszero\n      iszero\n      mul\n      or\n      swap1\n      sstore\n      pop\n        /* \"contracts/Hook.sol\":9283:9295  processETH() */\n      tag_42\n        /* \"contracts/Hook.sol\":9283:9293  processETH */\n      tag_43\n        /* \"contracts/Hook.sol\":9283:9295  processETH() */\n      jump\t// in\n    tag_42:\n        /* \"contracts/Hook.sol\":1217:9305  contract TransactionsAndHook {... */\n      stop\n    tag_2:\n      0x00\n      dup1\n      revert\n        /* \"contracts/Hook.sol\":3134:3604  function createTransfer() public returns (bool){... */\n    tag_3:\n      callvalue\n      dup1\n      iszero\n      tag_44\n      jumpi\n      0x00\n      dup1\n      revert\n    tag_44:\n      pop\n      tag_45\n      tag_46\n      jump\t// in\n    tag_45:\n      mload(0x40)\n      tag_47\n      swap2\n      swap1\n      tag_48\n      jump\t// in\n    tag_47:\n      mload(0x40)\n      dup1\n      swap2\n      sub\n      swap1\n      return\n        /* \"contracts/Hook.sol\":1999:2091  function updateERC20Address(address _address) public{... */\n    tag_4:\n      callvalue\n      dup1\n      iszero\n      tag_49\n      jumpi\n      0x00\n      dup1\n      revert\n    tag_49:\n      pop\n      tag_50\n      0x04\n      dup1\n      calldatasize\n      sub\n      dup2\n      add\n      swap1\n      tag_51\n      swap2\n      swap1\n      tag_52\n      jump\t// in\n    tag_51:\n      tag_53\n      jump\t// in\n    tag_50:\n      stop\n        /* \"contracts/Hook.sol\":1570:1605  address public uniswapRouterAddress */\n    tag_5:\n      callvalue\n      dup1\n      iszero\n      tag_54\n      jumpi\n      0x00\n      dup1\n      revert\n    tag_54:\n      pop\n      tag_55\n      tag_56\n      jump\t// in\n    tag_55:\n      mload(0x40)\n      tag_57\n      swap2\n      swap1\n      tag_58\n      jump\t// in\n    tag_57:\n      mload(0x40)\n      dup1\n      swap2\n      sub\n      swap1\n      return\n        /* \"contracts/Hook.sol\":1873:1931  mapping (uint => Transaction) public transactionFromPOAPId */\n    tag_6:\n      callvalue\n      dup1\n      iszero\n      tag_59\n      jumpi\n      0x00\n      dup1\n      revert\n    tag_59:\n      pop\n      tag_60\n      0x04\n      dup1\n      calldatasize\n      sub\n      dup2\n      add\n      swap1\n      tag_61\n      swap2\n      swap1\n      tag_62\n      jump\t// in\n    tag_61:\n      tag_63\n      jump\t// in\n    tag_60:\n      mload(0x40)\n      tag_64\n      swap8\n      swap7\n      swap6\n      swap5\n      swap4\n      swap3\n      swap2\n      swap1\n      tag_65\n      jump\t// in\n    tag_64:\n      mload(0x40)\n      dup1\n      swap2\n      sub\n      swap1\n      return\n        /* \"contracts/Hook.sol\":5301:5319  uint public buyEth */\n    tag_7:\n      callvalue\n      dup1\n      iszero\n      tag_66\n      jumpi\n      0x00\n      dup1\n      revert\n    tag_66:\n      pop\n      tag_67\n      tag_68\n      jump\t// in\n    tag_67:\n      mload(0x40)\n      tag_69\n      swap2\n      swap1\n      tag_70\n      jump\t// in\n    tag_69:\n      mload(0x40)\n      dup1\n      swap2\n      sub\n      swap1\n      return\n        /* \"contracts/Hook.sol\":2682:2884  function withdraw(address _ERC20Address) public {... */\n    tag_8:\n      callvalue\n      dup1\n      iszero\n      tag_71\n      jumpi\n      0x00\n      dup1\n      revert\n    tag_71:\n      pop\n      tag_72\n      0x04\n      dup1\n      calldatasize\n      sub\n      dup2\n      add\n      swap1\n      tag_73\n      swap2\n      swap1\n      tag_52\n      jump\t// in\n    tag_73:\n      tag_74\n      jump\t// in\n    tag_72:\n      stop\n        /* \"contracts/Hook.sol\":1502:1532  address public crownNFTAddress */\n    tag_9:\n      callvalue\n      dup1\n      iszero\n      tag_75\n      jumpi\n      0x00\n      dup1\n      revert\n    tag_75:\n      pop\n      tag_76\n      tag_77\n      jump\t// in\n    tag_76:\n      mload(0x40)\n      tag_78\n      swap2\n      swap1\n      tag_58\n      jump\t// in\n    tag_78:\n      mload(0x40)\n      dup1\n      swap2\n      sub\n      swap1\n      return\n        /* \"contracts/Hook.sol\":1957:1983  uint public totalRoyalties */\n    tag_10:\n      callvalue\n      dup1\n      iszero\n      tag_79\n      jumpi\n      0x00\n      dup1\n      revert\n    tag_79:\n      pop\n      tag_80\n      tag_81\n      jump\t// in\n    tag_80:\n      mload(0x40)\n      tag_82\n      swap2\n      swap1\n      tag_70\n      jump\t// in\n    tag_82:\n      mload(0x40)\n      dup1\n      swap2\n      sub\n      swap1\n      return\n        /* \"contracts/Hook.sol\":7916:8432  function superBuy() public payable{... */\n    tag_11:\n      tag_83\n      tag_84\n      jump\t// in\n    tag_83:\n      stop\n        /* \"contracts/Hook.sol\":2890:2990  function getWethBalance() public returns (uint){... */\n    tag_12:\n      callvalue\n      dup1\n      iszero\n      tag_85\n      jumpi\n      0x00\n      dup1\n      revert\n    tag_85:\n      pop\n      tag_86\n      tag_87\n      jump\t// in\n    tag_86:\n      mload(0x40)\n      tag_88\n      swap2\n      swap1\n      tag_70\n      jump\t// in\n    tag_88:\n      mload(0x40)\n      dup1\n      swap2\n      sub\n      swap1\n      return\n        /* \"contracts/Hook.sol\":5325:5349  uint public liquidityEth */\n    tag_13:\n      callvalue\n      dup1\n      iszero\n      tag_89\n      jumpi\n      0x00\n      dup1\n      revert\n    tag_89:\n      pop\n      tag_90\n      tag_91\n      jump\t// in\n    tag_90:\n      mload(0x40)\n      tag_92\n      swap2\n      swap1\n      tag_70\n      jump\t// in\n    tag_92:\n      mload(0x40)\n      dup1\n      swap2\n      sub\n      swap1\n      return\n        /* \"contracts/Hook.sol\":1396:1423  address public ERC20Address */\n    tag_14:\n      callvalue\n      dup1\n      iszero\n      tag_93\n      jumpi\n      0x00\n      dup1\n      revert\n    tag_93:\n      pop\n      tag_94\n      tag_95\n      jump\t// in\n    tag_94:\n      mload(0x40)\n      tag_96\n      swap2\n      swap1\n      tag_58\n      jump\t// in\n    tag_96:\n      mload(0x40)\n      dup1\n      swap2\n      sub\n      swap1\n      return\n        /* \"contracts/Hook.sol\":1319:1390  address public WethAddress = 0xB4FBF271143F4FBf7B91A5ded31805e42b2208d6 */\n    tag_15:\n      callvalue\n      dup1\n      iszero\n      tag_97\n      jumpi\n      0x00\n      dup1\n      revert\n    tag_97:\n      pop\n      tag_98\n      tag_99\n      jump\t// in\n    tag_98:\n      mload(0x40)\n      tag_100\n      swap2\n      swap1\n      tag_58\n      jump\t// in\n    tag_100:\n      mload(0x40)\n      dup1\n      swap2\n      sub\n      swap1\n      return\n        /* \"contracts/Hook.sol\":1468:1496  address public oracleAddress */\n    tag_16:\n      callvalue\n      dup1\n      iszero\n      tag_101\n      jumpi\n      0x00\n      dup1\n      revert\n    tag_101:\n      pop\n      tag_102\n      tag_103\n      jump\t// in\n    tag_102:\n      mload(0x40)\n      tag_104\n      swap2\n      swap1\n      tag_58\n      jump\t// in\n    tag_104:\n      mload(0x40)\n      dup1\n      swap2\n      sub\n      swap1\n      return\n        /* \"contracts/Hook.sol\":1538:1564  address public POAPAddress */\n    tag_17:\n      callvalue\n      dup1\n      iszero\n      tag_105\n      jumpi\n      0x00\n      dup1\n      revert\n    tag_105:\n      pop\n      tag_106\n      tag_107\n      jump\t// in\n    tag_106:\n      mload(0x40)\n      tag_108\n      swap2\n      swap1\n      tag_58\n      jump\t// in\n    tag_108:\n      mload(0x40)\n      dup1\n      swap2\n      sub\n      swap1\n      return\n        /* \"contracts/Hook.sol\":1611:1661  address[] public path = [WethAddress,ERC20Address] */\n    tag_18:\n      callvalue\n      dup1\n      iszero\n      tag_109\n      jumpi\n      0x00\n      dup1\n      revert\n    tag_109:\n      pop\n      tag_110\n      0x04\n      dup1\n      calldatasize\n      sub\n      dup2\n      add\n      swap1\n      tag_111\n      swap2\n      swap1\n      tag_62\n      jump\t// in\n    tag_111:\n      tag_112\n      jump\t// in\n    tag_110:\n      mload(0x40)\n      tag_113\n      swap2\n      swap1\n      tag_58\n      jump\t// in\n    tag_113:\n      mload(0x40)\n      dup1\n      swap2\n      sub\n      swap1\n      return\n        /* \"contracts/Hook.sol\":1429:1462  address public uniswapPairAddress */\n    tag_19:\n      callvalue\n      dup1\n      iszero\n      tag_114\n      jumpi\n      0x00\n      dup1\n      revert\n    tag_114:\n      pop\n      tag_115\n      tag_116\n      jump\t// in\n    tag_115:\n      mload(0x40)\n      tag_117\n      swap2\n      swap1\n      tag_58\n      jump\t// in\n    tag_117:\n      mload(0x40)\n      dup1\n      swap2\n      sub\n      swap1\n      return\n        /* \"contracts/Hook.sol\":2997:3126  function getLastEthRecieved() public view returns (uint){... */\n    tag_20:\n      callvalue\n      dup1\n      iszero\n      tag_118\n      jumpi\n      0x00\n      dup1\n      revert\n    tag_118:\n      pop\n      tag_119\n      tag_120\n      jump\t// in\n    tag_119:\n      mload(0x40)\n      tag_121\n      swap2\n      swap1\n      tag_70\n      jump\t// in\n    tag_121:\n      mload(0x40)\n      dup1\n      swap2\n      sub\n      swap1\n      return\n        /* \"contracts/Hook.sol\":3610:3993  function percentLiquidity() public view returns (uint){... */\n    tag_21:\n      callvalue\n      dup1\n      iszero\n      tag_122\n      jumpi\n      0x00\n      dup1\n      revert\n    tag_122:\n      pop\n      tag_123\n      tag_124\n      jump\t// in\n    tag_123:\n      mload(0x40)\n      tag_125\n      swap2\n      swap1\n      tag_70\n      jump\t// in\n    tag_125:\n      mload(0x40)\n      dup1\n      swap2\n      sub\n      swap1\n      return\n        /* \"contracts/Hook.sol\":6279:7909  function processETH() internal{... */\n    tag_43:\n        /* \"contracts/Hook.sol\":6319:6332  uint msgValue */\n      0x00\n        /* \"contracts/Hook.sol\":6335:6344  msg.value */\n      callvalue\n        /* \"contracts/Hook.sol\":6319:6344  uint msgValue = msg.value */\n      swap1\n      pop\n        /* \"contracts/Hook.sol\":6364:6365  0 */\n      0x00\n        /* \"contracts/Hook.sol\":6357:6363  buyEth */\n      sload(0x0f)\n        /* \"contracts/Hook.sol\":6357:6365  buyEth>0 */\n      gt\n        /* \"contracts/Hook.sol\":6354:6604  if(buyEth>0){... */\n      iszero\n      tag_127\n      jumpi\n        /* \"contracts/Hook.sol\":6380:6393  uint _balance */\n      0x00\n        /* \"contracts/Hook.sol\":6396:6417  address(this).balance */\n      selfbalance\n        /* \"contracts/Hook.sol\":6380:6417  uint _balance = address(this).balance */\n      swap1\n      pop\n        /* \"contracts/Hook.sol\":6431:6449  buyAndBurn(buyEth) */\n      tag_128\n        /* \"contracts/Hook.sol\":6442:6448  buyEth */\n      sload(0x0f)\n        /* \"contracts/Hook.sol\":6431:6441  buyAndBurn */\n      tag_129\n        /* \"contracts/Hook.sol\":6431:6449  buyAndBurn(buyEth) */\n      jump\t// in\n    tag_128:\n        /* \"contracts/Hook.sol\":6463:6479  uint _newBalance */\n      0x00\n        /* \"contracts/Hook.sol\":6482:6503  address(this).balance */\n      selfbalance\n        /* \"contracts/Hook.sol\":6463:6503  uint _newBalance = address(this).balance */\n      swap1\n      pop\n        /* \"contracts/Hook.sol\":6517:6533  uint _difference */\n      0x00\n        /* \"contracts/Hook.sol\":6547:6558  _newBalance */\n      dup2\n        /* \"contracts/Hook.sol\":6536:6544  _balance */\n      dup4\n        /* \"contracts/Hook.sol\":6536:6558  _balance - _newBalance */\n      tag_130\n      swap2\n      swap1\n      tag_28\n      jump\t// in\n    tag_130:\n        /* \"contracts/Hook.sol\":6517:6558  uint _difference = _balance - _newBalance */\n      swap1\n      pop\n        /* \"contracts/Hook.sol\":6582:6593  _difference */\n      dup1\n        /* \"contracts/Hook.sol\":6572:6578  buyEth */\n      0x0f\n      0x00\n        /* \"contracts/Hook.sol\":6572:6593  buyEth -= _difference */\n      dup3\n      dup3\n      sload\n      tag_131\n      swap2\n      swap1\n      tag_28\n      jump\t// in\n    tag_131:\n      swap3\n      pop\n      pop\n      dup2\n      swap1\n      sstore\n      pop\n        /* \"contracts/Hook.sol\":6366:6604  {... */\n      pop\n      pop\n      pop\n        /* \"contracts/Hook.sol\":6354:6604  if(buyEth>0){... */\n    tag_127:\n        /* \"contracts/Hook.sol\":6629:6630  0 */\n      0x00\n        /* \"contracts/Hook.sol\":6616:6628  liquidityEth */\n      sload(0x10)\n        /* \"contracts/Hook.sol\":6616:6630  liquidityEth>0 */\n      gt\n        /* \"contracts/Hook.sol\":6613:6887  if(liquidityEth>0){... */\n      iszero\n      tag_132\n      jumpi\n        /* \"contracts/Hook.sol\":6645:6658  uint _balance */\n      0x00\n        /* \"contracts/Hook.sol\":6661:6682  address(this).balance */\n      selfbalance\n        /* \"contracts/Hook.sol\":6645:6682  uint _balance = address(this).balance */\n      swap1\n      pop\n        /* \"contracts/Hook.sol\":6696:6726  provideLiquidity(liquidityEth) */\n      tag_133\n        /* \"contracts/Hook.sol\":6713:6725  liquidityEth */\n      sload(0x10)\n        /* \"contracts/Hook.sol\":6696:6712  provideLiquidity */\n      tag_134\n        /* \"contracts/Hook.sol\":6696:6726  provideLiquidity(liquidityEth) */\n      jump\t// in\n    tag_133:\n      pop\n        /* \"contracts/Hook.sol\":6740:6756  uint _newBalance */\n      0x00\n        /* \"contracts/Hook.sol\":6759:6780  address(this).balance */\n      selfbalance\n        /* \"contracts/Hook.sol\":6740:6780  uint _newBalance = address(this).balance */\n      swap1\n      pop\n        /* \"contracts/Hook.sol\":6794:6810  uint _difference */\n      0x00\n        /* \"contracts/Hook.sol\":6824:6835  _newBalance */\n      dup2\n        /* \"contracts/Hook.sol\":6813:6821  _balance */\n      dup4\n        /* \"contracts/Hook.sol\":6813:6835  _balance - _newBalance */\n      tag_135\n      swap2\n      swap1\n      tag_28\n      jump\t// in\n    tag_135:\n        /* \"contracts/Hook.sol\":6794:6835  uint _difference = _balance - _newBalance */\n      swap1\n      pop\n        /* \"contracts/Hook.sol\":6865:6876  _difference */\n      dup1\n        /* \"contracts/Hook.sol\":6849:6861  liquidityEth */\n      0x10\n      0x00\n        /* \"contracts/Hook.sol\":6849:6876  liquidityEth -= _difference */\n      dup3\n      dup3\n      sload\n      tag_136\n      swap2\n      swap1\n      tag_28\n      jump\t// in\n    tag_136:\n      swap3\n      pop\n      pop\n      dup2\n      swap1\n      sstore\n      pop\n        /* \"contracts/Hook.sol\":6631:6887  {... */\n      pop\n      pop\n      pop\n        /* \"contracts/Hook.sol\":6613:6887  if(liquidityEth>0){... */\n    tag_132:\n        /* \"contracts/Hook.sol\":6896:6918  address previousHolder */\n      0x00\n        /* \"contracts/Hook.sol\":6921:6942  transactionFromPOAPId */\n      0x0c\n        /* \"contracts/Hook.sol\":6921:6961  transactionFromPOAPId[POAPIds.length -2] */\n      0x00\n        /* \"contracts/Hook.sol\":6959:6960  2 */\n      0x02\n        /* \"contracts/Hook.sol\":6943:6950  POAPIds */\n      0x0d\n        /* \"contracts/Hook.sol\":6943:6957  POAPIds.length */\n      dup1\n      sload\n      swap1\n      pop\n        /* \"contracts/Hook.sol\":6943:6960  POAPIds.length -2 */\n      tag_137\n      swap2\n      swap1\n      tag_28\n      jump\t// in\n    tag_137:\n        /* \"contracts/Hook.sol\":6921:6961  transactionFromPOAPId[POAPIds.length -2] */\n      dup2\n      mstore\n      0x20\n      add\n      swap1\n      dup2\n      mstore\n      0x20\n      add\n      0x00\n      keccak256\n        /* \"contracts/Hook.sol\":6921:6971  transactionFromPOAPId[POAPIds.length -2].purchaser */\n      0x01\n      add\n      0x00\n      swap1\n      sload\n      swap1\n      0x0100\n      exp\n      swap1\n      div\n      0xffffffffffffffffffffffffffffffffffffffff\n      and\n        /* \"contracts/Hook.sol\":6896:6971  address previousHolder = transactionFromPOAPId[POAPIds.length -2].purchaser */\n      swap1\n      pop\n        /* \"contracts/Hook.sol\":6981:7018  erc20ToPreviousHolder(previousHolder) */\n      tag_138\n        /* \"contracts/Hook.sol\":7003:7017  previousHolder */\n      dup2\n        /* \"contracts/Hook.sol\":6981:7002  erc20ToPreviousHolder */\n      tag_139\n        /* \"contracts/Hook.sol\":6981:7018  erc20ToPreviousHolder(previousHolder) */\n      jump\t// in\n    tag_138:\n        /* \"contracts/Hook.sol\":7028:7050  uint _percentLiquidity */\n      0x00\n        /* \"contracts/Hook.sol\":7053:7071  percentLiquidity() */\n      tag_140\n        /* \"contracts/Hook.sol\":7053:7069  percentLiquidity */\n      tag_124\n        /* \"contracts/Hook.sol\":7053:7071  percentLiquidity() */\n      jump\t// in\n    tag_140:\n        /* \"contracts/Hook.sol\":7028:7071  uint _percentLiquidity = percentLiquidity() */\n      swap1\n      pop\n        /* \"contracts/Hook.sol\":7151:7153  20 */\n      0x14\n        /* \"contracts/Hook.sol\":7133:7150  _percentLiquidity */\n      dup2\n        /* \"contracts/Hook.sol\":7133:7153  _percentLiquidity>20 */\n      gt\n        /* \"contracts/Hook.sol\":7130:7827  if(_percentLiquidity>20){... */\n      iszero\n      tag_141\n      jumpi\n        /* \"contracts/Hook.sol\":7168:7181  uint _balance */\n      0x00\n        /* \"contracts/Hook.sol\":7184:7205  address(this).balance */\n      selfbalance\n        /* \"contracts/Hook.sol\":7168:7205  uint _balance = address(this).balance */\n      swap1\n      pop\n        /* \"contracts/Hook.sol\":7219:7240  buyAndBurn(msg.value) */\n      tag_142\n        /* \"contracts/Hook.sol\":7230:7239  msg.value */\n      callvalue\n        /* \"contracts/Hook.sol\":7219:7229  buyAndBurn */\n      tag_129\n        /* \"contracts/Hook.sol\":7219:7240  buyAndBurn(msg.value) */\n      jump\t// in\n    tag_142:\n        /* \"contracts/Hook.sol\":7254:7270  uint _newBalance */\n      0x00\n        /* \"contracts/Hook.sol\":7273:7294  address(this).balance */\n      selfbalance\n        /* \"contracts/Hook.sol\":7254:7294  uint _newBalance = address(this).balance */\n      swap1\n      pop\n        /* \"contracts/Hook.sol\":7308:7324  uint _difference */\n      0x00\n        /* \"contracts/Hook.sol\":7338:7349  _newBalance */\n      dup2\n        /* \"contracts/Hook.sol\":7327:7335  _balance */\n      dup4\n        /* \"contracts/Hook.sol\":7327:7349  _balance - _newBalance */\n      tag_143\n      swap2\n      swap1\n      tag_28\n      jump\t// in\n    tag_143:\n        /* \"contracts/Hook.sol\":7308:7349  uint _difference = _balance - _newBalance */\n      swap1\n      pop\n        /* \"contracts/Hook.sol\":7363:7391  uint _amountLeftFromMsgValue */\n      0x00\n        /* \"contracts/Hook.sol\":7405:7416  _difference */\n      dup2\n        /* \"contracts/Hook.sol\":7394:7402  msgValue */\n      dup8\n        /* \"contracts/Hook.sol\":7394:7416  msgValue - _difference */\n      tag_144\n      swap2\n      swap1\n      tag_28\n      jump\t// in\n    tag_144:\n        /* \"contracts/Hook.sol\":7363:7416  uint _amountLeftFromMsgValue = msgValue - _difference */\n      swap1\n      pop\n        /* \"contracts/Hook.sol\":7440:7463  _amountLeftFromMsgValue */\n      dup1\n        /* \"contracts/Hook.sol\":7430:7436  buyEth */\n      0x0f\n      0x00\n        /* \"contracts/Hook.sol\":7430:7463  buyEth += _amountLeftFromMsgValue */\n      dup3\n      dup3\n      sload\n      tag_145\n      swap2\n      swap1\n      tag_146\n      jump\t// in\n    tag_145:\n      swap3\n      pop\n      pop\n      dup2\n      swap1\n      sstore\n      pop\n        /* \"contracts/Hook.sol\":7154:7475  {... */\n      pop\n      pop\n      pop\n      pop\n        /* \"contracts/Hook.sol\":7130:7827  if(_percentLiquidity>20){... */\n      jump(tag_147)\n    tag_141:\n        /* \"contracts/Hook.sol\":7495:7508  uint _balance */\n      0x00\n        /* \"contracts/Hook.sol\":7511:7532  address(this).balance */\n      selfbalance\n        /* \"contracts/Hook.sol\":7495:7532  uint _balance = address(this).balance */\n      swap1\n      pop\n        /* \"contracts/Hook.sol\":7546:7586  provideLiquidity(liquidityEth+msg.value) */\n      tag_148\n        /* \"contracts/Hook.sol\":7576:7585  msg.value */\n      callvalue\n        /* \"contracts/Hook.sol\":7563:7575  liquidityEth */\n      sload(0x10)\n        /* \"contracts/Hook.sol\":7563:7585  liquidityEth+msg.value */\n      tag_149\n      swap2\n      swap1\n      tag_146\n      jump\t// in\n    tag_149:\n        /* \"contracts/Hook.sol\":7546:7562  provideLiquidity */\n      tag_134\n        /* \"contracts/Hook.sol\":7546:7586  provideLiquidity(liquidityEth+msg.value) */\n      jump\t// in\n    tag_148:\n      pop\n        /* \"contracts/Hook.sol\":7600:7616  uint _newBalance */\n      0x00\n        /* \"contracts/Hook.sol\":7619:7640  address(this).balance */\n      selfbalance\n        /* \"contracts/Hook.sol\":7600:7640  uint _newBalance = address(this).balance */\n      swap1\n      pop\n        /* \"contracts/Hook.sol\":7654:7670  uint _difference */\n      0x00\n        /* \"contracts/Hook.sol\":7684:7695  _newBalance */\n      dup2\n        /* \"contracts/Hook.sol\":7673:7681  _balance */\n      dup4\n        /* \"contracts/Hook.sol\":7673:7695  _balance - _newBalance */\n      tag_150\n      swap2\n      swap1\n      tag_28\n      jump\t// in\n    tag_150:\n        /* \"contracts/Hook.sol\":7654:7695  uint _difference = _balance - _newBalance */\n      swap1\n      pop\n        /* \"contracts/Hook.sol\":7709:7737  uint _amountLeftFromMsgValue */\n      0x00\n        /* \"contracts/Hook.sol\":7751:7762  _difference */\n      dup2\n        /* \"contracts/Hook.sol\":7740:7748  msgValue */\n      dup8\n        /* \"contracts/Hook.sol\":7740:7762  msgValue - _difference */\n      tag_151\n      swap2\n      swap1\n      tag_28\n      jump\t// in\n    tag_151:\n        /* \"contracts/Hook.sol\":7709:7762  uint _amountLeftFromMsgValue = msgValue - _difference */\n      swap1\n      pop\n        /* \"contracts/Hook.sol\":7792:7815  _amountLeftFromMsgValue */\n      dup1\n        /* \"contracts/Hook.sol\":7776:7788  liquidityEth */\n      0x10\n      0x00\n        /* \"contracts/Hook.sol\":7776:7815  liquidityEth += _amountLeftFromMsgValue */\n      dup3\n      dup3\n      sload\n      tag_152\n      swap2\n      swap1\n      tag_146\n      jump\t// in\n    tag_152:\n      swap3\n      pop\n      pop\n      dup2\n      swap1\n      sstore\n      pop\n        /* \"contracts/Hook.sol\":7481:7827  {... */\n      pop\n      pop\n      pop\n      pop\n        /* \"contracts/Hook.sol\":7130:7827  if(_percentLiquidity>20){... */\n    tag_147:\n        /* \"contracts/Hook.sol\":7877:7881  POAP */\n      0x08\n      0x00\n      swap1\n      sload\n      swap1\n      0x0100\n      exp\n      swap1\n      div\n      0xffffffffffffffffffffffffffffffffffffffff\n      and\n        /* \"contracts/Hook.sol\":7877:7886  POAP.mint */\n      0xffffffffffffffffffffffffffffffffffffffff\n      and\n      0x6a627842\n        /* \"contracts/Hook.sol\":7887:7901  previousHolder */\n      dup4\n        /* \"contracts/Hook.sol\":7877:7902  POAP.mint(previousHolder) */\n      mload(0x40)\n      dup3\n      0xffffffff\n      and\n      0xe0\n      shl\n      dup2\n      mstore\n      0x04\n      add\n      tag_153\n      swap2\n      swap1\n      tag_58\n      jump\t// in\n    tag_153:\n      0x00\n      mload(0x40)\n      dup1\n      dup4\n      sub\n      dup2\n      0x00\n      dup8\n      dup1\n      extcodesize\n      iszero\n      dup1\n      iszero\n      tag_154\n      jumpi\n      0x00\n      dup1\n      revert\n    tag_154:\n      pop\n      gas\n      call\n      iszero\n      dup1\n      iszero\n      tag_156\n      jumpi\n      returndatasize\n      0x00\n      dup1\n      returndatacopy\n      revert(0x00, returndatasize)\n    tag_156:\n      pop\n      pop\n      pop\n      pop\n        /* \"contracts/Hook.sol\":6309:7909  {... */\n      pop\n      pop\n      pop\n        /* \"contracts/Hook.sol\":6279:7909  function processETH() internal{... */\n      jump\t// out\n        /* \"contracts/Hook.sol\":3134:3604  function createTransfer() public returns (bool){... */\n    tag_46:\n        /* \"contracts/Hook.sol\":3176:3180  bool */\n      0x00\n        /* \"contracts/Hook.sol\":3213:3228  crownNFTAddress */\n      0x04\n      0x00\n      swap1\n      sload\n      swap1\n      0x0100\n      exp\n      swap1\n      div\n      0xffffffffffffffffffffffffffffffffffffffff\n      and\n        /* \"contracts/Hook.sol\":3199:3228  msg.sender == crownNFTAddress */\n      0xffffffffffffffffffffffffffffffffffffffff\n      and\n        /* \"contracts/Hook.sol\":3199:3209  msg.sender */\n      caller\n        /* \"contracts/Hook.sol\":3199:3228  msg.sender == crownNFTAddress */\n      0xffffffffffffffffffffffffffffffffffffffff\n      and\n      eq\n        /* \"contracts/Hook.sol\":3191:3229  require(msg.sender == crownNFTAddress) */\n      tag_158\n      jumpi\n      0x00\n      dup1\n      revert\n    tag_158:\n        /* \"contracts/Hook.sol\":3283:3302  uint previouslyPaid */\n      0x00\n        /* \"contracts/Hook.sol\":3305:3326  transactionFromPOAPId */\n      0x0c\n        /* \"contracts/Hook.sol\":3305:3342  transactionFromPOAPId[POAPIds.length] */\n      0x00\n        /* \"contracts/Hook.sol\":3327:3334  POAPIds */\n      0x0d\n        /* \"contracts/Hook.sol\":3327:3341  POAPIds.length */\n      dup1\n      sload\n      swap1\n      pop\n        /* \"contracts/Hook.sol\":3305:3342  transactionFromPOAPId[POAPIds.length] */\n      dup2\n      mstore\n      0x20\n      add\n      swap1\n      dup2\n      mstore\n      0x20\n      add\n      0x00\n      keccak256\n        /* \"contracts/Hook.sol\":3305:3354  transactionFromPOAPId[POAPIds.length].receivedEth */\n      0x02\n      add\n      sload\n        /* \"contracts/Hook.sol\":3283:3354  uint previouslyPaid = transactionFromPOAPId[POAPIds.length].receivedEth */\n      swap1\n      pop\n        /* \"contracts/Hook.sol\":3464:3494  newTransaction(previouslyPaid) */\n      tag_159\n        /* \"contracts/Hook.sol\":3479:3493  previouslyPaid */\n      dup2\n        /* \"contracts/Hook.sol\":3464:3478  newTransaction */\n      tag_160\n        /* \"contracts/Hook.sol\":3464:3494  newTransaction(previouslyPaid) */\n      jump\t// in\n    tag_159:\n        /* \"contracts/Hook.sol\":3592:3596  true */\n      0x01\n        /* \"contracts/Hook.sol\":3584:3597  return (true) */\n      swap2\n      pop\n      pop\n        /* \"contracts/Hook.sol\":3134:3604  function createTransfer() public returns (bool){... */\n      swap1\n      jump\t// out\n        /* \"contracts/Hook.sol\":1999:2091  function updateERC20Address(address _address) public{... */\n    tag_53:\n        /* \"contracts/Hook.sol\":2076:2084  _address */\n      dup1\n        /* \"contracts/Hook.sol\":2061:2073  ERC20Address */\n      0x01\n      0x00\n        /* \"contracts/Hook.sol\":2061:2084  ERC20Address = _address */\n      0x0100\n      exp\n      dup2\n      sload\n      dup2\n      0xffffffffffffffffffffffffffffffffffffffff\n      mul\n      not\n      and\n      swap1\n      dup4\n      0xffffffffffffffffffffffffffffffffffffffff\n      and\n      mul\n      or\n      swap1\n      sstore\n      pop\n        /* \"contracts/Hook.sol\":1999:2091  function updateERC20Address(address _address) public{... */\n      pop\n      jump\t// out\n        /* \"contracts/Hook.sol\":1570:1605  address public uniswapRouterAddress */\n    tag_56:\n      0x06\n      0x00\n      swap1\n      sload\n      swap1\n      0x0100\n      exp\n      swap1\n      div\n      0xffffffffffffffffffffffffffffffffffffffff\n      and\n      dup2\n      jump\t// out\n        /* \"contracts/Hook.sol\":1873:1931  mapping (uint => Transaction) public transactionFromPOAPId */\n    tag_63:\n      mstore(0x20, 0x0c)\n      dup1\n      0x00\n      mstore\n      keccak256(0x00, 0x40)\n      0x00\n      swap2\n      pop\n      swap1\n      pop\n      dup1\n      0x00\n      add\n      sload\n      swap1\n      dup1\n      0x01\n      add\n      0x00\n      swap1\n      sload\n      swap1\n      0x0100\n      exp\n      swap1\n      div\n      0xffffffffffffffffffffffffffffffffffffffff\n      and\n      swap1\n      dup1\n      0x01\n      add\n      0x14\n      swap1\n      sload\n      swap1\n      0x0100\n      exp\n      swap1\n      div\n      0xff\n      and\n      swap1\n      dup1\n      0x02\n      add\n      sload\n      swap1\n      dup1\n      0x03\n      add\n      0x00\n      swap1\n      sload\n      swap1\n      0x0100\n      exp\n      swap1\n      div\n      0xff\n      and\n      swap1\n      dup1\n      0x04\n      add\n      sload\n      swap1\n      dup1\n      0x05\n      add\n      0x00\n      swap1\n      sload\n      swap1\n      0x0100\n      exp\n      swap1\n      div\n      0xff\n      and\n      swap1\n      pop\n      dup8\n      jump\t// out\n        /* \"contracts/Hook.sol\":5301:5319  uint public buyEth */\n    tag_68:\n      sload(0x0f)\n      dup2\n      jump\t// out\n        /* \"contracts/Hook.sol\":2682:2884  function withdraw(address _ERC20Address) public {... */\n    tag_74:\n        /* \"contracts/Hook.sol\":2740:2752  IERC20 ERC20 */\n      0x00\n        /* \"contracts/Hook.sol\":2762:2775  _ERC20Address */\n      dup2\n        /* \"contracts/Hook.sol\":2740:2776  IERC20 ERC20 = IERC20(_ERC20Address) */\n      swap1\n      pop\n        /* \"contracts/Hook.sol\":2786:2799  uint _balance */\n      0x00\n        /* \"contracts/Hook.sol\":2802:2807  ERC20 */\n      dup2\n        /* \"contracts/Hook.sol\":2802:2817  ERC20.balanceOf */\n      0xffffffffffffffffffffffffffffffffffffffff\n      and\n      0x70a08231\n        /* \"contracts/Hook.sol\":2826:2830  this */\n      address\n        /* \"contracts/Hook.sol\":2802:2832  ERC20.balanceOf(address(this)) */\n      mload(0x40)\n      dup3\n      0xffffffff\n      and\n      0xe0\n      shl\n      dup2\n      mstore\n      0x04\n      add\n      tag_163\n      swap2\n      swap1\n      tag_58\n      jump\t// in\n    tag_163:\n      0x20\n      mload(0x40)\n      dup1\n      dup4\n      sub\n      dup2\n      dup7\n      gas\n      staticcall\n      iszero\n      dup1\n      iszero\n      tag_165\n      jumpi\n      returndatasize\n      0x00\n      dup1\n      returndatacopy\n      revert(0x00, returndatasize)\n    tag_165:\n      pop\n      pop\n      pop\n      pop\n      mload(0x40)\n      returndatasize\n      not(0x1f)\n      0x1f\n      dup3\n      add\n      and\n      dup3\n      add\n      dup1\n      0x40\n      mstore\n      pop\n      dup2\n      add\n      swap1\n      tag_166\n      swap2\n      swap1\n      tag_167\n      jump\t// in\n    tag_166:\n        /* \"contracts/Hook.sol\":2786:2832  uint _balance = ERC20.balanceOf(address(this)) */\n      swap1\n      pop\n        /* \"contracts/Hook.sol\":2842:2847  ERC20 */\n      dup2\n        /* \"contracts/Hook.sol\":2842:2856  ERC20.transfer */\n      0xffffffffffffffffffffffffffffffffffffffff\n      and\n      0xa9059cbb\n        /* \"contracts/Hook.sol\":2857:2867  msg.sender */\n      caller\n        /* \"contracts/Hook.sol\":2868:2876  _balance */\n      dup4\n        /* \"contracts/Hook.sol\":2842:2877  ERC20.transfer(msg.sender,_balance) */\n      mload(0x40)\n      dup4\n      0xffffffff\n      and\n      0xe0\n      shl\n      dup2\n      mstore\n      0x04\n      add\n      tag_168\n      swap3\n      swap2\n      swap1\n      tag_169\n      jump\t// in\n    tag_168:\n      0x20\n      mload(0x40)\n      dup1\n      dup4\n      sub\n      dup2\n      0x00\n      dup8\n      gas\n      call\n      iszero\n      dup1\n      iszero\n      tag_171\n      jumpi\n      returndatasize\n      0x00\n      dup1\n      returndatacopy\n      revert(0x00, returndatasize)\n    tag_171:\n      pop\n      pop\n      pop\n      pop\n      mload(0x40)\n      returndatasize\n      not(0x1f)\n      0x1f\n      dup3\n      add\n      and\n      dup3\n      add\n      dup1\n      0x40\n      mstore\n      pop\n      dup2\n      add\n      swap1\n      tag_172\n      swap2\n      swap1\n      tag_173\n      jump\t// in\n    tag_172:\n      pop\n        /* \"contracts/Hook.sol\":2730:2884  {... */\n      pop\n      pop\n        /* \"contracts/Hook.sol\":2682:2884  function withdraw(address _ERC20Address) public {... */\n      pop\n      jump\t// out\n        /* \"contracts/Hook.sol\":1502:1532  address public crownNFTAddress */\n    tag_77:\n      0x04\n      0x00\n      swap1\n      sload\n      swap1\n      0x0100\n      exp\n      swap1\n      div\n      0xffffffffffffffffffffffffffffffffffffffff\n      and\n      dup2\n      jump\t// out\n        /* \"contracts/Hook.sol\":1957:1983  uint public totalRoyalties */\n    tag_81:\n      sload(0x0e)\n      dup2\n      jump\t// out\n        /* \"contracts/Hook.sol\":7916:8432  function superBuy() public payable{... */\n    tag_84:\n        /* \"contracts/Hook.sol\":8057:8078  transactionFromPOAPId */\n      0x0c\n        /* \"contracts/Hook.sol\":8057:8098  transactionFromPOAPId[POAPIds.length - 1] */\n      0x00\n        /* \"contracts/Hook.sol\":8096:8097  1 */\n      0x01\n        /* \"contracts/Hook.sol\":8079:8086  POAPIds */\n      0x0d\n        /* \"contracts/Hook.sol\":8079:8093  POAPIds.length */\n      dup1\n      sload\n      swap1\n      pop\n        /* \"contracts/Hook.sol\":8079:8097  POAPIds.length - 1 */\n      tag_175\n      swap2\n      swap1\n      tag_28\n      jump\t// in\n    tag_175:\n        /* \"contracts/Hook.sol\":8057:8098  transactionFromPOAPId[POAPIds.length - 1] */\n      dup2\n      mstore\n      0x20\n      add\n      swap1\n      dup2\n      mstore\n      0x20\n      add\n      0x00\n      keccak256\n        /* \"contracts/Hook.sol\":8057:8120  transactionFromPOAPId[POAPIds.length - 1].transactionInProgress */\n      0x01\n      add\n      0x14\n      swap1\n      sload\n      swap1\n      0x0100\n      exp\n      swap1\n      div\n      0xff\n      and\n        /* \"contracts/Hook.sol\":8049:8159  require(transactionFromPOAPId[POAPIds.length - 1].transactionInProgress, 'latest transaction not in progress') */\n      tag_176\n      jumpi\n      mload(0x40)\n      0x08c379a000000000000000000000000000000000000000000000000000000000\n      dup2\n      mstore\n      0x04\n      add\n      tag_177\n      swap1\n      tag_31\n      jump\t// in\n    tag_177:\n      mload(0x40)\n      dup1\n      swap2\n      sub\n      swap1\n      revert\n    tag_176:\n        /* \"contracts/Hook.sol\":8267:8276  msg.value */\n      callvalue\n        /* \"contracts/Hook.sol\":8211:8232  transactionFromPOAPId */\n      0x0c\n        /* \"contracts/Hook.sol\":8211:8252  transactionFromPOAPId[POAPIds.length - 1] */\n      0x00\n        /* \"contracts/Hook.sol\":8250:8251  1 */\n      0x01\n        /* \"contracts/Hook.sol\":8233:8240  POAPIds */\n      0x0d\n        /* \"contracts/Hook.sol\":8233:8247  POAPIds.length */\n      dup1\n      sload\n      swap1\n      pop\n        /* \"contracts/Hook.sol\":8233:8251  POAPIds.length - 1 */\n      tag_178\n      swap2\n      swap1\n      tag_28\n      jump\t// in\n    tag_178:\n        /* \"contracts/Hook.sol\":8211:8252  transactionFromPOAPId[POAPIds.length - 1] */\n      dup2\n      mstore\n      0x20\n      add\n      swap1\n      dup2\n      mstore\n      0x20\n      add\n      0x00\n      keccak256\n        /* \"contracts/Hook.sol\":8211:8264  transactionFromPOAPId[POAPIds.length - 1].receivedEth */\n      0x02\n      add\n        /* \"contracts/Hook.sol\":8211:8276  transactionFromPOAPId[POAPIds.length - 1].receivedEth = msg.value */\n      dup2\n      swap1\n      sstore\n      pop\n        /* \"contracts/Hook.sol\":8398:8403  false */\n      0x00\n        /* \"contracts/Hook.sol\":8332:8353  transactionFromPOAPId */\n      0x0c\n        /* \"contracts/Hook.sol\":8332:8373  transactionFromPOAPId[POAPIds.length - 1] */\n      0x00\n        /* \"contracts/Hook.sol\":8371:8372  1 */\n      0x01\n        /* \"contracts/Hook.sol\":8354:8361  POAPIds */\n      0x0d\n        /* \"contracts/Hook.sol\":8354:8368  POAPIds.length */\n      dup1\n      sload\n      swap1\n      pop\n        /* \"contracts/Hook.sol\":8354:8372  POAPIds.length - 1 */\n      tag_179\n      swap2\n      swap1\n      tag_28\n      jump\t// in\n    tag_179:\n        /* \"contracts/Hook.sol\":8332:8373  transactionFromPOAPId[POAPIds.length - 1] */\n      dup2\n      mstore\n      0x20\n      add\n      swap1\n      dup2\n      mstore\n      0x20\n      add\n      0x00\n      keccak256\n        /* \"contracts/Hook.sol\":8332:8395  transactionFromPOAPId[POAPIds.length - 1].transactionInProgress */\n      0x01\n      add\n      0x14\n        /* \"contracts/Hook.sol\":8332:8403  transactionFromPOAPId[POAPIds.length - 1].transactionInProgress = false */\n      0x0100\n      exp\n      dup2\n      sload\n      dup2\n      0xff\n      mul\n      not\n      and\n      swap1\n      dup4\n      iszero\n      iszero\n      mul\n      or\n      swap1\n      sstore\n      pop\n        /* \"contracts/Hook.sol\":8413:8425  processETH() */\n      tag_180\n        /* \"contracts/Hook.sol\":8413:8423  processETH */\n      tag_43\n        /* \"contracts/Hook.sol\":8413:8425  processETH() */\n      jump\t// in\n    tag_180:\n        /* \"contracts/Hook.sol\":7916:8432  function superBuy() public payable{... */\n      jump\t// out\n        /* \"contracts/Hook.sol\":2890:2990  function getWethBalance() public returns (uint){... */\n    tag_87:\n        /* \"contracts/Hook.sol\":2932:2936  uint */\n      0x00\n        /* \"contracts/Hook.sol\":2954:2958  WETH */\n      0x09\n      0x00\n      swap1\n      sload\n      swap1\n      0x0100\n      exp\n      swap1\n      div\n      0xffffffffffffffffffffffffffffffffffffffff\n      and\n        /* \"contracts/Hook.sol\":2954:2968  WETH.balanceOf */\n      0xffffffffffffffffffffffffffffffffffffffff\n      and\n      0x70a08231\n        /* \"contracts/Hook.sol\":2977:2981  this */\n      address\n        /* \"contracts/Hook.sol\":2954:2983  WETH.balanceOf(address(this)) */\n      mload(0x40)\n      dup3\n      0xffffffff\n      and\n      0xe0\n      shl\n      dup2\n      mstore\n      0x04\n      add\n      tag_182\n      swap2\n      swap1\n      tag_58\n      jump\t// in\n    tag_182:\n      0x20\n      mload(0x40)\n      dup1\n      dup4\n      sub\n      dup2\n      0x00\n      dup8\n      gas\n      call\n      iszero\n      dup1\n      iszero\n      tag_184\n      jumpi\n      returndatasize\n      0x00\n      dup1\n      returndatacopy\n      revert(0x00, returndatasize)\n    tag_184:\n      pop\n      pop\n      pop\n      pop\n      mload(0x40)\n      returndatasize\n      not(0x1f)\n      0x1f\n      dup3\n      add\n      and\n      dup3\n      add\n      dup1\n      0x40\n      mstore\n      pop\n      dup2\n      add\n      swap1\n      tag_185\n      swap2\n      swap1\n      tag_167\n      jump\t// in\n    tag_185:\n        /* \"contracts/Hook.sol\":2947:2983  return WETH.balanceOf(address(this)) */\n      swap1\n      pop\n        /* \"contracts/Hook.sol\":2890:2990  function getWethBalance() public returns (uint){... */\n      swap1\n      jump\t// out\n        /* \"contracts/Hook.sol\":5325:5349  uint public liquidityEth */\n    tag_91:\n      sload(0x10)\n      dup2\n      jump\t// out\n        /* \"contracts/Hook.sol\":1396:1423  address public ERC20Address */\n    tag_95:\n      0x01\n      0x00\n      swap1\n      sload\n      swap1\n      0x0100\n      exp\n      swap1\n      div\n      0xffffffffffffffffffffffffffffffffffffffff\n      and\n      dup2\n      jump\t// out\n        /* \"contracts/Hook.sol\":1319:1390  address public WethAddress = 0xB4FBF271143F4FBf7B91A5ded31805e42b2208d6 */\n    tag_99:\n      0x00\n      dup1\n      sload\n      swap1\n      0x0100\n      exp\n      swap1\n      div\n      0xffffffffffffffffffffffffffffffffffffffff\n      and\n      dup2\n      jump\t// out\n        /* \"contracts/Hook.sol\":1468:1496  address public oracleAddress */\n    tag_103:\n      0x03\n      0x00\n      swap1\n      sload\n      swap1\n      0x0100\n      exp\n      swap1\n      div\n      0xffffffffffffffffffffffffffffffffffffffff\n      and\n      dup2\n      jump\t// out\n        /* \"contracts/Hook.sol\":1538:1564  address public POAPAddress */\n    tag_107:\n      0x05\n      0x00\n      swap1\n      sload\n      swap1\n      0x0100\n      exp\n      swap1\n      div\n      0xffffffffffffffffffffffffffffffffffffffff\n      and\n      dup2\n      jump\t// out\n        /* \"contracts/Hook.sol\":1611:1661  address[] public path = [WethAddress,ERC20Address] */\n    tag_112:\n      0x07\n      dup2\n      dup2\n      sload\n      dup2\n      lt\n      tag_186\n      jumpi\n      0x00\n      dup1\n      revert\n    tag_186:\n      swap1\n      0x00\n      mstore\n      keccak256(0x00, 0x20)\n      add\n      0x00\n      swap2\n      pop\n      sload\n      swap1\n      0x0100\n      exp\n      swap1\n      div\n      0xffffffffffffffffffffffffffffffffffffffff\n      and\n      dup2\n      jump\t// out\n        /* \"contracts/Hook.sol\":1429:1462  address public uniswapPairAddress */\n    tag_116:\n      0x02\n      0x00\n      swap1\n      sload\n      swap1\n      0x0100\n      exp\n      swap1\n      div\n      0xffffffffffffffffffffffffffffffffffffffff\n      and\n      dup2\n      jump\t// out\n        /* \"contracts/Hook.sol\":2997:3126  function getLastEthRecieved() public view returns (uint){... */\n    tag_120:\n        /* \"contracts/Hook.sol\":3048:3052  uint */\n      0x00\n        /* \"contracts/Hook.sol\":3070:3091  transactionFromPOAPId */\n      0x0c\n        /* \"contracts/Hook.sol\":3070:3107  transactionFromPOAPId[POAPIds.length] */\n      0x00\n        /* \"contracts/Hook.sol\":3092:3099  POAPIds */\n      0x0d\n        /* \"contracts/Hook.sol\":3092:3106  POAPIds.length */\n      dup1\n      sload\n      swap1\n      pop\n        /* \"contracts/Hook.sol\":3070:3107  transactionFromPOAPId[POAPIds.length] */\n      dup2\n      mstore\n      0x20\n      add\n      swap1\n      dup2\n      mstore\n      0x20\n      add\n      0x00\n      keccak256\n        /* \"contracts/Hook.sol\":3070:3119  transactionFromPOAPId[POAPIds.length].receivedEth */\n      0x02\n      add\n      sload\n        /* \"contracts/Hook.sol\":3063:3119  return transactionFromPOAPId[POAPIds.length].receivedEth */\n      swap1\n      pop\n        /* \"contracts/Hook.sol\":2997:3126  function getLastEthRecieved() public view returns (uint){... */\n      swap1\n      jump\t// out\n        /* \"contracts/Hook.sol\":3610:3993  function percentLiquidity() public view returns (uint){... */\n    tag_124:\n        /* \"contracts/Hook.sol\":3659:3663  uint */\n      0x00\n        /* \"contracts/Hook.sol\":3718:3729  uint supply */\n      dup1\n        /* \"contracts/Hook.sol\":3739:3751  ERC20Address */\n      0x01\n      0x00\n      swap1\n      sload\n      swap1\n      0x0100\n      exp\n      swap1\n      div\n      0xffffffffffffffffffffffffffffffffffffffff\n      and\n        /* \"contracts/Hook.sol\":3732:3764  IERC20(ERC20Address).totalSupply */\n      0xffffffffffffffffffffffffffffffffffffffff\n      and\n      0x18160ddd\n        /* \"contracts/Hook.sol\":3732:3766  IERC20(ERC20Address).totalSupply() */\n      mload(0x40)\n      dup2\n      0xffffffff\n      and\n      0xe0\n      shl\n      dup2\n      mstore\n      0x04\n      add\n      0x20\n      mload(0x40)\n      dup1\n      dup4\n      sub\n      dup2\n      dup7\n      gas\n      staticcall\n      iszero\n      dup1\n      iszero\n      tag_191\n      jumpi\n      returndatasize\n      0x00\n      dup1\n      returndatacopy\n      revert(0x00, returndatasize)\n    tag_191:\n      pop\n      pop\n      pop\n      pop\n      mload(0x40)\n      returndatasize\n      not(0x1f)\n      0x1f\n      dup3\n      add\n      and\n      dup3\n      add\n      dup1\n      0x40\n      mstore\n      pop\n      dup2\n      add\n      swap1\n      tag_192\n      swap2\n      swap1\n      tag_167\n      jump\t// in\n    tag_192:\n        /* \"contracts/Hook.sol\":3718:3766  uint supply = IERC20(ERC20Address).totalSupply() */\n      swap1\n      pop\n        /* \"contracts/Hook.sol\":3822:3836  uint liquidity */\n      0x00\n        /* \"contracts/Hook.sol\":3844:3856  ERC20Address */\n      0x01\n      0x00\n      swap1\n      sload\n      swap1\n      0x0100\n      exp\n      swap1\n      div\n      0xffffffffffffffffffffffffffffffffffffffff\n      and\n        /* \"contracts/Hook.sol\":3837:3867  IERC20(ERC20Address).balanceOf */\n      0xffffffffffffffffffffffffffffffffffffffff\n      and\n      0x70a08231\n        /* \"contracts/Hook.sol\":3868:3886  uniswapPairAddress */\n      0x02\n      0x00\n      swap1\n      sload\n      swap1\n      0x0100\n      exp\n      swap1\n      div\n      0xffffffffffffffffffffffffffffffffffffffff\n      and\n        /* \"contracts/Hook.sol\":3837:3887  IERC20(ERC20Address).balanceOf(uniswapPairAddress) */\n      mload(0x40)\n      dup3\n      0xffffffff\n      and\n      0xe0\n      shl\n      dup2\n      mstore\n      0x04\n      add\n      tag_193\n      swap2\n      swap1\n      tag_58\n      jump\t// in\n    tag_193:\n      0x20\n      mload(0x40)\n      dup1\n      dup4\n      sub\n      dup2\n      dup7\n      gas\n      staticcall\n      iszero\n      dup1\n      iszero\n      tag_195\n      jumpi\n      returndatasize\n      0x00\n      dup1\n      returndatacopy\n      revert(0x00, returndatasize)\n    tag_195:\n      pop\n      pop\n      pop\n      pop\n      mload(0x40)\n      returndatasize\n      not(0x1f)\n      0x1f\n      dup3\n      add\n      and\n      dup3\n      add\n      dup1\n      0x40\n      mstore\n      pop\n      dup2\n      add\n      swap1\n      tag_196\n      swap2\n      swap1\n      tag_167\n      jump\t// in\n    tag_196:\n        /* \"contracts/Hook.sol\":3822:3887  uint liquidity=IERC20(ERC20Address).balanceOf(uniswapPairAddress) */\n      swap1\n      pop\n        /* \"contracts/Hook.sol\":3979:3985  supply */\n      dup2\n        /* \"contracts/Hook.sol\":3975:3978  100 */\n      0x64\n        /* \"contracts/Hook.sol\":3965:3974  liquidity */\n      dup3\n        /* \"contracts/Hook.sol\":3965:3978  liquidity*100 */\n      tag_197\n      swap2\n      swap1\n      tag_34\n      jump\t// in\n    tag_197:\n        /* \"contracts/Hook.sol\":3965:3985  liquidity*100/supply */\n      tag_198\n      swap2\n      swap1\n      tag_36\n      jump\t// in\n    tag_198:\n        /* \"contracts/Hook.sol\":3958:3986  return(liquidity*100/supply) */\n      swap3\n      pop\n      pop\n      pop\n        /* \"contracts/Hook.sol\":3610:3993  function percentLiquidity() public view returns (uint){... */\n      swap1\n      jump\t// out\n        /* \"contracts/Hook.sol\":5828:5976  function buyAndBurn(uint _buyEth) internal{... */\n    tag_129:\n        /* \"contracts/Hook.sol\":5880:5891  uint tokens */\n      0x00\n        /* \"contracts/Hook.sol\":5894:5912  buyTokens(_buyEth) */\n      tag_200\n        /* \"contracts/Hook.sol\":5904:5911  _buyEth */\n      dup3\n        /* \"contracts/Hook.sol\":5894:5903  buyTokens */\n      tag_201\n        /* \"contracts/Hook.sol\":5894:5912  buyTokens(_buyEth) */\n      jump\t// in\n    tag_200:\n        /* \"contracts/Hook.sol\":5880:5912  uint tokens = buyTokens(_buyEth) */\n      swap1\n      pop\n        /* \"contracts/Hook.sol\":5931:5943  ERC20Address */\n      0x01\n      0x00\n      swap1\n      sload\n      swap1\n      0x0100\n      exp\n      swap1\n      div\n      0xffffffffffffffffffffffffffffffffffffffff\n      and\n        /* \"contracts/Hook.sol\":5922:5949  WethLike(ERC20Address).burn */\n      0xffffffffffffffffffffffffffffffffffffffff\n      and\n      0x9dc29fac\n        /* \"contracts/Hook.sol\":5950:5960  msg.sender */\n      caller\n        /* \"contracts/Hook.sol\":5962:5968  tokens */\n      dup4\n        /* \"contracts/Hook.sol\":5922:5969  WethLike(ERC20Address).burn(msg.sender, tokens) */\n      mload(0x40)\n      dup4\n      0xffffffff\n      and\n      0xe0\n      shl\n      dup2\n      mstore\n      0x04\n      add\n      tag_202\n      swap3\n      swap2\n      swap1\n      tag_169\n      jump\t// in\n    tag_202:\n      0x00\n      mload(0x40)\n      dup1\n      dup4\n      sub\n      dup2\n      0x00\n      dup8\n      dup1\n      extcodesize\n      iszero\n      dup1\n      iszero\n      tag_203\n      jumpi\n      0x00\n      dup1\n      revert\n    tag_203:\n      pop\n      gas\n      call\n      iszero\n      dup1\n      iszero\n      tag_205\n      jumpi\n      returndatasize\n      0x00\n      dup1\n      returndatacopy\n      revert(0x00, returndatasize)\n    tag_205:\n      pop\n      pop\n      pop\n      pop\n        /* \"contracts/Hook.sol\":5870:5976  {... */\n      pop\n        /* \"contracts/Hook.sol\":5828:5976  function buyAndBurn(uint _buyEth) internal{... */\n      pop\n      jump\t// out\n        /* \"contracts/Hook.sol\":3999:5295  function provideLiquidity(uint _liquidityEth) internal returns (uint){... */\n    tag_134:\n        /* \"contracts/Hook.sol\":4063:4067  uint */\n      0x00\n        /* \"contracts/Hook.sol\":4087:4114  uint ERC20LiquidityProvided */\n      dup1\n        /* \"contracts/Hook.sol\":4194:4218  uint currentERC20Balance */\n      0x00\n        /* \"contracts/Hook.sol\":4228:4240  ERC20Address */\n      0x01\n      0x00\n      swap1\n      sload\n      swap1\n      0x0100\n      exp\n      swap1\n      div\n      0xffffffffffffffffffffffffffffffffffffffff\n      and\n        /* \"contracts/Hook.sol\":4221:4251  IERC20(ERC20Address).balanceOf */\n      0xffffffffffffffffffffffffffffffffffffffff\n      and\n      0x70a08231\n        /* \"contracts/Hook.sol\":4260:4264  this */\n      address\n        /* \"contracts/Hook.sol\":4221:4266  IERC20(ERC20Address).balanceOf(address(this)) */\n      mload(0x40)\n      dup3\n      0xffffffff\n      and\n      0xe0\n      shl\n      dup2\n      mstore\n      0x04\n      add\n      tag_207\n      swap2\n      swap1\n      tag_58\n      jump\t// in\n    tag_207:\n      0x20\n      mload(0x40)\n      dup1\n      dup4\n      sub\n      dup2\n      dup7\n      gas\n      staticcall\n      iszero\n      dup1\n      iszero\n      tag_209\n      jumpi\n      returndatasize\n      0x00\n      dup1\n      returndatacopy\n      revert(0x00, returndatasize)\n    tag_209:\n      pop\n      pop\n      pop\n      pop\n      mload(0x40)\n      returndatasize\n      not(0x1f)\n      0x1f\n      dup3\n      add\n      and\n      dup3\n      add\n      dup1\n      0x40\n      mstore\n      pop\n      dup2\n      add\n      swap1\n      tag_210\n      swap2\n      swap1\n      tag_167\n      jump\t// in\n    tag_210:\n        /* \"contracts/Hook.sol\":4194:4266  uint currentERC20Balance = IERC20(ERC20Address).balanceOf(address(this)) */\n      swap1\n      pop\n        /* \"contracts/Hook.sol\":4349:4366  uint tokensToSend */\n      0x00\n        /* \"contracts/Hook.sol\":4425:4428  100 */\n      0x64\n        /* \"contracts/Hook.sol\":4419:4422  105 */\n      0x69\n        /* \"contracts/Hook.sol\":4369:4375  Oracle */\n      0x0a\n      0x00\n      swap1\n      sload\n      swap1\n      0x0100\n      exp\n      swap1\n      div\n      0xffffffffffffffffffffffffffffffffffffffff\n      and\n        /* \"contracts/Hook.sol\":4369:4389  Oracle.consultPrices */\n      0xffffffffffffffffffffffffffffffffffffffff\n      and\n      0x3ac35585\n        /* \"contracts/Hook.sol\":4390:4401  WethAddress */\n      0x00\n      dup1\n      sload\n      swap1\n      0x0100\n      exp\n      swap1\n      div\n      0xffffffffffffffffffffffffffffffffffffffff\n      and\n        /* \"contracts/Hook.sol\":4403:4416  _liquidityEth */\n      dup10\n        /* \"contracts/Hook.sol\":4369:4417  Oracle.consultPrices(WethAddress, _liquidityEth) */\n      mload(0x40)\n      dup4\n      0xffffffff\n      and\n      0xe0\n      shl\n      dup2\n      mstore\n      0x04\n      add\n      tag_211\n      swap3\n      swap2\n      swap1\n      tag_169\n      jump\t// in\n    tag_211:\n      0x20\n      mload(0x40)\n      dup1\n      dup4\n      sub\n      dup2\n      dup7\n      gas\n      staticcall\n      iszero\n      dup1\n      iszero\n      tag_213\n      jumpi\n      returndatasize\n      0x00\n      dup1\n      returndatacopy\n      revert(0x00, returndatasize)\n    tag_213:\n      pop\n      pop\n      pop\n      pop\n      mload(0x40)\n      returndatasize\n      not(0x1f)\n      0x1f\n      dup3\n      add\n      and\n      dup3\n      add\n      dup1\n      0x40\n      mstore\n      pop\n      dup2\n      add\n      swap1\n      tag_214\n      swap2\n      swap1\n      tag_167\n      jump\t// in\n    tag_214:\n        /* \"contracts/Hook.sol\":4369:4422  Oracle.consultPrices(WethAddress, _liquidityEth)* 105 */\n      tag_215\n      swap2\n      swap1\n      tag_34\n      jump\t// in\n    tag_215:\n        /* \"contracts/Hook.sol\":4369:4428  Oracle.consultPrices(WethAddress, _liquidityEth)* 105 / 100 */\n      tag_216\n      swap2\n      swap1\n      tag_36\n      jump\t// in\n    tag_216:\n        /* \"contracts/Hook.sol\":4349:4428  uint tokensToSend = Oracle.consultPrices(WethAddress, _liquidityEth)* 105 / 100 */\n      swap1\n      pop\n        /* \"contracts/Hook.sol\":4550:4569  currentERC20Balance */\n      dup2\n        /* \"contracts/Hook.sol\":4535:4547  tokensToSend */\n      dup2\n        /* \"contracts/Hook.sol\":4535:4569  tokensToSend > currentERC20Balance */\n      gt\n        /* \"contracts/Hook.sol\":4532:4755  if(tokensToSend > currentERC20Balance){... */\n      iszero\n      tag_217\n      jumpi\n        /* \"contracts/Hook.sol\":4593:4605  ERC20Address */\n      0x01\n      0x00\n      swap1\n      sload\n      swap1\n      0x0100\n      exp\n      swap1\n      div\n      0xffffffffffffffffffffffffffffffffffffffff\n      and\n        /* \"contracts/Hook.sol\":4584:4615  WethLike(ERC20Address).hookMint */\n      0xffffffffffffffffffffffffffffffffffffffff\n      and\n      0x96fe8349\n        /* \"contracts/Hook.sol\":4629:4648  currentERC20Balance */\n      dup4\n        /* \"contracts/Hook.sol\":4616:4628  tokensToSend */\n      dup4\n        /* \"contracts/Hook.sol\":4616:4648  tokensToSend-currentERC20Balance */\n      tag_218\n      swap2\n      swap1\n      tag_28\n      jump\t// in\n    tag_218:\n        /* \"contracts/Hook.sol\":4657:4661  this */\n      address\n        /* \"contracts/Hook.sol\":4584:4663  WethLike(ERC20Address).hookMint(tokensToSend-currentERC20Balance,address(this)) */\n      mload(0x40)\n      dup4\n      0xffffffff\n      and\n      0xe0\n      shl\n      dup2\n      mstore\n      0x04\n      add\n      tag_219\n      swap3\n      swap2\n      swap1\n      tag_220\n      jump\t// in\n    tag_219:\n      0x00\n      mload(0x40)\n      dup1\n      dup4\n      sub\n      dup2\n      0x00\n      dup8\n      dup1\n      extcodesize\n      iszero\n      dup1\n      iszero\n      tag_221\n      jumpi\n      0x00\n      dup1\n      revert\n    tag_221:\n      pop\n      gas\n      call\n      iszero\n      dup1\n      iszero\n      tag_223\n      jumpi\n      returndatasize\n      0x00\n      dup1\n      returndatacopy\n      revert(0x00, returndatasize)\n    tag_223:\n      pop\n      pop\n      pop\n      pop\n        /* \"contracts/Hook.sol\":4706:4718  ERC20Address */\n      0x01\n      0x00\n      swap1\n      sload\n      swap1\n      0x0100\n      exp\n      swap1\n      div\n      0xffffffffffffffffffffffffffffffffffffffff\n      and\n        /* \"contracts/Hook.sol\":4699:4729  IERC20(ERC20Address).balanceOf */\n      0xffffffffffffffffffffffffffffffffffffffff\n      and\n      0x70a08231\n        /* \"contracts/Hook.sol\":4738:4742  this */\n      address\n        /* \"contracts/Hook.sol\":4699:4744  IERC20(ERC20Address).balanceOf(address(this)) */\n      mload(0x40)\n      dup3\n      0xffffffff\n      and\n      0xe0\n      shl\n      dup2\n      mstore\n      0x04\n      add\n      tag_224\n      swap2\n      swap1\n      tag_58\n      jump\t// in\n    tag_224:\n      0x20\n      mload(0x40)\n      dup1\n      dup4\n      sub\n      dup2\n      dup7\n      gas\n      staticcall\n      iszero\n      dup1\n      iszero\n      tag_226\n      jumpi\n      returndatasize\n      0x00\n      dup1\n      returndatacopy\n      revert(0x00, returndatasize)\n    tag_226:\n      pop\n      pop\n      pop\n      pop\n      mload(0x40)\n      returndatasize\n      not(0x1f)\n      0x1f\n      dup3\n      add\n      and\n      dup3\n      add\n      dup1\n      0x40\n      mstore\n      pop\n      dup2\n      add\n      swap1\n      tag_227\n      swap2\n      swap1\n      tag_167\n      jump\t// in\n    tag_227:\n        /* \"contracts/Hook.sol\":4677:4744  currentERC20Balance = IERC20(ERC20Address).balanceOf(address(this)) */\n      swap2\n      pop\n        /* \"contracts/Hook.sol\":4532:4755  if(tokensToSend > currentERC20Balance){... */\n    tag_217:\n        /* \"contracts/Hook.sol\":4827:4840  UniswapRouter */\n      0x0b\n      0x00\n      swap1\n      sload\n      swap1\n      0x0100\n      exp\n      swap1\n      div\n      0xffffffffffffffffffffffffffffffffffffffff\n      and\n        /* \"contracts/Hook.sol\":4827:4856  UniswapRouter.addLiquidityETH */\n      0xffffffffffffffffffffffffffffffffffffffff\n      and\n      0xf305d719\n        /* \"contracts/Hook.sol\":4865:4878  _liquidityEth */\n      dup7\n        /* \"contracts/Hook.sol\":4889:4893  this */\n      address\n        /* \"contracts/Hook.sol\":4896:4908  tokensToSend */\n      dup5\n        /* \"contracts/Hook.sol\":4930:4933  105 */\n      0x69\n        /* \"contracts/Hook.sol\":4926:4928  95 */\n      0x5f\n        /* \"contracts/Hook.sol\":4911:4923  tokensToSend */\n      dup8\n        /* \"contracts/Hook.sol\":4911:4928  tokensToSend * 95 */\n      tag_228\n      swap2\n      swap1\n      tag_34\n      jump\t// in\n    tag_228:\n        /* \"contracts/Hook.sol\":4910:4933  (tokensToSend * 95)/105 */\n      tag_229\n      swap2\n      swap1\n      tag_36\n      jump\t// in\n    tag_229:\n        /* \"contracts/Hook.sol\":4956:4959  100 */\n      0x64\n        /* \"contracts/Hook.sol\":4952:4954  95 */\n      0x5f\n        /* \"contracts/Hook.sol\":4936:4949  _liquidityEth */\n      dup13\n        /* \"contracts/Hook.sol\":4936:4954  _liquidityEth * 95 */\n      tag_230\n      swap2\n      swap1\n      tag_34\n      jump\t// in\n    tag_230:\n        /* \"contracts/Hook.sol\":4935:4959  (_liquidityEth * 95)/100 */\n      tag_231\n      swap2\n      swap1\n      tag_36\n      jump\t// in\n    tag_231:\n        /* \"contracts/Hook.sol\":4969:4973  this */\n      address\n        /* \"contracts/Hook.sol\":4976:4990  type(uint).max */\n      0xffffffffffffffffffffffffffffffffffffffffffffffffffffffffffffffff\n        /* \"contracts/Hook.sol\":4827:4991  UniswapRouter.addLiquidityETH {value: _liquidityEth} (address(this), tokensToSend, (tokensToSend * 95)/105, (_liquidityEth * 95)/100, address(this), type(uint).max) */\n      mload(0x40)\n      dup9\n      0xffffffff\n      and\n      0xe0\n      shl\n      dup2\n      mstore\n      0x04\n      add\n      tag_232\n      swap7\n      swap6\n      swap5\n      swap4\n      swap3\n      swap2\n      swap1\n      tag_233\n      jump\t// in\n    tag_232:\n      0x60\n      mload(0x40)\n      dup1\n      dup4\n      sub\n      dup2\n      dup6\n      dup9\n      gas\n      call\n      swap4\n      pop\n      pop\n      pop\n      pop\n      dup1\n      iszero\n      tag_234\n      jumpi\n      pop\n      mload(0x40)\n      returndatasize\n      not(0x1f)\n      0x1f\n      dup3\n      add\n      and\n      dup3\n      add\n      dup1\n      0x40\n      mstore\n      pop\n      dup2\n      add\n      swap1\n      tag_235\n      swap2\n      swap1\n      tag_236\n      jump\t// in\n    tag_235:\n      0x01\n    tag_234:\n        /* \"contracts/Hook.sol\":4823:5248  try UniswapRouter.addLiquidityETH {value: _liquidityEth} (address(this), tokensToSend, (tokensToSend * 95)/105, (_liquidityEth * 95)/100, address(this), type(uint).max)... */\n      tag_237\n      jumpi\n        /* \"contracts/Hook.sol\":5208:5237  Log(\"Liquidity Not Provided\") */\n      0xcf34ef537ac33ee1ac626ca1587a0a7e8e51561e5514f8cb36afa1c5102b3bab\n      mload(0x40)\n      tag_241\n      swap1\n      tag_242\n      jump\t// in\n    tag_241:\n      mload(0x40)\n      dup1\n      swap2\n      sub\n      swap1\n      log1\n        /* \"contracts/Hook.sol\":4823:5248  try UniswapRouter.addLiquidityETH {value: _liquidityEth} (address(this), tokensToSend, (tokensToSend * 95)/105, (_liquidityEth * 95)/100, address(this), type(uint).max)... */\n      jump(tag_243)\n    tag_237:\n      pop\n      pop\n      pop\n        /* \"contracts/Hook.sol\":5019:5057  Log(\"liquidity Successfully Provided\") */\n      0xcf34ef537ac33ee1ac626ca1587a0a7e8e51561e5514f8cb36afa1c5102b3bab\n      mload(0x40)\n      tag_244\n      swap1\n      tag_245\n      jump\t// in\n    tag_244:\n      mload(0x40)\n      dup1\n      swap2\n      sub\n      swap1\n      log1\n        /* \"contracts/Hook.sol\":5125:5137  ERC20Address */\n      0x01\n      0x00\n      swap1\n      sload\n      swap1\n      0x0100\n      exp\n      swap1\n      div\n      0xffffffffffffffffffffffffffffffffffffffff\n      and\n        /* \"contracts/Hook.sol\":5118:5148  IERC20(ERC20Address).balanceOf */\n      0xffffffffffffffffffffffffffffffffffffffff\n      and\n      0x70a08231\n        /* \"contracts/Hook.sol\":5157:5161  this */\n      address\n        /* \"contracts/Hook.sol\":5118:5163  IERC20(ERC20Address).balanceOf(address(this)) */\n      mload(0x40)\n      dup3\n      0xffffffff\n      and\n      0xe0\n      shl\n      dup2\n      mstore\n      0x04\n      add\n      tag_246\n      swap2\n      swap1\n      tag_58\n      jump\t// in\n    tag_246:\n      0x20\n      mload(0x40)\n      dup1\n      dup4\n      sub\n      dup2\n      dup7\n      gas\n      staticcall\n      iszero\n      dup1\n      iszero\n      tag_248\n      jumpi\n      returndatasize\n      0x00\n      dup1\n      returndatacopy\n      revert(0x00, returndatasize)\n    tag_248:\n      pop\n      pop\n      pop\n      pop\n      mload(0x40)\n      returndatasize\n      not(0x1f)\n      0x1f\n      dup3\n      add\n      and\n      dup3\n      add\n      dup1\n      0x40\n      mstore\n      pop\n      dup2\n      add\n      swap1\n      tag_249\n      swap2\n      swap1\n      tag_167\n      jump\t// in\n    tag_249:\n        /* \"contracts/Hook.sol\":5096:5115  currentERC20Balance */\n      dup3\n        /* \"contracts/Hook.sol\":5096:5163  currentERC20Balance - IERC20(ERC20Address).balanceOf(address(this)) */\n      tag_250\n      swap2\n      swap1\n      tag_28\n      jump\t// in\n    tag_250:\n        /* \"contracts/Hook.sol\":5071:5163  ERC20LiquidityProvided = currentERC20Balance - IERC20(ERC20Address).balanceOf(address(this)) */\n      swap3\n      pop\n        /* \"contracts/Hook.sol\":4823:5248  try UniswapRouter.addLiquidityETH {value: _liquidityEth} (address(this), tokensToSend, (tokensToSend * 95)/105, (_liquidityEth * 95)/100, address(this), type(uint).max)... */\n    tag_243:\n        /* \"contracts/Hook.sol\":5265:5287  ERC20LiquidityProvided */\n      dup3\n        /* \"contracts/Hook.sol\":5257:5288  return (ERC20LiquidityProvided) */\n      swap4\n      pop\n      pop\n      pop\n      pop\n        /* \"contracts/Hook.sol\":3999:5295  function provideLiquidity(uint _liquidityEth) internal returns (uint){... */\n      swap2\n      swap1\n      pop\n      jump\t// out\n        /* \"contracts/Hook.sol\":5982:6273  function erc20ToPreviousHolder(address previousHolder) internal{... */\n    tag_139:\n        /* \"contracts/Hook.sol\":6055:6069  uint ethAmount */\n      0x00\n        /* \"contracts/Hook.sol\":6072:6093  transactionFromPOAPId */\n      0x0c\n        /* \"contracts/Hook.sol\":6072:6113  transactionFromPOAPId[POAPIds.length - 2] */\n      0x00\n        /* \"contracts/Hook.sol\":6111:6112  2 */\n      0x02\n        /* \"contracts/Hook.sol\":6094:6101  POAPIds */\n      0x0d\n        /* \"contracts/Hook.sol\":6094:6108  POAPIds.length */\n      dup1\n      sload\n      swap1\n      pop\n        /* \"contracts/Hook.sol\":6094:6112  POAPIds.length - 2 */\n      tag_252\n      swap2\n      swap1\n      tag_28\n      jump\t// in\n    tag_252:\n        /* \"contracts/Hook.sol\":6072:6113  transactionFromPOAPId[POAPIds.length - 2] */\n      dup2\n      mstore\n      0x20\n      add\n      swap1\n      dup2\n      mstore\n      0x20\n      add\n      0x00\n      keccak256\n        /* \"contracts/Hook.sol\":6072:6125  transactionFromPOAPId[POAPIds.length - 2].receivedEth */\n      0x02\n      add\n      sload\n        /* \"contracts/Hook.sol\":6055:6125  uint ethAmount = transactionFromPOAPId[POAPIds.length - 2].receivedEth */\n      swap1\n      pop\n        /* \"contracts/Hook.sol\":6135:6152  uint amountToMint */\n      0x00\n        /* \"contracts/Hook.sol\":6153:6159  Oracle */\n      0x0a\n      0x00\n      swap1\n      sload\n      swap1\n      0x0100\n      exp\n      swap1\n      div\n      0xffffffffffffffffffffffffffffffffffffffff\n      and\n        /* \"contracts/Hook.sol\":6153:6173  Oracle.consultPrices */\n      0xffffffffffffffffffffffffffffffffffffffff\n      and\n      0x3ac35585\n        /* \"contracts/Hook.sol\":6174:6185  WethAddress */\n      0x00\n      dup1\n      sload\n      swap1\n      0x0100\n      exp\n      swap1\n      div\n      0xffffffffffffffffffffffffffffffffffffffff\n      and\n        /* \"contracts/Hook.sol\":6186:6195  ethAmount */\n      dup5\n        /* \"contracts/Hook.sol\":6153:6196  Oracle.consultPrices(WethAddress,ethAmount) */\n      mload(0x40)\n      dup4\n      0xffffffff\n      and\n      0xe0\n      shl\n      dup2\n      mstore\n      0x04\n      add\n      tag_253\n      swap3\n      swap2\n      swap1\n      tag_169\n      jump\t// in\n    tag_253:\n      0x20\n      mload(0x40)\n      dup1\n      dup4\n      sub\n      dup2\n      dup7\n      gas\n      staticcall\n      iszero\n      dup1\n      iszero\n      tag_255\n      jumpi\n      returndatasize\n      0x00\n      dup1\n      returndatacopy\n      revert(0x00, returndatasize)\n    tag_255:\n      pop\n      pop\n      pop\n      pop\n      mload(0x40)\n      returndatasize\n      not(0x1f)\n      0x1f\n      dup3\n      add\n      and\n      dup3\n      add\n      dup1\n      0x40\n      mstore\n      pop\n      dup2\n      add\n      swap1\n      tag_256\n      swap2\n      swap1\n      tag_167\n      jump\t// in\n    tag_256:\n        /* \"contracts/Hook.sol\":6135:6196  uint amountToMint=Oracle.consultPrices(WethAddress,ethAmount) */\n      swap1\n      pop\n        /* \"contracts/Hook.sol\":6215:6227  ERC20Address */\n      0x01\n      0x00\n      swap1\n      sload\n      swap1\n      0x0100\n      exp\n      swap1\n      div\n      0xffffffffffffffffffffffffffffffffffffffff\n      and\n        /* \"contracts/Hook.sol\":6206:6237  WethLike(ERC20Address).hookMint */\n      0xffffffffffffffffffffffffffffffffffffffff\n      and\n      0x96fe8349\n        /* \"contracts/Hook.sol\":6238:6250  amountToMint */\n      dup3\n        /* \"contracts/Hook.sol\":6251:6265  previousHolder */\n      dup6\n        /* \"contracts/Hook.sol\":6206:6266  WethLike(ERC20Address).hookMint(amountToMint,previousHolder) */\n      mload(0x40)\n      dup4\n      0xffffffff\n      and\n      0xe0\n      shl\n      dup2\n      mstore\n      0x04\n      add\n      tag_257\n      swap3\n      swap2\n      swap1\n      tag_220\n      jump\t// in\n    tag_257:\n      0x00\n      mload(0x40)\n      dup1\n      dup4\n      sub\n      dup2\n      0x00\n      dup8\n      dup1\n      extcodesize\n      iszero\n      dup1\n      iszero\n      tag_258\n      jumpi\n      0x00\n      dup1\n      revert\n    tag_258:\n      pop\n      gas\n      call\n      iszero\n      dup1\n      iszero\n      tag_260\n      jumpi\n      returndatasize\n      0x00\n      dup1\n      returndatacopy\n      revert(0x00, returndatasize)\n    tag_260:\n      pop\n      pop\n      pop\n      pop\n        /* \"contracts/Hook.sol\":6045:6273  {... */\n      pop\n      pop\n        /* \"contracts/Hook.sol\":5982:6273  function erc20ToPreviousHolder(address previousHolder) internal{... */\n      pop\n      jump\t// out\n        /* \"contracts/Hook.sol\":2323:2672  function newTransaction ( uint _receivedEth) internal {... */\n    tag_160:\n        /* \"contracts/Hook.sol\":2387:2398  uint POAPId */\n      0x00\n        /* \"contracts/Hook.sol\":2401:2408  POAPIds */\n      0x0d\n        /* \"contracts/Hook.sol\":2401:2415  POAPIds.length */\n      dup1\n      sload\n      swap1\n      pop\n        /* \"contracts/Hook.sol\":2387:2415  uint POAPId = POAPIds.length */\n      swap1\n      pop\n        /* \"contracts/Hook.sol\":2425:2456  Transaction storage transaction */\n      0x00\n        /* \"contracts/Hook.sol\":2459:2480  transactionFromPOAPId */\n      0x0c\n        /* \"contracts/Hook.sol\":2459:2496  transactionFromPOAPId[POAPIds.length] */\n      0x00\n        /* \"contracts/Hook.sol\":2481:2488  POAPIds */\n      0x0d\n        /* \"contracts/Hook.sol\":2481:2495  POAPIds.length */\n      dup1\n      sload\n      swap1\n      pop\n        /* \"contracts/Hook.sol\":2459:2496  transactionFromPOAPId[POAPIds.length] */\n      dup2\n      mstore\n      0x20\n      add\n      swap1\n      dup2\n      mstore\n      0x20\n      add\n      0x00\n      keccak256\n        /* \"contracts/Hook.sol\":2425:2496  Transaction storage transaction = transactionFromPOAPId[POAPIds.length] */\n      swap1\n      pop\n        /* \"contracts/Hook.sol\":2527:2533  POAPId */\n      dup2\n        /* \"contracts/Hook.sol\":2506:2517  transaction */\n      dup2\n        /* \"contracts/Hook.sol\":2506:2524  transaction.POAPId */\n      0x00\n      add\n        /* \"contracts/Hook.sol\":2506:2533  transaction.POAPId = POAPId */\n      dup2\n      swap1\n      sstore\n      pop\n        /* \"contracts/Hook.sol\":2569:2581  _receivedEth */\n      dup3\n        /* \"contracts/Hook.sol\":2543:2554  transaction */\n      dup2\n        /* \"contracts/Hook.sol\":2543:2566  transaction.receivedEth */\n      0x02\n      add\n        /* \"contracts/Hook.sol\":2543:2581  transaction.receivedEth = _receivedEth */\n      dup2\n      swap1\n      sstore\n      pop\n        /* \"contracts/Hook.sol\":2627:2631  true */\n      0x01\n        /* \"contracts/Hook.sol\":2591:2602  transaction */\n      dup2\n        /* \"contracts/Hook.sol\":2591:2624  transaction.transactionInProgress */\n      0x01\n      add\n      0x14\n        /* \"contracts/Hook.sol\":2591:2631  transaction.transactionInProgress = true */\n      0x0100\n      exp\n      dup2\n      sload\n      dup2\n      0xff\n      mul\n      not\n      and\n      swap1\n      dup4\n      iszero\n      iszero\n      mul\n      or\n      swap1\n      sstore\n      pop\n        /* \"contracts/Hook.sol\":2641:2648  POAPIds */\n      0x0d\n        /* \"contracts/Hook.sol\":2654:2660  POAPId */\n      dup3\n        /* \"contracts/Hook.sol\":2641:2661  POAPIds.push(POAPId) */\n      swap1\n      dup1\n      0x01\n      dup2\n      sload\n      add\n      dup1\n      dup3\n      sstore\n      dup1\n      swap2\n      pop\n      pop\n      0x01\n      swap1\n      sub\n      swap1\n      0x00\n      mstore\n      keccak256(0x00, 0x20)\n      add\n      0x00\n      swap1\n      swap2\n      swap1\n      swap2\n      swap1\n      swap2\n      pop\n      sstore\n        /* \"contracts/Hook.sol\":2377:2672  {... */\n      pop\n      pop\n        /* \"contracts/Hook.sol\":2323:2672  function newTransaction ( uint _receivedEth) internal {... */\n      pop\n      jump\t// out\n        /* \"contracts/Hook.sol\":5356:5822  function buyTokens(uint _buyEth) internal returns (uint){... */\n    tag_201:\n        /* \"contracts/Hook.sol\":5407:5411  uint */\n      0x00\n        /* \"contracts/Hook.sol\":5422:5446  uint numberOfTokensToBuy */\n      dup1\n        /* \"contracts/Hook.sol\":5449:5455  Oracle */\n      0x0a\n      0x00\n      swap1\n      sload\n      swap1\n      0x0100\n      exp\n      swap1\n      div\n      0xffffffffffffffffffffffffffffffffffffffff\n      and\n        /* \"contracts/Hook.sol\":5449:5469  Oracle.consultPrices */\n      0xffffffffffffffffffffffffffffffffffffffff\n      and\n      0x3ac35585\n        /* \"contracts/Hook.sol\":5470:5481  WethAddress */\n      0x00\n      dup1\n      sload\n      swap1\n      0x0100\n      exp\n      swap1\n      div\n      0xffffffffffffffffffffffffffffffffffffffff\n      and\n        /* \"contracts/Hook.sol\":5483:5490  _buyEth */\n      dup6\n        /* \"contracts/Hook.sol\":5449:5491  Oracle.consultPrices(WethAddress, _buyEth) */\n      mload(0x40)\n      dup4\n      0xffffffff\n      and\n      0xe0\n      shl\n      dup2\n      mstore\n      0x04\n      add\n      tag_264\n      swap3\n      swap2\n      swap1\n      tag_169\n      jump\t// in\n    tag_264:\n      0x20\n      mload(0x40)\n      dup1\n      dup4\n      sub\n      dup2\n      dup7\n      gas\n      staticcall\n      iszero\n      dup1\n      iszero\n      tag_266\n      jumpi\n      returndatasize\n      0x00\n      dup1\n      returndatacopy\n      revert(0x00, returndatasize)\n    tag_266:\n      pop\n      pop\n      pop\n      pop\n      mload(0x40)\n      returndatasize\n      not(0x1f)\n      0x1f\n      dup3\n      add\n      and\n      dup3\n      add\n      dup1\n      0x40\n      mstore\n      pop\n      dup2\n      add\n      swap1\n      tag_267\n      swap2\n      swap1\n      tag_167\n      jump\t// in\n    tag_267:\n        /* \"contracts/Hook.sol\":5422:5491  uint numberOfTokensToBuy = Oracle.consultPrices(WethAddress, _buyEth) */\n      swap1\n      pop\n        /* \"contracts/Hook.sol\":5501:5518  uint amountOutMin */\n      0x00\n        /* \"contracts/Hook.sol\":5546:5549  100 */\n      0x64\n        /* \"contracts/Hook.sol\":5542:5544  95 */\n      0x5f\n        /* \"contracts/Hook.sol\":5522:5541  numberOfTokensToBuy */\n      dup4\n        /* \"contracts/Hook.sol\":5522:5544  numberOfTokensToBuy*95 */\n      tag_268\n      swap2\n      swap1\n      tag_34\n      jump\t// in\n    tag_268:\n        /* \"contracts/Hook.sol\":5521:5549  (numberOfTokensToBuy*95)/100 */\n      tag_269\n      swap2\n      swap1\n      tag_36\n      jump\t// in\n    tag_269:\n        /* \"contracts/Hook.sol\":5501:5549  uint amountOutMin = (numberOfTokensToBuy*95)/100 */\n      swap1\n      pop\n        /* \"contracts/Hook.sol\":5559:5580  uint[] memory _tokens */\n      0x00\n        /* \"contracts/Hook.sol\":5594:5595  2 */\n      0x02\n        /* \"contracts/Hook.sol\":5583:5596  new uint[](2) */\n      0xffffffffffffffff\n      dup2\n      gt\n      iszero\n      tag_270\n      jumpi\n      tag_271\n      tag_272\n      jump\t// in\n    tag_271:\n    tag_270:\n      mload(0x40)\n      swap1\n      dup1\n      dup3\n      mstore\n      dup1\n      0x20\n      mul\n      0x20\n      add\n      dup3\n      add\n      0x40\n      mstore\n      dup1\n      iszero\n      tag_273\n      jumpi\n      dup2\n      0x20\n      add\n      0x20\n      dup3\n      mul\n      dup1\n      calldatasize\n      dup4\n      calldatacopy\n      dup1\n      dup3\n      add\n      swap2\n      pop\n      pop\n      swap1\n      pop\n    tag_273:\n      pop\n        /* \"contracts/Hook.sol\":5559:5596  uint[] memory _tokens = new uint[](2) */\n      swap1\n      pop\n        /* \"contracts/Hook.sol\":5617:5630  UniswapRouter */\n      0x0b\n      0x00\n      swap1\n      sload\n      swap1\n      0x0100\n      exp\n      swap1\n      div\n      0xffffffffffffffffffffffffffffffffffffffff\n      and\n        /* \"contracts/Hook.sol\":5617:5652  UniswapRouter.swapExactETHForTokens */\n      0xffffffffffffffffffffffffffffffffffffffff\n      and\n      0x7ff36ab5\n        /* \"contracts/Hook.sol\":5660:5667  _buyEth */\n      dup7\n        /* \"contracts/Hook.sol\":5669:5681  amountOutMin */\n      dup5\n        /* \"contracts/Hook.sol\":5683:5687  path */\n      0x07\n        /* \"contracts/Hook.sol\":5689:5699  msg.sender */\n      caller\n        /* \"contracts/Hook.sol\":5701:5715  type(uint).max */\n      0xffffffffffffffffffffffffffffffffffffffffffffffffffffffffffffffff\n        /* \"contracts/Hook.sol\":5617:5716  UniswapRouter.swapExactETHForTokens{value: _buyEth}(amountOutMin, path, msg.sender, type(uint).max) */\n      mload(0x40)\n      dup7\n      0xffffffff\n      and\n      0xe0\n      shl\n      dup2\n      mstore\n      0x04\n      add\n      tag_274\n      swap5\n      swap4\n      swap3\n      swap2\n      swap1\n      tag_275\n      jump\t// in\n    tag_274:\n      0x00\n      mload(0x40)\n      dup1\n      dup4\n      sub\n      dup2\n      dup6\n      dup9\n      gas\n      call\n      iszero\n      dup1\n      iszero\n      tag_277\n      jumpi\n      returndatasize\n      0x00\n      dup1\n      returndatacopy\n      revert(0x00, returndatasize)\n    tag_277:\n      pop\n      pop\n      pop\n      pop\n      pop\n      mload(0x40)\n      returndatasize\n      0x00\n      dup3\n      returndatacopy\n      returndatasize\n      not(0x1f)\n      0x1f\n      dup3\n      add\n      and\n      dup3\n      add\n      dup1\n      0x40\n      mstore\n      pop\n      dup2\n      add\n      swap1\n      tag_278\n      swap2\n      swap1\n      tag_279\n      jump\t// in\n    tag_278:\n        /* \"contracts/Hook.sol\":5607:5716  _tokens = UniswapRouter.swapExactETHForTokens{value: _buyEth}(amountOutMin, path, msg.sender, type(uint).max) */\n      swap1\n      pop\n        /* \"contracts/Hook.sol\":5795:5802  _tokens */\n      dup1\n        /* \"contracts/Hook.sol\":5803:5804  1 */\n      0x01\n        /* \"contracts/Hook.sol\":5795:5805  _tokens[1] */\n      dup2\n      mload\n      dup2\n      lt\n      tag_280\n      jumpi\n      tag_281\n      tag_282\n      jump\t// in\n    tag_281:\n    tag_280:\n      0x20\n      mul\n      0x20\n      add\n      add\n      mload\n        /* \"contracts/Hook.sol\":5788:5805  return _tokens[1] */\n      swap4\n      pop\n      pop\n      pop\n      pop\n        /* \"contracts/Hook.sol\":5356:5822  function buyTokens(uint _buyEth) internal returns (uint){... */\n      swap2\n      swap1\n      pop\n      jump\t// out\n        /* \"#utility.yul\":7:84   */\n    tag_283:\n        /* \"#utility.yul\":44:51   */\n      0x00\n        /* \"#utility.yul\":73:78   */\n      dup2\n        /* \"#utility.yul\":62:78   */\n      swap1\n      pop\n        /* \"#utility.yul\":7:84   */\n      swap2\n      swap1\n      pop\n      jump\t// out\n        /* \"#utility.yul\":90:270   */\n    tag_284:\n        /* \"#utility.yul\":138:215   */\n      0x4e487b7100000000000000000000000000000000000000000000000000000000\n        /* \"#utility.yul\":135:136   */\n      0x00\n        /* \"#utility.yul\":128:216   */\n      mstore\n        /* \"#utility.yul\":235:239   */\n      0x11\n        /* \"#utility.yul\":232:233   */\n      0x04\n        /* \"#utility.yul\":225:240   */\n      mstore\n        /* \"#utility.yul\":259:263   */\n      0x24\n        /* \"#utility.yul\":256:257   */\n      0x00\n        /* \"#utility.yul\":249:264   */\n      revert\n        /* \"#utility.yul\":276:470   */\n    tag_28:\n        /* \"#utility.yul\":316:320   */\n      0x00\n        /* \"#utility.yul\":336:356   */\n      tag_334\n        /* \"#utility.yul\":354:355   */\n      dup3\n        /* \"#utility.yul\":336:356   */\n      tag_283\n      jump\t// in\n    tag_334:\n        /* \"#utility.yul\":331:356   */\n      swap2\n      pop\n        /* \"#utility.yul\":370:390   */\n      tag_335\n        /* \"#utility.yul\":388:389   */\n      dup4\n        /* \"#utility.yul\":370:390   */\n      tag_283\n      jump\t// in\n    tag_335:\n        /* \"#utility.yul\":365:390   */\n      swap3\n      pop\n        /* \"#utility.yul\":414:415   */\n      dup3\n        /* \"#utility.yul\":411:412   */\n      dup3\n        /* \"#utility.yul\":407:416   */\n      sub\n        /* \"#utility.yul\":399:416   */\n      swap1\n      pop\n        /* \"#utility.yul\":438:439   */\n      dup2\n        /* \"#utility.yul\":432:436   */\n      dup2\n        /* \"#utility.yul\":429:440   */\n      gt\n        /* \"#utility.yul\":426:463   */\n      iszero\n      tag_336\n      jumpi\n        /* \"#utility.yul\":443:461   */\n      tag_337\n      tag_284\n      jump\t// in\n    tag_337:\n        /* \"#utility.yul\":426:463   */\n    tag_336:\n        /* \"#utility.yul\":276:470   */\n      swap3\n      swap2\n      pop\n      pop\n      jump\t// out\n        /* \"#utility.yul\":476:645   */\n    tag_285:\n        /* \"#utility.yul\":560:571   */\n      0x00\n        /* \"#utility.yul\":594:600   */\n      dup3\n        /* \"#utility.yul\":589:592   */\n      dup3\n        /* \"#utility.yul\":582:601   */\n      mstore\n        /* \"#utility.yul\":634:638   */\n      0x20\n        /* \"#utility.yul\":629:632   */\n      dup3\n        /* \"#utility.yul\":625:639   */\n      add\n        /* \"#utility.yul\":610:639   */\n      swap1\n      pop\n        /* \"#utility.yul\":476:645   */\n      swap3\n      swap2\n      pop\n      pop\n      jump\t// out\n        /* \"#utility.yul\":651:872   */\n    tag_286:\n        /* \"#utility.yul\":791:825   */\n      0x6c6174657374207472616e73616374696f6e206e6f7420696e2070726f677265\n        /* \"#utility.yul\":787:788   */\n      0x00\n        /* \"#utility.yul\":779:785   */\n      dup3\n        /* \"#utility.yul\":775:789   */\n      add\n        /* \"#utility.yul\":768:826   */\n      mstore\n        /* \"#utility.yul\":860:864   */\n      0x7373000000000000000000000000000000000000000000000000000000000000\n        /* \"#utility.yul\":855:857   */\n      0x20\n        /* \"#utility.yul\":847:853   */\n      dup3\n        /* \"#utility.yul\":843:858   */\n      add\n        /* \"#utility.yul\":836:865   */\n      mstore\n        /* \"#utility.yul\":651:872   */\n      pop\n      jump\t// out\n        /* \"#utility.yul\":878:1244   */\n    tag_287:\n        /* \"#utility.yul\":1020:1023   */\n      0x00\n        /* \"#utility.yul\":1041:1108   */\n      tag_341\n        /* \"#utility.yul\":1105:1107   */\n      0x22\n        /* \"#utility.yul\":1100:1103   */\n      dup4\n        /* \"#utility.yul\":1041:1108   */\n      tag_285\n      jump\t// in\n    tag_341:\n        /* \"#utility.yul\":1034:1108   */\n      swap2\n      pop\n        /* \"#utility.yul\":1117:1210   */\n      tag_342\n        /* \"#utility.yul\":1206:1209   */\n      dup3\n        /* \"#utility.yul\":1117:1210   */\n      tag_286\n      jump\t// in\n    tag_342:\n        /* \"#utility.yul\":1235:1237   */\n      0x40\n        /* \"#utility.yul\":1230:1233   */\n      dup3\n        /* \"#utility.yul\":1226:1238   */\n      add\n        /* \"#utility.yul\":1219:1238   */\n      swap1\n      pop\n        /* \"#utility.yul\":878:1244   */\n      swap2\n      swap1\n      pop\n      jump\t// out\n        /* \"#utility.yul\":1250:1669   */\n    tag_31:\n        /* \"#utility.yul\":1416:1420   */\n      0x00\n        /* \"#utility.yul\":1454:1456   */\n      0x20\n        /* \"#utility.yul\":1443:1452   */\n      dup3\n        /* \"#utility.yul\":1439:1457   */\n      add\n        /* \"#utility.yul\":1431:1457   */\n      swap1\n      pop\n        /* \"#utility.yul\":1503:1512   */\n      dup2\n        /* \"#utility.yul\":1497:1501   */\n      dup2\n        /* \"#utility.yul\":1493:1513   */\n      sub\n        /* \"#utility.yul\":1489:1490   */\n      0x00\n        /* \"#utility.yul\":1478:1487   */\n      dup4\n        /* \"#utility.yul\":1474:1491   */\n      add\n        /* \"#utility.yul\":1467:1514   */\n      mstore\n        /* \"#utility.yul\":1531:1662   */\n      tag_344\n        /* \"#utility.yul\":1657:1661   */\n      dup2\n        /* \"#utility.yul\":1531:1662   */\n      tag_287\n      jump\t// in\n    tag_344:\n        /* \"#utility.yul\":1523:1662   */\n      swap1\n      pop\n        /* \"#utility.yul\":1250:1669   */\n      swap2\n      swap1\n      pop\n      jump\t// out\n        /* \"#utility.yul\":1675:2085   */\n    tag_34:\n        /* \"#utility.yul\":1715:1722   */\n      0x00\n        /* \"#utility.yul\":1738:1758   */\n      tag_346\n        /* \"#utility.yul\":1756:1757   */\n      dup3\n        /* \"#utility.yul\":1738:1758   */\n      tag_283\n      jump\t// in\n    tag_346:\n        /* \"#utility.yul\":1733:1758   */\n      swap2\n      pop\n        /* \"#utility.yul\":1772:1792   */\n      tag_347\n        /* \"#utility.yul\":1790:1791   */\n      dup4\n        /* \"#utility.yul\":1772:1792   */\n      tag_283\n      jump\t// in\n    tag_347:\n        /* \"#utility.yul\":1767:1792   */\n      swap3\n      pop\n        /* \"#utility.yul\":1827:1828   */\n      dup3\n        /* \"#utility.yul\":1824:1825   */\n      dup3\n        /* \"#utility.yul\":1820:1829   */\n      mul\n        /* \"#utility.yul\":1849:1879   */\n      tag_348\n        /* \"#utility.yul\":1867:1878   */\n      dup2\n        /* \"#utility.yul\":1849:1879   */\n      tag_283\n      jump\t// in\n    tag_348:\n        /* \"#utility.yul\":1838:1879   */\n      swap2\n      pop\n        /* \"#utility.yul\":2028:2029   */\n      dup3\n        /* \"#utility.yul\":2019:2026   */\n      dup3\n        /* \"#utility.yul\":2015:2030   */\n      div\n        /* \"#utility.yul\":2012:2013   */\n      dup5\n        /* \"#utility.yul\":2009:2031   */\n      eq\n        /* \"#utility.yul\":1989:1990   */\n      dup4\n        /* \"#utility.yul\":1982:1991   */\n      iszero\n        /* \"#utility.yul\":1962:2045   */\n      or\n        /* \"#utility.yul\":1939:2078   */\n      tag_349\n      jumpi\n        /* \"#utility.yul\":2058:2076   */\n      tag_350\n      tag_284\n      jump\t// in\n    tag_350:\n        /* \"#utility.yul\":1939:2078   */\n    tag_349:\n        /* \"#utility.yul\":1723:2085   */\n      pop\n        /* \"#utility.yul\":1675:2085   */\n      swap3\n      swap2\n      pop\n      pop\n      jump\t// out\n        /* \"#utility.yul\":2091:2271   */\n    tag_288:\n        /* \"#utility.yul\":2139:2216   */\n      0x4e487b7100000000000000000000000000000000000000000000000000000000\n        /* \"#utility.yul\":2136:2137   */\n      0x00\n        /* \"#utility.yul\":2129:2217   */\n      mstore\n        /* \"#utility.yul\":2236:2240   */\n      0x12\n        /* \"#utility.yul\":2233:2234   */\n      0x04\n        /* \"#utility.yul\":2226:2241   */\n      mstore\n        /* \"#utility.yul\":2260:2264   */\n      0x24\n        /* \"#utility.yul\":2257:2258   */\n      0x00\n        /* \"#utility.yul\":2250:2265   */\n      revert\n        /* \"#utility.yul\":2277:2462   */\n    tag_36:\n        /* \"#utility.yul\":2317:2318   */\n      0x00\n        /* \"#utility.yul\":2334:2354   */\n      tag_353\n        /* \"#utility.yul\":2352:2353   */\n      dup3\n        /* \"#utility.yul\":2334:2354   */\n      tag_283\n      jump\t// in\n    tag_353:\n        /* \"#utility.yul\":2329:2354   */\n      swap2\n      pop\n        /* \"#utility.yul\":2368:2388   */\n      tag_354\n        /* \"#utility.yul\":2386:2387   */\n      dup4\n        /* \"#utility.yul\":2368:2388   */\n      tag_283\n      jump\t// in\n    tag_354:\n        /* \"#utility.yul\":2363:2388   */\n      swap3\n      pop\n        /* \"#utility.yul\":2407:2408   */\n      dup3\n        /* \"#utility.yul\":2397:2432   */\n      tag_355\n      jumpi\n        /* \"#utility.yul\":2412:2430   */\n      tag_356\n      tag_288\n      jump\t// in\n    tag_356:\n        /* \"#utility.yul\":2397:2432   */\n    tag_355:\n        /* \"#utility.yul\":2454:2455   */\n      dup3\n        /* \"#utility.yul\":2451:2452   */\n      dup3\n        /* \"#utility.yul\":2447:2456   */\n      div\n        /* \"#utility.yul\":2442:2456   */\n      swap1\n      pop\n        /* \"#utility.yul\":2277:2462   */\n      swap3\n      swap2\n      pop\n      pop\n      jump\t// out\n        /* \"#utility.yul\":2468:2642   */\n    tag_289:\n        /* \"#utility.yul\":2608:2634   */\n      0x6574682073656e74206e6f74206869676820656e6f7567680000000000000000\n        /* \"#utility.yul\":2604:2605   */\n      0x00\n        /* \"#utility.yul\":2596:2602   */\n      dup3\n        /* \"#utility.yul\":2592:2606   */\n      add\n        /* \"#utility.yul\":2585:2635   */\n      mstore\n        /* \"#utility.yul\":2468:2642   */\n      pop\n      jump\t// out\n        /* \"#utility.yul\":2648:3014   */\n    tag_290:\n        /* \"#utility.yul\":2790:2793   */\n      0x00\n        /* \"#utility.yul\":2811:2878   */\n      tag_359\n        /* \"#utility.yul\":2875:2877   */\n      0x18\n        /* \"#utility.yul\":2870:2873   */\n      dup4\n        /* \"#utility.yul\":2811:2878   */\n      tag_285\n      jump\t// in\n    tag_359:\n        /* \"#utility.yul\":2804:2878   */\n      swap2\n      pop\n        /* \"#utility.yul\":2887:2980   */\n      tag_360\n        /* \"#utility.yul\":2976:2979   */\n      dup3\n        /* \"#utility.yul\":2887:2980   */\n      tag_289\n      jump\t// in\n    tag_360:\n        /* \"#utility.yul\":3005:3007   */\n      0x20\n        /* \"#utility.yul\":3000:3003   */\n      dup3\n        /* \"#utility.yul\":2996:3008   */\n      add\n        /* \"#utility.yul\":2989:3008   */\n      swap1\n      pop\n        /* \"#utility.yul\":2648:3014   */\n      swap2\n      swap1\n      pop\n      jump\t// out\n        /* \"#utility.yul\":3020:3439   */\n    tag_39:\n        /* \"#utility.yul\":3186:3190   */\n      0x00\n        /* \"#utility.yul\":3224:3226   */\n      0x20\n        /* \"#utility.yul\":3213:3222   */\n      dup3\n        /* \"#utility.yul\":3209:3227   */\n      add\n        /* \"#utility.yul\":3201:3227   */\n      swap1\n      pop\n        /* \"#utility.yul\":3273:3282   */\n      dup2\n        /* \"#utility.yul\":3267:3271   */\n      dup2\n        /* \"#utility.yul\":3263:3283   */\n      sub\n        /* \"#utility.yul\":3259:3260   */\n      0x00\n        /* \"#utility.yul\":3248:3257   */\n      dup4\n        /* \"#utility.yul\":3244:3261   */\n      add\n        /* \"#utility.yul\":3237:3284   */\n      mstore\n        /* \"#utility.yul\":3301:3432   */\n      tag_362\n        /* \"#utility.yul\":3427:3431   */\n      dup2\n        /* \"#utility.yul\":3301:3432   */\n      tag_290\n      jump\t// in\n    tag_362:\n        /* \"#utility.yul\":3293:3432   */\n      swap1\n      pop\n        /* \"#utility.yul\":3020:3439   */\n      swap2\n      swap1\n      pop\n      jump\t// out\n        /* \"#utility.yul\":3445:3535   */\n    tag_291:\n        /* \"#utility.yul\":3479:3486   */\n      0x00\n        /* \"#utility.yul\":3522:3527   */\n      dup2\n        /* \"#utility.yul\":3515:3528   */\n      iszero\n        /* \"#utility.yul\":3508:3529   */\n      iszero\n        /* \"#utility.yul\":3497:3529   */\n      swap1\n      pop\n        /* \"#utility.yul\":3445:3535   */\n      swap2\n      swap1\n      pop\n      jump\t// out\n        /* \"#utility.yul\":3541:3650   */\n    tag_292:\n        /* \"#utility.yul\":3622:3643   */\n      tag_365\n        /* \"#utility.yul\":3637:3642   */\n      dup2\n        /* \"#utility.yul\":3622:3643   */\n      tag_291\n      jump\t// in\n    tag_365:\n        /* \"#utility.yul\":3617:3620   */\n      dup3\n        /* \"#utility.yul\":3610:3644   */\n      mstore\n        /* \"#utility.yul\":3541:3650   */\n      pop\n      pop\n      jump\t// out\n        /* \"#utility.yul\":3656:3866   */\n    tag_48:\n        /* \"#utility.yul\":3743:3747   */\n      0x00\n        /* \"#utility.yul\":3781:3783   */\n      0x20\n        /* \"#utility.yul\":3770:3779   */\n      dup3\n        /* \"#utility.yul\":3766:3784   */\n      add\n        /* \"#utility.yul\":3758:3784   */\n      swap1\n      pop\n        /* \"#utility.yul\":3794:3859   */\n      tag_367\n        /* \"#utility.yul\":3856:3857   */\n      0x00\n        /* \"#utility.yul\":3845:3854   */\n      dup4\n        /* \"#utility.yul\":3841:3858   */\n      add\n        /* \"#utility.yul\":3832:3838   */\n      dup5\n        /* \"#utility.yul\":3794:3859   */\n      tag_292\n      jump\t// in\n    tag_367:\n        /* \"#utility.yul\":3656:3866   */\n      swap3\n      swap2\n      pop\n      pop\n      jump\t// out\n        /* \"#utility.yul\":3872:3947   */\n    tag_293:\n        /* \"#utility.yul\":3905:3911   */\n      0x00\n        /* \"#utility.yul\":3938:3940   */\n      0x40\n        /* \"#utility.yul\":3932:3941   */\n      mload\n        /* \"#utility.yul\":3922:3941   */\n      swap1\n      pop\n        /* \"#utility.yul\":3872:3947   */\n      swap1\n      jump\t// out\n        /* \"#utility.yul\":3953:4070   */\n    tag_294:\n        /* \"#utility.yul\":4062:4063   */\n      0x00\n        /* \"#utility.yul\":4059:4060   */\n      dup1\n        /* \"#utility.yul\":4052:4064   */\n      revert\n        /* \"#utility.yul\":4076:4193   */\n    tag_295:\n        /* \"#utility.yul\":4185:4186   */\n      0x00\n        /* \"#utility.yul\":4182:4183   */\n      dup1\n        /* \"#utility.yul\":4175:4187   */\n      revert\n        /* \"#utility.yul\":4199:4325   */\n    tag_296:\n        /* \"#utility.yul\":4236:4243   */\n      0x00\n        /* \"#utility.yul\":4276:4318   */\n      0xffffffffffffffffffffffffffffffffffffffff\n        /* \"#utility.yul\":4269:4274   */\n      dup3\n        /* \"#utility.yul\":4265:4319   */\n      and\n        /* \"#utility.yul\":4254:4319   */\n      swap1\n      pop\n        /* \"#utility.yul\":4199:4325   */\n      swap2\n      swap1\n      pop\n      jump\t// out\n        /* \"#utility.yul\":4331:4427   */\n    tag_297:\n        /* \"#utility.yul\":4368:4375   */\n      0x00\n        /* \"#utility.yul\":4397:4421   */\n      tag_373\n        /* \"#utility.yul\":4415:4420   */\n      dup3\n        /* \"#utility.yul\":4397:4421   */\n      tag_296\n      jump\t// in\n    tag_373:\n        /* \"#utility.yul\":4386:4421   */\n      swap1\n      pop\n        /* \"#utility.yul\":4331:4427   */\n      swap2\n      swap1\n      pop\n      jump\t// out\n        /* \"#utility.yul\":4433:4555   */\n    tag_298:\n        /* \"#utility.yul\":4506:4530   */\n      tag_375\n        /* \"#utility.yul\":4524:4529   */\n      dup2\n        /* \"#utility.yul\":4506:4530   */\n      tag_297\n      jump\t// in\n    tag_375:\n        /* \"#utility.yul\":4499:4504   */\n      dup2\n        /* \"#utility.yul\":4496:4531   */\n      eq\n        /* \"#utility.yul\":4486:4549   */\n      tag_376\n      jumpi\n        /* \"#utility.yul\":4545:4546   */\n      0x00\n        /* \"#utility.yul\":4542:4543   */\n      dup1\n        /* \"#utility.yul\":4535:4547   */\n      revert\n        /* \"#utility.yul\":4486:4549   */\n    tag_376:\n        /* \"#utility.yul\":4433:4555   */\n      pop\n      jump\t// out\n        /* \"#utility.yul\":4561:4700   */\n    tag_299:\n        /* \"#utility.yul\":4607:4612   */\n      0x00\n        /* \"#utility.yul\":4645:4651   */\n      dup2\n        /* \"#utility.yul\":4632:4652   */\n      calldataload\n        /* \"#utility.yul\":4623:4652   */\n      swap1\n      pop\n        /* \"#utility.yul\":4661:4694   */\n      tag_378\n        /* \"#utility.yul\":4688:4693   */\n      dup2\n        /* \"#utility.yul\":4661:4694   */\n      tag_298\n      jump\t// in\n    tag_378:\n        /* \"#utility.yul\":4561:4700   */\n      swap3\n      swap2\n      pop\n      pop\n      jump\t// out\n        /* \"#utility.yul\":4706:5035   */\n    tag_52:\n        /* \"#utility.yul\":4765:4771   */\n      0x00\n        /* \"#utility.yul\":4814:4816   */\n      0x20\n        /* \"#utility.yul\":4802:4811   */\n      dup3\n        /* \"#utility.yul\":4793:4800   */\n      dup5\n        /* \"#utility.yul\":4789:4812   */\n      sub\n        /* \"#utility.yul\":4785:4817   */\n      slt\n        /* \"#utility.yul\":4782:4901   */\n      iszero\n      tag_380\n      jumpi\n        /* \"#utility.yul\":4820:4899   */\n      tag_381\n      tag_294\n      jump\t// in\n    tag_381:\n        /* \"#utility.yul\":4782:4901   */\n    tag_380:\n        /* \"#utility.yul\":4940:4941   */\n      0x00\n        /* \"#utility.yul\":4965:5018   */\n      tag_382\n        /* \"#utility.yul\":5010:5017   */\n      dup5\n        /* \"#utility.yul\":5001:5007   */\n      dup3\n        /* \"#utility.yul\":4990:4999   */\n      dup6\n        /* \"#utility.yul\":4986:5008   */\n      add\n        /* \"#utility.yul\":4965:5018   */\n      tag_299\n      jump\t// in\n    tag_382:\n        /* \"#utility.yul\":4955:5018   */\n      swap2\n      pop\n        /* \"#utility.yul\":4911:5028   */\n      pop\n        /* \"#utility.yul\":4706:5035   */\n      swap3\n      swap2\n      pop\n      pop\n      jump\t// out\n        /* \"#utility.yul\":5041:5159   */\n    tag_300:\n        /* \"#utility.yul\":5128:5152   */\n      tag_384\n        /* \"#utility.yul\":5146:5151   */\n      dup2\n        /* \"#utility.yul\":5128:5152   */\n      tag_297\n      jump\t// in\n    tag_384:\n        /* \"#utility.yul\":5123:5126   */\n      dup3\n        /* \"#utility.yul\":5116:5153   */\n      mstore\n        /* \"#utility.yul\":5041:5159   */\n      pop\n      pop\n      jump\t// out\n        /* \"#utility.yul\":5165:5387   */\n    tag_58:\n        /* \"#utility.yul\":5258:5262   */\n      0x00\n        /* \"#utility.yul\":5296:5298   */\n      0x20\n        /* \"#utility.yul\":5285:5294   */\n      dup3\n        /* \"#utility.yul\":5281:5299   */\n      add\n        /* \"#utility.yul\":5273:5299   */\n      swap1\n      pop\n        /* \"#utility.yul\":5309:5380   */\n      tag_386\n        /* \"#utility.yul\":5377:5378   */\n      0x00\n        /* \"#utility.yul\":5366:5375   */\n      dup4\n        /* \"#utility.yul\":5362:5379   */\n      add\n        /* \"#utility.yul\":5353:5359   */\n      dup5\n        /* \"#utility.yul\":5309:5380   */\n      tag_300\n      jump\t// in\n    tag_386:\n        /* \"#utility.yul\":5165:5387   */\n      swap3\n      swap2\n      pop\n      pop\n      jump\t// out\n        /* \"#utility.yul\":5393:5515   */\n    tag_301:\n        /* \"#utility.yul\":5466:5490   */\n      tag_388\n        /* \"#utility.yul\":5484:5489   */\n      dup2\n        /* \"#utility.yul\":5466:5490   */\n      tag_283\n      jump\t// in\n    tag_388:\n        /* \"#utility.yul\":5459:5464   */\n      dup2\n        /* \"#utility.yul\":5456:5491   */\n      eq\n        /* \"#utility.yul\":5446:5509   */\n      tag_389\n      jumpi\n        /* \"#utility.yul\":5505:5506   */\n      0x00\n        /* \"#utility.yul\":5502:5503   */\n      dup1\n        /* \"#utility.yul\":5495:5507   */\n      revert\n        /* \"#utility.yul\":5446:5509   */\n    tag_389:\n        /* \"#utility.yul\":5393:5515   */\n      pop\n      jump\t// out\n        /* \"#utility.yul\":5521:5660   */\n    tag_302:\n        /* \"#utility.yul\":5567:5572   */\n      0x00\n        /* \"#utility.yul\":5605:5611   */\n      dup2\n        /* \"#utility.yul\":5592:5612   */\n      calldataload\n        /* \"#utility.yul\":5583:5612   */\n      swap1\n      pop\n        /* \"#utility.yul\":5621:5654   */\n      tag_391\n        /* \"#utility.yul\":5648:5653   */\n      dup2\n        /* \"#utility.yul\":5621:5654   */\n      tag_301\n      jump\t// in\n    tag_391:\n        /* \"#utility.yul\":5521:5660   */\n      swap3\n      swap2\n      pop\n      pop\n      jump\t// out\n        /* \"#utility.yul\":5666:5995   */\n    tag_62:\n        /* \"#utility.yul\":5725:5731   */\n      0x00\n        /* \"#utility.yul\":5774:5776   */\n      0x20\n        /* \"#utility.yul\":5762:5771   */\n      dup3\n        /* \"#utility.yul\":5753:5760   */\n      dup5\n        /* \"#utility.yul\":5749:5772   */\n      sub\n        /* \"#utility.yul\":5745:5777   */\n      slt\n        /* \"#utility.yul\":5742:5861   */\n      iszero\n      tag_393\n      jumpi\n        /* \"#utility.yul\":5780:5859   */\n      tag_394\n      tag_294\n      jump\t// in\n    tag_394:\n        /* \"#utility.yul\":5742:5861   */\n    tag_393:\n        /* \"#utility.yul\":5900:5901   */\n      0x00\n        /* \"#utility.yul\":5925:5978   */\n      tag_395\n        /* \"#utility.yul\":5970:5977   */\n      dup5\n        /* \"#utility.yul\":5961:5967   */\n      dup3\n        /* \"#utility.yul\":5950:5959   */\n      dup6\n        /* \"#utility.yul\":5946:5968   */\n      add\n        /* \"#utility.yul\":5925:5978   */\n      tag_302\n      jump\t// in\n    tag_395:\n        /* \"#utility.yul\":5915:5978   */\n      swap2\n      pop\n        /* \"#utility.yul\":5871:5988   */\n      pop\n        /* \"#utility.yul\":5666:5995   */\n      swap3\n      swap2\n      pop\n      pop\n      jump\t// out\n        /* \"#utility.yul\":6001:6119   */\n    tag_303:\n        /* \"#utility.yul\":6088:6112   */\n      tag_397\n        /* \"#utility.yul\":6106:6111   */\n      dup2\n        /* \"#utility.yul\":6088:6112   */\n      tag_283\n      jump\t// in\n    tag_397:\n        /* \"#utility.yul\":6083:6086   */\n      dup3\n        /* \"#utility.yul\":6076:6113   */\n      mstore\n        /* \"#utility.yul\":6001:6119   */\n      pop\n      pop\n      jump\t// out\n        /* \"#utility.yul\":6125:6975   */\n    tag_65:\n        /* \"#utility.yul\":6368:6372   */\n      0x00\n        /* \"#utility.yul\":6406:6409   */\n      0xe0\n        /* \"#utility.yul\":6395:6404   */\n      dup3\n        /* \"#utility.yul\":6391:6410   */\n      add\n        /* \"#utility.yul\":6383:6410   */\n      swap1\n      pop\n        /* \"#utility.yul\":6420:6491   */\n      tag_399\n        /* \"#utility.yul\":6488:6489   */\n      0x00\n        /* \"#utility.yul\":6477:6486   */\n      dup4\n        /* \"#utility.yul\":6473:6490   */\n      add\n        /* \"#utility.yul\":6464:6470   */\n      dup11\n        /* \"#utility.yul\":6420:6491   */\n      tag_303\n      jump\t// in\n    tag_399:\n        /* \"#utility.yul\":6501:6573   */\n      tag_400\n        /* \"#utility.yul\":6569:6571   */\n      0x20\n        /* \"#utility.yul\":6558:6567   */\n      dup4\n        /* \"#utility.yul\":6554:6572   */\n      add\n        /* \"#utility.yul\":6545:6551   */\n      dup10\n        /* \"#utility.yul\":6501:6573   */\n      tag_300\n      jump\t// in\n    tag_400:\n        /* \"#utility.yul\":6583:6649   */\n      tag_401\n        /* \"#utility.yul\":6645:6647   */\n      0x40\n        /* \"#utility.yul\":6634:6643   */\n      dup4\n        /* \"#utility.yul\":6630:6648   */\n      add\n        /* \"#utility.yul\":6621:6627   */\n      dup9\n        /* \"#utility.yul\":6583:6649   */\n      tag_292\n      jump\t// in\n    tag_401:\n        /* \"#utility.yul\":6659:6731   */\n      tag_402\n        /* \"#utility.yul\":6727:6729   */\n      0x60\n        /* \"#utility.yul\":6716:6725   */\n      dup4\n        /* \"#utility.yul\":6712:6730   */\n      add\n        /* \"#utility.yul\":6703:6709   */\n      dup8\n        /* \"#utility.yul\":6659:6731   */\n      tag_303\n      jump\t// in\n    tag_402:\n        /* \"#utility.yul\":6741:6808   */\n      tag_403\n        /* \"#utility.yul\":6803:6806   */\n      0x80\n        /* \"#utility.yul\":6792:6801   */\n      dup4\n        /* \"#utility.yul\":6788:6807   */\n      add\n        /* \"#utility.yul\":6779:6785   */\n      dup7\n        /* \"#utility.yul\":6741:6808   */\n      tag_292\n      jump\t// in\n    tag_403:\n        /* \"#utility.yul\":6818:6891   */\n      tag_404\n        /* \"#utility.yul\":6886:6889   */\n      0xa0\n        /* \"#utility.yul\":6875:6884   */\n      dup4\n        /* \"#utility.yul\":6871:6890   */\n      add\n        /* \"#utility.yul\":6862:6868   */\n      dup6\n        /* \"#utility.yul\":6818:6891   */\n      tag_303\n      jump\t// in\n    tag_404:\n        /* \"#utility.yul\":6901:6968   */\n      tag_405\n        /* \"#utility.yul\":6963:6966   */\n      0xc0\n        /* \"#utility.yul\":6952:6961   */\n      dup4\n        /* \"#utility.yul\":6948:6967   */\n      add\n        /* \"#utility.yul\":6939:6945   */\n      dup5\n        /* \"#utility.yul\":6901:6968   */\n      tag_292\n      jump\t// in\n    tag_405:\n        /* \"#utility.yul\":6125:6975   */\n      swap9\n      swap8\n      pop\n      pop\n      pop\n      pop\n      pop\n      pop\n      pop\n      pop\n      jump\t// out\n        /* \"#utility.yul\":6981:7203   */\n    tag_70:\n        /* \"#utility.yul\":7074:7078   */\n      0x00\n        /* \"#utility.yul\":7112:7114   */\n      0x20\n        /* \"#utility.yul\":7101:7110   */\n      dup3\n        /* \"#utility.yul\":7097:7115   */\n      add\n        /* \"#utility.yul\":7089:7115   */\n      swap1\n      pop\n        /* \"#utility.yul\":7125:7196   */\n      tag_407\n        /* \"#utility.yul\":7193:7194   */\n      0x00\n        /* \"#utility.yul\":7182:7191   */\n      dup4\n        /* \"#utility.yul\":7178:7195   */\n      add\n        /* \"#utility.yul\":7169:7175   */\n      dup5\n        /* \"#utility.yul\":7125:7196   */\n      tag_303\n      jump\t// in\n    tag_407:\n        /* \"#utility.yul\":6981:7203   */\n      swap3\n      swap2\n      pop\n      pop\n      jump\t// out\n        /* \"#utility.yul\":7209:7400   */\n    tag_146:\n        /* \"#utility.yul\":7249:7252   */\n      0x00\n        /* \"#utility.yul\":7268:7288   */\n      tag_409\n        /* \"#utility.yul\":7286:7287   */\n      dup3\n        /* \"#utility.yul\":7268:7288   */\n      tag_283\n      jump\t// in\n    tag_409:\n        /* \"#utility.yul\":7263:7288   */\n      swap2\n      pop\n        /* \"#utility.yul\":7302:7322   */\n      tag_410\n        /* \"#utility.yul\":7320:7321   */\n      dup4\n        /* \"#utility.yul\":7302:7322   */\n      tag_283\n      jump\t// in\n    tag_410:\n        /* \"#utility.yul\":7297:7322   */\n      swap3\n      pop\n        /* \"#utility.yul\":7345:7346   */\n      dup3\n        /* \"#utility.yul\":7342:7343   */\n      dup3\n        /* \"#utility.yul\":7338:7347   */\n      add\n        /* \"#utility.yul\":7331:7347   */\n      swap1\n      pop\n        /* \"#utility.yul\":7366:7369   */\n      dup1\n        /* \"#utility.yul\":7363:7364   */\n      dup3\n        /* \"#utility.yul\":7360:7370   */\n      gt\n        /* \"#utility.yul\":7357:7393   */\n      iszero\n      tag_411\n      jumpi\n        /* \"#utility.yul\":7373:7391   */\n      tag_412\n      tag_284\n      jump\t// in\n    tag_412:\n        /* \"#utility.yul\":7357:7393   */\n    tag_411:\n        /* \"#utility.yul\":7209:7400   */\n      swap3\n      swap2\n      pop\n      pop\n      jump\t// out\n        /* \"#utility.yul\":7406:7549   */\n    tag_304:\n        /* \"#utility.yul\":7463:7468   */\n      0x00\n        /* \"#utility.yul\":7494:7500   */\n      dup2\n        /* \"#utility.yul\":7488:7501   */\n      mload\n        /* \"#utility.yul\":7479:7501   */\n      swap1\n      pop\n        /* \"#utility.yul\":7510:7543   */\n      tag_414\n        /* \"#utility.yul\":7537:7542   */\n      dup2\n        /* \"#utility.yul\":7510:7543   */\n      tag_301\n      jump\t// in\n    tag_414:\n        /* \"#utility.yul\":7406:7549   */\n      swap3\n      swap2\n      pop\n      pop\n      jump\t// out\n        /* \"#utility.yul\":7555:7906   */\n    tag_167:\n        /* \"#utility.yul\":7625:7631   */\n      0x00\n        /* \"#utility.yul\":7674:7676   */\n      0x20\n        /* \"#utility.yul\":7662:7671   */\n      dup3\n        /* \"#utility.yul\":7653:7660   */\n      dup5\n        /* \"#utility.yul\":7649:7672   */\n      sub\n        /* \"#utility.yul\":7645:7677   */\n      slt\n        /* \"#utility.yul\":7642:7761   */\n      iszero\n      tag_416\n      jumpi\n        /* \"#utility.yul\":7680:7759   */\n      tag_417\n      tag_294\n      jump\t// in\n    tag_417:\n        /* \"#utility.yul\":7642:7761   */\n    tag_416:\n        /* \"#utility.yul\":7800:7801   */\n      0x00\n        /* \"#utility.yul\":7825:7889   */\n      tag_418\n        /* \"#utility.yul\":7881:7888   */\n      dup5\n        /* \"#utility.yul\":7872:7878   */\n      dup3\n        /* \"#utility.yul\":7861:7870   */\n      dup6\n        /* \"#utility.yul\":7857:7879   */\n      add\n        /* \"#utility.yul\":7825:7889   */\n      tag_304\n      jump\t// in\n    tag_418:\n        /* \"#utility.yul\":7815:7889   */\n      swap2\n      pop\n        /* \"#utility.yul\":7771:7899   */\n      pop\n        /* \"#utility.yul\":7555:7906   */\n      swap3\n      swap2\n      pop\n      pop\n      jump\t// out\n        /* \"#utility.yul\":7912:8244   */\n    tag_169:\n        /* \"#utility.yul\":8033:8037   */\n      0x00\n        /* \"#utility.yul\":8071:8073   */\n      0x40\n        /* \"#utility.yul\":8060:8069   */\n      dup3\n        /* \"#utility.yul\":8056:8074   */\n      add\n        /* \"#utility.yul\":8048:8074   */\n      swap1\n      pop\n        /* \"#utility.yul\":8084:8155   */\n      tag_420\n        /* \"#utility.yul\":8152:8153   */\n      0x00\n        /* \"#utility.yul\":8141:8150   */\n      dup4\n        /* \"#utility.yul\":8137:8154   */\n      add\n        /* \"#utility.yul\":8128:8134   */\n      dup6\n        /* \"#utility.yul\":8084:8155   */\n      tag_300\n      jump\t// in\n    tag_420:\n        /* \"#utility.yul\":8165:8237   */\n      tag_421\n        /* \"#utility.yul\":8233:8235   */\n      0x20\n        /* \"#utility.yul\":8222:8231   */\n      dup4\n        /* \"#utility.yul\":8218:8236   */\n      add\n        /* \"#utility.yul\":8209:8215   */\n      dup5\n        /* \"#utility.yul\":8165:8237   */\n      tag_303\n      jump\t// in\n    tag_421:\n        /* \"#utility.yul\":7912:8244   */\n      swap4\n      swap3\n      pop\n      pop\n      pop\n      jump\t// out\n        /* \"#utility.yul\":8250:8366   */\n    tag_305:\n        /* \"#utility.yul\":8320:8341   */\n      tag_423\n        /* \"#utility.yul\":8335:8340   */\n      dup2\n        /* \"#utility.yul\":8320:8341   */\n      tag_291\n      jump\t// in\n    tag_423:\n        /* \"#utility.yul\":8313:8318   */\n      dup2\n        /* \"#utility.yul\":8310:8342   */\n      eq\n        /* \"#utility.yul\":8300:8360   */\n      tag_424\n      jumpi\n        /* \"#utility.yul\":8356:8357   */\n      0x00\n        /* \"#utility.yul\":8353:8354   */\n      dup1\n        /* \"#utility.yul\":8346:8358   */\n      revert\n        /* \"#utility.yul\":8300:8360   */\n    tag_424:\n        /* \"#utility.yul\":8250:8366   */\n      pop\n      jump\t// out\n        /* \"#utility.yul\":8372:8509   */\n    tag_306:\n        /* \"#utility.yul\":8426:8431   */\n      0x00\n        /* \"#utility.yul\":8457:8463   */\n      dup2\n        /* \"#utility.yul\":8451:8464   */\n      mload\n        /* \"#utility.yul\":8442:8464   */\n      swap1\n      pop\n        /* \"#utility.yul\":8473:8503   */\n      tag_426\n        /* \"#utility.yul\":8497:8502   */\n      dup2\n        /* \"#utility.yul\":8473:8503   */\n      tag_305\n      jump\t// in\n    tag_426:\n        /* \"#utility.yul\":8372:8509   */\n      swap3\n      swap2\n      pop\n      pop\n      jump\t// out\n        /* \"#utility.yul\":8515:8860   */\n    tag_173:\n        /* \"#utility.yul\":8582:8588   */\n      0x00\n        /* \"#utility.yul\":8631:8633   */\n      0x20\n        /* \"#utility.yul\":8619:8628   */\n      dup3\n        /* \"#utility.yul\":8610:8617   */\n      dup5\n        /* \"#utility.yul\":8606:8629   */\n      sub\n        /* \"#utility.yul\":8602:8634   */\n      slt\n        /* \"#utility.yul\":8599:8718   */\n      iszero\n      tag_428\n      jumpi\n        /* \"#utility.yul\":8637:8716   */\n      tag_429\n      tag_294\n      jump\t// in\n    tag_429:\n        /* \"#utility.yul\":8599:8718   */\n    tag_428:\n        /* \"#utility.yul\":8757:8758   */\n      0x00\n        /* \"#utility.yul\":8782:8843   */\n      tag_430\n        /* \"#utility.yul\":8835:8842   */\n      dup5\n        /* \"#utility.yul\":8826:8832   */\n      dup3\n        /* \"#utility.yul\":8815:8824   */\n      dup6\n        /* \"#utility.yul\":8811:8833   */\n      add\n        /* \"#utility.yul\":8782:8843   */\n      tag_306\n      jump\t// in\n    tag_430:\n        /* \"#utility.yul\":8772:8843   */\n      swap2\n      pop\n        /* \"#utility.yul\":8728:8853   */\n      pop\n        /* \"#utility.yul\":8515:8860   */\n      swap3\n      swap2\n      pop\n      pop\n      jump\t// out\n        /* \"#utility.yul\":8866:9198   */\n    tag_220:\n        /* \"#utility.yul\":8987:8991   */\n      0x00\n        /* \"#utility.yul\":9025:9027   */\n      0x40\n        /* \"#utility.yul\":9014:9023   */\n      dup3\n        /* \"#utility.yul\":9010:9028   */\n      add\n        /* \"#utility.yul\":9002:9028   */\n      swap1\n      pop\n        /* \"#utility.yul\":9038:9109   */\n      tag_432\n        /* \"#utility.yul\":9106:9107   */\n      0x00\n        /* \"#utility.yul\":9095:9104   */\n      dup4\n        /* \"#utility.yul\":9091:9108   */\n      add\n        /* \"#utility.yul\":9082:9088   */\n      dup6\n        /* \"#utility.yul\":9038:9109   */\n      tag_303\n      jump\t// in\n    tag_432:\n        /* \"#utility.yul\":9119:9191   */\n      tag_433\n        /* \"#utility.yul\":9187:9189   */\n      0x20\n        /* \"#utility.yul\":9176:9185   */\n      dup4\n        /* \"#utility.yul\":9172:9190   */\n      add\n        /* \"#utility.yul\":9163:9169   */\n      dup5\n        /* \"#utility.yul\":9119:9191   */\n      tag_300\n      jump\t// in\n    tag_433:\n        /* \"#utility.yul\":8866:9198   */\n      swap4\n      swap3\n      pop\n      pop\n      pop\n      jump\t// out\n        /* \"#utility.yul\":9204:9979   */\n    tag_233:\n        /* \"#utility.yul\":9437:9441   */\n      0x00\n        /* \"#utility.yul\":9475:9478   */\n      0xc0\n        /* \"#utility.yul\":9464:9473   */\n      dup3\n        /* \"#utility.yul\":9460:9479   */\n      add\n        /* \"#utility.yul\":9452:9479   */\n      swap1\n      pop\n        /* \"#utility.yul\":9489:9560   */\n      tag_435\n        /* \"#utility.yul\":9557:9558   */\n      0x00\n        /* \"#utility.yul\":9546:9555   */\n      dup4\n        /* \"#utility.yul\":9542:9559   */\n      add\n        /* \"#utility.yul\":9533:9539   */\n      dup10\n        /* \"#utility.yul\":9489:9560   */\n      tag_300\n      jump\t// in\n    tag_435:\n        /* \"#utility.yul\":9570:9642   */\n      tag_436\n        /* \"#utility.yul\":9638:9640   */\n      0x20\n        /* \"#utility.yul\":9627:9636   */\n      dup4\n        /* \"#utility.yul\":9623:9641   */\n      add\n        /* \"#utility.yul\":9614:9620   */\n      dup9\n        /* \"#utility.yul\":9570:9642   */\n      tag_303\n      jump\t// in\n    tag_436:\n        /* \"#utility.yul\":9652:9724   */\n      tag_437\n        /* \"#utility.yul\":9720:9722   */\n      0x40\n        /* \"#utility.yul\":9709:9718   */\n      dup4\n        /* \"#utility.yul\":9705:9723   */\n      add\n        /* \"#utility.yul\":9696:9702   */\n      dup8\n        /* \"#utility.yul\":9652:9724   */\n      tag_303\n      jump\t// in\n    tag_437:\n        /* \"#utility.yul\":9734:9806   */\n      tag_438\n        /* \"#utility.yul\":9802:9804   */\n      0x60\n        /* \"#utility.yul\":9791:9800   */\n      dup4\n        /* \"#utility.yul\":9787:9805   */\n      add\n        /* \"#utility.yul\":9778:9784   */\n      dup7\n        /* \"#utility.yul\":9734:9806   */\n      tag_303\n      jump\t// in\n    tag_438:\n        /* \"#utility.yul\":9816:9889   */\n      tag_439\n        /* \"#utility.yul\":9884:9887   */\n      0x80\n        /* \"#utility.yul\":9873:9882   */\n      dup4\n        /* \"#utility.yul\":9869:9888   */\n      add\n        /* \"#utility.yul\":9860:9866   */\n      dup6\n        /* \"#utility.yul\":9816:9889   */\n      tag_300\n      jump\t// in\n    tag_439:\n        /* \"#utility.yul\":9899:9972   */\n      tag_440\n        /* \"#utility.yul\":9967:9970   */\n      0xa0\n        /* \"#utility.yul\":9956:9965   */\n      dup4\n        /* \"#utility.yul\":9952:9971   */\n      add\n        /* \"#utility.yul\":9943:9949   */\n      dup5\n        /* \"#utility.yul\":9899:9972   */\n      tag_303\n      jump\t// in\n    tag_440:\n        /* \"#utility.yul\":9204:9979   */\n      swap8\n      swap7\n      pop\n      pop\n      pop\n      pop\n      pop\n      pop\n      pop\n      jump\t// out\n        /* \"#utility.yul\":9985:10648   */\n    tag_236:\n        /* \"#utility.yul\":10073:10079   */\n      0x00\n        /* \"#utility.yul\":10081:10087   */\n      dup1\n        /* \"#utility.yul\":10089:10095   */\n      0x00\n        /* \"#utility.yul\":10138:10140   */\n      0x60\n        /* \"#utility.yul\":10126:10135   */\n      dup5\n        /* \"#utility.yul\":10117:10124   */\n      dup7\n        /* \"#utility.yul\":10113:10136   */\n      sub\n        /* \"#utility.yul\":10109:10141   */\n      slt\n        /* \"#utility.yul\":10106:10225   */\n      iszero\n      tag_442\n      jumpi\n        /* \"#utility.yul\":10144:10223   */\n      tag_443\n      tag_294\n      jump\t// in\n    tag_443:\n        /* \"#utility.yul\":10106:10225   */\n    tag_442:\n        /* \"#utility.yul\":10264:10265   */\n      0x00\n        /* \"#utility.yul\":10289:10353   */\n      tag_444\n        /* \"#utility.yul\":10345:10352   */\n      dup7\n        /* \"#utility.yul\":10336:10342   */\n      dup3\n        /* \"#utility.yul\":10325:10334   */\n      dup8\n        /* \"#utility.yul\":10321:10343   */\n      add\n        /* \"#utility.yul\":10289:10353   */\n      tag_304\n      jump\t// in\n    tag_444:\n        /* \"#utility.yul\":10279:10353   */\n      swap4\n      pop\n        /* \"#utility.yul\":10235:10363   */\n      pop\n        /* \"#utility.yul\":10402:10404   */\n      0x20\n        /* \"#utility.yul\":10428:10492   */\n      tag_445\n        /* \"#utility.yul\":10484:10491   */\n      dup7\n        /* \"#utility.yul\":10475:10481   */\n      dup3\n        /* \"#utility.yul\":10464:10473   */\n      dup8\n        /* \"#utility.yul\":10460:10482   */\n      add\n        /* \"#utility.yul\":10428:10492   */\n      tag_304\n      jump\t// in\n    tag_445:\n        /* \"#utility.yul\":10418:10492   */\n      swap3\n      pop\n        /* \"#utility.yul\":10373:10502   */\n      pop\n        /* \"#utility.yul\":10541:10543   */\n      0x40\n        /* \"#utility.yul\":10567:10631   */\n      tag_446\n        /* \"#utility.yul\":10623:10630   */\n      dup7\n        /* \"#utility.yul\":10614:10620   */\n      dup3\n        /* \"#utility.yul\":10603:10612   */\n      dup8\n        /* \"#utility.yul\":10599:10621   */\n      add\n        /* \"#utility.yul\":10567:10631   */\n      tag_304\n      jump\t// in\n    tag_446:\n        /* \"#utility.yul\":10557:10631   */\n      swap2\n      pop\n        /* \"#utility.yul\":10512:10641   */\n      pop\n        /* \"#utility.yul\":9985:10648   */\n      swap3\n      pop\n      swap3\n      pop\n      swap3\n      jump\t// out\n        /* \"#utility.yul\":10654:10826   */\n    tag_307:\n        /* \"#utility.yul\":10794:10818   */\n      0x4c6971756964697479204e6f742050726f766964656400000000000000000000\n        /* \"#utility.yul\":10790:10791   */\n      0x00\n        /* \"#utility.yul\":10782:10788   */\n      dup3\n        /* \"#utility.yul\":10778:10792   */\n      add\n        /* \"#utility.yul\":10771:10819   */\n      mstore\n        /* \"#utility.yul\":10654:10826   */\n      pop\n      jump\t// out\n        /* \"#utility.yul\":10832:11198   */\n    tag_308:\n        /* \"#utility.yul\":10974:10977   */\n      0x00\n        /* \"#utility.yul\":10995:11062   */\n      tag_449\n        /* \"#utility.yul\":11059:11061   */\n      0x16\n        /* \"#utility.yul\":11054:11057   */\n      dup4\n        /* \"#utility.yul\":10995:11062   */\n      tag_285\n      jump\t// in\n    tag_449:\n        /* \"#utility.yul\":10988:11062   */\n      swap2\n      pop\n        /* \"#utility.yul\":11071:11164   */\n      tag_450\n        /* \"#utility.yul\":11160:11163   */\n      dup3\n        /* \"#utility.yul\":11071:11164   */\n      tag_307\n      jump\t// in\n    tag_450:\n        /* \"#utility.yul\":11189:11191   */\n      0x20\n        /* \"#utility.yul\":11184:11187   */\n      dup3\n        /* \"#utility.yul\":11180:11192   */\n      add\n        /* \"#utility.yul\":11173:11192   */\n      swap1\n      pop\n        /* \"#utility.yul\":10832:11198   */\n      swap2\n      swap1\n      pop\n      jump\t// out\n        /* \"#utility.yul\":11204:11623   */\n    tag_242:\n        /* \"#utility.yul\":11370:11374   */\n      0x00\n        /* \"#utility.yul\":11408:11410   */\n      0x20\n        /* \"#utility.yul\":11397:11406   */\n      dup3\n        /* \"#utility.yul\":11393:11411   */\n      add\n        /* \"#utility.yul\":11385:11411   */\n      swap1\n      pop\n        /* \"#utility.yul\":11457:11466   */\n      dup2\n        /* \"#utility.yul\":11451:11455   */\n      dup2\n        /* \"#utility.yul\":11447:11467   */\n      sub\n        /* \"#utility.yul\":11443:11444   */\n      0x00\n        /* \"#utility.yul\":11432:11441   */\n      dup4\n        /* \"#utility.yul\":11428:11445   */\n      add\n        /* \"#utility.yul\":11421:11468   */\n      mstore\n        /* \"#utility.yul\":11485:11616   */\n      tag_452\n        /* \"#utility.yul\":11611:11615   */\n      dup2\n        /* \"#utility.yul\":11485:11616   */\n      tag_308\n      jump\t// in\n    tag_452:\n        /* \"#utility.yul\":11477:11616   */\n      swap1\n      pop\n        /* \"#utility.yul\":11204:11623   */\n      swap2\n      swap1\n      pop\n      jump\t// out\n        /* \"#utility.yul\":11629:11810   */\n    tag_309:\n        /* \"#utility.yul\":11769:11802   */\n      0x6c6971756964697479205375636365737366756c6c792050726f766964656400\n        /* \"#utility.yul\":11765:11766   */\n      0x00\n        /* \"#utility.yul\":11757:11763   */\n      dup3\n        /* \"#utility.yul\":11753:11767   */\n      add\n        /* \"#utility.yul\":11746:11803   */\n      mstore\n        /* \"#utility.yul\":11629:11810   */\n      pop\n      jump\t// out\n        /* \"#utility.yul\":11816:12182   */\n    tag_310:\n        /* \"#utility.yul\":11958:11961   */\n      0x00\n        /* \"#utility.yul\":11979:12046   */\n      tag_455\n        /* \"#utility.yul\":12043:12045   */\n      0x1f\n        /* \"#utility.yul\":12038:12041   */\n      dup4\n        /* \"#utility.yul\":11979:12046   */\n      tag_285\n      jump\t// in\n    tag_455:\n        /* \"#utility.yul\":11972:12046   */\n      swap2\n      pop\n        /* \"#utility.yul\":12055:12148   */\n      tag_456\n        /* \"#utility.yul\":12144:12147   */\n      dup3\n        /* \"#utility.yul\":12055:12148   */\n      tag_309\n      jump\t// in\n    tag_456:\n        /* \"#utility.yul\":12173:12175   */\n      0x20\n        /* \"#utility.yul\":12168:12171   */\n      dup3\n        /* \"#utility.yul\":12164:12176   */\n      add\n        /* \"#utility.yul\":12157:12176   */\n      swap1\n      pop\n        /* \"#utility.yul\":11816:12182   */\n      swap2\n      swap1\n      pop\n      jump\t// out\n        /* \"#utility.yul\":12188:12607   */\n    tag_245:\n        /* \"#utility.yul\":12354:12358   */\n      0x00\n        /* \"#utility.yul\":12392:12394   */\n      0x20\n        /* \"#utility.yul\":12381:12390   */\n      dup3\n        /* \"#utility.yul\":12377:12395   */\n      add\n        /* \"#utility.yul\":12369:12395   */\n      swap1\n      pop\n        /* \"#utility.yul\":12441:12450   */\n      dup2\n        /* \"#utility.yul\":12435:12439   */\n      dup2\n        /* \"#utility.yul\":12431:12451   */\n      sub\n        /* \"#utility.yul\":12427:12428   */\n      0x00\n        /* \"#utility.yul\":12416:12425   */\n      dup4\n        /* \"#utility.yul\":12412:12429   */\n      add\n        /* \"#utility.yul\":12405:12452   */\n      mstore\n        /* \"#utility.yul\":12469:12600   */\n      tag_458\n        /* \"#utility.yul\":12595:12599   */\n      dup2\n        /* \"#utility.yul\":12469:12600   */\n      tag_310\n      jump\t// in\n    tag_458:\n        /* \"#utility.yul\":12461:12600   */\n      swap1\n      pop\n        /* \"#utility.yul\":12188:12607   */\n      swap2\n      swap1\n      pop\n      jump\t// out\n        /* \"#utility.yul\":12613:12793   */\n    tag_272:\n        /* \"#utility.yul\":12661:12738   */\n      0x4e487b7100000000000000000000000000000000000000000000000000000000\n        /* \"#utility.yul\":12658:12659   */\n      0x00\n        /* \"#utility.yul\":12651:12739   */\n      mstore\n        /* \"#utility.yul\":12758:12762   */\n      0x41\n        /* \"#utility.yul\":12755:12756   */\n      0x04\n        /* \"#utility.yul\":12748:12763   */\n      mstore\n        /* \"#utility.yul\":12782:12786   */\n      0x24\n        /* \"#utility.yul\":12779:12780   */\n      0x00\n        /* \"#utility.yul\":12772:12787   */\n      revert\n        /* \"#utility.yul\":12799:12910   */\n    tag_311:\n        /* \"#utility.yul\":12863:12869   */\n      0x00\n        /* \"#utility.yul\":12897:12902   */\n      dup2\n        /* \"#utility.yul\":12891:12903   */\n      sload\n        /* \"#utility.yul\":12881:12903   */\n      swap1\n      pop\n        /* \"#utility.yul\":12799:12910   */\n      swap2\n      swap1\n      pop\n      jump\t// out\n        /* \"#utility.yul\":12916:13100   */\n    tag_312:\n        /* \"#utility.yul\":13015:13026   */\n      0x00\n        /* \"#utility.yul\":13049:13055   */\n      dup3\n        /* \"#utility.yul\":13044:13047   */\n      dup3\n        /* \"#utility.yul\":13037:13056   */\n      mstore\n        /* \"#utility.yul\":13089:13093   */\n      0x20\n        /* \"#utility.yul\":13084:13087   */\n      dup3\n        /* \"#utility.yul\":13080:13094   */\n      add\n        /* \"#utility.yul\":13065:13094   */\n      swap1\n      pop\n        /* \"#utility.yul\":12916:13100   */\n      swap3\n      swap2\n      pop\n      pop\n      jump\t// out\n        /* \"#utility.yul\":13106:13262   */\n    tag_313:\n        /* \"#utility.yul\":13170:13174   */\n      0x00\n        /* \"#utility.yul\":13193:13196   */\n      dup2\n        /* \"#utility.yul\":13185:13196   */\n      swap1\n      pop\n        /* \"#utility.yul\":13216:13219   */\n      dup2\n        /* \"#utility.yul\":13213:13214   */\n      0x00\n        /* \"#utility.yul\":13206:13220   */\n      mstore\n        /* \"#utility.yul\":13250:13254   */\n      0x20\n        /* \"#utility.yul\":13247:13248   */\n      0x00\n        /* \"#utility.yul\":13237:13255   */\n      keccak256\n        /* \"#utility.yul\":13229:13255   */\n      swap1\n      pop\n        /* \"#utility.yul\":13106:13262   */\n      swap2\n      swap1\n      pop\n      jump\t// out\n        /* \"#utility.yul\":13268:13376   */\n    tag_314:\n        /* \"#utility.yul\":13345:13369   */\n      tag_464\n        /* \"#utility.yul\":13363:13368   */\n      dup2\n        /* \"#utility.yul\":13345:13369   */\n      tag_297\n      jump\t// in\n    tag_464:\n        /* \"#utility.yul\":13340:13343   */\n      dup3\n        /* \"#utility.yul\":13333:13370   */\n      mstore\n        /* \"#utility.yul\":13268:13376   */\n      pop\n      pop\n      jump\t// out\n        /* \"#utility.yul\":13382:13561   */\n    tag_315:\n        /* \"#utility.yul\":13451:13461   */\n      0x00\n        /* \"#utility.yul\":13472:13518   */\n      tag_466\n        /* \"#utility.yul\":13514:13517   */\n      dup4\n        /* \"#utility.yul\":13506:13512   */\n      dup4\n        /* \"#utility.yul\":13472:13518   */\n      tag_314\n      jump\t// in\n    tag_466:\n        /* \"#utility.yul\":13550:13554   */\n      0x20\n        /* \"#utility.yul\":13545:13548   */\n      dup4\n        /* \"#utility.yul\":13541:13555   */\n      add\n        /* \"#utility.yul\":13527:13555   */\n      swap1\n      pop\n        /* \"#utility.yul\":13382:13561   */\n      swap3\n      swap2\n      pop\n      pop\n      jump\t// out\n        /* \"#utility.yul\":13567:13669   */\n    tag_316:\n        /* \"#utility.yul\":13609:13617   */\n      0x00\n        /* \"#utility.yul\":13656:13661   */\n      dup2\n        /* \"#utility.yul\":13653:13654   */\n      0x00\n        /* \"#utility.yul\":13649:13662   */\n      shr\n        /* \"#utility.yul\":13628:13662   */\n      swap1\n      pop\n        /* \"#utility.yul\":13567:13669   */\n      swap2\n      swap1\n      pop\n      jump\t// out\n        /* \"#utility.yul\":13675:13814   */\n    tag_317:\n        /* \"#utility.yul\":13725:13732   */\n      0x00\n        /* \"#utility.yul\":13765:13807   */\n      0xffffffffffffffffffffffffffffffffffffffff\n        /* \"#utility.yul\":13758:13763   */\n      dup3\n        /* \"#utility.yul\":13754:13808   */\n      and\n        /* \"#utility.yul\":13743:13808   */\n      swap1\n      pop\n        /* \"#utility.yul\":13675:13814   */\n      swap2\n      swap1\n      pop\n      jump\t// out\n        /* \"#utility.yul\":13820:13986   */\n    tag_318:\n        /* \"#utility.yul\":13889:13894   */\n      0x00\n        /* \"#utility.yul\":13914:13980   */\n      tag_470\n        /* \"#utility.yul\":13945:13979   */\n      tag_471\n        /* \"#utility.yul\":13968:13978   */\n      dup4\n        /* \"#utility.yul\":13945:13979   */\n      tag_316\n      jump\t// in\n    tag_471:\n        /* \"#utility.yul\":13914:13980   */\n      tag_317\n      jump\t// in\n    tag_470:\n        /* \"#utility.yul\":13905:13980   */\n      swap1\n      pop\n        /* \"#utility.yul\":13820:13986   */\n      swap2\n      swap1\n      pop\n      jump\t// out\n        /* \"#utility.yul\":13992:14136   */\n    tag_319:\n        /* \"#utility.yul\":14047:14052   */\n      0x00\n        /* \"#utility.yul\":14072:14129   */\n      tag_473\n        /* \"#utility.yul\":14123:14127   */\n      dup3\n        /* \"#utility.yul\":14117:14128   */\n      sload\n        /* \"#utility.yul\":14072:14129   */\n      tag_318\n      jump\t// in\n    tag_473:\n        /* \"#utility.yul\":14063:14129   */\n      swap1\n      pop\n        /* \"#utility.yul\":13992:14136   */\n      swap2\n      swap1\n      pop\n      jump\t// out\n        /* \"#utility.yul\":14142:14252   */\n    tag_320:\n        /* \"#utility.yul\":14209:14213   */\n      0x00\n        /* \"#utility.yul\":14241:14245   */\n      0x01\n        /* \"#utility.yul\":14236:14239   */\n      dup3\n        /* \"#utility.yul\":14232:14246   */\n      add\n        /* \"#utility.yul\":14224:14246   */\n      swap1\n      pop\n        /* \"#utility.yul\":14142:14252   */\n      swap2\n      swap1\n      pop\n      jump\t// out\n        /* \"#utility.yul\":14288:15039   */\n    tag_321:\n        /* \"#utility.yul\":14404:14407   */\n      0x00\n        /* \"#utility.yul\":14433:14484   */\n      tag_476\n        /* \"#utility.yul\":14478:14483   */\n      dup3\n        /* \"#utility.yul\":14433:14484   */\n      tag_311\n      jump\t// in\n    tag_476:\n        /* \"#utility.yul\":14500:14586   */\n      tag_477\n        /* \"#utility.yul\":14579:14585   */\n      dup2\n        /* \"#utility.yul\":14574:14577   */\n      dup6\n        /* \"#utility.yul\":14500:14586   */\n      tag_312\n      jump\t// in\n    tag_477:\n        /* \"#utility.yul\":14493:14586   */\n      swap4\n      pop\n        /* \"#utility.yul\":14610:14663   */\n      tag_478\n        /* \"#utility.yul\":14657:14662   */\n      dup4\n        /* \"#utility.yul\":14610:14663   */\n      tag_313\n      jump\t// in\n    tag_478:\n        /* \"#utility.yul\":14686:14693   */\n      dup1\n        /* \"#utility.yul\":14717:14718   */\n      0x00\n        /* \"#utility.yul\":14702:15014   */\n    tag_479:\n        /* \"#utility.yul\":14727:14733   */\n      dup4\n        /* \"#utility.yul\":14724:14725   */\n      dup2\n        /* \"#utility.yul\":14721:14734   */\n      lt\n        /* \"#utility.yul\":14702:15014   */\n      iszero\n      tag_481\n      jumpi\n        /* \"#utility.yul\":14797:14841   */\n      tag_482\n        /* \"#utility.yul\":14834:14840   */\n      dup3\n        /* \"#utility.yul\":14797:14841   */\n      tag_319\n      jump\t// in\n    tag_482:\n        /* \"#utility.yul\":14861:14924   */\n      tag_483\n        /* \"#utility.yul\":14920:14923   */\n      dup9\n        /* \"#utility.yul\":14905:14918   */\n      dup3\n        /* \"#utility.yul\":14861:14924   */\n      tag_315\n      jump\t// in\n    tag_483:\n        /* \"#utility.yul\":14854:14924   */\n      swap8\n      pop\n        /* \"#utility.yul\":14947:15004   */\n      tag_484\n        /* \"#utility.yul\":14997:15003   */\n      dup4\n        /* \"#utility.yul\":14947:15004   */\n      tag_320\n      jump\t// in\n    tag_484:\n        /* \"#utility.yul\":14937:15004   */\n      swap3\n      pop\n        /* \"#utility.yul\":14762:15014   */\n      pop\n        /* \"#utility.yul\":14749:14750   */\n      0x01\n        /* \"#utility.yul\":14746:14747   */\n      dup2\n        /* \"#utility.yul\":14742:14751   */\n      add\n        /* \"#utility.yul\":14737:14751   */\n      swap1\n      pop\n        /* \"#utility.yul\":14702:15014   */\n      jump(tag_479)\n    tag_481:\n        /* \"#utility.yul\":14706:14720   */\n      pop\n        /* \"#utility.yul\":15030:15033   */\n      dup6\n        /* \"#utility.yul\":15023:15033   */\n      swap4\n      pop\n        /* \"#utility.yul\":14409:15039   */\n      pop\n      pop\n      pop\n        /* \"#utility.yul\":14288:15039   */\n      swap3\n      swap2\n      pop\n      pop\n      jump\t// out\n        /* \"#utility.yul\":15045:15743   */\n    tag_275:\n        /* \"#utility.yul\":15269:15273   */\n      0x00\n        /* \"#utility.yul\":15307:15310   */\n      0x80\n        /* \"#utility.yul\":15296:15305   */\n      dup3\n        /* \"#utility.yul\":15292:15311   */\n      add\n        /* \"#utility.yul\":15284:15311   */\n      swap1\n      pop\n        /* \"#utility.yul\":15321:15392   */\n      tag_486\n        /* \"#utility.yul\":15389:15390   */\n      0x00\n        /* \"#utility.yul\":15378:15387   */\n      dup4\n        /* \"#utility.yul\":15374:15391   */\n      add\n        /* \"#utility.yul\":15365:15371   */\n      dup8\n        /* \"#utility.yul\":15321:15392   */\n      tag_303\n      jump\t// in\n    tag_486:\n        /* \"#utility.yul\":15439:15448   */\n      dup2\n        /* \"#utility.yul\":15433:15437   */\n      dup2\n        /* \"#utility.yul\":15429:15449   */\n      sub\n        /* \"#utility.yul\":15424:15426   */\n      0x20\n        /* \"#utility.yul\":15413:15422   */\n      dup4\n        /* \"#utility.yul\":15409:15427   */\n      add\n        /* \"#utility.yul\":15402:15450   */\n      mstore\n        /* \"#utility.yul\":15467:15572   */\n      tag_487\n        /* \"#utility.yul\":15567:15571   */\n      dup2\n        /* \"#utility.yul\":15558:15564   */\n      dup7\n        /* \"#utility.yul\":15467:15572   */\n      tag_321\n      jump\t// in\n    tag_487:\n        /* \"#utility.yul\":15459:15572   */\n      swap1\n      pop\n        /* \"#utility.yul\":15582:15654   */\n      tag_488\n        /* \"#utility.yul\":15650:15652   */\n      0x40\n        /* \"#utility.yul\":15639:15648   */\n      dup4\n        /* \"#utility.yul\":15635:15653   */\n      add\n        /* \"#utility.yul\":15626:15632   */\n      dup6\n        /* \"#utility.yul\":15582:15654   */\n      tag_300\n      jump\t// in\n    tag_488:\n        /* \"#utility.yul\":15664:15736   */\n      tag_489\n        /* \"#utility.yul\":15732:15734   */\n      0x60\n        /* \"#utility.yul\":15721:15730   */\n      dup4\n        /* \"#utility.yul\":15717:15735   */\n      add\n        /* \"#utility.yul\":15708:15714   */\n      dup5\n        /* \"#utility.yul\":15664:15736   */\n      tag_303\n      jump\t// in\n    tag_489:\n        /* \"#utility.yul\":15045:15743   */\n      swap6\n      swap5\n      pop\n      pop\n      pop\n      pop\n      pop\n      jump\t// out\n        /* \"#utility.yul\":15749:15866   */\n    tag_322:\n        /* \"#utility.yul\":15858:15859   */\n      0x00\n        /* \"#utility.yul\":15855:15856   */\n      dup1\n        /* \"#utility.yul\":15848:15860   */\n      revert\n        /* \"#utility.yul\":15872:15974   */\n    tag_323:\n        /* \"#utility.yul\":15913:15919   */\n      0x00\n        /* \"#utility.yul\":15964:15966   */\n      0x1f\n        /* \"#utility.yul\":15960:15967   */\n      not\n        /* \"#utility.yul\":15955:15957   */\n      0x1f\n        /* \"#utility.yul\":15948:15953   */\n      dup4\n        /* \"#utility.yul\":15944:15958   */\n      add\n        /* \"#utility.yul\":15940:15968   */\n      and\n        /* \"#utility.yul\":15930:15968   */\n      swap1\n      pop\n        /* \"#utility.yul\":15872:15974   */\n      swap2\n      swap1\n      pop\n      jump\t// out\n        /* \"#utility.yul\":15980:16261   */\n    tag_324:\n        /* \"#utility.yul\":16063:16090   */\n      tag_493\n        /* \"#utility.yul\":16085:16089   */\n      dup3\n        /* \"#utility.yul\":16063:16090   */\n      tag_323\n      jump\t// in\n    tag_493:\n        /* \"#utility.yul\":16055:16061   */\n      dup2\n        /* \"#utility.yul\":16051:16091   */\n      add\n        /* \"#utility.yul\":16193:16199   */\n      dup2\n        /* \"#utility.yul\":16181:16191   */\n      dup2\n        /* \"#utility.yul\":16178:16200   */\n      lt\n        /* \"#utility.yul\":16157:16175   */\n      0xffffffffffffffff\n        /* \"#utility.yul\":16145:16155   */\n      dup3\n        /* \"#utility.yul\":16142:16176   */\n      gt\n        /* \"#utility.yul\":16139:16201   */\n      or\n        /* \"#utility.yul\":16136:16224   */\n      iszero\n      tag_494\n      jumpi\n        /* \"#utility.yul\":16204:16222   */\n      tag_495\n      tag_272\n      jump\t// in\n    tag_495:\n        /* \"#utility.yul\":16136:16224   */\n    tag_494:\n        /* \"#utility.yul\":16244:16254   */\n      dup1\n        /* \"#utility.yul\":16240:16242   */\n      0x40\n        /* \"#utility.yul\":16233:16255   */\n      mstore\n        /* \"#utility.yul\":16023:16261   */\n      pop\n        /* \"#utility.yul\":15980:16261   */\n      pop\n      pop\n      jump\t// out\n        /* \"#utility.yul\":16267:16396   */\n    tag_325:\n        /* \"#utility.yul\":16301:16307   */\n      0x00\n        /* \"#utility.yul\":16328:16348   */\n      tag_497\n      tag_293\n      jump\t// in\n    tag_497:\n        /* \"#utility.yul\":16318:16348   */\n      swap1\n      pop\n        /* \"#utility.yul\":16357:16390   */\n      tag_498\n        /* \"#utility.yul\":16385:16389   */\n      dup3\n        /* \"#utility.yul\":16377:16383   */\n      dup3\n        /* \"#utility.yul\":16357:16390   */\n      tag_324\n      jump\t// in\n    tag_498:\n        /* \"#utility.yul\":16267:16396   */\n      swap2\n      swap1\n      pop\n      jump\t// out\n        /* \"#utility.yul\":16402:16713   */\n    tag_326:\n        /* \"#utility.yul\":16479:16483   */\n      0x00\n        /* \"#utility.yul\":16569:16587   */\n      0xffffffffffffffff\n        /* \"#utility.yul\":16561:16567   */\n      dup3\n        /* \"#utility.yul\":16558:16588   */\n      gt\n        /* \"#utility.yul\":16555:16611   */\n      iszero\n      tag_500\n      jumpi\n        /* \"#utility.yul\":16591:16609   */\n      tag_501\n      tag_272\n      jump\t// in\n    tag_501:\n        /* \"#utility.yul\":16555:16611   */\n    tag_500:\n        /* \"#utility.yul\":16641:16645   */\n      0x20\n        /* \"#utility.yul\":16633:16639   */\n      dup3\n        /* \"#utility.yul\":16629:16646   */\n      mul\n        /* \"#utility.yul\":16621:16646   */\n      swap1\n      pop\n        /* \"#utility.yul\":16701:16705   */\n      0x20\n        /* \"#utility.yul\":16695:16699   */\n      dup2\n        /* \"#utility.yul\":16691:16706   */\n      add\n        /* \"#utility.yul\":16683:16706   */\n      swap1\n      pop\n        /* \"#utility.yul\":16402:16713   */\n      swap2\n      swap1\n      pop\n      jump\t// out\n        /* \"#utility.yul\":16719:16836   */\n    tag_327:\n        /* \"#utility.yul\":16828:16829   */\n      0x00\n        /* \"#utility.yul\":16825:16826   */\n      dup1\n        /* \"#utility.yul\":16818:16830   */\n      revert\n        /* \"#utility.yul\":16859:17591   */\n    tag_328:\n        /* \"#utility.yul\":16966:16971   */\n      0x00\n        /* \"#utility.yul\":16991:17072   */\n      tag_504\n        /* \"#utility.yul\":17007:17071   */\n      tag_505\n        /* \"#utility.yul\":17064:17070   */\n      dup5\n        /* \"#utility.yul\":17007:17071   */\n      tag_326\n      jump\t// in\n    tag_505:\n        /* \"#utility.yul\":16991:17072   */\n      tag_325\n      jump\t// in\n    tag_504:\n        /* \"#utility.yul\":16982:17072   */\n      swap1\n      pop\n        /* \"#utility.yul\":17092:17097   */\n      dup1\n        /* \"#utility.yul\":17121:17127   */\n      dup4\n        /* \"#utility.yul\":17114:17119   */\n      dup3\n        /* \"#utility.yul\":17107:17128   */\n      mstore\n        /* \"#utility.yul\":17155:17159   */\n      0x20\n        /* \"#utility.yul\":17148:17153   */\n      dup3\n        /* \"#utility.yul\":17144:17160   */\n      add\n        /* \"#utility.yul\":17137:17160   */\n      swap1\n      pop\n        /* \"#utility.yul\":17208:17212   */\n      0x20\n        /* \"#utility.yul\":17200:17206   */\n      dup5\n        /* \"#utility.yul\":17196:17213   */\n      mul\n        /* \"#utility.yul\":17188:17194   */\n      dup4\n        /* \"#utility.yul\":17184:17214   */\n      add\n        /* \"#utility.yul\":17237:17240   */\n      dup6\n        /* \"#utility.yul\":17229:17235   */\n      dup2\n        /* \"#utility.yul\":17226:17241   */\n      gt\n        /* \"#utility.yul\":17223:17345   */\n      iszero\n      tag_506\n      jumpi\n        /* \"#utility.yul\":17256:17335   */\n      tag_507\n      tag_327\n      jump\t// in\n    tag_507:\n        /* \"#utility.yul\":17223:17345   */\n    tag_506:\n        /* \"#utility.yul\":17371:17377   */\n      dup4\n        /* \"#utility.yul\":17354:17585   */\n    tag_508:\n        /* \"#utility.yul\":17388:17394   */\n      dup2\n        /* \"#utility.yul\":17383:17386   */\n      dup2\n        /* \"#utility.yul\":17380:17395   */\n      lt\n        /* \"#utility.yul\":17354:17585   */\n      iszero\n      tag_510\n      jumpi\n        /* \"#utility.yul\":17463:17466   */\n      dup1\n        /* \"#utility.yul\":17492:17540   */\n      tag_511\n        /* \"#utility.yul\":17536:17539   */\n      dup9\n        /* \"#utility.yul\":17524:17534   */\n      dup3\n        /* \"#utility.yul\":17492:17540   */\n      tag_304\n      jump\t// in\n    tag_511:\n        /* \"#utility.yul\":17487:17490   */\n      dup5\n        /* \"#utility.yul\":17480:17541   */\n      mstore\n        /* \"#utility.yul\":17570:17574   */\n      0x20\n        /* \"#utility.yul\":17565:17568   */\n      dup5\n        /* \"#utility.yul\":17561:17575   */\n      add\n        /* \"#utility.yul\":17554:17575   */\n      swap4\n      pop\n        /* \"#utility.yul\":17430:17585   */\n      pop\n        /* \"#utility.yul\":17414:17418   */\n      0x20\n        /* \"#utility.yul\":17409:17412   */\n      dup2\n        /* \"#utility.yul\":17405:17419   */\n      add\n        /* \"#utility.yul\":17398:17419   */\n      swap1\n      pop\n        /* \"#utility.yul\":17354:17585   */\n      jump(tag_508)\n    tag_510:\n        /* \"#utility.yul\":17358:17379   */\n      pop\n        /* \"#utility.yul\":16972:17591   */\n      pop\n      pop\n        /* \"#utility.yul\":16859:17591   */\n      swap4\n      swap3\n      pop\n      pop\n      pop\n      jump\t// out\n        /* \"#utility.yul\":17614:17999   */\n    tag_329:\n        /* \"#utility.yul\":17696:17701   */\n      0x00\n        /* \"#utility.yul\":17745:17748   */\n      dup3\n        /* \"#utility.yul\":17738:17742   */\n      0x1f\n        /* \"#utility.yul\":17730:17736   */\n      dup4\n        /* \"#utility.yul\":17726:17743   */\n      add\n        /* \"#utility.yul\":17722:17749   */\n      slt\n        /* \"#utility.yul\":17712:17834   */\n      tag_513\n      jumpi\n        /* \"#utility.yul\":17753:17832   */\n      tag_514\n      tag_322\n      jump\t// in\n    tag_514:\n        /* \"#utility.yul\":17712:17834   */\n    tag_513:\n        /* \"#utility.yul\":17863:17869   */\n      dup2\n        /* \"#utility.yul\":17857:17870   */\n      mload\n        /* \"#utility.yul\":17888:17993   */\n      tag_515\n        /* \"#utility.yul\":17989:17992   */\n      dup5\n        /* \"#utility.yul\":17981:17987   */\n      dup3\n        /* \"#utility.yul\":17974:17978   */\n      0x20\n        /* \"#utility.yul\":17966:17972   */\n      dup7\n        /* \"#utility.yul\":17962:17979   */\n      add\n        /* \"#utility.yul\":17888:17993   */\n      tag_328\n      jump\t// in\n    tag_515:\n        /* \"#utility.yul\":17879:17993   */\n      swap2\n      pop\n        /* \"#utility.yul\":17702:17999   */\n      pop\n        /* \"#utility.yul\":17614:17999   */\n      swap3\n      swap2\n      pop\n      pop\n      jump\t// out\n        /* \"#utility.yul\":18005:18559   */\n    tag_279:\n        /* \"#utility.yul\":18100:18106   */\n      0x00\n        /* \"#utility.yul\":18149:18151   */\n      0x20\n        /* \"#utility.yul\":18137:18146   */\n      dup3\n        /* \"#utility.yul\":18128:18135   */\n      dup5\n        /* \"#utility.yul\":18124:18147   */\n      sub\n        /* \"#utility.yul\":18120:18152   */\n      slt\n        /* \"#utility.yul\":18117:18236   */\n      iszero\n      tag_517\n      jumpi\n        /* \"#utility.yul\":18155:18234   */\n      tag_518\n      tag_294\n      jump\t// in\n    tag_518:\n        /* \"#utility.yul\":18117:18236   */\n    tag_517:\n        /* \"#utility.yul\":18296:18297   */\n      0x00\n        /* \"#utility.yul\":18285:18294   */\n      dup3\n        /* \"#utility.yul\":18281:18298   */\n      add\n        /* \"#utility.yul\":18275:18299   */\n      mload\n        /* \"#utility.yul\":18326:18344   */\n      0xffffffffffffffff\n        /* \"#utility.yul\":18318:18324   */\n      dup2\n        /* \"#utility.yul\":18315:18345   */\n      gt\n        /* \"#utility.yul\":18312:18429   */\n      iszero\n      tag_519\n      jumpi\n        /* \"#utility.yul\":18348:18427   */\n      tag_520\n      tag_295\n      jump\t// in\n    tag_520:\n        /* \"#utility.yul\":18312:18429   */\n    tag_519:\n        /* \"#utility.yul\":18453:18542   */\n      tag_521\n        /* \"#utility.yul\":18534:18541   */\n      dup5\n        /* \"#utility.yul\":18525:18531   */\n      dup3\n        /* \"#utility.yul\":18514:18523   */\n      dup6\n        /* \"#utility.yul\":18510:18532   */\n      add\n        /* \"#utility.yul\":18453:18542   */\n      tag_329\n      jump\t// in\n    tag_521:\n        /* \"#utility.yul\":18443:18542   */\n      swap2\n      pop\n        /* \"#utility.yul\":18246:18552   */\n      pop\n        /* \"#utility.yul\":18005:18559   */\n      swap3\n      swap2\n      pop\n      pop\n      jump\t// out\n        /* \"#utility.yul\":18565:18745   */\n    tag_282:\n        /* \"#utility.yul\":18613:18690   */\n      0x4e487b7100000000000000000000000000000000000000000000000000000000\n        /* \"#utility.yul\":18610:18611   */\n      0x00\n        /* \"#utility.yul\":18603:18691   */\n      mstore\n        /* \"#utility.yul\":18710:18714   */\n      0x32\n        /* \"#utility.yul\":18707:18708   */\n      0x04\n        /* \"#utility.yul\":18700:18715   */\n      mstore\n        /* \"#utility.yul\":18734:18738   */\n      0x24\n        /* \"#utility.yul\":18731:18732   */\n      0x00\n        /* \"#utility.yul\":18724:18739   */\n      revert\n\n    auxdata: 0xa2646970667358221220f8b734b9cc2318a9e290bd3858d7a528c906fa7299a131a2447e46345158bd3a64736f6c63430008110033\n}\n",
				"bytecode": {
					"linkReferences": {},
					"object": "608060405273b4fbf271143f4fbf7b91a5ded31805e42b2208d66000806101000a81548173ffffffffffffffffffffffffffffffffffffffff021916908373ffffffffffffffffffffffffffffffffffffffff160217905550604051806040016040528060008054906101000a900473ffffffffffffffffffffffffffffffffffffffff1673ffffffffffffffffffffffffffffffffffffffff1673ffffffffffffffffffffffffffffffffffffffff168152602001600160009054906101000a900473ffffffffffffffffffffffffffffffffffffffff1673ffffffffffffffffffffffffffffffffffffffff1673ffffffffffffffffffffffffffffffffffffffff16815250600790600262000119929190620002b8565b50600560009054906101000a900473ffffffffffffffffffffffffffffffffffffffff16600860006101000a81548173ffffffffffffffffffffffffffffffffffffffff021916908373ffffffffffffffffffffffffffffffffffffffff16021790555060008054906101000a900473ffffffffffffffffffffffffffffffffffffffff16600960006101000a81548173ffffffffffffffffffffffffffffffffffffffff021916908373ffffffffffffffffffffffffffffffffffffffff160217905550600360009054906101000a900473ffffffffffffffffffffffffffffffffffffffff16600a60006101000a81548173ffffffffffffffffffffffffffffffffffffffff021916908373ffffffffffffffffffffffffffffffffffffffff160217905550600660009054906101000a900473ffffffffffffffffffffffffffffffffffffffff16600b60006101000a81548173ffffffffffffffffffffffffffffffffffffffff021916908373ffffffffffffffffffffffffffffffffffffffff160217905550348015620002b157600080fd5b5062000366565b82805482825590600052602060002090810192821562000334579160200282015b82811115620003335782518260006101000a81548173ffffffffffffffffffffffffffffffffffffffff021916908373ffffffffffffffffffffffffffffffffffffffff16021790555091602001919060010190620002d9565b5b50905062000343919062000347565b5090565b5b808211156200036257600081600090555060010162000348565b5090565b6122ca80620003766000396000f3fe6080604052600436106101185760003560e01c80639dd58b58116100a0578063aef7510711610064578063aef75107146104da578063af6d1fe414610505578063bd3733fe14610542578063bfd9ea5b1461056d578063c1f2e5f11461059857610288565b80639dd58b5814610403578063a09ede071461042e578063a6021ace14610459578063a785a3d814610484578063a89ae4ba146104af57610288565b80634cfd1ba5116100e75780634cfd1ba51461034f57806351cff8d91461037a578063777b506f146103a357806386d02608146103ce578063966824a3146103f957610288565b806301ac552d1461028d5780631b017fde146102b857806320ca3c7f146102e15780632c4c3c1b1461030c57610288565b3661028857600c60006001600d8054905061013391906118d0565b815260200190815260200160002060010160149054906101000a900460ff16610191576040517f08c379a000000000000000000000000000000000000000000000000000000000815260040161018890611987565b60405180910390fd5b600c60006002600d805490506101a791906118d0565b815260200190815260200160002060020154600a600d346101c891906119a7565b6101d29190611a18565b11610212576040517f08c379a000000000000000000000000000000000000000000000000000000000815260040161020990611a95565b60405180910390fd5b34600c60006001600d8054905061022991906118d0565b8152602001908152602001600020600201819055506000600c60006001600d8054905061025691906118d0565b815260200190815260200160002060010160146101000a81548160ff0219169083151502179055506102866105c3565b005b600080fd5b34801561029957600080fd5b506102a2610813565b6040516102af9190611ad0565b60405180910390f35b3480156102c457600080fd5b506102df60048036038101906102da9190611b5d565b6108a0565b005b3480156102ed57600080fd5b506102f66108e4565b6040516103039190611b99565b60405180910390f35b34801561031857600080fd5b50610333600480360381019061032e9190611be0565b61090a565b6040516103469796959493929190611c1c565b60405180910390f35b34801561035b57600080fd5b50610364610993565b6040516103719190611c8b565b60405180910390f35b34801561038657600080fd5b506103a1600480360381019061039c9190611b5d565b610999565b005b3480156103af57600080fd5b506103b8610aa0565b6040516103c59190611b99565b60405180910390f35b3480156103da57600080fd5b506103e3610ac6565b6040516103f09190611c8b565b60405180910390f35b610401610acc565b005b34801561040f57600080fd5b50610418610bb6565b6040516104259190611c8b565b60405180910390f35b34801561043a57600080fd5b50610443610c5b565b6040516104509190611c8b565b60405180910390f35b34801561046557600080fd5b5061046e610c61565b60405161047b9190611b99565b60405180910390f35b34801561049057600080fd5b50610499610c87565b6040516104a69190611b99565b60405180910390f35b3480156104bb57600080fd5b506104c4610cab565b6040516104d19190611b99565b60405180910390f35b3480156104e657600080fd5b506104ef610cd1565b6040516104fc9190611b99565b60405180910390f35b34801561051157600080fd5b5061052c60048036038101906105279190611be0565b610cf7565b6040516105399190611b99565b60405180910390f35b34801561054e57600080fd5b50610557610d36565b6040516105649190611b99565b60405180910390f35b34801561057957600080fd5b50610582610d5c565b60405161058f9190611c8b565b60405180910390f35b3480156105a457600080fd5b506105ad610d7f565b6040516105ba9190611c8b565b60405180910390f35b60003490506000600f5411156106155760004790506105e3600f54610ef6565b6000479050600081836105f691906118d0565b905080600f600082825461060a91906118d0565b925050819055505050505b60006010541115610663576000479050610630601054610f96565b5060004790506000818361064491906118d0565b9050806010600082825461065891906118d0565b925050819055505050505b6000600c60006002600d8054905061067b91906118d0565b815260200190815260200160002060010160009054906101000a900473ffffffffffffffffffffffffffffffffffffffff1690506106b881611471565b60006106c2610d7f565b905060148111156107225760004790506106db34610ef6565b6000479050600081836106ee91906118d0565b9050600081876106fe91906118d0565b905080600f60008282546107129190611ca6565b9250508190555050505050610781565b600047905061073d346010546107389190611ca6565b610f96565b5060004790506000818361075191906118d0565b90506000818761076191906118d0565b905080601060008282546107759190611ca6565b92505081905550505050505b600860009054906101000a900473ffffffffffffffffffffffffffffffffffffffff1673ffffffffffffffffffffffffffffffffffffffff16636a627842836040518263ffffffff1660e01b81526004016107dc9190611b99565b600060405180830381600087803b1580156107f657600080fd5b505af115801561080a573d6000803e3d6000fd5b50505050505050565b6000600460009054906101000a900473ffffffffffffffffffffffffffffffffffffffff1673ffffffffffffffffffffffffffffffffffffffff163373ffffffffffffffffffffffffffffffffffffffff161461086f57600080fd5b6000600c6000600d805490508152602001908152602001600020600201549050610898816115f3565b600191505090565b80600160006101000a81548173ffffffffffffffffffffffffffffffffffffffff021916908373ffffffffffffffffffffffffffffffffffffffff16021790555050565b600660009054906101000a900473ffffffffffffffffffffffffffffffffffffffff1681565b600c6020528060005260406000206000915090508060000154908060010160009054906101000a900473ffffffffffffffffffffffffffffffffffffffff16908060010160149054906101000a900460ff16908060020154908060030160009054906101000a900460ff16908060040154908060050160009054906101000a900460ff16905087565b600f5481565b600081905060008173ffffffffffffffffffffffffffffffffffffffff166370a08231306040518263ffffffff1660e01b81526004016109d99190611b99565b602060405180830381865afa1580156109f6573d6000803e3d6000fd5b505050506040513d601f19601f82011682018060405250810190610a1a9190611cef565b90508173ffffffffffffffffffffffffffffffffffffffff1663a9059cbb33836040518363ffffffff1660e01b8152600401610a57929190611d1c565b6020604051808303816000875af1158015610a76573d6000803e3d6000fd5b505050506040513d601f19601f82011682018060405250810190610a9a9190611d71565b50505050565b600460009054906101000a900473ffffffffffffffffffffffffffffffffffffffff1681565b600e5481565b600c60006001600d80549050610ae291906118d0565b815260200190815260200160002060010160149054906101000a900460ff16610b40576040517f08c379a0000000000000000000000000000000000000000000000000000000008152600401610b3790611987565b60405180910390fd5b34600c60006001600d80549050610b5791906118d0565b8152602001908152602001600020600201819055506000600c60006001600d80549050610b8491906118d0565b815260200190815260200160002060010160146101000a81548160ff021916908315150217905550610bb46105c3565b565b6000600960009054906101000a900473ffffffffffffffffffffffffffffffffffffffff1673ffffffffffffffffffffffffffffffffffffffff166370a08231306040518263ffffffff1660e01b8152600401610c139190611b99565b6020604051808303816000875af1158015610c32573d6000803e3d6000fd5b505050506040513d601f19601f82011682018060405250810190610c569190611cef565b905090565b60105481565b600160009054906101000a900473ffffffffffffffffffffffffffffffffffffffff1681565b60008054906101000a900473ffffffffffffffffffffffffffffffffffffffff1681565b600360009054906101000a900473ffffffffffffffffffffffffffffffffffffffff1681565b600560009054906101000a900473ffffffffffffffffffffffffffffffffffffffff1681565b60078181548110610d0757600080fd5b906000526020600020016000915054906101000a900473ffffffffffffffffffffffffffffffffffffffff1681565b600260009054906101000a900473ffffffffffffffffffffffffffffffffffffffff1681565b6000600c6000600d80549050815260200190815260200160002060020154905090565b600080600160009054906101000a900473ffffffffffffffffffffffffffffffffffffffff1673ffffffffffffffffffffffffffffffffffffffff166318160ddd6040518163ffffffff1660e01b8152600401602060405180830381865afa158015610def573d6000803e3d6000fd5b505050506040513d601f19601f82011682018060405250810190610e139190611cef565b90506000600160009054906101000a900473ffffffffffffffffffffffffffffffffffffffff1673ffffffffffffffffffffffffffffffffffffffff166370a08231600260009054906101000a900473ffffffffffffffffffffffffffffffffffffffff166040518263ffffffff1660e01b8152600401610e949190611b99565b602060405180830381865afa158015610eb1573d6000803e3d6000fd5b505050506040513d601f19601f82011682018060405250810190610ed59190611cef565b905081606482610ee591906119a7565b610eef9190611a18565b9250505090565b6000610f0182611676565b9050600160009054906101000a900473ffffffffffffffffffffffffffffffffffffffff1673ffffffffffffffffffffffffffffffffffffffff16639dc29fac33836040518363ffffffff1660e01b8152600401610f60929190611d1c565b600060405180830381600087803b158015610f7a57600080fd5b505af1158015610f8e573d6000803e3d6000fd5b505050505050565b6000806000600160009054906101000a900473ffffffffffffffffffffffffffffffffffffffff1673ffffffffffffffffffffffffffffffffffffffff166370a08231306040518263ffffffff1660e01b8152600401610ff69190611b99565b602060405180830381865afa158015611013573d6000803e3d6000fd5b505050506040513d601f19601f820116820180604052508101906110379190611cef565b9050600060646069600a60009054906101000a900473ffffffffffffffffffffffffffffffffffffffff1673ffffffffffffffffffffffffffffffffffffffff16633ac3558560008054906101000a900473ffffffffffffffffffffffffffffffffffffffff16896040518363ffffffff1660e01b81526004016110bc929190611d1c565b602060405180830381865afa1580156110d9573d6000803e3d6000fd5b505050506040513d601f19601f820116820180604052508101906110fd9190611cef565b61110791906119a7565b6111119190611a18565b90508181111561125457600160009054906101000a900473ffffffffffffffffffffffffffffffffffffffff1673ffffffffffffffffffffffffffffffffffffffff166396fe8349838361116591906118d0565b306040518363ffffffff1660e01b8152600401611183929190611d9e565b600060405180830381600087803b15801561119d57600080fd5b505af11580156111b1573d6000803e3d6000fd5b50505050600160009054906101000a900473ffffffffffffffffffffffffffffffffffffffff1673ffffffffffffffffffffffffffffffffffffffff166370a08231306040518263ffffffff1660e01b81526004016112109190611b99565b602060405180830381865afa15801561122d573d6000803e3d6000fd5b505050506040513d601f19601f820116820180604052508101906112519190611cef565b91505b600b60009054906101000a900473ffffffffffffffffffffffffffffffffffffffff1673ffffffffffffffffffffffffffffffffffffffff1663f305d7198630846069605f876112a491906119a7565b6112ae9190611a18565b6064605f8c6112bd91906119a7565b6112c79190611a18565b307fffffffffffffffffffffffffffffffffffffffffffffffffffffffffffffffff6040518863ffffffff1660e01b815260040161130a96959493929190611dc7565b60606040518083038185885af19350505050801561134657506040513d601f19601f820116820180604052508101906113439190611e28565b60015b611384577fcf34ef537ac33ee1ac626ca1587a0a7e8e51561e5514f8cb36afa1c5102b3bab60405161137790611ec7565b60405180910390a1611466565b5050507fcf34ef537ac33ee1ac626ca1587a0a7e8e51561e5514f8cb36afa1c5102b3bab6040516113b490611f33565b60405180910390a1600160009054906101000a900473ffffffffffffffffffffffffffffffffffffffff1673ffffffffffffffffffffffffffffffffffffffff166370a08231306040518263ffffffff1660e01b81526004016114179190611b99565b602060405180830381865afa158015611434573d6000803e3d6000fd5b505050506040513d601f19601f820116820180604052508101906114589190611cef565b8261146391906118d0565b92505b829350505050919050565b6000600c60006002600d8054905061148991906118d0565b81526020019081526020016000206002015490506000600a60009054906101000a900473ffffffffffffffffffffffffffffffffffffffff1673ffffffffffffffffffffffffffffffffffffffff16633ac3558560008054906101000a900473ffffffffffffffffffffffffffffffffffffffff16846040518363ffffffff1660e01b815260040161151c929190611d1c565b602060405180830381865afa158015611539573d6000803e3d6000fd5b505050506040513d601f19601f8201168201806040525081019061155d9190611cef565b9050600160009054906101000a900473ffffffffffffffffffffffffffffffffffffffff1673ffffffffffffffffffffffffffffffffffffffff166396fe834982856040518363ffffffff1660e01b81526004016115bc929190611d9e565b600060405180830381600087803b1580156115d657600080fd5b505af11580156115ea573d6000803e3d6000fd5b50505050505050565b6000600d8054905090506000600c6000600d805490508152602001908152602001600020905081816000018190555082816002018190555060018160010160146101000a81548160ff021916908315150217905550600d829080600181540180825580915050600190039060005260206000200160009091909190915055505050565b600080600a60009054906101000a900473ffffffffffffffffffffffffffffffffffffffff1673ffffffffffffffffffffffffffffffffffffffff16633ac3558560008054906101000a900473ffffffffffffffffffffffffffffffffffffffff16856040518363ffffffff1660e01b81526004016116f6929190611d1c565b602060405180830381865afa158015611713573d6000803e3d6000fd5b505050506040513d601f19601f820116820180604052508101906117379190611cef565b905060006064605f8361174a91906119a7565b6117549190611a18565b90506000600267ffffffffffffffff81111561177357611772611f53565b5b6040519080825280602002602001820160405280156117a15781602001602082028036833780820191505090505b509050600b60009054906101000a900473ffffffffffffffffffffffffffffffffffffffff1673ffffffffffffffffffffffffffffffffffffffff16637ff36ab586846007337fffffffffffffffffffffffffffffffffffffffffffffffffffffffffffffffff6040518663ffffffff1660e01b815260040161182794939291906120a6565b60006040518083038185885af1158015611845573d6000803e3d6000fd5b50505050506040513d6000823e3d601f19601f8201168201806040525081019061186f919061221c565b90508060018151811061188557611884612265565b5b60200260200101519350505050919050565b6000819050919050565b7f4e487b7100000000000000000000000000000000000000000000000000000000600052601160045260246000fd5b60006118db82611897565b91506118e683611897565b92508282039050818111156118fe576118fd6118a1565b5b92915050565b600082825260208201905092915050565b7f6c6174657374207472616e73616374696f6e206e6f7420696e2070726f67726560008201527f7373000000000000000000000000000000000000000000000000000000000000602082015250565b6000611971602283611904565b915061197c82611915565b604082019050919050565b600060208201905081810360008301526119a081611964565b9050919050565b60006119b282611897565b91506119bd83611897565b92508282026119cb81611897565b915082820484148315176119e2576119e16118a1565b5b5092915050565b7f4e487b7100000000000000000000000000000000000000000000000000000000600052601260045260246000fd5b6000611a2382611897565b9150611a2e83611897565b925082611a3e57611a3d6119e9565b5b828204905092915050565b7f6574682073656e74206e6f74206869676820656e6f7567680000000000000000600082015250565b6000611a7f601883611904565b9150611a8a82611a49565b602082019050919050565b60006020820190508181036000830152611aae81611a72565b9050919050565b60008115159050919050565b611aca81611ab5565b82525050565b6000602082019050611ae56000830184611ac1565b92915050565b6000604051905090565b600080fd5b600080fd5b600073ffffffffffffffffffffffffffffffffffffffff82169050919050565b6000611b2a82611aff565b9050919050565b611b3a81611b1f565b8114611b4557600080fd5b50565b600081359050611b5781611b31565b92915050565b600060208284031215611b7357611b72611af5565b5b6000611b8184828501611b48565b91505092915050565b611b9381611b1f565b82525050565b6000602082019050611bae6000830184611b8a565b92915050565b611bbd81611897565b8114611bc857600080fd5b50565b600081359050611bda81611bb4565b92915050565b600060208284031215611bf657611bf5611af5565b5b6000611c0484828501611bcb565b91505092915050565b611c1681611897565b82525050565b600060e082019050611c31600083018a611c0d565b611c3e6020830189611b8a565b611c4b6040830188611ac1565b611c586060830187611c0d565b611c656080830186611ac1565b611c7260a0830185611c0d565b611c7f60c0830184611ac1565b98975050505050505050565b6000602082019050611ca06000830184611c0d565b92915050565b6000611cb182611897565b9150611cbc83611897565b9250828201905080821115611cd457611cd36118a1565b5b92915050565b600081519050611ce981611bb4565b92915050565b600060208284031215611d0557611d04611af5565b5b6000611d1384828501611cda565b91505092915050565b6000604082019050611d316000830185611b8a565b611d3e6020830184611c0d565b9392505050565b611d4e81611ab5565b8114611d5957600080fd5b50565b600081519050611d6b81611d45565b92915050565b600060208284031215611d8757611d86611af5565b5b6000611d9584828501611d5c565b91505092915050565b6000604082019050611db36000830185611c0d565b611dc06020830184611b8a565b9392505050565b600060c082019050611ddc6000830189611b8a565b611de96020830188611c0d565b611df66040830187611c0d565b611e036060830186611c0d565b611e106080830185611b8a565b611e1d60a0830184611c0d565b979650505050505050565b600080600060608486031215611e4157611e40611af5565b5b6000611e4f86828701611cda565b9350506020611e6086828701611cda565b9250506040611e7186828701611cda565b9150509250925092565b7f4c6971756964697479204e6f742050726f766964656400000000000000000000600082015250565b6000611eb1601683611904565b9150611ebc82611e7b565b602082019050919050565b60006020820190508181036000830152611ee081611ea4565b9050919050565b7f6c6971756964697479205375636365737366756c6c792050726f766964656400600082015250565b6000611f1d601f83611904565b9150611f2882611ee7565b602082019050919050565b60006020820190508181036000830152611f4c81611f10565b9050919050565b7f4e487b7100000000000000000000000000000000000000000000000000000000600052604160045260246000fd5b600081549050919050565b600082825260208201905092915050565b60008190508160005260206000209050919050565b611fbc81611b1f565b82525050565b6000611fce8383611fb3565b60208301905092915050565b60008160001c9050919050565b600073ffffffffffffffffffffffffffffffffffffffff82169050919050565b600061201a61201583611fda565b611fe7565b9050919050565b600061202d8254612007565b9050919050565b6000600182019050919050565b600061204c82611f82565b6120568185611f8d565b935061206183611f9e565b8060005b838110156120995761207682612021565b6120808882611fc2565b975061208b83612034565b925050600181019050612065565b5085935050505092915050565b60006080820190506120bb6000830187611c0d565b81810360208301526120cd8186612041565b90506120dc6040830185611b8a565b6120e96060830184611c0d565b95945050505050565b600080fd5b6000601f19601f8301169050919050565b612111826120f7565b810181811067ffffffffffffffff821117156121305761212f611f53565b5b80604052505050565b6000612143611aeb565b905061214f8282612108565b919050565b600067ffffffffffffffff82111561216f5761216e611f53565b5b602082029050602081019050919050565b600080fd5b600061219861219384612154565b612139565b905080838252602082019050602084028301858111156121bb576121ba612180565b5b835b818110156121e457806121d08882611cda565b8452602084019350506020810190506121bd565b5050509392505050565b600082601f830112612203576122026120f2565b5b8151612213848260208601612185565b91505092915050565b60006020828403121561223257612231611af5565b5b600082015167ffffffffffffffff8111156122505761224f611afa565b5b61225c848285016121ee565b91505092915050565b7f4e487b7100000000000000000000000000000000000000000000000000000000600052603260045260246000fdfea2646970667358221220f8b734b9cc2318a9e290bd3858d7a528c906fa7299a131a2447e46345158bd3a64736f6c63430008110033",
					"opcodes": "PUSH1 0x80 PUSH1 0x40 MSTORE PUSH20 0xB4FBF271143F4FBF7B91A5DED31805E42B2208D6 PUSH1 0x0 DUP1 PUSH2 0x100 EXP DUP2 SLOAD DUP2 PUSH20 0xFFFFFFFFFFFFFFFFFFFFFFFFFFFFFFFFFFFFFFFF MUL NOT AND SWAP1 DUP4 PUSH20 0xFFFFFFFFFFFFFFFFFFFFFFFFFFFFFFFFFFFFFFFF AND MUL OR SWAP1 SSTORE POP PUSH1 0x40 MLOAD DUP1 PUSH1 0x40 ADD PUSH1 0x40 MSTORE DUP1 PUSH1 0x0 DUP1 SLOAD SWAP1 PUSH2 0x100 EXP SWAP1 DIV PUSH20 0xFFFFFFFFFFFFFFFFFFFFFFFFFFFFFFFFFFFFFFFF AND PUSH20 0xFFFFFFFFFFFFFFFFFFFFFFFFFFFFFFFFFFFFFFFF AND PUSH20 0xFFFFFFFFFFFFFFFFFFFFFFFFFFFFFFFFFFFFFFFF AND DUP2 MSTORE PUSH1 0x20 ADD PUSH1 0x1 PUSH1 0x0 SWAP1 SLOAD SWAP1 PUSH2 0x100 EXP SWAP1 DIV PUSH20 0xFFFFFFFFFFFFFFFFFFFFFFFFFFFFFFFFFFFFFFFF AND PUSH20 0xFFFFFFFFFFFFFFFFFFFFFFFFFFFFFFFFFFFFFFFF AND PUSH20 0xFFFFFFFFFFFFFFFFFFFFFFFFFFFFFFFFFFFFFFFF AND DUP2 MSTORE POP PUSH1 0x7 SWAP1 PUSH1 0x2 PUSH3 0x119 SWAP3 SWAP2 SWAP1 PUSH3 0x2B8 JUMP JUMPDEST POP PUSH1 0x5 PUSH1 0x0 SWAP1 SLOAD SWAP1 PUSH2 0x100 EXP SWAP1 DIV PUSH20 0xFFFFFFFFFFFFFFFFFFFFFFFFFFFFFFFFFFFFFFFF AND PUSH1 0x8 PUSH1 0x0 PUSH2 0x100 EXP DUP2 SLOAD DUP2 PUSH20 0xFFFFFFFFFFFFFFFFFFFFFFFFFFFFFFFFFFFFFFFF MUL NOT AND SWAP1 DUP4 PUSH20 0xFFFFFFFFFFFFFFFFFFFFFFFFFFFFFFFFFFFFFFFF AND MUL OR SWAP1 SSTORE POP PUSH1 0x0 DUP1 SLOAD SWAP1 PUSH2 0x100 EXP SWAP1 DIV PUSH20 0xFFFFFFFFFFFFFFFFFFFFFFFFFFFFFFFFFFFFFFFF AND PUSH1 0x9 PUSH1 0x0 PUSH2 0x100 EXP DUP2 SLOAD DUP2 PUSH20 0xFFFFFFFFFFFFFFFFFFFFFFFFFFFFFFFFFFFFFFFF MUL NOT AND SWAP1 DUP4 PUSH20 0xFFFFFFFFFFFFFFFFFFFFFFFFFFFFFFFFFFFFFFFF AND MUL OR SWAP1 SSTORE POP PUSH1 0x3 PUSH1 0x0 SWAP1 SLOAD SWAP1 PUSH2 0x100 EXP SWAP1 DIV PUSH20 0xFFFFFFFFFFFFFFFFFFFFFFFFFFFFFFFFFFFFFFFF AND PUSH1 0xA PUSH1 0x0 PUSH2 0x100 EXP DUP2 SLOAD DUP2 PUSH20 0xFFFFFFFFFFFFFFFFFFFFFFFFFFFFFFFFFFFFFFFF MUL NOT AND SWAP1 DUP4 PUSH20 0xFFFFFFFFFFFFFFFFFFFFFFFFFFFFFFFFFFFFFFFF AND MUL OR SWAP1 SSTORE POP PUSH1 0x6 PUSH1 0x0 SWAP1 SLOAD SWAP1 PUSH2 0x100 EXP SWAP1 DIV PUSH20 0xFFFFFFFFFFFFFFFFFFFFFFFFFFFFFFFFFFFFFFFF AND PUSH1 0xB PUSH1 0x0 PUSH2 0x100 EXP DUP2 SLOAD DUP2 PUSH20 0xFFFFFFFFFFFFFFFFFFFFFFFFFFFFFFFFFFFFFFFF MUL NOT AND SWAP1 DUP4 PUSH20 0xFFFFFFFFFFFFFFFFFFFFFFFFFFFFFFFFFFFFFFFF AND MUL OR SWAP1 SSTORE POP CALLVALUE DUP1 ISZERO PUSH3 0x2B1 JUMPI PUSH1 0x0 DUP1 REVERT JUMPDEST POP PUSH3 0x366 JUMP JUMPDEST DUP3 DUP1 SLOAD DUP3 DUP3 SSTORE SWAP1 PUSH1 0x0 MSTORE PUSH1 0x20 PUSH1 0x0 KECCAK256 SWAP1 DUP2 ADD SWAP3 DUP3 ISZERO PUSH3 0x334 JUMPI SWAP2 PUSH1 0x20 MUL DUP3 ADD JUMPDEST DUP3 DUP2 GT ISZERO PUSH3 0x333 JUMPI DUP3 MLOAD DUP3 PUSH1 0x0 PUSH2 0x100 EXP DUP2 SLOAD DUP2 PUSH20 0xFFFFFFFFFFFFFFFFFFFFFFFFFFFFFFFFFFFFFFFF MUL NOT AND SWAP1 DUP4 PUSH20 0xFFFFFFFFFFFFFFFFFFFFFFFFFFFFFFFFFFFFFFFF AND MUL OR SWAP1 SSTORE POP SWAP2 PUSH1 0x20 ADD SWAP2 SWAP1 PUSH1 0x1 ADD SWAP1 PUSH3 0x2D9 JUMP JUMPDEST JUMPDEST POP SWAP1 POP PUSH3 0x343 SWAP2 SWAP1 PUSH3 0x347 JUMP JUMPDEST POP SWAP1 JUMP JUMPDEST JUMPDEST DUP1 DUP3 GT ISZERO PUSH3 0x362 JUMPI PUSH1 0x0 DUP2 PUSH1 0x0 SWAP1 SSTORE POP PUSH1 0x1 ADD PUSH3 0x348 JUMP JUMPDEST POP SWAP1 JUMP JUMPDEST PUSH2 0x22CA DUP1 PUSH3 0x376 PUSH1 0x0 CODECOPY PUSH1 0x0 RETURN INVALID PUSH1 0x80 PUSH1 0x40 MSTORE PUSH1 0x4 CALLDATASIZE LT PUSH2 0x118 JUMPI PUSH1 0x0 CALLDATALOAD PUSH1 0xE0 SHR DUP1 PUSH4 0x9DD58B58 GT PUSH2 0xA0 JUMPI DUP1 PUSH4 0xAEF75107 GT PUSH2 0x64 JUMPI DUP1 PUSH4 0xAEF75107 EQ PUSH2 0x4DA JUMPI DUP1 PUSH4 0xAF6D1FE4 EQ PUSH2 0x505 JUMPI DUP1 PUSH4 0xBD3733FE EQ PUSH2 0x542 JUMPI DUP1 PUSH4 0xBFD9EA5B EQ PUSH2 0x56D JUMPI DUP1 PUSH4 0xC1F2E5F1 EQ PUSH2 0x598 JUMPI PUSH2 0x288 JUMP JUMPDEST DUP1 PUSH4 0x9DD58B58 EQ PUSH2 0x403 JUMPI DUP1 PUSH4 0xA09EDE07 EQ PUSH2 0x42E JUMPI DUP1 PUSH4 0xA6021ACE EQ PUSH2 0x459 JUMPI DUP1 PUSH4 0xA785A3D8 EQ PUSH2 0x484 JUMPI DUP1 PUSH4 0xA89AE4BA EQ PUSH2 0x4AF JUMPI PUSH2 0x288 JUMP JUMPDEST DUP1 PUSH4 0x4CFD1BA5 GT PUSH2 0xE7 JUMPI DUP1 PUSH4 0x4CFD1BA5 EQ PUSH2 0x34F JUMPI DUP1 PUSH4 0x51CFF8D9 EQ PUSH2 0x37A JUMPI DUP1 PUSH4 0x777B506F EQ PUSH2 0x3A3 JUMPI DUP1 PUSH4 0x86D02608 EQ PUSH2 0x3CE JUMPI DUP1 PUSH4 0x966824A3 EQ PUSH2 0x3F9 JUMPI PUSH2 0x288 JUMP JUMPDEST DUP1 PUSH4 0x1AC552D EQ PUSH2 0x28D JUMPI DUP1 PUSH4 0x1B017FDE EQ PUSH2 0x2B8 JUMPI DUP1 PUSH4 0x20CA3C7F EQ PUSH2 0x2E1 JUMPI DUP1 PUSH4 0x2C4C3C1B EQ PUSH2 0x30C JUMPI PUSH2 0x288 JUMP JUMPDEST CALLDATASIZE PUSH2 0x288 JUMPI PUSH1 0xC PUSH1 0x0 PUSH1 0x1 PUSH1 0xD DUP1 SLOAD SWAP1 POP PUSH2 0x133 SWAP2 SWAP1 PUSH2 0x18D0 JUMP JUMPDEST DUP2 MSTORE PUSH1 0x20 ADD SWAP1 DUP2 MSTORE PUSH1 0x20 ADD PUSH1 0x0 KECCAK256 PUSH1 0x1 ADD PUSH1 0x14 SWAP1 SLOAD SWAP1 PUSH2 0x100 EXP SWAP1 DIV PUSH1 0xFF AND PUSH2 0x191 JUMPI PUSH1 0x40 MLOAD PUSH32 0x8C379A000000000000000000000000000000000000000000000000000000000 DUP2 MSTORE PUSH1 0x4 ADD PUSH2 0x188 SWAP1 PUSH2 0x1987 JUMP JUMPDEST PUSH1 0x40 MLOAD DUP1 SWAP2 SUB SWAP1 REVERT JUMPDEST PUSH1 0xC PUSH1 0x0 PUSH1 0x2 PUSH1 0xD DUP1 SLOAD SWAP1 POP PUSH2 0x1A7 SWAP2 SWAP1 PUSH2 0x18D0 JUMP JUMPDEST DUP2 MSTORE PUSH1 0x20 ADD SWAP1 DUP2 MSTORE PUSH1 0x20 ADD PUSH1 0x0 KECCAK256 PUSH1 0x2 ADD SLOAD PUSH1 0xA PUSH1 0xD CALLVALUE PUSH2 0x1C8 SWAP2 SWAP1 PUSH2 0x19A7 JUMP JUMPDEST PUSH2 0x1D2 SWAP2 SWAP1 PUSH2 0x1A18 JUMP JUMPDEST GT PUSH2 0x212 JUMPI PUSH1 0x40 MLOAD PUSH32 0x8C379A000000000000000000000000000000000000000000000000000000000 DUP2 MSTORE PUSH1 0x4 ADD PUSH2 0x209 SWAP1 PUSH2 0x1A95 JUMP JUMPDEST PUSH1 0x40 MLOAD DUP1 SWAP2 SUB SWAP1 REVERT JUMPDEST CALLVALUE PUSH1 0xC PUSH1 0x0 PUSH1 0x1 PUSH1 0xD DUP1 SLOAD SWAP1 POP PUSH2 0x229 SWAP2 SWAP1 PUSH2 0x18D0 JUMP JUMPDEST DUP2 MSTORE PUSH1 0x20 ADD SWAP1 DUP2 MSTORE PUSH1 0x20 ADD PUSH1 0x0 KECCAK256 PUSH1 0x2 ADD DUP2 SWAP1 SSTORE POP PUSH1 0x0 PUSH1 0xC PUSH1 0x0 PUSH1 0x1 PUSH1 0xD DUP1 SLOAD SWAP1 POP PUSH2 0x256 SWAP2 SWAP1 PUSH2 0x18D0 JUMP JUMPDEST DUP2 MSTORE PUSH1 0x20 ADD SWAP1 DUP2 MSTORE PUSH1 0x20 ADD PUSH1 0x0 KECCAK256 PUSH1 0x1 ADD PUSH1 0x14 PUSH2 0x100 EXP DUP2 SLOAD DUP2 PUSH1 0xFF MUL NOT AND SWAP1 DUP4 ISZERO ISZERO MUL OR SWAP1 SSTORE POP PUSH2 0x286 PUSH2 0x5C3 JUMP JUMPDEST STOP JUMPDEST PUSH1 0x0 DUP1 REVERT JUMPDEST CALLVALUE DUP1 ISZERO PUSH2 0x299 JUMPI PUSH1 0x0 DUP1 REVERT JUMPDEST POP PUSH2 0x2A2 PUSH2 0x813 JUMP JUMPDEST PUSH1 0x40 MLOAD PUSH2 0x2AF SWAP2 SWAP1 PUSH2 0x1AD0 JUMP JUMPDEST PUSH1 0x40 MLOAD DUP1 SWAP2 SUB SWAP1 RETURN JUMPDEST CALLVALUE DUP1 ISZERO PUSH2 0x2C4 JUMPI PUSH1 0x0 DUP1 REVERT JUMPDEST POP PUSH2 0x2DF PUSH1 0x4 DUP1 CALLDATASIZE SUB DUP2 ADD SWAP1 PUSH2 0x2DA SWAP2 SWAP1 PUSH2 0x1B5D JUMP JUMPDEST PUSH2 0x8A0 JUMP JUMPDEST STOP JUMPDEST CALLVALUE DUP1 ISZERO PUSH2 0x2ED JUMPI PUSH1 0x0 DUP1 REVERT JUMPDEST POP PUSH2 0x2F6 PUSH2 0x8E4 JUMP JUMPDEST PUSH1 0x40 MLOAD PUSH2 0x303 SWAP2 SWAP1 PUSH2 0x1B99 JUMP JUMPDEST PUSH1 0x40 MLOAD DUP1 SWAP2 SUB SWAP1 RETURN JUMPDEST CALLVALUE DUP1 ISZERO PUSH2 0x318 JUMPI PUSH1 0x0 DUP1 REVERT JUMPDEST POP PUSH2 0x333 PUSH1 0x4 DUP1 CALLDATASIZE SUB DUP2 ADD SWAP1 PUSH2 0x32E SWAP2 SWAP1 PUSH2 0x1BE0 JUMP JUMPDEST PUSH2 0x90A JUMP JUMPDEST PUSH1 0x40 MLOAD PUSH2 0x346 SWAP8 SWAP7 SWAP6 SWAP5 SWAP4 SWAP3 SWAP2 SWAP1 PUSH2 0x1C1C JUMP JUMPDEST PUSH1 0x40 MLOAD DUP1 SWAP2 SUB SWAP1 RETURN JUMPDEST CALLVALUE DUP1 ISZERO PUSH2 0x35B JUMPI PUSH1 0x0 DUP1 REVERT JUMPDEST POP PUSH2 0x364 PUSH2 0x993 JUMP JUMPDEST PUSH1 0x40 MLOAD PUSH2 0x371 SWAP2 SWAP1 PUSH2 0x1C8B JUMP JUMPDEST PUSH1 0x40 MLOAD DUP1 SWAP2 SUB SWAP1 RETURN JUMPDEST CALLVALUE DUP1 ISZERO PUSH2 0x386 JUMPI PUSH1 0x0 DUP1 REVERT JUMPDEST POP PUSH2 0x3A1 PUSH1 0x4 DUP1 CALLDATASIZE SUB DUP2 ADD SWAP1 PUSH2 0x39C SWAP2 SWAP1 PUSH2 0x1B5D JUMP JUMPDEST PUSH2 0x999 JUMP JUMPDEST STOP JUMPDEST CALLVALUE DUP1 ISZERO PUSH2 0x3AF JUMPI PUSH1 0x0 DUP1 REVERT JUMPDEST POP PUSH2 0x3B8 PUSH2 0xAA0 JUMP JUMPDEST PUSH1 0x40 MLOAD PUSH2 0x3C5 SWAP2 SWAP1 PUSH2 0x1B99 JUMP JUMPDEST PUSH1 0x40 MLOAD DUP1 SWAP2 SUB SWAP1 RETURN JUMPDEST CALLVALUE DUP1 ISZERO PUSH2 0x3DA JUMPI PUSH1 0x0 DUP1 REVERT JUMPDEST POP PUSH2 0x3E3 PUSH2 0xAC6 JUMP JUMPDEST PUSH1 0x40 MLOAD PUSH2 0x3F0 SWAP2 SWAP1 PUSH2 0x1C8B JUMP JUMPDEST PUSH1 0x40 MLOAD DUP1 SWAP2 SUB SWAP1 RETURN JUMPDEST PUSH2 0x401 PUSH2 0xACC JUMP JUMPDEST STOP JUMPDEST CALLVALUE DUP1 ISZERO PUSH2 0x40F JUMPI PUSH1 0x0 DUP1 REVERT JUMPDEST POP PUSH2 0x418 PUSH2 0xBB6 JUMP JUMPDEST PUSH1 0x40 MLOAD PUSH2 0x425 SWAP2 SWAP1 PUSH2 0x1C8B JUMP JUMPDEST PUSH1 0x40 MLOAD DUP1 SWAP2 SUB SWAP1 RETURN JUMPDEST CALLVALUE DUP1 ISZERO PUSH2 0x43A JUMPI PUSH1 0x0 DUP1 REVERT JUMPDEST POP PUSH2 0x443 PUSH2 0xC5B JUMP JUMPDEST PUSH1 0x40 MLOAD PUSH2 0x450 SWAP2 SWAP1 PUSH2 0x1C8B JUMP JUMPDEST PUSH1 0x40 MLOAD DUP1 SWAP2 SUB SWAP1 RETURN JUMPDEST CALLVALUE DUP1 ISZERO PUSH2 0x465 JUMPI PUSH1 0x0 DUP1 REVERT JUMPDEST POP PUSH2 0x46E PUSH2 0xC61 JUMP JUMPDEST PUSH1 0x40 MLOAD PUSH2 0x47B SWAP2 SWAP1 PUSH2 0x1B99 JUMP JUMPDEST PUSH1 0x40 MLOAD DUP1 SWAP2 SUB SWAP1 RETURN JUMPDEST CALLVALUE DUP1 ISZERO PUSH2 0x490 JUMPI PUSH1 0x0 DUP1 REVERT JUMPDEST POP PUSH2 0x499 PUSH2 0xC87 JUMP JUMPDEST PUSH1 0x40 MLOAD PUSH2 0x4A6 SWAP2 SWAP1 PUSH2 0x1B99 JUMP JUMPDEST PUSH1 0x40 MLOAD DUP1 SWAP2 SUB SWAP1 RETURN JUMPDEST CALLVALUE DUP1 ISZERO PUSH2 0x4BB JUMPI PUSH1 0x0 DUP1 REVERT JUMPDEST POP PUSH2 0x4C4 PUSH2 0xCAB JUMP JUMPDEST PUSH1 0x40 MLOAD PUSH2 0x4D1 SWAP2 SWAP1 PUSH2 0x1B99 JUMP JUMPDEST PUSH1 0x40 MLOAD DUP1 SWAP2 SUB SWAP1 RETURN JUMPDEST CALLVALUE DUP1 ISZERO PUSH2 0x4E6 JUMPI PUSH1 0x0 DUP1 REVERT JUMPDEST POP PUSH2 0x4EF PUSH2 0xCD1 JUMP JUMPDEST PUSH1 0x40 MLOAD PUSH2 0x4FC SWAP2 SWAP1 PUSH2 0x1B99 JUMP JUMPDEST PUSH1 0x40 MLOAD DUP1 SWAP2 SUB SWAP1 RETURN JUMPDEST CALLVALUE DUP1 ISZERO PUSH2 0x511 JUMPI PUSH1 0x0 DUP1 REVERT JUMPDEST POP PUSH2 0x52C PUSH1 0x4 DUP1 CALLDATASIZE SUB DUP2 ADD SWAP1 PUSH2 0x527 SWAP2 SWAP1 PUSH2 0x1BE0 JUMP JUMPDEST PUSH2 0xCF7 JUMP JUMPDEST PUSH1 0x40 MLOAD PUSH2 0x539 SWAP2 SWAP1 PUSH2 0x1B99 JUMP JUMPDEST PUSH1 0x40 MLOAD DUP1 SWAP2 SUB SWAP1 RETURN JUMPDEST CALLVALUE DUP1 ISZERO PUSH2 0x54E JUMPI PUSH1 0x0 DUP1 REVERT JUMPDEST POP PUSH2 0x557 PUSH2 0xD36 JUMP JUMPDEST PUSH1 0x40 MLOAD PUSH2 0x564 SWAP2 SWAP1 PUSH2 0x1B99 JUMP JUMPDEST PUSH1 0x40 MLOAD DUP1 SWAP2 SUB SWAP1 RETURN JUMPDEST CALLVALUE DUP1 ISZERO PUSH2 0x579 JUMPI PUSH1 0x0 DUP1 REVERT JUMPDEST POP PUSH2 0x582 PUSH2 0xD5C JUMP JUMPDEST PUSH1 0x40 MLOAD PUSH2 0x58F SWAP2 SWAP1 PUSH2 0x1C8B JUMP JUMPDEST PUSH1 0x40 MLOAD DUP1 SWAP2 SUB SWAP1 RETURN JUMPDEST CALLVALUE DUP1 ISZERO PUSH2 0x5A4 JUMPI PUSH1 0x0 DUP1 REVERT JUMPDEST POP PUSH2 0x5AD PUSH2 0xD7F JUMP JUMPDEST PUSH1 0x40 MLOAD PUSH2 0x5BA SWAP2 SWAP1 PUSH2 0x1C8B JUMP JUMPDEST PUSH1 0x40 MLOAD DUP1 SWAP2 SUB SWAP1 RETURN JUMPDEST PUSH1 0x0 CALLVALUE SWAP1 POP PUSH1 0x0 PUSH1 0xF SLOAD GT ISZERO PUSH2 0x615 JUMPI PUSH1 0x0 SELFBALANCE SWAP1 POP PUSH2 0x5E3 PUSH1 0xF SLOAD PUSH2 0xEF6 JUMP JUMPDEST PUSH1 0x0 SELFBALANCE SWAP1 POP PUSH1 0x0 DUP2 DUP4 PUSH2 0x5F6 SWAP2 SWAP1 PUSH2 0x18D0 JUMP JUMPDEST SWAP1 POP DUP1 PUSH1 0xF PUSH1 0x0 DUP3 DUP3 SLOAD PUSH2 0x60A SWAP2 SWAP1 PUSH2 0x18D0 JUMP JUMPDEST SWAP3 POP POP DUP2 SWAP1 SSTORE POP POP POP POP JUMPDEST PUSH1 0x0 PUSH1 0x10 SLOAD GT ISZERO PUSH2 0x663 JUMPI PUSH1 0x0 SELFBALANCE SWAP1 POP PUSH2 0x630 PUSH1 0x10 SLOAD PUSH2 0xF96 JUMP JUMPDEST POP PUSH1 0x0 SELFBALANCE SWAP1 POP PUSH1 0x0 DUP2 DUP4 PUSH2 0x644 SWAP2 SWAP1 PUSH2 0x18D0 JUMP JUMPDEST SWAP1 POP DUP1 PUSH1 0x10 PUSH1 0x0 DUP3 DUP3 SLOAD PUSH2 0x658 SWAP2 SWAP1 PUSH2 0x18D0 JUMP JUMPDEST SWAP3 POP POP DUP2 SWAP1 SSTORE POP POP POP POP JUMPDEST PUSH1 0x0 PUSH1 0xC PUSH1 0x0 PUSH1 0x2 PUSH1 0xD DUP1 SLOAD SWAP1 POP PUSH2 0x67B SWAP2 SWAP1 PUSH2 0x18D0 JUMP JUMPDEST DUP2 MSTORE PUSH1 0x20 ADD SWAP1 DUP2 MSTORE PUSH1 0x20 ADD PUSH1 0x0 KECCAK256 PUSH1 0x1 ADD PUSH1 0x0 SWAP1 SLOAD SWAP1 PUSH2 0x100 EXP SWAP1 DIV PUSH20 0xFFFFFFFFFFFFFFFFFFFFFFFFFFFFFFFFFFFFFFFF AND SWAP1 POP PUSH2 0x6B8 DUP2 PUSH2 0x1471 JUMP JUMPDEST PUSH1 0x0 PUSH2 0x6C2 PUSH2 0xD7F JUMP JUMPDEST SWAP1 POP PUSH1 0x14 DUP2 GT ISZERO PUSH2 0x722 JUMPI PUSH1 0x0 SELFBALANCE SWAP1 POP PUSH2 0x6DB CALLVALUE PUSH2 0xEF6 JUMP JUMPDEST PUSH1 0x0 SELFBALANCE SWAP1 POP PUSH1 0x0 DUP2 DUP4 PUSH2 0x6EE SWAP2 SWAP1 PUSH2 0x18D0 JUMP JUMPDEST SWAP1 POP PUSH1 0x0 DUP2 DUP8 PUSH2 0x6FE SWAP2 SWAP1 PUSH2 0x18D0 JUMP JUMPDEST SWAP1 POP DUP1 PUSH1 0xF PUSH1 0x0 DUP3 DUP3 SLOAD PUSH2 0x712 SWAP2 SWAP1 PUSH2 0x1CA6 JUMP JUMPDEST SWAP3 POP POP DUP2 SWAP1 SSTORE POP POP POP POP POP PUSH2 0x781 JUMP JUMPDEST PUSH1 0x0 SELFBALANCE SWAP1 POP PUSH2 0x73D CALLVALUE PUSH1 0x10 SLOAD PUSH2 0x738 SWAP2 SWAP1 PUSH2 0x1CA6 JUMP JUMPDEST PUSH2 0xF96 JUMP JUMPDEST POP PUSH1 0x0 SELFBALANCE SWAP1 POP PUSH1 0x0 DUP2 DUP4 PUSH2 0x751 SWAP2 SWAP1 PUSH2 0x18D0 JUMP JUMPDEST SWAP1 POP PUSH1 0x0 DUP2 DUP8 PUSH2 0x761 SWAP2 SWAP1 PUSH2 0x18D0 JUMP JUMPDEST SWAP1 POP DUP1 PUSH1 0x10 PUSH1 0x0 DUP3 DUP3 SLOAD PUSH2 0x775 SWAP2 SWAP1 PUSH2 0x1CA6 JUMP JUMPDEST SWAP3 POP POP DUP2 SWAP1 SSTORE POP POP POP POP POP JUMPDEST PUSH1 0x8 PUSH1 0x0 SWAP1 SLOAD SWAP1 PUSH2 0x100 EXP SWAP1 DIV PUSH20 0xFFFFFFFFFFFFFFFFFFFFFFFFFFFFFFFFFFFFFFFF AND PUSH20 0xFFFFFFFFFFFFFFFFFFFFFFFFFFFFFFFFFFFFFFFF AND PUSH4 0x6A627842 DUP4 PUSH1 0x40 MLOAD DUP3 PUSH4 0xFFFFFFFF AND PUSH1 0xE0 SHL DUP2 MSTORE PUSH1 0x4 ADD PUSH2 0x7DC SWAP2 SWAP1 PUSH2 0x1B99 JUMP JUMPDEST PUSH1 0x0 PUSH1 0x40 MLOAD DUP1 DUP4 SUB DUP2 PUSH1 0x0 DUP8 DUP1 EXTCODESIZE ISZERO DUP1 ISZERO PUSH2 0x7F6 JUMPI PUSH1 0x0 DUP1 REVERT JUMPDEST POP GAS CALL ISZERO DUP1 ISZERO PUSH2 0x80A JUMPI RETURNDATASIZE PUSH1 0x0 DUP1 RETURNDATACOPY RETURNDATASIZE PUSH1 0x0 REVERT JUMPDEST POP POP POP POP POP POP POP JUMP JUMPDEST PUSH1 0x0 PUSH1 0x4 PUSH1 0x0 SWAP1 SLOAD SWAP1 PUSH2 0x100 EXP SWAP1 DIV PUSH20 0xFFFFFFFFFFFFFFFFFFFFFFFFFFFFFFFFFFFFFFFF AND PUSH20 0xFFFFFFFFFFFFFFFFFFFFFFFFFFFFFFFFFFFFFFFF AND CALLER PUSH20 0xFFFFFFFFFFFFFFFFFFFFFFFFFFFFFFFFFFFFFFFF AND EQ PUSH2 0x86F JUMPI PUSH1 0x0 DUP1 REVERT JUMPDEST PUSH1 0x0 PUSH1 0xC PUSH1 0x0 PUSH1 0xD DUP1 SLOAD SWAP1 POP DUP2 MSTORE PUSH1 0x20 ADD SWAP1 DUP2 MSTORE PUSH1 0x20 ADD PUSH1 0x0 KECCAK256 PUSH1 0x2 ADD SLOAD SWAP1 POP PUSH2 0x898 DUP2 PUSH2 0x15F3 JUMP JUMPDEST PUSH1 0x1 SWAP2 POP POP SWAP1 JUMP JUMPDEST DUP1 PUSH1 0x1 PUSH1 0x0 PUSH2 0x100 EXP DUP2 SLOAD DUP2 PUSH20 0xFFFFFFFFFFFFFFFFFFFFFFFFFFFFFFFFFFFFFFFF MUL NOT AND SWAP1 DUP4 PUSH20 0xFFFFFFFFFFFFFFFFFFFFFFFFFFFFFFFFFFFFFFFF AND MUL OR SWAP1 SSTORE POP POP JUMP JUMPDEST PUSH1 0x6 PUSH1 0x0 SWAP1 SLOAD SWAP1 PUSH2 0x100 EXP SWAP1 DIV PUSH20 0xFFFFFFFFFFFFFFFFFFFFFFFFFFFFFFFFFFFFFFFF AND DUP2 JUMP JUMPDEST PUSH1 0xC PUSH1 0x20 MSTORE DUP1 PUSH1 0x0 MSTORE PUSH1 0x40 PUSH1 0x0 KECCAK256 PUSH1 0x0 SWAP2 POP SWAP1 POP DUP1 PUSH1 0x0 ADD SLOAD SWAP1 DUP1 PUSH1 0x1 ADD PUSH1 0x0 SWAP1 SLOAD SWAP1 PUSH2 0x100 EXP SWAP1 DIV PUSH20 0xFFFFFFFFFFFFFFFFFFFFFFFFFFFFFFFFFFFFFFFF AND SWAP1 DUP1 PUSH1 0x1 ADD PUSH1 0x14 SWAP1 SLOAD SWAP1 PUSH2 0x100 EXP SWAP1 DIV PUSH1 0xFF AND SWAP1 DUP1 PUSH1 0x2 ADD SLOAD SWAP1 DUP1 PUSH1 0x3 ADD PUSH1 0x0 SWAP1 SLOAD SWAP1 PUSH2 0x100 EXP SWAP1 DIV PUSH1 0xFF AND SWAP1 DUP1 PUSH1 0x4 ADD SLOAD SWAP1 DUP1 PUSH1 0x5 ADD PUSH1 0x0 SWAP1 SLOAD SWAP1 PUSH2 0x100 EXP SWAP1 DIV PUSH1 0xFF AND SWAP1 POP DUP8 JUMP JUMPDEST PUSH1 0xF SLOAD DUP2 JUMP JUMPDEST PUSH1 0x0 DUP2 SWAP1 POP PUSH1 0x0 DUP2 PUSH20 0xFFFFFFFFFFFFFFFFFFFFFFFFFFFFFFFFFFFFFFFF AND PUSH4 0x70A08231 ADDRESS PUSH1 0x40 MLOAD DUP3 PUSH4 0xFFFFFFFF AND PUSH1 0xE0 SHL DUP2 MSTORE PUSH1 0x4 ADD PUSH2 0x9D9 SWAP2 SWAP1 PUSH2 0x1B99 JUMP JUMPDEST PUSH1 0x20 PUSH1 0x40 MLOAD DUP1 DUP4 SUB DUP2 DUP7 GAS STATICCALL ISZERO DUP1 ISZERO PUSH2 0x9F6 JUMPI RETURNDATASIZE PUSH1 0x0 DUP1 RETURNDATACOPY RETURNDATASIZE PUSH1 0x0 REVERT JUMPDEST POP POP POP POP PUSH1 0x40 MLOAD RETURNDATASIZE PUSH1 0x1F NOT PUSH1 0x1F DUP3 ADD AND DUP3 ADD DUP1 PUSH1 0x40 MSTORE POP DUP2 ADD SWAP1 PUSH2 0xA1A SWAP2 SWAP1 PUSH2 0x1CEF JUMP JUMPDEST SWAP1 POP DUP2 PUSH20 0xFFFFFFFFFFFFFFFFFFFFFFFFFFFFFFFFFFFFFFFF AND PUSH4 0xA9059CBB CALLER DUP4 PUSH1 0x40 MLOAD DUP4 PUSH4 0xFFFFFFFF AND PUSH1 0xE0 SHL DUP2 MSTORE PUSH1 0x4 ADD PUSH2 0xA57 SWAP3 SWAP2 SWAP1 PUSH2 0x1D1C JUMP JUMPDEST PUSH1 0x20 PUSH1 0x40 MLOAD DUP1 DUP4 SUB DUP2 PUSH1 0x0 DUP8 GAS CALL ISZERO DUP1 ISZERO PUSH2 0xA76 JUMPI RETURNDATASIZE PUSH1 0x0 DUP1 RETURNDATACOPY RETURNDATASIZE PUSH1 0x0 REVERT JUMPDEST POP POP POP POP PUSH1 0x40 MLOAD RETURNDATASIZE PUSH1 0x1F NOT PUSH1 0x1F DUP3 ADD AND DUP3 ADD DUP1 PUSH1 0x40 MSTORE POP DUP2 ADD SWAP1 PUSH2 0xA9A SWAP2 SWAP1 PUSH2 0x1D71 JUMP JUMPDEST POP POP POP POP JUMP JUMPDEST PUSH1 0x4 PUSH1 0x0 SWAP1 SLOAD SWAP1 PUSH2 0x100 EXP SWAP1 DIV PUSH20 0xFFFFFFFFFFFFFFFFFFFFFFFFFFFFFFFFFFFFFFFF AND DUP2 JUMP JUMPDEST PUSH1 0xE SLOAD DUP2 JUMP JUMPDEST PUSH1 0xC PUSH1 0x0 PUSH1 0x1 PUSH1 0xD DUP1 SLOAD SWAP1 POP PUSH2 0xAE2 SWAP2 SWAP1 PUSH2 0x18D0 JUMP JUMPDEST DUP2 MSTORE PUSH1 0x20 ADD SWAP1 DUP2 MSTORE PUSH1 0x20 ADD PUSH1 0x0 KECCAK256 PUSH1 0x1 ADD PUSH1 0x14 SWAP1 SLOAD SWAP1 PUSH2 0x100 EXP SWAP1 DIV PUSH1 0xFF AND PUSH2 0xB40 JUMPI PUSH1 0x40 MLOAD PUSH32 0x8C379A000000000000000000000000000000000000000000000000000000000 DUP2 MSTORE PUSH1 0x4 ADD PUSH2 0xB37 SWAP1 PUSH2 0x1987 JUMP JUMPDEST PUSH1 0x40 MLOAD DUP1 SWAP2 SUB SWAP1 REVERT JUMPDEST CALLVALUE PUSH1 0xC PUSH1 0x0 PUSH1 0x1 PUSH1 0xD DUP1 SLOAD SWAP1 POP PUSH2 0xB57 SWAP2 SWAP1 PUSH2 0x18D0 JUMP JUMPDEST DUP2 MSTORE PUSH1 0x20 ADD SWAP1 DUP2 MSTORE PUSH1 0x20 ADD PUSH1 0x0 KECCAK256 PUSH1 0x2 ADD DUP2 SWAP1 SSTORE POP PUSH1 0x0 PUSH1 0xC PUSH1 0x0 PUSH1 0x1 PUSH1 0xD DUP1 SLOAD SWAP1 POP PUSH2 0xB84 SWAP2 SWAP1 PUSH2 0x18D0 JUMP JUMPDEST DUP2 MSTORE PUSH1 0x20 ADD SWAP1 DUP2 MSTORE PUSH1 0x20 ADD PUSH1 0x0 KECCAK256 PUSH1 0x1 ADD PUSH1 0x14 PUSH2 0x100 EXP DUP2 SLOAD DUP2 PUSH1 0xFF MUL NOT AND SWAP1 DUP4 ISZERO ISZERO MUL OR SWAP1 SSTORE POP PUSH2 0xBB4 PUSH2 0x5C3 JUMP JUMPDEST JUMP JUMPDEST PUSH1 0x0 PUSH1 0x9 PUSH1 0x0 SWAP1 SLOAD SWAP1 PUSH2 0x100 EXP SWAP1 DIV PUSH20 0xFFFFFFFFFFFFFFFFFFFFFFFFFFFFFFFFFFFFFFFF AND PUSH20 0xFFFFFFFFFFFFFFFFFFFFFFFFFFFFFFFFFFFFFFFF AND PUSH4 0x70A08231 ADDRESS PUSH1 0x40 MLOAD DUP3 PUSH4 0xFFFFFFFF AND PUSH1 0xE0 SHL DUP2 MSTORE PUSH1 0x4 ADD PUSH2 0xC13 SWAP2 SWAP1 PUSH2 0x1B99 JUMP JUMPDEST PUSH1 0x20 PUSH1 0x40 MLOAD DUP1 DUP4 SUB DUP2 PUSH1 0x0 DUP8 GAS CALL ISZERO DUP1 ISZERO PUSH2 0xC32 JUMPI RETURNDATASIZE PUSH1 0x0 DUP1 RETURNDATACOPY RETURNDATASIZE PUSH1 0x0 REVERT JUMPDEST POP POP POP POP PUSH1 0x40 MLOAD RETURNDATASIZE PUSH1 0x1F NOT PUSH1 0x1F DUP3 ADD AND DUP3 ADD DUP1 PUSH1 0x40 MSTORE POP DUP2 ADD SWAP1 PUSH2 0xC56 SWAP2 SWAP1 PUSH2 0x1CEF JUMP JUMPDEST SWAP1 POP SWAP1 JUMP JUMPDEST PUSH1 0x10 SLOAD DUP2 JUMP JUMPDEST PUSH1 0x1 PUSH1 0x0 SWAP1 SLOAD SWAP1 PUSH2 0x100 EXP SWAP1 DIV PUSH20 0xFFFFFFFFFFFFFFFFFFFFFFFFFFFFFFFFFFFFFFFF AND DUP2 JUMP JUMPDEST PUSH1 0x0 DUP1 SLOAD SWAP1 PUSH2 0x100 EXP SWAP1 DIV PUSH20 0xFFFFFFFFFFFFFFFFFFFFFFFFFFFFFFFFFFFFFFFF AND DUP2 JUMP JUMPDEST PUSH1 0x3 PUSH1 0x0 SWAP1 SLOAD SWAP1 PUSH2 0x100 EXP SWAP1 DIV PUSH20 0xFFFFFFFFFFFFFFFFFFFFFFFFFFFFFFFFFFFFFFFF AND DUP2 JUMP JUMPDEST PUSH1 0x5 PUSH1 0x0 SWAP1 SLOAD SWAP1 PUSH2 0x100 EXP SWAP1 DIV PUSH20 0xFFFFFFFFFFFFFFFFFFFFFFFFFFFFFFFFFFFFFFFF AND DUP2 JUMP JUMPDEST PUSH1 0x7 DUP2 DUP2 SLOAD DUP2 LT PUSH2 0xD07 JUMPI PUSH1 0x0 DUP1 REVERT JUMPDEST SWAP1 PUSH1 0x0 MSTORE PUSH1 0x20 PUSH1 0x0 KECCAK256 ADD PUSH1 0x0 SWAP2 POP SLOAD SWAP1 PUSH2 0x100 EXP SWAP1 DIV PUSH20 0xFFFFFFFFFFFFFFFFFFFFFFFFFFFFFFFFFFFFFFFF AND DUP2 JUMP JUMPDEST PUSH1 0x2 PUSH1 0x0 SWAP1 SLOAD SWAP1 PUSH2 0x100 EXP SWAP1 DIV PUSH20 0xFFFFFFFFFFFFFFFFFFFFFFFFFFFFFFFFFFFFFFFF AND DUP2 JUMP JUMPDEST PUSH1 0x0 PUSH1 0xC PUSH1 0x0 PUSH1 0xD DUP1 SLOAD SWAP1 POP DUP2 MSTORE PUSH1 0x20 ADD SWAP1 DUP2 MSTORE PUSH1 0x20 ADD PUSH1 0x0 KECCAK256 PUSH1 0x2 ADD SLOAD SWAP1 POP SWAP1 JUMP JUMPDEST PUSH1 0x0 DUP1 PUSH1 0x1 PUSH1 0x0 SWAP1 SLOAD SWAP1 PUSH2 0x100 EXP SWAP1 DIV PUSH20 0xFFFFFFFFFFFFFFFFFFFFFFFFFFFFFFFFFFFFFFFF AND PUSH20 0xFFFFFFFFFFFFFFFFFFFFFFFFFFFFFFFFFFFFFFFF AND PUSH4 0x18160DDD PUSH1 0x40 MLOAD DUP2 PUSH4 0xFFFFFFFF AND PUSH1 0xE0 SHL DUP2 MSTORE PUSH1 0x4 ADD PUSH1 0x20 PUSH1 0x40 MLOAD DUP1 DUP4 SUB DUP2 DUP7 GAS STATICCALL ISZERO DUP1 ISZERO PUSH2 0xDEF JUMPI RETURNDATASIZE PUSH1 0x0 DUP1 RETURNDATACOPY RETURNDATASIZE PUSH1 0x0 REVERT JUMPDEST POP POP POP POP PUSH1 0x40 MLOAD RETURNDATASIZE PUSH1 0x1F NOT PUSH1 0x1F DUP3 ADD AND DUP3 ADD DUP1 PUSH1 0x40 MSTORE POP DUP2 ADD SWAP1 PUSH2 0xE13 SWAP2 SWAP1 PUSH2 0x1CEF JUMP JUMPDEST SWAP1 POP PUSH1 0x0 PUSH1 0x1 PUSH1 0x0 SWAP1 SLOAD SWAP1 PUSH2 0x100 EXP SWAP1 DIV PUSH20 0xFFFFFFFFFFFFFFFFFFFFFFFFFFFFFFFFFFFFFFFF AND PUSH20 0xFFFFFFFFFFFFFFFFFFFFFFFFFFFFFFFFFFFFFFFF AND PUSH4 0x70A08231 PUSH1 0x2 PUSH1 0x0 SWAP1 SLOAD SWAP1 PUSH2 0x100 EXP SWAP1 DIV PUSH20 0xFFFFFFFFFFFFFFFFFFFFFFFFFFFFFFFFFFFFFFFF AND PUSH1 0x40 MLOAD DUP3 PUSH4 0xFFFFFFFF AND PUSH1 0xE0 SHL DUP2 MSTORE PUSH1 0x4 ADD PUSH2 0xE94 SWAP2 SWAP1 PUSH2 0x1B99 JUMP JUMPDEST PUSH1 0x20 PUSH1 0x40 MLOAD DUP1 DUP4 SUB DUP2 DUP7 GAS STATICCALL ISZERO DUP1 ISZERO PUSH2 0xEB1 JUMPI RETURNDATASIZE PUSH1 0x0 DUP1 RETURNDATACOPY RETURNDATASIZE PUSH1 0x0 REVERT JUMPDEST POP POP POP POP PUSH1 0x40 MLOAD RETURNDATASIZE PUSH1 0x1F NOT PUSH1 0x1F DUP3 ADD AND DUP3 ADD DUP1 PUSH1 0x40 MSTORE POP DUP2 ADD SWAP1 PUSH2 0xED5 SWAP2 SWAP1 PUSH2 0x1CEF JUMP JUMPDEST SWAP1 POP DUP2 PUSH1 0x64 DUP3 PUSH2 0xEE5 SWAP2 SWAP1 PUSH2 0x19A7 JUMP JUMPDEST PUSH2 0xEEF SWAP2 SWAP1 PUSH2 0x1A18 JUMP JUMPDEST SWAP3 POP POP POP SWAP1 JUMP JUMPDEST PUSH1 0x0 PUSH2 0xF01 DUP3 PUSH2 0x1676 JUMP JUMPDEST SWAP1 POP PUSH1 0x1 PUSH1 0x0 SWAP1 SLOAD SWAP1 PUSH2 0x100 EXP SWAP1 DIV PUSH20 0xFFFFFFFFFFFFFFFFFFFFFFFFFFFFFFFFFFFFFFFF AND PUSH20 0xFFFFFFFFFFFFFFFFFFFFFFFFFFFFFFFFFFFFFFFF AND PUSH4 0x9DC29FAC CALLER DUP4 PUSH1 0x40 MLOAD DUP4 PUSH4 0xFFFFFFFF AND PUSH1 0xE0 SHL DUP2 MSTORE PUSH1 0x4 ADD PUSH2 0xF60 SWAP3 SWAP2 SWAP1 PUSH2 0x1D1C JUMP JUMPDEST PUSH1 0x0 PUSH1 0x40 MLOAD DUP1 DUP4 SUB DUP2 PUSH1 0x0 DUP8 DUP1 EXTCODESIZE ISZERO DUP1 ISZERO PUSH2 0xF7A JUMPI PUSH1 0x0 DUP1 REVERT JUMPDEST POP GAS CALL ISZERO DUP1 ISZERO PUSH2 0xF8E JUMPI RETURNDATASIZE PUSH1 0x0 DUP1 RETURNDATACOPY RETURNDATASIZE PUSH1 0x0 REVERT JUMPDEST POP POP POP POP POP POP JUMP JUMPDEST PUSH1 0x0 DUP1 PUSH1 0x0 PUSH1 0x1 PUSH1 0x0 SWAP1 SLOAD SWAP1 PUSH2 0x100 EXP SWAP1 DIV PUSH20 0xFFFFFFFFFFFFFFFFFFFFFFFFFFFFFFFFFFFFFFFF AND PUSH20 0xFFFFFFFFFFFFFFFFFFFFFFFFFFFFFFFFFFFFFFFF AND PUSH4 0x70A08231 ADDRESS PUSH1 0x40 MLOAD DUP3 PUSH4 0xFFFFFFFF AND PUSH1 0xE0 SHL DUP2 MSTORE PUSH1 0x4 ADD PUSH2 0xFF6 SWAP2 SWAP1 PUSH2 0x1B99 JUMP JUMPDEST PUSH1 0x20 PUSH1 0x40 MLOAD DUP1 DUP4 SUB DUP2 DUP7 GAS STATICCALL ISZERO DUP1 ISZERO PUSH2 0x1013 JUMPI RETURNDATASIZE PUSH1 0x0 DUP1 RETURNDATACOPY RETURNDATASIZE PUSH1 0x0 REVERT JUMPDEST POP POP POP POP PUSH1 0x40 MLOAD RETURNDATASIZE PUSH1 0x1F NOT PUSH1 0x1F DUP3 ADD AND DUP3 ADD DUP1 PUSH1 0x40 MSTORE POP DUP2 ADD SWAP1 PUSH2 0x1037 SWAP2 SWAP1 PUSH2 0x1CEF JUMP JUMPDEST SWAP1 POP PUSH1 0x0 PUSH1 0x64 PUSH1 0x69 PUSH1 0xA PUSH1 0x0 SWAP1 SLOAD SWAP1 PUSH2 0x100 EXP SWAP1 DIV PUSH20 0xFFFFFFFFFFFFFFFFFFFFFFFFFFFFFFFFFFFFFFFF AND PUSH20 0xFFFFFFFFFFFFFFFFFFFFFFFFFFFFFFFFFFFFFFFF AND PUSH4 0x3AC35585 PUSH1 0x0 DUP1 SLOAD SWAP1 PUSH2 0x100 EXP SWAP1 DIV PUSH20 0xFFFFFFFFFFFFFFFFFFFFFFFFFFFFFFFFFFFFFFFF AND DUP10 PUSH1 0x40 MLOAD DUP4 PUSH4 0xFFFFFFFF AND PUSH1 0xE0 SHL DUP2 MSTORE PUSH1 0x4 ADD PUSH2 0x10BC SWAP3 SWAP2 SWAP1 PUSH2 0x1D1C JUMP JUMPDEST PUSH1 0x20 PUSH1 0x40 MLOAD DUP1 DUP4 SUB DUP2 DUP7 GAS STATICCALL ISZERO DUP1 ISZERO PUSH2 0x10D9 JUMPI RETURNDATASIZE PUSH1 0x0 DUP1 RETURNDATACOPY RETURNDATASIZE PUSH1 0x0 REVERT JUMPDEST POP POP POP POP PUSH1 0x40 MLOAD RETURNDATASIZE PUSH1 0x1F NOT PUSH1 0x1F DUP3 ADD AND DUP3 ADD DUP1 PUSH1 0x40 MSTORE POP DUP2 ADD SWAP1 PUSH2 0x10FD SWAP2 SWAP1 PUSH2 0x1CEF JUMP JUMPDEST PUSH2 0x1107 SWAP2 SWAP1 PUSH2 0x19A7 JUMP JUMPDEST PUSH2 0x1111 SWAP2 SWAP1 PUSH2 0x1A18 JUMP JUMPDEST SWAP1 POP DUP2 DUP2 GT ISZERO PUSH2 0x1254 JUMPI PUSH1 0x1 PUSH1 0x0 SWAP1 SLOAD SWAP1 PUSH2 0x100 EXP SWAP1 DIV PUSH20 0xFFFFFFFFFFFFFFFFFFFFFFFFFFFFFFFFFFFFFFFF AND PUSH20 0xFFFFFFFFFFFFFFFFFFFFFFFFFFFFFFFFFFFFFFFF AND PUSH4 0x96FE8349 DUP4 DUP4 PUSH2 0x1165 SWAP2 SWAP1 PUSH2 0x18D0 JUMP JUMPDEST ADDRESS PUSH1 0x40 MLOAD DUP4 PUSH4 0xFFFFFFFF AND PUSH1 0xE0 SHL DUP2 MSTORE PUSH1 0x4 ADD PUSH2 0x1183 SWAP3 SWAP2 SWAP1 PUSH2 0x1D9E JUMP JUMPDEST PUSH1 0x0 PUSH1 0x40 MLOAD DUP1 DUP4 SUB DUP2 PUSH1 0x0 DUP8 DUP1 EXTCODESIZE ISZERO DUP1 ISZERO PUSH2 0x119D JUMPI PUSH1 0x0 DUP1 REVERT JUMPDEST POP GAS CALL ISZERO DUP1 ISZERO PUSH2 0x11B1 JUMPI RETURNDATASIZE PUSH1 0x0 DUP1 RETURNDATACOPY RETURNDATASIZE PUSH1 0x0 REVERT JUMPDEST POP POP POP POP PUSH1 0x1 PUSH1 0x0 SWAP1 SLOAD SWAP1 PUSH2 0x100 EXP SWAP1 DIV PUSH20 0xFFFFFFFFFFFFFFFFFFFFFFFFFFFFFFFFFFFFFFFF AND PUSH20 0xFFFFFFFFFFFFFFFFFFFFFFFFFFFFFFFFFFFFFFFF AND PUSH4 0x70A08231 ADDRESS PUSH1 0x40 MLOAD DUP3 PUSH4 0xFFFFFFFF AND PUSH1 0xE0 SHL DUP2 MSTORE PUSH1 0x4 ADD PUSH2 0x1210 SWAP2 SWAP1 PUSH2 0x1B99 JUMP JUMPDEST PUSH1 0x20 PUSH1 0x40 MLOAD DUP1 DUP4 SUB DUP2 DUP7 GAS STATICCALL ISZERO DUP1 ISZERO PUSH2 0x122D JUMPI RETURNDATASIZE PUSH1 0x0 DUP1 RETURNDATACOPY RETURNDATASIZE PUSH1 0x0 REVERT JUMPDEST POP POP POP POP PUSH1 0x40 MLOAD RETURNDATASIZE PUSH1 0x1F NOT PUSH1 0x1F DUP3 ADD AND DUP3 ADD DUP1 PUSH1 0x40 MSTORE POP DUP2 ADD SWAP1 PUSH2 0x1251 SWAP2 SWAP1 PUSH2 0x1CEF JUMP JUMPDEST SWAP2 POP JUMPDEST PUSH1 0xB PUSH1 0x0 SWAP1 SLOAD SWAP1 PUSH2 0x100 EXP SWAP1 DIV PUSH20 0xFFFFFFFFFFFFFFFFFFFFFFFFFFFFFFFFFFFFFFFF AND PUSH20 0xFFFFFFFFFFFFFFFFFFFFFFFFFFFFFFFFFFFFFFFF AND PUSH4 0xF305D719 DUP7 ADDRESS DUP5 PUSH1 0x69 PUSH1 0x5F DUP8 PUSH2 0x12A4 SWAP2 SWAP1 PUSH2 0x19A7 JUMP JUMPDEST PUSH2 0x12AE SWAP2 SWAP1 PUSH2 0x1A18 JUMP JUMPDEST PUSH1 0x64 PUSH1 0x5F DUP13 PUSH2 0x12BD SWAP2 SWAP1 PUSH2 0x19A7 JUMP JUMPDEST PUSH2 0x12C7 SWAP2 SWAP1 PUSH2 0x1A18 JUMP JUMPDEST ADDRESS PUSH32 0xFFFFFFFFFFFFFFFFFFFFFFFFFFFFFFFFFFFFFFFFFFFFFFFFFFFFFFFFFFFFFFFF PUSH1 0x40 MLOAD DUP9 PUSH4 0xFFFFFFFF AND PUSH1 0xE0 SHL DUP2 MSTORE PUSH1 0x4 ADD PUSH2 0x130A SWAP7 SWAP6 SWAP5 SWAP4 SWAP3 SWAP2 SWAP1 PUSH2 0x1DC7 JUMP JUMPDEST PUSH1 0x60 PUSH1 0x40 MLOAD DUP1 DUP4 SUB DUP2 DUP6 DUP9 GAS CALL SWAP4 POP POP POP POP DUP1 ISZERO PUSH2 0x1346 JUMPI POP PUSH1 0x40 MLOAD RETURNDATASIZE PUSH1 0x1F NOT PUSH1 0x1F DUP3 ADD AND DUP3 ADD DUP1 PUSH1 0x40 MSTORE POP DUP2 ADD SWAP1 PUSH2 0x1343 SWAP2 SWAP1 PUSH2 0x1E28 JUMP JUMPDEST PUSH1 0x1 JUMPDEST PUSH2 0x1384 JUMPI PUSH32 0xCF34EF537AC33EE1AC626CA1587A0A7E8E51561E5514F8CB36AFA1C5102B3BAB PUSH1 0x40 MLOAD PUSH2 0x1377 SWAP1 PUSH2 0x1EC7 JUMP JUMPDEST PUSH1 0x40 MLOAD DUP1 SWAP2 SUB SWAP1 LOG1 PUSH2 0x1466 JUMP JUMPDEST POP POP POP PUSH32 0xCF34EF537AC33EE1AC626CA1587A0A7E8E51561E5514F8CB36AFA1C5102B3BAB PUSH1 0x40 MLOAD PUSH2 0x13B4 SWAP1 PUSH2 0x1F33 JUMP JUMPDEST PUSH1 0x40 MLOAD DUP1 SWAP2 SUB SWAP1 LOG1 PUSH1 0x1 PUSH1 0x0 SWAP1 SLOAD SWAP1 PUSH2 0x100 EXP SWAP1 DIV PUSH20 0xFFFFFFFFFFFFFFFFFFFFFFFFFFFFFFFFFFFFFFFF AND PUSH20 0xFFFFFFFFFFFFFFFFFFFFFFFFFFFFFFFFFFFFFFFF AND PUSH4 0x70A08231 ADDRESS PUSH1 0x40 MLOAD DUP3 PUSH4 0xFFFFFFFF AND PUSH1 0xE0 SHL DUP2 MSTORE PUSH1 0x4 ADD PUSH2 0x1417 SWAP2 SWAP1 PUSH2 0x1B99 JUMP JUMPDEST PUSH1 0x20 PUSH1 0x40 MLOAD DUP1 DUP4 SUB DUP2 DUP7 GAS STATICCALL ISZERO DUP1 ISZERO PUSH2 0x1434 JUMPI RETURNDATASIZE PUSH1 0x0 DUP1 RETURNDATACOPY RETURNDATASIZE PUSH1 0x0 REVERT JUMPDEST POP POP POP POP PUSH1 0x40 MLOAD RETURNDATASIZE PUSH1 0x1F NOT PUSH1 0x1F DUP3 ADD AND DUP3 ADD DUP1 PUSH1 0x40 MSTORE POP DUP2 ADD SWAP1 PUSH2 0x1458 SWAP2 SWAP1 PUSH2 0x1CEF JUMP JUMPDEST DUP3 PUSH2 0x1463 SWAP2 SWAP1 PUSH2 0x18D0 JUMP JUMPDEST SWAP3 POP JUMPDEST DUP3 SWAP4 POP POP POP POP SWAP2 SWAP1 POP JUMP JUMPDEST PUSH1 0x0 PUSH1 0xC PUSH1 0x0 PUSH1 0x2 PUSH1 0xD DUP1 SLOAD SWAP1 POP PUSH2 0x1489 SWAP2 SWAP1 PUSH2 0x18D0 JUMP JUMPDEST DUP2 MSTORE PUSH1 0x20 ADD SWAP1 DUP2 MSTORE PUSH1 0x20 ADD PUSH1 0x0 KECCAK256 PUSH1 0x2 ADD SLOAD SWAP1 POP PUSH1 0x0 PUSH1 0xA PUSH1 0x0 SWAP1 SLOAD SWAP1 PUSH2 0x100 EXP SWAP1 DIV PUSH20 0xFFFFFFFFFFFFFFFFFFFFFFFFFFFFFFFFFFFFFFFF AND PUSH20 0xFFFFFFFFFFFFFFFFFFFFFFFFFFFFFFFFFFFFFFFF AND PUSH4 0x3AC35585 PUSH1 0x0 DUP1 SLOAD SWAP1 PUSH2 0x100 EXP SWAP1 DIV PUSH20 0xFFFFFFFFFFFFFFFFFFFFFFFFFFFFFFFFFFFFFFFF AND DUP5 PUSH1 0x40 MLOAD DUP4 PUSH4 0xFFFFFFFF AND PUSH1 0xE0 SHL DUP2 MSTORE PUSH1 0x4 ADD PUSH2 0x151C SWAP3 SWAP2 SWAP1 PUSH2 0x1D1C JUMP JUMPDEST PUSH1 0x20 PUSH1 0x40 MLOAD DUP1 DUP4 SUB DUP2 DUP7 GAS STATICCALL ISZERO DUP1 ISZERO PUSH2 0x1539 JUMPI RETURNDATASIZE PUSH1 0x0 DUP1 RETURNDATACOPY RETURNDATASIZE PUSH1 0x0 REVERT JUMPDEST POP POP POP POP PUSH1 0x40 MLOAD RETURNDATASIZE PUSH1 0x1F NOT PUSH1 0x1F DUP3 ADD AND DUP3 ADD DUP1 PUSH1 0x40 MSTORE POP DUP2 ADD SWAP1 PUSH2 0x155D SWAP2 SWAP1 PUSH2 0x1CEF JUMP JUMPDEST SWAP1 POP PUSH1 0x1 PUSH1 0x0 SWAP1 SLOAD SWAP1 PUSH2 0x100 EXP SWAP1 DIV PUSH20 0xFFFFFFFFFFFFFFFFFFFFFFFFFFFFFFFFFFFFFFFF AND PUSH20 0xFFFFFFFFFFFFFFFFFFFFFFFFFFFFFFFFFFFFFFFF AND PUSH4 0x96FE8349 DUP3 DUP6 PUSH1 0x40 MLOAD DUP4 PUSH4 0xFFFFFFFF AND PUSH1 0xE0 SHL DUP2 MSTORE PUSH1 0x4 ADD PUSH2 0x15BC SWAP3 SWAP2 SWAP1 PUSH2 0x1D9E JUMP JUMPDEST PUSH1 0x0 PUSH1 0x40 MLOAD DUP1 DUP4 SUB DUP2 PUSH1 0x0 DUP8 DUP1 EXTCODESIZE ISZERO DUP1 ISZERO PUSH2 0x15D6 JUMPI PUSH1 0x0 DUP1 REVERT JUMPDEST POP GAS CALL ISZERO DUP1 ISZERO PUSH2 0x15EA JUMPI RETURNDATASIZE PUSH1 0x0 DUP1 RETURNDATACOPY RETURNDATASIZE PUSH1 0x0 REVERT JUMPDEST POP POP POP POP POP POP POP JUMP JUMPDEST PUSH1 0x0 PUSH1 0xD DUP1 SLOAD SWAP1 POP SWAP1 POP PUSH1 0x0 PUSH1 0xC PUSH1 0x0 PUSH1 0xD DUP1 SLOAD SWAP1 POP DUP2 MSTORE PUSH1 0x20 ADD SWAP1 DUP2 MSTORE PUSH1 0x20 ADD PUSH1 0x0 KECCAK256 SWAP1 POP DUP2 DUP2 PUSH1 0x0 ADD DUP2 SWAP1 SSTORE POP DUP3 DUP2 PUSH1 0x2 ADD DUP2 SWAP1 SSTORE POP PUSH1 0x1 DUP2 PUSH1 0x1 ADD PUSH1 0x14 PUSH2 0x100 EXP DUP2 SLOAD DUP2 PUSH1 0xFF MUL NOT AND SWAP1 DUP4 ISZERO ISZERO MUL OR SWAP1 SSTORE POP PUSH1 0xD DUP3 SWAP1 DUP1 PUSH1 0x1 DUP2 SLOAD ADD DUP1 DUP3 SSTORE DUP1 SWAP2 POP POP PUSH1 0x1 SWAP1 SUB SWAP1 PUSH1 0x0 MSTORE PUSH1 0x20 PUSH1 0x0 KECCAK256 ADD PUSH1 0x0 SWAP1 SWAP2 SWAP1 SWAP2 SWAP1 SWAP2 POP SSTORE POP POP POP JUMP JUMPDEST PUSH1 0x0 DUP1 PUSH1 0xA PUSH1 0x0 SWAP1 SLOAD SWAP1 PUSH2 0x100 EXP SWAP1 DIV PUSH20 0xFFFFFFFFFFFFFFFFFFFFFFFFFFFFFFFFFFFFFFFF AND PUSH20 0xFFFFFFFFFFFFFFFFFFFFFFFFFFFFFFFFFFFFFFFF AND PUSH4 0x3AC35585 PUSH1 0x0 DUP1 SLOAD SWAP1 PUSH2 0x100 EXP SWAP1 DIV PUSH20 0xFFFFFFFFFFFFFFFFFFFFFFFFFFFFFFFFFFFFFFFF AND DUP6 PUSH1 0x40 MLOAD DUP4 PUSH4 0xFFFFFFFF AND PUSH1 0xE0 SHL DUP2 MSTORE PUSH1 0x4 ADD PUSH2 0x16F6 SWAP3 SWAP2 SWAP1 PUSH2 0x1D1C JUMP JUMPDEST PUSH1 0x20 PUSH1 0x40 MLOAD DUP1 DUP4 SUB DUP2 DUP7 GAS STATICCALL ISZERO DUP1 ISZERO PUSH2 0x1713 JUMPI RETURNDATASIZE PUSH1 0x0 DUP1 RETURNDATACOPY RETURNDATASIZE PUSH1 0x0 REVERT JUMPDEST POP POP POP POP PUSH1 0x40 MLOAD RETURNDATASIZE PUSH1 0x1F NOT PUSH1 0x1F DUP3 ADD AND DUP3 ADD DUP1 PUSH1 0x40 MSTORE POP DUP2 ADD SWAP1 PUSH2 0x1737 SWAP2 SWAP1 PUSH2 0x1CEF JUMP JUMPDEST SWAP1 POP PUSH1 0x0 PUSH1 0x64 PUSH1 0x5F DUP4 PUSH2 0x174A SWAP2 SWAP1 PUSH2 0x19A7 JUMP JUMPDEST PUSH2 0x1754 SWAP2 SWAP1 PUSH2 0x1A18 JUMP JUMPDEST SWAP1 POP PUSH1 0x0 PUSH1 0x2 PUSH8 0xFFFFFFFFFFFFFFFF DUP2 GT ISZERO PUSH2 0x1773 JUMPI PUSH2 0x1772 PUSH2 0x1F53 JUMP JUMPDEST JUMPDEST PUSH1 0x40 MLOAD SWAP1 DUP1 DUP3 MSTORE DUP1 PUSH1 0x20 MUL PUSH1 0x20 ADD DUP3 ADD PUSH1 0x40 MSTORE DUP1 ISZERO PUSH2 0x17A1 JUMPI DUP2 PUSH1 0x20 ADD PUSH1 0x20 DUP3 MUL DUP1 CALLDATASIZE DUP4 CALLDATACOPY DUP1 DUP3 ADD SWAP2 POP POP SWAP1 POP JUMPDEST POP SWAP1 POP PUSH1 0xB PUSH1 0x0 SWAP1 SLOAD SWAP1 PUSH2 0x100 EXP SWAP1 DIV PUSH20 0xFFFFFFFFFFFFFFFFFFFFFFFFFFFFFFFFFFFFFFFF AND PUSH20 0xFFFFFFFFFFFFFFFFFFFFFFFFFFFFFFFFFFFFFFFF AND PUSH4 0x7FF36AB5 DUP7 DUP5 PUSH1 0x7 CALLER PUSH32 0xFFFFFFFFFFFFFFFFFFFFFFFFFFFFFFFFFFFFFFFFFFFFFFFFFFFFFFFFFFFFFFFF PUSH1 0x40 MLOAD DUP7 PUSH4 0xFFFFFFFF AND PUSH1 0xE0 SHL DUP2 MSTORE PUSH1 0x4 ADD PUSH2 0x1827 SWAP5 SWAP4 SWAP3 SWAP2 SWAP1 PUSH2 0x20A6 JUMP JUMPDEST PUSH1 0x0 PUSH1 0x40 MLOAD DUP1 DUP4 SUB DUP2 DUP6 DUP9 GAS CALL ISZERO DUP1 ISZERO PUSH2 0x1845 JUMPI RETURNDATASIZE PUSH1 0x0 DUP1 RETURNDATACOPY RETURNDATASIZE PUSH1 0x0 REVERT JUMPDEST POP POP POP POP POP PUSH1 0x40 MLOAD RETURNDATASIZE PUSH1 0x0 DUP3 RETURNDATACOPY RETURNDATASIZE PUSH1 0x1F NOT PUSH1 0x1F DUP3 ADD AND DUP3 ADD DUP1 PUSH1 0x40 MSTORE POP DUP2 ADD SWAP1 PUSH2 0x186F SWAP2 SWAP1 PUSH2 0x221C JUMP JUMPDEST SWAP1 POP DUP1 PUSH1 0x1 DUP2 MLOAD DUP2 LT PUSH2 0x1885 JUMPI PUSH2 0x1884 PUSH2 0x2265 JUMP JUMPDEST JUMPDEST PUSH1 0x20 MUL PUSH1 0x20 ADD ADD MLOAD SWAP4 POP POP POP POP SWAP2 SWAP1 POP JUMP JUMPDEST PUSH1 0x0 DUP2 SWAP1 POP SWAP2 SWAP1 POP JUMP JUMPDEST PUSH32 0x4E487B7100000000000000000000000000000000000000000000000000000000 PUSH1 0x0 MSTORE PUSH1 0x11 PUSH1 0x4 MSTORE PUSH1 0x24 PUSH1 0x0 REVERT JUMPDEST PUSH1 0x0 PUSH2 0x18DB DUP3 PUSH2 0x1897 JUMP JUMPDEST SWAP2 POP PUSH2 0x18E6 DUP4 PUSH2 0x1897 JUMP JUMPDEST SWAP3 POP DUP3 DUP3 SUB SWAP1 POP DUP2 DUP2 GT ISZERO PUSH2 0x18FE JUMPI PUSH2 0x18FD PUSH2 0x18A1 JUMP JUMPDEST JUMPDEST SWAP3 SWAP2 POP POP JUMP JUMPDEST PUSH1 0x0 DUP3 DUP3 MSTORE PUSH1 0x20 DUP3 ADD SWAP1 POP SWAP3 SWAP2 POP POP JUMP JUMPDEST PUSH32 0x6C6174657374207472616E73616374696F6E206E6F7420696E2070726F677265 PUSH1 0x0 DUP3 ADD MSTORE PUSH32 0x7373000000000000000000000000000000000000000000000000000000000000 PUSH1 0x20 DUP3 ADD MSTORE POP JUMP JUMPDEST PUSH1 0x0 PUSH2 0x1971 PUSH1 0x22 DUP4 PUSH2 0x1904 JUMP JUMPDEST SWAP2 POP PUSH2 0x197C DUP3 PUSH2 0x1915 JUMP JUMPDEST PUSH1 0x40 DUP3 ADD SWAP1 POP SWAP2 SWAP1 POP JUMP JUMPDEST PUSH1 0x0 PUSH1 0x20 DUP3 ADD SWAP1 POP DUP2 DUP2 SUB PUSH1 0x0 DUP4 ADD MSTORE PUSH2 0x19A0 DUP2 PUSH2 0x1964 JUMP JUMPDEST SWAP1 POP SWAP2 SWAP1 POP JUMP JUMPDEST PUSH1 0x0 PUSH2 0x19B2 DUP3 PUSH2 0x1897 JUMP JUMPDEST SWAP2 POP PUSH2 0x19BD DUP4 PUSH2 0x1897 JUMP JUMPDEST SWAP3 POP DUP3 DUP3 MUL PUSH2 0x19CB DUP2 PUSH2 0x1897 JUMP JUMPDEST SWAP2 POP DUP3 DUP3 DIV DUP5 EQ DUP4 ISZERO OR PUSH2 0x19E2 JUMPI PUSH2 0x19E1 PUSH2 0x18A1 JUMP JUMPDEST JUMPDEST POP SWAP3 SWAP2 POP POP JUMP JUMPDEST PUSH32 0x4E487B7100000000000000000000000000000000000000000000000000000000 PUSH1 0x0 MSTORE PUSH1 0x12 PUSH1 0x4 MSTORE PUSH1 0x24 PUSH1 0x0 REVERT JUMPDEST PUSH1 0x0 PUSH2 0x1A23 DUP3 PUSH2 0x1897 JUMP JUMPDEST SWAP2 POP PUSH2 0x1A2E DUP4 PUSH2 0x1897 JUMP JUMPDEST SWAP3 POP DUP3 PUSH2 0x1A3E JUMPI PUSH2 0x1A3D PUSH2 0x19E9 JUMP JUMPDEST JUMPDEST DUP3 DUP3 DIV SWAP1 POP SWAP3 SWAP2 POP POP JUMP JUMPDEST PUSH32 0x6574682073656E74206E6F74206869676820656E6F7567680000000000000000 PUSH1 0x0 DUP3 ADD MSTORE POP JUMP JUMPDEST PUSH1 0x0 PUSH2 0x1A7F PUSH1 0x18 DUP4 PUSH2 0x1904 JUMP JUMPDEST SWAP2 POP PUSH2 0x1A8A DUP3 PUSH2 0x1A49 JUMP JUMPDEST PUSH1 0x20 DUP3 ADD SWAP1 POP SWAP2 SWAP1 POP JUMP JUMPDEST PUSH1 0x0 PUSH1 0x20 DUP3 ADD SWAP1 POP DUP2 DUP2 SUB PUSH1 0x0 DUP4 ADD MSTORE PUSH2 0x1AAE DUP2 PUSH2 0x1A72 JUMP JUMPDEST SWAP1 POP SWAP2 SWAP1 POP JUMP JUMPDEST PUSH1 0x0 DUP2 ISZERO ISZERO SWAP1 POP SWAP2 SWAP1 POP JUMP JUMPDEST PUSH2 0x1ACA DUP2 PUSH2 0x1AB5 JUMP JUMPDEST DUP3 MSTORE POP POP JUMP JUMPDEST PUSH1 0x0 PUSH1 0x20 DUP3 ADD SWAP1 POP PUSH2 0x1AE5 PUSH1 0x0 DUP4 ADD DUP5 PUSH2 0x1AC1 JUMP JUMPDEST SWAP3 SWAP2 POP POP JUMP JUMPDEST PUSH1 0x0 PUSH1 0x40 MLOAD SWAP1 POP SWAP1 JUMP JUMPDEST PUSH1 0x0 DUP1 REVERT JUMPDEST PUSH1 0x0 DUP1 REVERT JUMPDEST PUSH1 0x0 PUSH20 0xFFFFFFFFFFFFFFFFFFFFFFFFFFFFFFFFFFFFFFFF DUP3 AND SWAP1 POP SWAP2 SWAP1 POP JUMP JUMPDEST PUSH1 0x0 PUSH2 0x1B2A DUP3 PUSH2 0x1AFF JUMP JUMPDEST SWAP1 POP SWAP2 SWAP1 POP JUMP JUMPDEST PUSH2 0x1B3A DUP2 PUSH2 0x1B1F JUMP JUMPDEST DUP2 EQ PUSH2 0x1B45 JUMPI PUSH1 0x0 DUP1 REVERT JUMPDEST POP JUMP JUMPDEST PUSH1 0x0 DUP2 CALLDATALOAD SWAP1 POP PUSH2 0x1B57 DUP2 PUSH2 0x1B31 JUMP JUMPDEST SWAP3 SWAP2 POP POP JUMP JUMPDEST PUSH1 0x0 PUSH1 0x20 DUP3 DUP5 SUB SLT ISZERO PUSH2 0x1B73 JUMPI PUSH2 0x1B72 PUSH2 0x1AF5 JUMP JUMPDEST JUMPDEST PUSH1 0x0 PUSH2 0x1B81 DUP5 DUP3 DUP6 ADD PUSH2 0x1B48 JUMP JUMPDEST SWAP2 POP POP SWAP3 SWAP2 POP POP JUMP JUMPDEST PUSH2 0x1B93 DUP2 PUSH2 0x1B1F JUMP JUMPDEST DUP3 MSTORE POP POP JUMP JUMPDEST PUSH1 0x0 PUSH1 0x20 DUP3 ADD SWAP1 POP PUSH2 0x1BAE PUSH1 0x0 DUP4 ADD DUP5 PUSH2 0x1B8A JUMP JUMPDEST SWAP3 SWAP2 POP POP JUMP JUMPDEST PUSH2 0x1BBD DUP2 PUSH2 0x1897 JUMP JUMPDEST DUP2 EQ PUSH2 0x1BC8 JUMPI PUSH1 0x0 DUP1 REVERT JUMPDEST POP JUMP JUMPDEST PUSH1 0x0 DUP2 CALLDATALOAD SWAP1 POP PUSH2 0x1BDA DUP2 PUSH2 0x1BB4 JUMP JUMPDEST SWAP3 SWAP2 POP POP JUMP JUMPDEST PUSH1 0x0 PUSH1 0x20 DUP3 DUP5 SUB SLT ISZERO PUSH2 0x1BF6 JUMPI PUSH2 0x1BF5 PUSH2 0x1AF5 JUMP JUMPDEST JUMPDEST PUSH1 0x0 PUSH2 0x1C04 DUP5 DUP3 DUP6 ADD PUSH2 0x1BCB JUMP JUMPDEST SWAP2 POP POP SWAP3 SWAP2 POP POP JUMP JUMPDEST PUSH2 0x1C16 DUP2 PUSH2 0x1897 JUMP JUMPDEST DUP3 MSTORE POP POP JUMP JUMPDEST PUSH1 0x0 PUSH1 0xE0 DUP3 ADD SWAP1 POP PUSH2 0x1C31 PUSH1 0x0 DUP4 ADD DUP11 PUSH2 0x1C0D JUMP JUMPDEST PUSH2 0x1C3E PUSH1 0x20 DUP4 ADD DUP10 PUSH2 0x1B8A JUMP JUMPDEST PUSH2 0x1C4B PUSH1 0x40 DUP4 ADD DUP9 PUSH2 0x1AC1 JUMP JUMPDEST PUSH2 0x1C58 PUSH1 0x60 DUP4 ADD DUP8 PUSH2 0x1C0D JUMP JUMPDEST PUSH2 0x1C65 PUSH1 0x80 DUP4 ADD DUP7 PUSH2 0x1AC1 JUMP JUMPDEST PUSH2 0x1C72 PUSH1 0xA0 DUP4 ADD DUP6 PUSH2 0x1C0D JUMP JUMPDEST PUSH2 0x1C7F PUSH1 0xC0 DUP4 ADD DUP5 PUSH2 0x1AC1 JUMP JUMPDEST SWAP9 SWAP8 POP POP POP POP POP POP POP POP JUMP JUMPDEST PUSH1 0x0 PUSH1 0x20 DUP3 ADD SWAP1 POP PUSH2 0x1CA0 PUSH1 0x0 DUP4 ADD DUP5 PUSH2 0x1C0D JUMP JUMPDEST SWAP3 SWAP2 POP POP JUMP JUMPDEST PUSH1 0x0 PUSH2 0x1CB1 DUP3 PUSH2 0x1897 JUMP JUMPDEST SWAP2 POP PUSH2 0x1CBC DUP4 PUSH2 0x1897 JUMP JUMPDEST SWAP3 POP DUP3 DUP3 ADD SWAP1 POP DUP1 DUP3 GT ISZERO PUSH2 0x1CD4 JUMPI PUSH2 0x1CD3 PUSH2 0x18A1 JUMP JUMPDEST JUMPDEST SWAP3 SWAP2 POP POP JUMP JUMPDEST PUSH1 0x0 DUP2 MLOAD SWAP1 POP PUSH2 0x1CE9 DUP2 PUSH2 0x1BB4 JUMP JUMPDEST SWAP3 SWAP2 POP POP JUMP JUMPDEST PUSH1 0x0 PUSH1 0x20 DUP3 DUP5 SUB SLT ISZERO PUSH2 0x1D05 JUMPI PUSH2 0x1D04 PUSH2 0x1AF5 JUMP JUMPDEST JUMPDEST PUSH1 0x0 PUSH2 0x1D13 DUP5 DUP3 DUP6 ADD PUSH2 0x1CDA JUMP JUMPDEST SWAP2 POP POP SWAP3 SWAP2 POP POP JUMP JUMPDEST PUSH1 0x0 PUSH1 0x40 DUP3 ADD SWAP1 POP PUSH2 0x1D31 PUSH1 0x0 DUP4 ADD DUP6 PUSH2 0x1B8A JUMP JUMPDEST PUSH2 0x1D3E PUSH1 0x20 DUP4 ADD DUP5 PUSH2 0x1C0D JUMP JUMPDEST SWAP4 SWAP3 POP POP POP JUMP JUMPDEST PUSH2 0x1D4E DUP2 PUSH2 0x1AB5 JUMP JUMPDEST DUP2 EQ PUSH2 0x1D59 JUMPI PUSH1 0x0 DUP1 REVERT JUMPDEST POP JUMP JUMPDEST PUSH1 0x0 DUP2 MLOAD SWAP1 POP PUSH2 0x1D6B DUP2 PUSH2 0x1D45 JUMP JUMPDEST SWAP3 SWAP2 POP POP JUMP JUMPDEST PUSH1 0x0 PUSH1 0x20 DUP3 DUP5 SUB SLT ISZERO PUSH2 0x1D87 JUMPI PUSH2 0x1D86 PUSH2 0x1AF5 JUMP JUMPDEST JUMPDEST PUSH1 0x0 PUSH2 0x1D95 DUP5 DUP3 DUP6 ADD PUSH2 0x1D5C JUMP JUMPDEST SWAP2 POP POP SWAP3 SWAP2 POP POP JUMP JUMPDEST PUSH1 0x0 PUSH1 0x40 DUP3 ADD SWAP1 POP PUSH2 0x1DB3 PUSH1 0x0 DUP4 ADD DUP6 PUSH2 0x1C0D JUMP JUMPDEST PUSH2 0x1DC0 PUSH1 0x20 DUP4 ADD DUP5 PUSH2 0x1B8A JUMP JUMPDEST SWAP4 SWAP3 POP POP POP JUMP JUMPDEST PUSH1 0x0 PUSH1 0xC0 DUP3 ADD SWAP1 POP PUSH2 0x1DDC PUSH1 0x0 DUP4 ADD DUP10 PUSH2 0x1B8A JUMP JUMPDEST PUSH2 0x1DE9 PUSH1 0x20 DUP4 ADD DUP9 PUSH2 0x1C0D JUMP JUMPDEST PUSH2 0x1DF6 PUSH1 0x40 DUP4 ADD DUP8 PUSH2 0x1C0D JUMP JUMPDEST PUSH2 0x1E03 PUSH1 0x60 DUP4 ADD DUP7 PUSH2 0x1C0D JUMP JUMPDEST PUSH2 0x1E10 PUSH1 0x80 DUP4 ADD DUP6 PUSH2 0x1B8A JUMP JUMPDEST PUSH2 0x1E1D PUSH1 0xA0 DUP4 ADD DUP5 PUSH2 0x1C0D JUMP JUMPDEST SWAP8 SWAP7 POP POP POP POP POP POP POP JUMP JUMPDEST PUSH1 0x0 DUP1 PUSH1 0x0 PUSH1 0x60 DUP5 DUP7 SUB SLT ISZERO PUSH2 0x1E41 JUMPI PUSH2 0x1E40 PUSH2 0x1AF5 JUMP JUMPDEST JUMPDEST PUSH1 0x0 PUSH2 0x1E4F DUP7 DUP3 DUP8 ADD PUSH2 0x1CDA JUMP JUMPDEST SWAP4 POP POP PUSH1 0x20 PUSH2 0x1E60 DUP7 DUP3 DUP8 ADD PUSH2 0x1CDA JUMP JUMPDEST SWAP3 POP POP PUSH1 0x40 PUSH2 0x1E71 DUP7 DUP3 DUP8 ADD PUSH2 0x1CDA JUMP JUMPDEST SWAP2 POP POP SWAP3 POP SWAP3 POP SWAP3 JUMP JUMPDEST PUSH32 0x4C6971756964697479204E6F742050726F766964656400000000000000000000 PUSH1 0x0 DUP3 ADD MSTORE POP JUMP JUMPDEST PUSH1 0x0 PUSH2 0x1EB1 PUSH1 0x16 DUP4 PUSH2 0x1904 JUMP JUMPDEST SWAP2 POP PUSH2 0x1EBC DUP3 PUSH2 0x1E7B JUMP JUMPDEST PUSH1 0x20 DUP3 ADD SWAP1 POP SWAP2 SWAP1 POP JUMP JUMPDEST PUSH1 0x0 PUSH1 0x20 DUP3 ADD SWAP1 POP DUP2 DUP2 SUB PUSH1 0x0 DUP4 ADD MSTORE PUSH2 0x1EE0 DUP2 PUSH2 0x1EA4 JUMP JUMPDEST SWAP1 POP SWAP2 SWAP1 POP JUMP JUMPDEST PUSH32 0x6C6971756964697479205375636365737366756C6C792050726F766964656400 PUSH1 0x0 DUP3 ADD MSTORE POP JUMP JUMPDEST PUSH1 0x0 PUSH2 0x1F1D PUSH1 0x1F DUP4 PUSH2 0x1904 JUMP JUMPDEST SWAP2 POP PUSH2 0x1F28 DUP3 PUSH2 0x1EE7 JUMP JUMPDEST PUSH1 0x20 DUP3 ADD SWAP1 POP SWAP2 SWAP1 POP JUMP JUMPDEST PUSH1 0x0 PUSH1 0x20 DUP3 ADD SWAP1 POP DUP2 DUP2 SUB PUSH1 0x0 DUP4 ADD MSTORE PUSH2 0x1F4C DUP2 PUSH2 0x1F10 JUMP JUMPDEST SWAP1 POP SWAP2 SWAP1 POP JUMP JUMPDEST PUSH32 0x4E487B7100000000000000000000000000000000000000000000000000000000 PUSH1 0x0 MSTORE PUSH1 0x41 PUSH1 0x4 MSTORE PUSH1 0x24 PUSH1 0x0 REVERT JUMPDEST PUSH1 0x0 DUP2 SLOAD SWAP1 POP SWAP2 SWAP1 POP JUMP JUMPDEST PUSH1 0x0 DUP3 DUP3 MSTORE PUSH1 0x20 DUP3 ADD SWAP1 POP SWAP3 SWAP2 POP POP JUMP JUMPDEST PUSH1 0x0 DUP2 SWAP1 POP DUP2 PUSH1 0x0 MSTORE PUSH1 0x20 PUSH1 0x0 KECCAK256 SWAP1 POP SWAP2 SWAP1 POP JUMP JUMPDEST PUSH2 0x1FBC DUP2 PUSH2 0x1B1F JUMP JUMPDEST DUP3 MSTORE POP POP JUMP JUMPDEST PUSH1 0x0 PUSH2 0x1FCE DUP4 DUP4 PUSH2 0x1FB3 JUMP JUMPDEST PUSH1 0x20 DUP4 ADD SWAP1 POP SWAP3 SWAP2 POP POP JUMP JUMPDEST PUSH1 0x0 DUP2 PUSH1 0x0 SHR SWAP1 POP SWAP2 SWAP1 POP JUMP JUMPDEST PUSH1 0x0 PUSH20 0xFFFFFFFFFFFFFFFFFFFFFFFFFFFFFFFFFFFFFFFF DUP3 AND SWAP1 POP SWAP2 SWAP1 POP JUMP JUMPDEST PUSH1 0x0 PUSH2 0x201A PUSH2 0x2015 DUP4 PUSH2 0x1FDA JUMP JUMPDEST PUSH2 0x1FE7 JUMP JUMPDEST SWAP1 POP SWAP2 SWAP1 POP JUMP JUMPDEST PUSH1 0x0 PUSH2 0x202D DUP3 SLOAD PUSH2 0x2007 JUMP JUMPDEST SWAP1 POP SWAP2 SWAP1 POP JUMP JUMPDEST PUSH1 0x0 PUSH1 0x1 DUP3 ADD SWAP1 POP SWAP2 SWAP1 POP JUMP JUMPDEST PUSH1 0x0 PUSH2 0x204C DUP3 PUSH2 0x1F82 JUMP JUMPDEST PUSH2 0x2056 DUP2 DUP6 PUSH2 0x1F8D JUMP JUMPDEST SWAP4 POP PUSH2 0x2061 DUP4 PUSH2 0x1F9E JUMP JUMPDEST DUP1 PUSH1 0x0 JUMPDEST DUP4 DUP2 LT ISZERO PUSH2 0x2099 JUMPI PUSH2 0x2076 DUP3 PUSH2 0x2021 JUMP JUMPDEST PUSH2 0x2080 DUP9 DUP3 PUSH2 0x1FC2 JUMP JUMPDEST SWAP8 POP PUSH2 0x208B DUP4 PUSH2 0x2034 JUMP JUMPDEST SWAP3 POP POP PUSH1 0x1 DUP2 ADD SWAP1 POP PUSH2 0x2065 JUMP JUMPDEST POP DUP6 SWAP4 POP POP POP POP SWAP3 SWAP2 POP POP JUMP JUMPDEST PUSH1 0x0 PUSH1 0x80 DUP3 ADD SWAP1 POP PUSH2 0x20BB PUSH1 0x0 DUP4 ADD DUP8 PUSH2 0x1C0D JUMP JUMPDEST DUP2 DUP2 SUB PUSH1 0x20 DUP4 ADD MSTORE PUSH2 0x20CD DUP2 DUP7 PUSH2 0x2041 JUMP JUMPDEST SWAP1 POP PUSH2 0x20DC PUSH1 0x40 DUP4 ADD DUP6 PUSH2 0x1B8A JUMP JUMPDEST PUSH2 0x20E9 PUSH1 0x60 DUP4 ADD DUP5 PUSH2 0x1C0D JUMP JUMPDEST SWAP6 SWAP5 POP POP POP POP POP JUMP JUMPDEST PUSH1 0x0 DUP1 REVERT JUMPDEST PUSH1 0x0 PUSH1 0x1F NOT PUSH1 0x1F DUP4 ADD AND SWAP1 POP SWAP2 SWAP1 POP JUMP JUMPDEST PUSH2 0x2111 DUP3 PUSH2 0x20F7 JUMP JUMPDEST DUP2 ADD DUP2 DUP2 LT PUSH8 0xFFFFFFFFFFFFFFFF DUP3 GT OR ISZERO PUSH2 0x2130 JUMPI PUSH2 0x212F PUSH2 0x1F53 JUMP JUMPDEST JUMPDEST DUP1 PUSH1 0x40 MSTORE POP POP POP JUMP JUMPDEST PUSH1 0x0 PUSH2 0x2143 PUSH2 0x1AEB JUMP JUMPDEST SWAP1 POP PUSH2 0x214F DUP3 DUP3 PUSH2 0x2108 JUMP JUMPDEST SWAP2 SWAP1 POP JUMP JUMPDEST PUSH1 0x0 PUSH8 0xFFFFFFFFFFFFFFFF DUP3 GT ISZERO PUSH2 0x216F JUMPI PUSH2 0x216E PUSH2 0x1F53 JUMP JUMPDEST JUMPDEST PUSH1 0x20 DUP3 MUL SWAP1 POP PUSH1 0x20 DUP2 ADD SWAP1 POP SWAP2 SWAP1 POP JUMP JUMPDEST PUSH1 0x0 DUP1 REVERT JUMPDEST PUSH1 0x0 PUSH2 0x2198 PUSH2 0x2193 DUP5 PUSH2 0x2154 JUMP JUMPDEST PUSH2 0x2139 JUMP JUMPDEST SWAP1 POP DUP1 DUP4 DUP3 MSTORE PUSH1 0x20 DUP3 ADD SWAP1 POP PUSH1 0x20 DUP5 MUL DUP4 ADD DUP6 DUP2 GT ISZERO PUSH2 0x21BB JUMPI PUSH2 0x21BA PUSH2 0x2180 JUMP JUMPDEST JUMPDEST DUP4 JUMPDEST DUP2 DUP2 LT ISZERO PUSH2 0x21E4 JUMPI DUP1 PUSH2 0x21D0 DUP9 DUP3 PUSH2 0x1CDA JUMP JUMPDEST DUP5 MSTORE PUSH1 0x20 DUP5 ADD SWAP4 POP POP PUSH1 0x20 DUP2 ADD SWAP1 POP PUSH2 0x21BD JUMP JUMPDEST POP POP POP SWAP4 SWAP3 POP POP POP JUMP JUMPDEST PUSH1 0x0 DUP3 PUSH1 0x1F DUP4 ADD SLT PUSH2 0x2203 JUMPI PUSH2 0x2202 PUSH2 0x20F2 JUMP JUMPDEST JUMPDEST DUP2 MLOAD PUSH2 0x2213 DUP5 DUP3 PUSH1 0x20 DUP7 ADD PUSH2 0x2185 JUMP JUMPDEST SWAP2 POP POP SWAP3 SWAP2 POP POP JUMP JUMPDEST PUSH1 0x0 PUSH1 0x20 DUP3 DUP5 SUB SLT ISZERO PUSH2 0x2232 JUMPI PUSH2 0x2231 PUSH2 0x1AF5 JUMP JUMPDEST JUMPDEST PUSH1 0x0 DUP3 ADD MLOAD PUSH8 0xFFFFFFFFFFFFFFFF DUP2 GT ISZERO PUSH2 0x2250 JUMPI PUSH2 0x224F PUSH2 0x1AFA JUMP JUMPDEST JUMPDEST PUSH2 0x225C DUP5 DUP3 DUP6 ADD PUSH2 0x21EE JUMP JUMPDEST SWAP2 POP POP SWAP3 SWAP2 POP POP JUMP JUMPDEST PUSH32 0x4E487B7100000000000000000000000000000000000000000000000000000000 PUSH1 0x0 MSTORE PUSH1 0x32 PUSH1 0x4 MSTORE PUSH1 0x24 PUSH1 0x0 REVERT INVALID LOG2 PUSH5 0x6970667358 0x22 SLT KECCAK256 0xF8 0xB7 CALLVALUE 0xB9 0xCC 0x23 XOR 0xA9 0xE2 SWAP1 0xBD CODESIZE PC 0xD7 0xA5 0x28 0xC9 MOD STATICCALL PUSH19 0x99A131A2447E46345158BD3A64736F6C634300 ADDMOD GT STOP CALLER "
				},
				"gasEstimates": {
					"creation": {
						"codeDepositCost": "1781200",
						"executionCost": "infinite",
						"totalCost": "infinite"
					},
					"external": {
						"ERC20Address()": "2581",
						"POAPAddress()": "2536",
						"WethAddress()": "2600",
						"buyEth()": "2452",
						"createTransfer()": "126177",
						"crownNFTAddress()": "2581",
						"getLastEthRecieved()": "4717",
						"getWethBalance()": "infinite",
						"liquidityEth()": "2474",
						"oracleAddress()": "2625",
						"path(uint256)": "5000",
						"percentLiquidity()": "infinite",
						"superBuy()": "infinite",
						"totalRoyalties()": "2518",
						"transactionFromPOAPId(uint256)": "infinite",
						"uniswapPairAddress()": "2580",
						"uniswapRouterAddress()": "2582",
						"updateERC20Address(address)": "24768",
						"withdraw(address)": "infinite"
					},
					"internal": {
						"buyAndBurn(uint256)": "infinite",
						"buyTokens(uint256)": "infinite",
						"erc20ToPreviousHolder(address)": "infinite",
						"newTransaction(uint256)": "119323",
						"processETH()": "infinite",
						"provideLiquidity(uint256)": "infinite"
					}
				},
				"methodIdentifiers": {
					"ERC20Address()": "a6021ace",
					"POAPAddress()": "aef75107",
					"WethAddress()": "a785a3d8",
					"buyEth()": "4cfd1ba5",
					"createTransfer()": "01ac552d",
					"crownNFTAddress()": "777b506f",
					"getLastEthRecieved()": "bfd9ea5b",
					"getWethBalance()": "9dd58b58",
					"liquidityEth()": "a09ede07",
					"oracleAddress()": "a89ae4ba",
					"path(uint256)": "af6d1fe4",
					"percentLiquidity()": "c1f2e5f1",
					"superBuy()": "966824a3",
					"totalRoyalties()": "86d02608",
					"transactionFromPOAPId(uint256)": "2c4c3c1b",
					"uniswapPairAddress()": "bd3733fe",
					"uniswapRouterAddress()": "20ca3c7f",
					"updateERC20Address(address)": "1b017fde",
					"withdraw(address)": "51cff8d9"
				}
			},
			"storageLayout": {
				"storage": [
					{
						"astId": 573,
						"contract": "contracts/Hook.sol:TransactionsAndHook",
						"label": "WethAddress",
						"offset": 0,
						"slot": "0",
						"type": "t_address"
					},
					{
						"astId": 575,
						"contract": "contracts/Hook.sol:TransactionsAndHook",
						"label": "ERC20Address",
						"offset": 0,
						"slot": "1",
						"type": "t_address"
					},
					{
						"astId": 577,
						"contract": "contracts/Hook.sol:TransactionsAndHook",
						"label": "uniswapPairAddress",
						"offset": 0,
						"slot": "2",
						"type": "t_address"
					},
					{
						"astId": 579,
						"contract": "contracts/Hook.sol:TransactionsAndHook",
						"label": "oracleAddress",
						"offset": 0,
						"slot": "3",
						"type": "t_address"
					},
					{
						"astId": 581,
						"contract": "contracts/Hook.sol:TransactionsAndHook",
						"label": "crownNFTAddress",
						"offset": 0,
						"slot": "4",
						"type": "t_address"
					},
					{
						"astId": 583,
						"contract": "contracts/Hook.sol:TransactionsAndHook",
						"label": "POAPAddress",
						"offset": 0,
						"slot": "5",
						"type": "t_address"
					},
					{
						"astId": 585,
						"contract": "contracts/Hook.sol:TransactionsAndHook",
						"label": "uniswapRouterAddress",
						"offset": 0,
						"slot": "6",
						"type": "t_address"
					},
					{
						"astId": 591,
						"contract": "contracts/Hook.sol:TransactionsAndHook",
						"label": "path",
						"offset": 0,
						"slot": "7",
						"type": "t_array(t_address)dyn_storage"
					},
					{
						"astId": 597,
						"contract": "contracts/Hook.sol:TransactionsAndHook",
						"label": "POAP",
						"offset": 0,
						"slot": "8",
						"type": "t_contract(iPOAP)483"
					},
					{
						"astId": 603,
						"contract": "contracts/Hook.sol:TransactionsAndHook",
						"label": "WETH",
						"offset": 0,
						"slot": "9",
						"type": "t_contract(WethLike)542"
					},
					{
						"astId": 609,
						"contract": "contracts/Hook.sol:TransactionsAndHook",
						"label": "Oracle",
						"offset": 0,
						"slot": "10",
						"type": "t_contract(iOracle)517"
					},
					{
						"astId": 615,
						"contract": "contracts/Hook.sol:TransactionsAndHook",
						"label": "UniswapRouter",
						"offset": 0,
						"slot": "11",
						"type": "t_contract(IUniswapV2Router02)473"
					},
					{
						"astId": 620,
						"contract": "contracts/Hook.sol:TransactionsAndHook",
						"label": "transactionFromPOAPId",
						"offset": 0,
						"slot": "12",
						"type": "t_mapping(t_uint256,t_struct(Transaction)650_storage)"
					},
					{
						"astId": 623,
						"contract": "contracts/Hook.sol:TransactionsAndHook",
						"label": "POAPIds",
						"offset": 0,
						"slot": "13",
						"type": "t_array(t_uint256)dyn_storage"
					},
					{
						"astId": 625,
						"contract": "contracts/Hook.sol:TransactionsAndHook",
						"label": "totalRoyalties",
						"offset": 0,
						"slot": "14",
						"type": "t_uint256"
					},
					{
						"astId": 936,
						"contract": "contracts/Hook.sol:TransactionsAndHook",
						"label": "buyEth",
						"offset": 0,
						"slot": "15",
						"type": "t_uint256"
					},
					{
						"astId": 938,
						"contract": "contracts/Hook.sol:TransactionsAndHook",
						"label": "liquidityEth",
						"offset": 0,
						"slot": "16",
						"type": "t_uint256"
					}
				],
				"types": {
					"t_address": {
						"encoding": "inplace",
						"label": "address",
						"numberOfBytes": "20"
					},
					"t_array(t_address)dyn_storage": {
						"base": "t_address",
						"encoding": "dynamic_array",
						"label": "address[]",
						"numberOfBytes": "32"
					},
					"t_array(t_uint256)dyn_storage": {
						"base": "t_uint256",
						"encoding": "dynamic_array",
						"label": "uint256[]",
						"numberOfBytes": "32"
					},
					"t_bool": {
						"encoding": "inplace",
						"label": "bool",
						"numberOfBytes": "1"
					},
					"t_contract(IUniswapV2Router02)473": {
						"encoding": "inplace",
						"label": "contract IUniswapV2Router02",
						"numberOfBytes": "20"
					},
					"t_contract(WethLike)542": {
						"encoding": "inplace",
						"label": "contract WethLike",
						"numberOfBytes": "20"
					},
					"t_contract(iOracle)517": {
						"encoding": "inplace",
						"label": "contract iOracle",
						"numberOfBytes": "20"
					},
					"t_contract(iPOAP)483": {
						"encoding": "inplace",
						"label": "contract iPOAP",
						"numberOfBytes": "20"
					},
					"t_mapping(t_uint256,t_struct(Transaction)650_storage)": {
						"encoding": "mapping",
						"key": "t_uint256",
						"label": "mapping(uint256 => struct TransactionsAndHook.Transaction)",
						"numberOfBytes": "32",
						"value": "t_struct(Transaction)650_storage"
					},
					"t_struct(Transaction)650_storage": {
						"encoding": "inplace",
						"label": "struct TransactionsAndHook.Transaction",
						"members": [
							{
								"astId": 637,
								"contract": "contracts/Hook.sol:TransactionsAndHook",
								"label": "POAPId",
								"offset": 0,
								"slot": "0",
								"type": "t_uint256"
							},
							{
								"astId": 639,
								"contract": "contracts/Hook.sol:TransactionsAndHook",
								"label": "purchaser",
								"offset": 0,
								"slot": "1",
								"type": "t_address"
							},
							{
								"astId": 641,
								"contract": "contracts/Hook.sol:TransactionsAndHook",
								"label": "transactionInProgress",
								"offset": 20,
								"slot": "1",
								"type": "t_bool"
							},
							{
								"astId": 643,
								"contract": "contracts/Hook.sol:TransactionsAndHook",
								"label": "receivedEth",
								"offset": 0,
								"slot": "2",
								"type": "t_uint256"
							},
							{
								"astId": 645,
								"contract": "contracts/Hook.sol:TransactionsAndHook",
								"label": "POAPreceived",
								"offset": 0,
								"slot": "3",
								"type": "t_bool"
							},
							{
								"astId": 647,
								"contract": "contracts/Hook.sol:TransactionsAndHook",
								"label": "tokenValueOfPOAP",
								"offset": 0,
								"slot": "4",
								"type": "t_uint256"
							},
							{
								"astId": 649,
								"contract": "contracts/Hook.sol:TransactionsAndHook",
								"label": "POAPburned",
								"offset": 0,
								"slot": "5",
								"type": "t_bool"
							}
						],
						"numberOfBytes": "192"
					},
					"t_uint256": {
						"encoding": "inplace",
						"label": "uint256",
						"numberOfBytes": "32"
					}
				}
			},
			"userdoc": {
				"kind": "user",
				"methods": {},
				"version": 1
			}
		}
	}
}