{
	"Hook.sol": {
		"TransactionsAndHook": {
			"abi": [
				{
					"inputs": [
						{
							"internalType": "address",
							"name": "_ERC20",
							"type": "address"
						},
						{
							"internalType": "address",
							"name": "_crownNFT",
							"type": "address"
						},
						{
							"internalType": "address",
							"name": "_POAP",
							"type": "address"
						},
						{
							"internalType": "address",
							"name": "_initialHolder",
							"type": "address"
						}
					],
					"stateMutability": "nonpayable",
					"type": "constructor"
				},
				{
					"anonymous": false,
					"inputs": [
						{
							"indexed": false,
							"internalType": "string",
							"name": "message",
							"type": "string"
						}
					],
					"name": "Log",
					"type": "event"
				},
				{
					"anonymous": false,
					"inputs": [
						{
							"indexed": false,
							"internalType": "uint256",
							"name": "number",
							"type": "uint256"
						}
					],
					"name": "Log",
					"type": "event"
				},
				{
					"anonymous": false,
					"inputs": [
						{
							"indexed": false,
							"internalType": "address",
							"name": "ad",
							"type": "address"
						}
					],
					"name": "Log",
					"type": "event"
				},
				{
					"inputs": [],
					"name": "ERC20Address",
					"outputs": [
						{
							"internalType": "address",
							"name": "",
							"type": "address"
						}
					],
					"stateMutability": "view",
					"type": "function"
				},
				{
					"inputs": [],
					"name": "POAPAddress",
					"outputs": [
						{
							"internalType": "address",
							"name": "",
							"type": "address"
						}
					],
					"stateMutability": "view",
					"type": "function"
				},
				{
					"inputs": [],
					"name": "WethAddress",
					"outputs": [
						{
							"internalType": "address",
							"name": "",
							"type": "address"
						}
					],
					"stateMutability": "view",
					"type": "function"
				},
				{
					"inputs": [],
					"name": "buyEth",
					"outputs": [
						{
							"internalType": "uint256",
							"name": "",
							"type": "uint256"
						}
					],
					"stateMutability": "view",
					"type": "function"
				},
				{
					"inputs": [],
					"name": "crownNFTAddress",
					"outputs": [
						{
							"internalType": "address",
							"name": "",
							"type": "address"
						}
					],
					"stateMutability": "view",
					"type": "function"
				},
				{
					"inputs": [],
					"name": "getLastEthRecieved",
					"outputs": [
						{
							"internalType": "uint256",
							"name": "",
							"type": "uint256"
						}
					],
					"stateMutability": "view",
					"type": "function"
				},
				{
					"inputs": [],
					"name": "getWethBalance",
					"outputs": [
						{
							"internalType": "uint256",
							"name": "",
							"type": "uint256"
						}
					],
					"stateMutability": "view",
					"type": "function"
				},
				{
					"inputs": [],
					"name": "liquidityEth",
					"outputs": [
						{
							"internalType": "uint256",
							"name": "",
							"type": "uint256"
						}
					],
					"stateMutability": "view",
					"type": "function"
				},
				{
					"inputs": [
						{
							"internalType": "uint256",
							"name": "tokens",
							"type": "uint256"
						}
					],
					"name": "mintSomeTokens",
					"outputs": [],
					"stateMutability": "nonpayable",
					"type": "function"
				},
				{
					"inputs": [],
					"name": "oracleAddress",
					"outputs": [
						{
							"internalType": "address",
							"name": "",
							"type": "address"
						}
					],
					"stateMutability": "view",
					"type": "function"
				},
				{
					"inputs": [
						{
							"internalType": "uint256",
							"name": "",
							"type": "uint256"
						}
					],
					"name": "path",
					"outputs": [
						{
							"internalType": "address",
							"name": "",
							"type": "address"
						}
					],
					"stateMutability": "view",
					"type": "function"
				},
				{
					"inputs": [],
					"name": "percentLiquidity",
					"outputs": [
						{
							"internalType": "uint256",
							"name": "",
							"type": "uint256"
						}
					],
					"stateMutability": "view",
					"type": "function"
				},
				{
					"inputs": [
						{
							"internalType": "address",
							"name": "_newOwner",
							"type": "address"
						}
					],
					"name": "superBuy",
					"outputs": [],
					"stateMutability": "payable",
					"type": "function"
				},
				{
					"inputs": [],
					"name": "totalRoyalties",
					"outputs": [
						{
							"internalType": "uint256",
							"name": "",
							"type": "uint256"
						}
					],
					"stateMutability": "view",
					"type": "function"
				},
				{
					"inputs": [
						{
							"internalType": "uint256",
							"name": "",
							"type": "uint256"
						}
					],
					"name": "transactionFromPOAPId",
					"outputs": [
						{
							"internalType": "uint256",
							"name": "POAPId",
							"type": "uint256"
						},
						{
							"internalType": "address",
							"name": "purchaser",
							"type": "address"
						},
						{
							"internalType": "uint256",
							"name": "receivedEth",
							"type": "uint256"
						}
					],
					"stateMutability": "view",
					"type": "function"
				},
				{
					"inputs": [],
					"name": "uniswapPairAddress",
					"outputs": [
						{
							"internalType": "address",
							"name": "",
							"type": "address"
						}
					],
					"stateMutability": "view",
					"type": "function"
				},
				{
					"inputs": [],
					"name": "uniswapRouterAddress",
					"outputs": [
						{
							"internalType": "address",
							"name": "",
							"type": "address"
						}
					],
					"stateMutability": "view",
					"type": "function"
				},
				{
					"inputs": [
						{
							"internalType": "address",
							"name": "_address",
							"type": "address"
						}
					],
					"name": "updateERC20Address",
					"outputs": [],
					"stateMutability": "nonpayable",
					"type": "function"
				},
				{
					"inputs": [
						{
							"internalType": "address",
							"name": "_ERC20Address",
							"type": "address"
						}
					],
					"name": "withdraw",
					"outputs": [],
					"stateMutability": "nonpayable",
					"type": "function"
				},
				{
					"inputs": [],
					"name": "xprovideLiquidity",
					"outputs": [
						{
							"internalType": "uint256",
							"name": "",
							"type": "uint256"
						}
					],
					"stateMutability": "payable",
					"type": "function"
				},
				{
					"stateMutability": "payable",
					"type": "receive"
				}
			],
			"devdoc": {
				"kind": "dev",
				"methods": {},
				"version": 1
			},
			"evm": {
				"assembly": "    /* \"Hook.sol\":1346:11513  contract TransactionsAndHook{... */\n  mstore(0x40, 0x80)\n    /* \"Hook.sol\":2357:2399  0xB4FBF271143F4FBf7B91A5ded31805e42b2208d6 */\n  0xb4fbf271143f4fbf7b91a5ded31805e42b2208d6\n    /* \"Hook.sol\":2328:2399  address public WethAddress = 0xB4FBF271143F4FBf7B91A5ded31805e42b2208d6 */\n  0x00\n  dup1\n  0x0100\n  exp\n  dup2\n  sload\n  dup2\n  0xffffffffffffffffffffffffffffffffffffffff\n  mul\n  not\n  and\n  swap1\n  dup4\n  0xffffffffffffffffffffffffffffffffffffffff\n  and\n  mul\n  or\n  swap1\n  sstore\n  pop\n    /* \"Hook.sol\":2617:2659  0x7a250d5630B4cF539739dF2C5dAcb4c659F2488D */\n  0x7a250d5630b4cf539739df2c5dacb4c659f2488d\n    /* \"Hook.sol\":2579:2659  address public uniswapRouterAddress = 0x7a250d5630B4cF539739dF2C5dAcb4c659F2488D */\n  0x06\n  exp(0x0100, 0x00)\n  dup2\n  sload\n  dup2\n  0xffffffffffffffffffffffffffffffffffffffff\n  mul\n  not\n  and\n  swap1\n  dup4\n  0xffffffffffffffffffffffffffffffffffffffff\n  and\n  mul\n  or\n  swap1\n  sstore\n  pop\n    /* \"Hook.sol\":2711:2722  POAPAddress */\n  0x05\n  0x00\n  swap1\n  sload\n  swap1\n  0x0100\n  exp\n  swap1\n  div\n  0xffffffffffffffffffffffffffffffffffffffff\n  and\n    /* \"Hook.sol\":2692:2723  iPOAP POAP = iPOAP(POAPAddress) */\n  0x08\n  exp(0x0100, 0x00)\n  dup2\n  sload\n  dup2\n  0xffffffffffffffffffffffffffffffffffffffff\n  mul\n  not\n  and\n  swap1\n  dup4\n  0xffffffffffffffffffffffffffffffffffffffff\n  and\n  mul\n  or\n  swap1\n  sstore\n  pop\n    /* \"Hook.sol\":2754:2765  WethAddress */\n  0x00\n  dup1\n  sload\n  swap1\n  0x0100\n  exp\n  swap1\n  div\n  0xffffffffffffffffffffffffffffffffffffffff\n  and\n    /* \"Hook.sol\":2729:2766  WethLike WETH = WethLike(WethAddress) */\n  0x09\n  exp(0x0100, 0x00)\n  dup2\n  sload\n  dup2\n  0xffffffffffffffffffffffffffffffffffffffff\n  mul\n  not\n  and\n  swap1\n  dup4\n  0xffffffffffffffffffffffffffffffffffffffff\n  and\n  mul\n  or\n  swap1\n  sstore\n  pop\n    /* \"Hook.sol\":2797:2810  oracleAddress */\n  0x03\n  0x00\n  swap1\n  sload\n  swap1\n  0x0100\n  exp\n  swap1\n  div\n  0xffffffffffffffffffffffffffffffffffffffff\n  and\n    /* \"Hook.sol\":2772:2811  iOracle Oracle = iOracle(oracleAddress) */\n  0x0a\n  exp(0x0100, 0x00)\n  dup2\n  sload\n  dup2\n  0xffffffffffffffffffffffffffffffffffffffff\n  mul\n  not\n  and\n  swap1\n  dup4\n  0xffffffffffffffffffffffffffffffffffffffff\n  and\n  mul\n  or\n  swap1\n  sstore\n  pop\n    /* \"Hook.sol\":2871:2891  uniswapRouterAddress */\n  0x06\n  0x00\n  swap1\n  sload\n  swap1\n  0x0100\n  exp\n  swap1\n  div\n  0xffffffffffffffffffffffffffffffffffffffff\n  and\n    /* \"Hook.sol\":2817:2892  IUniswapV2Router02 UniswapRouter = IUniswapV2Router02(uniswapRouterAddress) */\n  0x0b\n  exp(0x0100, 0x00)\n  dup2\n  sload\n  dup2\n  0xffffffffffffffffffffffffffffffffffffffff\n  mul\n  not\n  and\n  swap1\n  dup4\n  0xffffffffffffffffffffffffffffffffffffffff\n  and\n  mul\n  or\n  swap1\n  sstore\n  pop\n    /* \"Hook.sol\":1380:2204  constructor(address _ERC20,address _crownNFT,address _POAP, address _initialHolder){... */\n  callvalue\n  dup1\n  iszero\n  tag_1\n  jumpi\n  0x00\n  dup1\n  revert\ntag_1:\n  pop\n  mload(0x40)\n  sub(codesize, bytecodeSize)\n  dup1\n  bytecodeSize\n  dup4\n  codecopy\n  dup2\n  dup2\n  add\n  0x40\n  mstore\n  dup2\n  add\n  swap1\n  tag_2\n  swap2\n  swap1\n  tag_3\n  jump\t// in\ntag_2:\n    /* \"Hook.sol\":1561:1567  _ERC20 */\n  dup4\n    /* \"Hook.sol\":1546:1558  ERC20Address */\n  0x01\n  0x00\n    /* \"Hook.sol\":1546:1567  ERC20Address = _ERC20 */\n  0x0100\n  exp\n  dup2\n  sload\n  dup2\n  0xffffffffffffffffffffffffffffffffffffffff\n  mul\n  not\n  and\n  swap1\n  dup4\n  0xffffffffffffffffffffffffffffffffffffffff\n  and\n  mul\n  or\n  swap1\n  sstore\n  pop\n    /* \"Hook.sol\":1607:1619  ERC20Address */\n  0x01\n  0x00\n  swap1\n  sload\n  swap1\n  0x0100\n  exp\n  swap1\n  div\n  0xffffffffffffffffffffffffffffffffffffffff\n  and\n    /* \"Hook.sol\":1598:1639  WethLike(ERC20Address).uniswapPairAddress */\n  0xffffffffffffffffffffffffffffffffffffffff\n  and\n  0xbd3733fe\n    /* \"Hook.sol\":1598:1641  WethLike(ERC20Address).uniswapPairAddress() */\n  mload(0x40)\n  dup2\n  0xffffffff\n  and\n  0xe0\n  shl\n  dup2\n  mstore\n  0x04\n  add\n  0x20\n  mload(0x40)\n  dup1\n  dup4\n  sub\n  dup2\n  dup7\n  gas\n  staticcall\n  iszero\n  dup1\n  iszero\n  tag_7\n  jumpi\n  returndatasize\n  0x00\n  dup1\n  returndatacopy\n  revert(0x00, returndatasize)\ntag_7:\n  pop\n  pop\n  pop\n  pop\n  mload(0x40)\n  returndatasize\n  not(0x1f)\n  0x1f\n  dup3\n  add\n  and\n  dup3\n  add\n  dup1\n  0x40\n  mstore\n  pop\n  dup2\n  add\n  swap1\n  tag_8\n  swap2\n  swap1\n  tag_9\n  jump\t// in\ntag_8:\n    /* \"Hook.sol\":1577:1595  uniswapPairAddress */\n  0x02\n  0x00\n    /* \"Hook.sol\":1577:1641  uniswapPairAddress = WethLike(ERC20Address).uniswapPairAddress() */\n  0x0100\n  exp\n  dup2\n  sload\n  dup2\n  0xffffffffffffffffffffffffffffffffffffffff\n  mul\n  not\n  and\n  swap1\n  dup4\n  0xffffffffffffffffffffffffffffffffffffffff\n  and\n  mul\n  or\n  swap1\n  sstore\n  pop\n    /* \"Hook.sol\":1676:1688  ERC20Address */\n  0x01\n  0x00\n  swap1\n  sload\n  swap1\n  0x0100\n  exp\n  swap1\n  div\n  0xffffffffffffffffffffffffffffffffffffffff\n  and\n    /* \"Hook.sol\":1667:1706  WethLike(ERC20Address).getOracleAddress */\n  0xffffffffffffffffffffffffffffffffffffffff\n  and\n  0xb18b78dd\n    /* \"Hook.sol\":1667:1708  WethLike(ERC20Address).getOracleAddress() */\n  mload(0x40)\n  dup2\n  0xffffffff\n  and\n  0xe0\n  shl\n  dup2\n  mstore\n  0x04\n  add\n  0x20\n  mload(0x40)\n  dup1\n  dup4\n  sub\n  dup2\n  dup7\n  gas\n  staticcall\n  iszero\n  dup1\n  iszero\n  tag_11\n  jumpi\n  returndatasize\n  0x00\n  dup1\n  returndatacopy\n  revert(0x00, returndatasize)\ntag_11:\n  pop\n  pop\n  pop\n  pop\n  mload(0x40)\n  returndatasize\n  not(0x1f)\n  0x1f\n  dup3\n  add\n  and\n  dup3\n  add\n  dup1\n  0x40\n  mstore\n  pop\n  dup2\n  add\n  swap1\n  tag_12\n  swap2\n  swap1\n  tag_9\n  jump\t// in\ntag_12:\n    /* \"Hook.sol\":1651:1664  oracleAddress */\n  0x03\n  0x00\n    /* \"Hook.sol\":1651:1708  oracleAddress = WethLike(ERC20Address).getOracleAddress() */\n  0x0100\n  exp\n  dup2\n  sload\n  dup2\n  0xffffffffffffffffffffffffffffffffffffffff\n  mul\n  not\n  and\n  swap1\n  dup4\n  0xffffffffffffffffffffffffffffffffffffffff\n  and\n  mul\n  or\n  swap1\n  sstore\n  pop\n    /* \"Hook.sol\":1735:1748  oracleAddress */\n  0x03\n  0x00\n  swap1\n  sload\n  swap1\n  0x0100\n  exp\n  swap1\n  div\n  0xffffffffffffffffffffffffffffffffffffffff\n  and\n    /* \"Hook.sol\":1718:1724  Oracle */\n  0x0a\n  0x00\n    /* \"Hook.sol\":1718:1749  Oracle = iOracle(oracleAddress) */\n  0x0100\n  exp\n  dup2\n  sload\n  dup2\n  0xffffffffffffffffffffffffffffffffffffffff\n  mul\n  not\n  and\n  swap1\n  dup4\n  0xffffffffffffffffffffffffffffffffffffffff\n  and\n  mul\n  or\n  swap1\n  sstore\n  pop\n    /* \"Hook.sol\":1777:1786  _crownNFT */\n  dup3\n    /* \"Hook.sol\":1759:1774  crownNFTAddress */\n  0x04\n  0x00\n    /* \"Hook.sol\":1759:1786  crownNFTAddress = _crownNFT */\n  0x0100\n  exp\n  dup2\n  sload\n  dup2\n  0xffffffffffffffffffffffffffffffffffffffff\n  mul\n  not\n  and\n  swap1\n  dup4\n  0xffffffffffffffffffffffffffffffffffffffff\n  and\n  mul\n  or\n  swap1\n  sstore\n  pop\n    /* \"Hook.sol\":1810:1815  _POAP */\n  dup2\n    /* \"Hook.sol\":1796:1807  POAPAddress */\n  0x05\n  0x00\n    /* \"Hook.sol\":1796:1815  POAPAddress = _POAP */\n  0x0100\n  exp\n  dup2\n  sload\n  dup2\n  0xffffffffffffffffffffffffffffffffffffffff\n  mul\n  not\n  and\n  swap1\n  dup4\n  0xffffffffffffffffffffffffffffffffffffffff\n  and\n  mul\n  or\n  swap1\n  sstore\n  pop\n    /* \"Hook.sol\":1838:1849  POAPAddress */\n  0x05\n  0x00\n  swap1\n  sload\n  swap1\n  0x0100\n  exp\n  swap1\n  div\n  0xffffffffffffffffffffffffffffffffffffffff\n  and\n    /* \"Hook.sol\":1825:1829  POAP */\n  0x08\n  0x00\n    /* \"Hook.sol\":1825:1850  POAP = iPOAP(POAPAddress) */\n  0x0100\n  exp\n  dup2\n  sload\n  dup2\n  0xffffffffffffffffffffffffffffffffffffffff\n  mul\n  not\n  and\n  swap1\n  dup4\n  0xffffffffffffffffffffffffffffffffffffffff\n  and\n  mul\n  or\n  swap1\n  sstore\n  pop\n    /* \"Hook.sol\":1860:1897  setInitialTranscation(_initialHolder) */\n  tag_13\n    /* \"Hook.sol\":1882:1896  _initialHolder */\n  dup2\n    /* \"Hook.sol\":1860:1881  setInitialTranscation */\n  shl(0x20, tag_14)\n    /* \"Hook.sol\":1860:1897  setInitialTranscation(_initialHolder) */\n  0x20\n  shr\n  jump\t// in\ntag_13:\n    /* \"Hook.sol\":1907:1940  path = [WethAddress,ERC20Address] */\n  mload(0x40)\n  dup1\n  0x40\n  add\n  0x40\n  mstore\n  dup1\n    /* \"Hook.sol\":1915:1926  WethAddress */\n  0x00\n  dup1\n  sload\n  swap1\n  0x0100\n  exp\n  swap1\n  div\n  0xffffffffffffffffffffffffffffffffffffffff\n  and\n    /* \"Hook.sol\":1907:1940  path = [WethAddress,ERC20Address] */\n  0xffffffffffffffffffffffffffffffffffffffff\n  and\n  0xffffffffffffffffffffffffffffffffffffffff\n  and\n  dup2\n  mstore\n  0x20\n  add\n    /* \"Hook.sol\":1927:1939  ERC20Address */\n  0x01\n  0x00\n  swap1\n  sload\n  swap1\n  0x0100\n  exp\n  swap1\n  div\n  0xffffffffffffffffffffffffffffffffffffffff\n  and\n    /* \"Hook.sol\":1907:1940  path = [WethAddress,ERC20Address] */\n  0xffffffffffffffffffffffffffffffffffffffff\n  and\n  0xffffffffffffffffffffffffffffffffffffffff\n  and\n  dup2\n  mstore\n  pop\n    /* \"Hook.sol\":1907:1911  path */\n  0x07\n    /* \"Hook.sol\":1907:1940  path = [WethAddress,ERC20Address] */\n  swap1\n  0x02\n  tag_15\n  swap3\n  swap2\n  swap1\n  tag_16\n  jump\t// in\ntag_15:\n  pop\n    /* \"Hook.sol\":2020:2032  ERC20Address */\n  0x01\n  0x00\n  swap1\n  sload\n  swap1\n  0x0100\n  exp\n  swap1\n  div\n  0xffffffffffffffffffffffffffffffffffffffff\n  and\n    /* \"Hook.sol\":2013:2041  IERC20(ERC20Address).approve */\n  0xffffffffffffffffffffffffffffffffffffffff\n  and\n  0x095ea7b3\n    /* \"Hook.sol\":2042:2062  uniswapRouterAddress */\n  0x06\n  0x00\n  swap1\n  sload\n  swap1\n  0x0100\n  exp\n  swap1\n  div\n  0xffffffffffffffffffffffffffffffffffffffff\n  and\n    /* \"Hook.sol\":2063:2077  type(uint).max */\n  0xffffffffffffffffffffffffffffffffffffffffffffffffffffffffffffffff\n    /* \"Hook.sol\":2013:2078  IERC20(ERC20Address).approve(uniswapRouterAddress,type(uint).max) */\n  mload(0x40)\n  dup4\n  0xffffffff\n  and\n  0xe0\n  shl\n  dup2\n  mstore\n  0x04\n  add\n  tag_17\n  swap3\n  swap2\n  swap1\n  tag_18\n  jump\t// in\ntag_17:\n  0x20\n  mload(0x40)\n  dup1\n  dup4\n  sub\n  dup2\n  0x00\n  dup8\n  gas\n  call\n  iszero\n  dup1\n  iszero\n  tag_20\n  jumpi\n  returndatasize\n  0x00\n  dup1\n  returndatacopy\n  revert(0x00, returndatasize)\ntag_20:\n  pop\n  pop\n  pop\n  pop\n  mload(0x40)\n  returndatasize\n  not(0x1f)\n  0x1f\n  dup3\n  add\n  and\n  dup3\n  add\n  dup1\n  0x40\n  mstore\n  pop\n  dup2\n  add\n  swap1\n  tag_21\n  swap2\n  swap1\n  tag_22\n  jump\t// in\ntag_21:\n  pop\n    /* \"Hook.sol\":1380:2204  constructor(address _ERC20,address _crownNFT,address _POAP, address _initialHolder){... */\n  pop\n  pop\n  pop\n  pop\n    /* \"Hook.sol\":1346:11513  contract TransactionsAndHook{... */\n  jump(tag_23)\n    /* \"Hook.sol\":3229:3344  function setInitialTranscation (address _initialHolder) internal {... */\ntag_14:\n    /* \"Hook.sol\":3304:3337  newTransaction(0, _initialHolder) */\n  tag_25\n    /* \"Hook.sol\":3319:3320  0 */\n  0x00\n    /* \"Hook.sol\":3322:3336  _initialHolder */\n  dup3\n    /* \"Hook.sol\":3304:3318  newTransaction */\n  shl(0x20, tag_26)\n    /* \"Hook.sol\":3304:3337  newTransaction(0, _initialHolder) */\n  0x20\n  shr\n  jump\t// in\ntag_25:\n    /* \"Hook.sol\":3229:3344  function setInitialTranscation (address _initialHolder) internal {... */\n  pop\n  jump\t// out\n    /* \"Hook.sol\":3350:3710  function newTransaction (uint _receivedEth, address _newOwner) internal {... */\ntag_26:\n    /* \"Hook.sol\":3432:3443  uint POAPId */\n  0x00\n    /* \"Hook.sol\":3446:3453  POAPIds */\n  0x0d\n    /* \"Hook.sol\":3446:3460  POAPIds.length */\n  dup1\n  sload\n  swap1\n  pop\n    /* \"Hook.sol\":3432:3460  uint POAPId = POAPIds.length */\n  swap1\n  pop\n    /* \"Hook.sol\":3470:3501  Transaction storage transaction */\n  0x00\n    /* \"Hook.sol\":3504:3525  transactionFromPOAPId */\n  0x0c\n    /* \"Hook.sol\":3504:3541  transactionFromPOAPId[POAPIds.length] */\n  0x00\n    /* \"Hook.sol\":3526:3533  POAPIds */\n  0x0d\n    /* \"Hook.sol\":3526:3540  POAPIds.length */\n  dup1\n  sload\n  swap1\n  pop\n    /* \"Hook.sol\":3504:3541  transactionFromPOAPId[POAPIds.length] */\n  dup2\n  mstore\n  0x20\n  add\n  swap1\n  dup2\n  mstore\n  0x20\n  add\n  0x00\n  keccak256\n    /* \"Hook.sol\":3470:3541  Transaction storage transaction = transactionFromPOAPId[POAPIds.length] */\n  swap1\n  pop\n    /* \"Hook.sol\":3572:3578  POAPId */\n  dup2\n    /* \"Hook.sol\":3551:3562  transaction */\n  dup2\n    /* \"Hook.sol\":3551:3569  transaction.POAPId */\n  0x00\n  add\n    /* \"Hook.sol\":3551:3578  transaction.POAPId = POAPId */\n  dup2\n  swap1\n  sstore\n  pop\n    /* \"Hook.sol\":3612:3621  _newOwner */\n  dup3\n    /* \"Hook.sol\":3588:3599  transaction */\n  dup2\n    /* \"Hook.sol\":3588:3609  transaction.purchaser */\n  0x01\n  add\n  0x00\n    /* \"Hook.sol\":3588:3621  transaction.purchaser = _newOwner */\n  0x0100\n  exp\n  dup2\n  sload\n  dup2\n  0xffffffffffffffffffffffffffffffffffffffff\n  mul\n  not\n  and\n  swap1\n  dup4\n  0xffffffffffffffffffffffffffffffffffffffff\n  and\n  mul\n  or\n  swap1\n  sstore\n  pop\n    /* \"Hook.sol\":3657:3669  _receivedEth */\n  dup4\n    /* \"Hook.sol\":3631:3642  transaction */\n  dup2\n    /* \"Hook.sol\":3631:3654  transaction.receivedEth */\n  0x02\n  add\n    /* \"Hook.sol\":3631:3669  transaction.receivedEth = _receivedEth */\n  dup2\n  swap1\n  sstore\n  pop\n    /* \"Hook.sol\":3679:3686  POAPIds */\n  0x0d\n    /* \"Hook.sol\":3692:3698  POAPId */\n  dup3\n    /* \"Hook.sol\":3679:3699  POAPIds.push(POAPId) */\n  swap1\n  dup1\n  0x01\n  dup2\n  sload\n  add\n  dup1\n  dup3\n  sstore\n  dup1\n  swap2\n  pop\n  pop\n  0x01\n  swap1\n  sub\n  swap1\n  0x00\n  mstore\n  keccak256(0x00, 0x20)\n  add\n  0x00\n  swap1\n  swap2\n  swap1\n  swap2\n  swap1\n  swap2\n  pop\n  sstore\n    /* \"Hook.sol\":3422:3710  {... */\n  pop\n  pop\n    /* \"Hook.sol\":3350:3710  function newTransaction (uint _receivedEth, address _newOwner) internal {... */\n  pop\n  pop\n  jump\t// out\n    /* \"Hook.sol\":1346:11513  contract TransactionsAndHook{... */\ntag_16:\n  dup3\n  dup1\n  sload\n  dup3\n  dup3\n  sstore\n  swap1\n  0x00\n  mstore\n  keccak256(0x00, 0x20)\n  swap1\n  dup2\n  add\n  swap3\n  dup3\n  iszero\n  tag_29\n  jumpi\n  swap2\n  0x20\n  mul\n  dup3\n  add\ntag_30:\n  dup3\n  dup2\n  gt\n  iszero\n  tag_31\n  jumpi\n  dup3\n  mload\n  dup3\n  exp(0x0100, 0x00)\n  dup2\n  sload\n  dup2\n  0xffffffffffffffffffffffffffffffffffffffff\n  mul\n  not\n  and\n  swap1\n  dup4\n  0xffffffffffffffffffffffffffffffffffffffff\n  and\n  mul\n  or\n  swap1\n  sstore\n  pop\n  swap2\n  0x20\n  add\n  swap2\n  swap1\n  0x01\n  add\n  swap1\n  jump(tag_30)\ntag_31:\ntag_29:\n  pop\n  swap1\n  pop\n  tag_32\n  swap2\n  swap1\n  tag_33\n  jump\t// in\ntag_32:\n  pop\n  swap1\n  jump\t// out\ntag_33:\ntag_34:\n  dup1\n  dup3\n  gt\n  iszero\n  tag_35\n  jumpi\n  0x00\n  dup2\n  0x00\n  swap1\n  sstore\n  pop\n  0x01\n  add\n  jump(tag_34)\ntag_35:\n  pop\n  swap1\n  jump\t// out\n    /* \"#utility.yul\":88:205   */\ntag_37:\n    /* \"#utility.yul\":197:198   */\n  0x00\n    /* \"#utility.yul\":194:195   */\n  dup1\n    /* \"#utility.yul\":187:199   */\n  revert\n    /* \"#utility.yul\":334:460   */\ntag_39:\n    /* \"#utility.yul\":371:378   */\n  0x00\n    /* \"#utility.yul\":411:453   */\n  0xffffffffffffffffffffffffffffffffffffffff\n    /* \"#utility.yul\":404:409   */\n  dup3\n    /* \"#utility.yul\":400:454   */\n  and\n    /* \"#utility.yul\":389:454   */\n  swap1\n  pop\n    /* \"#utility.yul\":334:460   */\n  swap2\n  swap1\n  pop\n  jump\t// out\n    /* \"#utility.yul\":466:562   */\ntag_40:\n    /* \"#utility.yul\":503:510   */\n  0x00\n    /* \"#utility.yul\":532:556   */\n  tag_55\n    /* \"#utility.yul\":550:555   */\n  dup3\n    /* \"#utility.yul\":532:556   */\n  tag_39\n  jump\t// in\ntag_55:\n    /* \"#utility.yul\":521:556   */\n  swap1\n  pop\n    /* \"#utility.yul\":466:562   */\n  swap2\n  swap1\n  pop\n  jump\t// out\n    /* \"#utility.yul\":568:690   */\ntag_41:\n    /* \"#utility.yul\":641:665   */\n  tag_57\n    /* \"#utility.yul\":659:664   */\n  dup2\n    /* \"#utility.yul\":641:665   */\n  tag_40\n  jump\t// in\ntag_57:\n    /* \"#utility.yul\":634:639   */\n  dup2\n    /* \"#utility.yul\":631:666   */\n  eq\n    /* \"#utility.yul\":621:684   */\n  tag_58\n  jumpi\n    /* \"#utility.yul\":680:681   */\n  0x00\n    /* \"#utility.yul\":677:678   */\n  dup1\n    /* \"#utility.yul\":670:682   */\n  revert\n    /* \"#utility.yul\":621:684   */\ntag_58:\n    /* \"#utility.yul\":568:690   */\n  pop\n  jump\t// out\n    /* \"#utility.yul\":696:839   */\ntag_42:\n    /* \"#utility.yul\":753:758   */\n  0x00\n    /* \"#utility.yul\":784:790   */\n  dup2\n    /* \"#utility.yul\":778:791   */\n  mload\n    /* \"#utility.yul\":769:791   */\n  swap1\n  pop\n    /* \"#utility.yul\":800:833   */\n  tag_60\n    /* \"#utility.yul\":827:832   */\n  dup2\n    /* \"#utility.yul\":800:833   */\n  tag_41\n  jump\t// in\ntag_60:\n    /* \"#utility.yul\":696:839   */\n  swap3\n  swap2\n  pop\n  pop\n  jump\t// out\n    /* \"#utility.yul\":845:1665   */\ntag_3:\n    /* \"#utility.yul\":942:948   */\n  0x00\n    /* \"#utility.yul\":950:956   */\n  dup1\n    /* \"#utility.yul\":958:964   */\n  0x00\n    /* \"#utility.yul\":966:972   */\n  dup1\n    /* \"#utility.yul\":1015:1018   */\n  0x80\n    /* \"#utility.yul\":1003:1012   */\n  dup6\n    /* \"#utility.yul\":994:1001   */\n  dup8\n    /* \"#utility.yul\":990:1013   */\n  sub\n    /* \"#utility.yul\":986:1019   */\n  slt\n    /* \"#utility.yul\":983:1103   */\n  iszero\n  tag_62\n  jumpi\n    /* \"#utility.yul\":1022:1101   */\n  tag_63\n  tag_37\n  jump\t// in\ntag_63:\n    /* \"#utility.yul\":983:1103   */\ntag_62:\n    /* \"#utility.yul\":1142:1143   */\n  0x00\n    /* \"#utility.yul\":1167:1231   */\n  tag_64\n    /* \"#utility.yul\":1223:1230   */\n  dup8\n    /* \"#utility.yul\":1214:1220   */\n  dup3\n    /* \"#utility.yul\":1203:1212   */\n  dup9\n    /* \"#utility.yul\":1199:1221   */\n  add\n    /* \"#utility.yul\":1167:1231   */\n  tag_42\n  jump\t// in\ntag_64:\n    /* \"#utility.yul\":1157:1231   */\n  swap5\n  pop\n    /* \"#utility.yul\":1113:1241   */\n  pop\n    /* \"#utility.yul\":1280:1282   */\n  0x20\n    /* \"#utility.yul\":1306:1370   */\n  tag_65\n    /* \"#utility.yul\":1362:1369   */\n  dup8\n    /* \"#utility.yul\":1353:1359   */\n  dup3\n    /* \"#utility.yul\":1342:1351   */\n  dup9\n    /* \"#utility.yul\":1338:1360   */\n  add\n    /* \"#utility.yul\":1306:1370   */\n  tag_42\n  jump\t// in\ntag_65:\n    /* \"#utility.yul\":1296:1370   */\n  swap4\n  pop\n    /* \"#utility.yul\":1251:1380   */\n  pop\n    /* \"#utility.yul\":1419:1421   */\n  0x40\n    /* \"#utility.yul\":1445:1509   */\n  tag_66\n    /* \"#utility.yul\":1501:1508   */\n  dup8\n    /* \"#utility.yul\":1492:1498   */\n  dup3\n    /* \"#utility.yul\":1481:1490   */\n  dup9\n    /* \"#utility.yul\":1477:1499   */\n  add\n    /* \"#utility.yul\":1445:1509   */\n  tag_42\n  jump\t// in\ntag_66:\n    /* \"#utility.yul\":1435:1509   */\n  swap3\n  pop\n    /* \"#utility.yul\":1390:1519   */\n  pop\n    /* \"#utility.yul\":1558:1560   */\n  0x60\n    /* \"#utility.yul\":1584:1648   */\n  tag_67\n    /* \"#utility.yul\":1640:1647   */\n  dup8\n    /* \"#utility.yul\":1631:1637   */\n  dup3\n    /* \"#utility.yul\":1620:1629   */\n  dup9\n    /* \"#utility.yul\":1616:1638   */\n  add\n    /* \"#utility.yul\":1584:1648   */\n  tag_42\n  jump\t// in\ntag_67:\n    /* \"#utility.yul\":1574:1648   */\n  swap2\n  pop\n    /* \"#utility.yul\":1529:1658   */\n  pop\n    /* \"#utility.yul\":845:1665   */\n  swap3\n  swap6\n  swap2\n  swap5\n  pop\n  swap3\n  pop\n  jump\t// out\n    /* \"#utility.yul\":1671:2022   */\ntag_9:\n    /* \"#utility.yul\":1741:1747   */\n  0x00\n    /* \"#utility.yul\":1790:1792   */\n  0x20\n    /* \"#utility.yul\":1778:1787   */\n  dup3\n    /* \"#utility.yul\":1769:1776   */\n  dup5\n    /* \"#utility.yul\":1765:1788   */\n  sub\n    /* \"#utility.yul\":1761:1793   */\n  slt\n    /* \"#utility.yul\":1758:1877   */\n  iszero\n  tag_69\n  jumpi\n    /* \"#utility.yul\":1796:1875   */\n  tag_70\n  tag_37\n  jump\t// in\ntag_70:\n    /* \"#utility.yul\":1758:1877   */\ntag_69:\n    /* \"#utility.yul\":1916:1917   */\n  0x00\n    /* \"#utility.yul\":1941:2005   */\n  tag_71\n    /* \"#utility.yul\":1997:2004   */\n  dup5\n    /* \"#utility.yul\":1988:1994   */\n  dup3\n    /* \"#utility.yul\":1977:1986   */\n  dup6\n    /* \"#utility.yul\":1973:1995   */\n  add\n    /* \"#utility.yul\":1941:2005   */\n  tag_42\n  jump\t// in\ntag_71:\n    /* \"#utility.yul\":1931:2005   */\n  swap2\n  pop\n    /* \"#utility.yul\":1887:2015   */\n  pop\n    /* \"#utility.yul\":1671:2022   */\n  swap3\n  swap2\n  pop\n  pop\n  jump\t// out\n    /* \"#utility.yul\":2028:2146   */\ntag_43:\n    /* \"#utility.yul\":2115:2139   */\n  tag_73\n    /* \"#utility.yul\":2133:2138   */\n  dup2\n    /* \"#utility.yul\":2115:2139   */\n  tag_40\n  jump\t// in\ntag_73:\n    /* \"#utility.yul\":2110:2113   */\n  dup3\n    /* \"#utility.yul\":2103:2140   */\n  mstore\n    /* \"#utility.yul\":2028:2146   */\n  pop\n  pop\n  jump\t// out\n    /* \"#utility.yul\":2152:2229   */\ntag_44:\n    /* \"#utility.yul\":2189:2196   */\n  0x00\n    /* \"#utility.yul\":2218:2223   */\n  dup2\n    /* \"#utility.yul\":2207:2223   */\n  swap1\n  pop\n    /* \"#utility.yul\":2152:2229   */\n  swap2\n  swap1\n  pop\n  jump\t// out\n    /* \"#utility.yul\":2235:2353   */\ntag_45:\n    /* \"#utility.yul\":2322:2346   */\n  tag_76\n    /* \"#utility.yul\":2340:2345   */\n  dup2\n    /* \"#utility.yul\":2322:2346   */\n  tag_44\n  jump\t// in\ntag_76:\n    /* \"#utility.yul\":2317:2320   */\n  dup3\n    /* \"#utility.yul\":2310:2347   */\n  mstore\n    /* \"#utility.yul\":2235:2353   */\n  pop\n  pop\n  jump\t// out\n    /* \"#utility.yul\":2359:2691   */\ntag_18:\n    /* \"#utility.yul\":2480:2484   */\n  0x00\n    /* \"#utility.yul\":2518:2520   */\n  0x40\n    /* \"#utility.yul\":2507:2516   */\n  dup3\n    /* \"#utility.yul\":2503:2521   */\n  add\n    /* \"#utility.yul\":2495:2521   */\n  swap1\n  pop\n    /* \"#utility.yul\":2531:2602   */\n  tag_78\n    /* \"#utility.yul\":2599:2600   */\n  0x00\n    /* \"#utility.yul\":2588:2597   */\n  dup4\n    /* \"#utility.yul\":2584:2601   */\n  add\n    /* \"#utility.yul\":2575:2581   */\n  dup6\n    /* \"#utility.yul\":2531:2602   */\n  tag_43\n  jump\t// in\ntag_78:\n    /* \"#utility.yul\":2612:2684   */\n  tag_79\n    /* \"#utility.yul\":2680:2682   */\n  0x20\n    /* \"#utility.yul\":2669:2678   */\n  dup4\n    /* \"#utility.yul\":2665:2683   */\n  add\n    /* \"#utility.yul\":2656:2662   */\n  dup5\n    /* \"#utility.yul\":2612:2684   */\n  tag_45\n  jump\t// in\ntag_79:\n    /* \"#utility.yul\":2359:2691   */\n  swap4\n  swap3\n  pop\n  pop\n  pop\n  jump\t// out\n    /* \"#utility.yul\":2697:2787   */\ntag_46:\n    /* \"#utility.yul\":2731:2738   */\n  0x00\n    /* \"#utility.yul\":2774:2779   */\n  dup2\n    /* \"#utility.yul\":2767:2780   */\n  iszero\n    /* \"#utility.yul\":2760:2781   */\n  iszero\n    /* \"#utility.yul\":2749:2781   */\n  swap1\n  pop\n    /* \"#utility.yul\":2697:2787   */\n  swap2\n  swap1\n  pop\n  jump\t// out\n    /* \"#utility.yul\":2793:2909   */\ntag_47:\n    /* \"#utility.yul\":2863:2884   */\n  tag_82\n    /* \"#utility.yul\":2878:2883   */\n  dup2\n    /* \"#utility.yul\":2863:2884   */\n  tag_46\n  jump\t// in\ntag_82:\n    /* \"#utility.yul\":2856:2861   */\n  dup2\n    /* \"#utility.yul\":2853:2885   */\n  eq\n    /* \"#utility.yul\":2843:2903   */\n  tag_83\n  jumpi\n    /* \"#utility.yul\":2899:2900   */\n  0x00\n    /* \"#utility.yul\":2896:2897   */\n  dup1\n    /* \"#utility.yul\":2889:2901   */\n  revert\n    /* \"#utility.yul\":2843:2903   */\ntag_83:\n    /* \"#utility.yul\":2793:2909   */\n  pop\n  jump\t// out\n    /* \"#utility.yul\":2915:3052   */\ntag_48:\n    /* \"#utility.yul\":2969:2974   */\n  0x00\n    /* \"#utility.yul\":3000:3006   */\n  dup2\n    /* \"#utility.yul\":2994:3007   */\n  mload\n    /* \"#utility.yul\":2985:3007   */\n  swap1\n  pop\n    /* \"#utility.yul\":3016:3046   */\n  tag_85\n    /* \"#utility.yul\":3040:3045   */\n  dup2\n    /* \"#utility.yul\":3016:3046   */\n  tag_47\n  jump\t// in\ntag_85:\n    /* \"#utility.yul\":2915:3052   */\n  swap3\n  swap2\n  pop\n  pop\n  jump\t// out\n    /* \"#utility.yul\":3058:3403   */\ntag_22:\n    /* \"#utility.yul\":3125:3131   */\n  0x00\n    /* \"#utility.yul\":3174:3176   */\n  0x20\n    /* \"#utility.yul\":3162:3171   */\n  dup3\n    /* \"#utility.yul\":3153:3160   */\n  dup5\n    /* \"#utility.yul\":3149:3172   */\n  sub\n    /* \"#utility.yul\":3145:3177   */\n  slt\n    /* \"#utility.yul\":3142:3261   */\n  iszero\n  tag_87\n  jumpi\n    /* \"#utility.yul\":3180:3259   */\n  tag_88\n  tag_37\n  jump\t// in\ntag_88:\n    /* \"#utility.yul\":3142:3261   */\ntag_87:\n    /* \"#utility.yul\":3300:3301   */\n  0x00\n    /* \"#utility.yul\":3325:3386   */\n  tag_89\n    /* \"#utility.yul\":3378:3385   */\n  dup5\n    /* \"#utility.yul\":3369:3375   */\n  dup3\n    /* \"#utility.yul\":3358:3367   */\n  dup6\n    /* \"#utility.yul\":3354:3376   */\n  add\n    /* \"#utility.yul\":3325:3386   */\n  tag_48\n  jump\t// in\ntag_89:\n    /* \"#utility.yul\":3315:3386   */\n  swap2\n  pop\n    /* \"#utility.yul\":3271:3396   */\n  pop\n    /* \"#utility.yul\":3058:3403   */\n  swap3\n  swap2\n  pop\n  pop\n  jump\t// out\n    /* \"Hook.sol\":1346:11513  contract TransactionsAndHook{... */\ntag_23:\n  dataSize(sub_0)\n  dup1\n  dataOffset(sub_0)\n  0x00\n  codecopy\n  0x00\n  return\nstop\n\nsub_0: assembly {\n        /* \"Hook.sol\":1346:11513  contract TransactionsAndHook{... */\n      mstore(0x40, 0x80)\n      jumpi(tag_1, lt(calldatasize, 0x04))\n      shr(0xe0, calldataload(0x00))\n      dup1\n      0xa09ede07\n      gt\n      tag_23\n      jumpi\n      dup1\n      0xaf6d1fe4\n      gt\n      tag_24\n      jumpi\n      dup1\n      0xaf6d1fe4\n      eq\n      tag_18\n      jumpi\n      dup1\n      0xbd3733fe\n      eq\n      tag_19\n      jumpi\n      dup1\n      0xbfd9ea5b\n      eq\n      tag_20\n      jumpi\n      dup1\n      0xc1f2e5f1\n      eq\n      tag_21\n      jumpi\n      dup1\n      0xd4afa675\n      eq\n      tag_22\n      jumpi\n      jump(tag_2)\n    tag_24:\n      dup1\n      0xa09ede07\n      eq\n      tag_13\n      jumpi\n      dup1\n      0xa6021ace\n      eq\n      tag_14\n      jumpi\n      dup1\n      0xa785a3d8\n      eq\n      tag_15\n      jumpi\n      dup1\n      0xa89ae4ba\n      eq\n      tag_16\n      jumpi\n      dup1\n      0xaef75107\n      eq\n      tag_17\n      jumpi\n      jump(tag_2)\n    tag_23:\n      dup1\n      0x51cff8d9\n      gt\n      tag_25\n      jumpi\n      dup1\n      0x51cff8d9\n      eq\n      tag_8\n      jumpi\n      dup1\n      0x620a703c\n      eq\n      tag_9\n      jumpi\n      dup1\n      0x777b506f\n      eq\n      tag_10\n      jumpi\n      dup1\n      0x86d02608\n      eq\n      tag_11\n      jumpi\n      dup1\n      0x9dd58b58\n      eq\n      tag_12\n      jumpi\n      jump(tag_2)\n    tag_25:\n      dup1\n      0x0b2b4d9b\n      eq\n      tag_3\n      jumpi\n      dup1\n      0x1b017fde\n      eq\n      tag_4\n      jumpi\n      dup1\n      0x20ca3c7f\n      eq\n      tag_5\n      jumpi\n      dup1\n      0x2c4c3c1b\n      eq\n      tag_6\n      jumpi\n      dup1\n      0x4cfd1ba5\n      eq\n      tag_7\n      jumpi\n      jump(tag_2)\n    tag_1:\n      jumpi(tag_2, calldatasize)\n      stop\n    tag_2:\n      0x00\n      dup1\n      revert\n        /* \"Hook.sol\":11340:11466  function superBuy(address _newOwner) public payable{... */\n    tag_3:\n      tag_28\n      0x04\n      dup1\n      calldatasize\n      sub\n      dup2\n      add\n      swap1\n      tag_29\n      swap2\n      swap1\n      tag_30\n      jump\t// in\n    tag_29:\n      tag_31\n      jump\t// in\n    tag_28:\n      stop\n        /* \"Hook.sol\":3024:3116  function updateERC20Address(address _address) public{... */\n    tag_4:\n      callvalue\n      dup1\n      iszero\n      tag_32\n      jumpi\n      0x00\n      dup1\n      revert\n    tag_32:\n      pop\n      tag_33\n      0x04\n      dup1\n      calldatasize\n      sub\n      dup2\n      add\n      swap1\n      tag_34\n      swap2\n      swap1\n      tag_30\n      jump\t// in\n    tag_34:\n      tag_35\n      jump\t// in\n    tag_33:\n      stop\n        /* \"Hook.sol\":2579:2659  address public uniswapRouterAddress = 0x7a250d5630B4cF539739dF2C5dAcb4c659F2488D */\n    tag_5:\n      callvalue\n      dup1\n      iszero\n      tag_36\n      jumpi\n      0x00\n      dup1\n      revert\n    tag_36:\n      pop\n      tag_37\n      tag_38\n      jump\t// in\n    tag_37:\n      mload(0x40)\n      tag_39\n      swap2\n      swap1\n      tag_40\n      jump\t// in\n    tag_39:\n      mload(0x40)\n      dup1\n      swap2\n      sub\n      swap1\n      return\n        /* \"Hook.sol\":2898:2956  mapping (uint => Transaction) public transactionFromPOAPId */\n    tag_6:\n      callvalue\n      dup1\n      iszero\n      tag_41\n      jumpi\n      0x00\n      dup1\n      revert\n    tag_41:\n      pop\n      tag_42\n      0x04\n      dup1\n      calldatasize\n      sub\n      dup2\n      add\n      swap1\n      tag_43\n      swap2\n      swap1\n      tag_44\n      jump\t// in\n    tag_43:\n      tag_45\n      jump\t// in\n    tag_42:\n      mload(0x40)\n      tag_46\n      swap4\n      swap3\n      swap2\n      swap1\n      tag_47\n      jump\t// in\n    tag_46:\n      mload(0x40)\n      dup1\n      swap2\n      sub\n      swap1\n      return\n        /* \"Hook.sol\":7373:7391  uint public buyEth */\n    tag_7:\n      callvalue\n      dup1\n      iszero\n      tag_48\n      jumpi\n      0x00\n      dup1\n      revert\n    tag_48:\n      pop\n      tag_49\n      tag_50\n      jump\t// in\n    tag_49:\n      mload(0x40)\n      tag_51\n      swap2\n      swap1\n      tag_52\n      jump\t// in\n    tag_51:\n      mload(0x40)\n      dup1\n      swap2\n      sub\n      swap1\n      return\n        /* \"Hook.sol\":3720:3922  function withdraw(address _ERC20Address) public {... */\n    tag_8:\n      callvalue\n      dup1\n      iszero\n      tag_53\n      jumpi\n      0x00\n      dup1\n      revert\n    tag_53:\n      pop\n      tag_54\n      0x04\n      dup1\n      calldatasize\n      sub\n      dup2\n      add\n      swap1\n      tag_55\n      swap2\n      swap1\n      tag_30\n      jump\t// in\n    tag_55:\n      tag_56\n      jump\t// in\n    tag_54:\n      stop\n        /* \"Hook.sol\":4674:6087  function xprovideLiquidity() external payable returns (uint){... */\n    tag_9:\n      tag_57\n      tag_58\n      jump\t// in\n    tag_57:\n      mload(0x40)\n      tag_59\n      swap2\n      swap1\n      tag_52\n      jump\t// in\n    tag_59:\n      mload(0x40)\n      dup1\n      swap2\n      sub\n      swap1\n      return\n        /* \"Hook.sol\":2511:2541  address public crownNFTAddress */\n    tag_10:\n      callvalue\n      dup1\n      iszero\n      tag_60\n      jumpi\n      0x00\n      dup1\n      revert\n    tag_60:\n      pop\n      tag_61\n      tag_62\n      jump\t// in\n    tag_61:\n      mload(0x40)\n      tag_63\n      swap2\n      swap1\n      tag_40\n      jump\t// in\n    tag_63:\n      mload(0x40)\n      dup1\n      swap2\n      sub\n      swap1\n      return\n        /* \"Hook.sol\":2982:3008  uint public totalRoyalties */\n    tag_11:\n      callvalue\n      dup1\n      iszero\n      tag_64\n      jumpi\n      0x00\n      dup1\n      revert\n    tag_64:\n      pop\n      tag_65\n      tag_66\n      jump\t// in\n    tag_65:\n      mload(0x40)\n      tag_67\n      swap2\n      swap1\n      tag_52\n      jump\t// in\n    tag_67:\n      mload(0x40)\n      dup1\n      swap2\n      sub\n      swap1\n      return\n        /* \"Hook.sol\":3928:4033  function getWethBalance() public view returns (uint){... */\n    tag_12:\n      callvalue\n      dup1\n      iszero\n      tag_68\n      jumpi\n      0x00\n      dup1\n      revert\n    tag_68:\n      pop\n      tag_69\n      tag_70\n      jump\t// in\n    tag_69:\n      mload(0x40)\n      tag_71\n      swap2\n      swap1\n      tag_52\n      jump\t// in\n    tag_71:\n      mload(0x40)\n      dup1\n      swap2\n      sub\n      swap1\n      return\n        /* \"Hook.sol\":7397:7421  uint public liquidityEth */\n    tag_13:\n      callvalue\n      dup1\n      iszero\n      tag_72\n      jumpi\n      0x00\n      dup1\n      revert\n    tag_72:\n      pop\n      tag_73\n      tag_74\n      jump\t// in\n    tag_73:\n      mload(0x40)\n      tag_75\n      swap2\n      swap1\n      tag_52\n      jump\t// in\n    tag_75:\n      mload(0x40)\n      dup1\n      swap2\n      sub\n      swap1\n      return\n        /* \"Hook.sol\":2405:2432  address public ERC20Address */\n    tag_14:\n      callvalue\n      dup1\n      iszero\n      tag_76\n      jumpi\n      0x00\n      dup1\n      revert\n    tag_76:\n      pop\n      tag_77\n      tag_78\n      jump\t// in\n    tag_77:\n      mload(0x40)\n      tag_79\n      swap2\n      swap1\n      tag_40\n      jump\t// in\n    tag_79:\n      mload(0x40)\n      dup1\n      swap2\n      sub\n      swap1\n      return\n        /* \"Hook.sol\":2328:2399  address public WethAddress = 0xB4FBF271143F4FBf7B91A5ded31805e42b2208d6 */\n    tag_15:\n      callvalue\n      dup1\n      iszero\n      tag_80\n      jumpi\n      0x00\n      dup1\n      revert\n    tag_80:\n      pop\n      tag_81\n      tag_82\n      jump\t// in\n    tag_81:\n      mload(0x40)\n      tag_83\n      swap2\n      swap1\n      tag_40\n      jump\t// in\n    tag_83:\n      mload(0x40)\n      dup1\n      swap2\n      sub\n      swap1\n      return\n        /* \"Hook.sol\":2477:2505  address public oracleAddress */\n    tag_16:\n      callvalue\n      dup1\n      iszero\n      tag_84\n      jumpi\n      0x00\n      dup1\n      revert\n    tag_84:\n      pop\n      tag_85\n      tag_86\n      jump\t// in\n    tag_85:\n      mload(0x40)\n      tag_87\n      swap2\n      swap1\n      tag_40\n      jump\t// in\n    tag_87:\n      mload(0x40)\n      dup1\n      swap2\n      sub\n      swap1\n      return\n        /* \"Hook.sol\":2547:2573  address public POAPAddress */\n    tag_17:\n      callvalue\n      dup1\n      iszero\n      tag_88\n      jumpi\n      0x00\n      dup1\n      revert\n    tag_88:\n      pop\n      tag_89\n      tag_90\n      jump\t// in\n    tag_89:\n      mload(0x40)\n      tag_91\n      swap2\n      swap1\n      tag_40\n      jump\t// in\n    tag_91:\n      mload(0x40)\n      dup1\n      swap2\n      sub\n      swap1\n      return\n        /* \"Hook.sol\":2665:2686  address[] public path */\n    tag_18:\n      callvalue\n      dup1\n      iszero\n      tag_92\n      jumpi\n      0x00\n      dup1\n      revert\n    tag_92:\n      pop\n      tag_93\n      0x04\n      dup1\n      calldatasize\n      sub\n      dup2\n      add\n      swap1\n      tag_94\n      swap2\n      swap1\n      tag_44\n      jump\t// in\n    tag_94:\n      tag_95\n      jump\t// in\n    tag_93:\n      mload(0x40)\n      tag_96\n      swap2\n      swap1\n      tag_40\n      jump\t// in\n    tag_96:\n      mload(0x40)\n      dup1\n      swap2\n      sub\n      swap1\n      return\n        /* \"Hook.sol\":2438:2471  address public uniswapPairAddress */\n    tag_19:\n      callvalue\n      dup1\n      iszero\n      tag_97\n      jumpi\n      0x00\n      dup1\n      revert\n    tag_97:\n      pop\n      tag_98\n      tag_99\n      jump\t// in\n    tag_98:\n      mload(0x40)\n      tag_100\n      swap2\n      swap1\n      tag_40\n      jump\t// in\n    tag_100:\n      mload(0x40)\n      dup1\n      swap2\n      sub\n      swap1\n      return\n        /* \"Hook.sol\":4040:4172  function getLastEthRecieved() public view returns (uint){... */\n    tag_20:\n      callvalue\n      dup1\n      iszero\n      tag_101\n      jumpi\n      0x00\n      dup1\n      revert\n    tag_101:\n      pop\n      tag_102\n      tag_103\n      jump\t// in\n    tag_102:\n      mload(0x40)\n      tag_104\n      swap2\n      swap1\n      tag_52\n      jump\t// in\n    tag_104:\n      mload(0x40)\n      dup1\n      swap2\n      sub\n      swap1\n      return\n        /* \"Hook.sol\":4182:4668  function percentLiquidity() public view returns (uint){... */\n    tag_21:\n      callvalue\n      dup1\n      iszero\n      tag_105\n      jumpi\n      0x00\n      dup1\n      revert\n    tag_105:\n      pop\n      tag_106\n      tag_107\n      jump\t// in\n    tag_106:\n      mload(0x40)\n      tag_108\n      swap2\n      swap1\n      tag_52\n      jump\t// in\n    tag_108:\n      mload(0x40)\n      dup1\n      swap2\n      sub\n      swap1\n      return\n        /* \"Hook.sol\":11221:11334  function mintSomeTokens (uint tokens) public {... */\n    tag_22:\n      callvalue\n      dup1\n      iszero\n      tag_109\n      jumpi\n      0x00\n      dup1\n      revert\n    tag_109:\n      pop\n      tag_110\n      0x04\n      dup1\n      calldatasize\n      sub\n      dup2\n      add\n      swap1\n      tag_111\n      swap2\n      swap1\n      tag_44\n      jump\t// in\n    tag_111:\n      tag_112\n      jump\t// in\n    tag_110:\n      stop\n        /* \"Hook.sol\":11340:11466  function superBuy(address _newOwner) public payable{... */\n    tag_31:\n        /* \"Hook.sol\":11401:11437  newTransaction(msg.value, _newOwner) */\n      tag_114\n        /* \"Hook.sol\":11416:11425  msg.value */\n      callvalue\n        /* \"Hook.sol\":11427:11436  _newOwner */\n      dup3\n        /* \"Hook.sol\":11401:11415  newTransaction */\n      tag_115\n        /* \"Hook.sol\":11401:11437  newTransaction(msg.value, _newOwner) */\n      jump\t// in\n    tag_114:\n        /* \"Hook.sol\":11447:11459  processETH() */\n      tag_116\n        /* \"Hook.sol\":11447:11457  processETH */\n      tag_117\n        /* \"Hook.sol\":11447:11459  processETH() */\n      jump\t// in\n    tag_116:\n        /* \"Hook.sol\":11340:11466  function superBuy(address _newOwner) public payable{... */\n      pop\n      jump\t// out\n        /* \"Hook.sol\":3024:3116  function updateERC20Address(address _address) public{... */\n    tag_35:\n        /* \"Hook.sol\":3101:3109  _address */\n      dup1\n        /* \"Hook.sol\":3086:3098  ERC20Address */\n      0x01\n      0x00\n        /* \"Hook.sol\":3086:3109  ERC20Address = _address */\n      0x0100\n      exp\n      dup2\n      sload\n      dup2\n      0xffffffffffffffffffffffffffffffffffffffff\n      mul\n      not\n      and\n      swap1\n      dup4\n      0xffffffffffffffffffffffffffffffffffffffff\n      and\n      mul\n      or\n      swap1\n      sstore\n      pop\n        /* \"Hook.sol\":3024:3116  function updateERC20Address(address _address) public{... */\n      pop\n      jump\t// out\n        /* \"Hook.sol\":2579:2659  address public uniswapRouterAddress = 0x7a250d5630B4cF539739dF2C5dAcb4c659F2488D */\n    tag_38:\n      0x06\n      0x00\n      swap1\n      sload\n      swap1\n      0x0100\n      exp\n      swap1\n      div\n      0xffffffffffffffffffffffffffffffffffffffff\n      and\n      dup2\n      jump\t// out\n        /* \"Hook.sol\":2898:2956  mapping (uint => Transaction) public transactionFromPOAPId */\n    tag_45:\n      mstore(0x20, 0x0c)\n      dup1\n      0x00\n      mstore\n      keccak256(0x00, 0x40)\n      0x00\n      swap2\n      pop\n      swap1\n      pop\n      dup1\n      0x00\n      add\n      sload\n      swap1\n      dup1\n      0x01\n      add\n      0x00\n      swap1\n      sload\n      swap1\n      0x0100\n      exp\n      swap1\n      div\n      0xffffffffffffffffffffffffffffffffffffffff\n      and\n      swap1\n      dup1\n      0x02\n      add\n      sload\n      swap1\n      pop\n      dup4\n      jump\t// out\n        /* \"Hook.sol\":7373:7391  uint public buyEth */\n    tag_50:\n      sload(0x0f)\n      dup2\n      jump\t// out\n        /* \"Hook.sol\":3720:3922  function withdraw(address _ERC20Address) public {... */\n    tag_56:\n        /* \"Hook.sol\":3778:3790  IERC20 ERC20 */\n      0x00\n        /* \"Hook.sol\":3800:3813  _ERC20Address */\n      dup2\n        /* \"Hook.sol\":3778:3814  IERC20 ERC20 = IERC20(_ERC20Address) */\n      swap1\n      pop\n        /* \"Hook.sol\":3824:3837  uint _balance */\n      0x00\n        /* \"Hook.sol\":3840:3845  ERC20 */\n      dup2\n        /* \"Hook.sol\":3840:3855  ERC20.balanceOf */\n      0xffffffffffffffffffffffffffffffffffffffff\n      and\n      0x70a08231\n        /* \"Hook.sol\":3864:3868  this */\n      address\n        /* \"Hook.sol\":3840:3870  ERC20.balanceOf(address(this)) */\n      mload(0x40)\n      dup3\n      0xffffffff\n      and\n      0xe0\n      shl\n      dup2\n      mstore\n      0x04\n      add\n      tag_120\n      swap2\n      swap1\n      tag_40\n      jump\t// in\n    tag_120:\n      0x20\n      mload(0x40)\n      dup1\n      dup4\n      sub\n      dup2\n      dup7\n      gas\n      staticcall\n      iszero\n      dup1\n      iszero\n      tag_122\n      jumpi\n      returndatasize\n      0x00\n      dup1\n      returndatacopy\n      revert(0x00, returndatasize)\n    tag_122:\n      pop\n      pop\n      pop\n      pop\n      mload(0x40)\n      returndatasize\n      not(0x1f)\n      0x1f\n      dup3\n      add\n      and\n      dup3\n      add\n      dup1\n      0x40\n      mstore\n      pop\n      dup2\n      add\n      swap1\n      tag_123\n      swap2\n      swap1\n      tag_124\n      jump\t// in\n    tag_123:\n        /* \"Hook.sol\":3824:3870  uint _balance = ERC20.balanceOf(address(this)) */\n      swap1\n      pop\n        /* \"Hook.sol\":3880:3885  ERC20 */\n      dup2\n        /* \"Hook.sol\":3880:3894  ERC20.transfer */\n      0xffffffffffffffffffffffffffffffffffffffff\n      and\n      0xa9059cbb\n        /* \"Hook.sol\":3895:3905  msg.sender */\n      caller\n        /* \"Hook.sol\":3906:3914  _balance */\n      dup4\n        /* \"Hook.sol\":3880:3915  ERC20.transfer(msg.sender,_balance) */\n      mload(0x40)\n      dup4\n      0xffffffff\n      and\n      0xe0\n      shl\n      dup2\n      mstore\n      0x04\n      add\n      tag_125\n      swap3\n      swap2\n      swap1\n      tag_126\n      jump\t// in\n    tag_125:\n      0x20\n      mload(0x40)\n      dup1\n      dup4\n      sub\n      dup2\n      0x00\n      dup8\n      gas\n      call\n      iszero\n      dup1\n      iszero\n      tag_128\n      jumpi\n      returndatasize\n      0x00\n      dup1\n      returndatacopy\n      revert(0x00, returndatasize)\n    tag_128:\n      pop\n      pop\n      pop\n      pop\n      mload(0x40)\n      returndatasize\n      not(0x1f)\n      0x1f\n      dup3\n      add\n      and\n      dup3\n      add\n      dup1\n      0x40\n      mstore\n      pop\n      dup2\n      add\n      swap1\n      tag_129\n      swap2\n      swap1\n      tag_130\n      jump\t// in\n    tag_129:\n      pop\n        /* \"Hook.sol\":3768:3922  {... */\n      pop\n      pop\n        /* \"Hook.sol\":3720:3922  function withdraw(address _ERC20Address) public {... */\n      pop\n      jump\t// out\n        /* \"Hook.sol\":4674:6087  function xprovideLiquidity() external payable returns (uint){... */\n    tag_58:\n        /* \"Hook.sol\":4729:4733  uint */\n      0x00\n        /* \"Hook.sol\":4753:4780  uint ERC20LiquidityProvided */\n      dup1\n        /* \"Hook.sol\":4860:4884  uint currentERC20Balance */\n      0x00\n        /* \"Hook.sol\":4894:4906  ERC20Address */\n      0x01\n      0x00\n      swap1\n      sload\n      swap1\n      0x0100\n      exp\n      swap1\n      div\n      0xffffffffffffffffffffffffffffffffffffffff\n      and\n        /* \"Hook.sol\":4887:4917  IERC20(ERC20Address).balanceOf */\n      0xffffffffffffffffffffffffffffffffffffffff\n      and\n      0x70a08231\n        /* \"Hook.sol\":4926:4930  this */\n      address\n        /* \"Hook.sol\":4887:4932  IERC20(ERC20Address).balanceOf(address(this)) */\n      mload(0x40)\n      dup3\n      0xffffffff\n      and\n      0xe0\n      shl\n      dup2\n      mstore\n      0x04\n      add\n      tag_132\n      swap2\n      swap1\n      tag_40\n      jump\t// in\n    tag_132:\n      0x20\n      mload(0x40)\n      dup1\n      dup4\n      sub\n      dup2\n      dup7\n      gas\n      staticcall\n      iszero\n      dup1\n      iszero\n      tag_134\n      jumpi\n      returndatasize\n      0x00\n      dup1\n      returndatacopy\n      revert(0x00, returndatasize)\n    tag_134:\n      pop\n      pop\n      pop\n      pop\n      mload(0x40)\n      returndatasize\n      not(0x1f)\n      0x1f\n      dup3\n      add\n      and\n      dup3\n      add\n      dup1\n      0x40\n      mstore\n      pop\n      dup2\n      add\n      swap1\n      tag_135\n      swap2\n      swap1\n      tag_124\n      jump\t// in\n    tag_135:\n        /* \"Hook.sol\":4860:4932  uint currentERC20Balance = IERC20(ERC20Address).balanceOf(address(this)) */\n      swap1\n      pop\n        /* \"Hook.sol\":5015:5032  uint tokensToSend */\n      0x00\n        /* \"Hook.sol\":5087:5090  100 */\n      0x64\n        /* \"Hook.sol\":5081:5084  105 */\n      0x69\n        /* \"Hook.sol\":5035:5041  Oracle */\n      0x0a\n      0x00\n      swap1\n      sload\n      swap1\n      0x0100\n      exp\n      swap1\n      div\n      0xffffffffffffffffffffffffffffffffffffffff\n      and\n        /* \"Hook.sol\":5035:5055  Oracle.consultPrices */\n      0xffffffffffffffffffffffffffffffffffffffff\n      and\n      0x3ac35585\n        /* \"Hook.sol\":5056:5067  WethAddress */\n      0x00\n      dup1\n      sload\n      swap1\n      0x0100\n      exp\n      swap1\n      div\n      0xffffffffffffffffffffffffffffffffffffffff\n      and\n        /* \"Hook.sol\":5069:5078  msg.value */\n      callvalue\n        /* \"Hook.sol\":5035:5079  Oracle.consultPrices(WethAddress, msg.value) */\n      mload(0x40)\n      dup4\n      0xffffffff\n      and\n      0xe0\n      shl\n      dup2\n      mstore\n      0x04\n      add\n      tag_136\n      swap3\n      swap2\n      swap1\n      tag_126\n      jump\t// in\n    tag_136:\n      0x20\n      mload(0x40)\n      dup1\n      dup4\n      sub\n      dup2\n      dup7\n      gas\n      staticcall\n      iszero\n      dup1\n      iszero\n      tag_138\n      jumpi\n      returndatasize\n      0x00\n      dup1\n      returndatacopy\n      revert(0x00, returndatasize)\n    tag_138:\n      pop\n      pop\n      pop\n      pop\n      mload(0x40)\n      returndatasize\n      not(0x1f)\n      0x1f\n      dup3\n      add\n      and\n      dup3\n      add\n      dup1\n      0x40\n      mstore\n      pop\n      dup2\n      add\n      swap1\n      tag_139\n      swap2\n      swap1\n      tag_124\n      jump\t// in\n    tag_139:\n        /* \"Hook.sol\":5035:5084  Oracle.consultPrices(WethAddress, msg.value)* 105 */\n      tag_140\n      swap2\n      swap1\n      tag_141\n      jump\t// in\n    tag_140:\n        /* \"Hook.sol\":5035:5090  Oracle.consultPrices(WethAddress, msg.value)* 105 / 100 */\n      tag_142\n      swap2\n      swap1\n      tag_143\n      jump\t// in\n    tag_142:\n        /* \"Hook.sol\":5015:5090  uint tokensToSend = Oracle.consultPrices(WethAddress, msg.value)* 105 / 100 */\n      swap1\n      pop\n        /* \"Hook.sol\":5212:5231  currentERC20Balance */\n      dup2\n        /* \"Hook.sol\":5197:5209  tokensToSend */\n      dup2\n        /* \"Hook.sol\":5197:5231  tokensToSend > currentERC20Balance */\n      gt\n        /* \"Hook.sol\":5194:5577  if(tokensToSend > currentERC20Balance){... */\n      iszero\n      tag_144\n      jumpi\n        /* \"Hook.sol\":5251:5284  Log(\"Need to mint for liquidity\") */\n      0xcf34ef537ac33ee1ac626ca1587a0a7e8e51561e5514f8cb36afa1c5102b3bab\n      mload(0x40)\n      tag_145\n      swap1\n      tag_146\n      jump\t// in\n    tag_145:\n      mload(0x40)\n      dup1\n      swap2\n      sub\n      swap1\n      log1\n        /* \"Hook.sol\":5307:5319  ERC20Address */\n      0x01\n      0x00\n      swap1\n      sload\n      swap1\n      0x0100\n      exp\n      swap1\n      div\n      0xffffffffffffffffffffffffffffffffffffffff\n      and\n        /* \"Hook.sol\":5298:5329  WethLike(ERC20Address).hookMint */\n      0xffffffffffffffffffffffffffffffffffffffff\n      and\n      0x96fe8349\n        /* \"Hook.sol\":5343:5362  currentERC20Balance */\n      dup4\n        /* \"Hook.sol\":5330:5342  tokensToSend */\n      dup4\n        /* \"Hook.sol\":5330:5362  tokensToSend-currentERC20Balance */\n      tag_147\n      swap2\n      swap1\n      tag_148\n      jump\t// in\n    tag_147:\n        /* \"Hook.sol\":5371:5375  this */\n      address\n        /* \"Hook.sol\":5298:5377  WethLike(ERC20Address).hookMint(tokensToSend-currentERC20Balance,address(this)) */\n      mload(0x40)\n      dup4\n      0xffffffff\n      and\n      0xe0\n      shl\n      dup2\n      mstore\n      0x04\n      add\n      tag_149\n      swap3\n      swap2\n      swap1\n      tag_150\n      jump\t// in\n    tag_149:\n      0x00\n      mload(0x40)\n      dup1\n      dup4\n      sub\n      dup2\n      0x00\n      dup8\n      dup1\n      extcodesize\n      iszero\n      dup1\n      iszero\n      tag_151\n      jumpi\n      0x00\n      dup1\n      revert\n    tag_151:\n      pop\n      gas\n      call\n      iszero\n      dup1\n      iszero\n      tag_153\n      jumpi\n      returndatasize\n      0x00\n      dup1\n      returndatacopy\n      revert(0x00, returndatasize)\n    tag_153:\n      pop\n      pop\n      pop\n      pop\n        /* \"Hook.sol\":5396:5416  Log(\"tokens minted\") */\n      0xcf34ef537ac33ee1ac626ca1587a0a7e8e51561e5514f8cb36afa1c5102b3bab\n      mload(0x40)\n      tag_154\n      swap1\n      tag_155\n      jump\t// in\n    tag_154:\n      mload(0x40)\n      dup1\n      swap2\n      sub\n      swap1\n      log1\n        /* \"Hook.sol\":5435:5472  Log(tokensToSend-currentERC20Balance) */\n      0x909c57d5c6ac08245cf2a6de3900e2b868513fa59099b92b27d8db823d92df9c\n        /* \"Hook.sol\":5452:5471  currentERC20Balance */\n      dup3\n        /* \"Hook.sol\":5439:5451  tokensToSend */\n      dup3\n        /* \"Hook.sol\":5439:5471  tokensToSend-currentERC20Balance */\n      tag_156\n      swap2\n      swap1\n      tag_148\n      jump\t// in\n    tag_156:\n        /* \"Hook.sol\":5435:5472  Log(tokensToSend-currentERC20Balance) */\n      mload(0x40)\n      tag_157\n      swap2\n      swap1\n      tag_52\n      jump\t// in\n    tag_157:\n      mload(0x40)\n      dup1\n      swap2\n      sub\n      swap1\n      log1\n        /* \"Hook.sol\":5515:5527  ERC20Address */\n      0x01\n      0x00\n      swap1\n      sload\n      swap1\n      0x0100\n      exp\n      swap1\n      div\n      0xffffffffffffffffffffffffffffffffffffffff\n      and\n        /* \"Hook.sol\":5508:5538  IERC20(ERC20Address).balanceOf */\n      0xffffffffffffffffffffffffffffffffffffffff\n      and\n      0x70a08231\n        /* \"Hook.sol\":5547:5551  this */\n      address\n        /* \"Hook.sol\":5508:5553  IERC20(ERC20Address).balanceOf(address(this)) */\n      mload(0x40)\n      dup3\n      0xffffffff\n      and\n      0xe0\n      shl\n      dup2\n      mstore\n      0x04\n      add\n      tag_158\n      swap2\n      swap1\n      tag_40\n      jump\t// in\n    tag_158:\n      0x20\n      mload(0x40)\n      dup1\n      dup4\n      sub\n      dup2\n      dup7\n      gas\n      staticcall\n      iszero\n      dup1\n      iszero\n      tag_160\n      jumpi\n      returndatasize\n      0x00\n      dup1\n      returndatacopy\n      revert(0x00, returndatasize)\n    tag_160:\n      pop\n      pop\n      pop\n      pop\n      mload(0x40)\n      returndatasize\n      not(0x1f)\n      0x1f\n      dup3\n      add\n      and\n      dup3\n      add\n      dup1\n      0x40\n      mstore\n      pop\n      dup2\n      add\n      swap1\n      tag_161\n      swap2\n      swap1\n      tag_124\n      jump\t// in\n    tag_161:\n        /* \"Hook.sol\":5486:5553  currentERC20Balance = IERC20(ERC20Address).balanceOf(address(this)) */\n      swap2\n      pop\n        /* \"Hook.sol\":5194:5577  if(tokensToSend > currentERC20Balance){... */\n    tag_144:\n        /* \"Hook.sol\":5649:5662  UniswapRouter */\n      0x0b\n      0x00\n      swap1\n      sload\n      swap1\n      0x0100\n      exp\n      swap1\n      div\n      0xffffffffffffffffffffffffffffffffffffffff\n      and\n        /* \"Hook.sol\":5649:5678  UniswapRouter.addLiquidityETH */\n      0xffffffffffffffffffffffffffffffffffffffff\n      and\n      0xf305d719\n        /* \"Hook.sol\":5687:5696  msg.value */\n      callvalue\n        /* \"Hook.sol\":5707:5711  this */\n      address\n        /* \"Hook.sol\":5714:5726  tokensToSend */\n      dup5\n        /* \"Hook.sol\":5728:5729  0 */\n      0x00\n        /* \"Hook.sol\":5748:5751  100 */\n      0x64\n        /* \"Hook.sol\":5744:5746  95 */\n      0x5f\n        /* \"Hook.sol\":5732:5741  msg.value */\n      callvalue\n        /* \"Hook.sol\":5732:5746  msg.value * 95 */\n      tag_162\n      swap2\n      swap1\n      tag_141\n      jump\t// in\n    tag_162:\n        /* \"Hook.sol\":5731:5751  (msg.value * 95)/100 */\n      tag_163\n      swap2\n      swap1\n      tag_143\n      jump\t// in\n    tag_163:\n        /* \"Hook.sol\":5761:5765  this */\n      address\n        /* \"Hook.sol\":5768:5782  type(uint).max */\n      0xffffffffffffffffffffffffffffffffffffffffffffffffffffffffffffffff\n        /* \"Hook.sol\":5649:5783  UniswapRouter.addLiquidityETH {value: msg.value} (address(this), tokensToSend, 0, (msg.value * 95)/100, address(this), type(uint).max) */\n      mload(0x40)\n      dup9\n      0xffffffff\n      and\n      0xe0\n      shl\n      dup2\n      mstore\n      0x04\n      add\n      tag_164\n      swap7\n      swap6\n      swap5\n      swap4\n      swap3\n      swap2\n      swap1\n      tag_165\n      jump\t// in\n    tag_164:\n      0x60\n      mload(0x40)\n      dup1\n      dup4\n      sub\n      dup2\n      dup6\n      dup9\n      gas\n      call\n      swap4\n      pop\n      pop\n      pop\n      pop\n      dup1\n      iszero\n      tag_166\n      jumpi\n      pop\n      mload(0x40)\n      returndatasize\n      not(0x1f)\n      0x1f\n      dup3\n      add\n      and\n      dup3\n      add\n      dup1\n      0x40\n      mstore\n      pop\n      dup2\n      add\n      swap1\n      tag_167\n      swap2\n      swap1\n      tag_168\n      jump\t// in\n    tag_167:\n      0x01\n    tag_166:\n        /* \"Hook.sol\":5645:6040  try UniswapRouter.addLiquidityETH {value: msg.value} (address(this), tokensToSend, 0, (msg.value * 95)/100, address(this), type(uint).max)... */\n      tag_169\n      jumpi\n        /* \"Hook.sol\":6000:6029  Log(\"Liquidity Not Provided\") */\n      0xcf34ef537ac33ee1ac626ca1587a0a7e8e51561e5514f8cb36afa1c5102b3bab\n      mload(0x40)\n      tag_173\n      swap1\n      tag_174\n      jump\t// in\n    tag_173:\n      mload(0x40)\n      dup1\n      swap2\n      sub\n      swap1\n      log1\n        /* \"Hook.sol\":5645:6040  try UniswapRouter.addLiquidityETH {value: msg.value} (address(this), tokensToSend, 0, (msg.value * 95)/100, address(this), type(uint).max)... */\n      jump(tag_175)\n    tag_169:\n      pop\n      pop\n      pop\n        /* \"Hook.sol\":5811:5849  Log(\"liquidity Successfully Provided\") */\n      0xcf34ef537ac33ee1ac626ca1587a0a7e8e51561e5514f8cb36afa1c5102b3bab\n      mload(0x40)\n      tag_176\n      swap1\n      tag_177\n      jump\t// in\n    tag_176:\n      mload(0x40)\n      dup1\n      swap2\n      sub\n      swap1\n      log1\n        /* \"Hook.sol\":5917:5929  ERC20Address */\n      0x01\n      0x00\n      swap1\n      sload\n      swap1\n      0x0100\n      exp\n      swap1\n      div\n      0xffffffffffffffffffffffffffffffffffffffff\n      and\n        /* \"Hook.sol\":5910:5940  IERC20(ERC20Address).balanceOf */\n      0xffffffffffffffffffffffffffffffffffffffff\n      and\n      0x70a08231\n        /* \"Hook.sol\":5949:5953  this */\n      address\n        /* \"Hook.sol\":5910:5955  IERC20(ERC20Address).balanceOf(address(this)) */\n      mload(0x40)\n      dup3\n      0xffffffff\n      and\n      0xe0\n      shl\n      dup2\n      mstore\n      0x04\n      add\n      tag_178\n      swap2\n      swap1\n      tag_40\n      jump\t// in\n    tag_178:\n      0x20\n      mload(0x40)\n      dup1\n      dup4\n      sub\n      dup2\n      dup7\n      gas\n      staticcall\n      iszero\n      dup1\n      iszero\n      tag_180\n      jumpi\n      returndatasize\n      0x00\n      dup1\n      returndatacopy\n      revert(0x00, returndatasize)\n    tag_180:\n      pop\n      pop\n      pop\n      pop\n      mload(0x40)\n      returndatasize\n      not(0x1f)\n      0x1f\n      dup3\n      add\n      and\n      dup3\n      add\n      dup1\n      0x40\n      mstore\n      pop\n      dup2\n      add\n      swap1\n      tag_181\n      swap2\n      swap1\n      tag_124\n      jump\t// in\n    tag_181:\n        /* \"Hook.sol\":5888:5907  currentERC20Balance */\n      dup3\n        /* \"Hook.sol\":5888:5955  currentERC20Balance - IERC20(ERC20Address).balanceOf(address(this)) */\n      tag_182\n      swap2\n      swap1\n      tag_148\n      jump\t// in\n    tag_182:\n        /* \"Hook.sol\":5863:5955  ERC20LiquidityProvided = currentERC20Balance - IERC20(ERC20Address).balanceOf(address(this)) */\n      swap3\n      pop\n        /* \"Hook.sol\":5645:6040  try UniswapRouter.addLiquidityETH {value: msg.value} (address(this), tokensToSend, 0, (msg.value * 95)/100, address(this), type(uint).max)... */\n    tag_175:\n        /* \"Hook.sol\":6057:6079  ERC20LiquidityProvided */\n      dup3\n        /* \"Hook.sol\":6049:6080  return (ERC20LiquidityProvided) */\n      swap4\n      pop\n      pop\n      pop\n      pop\n        /* \"Hook.sol\":4674:6087  function xprovideLiquidity() external payable returns (uint){... */\n      swap1\n      jump\t// out\n        /* \"Hook.sol\":2511:2541  address public crownNFTAddress */\n    tag_62:\n      0x04\n      0x00\n      swap1\n      sload\n      swap1\n      0x0100\n      exp\n      swap1\n      div\n      0xffffffffffffffffffffffffffffffffffffffff\n      and\n      dup2\n      jump\t// out\n        /* \"Hook.sol\":2982:3008  uint public totalRoyalties */\n    tag_66:\n      sload(0x0e)\n      dup2\n      jump\t// out\n        /* \"Hook.sol\":3928:4033  function getWethBalance() public view returns (uint){... */\n    tag_70:\n        /* \"Hook.sol\":3975:3979  uint */\n      0x00\n        /* \"Hook.sol\":3997:4001  WETH */\n      0x09\n      0x00\n      swap1\n      sload\n      swap1\n      0x0100\n      exp\n      swap1\n      div\n      0xffffffffffffffffffffffffffffffffffffffff\n      and\n        /* \"Hook.sol\":3997:4011  WETH.balanceOf */\n      0xffffffffffffffffffffffffffffffffffffffff\n      and\n      0x70a08231\n        /* \"Hook.sol\":4020:4024  this */\n      address\n        /* \"Hook.sol\":3997:4026  WETH.balanceOf(address(this)) */\n      mload(0x40)\n      dup3\n      0xffffffff\n      and\n      0xe0\n      shl\n      dup2\n      mstore\n      0x04\n      add\n      tag_184\n      swap2\n      swap1\n      tag_40\n      jump\t// in\n    tag_184:\n      0x20\n      mload(0x40)\n      dup1\n      dup4\n      sub\n      dup2\n      dup7\n      gas\n      staticcall\n      iszero\n      dup1\n      iszero\n      tag_186\n      jumpi\n      returndatasize\n      0x00\n      dup1\n      returndatacopy\n      revert(0x00, returndatasize)\n    tag_186:\n      pop\n      pop\n      pop\n      pop\n      mload(0x40)\n      returndatasize\n      not(0x1f)\n      0x1f\n      dup3\n      add\n      and\n      dup3\n      add\n      dup1\n      0x40\n      mstore\n      pop\n      dup2\n      add\n      swap1\n      tag_187\n      swap2\n      swap1\n      tag_124\n      jump\t// in\n    tag_187:\n        /* \"Hook.sol\":3990:4026  return WETH.balanceOf(address(this)) */\n      swap1\n      pop\n        /* \"Hook.sol\":3928:4033  function getWethBalance() public view returns (uint){... */\n      swap1\n      jump\t// out\n        /* \"Hook.sol\":7397:7421  uint public liquidityEth */\n    tag_74:\n      sload(0x10)\n      dup2\n      jump\t// out\n        /* \"Hook.sol\":2405:2432  address public ERC20Address */\n    tag_78:\n      0x01\n      0x00\n      swap1\n      sload\n      swap1\n      0x0100\n      exp\n      swap1\n      div\n      0xffffffffffffffffffffffffffffffffffffffff\n      and\n      dup2\n      jump\t// out\n        /* \"Hook.sol\":2328:2399  address public WethAddress = 0xB4FBF271143F4FBf7B91A5ded31805e42b2208d6 */\n    tag_82:\n      0x00\n      dup1\n      sload\n      swap1\n      0x0100\n      exp\n      swap1\n      div\n      0xffffffffffffffffffffffffffffffffffffffff\n      and\n      dup2\n      jump\t// out\n        /* \"Hook.sol\":2477:2505  address public oracleAddress */\n    tag_86:\n      0x03\n      0x00\n      swap1\n      sload\n      swap1\n      0x0100\n      exp\n      swap1\n      div\n      0xffffffffffffffffffffffffffffffffffffffff\n      and\n      dup2\n      jump\t// out\n        /* \"Hook.sol\":2547:2573  address public POAPAddress */\n    tag_90:\n      0x05\n      0x00\n      swap1\n      sload\n      swap1\n      0x0100\n      exp\n      swap1\n      div\n      0xffffffffffffffffffffffffffffffffffffffff\n      and\n      dup2\n      jump\t// out\n        /* \"Hook.sol\":2665:2686  address[] public path */\n    tag_95:\n      0x07\n      dup2\n      dup2\n      sload\n      dup2\n      lt\n      tag_188\n      jumpi\n      0x00\n      dup1\n      revert\n    tag_188:\n      swap1\n      0x00\n      mstore\n      keccak256(0x00, 0x20)\n      add\n      0x00\n      swap2\n      pop\n      sload\n      swap1\n      0x0100\n      exp\n      swap1\n      div\n      0xffffffffffffffffffffffffffffffffffffffff\n      and\n      dup2\n      jump\t// out\n        /* \"Hook.sol\":2438:2471  address public uniswapPairAddress */\n    tag_99:\n      0x02\n      0x00\n      swap1\n      sload\n      swap1\n      0x0100\n      exp\n      swap1\n      div\n      0xffffffffffffffffffffffffffffffffffffffff\n      and\n      dup2\n      jump\t// out\n        /* \"Hook.sol\":4040:4172  function getLastEthRecieved() public view returns (uint){... */\n    tag_103:\n        /* \"Hook.sol\":4091:4095  uint */\n      0x00\n        /* \"Hook.sol\":4113:4134  transactionFromPOAPId */\n      0x0c\n        /* \"Hook.sol\":4113:4153  transactionFromPOAPId[POAPIds.length -1] */\n      0x00\n        /* \"Hook.sol\":4151:4152  1 */\n      0x01\n        /* \"Hook.sol\":4135:4142  POAPIds */\n      0x0d\n        /* \"Hook.sol\":4135:4149  POAPIds.length */\n      dup1\n      sload\n      swap1\n      pop\n        /* \"Hook.sol\":4135:4152  POAPIds.length -1 */\n      tag_191\n      swap2\n      swap1\n      tag_148\n      jump\t// in\n    tag_191:\n        /* \"Hook.sol\":4113:4153  transactionFromPOAPId[POAPIds.length -1] */\n      dup2\n      mstore\n      0x20\n      add\n      swap1\n      dup2\n      mstore\n      0x20\n      add\n      0x00\n      keccak256\n        /* \"Hook.sol\":4113:4165  transactionFromPOAPId[POAPIds.length -1].receivedEth */\n      0x02\n      add\n      sload\n        /* \"Hook.sol\":4106:4165  return transactionFromPOAPId[POAPIds.length -1].receivedEth */\n      swap1\n      pop\n        /* \"Hook.sol\":4040:4172  function getLastEthRecieved() public view returns (uint){... */\n      swap1\n      jump\t// out\n        /* \"Hook.sol\":4182:4668  function percentLiquidity() public view returns (uint){... */\n    tag_107:\n        /* \"Hook.sol\":4231:4235  uint */\n      0x00\n        /* \"Hook.sol\":4391:4402  uint supply */\n      dup1\n        /* \"Hook.sol\":4412:4424  ERC20Address */\n      0x01\n      0x00\n      swap1\n      sload\n      swap1\n      0x0100\n      exp\n      swap1\n      div\n      0xffffffffffffffffffffffffffffffffffffffff\n      and\n        /* \"Hook.sol\":4405:4437  IERC20(ERC20Address).totalSupply */\n      0xffffffffffffffffffffffffffffffffffffffff\n      and\n      0x18160ddd\n        /* \"Hook.sol\":4405:4439  IERC20(ERC20Address).totalSupply() */\n      mload(0x40)\n      dup2\n      0xffffffff\n      and\n      0xe0\n      shl\n      dup2\n      mstore\n      0x04\n      add\n      0x20\n      mload(0x40)\n      dup1\n      dup4\n      sub\n      dup2\n      dup7\n      gas\n      staticcall\n      iszero\n      dup1\n      iszero\n      tag_194\n      jumpi\n      returndatasize\n      0x00\n      dup1\n      returndatacopy\n      revert(0x00, returndatasize)\n    tag_194:\n      pop\n      pop\n      pop\n      pop\n      mload(0x40)\n      returndatasize\n      not(0x1f)\n      0x1f\n      dup3\n      add\n      and\n      dup3\n      add\n      dup1\n      0x40\n      mstore\n      pop\n      dup2\n      add\n      swap1\n      tag_195\n      swap2\n      swap1\n      tag_124\n      jump\t// in\n    tag_195:\n        /* \"Hook.sol\":4391:4439  uint supply = IERC20(ERC20Address).totalSupply() */\n      swap1\n      pop\n        /* \"Hook.sol\":4495:4509  uint liquidity */\n      0x00\n        /* \"Hook.sol\":4517:4529  ERC20Address */\n      0x01\n      0x00\n      swap1\n      sload\n      swap1\n      0x0100\n      exp\n      swap1\n      div\n      0xffffffffffffffffffffffffffffffffffffffff\n      and\n        /* \"Hook.sol\":4510:4540  IERC20(ERC20Address).balanceOf */\n      0xffffffffffffffffffffffffffffffffffffffff\n      and\n      0x70a08231\n        /* \"Hook.sol\":4541:4559  uniswapPairAddress */\n      0x02\n      0x00\n      swap1\n      sload\n      swap1\n      0x0100\n      exp\n      swap1\n      div\n      0xffffffffffffffffffffffffffffffffffffffff\n      and\n        /* \"Hook.sol\":4510:4560  IERC20(ERC20Address).balanceOf(uniswapPairAddress) */\n      mload(0x40)\n      dup3\n      0xffffffff\n      and\n      0xe0\n      shl\n      dup2\n      mstore\n      0x04\n      add\n      tag_196\n      swap2\n      swap1\n      tag_40\n      jump\t// in\n    tag_196:\n      0x20\n      mload(0x40)\n      dup1\n      dup4\n      sub\n      dup2\n      dup7\n      gas\n      staticcall\n      iszero\n      dup1\n      iszero\n      tag_198\n      jumpi\n      returndatasize\n      0x00\n      dup1\n      returndatacopy\n      revert(0x00, returndatasize)\n    tag_198:\n      pop\n      pop\n      pop\n      pop\n      mload(0x40)\n      returndatasize\n      not(0x1f)\n      0x1f\n      dup3\n      add\n      and\n      dup3\n      add\n      dup1\n      0x40\n      mstore\n      pop\n      dup2\n      add\n      swap1\n      tag_199\n      swap2\n      swap1\n      tag_124\n      jump\t// in\n    tag_199:\n        /* \"Hook.sol\":4495:4560  uint liquidity=IERC20(ERC20Address).balanceOf(uniswapPairAddress) */\n      swap1\n      pop\n        /* \"Hook.sol\":4654:4660  supply */\n      dup2\n        /* \"Hook.sol\":4649:4652  100 */\n      0x64\n        /* \"Hook.sol\":4639:4648  liquidity */\n      dup3\n        /* \"Hook.sol\":4639:4652  liquidity*100 */\n      tag_200\n      swap2\n      swap1\n      tag_141\n      jump\t// in\n    tag_200:\n        /* \"Hook.sol\":4638:4660  (liquidity*100)/supply */\n      tag_201\n      swap2\n      swap1\n      tag_143\n      jump\t// in\n    tag_201:\n        /* \"Hook.sol\":4631:4661  return((liquidity*100)/supply) */\n      swap3\n      pop\n      pop\n      pop\n        /* \"Hook.sol\":4182:4668  function percentLiquidity() public view returns (uint){... */\n      swap1\n      jump\t// out\n        /* \"Hook.sol\":11221:11334  function mintSomeTokens (uint tokens) public {... */\n    tag_112:\n        /* \"Hook.sol\":11285:11297  ERC20Address */\n      0x01\n      0x00\n      swap1\n      sload\n      swap1\n      0x0100\n      exp\n      swap1\n      div\n      0xffffffffffffffffffffffffffffffffffffffff\n      and\n        /* \"Hook.sol\":11276:11307  WethLike(ERC20Address).hookMint */\n      0xffffffffffffffffffffffffffffffffffffffff\n      and\n      0x96fe8349\n        /* \"Hook.sol\":11308:11314  tokens */\n      dup3\n        /* \"Hook.sol\":11316:11326  msg.sender */\n      caller\n        /* \"Hook.sol\":11276:11327  WethLike(ERC20Address).hookMint(tokens, msg.sender) */\n      mload(0x40)\n      dup4\n      0xffffffff\n      and\n      0xe0\n      shl\n      dup2\n      mstore\n      0x04\n      add\n      tag_203\n      swap3\n      swap2\n      swap1\n      tag_150\n      jump\t// in\n    tag_203:\n      0x00\n      mload(0x40)\n      dup1\n      dup4\n      sub\n      dup2\n      0x00\n      dup8\n      dup1\n      extcodesize\n      iszero\n      dup1\n      iszero\n      tag_204\n      jumpi\n      0x00\n      dup1\n      revert\n    tag_204:\n      pop\n      gas\n      call\n      iszero\n      dup1\n      iszero\n      tag_206\n      jumpi\n      returndatasize\n      0x00\n      dup1\n      returndatacopy\n      revert(0x00, returndatasize)\n    tag_206:\n      pop\n      pop\n      pop\n      pop\n        /* \"Hook.sol\":11221:11334  function mintSomeTokens (uint tokens) public {... */\n      pop\n      jump\t// out\n        /* \"Hook.sol\":3350:3710  function newTransaction (uint _receivedEth, address _newOwner) internal {... */\n    tag_115:\n        /* \"Hook.sol\":3432:3443  uint POAPId */\n      0x00\n        /* \"Hook.sol\":3446:3453  POAPIds */\n      0x0d\n        /* \"Hook.sol\":3446:3460  POAPIds.length */\n      dup1\n      sload\n      swap1\n      pop\n        /* \"Hook.sol\":3432:3460  uint POAPId = POAPIds.length */\n      swap1\n      pop\n        /* \"Hook.sol\":3470:3501  Transaction storage transaction */\n      0x00\n        /* \"Hook.sol\":3504:3525  transactionFromPOAPId */\n      0x0c\n        /* \"Hook.sol\":3504:3541  transactionFromPOAPId[POAPIds.length] */\n      0x00\n        /* \"Hook.sol\":3526:3533  POAPIds */\n      0x0d\n        /* \"Hook.sol\":3526:3540  POAPIds.length */\n      dup1\n      sload\n      swap1\n      pop\n        /* \"Hook.sol\":3504:3541  transactionFromPOAPId[POAPIds.length] */\n      dup2\n      mstore\n      0x20\n      add\n      swap1\n      dup2\n      mstore\n      0x20\n      add\n      0x00\n      keccak256\n        /* \"Hook.sol\":3470:3541  Transaction storage transaction = transactionFromPOAPId[POAPIds.length] */\n      swap1\n      pop\n        /* \"Hook.sol\":3572:3578  POAPId */\n      dup2\n        /* \"Hook.sol\":3551:3562  transaction */\n      dup2\n        /* \"Hook.sol\":3551:3569  transaction.POAPId */\n      0x00\n      add\n        /* \"Hook.sol\":3551:3578  transaction.POAPId = POAPId */\n      dup2\n      swap1\n      sstore\n      pop\n        /* \"Hook.sol\":3612:3621  _newOwner */\n      dup3\n        /* \"Hook.sol\":3588:3599  transaction */\n      dup2\n        /* \"Hook.sol\":3588:3609  transaction.purchaser */\n      0x01\n      add\n      0x00\n        /* \"Hook.sol\":3588:3621  transaction.purchaser = _newOwner */\n      0x0100\n      exp\n      dup2\n      sload\n      dup2\n      0xffffffffffffffffffffffffffffffffffffffff\n      mul\n      not\n      and\n      swap1\n      dup4\n      0xffffffffffffffffffffffffffffffffffffffff\n      and\n      mul\n      or\n      swap1\n      sstore\n      pop\n        /* \"Hook.sol\":3657:3669  _receivedEth */\n      dup4\n        /* \"Hook.sol\":3631:3642  transaction */\n      dup2\n        /* \"Hook.sol\":3631:3654  transaction.receivedEth */\n      0x02\n      add\n        /* \"Hook.sol\":3631:3669  transaction.receivedEth = _receivedEth */\n      dup2\n      swap1\n      sstore\n      pop\n        /* \"Hook.sol\":3679:3686  POAPIds */\n      0x0d\n        /* \"Hook.sol\":3692:3698  POAPId */\n      dup3\n        /* \"Hook.sol\":3679:3699  POAPIds.push(POAPId) */\n      swap1\n      dup1\n      0x01\n      dup2\n      sload\n      add\n      dup1\n      dup3\n      sstore\n      dup1\n      swap2\n      pop\n      pop\n      0x01\n      swap1\n      sub\n      swap1\n      0x00\n      mstore\n      keccak256(0x00, 0x20)\n      add\n      0x00\n      swap1\n      swap2\n      swap1\n      swap2\n      swap1\n      swap2\n      pop\n      sstore\n        /* \"Hook.sol\":3422:3710  {... */\n      pop\n      pop\n        /* \"Hook.sol\":3350:3710  function newTransaction (uint _receivedEth, address _newOwner) internal {... */\n      pop\n      pop\n      jump\t// out\n        /* \"Hook.sol\":9456:11215  function processETH() internal{... */\n    tag_117:\n        /* \"Hook.sol\":9496:9509  uint msgValue */\n      0x00\n        /* \"Hook.sol\":9512:9521  msg.value */\n      callvalue\n        /* \"Hook.sol\":9496:9521  uint msgValue = msg.value */\n      swap1\n      pop\n        /* \"Hook.sol\":9541:9542  0 */\n      0x00\n        /* \"Hook.sol\":9534:9540  buyEth */\n      sload(0x0f)\n        /* \"Hook.sol\":9534:9542  buyEth>0 */\n      gt\n        /* \"Hook.sol\":9531:9781  if(buyEth>0){... */\n      iszero\n      tag_210\n      jumpi\n        /* \"Hook.sol\":9557:9570  uint _balance */\n      0x00\n        /* \"Hook.sol\":9573:9594  address(this).balance */\n      selfbalance\n        /* \"Hook.sol\":9557:9594  uint _balance = address(this).balance */\n      swap1\n      pop\n        /* \"Hook.sol\":9608:9626  buyAndBurn(buyEth) */\n      tag_211\n        /* \"Hook.sol\":9619:9625  buyEth */\n      sload(0x0f)\n        /* \"Hook.sol\":9608:9618  buyAndBurn */\n      tag_212\n        /* \"Hook.sol\":9608:9626  buyAndBurn(buyEth) */\n      jump\t// in\n    tag_211:\n        /* \"Hook.sol\":9640:9656  uint _newBalance */\n      0x00\n        /* \"Hook.sol\":9659:9680  address(this).balance */\n      selfbalance\n        /* \"Hook.sol\":9640:9680  uint _newBalance = address(this).balance */\n      swap1\n      pop\n        /* \"Hook.sol\":9694:9710  uint _difference */\n      0x00\n        /* \"Hook.sol\":9724:9735  _newBalance */\n      dup2\n        /* \"Hook.sol\":9713:9721  _balance */\n      dup4\n        /* \"Hook.sol\":9713:9735  _balance - _newBalance */\n      tag_213\n      swap2\n      swap1\n      tag_148\n      jump\t// in\n    tag_213:\n        /* \"Hook.sol\":9694:9735  uint _difference = _balance - _newBalance */\n      swap1\n      pop\n        /* \"Hook.sol\":9759:9770  _difference */\n      dup1\n        /* \"Hook.sol\":9749:9755  buyEth */\n      0x0f\n      0x00\n        /* \"Hook.sol\":9749:9770  buyEth -= _difference */\n      dup3\n      dup3\n      sload\n      tag_214\n      swap2\n      swap1\n      tag_148\n      jump\t// in\n    tag_214:\n      swap3\n      pop\n      pop\n      dup2\n      swap1\n      sstore\n      pop\n        /* \"Hook.sol\":9543:9781  {... */\n      pop\n      pop\n      pop\n        /* \"Hook.sol\":9531:9781  if(buyEth>0){... */\n    tag_210:\n        /* \"Hook.sol\":9806:9807  0 */\n      0x00\n        /* \"Hook.sol\":9793:9805  liquidityEth */\n      sload(0x10)\n        /* \"Hook.sol\":9793:9807  liquidityEth>0 */\n      gt\n        /* \"Hook.sol\":9790:10064  if(liquidityEth>0){... */\n      iszero\n      tag_215\n      jumpi\n        /* \"Hook.sol\":9822:9835  uint _balance */\n      0x00\n        /* \"Hook.sol\":9838:9859  address(this).balance */\n      selfbalance\n        /* \"Hook.sol\":9822:9859  uint _balance = address(this).balance */\n      swap1\n      pop\n        /* \"Hook.sol\":9873:9903  provideLiquidity(liquidityEth) */\n      tag_216\n        /* \"Hook.sol\":9890:9902  liquidityEth */\n      sload(0x10)\n        /* \"Hook.sol\":9873:9889  provideLiquidity */\n      tag_217\n        /* \"Hook.sol\":9873:9903  provideLiquidity(liquidityEth) */\n      jump\t// in\n    tag_216:\n      pop\n        /* \"Hook.sol\":9917:9933  uint _newBalance */\n      0x00\n        /* \"Hook.sol\":9936:9957  address(this).balance */\n      selfbalance\n        /* \"Hook.sol\":9917:9957  uint _newBalance = address(this).balance */\n      swap1\n      pop\n        /* \"Hook.sol\":9971:9987  uint _difference */\n      0x00\n        /* \"Hook.sol\":10001:10012  _newBalance */\n      dup2\n        /* \"Hook.sol\":9990:9998  _balance */\n      dup4\n        /* \"Hook.sol\":9990:10012  _balance - _newBalance */\n      tag_218\n      swap2\n      swap1\n      tag_148\n      jump\t// in\n    tag_218:\n        /* \"Hook.sol\":9971:10012  uint _difference = _balance - _newBalance */\n      swap1\n      pop\n        /* \"Hook.sol\":10042:10053  _difference */\n      dup1\n        /* \"Hook.sol\":10026:10038  liquidityEth */\n      0x10\n      0x00\n        /* \"Hook.sol\":10026:10053  liquidityEth -= _difference */\n      dup3\n      dup3\n      sload\n      tag_219\n      swap2\n      swap1\n      tag_148\n      jump\t// in\n    tag_219:\n      swap3\n      pop\n      pop\n      dup2\n      swap1\n      sstore\n      pop\n        /* \"Hook.sol\":9808:10064  {... */\n      pop\n      pop\n      pop\n        /* \"Hook.sol\":9790:10064  if(liquidityEth>0){... */\n    tag_215:\n        /* \"Hook.sol\":10077:10099  address previousHolder */\n      0x00\n        /* \"Hook.sol\":10102:10123  transactionFromPOAPId */\n      0x0c\n        /* \"Hook.sol\":10102:10142  transactionFromPOAPId[POAPIds.length -1] */\n      0x00\n        /* \"Hook.sol\":10140:10141  1 */\n      0x01\n        /* \"Hook.sol\":10124:10131  POAPIds */\n      0x0d\n        /* \"Hook.sol\":10124:10138  POAPIds.length */\n      dup1\n      sload\n      swap1\n      pop\n        /* \"Hook.sol\":10124:10141  POAPIds.length -1 */\n      tag_220\n      swap2\n      swap1\n      tag_148\n      jump\t// in\n    tag_220:\n        /* \"Hook.sol\":10102:10142  transactionFromPOAPId[POAPIds.length -1] */\n      dup2\n      mstore\n      0x20\n      add\n      swap1\n      dup2\n      mstore\n      0x20\n      add\n      0x00\n      keccak256\n        /* \"Hook.sol\":10102:10152  transactionFromPOAPId[POAPIds.length -1].purchaser */\n      0x01\n      add\n      0x00\n      swap1\n      sload\n      swap1\n      0x0100\n      exp\n      swap1\n      div\n      0xffffffffffffffffffffffffffffffffffffffff\n      and\n        /* \"Hook.sol\":10077:10152  address previousHolder = transactionFromPOAPId[POAPIds.length -1].purchaser */\n      swap1\n      pop\n        /* \"Hook.sol\":10166:10203  erc20ToPreviousHolder(previousHolder) */\n      tag_221\n        /* \"Hook.sol\":10188:10202  previousHolder */\n      dup2\n        /* \"Hook.sol\":10166:10187  erc20ToPreviousHolder */\n      tag_222\n        /* \"Hook.sol\":10166:10203  erc20ToPreviousHolder(previousHolder) */\n      jump\t// in\n    tag_221:\n        /* \"Hook.sol\":10217:10221  POAP */\n      0x08\n      0x00\n      swap1\n      sload\n      swap1\n      0x0100\n      exp\n      swap1\n      div\n      0xffffffffffffffffffffffffffffffffffffffff\n      and\n        /* \"Hook.sol\":10217:10226  POAP.mint */\n      0xffffffffffffffffffffffffffffffffffffffff\n      and\n      0x6a627842\n        /* \"Hook.sol\":10227:10241  previousHolder */\n      dup3\n        /* \"Hook.sol\":10217:10242  POAP.mint(previousHolder) */\n      mload(0x40)\n      dup3\n      0xffffffff\n      and\n      0xe0\n      shl\n      dup2\n      mstore\n      0x04\n      add\n      tag_223\n      swap2\n      swap1\n      tag_40\n      jump\t// in\n    tag_223:\n      0x00\n      mload(0x40)\n      dup1\n      dup4\n      sub\n      dup2\n      0x00\n      dup8\n      dup1\n      extcodesize\n      iszero\n      dup1\n      iszero\n      tag_224\n      jumpi\n      0x00\n      dup1\n      revert\n    tag_224:\n      pop\n      gas\n      call\n      iszero\n      dup1\n      iszero\n      tag_226\n      jumpi\n      returndatasize\n      0x00\n      dup1\n      returndatacopy\n      revert(0x00, returndatasize)\n    tag_226:\n      pop\n      pop\n      pop\n      pop\n        /* \"Hook.sol\":10252:10274  uint _percentLiquidity */\n      0x00\n        /* \"Hook.sol\":10277:10295  percentLiquidity() */\n      tag_227\n        /* \"Hook.sol\":10277:10293  percentLiquidity */\n      tag_107\n        /* \"Hook.sol\":10277:10295  percentLiquidity() */\n      jump\t// in\n    tag_227:\n        /* \"Hook.sol\":10252:10295  uint _percentLiquidity = percentLiquidity() */\n      swap1\n      pop\n        /* \"Hook.sol\":10310:10335  Log('previous Holder is') */\n      0xcf34ef537ac33ee1ac626ca1587a0a7e8e51561e5514f8cb36afa1c5102b3bab\n      mload(0x40)\n      tag_228\n      swap1\n      tag_229\n      jump\t// in\n    tag_228:\n      mload(0x40)\n      dup1\n      swap2\n      sub\n      swap1\n      log1\n        /* \"Hook.sol\":10350:10369  Log(previousHolder) */\n      0xb8a00d6d8ca1be30bfec34d8f97e55f0f0fd9eeb7fb46e030516363d4cfe1ad6\n        /* \"Hook.sol\":10354:10368  previousHolder */\n      dup3\n        /* \"Hook.sol\":10350:10369  Log(previousHolder) */\n      mload(0x40)\n      tag_230\n      swap2\n      swap1\n      tag_40\n      jump\t// in\n    tag_230:\n      mload(0x40)\n      dup1\n      swap2\n      sub\n      swap1\n      log1\n        /* \"Hook.sol\":10384:10416  Log('current liquidity percent') */\n      0xcf34ef537ac33ee1ac626ca1587a0a7e8e51561e5514f8cb36afa1c5102b3bab\n      mload(0x40)\n      tag_231\n      swap1\n      tag_232\n      jump\t// in\n    tag_231:\n      mload(0x40)\n      dup1\n      swap2\n      sub\n      swap1\n      log1\n        /* \"Hook.sol\":10431:10453  Log(_percentLiquidity) */\n      0x909c57d5c6ac08245cf2a6de3900e2b868513fa59099b92b27d8db823d92df9c\n        /* \"Hook.sol\":10435:10452  _percentLiquidity */\n      dup2\n        /* \"Hook.sol\":10431:10453  Log(_percentLiquidity) */\n      mload(0x40)\n      tag_233\n      swap2\n      swap1\n      tag_52\n      jump\t// in\n    tag_233:\n      mload(0x40)\n      dup1\n      swap2\n      sub\n      swap1\n      log1\n        /* \"Hook.sol\":10533:10535  20 */\n      0x14\n        /* \"Hook.sol\":10515:10532  _percentLiquidity */\n      dup2\n        /* \"Hook.sol\":10515:10535  _percentLiquidity>20 */\n      gt\n        /* \"Hook.sol\":10512:11209  if(_percentLiquidity>20){... */\n      iszero\n      tag_234\n      jumpi\n        /* \"Hook.sol\":10550:10563  uint _balance */\n      0x00\n        /* \"Hook.sol\":10566:10587  address(this).balance */\n      selfbalance\n        /* \"Hook.sol\":10550:10587  uint _balance = address(this).balance */\n      swap1\n      pop\n        /* \"Hook.sol\":10601:10622  buyAndBurn(msg.value) */\n      tag_235\n        /* \"Hook.sol\":10612:10621  msg.value */\n      callvalue\n        /* \"Hook.sol\":10601:10611  buyAndBurn */\n      tag_212\n        /* \"Hook.sol\":10601:10622  buyAndBurn(msg.value) */\n      jump\t// in\n    tag_235:\n        /* \"Hook.sol\":10636:10652  uint _newBalance */\n      0x00\n        /* \"Hook.sol\":10655:10676  address(this).balance */\n      selfbalance\n        /* \"Hook.sol\":10636:10676  uint _newBalance = address(this).balance */\n      swap1\n      pop\n        /* \"Hook.sol\":10690:10706  uint _difference */\n      0x00\n        /* \"Hook.sol\":10720:10731  _newBalance */\n      dup2\n        /* \"Hook.sol\":10709:10717  _balance */\n      dup4\n        /* \"Hook.sol\":10709:10731  _balance - _newBalance */\n      tag_236\n      swap2\n      swap1\n      tag_148\n      jump\t// in\n    tag_236:\n        /* \"Hook.sol\":10690:10731  uint _difference = _balance - _newBalance */\n      swap1\n      pop\n        /* \"Hook.sol\":10745:10773  uint _amountLeftFromMsgValue */\n      0x00\n        /* \"Hook.sol\":10787:10798  _difference */\n      dup2\n        /* \"Hook.sol\":10776:10784  msgValue */\n      dup8\n        /* \"Hook.sol\":10776:10798  msgValue - _difference */\n      tag_237\n      swap2\n      swap1\n      tag_148\n      jump\t// in\n    tag_237:\n        /* \"Hook.sol\":10745:10798  uint _amountLeftFromMsgValue = msgValue - _difference */\n      swap1\n      pop\n        /* \"Hook.sol\":10822:10845  _amountLeftFromMsgValue */\n      dup1\n        /* \"Hook.sol\":10812:10818  buyEth */\n      0x0f\n      0x00\n        /* \"Hook.sol\":10812:10845  buyEth += _amountLeftFromMsgValue */\n      dup3\n      dup3\n      sload\n      tag_238\n      swap2\n      swap1\n      tag_239\n      jump\t// in\n    tag_238:\n      swap3\n      pop\n      pop\n      dup2\n      swap1\n      sstore\n      pop\n        /* \"Hook.sol\":10536:10857  {... */\n      pop\n      pop\n      pop\n      pop\n        /* \"Hook.sol\":10512:11209  if(_percentLiquidity>20){... */\n      jump(tag_240)\n    tag_234:\n        /* \"Hook.sol\":10877:10890  uint _balance */\n      0x00\n        /* \"Hook.sol\":10893:10914  address(this).balance */\n      selfbalance\n        /* \"Hook.sol\":10877:10914  uint _balance = address(this).balance */\n      swap1\n      pop\n        /* \"Hook.sol\":10928:10968  provideLiquidity(liquidityEth+msg.value) */\n      tag_241\n        /* \"Hook.sol\":10958:10967  msg.value */\n      callvalue\n        /* \"Hook.sol\":10945:10957  liquidityEth */\n      sload(0x10)\n        /* \"Hook.sol\":10945:10967  liquidityEth+msg.value */\n      tag_242\n      swap2\n      swap1\n      tag_239\n      jump\t// in\n    tag_242:\n        /* \"Hook.sol\":10928:10944  provideLiquidity */\n      tag_217\n        /* \"Hook.sol\":10928:10968  provideLiquidity(liquidityEth+msg.value) */\n      jump\t// in\n    tag_241:\n      pop\n        /* \"Hook.sol\":10982:10998  uint _newBalance */\n      0x00\n        /* \"Hook.sol\":11001:11022  address(this).balance */\n      selfbalance\n        /* \"Hook.sol\":10982:11022  uint _newBalance = address(this).balance */\n      swap1\n      pop\n        /* \"Hook.sol\":11036:11052  uint _difference */\n      0x00\n        /* \"Hook.sol\":11066:11077  _newBalance */\n      dup2\n        /* \"Hook.sol\":11055:11063  _balance */\n      dup4\n        /* \"Hook.sol\":11055:11077  _balance - _newBalance */\n      tag_243\n      swap2\n      swap1\n      tag_148\n      jump\t// in\n    tag_243:\n        /* \"Hook.sol\":11036:11077  uint _difference = _balance - _newBalance */\n      swap1\n      pop\n        /* \"Hook.sol\":11091:11119  uint _amountLeftFromMsgValue */\n      0x00\n        /* \"Hook.sol\":11133:11144  _difference */\n      dup2\n        /* \"Hook.sol\":11122:11130  msgValue */\n      dup8\n        /* \"Hook.sol\":11122:11144  msgValue - _difference */\n      tag_244\n      swap2\n      swap1\n      tag_148\n      jump\t// in\n    tag_244:\n        /* \"Hook.sol\":11091:11144  uint _amountLeftFromMsgValue = msgValue - _difference */\n      swap1\n      pop\n        /* \"Hook.sol\":11174:11197  _amountLeftFromMsgValue */\n      dup1\n        /* \"Hook.sol\":11158:11170  liquidityEth */\n      0x10\n      0x00\n        /* \"Hook.sol\":11158:11197  liquidityEth += _amountLeftFromMsgValue */\n      dup3\n      dup3\n      sload\n      tag_245\n      swap2\n      swap1\n      tag_239\n      jump\t// in\n    tag_245:\n      swap3\n      pop\n      pop\n      dup2\n      swap1\n      sstore\n      pop\n        /* \"Hook.sol\":10863:11209  {... */\n      pop\n      pop\n      pop\n      pop\n        /* \"Hook.sol\":10512:11209  if(_percentLiquidity>20){... */\n    tag_240:\n        /* \"Hook.sol\":9486:11215  {... */\n      pop\n      pop\n      pop\n        /* \"Hook.sol\":9456:11215  function processETH() internal{... */\n      jump\t// out\n        /* \"Hook.sol\":8484:8753  function buyAndBurn(uint _buyEth) internal{... */\n    tag_212:\n        /* \"Hook.sol\":8536:8547  uint tokens */\n      0x00\n        /* \"Hook.sol\":8550:8568  buyTokens(_buyEth) */\n      tag_247\n        /* \"Hook.sol\":8560:8567  _buyEth */\n      dup3\n        /* \"Hook.sol\":8550:8559  buyTokens */\n      tag_248\n        /* \"Hook.sol\":8550:8568  buyTokens(_buyEth) */\n      jump\t// in\n    tag_247:\n        /* \"Hook.sol\":8536:8568  uint tokens = buyTokens(_buyEth) */\n      swap1\n      pop\n        /* \"Hook.sol\":8591:8603  ERC20Address */\n      0x01\n      0x00\n      swap1\n      sload\n      swap1\n      0x0100\n      exp\n      swap1\n      div\n      0xffffffffffffffffffffffffffffffffffffffff\n      and\n        /* \"Hook.sol\":8582:8609  WethLike(ERC20Address).burn */\n      0xffffffffffffffffffffffffffffffffffffffff\n      and\n      0x42966c68\n        /* \"Hook.sol\":8610:8616  tokens */\n      dup3\n        /* \"Hook.sol\":8582:8617  WethLike(ERC20Address).burn(tokens) */\n      mload(0x40)\n      dup3\n      0xffffffff\n      and\n      0xe0\n      shl\n      dup2\n      mstore\n      0x04\n      add\n      tag_249\n      swap2\n      swap1\n      tag_52\n      jump\t// in\n    tag_249:\n      0x00\n      mload(0x40)\n      dup1\n      dup4\n      sub\n      dup2\n      0x00\n      dup8\n      dup1\n      extcodesize\n      iszero\n      dup1\n      iszero\n      tag_250\n      jumpi\n      0x00\n      dup1\n      revert\n    tag_250:\n      pop\n      gas\n      call\n      swap3\n      pop\n      pop\n      pop\n      dup1\n      iszero\n      tag_251\n      jumpi\n      pop\n      0x01\n    tag_251:\n        /* \"Hook.sol\":8578:8747  try WethLike(ERC20Address).burn(tokens){... */\n      tag_252\n      jumpi\n        /* \"Hook.sol\":8709:8736  Log('tokens cant be burnt') */\n      0xcf34ef537ac33ee1ac626ca1587a0a7e8e51561e5514f8cb36afa1c5102b3bab\n      mload(0x40)\n      tag_256\n      swap1\n      tag_257\n      jump\t// in\n    tag_256:\n      mload(0x40)\n      dup1\n      swap2\n      sub\n      swap1\n      log1\n        /* \"Hook.sol\":8578:8747  try WethLike(ERC20Address).burn(tokens){... */\n      jump(tag_258)\n    tag_252:\n        /* \"Hook.sol\":8636:8665  Log('tokens have been burnt') */\n      0xcf34ef537ac33ee1ac626ca1587a0a7e8e51561e5514f8cb36afa1c5102b3bab\n      mload(0x40)\n      tag_259\n      swap1\n      tag_260\n      jump\t// in\n    tag_259:\n      mload(0x40)\n      dup1\n      swap2\n      sub\n      swap1\n      log1\n        /* \"Hook.sol\":8578:8747  try WethLike(ERC20Address).burn(tokens){... */\n    tag_258:\n        /* \"Hook.sol\":8526:8753  {... */\n      pop\n        /* \"Hook.sol\":8484:8753  function buyAndBurn(uint _buyEth) internal{... */\n      pop\n      jump\t// out\n        /* \"Hook.sol\":6093:7367  function provideLiquidity(uint _liquidityEth) internal returns (uint){... */\n    tag_217:\n        /* \"Hook.sol\":6157:6161  uint */\n      0x00\n        /* \"Hook.sol\":6181:6208  uint ERC20LiquidityProvided */\n      dup1\n        /* \"Hook.sol\":6288:6312  uint currentERC20Balance */\n      0x00\n        /* \"Hook.sol\":6322:6334  ERC20Address */\n      0x01\n      0x00\n      swap1\n      sload\n      swap1\n      0x0100\n      exp\n      swap1\n      div\n      0xffffffffffffffffffffffffffffffffffffffff\n      and\n        /* \"Hook.sol\":6315:6345  IERC20(ERC20Address).balanceOf */\n      0xffffffffffffffffffffffffffffffffffffffff\n      and\n      0x70a08231\n        /* \"Hook.sol\":6354:6358  this */\n      address\n        /* \"Hook.sol\":6315:6360  IERC20(ERC20Address).balanceOf(address(this)) */\n      mload(0x40)\n      dup3\n      0xffffffff\n      and\n      0xe0\n      shl\n      dup2\n      mstore\n      0x04\n      add\n      tag_262\n      swap2\n      swap1\n      tag_40\n      jump\t// in\n    tag_262:\n      0x20\n      mload(0x40)\n      dup1\n      dup4\n      sub\n      dup2\n      dup7\n      gas\n      staticcall\n      iszero\n      dup1\n      iszero\n      tag_264\n      jumpi\n      returndatasize\n      0x00\n      dup1\n      returndatacopy\n      revert(0x00, returndatasize)\n    tag_264:\n      pop\n      pop\n      pop\n      pop\n      mload(0x40)\n      returndatasize\n      not(0x1f)\n      0x1f\n      dup3\n      add\n      and\n      dup3\n      add\n      dup1\n      0x40\n      mstore\n      pop\n      dup2\n      add\n      swap1\n      tag_265\n      swap2\n      swap1\n      tag_124\n      jump\t// in\n    tag_265:\n        /* \"Hook.sol\":6288:6360  uint currentERC20Balance = IERC20(ERC20Address).balanceOf(address(this)) */\n      swap1\n      pop\n        /* \"Hook.sol\":6443:6460  uint tokensToSend */\n      0x00\n        /* \"Hook.sol\":6519:6522  100 */\n      0x64\n        /* \"Hook.sol\":6513:6516  105 */\n      0x69\n        /* \"Hook.sol\":6463:6469  Oracle */\n      0x0a\n      0x00\n      swap1\n      sload\n      swap1\n      0x0100\n      exp\n      swap1\n      div\n      0xffffffffffffffffffffffffffffffffffffffff\n      and\n        /* \"Hook.sol\":6463:6483  Oracle.consultPrices */\n      0xffffffffffffffffffffffffffffffffffffffff\n      and\n      0x3ac35585\n        /* \"Hook.sol\":6484:6495  WethAddress */\n      0x00\n      dup1\n      sload\n      swap1\n      0x0100\n      exp\n      swap1\n      div\n      0xffffffffffffffffffffffffffffffffffffffff\n      and\n        /* \"Hook.sol\":6497:6510  _liquidityEth */\n      dup10\n        /* \"Hook.sol\":6463:6511  Oracle.consultPrices(WethAddress, _liquidityEth) */\n      mload(0x40)\n      dup4\n      0xffffffff\n      and\n      0xe0\n      shl\n      dup2\n      mstore\n      0x04\n      add\n      tag_266\n      swap3\n      swap2\n      swap1\n      tag_126\n      jump\t// in\n    tag_266:\n      0x20\n      mload(0x40)\n      dup1\n      dup4\n      sub\n      dup2\n      dup7\n      gas\n      staticcall\n      iszero\n      dup1\n      iszero\n      tag_268\n      jumpi\n      returndatasize\n      0x00\n      dup1\n      returndatacopy\n      revert(0x00, returndatasize)\n    tag_268:\n      pop\n      pop\n      pop\n      pop\n      mload(0x40)\n      returndatasize\n      not(0x1f)\n      0x1f\n      dup3\n      add\n      and\n      dup3\n      add\n      dup1\n      0x40\n      mstore\n      pop\n      dup2\n      add\n      swap1\n      tag_269\n      swap2\n      swap1\n      tag_124\n      jump\t// in\n    tag_269:\n        /* \"Hook.sol\":6463:6516  Oracle.consultPrices(WethAddress, _liquidityEth)* 105 */\n      tag_270\n      swap2\n      swap1\n      tag_141\n      jump\t// in\n    tag_270:\n        /* \"Hook.sol\":6463:6522  Oracle.consultPrices(WethAddress, _liquidityEth)* 105 / 100 */\n      tag_271\n      swap2\n      swap1\n      tag_143\n      jump\t// in\n    tag_271:\n        /* \"Hook.sol\":6443:6522  uint tokensToSend = Oracle.consultPrices(WethAddress, _liquidityEth)* 105 / 100 */\n      swap1\n      pop\n        /* \"Hook.sol\":6644:6663  currentERC20Balance */\n      dup2\n        /* \"Hook.sol\":6629:6641  tokensToSend */\n      dup2\n        /* \"Hook.sol\":6629:6663  tokensToSend > currentERC20Balance */\n      gt\n        /* \"Hook.sol\":6626:6849  if(tokensToSend > currentERC20Balance){... */\n      iszero\n      tag_272\n      jumpi\n        /* \"Hook.sol\":6687:6699  ERC20Address */\n      0x01\n      0x00\n      swap1\n      sload\n      swap1\n      0x0100\n      exp\n      swap1\n      div\n      0xffffffffffffffffffffffffffffffffffffffff\n      and\n        /* \"Hook.sol\":6678:6709  WethLike(ERC20Address).hookMint */\n      0xffffffffffffffffffffffffffffffffffffffff\n      and\n      0x96fe8349\n        /* \"Hook.sol\":6723:6742  currentERC20Balance */\n      dup4\n        /* \"Hook.sol\":6710:6722  tokensToSend */\n      dup4\n        /* \"Hook.sol\":6710:6742  tokensToSend-currentERC20Balance */\n      tag_273\n      swap2\n      swap1\n      tag_148\n      jump\t// in\n    tag_273:\n        /* \"Hook.sol\":6751:6755  this */\n      address\n        /* \"Hook.sol\":6678:6757  WethLike(ERC20Address).hookMint(tokensToSend-currentERC20Balance,address(this)) */\n      mload(0x40)\n      dup4\n      0xffffffff\n      and\n      0xe0\n      shl\n      dup2\n      mstore\n      0x04\n      add\n      tag_274\n      swap3\n      swap2\n      swap1\n      tag_150\n      jump\t// in\n    tag_274:\n      0x00\n      mload(0x40)\n      dup1\n      dup4\n      sub\n      dup2\n      0x00\n      dup8\n      dup1\n      extcodesize\n      iszero\n      dup1\n      iszero\n      tag_275\n      jumpi\n      0x00\n      dup1\n      revert\n    tag_275:\n      pop\n      gas\n      call\n      iszero\n      dup1\n      iszero\n      tag_277\n      jumpi\n      returndatasize\n      0x00\n      dup1\n      returndatacopy\n      revert(0x00, returndatasize)\n    tag_277:\n      pop\n      pop\n      pop\n      pop\n        /* \"Hook.sol\":6800:6812  ERC20Address */\n      0x01\n      0x00\n      swap1\n      sload\n      swap1\n      0x0100\n      exp\n      swap1\n      div\n      0xffffffffffffffffffffffffffffffffffffffff\n      and\n        /* \"Hook.sol\":6793:6823  IERC20(ERC20Address).balanceOf */\n      0xffffffffffffffffffffffffffffffffffffffff\n      and\n      0x70a08231\n        /* \"Hook.sol\":6832:6836  this */\n      address\n        /* \"Hook.sol\":6793:6838  IERC20(ERC20Address).balanceOf(address(this)) */\n      mload(0x40)\n      dup3\n      0xffffffff\n      and\n      0xe0\n      shl\n      dup2\n      mstore\n      0x04\n      add\n      tag_278\n      swap2\n      swap1\n      tag_40\n      jump\t// in\n    tag_278:\n      0x20\n      mload(0x40)\n      dup1\n      dup4\n      sub\n      dup2\n      dup7\n      gas\n      staticcall\n      iszero\n      dup1\n      iszero\n      tag_280\n      jumpi\n      returndatasize\n      0x00\n      dup1\n      returndatacopy\n      revert(0x00, returndatasize)\n    tag_280:\n      pop\n      pop\n      pop\n      pop\n      mload(0x40)\n      returndatasize\n      not(0x1f)\n      0x1f\n      dup3\n      add\n      and\n      dup3\n      add\n      dup1\n      0x40\n      mstore\n      pop\n      dup2\n      add\n      swap1\n      tag_281\n      swap2\n      swap1\n      tag_124\n      jump\t// in\n    tag_281:\n        /* \"Hook.sol\":6771:6838  currentERC20Balance = IERC20(ERC20Address).balanceOf(address(this)) */\n      swap2\n      pop\n        /* \"Hook.sol\":6626:6849  if(tokensToSend > currentERC20Balance){... */\n    tag_272:\n        /* \"Hook.sol\":6921:6934  UniswapRouter */\n      0x0b\n      0x00\n      swap1\n      sload\n      swap1\n      0x0100\n      exp\n      swap1\n      div\n      0xffffffffffffffffffffffffffffffffffffffff\n      and\n        /* \"Hook.sol\":6921:6950  UniswapRouter.addLiquidityETH */\n      0xffffffffffffffffffffffffffffffffffffffff\n      and\n      0xf305d719\n        /* \"Hook.sol\":6959:6972  _liquidityEth */\n      dup7\n        /* \"Hook.sol\":6983:6987  this */\n      address\n        /* \"Hook.sol\":6990:7002  tokensToSend */\n      dup5\n        /* \"Hook.sol\":7004:7005  0 */\n      0x00\n        /* \"Hook.sol\":7028:7031  100 */\n      0x64\n        /* \"Hook.sol\":7024:7026  95 */\n      0x5f\n        /* \"Hook.sol\":7008:7021  _liquidityEth */\n      dup13\n        /* \"Hook.sol\":7008:7026  _liquidityEth * 95 */\n      tag_282\n      swap2\n      swap1\n      tag_141\n      jump\t// in\n    tag_282:\n        /* \"Hook.sol\":7007:7031  (_liquidityEth * 95)/100 */\n      tag_283\n      swap2\n      swap1\n      tag_143\n      jump\t// in\n    tag_283:\n        /* \"Hook.sol\":7041:7045  this */\n      address\n        /* \"Hook.sol\":7048:7062  type(uint).max */\n      0xffffffffffffffffffffffffffffffffffffffffffffffffffffffffffffffff\n        /* \"Hook.sol\":6921:7063  UniswapRouter.addLiquidityETH {value: _liquidityEth} (address(this), tokensToSend, 0, (_liquidityEth * 95)/100, address(this), type(uint).max) */\n      mload(0x40)\n      dup9\n      0xffffffff\n      and\n      0xe0\n      shl\n      dup2\n      mstore\n      0x04\n      add\n      tag_284\n      swap7\n      swap6\n      swap5\n      swap4\n      swap3\n      swap2\n      swap1\n      tag_165\n      jump\t// in\n    tag_284:\n      0x60\n      mload(0x40)\n      dup1\n      dup4\n      sub\n      dup2\n      dup6\n      dup9\n      gas\n      call\n      swap4\n      pop\n      pop\n      pop\n      pop\n      dup1\n      iszero\n      tag_285\n      jumpi\n      pop\n      mload(0x40)\n      returndatasize\n      not(0x1f)\n      0x1f\n      dup3\n      add\n      and\n      dup3\n      add\n      dup1\n      0x40\n      mstore\n      pop\n      dup2\n      add\n      swap1\n      tag_286\n      swap2\n      swap1\n      tag_168\n      jump\t// in\n    tag_286:\n      0x01\n    tag_285:\n        /* \"Hook.sol\":6917:7320  try UniswapRouter.addLiquidityETH {value: _liquidityEth} (address(this), tokensToSend, 0, (_liquidityEth * 95)/100, address(this), type(uint).max)... */\n      tag_287\n      jumpi\n        /* \"Hook.sol\":7280:7309  Log(\"Liquidity Not Provided\") */\n      0xcf34ef537ac33ee1ac626ca1587a0a7e8e51561e5514f8cb36afa1c5102b3bab\n      mload(0x40)\n      tag_291\n      swap1\n      tag_174\n      jump\t// in\n    tag_291:\n      mload(0x40)\n      dup1\n      swap2\n      sub\n      swap1\n      log1\n        /* \"Hook.sol\":6917:7320  try UniswapRouter.addLiquidityETH {value: _liquidityEth} (address(this), tokensToSend, 0, (_liquidityEth * 95)/100, address(this), type(uint).max)... */\n      jump(tag_292)\n    tag_287:\n      pop\n      pop\n      pop\n        /* \"Hook.sol\":7091:7129  Log(\"liquidity Successfully Provided\") */\n      0xcf34ef537ac33ee1ac626ca1587a0a7e8e51561e5514f8cb36afa1c5102b3bab\n      mload(0x40)\n      tag_293\n      swap1\n      tag_177\n      jump\t// in\n    tag_293:\n      mload(0x40)\n      dup1\n      swap2\n      sub\n      swap1\n      log1\n        /* \"Hook.sol\":7197:7209  ERC20Address */\n      0x01\n      0x00\n      swap1\n      sload\n      swap1\n      0x0100\n      exp\n      swap1\n      div\n      0xffffffffffffffffffffffffffffffffffffffff\n      and\n        /* \"Hook.sol\":7190:7220  IERC20(ERC20Address).balanceOf */\n      0xffffffffffffffffffffffffffffffffffffffff\n      and\n      0x70a08231\n        /* \"Hook.sol\":7229:7233  this */\n      address\n        /* \"Hook.sol\":7190:7235  IERC20(ERC20Address).balanceOf(address(this)) */\n      mload(0x40)\n      dup3\n      0xffffffff\n      and\n      0xe0\n      shl\n      dup2\n      mstore\n      0x04\n      add\n      tag_294\n      swap2\n      swap1\n      tag_40\n      jump\t// in\n    tag_294:\n      0x20\n      mload(0x40)\n      dup1\n      dup4\n      sub\n      dup2\n      dup7\n      gas\n      staticcall\n      iszero\n      dup1\n      iszero\n      tag_296\n      jumpi\n      returndatasize\n      0x00\n      dup1\n      returndatacopy\n      revert(0x00, returndatasize)\n    tag_296:\n      pop\n      pop\n      pop\n      pop\n      mload(0x40)\n      returndatasize\n      not(0x1f)\n      0x1f\n      dup3\n      add\n      and\n      dup3\n      add\n      dup1\n      0x40\n      mstore\n      pop\n      dup2\n      add\n      swap1\n      tag_297\n      swap2\n      swap1\n      tag_124\n      jump\t// in\n    tag_297:\n        /* \"Hook.sol\":7168:7187  currentERC20Balance */\n      dup3\n        /* \"Hook.sol\":7168:7235  currentERC20Balance - IERC20(ERC20Address).balanceOf(address(this)) */\n      tag_298\n      swap2\n      swap1\n      tag_148\n      jump\t// in\n    tag_298:\n        /* \"Hook.sol\":7143:7235  ERC20LiquidityProvided = currentERC20Balance - IERC20(ERC20Address).balanceOf(address(this)) */\n      swap3\n      pop\n        /* \"Hook.sol\":6917:7320  try UniswapRouter.addLiquidityETH {value: _liquidityEth} (address(this), tokensToSend, 0, (_liquidityEth * 95)/100, address(this), type(uint).max)... */\n    tag_292:\n        /* \"Hook.sol\":7337:7359  ERC20LiquidityProvided */\n      dup3\n        /* \"Hook.sol\":7329:7360  return (ERC20LiquidityProvided) */\n      swap4\n      pop\n      pop\n      pop\n      pop\n        /* \"Hook.sol\":6093:7367  function provideLiquidity(uint _liquidityEth) internal returns (uint){... */\n      swap2\n      swap1\n      pop\n      jump\t// out\n        /* \"Hook.sol\":8759:9450  function erc20ToPreviousHolder(address previousHolder) internal{... */\n    tag_222:\n        /* \"Hook.sol\":8832:8846  uint ethAmount */\n      0x00\n        /* \"Hook.sol\":8849:8870  transactionFromPOAPId */\n      0x0c\n        /* \"Hook.sol\":8849:8890  transactionFromPOAPId[POAPIds.length - 1] */\n      0x00\n        /* \"Hook.sol\":8888:8889  1 */\n      0x01\n        /* \"Hook.sol\":8871:8878  POAPIds */\n      0x0d\n        /* \"Hook.sol\":8871:8885  POAPIds.length */\n      dup1\n      sload\n      swap1\n      pop\n        /* \"Hook.sol\":8871:8889  POAPIds.length - 1 */\n      tag_300\n      swap2\n      swap1\n      tag_148\n      jump\t// in\n    tag_300:\n        /* \"Hook.sol\":8849:8890  transactionFromPOAPId[POAPIds.length - 1] */\n      dup2\n      mstore\n      0x20\n      add\n      swap1\n      dup2\n      mstore\n      0x20\n      add\n      0x00\n      keccak256\n        /* \"Hook.sol\":8849:8902  transactionFromPOAPId[POAPIds.length - 1].receivedEth */\n      0x02\n      add\n      sload\n        /* \"Hook.sol\":8832:8902  uint ethAmount = transactionFromPOAPId[POAPIds.length - 1].receivedEth */\n      swap1\n      pop\n        /* \"Hook.sol\":8928:8929  0 */\n      0x00\n        /* \"Hook.sol\":8915:8924  ethAmount */\n      dup2\n        /* \"Hook.sol\":8915:8929  ethAmount == 0 */\n      sub\n        /* \"Hook.sol\":8912:9444  if(ethAmount == 0){}else{... */\n      iszero\n      tag_302\n      jumpi\n        /* \"Hook.sol\":8955:8961  Oracle */\n      0x0a\n      0x00\n      swap1\n      sload\n      swap1\n      0x0100\n      exp\n      swap1\n      div\n      0xffffffffffffffffffffffffffffffffffffffff\n      and\n        /* \"Hook.sol\":8955:8975  Oracle.consultPrices */\n      0xffffffffffffffffffffffffffffffffffffffff\n      and\n      0x3ac35585\n        /* \"Hook.sol\":8976:8987  WethAddress */\n      0x00\n      dup1\n      sload\n      swap1\n      0x0100\n      exp\n      swap1\n      div\n      0xffffffffffffffffffffffffffffffffffffffff\n      and\n        /* \"Hook.sol\":8988:8997  ethAmount */\n      dup4\n        /* \"Hook.sol\":8955:8998  Oracle.consultPrices(WethAddress,ethAmount) */\n      mload(0x40)\n      dup4\n      0xffffffff\n      and\n      0xe0\n      shl\n      dup2\n      mstore\n      0x04\n      add\n      tag_303\n      swap3\n      swap2\n      swap1\n      tag_126\n      jump\t// in\n    tag_303:\n      0x20\n      mload(0x40)\n      dup1\n      dup4\n      sub\n      dup2\n      dup7\n      gas\n      staticcall\n      swap3\n      pop\n      pop\n      pop\n      dup1\n      iszero\n      tag_304\n      jumpi\n      pop\n      mload(0x40)\n      returndatasize\n      not(0x1f)\n      0x1f\n      dup3\n      add\n      and\n      dup3\n      add\n      dup1\n      0x40\n      mstore\n      pop\n      dup2\n      add\n      swap1\n      tag_305\n      swap2\n      swap1\n      tag_124\n      jump\t// in\n    tag_305:\n      0x01\n    tag_304:\n        /* \"Hook.sol\":8950:9434  try  Oracle.consultPrices(WethAddress,ethAmount){... */\n      tag_306\n      jumpi\n        /* \"Hook.sol\":9382:9419  Log ('price cant be got from Oracle') */\n      0xcf34ef537ac33ee1ac626ca1587a0a7e8e51561e5514f8cb36afa1c5102b3bab\n      mload(0x40)\n      tag_310\n      swap1\n      tag_311\n      jump\t// in\n    tag_310:\n      mload(0x40)\n      dup1\n      swap2\n      sub\n      swap1\n      log1\n        /* \"Hook.sol\":8950:9434  try  Oracle.consultPrices(WethAddress,ethAmount){... */\n      jump(tag_312)\n    tag_306:\n      pop\n        /* \"Hook.sol\":9020:9037  uint amountToMint */\n      0x00\n        /* \"Hook.sol\":9038:9044  Oracle */\n      0x0a\n      0x00\n      swap1\n      sload\n      swap1\n      0x0100\n      exp\n      swap1\n      div\n      0xffffffffffffffffffffffffffffffffffffffff\n      and\n        /* \"Hook.sol\":9038:9058  Oracle.consultPrices */\n      0xffffffffffffffffffffffffffffffffffffffff\n      and\n      0x3ac35585\n        /* \"Hook.sol\":9059:9070  WethAddress */\n      0x00\n      dup1\n      sload\n      swap1\n      0x0100\n      exp\n      swap1\n      div\n      0xffffffffffffffffffffffffffffffffffffffff\n      and\n        /* \"Hook.sol\":9071:9080  ethAmount */\n      dup5\n        /* \"Hook.sol\":9038:9081  Oracle.consultPrices(WethAddress,ethAmount) */\n      mload(0x40)\n      dup4\n      0xffffffff\n      and\n      0xe0\n      shl\n      dup2\n      mstore\n      0x04\n      add\n      tag_313\n      swap3\n      swap2\n      swap1\n      tag_126\n      jump\t// in\n    tag_313:\n      0x20\n      mload(0x40)\n      dup1\n      dup4\n      sub\n      dup2\n      dup7\n      gas\n      staticcall\n      iszero\n      dup1\n      iszero\n      tag_315\n      jumpi\n      returndatasize\n      0x00\n      dup1\n      returndatacopy\n      revert(0x00, returndatasize)\n    tag_315:\n      pop\n      pop\n      pop\n      pop\n      mload(0x40)\n      returndatasize\n      not(0x1f)\n      0x1f\n      dup3\n      add\n      and\n      dup3\n      add\n      dup1\n      0x40\n      mstore\n      pop\n      dup2\n      add\n      swap1\n      tag_316\n      swap2\n      swap1\n      tag_124\n      jump\t// in\n    tag_316:\n        /* \"Hook.sol\":9020:9081  uint amountToMint=Oracle.consultPrices(WethAddress,ethAmount) */\n      swap1\n      pop\n        /* \"Hook.sol\":9116:9128  ERC20Address */\n      0x01\n      0x00\n      swap1\n      sload\n      swap1\n      0x0100\n      exp\n      swap1\n      div\n      0xffffffffffffffffffffffffffffffffffffffff\n      and\n        /* \"Hook.sol\":9107:9138  WethLike(ERC20Address).hookMint */\n      0xffffffffffffffffffffffffffffffffffffffff\n      and\n      0x96fe8349\n        /* \"Hook.sol\":9139:9151  amountToMint */\n      dup3\n        /* \"Hook.sol\":9152:9166  previousHolder */\n      dup6\n        /* \"Hook.sol\":9107:9167  WethLike(ERC20Address).hookMint(amountToMint,previousHolder) */\n      mload(0x40)\n      dup4\n      0xffffffff\n      and\n      0xe0\n      shl\n      dup2\n      mstore\n      0x04\n      add\n      tag_317\n      swap3\n      swap2\n      swap1\n      tag_150\n      jump\t// in\n    tag_317:\n      0x00\n      mload(0x40)\n      dup1\n      dup4\n      sub\n      dup2\n      0x00\n      dup8\n      dup1\n      extcodesize\n      iszero\n      dup1\n      iszero\n      tag_318\n      jumpi\n      0x00\n      dup1\n      revert\n    tag_318:\n      pop\n      gas\n      call\n      swap3\n      pop\n      pop\n      pop\n      dup1\n      iszero\n      tag_319\n      jumpi\n      pop\n      0x01\n    tag_319:\n        /* \"Hook.sol\":9103:9340  try WethLike(ERC20Address).hookMint(amountToMint,previousHolder){... */\n      tag_320\n      jumpi\n        /* \"Hook.sol\":9293:9338  Log('price got from Oracle but couldnt mint') */\n      0xcf34ef537ac33ee1ac626ca1587a0a7e8e51561e5514f8cb36afa1c5102b3bab\n      mload(0x40)\n      tag_324\n      swap1\n      tag_325\n      jump\t// in\n    tag_324:\n      mload(0x40)\n      dup1\n      swap2\n      sub\n      swap1\n      log1\n        /* \"Hook.sol\":9103:9340  try WethLike(ERC20Address).hookMint(amountToMint,previousHolder){... */\n      jump(tag_326)\n    tag_320:\n        /* \"Hook.sol\":9198:9237  Log('tokens minted to previous holder') */\n      0xcf34ef537ac33ee1ac626ca1587a0a7e8e51561e5514f8cb36afa1c5102b3bab\n      mload(0x40)\n      tag_327\n      swap1\n      tag_328\n      jump\t// in\n    tag_327:\n      mload(0x40)\n      dup1\n      swap2\n      sub\n      swap1\n      log1\n        /* \"Hook.sol\":9103:9340  try WethLike(ERC20Address).hookMint(amountToMint,previousHolder){... */\n    tag_326:\n        /* \"Hook.sol\":8998:9341  {... */\n      pop\n        /* \"Hook.sol\":8950:9434  try  Oracle.consultPrices(WethAddress,ethAmount){... */\n    tag_312:\n        /* \"Hook.sol\":8912:9444  if(ethAmount == 0){}else{... */\n    tag_302:\n        /* \"Hook.sol\":8822:9450  {... */\n      pop\n        /* \"Hook.sol\":8759:9450  function erc20ToPreviousHolder(address previousHolder) internal{... */\n      pop\n      jump\t// out\n        /* \"Hook.sol\":7428:8478  function buyTokens(uint _buyEth) internal returns (uint){... */\n    tag_248:\n        /* \"Hook.sol\":7479:7483  uint */\n      0x00\n        /* \"Hook.sol\":7494:7518  uint initialTokenbalance */\n      dup1\n        /* \"Hook.sol\":7528:7552  uint numberOfTokensToBuy */\n      0x00\n        /* \"Hook.sol\":7573:7585  ERC20Address */\n      0x01\n      0x00\n      swap1\n      sload\n      swap1\n      0x0100\n      exp\n      swap1\n      div\n      0xffffffffffffffffffffffffffffffffffffffff\n      and\n        /* \"Hook.sol\":7566:7596  IERC20(ERC20Address).balanceOf */\n      0xffffffffffffffffffffffffffffffffffffffff\n      and\n      0x70a08231\n        /* \"Hook.sol\":7605:7609  this */\n      address\n        /* \"Hook.sol\":7566:7611  IERC20(ERC20Address).balanceOf(address(this)) */\n      mload(0x40)\n      dup3\n      0xffffffff\n      and\n      0xe0\n      shl\n      dup2\n      mstore\n      0x04\n      add\n      tag_330\n      swap2\n      swap1\n      tag_40\n      jump\t// in\n    tag_330:\n      0x20\n      mload(0x40)\n      dup1\n      dup4\n      sub\n      dup2\n      dup7\n      gas\n      staticcall\n      swap3\n      pop\n      pop\n      pop\n      dup1\n      iszero\n      tag_331\n      jumpi\n      pop\n      mload(0x40)\n      returndatasize\n      not(0x1f)\n      0x1f\n      dup3\n      add\n      and\n      dup3\n      add\n      dup1\n      0x40\n      mstore\n      pop\n      dup2\n      add\n      swap1\n      tag_332\n      swap2\n      swap1\n      tag_124\n      jump\t// in\n    tag_332:\n      0x01\n    tag_331:\n        /* \"Hook.sol\":7562:7785  try IERC20(ERC20Address).balanceOf(address(this)) {... */\n      tag_333\n      jumpi\n        /* \"Hook.sol\":7734:7774  Log('cant get balance of this contract') */\n      0xcf34ef537ac33ee1ac626ca1587a0a7e8e51561e5514f8cb36afa1c5102b3bab\n      mload(0x40)\n      tag_337\n      swap1\n      tag_338\n      jump\t// in\n    tag_337:\n      mload(0x40)\n      dup1\n      swap2\n      sub\n      swap1\n      log1\n        /* \"Hook.sol\":7562:7785  try IERC20(ERC20Address).balanceOf(address(this)) {... */\n      jump(tag_339)\n    tag_333:\n      pop\n        /* \"Hook.sol\":7651:7663  ERC20Address */\n      0x01\n      0x00\n      swap1\n      sload\n      swap1\n      0x0100\n      exp\n      swap1\n      div\n      0xffffffffffffffffffffffffffffffffffffffff\n      and\n        /* \"Hook.sol\":7644:7674  IERC20(ERC20Address).balanceOf */\n      0xffffffffffffffffffffffffffffffffffffffff\n      and\n      0x70a08231\n        /* \"Hook.sol\":7683:7687  this */\n      address\n        /* \"Hook.sol\":7644:7689  IERC20(ERC20Address).balanceOf(address(this)) */\n      mload(0x40)\n      dup3\n      0xffffffff\n      and\n      0xe0\n      shl\n      dup2\n      mstore\n      0x04\n      add\n      tag_340\n      swap2\n      swap1\n      tag_40\n      jump\t// in\n    tag_340:\n      0x20\n      mload(0x40)\n      dup1\n      dup4\n      sub\n      dup2\n      dup7\n      gas\n      staticcall\n      iszero\n      dup1\n      iszero\n      tag_342\n      jumpi\n      returndatasize\n      0x00\n      dup1\n      returndatacopy\n      revert(0x00, returndatasize)\n    tag_342:\n      pop\n      pop\n      pop\n      pop\n      mload(0x40)\n      returndatasize\n      not(0x1f)\n      0x1f\n      dup3\n      add\n      and\n      dup3\n      add\n      dup1\n      0x40\n      mstore\n      pop\n      dup2\n      add\n      swap1\n      tag_343\n      swap2\n      swap1\n      tag_124\n      jump\t// in\n    tag_343:\n        /* \"Hook.sol\":7622:7689  initialTokenbalance = IERC20(ERC20Address).balanceOf(address(this)) */\n      swap2\n      pop\n        /* \"Hook.sol\":7562:7785  try IERC20(ERC20Address).balanceOf(address(this)) {... */\n    tag_339:\n        /* \"Hook.sol\":7798:7804  Oracle */\n      0x0a\n      0x00\n      swap1\n      sload\n      swap1\n      0x0100\n      exp\n      swap1\n      div\n      0xffffffffffffffffffffffffffffffffffffffff\n      and\n        /* \"Hook.sol\":7798:7818  Oracle.consultPrices */\n      0xffffffffffffffffffffffffffffffffffffffff\n      and\n      0x3ac35585\n        /* \"Hook.sol\":7819:7830  WethAddress */\n      0x00\n      dup1\n      sload\n      swap1\n      0x0100\n      exp\n      swap1\n      div\n      0xffffffffffffffffffffffffffffffffffffffff\n      and\n        /* \"Hook.sol\":7832:7839  _buyEth */\n      dup7\n        /* \"Hook.sol\":7798:7840  Oracle.consultPrices(WethAddress, _buyEth) */\n      mload(0x40)\n      dup4\n      0xffffffff\n      and\n      0xe0\n      shl\n      dup2\n      mstore\n      0x04\n      add\n      tag_344\n      swap3\n      swap2\n      swap1\n      tag_126\n      jump\t// in\n    tag_344:\n      0x20\n      mload(0x40)\n      dup1\n      dup4\n      sub\n      dup2\n      dup7\n      gas\n      staticcall\n      swap3\n      pop\n      pop\n      pop\n      dup1\n      iszero\n      tag_345\n      jumpi\n      pop\n      mload(0x40)\n      returndatasize\n      not(0x1f)\n      0x1f\n      dup3\n      add\n      and\n      dup3\n      add\n      dup1\n      0x40\n      mstore\n      pop\n      dup2\n      add\n      swap1\n      tag_346\n      swap2\n      swap1\n      tag_124\n      jump\t// in\n    tag_346:\n      0x01\n    tag_345:\n        /* \"Hook.sol\":7794:8093  try Oracle.consultPrices(WethAddress, _buyEth) {... */\n      tag_347\n      jumpi\n        /* \"Hook.sol\":8049:8082  Log('cant get price from Oracle') */\n      0xcf34ef537ac33ee1ac626ca1587a0a7e8e51561e5514f8cb36afa1c5102b3bab\n      mload(0x40)\n      tag_351\n      swap1\n      tag_352\n      jump\t// in\n    tag_351:\n      mload(0x40)\n      dup1\n      swap2\n      sub\n      swap1\n      log1\n        /* \"Hook.sol\":7794:8093  try Oracle.consultPrices(WethAddress, _buyEth) {... */\n      jump(tag_353)\n    tag_347:\n      pop\n        /* \"Hook.sol\":7873:7879  Oracle */\n      0x0a\n      0x00\n      swap1\n      sload\n      swap1\n      0x0100\n      exp\n      swap1\n      div\n      0xffffffffffffffffffffffffffffffffffffffff\n      and\n        /* \"Hook.sol\":7873:7893  Oracle.consultPrices */\n      0xffffffffffffffffffffffffffffffffffffffff\n      and\n      0x3ac35585\n        /* \"Hook.sol\":7894:7905  WethAddress */\n      0x00\n      dup1\n      sload\n      swap1\n      0x0100\n      exp\n      swap1\n      div\n      0xffffffffffffffffffffffffffffffffffffffff\n      and\n        /* \"Hook.sol\":7907:7914  _buyEth */\n      dup7\n        /* \"Hook.sol\":7873:7915  Oracle.consultPrices(WethAddress, _buyEth) */\n      mload(0x40)\n      dup4\n      0xffffffff\n      and\n      0xe0\n      shl\n      dup2\n      mstore\n      0x04\n      add\n      tag_354\n      swap3\n      swap2\n      swap1\n      tag_126\n      jump\t// in\n    tag_354:\n      0x20\n      mload(0x40)\n      dup1\n      dup4\n      sub\n      dup2\n      dup7\n      gas\n      staticcall\n      iszero\n      dup1\n      iszero\n      tag_356\n      jumpi\n      returndatasize\n      0x00\n      dup1\n      returndatacopy\n      revert(0x00, returndatasize)\n    tag_356:\n      pop\n      pop\n      pop\n      pop\n      mload(0x40)\n      returndatasize\n      not(0x1f)\n      0x1f\n      dup3\n      add\n      and\n      dup3\n      add\n      dup1\n      0x40\n      mstore\n      pop\n      dup2\n      add\n      swap1\n      tag_357\n      swap2\n      swap1\n      tag_124\n      jump\t// in\n    tag_357:\n        /* \"Hook.sol\":7851:7915  numberOfTokensToBuy = Oracle.consultPrices(WethAddress, _buyEth) */\n      swap1\n      pop\n        /* \"Hook.sol\":7930:7964  Log ('number of Tokens to Buy is') */\n      0xcf34ef537ac33ee1ac626ca1587a0a7e8e51561e5514f8cb36afa1c5102b3bab\n      mload(0x40)\n      tag_358\n      swap1\n      tag_359\n      jump\t// in\n    tag_358:\n      mload(0x40)\n      dup1\n      swap2\n      sub\n      swap1\n      log1\n        /* \"Hook.sol\":7979:8004  Log (numberOfTokensToBuy) */\n      0x909c57d5c6ac08245cf2a6de3900e2b868513fa59099b92b27d8db823d92df9c\n        /* \"Hook.sol\":7984:8003  numberOfTokensToBuy */\n      dup2\n        /* \"Hook.sol\":7979:8004  Log (numberOfTokensToBuy) */\n      mload(0x40)\n      tag_360\n      swap2\n      swap1\n      tag_52\n      jump\t// in\n    tag_360:\n      mload(0x40)\n      dup1\n      swap2\n      sub\n      swap1\n      log1\n        /* \"Hook.sol\":7794:8093  try Oracle.consultPrices(WethAddress, _buyEth) {... */\n    tag_353:\n        /* \"Hook.sol\":8103:8120  uint amountOutMin */\n      0x00\n        /* \"Hook.sol\":8171:8184  UniswapRouter */\n      0x0b\n      0x00\n      swap1\n      sload\n      swap1\n      0x0100\n      exp\n      swap1\n      div\n      0xffffffffffffffffffffffffffffffffffffffff\n      and\n        /* \"Hook.sol\":8171:8206  UniswapRouter.swapExactETHForTokens */\n      0xffffffffffffffffffffffffffffffffffffffff\n      and\n      0x7ff36ab5\n        /* \"Hook.sol\":8214:8221  _buyEth */\n      dup7\n        /* \"Hook.sol\":8223:8235  amountOutMin */\n      dup4\n        /* \"Hook.sol\":8237:8241  path */\n      0x07\n        /* \"Hook.sol\":8243:8253  msg.sender */\n      caller\n        /* \"Hook.sol\":8255:8269  type(uint).max */\n      0xffffffffffffffffffffffffffffffffffffffffffffffffffffffffffffffff\n        /* \"Hook.sol\":8171:8270  UniswapRouter.swapExactETHForTokens{value: _buyEth}(amountOutMin, path, msg.sender, type(uint).max) */\n      mload(0x40)\n      dup7\n      0xffffffff\n      and\n      0xe0\n      shl\n      dup2\n      mstore\n      0x04\n      add\n      tag_361\n      swap5\n      swap4\n      swap3\n      swap2\n      swap1\n      tag_362\n      jump\t// in\n    tag_361:\n      0x00\n      mload(0x40)\n      dup1\n      dup4\n      sub\n      dup2\n      dup6\n      dup9\n      gas\n      call\n      swap4\n      pop\n      pop\n      pop\n      pop\n      dup1\n      iszero\n      tag_363\n      jumpi\n      pop\n      mload(0x40)\n      returndatasize\n      0x00\n      dup3\n      returndatacopy\n      returndatasize\n      not(0x1f)\n      0x1f\n      dup3\n      add\n      and\n      dup3\n      add\n      dup1\n      0x40\n      mstore\n      pop\n      dup2\n      add\n      swap1\n      tag_364\n      swap2\n      swap1\n      tag_365\n      jump\t// in\n    tag_364:\n      0x01\n    tag_363:\n        /* \"Hook.sol\":8167:8376  try UniswapRouter.swapExactETHForTokens{value: _buyEth}(amountOutMin, path, msg.sender, type(uint).max)... */\n      tag_366\n      jumpi\n        /* \"Hook.sol\":8341:8365  Log(\"tokens not bought\") */\n      0xcf34ef537ac33ee1ac626ca1587a0a7e8e51561e5514f8cb36afa1c5102b3bab\n      mload(0x40)\n      tag_370\n      swap1\n      tag_371\n      jump\t// in\n    tag_370:\n      mload(0x40)\n      dup1\n      swap2\n      sub\n      swap1\n      log1\n        /* \"Hook.sol\":8167:8376  try UniswapRouter.swapExactETHForTokens{value: _buyEth}(amountOutMin, path, msg.sender, type(uint).max)... */\n      jump(tag_372)\n    tag_366:\n      pop\n        /* \"Hook.sol\":8286:8306  Log(\"tokens bought\") */\n      0xcf34ef537ac33ee1ac626ca1587a0a7e8e51561e5514f8cb36afa1c5102b3bab\n      mload(0x40)\n      tag_373\n      swap1\n      tag_374\n      jump\t// in\n    tag_373:\n      mload(0x40)\n      dup1\n      swap2\n      sub\n      swap1\n      log1\n        /* \"Hook.sol\":8167:8376  try UniswapRouter.swapExactETHForTokens{value: _buyEth}(amountOutMin, path, msg.sender, type(uint).max)... */\n    tag_372:\n        /* \"Hook.sol\":8442:8461  initialTokenbalance */\n      dup3\n        /* \"Hook.sol\":8401:8413  ERC20Address */\n      0x01\n      0x00\n      swap1\n      sload\n      swap1\n      0x0100\n      exp\n      swap1\n      div\n      0xffffffffffffffffffffffffffffffffffffffff\n      and\n        /* \"Hook.sol\":8394:8424  IERC20(ERC20Address).balanceOf */\n      0xffffffffffffffffffffffffffffffffffffffff\n      and\n      0x70a08231\n        /* \"Hook.sol\":8433:8437  this */\n      address\n        /* \"Hook.sol\":8394:8439  IERC20(ERC20Address).balanceOf(address(this)) */\n      mload(0x40)\n      dup3\n      0xffffffff\n      and\n      0xe0\n      shl\n      dup2\n      mstore\n      0x04\n      add\n      tag_375\n      swap2\n      swap1\n      tag_40\n      jump\t// in\n    tag_375:\n      0x20\n      mload(0x40)\n      dup1\n      dup4\n      sub\n      dup2\n      dup7\n      gas\n      staticcall\n      iszero\n      dup1\n      iszero\n      tag_377\n      jumpi\n      returndatasize\n      0x00\n      dup1\n      returndatacopy\n      revert(0x00, returndatasize)\n    tag_377:\n      pop\n      pop\n      pop\n      pop\n      mload(0x40)\n      returndatasize\n      not(0x1f)\n      0x1f\n      dup3\n      add\n      and\n      dup3\n      add\n      dup1\n      0x40\n      mstore\n      pop\n      dup2\n      add\n      swap1\n      tag_378\n      swap2\n      swap1\n      tag_124\n      jump\t// in\n    tag_378:\n        /* \"Hook.sol\":8394:8461  IERC20(ERC20Address).balanceOf(address(this)) - initialTokenbalance */\n      tag_379\n      swap2\n      swap1\n      tag_148\n      jump\t// in\n    tag_379:\n        /* \"Hook.sol\":8387:8461  return IERC20(ERC20Address).balanceOf(address(this)) - initialTokenbalance */\n      swap4\n      pop\n      pop\n      pop\n      pop\n        /* \"Hook.sol\":7428:8478  function buyTokens(uint _buyEth) internal returns (uint){... */\n      swap2\n      swap1\n      pop\n      jump\t// out\n        /* \"#utility.yul\":7:82   */\n    tag_380:\n        /* \"#utility.yul\":40:46   */\n      0x00\n        /* \"#utility.yul\":73:75   */\n      0x40\n        /* \"#utility.yul\":67:76   */\n      mload\n        /* \"#utility.yul\":57:76   */\n      swap1\n      pop\n        /* \"#utility.yul\":7:82   */\n      swap1\n      jump\t// out\n        /* \"#utility.yul\":88:205   */\n    tag_381:\n        /* \"#utility.yul\":197:198   */\n      0x00\n        /* \"#utility.yul\":194:195   */\n      dup1\n        /* \"#utility.yul\":187:199   */\n      revert\n        /* \"#utility.yul\":211:328   */\n    tag_382:\n        /* \"#utility.yul\":320:321   */\n      0x00\n        /* \"#utility.yul\":317:318   */\n      dup1\n        /* \"#utility.yul\":310:322   */\n      revert\n        /* \"#utility.yul\":334:460   */\n    tag_383:\n        /* \"#utility.yul\":371:378   */\n      0x00\n        /* \"#utility.yul\":411:453   */\n      0xffffffffffffffffffffffffffffffffffffffff\n        /* \"#utility.yul\":404:409   */\n      dup3\n        /* \"#utility.yul\":400:454   */\n      and\n        /* \"#utility.yul\":389:454   */\n      swap1\n      pop\n        /* \"#utility.yul\":334:460   */\n      swap2\n      swap1\n      pop\n      jump\t// out\n        /* \"#utility.yul\":466:562   */\n    tag_384:\n        /* \"#utility.yul\":503:510   */\n      0x00\n        /* \"#utility.yul\":532:556   */\n      tag_461\n        /* \"#utility.yul\":550:555   */\n      dup3\n        /* \"#utility.yul\":532:556   */\n      tag_383\n      jump\t// in\n    tag_461:\n        /* \"#utility.yul\":521:556   */\n      swap1\n      pop\n        /* \"#utility.yul\":466:562   */\n      swap2\n      swap1\n      pop\n      jump\t// out\n        /* \"#utility.yul\":568:690   */\n    tag_385:\n        /* \"#utility.yul\":641:665   */\n      tag_463\n        /* \"#utility.yul\":659:664   */\n      dup2\n        /* \"#utility.yul\":641:665   */\n      tag_384\n      jump\t// in\n    tag_463:\n        /* \"#utility.yul\":634:639   */\n      dup2\n        /* \"#utility.yul\":631:666   */\n      eq\n        /* \"#utility.yul\":621:684   */\n      tag_464\n      jumpi\n        /* \"#utility.yul\":680:681   */\n      0x00\n        /* \"#utility.yul\":677:678   */\n      dup1\n        /* \"#utility.yul\":670:682   */\n      revert\n        /* \"#utility.yul\":621:684   */\n    tag_464:\n        /* \"#utility.yul\":568:690   */\n      pop\n      jump\t// out\n        /* \"#utility.yul\":696:835   */\n    tag_386:\n        /* \"#utility.yul\":742:747   */\n      0x00\n        /* \"#utility.yul\":780:786   */\n      dup2\n        /* \"#utility.yul\":767:787   */\n      calldataload\n        /* \"#utility.yul\":758:787   */\n      swap1\n      pop\n        /* \"#utility.yul\":796:829   */\n      tag_466\n        /* \"#utility.yul\":823:828   */\n      dup2\n        /* \"#utility.yul\":796:829   */\n      tag_385\n      jump\t// in\n    tag_466:\n        /* \"#utility.yul\":696:835   */\n      swap3\n      swap2\n      pop\n      pop\n      jump\t// out\n        /* \"#utility.yul\":841:1170   */\n    tag_30:\n        /* \"#utility.yul\":900:906   */\n      0x00\n        /* \"#utility.yul\":949:951   */\n      0x20\n        /* \"#utility.yul\":937:946   */\n      dup3\n        /* \"#utility.yul\":928:935   */\n      dup5\n        /* \"#utility.yul\":924:947   */\n      sub\n        /* \"#utility.yul\":920:952   */\n      slt\n        /* \"#utility.yul\":917:1036   */\n      iszero\n      tag_468\n      jumpi\n        /* \"#utility.yul\":955:1034   */\n      tag_469\n      tag_381\n      jump\t// in\n    tag_469:\n        /* \"#utility.yul\":917:1036   */\n    tag_468:\n        /* \"#utility.yul\":1075:1076   */\n      0x00\n        /* \"#utility.yul\":1100:1153   */\n      tag_470\n        /* \"#utility.yul\":1145:1152   */\n      dup5\n        /* \"#utility.yul\":1136:1142   */\n      dup3\n        /* \"#utility.yul\":1125:1134   */\n      dup6\n        /* \"#utility.yul\":1121:1143   */\n      add\n        /* \"#utility.yul\":1100:1153   */\n      tag_386\n      jump\t// in\n    tag_470:\n        /* \"#utility.yul\":1090:1153   */\n      swap2\n      pop\n        /* \"#utility.yul\":1046:1163   */\n      pop\n        /* \"#utility.yul\":841:1170   */\n      swap3\n      swap2\n      pop\n      pop\n      jump\t// out\n        /* \"#utility.yul\":1176:1294   */\n    tag_387:\n        /* \"#utility.yul\":1263:1287   */\n      tag_472\n        /* \"#utility.yul\":1281:1286   */\n      dup2\n        /* \"#utility.yul\":1263:1287   */\n      tag_384\n      jump\t// in\n    tag_472:\n        /* \"#utility.yul\":1258:1261   */\n      dup3\n        /* \"#utility.yul\":1251:1288   */\n      mstore\n        /* \"#utility.yul\":1176:1294   */\n      pop\n      pop\n      jump\t// out\n        /* \"#utility.yul\":1300:1522   */\n    tag_40:\n        /* \"#utility.yul\":1393:1397   */\n      0x00\n        /* \"#utility.yul\":1431:1433   */\n      0x20\n        /* \"#utility.yul\":1420:1429   */\n      dup3\n        /* \"#utility.yul\":1416:1434   */\n      add\n        /* \"#utility.yul\":1408:1434   */\n      swap1\n      pop\n        /* \"#utility.yul\":1444:1515   */\n      tag_474\n        /* \"#utility.yul\":1512:1513   */\n      0x00\n        /* \"#utility.yul\":1501:1510   */\n      dup4\n        /* \"#utility.yul\":1497:1514   */\n      add\n        /* \"#utility.yul\":1488:1494   */\n      dup5\n        /* \"#utility.yul\":1444:1515   */\n      tag_387\n      jump\t// in\n    tag_474:\n        /* \"#utility.yul\":1300:1522   */\n      swap3\n      swap2\n      pop\n      pop\n      jump\t// out\n        /* \"#utility.yul\":1528:1605   */\n    tag_388:\n        /* \"#utility.yul\":1565:1572   */\n      0x00\n        /* \"#utility.yul\":1594:1599   */\n      dup2\n        /* \"#utility.yul\":1583:1599   */\n      swap1\n      pop\n        /* \"#utility.yul\":1528:1605   */\n      swap2\n      swap1\n      pop\n      jump\t// out\n        /* \"#utility.yul\":1611:1733   */\n    tag_389:\n        /* \"#utility.yul\":1684:1708   */\n      tag_477\n        /* \"#utility.yul\":1702:1707   */\n      dup2\n        /* \"#utility.yul\":1684:1708   */\n      tag_388\n      jump\t// in\n    tag_477:\n        /* \"#utility.yul\":1677:1682   */\n      dup2\n        /* \"#utility.yul\":1674:1709   */\n      eq\n        /* \"#utility.yul\":1664:1727   */\n      tag_478\n      jumpi\n        /* \"#utility.yul\":1723:1724   */\n      0x00\n        /* \"#utility.yul\":1720:1721   */\n      dup1\n        /* \"#utility.yul\":1713:1725   */\n      revert\n        /* \"#utility.yul\":1664:1727   */\n    tag_478:\n        /* \"#utility.yul\":1611:1733   */\n      pop\n      jump\t// out\n        /* \"#utility.yul\":1739:1878   */\n    tag_390:\n        /* \"#utility.yul\":1785:1790   */\n      0x00\n        /* \"#utility.yul\":1823:1829   */\n      dup2\n        /* \"#utility.yul\":1810:1830   */\n      calldataload\n        /* \"#utility.yul\":1801:1830   */\n      swap1\n      pop\n        /* \"#utility.yul\":1839:1872   */\n      tag_480\n        /* \"#utility.yul\":1866:1871   */\n      dup2\n        /* \"#utility.yul\":1839:1872   */\n      tag_389\n      jump\t// in\n    tag_480:\n        /* \"#utility.yul\":1739:1878   */\n      swap3\n      swap2\n      pop\n      pop\n      jump\t// out\n        /* \"#utility.yul\":1884:2213   */\n    tag_44:\n        /* \"#utility.yul\":1943:1949   */\n      0x00\n        /* \"#utility.yul\":1992:1994   */\n      0x20\n        /* \"#utility.yul\":1980:1989   */\n      dup3\n        /* \"#utility.yul\":1971:1978   */\n      dup5\n        /* \"#utility.yul\":1967:1990   */\n      sub\n        /* \"#utility.yul\":1963:1995   */\n      slt\n        /* \"#utility.yul\":1960:2079   */\n      iszero\n      tag_482\n      jumpi\n        /* \"#utility.yul\":1998:2077   */\n      tag_483\n      tag_381\n      jump\t// in\n    tag_483:\n        /* \"#utility.yul\":1960:2079   */\n    tag_482:\n        /* \"#utility.yul\":2118:2119   */\n      0x00\n        /* \"#utility.yul\":2143:2196   */\n      tag_484\n        /* \"#utility.yul\":2188:2195   */\n      dup5\n        /* \"#utility.yul\":2179:2185   */\n      dup3\n        /* \"#utility.yul\":2168:2177   */\n      dup6\n        /* \"#utility.yul\":2164:2186   */\n      add\n        /* \"#utility.yul\":2143:2196   */\n      tag_390\n      jump\t// in\n    tag_484:\n        /* \"#utility.yul\":2133:2196   */\n      swap2\n      pop\n        /* \"#utility.yul\":2089:2206   */\n      pop\n        /* \"#utility.yul\":1884:2213   */\n      swap3\n      swap2\n      pop\n      pop\n      jump\t// out\n        /* \"#utility.yul\":2219:2337   */\n    tag_391:\n        /* \"#utility.yul\":2306:2330   */\n      tag_486\n        /* \"#utility.yul\":2324:2329   */\n      dup2\n        /* \"#utility.yul\":2306:2330   */\n      tag_388\n      jump\t// in\n    tag_486:\n        /* \"#utility.yul\":2301:2304   */\n      dup3\n        /* \"#utility.yul\":2294:2331   */\n      mstore\n        /* \"#utility.yul\":2219:2337   */\n      pop\n      pop\n      jump\t// out\n        /* \"#utility.yul\":2343:2785   */\n    tag_47:\n        /* \"#utility.yul\":2492:2496   */\n      0x00\n        /* \"#utility.yul\":2530:2532   */\n      0x60\n        /* \"#utility.yul\":2519:2528   */\n      dup3\n        /* \"#utility.yul\":2515:2533   */\n      add\n        /* \"#utility.yul\":2507:2533   */\n      swap1\n      pop\n        /* \"#utility.yul\":2543:2614   */\n      tag_488\n        /* \"#utility.yul\":2611:2612   */\n      0x00\n        /* \"#utility.yul\":2600:2609   */\n      dup4\n        /* \"#utility.yul\":2596:2613   */\n      add\n        /* \"#utility.yul\":2587:2593   */\n      dup7\n        /* \"#utility.yul\":2543:2614   */\n      tag_391\n      jump\t// in\n    tag_488:\n        /* \"#utility.yul\":2624:2696   */\n      tag_489\n        /* \"#utility.yul\":2692:2694   */\n      0x20\n        /* \"#utility.yul\":2681:2690   */\n      dup4\n        /* \"#utility.yul\":2677:2695   */\n      add\n        /* \"#utility.yul\":2668:2674   */\n      dup6\n        /* \"#utility.yul\":2624:2696   */\n      tag_387\n      jump\t// in\n    tag_489:\n        /* \"#utility.yul\":2706:2778   */\n      tag_490\n        /* \"#utility.yul\":2774:2776   */\n      0x40\n        /* \"#utility.yul\":2763:2772   */\n      dup4\n        /* \"#utility.yul\":2759:2777   */\n      add\n        /* \"#utility.yul\":2750:2756   */\n      dup5\n        /* \"#utility.yul\":2706:2778   */\n      tag_391\n      jump\t// in\n    tag_490:\n        /* \"#utility.yul\":2343:2785   */\n      swap5\n      swap4\n      pop\n      pop\n      pop\n      pop\n      jump\t// out\n        /* \"#utility.yul\":2791:3013   */\n    tag_52:\n        /* \"#utility.yul\":2884:2888   */\n      0x00\n        /* \"#utility.yul\":2922:2924   */\n      0x20\n        /* \"#utility.yul\":2911:2920   */\n      dup3\n        /* \"#utility.yul\":2907:2925   */\n      add\n        /* \"#utility.yul\":2899:2925   */\n      swap1\n      pop\n        /* \"#utility.yul\":2935:3006   */\n      tag_492\n        /* \"#utility.yul\":3003:3004   */\n      0x00\n        /* \"#utility.yul\":2992:3001   */\n      dup4\n        /* \"#utility.yul\":2988:3005   */\n      add\n        /* \"#utility.yul\":2979:2985   */\n      dup5\n        /* \"#utility.yul\":2935:3006   */\n      tag_391\n      jump\t// in\n    tag_492:\n        /* \"#utility.yul\":2791:3013   */\n      swap3\n      swap2\n      pop\n      pop\n      jump\t// out\n        /* \"#utility.yul\":3019:3162   */\n    tag_392:\n        /* \"#utility.yul\":3076:3081   */\n      0x00\n        /* \"#utility.yul\":3107:3113   */\n      dup2\n        /* \"#utility.yul\":3101:3114   */\n      mload\n        /* \"#utility.yul\":3092:3114   */\n      swap1\n      pop\n        /* \"#utility.yul\":3123:3156   */\n      tag_494\n        /* \"#utility.yul\":3150:3155   */\n      dup2\n        /* \"#utility.yul\":3123:3156   */\n      tag_389\n      jump\t// in\n    tag_494:\n        /* \"#utility.yul\":3019:3162   */\n      swap3\n      swap2\n      pop\n      pop\n      jump\t// out\n        /* \"#utility.yul\":3168:3519   */\n    tag_124:\n        /* \"#utility.yul\":3238:3244   */\n      0x00\n        /* \"#utility.yul\":3287:3289   */\n      0x20\n        /* \"#utility.yul\":3275:3284   */\n      dup3\n        /* \"#utility.yul\":3266:3273   */\n      dup5\n        /* \"#utility.yul\":3262:3285   */\n      sub\n        /* \"#utility.yul\":3258:3290   */\n      slt\n        /* \"#utility.yul\":3255:3374   */\n      iszero\n      tag_496\n      jumpi\n        /* \"#utility.yul\":3293:3372   */\n      tag_497\n      tag_381\n      jump\t// in\n    tag_497:\n        /* \"#utility.yul\":3255:3374   */\n    tag_496:\n        /* \"#utility.yul\":3413:3414   */\n      0x00\n        /* \"#utility.yul\":3438:3502   */\n      tag_498\n        /* \"#utility.yul\":3494:3501   */\n      dup5\n        /* \"#utility.yul\":3485:3491   */\n      dup3\n        /* \"#utility.yul\":3474:3483   */\n      dup6\n        /* \"#utility.yul\":3470:3492   */\n      add\n        /* \"#utility.yul\":3438:3502   */\n      tag_392\n      jump\t// in\n    tag_498:\n        /* \"#utility.yul\":3428:3502   */\n      swap2\n      pop\n        /* \"#utility.yul\":3384:3512   */\n      pop\n        /* \"#utility.yul\":3168:3519   */\n      swap3\n      swap2\n      pop\n      pop\n      jump\t// out\n        /* \"#utility.yul\":3525:3857   */\n    tag_126:\n        /* \"#utility.yul\":3646:3650   */\n      0x00\n        /* \"#utility.yul\":3684:3686   */\n      0x40\n        /* \"#utility.yul\":3673:3682   */\n      dup3\n        /* \"#utility.yul\":3669:3687   */\n      add\n        /* \"#utility.yul\":3661:3687   */\n      swap1\n      pop\n        /* \"#utility.yul\":3697:3768   */\n      tag_500\n        /* \"#utility.yul\":3765:3766   */\n      0x00\n        /* \"#utility.yul\":3754:3763   */\n      dup4\n        /* \"#utility.yul\":3750:3767   */\n      add\n        /* \"#utility.yul\":3741:3747   */\n      dup6\n        /* \"#utility.yul\":3697:3768   */\n      tag_387\n      jump\t// in\n    tag_500:\n        /* \"#utility.yul\":3778:3850   */\n      tag_501\n        /* \"#utility.yul\":3846:3848   */\n      0x20\n        /* \"#utility.yul\":3835:3844   */\n      dup4\n        /* \"#utility.yul\":3831:3849   */\n      add\n        /* \"#utility.yul\":3822:3828   */\n      dup5\n        /* \"#utility.yul\":3778:3850   */\n      tag_391\n      jump\t// in\n    tag_501:\n        /* \"#utility.yul\":3525:3857   */\n      swap4\n      swap3\n      pop\n      pop\n      pop\n      jump\t// out\n        /* \"#utility.yul\":3863:3953   */\n    tag_393:\n        /* \"#utility.yul\":3897:3904   */\n      0x00\n        /* \"#utility.yul\":3940:3945   */\n      dup2\n        /* \"#utility.yul\":3933:3946   */\n      iszero\n        /* \"#utility.yul\":3926:3947   */\n      iszero\n        /* \"#utility.yul\":3915:3947   */\n      swap1\n      pop\n        /* \"#utility.yul\":3863:3953   */\n      swap2\n      swap1\n      pop\n      jump\t// out\n        /* \"#utility.yul\":3959:4075   */\n    tag_394:\n        /* \"#utility.yul\":4029:4050   */\n      tag_504\n        /* \"#utility.yul\":4044:4049   */\n      dup2\n        /* \"#utility.yul\":4029:4050   */\n      tag_393\n      jump\t// in\n    tag_504:\n        /* \"#utility.yul\":4022:4027   */\n      dup2\n        /* \"#utility.yul\":4019:4051   */\n      eq\n        /* \"#utility.yul\":4009:4069   */\n      tag_505\n      jumpi\n        /* \"#utility.yul\":4065:4066   */\n      0x00\n        /* \"#utility.yul\":4062:4063   */\n      dup1\n        /* \"#utility.yul\":4055:4067   */\n      revert\n        /* \"#utility.yul\":4009:4069   */\n    tag_505:\n        /* \"#utility.yul\":3959:4075   */\n      pop\n      jump\t// out\n        /* \"#utility.yul\":4081:4218   */\n    tag_395:\n        /* \"#utility.yul\":4135:4140   */\n      0x00\n        /* \"#utility.yul\":4166:4172   */\n      dup2\n        /* \"#utility.yul\":4160:4173   */\n      mload\n        /* \"#utility.yul\":4151:4173   */\n      swap1\n      pop\n        /* \"#utility.yul\":4182:4212   */\n      tag_507\n        /* \"#utility.yul\":4206:4211   */\n      dup2\n        /* \"#utility.yul\":4182:4212   */\n      tag_394\n      jump\t// in\n    tag_507:\n        /* \"#utility.yul\":4081:4218   */\n      swap3\n      swap2\n      pop\n      pop\n      jump\t// out\n        /* \"#utility.yul\":4224:4569   */\n    tag_130:\n        /* \"#utility.yul\":4291:4297   */\n      0x00\n        /* \"#utility.yul\":4340:4342   */\n      0x20\n        /* \"#utility.yul\":4328:4337   */\n      dup3\n        /* \"#utility.yul\":4319:4326   */\n      dup5\n        /* \"#utility.yul\":4315:4338   */\n      sub\n        /* \"#utility.yul\":4311:4343   */\n      slt\n        /* \"#utility.yul\":4308:4427   */\n      iszero\n      tag_509\n      jumpi\n        /* \"#utility.yul\":4346:4425   */\n      tag_510\n      tag_381\n      jump\t// in\n    tag_510:\n        /* \"#utility.yul\":4308:4427   */\n    tag_509:\n        /* \"#utility.yul\":4466:4467   */\n      0x00\n        /* \"#utility.yul\":4491:4552   */\n      tag_511\n        /* \"#utility.yul\":4544:4551   */\n      dup5\n        /* \"#utility.yul\":4535:4541   */\n      dup3\n        /* \"#utility.yul\":4524:4533   */\n      dup6\n        /* \"#utility.yul\":4520:4542   */\n      add\n        /* \"#utility.yul\":4491:4552   */\n      tag_395\n      jump\t// in\n    tag_511:\n        /* \"#utility.yul\":4481:4552   */\n      swap2\n      pop\n        /* \"#utility.yul\":4437:4562   */\n      pop\n        /* \"#utility.yul\":4224:4569   */\n      swap3\n      swap2\n      pop\n      pop\n      jump\t// out\n        /* \"#utility.yul\":4575:4755   */\n    tag_396:\n        /* \"#utility.yul\":4623:4700   */\n      0x4e487b7100000000000000000000000000000000000000000000000000000000\n        /* \"#utility.yul\":4620:4621   */\n      0x00\n        /* \"#utility.yul\":4613:4701   */\n      mstore\n        /* \"#utility.yul\":4720:4724   */\n      0x11\n        /* \"#utility.yul\":4717:4718   */\n      0x04\n        /* \"#utility.yul\":4710:4725   */\n      mstore\n        /* \"#utility.yul\":4744:4748   */\n      0x24\n        /* \"#utility.yul\":4741:4742   */\n      0x00\n        /* \"#utility.yul\":4734:4749   */\n      revert\n        /* \"#utility.yul\":4761:5171   */\n    tag_141:\n        /* \"#utility.yul\":4801:4808   */\n      0x00\n        /* \"#utility.yul\":4824:4844   */\n      tag_514\n        /* \"#utility.yul\":4842:4843   */\n      dup3\n        /* \"#utility.yul\":4824:4844   */\n      tag_388\n      jump\t// in\n    tag_514:\n        /* \"#utility.yul\":4819:4844   */\n      swap2\n      pop\n        /* \"#utility.yul\":4858:4878   */\n      tag_515\n        /* \"#utility.yul\":4876:4877   */\n      dup4\n        /* \"#utility.yul\":4858:4878   */\n      tag_388\n      jump\t// in\n    tag_515:\n        /* \"#utility.yul\":4853:4878   */\n      swap3\n      pop\n        /* \"#utility.yul\":4913:4914   */\n      dup3\n        /* \"#utility.yul\":4910:4911   */\n      dup3\n        /* \"#utility.yul\":4906:4915   */\n      mul\n        /* \"#utility.yul\":4935:4965   */\n      tag_516\n        /* \"#utility.yul\":4953:4964   */\n      dup2\n        /* \"#utility.yul\":4935:4965   */\n      tag_388\n      jump\t// in\n    tag_516:\n        /* \"#utility.yul\":4924:4965   */\n      swap2\n      pop\n        /* \"#utility.yul\":5114:5115   */\n      dup3\n        /* \"#utility.yul\":5105:5112   */\n      dup3\n        /* \"#utility.yul\":5101:5116   */\n      div\n        /* \"#utility.yul\":5098:5099   */\n      dup5\n        /* \"#utility.yul\":5095:5117   */\n      eq\n        /* \"#utility.yul\":5075:5076   */\n      dup4\n        /* \"#utility.yul\":5068:5077   */\n      iszero\n        /* \"#utility.yul\":5048:5131   */\n      or\n        /* \"#utility.yul\":5025:5164   */\n      tag_517\n      jumpi\n        /* \"#utility.yul\":5144:5162   */\n      tag_518\n      tag_396\n      jump\t// in\n    tag_518:\n        /* \"#utility.yul\":5025:5164   */\n    tag_517:\n        /* \"#utility.yul\":4809:5171   */\n      pop\n        /* \"#utility.yul\":4761:5171   */\n      swap3\n      swap2\n      pop\n      pop\n      jump\t// out\n        /* \"#utility.yul\":5177:5357   */\n    tag_397:\n        /* \"#utility.yul\":5225:5302   */\n      0x4e487b7100000000000000000000000000000000000000000000000000000000\n        /* \"#utility.yul\":5222:5223   */\n      0x00\n        /* \"#utility.yul\":5215:5303   */\n      mstore\n        /* \"#utility.yul\":5322:5326   */\n      0x12\n        /* \"#utility.yul\":5319:5320   */\n      0x04\n        /* \"#utility.yul\":5312:5327   */\n      mstore\n        /* \"#utility.yul\":5346:5350   */\n      0x24\n        /* \"#utility.yul\":5343:5344   */\n      0x00\n        /* \"#utility.yul\":5336:5351   */\n      revert\n        /* \"#utility.yul\":5363:5548   */\n    tag_143:\n        /* \"#utility.yul\":5403:5404   */\n      0x00\n        /* \"#utility.yul\":5420:5440   */\n      tag_521\n        /* \"#utility.yul\":5438:5439   */\n      dup3\n        /* \"#utility.yul\":5420:5440   */\n      tag_388\n      jump\t// in\n    tag_521:\n        /* \"#utility.yul\":5415:5440   */\n      swap2\n      pop\n        /* \"#utility.yul\":5454:5474   */\n      tag_522\n        /* \"#utility.yul\":5472:5473   */\n      dup4\n        /* \"#utility.yul\":5454:5474   */\n      tag_388\n      jump\t// in\n    tag_522:\n        /* \"#utility.yul\":5449:5474   */\n      swap3\n      pop\n        /* \"#utility.yul\":5493:5494   */\n      dup3\n        /* \"#utility.yul\":5483:5518   */\n      tag_523\n      jumpi\n        /* \"#utility.yul\":5498:5516   */\n      tag_524\n      tag_397\n      jump\t// in\n    tag_524:\n        /* \"#utility.yul\":5483:5518   */\n    tag_523:\n        /* \"#utility.yul\":5540:5541   */\n      dup3\n        /* \"#utility.yul\":5537:5538   */\n      dup3\n        /* \"#utility.yul\":5533:5542   */\n      div\n        /* \"#utility.yul\":5528:5542   */\n      swap1\n      pop\n        /* \"#utility.yul\":5363:5548   */\n      swap3\n      swap2\n      pop\n      pop\n      jump\t// out\n        /* \"#utility.yul\":5554:5723   */\n    tag_398:\n        /* \"#utility.yul\":5638:5649   */\n      0x00\n        /* \"#utility.yul\":5672:5678   */\n      dup3\n        /* \"#utility.yul\":5667:5670   */\n      dup3\n        /* \"#utility.yul\":5660:5679   */\n      mstore\n        /* \"#utility.yul\":5712:5716   */\n      0x20\n        /* \"#utility.yul\":5707:5710   */\n      dup3\n        /* \"#utility.yul\":5703:5717   */\n      add\n        /* \"#utility.yul\":5688:5717   */\n      swap1\n      pop\n        /* \"#utility.yul\":5554:5723   */\n      swap3\n      swap2\n      pop\n      pop\n      jump\t// out\n        /* \"#utility.yul\":5729:5905   */\n    tag_399:\n        /* \"#utility.yul\":5869:5897   */\n      0x4e65656420746f206d696e7420666f72206c6971756964697479000000000000\n        /* \"#utility.yul\":5865:5866   */\n      0x00\n        /* \"#utility.yul\":5857:5863   */\n      dup3\n        /* \"#utility.yul\":5853:5867   */\n      add\n        /* \"#utility.yul\":5846:5898   */\n      mstore\n        /* \"#utility.yul\":5729:5905   */\n      pop\n      jump\t// out\n        /* \"#utility.yul\":5911:6277   */\n    tag_400:\n        /* \"#utility.yul\":6053:6056   */\n      0x00\n        /* \"#utility.yul\":6074:6141   */\n      tag_528\n        /* \"#utility.yul\":6138:6140   */\n      0x1a\n        /* \"#utility.yul\":6133:6136   */\n      dup4\n        /* \"#utility.yul\":6074:6141   */\n      tag_398\n      jump\t// in\n    tag_528:\n        /* \"#utility.yul\":6067:6141   */\n      swap2\n      pop\n        /* \"#utility.yul\":6150:6243   */\n      tag_529\n        /* \"#utility.yul\":6239:6242   */\n      dup3\n        /* \"#utility.yul\":6150:6243   */\n      tag_399\n      jump\t// in\n    tag_529:\n        /* \"#utility.yul\":6268:6270   */\n      0x20\n        /* \"#utility.yul\":6263:6266   */\n      dup3\n        /* \"#utility.yul\":6259:6271   */\n      add\n        /* \"#utility.yul\":6252:6271   */\n      swap1\n      pop\n        /* \"#utility.yul\":5911:6277   */\n      swap2\n      swap1\n      pop\n      jump\t// out\n        /* \"#utility.yul\":6283:6702   */\n    tag_146:\n        /* \"#utility.yul\":6449:6453   */\n      0x00\n        /* \"#utility.yul\":6487:6489   */\n      0x20\n        /* \"#utility.yul\":6476:6485   */\n      dup3\n        /* \"#utility.yul\":6472:6490   */\n      add\n        /* \"#utility.yul\":6464:6490   */\n      swap1\n      pop\n        /* \"#utility.yul\":6536:6545   */\n      dup2\n        /* \"#utility.yul\":6530:6534   */\n      dup2\n        /* \"#utility.yul\":6526:6546   */\n      sub\n        /* \"#utility.yul\":6522:6523   */\n      0x00\n        /* \"#utility.yul\":6511:6520   */\n      dup4\n        /* \"#utility.yul\":6507:6524   */\n      add\n        /* \"#utility.yul\":6500:6547   */\n      mstore\n        /* \"#utility.yul\":6564:6695   */\n      tag_531\n        /* \"#utility.yul\":6690:6694   */\n      dup2\n        /* \"#utility.yul\":6564:6695   */\n      tag_400\n      jump\t// in\n    tag_531:\n        /* \"#utility.yul\":6556:6695   */\n      swap1\n      pop\n        /* \"#utility.yul\":6283:6702   */\n      swap2\n      swap1\n      pop\n      jump\t// out\n        /* \"#utility.yul\":6708:6902   */\n    tag_148:\n        /* \"#utility.yul\":6748:6752   */\n      0x00\n        /* \"#utility.yul\":6768:6788   */\n      tag_533\n        /* \"#utility.yul\":6786:6787   */\n      dup3\n        /* \"#utility.yul\":6768:6788   */\n      tag_388\n      jump\t// in\n    tag_533:\n        /* \"#utility.yul\":6763:6788   */\n      swap2\n      pop\n        /* \"#utility.yul\":6802:6822   */\n      tag_534\n        /* \"#utility.yul\":6820:6821   */\n      dup4\n        /* \"#utility.yul\":6802:6822   */\n      tag_388\n      jump\t// in\n    tag_534:\n        /* \"#utility.yul\":6797:6822   */\n      swap3\n      pop\n        /* \"#utility.yul\":6846:6847   */\n      dup3\n        /* \"#utility.yul\":6843:6844   */\n      dup3\n        /* \"#utility.yul\":6839:6848   */\n      sub\n        /* \"#utility.yul\":6831:6848   */\n      swap1\n      pop\n        /* \"#utility.yul\":6870:6871   */\n      dup2\n        /* \"#utility.yul\":6864:6868   */\n      dup2\n        /* \"#utility.yul\":6861:6872   */\n      gt\n        /* \"#utility.yul\":6858:6895   */\n      iszero\n      tag_535\n      jumpi\n        /* \"#utility.yul\":6875:6893   */\n      tag_536\n      tag_396\n      jump\t// in\n    tag_536:\n        /* \"#utility.yul\":6858:6895   */\n    tag_535:\n        /* \"#utility.yul\":6708:6902   */\n      swap3\n      swap2\n      pop\n      pop\n      jump\t// out\n        /* \"#utility.yul\":6908:7240   */\n    tag_150:\n        /* \"#utility.yul\":7029:7033   */\n      0x00\n        /* \"#utility.yul\":7067:7069   */\n      0x40\n        /* \"#utility.yul\":7056:7065   */\n      dup3\n        /* \"#utility.yul\":7052:7070   */\n      add\n        /* \"#utility.yul\":7044:7070   */\n      swap1\n      pop\n        /* \"#utility.yul\":7080:7151   */\n      tag_538\n        /* \"#utility.yul\":7148:7149   */\n      0x00\n        /* \"#utility.yul\":7137:7146   */\n      dup4\n        /* \"#utility.yul\":7133:7150   */\n      add\n        /* \"#utility.yul\":7124:7130   */\n      dup6\n        /* \"#utility.yul\":7080:7151   */\n      tag_391\n      jump\t// in\n    tag_538:\n        /* \"#utility.yul\":7161:7233   */\n      tag_539\n        /* \"#utility.yul\":7229:7231   */\n      0x20\n        /* \"#utility.yul\":7218:7227   */\n      dup4\n        /* \"#utility.yul\":7214:7232   */\n      add\n        /* \"#utility.yul\":7205:7211   */\n      dup5\n        /* \"#utility.yul\":7161:7233   */\n      tag_387\n      jump\t// in\n    tag_539:\n        /* \"#utility.yul\":6908:7240   */\n      swap4\n      swap3\n      pop\n      pop\n      pop\n      jump\t// out\n        /* \"#utility.yul\":7246:7409   */\n    tag_401:\n        /* \"#utility.yul\":7386:7401   */\n      0x746f6b656e73206d696e74656400000000000000000000000000000000000000\n        /* \"#utility.yul\":7382:7383   */\n      0x00\n        /* \"#utility.yul\":7374:7380   */\n      dup3\n        /* \"#utility.yul\":7370:7384   */\n      add\n        /* \"#utility.yul\":7363:7402   */\n      mstore\n        /* \"#utility.yul\":7246:7409   */\n      pop\n      jump\t// out\n        /* \"#utility.yul\":7415:7781   */\n    tag_402:\n        /* \"#utility.yul\":7557:7560   */\n      0x00\n        /* \"#utility.yul\":7578:7645   */\n      tag_542\n        /* \"#utility.yul\":7642:7644   */\n      0x0d\n        /* \"#utility.yul\":7637:7640   */\n      dup4\n        /* \"#utility.yul\":7578:7645   */\n      tag_398\n      jump\t// in\n    tag_542:\n        /* \"#utility.yul\":7571:7645   */\n      swap2\n      pop\n        /* \"#utility.yul\":7654:7747   */\n      tag_543\n        /* \"#utility.yul\":7743:7746   */\n      dup3\n        /* \"#utility.yul\":7654:7747   */\n      tag_401\n      jump\t// in\n    tag_543:\n        /* \"#utility.yul\":7772:7774   */\n      0x20\n        /* \"#utility.yul\":7767:7770   */\n      dup3\n        /* \"#utility.yul\":7763:7775   */\n      add\n        /* \"#utility.yul\":7756:7775   */\n      swap1\n      pop\n        /* \"#utility.yul\":7415:7781   */\n      swap2\n      swap1\n      pop\n      jump\t// out\n        /* \"#utility.yul\":7787:8206   */\n    tag_155:\n        /* \"#utility.yul\":7953:7957   */\n      0x00\n        /* \"#utility.yul\":7991:7993   */\n      0x20\n        /* \"#utility.yul\":7980:7989   */\n      dup3\n        /* \"#utility.yul\":7976:7994   */\n      add\n        /* \"#utility.yul\":7968:7994   */\n      swap1\n      pop\n        /* \"#utility.yul\":8040:8049   */\n      dup2\n        /* \"#utility.yul\":8034:8038   */\n      dup2\n        /* \"#utility.yul\":8030:8050   */\n      sub\n        /* \"#utility.yul\":8026:8027   */\n      0x00\n        /* \"#utility.yul\":8015:8024   */\n      dup4\n        /* \"#utility.yul\":8011:8028   */\n      add\n        /* \"#utility.yul\":8004:8051   */\n      mstore\n        /* \"#utility.yul\":8068:8199   */\n      tag_545\n        /* \"#utility.yul\":8194:8198   */\n      dup2\n        /* \"#utility.yul\":8068:8199   */\n      tag_402\n      jump\t// in\n    tag_545:\n        /* \"#utility.yul\":8060:8199   */\n      swap1\n      pop\n        /* \"#utility.yul\":7787:8206   */\n      swap2\n      swap1\n      pop\n      jump\t// out\n        /* \"#utility.yul\":8212:8297   */\n    tag_403:\n        /* \"#utility.yul\":8257:8264   */\n      0x00\n        /* \"#utility.yul\":8286:8291   */\n      dup2\n        /* \"#utility.yul\":8275:8291   */\n      swap1\n      pop\n        /* \"#utility.yul\":8212:8297   */\n      swap2\n      swap1\n      pop\n      jump\t// out\n        /* \"#utility.yul\":8303:8363   */\n    tag_404:\n        /* \"#utility.yul\":8331:8334   */\n      0x00\n        /* \"#utility.yul\":8352:8357   */\n      dup2\n        /* \"#utility.yul\":8345:8357   */\n      swap1\n      pop\n        /* \"#utility.yul\":8303:8363   */\n      swap2\n      swap1\n      pop\n      jump\t// out\n        /* \"#utility.yul\":8369:8527   */\n    tag_405:\n        /* \"#utility.yul\":8427:8436   */\n      0x00\n        /* \"#utility.yul\":8460:8521   */\n      tag_549\n        /* \"#utility.yul\":8478:8520   */\n      tag_550\n        /* \"#utility.yul\":8487:8519   */\n      tag_551\n        /* \"#utility.yul\":8513:8518   */\n      dup5\n        /* \"#utility.yul\":8487:8519   */\n      tag_403\n      jump\t// in\n    tag_551:\n        /* \"#utility.yul\":8478:8520   */\n      tag_404\n      jump\t// in\n    tag_550:\n        /* \"#utility.yul\":8460:8521   */\n      tag_388\n      jump\t// in\n    tag_549:\n        /* \"#utility.yul\":8447:8521   */\n      swap1\n      pop\n        /* \"#utility.yul\":8369:8527   */\n      swap2\n      swap1\n      pop\n      jump\t// out\n        /* \"#utility.yul\":8533:8680   */\n    tag_406:\n        /* \"#utility.yul\":8628:8673   */\n      tag_553\n        /* \"#utility.yul\":8667:8672   */\n      dup2\n        /* \"#utility.yul\":8628:8673   */\n      tag_405\n      jump\t// in\n    tag_553:\n        /* \"#utility.yul\":8623:8626   */\n      dup3\n        /* \"#utility.yul\":8616:8674   */\n      mstore\n        /* \"#utility.yul\":8533:8680   */\n      pop\n      pop\n      jump\t// out\n        /* \"#utility.yul\":8686:9477   */\n    tag_165:\n        /* \"#utility.yul\":8927:8931   */\n      0x00\n        /* \"#utility.yul\":8965:8968   */\n      0xc0\n        /* \"#utility.yul\":8954:8963   */\n      dup3\n        /* \"#utility.yul\":8950:8969   */\n      add\n        /* \"#utility.yul\":8942:8969   */\n      swap1\n      pop\n        /* \"#utility.yul\":8979:9050   */\n      tag_555\n        /* \"#utility.yul\":9047:9048   */\n      0x00\n        /* \"#utility.yul\":9036:9045   */\n      dup4\n        /* \"#utility.yul\":9032:9049   */\n      add\n        /* \"#utility.yul\":9023:9029   */\n      dup10\n        /* \"#utility.yul\":8979:9050   */\n      tag_387\n      jump\t// in\n    tag_555:\n        /* \"#utility.yul\":9060:9132   */\n      tag_556\n        /* \"#utility.yul\":9128:9130   */\n      0x20\n        /* \"#utility.yul\":9117:9126   */\n      dup4\n        /* \"#utility.yul\":9113:9131   */\n      add\n        /* \"#utility.yul\":9104:9110   */\n      dup9\n        /* \"#utility.yul\":9060:9132   */\n      tag_391\n      jump\t// in\n    tag_556:\n        /* \"#utility.yul\":9142:9222   */\n      tag_557\n        /* \"#utility.yul\":9218:9220   */\n      0x40\n        /* \"#utility.yul\":9207:9216   */\n      dup4\n        /* \"#utility.yul\":9203:9221   */\n      add\n        /* \"#utility.yul\":9194:9200   */\n      dup8\n        /* \"#utility.yul\":9142:9222   */\n      tag_406\n      jump\t// in\n    tag_557:\n        /* \"#utility.yul\":9232:9304   */\n      tag_558\n        /* \"#utility.yul\":9300:9302   */\n      0x60\n        /* \"#utility.yul\":9289:9298   */\n      dup4\n        /* \"#utility.yul\":9285:9303   */\n      add\n        /* \"#utility.yul\":9276:9282   */\n      dup7\n        /* \"#utility.yul\":9232:9304   */\n      tag_391\n      jump\t// in\n    tag_558:\n        /* \"#utility.yul\":9314:9387   */\n      tag_559\n        /* \"#utility.yul\":9382:9385   */\n      0x80\n        /* \"#utility.yul\":9371:9380   */\n      dup4\n        /* \"#utility.yul\":9367:9386   */\n      add\n        /* \"#utility.yul\":9358:9364   */\n      dup6\n        /* \"#utility.yul\":9314:9387   */\n      tag_387\n      jump\t// in\n    tag_559:\n        /* \"#utility.yul\":9397:9470   */\n      tag_560\n        /* \"#utility.yul\":9465:9468   */\n      0xa0\n        /* \"#utility.yul\":9454:9463   */\n      dup4\n        /* \"#utility.yul\":9450:9469   */\n      add\n        /* \"#utility.yul\":9441:9447   */\n      dup5\n        /* \"#utility.yul\":9397:9470   */\n      tag_391\n      jump\t// in\n    tag_560:\n        /* \"#utility.yul\":8686:9477   */\n      swap8\n      swap7\n      pop\n      pop\n      pop\n      pop\n      pop\n      pop\n      pop\n      jump\t// out\n        /* \"#utility.yul\":9483:10146   */\n    tag_168:\n        /* \"#utility.yul\":9571:9577   */\n      0x00\n        /* \"#utility.yul\":9579:9585   */\n      dup1\n        /* \"#utility.yul\":9587:9593   */\n      0x00\n        /* \"#utility.yul\":9636:9638   */\n      0x60\n        /* \"#utility.yul\":9624:9633   */\n      dup5\n        /* \"#utility.yul\":9615:9622   */\n      dup7\n        /* \"#utility.yul\":9611:9634   */\n      sub\n        /* \"#utility.yul\":9607:9639   */\n      slt\n        /* \"#utility.yul\":9604:9723   */\n      iszero\n      tag_562\n      jumpi\n        /* \"#utility.yul\":9642:9721   */\n      tag_563\n      tag_381\n      jump\t// in\n    tag_563:\n        /* \"#utility.yul\":9604:9723   */\n    tag_562:\n        /* \"#utility.yul\":9762:9763   */\n      0x00\n        /* \"#utility.yul\":9787:9851   */\n      tag_564\n        /* \"#utility.yul\":9843:9850   */\n      dup7\n        /* \"#utility.yul\":9834:9840   */\n      dup3\n        /* \"#utility.yul\":9823:9832   */\n      dup8\n        /* \"#utility.yul\":9819:9841   */\n      add\n        /* \"#utility.yul\":9787:9851   */\n      tag_392\n      jump\t// in\n    tag_564:\n        /* \"#utility.yul\":9777:9851   */\n      swap4\n      pop\n        /* \"#utility.yul\":9733:9861   */\n      pop\n        /* \"#utility.yul\":9900:9902   */\n      0x20\n        /* \"#utility.yul\":9926:9990   */\n      tag_565\n        /* \"#utility.yul\":9982:9989   */\n      dup7\n        /* \"#utility.yul\":9973:9979   */\n      dup3\n        /* \"#utility.yul\":9962:9971   */\n      dup8\n        /* \"#utility.yul\":9958:9980   */\n      add\n        /* \"#utility.yul\":9926:9990   */\n      tag_392\n      jump\t// in\n    tag_565:\n        /* \"#utility.yul\":9916:9990   */\n      swap3\n      pop\n        /* \"#utility.yul\":9871:10000   */\n      pop\n        /* \"#utility.yul\":10039:10041   */\n      0x40\n        /* \"#utility.yul\":10065:10129   */\n      tag_566\n        /* \"#utility.yul\":10121:10128   */\n      dup7\n        /* \"#utility.yul\":10112:10118   */\n      dup3\n        /* \"#utility.yul\":10101:10110   */\n      dup8\n        /* \"#utility.yul\":10097:10119   */\n      add\n        /* \"#utility.yul\":10065:10129   */\n      tag_392\n      jump\t// in\n    tag_566:\n        /* \"#utility.yul\":10055:10129   */\n      swap2\n      pop\n        /* \"#utility.yul\":10010:10139   */\n      pop\n        /* \"#utility.yul\":9483:10146   */\n      swap3\n      pop\n      swap3\n      pop\n      swap3\n      jump\t// out\n        /* \"#utility.yul\":10152:10324   */\n    tag_407:\n        /* \"#utility.yul\":10292:10316   */\n      0x4c6971756964697479204e6f742050726f766964656400000000000000000000\n        /* \"#utility.yul\":10288:10289   */\n      0x00\n        /* \"#utility.yul\":10280:10286   */\n      dup3\n        /* \"#utility.yul\":10276:10290   */\n      add\n        /* \"#utility.yul\":10269:10317   */\n      mstore\n        /* \"#utility.yul\":10152:10324   */\n      pop\n      jump\t// out\n        /* \"#utility.yul\":10330:10696   */\n    tag_408:\n        /* \"#utility.yul\":10472:10475   */\n      0x00\n        /* \"#utility.yul\":10493:10560   */\n      tag_569\n        /* \"#utility.yul\":10557:10559   */\n      0x16\n        /* \"#utility.yul\":10552:10555   */\n      dup4\n        /* \"#utility.yul\":10493:10560   */\n      tag_398\n      jump\t// in\n    tag_569:\n        /* \"#utility.yul\":10486:10560   */\n      swap2\n      pop\n        /* \"#utility.yul\":10569:10662   */\n      tag_570\n        /* \"#utility.yul\":10658:10661   */\n      dup3\n        /* \"#utility.yul\":10569:10662   */\n      tag_407\n      jump\t// in\n    tag_570:\n        /* \"#utility.yul\":10687:10689   */\n      0x20\n        /* \"#utility.yul\":10682:10685   */\n      dup3\n        /* \"#utility.yul\":10678:10690   */\n      add\n        /* \"#utility.yul\":10671:10690   */\n      swap1\n      pop\n        /* \"#utility.yul\":10330:10696   */\n      swap2\n      swap1\n      pop\n      jump\t// out\n        /* \"#utility.yul\":10702:11121   */\n    tag_174:\n        /* \"#utility.yul\":10868:10872   */\n      0x00\n        /* \"#utility.yul\":10906:10908   */\n      0x20\n        /* \"#utility.yul\":10895:10904   */\n      dup3\n        /* \"#utility.yul\":10891:10909   */\n      add\n        /* \"#utility.yul\":10883:10909   */\n      swap1\n      pop\n        /* \"#utility.yul\":10955:10964   */\n      dup2\n        /* \"#utility.yul\":10949:10953   */\n      dup2\n        /* \"#utility.yul\":10945:10965   */\n      sub\n        /* \"#utility.yul\":10941:10942   */\n      0x00\n        /* \"#utility.yul\":10930:10939   */\n      dup4\n        /* \"#utility.yul\":10926:10943   */\n      add\n        /* \"#utility.yul\":10919:10966   */\n      mstore\n        /* \"#utility.yul\":10983:11114   */\n      tag_572\n        /* \"#utility.yul\":11109:11113   */\n      dup2\n        /* \"#utility.yul\":10983:11114   */\n      tag_408\n      jump\t// in\n    tag_572:\n        /* \"#utility.yul\":10975:11114   */\n      swap1\n      pop\n        /* \"#utility.yul\":10702:11121   */\n      swap2\n      swap1\n      pop\n      jump\t// out\n        /* \"#utility.yul\":11127:11308   */\n    tag_409:\n        /* \"#utility.yul\":11267:11300   */\n      0x6c6971756964697479205375636365737366756c6c792050726f766964656400\n        /* \"#utility.yul\":11263:11264   */\n      0x00\n        /* \"#utility.yul\":11255:11261   */\n      dup3\n        /* \"#utility.yul\":11251:11265   */\n      add\n        /* \"#utility.yul\":11244:11301   */\n      mstore\n        /* \"#utility.yul\":11127:11308   */\n      pop\n      jump\t// out\n        /* \"#utility.yul\":11314:11680   */\n    tag_410:\n        /* \"#utility.yul\":11456:11459   */\n      0x00\n        /* \"#utility.yul\":11477:11544   */\n      tag_575\n        /* \"#utility.yul\":11541:11543   */\n      0x1f\n        /* \"#utility.yul\":11536:11539   */\n      dup4\n        /* \"#utility.yul\":11477:11544   */\n      tag_398\n      jump\t// in\n    tag_575:\n        /* \"#utility.yul\":11470:11544   */\n      swap2\n      pop\n        /* \"#utility.yul\":11553:11646   */\n      tag_576\n        /* \"#utility.yul\":11642:11645   */\n      dup3\n        /* \"#utility.yul\":11553:11646   */\n      tag_409\n      jump\t// in\n    tag_576:\n        /* \"#utility.yul\":11671:11673   */\n      0x20\n        /* \"#utility.yul\":11666:11669   */\n      dup3\n        /* \"#utility.yul\":11662:11674   */\n      add\n        /* \"#utility.yul\":11655:11674   */\n      swap1\n      pop\n        /* \"#utility.yul\":11314:11680   */\n      swap2\n      swap1\n      pop\n      jump\t// out\n        /* \"#utility.yul\":11686:12105   */\n    tag_177:\n        /* \"#utility.yul\":11852:11856   */\n      0x00\n        /* \"#utility.yul\":11890:11892   */\n      0x20\n        /* \"#utility.yul\":11879:11888   */\n      dup3\n        /* \"#utility.yul\":11875:11893   */\n      add\n        /* \"#utility.yul\":11867:11893   */\n      swap1\n      pop\n        /* \"#utility.yul\":11939:11948   */\n      dup2\n        /* \"#utility.yul\":11933:11937   */\n      dup2\n        /* \"#utility.yul\":11929:11949   */\n      sub\n        /* \"#utility.yul\":11925:11926   */\n      0x00\n        /* \"#utility.yul\":11914:11923   */\n      dup4\n        /* \"#utility.yul\":11910:11927   */\n      add\n        /* \"#utility.yul\":11903:11950   */\n      mstore\n        /* \"#utility.yul\":11967:12098   */\n      tag_578\n        /* \"#utility.yul\":12093:12097   */\n      dup2\n        /* \"#utility.yul\":11967:12098   */\n      tag_410\n      jump\t// in\n    tag_578:\n        /* \"#utility.yul\":11959:12098   */\n      swap1\n      pop\n        /* \"#utility.yul\":11686:12105   */\n      swap2\n      swap1\n      pop\n      jump\t// out\n        /* \"#utility.yul\":12111:12279   */\n    tag_411:\n        /* \"#utility.yul\":12251:12271   */\n      0x70726576696f757320486f6c6465722069730000000000000000000000000000\n        /* \"#utility.yul\":12247:12248   */\n      0x00\n        /* \"#utility.yul\":12239:12245   */\n      dup3\n        /* \"#utility.yul\":12235:12249   */\n      add\n        /* \"#utility.yul\":12228:12272   */\n      mstore\n        /* \"#utility.yul\":12111:12279   */\n      pop\n      jump\t// out\n        /* \"#utility.yul\":12285:12651   */\n    tag_412:\n        /* \"#utility.yul\":12427:12430   */\n      0x00\n        /* \"#utility.yul\":12448:12515   */\n      tag_581\n        /* \"#utility.yul\":12512:12514   */\n      0x12\n        /* \"#utility.yul\":12507:12510   */\n      dup4\n        /* \"#utility.yul\":12448:12515   */\n      tag_398\n      jump\t// in\n    tag_581:\n        /* \"#utility.yul\":12441:12515   */\n      swap2\n      pop\n        /* \"#utility.yul\":12524:12617   */\n      tag_582\n        /* \"#utility.yul\":12613:12616   */\n      dup3\n        /* \"#utility.yul\":12524:12617   */\n      tag_411\n      jump\t// in\n    tag_582:\n        /* \"#utility.yul\":12642:12644   */\n      0x20\n        /* \"#utility.yul\":12637:12640   */\n      dup3\n        /* \"#utility.yul\":12633:12645   */\n      add\n        /* \"#utility.yul\":12626:12645   */\n      swap1\n      pop\n        /* \"#utility.yul\":12285:12651   */\n      swap2\n      swap1\n      pop\n      jump\t// out\n        /* \"#utility.yul\":12657:13076   */\n    tag_229:\n        /* \"#utility.yul\":12823:12827   */\n      0x00\n        /* \"#utility.yul\":12861:12863   */\n      0x20\n        /* \"#utility.yul\":12850:12859   */\n      dup3\n        /* \"#utility.yul\":12846:12864   */\n      add\n        /* \"#utility.yul\":12838:12864   */\n      swap1\n      pop\n        /* \"#utility.yul\":12910:12919   */\n      dup2\n        /* \"#utility.yul\":12904:12908   */\n      dup2\n        /* \"#utility.yul\":12900:12920   */\n      sub\n        /* \"#utility.yul\":12896:12897   */\n      0x00\n        /* \"#utility.yul\":12885:12894   */\n      dup4\n        /* \"#utility.yul\":12881:12898   */\n      add\n        /* \"#utility.yul\":12874:12921   */\n      mstore\n        /* \"#utility.yul\":12938:13069   */\n      tag_584\n        /* \"#utility.yul\":13064:13068   */\n      dup2\n        /* \"#utility.yul\":12938:13069   */\n      tag_412\n      jump\t// in\n    tag_584:\n        /* \"#utility.yul\":12930:13069   */\n      swap1\n      pop\n        /* \"#utility.yul\":12657:13076   */\n      swap2\n      swap1\n      pop\n      jump\t// out\n        /* \"#utility.yul\":13082:13257   */\n    tag_413:\n        /* \"#utility.yul\":13222:13249   */\n      0x63757272656e74206c69717569646974792070657263656e7400000000000000\n        /* \"#utility.yul\":13218:13219   */\n      0x00\n        /* \"#utility.yul\":13210:13216   */\n      dup3\n        /* \"#utility.yul\":13206:13220   */\n      add\n        /* \"#utility.yul\":13199:13250   */\n      mstore\n        /* \"#utility.yul\":13082:13257   */\n      pop\n      jump\t// out\n        /* \"#utility.yul\":13263:13629   */\n    tag_414:\n        /* \"#utility.yul\":13405:13408   */\n      0x00\n        /* \"#utility.yul\":13426:13493   */\n      tag_587\n        /* \"#utility.yul\":13490:13492   */\n      0x19\n        /* \"#utility.yul\":13485:13488   */\n      dup4\n        /* \"#utility.yul\":13426:13493   */\n      tag_398\n      jump\t// in\n    tag_587:\n        /* \"#utility.yul\":13419:13493   */\n      swap2\n      pop\n        /* \"#utility.yul\":13502:13595   */\n      tag_588\n        /* \"#utility.yul\":13591:13594   */\n      dup3\n        /* \"#utility.yul\":13502:13595   */\n      tag_413\n      jump\t// in\n    tag_588:\n        /* \"#utility.yul\":13620:13622   */\n      0x20\n        /* \"#utility.yul\":13615:13618   */\n      dup3\n        /* \"#utility.yul\":13611:13623   */\n      add\n        /* \"#utility.yul\":13604:13623   */\n      swap1\n      pop\n        /* \"#utility.yul\":13263:13629   */\n      swap2\n      swap1\n      pop\n      jump\t// out\n        /* \"#utility.yul\":13635:14054   */\n    tag_232:\n        /* \"#utility.yul\":13801:13805   */\n      0x00\n        /* \"#utility.yul\":13839:13841   */\n      0x20\n        /* \"#utility.yul\":13828:13837   */\n      dup3\n        /* \"#utility.yul\":13824:13842   */\n      add\n        /* \"#utility.yul\":13816:13842   */\n      swap1\n      pop\n        /* \"#utility.yul\":13888:13897   */\n      dup2\n        /* \"#utility.yul\":13882:13886   */\n      dup2\n        /* \"#utility.yul\":13878:13898   */\n      sub\n        /* \"#utility.yul\":13874:13875   */\n      0x00\n        /* \"#utility.yul\":13863:13872   */\n      dup4\n        /* \"#utility.yul\":13859:13876   */\n      add\n        /* \"#utility.yul\":13852:13899   */\n      mstore\n        /* \"#utility.yul\":13916:14047   */\n      tag_590\n        /* \"#utility.yul\":14042:14046   */\n      dup2\n        /* \"#utility.yul\":13916:14047   */\n      tag_414\n      jump\t// in\n    tag_590:\n        /* \"#utility.yul\":13908:14047   */\n      swap1\n      pop\n        /* \"#utility.yul\":13635:14054   */\n      swap2\n      swap1\n      pop\n      jump\t// out\n        /* \"#utility.yul\":14060:14251   */\n    tag_239:\n        /* \"#utility.yul\":14100:14103   */\n      0x00\n        /* \"#utility.yul\":14119:14139   */\n      tag_592\n        /* \"#utility.yul\":14137:14138   */\n      dup3\n        /* \"#utility.yul\":14119:14139   */\n      tag_388\n      jump\t// in\n    tag_592:\n        /* \"#utility.yul\":14114:14139   */\n      swap2\n      pop\n        /* \"#utility.yul\":14153:14173   */\n      tag_593\n        /* \"#utility.yul\":14171:14172   */\n      dup4\n        /* \"#utility.yul\":14153:14173   */\n      tag_388\n      jump\t// in\n    tag_593:\n        /* \"#utility.yul\":14148:14173   */\n      swap3\n      pop\n        /* \"#utility.yul\":14196:14197   */\n      dup3\n        /* \"#utility.yul\":14193:14194   */\n      dup3\n        /* \"#utility.yul\":14189:14198   */\n      add\n        /* \"#utility.yul\":14182:14198   */\n      swap1\n      pop\n        /* \"#utility.yul\":14217:14220   */\n      dup1\n        /* \"#utility.yul\":14214:14215   */\n      dup3\n        /* \"#utility.yul\":14211:14221   */\n      gt\n        /* \"#utility.yul\":14208:14244   */\n      iszero\n      tag_594\n      jumpi\n        /* \"#utility.yul\":14224:14242   */\n      tag_595\n      tag_396\n      jump\t// in\n    tag_595:\n        /* \"#utility.yul\":14208:14244   */\n    tag_594:\n        /* \"#utility.yul\":14060:14251   */\n      swap3\n      swap2\n      pop\n      pop\n      jump\t// out\n        /* \"#utility.yul\":14257:14427   */\n    tag_415:\n        /* \"#utility.yul\":14397:14419   */\n      0x746f6b656e732063616e74206265206275726e74000000000000000000000000\n        /* \"#utility.yul\":14393:14394   */\n      0x00\n        /* \"#utility.yul\":14385:14391   */\n      dup3\n        /* \"#utility.yul\":14381:14395   */\n      add\n        /* \"#utility.yul\":14374:14420   */\n      mstore\n        /* \"#utility.yul\":14257:14427   */\n      pop\n      jump\t// out\n        /* \"#utility.yul\":14433:14799   */\n    tag_416:\n        /* \"#utility.yul\":14575:14578   */\n      0x00\n        /* \"#utility.yul\":14596:14663   */\n      tag_598\n        /* \"#utility.yul\":14660:14662   */\n      0x14\n        /* \"#utility.yul\":14655:14658   */\n      dup4\n        /* \"#utility.yul\":14596:14663   */\n      tag_398\n      jump\t// in\n    tag_598:\n        /* \"#utility.yul\":14589:14663   */\n      swap2\n      pop\n        /* \"#utility.yul\":14672:14765   */\n      tag_599\n        /* \"#utility.yul\":14761:14764   */\n      dup3\n        /* \"#utility.yul\":14672:14765   */\n      tag_415\n      jump\t// in\n    tag_599:\n        /* \"#utility.yul\":14790:14792   */\n      0x20\n        /* \"#utility.yul\":14785:14788   */\n      dup3\n        /* \"#utility.yul\":14781:14793   */\n      add\n        /* \"#utility.yul\":14774:14793   */\n      swap1\n      pop\n        /* \"#utility.yul\":14433:14799   */\n      swap2\n      swap1\n      pop\n      jump\t// out\n        /* \"#utility.yul\":14805:15224   */\n    tag_257:\n        /* \"#utility.yul\":14971:14975   */\n      0x00\n        /* \"#utility.yul\":15009:15011   */\n      0x20\n        /* \"#utility.yul\":14998:15007   */\n      dup3\n        /* \"#utility.yul\":14994:15012   */\n      add\n        /* \"#utility.yul\":14986:15012   */\n      swap1\n      pop\n        /* \"#utility.yul\":15058:15067   */\n      dup2\n        /* \"#utility.yul\":15052:15056   */\n      dup2\n        /* \"#utility.yul\":15048:15068   */\n      sub\n        /* \"#utility.yul\":15044:15045   */\n      0x00\n        /* \"#utility.yul\":15033:15042   */\n      dup4\n        /* \"#utility.yul\":15029:15046   */\n      add\n        /* \"#utility.yul\":15022:15069   */\n      mstore\n        /* \"#utility.yul\":15086:15217   */\n      tag_601\n        /* \"#utility.yul\":15212:15216   */\n      dup2\n        /* \"#utility.yul\":15086:15217   */\n      tag_416\n      jump\t// in\n    tag_601:\n        /* \"#utility.yul\":15078:15217   */\n      swap1\n      pop\n        /* \"#utility.yul\":14805:15224   */\n      swap2\n      swap1\n      pop\n      jump\t// out\n        /* \"#utility.yul\":15230:15402   */\n    tag_417:\n        /* \"#utility.yul\":15370:15394   */\n      0x746f6b656e732068617665206265656e206275726e7400000000000000000000\n        /* \"#utility.yul\":15366:15367   */\n      0x00\n        /* \"#utility.yul\":15358:15364   */\n      dup3\n        /* \"#utility.yul\":15354:15368   */\n      add\n        /* \"#utility.yul\":15347:15395   */\n      mstore\n        /* \"#utility.yul\":15230:15402   */\n      pop\n      jump\t// out\n        /* \"#utility.yul\":15408:15774   */\n    tag_418:\n        /* \"#utility.yul\":15550:15553   */\n      0x00\n        /* \"#utility.yul\":15571:15638   */\n      tag_604\n        /* \"#utility.yul\":15635:15637   */\n      0x16\n        /* \"#utility.yul\":15630:15633   */\n      dup4\n        /* \"#utility.yul\":15571:15638   */\n      tag_398\n      jump\t// in\n    tag_604:\n        /* \"#utility.yul\":15564:15638   */\n      swap2\n      pop\n        /* \"#utility.yul\":15647:15740   */\n      tag_605\n        /* \"#utility.yul\":15736:15739   */\n      dup3\n        /* \"#utility.yul\":15647:15740   */\n      tag_417\n      jump\t// in\n    tag_605:\n        /* \"#utility.yul\":15765:15767   */\n      0x20\n        /* \"#utility.yul\":15760:15763   */\n      dup3\n        /* \"#utility.yul\":15756:15768   */\n      add\n        /* \"#utility.yul\":15749:15768   */\n      swap1\n      pop\n        /* \"#utility.yul\":15408:15774   */\n      swap2\n      swap1\n      pop\n      jump\t// out\n        /* \"#utility.yul\":15780:16199   */\n    tag_260:\n        /* \"#utility.yul\":15946:15950   */\n      0x00\n        /* \"#utility.yul\":15984:15986   */\n      0x20\n        /* \"#utility.yul\":15973:15982   */\n      dup3\n        /* \"#utility.yul\":15969:15987   */\n      add\n        /* \"#utility.yul\":15961:15987   */\n      swap1\n      pop\n        /* \"#utility.yul\":16033:16042   */\n      dup2\n        /* \"#utility.yul\":16027:16031   */\n      dup2\n        /* \"#utility.yul\":16023:16043   */\n      sub\n        /* \"#utility.yul\":16019:16020   */\n      0x00\n        /* \"#utility.yul\":16008:16017   */\n      dup4\n        /* \"#utility.yul\":16004:16021   */\n      add\n        /* \"#utility.yul\":15997:16044   */\n      mstore\n        /* \"#utility.yul\":16061:16192   */\n      tag_607\n        /* \"#utility.yul\":16187:16191   */\n      dup2\n        /* \"#utility.yul\":16061:16192   */\n      tag_418\n      jump\t// in\n    tag_607:\n        /* \"#utility.yul\":16053:16192   */\n      swap1\n      pop\n        /* \"#utility.yul\":15780:16199   */\n      swap2\n      swap1\n      pop\n      jump\t// out\n        /* \"#utility.yul\":16205:16384   */\n    tag_419:\n        /* \"#utility.yul\":16345:16376   */\n      0x70726963652063616e7420626520676f742066726f6d204f7261636c65000000\n        /* \"#utility.yul\":16341:16342   */\n      0x00\n        /* \"#utility.yul\":16333:16339   */\n      dup3\n        /* \"#utility.yul\":16329:16343   */\n      add\n        /* \"#utility.yul\":16322:16377   */\n      mstore\n        /* \"#utility.yul\":16205:16384   */\n      pop\n      jump\t// out\n        /* \"#utility.yul\":16390:16756   */\n    tag_420:\n        /* \"#utility.yul\":16532:16535   */\n      0x00\n        /* \"#utility.yul\":16553:16620   */\n      tag_610\n        /* \"#utility.yul\":16617:16619   */\n      0x1d\n        /* \"#utility.yul\":16612:16615   */\n      dup4\n        /* \"#utility.yul\":16553:16620   */\n      tag_398\n      jump\t// in\n    tag_610:\n        /* \"#utility.yul\":16546:16620   */\n      swap2\n      pop\n        /* \"#utility.yul\":16629:16722   */\n      tag_611\n        /* \"#utility.yul\":16718:16721   */\n      dup3\n        /* \"#utility.yul\":16629:16722   */\n      tag_419\n      jump\t// in\n    tag_611:\n        /* \"#utility.yul\":16747:16749   */\n      0x20\n        /* \"#utility.yul\":16742:16745   */\n      dup3\n        /* \"#utility.yul\":16738:16750   */\n      add\n        /* \"#utility.yul\":16731:16750   */\n      swap1\n      pop\n        /* \"#utility.yul\":16390:16756   */\n      swap2\n      swap1\n      pop\n      jump\t// out\n        /* \"#utility.yul\":16762:17181   */\n    tag_311:\n        /* \"#utility.yul\":16928:16932   */\n      0x00\n        /* \"#utility.yul\":16966:16968   */\n      0x20\n        /* \"#utility.yul\":16955:16964   */\n      dup3\n        /* \"#utility.yul\":16951:16969   */\n      add\n        /* \"#utility.yul\":16943:16969   */\n      swap1\n      pop\n        /* \"#utility.yul\":17015:17024   */\n      dup2\n        /* \"#utility.yul\":17009:17013   */\n      dup2\n        /* \"#utility.yul\":17005:17025   */\n      sub\n        /* \"#utility.yul\":17001:17002   */\n      0x00\n        /* \"#utility.yul\":16990:16999   */\n      dup4\n        /* \"#utility.yul\":16986:17003   */\n      add\n        /* \"#utility.yul\":16979:17026   */\n      mstore\n        /* \"#utility.yul\":17043:17174   */\n      tag_613\n        /* \"#utility.yul\":17169:17173   */\n      dup2\n        /* \"#utility.yul\":17043:17174   */\n      tag_420\n      jump\t// in\n    tag_613:\n        /* \"#utility.yul\":17035:17174   */\n      swap1\n      pop\n        /* \"#utility.yul\":16762:17181   */\n      swap2\n      swap1\n      pop\n      jump\t// out\n        /* \"#utility.yul\":17187:17412   */\n    tag_421:\n        /* \"#utility.yul\":17327:17361   */\n      0x707269636520676f742066726f6d204f7261636c652062757420636f756c646e\n        /* \"#utility.yul\":17323:17324   */\n      0x00\n        /* \"#utility.yul\":17315:17321   */\n      dup3\n        /* \"#utility.yul\":17311:17325   */\n      add\n        /* \"#utility.yul\":17304:17362   */\n      mstore\n        /* \"#utility.yul\":17396:17404   */\n      0x74206d696e740000000000000000000000000000000000000000000000000000\n        /* \"#utility.yul\":17391:17393   */\n      0x20\n        /* \"#utility.yul\":17383:17389   */\n      dup3\n        /* \"#utility.yul\":17379:17394   */\n      add\n        /* \"#utility.yul\":17372:17405   */\n      mstore\n        /* \"#utility.yul\":17187:17412   */\n      pop\n      jump\t// out\n        /* \"#utility.yul\":17418:17784   */\n    tag_422:\n        /* \"#utility.yul\":17560:17563   */\n      0x00\n        /* \"#utility.yul\":17581:17648   */\n      tag_616\n        /* \"#utility.yul\":17645:17647   */\n      0x26\n        /* \"#utility.yul\":17640:17643   */\n      dup4\n        /* \"#utility.yul\":17581:17648   */\n      tag_398\n      jump\t// in\n    tag_616:\n        /* \"#utility.yul\":17574:17648   */\n      swap2\n      pop\n        /* \"#utility.yul\":17657:17750   */\n      tag_617\n        /* \"#utility.yul\":17746:17749   */\n      dup3\n        /* \"#utility.yul\":17657:17750   */\n      tag_421\n      jump\t// in\n    tag_617:\n        /* \"#utility.yul\":17775:17777   */\n      0x40\n        /* \"#utility.yul\":17770:17773   */\n      dup3\n        /* \"#utility.yul\":17766:17778   */\n      add\n        /* \"#utility.yul\":17759:17778   */\n      swap1\n      pop\n        /* \"#utility.yul\":17418:17784   */\n      swap2\n      swap1\n      pop\n      jump\t// out\n        /* \"#utility.yul\":17790:18209   */\n    tag_325:\n        /* \"#utility.yul\":17956:17960   */\n      0x00\n        /* \"#utility.yul\":17994:17996   */\n      0x20\n        /* \"#utility.yul\":17983:17992   */\n      dup3\n        /* \"#utility.yul\":17979:17997   */\n      add\n        /* \"#utility.yul\":17971:17997   */\n      swap1\n      pop\n        /* \"#utility.yul\":18043:18052   */\n      dup2\n        /* \"#utility.yul\":18037:18041   */\n      dup2\n        /* \"#utility.yul\":18033:18053   */\n      sub\n        /* \"#utility.yul\":18029:18030   */\n      0x00\n        /* \"#utility.yul\":18018:18027   */\n      dup4\n        /* \"#utility.yul\":18014:18031   */\n      add\n        /* \"#utility.yul\":18007:18054   */\n      mstore\n        /* \"#utility.yul\":18071:18202   */\n      tag_619\n        /* \"#utility.yul\":18197:18201   */\n      dup2\n        /* \"#utility.yul\":18071:18202   */\n      tag_422\n      jump\t// in\n    tag_619:\n        /* \"#utility.yul\":18063:18202   */\n      swap1\n      pop\n        /* \"#utility.yul\":17790:18209   */\n      swap2\n      swap1\n      pop\n      jump\t// out\n        /* \"#utility.yul\":18215:18397   */\n    tag_423:\n        /* \"#utility.yul\":18355:18389   */\n      0x746f6b656e73206d696e74656420746f2070726576696f757320686f6c646572\n        /* \"#utility.yul\":18351:18352   */\n      0x00\n        /* \"#utility.yul\":18343:18349   */\n      dup3\n        /* \"#utility.yul\":18339:18353   */\n      add\n        /* \"#utility.yul\":18332:18390   */\n      mstore\n        /* \"#utility.yul\":18215:18397   */\n      pop\n      jump\t// out\n        /* \"#utility.yul\":18403:18769   */\n    tag_424:\n        /* \"#utility.yul\":18545:18548   */\n      0x00\n        /* \"#utility.yul\":18566:18633   */\n      tag_622\n        /* \"#utility.yul\":18630:18632   */\n      0x20\n        /* \"#utility.yul\":18625:18628   */\n      dup4\n        /* \"#utility.yul\":18566:18633   */\n      tag_398\n      jump\t// in\n    tag_622:\n        /* \"#utility.yul\":18559:18633   */\n      swap2\n      pop\n        /* \"#utility.yul\":18642:18735   */\n      tag_623\n        /* \"#utility.yul\":18731:18734   */\n      dup3\n        /* \"#utility.yul\":18642:18735   */\n      tag_423\n      jump\t// in\n    tag_623:\n        /* \"#utility.yul\":18760:18762   */\n      0x20\n        /* \"#utility.yul\":18755:18758   */\n      dup3\n        /* \"#utility.yul\":18751:18763   */\n      add\n        /* \"#utility.yul\":18744:18763   */\n      swap1\n      pop\n        /* \"#utility.yul\":18403:18769   */\n      swap2\n      swap1\n      pop\n      jump\t// out\n        /* \"#utility.yul\":18775:19194   */\n    tag_328:\n        /* \"#utility.yul\":18941:18945   */\n      0x00\n        /* \"#utility.yul\":18979:18981   */\n      0x20\n        /* \"#utility.yul\":18968:18977   */\n      dup3\n        /* \"#utility.yul\":18964:18982   */\n      add\n        /* \"#utility.yul\":18956:18982   */\n      swap1\n      pop\n        /* \"#utility.yul\":19028:19037   */\n      dup2\n        /* \"#utility.yul\":19022:19026   */\n      dup2\n        /* \"#utility.yul\":19018:19038   */\n      sub\n        /* \"#utility.yul\":19014:19015   */\n      0x00\n        /* \"#utility.yul\":19003:19012   */\n      dup4\n        /* \"#utility.yul\":18999:19016   */\n      add\n        /* \"#utility.yul\":18992:19039   */\n      mstore\n        /* \"#utility.yul\":19056:19187   */\n      tag_625\n        /* \"#utility.yul\":19182:19186   */\n      dup2\n        /* \"#utility.yul\":19056:19187   */\n      tag_424\n      jump\t// in\n    tag_625:\n        /* \"#utility.yul\":19048:19187   */\n      swap1\n      pop\n        /* \"#utility.yul\":18775:19194   */\n      swap2\n      swap1\n      pop\n      jump\t// out\n        /* \"#utility.yul\":19200:19420   */\n    tag_425:\n        /* \"#utility.yul\":19340:19374   */\n      0x63616e74206765742062616c616e6365206f66207468697320636f6e74726163\n        /* \"#utility.yul\":19336:19337   */\n      0x00\n        /* \"#utility.yul\":19328:19334   */\n      dup3\n        /* \"#utility.yul\":19324:19338   */\n      add\n        /* \"#utility.yul\":19317:19375   */\n      mstore\n        /* \"#utility.yul\":19409:19412   */\n      0x7400000000000000000000000000000000000000000000000000000000000000\n        /* \"#utility.yul\":19404:19406   */\n      0x20\n        /* \"#utility.yul\":19396:19402   */\n      dup3\n        /* \"#utility.yul\":19392:19407   */\n      add\n        /* \"#utility.yul\":19385:19413   */\n      mstore\n        /* \"#utility.yul\":19200:19420   */\n      pop\n      jump\t// out\n        /* \"#utility.yul\":19426:19792   */\n    tag_426:\n        /* \"#utility.yul\":19568:19571   */\n      0x00\n        /* \"#utility.yul\":19589:19656   */\n      tag_628\n        /* \"#utility.yul\":19653:19655   */\n      0x21\n        /* \"#utility.yul\":19648:19651   */\n      dup4\n        /* \"#utility.yul\":19589:19656   */\n      tag_398\n      jump\t// in\n    tag_628:\n        /* \"#utility.yul\":19582:19656   */\n      swap2\n      pop\n        /* \"#utility.yul\":19665:19758   */\n      tag_629\n        /* \"#utility.yul\":19754:19757   */\n      dup3\n        /* \"#utility.yul\":19665:19758   */\n      tag_425\n      jump\t// in\n    tag_629:\n        /* \"#utility.yul\":19783:19785   */\n      0x40\n        /* \"#utility.yul\":19778:19781   */\n      dup3\n        /* \"#utility.yul\":19774:19786   */\n      add\n        /* \"#utility.yul\":19767:19786   */\n      swap1\n      pop\n        /* \"#utility.yul\":19426:19792   */\n      swap2\n      swap1\n      pop\n      jump\t// out\n        /* \"#utility.yul\":19798:20217   */\n    tag_338:\n        /* \"#utility.yul\":19964:19968   */\n      0x00\n        /* \"#utility.yul\":20002:20004   */\n      0x20\n        /* \"#utility.yul\":19991:20000   */\n      dup3\n        /* \"#utility.yul\":19987:20005   */\n      add\n        /* \"#utility.yul\":19979:20005   */\n      swap1\n      pop\n        /* \"#utility.yul\":20051:20060   */\n      dup2\n        /* \"#utility.yul\":20045:20049   */\n      dup2\n        /* \"#utility.yul\":20041:20061   */\n      sub\n        /* \"#utility.yul\":20037:20038   */\n      0x00\n        /* \"#utility.yul\":20026:20035   */\n      dup4\n        /* \"#utility.yul\":20022:20039   */\n      add\n        /* \"#utility.yul\":20015:20062   */\n      mstore\n        /* \"#utility.yul\":20079:20210   */\n      tag_631\n        /* \"#utility.yul\":20205:20209   */\n      dup2\n        /* \"#utility.yul\":20079:20210   */\n      tag_426\n      jump\t// in\n    tag_631:\n        /* \"#utility.yul\":20071:20210   */\n      swap1\n      pop\n        /* \"#utility.yul\":19798:20217   */\n      swap2\n      swap1\n      pop\n      jump\t// out\n        /* \"#utility.yul\":20223:20399   */\n    tag_427:\n        /* \"#utility.yul\":20363:20391   */\n      0x63616e74206765742070726963652066726f6d204f7261636c65000000000000\n        /* \"#utility.yul\":20359:20360   */\n      0x00\n        /* \"#utility.yul\":20351:20357   */\n      dup3\n        /* \"#utility.yul\":20347:20361   */\n      add\n        /* \"#utility.yul\":20340:20392   */\n      mstore\n        /* \"#utility.yul\":20223:20399   */\n      pop\n      jump\t// out\n        /* \"#utility.yul\":20405:20771   */\n    tag_428:\n        /* \"#utility.yul\":20547:20550   */\n      0x00\n        /* \"#utility.yul\":20568:20635   */\n      tag_634\n        /* \"#utility.yul\":20632:20634   */\n      0x1a\n        /* \"#utility.yul\":20627:20630   */\n      dup4\n        /* \"#utility.yul\":20568:20635   */\n      tag_398\n      jump\t// in\n    tag_634:\n        /* \"#utility.yul\":20561:20635   */\n      swap2\n      pop\n        /* \"#utility.yul\":20644:20737   */\n      tag_635\n        /* \"#utility.yul\":20733:20736   */\n      dup3\n        /* \"#utility.yul\":20644:20737   */\n      tag_427\n      jump\t// in\n    tag_635:\n        /* \"#utility.yul\":20762:20764   */\n      0x20\n        /* \"#utility.yul\":20757:20760   */\n      dup3\n        /* \"#utility.yul\":20753:20765   */\n      add\n        /* \"#utility.yul\":20746:20765   */\n      swap1\n      pop\n        /* \"#utility.yul\":20405:20771   */\n      swap2\n      swap1\n      pop\n      jump\t// out\n        /* \"#utility.yul\":20777:21196   */\n    tag_352:\n        /* \"#utility.yul\":20943:20947   */\n      0x00\n        /* \"#utility.yul\":20981:20983   */\n      0x20\n        /* \"#utility.yul\":20970:20979   */\n      dup3\n        /* \"#utility.yul\":20966:20984   */\n      add\n        /* \"#utility.yul\":20958:20984   */\n      swap1\n      pop\n        /* \"#utility.yul\":21030:21039   */\n      dup2\n        /* \"#utility.yul\":21024:21028   */\n      dup2\n        /* \"#utility.yul\":21020:21040   */\n      sub\n        /* \"#utility.yul\":21016:21017   */\n      0x00\n        /* \"#utility.yul\":21005:21014   */\n      dup4\n        /* \"#utility.yul\":21001:21018   */\n      add\n        /* \"#utility.yul\":20994:21041   */\n      mstore\n        /* \"#utility.yul\":21058:21189   */\n      tag_637\n        /* \"#utility.yul\":21184:21188   */\n      dup2\n        /* \"#utility.yul\":21058:21189   */\n      tag_428\n      jump\t// in\n    tag_637:\n        /* \"#utility.yul\":21050:21189   */\n      swap1\n      pop\n        /* \"#utility.yul\":20777:21196   */\n      swap2\n      swap1\n      pop\n      jump\t// out\n        /* \"#utility.yul\":21202:21378   */\n    tag_429:\n        /* \"#utility.yul\":21342:21370   */\n      0x6e756d626572206f6620546f6b656e7320746f20427579206973000000000000\n        /* \"#utility.yul\":21338:21339   */\n      0x00\n        /* \"#utility.yul\":21330:21336   */\n      dup3\n        /* \"#utility.yul\":21326:21340   */\n      add\n        /* \"#utility.yul\":21319:21371   */\n      mstore\n        /* \"#utility.yul\":21202:21378   */\n      pop\n      jump\t// out\n        /* \"#utility.yul\":21384:21750   */\n    tag_430:\n        /* \"#utility.yul\":21526:21529   */\n      0x00\n        /* \"#utility.yul\":21547:21614   */\n      tag_640\n        /* \"#utility.yul\":21611:21613   */\n      0x1a\n        /* \"#utility.yul\":21606:21609   */\n      dup4\n        /* \"#utility.yul\":21547:21614   */\n      tag_398\n      jump\t// in\n    tag_640:\n        /* \"#utility.yul\":21540:21614   */\n      swap2\n      pop\n        /* \"#utility.yul\":21623:21716   */\n      tag_641\n        /* \"#utility.yul\":21712:21715   */\n      dup3\n        /* \"#utility.yul\":21623:21716   */\n      tag_429\n      jump\t// in\n    tag_641:\n        /* \"#utility.yul\":21741:21743   */\n      0x20\n        /* \"#utility.yul\":21736:21739   */\n      dup3\n        /* \"#utility.yul\":21732:21744   */\n      add\n        /* \"#utility.yul\":21725:21744   */\n      swap1\n      pop\n        /* \"#utility.yul\":21384:21750   */\n      swap2\n      swap1\n      pop\n      jump\t// out\n        /* \"#utility.yul\":21756:22175   */\n    tag_359:\n        /* \"#utility.yul\":21922:21926   */\n      0x00\n        /* \"#utility.yul\":21960:21962   */\n      0x20\n        /* \"#utility.yul\":21949:21958   */\n      dup3\n        /* \"#utility.yul\":21945:21963   */\n      add\n        /* \"#utility.yul\":21937:21963   */\n      swap1\n      pop\n        /* \"#utility.yul\":22009:22018   */\n      dup2\n        /* \"#utility.yul\":22003:22007   */\n      dup2\n        /* \"#utility.yul\":21999:22019   */\n      sub\n        /* \"#utility.yul\":21995:21996   */\n      0x00\n        /* \"#utility.yul\":21984:21993   */\n      dup4\n        /* \"#utility.yul\":21980:21997   */\n      add\n        /* \"#utility.yul\":21973:22020   */\n      mstore\n        /* \"#utility.yul\":22037:22168   */\n      tag_643\n        /* \"#utility.yul\":22163:22167   */\n      dup2\n        /* \"#utility.yul\":22037:22168   */\n      tag_430\n      jump\t// in\n    tag_643:\n        /* \"#utility.yul\":22029:22168   */\n      swap1\n      pop\n        /* \"#utility.yul\":21756:22175   */\n      swap2\n      swap1\n      pop\n      jump\t// out\n        /* \"#utility.yul\":22181:22292   */\n    tag_431:\n        /* \"#utility.yul\":22245:22251   */\n      0x00\n        /* \"#utility.yul\":22279:22284   */\n      dup2\n        /* \"#utility.yul\":22273:22285   */\n      sload\n        /* \"#utility.yul\":22263:22285   */\n      swap1\n      pop\n        /* \"#utility.yul\":22181:22292   */\n      swap2\n      swap1\n      pop\n      jump\t// out\n        /* \"#utility.yul\":22298:22482   */\n    tag_432:\n        /* \"#utility.yul\":22397:22408   */\n      0x00\n        /* \"#utility.yul\":22431:22437   */\n      dup3\n        /* \"#utility.yul\":22426:22429   */\n      dup3\n        /* \"#utility.yul\":22419:22438   */\n      mstore\n        /* \"#utility.yul\":22471:22475   */\n      0x20\n        /* \"#utility.yul\":22466:22469   */\n      dup3\n        /* \"#utility.yul\":22462:22476   */\n      add\n        /* \"#utility.yul\":22447:22476   */\n      swap1\n      pop\n        /* \"#utility.yul\":22298:22482   */\n      swap3\n      swap2\n      pop\n      pop\n      jump\t// out\n        /* \"#utility.yul\":22488:22644   */\n    tag_433:\n        /* \"#utility.yul\":22552:22556   */\n      0x00\n        /* \"#utility.yul\":22575:22578   */\n      dup2\n        /* \"#utility.yul\":22567:22578   */\n      swap1\n      pop\n        /* \"#utility.yul\":22598:22601   */\n      dup2\n        /* \"#utility.yul\":22595:22596   */\n      0x00\n        /* \"#utility.yul\":22588:22602   */\n      mstore\n        /* \"#utility.yul\":22632:22636   */\n      0x20\n        /* \"#utility.yul\":22629:22630   */\n      0x00\n        /* \"#utility.yul\":22619:22637   */\n      keccak256\n        /* \"#utility.yul\":22611:22637   */\n      swap1\n      pop\n        /* \"#utility.yul\":22488:22644   */\n      swap2\n      swap1\n      pop\n      jump\t// out\n        /* \"#utility.yul\":22650:22758   */\n    tag_434:\n        /* \"#utility.yul\":22727:22751   */\n      tag_648\n        /* \"#utility.yul\":22745:22750   */\n      dup2\n        /* \"#utility.yul\":22727:22751   */\n      tag_384\n      jump\t// in\n    tag_648:\n        /* \"#utility.yul\":22722:22725   */\n      dup3\n        /* \"#utility.yul\":22715:22752   */\n      mstore\n        /* \"#utility.yul\":22650:22758   */\n      pop\n      pop\n      jump\t// out\n        /* \"#utility.yul\":22764:22943   */\n    tag_435:\n        /* \"#utility.yul\":22833:22843   */\n      0x00\n        /* \"#utility.yul\":22854:22900   */\n      tag_650\n        /* \"#utility.yul\":22896:22899   */\n      dup4\n        /* \"#utility.yul\":22888:22894   */\n      dup4\n        /* \"#utility.yul\":22854:22900   */\n      tag_434\n      jump\t// in\n    tag_650:\n        /* \"#utility.yul\":22932:22936   */\n      0x20\n        /* \"#utility.yul\":22927:22930   */\n      dup4\n        /* \"#utility.yul\":22923:22937   */\n      add\n        /* \"#utility.yul\":22909:22937   */\n      swap1\n      pop\n        /* \"#utility.yul\":22764:22943   */\n      swap3\n      swap2\n      pop\n      pop\n      jump\t// out\n        /* \"#utility.yul\":22949:23051   */\n    tag_436:\n        /* \"#utility.yul\":22991:22999   */\n      0x00\n        /* \"#utility.yul\":23038:23043   */\n      dup2\n        /* \"#utility.yul\":23035:23036   */\n      0x00\n        /* \"#utility.yul\":23031:23044   */\n      shr\n        /* \"#utility.yul\":23010:23044   */\n      swap1\n      pop\n        /* \"#utility.yul\":22949:23051   */\n      swap2\n      swap1\n      pop\n      jump\t// out\n        /* \"#utility.yul\":23057:23196   */\n    tag_437:\n        /* \"#utility.yul\":23107:23114   */\n      0x00\n        /* \"#utility.yul\":23147:23189   */\n      0xffffffffffffffffffffffffffffffffffffffff\n        /* \"#utility.yul\":23140:23145   */\n      dup3\n        /* \"#utility.yul\":23136:23190   */\n      and\n        /* \"#utility.yul\":23125:23190   */\n      swap1\n      pop\n        /* \"#utility.yul\":23057:23196   */\n      swap2\n      swap1\n      pop\n      jump\t// out\n        /* \"#utility.yul\":23202:23368   */\n    tag_438:\n        /* \"#utility.yul\":23271:23276   */\n      0x00\n        /* \"#utility.yul\":23296:23362   */\n      tag_654\n        /* \"#utility.yul\":23327:23361   */\n      tag_655\n        /* \"#utility.yul\":23350:23360   */\n      dup4\n        /* \"#utility.yul\":23327:23361   */\n      tag_436\n      jump\t// in\n    tag_655:\n        /* \"#utility.yul\":23296:23362   */\n      tag_437\n      jump\t// in\n    tag_654:\n        /* \"#utility.yul\":23287:23362   */\n      swap1\n      pop\n        /* \"#utility.yul\":23202:23368   */\n      swap2\n      swap1\n      pop\n      jump\t// out\n        /* \"#utility.yul\":23374:23518   */\n    tag_439:\n        /* \"#utility.yul\":23429:23434   */\n      0x00\n        /* \"#utility.yul\":23454:23511   */\n      tag_657\n        /* \"#utility.yul\":23505:23509   */\n      dup3\n        /* \"#utility.yul\":23499:23510   */\n      sload\n        /* \"#utility.yul\":23454:23511   */\n      tag_438\n      jump\t// in\n    tag_657:\n        /* \"#utility.yul\":23445:23511   */\n      swap1\n      pop\n        /* \"#utility.yul\":23374:23518   */\n      swap2\n      swap1\n      pop\n      jump\t// out\n        /* \"#utility.yul\":23524:23634   */\n    tag_440:\n        /* \"#utility.yul\":23591:23595   */\n      0x00\n        /* \"#utility.yul\":23623:23627   */\n      0x01\n        /* \"#utility.yul\":23618:23621   */\n      dup3\n        /* \"#utility.yul\":23614:23628   */\n      add\n        /* \"#utility.yul\":23606:23628   */\n      swap1\n      pop\n        /* \"#utility.yul\":23524:23634   */\n      swap2\n      swap1\n      pop\n      jump\t// out\n        /* \"#utility.yul\":23670:24421   */\n    tag_441:\n        /* \"#utility.yul\":23786:23789   */\n      0x00\n        /* \"#utility.yul\":23815:23866   */\n      tag_660\n        /* \"#utility.yul\":23860:23865   */\n      dup3\n        /* \"#utility.yul\":23815:23866   */\n      tag_431\n      jump\t// in\n    tag_660:\n        /* \"#utility.yul\":23882:23968   */\n      tag_661\n        /* \"#utility.yul\":23961:23967   */\n      dup2\n        /* \"#utility.yul\":23956:23959   */\n      dup6\n        /* \"#utility.yul\":23882:23968   */\n      tag_432\n      jump\t// in\n    tag_661:\n        /* \"#utility.yul\":23875:23968   */\n      swap4\n      pop\n        /* \"#utility.yul\":23992:24045   */\n      tag_662\n        /* \"#utility.yul\":24039:24044   */\n      dup4\n        /* \"#utility.yul\":23992:24045   */\n      tag_433\n      jump\t// in\n    tag_662:\n        /* \"#utility.yul\":24068:24075   */\n      dup1\n        /* \"#utility.yul\":24099:24100   */\n      0x00\n        /* \"#utility.yul\":24084:24396   */\n    tag_663:\n        /* \"#utility.yul\":24109:24115   */\n      dup4\n        /* \"#utility.yul\":24106:24107   */\n      dup2\n        /* \"#utility.yul\":24103:24116   */\n      lt\n        /* \"#utility.yul\":24084:24396   */\n      iszero\n      tag_665\n      jumpi\n        /* \"#utility.yul\":24179:24223   */\n      tag_666\n        /* \"#utility.yul\":24216:24222   */\n      dup3\n        /* \"#utility.yul\":24179:24223   */\n      tag_439\n      jump\t// in\n    tag_666:\n        /* \"#utility.yul\":24243:24306   */\n      tag_667\n        /* \"#utility.yul\":24302:24305   */\n      dup9\n        /* \"#utility.yul\":24287:24300   */\n      dup3\n        /* \"#utility.yul\":24243:24306   */\n      tag_435\n      jump\t// in\n    tag_667:\n        /* \"#utility.yul\":24236:24306   */\n      swap8\n      pop\n        /* \"#utility.yul\":24329:24386   */\n      tag_668\n        /* \"#utility.yul\":24379:24385   */\n      dup4\n        /* \"#utility.yul\":24329:24386   */\n      tag_440\n      jump\t// in\n    tag_668:\n        /* \"#utility.yul\":24319:24386   */\n      swap3\n      pop\n        /* \"#utility.yul\":24144:24396   */\n      pop\n        /* \"#utility.yul\":24131:24132   */\n      0x01\n        /* \"#utility.yul\":24128:24129   */\n      dup2\n        /* \"#utility.yul\":24124:24133   */\n      add\n        /* \"#utility.yul\":24119:24133   */\n      swap1\n      pop\n        /* \"#utility.yul\":24084:24396   */\n      jump(tag_663)\n    tag_665:\n        /* \"#utility.yul\":24088:24102   */\n      pop\n        /* \"#utility.yul\":24412:24415   */\n      dup6\n        /* \"#utility.yul\":24405:24415   */\n      swap4\n      pop\n        /* \"#utility.yul\":23791:24421   */\n      pop\n      pop\n      pop\n        /* \"#utility.yul\":23670:24421   */\n      swap3\n      swap2\n      pop\n      pop\n      jump\t// out\n        /* \"#utility.yul\":24427:25125   */\n    tag_362:\n        /* \"#utility.yul\":24651:24655   */\n      0x00\n        /* \"#utility.yul\":24689:24692   */\n      0x80\n        /* \"#utility.yul\":24678:24687   */\n      dup3\n        /* \"#utility.yul\":24674:24693   */\n      add\n        /* \"#utility.yul\":24666:24693   */\n      swap1\n      pop\n        /* \"#utility.yul\":24703:24774   */\n      tag_670\n        /* \"#utility.yul\":24771:24772   */\n      0x00\n        /* \"#utility.yul\":24760:24769   */\n      dup4\n        /* \"#utility.yul\":24756:24773   */\n      add\n        /* \"#utility.yul\":24747:24753   */\n      dup8\n        /* \"#utility.yul\":24703:24774   */\n      tag_391\n      jump\t// in\n    tag_670:\n        /* \"#utility.yul\":24821:24830   */\n      dup2\n        /* \"#utility.yul\":24815:24819   */\n      dup2\n        /* \"#utility.yul\":24811:24831   */\n      sub\n        /* \"#utility.yul\":24806:24808   */\n      0x20\n        /* \"#utility.yul\":24795:24804   */\n      dup4\n        /* \"#utility.yul\":24791:24809   */\n      add\n        /* \"#utility.yul\":24784:24832   */\n      mstore\n        /* \"#utility.yul\":24849:24954   */\n      tag_671\n        /* \"#utility.yul\":24949:24953   */\n      dup2\n        /* \"#utility.yul\":24940:24946   */\n      dup7\n        /* \"#utility.yul\":24849:24954   */\n      tag_441\n      jump\t// in\n    tag_671:\n        /* \"#utility.yul\":24841:24954   */\n      swap1\n      pop\n        /* \"#utility.yul\":24964:25036   */\n      tag_672\n        /* \"#utility.yul\":25032:25034   */\n      0x40\n        /* \"#utility.yul\":25021:25030   */\n      dup4\n        /* \"#utility.yul\":25017:25035   */\n      add\n        /* \"#utility.yul\":25008:25014   */\n      dup6\n        /* \"#utility.yul\":24964:25036   */\n      tag_387\n      jump\t// in\n    tag_672:\n        /* \"#utility.yul\":25046:25118   */\n      tag_673\n        /* \"#utility.yul\":25114:25116   */\n      0x60\n        /* \"#utility.yul\":25103:25112   */\n      dup4\n        /* \"#utility.yul\":25099:25117   */\n      add\n        /* \"#utility.yul\":25090:25096   */\n      dup5\n        /* \"#utility.yul\":25046:25118   */\n      tag_391\n      jump\t// in\n    tag_673:\n        /* \"#utility.yul\":24427:25125   */\n      swap6\n      swap5\n      pop\n      pop\n      pop\n      pop\n      pop\n      jump\t// out\n        /* \"#utility.yul\":25131:25248   */\n    tag_442:\n        /* \"#utility.yul\":25240:25241   */\n      0x00\n        /* \"#utility.yul\":25237:25238   */\n      dup1\n        /* \"#utility.yul\":25230:25242   */\n      revert\n        /* \"#utility.yul\":25254:25356   */\n    tag_443:\n        /* \"#utility.yul\":25295:25301   */\n      0x00\n        /* \"#utility.yul\":25346:25348   */\n      0x1f\n        /* \"#utility.yul\":25342:25349   */\n      not\n        /* \"#utility.yul\":25337:25339   */\n      0x1f\n        /* \"#utility.yul\":25330:25335   */\n      dup4\n        /* \"#utility.yul\":25326:25340   */\n      add\n        /* \"#utility.yul\":25322:25350   */\n      and\n        /* \"#utility.yul\":25312:25350   */\n      swap1\n      pop\n        /* \"#utility.yul\":25254:25356   */\n      swap2\n      swap1\n      pop\n      jump\t// out\n        /* \"#utility.yul\":25362:25542   */\n    tag_444:\n        /* \"#utility.yul\":25410:25487   */\n      0x4e487b7100000000000000000000000000000000000000000000000000000000\n        /* \"#utility.yul\":25407:25408   */\n      0x00\n        /* \"#utility.yul\":25400:25488   */\n      mstore\n        /* \"#utility.yul\":25507:25511   */\n      0x41\n        /* \"#utility.yul\":25504:25505   */\n      0x04\n        /* \"#utility.yul\":25497:25512   */\n      mstore\n        /* \"#utility.yul\":25531:25535   */\n      0x24\n        /* \"#utility.yul\":25528:25529   */\n      0x00\n        /* \"#utility.yul\":25521:25536   */\n      revert\n        /* \"#utility.yul\":25548:25829   */\n    tag_445:\n        /* \"#utility.yul\":25631:25658   */\n      tag_678\n        /* \"#utility.yul\":25653:25657   */\n      dup3\n        /* \"#utility.yul\":25631:25658   */\n      tag_443\n      jump\t// in\n    tag_678:\n        /* \"#utility.yul\":25623:25629   */\n      dup2\n        /* \"#utility.yul\":25619:25659   */\n      add\n        /* \"#utility.yul\":25761:25767   */\n      dup2\n        /* \"#utility.yul\":25749:25759   */\n      dup2\n        /* \"#utility.yul\":25746:25768   */\n      lt\n        /* \"#utility.yul\":25725:25743   */\n      0xffffffffffffffff\n        /* \"#utility.yul\":25713:25723   */\n      dup3\n        /* \"#utility.yul\":25710:25744   */\n      gt\n        /* \"#utility.yul\":25707:25769   */\n      or\n        /* \"#utility.yul\":25704:25792   */\n      iszero\n      tag_679\n      jumpi\n        /* \"#utility.yul\":25772:25790   */\n      tag_680\n      tag_444\n      jump\t// in\n    tag_680:\n        /* \"#utility.yul\":25704:25792   */\n    tag_679:\n        /* \"#utility.yul\":25812:25822   */\n      dup1\n        /* \"#utility.yul\":25808:25810   */\n      0x40\n        /* \"#utility.yul\":25801:25823   */\n      mstore\n        /* \"#utility.yul\":25591:25829   */\n      pop\n        /* \"#utility.yul\":25548:25829   */\n      pop\n      pop\n      jump\t// out\n        /* \"#utility.yul\":25835:25964   */\n    tag_446:\n        /* \"#utility.yul\":25869:25875   */\n      0x00\n        /* \"#utility.yul\":25896:25916   */\n      tag_682\n      tag_380\n      jump\t// in\n    tag_682:\n        /* \"#utility.yul\":25886:25916   */\n      swap1\n      pop\n        /* \"#utility.yul\":25925:25958   */\n      tag_683\n        /* \"#utility.yul\":25953:25957   */\n      dup3\n        /* \"#utility.yul\":25945:25951   */\n      dup3\n        /* \"#utility.yul\":25925:25958   */\n      tag_445\n      jump\t// in\n    tag_683:\n        /* \"#utility.yul\":25835:25964   */\n      swap2\n      swap1\n      pop\n      jump\t// out\n        /* \"#utility.yul\":25970:26281   */\n    tag_447:\n        /* \"#utility.yul\":26047:26051   */\n      0x00\n        /* \"#utility.yul\":26137:26155   */\n      0xffffffffffffffff\n        /* \"#utility.yul\":26129:26135   */\n      dup3\n        /* \"#utility.yul\":26126:26156   */\n      gt\n        /* \"#utility.yul\":26123:26179   */\n      iszero\n      tag_685\n      jumpi\n        /* \"#utility.yul\":26159:26177   */\n      tag_686\n      tag_444\n      jump\t// in\n    tag_686:\n        /* \"#utility.yul\":26123:26179   */\n    tag_685:\n        /* \"#utility.yul\":26209:26213   */\n      0x20\n        /* \"#utility.yul\":26201:26207   */\n      dup3\n        /* \"#utility.yul\":26197:26214   */\n      mul\n        /* \"#utility.yul\":26189:26214   */\n      swap1\n      pop\n        /* \"#utility.yul\":26269:26273   */\n      0x20\n        /* \"#utility.yul\":26263:26267   */\n      dup2\n        /* \"#utility.yul\":26259:26274   */\n      add\n        /* \"#utility.yul\":26251:26274   */\n      swap1\n      pop\n        /* \"#utility.yul\":25970:26281   */\n      swap2\n      swap1\n      pop\n      jump\t// out\n        /* \"#utility.yul\":26287:26404   */\n    tag_448:\n        /* \"#utility.yul\":26396:26397   */\n      0x00\n        /* \"#utility.yul\":26393:26394   */\n      dup1\n        /* \"#utility.yul\":26386:26398   */\n      revert\n        /* \"#utility.yul\":26427:27159   */\n    tag_449:\n        /* \"#utility.yul\":26534:26539   */\n      0x00\n        /* \"#utility.yul\":26559:26640   */\n      tag_689\n        /* \"#utility.yul\":26575:26639   */\n      tag_690\n        /* \"#utility.yul\":26632:26638   */\n      dup5\n        /* \"#utility.yul\":26575:26639   */\n      tag_447\n      jump\t// in\n    tag_690:\n        /* \"#utility.yul\":26559:26640   */\n      tag_446\n      jump\t// in\n    tag_689:\n        /* \"#utility.yul\":26550:26640   */\n      swap1\n      pop\n        /* \"#utility.yul\":26660:26665   */\n      dup1\n        /* \"#utility.yul\":26689:26695   */\n      dup4\n        /* \"#utility.yul\":26682:26687   */\n      dup3\n        /* \"#utility.yul\":26675:26696   */\n      mstore\n        /* \"#utility.yul\":26723:26727   */\n      0x20\n        /* \"#utility.yul\":26716:26721   */\n      dup3\n        /* \"#utility.yul\":26712:26728   */\n      add\n        /* \"#utility.yul\":26705:26728   */\n      swap1\n      pop\n        /* \"#utility.yul\":26776:26780   */\n      0x20\n        /* \"#utility.yul\":26768:26774   */\n      dup5\n        /* \"#utility.yul\":26764:26781   */\n      mul\n        /* \"#utility.yul\":26756:26762   */\n      dup4\n        /* \"#utility.yul\":26752:26782   */\n      add\n        /* \"#utility.yul\":26805:26808   */\n      dup6\n        /* \"#utility.yul\":26797:26803   */\n      dup2\n        /* \"#utility.yul\":26794:26809   */\n      gt\n        /* \"#utility.yul\":26791:26913   */\n      iszero\n      tag_691\n      jumpi\n        /* \"#utility.yul\":26824:26903   */\n      tag_692\n      tag_448\n      jump\t// in\n    tag_692:\n        /* \"#utility.yul\":26791:26913   */\n    tag_691:\n        /* \"#utility.yul\":26939:26945   */\n      dup4\n        /* \"#utility.yul\":26922:27153   */\n    tag_693:\n        /* \"#utility.yul\":26956:26962   */\n      dup2\n        /* \"#utility.yul\":26951:26954   */\n      dup2\n        /* \"#utility.yul\":26948:26963   */\n      lt\n        /* \"#utility.yul\":26922:27153   */\n      iszero\n      tag_695\n      jumpi\n        /* \"#utility.yul\":27031:27034   */\n      dup1\n        /* \"#utility.yul\":27060:27108   */\n      tag_696\n        /* \"#utility.yul\":27104:27107   */\n      dup9\n        /* \"#utility.yul\":27092:27102   */\n      dup3\n        /* \"#utility.yul\":27060:27108   */\n      tag_392\n      jump\t// in\n    tag_696:\n        /* \"#utility.yul\":27055:27058   */\n      dup5\n        /* \"#utility.yul\":27048:27109   */\n      mstore\n        /* \"#utility.yul\":27138:27142   */\n      0x20\n        /* \"#utility.yul\":27133:27136   */\n      dup5\n        /* \"#utility.yul\":27129:27143   */\n      add\n        /* \"#utility.yul\":27122:27143   */\n      swap4\n      pop\n        /* \"#utility.yul\":26998:27153   */\n      pop\n        /* \"#utility.yul\":26982:26986   */\n      0x20\n        /* \"#utility.yul\":26977:26980   */\n      dup2\n        /* \"#utility.yul\":26973:26987   */\n      add\n        /* \"#utility.yul\":26966:26987   */\n      swap1\n      pop\n        /* \"#utility.yul\":26922:27153   */\n      jump(tag_693)\n    tag_695:\n        /* \"#utility.yul\":26926:26947   */\n      pop\n        /* \"#utility.yul\":26540:27159   */\n      pop\n      pop\n        /* \"#utility.yul\":26427:27159   */\n      swap4\n      swap3\n      pop\n      pop\n      pop\n      jump\t// out\n        /* \"#utility.yul\":27182:27567   */\n    tag_450:\n        /* \"#utility.yul\":27264:27269   */\n      0x00\n        /* \"#utility.yul\":27313:27316   */\n      dup3\n        /* \"#utility.yul\":27306:27310   */\n      0x1f\n        /* \"#utility.yul\":27298:27304   */\n      dup4\n        /* \"#utility.yul\":27294:27311   */\n      add\n        /* \"#utility.yul\":27290:27317   */\n      slt\n        /* \"#utility.yul\":27280:27402   */\n      tag_698\n      jumpi\n        /* \"#utility.yul\":27321:27400   */\n      tag_699\n      tag_442\n      jump\t// in\n    tag_699:\n        /* \"#utility.yul\":27280:27402   */\n    tag_698:\n        /* \"#utility.yul\":27431:27437   */\n      dup2\n        /* \"#utility.yul\":27425:27438   */\n      mload\n        /* \"#utility.yul\":27456:27561   */\n      tag_700\n        /* \"#utility.yul\":27557:27560   */\n      dup5\n        /* \"#utility.yul\":27549:27555   */\n      dup3\n        /* \"#utility.yul\":27542:27546   */\n      0x20\n        /* \"#utility.yul\":27534:27540   */\n      dup7\n        /* \"#utility.yul\":27530:27547   */\n      add\n        /* \"#utility.yul\":27456:27561   */\n      tag_449\n      jump\t// in\n    tag_700:\n        /* \"#utility.yul\":27447:27561   */\n      swap2\n      pop\n        /* \"#utility.yul\":27270:27567   */\n      pop\n        /* \"#utility.yul\":27182:27567   */\n      swap3\n      swap2\n      pop\n      pop\n      jump\t// out\n        /* \"#utility.yul\":27573:28127   */\n    tag_365:\n        /* \"#utility.yul\":27668:27674   */\n      0x00\n        /* \"#utility.yul\":27717:27719   */\n      0x20\n        /* \"#utility.yul\":27705:27714   */\n      dup3\n        /* \"#utility.yul\":27696:27703   */\n      dup5\n        /* \"#utility.yul\":27692:27715   */\n      sub\n        /* \"#utility.yul\":27688:27720   */\n      slt\n        /* \"#utility.yul\":27685:27804   */\n      iszero\n      tag_702\n      jumpi\n        /* \"#utility.yul\":27723:27802   */\n      tag_703\n      tag_381\n      jump\t// in\n    tag_703:\n        /* \"#utility.yul\":27685:27804   */\n    tag_702:\n        /* \"#utility.yul\":27864:27865   */\n      0x00\n        /* \"#utility.yul\":27853:27862   */\n      dup3\n        /* \"#utility.yul\":27849:27866   */\n      add\n        /* \"#utility.yul\":27843:27867   */\n      mload\n        /* \"#utility.yul\":27894:27912   */\n      0xffffffffffffffff\n        /* \"#utility.yul\":27886:27892   */\n      dup2\n        /* \"#utility.yul\":27883:27913   */\n      gt\n        /* \"#utility.yul\":27880:27997   */\n      iszero\n      tag_704\n      jumpi\n        /* \"#utility.yul\":27916:27995   */\n      tag_705\n      tag_382\n      jump\t// in\n    tag_705:\n        /* \"#utility.yul\":27880:27997   */\n    tag_704:\n        /* \"#utility.yul\":28021:28110   */\n      tag_706\n        /* \"#utility.yul\":28102:28109   */\n      dup5\n        /* \"#utility.yul\":28093:28099   */\n      dup3\n        /* \"#utility.yul\":28082:28091   */\n      dup6\n        /* \"#utility.yul\":28078:28100   */\n      add\n        /* \"#utility.yul\":28021:28110   */\n      tag_450\n      jump\t// in\n    tag_706:\n        /* \"#utility.yul\":28011:28110   */\n      swap2\n      pop\n        /* \"#utility.yul\":27814:28120   */\n      pop\n        /* \"#utility.yul\":27573:28127   */\n      swap3\n      swap2\n      pop\n      pop\n      jump\t// out\n        /* \"#utility.yul\":28133:28300   */\n    tag_451:\n        /* \"#utility.yul\":28273:28292   */\n      0x746f6b656e73206e6f7420626f75676874000000000000000000000000000000\n        /* \"#utility.yul\":28269:28270   */\n      0x00\n        /* \"#utility.yul\":28261:28267   */\n      dup3\n        /* \"#utility.yul\":28257:28271   */\n      add\n        /* \"#utility.yul\":28250:28293   */\n      mstore\n        /* \"#utility.yul\":28133:28300   */\n      pop\n      jump\t// out\n        /* \"#utility.yul\":28306:28672   */\n    tag_452:\n        /* \"#utility.yul\":28448:28451   */\n      0x00\n        /* \"#utility.yul\":28469:28536   */\n      tag_709\n        /* \"#utility.yul\":28533:28535   */\n      0x11\n        /* \"#utility.yul\":28528:28531   */\n      dup4\n        /* \"#utility.yul\":28469:28536   */\n      tag_398\n      jump\t// in\n    tag_709:\n        /* \"#utility.yul\":28462:28536   */\n      swap2\n      pop\n        /* \"#utility.yul\":28545:28638   */\n      tag_710\n        /* \"#utility.yul\":28634:28637   */\n      dup3\n        /* \"#utility.yul\":28545:28638   */\n      tag_451\n      jump\t// in\n    tag_710:\n        /* \"#utility.yul\":28663:28665   */\n      0x20\n        /* \"#utility.yul\":28658:28661   */\n      dup3\n        /* \"#utility.yul\":28654:28666   */\n      add\n        /* \"#utility.yul\":28647:28666   */\n      swap1\n      pop\n        /* \"#utility.yul\":28306:28672   */\n      swap2\n      swap1\n      pop\n      jump\t// out\n        /* \"#utility.yul\":28678:29097   */\n    tag_371:\n        /* \"#utility.yul\":28844:28848   */\n      0x00\n        /* \"#utility.yul\":28882:28884   */\n      0x20\n        /* \"#utility.yul\":28871:28880   */\n      dup3\n        /* \"#utility.yul\":28867:28885   */\n      add\n        /* \"#utility.yul\":28859:28885   */\n      swap1\n      pop\n        /* \"#utility.yul\":28931:28940   */\n      dup2\n        /* \"#utility.yul\":28925:28929   */\n      dup2\n        /* \"#utility.yul\":28921:28941   */\n      sub\n        /* \"#utility.yul\":28917:28918   */\n      0x00\n        /* \"#utility.yul\":28906:28915   */\n      dup4\n        /* \"#utility.yul\":28902:28919   */\n      add\n        /* \"#utility.yul\":28895:28942   */\n      mstore\n        /* \"#utility.yul\":28959:29090   */\n      tag_712\n        /* \"#utility.yul\":29085:29089   */\n      dup2\n        /* \"#utility.yul\":28959:29090   */\n      tag_452\n      jump\t// in\n    tag_712:\n        /* \"#utility.yul\":28951:29090   */\n      swap1\n      pop\n        /* \"#utility.yul\":28678:29097   */\n      swap2\n      swap1\n      pop\n      jump\t// out\n        /* \"#utility.yul\":29103:29266   */\n    tag_453:\n        /* \"#utility.yul\":29243:29258   */\n      0x746f6b656e7320626f7567687400000000000000000000000000000000000000\n        /* \"#utility.yul\":29239:29240   */\n      0x00\n        /* \"#utility.yul\":29231:29237   */\n      dup3\n        /* \"#utility.yul\":29227:29241   */\n      add\n        /* \"#utility.yul\":29220:29259   */\n      mstore\n        /* \"#utility.yul\":29103:29266   */\n      pop\n      jump\t// out\n        /* \"#utility.yul\":29272:29638   */\n    tag_454:\n        /* \"#utility.yul\":29414:29417   */\n      0x00\n        /* \"#utility.yul\":29435:29502   */\n      tag_715\n        /* \"#utility.yul\":29499:29501   */\n      0x0d\n        /* \"#utility.yul\":29494:29497   */\n      dup4\n        /* \"#utility.yul\":29435:29502   */\n      tag_398\n      jump\t// in\n    tag_715:\n        /* \"#utility.yul\":29428:29502   */\n      swap2\n      pop\n        /* \"#utility.yul\":29511:29604   */\n      tag_716\n        /* \"#utility.yul\":29600:29603   */\n      dup3\n        /* \"#utility.yul\":29511:29604   */\n      tag_453\n      jump\t// in\n    tag_716:\n        /* \"#utility.yul\":29629:29631   */\n      0x20\n        /* \"#utility.yul\":29624:29627   */\n      dup3\n        /* \"#utility.yul\":29620:29632   */\n      add\n        /* \"#utility.yul\":29613:29632   */\n      swap1\n      pop\n        /* \"#utility.yul\":29272:29638   */\n      swap2\n      swap1\n      pop\n      jump\t// out\n        /* \"#utility.yul\":29644:30063   */\n    tag_374:\n        /* \"#utility.yul\":29810:29814   */\n      0x00\n        /* \"#utility.yul\":29848:29850   */\n      0x20\n        /* \"#utility.yul\":29837:29846   */\n      dup3\n        /* \"#utility.yul\":29833:29851   */\n      add\n        /* \"#utility.yul\":29825:29851   */\n      swap1\n      pop\n        /* \"#utility.yul\":29897:29906   */\n      dup2\n        /* \"#utility.yul\":29891:29895   */\n      dup2\n        /* \"#utility.yul\":29887:29907   */\n      sub\n        /* \"#utility.yul\":29883:29884   */\n      0x00\n        /* \"#utility.yul\":29872:29881   */\n      dup4\n        /* \"#utility.yul\":29868:29885   */\n      add\n        /* \"#utility.yul\":29861:29908   */\n      mstore\n        /* \"#utility.yul\":29925:30056   */\n      tag_718\n        /* \"#utility.yul\":30051:30055   */\n      dup2\n        /* \"#utility.yul\":29925:30056   */\n      tag_454\n      jump\t// in\n    tag_718:\n        /* \"#utility.yul\":29917:30056   */\n      swap1\n      pop\n        /* \"#utility.yul\":29644:30063   */\n      swap2\n      swap1\n      pop\n      jump\t// out\n\n    auxdata: 0xa2646970667358221220ccae007a9a63409d4651732563fc4daaa141527b4a39599141cc4d1bda75a29a64736f6c63430008110033\n}\n",
				"bytecode": {
					"linkReferences": {},
					"object": "608060405273b4fbf271143f4fbf7b91a5ded31805e42b2208d66000806101000a81548173ffffffffffffffffffffffffffffffffffffffff021916908373ffffffffffffffffffffffffffffffffffffffff160217905550737a250d5630b4cf539739df2c5dacb4c659f2488d600660006101000a81548173ffffffffffffffffffffffffffffffffffffffff021916908373ffffffffffffffffffffffffffffffffffffffff160217905550600560009054906101000a900473ffffffffffffffffffffffffffffffffffffffff16600860006101000a81548173ffffffffffffffffffffffffffffffffffffffff021916908373ffffffffffffffffffffffffffffffffffffffff16021790555060008054906101000a900473ffffffffffffffffffffffffffffffffffffffff16600960006101000a81548173ffffffffffffffffffffffffffffffffffffffff021916908373ffffffffffffffffffffffffffffffffffffffff160217905550600360009054906101000a900473ffffffffffffffffffffffffffffffffffffffff16600a60006101000a81548173ffffffffffffffffffffffffffffffffffffffff021916908373ffffffffffffffffffffffffffffffffffffffff160217905550600660009054906101000a900473ffffffffffffffffffffffffffffffffffffffff16600b60006101000a81548173ffffffffffffffffffffffffffffffffffffffff021916908373ffffffffffffffffffffffffffffffffffffffff1602179055503480156200024457600080fd5b5060405162003bc438038062003bc483398181016040528101906200026a919062000938565b83600160006101000a81548173ffffffffffffffffffffffffffffffffffffffff021916908373ffffffffffffffffffffffffffffffffffffffff160217905550600160009054906101000a900473ffffffffffffffffffffffffffffffffffffffff1673ffffffffffffffffffffffffffffffffffffffff1663bd3733fe6040518163ffffffff1660e01b8152600401602060405180830381865afa15801562000319573d6000803e3d6000fd5b505050506040513d601f19601f820116820180604052508101906200033f9190620009aa565b600260006101000a81548173ffffffffffffffffffffffffffffffffffffffff021916908373ffffffffffffffffffffffffffffffffffffffff160217905550600160009054906101000a900473ffffffffffffffffffffffffffffffffffffffff1673ffffffffffffffffffffffffffffffffffffffff1663b18b78dd6040518163ffffffff1660e01b8152600401602060405180830381865afa158015620003ed573d6000803e3d6000fd5b505050506040513d601f19601f82011682018060405250810190620004139190620009aa565b600360006101000a81548173ffffffffffffffffffffffffffffffffffffffff021916908373ffffffffffffffffffffffffffffffffffffffff160217905550600360009054906101000a900473ffffffffffffffffffffffffffffffffffffffff16600a60006101000a81548173ffffffffffffffffffffffffffffffffffffffff021916908373ffffffffffffffffffffffffffffffffffffffff16021790555082600460006101000a81548173ffffffffffffffffffffffffffffffffffffffff021916908373ffffffffffffffffffffffffffffffffffffffff16021790555081600560006101000a81548173ffffffffffffffffffffffffffffffffffffffff021916908373ffffffffffffffffffffffffffffffffffffffff160217905550600560009054906101000a900473ffffffffffffffffffffffffffffffffffffffff16600860006101000a81548173ffffffffffffffffffffffffffffffffffffffff021916908373ffffffffffffffffffffffffffffffffffffffff160217905550620005ac816200076060201b60201c565b604051806040016040528060008054906101000a900473ffffffffffffffffffffffffffffffffffffffff1673ffffffffffffffffffffffffffffffffffffffff1673ffffffffffffffffffffffffffffffffffffffff168152602001600160009054906101000a900473ffffffffffffffffffffffffffffffffffffffff1673ffffffffffffffffffffffffffffffffffffffff1673ffffffffffffffffffffffffffffffffffffffff1681525060079060026200066d92919062000820565b50600160009054906101000a900473ffffffffffffffffffffffffffffffffffffffff1673ffffffffffffffffffffffffffffffffffffffff1663095ea7b3600660009054906101000a900473ffffffffffffffffffffffffffffffffffffffff167fffffffffffffffffffffffffffffffffffffffffffffffffffffffffffffffff6040518363ffffffff1660e01b81526004016200070f92919062000a08565b6020604051808303816000875af11580156200072f573d6000803e3d6000fd5b505050506040513d601f19601f8201168201806040525081019062000755919062000a72565b505050505062000aa4565b620007736000826200077660201b60201c565b50565b6000600d8054905090506000600c6000600d8054905081526020019081526020016000209050818160000181905550828160010160006101000a81548173ffffffffffffffffffffffffffffffffffffffff021916908373ffffffffffffffffffffffffffffffffffffffff160217905550838160020181905550600d82908060018154018082558091505060019003906000526020600020016000909190919091505550505050565b8280548282559060005260206000209081019282156200089c579160200282015b828111156200089b5782518260006101000a81548173ffffffffffffffffffffffffffffffffffffffff021916908373ffffffffffffffffffffffffffffffffffffffff1602179055509160200191906001019062000841565b5b509050620008ab9190620008af565b5090565b5b80821115620008ca576000816000905550600101620008b0565b5090565b600080fd5b600073ffffffffffffffffffffffffffffffffffffffff82169050919050565b60006200090082620008d3565b9050919050565b6200091281620008f3565b81146200091e57600080fd5b50565b600081519050620009328162000907565b92915050565b60008060008060808587031215620009555762000954620008ce565b5b6000620009658782880162000921565b9450506020620009788782880162000921565b93505060406200098b8782880162000921565b92505060606200099e8782880162000921565b91505092959194509250565b600060208284031215620009c357620009c2620008ce565b5b6000620009d38482850162000921565b91505092915050565b620009e781620008f3565b82525050565b6000819050919050565b62000a0281620009ed565b82525050565b600060408201905062000a1f6000830185620009dc565b62000a2e6020830184620009f7565b9392505050565b60008115159050919050565b62000a4c8162000a35565b811462000a5857600080fd5b50565b60008151905062000a6c8162000a41565b92915050565b60006020828403121562000a8b5762000a8a620008ce565b5b600062000a9b8482850162000a5b565b91505092915050565b6131108062000ab46000396000f3fe6080604052600436106101235760003560e01c8063a09ede07116100a0578063af6d1fe411610064578063af6d1fe4146103a8578063bd3733fe146103e5578063bfd9ea5b14610410578063c1f2e5f11461043b578063d4afa675146104665761012a565b8063a09ede07146102d1578063a6021ace146102fc578063a785a3d814610327578063a89ae4ba14610352578063aef751071461037d5761012a565b806351cff8d9116100e757806351cff8d914610209578063620a703c14610232578063777b506f1461025057806386d026081461027b5780639dd58b58146102a65761012a565b80630b2b4d9b1461012f5780631b017fde1461014b57806320ca3c7f146101745780632c4c3c1b1461019f5780634cfd1ba5146101de5761012a565b3661012a57005b600080fd5b61014960048036038101906101449190612265565b61048f565b005b34801561015757600080fd5b50610172600480360381019061016d9190612265565b6104a4565b005b34801561018057600080fd5b506101896104e8565b60405161019691906122a1565b60405180910390f35b3480156101ab57600080fd5b506101c660048036038101906101c191906122f2565b61050e565b6040516101d59392919061232e565b60405180910390f35b3480156101ea57600080fd5b506101f3610558565b6040516102009190612365565b60405180910390f35b34801561021557600080fd5b50610230600480360381019061022b9190612265565b61055e565b005b61023a610665565b6040516102479190612365565b60405180910390f35b34801561025c57600080fd5b50610265610bd3565b60405161027291906122a1565b60405180910390f35b34801561028757600080fd5b50610290610bf9565b60405161029d9190612365565b60405180910390f35b3480156102b257600080fd5b506102bb610bff565b6040516102c89190612365565b60405180910390f35b3480156102dd57600080fd5b506102e6610ca2565b6040516102f39190612365565b60405180910390f35b34801561030857600080fd5b50610311610ca8565b60405161031e91906122a1565b60405180910390f35b34801561033357600080fd5b5061033c610cce565b60405161034991906122a1565b60405180910390f35b34801561035e57600080fd5b50610367610cf2565b60405161037491906122a1565b60405180910390f35b34801561038957600080fd5b50610392610d18565b60405161039f91906122a1565b60405180910390f35b3480156103b457600080fd5b506103cf60048036038101906103ca91906122f2565b610d3e565b6040516103dc91906122a1565b60405180910390f35b3480156103f157600080fd5b506103fa610d7d565b60405161040791906122a1565b60405180910390f35b34801561041c57600080fd5b50610425610da3565b6040516104329190612365565b60405180910390f35b34801561044757600080fd5b50610450610dd2565b60405161045d9190612365565b60405180910390f35b34801561047257600080fd5b5061048d600480360381019061048891906122f2565b610f49565b005b6104993482610fdb565b6104a1611085565b50565b80600160006101000a81548173ffffffffffffffffffffffffffffffffffffffff021916908373ffffffffffffffffffffffffffffffffffffffff16021790555050565b600660009054906101000a900473ffffffffffffffffffffffffffffffffffffffff1681565b600c6020528060005260406000206000915090508060000154908060010160009054906101000a900473ffffffffffffffffffffffffffffffffffffffff16908060020154905083565b600f5481565b600081905060008173ffffffffffffffffffffffffffffffffffffffff166370a08231306040518263ffffffff1660e01b815260040161059e91906122a1565b602060405180830381865afa1580156105bb573d6000803e3d6000fd5b505050506040513d601f19601f820116820180604052508101906105df9190612395565b90508173ffffffffffffffffffffffffffffffffffffffff1663a9059cbb33836040518363ffffffff1660e01b815260040161061c9291906123c2565b6020604051808303816000875af115801561063b573d6000803e3d6000fd5b505050506040513d601f19601f8201168201806040525081019061065f9190612423565b50505050565b6000806000600160009054906101000a900473ffffffffffffffffffffffffffffffffffffffff1673ffffffffffffffffffffffffffffffffffffffff166370a08231306040518263ffffffff1660e01b81526004016106c591906122a1565b602060405180830381865afa1580156106e2573d6000803e3d6000fd5b505050506040513d601f19601f820116820180604052508101906107069190612395565b9050600060646069600a60009054906101000a900473ffffffffffffffffffffffffffffffffffffffff1673ffffffffffffffffffffffffffffffffffffffff16633ac3558560008054906101000a900473ffffffffffffffffffffffffffffffffffffffff16346040518363ffffffff1660e01b815260040161078b9291906123c2565b602060405180830381865afa1580156107a8573d6000803e3d6000fd5b505050506040513d601f19601f820116820180604052508101906107cc9190612395565b6107d6919061247f565b6107e091906124f0565b9050818111156109cf577fcf34ef537ac33ee1ac626ca1587a0a7e8e51561e5514f8cb36afa1c5102b3bab6040516108179061257e565b60405180910390a1600160009054906101000a900473ffffffffffffffffffffffffffffffffffffffff1673ffffffffffffffffffffffffffffffffffffffff166396fe83498383610869919061259e565b306040518363ffffffff1660e01b81526004016108879291906125d2565b600060405180830381600087803b1580156108a157600080fd5b505af11580156108b5573d6000803e3d6000fd5b505050507fcf34ef537ac33ee1ac626ca1587a0a7e8e51561e5514f8cb36afa1c5102b3bab6040516108e690612647565b60405180910390a17f909c57d5c6ac08245cf2a6de3900e2b868513fa59099b92b27d8db823d92df9c828261091b919061259e565b6040516109289190612365565b60405180910390a1600160009054906101000a900473ffffffffffffffffffffffffffffffffffffffff1673ffffffffffffffffffffffffffffffffffffffff166370a08231306040518263ffffffff1660e01b815260040161098b91906122a1565b602060405180830381865afa1580156109a8573d6000803e3d6000fd5b505050506040513d601f19601f820116820180604052508101906109cc9190612395565b91505b600b60009054906101000a900473ffffffffffffffffffffffffffffffffffffffff1673ffffffffffffffffffffffffffffffffffffffff1663f305d71934308460006064605f34610a21919061247f565b610a2b91906124f0565b307fffffffffffffffffffffffffffffffffffffffffffffffffffffffffffffffff6040518863ffffffff1660e01b8152600401610a6e969594939291906126ac565b60606040518083038185885af193505050508015610aaa57506040513d601f19601f82011682018060405250810190610aa7919061270d565b60015b610ae8577fcf34ef537ac33ee1ac626ca1587a0a7e8e51561e5514f8cb36afa1c5102b3bab604051610adb906127ac565b60405180910390a1610bca565b5050507fcf34ef537ac33ee1ac626ca1587a0a7e8e51561e5514f8cb36afa1c5102b3bab604051610b1890612818565b60405180910390a1600160009054906101000a900473ffffffffffffffffffffffffffffffffffffffff1673ffffffffffffffffffffffffffffffffffffffff166370a08231306040518263ffffffff1660e01b8152600401610b7b91906122a1565b602060405180830381865afa158015610b98573d6000803e3d6000fd5b505050506040513d601f19601f82011682018060405250810190610bbc9190612395565b82610bc7919061259e565b92505b82935050505090565b600460009054906101000a900473ffffffffffffffffffffffffffffffffffffffff1681565b600e5481565b6000600960009054906101000a900473ffffffffffffffffffffffffffffffffffffffff1673ffffffffffffffffffffffffffffffffffffffff166370a08231306040518263ffffffff1660e01b8152600401610c5c91906122a1565b602060405180830381865afa158015610c79573d6000803e3d6000fd5b505050506040513d601f19601f82011682018060405250810190610c9d9190612395565b905090565b60105481565b600160009054906101000a900473ffffffffffffffffffffffffffffffffffffffff1681565b60008054906101000a900473ffffffffffffffffffffffffffffffffffffffff1681565b600360009054906101000a900473ffffffffffffffffffffffffffffffffffffffff1681565b600560009054906101000a900473ffffffffffffffffffffffffffffffffffffffff1681565b60078181548110610d4e57600080fd5b906000526020600020016000915054906101000a900473ffffffffffffffffffffffffffffffffffffffff1681565b600260009054906101000a900473ffffffffffffffffffffffffffffffffffffffff1681565b6000600c60006001600d80549050610dbb919061259e565b815260200190815260200160002060020154905090565b600080600160009054906101000a900473ffffffffffffffffffffffffffffffffffffffff1673ffffffffffffffffffffffffffffffffffffffff166318160ddd6040518163ffffffff1660e01b8152600401602060405180830381865afa158015610e42573d6000803e3d6000fd5b505050506040513d601f19601f82011682018060405250810190610e669190612395565b90506000600160009054906101000a900473ffffffffffffffffffffffffffffffffffffffff1673ffffffffffffffffffffffffffffffffffffffff166370a08231600260009054906101000a900473ffffffffffffffffffffffffffffffffffffffff166040518263ffffffff1660e01b8152600401610ee791906122a1565b602060405180830381865afa158015610f04573d6000803e3d6000fd5b505050506040513d601f19601f82011682018060405250810190610f289190612395565b905081606482610f38919061247f565b610f4291906124f0565b9250505090565b600160009054906101000a900473ffffffffffffffffffffffffffffffffffffffff1673ffffffffffffffffffffffffffffffffffffffff166396fe834982336040518363ffffffff1660e01b8152600401610fa69291906125d2565b600060405180830381600087803b158015610fc057600080fd5b505af1158015610fd4573d6000803e3d6000fd5b5050505050565b6000600d8054905090506000600c6000600d8054905081526020019081526020016000209050818160000181905550828160010160006101000a81548173ffffffffffffffffffffffffffffffffffffffff021916908373ffffffffffffffffffffffffffffffffffffffff160217905550838160020181905550600d82908060018154018082558091505060019003906000526020600020016000909190919091505550505050565b60003490506000600f5411156110d75760004790506110a5600f546113ad565b6000479050600081836110b8919061259e565b905080600f60008282546110cc919061259e565b925050819055505050505b600060105411156111255760004790506110f26010546114b8565b50600047905060008183611106919061259e565b9050806010600082825461111a919061259e565b925050819055505050505b6000600c60006001600d8054905061113d919061259e565b815260200190815260200160002060010160009054906101000a900473ffffffffffffffffffffffffffffffffffffffff16905061117a8161197c565b600860009054906101000a900473ffffffffffffffffffffffffffffffffffffffff1673ffffffffffffffffffffffffffffffffffffffff16636a627842826040518263ffffffff1660e01b81526004016111d591906122a1565b600060405180830381600087803b1580156111ef57600080fd5b505af1158015611203573d6000803e3d6000fd5b505050506000611211610dd2565b90507fcf34ef537ac33ee1ac626ca1587a0a7e8e51561e5514f8cb36afa1c5102b3bab60405161124090612884565b60405180910390a17fb8a00d6d8ca1be30bfec34d8f97e55f0f0fd9eeb7fb46e030516363d4cfe1ad68260405161127791906122a1565b60405180910390a17fcf34ef537ac33ee1ac626ca1587a0a7e8e51561e5514f8cb36afa1c5102b3bab6040516112ac906128f0565b60405180910390a17f909c57d5c6ac08245cf2a6de3900e2b868513fa59099b92b27d8db823d92df9c816040516112e39190612365565b60405180910390a16014811115611349576000479050611302346113ad565b600047905060008183611315919061259e565b905060008187611325919061259e565b905080600f60008282546113399190612910565b92505081905550505050506113a8565b60004790506113643460105461135f9190612910565b6114b8565b50600047905060008183611378919061259e565b905060008187611388919061259e565b9050806010600082825461139c9190612910565b92505081905550505050505b505050565b60006113b882611c6c565b9050600160009054906101000a900473ffffffffffffffffffffffffffffffffffffffff1673ffffffffffffffffffffffffffffffffffffffff166342966c68826040518263ffffffff1660e01b81526004016114159190612365565b600060405180830381600087803b15801561142f57600080fd5b505af1925050508015611440575060015b61147e577fcf34ef537ac33ee1ac626ca1587a0a7e8e51561e5514f8cb36afa1c5102b3bab60405161147190612990565b60405180910390a16114b4565b7fcf34ef537ac33ee1ac626ca1587a0a7e8e51561e5514f8cb36afa1c5102b3bab6040516114ab906129fc565b60405180910390a15b5050565b6000806000600160009054906101000a900473ffffffffffffffffffffffffffffffffffffffff1673ffffffffffffffffffffffffffffffffffffffff166370a08231306040518263ffffffff1660e01b815260040161151891906122a1565b602060405180830381865afa158015611535573d6000803e3d6000fd5b505050506040513d601f19601f820116820180604052508101906115599190612395565b9050600060646069600a60009054906101000a900473ffffffffffffffffffffffffffffffffffffffff1673ffffffffffffffffffffffffffffffffffffffff16633ac3558560008054906101000a900473ffffffffffffffffffffffffffffffffffffffff16896040518363ffffffff1660e01b81526004016115de9291906123c2565b602060405180830381865afa1580156115fb573d6000803e3d6000fd5b505050506040513d601f19601f8201168201806040525081019061161f9190612395565b611629919061247f565b61163391906124f0565b90508181111561177657600160009054906101000a900473ffffffffffffffffffffffffffffffffffffffff1673ffffffffffffffffffffffffffffffffffffffff166396fe83498383611687919061259e565b306040518363ffffffff1660e01b81526004016116a59291906125d2565b600060405180830381600087803b1580156116bf57600080fd5b505af11580156116d3573d6000803e3d6000fd5b50505050600160009054906101000a900473ffffffffffffffffffffffffffffffffffffffff1673ffffffffffffffffffffffffffffffffffffffff166370a08231306040518263ffffffff1660e01b815260040161173291906122a1565b602060405180830381865afa15801561174f573d6000803e3d6000fd5b505050506040513d601f19601f820116820180604052508101906117739190612395565b91505b600b60009054906101000a900473ffffffffffffffffffffffffffffffffffffffff1673ffffffffffffffffffffffffffffffffffffffff1663f305d71986308460006064605f8c6117c8919061247f565b6117d291906124f0565b307fffffffffffffffffffffffffffffffffffffffffffffffffffffffffffffffff6040518863ffffffff1660e01b8152600401611815969594939291906126ac565b60606040518083038185885af19350505050801561185157506040513d601f19601f8201168201806040525081019061184e919061270d565b60015b61188f577fcf34ef537ac33ee1ac626ca1587a0a7e8e51561e5514f8cb36afa1c5102b3bab604051611882906127ac565b60405180910390a1611971565b5050507fcf34ef537ac33ee1ac626ca1587a0a7e8e51561e5514f8cb36afa1c5102b3bab6040516118bf90612818565b60405180910390a1600160009054906101000a900473ffffffffffffffffffffffffffffffffffffffff1673ffffffffffffffffffffffffffffffffffffffff166370a08231306040518263ffffffff1660e01b815260040161192291906122a1565b602060405180830381865afa15801561193f573d6000803e3d6000fd5b505050506040513d601f19601f820116820180604052508101906119639190612395565b8261196e919061259e565b92505b829350505050919050565b6000600c60006001600d80549050611994919061259e565b81526020019081526020016000206002015490506000810315611c6857600a60009054906101000a900473ffffffffffffffffffffffffffffffffffffffff1673ffffffffffffffffffffffffffffffffffffffff16633ac3558560008054906101000a900473ffffffffffffffffffffffffffffffffffffffff16836040518363ffffffff1660e01b8152600401611a2e9291906123c2565b602060405180830381865afa925050508015611a6857506040513d601f19601f82011682018060405250810190611a659190612395565b60015b611aa6577fcf34ef537ac33ee1ac626ca1587a0a7e8e51561e5514f8cb36afa1c5102b3bab604051611a9990612a68565b60405180910390a1611c67565b506000600a60009054906101000a900473ffffffffffffffffffffffffffffffffffffffff1673ffffffffffffffffffffffffffffffffffffffff16633ac3558560008054906101000a900473ffffffffffffffffffffffffffffffffffffffff16846040518363ffffffff1660e01b8152600401611b269291906123c2565b602060405180830381865afa158015611b43573d6000803e3d6000fd5b505050506040513d601f19601f82011682018060405250810190611b679190612395565b9050600160009054906101000a900473ffffffffffffffffffffffffffffffffffffffff1673ffffffffffffffffffffffffffffffffffffffff166396fe834982856040518363ffffffff1660e01b8152600401611bc69291906125d2565b600060405180830381600087803b158015611be057600080fd5b505af1925050508015611bf1575060015b611c2f577fcf34ef537ac33ee1ac626ca1587a0a7e8e51561e5514f8cb36afa1c5102b3bab604051611c2290612afa565b60405180910390a1611c65565b7fcf34ef537ac33ee1ac626ca1587a0a7e8e51561e5514f8cb36afa1c5102b3bab604051611c5c90612b66565b60405180910390a15b505b5b5050565b6000806000600160009054906101000a900473ffffffffffffffffffffffffffffffffffffffff1673ffffffffffffffffffffffffffffffffffffffff166370a08231306040518263ffffffff1660e01b8152600401611ccc91906122a1565b602060405180830381865afa925050508015611d0657506040513d601f19601f82011682018060405250810190611d039190612395565b60015b611d44577fcf34ef537ac33ee1ac626ca1587a0a7e8e51561e5514f8cb36afa1c5102b3bab604051611d3790612bf8565b60405180910390a1611de4565b50600160009054906101000a900473ffffffffffffffffffffffffffffffffffffffff1673ffffffffffffffffffffffffffffffffffffffff166370a08231306040518263ffffffff1660e01b8152600401611da091906122a1565b602060405180830381865afa158015611dbd573d6000803e3d6000fd5b505050506040513d601f19601f82011682018060405250810190611de19190612395565b91505b600a60009054906101000a900473ffffffffffffffffffffffffffffffffffffffff1673ffffffffffffffffffffffffffffffffffffffff16633ac3558560008054906101000a900473ffffffffffffffffffffffffffffffffffffffff16866040518363ffffffff1660e01b8152600401611e619291906123c2565b602060405180830381865afa925050508015611e9b57506040513d601f19601f82011682018060405250810190611e989190612395565b60015b611ed9577fcf34ef537ac33ee1ac626ca1587a0a7e8e51561e5514f8cb36afa1c5102b3bab604051611ecc90612c64565b60405180910390a1612007565b50600a60009054906101000a900473ffffffffffffffffffffffffffffffffffffffff1673ffffffffffffffffffffffffffffffffffffffff16633ac3558560008054906101000a900473ffffffffffffffffffffffffffffffffffffffff16866040518363ffffffff1660e01b8152600401611f579291906123c2565b602060405180830381865afa158015611f74573d6000803e3d6000fd5b505050506040513d601f19601f82011682018060405250810190611f989190612395565b90507fcf34ef537ac33ee1ac626ca1587a0a7e8e51561e5514f8cb36afa1c5102b3bab604051611fc790612cd0565b60405180910390a17f909c57d5c6ac08245cf2a6de3900e2b868513fa59099b92b27d8db823d92df9c81604051611ffe9190612365565b60405180910390a15b6000600b60009054906101000a900473ffffffffffffffffffffffffffffffffffffffff1673ffffffffffffffffffffffffffffffffffffffff16637ff36ab586836007337fffffffffffffffffffffffffffffffffffffffffffffffffffffffffffffffff6040518663ffffffff1660e01b815260040161208c9493929190612e14565b60006040518083038185885af1935050505080156120cd57506040513d6000823e3d601f19601f820116820180604052508101906120ca9190612fb9565b60015b61210b577fcf34ef537ac33ee1ac626ca1587a0a7e8e51561e5514f8cb36afa1c5102b3bab6040516120fe9061304e565b60405180910390a1612142565b507fcf34ef537ac33ee1ac626ca1587a0a7e8e51561e5514f8cb36afa1c5102b3bab604051612139906130ba565b60405180910390a15b82600160009054906101000a900473ffffffffffffffffffffffffffffffffffffffff1673ffffffffffffffffffffffffffffffffffffffff166370a08231306040518263ffffffff1660e01b815260040161219e91906122a1565b602060405180830381865afa1580156121bb573d6000803e3d6000fd5b505050506040513d601f19601f820116820180604052508101906121df9190612395565b6121e9919061259e565b9350505050919050565b6000604051905090565b600080fd5b600080fd5b600073ffffffffffffffffffffffffffffffffffffffff82169050919050565b600061223282612207565b9050919050565b61224281612227565b811461224d57600080fd5b50565b60008135905061225f81612239565b92915050565b60006020828403121561227b5761227a6121fd565b5b600061228984828501612250565b91505092915050565b61229b81612227565b82525050565b60006020820190506122b66000830184612292565b92915050565b6000819050919050565b6122cf816122bc565b81146122da57600080fd5b50565b6000813590506122ec816122c6565b92915050565b600060208284031215612308576123076121fd565b5b6000612316848285016122dd565b91505092915050565b612328816122bc565b82525050565b6000606082019050612343600083018661231f565b6123506020830185612292565b61235d604083018461231f565b949350505050565b600060208201905061237a600083018461231f565b92915050565b60008151905061238f816122c6565b92915050565b6000602082840312156123ab576123aa6121fd565b5b60006123b984828501612380565b91505092915050565b60006040820190506123d76000830185612292565b6123e4602083018461231f565b9392505050565b60008115159050919050565b612400816123eb565b811461240b57600080fd5b50565b60008151905061241d816123f7565b92915050565b600060208284031215612439576124386121fd565b5b60006124478482850161240e565b91505092915050565b7f4e487b7100000000000000000000000000000000000000000000000000000000600052601160045260246000fd5b600061248a826122bc565b9150612495836122bc565b92508282026124a3816122bc565b915082820484148315176124ba576124b9612450565b5b5092915050565b7f4e487b7100000000000000000000000000000000000000000000000000000000600052601260045260246000fd5b60006124fb826122bc565b9150612506836122bc565b925082612516576125156124c1565b5b828204905092915050565b600082825260208201905092915050565b7f4e65656420746f206d696e7420666f72206c6971756964697479000000000000600082015250565b6000612568601a83612521565b915061257382612532565b602082019050919050565b600060208201905081810360008301526125978161255b565b9050919050565b60006125a9826122bc565b91506125b4836122bc565b92508282039050818111156125cc576125cb612450565b5b92915050565b60006040820190506125e7600083018561231f565b6125f46020830184612292565b9392505050565b7f746f6b656e73206d696e74656400000000000000000000000000000000000000600082015250565b6000612631600d83612521565b915061263c826125fb565b602082019050919050565b6000602082019050818103600083015261266081612624565b9050919050565b6000819050919050565b6000819050919050565b600061269661269161268c84612667565b612671565b6122bc565b9050919050565b6126a68161267b565b82525050565b600060c0820190506126c16000830189612292565b6126ce602083018861231f565b6126db604083018761269d565b6126e8606083018661231f565b6126f56080830185612292565b61270260a083018461231f565b979650505050505050565b600080600060608486031215612726576127256121fd565b5b600061273486828701612380565b935050602061274586828701612380565b925050604061275686828701612380565b9150509250925092565b7f4c6971756964697479204e6f742050726f766964656400000000000000000000600082015250565b6000612796601683612521565b91506127a182612760565b602082019050919050565b600060208201905081810360008301526127c581612789565b9050919050565b7f6c6971756964697479205375636365737366756c6c792050726f766964656400600082015250565b6000612802601f83612521565b915061280d826127cc565b602082019050919050565b60006020820190508181036000830152612831816127f5565b9050919050565b7f70726576696f757320486f6c6465722069730000000000000000000000000000600082015250565b600061286e601283612521565b915061287982612838565b602082019050919050565b6000602082019050818103600083015261289d81612861565b9050919050565b7f63757272656e74206c69717569646974792070657263656e7400000000000000600082015250565b60006128da601983612521565b91506128e5826128a4565b602082019050919050565b60006020820190508181036000830152612909816128cd565b9050919050565b600061291b826122bc565b9150612926836122bc565b925082820190508082111561293e5761293d612450565b5b92915050565b7f746f6b656e732063616e74206265206275726e74000000000000000000000000600082015250565b600061297a601483612521565b915061298582612944565b602082019050919050565b600060208201905081810360008301526129a98161296d565b9050919050565b7f746f6b656e732068617665206265656e206275726e7400000000000000000000600082015250565b60006129e6601683612521565b91506129f1826129b0565b602082019050919050565b60006020820190508181036000830152612a15816129d9565b9050919050565b7f70726963652063616e7420626520676f742066726f6d204f7261636c65000000600082015250565b6000612a52601d83612521565b9150612a5d82612a1c565b602082019050919050565b60006020820190508181036000830152612a8181612a45565b9050919050565b7f707269636520676f742066726f6d204f7261636c652062757420636f756c646e60008201527f74206d696e740000000000000000000000000000000000000000000000000000602082015250565b6000612ae4602683612521565b9150612aef82612a88565b604082019050919050565b60006020820190508181036000830152612b1381612ad7565b9050919050565b7f746f6b656e73206d696e74656420746f2070726576696f757320686f6c646572600082015250565b6000612b50602083612521565b9150612b5b82612b1a565b602082019050919050565b60006020820190508181036000830152612b7f81612b43565b9050919050565b7f63616e74206765742062616c616e6365206f66207468697320636f6e7472616360008201527f7400000000000000000000000000000000000000000000000000000000000000602082015250565b6000612be2602183612521565b9150612bed82612b86565b604082019050919050565b60006020820190508181036000830152612c1181612bd5565b9050919050565b7f63616e74206765742070726963652066726f6d204f7261636c65000000000000600082015250565b6000612c4e601a83612521565b9150612c5982612c18565b602082019050919050565b60006020820190508181036000830152612c7d81612c41565b9050919050565b7f6e756d626572206f6620546f6b656e7320746f20427579206973000000000000600082015250565b6000612cba601a83612521565b9150612cc582612c84565b602082019050919050565b60006020820190508181036000830152612ce981612cad565b9050919050565b600081549050919050565b600082825260208201905092915050565b60008190508160005260206000209050919050565b612d2a81612227565b82525050565b6000612d3c8383612d21565b60208301905092915050565b60008160001c9050919050565b600073ffffffffffffffffffffffffffffffffffffffff82169050919050565b6000612d88612d8383612d48565b612d55565b9050919050565b6000612d9b8254612d75565b9050919050565b6000600182019050919050565b6000612dba82612cf0565b612dc48185612cfb565b9350612dcf83612d0c565b8060005b83811015612e0757612de482612d8f565b612dee8882612d30565b9750612df983612da2565b925050600181019050612dd3565b5085935050505092915050565b6000608082019050612e29600083018761231f565b8181036020830152612e3b8186612daf565b9050612e4a6040830185612292565b612e57606083018461231f565b95945050505050565b600080fd5b6000601f19601f8301169050919050565b7f4e487b7100000000000000000000000000000000000000000000000000000000600052604160045260246000fd5b612eae82612e65565b810181811067ffffffffffffffff82111715612ecd57612ecc612e76565b5b80604052505050565b6000612ee06121f3565b9050612eec8282612ea5565b919050565b600067ffffffffffffffff821115612f0c57612f0b612e76565b5b602082029050602081019050919050565b600080fd5b6000612f35612f3084612ef1565b612ed6565b90508083825260208201905060208402830185811115612f5857612f57612f1d565b5b835b81811015612f815780612f6d8882612380565b845260208401935050602081019050612f5a565b5050509392505050565b600082601f830112612fa057612f9f612e60565b5b8151612fb0848260208601612f22565b91505092915050565b600060208284031215612fcf57612fce6121fd565b5b600082015167ffffffffffffffff811115612fed57612fec612202565b5b612ff984828501612f8b565b91505092915050565b7f746f6b656e73206e6f7420626f75676874000000000000000000000000000000600082015250565b6000613038601183612521565b915061304382613002565b602082019050919050565b600060208201905081810360008301526130678161302b565b9050919050565b7f746f6b656e7320626f7567687400000000000000000000000000000000000000600082015250565b60006130a4600d83612521565b91506130af8261306e565b602082019050919050565b600060208201905081810360008301526130d381613097565b905091905056fea2646970667358221220ccae007a9a63409d4651732563fc4daaa141527b4a39599141cc4d1bda75a29a64736f6c63430008110033",
					"opcodes": "PUSH1 0x80 PUSH1 0x40 MSTORE PUSH20 0xB4FBF271143F4FBF7B91A5DED31805E42B2208D6 PUSH1 0x0 DUP1 PUSH2 0x100 EXP DUP2 SLOAD DUP2 PUSH20 0xFFFFFFFFFFFFFFFFFFFFFFFFFFFFFFFFFFFFFFFF MUL NOT AND SWAP1 DUP4 PUSH20 0xFFFFFFFFFFFFFFFFFFFFFFFFFFFFFFFFFFFFFFFF AND MUL OR SWAP1 SSTORE POP PUSH20 0x7A250D5630B4CF539739DF2C5DACB4C659F2488D PUSH1 0x6 PUSH1 0x0 PUSH2 0x100 EXP DUP2 SLOAD DUP2 PUSH20 0xFFFFFFFFFFFFFFFFFFFFFFFFFFFFFFFFFFFFFFFF MUL NOT AND SWAP1 DUP4 PUSH20 0xFFFFFFFFFFFFFFFFFFFFFFFFFFFFFFFFFFFFFFFF AND MUL OR SWAP1 SSTORE POP PUSH1 0x5 PUSH1 0x0 SWAP1 SLOAD SWAP1 PUSH2 0x100 EXP SWAP1 DIV PUSH20 0xFFFFFFFFFFFFFFFFFFFFFFFFFFFFFFFFFFFFFFFF AND PUSH1 0x8 PUSH1 0x0 PUSH2 0x100 EXP DUP2 SLOAD DUP2 PUSH20 0xFFFFFFFFFFFFFFFFFFFFFFFFFFFFFFFFFFFFFFFF MUL NOT AND SWAP1 DUP4 PUSH20 0xFFFFFFFFFFFFFFFFFFFFFFFFFFFFFFFFFFFFFFFF AND MUL OR SWAP1 SSTORE POP PUSH1 0x0 DUP1 SLOAD SWAP1 PUSH2 0x100 EXP SWAP1 DIV PUSH20 0xFFFFFFFFFFFFFFFFFFFFFFFFFFFFFFFFFFFFFFFF AND PUSH1 0x9 PUSH1 0x0 PUSH2 0x100 EXP DUP2 SLOAD DUP2 PUSH20 0xFFFFFFFFFFFFFFFFFFFFFFFFFFFFFFFFFFFFFFFF MUL NOT AND SWAP1 DUP4 PUSH20 0xFFFFFFFFFFFFFFFFFFFFFFFFFFFFFFFFFFFFFFFF AND MUL OR SWAP1 SSTORE POP PUSH1 0x3 PUSH1 0x0 SWAP1 SLOAD SWAP1 PUSH2 0x100 EXP SWAP1 DIV PUSH20 0xFFFFFFFFFFFFFFFFFFFFFFFFFFFFFFFFFFFFFFFF AND PUSH1 0xA PUSH1 0x0 PUSH2 0x100 EXP DUP2 SLOAD DUP2 PUSH20 0xFFFFFFFFFFFFFFFFFFFFFFFFFFFFFFFFFFFFFFFF MUL NOT AND SWAP1 DUP4 PUSH20 0xFFFFFFFFFFFFFFFFFFFFFFFFFFFFFFFFFFFFFFFF AND MUL OR SWAP1 SSTORE POP PUSH1 0x6 PUSH1 0x0 SWAP1 SLOAD SWAP1 PUSH2 0x100 EXP SWAP1 DIV PUSH20 0xFFFFFFFFFFFFFFFFFFFFFFFFFFFFFFFFFFFFFFFF AND PUSH1 0xB PUSH1 0x0 PUSH2 0x100 EXP DUP2 SLOAD DUP2 PUSH20 0xFFFFFFFFFFFFFFFFFFFFFFFFFFFFFFFFFFFFFFFF MUL NOT AND SWAP1 DUP4 PUSH20 0xFFFFFFFFFFFFFFFFFFFFFFFFFFFFFFFFFFFFFFFF AND MUL OR SWAP1 SSTORE POP CALLVALUE DUP1 ISZERO PUSH3 0x244 JUMPI PUSH1 0x0 DUP1 REVERT JUMPDEST POP PUSH1 0x40 MLOAD PUSH3 0x3BC4 CODESIZE SUB DUP1 PUSH3 0x3BC4 DUP4 CODECOPY DUP2 DUP2 ADD PUSH1 0x40 MSTORE DUP2 ADD SWAP1 PUSH3 0x26A SWAP2 SWAP1 PUSH3 0x938 JUMP JUMPDEST DUP4 PUSH1 0x1 PUSH1 0x0 PUSH2 0x100 EXP DUP2 SLOAD DUP2 PUSH20 0xFFFFFFFFFFFFFFFFFFFFFFFFFFFFFFFFFFFFFFFF MUL NOT AND SWAP1 DUP4 PUSH20 0xFFFFFFFFFFFFFFFFFFFFFFFFFFFFFFFFFFFFFFFF AND MUL OR SWAP1 SSTORE POP PUSH1 0x1 PUSH1 0x0 SWAP1 SLOAD SWAP1 PUSH2 0x100 EXP SWAP1 DIV PUSH20 0xFFFFFFFFFFFFFFFFFFFFFFFFFFFFFFFFFFFFFFFF AND PUSH20 0xFFFFFFFFFFFFFFFFFFFFFFFFFFFFFFFFFFFFFFFF AND PUSH4 0xBD3733FE PUSH1 0x40 MLOAD DUP2 PUSH4 0xFFFFFFFF AND PUSH1 0xE0 SHL DUP2 MSTORE PUSH1 0x4 ADD PUSH1 0x20 PUSH1 0x40 MLOAD DUP1 DUP4 SUB DUP2 DUP7 GAS STATICCALL ISZERO DUP1 ISZERO PUSH3 0x319 JUMPI RETURNDATASIZE PUSH1 0x0 DUP1 RETURNDATACOPY RETURNDATASIZE PUSH1 0x0 REVERT JUMPDEST POP POP POP POP PUSH1 0x40 MLOAD RETURNDATASIZE PUSH1 0x1F NOT PUSH1 0x1F DUP3 ADD AND DUP3 ADD DUP1 PUSH1 0x40 MSTORE POP DUP2 ADD SWAP1 PUSH3 0x33F SWAP2 SWAP1 PUSH3 0x9AA JUMP JUMPDEST PUSH1 0x2 PUSH1 0x0 PUSH2 0x100 EXP DUP2 SLOAD DUP2 PUSH20 0xFFFFFFFFFFFFFFFFFFFFFFFFFFFFFFFFFFFFFFFF MUL NOT AND SWAP1 DUP4 PUSH20 0xFFFFFFFFFFFFFFFFFFFFFFFFFFFFFFFFFFFFFFFF AND MUL OR SWAP1 SSTORE POP PUSH1 0x1 PUSH1 0x0 SWAP1 SLOAD SWAP1 PUSH2 0x100 EXP SWAP1 DIV PUSH20 0xFFFFFFFFFFFFFFFFFFFFFFFFFFFFFFFFFFFFFFFF AND PUSH20 0xFFFFFFFFFFFFFFFFFFFFFFFFFFFFFFFFFFFFFFFF AND PUSH4 0xB18B78DD PUSH1 0x40 MLOAD DUP2 PUSH4 0xFFFFFFFF AND PUSH1 0xE0 SHL DUP2 MSTORE PUSH1 0x4 ADD PUSH1 0x20 PUSH1 0x40 MLOAD DUP1 DUP4 SUB DUP2 DUP7 GAS STATICCALL ISZERO DUP1 ISZERO PUSH3 0x3ED JUMPI RETURNDATASIZE PUSH1 0x0 DUP1 RETURNDATACOPY RETURNDATASIZE PUSH1 0x0 REVERT JUMPDEST POP POP POP POP PUSH1 0x40 MLOAD RETURNDATASIZE PUSH1 0x1F NOT PUSH1 0x1F DUP3 ADD AND DUP3 ADD DUP1 PUSH1 0x40 MSTORE POP DUP2 ADD SWAP1 PUSH3 0x413 SWAP2 SWAP1 PUSH3 0x9AA JUMP JUMPDEST PUSH1 0x3 PUSH1 0x0 PUSH2 0x100 EXP DUP2 SLOAD DUP2 PUSH20 0xFFFFFFFFFFFFFFFFFFFFFFFFFFFFFFFFFFFFFFFF MUL NOT AND SWAP1 DUP4 PUSH20 0xFFFFFFFFFFFFFFFFFFFFFFFFFFFFFFFFFFFFFFFF AND MUL OR SWAP1 SSTORE POP PUSH1 0x3 PUSH1 0x0 SWAP1 SLOAD SWAP1 PUSH2 0x100 EXP SWAP1 DIV PUSH20 0xFFFFFFFFFFFFFFFFFFFFFFFFFFFFFFFFFFFFFFFF AND PUSH1 0xA PUSH1 0x0 PUSH2 0x100 EXP DUP2 SLOAD DUP2 PUSH20 0xFFFFFFFFFFFFFFFFFFFFFFFFFFFFFFFFFFFFFFFF MUL NOT AND SWAP1 DUP4 PUSH20 0xFFFFFFFFFFFFFFFFFFFFFFFFFFFFFFFFFFFFFFFF AND MUL OR SWAP1 SSTORE POP DUP3 PUSH1 0x4 PUSH1 0x0 PUSH2 0x100 EXP DUP2 SLOAD DUP2 PUSH20 0xFFFFFFFFFFFFFFFFFFFFFFFFFFFFFFFFFFFFFFFF MUL NOT AND SWAP1 DUP4 PUSH20 0xFFFFFFFFFFFFFFFFFFFFFFFFFFFFFFFFFFFFFFFF AND MUL OR SWAP1 SSTORE POP DUP2 PUSH1 0x5 PUSH1 0x0 PUSH2 0x100 EXP DUP2 SLOAD DUP2 PUSH20 0xFFFFFFFFFFFFFFFFFFFFFFFFFFFFFFFFFFFFFFFF MUL NOT AND SWAP1 DUP4 PUSH20 0xFFFFFFFFFFFFFFFFFFFFFFFFFFFFFFFFFFFFFFFF AND MUL OR SWAP1 SSTORE POP PUSH1 0x5 PUSH1 0x0 SWAP1 SLOAD SWAP1 PUSH2 0x100 EXP SWAP1 DIV PUSH20 0xFFFFFFFFFFFFFFFFFFFFFFFFFFFFFFFFFFFFFFFF AND PUSH1 0x8 PUSH1 0x0 PUSH2 0x100 EXP DUP2 SLOAD DUP2 PUSH20 0xFFFFFFFFFFFFFFFFFFFFFFFFFFFFFFFFFFFFFFFF MUL NOT AND SWAP1 DUP4 PUSH20 0xFFFFFFFFFFFFFFFFFFFFFFFFFFFFFFFFFFFFFFFF AND MUL OR SWAP1 SSTORE POP PUSH3 0x5AC DUP2 PUSH3 0x760 PUSH1 0x20 SHL PUSH1 0x20 SHR JUMP JUMPDEST PUSH1 0x40 MLOAD DUP1 PUSH1 0x40 ADD PUSH1 0x40 MSTORE DUP1 PUSH1 0x0 DUP1 SLOAD SWAP1 PUSH2 0x100 EXP SWAP1 DIV PUSH20 0xFFFFFFFFFFFFFFFFFFFFFFFFFFFFFFFFFFFFFFFF AND PUSH20 0xFFFFFFFFFFFFFFFFFFFFFFFFFFFFFFFFFFFFFFFF AND PUSH20 0xFFFFFFFFFFFFFFFFFFFFFFFFFFFFFFFFFFFFFFFF AND DUP2 MSTORE PUSH1 0x20 ADD PUSH1 0x1 PUSH1 0x0 SWAP1 SLOAD SWAP1 PUSH2 0x100 EXP SWAP1 DIV PUSH20 0xFFFFFFFFFFFFFFFFFFFFFFFFFFFFFFFFFFFFFFFF AND PUSH20 0xFFFFFFFFFFFFFFFFFFFFFFFFFFFFFFFFFFFFFFFF AND PUSH20 0xFFFFFFFFFFFFFFFFFFFFFFFFFFFFFFFFFFFFFFFF AND DUP2 MSTORE POP PUSH1 0x7 SWAP1 PUSH1 0x2 PUSH3 0x66D SWAP3 SWAP2 SWAP1 PUSH3 0x820 JUMP JUMPDEST POP PUSH1 0x1 PUSH1 0x0 SWAP1 SLOAD SWAP1 PUSH2 0x100 EXP SWAP1 DIV PUSH20 0xFFFFFFFFFFFFFFFFFFFFFFFFFFFFFFFFFFFFFFFF AND PUSH20 0xFFFFFFFFFFFFFFFFFFFFFFFFFFFFFFFFFFFFFFFF AND PUSH4 0x95EA7B3 PUSH1 0x6 PUSH1 0x0 SWAP1 SLOAD SWAP1 PUSH2 0x100 EXP SWAP1 DIV PUSH20 0xFFFFFFFFFFFFFFFFFFFFFFFFFFFFFFFFFFFFFFFF AND PUSH32 0xFFFFFFFFFFFFFFFFFFFFFFFFFFFFFFFFFFFFFFFFFFFFFFFFFFFFFFFFFFFFFFFF PUSH1 0x40 MLOAD DUP4 PUSH4 0xFFFFFFFF AND PUSH1 0xE0 SHL DUP2 MSTORE PUSH1 0x4 ADD PUSH3 0x70F SWAP3 SWAP2 SWAP1 PUSH3 0xA08 JUMP JUMPDEST PUSH1 0x20 PUSH1 0x40 MLOAD DUP1 DUP4 SUB DUP2 PUSH1 0x0 DUP8 GAS CALL ISZERO DUP1 ISZERO PUSH3 0x72F JUMPI RETURNDATASIZE PUSH1 0x0 DUP1 RETURNDATACOPY RETURNDATASIZE PUSH1 0x0 REVERT JUMPDEST POP POP POP POP PUSH1 0x40 MLOAD RETURNDATASIZE PUSH1 0x1F NOT PUSH1 0x1F DUP3 ADD AND DUP3 ADD DUP1 PUSH1 0x40 MSTORE POP DUP2 ADD SWAP1 PUSH3 0x755 SWAP2 SWAP1 PUSH3 0xA72 JUMP JUMPDEST POP POP POP POP POP PUSH3 0xAA4 JUMP JUMPDEST PUSH3 0x773 PUSH1 0x0 DUP3 PUSH3 0x776 PUSH1 0x20 SHL PUSH1 0x20 SHR JUMP JUMPDEST POP JUMP JUMPDEST PUSH1 0x0 PUSH1 0xD DUP1 SLOAD SWAP1 POP SWAP1 POP PUSH1 0x0 PUSH1 0xC PUSH1 0x0 PUSH1 0xD DUP1 SLOAD SWAP1 POP DUP2 MSTORE PUSH1 0x20 ADD SWAP1 DUP2 MSTORE PUSH1 0x20 ADD PUSH1 0x0 KECCAK256 SWAP1 POP DUP2 DUP2 PUSH1 0x0 ADD DUP2 SWAP1 SSTORE POP DUP3 DUP2 PUSH1 0x1 ADD PUSH1 0x0 PUSH2 0x100 EXP DUP2 SLOAD DUP2 PUSH20 0xFFFFFFFFFFFFFFFFFFFFFFFFFFFFFFFFFFFFFFFF MUL NOT AND SWAP1 DUP4 PUSH20 0xFFFFFFFFFFFFFFFFFFFFFFFFFFFFFFFFFFFFFFFF AND MUL OR SWAP1 SSTORE POP DUP4 DUP2 PUSH1 0x2 ADD DUP2 SWAP1 SSTORE POP PUSH1 0xD DUP3 SWAP1 DUP1 PUSH1 0x1 DUP2 SLOAD ADD DUP1 DUP3 SSTORE DUP1 SWAP2 POP POP PUSH1 0x1 SWAP1 SUB SWAP1 PUSH1 0x0 MSTORE PUSH1 0x20 PUSH1 0x0 KECCAK256 ADD PUSH1 0x0 SWAP1 SWAP2 SWAP1 SWAP2 SWAP1 SWAP2 POP SSTORE POP POP POP POP JUMP JUMPDEST DUP3 DUP1 SLOAD DUP3 DUP3 SSTORE SWAP1 PUSH1 0x0 MSTORE PUSH1 0x20 PUSH1 0x0 KECCAK256 SWAP1 DUP2 ADD SWAP3 DUP3 ISZERO PUSH3 0x89C JUMPI SWAP2 PUSH1 0x20 MUL DUP3 ADD JUMPDEST DUP3 DUP2 GT ISZERO PUSH3 0x89B JUMPI DUP3 MLOAD DUP3 PUSH1 0x0 PUSH2 0x100 EXP DUP2 SLOAD DUP2 PUSH20 0xFFFFFFFFFFFFFFFFFFFFFFFFFFFFFFFFFFFFFFFF MUL NOT AND SWAP1 DUP4 PUSH20 0xFFFFFFFFFFFFFFFFFFFFFFFFFFFFFFFFFFFFFFFF AND MUL OR SWAP1 SSTORE POP SWAP2 PUSH1 0x20 ADD SWAP2 SWAP1 PUSH1 0x1 ADD SWAP1 PUSH3 0x841 JUMP JUMPDEST JUMPDEST POP SWAP1 POP PUSH3 0x8AB SWAP2 SWAP1 PUSH3 0x8AF JUMP JUMPDEST POP SWAP1 JUMP JUMPDEST JUMPDEST DUP1 DUP3 GT ISZERO PUSH3 0x8CA JUMPI PUSH1 0x0 DUP2 PUSH1 0x0 SWAP1 SSTORE POP PUSH1 0x1 ADD PUSH3 0x8B0 JUMP JUMPDEST POP SWAP1 JUMP JUMPDEST PUSH1 0x0 DUP1 REVERT JUMPDEST PUSH1 0x0 PUSH20 0xFFFFFFFFFFFFFFFFFFFFFFFFFFFFFFFFFFFFFFFF DUP3 AND SWAP1 POP SWAP2 SWAP1 POP JUMP JUMPDEST PUSH1 0x0 PUSH3 0x900 DUP3 PUSH3 0x8D3 JUMP JUMPDEST SWAP1 POP SWAP2 SWAP1 POP JUMP JUMPDEST PUSH3 0x912 DUP2 PUSH3 0x8F3 JUMP JUMPDEST DUP2 EQ PUSH3 0x91E JUMPI PUSH1 0x0 DUP1 REVERT JUMPDEST POP JUMP JUMPDEST PUSH1 0x0 DUP2 MLOAD SWAP1 POP PUSH3 0x932 DUP2 PUSH3 0x907 JUMP JUMPDEST SWAP3 SWAP2 POP POP JUMP JUMPDEST PUSH1 0x0 DUP1 PUSH1 0x0 DUP1 PUSH1 0x80 DUP6 DUP8 SUB SLT ISZERO PUSH3 0x955 JUMPI PUSH3 0x954 PUSH3 0x8CE JUMP JUMPDEST JUMPDEST PUSH1 0x0 PUSH3 0x965 DUP8 DUP3 DUP9 ADD PUSH3 0x921 JUMP JUMPDEST SWAP5 POP POP PUSH1 0x20 PUSH3 0x978 DUP8 DUP3 DUP9 ADD PUSH3 0x921 JUMP JUMPDEST SWAP4 POP POP PUSH1 0x40 PUSH3 0x98B DUP8 DUP3 DUP9 ADD PUSH3 0x921 JUMP JUMPDEST SWAP3 POP POP PUSH1 0x60 PUSH3 0x99E DUP8 DUP3 DUP9 ADD PUSH3 0x921 JUMP JUMPDEST SWAP2 POP POP SWAP3 SWAP6 SWAP2 SWAP5 POP SWAP3 POP JUMP JUMPDEST PUSH1 0x0 PUSH1 0x20 DUP3 DUP5 SUB SLT ISZERO PUSH3 0x9C3 JUMPI PUSH3 0x9C2 PUSH3 0x8CE JUMP JUMPDEST JUMPDEST PUSH1 0x0 PUSH3 0x9D3 DUP5 DUP3 DUP6 ADD PUSH3 0x921 JUMP JUMPDEST SWAP2 POP POP SWAP3 SWAP2 POP POP JUMP JUMPDEST PUSH3 0x9E7 DUP2 PUSH3 0x8F3 JUMP JUMPDEST DUP3 MSTORE POP POP JUMP JUMPDEST PUSH1 0x0 DUP2 SWAP1 POP SWAP2 SWAP1 POP JUMP JUMPDEST PUSH3 0xA02 DUP2 PUSH3 0x9ED JUMP JUMPDEST DUP3 MSTORE POP POP JUMP JUMPDEST PUSH1 0x0 PUSH1 0x40 DUP3 ADD SWAP1 POP PUSH3 0xA1F PUSH1 0x0 DUP4 ADD DUP6 PUSH3 0x9DC JUMP JUMPDEST PUSH3 0xA2E PUSH1 0x20 DUP4 ADD DUP5 PUSH3 0x9F7 JUMP JUMPDEST SWAP4 SWAP3 POP POP POP JUMP JUMPDEST PUSH1 0x0 DUP2 ISZERO ISZERO SWAP1 POP SWAP2 SWAP1 POP JUMP JUMPDEST PUSH3 0xA4C DUP2 PUSH3 0xA35 JUMP JUMPDEST DUP2 EQ PUSH3 0xA58 JUMPI PUSH1 0x0 DUP1 REVERT JUMPDEST POP JUMP JUMPDEST PUSH1 0x0 DUP2 MLOAD SWAP1 POP PUSH3 0xA6C DUP2 PUSH3 0xA41 JUMP JUMPDEST SWAP3 SWAP2 POP POP JUMP JUMPDEST PUSH1 0x0 PUSH1 0x20 DUP3 DUP5 SUB SLT ISZERO PUSH3 0xA8B JUMPI PUSH3 0xA8A PUSH3 0x8CE JUMP JUMPDEST JUMPDEST PUSH1 0x0 PUSH3 0xA9B DUP5 DUP3 DUP6 ADD PUSH3 0xA5B JUMP JUMPDEST SWAP2 POP POP SWAP3 SWAP2 POP POP JUMP JUMPDEST PUSH2 0x3110 DUP1 PUSH3 0xAB4 PUSH1 0x0 CODECOPY PUSH1 0x0 RETURN INVALID PUSH1 0x80 PUSH1 0x40 MSTORE PUSH1 0x4 CALLDATASIZE LT PUSH2 0x123 JUMPI PUSH1 0x0 CALLDATALOAD PUSH1 0xE0 SHR DUP1 PUSH4 0xA09EDE07 GT PUSH2 0xA0 JUMPI DUP1 PUSH4 0xAF6D1FE4 GT PUSH2 0x64 JUMPI DUP1 PUSH4 0xAF6D1FE4 EQ PUSH2 0x3A8 JUMPI DUP1 PUSH4 0xBD3733FE EQ PUSH2 0x3E5 JUMPI DUP1 PUSH4 0xBFD9EA5B EQ PUSH2 0x410 JUMPI DUP1 PUSH4 0xC1F2E5F1 EQ PUSH2 0x43B JUMPI DUP1 PUSH4 0xD4AFA675 EQ PUSH2 0x466 JUMPI PUSH2 0x12A JUMP JUMPDEST DUP1 PUSH4 0xA09EDE07 EQ PUSH2 0x2D1 JUMPI DUP1 PUSH4 0xA6021ACE EQ PUSH2 0x2FC JUMPI DUP1 PUSH4 0xA785A3D8 EQ PUSH2 0x327 JUMPI DUP1 PUSH4 0xA89AE4BA EQ PUSH2 0x352 JUMPI DUP1 PUSH4 0xAEF75107 EQ PUSH2 0x37D JUMPI PUSH2 0x12A JUMP JUMPDEST DUP1 PUSH4 0x51CFF8D9 GT PUSH2 0xE7 JUMPI DUP1 PUSH4 0x51CFF8D9 EQ PUSH2 0x209 JUMPI DUP1 PUSH4 0x620A703C EQ PUSH2 0x232 JUMPI DUP1 PUSH4 0x777B506F EQ PUSH2 0x250 JUMPI DUP1 PUSH4 0x86D02608 EQ PUSH2 0x27B JUMPI DUP1 PUSH4 0x9DD58B58 EQ PUSH2 0x2A6 JUMPI PUSH2 0x12A JUMP JUMPDEST DUP1 PUSH4 0xB2B4D9B EQ PUSH2 0x12F JUMPI DUP1 PUSH4 0x1B017FDE EQ PUSH2 0x14B JUMPI DUP1 PUSH4 0x20CA3C7F EQ PUSH2 0x174 JUMPI DUP1 PUSH4 0x2C4C3C1B EQ PUSH2 0x19F JUMPI DUP1 PUSH4 0x4CFD1BA5 EQ PUSH2 0x1DE JUMPI PUSH2 0x12A JUMP JUMPDEST CALLDATASIZE PUSH2 0x12A JUMPI STOP JUMPDEST PUSH1 0x0 DUP1 REVERT JUMPDEST PUSH2 0x149 PUSH1 0x4 DUP1 CALLDATASIZE SUB DUP2 ADD SWAP1 PUSH2 0x144 SWAP2 SWAP1 PUSH2 0x2265 JUMP JUMPDEST PUSH2 0x48F JUMP JUMPDEST STOP JUMPDEST CALLVALUE DUP1 ISZERO PUSH2 0x157 JUMPI PUSH1 0x0 DUP1 REVERT JUMPDEST POP PUSH2 0x172 PUSH1 0x4 DUP1 CALLDATASIZE SUB DUP2 ADD SWAP1 PUSH2 0x16D SWAP2 SWAP1 PUSH2 0x2265 JUMP JUMPDEST PUSH2 0x4A4 JUMP JUMPDEST STOP JUMPDEST CALLVALUE DUP1 ISZERO PUSH2 0x180 JUMPI PUSH1 0x0 DUP1 REVERT JUMPDEST POP PUSH2 0x189 PUSH2 0x4E8 JUMP JUMPDEST PUSH1 0x40 MLOAD PUSH2 0x196 SWAP2 SWAP1 PUSH2 0x22A1 JUMP JUMPDEST PUSH1 0x40 MLOAD DUP1 SWAP2 SUB SWAP1 RETURN JUMPDEST CALLVALUE DUP1 ISZERO PUSH2 0x1AB JUMPI PUSH1 0x0 DUP1 REVERT JUMPDEST POP PUSH2 0x1C6 PUSH1 0x4 DUP1 CALLDATASIZE SUB DUP2 ADD SWAP1 PUSH2 0x1C1 SWAP2 SWAP1 PUSH2 0x22F2 JUMP JUMPDEST PUSH2 0x50E JUMP JUMPDEST PUSH1 0x40 MLOAD PUSH2 0x1D5 SWAP4 SWAP3 SWAP2 SWAP1 PUSH2 0x232E JUMP JUMPDEST PUSH1 0x40 MLOAD DUP1 SWAP2 SUB SWAP1 RETURN JUMPDEST CALLVALUE DUP1 ISZERO PUSH2 0x1EA JUMPI PUSH1 0x0 DUP1 REVERT JUMPDEST POP PUSH2 0x1F3 PUSH2 0x558 JUMP JUMPDEST PUSH1 0x40 MLOAD PUSH2 0x200 SWAP2 SWAP1 PUSH2 0x2365 JUMP JUMPDEST PUSH1 0x40 MLOAD DUP1 SWAP2 SUB SWAP1 RETURN JUMPDEST CALLVALUE DUP1 ISZERO PUSH2 0x215 JUMPI PUSH1 0x0 DUP1 REVERT JUMPDEST POP PUSH2 0x230 PUSH1 0x4 DUP1 CALLDATASIZE SUB DUP2 ADD SWAP1 PUSH2 0x22B SWAP2 SWAP1 PUSH2 0x2265 JUMP JUMPDEST PUSH2 0x55E JUMP JUMPDEST STOP JUMPDEST PUSH2 0x23A PUSH2 0x665 JUMP JUMPDEST PUSH1 0x40 MLOAD PUSH2 0x247 SWAP2 SWAP1 PUSH2 0x2365 JUMP JUMPDEST PUSH1 0x40 MLOAD DUP1 SWAP2 SUB SWAP1 RETURN JUMPDEST CALLVALUE DUP1 ISZERO PUSH2 0x25C JUMPI PUSH1 0x0 DUP1 REVERT JUMPDEST POP PUSH2 0x265 PUSH2 0xBD3 JUMP JUMPDEST PUSH1 0x40 MLOAD PUSH2 0x272 SWAP2 SWAP1 PUSH2 0x22A1 JUMP JUMPDEST PUSH1 0x40 MLOAD DUP1 SWAP2 SUB SWAP1 RETURN JUMPDEST CALLVALUE DUP1 ISZERO PUSH2 0x287 JUMPI PUSH1 0x0 DUP1 REVERT JUMPDEST POP PUSH2 0x290 PUSH2 0xBF9 JUMP JUMPDEST PUSH1 0x40 MLOAD PUSH2 0x29D SWAP2 SWAP1 PUSH2 0x2365 JUMP JUMPDEST PUSH1 0x40 MLOAD DUP1 SWAP2 SUB SWAP1 RETURN JUMPDEST CALLVALUE DUP1 ISZERO PUSH2 0x2B2 JUMPI PUSH1 0x0 DUP1 REVERT JUMPDEST POP PUSH2 0x2BB PUSH2 0xBFF JUMP JUMPDEST PUSH1 0x40 MLOAD PUSH2 0x2C8 SWAP2 SWAP1 PUSH2 0x2365 JUMP JUMPDEST PUSH1 0x40 MLOAD DUP1 SWAP2 SUB SWAP1 RETURN JUMPDEST CALLVALUE DUP1 ISZERO PUSH2 0x2DD JUMPI PUSH1 0x0 DUP1 REVERT JUMPDEST POP PUSH2 0x2E6 PUSH2 0xCA2 JUMP JUMPDEST PUSH1 0x40 MLOAD PUSH2 0x2F3 SWAP2 SWAP1 PUSH2 0x2365 JUMP JUMPDEST PUSH1 0x40 MLOAD DUP1 SWAP2 SUB SWAP1 RETURN JUMPDEST CALLVALUE DUP1 ISZERO PUSH2 0x308 JUMPI PUSH1 0x0 DUP1 REVERT JUMPDEST POP PUSH2 0x311 PUSH2 0xCA8 JUMP JUMPDEST PUSH1 0x40 MLOAD PUSH2 0x31E SWAP2 SWAP1 PUSH2 0x22A1 JUMP JUMPDEST PUSH1 0x40 MLOAD DUP1 SWAP2 SUB SWAP1 RETURN JUMPDEST CALLVALUE DUP1 ISZERO PUSH2 0x333 JUMPI PUSH1 0x0 DUP1 REVERT JUMPDEST POP PUSH2 0x33C PUSH2 0xCCE JUMP JUMPDEST PUSH1 0x40 MLOAD PUSH2 0x349 SWAP2 SWAP1 PUSH2 0x22A1 JUMP JUMPDEST PUSH1 0x40 MLOAD DUP1 SWAP2 SUB SWAP1 RETURN JUMPDEST CALLVALUE DUP1 ISZERO PUSH2 0x35E JUMPI PUSH1 0x0 DUP1 REVERT JUMPDEST POP PUSH2 0x367 PUSH2 0xCF2 JUMP JUMPDEST PUSH1 0x40 MLOAD PUSH2 0x374 SWAP2 SWAP1 PUSH2 0x22A1 JUMP JUMPDEST PUSH1 0x40 MLOAD DUP1 SWAP2 SUB SWAP1 RETURN JUMPDEST CALLVALUE DUP1 ISZERO PUSH2 0x389 JUMPI PUSH1 0x0 DUP1 REVERT JUMPDEST POP PUSH2 0x392 PUSH2 0xD18 JUMP JUMPDEST PUSH1 0x40 MLOAD PUSH2 0x39F SWAP2 SWAP1 PUSH2 0x22A1 JUMP JUMPDEST PUSH1 0x40 MLOAD DUP1 SWAP2 SUB SWAP1 RETURN JUMPDEST CALLVALUE DUP1 ISZERO PUSH2 0x3B4 JUMPI PUSH1 0x0 DUP1 REVERT JUMPDEST POP PUSH2 0x3CF PUSH1 0x4 DUP1 CALLDATASIZE SUB DUP2 ADD SWAP1 PUSH2 0x3CA SWAP2 SWAP1 PUSH2 0x22F2 JUMP JUMPDEST PUSH2 0xD3E JUMP JUMPDEST PUSH1 0x40 MLOAD PUSH2 0x3DC SWAP2 SWAP1 PUSH2 0x22A1 JUMP JUMPDEST PUSH1 0x40 MLOAD DUP1 SWAP2 SUB SWAP1 RETURN JUMPDEST CALLVALUE DUP1 ISZERO PUSH2 0x3F1 JUMPI PUSH1 0x0 DUP1 REVERT JUMPDEST POP PUSH2 0x3FA PUSH2 0xD7D JUMP JUMPDEST PUSH1 0x40 MLOAD PUSH2 0x407 SWAP2 SWAP1 PUSH2 0x22A1 JUMP JUMPDEST PUSH1 0x40 MLOAD DUP1 SWAP2 SUB SWAP1 RETURN JUMPDEST CALLVALUE DUP1 ISZERO PUSH2 0x41C JUMPI PUSH1 0x0 DUP1 REVERT JUMPDEST POP PUSH2 0x425 PUSH2 0xDA3 JUMP JUMPDEST PUSH1 0x40 MLOAD PUSH2 0x432 SWAP2 SWAP1 PUSH2 0x2365 JUMP JUMPDEST PUSH1 0x40 MLOAD DUP1 SWAP2 SUB SWAP1 RETURN JUMPDEST CALLVALUE DUP1 ISZERO PUSH2 0x447 JUMPI PUSH1 0x0 DUP1 REVERT JUMPDEST POP PUSH2 0x450 PUSH2 0xDD2 JUMP JUMPDEST PUSH1 0x40 MLOAD PUSH2 0x45D SWAP2 SWAP1 PUSH2 0x2365 JUMP JUMPDEST PUSH1 0x40 MLOAD DUP1 SWAP2 SUB SWAP1 RETURN JUMPDEST CALLVALUE DUP1 ISZERO PUSH2 0x472 JUMPI PUSH1 0x0 DUP1 REVERT JUMPDEST POP PUSH2 0x48D PUSH1 0x4 DUP1 CALLDATASIZE SUB DUP2 ADD SWAP1 PUSH2 0x488 SWAP2 SWAP1 PUSH2 0x22F2 JUMP JUMPDEST PUSH2 0xF49 JUMP JUMPDEST STOP JUMPDEST PUSH2 0x499 CALLVALUE DUP3 PUSH2 0xFDB JUMP JUMPDEST PUSH2 0x4A1 PUSH2 0x1085 JUMP JUMPDEST POP JUMP JUMPDEST DUP1 PUSH1 0x1 PUSH1 0x0 PUSH2 0x100 EXP DUP2 SLOAD DUP2 PUSH20 0xFFFFFFFFFFFFFFFFFFFFFFFFFFFFFFFFFFFFFFFF MUL NOT AND SWAP1 DUP4 PUSH20 0xFFFFFFFFFFFFFFFFFFFFFFFFFFFFFFFFFFFFFFFF AND MUL OR SWAP1 SSTORE POP POP JUMP JUMPDEST PUSH1 0x6 PUSH1 0x0 SWAP1 SLOAD SWAP1 PUSH2 0x100 EXP SWAP1 DIV PUSH20 0xFFFFFFFFFFFFFFFFFFFFFFFFFFFFFFFFFFFFFFFF AND DUP2 JUMP JUMPDEST PUSH1 0xC PUSH1 0x20 MSTORE DUP1 PUSH1 0x0 MSTORE PUSH1 0x40 PUSH1 0x0 KECCAK256 PUSH1 0x0 SWAP2 POP SWAP1 POP DUP1 PUSH1 0x0 ADD SLOAD SWAP1 DUP1 PUSH1 0x1 ADD PUSH1 0x0 SWAP1 SLOAD SWAP1 PUSH2 0x100 EXP SWAP1 DIV PUSH20 0xFFFFFFFFFFFFFFFFFFFFFFFFFFFFFFFFFFFFFFFF AND SWAP1 DUP1 PUSH1 0x2 ADD SLOAD SWAP1 POP DUP4 JUMP JUMPDEST PUSH1 0xF SLOAD DUP2 JUMP JUMPDEST PUSH1 0x0 DUP2 SWAP1 POP PUSH1 0x0 DUP2 PUSH20 0xFFFFFFFFFFFFFFFFFFFFFFFFFFFFFFFFFFFFFFFF AND PUSH4 0x70A08231 ADDRESS PUSH1 0x40 MLOAD DUP3 PUSH4 0xFFFFFFFF AND PUSH1 0xE0 SHL DUP2 MSTORE PUSH1 0x4 ADD PUSH2 0x59E SWAP2 SWAP1 PUSH2 0x22A1 JUMP JUMPDEST PUSH1 0x20 PUSH1 0x40 MLOAD DUP1 DUP4 SUB DUP2 DUP7 GAS STATICCALL ISZERO DUP1 ISZERO PUSH2 0x5BB JUMPI RETURNDATASIZE PUSH1 0x0 DUP1 RETURNDATACOPY RETURNDATASIZE PUSH1 0x0 REVERT JUMPDEST POP POP POP POP PUSH1 0x40 MLOAD RETURNDATASIZE PUSH1 0x1F NOT PUSH1 0x1F DUP3 ADD AND DUP3 ADD DUP1 PUSH1 0x40 MSTORE POP DUP2 ADD SWAP1 PUSH2 0x5DF SWAP2 SWAP1 PUSH2 0x2395 JUMP JUMPDEST SWAP1 POP DUP2 PUSH20 0xFFFFFFFFFFFFFFFFFFFFFFFFFFFFFFFFFFFFFFFF AND PUSH4 0xA9059CBB CALLER DUP4 PUSH1 0x40 MLOAD DUP4 PUSH4 0xFFFFFFFF AND PUSH1 0xE0 SHL DUP2 MSTORE PUSH1 0x4 ADD PUSH2 0x61C SWAP3 SWAP2 SWAP1 PUSH2 0x23C2 JUMP JUMPDEST PUSH1 0x20 PUSH1 0x40 MLOAD DUP1 DUP4 SUB DUP2 PUSH1 0x0 DUP8 GAS CALL ISZERO DUP1 ISZERO PUSH2 0x63B JUMPI RETURNDATASIZE PUSH1 0x0 DUP1 RETURNDATACOPY RETURNDATASIZE PUSH1 0x0 REVERT JUMPDEST POP POP POP POP PUSH1 0x40 MLOAD RETURNDATASIZE PUSH1 0x1F NOT PUSH1 0x1F DUP3 ADD AND DUP3 ADD DUP1 PUSH1 0x40 MSTORE POP DUP2 ADD SWAP1 PUSH2 0x65F SWAP2 SWAP1 PUSH2 0x2423 JUMP JUMPDEST POP POP POP POP JUMP JUMPDEST PUSH1 0x0 DUP1 PUSH1 0x0 PUSH1 0x1 PUSH1 0x0 SWAP1 SLOAD SWAP1 PUSH2 0x100 EXP SWAP1 DIV PUSH20 0xFFFFFFFFFFFFFFFFFFFFFFFFFFFFFFFFFFFFFFFF AND PUSH20 0xFFFFFFFFFFFFFFFFFFFFFFFFFFFFFFFFFFFFFFFF AND PUSH4 0x70A08231 ADDRESS PUSH1 0x40 MLOAD DUP3 PUSH4 0xFFFFFFFF AND PUSH1 0xE0 SHL DUP2 MSTORE PUSH1 0x4 ADD PUSH2 0x6C5 SWAP2 SWAP1 PUSH2 0x22A1 JUMP JUMPDEST PUSH1 0x20 PUSH1 0x40 MLOAD DUP1 DUP4 SUB DUP2 DUP7 GAS STATICCALL ISZERO DUP1 ISZERO PUSH2 0x6E2 JUMPI RETURNDATASIZE PUSH1 0x0 DUP1 RETURNDATACOPY RETURNDATASIZE PUSH1 0x0 REVERT JUMPDEST POP POP POP POP PUSH1 0x40 MLOAD RETURNDATASIZE PUSH1 0x1F NOT PUSH1 0x1F DUP3 ADD AND DUP3 ADD DUP1 PUSH1 0x40 MSTORE POP DUP2 ADD SWAP1 PUSH2 0x706 SWAP2 SWAP1 PUSH2 0x2395 JUMP JUMPDEST SWAP1 POP PUSH1 0x0 PUSH1 0x64 PUSH1 0x69 PUSH1 0xA PUSH1 0x0 SWAP1 SLOAD SWAP1 PUSH2 0x100 EXP SWAP1 DIV PUSH20 0xFFFFFFFFFFFFFFFFFFFFFFFFFFFFFFFFFFFFFFFF AND PUSH20 0xFFFFFFFFFFFFFFFFFFFFFFFFFFFFFFFFFFFFFFFF AND PUSH4 0x3AC35585 PUSH1 0x0 DUP1 SLOAD SWAP1 PUSH2 0x100 EXP SWAP1 DIV PUSH20 0xFFFFFFFFFFFFFFFFFFFFFFFFFFFFFFFFFFFFFFFF AND CALLVALUE PUSH1 0x40 MLOAD DUP4 PUSH4 0xFFFFFFFF AND PUSH1 0xE0 SHL DUP2 MSTORE PUSH1 0x4 ADD PUSH2 0x78B SWAP3 SWAP2 SWAP1 PUSH2 0x23C2 JUMP JUMPDEST PUSH1 0x20 PUSH1 0x40 MLOAD DUP1 DUP4 SUB DUP2 DUP7 GAS STATICCALL ISZERO DUP1 ISZERO PUSH2 0x7A8 JUMPI RETURNDATASIZE PUSH1 0x0 DUP1 RETURNDATACOPY RETURNDATASIZE PUSH1 0x0 REVERT JUMPDEST POP POP POP POP PUSH1 0x40 MLOAD RETURNDATASIZE PUSH1 0x1F NOT PUSH1 0x1F DUP3 ADD AND DUP3 ADD DUP1 PUSH1 0x40 MSTORE POP DUP2 ADD SWAP1 PUSH2 0x7CC SWAP2 SWAP1 PUSH2 0x2395 JUMP JUMPDEST PUSH2 0x7D6 SWAP2 SWAP1 PUSH2 0x247F JUMP JUMPDEST PUSH2 0x7E0 SWAP2 SWAP1 PUSH2 0x24F0 JUMP JUMPDEST SWAP1 POP DUP2 DUP2 GT ISZERO PUSH2 0x9CF JUMPI PUSH32 0xCF34EF537AC33EE1AC626CA1587A0A7E8E51561E5514F8CB36AFA1C5102B3BAB PUSH1 0x40 MLOAD PUSH2 0x817 SWAP1 PUSH2 0x257E JUMP JUMPDEST PUSH1 0x40 MLOAD DUP1 SWAP2 SUB SWAP1 LOG1 PUSH1 0x1 PUSH1 0x0 SWAP1 SLOAD SWAP1 PUSH2 0x100 EXP SWAP1 DIV PUSH20 0xFFFFFFFFFFFFFFFFFFFFFFFFFFFFFFFFFFFFFFFF AND PUSH20 0xFFFFFFFFFFFFFFFFFFFFFFFFFFFFFFFFFFFFFFFF AND PUSH4 0x96FE8349 DUP4 DUP4 PUSH2 0x869 SWAP2 SWAP1 PUSH2 0x259E JUMP JUMPDEST ADDRESS PUSH1 0x40 MLOAD DUP4 PUSH4 0xFFFFFFFF AND PUSH1 0xE0 SHL DUP2 MSTORE PUSH1 0x4 ADD PUSH2 0x887 SWAP3 SWAP2 SWAP1 PUSH2 0x25D2 JUMP JUMPDEST PUSH1 0x0 PUSH1 0x40 MLOAD DUP1 DUP4 SUB DUP2 PUSH1 0x0 DUP8 DUP1 EXTCODESIZE ISZERO DUP1 ISZERO PUSH2 0x8A1 JUMPI PUSH1 0x0 DUP1 REVERT JUMPDEST POP GAS CALL ISZERO DUP1 ISZERO PUSH2 0x8B5 JUMPI RETURNDATASIZE PUSH1 0x0 DUP1 RETURNDATACOPY RETURNDATASIZE PUSH1 0x0 REVERT JUMPDEST POP POP POP POP PUSH32 0xCF34EF537AC33EE1AC626CA1587A0A7E8E51561E5514F8CB36AFA1C5102B3BAB PUSH1 0x40 MLOAD PUSH2 0x8E6 SWAP1 PUSH2 0x2647 JUMP JUMPDEST PUSH1 0x40 MLOAD DUP1 SWAP2 SUB SWAP1 LOG1 PUSH32 0x909C57D5C6AC08245CF2A6DE3900E2B868513FA59099B92B27D8DB823D92DF9C DUP3 DUP3 PUSH2 0x91B SWAP2 SWAP1 PUSH2 0x259E JUMP JUMPDEST PUSH1 0x40 MLOAD PUSH2 0x928 SWAP2 SWAP1 PUSH2 0x2365 JUMP JUMPDEST PUSH1 0x40 MLOAD DUP1 SWAP2 SUB SWAP1 LOG1 PUSH1 0x1 PUSH1 0x0 SWAP1 SLOAD SWAP1 PUSH2 0x100 EXP SWAP1 DIV PUSH20 0xFFFFFFFFFFFFFFFFFFFFFFFFFFFFFFFFFFFFFFFF AND PUSH20 0xFFFFFFFFFFFFFFFFFFFFFFFFFFFFFFFFFFFFFFFF AND PUSH4 0x70A08231 ADDRESS PUSH1 0x40 MLOAD DUP3 PUSH4 0xFFFFFFFF AND PUSH1 0xE0 SHL DUP2 MSTORE PUSH1 0x4 ADD PUSH2 0x98B SWAP2 SWAP1 PUSH2 0x22A1 JUMP JUMPDEST PUSH1 0x20 PUSH1 0x40 MLOAD DUP1 DUP4 SUB DUP2 DUP7 GAS STATICCALL ISZERO DUP1 ISZERO PUSH2 0x9A8 JUMPI RETURNDATASIZE PUSH1 0x0 DUP1 RETURNDATACOPY RETURNDATASIZE PUSH1 0x0 REVERT JUMPDEST POP POP POP POP PUSH1 0x40 MLOAD RETURNDATASIZE PUSH1 0x1F NOT PUSH1 0x1F DUP3 ADD AND DUP3 ADD DUP1 PUSH1 0x40 MSTORE POP DUP2 ADD SWAP1 PUSH2 0x9CC SWAP2 SWAP1 PUSH2 0x2395 JUMP JUMPDEST SWAP2 POP JUMPDEST PUSH1 0xB PUSH1 0x0 SWAP1 SLOAD SWAP1 PUSH2 0x100 EXP SWAP1 DIV PUSH20 0xFFFFFFFFFFFFFFFFFFFFFFFFFFFFFFFFFFFFFFFF AND PUSH20 0xFFFFFFFFFFFFFFFFFFFFFFFFFFFFFFFFFFFFFFFF AND PUSH4 0xF305D719 CALLVALUE ADDRESS DUP5 PUSH1 0x0 PUSH1 0x64 PUSH1 0x5F CALLVALUE PUSH2 0xA21 SWAP2 SWAP1 PUSH2 0x247F JUMP JUMPDEST PUSH2 0xA2B SWAP2 SWAP1 PUSH2 0x24F0 JUMP JUMPDEST ADDRESS PUSH32 0xFFFFFFFFFFFFFFFFFFFFFFFFFFFFFFFFFFFFFFFFFFFFFFFFFFFFFFFFFFFFFFFF PUSH1 0x40 MLOAD DUP9 PUSH4 0xFFFFFFFF AND PUSH1 0xE0 SHL DUP2 MSTORE PUSH1 0x4 ADD PUSH2 0xA6E SWAP7 SWAP6 SWAP5 SWAP4 SWAP3 SWAP2 SWAP1 PUSH2 0x26AC JUMP JUMPDEST PUSH1 0x60 PUSH1 0x40 MLOAD DUP1 DUP4 SUB DUP2 DUP6 DUP9 GAS CALL SWAP4 POP POP POP POP DUP1 ISZERO PUSH2 0xAAA JUMPI POP PUSH1 0x40 MLOAD RETURNDATASIZE PUSH1 0x1F NOT PUSH1 0x1F DUP3 ADD AND DUP3 ADD DUP1 PUSH1 0x40 MSTORE POP DUP2 ADD SWAP1 PUSH2 0xAA7 SWAP2 SWAP1 PUSH2 0x270D JUMP JUMPDEST PUSH1 0x1 JUMPDEST PUSH2 0xAE8 JUMPI PUSH32 0xCF34EF537AC33EE1AC626CA1587A0A7E8E51561E5514F8CB36AFA1C5102B3BAB PUSH1 0x40 MLOAD PUSH2 0xADB SWAP1 PUSH2 0x27AC JUMP JUMPDEST PUSH1 0x40 MLOAD DUP1 SWAP2 SUB SWAP1 LOG1 PUSH2 0xBCA JUMP JUMPDEST POP POP POP PUSH32 0xCF34EF537AC33EE1AC626CA1587A0A7E8E51561E5514F8CB36AFA1C5102B3BAB PUSH1 0x40 MLOAD PUSH2 0xB18 SWAP1 PUSH2 0x2818 JUMP JUMPDEST PUSH1 0x40 MLOAD DUP1 SWAP2 SUB SWAP1 LOG1 PUSH1 0x1 PUSH1 0x0 SWAP1 SLOAD SWAP1 PUSH2 0x100 EXP SWAP1 DIV PUSH20 0xFFFFFFFFFFFFFFFFFFFFFFFFFFFFFFFFFFFFFFFF AND PUSH20 0xFFFFFFFFFFFFFFFFFFFFFFFFFFFFFFFFFFFFFFFF AND PUSH4 0x70A08231 ADDRESS PUSH1 0x40 MLOAD DUP3 PUSH4 0xFFFFFFFF AND PUSH1 0xE0 SHL DUP2 MSTORE PUSH1 0x4 ADD PUSH2 0xB7B SWAP2 SWAP1 PUSH2 0x22A1 JUMP JUMPDEST PUSH1 0x20 PUSH1 0x40 MLOAD DUP1 DUP4 SUB DUP2 DUP7 GAS STATICCALL ISZERO DUP1 ISZERO PUSH2 0xB98 JUMPI RETURNDATASIZE PUSH1 0x0 DUP1 RETURNDATACOPY RETURNDATASIZE PUSH1 0x0 REVERT JUMPDEST POP POP POP POP PUSH1 0x40 MLOAD RETURNDATASIZE PUSH1 0x1F NOT PUSH1 0x1F DUP3 ADD AND DUP3 ADD DUP1 PUSH1 0x40 MSTORE POP DUP2 ADD SWAP1 PUSH2 0xBBC SWAP2 SWAP1 PUSH2 0x2395 JUMP JUMPDEST DUP3 PUSH2 0xBC7 SWAP2 SWAP1 PUSH2 0x259E JUMP JUMPDEST SWAP3 POP JUMPDEST DUP3 SWAP4 POP POP POP POP SWAP1 JUMP JUMPDEST PUSH1 0x4 PUSH1 0x0 SWAP1 SLOAD SWAP1 PUSH2 0x100 EXP SWAP1 DIV PUSH20 0xFFFFFFFFFFFFFFFFFFFFFFFFFFFFFFFFFFFFFFFF AND DUP2 JUMP JUMPDEST PUSH1 0xE SLOAD DUP2 JUMP JUMPDEST PUSH1 0x0 PUSH1 0x9 PUSH1 0x0 SWAP1 SLOAD SWAP1 PUSH2 0x100 EXP SWAP1 DIV PUSH20 0xFFFFFFFFFFFFFFFFFFFFFFFFFFFFFFFFFFFFFFFF AND PUSH20 0xFFFFFFFFFFFFFFFFFFFFFFFFFFFFFFFFFFFFFFFF AND PUSH4 0x70A08231 ADDRESS PUSH1 0x40 MLOAD DUP3 PUSH4 0xFFFFFFFF AND PUSH1 0xE0 SHL DUP2 MSTORE PUSH1 0x4 ADD PUSH2 0xC5C SWAP2 SWAP1 PUSH2 0x22A1 JUMP JUMPDEST PUSH1 0x20 PUSH1 0x40 MLOAD DUP1 DUP4 SUB DUP2 DUP7 GAS STATICCALL ISZERO DUP1 ISZERO PUSH2 0xC79 JUMPI RETURNDATASIZE PUSH1 0x0 DUP1 RETURNDATACOPY RETURNDATASIZE PUSH1 0x0 REVERT JUMPDEST POP POP POP POP PUSH1 0x40 MLOAD RETURNDATASIZE PUSH1 0x1F NOT PUSH1 0x1F DUP3 ADD AND DUP3 ADD DUP1 PUSH1 0x40 MSTORE POP DUP2 ADD SWAP1 PUSH2 0xC9D SWAP2 SWAP1 PUSH2 0x2395 JUMP JUMPDEST SWAP1 POP SWAP1 JUMP JUMPDEST PUSH1 0x10 SLOAD DUP2 JUMP JUMPDEST PUSH1 0x1 PUSH1 0x0 SWAP1 SLOAD SWAP1 PUSH2 0x100 EXP SWAP1 DIV PUSH20 0xFFFFFFFFFFFFFFFFFFFFFFFFFFFFFFFFFFFFFFFF AND DUP2 JUMP JUMPDEST PUSH1 0x0 DUP1 SLOAD SWAP1 PUSH2 0x100 EXP SWAP1 DIV PUSH20 0xFFFFFFFFFFFFFFFFFFFFFFFFFFFFFFFFFFFFFFFF AND DUP2 JUMP JUMPDEST PUSH1 0x3 PUSH1 0x0 SWAP1 SLOAD SWAP1 PUSH2 0x100 EXP SWAP1 DIV PUSH20 0xFFFFFFFFFFFFFFFFFFFFFFFFFFFFFFFFFFFFFFFF AND DUP2 JUMP JUMPDEST PUSH1 0x5 PUSH1 0x0 SWAP1 SLOAD SWAP1 PUSH2 0x100 EXP SWAP1 DIV PUSH20 0xFFFFFFFFFFFFFFFFFFFFFFFFFFFFFFFFFFFFFFFF AND DUP2 JUMP JUMPDEST PUSH1 0x7 DUP2 DUP2 SLOAD DUP2 LT PUSH2 0xD4E JUMPI PUSH1 0x0 DUP1 REVERT JUMPDEST SWAP1 PUSH1 0x0 MSTORE PUSH1 0x20 PUSH1 0x0 KECCAK256 ADD PUSH1 0x0 SWAP2 POP SLOAD SWAP1 PUSH2 0x100 EXP SWAP1 DIV PUSH20 0xFFFFFFFFFFFFFFFFFFFFFFFFFFFFFFFFFFFFFFFF AND DUP2 JUMP JUMPDEST PUSH1 0x2 PUSH1 0x0 SWAP1 SLOAD SWAP1 PUSH2 0x100 EXP SWAP1 DIV PUSH20 0xFFFFFFFFFFFFFFFFFFFFFFFFFFFFFFFFFFFFFFFF AND DUP2 JUMP JUMPDEST PUSH1 0x0 PUSH1 0xC PUSH1 0x0 PUSH1 0x1 PUSH1 0xD DUP1 SLOAD SWAP1 POP PUSH2 0xDBB SWAP2 SWAP1 PUSH2 0x259E JUMP JUMPDEST DUP2 MSTORE PUSH1 0x20 ADD SWAP1 DUP2 MSTORE PUSH1 0x20 ADD PUSH1 0x0 KECCAK256 PUSH1 0x2 ADD SLOAD SWAP1 POP SWAP1 JUMP JUMPDEST PUSH1 0x0 DUP1 PUSH1 0x1 PUSH1 0x0 SWAP1 SLOAD SWAP1 PUSH2 0x100 EXP SWAP1 DIV PUSH20 0xFFFFFFFFFFFFFFFFFFFFFFFFFFFFFFFFFFFFFFFF AND PUSH20 0xFFFFFFFFFFFFFFFFFFFFFFFFFFFFFFFFFFFFFFFF AND PUSH4 0x18160DDD PUSH1 0x40 MLOAD DUP2 PUSH4 0xFFFFFFFF AND PUSH1 0xE0 SHL DUP2 MSTORE PUSH1 0x4 ADD PUSH1 0x20 PUSH1 0x40 MLOAD DUP1 DUP4 SUB DUP2 DUP7 GAS STATICCALL ISZERO DUP1 ISZERO PUSH2 0xE42 JUMPI RETURNDATASIZE PUSH1 0x0 DUP1 RETURNDATACOPY RETURNDATASIZE PUSH1 0x0 REVERT JUMPDEST POP POP POP POP PUSH1 0x40 MLOAD RETURNDATASIZE PUSH1 0x1F NOT PUSH1 0x1F DUP3 ADD AND DUP3 ADD DUP1 PUSH1 0x40 MSTORE POP DUP2 ADD SWAP1 PUSH2 0xE66 SWAP2 SWAP1 PUSH2 0x2395 JUMP JUMPDEST SWAP1 POP PUSH1 0x0 PUSH1 0x1 PUSH1 0x0 SWAP1 SLOAD SWAP1 PUSH2 0x100 EXP SWAP1 DIV PUSH20 0xFFFFFFFFFFFFFFFFFFFFFFFFFFFFFFFFFFFFFFFF AND PUSH20 0xFFFFFFFFFFFFFFFFFFFFFFFFFFFFFFFFFFFFFFFF AND PUSH4 0x70A08231 PUSH1 0x2 PUSH1 0x0 SWAP1 SLOAD SWAP1 PUSH2 0x100 EXP SWAP1 DIV PUSH20 0xFFFFFFFFFFFFFFFFFFFFFFFFFFFFFFFFFFFFFFFF AND PUSH1 0x40 MLOAD DUP3 PUSH4 0xFFFFFFFF AND PUSH1 0xE0 SHL DUP2 MSTORE PUSH1 0x4 ADD PUSH2 0xEE7 SWAP2 SWAP1 PUSH2 0x22A1 JUMP JUMPDEST PUSH1 0x20 PUSH1 0x40 MLOAD DUP1 DUP4 SUB DUP2 DUP7 GAS STATICCALL ISZERO DUP1 ISZERO PUSH2 0xF04 JUMPI RETURNDATASIZE PUSH1 0x0 DUP1 RETURNDATACOPY RETURNDATASIZE PUSH1 0x0 REVERT JUMPDEST POP POP POP POP PUSH1 0x40 MLOAD RETURNDATASIZE PUSH1 0x1F NOT PUSH1 0x1F DUP3 ADD AND DUP3 ADD DUP1 PUSH1 0x40 MSTORE POP DUP2 ADD SWAP1 PUSH2 0xF28 SWAP2 SWAP1 PUSH2 0x2395 JUMP JUMPDEST SWAP1 POP DUP2 PUSH1 0x64 DUP3 PUSH2 0xF38 SWAP2 SWAP1 PUSH2 0x247F JUMP JUMPDEST PUSH2 0xF42 SWAP2 SWAP1 PUSH2 0x24F0 JUMP JUMPDEST SWAP3 POP POP POP SWAP1 JUMP JUMPDEST PUSH1 0x1 PUSH1 0x0 SWAP1 SLOAD SWAP1 PUSH2 0x100 EXP SWAP1 DIV PUSH20 0xFFFFFFFFFFFFFFFFFFFFFFFFFFFFFFFFFFFFFFFF AND PUSH20 0xFFFFFFFFFFFFFFFFFFFFFFFFFFFFFFFFFFFFFFFF AND PUSH4 0x96FE8349 DUP3 CALLER PUSH1 0x40 MLOAD DUP4 PUSH4 0xFFFFFFFF AND PUSH1 0xE0 SHL DUP2 MSTORE PUSH1 0x4 ADD PUSH2 0xFA6 SWAP3 SWAP2 SWAP1 PUSH2 0x25D2 JUMP JUMPDEST PUSH1 0x0 PUSH1 0x40 MLOAD DUP1 DUP4 SUB DUP2 PUSH1 0x0 DUP8 DUP1 EXTCODESIZE ISZERO DUP1 ISZERO PUSH2 0xFC0 JUMPI PUSH1 0x0 DUP1 REVERT JUMPDEST POP GAS CALL ISZERO DUP1 ISZERO PUSH2 0xFD4 JUMPI RETURNDATASIZE PUSH1 0x0 DUP1 RETURNDATACOPY RETURNDATASIZE PUSH1 0x0 REVERT JUMPDEST POP POP POP POP POP JUMP JUMPDEST PUSH1 0x0 PUSH1 0xD DUP1 SLOAD SWAP1 POP SWAP1 POP PUSH1 0x0 PUSH1 0xC PUSH1 0x0 PUSH1 0xD DUP1 SLOAD SWAP1 POP DUP2 MSTORE PUSH1 0x20 ADD SWAP1 DUP2 MSTORE PUSH1 0x20 ADD PUSH1 0x0 KECCAK256 SWAP1 POP DUP2 DUP2 PUSH1 0x0 ADD DUP2 SWAP1 SSTORE POP DUP3 DUP2 PUSH1 0x1 ADD PUSH1 0x0 PUSH2 0x100 EXP DUP2 SLOAD DUP2 PUSH20 0xFFFFFFFFFFFFFFFFFFFFFFFFFFFFFFFFFFFFFFFF MUL NOT AND SWAP1 DUP4 PUSH20 0xFFFFFFFFFFFFFFFFFFFFFFFFFFFFFFFFFFFFFFFF AND MUL OR SWAP1 SSTORE POP DUP4 DUP2 PUSH1 0x2 ADD DUP2 SWAP1 SSTORE POP PUSH1 0xD DUP3 SWAP1 DUP1 PUSH1 0x1 DUP2 SLOAD ADD DUP1 DUP3 SSTORE DUP1 SWAP2 POP POP PUSH1 0x1 SWAP1 SUB SWAP1 PUSH1 0x0 MSTORE PUSH1 0x20 PUSH1 0x0 KECCAK256 ADD PUSH1 0x0 SWAP1 SWAP2 SWAP1 SWAP2 SWAP1 SWAP2 POP SSTORE POP POP POP POP JUMP JUMPDEST PUSH1 0x0 CALLVALUE SWAP1 POP PUSH1 0x0 PUSH1 0xF SLOAD GT ISZERO PUSH2 0x10D7 JUMPI PUSH1 0x0 SELFBALANCE SWAP1 POP PUSH2 0x10A5 PUSH1 0xF SLOAD PUSH2 0x13AD JUMP JUMPDEST PUSH1 0x0 SELFBALANCE SWAP1 POP PUSH1 0x0 DUP2 DUP4 PUSH2 0x10B8 SWAP2 SWAP1 PUSH2 0x259E JUMP JUMPDEST SWAP1 POP DUP1 PUSH1 0xF PUSH1 0x0 DUP3 DUP3 SLOAD PUSH2 0x10CC SWAP2 SWAP1 PUSH2 0x259E JUMP JUMPDEST SWAP3 POP POP DUP2 SWAP1 SSTORE POP POP POP POP JUMPDEST PUSH1 0x0 PUSH1 0x10 SLOAD GT ISZERO PUSH2 0x1125 JUMPI PUSH1 0x0 SELFBALANCE SWAP1 POP PUSH2 0x10F2 PUSH1 0x10 SLOAD PUSH2 0x14B8 JUMP JUMPDEST POP PUSH1 0x0 SELFBALANCE SWAP1 POP PUSH1 0x0 DUP2 DUP4 PUSH2 0x1106 SWAP2 SWAP1 PUSH2 0x259E JUMP JUMPDEST SWAP1 POP DUP1 PUSH1 0x10 PUSH1 0x0 DUP3 DUP3 SLOAD PUSH2 0x111A SWAP2 SWAP1 PUSH2 0x259E JUMP JUMPDEST SWAP3 POP POP DUP2 SWAP1 SSTORE POP POP POP POP JUMPDEST PUSH1 0x0 PUSH1 0xC PUSH1 0x0 PUSH1 0x1 PUSH1 0xD DUP1 SLOAD SWAP1 POP PUSH2 0x113D SWAP2 SWAP1 PUSH2 0x259E JUMP JUMPDEST DUP2 MSTORE PUSH1 0x20 ADD SWAP1 DUP2 MSTORE PUSH1 0x20 ADD PUSH1 0x0 KECCAK256 PUSH1 0x1 ADD PUSH1 0x0 SWAP1 SLOAD SWAP1 PUSH2 0x100 EXP SWAP1 DIV PUSH20 0xFFFFFFFFFFFFFFFFFFFFFFFFFFFFFFFFFFFFFFFF AND SWAP1 POP PUSH2 0x117A DUP2 PUSH2 0x197C JUMP JUMPDEST PUSH1 0x8 PUSH1 0x0 SWAP1 SLOAD SWAP1 PUSH2 0x100 EXP SWAP1 DIV PUSH20 0xFFFFFFFFFFFFFFFFFFFFFFFFFFFFFFFFFFFFFFFF AND PUSH20 0xFFFFFFFFFFFFFFFFFFFFFFFFFFFFFFFFFFFFFFFF AND PUSH4 0x6A627842 DUP3 PUSH1 0x40 MLOAD DUP3 PUSH4 0xFFFFFFFF AND PUSH1 0xE0 SHL DUP2 MSTORE PUSH1 0x4 ADD PUSH2 0x11D5 SWAP2 SWAP1 PUSH2 0x22A1 JUMP JUMPDEST PUSH1 0x0 PUSH1 0x40 MLOAD DUP1 DUP4 SUB DUP2 PUSH1 0x0 DUP8 DUP1 EXTCODESIZE ISZERO DUP1 ISZERO PUSH2 0x11EF JUMPI PUSH1 0x0 DUP1 REVERT JUMPDEST POP GAS CALL ISZERO DUP1 ISZERO PUSH2 0x1203 JUMPI RETURNDATASIZE PUSH1 0x0 DUP1 RETURNDATACOPY RETURNDATASIZE PUSH1 0x0 REVERT JUMPDEST POP POP POP POP PUSH1 0x0 PUSH2 0x1211 PUSH2 0xDD2 JUMP JUMPDEST SWAP1 POP PUSH32 0xCF34EF537AC33EE1AC626CA1587A0A7E8E51561E5514F8CB36AFA1C5102B3BAB PUSH1 0x40 MLOAD PUSH2 0x1240 SWAP1 PUSH2 0x2884 JUMP JUMPDEST PUSH1 0x40 MLOAD DUP1 SWAP2 SUB SWAP1 LOG1 PUSH32 0xB8A00D6D8CA1BE30BFEC34D8F97E55F0F0FD9EEB7FB46E030516363D4CFE1AD6 DUP3 PUSH1 0x40 MLOAD PUSH2 0x1277 SWAP2 SWAP1 PUSH2 0x22A1 JUMP JUMPDEST PUSH1 0x40 MLOAD DUP1 SWAP2 SUB SWAP1 LOG1 PUSH32 0xCF34EF537AC33EE1AC626CA1587A0A7E8E51561E5514F8CB36AFA1C5102B3BAB PUSH1 0x40 MLOAD PUSH2 0x12AC SWAP1 PUSH2 0x28F0 JUMP JUMPDEST PUSH1 0x40 MLOAD DUP1 SWAP2 SUB SWAP1 LOG1 PUSH32 0x909C57D5C6AC08245CF2A6DE3900E2B868513FA59099B92B27D8DB823D92DF9C DUP2 PUSH1 0x40 MLOAD PUSH2 0x12E3 SWAP2 SWAP1 PUSH2 0x2365 JUMP JUMPDEST PUSH1 0x40 MLOAD DUP1 SWAP2 SUB SWAP1 LOG1 PUSH1 0x14 DUP2 GT ISZERO PUSH2 0x1349 JUMPI PUSH1 0x0 SELFBALANCE SWAP1 POP PUSH2 0x1302 CALLVALUE PUSH2 0x13AD JUMP JUMPDEST PUSH1 0x0 SELFBALANCE SWAP1 POP PUSH1 0x0 DUP2 DUP4 PUSH2 0x1315 SWAP2 SWAP1 PUSH2 0x259E JUMP JUMPDEST SWAP1 POP PUSH1 0x0 DUP2 DUP8 PUSH2 0x1325 SWAP2 SWAP1 PUSH2 0x259E JUMP JUMPDEST SWAP1 POP DUP1 PUSH1 0xF PUSH1 0x0 DUP3 DUP3 SLOAD PUSH2 0x1339 SWAP2 SWAP1 PUSH2 0x2910 JUMP JUMPDEST SWAP3 POP POP DUP2 SWAP1 SSTORE POP POP POP POP POP PUSH2 0x13A8 JUMP JUMPDEST PUSH1 0x0 SELFBALANCE SWAP1 POP PUSH2 0x1364 CALLVALUE PUSH1 0x10 SLOAD PUSH2 0x135F SWAP2 SWAP1 PUSH2 0x2910 JUMP JUMPDEST PUSH2 0x14B8 JUMP JUMPDEST POP PUSH1 0x0 SELFBALANCE SWAP1 POP PUSH1 0x0 DUP2 DUP4 PUSH2 0x1378 SWAP2 SWAP1 PUSH2 0x259E JUMP JUMPDEST SWAP1 POP PUSH1 0x0 DUP2 DUP8 PUSH2 0x1388 SWAP2 SWAP1 PUSH2 0x259E JUMP JUMPDEST SWAP1 POP DUP1 PUSH1 0x10 PUSH1 0x0 DUP3 DUP3 SLOAD PUSH2 0x139C SWAP2 SWAP1 PUSH2 0x2910 JUMP JUMPDEST SWAP3 POP POP DUP2 SWAP1 SSTORE POP POP POP POP POP JUMPDEST POP POP POP JUMP JUMPDEST PUSH1 0x0 PUSH2 0x13B8 DUP3 PUSH2 0x1C6C JUMP JUMPDEST SWAP1 POP PUSH1 0x1 PUSH1 0x0 SWAP1 SLOAD SWAP1 PUSH2 0x100 EXP SWAP1 DIV PUSH20 0xFFFFFFFFFFFFFFFFFFFFFFFFFFFFFFFFFFFFFFFF AND PUSH20 0xFFFFFFFFFFFFFFFFFFFFFFFFFFFFFFFFFFFFFFFF AND PUSH4 0x42966C68 DUP3 PUSH1 0x40 MLOAD DUP3 PUSH4 0xFFFFFFFF AND PUSH1 0xE0 SHL DUP2 MSTORE PUSH1 0x4 ADD PUSH2 0x1415 SWAP2 SWAP1 PUSH2 0x2365 JUMP JUMPDEST PUSH1 0x0 PUSH1 0x40 MLOAD DUP1 DUP4 SUB DUP2 PUSH1 0x0 DUP8 DUP1 EXTCODESIZE ISZERO DUP1 ISZERO PUSH2 0x142F JUMPI PUSH1 0x0 DUP1 REVERT JUMPDEST POP GAS CALL SWAP3 POP POP POP DUP1 ISZERO PUSH2 0x1440 JUMPI POP PUSH1 0x1 JUMPDEST PUSH2 0x147E JUMPI PUSH32 0xCF34EF537AC33EE1AC626CA1587A0A7E8E51561E5514F8CB36AFA1C5102B3BAB PUSH1 0x40 MLOAD PUSH2 0x1471 SWAP1 PUSH2 0x2990 JUMP JUMPDEST PUSH1 0x40 MLOAD DUP1 SWAP2 SUB SWAP1 LOG1 PUSH2 0x14B4 JUMP JUMPDEST PUSH32 0xCF34EF537AC33EE1AC626CA1587A0A7E8E51561E5514F8CB36AFA1C5102B3BAB PUSH1 0x40 MLOAD PUSH2 0x14AB SWAP1 PUSH2 0x29FC JUMP JUMPDEST PUSH1 0x40 MLOAD DUP1 SWAP2 SUB SWAP1 LOG1 JUMPDEST POP POP JUMP JUMPDEST PUSH1 0x0 DUP1 PUSH1 0x0 PUSH1 0x1 PUSH1 0x0 SWAP1 SLOAD SWAP1 PUSH2 0x100 EXP SWAP1 DIV PUSH20 0xFFFFFFFFFFFFFFFFFFFFFFFFFFFFFFFFFFFFFFFF AND PUSH20 0xFFFFFFFFFFFFFFFFFFFFFFFFFFFFFFFFFFFFFFFF AND PUSH4 0x70A08231 ADDRESS PUSH1 0x40 MLOAD DUP3 PUSH4 0xFFFFFFFF AND PUSH1 0xE0 SHL DUP2 MSTORE PUSH1 0x4 ADD PUSH2 0x1518 SWAP2 SWAP1 PUSH2 0x22A1 JUMP JUMPDEST PUSH1 0x20 PUSH1 0x40 MLOAD DUP1 DUP4 SUB DUP2 DUP7 GAS STATICCALL ISZERO DUP1 ISZERO PUSH2 0x1535 JUMPI RETURNDATASIZE PUSH1 0x0 DUP1 RETURNDATACOPY RETURNDATASIZE PUSH1 0x0 REVERT JUMPDEST POP POP POP POP PUSH1 0x40 MLOAD RETURNDATASIZE PUSH1 0x1F NOT PUSH1 0x1F DUP3 ADD AND DUP3 ADD DUP1 PUSH1 0x40 MSTORE POP DUP2 ADD SWAP1 PUSH2 0x1559 SWAP2 SWAP1 PUSH2 0x2395 JUMP JUMPDEST SWAP1 POP PUSH1 0x0 PUSH1 0x64 PUSH1 0x69 PUSH1 0xA PUSH1 0x0 SWAP1 SLOAD SWAP1 PUSH2 0x100 EXP SWAP1 DIV PUSH20 0xFFFFFFFFFFFFFFFFFFFFFFFFFFFFFFFFFFFFFFFF AND PUSH20 0xFFFFFFFFFFFFFFFFFFFFFFFFFFFFFFFFFFFFFFFF AND PUSH4 0x3AC35585 PUSH1 0x0 DUP1 SLOAD SWAP1 PUSH2 0x100 EXP SWAP1 DIV PUSH20 0xFFFFFFFFFFFFFFFFFFFFFFFFFFFFFFFFFFFFFFFF AND DUP10 PUSH1 0x40 MLOAD DUP4 PUSH4 0xFFFFFFFF AND PUSH1 0xE0 SHL DUP2 MSTORE PUSH1 0x4 ADD PUSH2 0x15DE SWAP3 SWAP2 SWAP1 PUSH2 0x23C2 JUMP JUMPDEST PUSH1 0x20 PUSH1 0x40 MLOAD DUP1 DUP4 SUB DUP2 DUP7 GAS STATICCALL ISZERO DUP1 ISZERO PUSH2 0x15FB JUMPI RETURNDATASIZE PUSH1 0x0 DUP1 RETURNDATACOPY RETURNDATASIZE PUSH1 0x0 REVERT JUMPDEST POP POP POP POP PUSH1 0x40 MLOAD RETURNDATASIZE PUSH1 0x1F NOT PUSH1 0x1F DUP3 ADD AND DUP3 ADD DUP1 PUSH1 0x40 MSTORE POP DUP2 ADD SWAP1 PUSH2 0x161F SWAP2 SWAP1 PUSH2 0x2395 JUMP JUMPDEST PUSH2 0x1629 SWAP2 SWAP1 PUSH2 0x247F JUMP JUMPDEST PUSH2 0x1633 SWAP2 SWAP1 PUSH2 0x24F0 JUMP JUMPDEST SWAP1 POP DUP2 DUP2 GT ISZERO PUSH2 0x1776 JUMPI PUSH1 0x1 PUSH1 0x0 SWAP1 SLOAD SWAP1 PUSH2 0x100 EXP SWAP1 DIV PUSH20 0xFFFFFFFFFFFFFFFFFFFFFFFFFFFFFFFFFFFFFFFF AND PUSH20 0xFFFFFFFFFFFFFFFFFFFFFFFFFFFFFFFFFFFFFFFF AND PUSH4 0x96FE8349 DUP4 DUP4 PUSH2 0x1687 SWAP2 SWAP1 PUSH2 0x259E JUMP JUMPDEST ADDRESS PUSH1 0x40 MLOAD DUP4 PUSH4 0xFFFFFFFF AND PUSH1 0xE0 SHL DUP2 MSTORE PUSH1 0x4 ADD PUSH2 0x16A5 SWAP3 SWAP2 SWAP1 PUSH2 0x25D2 JUMP JUMPDEST PUSH1 0x0 PUSH1 0x40 MLOAD DUP1 DUP4 SUB DUP2 PUSH1 0x0 DUP8 DUP1 EXTCODESIZE ISZERO DUP1 ISZERO PUSH2 0x16BF JUMPI PUSH1 0x0 DUP1 REVERT JUMPDEST POP GAS CALL ISZERO DUP1 ISZERO PUSH2 0x16D3 JUMPI RETURNDATASIZE PUSH1 0x0 DUP1 RETURNDATACOPY RETURNDATASIZE PUSH1 0x0 REVERT JUMPDEST POP POP POP POP PUSH1 0x1 PUSH1 0x0 SWAP1 SLOAD SWAP1 PUSH2 0x100 EXP SWAP1 DIV PUSH20 0xFFFFFFFFFFFFFFFFFFFFFFFFFFFFFFFFFFFFFFFF AND PUSH20 0xFFFFFFFFFFFFFFFFFFFFFFFFFFFFFFFFFFFFFFFF AND PUSH4 0x70A08231 ADDRESS PUSH1 0x40 MLOAD DUP3 PUSH4 0xFFFFFFFF AND PUSH1 0xE0 SHL DUP2 MSTORE PUSH1 0x4 ADD PUSH2 0x1732 SWAP2 SWAP1 PUSH2 0x22A1 JUMP JUMPDEST PUSH1 0x20 PUSH1 0x40 MLOAD DUP1 DUP4 SUB DUP2 DUP7 GAS STATICCALL ISZERO DUP1 ISZERO PUSH2 0x174F JUMPI RETURNDATASIZE PUSH1 0x0 DUP1 RETURNDATACOPY RETURNDATASIZE PUSH1 0x0 REVERT JUMPDEST POP POP POP POP PUSH1 0x40 MLOAD RETURNDATASIZE PUSH1 0x1F NOT PUSH1 0x1F DUP3 ADD AND DUP3 ADD DUP1 PUSH1 0x40 MSTORE POP DUP2 ADD SWAP1 PUSH2 0x1773 SWAP2 SWAP1 PUSH2 0x2395 JUMP JUMPDEST SWAP2 POP JUMPDEST PUSH1 0xB PUSH1 0x0 SWAP1 SLOAD SWAP1 PUSH2 0x100 EXP SWAP1 DIV PUSH20 0xFFFFFFFFFFFFFFFFFFFFFFFFFFFFFFFFFFFFFFFF AND PUSH20 0xFFFFFFFFFFFFFFFFFFFFFFFFFFFFFFFFFFFFFFFF AND PUSH4 0xF305D719 DUP7 ADDRESS DUP5 PUSH1 0x0 PUSH1 0x64 PUSH1 0x5F DUP13 PUSH2 0x17C8 SWAP2 SWAP1 PUSH2 0x247F JUMP JUMPDEST PUSH2 0x17D2 SWAP2 SWAP1 PUSH2 0x24F0 JUMP JUMPDEST ADDRESS PUSH32 0xFFFFFFFFFFFFFFFFFFFFFFFFFFFFFFFFFFFFFFFFFFFFFFFFFFFFFFFFFFFFFFFF PUSH1 0x40 MLOAD DUP9 PUSH4 0xFFFFFFFF AND PUSH1 0xE0 SHL DUP2 MSTORE PUSH1 0x4 ADD PUSH2 0x1815 SWAP7 SWAP6 SWAP5 SWAP4 SWAP3 SWAP2 SWAP1 PUSH2 0x26AC JUMP JUMPDEST PUSH1 0x60 PUSH1 0x40 MLOAD DUP1 DUP4 SUB DUP2 DUP6 DUP9 GAS CALL SWAP4 POP POP POP POP DUP1 ISZERO PUSH2 0x1851 JUMPI POP PUSH1 0x40 MLOAD RETURNDATASIZE PUSH1 0x1F NOT PUSH1 0x1F DUP3 ADD AND DUP3 ADD DUP1 PUSH1 0x40 MSTORE POP DUP2 ADD SWAP1 PUSH2 0x184E SWAP2 SWAP1 PUSH2 0x270D JUMP JUMPDEST PUSH1 0x1 JUMPDEST PUSH2 0x188F JUMPI PUSH32 0xCF34EF537AC33EE1AC626CA1587A0A7E8E51561E5514F8CB36AFA1C5102B3BAB PUSH1 0x40 MLOAD PUSH2 0x1882 SWAP1 PUSH2 0x27AC JUMP JUMPDEST PUSH1 0x40 MLOAD DUP1 SWAP2 SUB SWAP1 LOG1 PUSH2 0x1971 JUMP JUMPDEST POP POP POP PUSH32 0xCF34EF537AC33EE1AC626CA1587A0A7E8E51561E5514F8CB36AFA1C5102B3BAB PUSH1 0x40 MLOAD PUSH2 0x18BF SWAP1 PUSH2 0x2818 JUMP JUMPDEST PUSH1 0x40 MLOAD DUP1 SWAP2 SUB SWAP1 LOG1 PUSH1 0x1 PUSH1 0x0 SWAP1 SLOAD SWAP1 PUSH2 0x100 EXP SWAP1 DIV PUSH20 0xFFFFFFFFFFFFFFFFFFFFFFFFFFFFFFFFFFFFFFFF AND PUSH20 0xFFFFFFFFFFFFFFFFFFFFFFFFFFFFFFFFFFFFFFFF AND PUSH4 0x70A08231 ADDRESS PUSH1 0x40 MLOAD DUP3 PUSH4 0xFFFFFFFF AND PUSH1 0xE0 SHL DUP2 MSTORE PUSH1 0x4 ADD PUSH2 0x1922 SWAP2 SWAP1 PUSH2 0x22A1 JUMP JUMPDEST PUSH1 0x20 PUSH1 0x40 MLOAD DUP1 DUP4 SUB DUP2 DUP7 GAS STATICCALL ISZERO DUP1 ISZERO PUSH2 0x193F JUMPI RETURNDATASIZE PUSH1 0x0 DUP1 RETURNDATACOPY RETURNDATASIZE PUSH1 0x0 REVERT JUMPDEST POP POP POP POP PUSH1 0x40 MLOAD RETURNDATASIZE PUSH1 0x1F NOT PUSH1 0x1F DUP3 ADD AND DUP3 ADD DUP1 PUSH1 0x40 MSTORE POP DUP2 ADD SWAP1 PUSH2 0x1963 SWAP2 SWAP1 PUSH2 0x2395 JUMP JUMPDEST DUP3 PUSH2 0x196E SWAP2 SWAP1 PUSH2 0x259E JUMP JUMPDEST SWAP3 POP JUMPDEST DUP3 SWAP4 POP POP POP POP SWAP2 SWAP1 POP JUMP JUMPDEST PUSH1 0x0 PUSH1 0xC PUSH1 0x0 PUSH1 0x1 PUSH1 0xD DUP1 SLOAD SWAP1 POP PUSH2 0x1994 SWAP2 SWAP1 PUSH2 0x259E JUMP JUMPDEST DUP2 MSTORE PUSH1 0x20 ADD SWAP1 DUP2 MSTORE PUSH1 0x20 ADD PUSH1 0x0 KECCAK256 PUSH1 0x2 ADD SLOAD SWAP1 POP PUSH1 0x0 DUP2 SUB ISZERO PUSH2 0x1C68 JUMPI PUSH1 0xA PUSH1 0x0 SWAP1 SLOAD SWAP1 PUSH2 0x100 EXP SWAP1 DIV PUSH20 0xFFFFFFFFFFFFFFFFFFFFFFFFFFFFFFFFFFFFFFFF AND PUSH20 0xFFFFFFFFFFFFFFFFFFFFFFFFFFFFFFFFFFFFFFFF AND PUSH4 0x3AC35585 PUSH1 0x0 DUP1 SLOAD SWAP1 PUSH2 0x100 EXP SWAP1 DIV PUSH20 0xFFFFFFFFFFFFFFFFFFFFFFFFFFFFFFFFFFFFFFFF AND DUP4 PUSH1 0x40 MLOAD DUP4 PUSH4 0xFFFFFFFF AND PUSH1 0xE0 SHL DUP2 MSTORE PUSH1 0x4 ADD PUSH2 0x1A2E SWAP3 SWAP2 SWAP1 PUSH2 0x23C2 JUMP JUMPDEST PUSH1 0x20 PUSH1 0x40 MLOAD DUP1 DUP4 SUB DUP2 DUP7 GAS STATICCALL SWAP3 POP POP POP DUP1 ISZERO PUSH2 0x1A68 JUMPI POP PUSH1 0x40 MLOAD RETURNDATASIZE PUSH1 0x1F NOT PUSH1 0x1F DUP3 ADD AND DUP3 ADD DUP1 PUSH1 0x40 MSTORE POP DUP2 ADD SWAP1 PUSH2 0x1A65 SWAP2 SWAP1 PUSH2 0x2395 JUMP JUMPDEST PUSH1 0x1 JUMPDEST PUSH2 0x1AA6 JUMPI PUSH32 0xCF34EF537AC33EE1AC626CA1587A0A7E8E51561E5514F8CB36AFA1C5102B3BAB PUSH1 0x40 MLOAD PUSH2 0x1A99 SWAP1 PUSH2 0x2A68 JUMP JUMPDEST PUSH1 0x40 MLOAD DUP1 SWAP2 SUB SWAP1 LOG1 PUSH2 0x1C67 JUMP JUMPDEST POP PUSH1 0x0 PUSH1 0xA PUSH1 0x0 SWAP1 SLOAD SWAP1 PUSH2 0x100 EXP SWAP1 DIV PUSH20 0xFFFFFFFFFFFFFFFFFFFFFFFFFFFFFFFFFFFFFFFF AND PUSH20 0xFFFFFFFFFFFFFFFFFFFFFFFFFFFFFFFFFFFFFFFF AND PUSH4 0x3AC35585 PUSH1 0x0 DUP1 SLOAD SWAP1 PUSH2 0x100 EXP SWAP1 DIV PUSH20 0xFFFFFFFFFFFFFFFFFFFFFFFFFFFFFFFFFFFFFFFF AND DUP5 PUSH1 0x40 MLOAD DUP4 PUSH4 0xFFFFFFFF AND PUSH1 0xE0 SHL DUP2 MSTORE PUSH1 0x4 ADD PUSH2 0x1B26 SWAP3 SWAP2 SWAP1 PUSH2 0x23C2 JUMP JUMPDEST PUSH1 0x20 PUSH1 0x40 MLOAD DUP1 DUP4 SUB DUP2 DUP7 GAS STATICCALL ISZERO DUP1 ISZERO PUSH2 0x1B43 JUMPI RETURNDATASIZE PUSH1 0x0 DUP1 RETURNDATACOPY RETURNDATASIZE PUSH1 0x0 REVERT JUMPDEST POP POP POP POP PUSH1 0x40 MLOAD RETURNDATASIZE PUSH1 0x1F NOT PUSH1 0x1F DUP3 ADD AND DUP3 ADD DUP1 PUSH1 0x40 MSTORE POP DUP2 ADD SWAP1 PUSH2 0x1B67 SWAP2 SWAP1 PUSH2 0x2395 JUMP JUMPDEST SWAP1 POP PUSH1 0x1 PUSH1 0x0 SWAP1 SLOAD SWAP1 PUSH2 0x100 EXP SWAP1 DIV PUSH20 0xFFFFFFFFFFFFFFFFFFFFFFFFFFFFFFFFFFFFFFFF AND PUSH20 0xFFFFFFFFFFFFFFFFFFFFFFFFFFFFFFFFFFFFFFFF AND PUSH4 0x96FE8349 DUP3 DUP6 PUSH1 0x40 MLOAD DUP4 PUSH4 0xFFFFFFFF AND PUSH1 0xE0 SHL DUP2 MSTORE PUSH1 0x4 ADD PUSH2 0x1BC6 SWAP3 SWAP2 SWAP1 PUSH2 0x25D2 JUMP JUMPDEST PUSH1 0x0 PUSH1 0x40 MLOAD DUP1 DUP4 SUB DUP2 PUSH1 0x0 DUP8 DUP1 EXTCODESIZE ISZERO DUP1 ISZERO PUSH2 0x1BE0 JUMPI PUSH1 0x0 DUP1 REVERT JUMPDEST POP GAS CALL SWAP3 POP POP POP DUP1 ISZERO PUSH2 0x1BF1 JUMPI POP PUSH1 0x1 JUMPDEST PUSH2 0x1C2F JUMPI PUSH32 0xCF34EF537AC33EE1AC626CA1587A0A7E8E51561E5514F8CB36AFA1C5102B3BAB PUSH1 0x40 MLOAD PUSH2 0x1C22 SWAP1 PUSH2 0x2AFA JUMP JUMPDEST PUSH1 0x40 MLOAD DUP1 SWAP2 SUB SWAP1 LOG1 PUSH2 0x1C65 JUMP JUMPDEST PUSH32 0xCF34EF537AC33EE1AC626CA1587A0A7E8E51561E5514F8CB36AFA1C5102B3BAB PUSH1 0x40 MLOAD PUSH2 0x1C5C SWAP1 PUSH2 0x2B66 JUMP JUMPDEST PUSH1 0x40 MLOAD DUP1 SWAP2 SUB SWAP1 LOG1 JUMPDEST POP JUMPDEST JUMPDEST POP POP JUMP JUMPDEST PUSH1 0x0 DUP1 PUSH1 0x0 PUSH1 0x1 PUSH1 0x0 SWAP1 SLOAD SWAP1 PUSH2 0x100 EXP SWAP1 DIV PUSH20 0xFFFFFFFFFFFFFFFFFFFFFFFFFFFFFFFFFFFFFFFF AND PUSH20 0xFFFFFFFFFFFFFFFFFFFFFFFFFFFFFFFFFFFFFFFF AND PUSH4 0x70A08231 ADDRESS PUSH1 0x40 MLOAD DUP3 PUSH4 0xFFFFFFFF AND PUSH1 0xE0 SHL DUP2 MSTORE PUSH1 0x4 ADD PUSH2 0x1CCC SWAP2 SWAP1 PUSH2 0x22A1 JUMP JUMPDEST PUSH1 0x20 PUSH1 0x40 MLOAD DUP1 DUP4 SUB DUP2 DUP7 GAS STATICCALL SWAP3 POP POP POP DUP1 ISZERO PUSH2 0x1D06 JUMPI POP PUSH1 0x40 MLOAD RETURNDATASIZE PUSH1 0x1F NOT PUSH1 0x1F DUP3 ADD AND DUP3 ADD DUP1 PUSH1 0x40 MSTORE POP DUP2 ADD SWAP1 PUSH2 0x1D03 SWAP2 SWAP1 PUSH2 0x2395 JUMP JUMPDEST PUSH1 0x1 JUMPDEST PUSH2 0x1D44 JUMPI PUSH32 0xCF34EF537AC33EE1AC626CA1587A0A7E8E51561E5514F8CB36AFA1C5102B3BAB PUSH1 0x40 MLOAD PUSH2 0x1D37 SWAP1 PUSH2 0x2BF8 JUMP JUMPDEST PUSH1 0x40 MLOAD DUP1 SWAP2 SUB SWAP1 LOG1 PUSH2 0x1DE4 JUMP JUMPDEST POP PUSH1 0x1 PUSH1 0x0 SWAP1 SLOAD SWAP1 PUSH2 0x100 EXP SWAP1 DIV PUSH20 0xFFFFFFFFFFFFFFFFFFFFFFFFFFFFFFFFFFFFFFFF AND PUSH20 0xFFFFFFFFFFFFFFFFFFFFFFFFFFFFFFFFFFFFFFFF AND PUSH4 0x70A08231 ADDRESS PUSH1 0x40 MLOAD DUP3 PUSH4 0xFFFFFFFF AND PUSH1 0xE0 SHL DUP2 MSTORE PUSH1 0x4 ADD PUSH2 0x1DA0 SWAP2 SWAP1 PUSH2 0x22A1 JUMP JUMPDEST PUSH1 0x20 PUSH1 0x40 MLOAD DUP1 DUP4 SUB DUP2 DUP7 GAS STATICCALL ISZERO DUP1 ISZERO PUSH2 0x1DBD JUMPI RETURNDATASIZE PUSH1 0x0 DUP1 RETURNDATACOPY RETURNDATASIZE PUSH1 0x0 REVERT JUMPDEST POP POP POP POP PUSH1 0x40 MLOAD RETURNDATASIZE PUSH1 0x1F NOT PUSH1 0x1F DUP3 ADD AND DUP3 ADD DUP1 PUSH1 0x40 MSTORE POP DUP2 ADD SWAP1 PUSH2 0x1DE1 SWAP2 SWAP1 PUSH2 0x2395 JUMP JUMPDEST SWAP2 POP JUMPDEST PUSH1 0xA PUSH1 0x0 SWAP1 SLOAD SWAP1 PUSH2 0x100 EXP SWAP1 DIV PUSH20 0xFFFFFFFFFFFFFFFFFFFFFFFFFFFFFFFFFFFFFFFF AND PUSH20 0xFFFFFFFFFFFFFFFFFFFFFFFFFFFFFFFFFFFFFFFF AND PUSH4 0x3AC35585 PUSH1 0x0 DUP1 SLOAD SWAP1 PUSH2 0x100 EXP SWAP1 DIV PUSH20 0xFFFFFFFFFFFFFFFFFFFFFFFFFFFFFFFFFFFFFFFF AND DUP7 PUSH1 0x40 MLOAD DUP4 PUSH4 0xFFFFFFFF AND PUSH1 0xE0 SHL DUP2 MSTORE PUSH1 0x4 ADD PUSH2 0x1E61 SWAP3 SWAP2 SWAP1 PUSH2 0x23C2 JUMP JUMPDEST PUSH1 0x20 PUSH1 0x40 MLOAD DUP1 DUP4 SUB DUP2 DUP7 GAS STATICCALL SWAP3 POP POP POP DUP1 ISZERO PUSH2 0x1E9B JUMPI POP PUSH1 0x40 MLOAD RETURNDATASIZE PUSH1 0x1F NOT PUSH1 0x1F DUP3 ADD AND DUP3 ADD DUP1 PUSH1 0x40 MSTORE POP DUP2 ADD SWAP1 PUSH2 0x1E98 SWAP2 SWAP1 PUSH2 0x2395 JUMP JUMPDEST PUSH1 0x1 JUMPDEST PUSH2 0x1ED9 JUMPI PUSH32 0xCF34EF537AC33EE1AC626CA1587A0A7E8E51561E5514F8CB36AFA1C5102B3BAB PUSH1 0x40 MLOAD PUSH2 0x1ECC SWAP1 PUSH2 0x2C64 JUMP JUMPDEST PUSH1 0x40 MLOAD DUP1 SWAP2 SUB SWAP1 LOG1 PUSH2 0x2007 JUMP JUMPDEST POP PUSH1 0xA PUSH1 0x0 SWAP1 SLOAD SWAP1 PUSH2 0x100 EXP SWAP1 DIV PUSH20 0xFFFFFFFFFFFFFFFFFFFFFFFFFFFFFFFFFFFFFFFF AND PUSH20 0xFFFFFFFFFFFFFFFFFFFFFFFFFFFFFFFFFFFFFFFF AND PUSH4 0x3AC35585 PUSH1 0x0 DUP1 SLOAD SWAP1 PUSH2 0x100 EXP SWAP1 DIV PUSH20 0xFFFFFFFFFFFFFFFFFFFFFFFFFFFFFFFFFFFFFFFF AND DUP7 PUSH1 0x40 MLOAD DUP4 PUSH4 0xFFFFFFFF AND PUSH1 0xE0 SHL DUP2 MSTORE PUSH1 0x4 ADD PUSH2 0x1F57 SWAP3 SWAP2 SWAP1 PUSH2 0x23C2 JUMP JUMPDEST PUSH1 0x20 PUSH1 0x40 MLOAD DUP1 DUP4 SUB DUP2 DUP7 GAS STATICCALL ISZERO DUP1 ISZERO PUSH2 0x1F74 JUMPI RETURNDATASIZE PUSH1 0x0 DUP1 RETURNDATACOPY RETURNDATASIZE PUSH1 0x0 REVERT JUMPDEST POP POP POP POP PUSH1 0x40 MLOAD RETURNDATASIZE PUSH1 0x1F NOT PUSH1 0x1F DUP3 ADD AND DUP3 ADD DUP1 PUSH1 0x40 MSTORE POP DUP2 ADD SWAP1 PUSH2 0x1F98 SWAP2 SWAP1 PUSH2 0x2395 JUMP JUMPDEST SWAP1 POP PUSH32 0xCF34EF537AC33EE1AC626CA1587A0A7E8E51561E5514F8CB36AFA1C5102B3BAB PUSH1 0x40 MLOAD PUSH2 0x1FC7 SWAP1 PUSH2 0x2CD0 JUMP JUMPDEST PUSH1 0x40 MLOAD DUP1 SWAP2 SUB SWAP1 LOG1 PUSH32 0x909C57D5C6AC08245CF2A6DE3900E2B868513FA59099B92B27D8DB823D92DF9C DUP2 PUSH1 0x40 MLOAD PUSH2 0x1FFE SWAP2 SWAP1 PUSH2 0x2365 JUMP JUMPDEST PUSH1 0x40 MLOAD DUP1 SWAP2 SUB SWAP1 LOG1 JUMPDEST PUSH1 0x0 PUSH1 0xB PUSH1 0x0 SWAP1 SLOAD SWAP1 PUSH2 0x100 EXP SWAP1 DIV PUSH20 0xFFFFFFFFFFFFFFFFFFFFFFFFFFFFFFFFFFFFFFFF AND PUSH20 0xFFFFFFFFFFFFFFFFFFFFFFFFFFFFFFFFFFFFFFFF AND PUSH4 0x7FF36AB5 DUP7 DUP4 PUSH1 0x7 CALLER PUSH32 0xFFFFFFFFFFFFFFFFFFFFFFFFFFFFFFFFFFFFFFFFFFFFFFFFFFFFFFFFFFFFFFFF PUSH1 0x40 MLOAD DUP7 PUSH4 0xFFFFFFFF AND PUSH1 0xE0 SHL DUP2 MSTORE PUSH1 0x4 ADD PUSH2 0x208C SWAP5 SWAP4 SWAP3 SWAP2 SWAP1 PUSH2 0x2E14 JUMP JUMPDEST PUSH1 0x0 PUSH1 0x40 MLOAD DUP1 DUP4 SUB DUP2 DUP6 DUP9 GAS CALL SWAP4 POP POP POP POP DUP1 ISZERO PUSH2 0x20CD JUMPI POP PUSH1 0x40 MLOAD RETURNDATASIZE PUSH1 0x0 DUP3 RETURNDATACOPY RETURNDATASIZE PUSH1 0x1F NOT PUSH1 0x1F DUP3 ADD AND DUP3 ADD DUP1 PUSH1 0x40 MSTORE POP DUP2 ADD SWAP1 PUSH2 0x20CA SWAP2 SWAP1 PUSH2 0x2FB9 JUMP JUMPDEST PUSH1 0x1 JUMPDEST PUSH2 0x210B JUMPI PUSH32 0xCF34EF537AC33EE1AC626CA1587A0A7E8E51561E5514F8CB36AFA1C5102B3BAB PUSH1 0x40 MLOAD PUSH2 0x20FE SWAP1 PUSH2 0x304E JUMP JUMPDEST PUSH1 0x40 MLOAD DUP1 SWAP2 SUB SWAP1 LOG1 PUSH2 0x2142 JUMP JUMPDEST POP PUSH32 0xCF34EF537AC33EE1AC626CA1587A0A7E8E51561E5514F8CB36AFA1C5102B3BAB PUSH1 0x40 MLOAD PUSH2 0x2139 SWAP1 PUSH2 0x30BA JUMP JUMPDEST PUSH1 0x40 MLOAD DUP1 SWAP2 SUB SWAP1 LOG1 JUMPDEST DUP3 PUSH1 0x1 PUSH1 0x0 SWAP1 SLOAD SWAP1 PUSH2 0x100 EXP SWAP1 DIV PUSH20 0xFFFFFFFFFFFFFFFFFFFFFFFFFFFFFFFFFFFFFFFF AND PUSH20 0xFFFFFFFFFFFFFFFFFFFFFFFFFFFFFFFFFFFFFFFF AND PUSH4 0x70A08231 ADDRESS PUSH1 0x40 MLOAD DUP3 PUSH4 0xFFFFFFFF AND PUSH1 0xE0 SHL DUP2 MSTORE PUSH1 0x4 ADD PUSH2 0x219E SWAP2 SWAP1 PUSH2 0x22A1 JUMP JUMPDEST PUSH1 0x20 PUSH1 0x40 MLOAD DUP1 DUP4 SUB DUP2 DUP7 GAS STATICCALL ISZERO DUP1 ISZERO PUSH2 0x21BB JUMPI RETURNDATASIZE PUSH1 0x0 DUP1 RETURNDATACOPY RETURNDATASIZE PUSH1 0x0 REVERT JUMPDEST POP POP POP POP PUSH1 0x40 MLOAD RETURNDATASIZE PUSH1 0x1F NOT PUSH1 0x1F DUP3 ADD AND DUP3 ADD DUP1 PUSH1 0x40 MSTORE POP DUP2 ADD SWAP1 PUSH2 0x21DF SWAP2 SWAP1 PUSH2 0x2395 JUMP JUMPDEST PUSH2 0x21E9 SWAP2 SWAP1 PUSH2 0x259E JUMP JUMPDEST SWAP4 POP POP POP POP SWAP2 SWAP1 POP JUMP JUMPDEST PUSH1 0x0 PUSH1 0x40 MLOAD SWAP1 POP SWAP1 JUMP JUMPDEST PUSH1 0x0 DUP1 REVERT JUMPDEST PUSH1 0x0 DUP1 REVERT JUMPDEST PUSH1 0x0 PUSH20 0xFFFFFFFFFFFFFFFFFFFFFFFFFFFFFFFFFFFFFFFF DUP3 AND SWAP1 POP SWAP2 SWAP1 POP JUMP JUMPDEST PUSH1 0x0 PUSH2 0x2232 DUP3 PUSH2 0x2207 JUMP JUMPDEST SWAP1 POP SWAP2 SWAP1 POP JUMP JUMPDEST PUSH2 0x2242 DUP2 PUSH2 0x2227 JUMP JUMPDEST DUP2 EQ PUSH2 0x224D JUMPI PUSH1 0x0 DUP1 REVERT JUMPDEST POP JUMP JUMPDEST PUSH1 0x0 DUP2 CALLDATALOAD SWAP1 POP PUSH2 0x225F DUP2 PUSH2 0x2239 JUMP JUMPDEST SWAP3 SWAP2 POP POP JUMP JUMPDEST PUSH1 0x0 PUSH1 0x20 DUP3 DUP5 SUB SLT ISZERO PUSH2 0x227B JUMPI PUSH2 0x227A PUSH2 0x21FD JUMP JUMPDEST JUMPDEST PUSH1 0x0 PUSH2 0x2289 DUP5 DUP3 DUP6 ADD PUSH2 0x2250 JUMP JUMPDEST SWAP2 POP POP SWAP3 SWAP2 POP POP JUMP JUMPDEST PUSH2 0x229B DUP2 PUSH2 0x2227 JUMP JUMPDEST DUP3 MSTORE POP POP JUMP JUMPDEST PUSH1 0x0 PUSH1 0x20 DUP3 ADD SWAP1 POP PUSH2 0x22B6 PUSH1 0x0 DUP4 ADD DUP5 PUSH2 0x2292 JUMP JUMPDEST SWAP3 SWAP2 POP POP JUMP JUMPDEST PUSH1 0x0 DUP2 SWAP1 POP SWAP2 SWAP1 POP JUMP JUMPDEST PUSH2 0x22CF DUP2 PUSH2 0x22BC JUMP JUMPDEST DUP2 EQ PUSH2 0x22DA JUMPI PUSH1 0x0 DUP1 REVERT JUMPDEST POP JUMP JUMPDEST PUSH1 0x0 DUP2 CALLDATALOAD SWAP1 POP PUSH2 0x22EC DUP2 PUSH2 0x22C6 JUMP JUMPDEST SWAP3 SWAP2 POP POP JUMP JUMPDEST PUSH1 0x0 PUSH1 0x20 DUP3 DUP5 SUB SLT ISZERO PUSH2 0x2308 JUMPI PUSH2 0x2307 PUSH2 0x21FD JUMP JUMPDEST JUMPDEST PUSH1 0x0 PUSH2 0x2316 DUP5 DUP3 DUP6 ADD PUSH2 0x22DD JUMP JUMPDEST SWAP2 POP POP SWAP3 SWAP2 POP POP JUMP JUMPDEST PUSH2 0x2328 DUP2 PUSH2 0x22BC JUMP JUMPDEST DUP3 MSTORE POP POP JUMP JUMPDEST PUSH1 0x0 PUSH1 0x60 DUP3 ADD SWAP1 POP PUSH2 0x2343 PUSH1 0x0 DUP4 ADD DUP7 PUSH2 0x231F JUMP JUMPDEST PUSH2 0x2350 PUSH1 0x20 DUP4 ADD DUP6 PUSH2 0x2292 JUMP JUMPDEST PUSH2 0x235D PUSH1 0x40 DUP4 ADD DUP5 PUSH2 0x231F JUMP JUMPDEST SWAP5 SWAP4 POP POP POP POP JUMP JUMPDEST PUSH1 0x0 PUSH1 0x20 DUP3 ADD SWAP1 POP PUSH2 0x237A PUSH1 0x0 DUP4 ADD DUP5 PUSH2 0x231F JUMP JUMPDEST SWAP3 SWAP2 POP POP JUMP JUMPDEST PUSH1 0x0 DUP2 MLOAD SWAP1 POP PUSH2 0x238F DUP2 PUSH2 0x22C6 JUMP JUMPDEST SWAP3 SWAP2 POP POP JUMP JUMPDEST PUSH1 0x0 PUSH1 0x20 DUP3 DUP5 SUB SLT ISZERO PUSH2 0x23AB JUMPI PUSH2 0x23AA PUSH2 0x21FD JUMP JUMPDEST JUMPDEST PUSH1 0x0 PUSH2 0x23B9 DUP5 DUP3 DUP6 ADD PUSH2 0x2380 JUMP JUMPDEST SWAP2 POP POP SWAP3 SWAP2 POP POP JUMP JUMPDEST PUSH1 0x0 PUSH1 0x40 DUP3 ADD SWAP1 POP PUSH2 0x23D7 PUSH1 0x0 DUP4 ADD DUP6 PUSH2 0x2292 JUMP JUMPDEST PUSH2 0x23E4 PUSH1 0x20 DUP4 ADD DUP5 PUSH2 0x231F JUMP JUMPDEST SWAP4 SWAP3 POP POP POP JUMP JUMPDEST PUSH1 0x0 DUP2 ISZERO ISZERO SWAP1 POP SWAP2 SWAP1 POP JUMP JUMPDEST PUSH2 0x2400 DUP2 PUSH2 0x23EB JUMP JUMPDEST DUP2 EQ PUSH2 0x240B JUMPI PUSH1 0x0 DUP1 REVERT JUMPDEST POP JUMP JUMPDEST PUSH1 0x0 DUP2 MLOAD SWAP1 POP PUSH2 0x241D DUP2 PUSH2 0x23F7 JUMP JUMPDEST SWAP3 SWAP2 POP POP JUMP JUMPDEST PUSH1 0x0 PUSH1 0x20 DUP3 DUP5 SUB SLT ISZERO PUSH2 0x2439 JUMPI PUSH2 0x2438 PUSH2 0x21FD JUMP JUMPDEST JUMPDEST PUSH1 0x0 PUSH2 0x2447 DUP5 DUP3 DUP6 ADD PUSH2 0x240E JUMP JUMPDEST SWAP2 POP POP SWAP3 SWAP2 POP POP JUMP JUMPDEST PUSH32 0x4E487B7100000000000000000000000000000000000000000000000000000000 PUSH1 0x0 MSTORE PUSH1 0x11 PUSH1 0x4 MSTORE PUSH1 0x24 PUSH1 0x0 REVERT JUMPDEST PUSH1 0x0 PUSH2 0x248A DUP3 PUSH2 0x22BC JUMP JUMPDEST SWAP2 POP PUSH2 0x2495 DUP4 PUSH2 0x22BC JUMP JUMPDEST SWAP3 POP DUP3 DUP3 MUL PUSH2 0x24A3 DUP2 PUSH2 0x22BC JUMP JUMPDEST SWAP2 POP DUP3 DUP3 DIV DUP5 EQ DUP4 ISZERO OR PUSH2 0x24BA JUMPI PUSH2 0x24B9 PUSH2 0x2450 JUMP JUMPDEST JUMPDEST POP SWAP3 SWAP2 POP POP JUMP JUMPDEST PUSH32 0x4E487B7100000000000000000000000000000000000000000000000000000000 PUSH1 0x0 MSTORE PUSH1 0x12 PUSH1 0x4 MSTORE PUSH1 0x24 PUSH1 0x0 REVERT JUMPDEST PUSH1 0x0 PUSH2 0x24FB DUP3 PUSH2 0x22BC JUMP JUMPDEST SWAP2 POP PUSH2 0x2506 DUP4 PUSH2 0x22BC JUMP JUMPDEST SWAP3 POP DUP3 PUSH2 0x2516 JUMPI PUSH2 0x2515 PUSH2 0x24C1 JUMP JUMPDEST JUMPDEST DUP3 DUP3 DIV SWAP1 POP SWAP3 SWAP2 POP POP JUMP JUMPDEST PUSH1 0x0 DUP3 DUP3 MSTORE PUSH1 0x20 DUP3 ADD SWAP1 POP SWAP3 SWAP2 POP POP JUMP JUMPDEST PUSH32 0x4E65656420746F206D696E7420666F72206C6971756964697479000000000000 PUSH1 0x0 DUP3 ADD MSTORE POP JUMP JUMPDEST PUSH1 0x0 PUSH2 0x2568 PUSH1 0x1A DUP4 PUSH2 0x2521 JUMP JUMPDEST SWAP2 POP PUSH2 0x2573 DUP3 PUSH2 0x2532 JUMP JUMPDEST PUSH1 0x20 DUP3 ADD SWAP1 POP SWAP2 SWAP1 POP JUMP JUMPDEST PUSH1 0x0 PUSH1 0x20 DUP3 ADD SWAP1 POP DUP2 DUP2 SUB PUSH1 0x0 DUP4 ADD MSTORE PUSH2 0x2597 DUP2 PUSH2 0x255B JUMP JUMPDEST SWAP1 POP SWAP2 SWAP1 POP JUMP JUMPDEST PUSH1 0x0 PUSH2 0x25A9 DUP3 PUSH2 0x22BC JUMP JUMPDEST SWAP2 POP PUSH2 0x25B4 DUP4 PUSH2 0x22BC JUMP JUMPDEST SWAP3 POP DUP3 DUP3 SUB SWAP1 POP DUP2 DUP2 GT ISZERO PUSH2 0x25CC JUMPI PUSH2 0x25CB PUSH2 0x2450 JUMP JUMPDEST JUMPDEST SWAP3 SWAP2 POP POP JUMP JUMPDEST PUSH1 0x0 PUSH1 0x40 DUP3 ADD SWAP1 POP PUSH2 0x25E7 PUSH1 0x0 DUP4 ADD DUP6 PUSH2 0x231F JUMP JUMPDEST PUSH2 0x25F4 PUSH1 0x20 DUP4 ADD DUP5 PUSH2 0x2292 JUMP JUMPDEST SWAP4 SWAP3 POP POP POP JUMP JUMPDEST PUSH32 0x746F6B656E73206D696E74656400000000000000000000000000000000000000 PUSH1 0x0 DUP3 ADD MSTORE POP JUMP JUMPDEST PUSH1 0x0 PUSH2 0x2631 PUSH1 0xD DUP4 PUSH2 0x2521 JUMP JUMPDEST SWAP2 POP PUSH2 0x263C DUP3 PUSH2 0x25FB JUMP JUMPDEST PUSH1 0x20 DUP3 ADD SWAP1 POP SWAP2 SWAP1 POP JUMP JUMPDEST PUSH1 0x0 PUSH1 0x20 DUP3 ADD SWAP1 POP DUP2 DUP2 SUB PUSH1 0x0 DUP4 ADD MSTORE PUSH2 0x2660 DUP2 PUSH2 0x2624 JUMP JUMPDEST SWAP1 POP SWAP2 SWAP1 POP JUMP JUMPDEST PUSH1 0x0 DUP2 SWAP1 POP SWAP2 SWAP1 POP JUMP JUMPDEST PUSH1 0x0 DUP2 SWAP1 POP SWAP2 SWAP1 POP JUMP JUMPDEST PUSH1 0x0 PUSH2 0x2696 PUSH2 0x2691 PUSH2 0x268C DUP5 PUSH2 0x2667 JUMP JUMPDEST PUSH2 0x2671 JUMP JUMPDEST PUSH2 0x22BC JUMP JUMPDEST SWAP1 POP SWAP2 SWAP1 POP JUMP JUMPDEST PUSH2 0x26A6 DUP2 PUSH2 0x267B JUMP JUMPDEST DUP3 MSTORE POP POP JUMP JUMPDEST PUSH1 0x0 PUSH1 0xC0 DUP3 ADD SWAP1 POP PUSH2 0x26C1 PUSH1 0x0 DUP4 ADD DUP10 PUSH2 0x2292 JUMP JUMPDEST PUSH2 0x26CE PUSH1 0x20 DUP4 ADD DUP9 PUSH2 0x231F JUMP JUMPDEST PUSH2 0x26DB PUSH1 0x40 DUP4 ADD DUP8 PUSH2 0x269D JUMP JUMPDEST PUSH2 0x26E8 PUSH1 0x60 DUP4 ADD DUP7 PUSH2 0x231F JUMP JUMPDEST PUSH2 0x26F5 PUSH1 0x80 DUP4 ADD DUP6 PUSH2 0x2292 JUMP JUMPDEST PUSH2 0x2702 PUSH1 0xA0 DUP4 ADD DUP5 PUSH2 0x231F JUMP JUMPDEST SWAP8 SWAP7 POP POP POP POP POP POP POP JUMP JUMPDEST PUSH1 0x0 DUP1 PUSH1 0x0 PUSH1 0x60 DUP5 DUP7 SUB SLT ISZERO PUSH2 0x2726 JUMPI PUSH2 0x2725 PUSH2 0x21FD JUMP JUMPDEST JUMPDEST PUSH1 0x0 PUSH2 0x2734 DUP7 DUP3 DUP8 ADD PUSH2 0x2380 JUMP JUMPDEST SWAP4 POP POP PUSH1 0x20 PUSH2 0x2745 DUP7 DUP3 DUP8 ADD PUSH2 0x2380 JUMP JUMPDEST SWAP3 POP POP PUSH1 0x40 PUSH2 0x2756 DUP7 DUP3 DUP8 ADD PUSH2 0x2380 JUMP JUMPDEST SWAP2 POP POP SWAP3 POP SWAP3 POP SWAP3 JUMP JUMPDEST PUSH32 0x4C6971756964697479204E6F742050726F766964656400000000000000000000 PUSH1 0x0 DUP3 ADD MSTORE POP JUMP JUMPDEST PUSH1 0x0 PUSH2 0x2796 PUSH1 0x16 DUP4 PUSH2 0x2521 JUMP JUMPDEST SWAP2 POP PUSH2 0x27A1 DUP3 PUSH2 0x2760 JUMP JUMPDEST PUSH1 0x20 DUP3 ADD SWAP1 POP SWAP2 SWAP1 POP JUMP JUMPDEST PUSH1 0x0 PUSH1 0x20 DUP3 ADD SWAP1 POP DUP2 DUP2 SUB PUSH1 0x0 DUP4 ADD MSTORE PUSH2 0x27C5 DUP2 PUSH2 0x2789 JUMP JUMPDEST SWAP1 POP SWAP2 SWAP1 POP JUMP JUMPDEST PUSH32 0x6C6971756964697479205375636365737366756C6C792050726F766964656400 PUSH1 0x0 DUP3 ADD MSTORE POP JUMP JUMPDEST PUSH1 0x0 PUSH2 0x2802 PUSH1 0x1F DUP4 PUSH2 0x2521 JUMP JUMPDEST SWAP2 POP PUSH2 0x280D DUP3 PUSH2 0x27CC JUMP JUMPDEST PUSH1 0x20 DUP3 ADD SWAP1 POP SWAP2 SWAP1 POP JUMP JUMPDEST PUSH1 0x0 PUSH1 0x20 DUP3 ADD SWAP1 POP DUP2 DUP2 SUB PUSH1 0x0 DUP4 ADD MSTORE PUSH2 0x2831 DUP2 PUSH2 0x27F5 JUMP JUMPDEST SWAP1 POP SWAP2 SWAP1 POP JUMP JUMPDEST PUSH32 0x70726576696F757320486F6C6465722069730000000000000000000000000000 PUSH1 0x0 DUP3 ADD MSTORE POP JUMP JUMPDEST PUSH1 0x0 PUSH2 0x286E PUSH1 0x12 DUP4 PUSH2 0x2521 JUMP JUMPDEST SWAP2 POP PUSH2 0x2879 DUP3 PUSH2 0x2838 JUMP JUMPDEST PUSH1 0x20 DUP3 ADD SWAP1 POP SWAP2 SWAP1 POP JUMP JUMPDEST PUSH1 0x0 PUSH1 0x20 DUP3 ADD SWAP1 POP DUP2 DUP2 SUB PUSH1 0x0 DUP4 ADD MSTORE PUSH2 0x289D DUP2 PUSH2 0x2861 JUMP JUMPDEST SWAP1 POP SWAP2 SWAP1 POP JUMP JUMPDEST PUSH32 0x63757272656E74206C69717569646974792070657263656E7400000000000000 PUSH1 0x0 DUP3 ADD MSTORE POP JUMP JUMPDEST PUSH1 0x0 PUSH2 0x28DA PUSH1 0x19 DUP4 PUSH2 0x2521 JUMP JUMPDEST SWAP2 POP PUSH2 0x28E5 DUP3 PUSH2 0x28A4 JUMP JUMPDEST PUSH1 0x20 DUP3 ADD SWAP1 POP SWAP2 SWAP1 POP JUMP JUMPDEST PUSH1 0x0 PUSH1 0x20 DUP3 ADD SWAP1 POP DUP2 DUP2 SUB PUSH1 0x0 DUP4 ADD MSTORE PUSH2 0x2909 DUP2 PUSH2 0x28CD JUMP JUMPDEST SWAP1 POP SWAP2 SWAP1 POP JUMP JUMPDEST PUSH1 0x0 PUSH2 0x291B DUP3 PUSH2 0x22BC JUMP JUMPDEST SWAP2 POP PUSH2 0x2926 DUP4 PUSH2 0x22BC JUMP JUMPDEST SWAP3 POP DUP3 DUP3 ADD SWAP1 POP DUP1 DUP3 GT ISZERO PUSH2 0x293E JUMPI PUSH2 0x293D PUSH2 0x2450 JUMP JUMPDEST JUMPDEST SWAP3 SWAP2 POP POP JUMP JUMPDEST PUSH32 0x746F6B656E732063616E74206265206275726E74000000000000000000000000 PUSH1 0x0 DUP3 ADD MSTORE POP JUMP JUMPDEST PUSH1 0x0 PUSH2 0x297A PUSH1 0x14 DUP4 PUSH2 0x2521 JUMP JUMPDEST SWAP2 POP PUSH2 0x2985 DUP3 PUSH2 0x2944 JUMP JUMPDEST PUSH1 0x20 DUP3 ADD SWAP1 POP SWAP2 SWAP1 POP JUMP JUMPDEST PUSH1 0x0 PUSH1 0x20 DUP3 ADD SWAP1 POP DUP2 DUP2 SUB PUSH1 0x0 DUP4 ADD MSTORE PUSH2 0x29A9 DUP2 PUSH2 0x296D JUMP JUMPDEST SWAP1 POP SWAP2 SWAP1 POP JUMP JUMPDEST PUSH32 0x746F6B656E732068617665206265656E206275726E7400000000000000000000 PUSH1 0x0 DUP3 ADD MSTORE POP JUMP JUMPDEST PUSH1 0x0 PUSH2 0x29E6 PUSH1 0x16 DUP4 PUSH2 0x2521 JUMP JUMPDEST SWAP2 POP PUSH2 0x29F1 DUP3 PUSH2 0x29B0 JUMP JUMPDEST PUSH1 0x20 DUP3 ADD SWAP1 POP SWAP2 SWAP1 POP JUMP JUMPDEST PUSH1 0x0 PUSH1 0x20 DUP3 ADD SWAP1 POP DUP2 DUP2 SUB PUSH1 0x0 DUP4 ADD MSTORE PUSH2 0x2A15 DUP2 PUSH2 0x29D9 JUMP JUMPDEST SWAP1 POP SWAP2 SWAP1 POP JUMP JUMPDEST PUSH32 0x70726963652063616E7420626520676F742066726F6D204F7261636C65000000 PUSH1 0x0 DUP3 ADD MSTORE POP JUMP JUMPDEST PUSH1 0x0 PUSH2 0x2A52 PUSH1 0x1D DUP4 PUSH2 0x2521 JUMP JUMPDEST SWAP2 POP PUSH2 0x2A5D DUP3 PUSH2 0x2A1C JUMP JUMPDEST PUSH1 0x20 DUP3 ADD SWAP1 POP SWAP2 SWAP1 POP JUMP JUMPDEST PUSH1 0x0 PUSH1 0x20 DUP3 ADD SWAP1 POP DUP2 DUP2 SUB PUSH1 0x0 DUP4 ADD MSTORE PUSH2 0x2A81 DUP2 PUSH2 0x2A45 JUMP JUMPDEST SWAP1 POP SWAP2 SWAP1 POP JUMP JUMPDEST PUSH32 0x707269636520676F742066726F6D204F7261636C652062757420636F756C646E PUSH1 0x0 DUP3 ADD MSTORE PUSH32 0x74206D696E740000000000000000000000000000000000000000000000000000 PUSH1 0x20 DUP3 ADD MSTORE POP JUMP JUMPDEST PUSH1 0x0 PUSH2 0x2AE4 PUSH1 0x26 DUP4 PUSH2 0x2521 JUMP JUMPDEST SWAP2 POP PUSH2 0x2AEF DUP3 PUSH2 0x2A88 JUMP JUMPDEST PUSH1 0x40 DUP3 ADD SWAP1 POP SWAP2 SWAP1 POP JUMP JUMPDEST PUSH1 0x0 PUSH1 0x20 DUP3 ADD SWAP1 POP DUP2 DUP2 SUB PUSH1 0x0 DUP4 ADD MSTORE PUSH2 0x2B13 DUP2 PUSH2 0x2AD7 JUMP JUMPDEST SWAP1 POP SWAP2 SWAP1 POP JUMP JUMPDEST PUSH32 0x746F6B656E73206D696E74656420746F2070726576696F757320686F6C646572 PUSH1 0x0 DUP3 ADD MSTORE POP JUMP JUMPDEST PUSH1 0x0 PUSH2 0x2B50 PUSH1 0x20 DUP4 PUSH2 0x2521 JUMP JUMPDEST SWAP2 POP PUSH2 0x2B5B DUP3 PUSH2 0x2B1A JUMP JUMPDEST PUSH1 0x20 DUP3 ADD SWAP1 POP SWAP2 SWAP1 POP JUMP JUMPDEST PUSH1 0x0 PUSH1 0x20 DUP3 ADD SWAP1 POP DUP2 DUP2 SUB PUSH1 0x0 DUP4 ADD MSTORE PUSH2 0x2B7F DUP2 PUSH2 0x2B43 JUMP JUMPDEST SWAP1 POP SWAP2 SWAP1 POP JUMP JUMPDEST PUSH32 0x63616E74206765742062616C616E6365206F66207468697320636F6E74726163 PUSH1 0x0 DUP3 ADD MSTORE PUSH32 0x7400000000000000000000000000000000000000000000000000000000000000 PUSH1 0x20 DUP3 ADD MSTORE POP JUMP JUMPDEST PUSH1 0x0 PUSH2 0x2BE2 PUSH1 0x21 DUP4 PUSH2 0x2521 JUMP JUMPDEST SWAP2 POP PUSH2 0x2BED DUP3 PUSH2 0x2B86 JUMP JUMPDEST PUSH1 0x40 DUP3 ADD SWAP1 POP SWAP2 SWAP1 POP JUMP JUMPDEST PUSH1 0x0 PUSH1 0x20 DUP3 ADD SWAP1 POP DUP2 DUP2 SUB PUSH1 0x0 DUP4 ADD MSTORE PUSH2 0x2C11 DUP2 PUSH2 0x2BD5 JUMP JUMPDEST SWAP1 POP SWAP2 SWAP1 POP JUMP JUMPDEST PUSH32 0x63616E74206765742070726963652066726F6D204F7261636C65000000000000 PUSH1 0x0 DUP3 ADD MSTORE POP JUMP JUMPDEST PUSH1 0x0 PUSH2 0x2C4E PUSH1 0x1A DUP4 PUSH2 0x2521 JUMP JUMPDEST SWAP2 POP PUSH2 0x2C59 DUP3 PUSH2 0x2C18 JUMP JUMPDEST PUSH1 0x20 DUP3 ADD SWAP1 POP SWAP2 SWAP1 POP JUMP JUMPDEST PUSH1 0x0 PUSH1 0x20 DUP3 ADD SWAP1 POP DUP2 DUP2 SUB PUSH1 0x0 DUP4 ADD MSTORE PUSH2 0x2C7D DUP2 PUSH2 0x2C41 JUMP JUMPDEST SWAP1 POP SWAP2 SWAP1 POP JUMP JUMPDEST PUSH32 0x6E756D626572206F6620546F6B656E7320746F20427579206973000000000000 PUSH1 0x0 DUP3 ADD MSTORE POP JUMP JUMPDEST PUSH1 0x0 PUSH2 0x2CBA PUSH1 0x1A DUP4 PUSH2 0x2521 JUMP JUMPDEST SWAP2 POP PUSH2 0x2CC5 DUP3 PUSH2 0x2C84 JUMP JUMPDEST PUSH1 0x20 DUP3 ADD SWAP1 POP SWAP2 SWAP1 POP JUMP JUMPDEST PUSH1 0x0 PUSH1 0x20 DUP3 ADD SWAP1 POP DUP2 DUP2 SUB PUSH1 0x0 DUP4 ADD MSTORE PUSH2 0x2CE9 DUP2 PUSH2 0x2CAD JUMP JUMPDEST SWAP1 POP SWAP2 SWAP1 POP JUMP JUMPDEST PUSH1 0x0 DUP2 SLOAD SWAP1 POP SWAP2 SWAP1 POP JUMP JUMPDEST PUSH1 0x0 DUP3 DUP3 MSTORE PUSH1 0x20 DUP3 ADD SWAP1 POP SWAP3 SWAP2 POP POP JUMP JUMPDEST PUSH1 0x0 DUP2 SWAP1 POP DUP2 PUSH1 0x0 MSTORE PUSH1 0x20 PUSH1 0x0 KECCAK256 SWAP1 POP SWAP2 SWAP1 POP JUMP JUMPDEST PUSH2 0x2D2A DUP2 PUSH2 0x2227 JUMP JUMPDEST DUP3 MSTORE POP POP JUMP JUMPDEST PUSH1 0x0 PUSH2 0x2D3C DUP4 DUP4 PUSH2 0x2D21 JUMP JUMPDEST PUSH1 0x20 DUP4 ADD SWAP1 POP SWAP3 SWAP2 POP POP JUMP JUMPDEST PUSH1 0x0 DUP2 PUSH1 0x0 SHR SWAP1 POP SWAP2 SWAP1 POP JUMP JUMPDEST PUSH1 0x0 PUSH20 0xFFFFFFFFFFFFFFFFFFFFFFFFFFFFFFFFFFFFFFFF DUP3 AND SWAP1 POP SWAP2 SWAP1 POP JUMP JUMPDEST PUSH1 0x0 PUSH2 0x2D88 PUSH2 0x2D83 DUP4 PUSH2 0x2D48 JUMP JUMPDEST PUSH2 0x2D55 JUMP JUMPDEST SWAP1 POP SWAP2 SWAP1 POP JUMP JUMPDEST PUSH1 0x0 PUSH2 0x2D9B DUP3 SLOAD PUSH2 0x2D75 JUMP JUMPDEST SWAP1 POP SWAP2 SWAP1 POP JUMP JUMPDEST PUSH1 0x0 PUSH1 0x1 DUP3 ADD SWAP1 POP SWAP2 SWAP1 POP JUMP JUMPDEST PUSH1 0x0 PUSH2 0x2DBA DUP3 PUSH2 0x2CF0 JUMP JUMPDEST PUSH2 0x2DC4 DUP2 DUP6 PUSH2 0x2CFB JUMP JUMPDEST SWAP4 POP PUSH2 0x2DCF DUP4 PUSH2 0x2D0C JUMP JUMPDEST DUP1 PUSH1 0x0 JUMPDEST DUP4 DUP2 LT ISZERO PUSH2 0x2E07 JUMPI PUSH2 0x2DE4 DUP3 PUSH2 0x2D8F JUMP JUMPDEST PUSH2 0x2DEE DUP9 DUP3 PUSH2 0x2D30 JUMP JUMPDEST SWAP8 POP PUSH2 0x2DF9 DUP4 PUSH2 0x2DA2 JUMP JUMPDEST SWAP3 POP POP PUSH1 0x1 DUP2 ADD SWAP1 POP PUSH2 0x2DD3 JUMP JUMPDEST POP DUP6 SWAP4 POP POP POP POP SWAP3 SWAP2 POP POP JUMP JUMPDEST PUSH1 0x0 PUSH1 0x80 DUP3 ADD SWAP1 POP PUSH2 0x2E29 PUSH1 0x0 DUP4 ADD DUP8 PUSH2 0x231F JUMP JUMPDEST DUP2 DUP2 SUB PUSH1 0x20 DUP4 ADD MSTORE PUSH2 0x2E3B DUP2 DUP7 PUSH2 0x2DAF JUMP JUMPDEST SWAP1 POP PUSH2 0x2E4A PUSH1 0x40 DUP4 ADD DUP6 PUSH2 0x2292 JUMP JUMPDEST PUSH2 0x2E57 PUSH1 0x60 DUP4 ADD DUP5 PUSH2 0x231F JUMP JUMPDEST SWAP6 SWAP5 POP POP POP POP POP JUMP JUMPDEST PUSH1 0x0 DUP1 REVERT JUMPDEST PUSH1 0x0 PUSH1 0x1F NOT PUSH1 0x1F DUP4 ADD AND SWAP1 POP SWAP2 SWAP1 POP JUMP JUMPDEST PUSH32 0x4E487B7100000000000000000000000000000000000000000000000000000000 PUSH1 0x0 MSTORE PUSH1 0x41 PUSH1 0x4 MSTORE PUSH1 0x24 PUSH1 0x0 REVERT JUMPDEST PUSH2 0x2EAE DUP3 PUSH2 0x2E65 JUMP JUMPDEST DUP2 ADD DUP2 DUP2 LT PUSH8 0xFFFFFFFFFFFFFFFF DUP3 GT OR ISZERO PUSH2 0x2ECD JUMPI PUSH2 0x2ECC PUSH2 0x2E76 JUMP JUMPDEST JUMPDEST DUP1 PUSH1 0x40 MSTORE POP POP POP JUMP JUMPDEST PUSH1 0x0 PUSH2 0x2EE0 PUSH2 0x21F3 JUMP JUMPDEST SWAP1 POP PUSH2 0x2EEC DUP3 DUP3 PUSH2 0x2EA5 JUMP JUMPDEST SWAP2 SWAP1 POP JUMP JUMPDEST PUSH1 0x0 PUSH8 0xFFFFFFFFFFFFFFFF DUP3 GT ISZERO PUSH2 0x2F0C JUMPI PUSH2 0x2F0B PUSH2 0x2E76 JUMP JUMPDEST JUMPDEST PUSH1 0x20 DUP3 MUL SWAP1 POP PUSH1 0x20 DUP2 ADD SWAP1 POP SWAP2 SWAP1 POP JUMP JUMPDEST PUSH1 0x0 DUP1 REVERT JUMPDEST PUSH1 0x0 PUSH2 0x2F35 PUSH2 0x2F30 DUP5 PUSH2 0x2EF1 JUMP JUMPDEST PUSH2 0x2ED6 JUMP JUMPDEST SWAP1 POP DUP1 DUP4 DUP3 MSTORE PUSH1 0x20 DUP3 ADD SWAP1 POP PUSH1 0x20 DUP5 MUL DUP4 ADD DUP6 DUP2 GT ISZERO PUSH2 0x2F58 JUMPI PUSH2 0x2F57 PUSH2 0x2F1D JUMP JUMPDEST JUMPDEST DUP4 JUMPDEST DUP2 DUP2 LT ISZERO PUSH2 0x2F81 JUMPI DUP1 PUSH2 0x2F6D DUP9 DUP3 PUSH2 0x2380 JUMP JUMPDEST DUP5 MSTORE PUSH1 0x20 DUP5 ADD SWAP4 POP POP PUSH1 0x20 DUP2 ADD SWAP1 POP PUSH2 0x2F5A JUMP JUMPDEST POP POP POP SWAP4 SWAP3 POP POP POP JUMP JUMPDEST PUSH1 0x0 DUP3 PUSH1 0x1F DUP4 ADD SLT PUSH2 0x2FA0 JUMPI PUSH2 0x2F9F PUSH2 0x2E60 JUMP JUMPDEST JUMPDEST DUP2 MLOAD PUSH2 0x2FB0 DUP5 DUP3 PUSH1 0x20 DUP7 ADD PUSH2 0x2F22 JUMP JUMPDEST SWAP2 POP POP SWAP3 SWAP2 POP POP JUMP JUMPDEST PUSH1 0x0 PUSH1 0x20 DUP3 DUP5 SUB SLT ISZERO PUSH2 0x2FCF JUMPI PUSH2 0x2FCE PUSH2 0x21FD JUMP JUMPDEST JUMPDEST PUSH1 0x0 DUP3 ADD MLOAD PUSH8 0xFFFFFFFFFFFFFFFF DUP2 GT ISZERO PUSH2 0x2FED JUMPI PUSH2 0x2FEC PUSH2 0x2202 JUMP JUMPDEST JUMPDEST PUSH2 0x2FF9 DUP5 DUP3 DUP6 ADD PUSH2 0x2F8B JUMP JUMPDEST SWAP2 POP POP SWAP3 SWAP2 POP POP JUMP JUMPDEST PUSH32 0x746F6B656E73206E6F7420626F75676874000000000000000000000000000000 PUSH1 0x0 DUP3 ADD MSTORE POP JUMP JUMPDEST PUSH1 0x0 PUSH2 0x3038 PUSH1 0x11 DUP4 PUSH2 0x2521 JUMP JUMPDEST SWAP2 POP PUSH2 0x3043 DUP3 PUSH2 0x3002 JUMP JUMPDEST PUSH1 0x20 DUP3 ADD SWAP1 POP SWAP2 SWAP1 POP JUMP JUMPDEST PUSH1 0x0 PUSH1 0x20 DUP3 ADD SWAP1 POP DUP2 DUP2 SUB PUSH1 0x0 DUP4 ADD MSTORE PUSH2 0x3067 DUP2 PUSH2 0x302B JUMP JUMPDEST SWAP1 POP SWAP2 SWAP1 POP JUMP JUMPDEST PUSH32 0x746F6B656E7320626F7567687400000000000000000000000000000000000000 PUSH1 0x0 DUP3 ADD MSTORE POP JUMP JUMPDEST PUSH1 0x0 PUSH2 0x30A4 PUSH1 0xD DUP4 PUSH2 0x2521 JUMP JUMPDEST SWAP2 POP PUSH2 0x30AF DUP3 PUSH2 0x306E JUMP JUMPDEST PUSH1 0x20 DUP3 ADD SWAP1 POP SWAP2 SWAP1 POP JUMP JUMPDEST PUSH1 0x0 PUSH1 0x20 DUP3 ADD SWAP1 POP DUP2 DUP2 SUB PUSH1 0x0 DUP4 ADD MSTORE PUSH2 0x30D3 DUP2 PUSH2 0x3097 JUMP JUMPDEST SWAP1 POP SWAP2 SWAP1 POP JUMP INVALID LOG2 PUSH5 0x6970667358 0x22 SLT KECCAK256 0xCC 0xAE STOP PUSH27 0x9A63409D4651732563FC4DAAA141527B4A39599141CC4D1BDA75A2 SWAP11 PUSH5 0x736F6C6343 STOP ADDMOD GT STOP CALLER "
				},
				"gasEstimates": {
					"creation": {
						"codeDepositCost": "2512000",
						"executionCost": "infinite",
						"totalCost": "infinite"
					},
					"external": {
						"ERC20Address()": "2559",
						"POAPAddress()": "2625",
						"WethAddress()": "2578",
						"buyEth()": "2541",
						"crownNFTAddress()": "2581",
						"getLastEthRecieved()": "infinite",
						"getWethBalance()": "infinite",
						"liquidityEth()": "2452",
						"mintSomeTokens(uint256)": "infinite",
						"oracleAddress()": "2603",
						"path(uint256)": "4978",
						"percentLiquidity()": "infinite",
						"superBuy(address)": "infinite",
						"totalRoyalties()": "2518",
						"transactionFromPOAPId(uint256)": "infinite",
						"uniswapPairAddress()": "2558",
						"uniswapRouterAddress()": "2582",
						"updateERC20Address(address)": "24768",
						"withdraw(address)": "infinite",
						"xprovideLiquidity()": "infinite"
					},
					"internal": {
						"buyAndBurn(uint256)": "infinite",
						"buyTokens(uint256)": "infinite",
						"erc20ToPreviousHolder(address)": "infinite",
						"newTransaction(uint256,address)": "119275",
						"processETH()": "infinite",
						"provideLiquidity(uint256)": "infinite",
						"setInitialTranscation(address)": "infinite"
					}
				},
				"methodIdentifiers": {
					"ERC20Address()": "a6021ace",
					"POAPAddress()": "aef75107",
					"WethAddress()": "a785a3d8",
					"buyEth()": "4cfd1ba5",
					"crownNFTAddress()": "777b506f",
					"getLastEthRecieved()": "bfd9ea5b",
					"getWethBalance()": "9dd58b58",
					"liquidityEth()": "a09ede07",
					"mintSomeTokens(uint256)": "d4afa675",
					"oracleAddress()": "a89ae4ba",
					"path(uint256)": "af6d1fe4",
					"percentLiquidity()": "c1f2e5f1",
					"superBuy(address)": "0b2b4d9b",
					"totalRoyalties()": "86d02608",
					"transactionFromPOAPId(uint256)": "2c4c3c1b",
					"uniswapPairAddress()": "bd3733fe",
					"uniswapRouterAddress()": "20ca3c7f",
					"updateERC20Address(address)": "1b017fde",
					"withdraw(address)": "51cff8d9",
					"xprovideLiquidity()": "620a703c"
				}
			},
			"storageLayout": {
				"storage": [
					{
						"astId": 663,
						"contract": "Hook.sol:TransactionsAndHook",
						"label": "WethAddress",
						"offset": 0,
						"slot": "0",
						"type": "t_address"
					},
					{
						"astId": 665,
						"contract": "Hook.sol:TransactionsAndHook",
						"label": "ERC20Address",
						"offset": 0,
						"slot": "1",
						"type": "t_address"
					},
					{
						"astId": 667,
						"contract": "Hook.sol:TransactionsAndHook",
						"label": "uniswapPairAddress",
						"offset": 0,
						"slot": "2",
						"type": "t_address"
					},
					{
						"astId": 669,
						"contract": "Hook.sol:TransactionsAndHook",
						"label": "oracleAddress",
						"offset": 0,
						"slot": "3",
						"type": "t_address"
					},
					{
						"astId": 671,
						"contract": "Hook.sol:TransactionsAndHook",
						"label": "crownNFTAddress",
						"offset": 0,
						"slot": "4",
						"type": "t_address"
					},
					{
						"astId": 673,
						"contract": "Hook.sol:TransactionsAndHook",
						"label": "POAPAddress",
						"offset": 0,
						"slot": "5",
						"type": "t_address"
					},
					{
						"astId": 676,
						"contract": "Hook.sol:TransactionsAndHook",
						"label": "uniswapRouterAddress",
						"offset": 0,
						"slot": "6",
						"type": "t_address"
					},
					{
						"astId": 679,
						"contract": "Hook.sol:TransactionsAndHook",
						"label": "path",
						"offset": 0,
						"slot": "7",
						"type": "t_array(t_address)dyn_storage"
					},
					{
						"astId": 685,
						"contract": "Hook.sol:TransactionsAndHook",
						"label": "POAP",
						"offset": 0,
						"slot": "8",
						"type": "t_contract(iPOAP)483"
					},
					{
						"astId": 691,
						"contract": "Hook.sol:TransactionsAndHook",
						"label": "WETH",
						"offset": 0,
						"slot": "9",
						"type": "t_contract(WethLike)550"
					},
					{
						"astId": 697,
						"contract": "Hook.sol:TransactionsAndHook",
						"label": "Oracle",
						"offset": 0,
						"slot": "10",
						"type": "t_contract(iOracle)517"
					},
					{
						"astId": 703,
						"contract": "Hook.sol:TransactionsAndHook",
						"label": "UniswapRouter",
						"offset": 0,
						"slot": "11",
						"type": "t_contract(IUniswapV2Router02)473"
					},
					{
						"astId": 708,
						"contract": "Hook.sol:TransactionsAndHook",
						"label": "transactionFromPOAPId",
						"offset": 0,
						"slot": "12",
						"type": "t_mapping(t_uint256,t_struct(Transaction)730_storage)"
					},
					{
						"astId": 711,
						"contract": "Hook.sol:TransactionsAndHook",
						"label": "POAPIds",
						"offset": 0,
						"slot": "13",
						"type": "t_array(t_uint256)dyn_storage"
					},
					{
						"astId": 713,
						"contract": "Hook.sol:TransactionsAndHook",
						"label": "totalRoyalties",
						"offset": 0,
						"slot": "14",
						"type": "t_uint256"
					},
					{
						"astId": 1135,
						"contract": "Hook.sol:TransactionsAndHook",
						"label": "buyEth",
						"offset": 0,
						"slot": "15",
						"type": "t_uint256"
					},
					{
						"astId": 1137,
						"contract": "Hook.sol:TransactionsAndHook",
						"label": "liquidityEth",
						"offset": 0,
						"slot": "16",
						"type": "t_uint256"
					}
				],
				"types": {
					"t_address": {
						"encoding": "inplace",
						"label": "address",
						"numberOfBytes": "20"
					},
					"t_array(t_address)dyn_storage": {
						"base": "t_address",
						"encoding": "dynamic_array",
						"label": "address[]",
						"numberOfBytes": "32"
					},
					"t_array(t_uint256)dyn_storage": {
						"base": "t_uint256",
						"encoding": "dynamic_array",
						"label": "uint256[]",
						"numberOfBytes": "32"
					},
					"t_contract(IUniswapV2Router02)473": {
						"encoding": "inplace",
						"label": "contract IUniswapV2Router02",
						"numberOfBytes": "20"
					},
					"t_contract(WethLike)550": {
						"encoding": "inplace",
						"label": "contract WethLike",
						"numberOfBytes": "20"
					},
					"t_contract(iOracle)517": {
						"encoding": "inplace",
						"label": "contract iOracle",
						"numberOfBytes": "20"
					},
					"t_contract(iPOAP)483": {
						"encoding": "inplace",
						"label": "contract iPOAP",
						"numberOfBytes": "20"
					},
					"t_mapping(t_uint256,t_struct(Transaction)730_storage)": {
						"encoding": "mapping",
						"key": "t_uint256",
						"label": "mapping(uint256 => struct TransactionsAndHook.Transaction)",
						"numberOfBytes": "32",
						"value": "t_struct(Transaction)730_storage"
					},
					"t_struct(Transaction)730_storage": {
						"encoding": "inplace",
						"label": "struct TransactionsAndHook.Transaction",
						"members": [
							{
								"astId": 725,
								"contract": "Hook.sol:TransactionsAndHook",
								"label": "POAPId",
								"offset": 0,
								"slot": "0",
								"type": "t_uint256"
							},
							{
								"astId": 727,
								"contract": "Hook.sol:TransactionsAndHook",
								"label": "purchaser",
								"offset": 0,
								"slot": "1",
								"type": "t_address"
							},
							{
								"astId": 729,
								"contract": "Hook.sol:TransactionsAndHook",
								"label": "receivedEth",
								"offset": 0,
								"slot": "2",
								"type": "t_uint256"
							}
						],
						"numberOfBytes": "96"
					},
					"t_uint256": {
						"encoding": "inplace",
						"label": "uint256",
						"numberOfBytes": "32"
					}
				}
			},
			"userdoc": {
				"kind": "user",
				"methods": {},
				"version": 1
			}
		}
	}
}