{
	"test.sol": {
		"liquidityProvider": {
			"abi": [
				{
					"inputs": [
						{
							"internalType": "address",
							"name": "token",
							"type": "address"
						},
						{
							"internalType": "uint256",
							"name": "amountTokenDesired",
							"type": "uint256"
						},
						{
							"internalType": "uint256",
							"name": "amountTokenMin",
							"type": "uint256"
						},
						{
							"internalType": "uint256",
							"name": "amountETHMin",
							"type": "uint256"
						},
						{
							"internalType": "address",
							"name": "to",
							"type": "address"
						},
						{
							"internalType": "uint256",
							"name": "deadline",
							"type": "uint256"
						}
					],
					"name": "provideLiquitidy",
					"outputs": [],
					"stateMutability": "payable",
					"type": "function"
				},
				{
					"inputs": [
						{
							"internalType": "uint256",
							"name": "amountTokenDesired",
							"type": "uint256"
						},
						{
							"internalType": "uint256",
							"name": "amountTokenMin",
							"type": "uint256"
						},
						{
							"internalType": "uint256",
							"name": "amountETHMin",
							"type": "uint256"
						},
						{
							"internalType": "address",
							"name": "to",
							"type": "address"
						},
						{
							"internalType": "uint256",
							"name": "deadline",
							"type": "uint256"
						}
					],
					"name": "provideLiquitidy2",
					"outputs": [],
					"stateMutability": "payable",
					"type": "function"
				}
			],
			"devdoc": {
				"kind": "dev",
				"methods": {},
				"version": 1
			},
			"evm": {
				"assembly": "    /* \"test.sol\":205:1005  contract liquidityProvider {... */\n  mstore(0x40, 0x80)\n    /* \"test.sol\":262:304  0x386A47b1f6BE9f57D86256E9D69Ebc44043bB233 */\n  0x386a47b1f6be9f57d86256e9d69ebc44043bb233\n    /* \"test.sol\":239:304  address tokenAddress = 0x386A47b1f6BE9f57D86256E9D69Ebc44043bB233 */\n  0x00\n  dup1\n  0x0100\n  exp\n  dup2\n  sload\n  dup2\n  0xffffffffffffffffffffffffffffffffffffffff\n  mul\n  not\n  and\n  swap1\n  dup4\n  0xffffffffffffffffffffffffffffffffffffffff\n  and\n  mul\n  or\n  swap1\n  sstore\n  pop\n    /* \"test.sol\":341:383  0x7a250d5630B4cF539739dF2C5dAcb4c659F2488D */\n  0x7a250d5630b4cf539739df2c5dacb4c659f2488d\n    /* \"test.sol\":310:383  address uinswapRouterAddress = 0x7a250d5630B4cF539739dF2C5dAcb4c659F2488D */\n  0x01\n  exp(0x0100, 0x00)\n  dup2\n  sload\n  dup2\n  0xffffffffffffffffffffffffffffffffffffffff\n  mul\n  not\n  and\n  swap1\n  dup4\n  0xffffffffffffffffffffffffffffffffffffffff\n  and\n  mul\n  or\n  swap1\n  sstore\n  pop\n    /* \"test.sol\":411:423  tokenAddress */\n  0x00\n  dup1\n  sload\n  swap1\n  0x0100\n  exp\n  swap1\n  div\n  0xffffffffffffffffffffffffffffffffffffffff\n  and\n    /* \"test.sol\":389:424  IERC20 Token = IERC20(tokenAddress) */\n  0x02\n  exp(0x0100, 0x00)\n  dup2\n  sload\n  dup2\n  0xffffffffffffffffffffffffffffffffffffffff\n  mul\n  not\n  and\n  swap1\n  dup4\n  0xffffffffffffffffffffffffffffffffffffffff\n  and\n  mul\n  or\n  swap1\n  sstore\n  pop\n    /* \"test.sol\":477:497  uinswapRouterAddress */\n  0x01\n  0x00\n  swap1\n  sload\n  swap1\n  0x0100\n  exp\n  swap1\n  div\n  0xffffffffffffffffffffffffffffffffffffffff\n  and\n    /* \"test.sol\":430:498  IUniswapV2Router02 Router = IUniswapV2Router02(uinswapRouterAddress) */\n  0x03\n  exp(0x0100, 0x00)\n  dup2\n  sload\n  dup2\n  0xffffffffffffffffffffffffffffffffffffffff\n  mul\n  not\n  and\n  swap1\n  dup4\n  0xffffffffffffffffffffffffffffffffffffffff\n  and\n  mul\n  or\n  swap1\n  sstore\n  pop\n    /* \"test.sol\":205:1005  contract liquidityProvider {... */\n  callvalue\n  dup1\n  iszero\n  tag_1\n  jumpi\n  0x00\n  dup1\n  revert\ntag_1:\n  pop\n  dataSize(sub_0)\n  dup1\n  dataOffset(sub_0)\n  0x00\n  codecopy\n  0x00\n  return\nstop\n\nsub_0: assembly {\n        /* \"test.sol\":205:1005  contract liquidityProvider {... */\n      mstore(0x40, 0x80)\n      jumpi(tag_1, lt(calldatasize, 0x04))\n      shr(0xe0, calldataload(0x00))\n      dup1\n      0x09f0fe47\n      eq\n      tag_2\n      jumpi\n      dup1\n      0x930bb286\n      eq\n      tag_3\n      jumpi\n    tag_1:\n      0x00\n      dup1\n      revert\n        /* \"test.sol\":505:756  function provideLiquitidy  (address token,uint amountTokenDesired,uint amountTokenMin,uint amountETHMin,address to,uint deadline) external payable{... */\n    tag_2:\n      tag_4\n      0x04\n      dup1\n      calldatasize\n      sub\n      dup2\n      add\n      swap1\n      tag_5\n      swap2\n      swap1\n      tag_6\n      jump\t// in\n    tag_5:\n      tag_7\n      jump\t// in\n    tag_4:\n      stop\n        /* \"test.sol\":762:1001  function provideLiquitidy2  (uint amountTokenDesired,uint amountTokenMin,uint amountETHMin,address to,uint deadline) external payable{... */\n    tag_3:\n      tag_8\n      0x04\n      dup1\n      calldatasize\n      sub\n      dup2\n      add\n      swap1\n      tag_9\n      swap2\n      swap1\n      tag_10\n      jump\t// in\n    tag_9:\n      tag_11\n      jump\t// in\n    tag_8:\n      stop\n        /* \"test.sol\":505:756  function provideLiquitidy  (address token,uint amountTokenDesired,uint amountTokenMin,uint amountETHMin,address to,uint deadline) external payable{... */\n    tag_7:\n        /* \"test.sol\":661:667  Router */\n      0x03\n      0x00\n      swap1\n      sload\n      swap1\n      0x0100\n      exp\n      swap1\n      div\n      0xffffffffffffffffffffffffffffffffffffffff\n      and\n        /* \"test.sol\":661:683  Router.addLiquidityETH */\n      0xffffffffffffffffffffffffffffffffffffffff\n      and\n      0xf305d719\n        /* \"test.sol\":684:689  token */\n      dup8\n        /* \"test.sol\":690:708  amountTokenDesired */\n      dup8\n        /* \"test.sol\":709:723  amountTokenMin */\n      dup8\n        /* \"test.sol\":724:736  amountETHMin */\n      dup8\n        /* \"test.sol\":737:739  to */\n      dup8\n        /* \"test.sol\":740:748  deadline */\n      dup8\n        /* \"test.sol\":661:749  Router.addLiquidityETH(token,amountTokenDesired,amountTokenMin,amountETHMin,to,deadline) */\n      mload(0x40)\n      dup8\n      0xffffffff\n      and\n      0xe0\n      shl\n      dup2\n      mstore\n      0x04\n      add\n      tag_13\n      swap7\n      swap6\n      swap5\n      swap4\n      swap3\n      swap2\n      swap1\n      tag_14\n      jump\t// in\n    tag_13:\n      0x60\n      mload(0x40)\n      dup1\n      dup4\n      sub\n      dup2\n      0x00\n      dup8\n      gas\n      call\n      iszero\n      dup1\n      iszero\n      tag_16\n      jumpi\n      returndatasize\n      0x00\n      dup1\n      returndatacopy\n      revert(0x00, returndatasize)\n    tag_16:\n      pop\n      pop\n      pop\n      pop\n      mload(0x40)\n      returndatasize\n      not(0x1f)\n      0x1f\n      dup3\n      add\n      and\n      dup3\n      add\n      dup1\n      0x40\n      mstore\n      pop\n      dup2\n      add\n      swap1\n      tag_17\n      swap2\n      swap1\n      tag_18\n      jump\t// in\n    tag_17:\n      pop\n      pop\n      pop\n        /* \"test.sol\":505:756  function provideLiquitidy  (address token,uint amountTokenDesired,uint amountTokenMin,uint amountETHMin,address to,uint deadline) external payable{... */\n      pop\n      pop\n      pop\n      pop\n      pop\n      pop\n      jump\t// out\n        /* \"test.sol\":762:1001  function provideLiquitidy2  (uint amountTokenDesired,uint amountTokenMin,uint amountETHMin,address to,uint deadline) external payable{... */\n    tag_11:\n        /* \"test.sol\":923:929  Router */\n      0x03\n      0x00\n      swap1\n      sload\n      swap1\n      0x0100\n      exp\n      swap1\n      div\n      0xffffffffffffffffffffffffffffffffffffffff\n      and\n        /* \"test.sol\":923:945  Router.addLiquidityETH */\n      0xffffffffffffffffffffffffffffffffffffffff\n      and\n      0xf305d719\n        /* \"test.sol\":946:958  tokenAddress */\n      0x00\n      dup1\n      sload\n      swap1\n      0x0100\n      exp\n      swap1\n      div\n      0xffffffffffffffffffffffffffffffffffffffff\n      and\n        /* \"test.sol\":959:977  amountTokenDesired */\n      dup8\n        /* \"test.sol\":978:979  0 */\n      0x00\n        /* \"test.sol\":980:981  0 */\n      dup1\n        /* \"test.sol\":982:984  to */\n      dup8\n        /* \"test.sol\":985:993  deadline */\n      dup8\n        /* \"test.sol\":923:994  Router.addLiquidityETH(tokenAddress,amountTokenDesired,0,0,to,deadline) */\n      mload(0x40)\n      dup8\n      0xffffffff\n      and\n      0xe0\n      shl\n      dup2\n      mstore\n      0x04\n      add\n      tag_20\n      swap7\n      swap6\n      swap5\n      swap4\n      swap3\n      swap2\n      swap1\n      tag_21\n      jump\t// in\n    tag_20:\n      0x60\n      mload(0x40)\n      dup1\n      dup4\n      sub\n      dup2\n      0x00\n      dup8\n      gas\n      call\n      iszero\n      dup1\n      iszero\n      tag_23\n      jumpi\n      returndatasize\n      0x00\n      dup1\n      returndatacopy\n      revert(0x00, returndatasize)\n    tag_23:\n      pop\n      pop\n      pop\n      pop\n      mload(0x40)\n      returndatasize\n      not(0x1f)\n      0x1f\n      dup3\n      add\n      and\n      dup3\n      add\n      dup1\n      0x40\n      mstore\n      pop\n      dup2\n      add\n      swap1\n      tag_24\n      swap2\n      swap1\n      tag_18\n      jump\t// in\n    tag_24:\n      pop\n      pop\n      pop\n        /* \"test.sol\":762:1001  function provideLiquitidy2  (uint amountTokenDesired,uint amountTokenMin,uint amountETHMin,address to,uint deadline) external payable{... */\n      pop\n      pop\n      pop\n      pop\n      pop\n      jump\t// out\n        /* \"#utility.yul\":88:205   */\n    tag_26:\n        /* \"#utility.yul\":197:198   */\n      0x00\n        /* \"#utility.yul\":194:195   */\n      dup1\n        /* \"#utility.yul\":187:199   */\n      revert\n        /* \"#utility.yul\":334:460   */\n    tag_28:\n        /* \"#utility.yul\":371:378   */\n      0x00\n        /* \"#utility.yul\":411:453   */\n      0xffffffffffffffffffffffffffffffffffffffff\n        /* \"#utility.yul\":404:409   */\n      dup3\n        /* \"#utility.yul\":400:454   */\n      and\n        /* \"#utility.yul\":389:454   */\n      swap1\n      pop\n        /* \"#utility.yul\":334:460   */\n      swap2\n      swap1\n      pop\n      jump\t// out\n        /* \"#utility.yul\":466:562   */\n    tag_29:\n        /* \"#utility.yul\":503:510   */\n      0x00\n        /* \"#utility.yul\":532:556   */\n      tag_48\n        /* \"#utility.yul\":550:555   */\n      dup3\n        /* \"#utility.yul\":532:556   */\n      tag_28\n      jump\t// in\n    tag_48:\n        /* \"#utility.yul\":521:556   */\n      swap1\n      pop\n        /* \"#utility.yul\":466:562   */\n      swap2\n      swap1\n      pop\n      jump\t// out\n        /* \"#utility.yul\":568:690   */\n    tag_30:\n        /* \"#utility.yul\":641:665   */\n      tag_50\n        /* \"#utility.yul\":659:664   */\n      dup2\n        /* \"#utility.yul\":641:665   */\n      tag_29\n      jump\t// in\n    tag_50:\n        /* \"#utility.yul\":634:639   */\n      dup2\n        /* \"#utility.yul\":631:666   */\n      eq\n        /* \"#utility.yul\":621:684   */\n      tag_51\n      jumpi\n        /* \"#utility.yul\":680:681   */\n      0x00\n        /* \"#utility.yul\":677:678   */\n      dup1\n        /* \"#utility.yul\":670:682   */\n      revert\n        /* \"#utility.yul\":621:684   */\n    tag_51:\n        /* \"#utility.yul\":568:690   */\n      pop\n      jump\t// out\n        /* \"#utility.yul\":696:835   */\n    tag_31:\n        /* \"#utility.yul\":742:747   */\n      0x00\n        /* \"#utility.yul\":780:786   */\n      dup2\n        /* \"#utility.yul\":767:787   */\n      calldataload\n        /* \"#utility.yul\":758:787   */\n      swap1\n      pop\n        /* \"#utility.yul\":796:829   */\n      tag_53\n        /* \"#utility.yul\":823:828   */\n      dup2\n        /* \"#utility.yul\":796:829   */\n      tag_30\n      jump\t// in\n    tag_53:\n        /* \"#utility.yul\":696:835   */\n      swap3\n      swap2\n      pop\n      pop\n      jump\t// out\n        /* \"#utility.yul\":841:918   */\n    tag_32:\n        /* \"#utility.yul\":878:885   */\n      0x00\n        /* \"#utility.yul\":907:912   */\n      dup2\n        /* \"#utility.yul\":896:912   */\n      swap1\n      pop\n        /* \"#utility.yul\":841:918   */\n      swap2\n      swap1\n      pop\n      jump\t// out\n        /* \"#utility.yul\":924:1046   */\n    tag_33:\n        /* \"#utility.yul\":997:1021   */\n      tag_56\n        /* \"#utility.yul\":1015:1020   */\n      dup2\n        /* \"#utility.yul\":997:1021   */\n      tag_32\n      jump\t// in\n    tag_56:\n        /* \"#utility.yul\":990:995   */\n      dup2\n        /* \"#utility.yul\":987:1022   */\n      eq\n        /* \"#utility.yul\":977:1040   */\n      tag_57\n      jumpi\n        /* \"#utility.yul\":1036:1037   */\n      0x00\n        /* \"#utility.yul\":1033:1034   */\n      dup1\n        /* \"#utility.yul\":1026:1038   */\n      revert\n        /* \"#utility.yul\":977:1040   */\n    tag_57:\n        /* \"#utility.yul\":924:1046   */\n      pop\n      jump\t// out\n        /* \"#utility.yul\":1052:1191   */\n    tag_34:\n        /* \"#utility.yul\":1098:1103   */\n      0x00\n        /* \"#utility.yul\":1136:1142   */\n      dup2\n        /* \"#utility.yul\":1123:1143   */\n      calldataload\n        /* \"#utility.yul\":1114:1143   */\n      swap1\n      pop\n        /* \"#utility.yul\":1152:1185   */\n      tag_59\n        /* \"#utility.yul\":1179:1184   */\n      dup2\n        /* \"#utility.yul\":1152:1185   */\n      tag_33\n      jump\t// in\n    tag_59:\n        /* \"#utility.yul\":1052:1191   */\n      swap3\n      swap2\n      pop\n      pop\n      jump\t// out\n        /* \"#utility.yul\":1197:2254   */\n    tag_6:\n        /* \"#utility.yul\":1301:1307   */\n      0x00\n        /* \"#utility.yul\":1309:1315   */\n      dup1\n        /* \"#utility.yul\":1317:1323   */\n      0x00\n        /* \"#utility.yul\":1325:1331   */\n      dup1\n        /* \"#utility.yul\":1333:1339   */\n      0x00\n        /* \"#utility.yul\":1341:1347   */\n      dup1\n        /* \"#utility.yul\":1390:1393   */\n      0xc0\n        /* \"#utility.yul\":1378:1387   */\n      dup8\n        /* \"#utility.yul\":1369:1376   */\n      dup10\n        /* \"#utility.yul\":1365:1388   */\n      sub\n        /* \"#utility.yul\":1361:1394   */\n      slt\n        /* \"#utility.yul\":1358:1478   */\n      iszero\n      tag_61\n      jumpi\n        /* \"#utility.yul\":1397:1476   */\n      tag_62\n      tag_26\n      jump\t// in\n    tag_62:\n        /* \"#utility.yul\":1358:1478   */\n    tag_61:\n        /* \"#utility.yul\":1517:1518   */\n      0x00\n        /* \"#utility.yul\":1542:1595   */\n      tag_63\n        /* \"#utility.yul\":1587:1594   */\n      dup10\n        /* \"#utility.yul\":1578:1584   */\n      dup3\n        /* \"#utility.yul\":1567:1576   */\n      dup11\n        /* \"#utility.yul\":1563:1585   */\n      add\n        /* \"#utility.yul\":1542:1595   */\n      tag_31\n      jump\t// in\n    tag_63:\n        /* \"#utility.yul\":1532:1595   */\n      swap7\n      pop\n        /* \"#utility.yul\":1488:1605   */\n      pop\n        /* \"#utility.yul\":1644:1646   */\n      0x20\n        /* \"#utility.yul\":1670:1723   */\n      tag_64\n        /* \"#utility.yul\":1715:1722   */\n      dup10\n        /* \"#utility.yul\":1706:1712   */\n      dup3\n        /* \"#utility.yul\":1695:1704   */\n      dup11\n        /* \"#utility.yul\":1691:1713   */\n      add\n        /* \"#utility.yul\":1670:1723   */\n      tag_34\n      jump\t// in\n    tag_64:\n        /* \"#utility.yul\":1660:1723   */\n      swap6\n      pop\n        /* \"#utility.yul\":1615:1733   */\n      pop\n        /* \"#utility.yul\":1772:1774   */\n      0x40\n        /* \"#utility.yul\":1798:1851   */\n      tag_65\n        /* \"#utility.yul\":1843:1850   */\n      dup10\n        /* \"#utility.yul\":1834:1840   */\n      dup3\n        /* \"#utility.yul\":1823:1832   */\n      dup11\n        /* \"#utility.yul\":1819:1841   */\n      add\n        /* \"#utility.yul\":1798:1851   */\n      tag_34\n      jump\t// in\n    tag_65:\n        /* \"#utility.yul\":1788:1851   */\n      swap5\n      pop\n        /* \"#utility.yul\":1743:1861   */\n      pop\n        /* \"#utility.yul\":1900:1902   */\n      0x60\n        /* \"#utility.yul\":1926:1979   */\n      tag_66\n        /* \"#utility.yul\":1971:1978   */\n      dup10\n        /* \"#utility.yul\":1962:1968   */\n      dup3\n        /* \"#utility.yul\":1951:1960   */\n      dup11\n        /* \"#utility.yul\":1947:1969   */\n      add\n        /* \"#utility.yul\":1926:1979   */\n      tag_34\n      jump\t// in\n    tag_66:\n        /* \"#utility.yul\":1916:1979   */\n      swap4\n      pop\n        /* \"#utility.yul\":1871:1989   */\n      pop\n        /* \"#utility.yul\":2028:2031   */\n      0x80\n        /* \"#utility.yul\":2055:2108   */\n      tag_67\n        /* \"#utility.yul\":2100:2107   */\n      dup10\n        /* \"#utility.yul\":2091:2097   */\n      dup3\n        /* \"#utility.yul\":2080:2089   */\n      dup11\n        /* \"#utility.yul\":2076:2098   */\n      add\n        /* \"#utility.yul\":2055:2108   */\n      tag_31\n      jump\t// in\n    tag_67:\n        /* \"#utility.yul\":2045:2108   */\n      swap3\n      pop\n        /* \"#utility.yul\":1999:2118   */\n      pop\n        /* \"#utility.yul\":2157:2160   */\n      0xa0\n        /* \"#utility.yul\":2184:2237   */\n      tag_68\n        /* \"#utility.yul\":2229:2236   */\n      dup10\n        /* \"#utility.yul\":2220:2226   */\n      dup3\n        /* \"#utility.yul\":2209:2218   */\n      dup11\n        /* \"#utility.yul\":2205:2227   */\n      add\n        /* \"#utility.yul\":2184:2237   */\n      tag_34\n      jump\t// in\n    tag_68:\n        /* \"#utility.yul\":2174:2237   */\n      swap2\n      pop\n        /* \"#utility.yul\":2128:2247   */\n      pop\n        /* \"#utility.yul\":1197:2254   */\n      swap3\n      swap6\n      pop\n      swap3\n      swap6\n      pop\n      swap3\n      swap6\n      jump\t// out\n        /* \"#utility.yul\":2260:3171   */\n    tag_10:\n        /* \"#utility.yul\":2355:2361   */\n      0x00\n        /* \"#utility.yul\":2363:2369   */\n      dup1\n        /* \"#utility.yul\":2371:2377   */\n      0x00\n        /* \"#utility.yul\":2379:2385   */\n      dup1\n        /* \"#utility.yul\":2387:2393   */\n      0x00\n        /* \"#utility.yul\":2436:2439   */\n      0xa0\n        /* \"#utility.yul\":2424:2433   */\n      dup7\n        /* \"#utility.yul\":2415:2422   */\n      dup9\n        /* \"#utility.yul\":2411:2434   */\n      sub\n        /* \"#utility.yul\":2407:2440   */\n      slt\n        /* \"#utility.yul\":2404:2524   */\n      iszero\n      tag_70\n      jumpi\n        /* \"#utility.yul\":2443:2522   */\n      tag_71\n      tag_26\n      jump\t// in\n    tag_71:\n        /* \"#utility.yul\":2404:2524   */\n    tag_70:\n        /* \"#utility.yul\":2563:2564   */\n      0x00\n        /* \"#utility.yul\":2588:2641   */\n      tag_72\n        /* \"#utility.yul\":2633:2640   */\n      dup9\n        /* \"#utility.yul\":2624:2630   */\n      dup3\n        /* \"#utility.yul\":2613:2622   */\n      dup10\n        /* \"#utility.yul\":2609:2631   */\n      add\n        /* \"#utility.yul\":2588:2641   */\n      tag_34\n      jump\t// in\n    tag_72:\n        /* \"#utility.yul\":2578:2641   */\n      swap6\n      pop\n        /* \"#utility.yul\":2534:2651   */\n      pop\n        /* \"#utility.yul\":2690:2692   */\n      0x20\n        /* \"#utility.yul\":2716:2769   */\n      tag_73\n        /* \"#utility.yul\":2761:2768   */\n      dup9\n        /* \"#utility.yul\":2752:2758   */\n      dup3\n        /* \"#utility.yul\":2741:2750   */\n      dup10\n        /* \"#utility.yul\":2737:2759   */\n      add\n        /* \"#utility.yul\":2716:2769   */\n      tag_34\n      jump\t// in\n    tag_73:\n        /* \"#utility.yul\":2706:2769   */\n      swap5\n      pop\n        /* \"#utility.yul\":2661:2779   */\n      pop\n        /* \"#utility.yul\":2818:2820   */\n      0x40\n        /* \"#utility.yul\":2844:2897   */\n      tag_74\n        /* \"#utility.yul\":2889:2896   */\n      dup9\n        /* \"#utility.yul\":2880:2886   */\n      dup3\n        /* \"#utility.yul\":2869:2878   */\n      dup10\n        /* \"#utility.yul\":2865:2887   */\n      add\n        /* \"#utility.yul\":2844:2897   */\n      tag_34\n      jump\t// in\n    tag_74:\n        /* \"#utility.yul\":2834:2897   */\n      swap4\n      pop\n        /* \"#utility.yul\":2789:2907   */\n      pop\n        /* \"#utility.yul\":2946:2948   */\n      0x60\n        /* \"#utility.yul\":2972:3025   */\n      tag_75\n        /* \"#utility.yul\":3017:3024   */\n      dup9\n        /* \"#utility.yul\":3008:3014   */\n      dup3\n        /* \"#utility.yul\":2997:3006   */\n      dup10\n        /* \"#utility.yul\":2993:3015   */\n      add\n        /* \"#utility.yul\":2972:3025   */\n      tag_31\n      jump\t// in\n    tag_75:\n        /* \"#utility.yul\":2962:3025   */\n      swap3\n      pop\n        /* \"#utility.yul\":2917:3035   */\n      pop\n        /* \"#utility.yul\":3074:3077   */\n      0x80\n        /* \"#utility.yul\":3101:3154   */\n      tag_76\n        /* \"#utility.yul\":3146:3153   */\n      dup9\n        /* \"#utility.yul\":3137:3143   */\n      dup3\n        /* \"#utility.yul\":3126:3135   */\n      dup10\n        /* \"#utility.yul\":3122:3144   */\n      add\n        /* \"#utility.yul\":3101:3154   */\n      tag_34\n      jump\t// in\n    tag_76:\n        /* \"#utility.yul\":3091:3154   */\n      swap2\n      pop\n        /* \"#utility.yul\":3045:3164   */\n      pop\n        /* \"#utility.yul\":2260:3171   */\n      swap3\n      swap6\n      pop\n      swap3\n      swap6\n      swap1\n      swap4\n      pop\n      jump\t// out\n        /* \"#utility.yul\":3177:3295   */\n    tag_35:\n        /* \"#utility.yul\":3264:3288   */\n      tag_78\n        /* \"#utility.yul\":3282:3287   */\n      dup2\n        /* \"#utility.yul\":3264:3288   */\n      tag_29\n      jump\t// in\n    tag_78:\n        /* \"#utility.yul\":3259:3262   */\n      dup3\n        /* \"#utility.yul\":3252:3289   */\n      mstore\n        /* \"#utility.yul\":3177:3295   */\n      pop\n      pop\n      jump\t// out\n        /* \"#utility.yul\":3301:3419   */\n    tag_36:\n        /* \"#utility.yul\":3388:3412   */\n      tag_80\n        /* \"#utility.yul\":3406:3411   */\n      dup2\n        /* \"#utility.yul\":3388:3412   */\n      tag_32\n      jump\t// in\n    tag_80:\n        /* \"#utility.yul\":3383:3386   */\n      dup3\n        /* \"#utility.yul\":3376:3413   */\n      mstore\n        /* \"#utility.yul\":3301:3419   */\n      pop\n      pop\n      jump\t// out\n        /* \"#utility.yul\":3425:4200   */\n    tag_14:\n        /* \"#utility.yul\":3658:3662   */\n      0x00\n        /* \"#utility.yul\":3696:3699   */\n      0xc0\n        /* \"#utility.yul\":3685:3694   */\n      dup3\n        /* \"#utility.yul\":3681:3700   */\n      add\n        /* \"#utility.yul\":3673:3700   */\n      swap1\n      pop\n        /* \"#utility.yul\":3710:3781   */\n      tag_82\n        /* \"#utility.yul\":3778:3779   */\n      0x00\n        /* \"#utility.yul\":3767:3776   */\n      dup4\n        /* \"#utility.yul\":3763:3780   */\n      add\n        /* \"#utility.yul\":3754:3760   */\n      dup10\n        /* \"#utility.yul\":3710:3781   */\n      tag_35\n      jump\t// in\n    tag_82:\n        /* \"#utility.yul\":3791:3863   */\n      tag_83\n        /* \"#utility.yul\":3859:3861   */\n      0x20\n        /* \"#utility.yul\":3848:3857   */\n      dup4\n        /* \"#utility.yul\":3844:3862   */\n      add\n        /* \"#utility.yul\":3835:3841   */\n      dup9\n        /* \"#utility.yul\":3791:3863   */\n      tag_36\n      jump\t// in\n    tag_83:\n        /* \"#utility.yul\":3873:3945   */\n      tag_84\n        /* \"#utility.yul\":3941:3943   */\n      0x40\n        /* \"#utility.yul\":3930:3939   */\n      dup4\n        /* \"#utility.yul\":3926:3944   */\n      add\n        /* \"#utility.yul\":3917:3923   */\n      dup8\n        /* \"#utility.yul\":3873:3945   */\n      tag_36\n      jump\t// in\n    tag_84:\n        /* \"#utility.yul\":3955:4027   */\n      tag_85\n        /* \"#utility.yul\":4023:4025   */\n      0x60\n        /* \"#utility.yul\":4012:4021   */\n      dup4\n        /* \"#utility.yul\":4008:4026   */\n      add\n        /* \"#utility.yul\":3999:4005   */\n      dup7\n        /* \"#utility.yul\":3955:4027   */\n      tag_36\n      jump\t// in\n    tag_85:\n        /* \"#utility.yul\":4037:4110   */\n      tag_86\n        /* \"#utility.yul\":4105:4108   */\n      0x80\n        /* \"#utility.yul\":4094:4103   */\n      dup4\n        /* \"#utility.yul\":4090:4109   */\n      add\n        /* \"#utility.yul\":4081:4087   */\n      dup6\n        /* \"#utility.yul\":4037:4110   */\n      tag_35\n      jump\t// in\n    tag_86:\n        /* \"#utility.yul\":4120:4193   */\n      tag_87\n        /* \"#utility.yul\":4188:4191   */\n      0xa0\n        /* \"#utility.yul\":4177:4186   */\n      dup4\n        /* \"#utility.yul\":4173:4192   */\n      add\n        /* \"#utility.yul\":4164:4170   */\n      dup5\n        /* \"#utility.yul\":4120:4193   */\n      tag_36\n      jump\t// in\n    tag_87:\n        /* \"#utility.yul\":3425:4200   */\n      swap8\n      swap7\n      pop\n      pop\n      pop\n      pop\n      pop\n      pop\n      pop\n      jump\t// out\n        /* \"#utility.yul\":4206:4349   */\n    tag_37:\n        /* \"#utility.yul\":4263:4268   */\n      0x00\n        /* \"#utility.yul\":4294:4300   */\n      dup2\n        /* \"#utility.yul\":4288:4301   */\n      mload\n        /* \"#utility.yul\":4279:4301   */\n      swap1\n      pop\n        /* \"#utility.yul\":4310:4343   */\n      tag_89\n        /* \"#utility.yul\":4337:4342   */\n      dup2\n        /* \"#utility.yul\":4310:4343   */\n      tag_33\n      jump\t// in\n    tag_89:\n        /* \"#utility.yul\":4206:4349   */\n      swap3\n      swap2\n      pop\n      pop\n      jump\t// out\n        /* \"#utility.yul\":4355:5018   */\n    tag_18:\n        /* \"#utility.yul\":4443:4449   */\n      0x00\n        /* \"#utility.yul\":4451:4457   */\n      dup1\n        /* \"#utility.yul\":4459:4465   */\n      0x00\n        /* \"#utility.yul\":4508:4510   */\n      0x60\n        /* \"#utility.yul\":4496:4505   */\n      dup5\n        /* \"#utility.yul\":4487:4494   */\n      dup7\n        /* \"#utility.yul\":4483:4506   */\n      sub\n        /* \"#utility.yul\":4479:4511   */\n      slt\n        /* \"#utility.yul\":4476:4595   */\n      iszero\n      tag_91\n      jumpi\n        /* \"#utility.yul\":4514:4593   */\n      tag_92\n      tag_26\n      jump\t// in\n    tag_92:\n        /* \"#utility.yul\":4476:4595   */\n    tag_91:\n        /* \"#utility.yul\":4634:4635   */\n      0x00\n        /* \"#utility.yul\":4659:4723   */\n      tag_93\n        /* \"#utility.yul\":4715:4722   */\n      dup7\n        /* \"#utility.yul\":4706:4712   */\n      dup3\n        /* \"#utility.yul\":4695:4704   */\n      dup8\n        /* \"#utility.yul\":4691:4713   */\n      add\n        /* \"#utility.yul\":4659:4723   */\n      tag_37\n      jump\t// in\n    tag_93:\n        /* \"#utility.yul\":4649:4723   */\n      swap4\n      pop\n        /* \"#utility.yul\":4605:4733   */\n      pop\n        /* \"#utility.yul\":4772:4774   */\n      0x20\n        /* \"#utility.yul\":4798:4862   */\n      tag_94\n        /* \"#utility.yul\":4854:4861   */\n      dup7\n        /* \"#utility.yul\":4845:4851   */\n      dup3\n        /* \"#utility.yul\":4834:4843   */\n      dup8\n        /* \"#utility.yul\":4830:4852   */\n      add\n        /* \"#utility.yul\":4798:4862   */\n      tag_37\n      jump\t// in\n    tag_94:\n        /* \"#utility.yul\":4788:4862   */\n      swap3\n      pop\n        /* \"#utility.yul\":4743:4872   */\n      pop\n        /* \"#utility.yul\":4911:4913   */\n      0x40\n        /* \"#utility.yul\":4937:5001   */\n      tag_95\n        /* \"#utility.yul\":4993:5000   */\n      dup7\n        /* \"#utility.yul\":4984:4990   */\n      dup3\n        /* \"#utility.yul\":4973:4982   */\n      dup8\n        /* \"#utility.yul\":4969:4991   */\n      add\n        /* \"#utility.yul\":4937:5001   */\n      tag_37\n      jump\t// in\n    tag_95:\n        /* \"#utility.yul\":4927:5001   */\n      swap2\n      pop\n        /* \"#utility.yul\":4882:5011   */\n      pop\n        /* \"#utility.yul\":4355:5018   */\n      swap3\n      pop\n      swap3\n      pop\n      swap3\n      jump\t// out\n        /* \"#utility.yul\":5024:5109   */\n    tag_38:\n        /* \"#utility.yul\":5069:5076   */\n      0x00\n        /* \"#utility.yul\":5098:5103   */\n      dup2\n        /* \"#utility.yul\":5087:5103   */\n      swap1\n      pop\n        /* \"#utility.yul\":5024:5109   */\n      swap2\n      swap1\n      pop\n      jump\t// out\n        /* \"#utility.yul\":5115:5175   */\n    tag_39:\n        /* \"#utility.yul\":5143:5146   */\n      0x00\n        /* \"#utility.yul\":5164:5169   */\n      dup2\n        /* \"#utility.yul\":5157:5169   */\n      swap1\n      pop\n        /* \"#utility.yul\":5115:5175   */\n      swap2\n      swap1\n      pop\n      jump\t// out\n        /* \"#utility.yul\":5181:5339   */\n    tag_40:\n        /* \"#utility.yul\":5239:5248   */\n      0x00\n        /* \"#utility.yul\":5272:5333   */\n      tag_99\n        /* \"#utility.yul\":5290:5332   */\n      tag_100\n        /* \"#utility.yul\":5299:5331   */\n      tag_101\n        /* \"#utility.yul\":5325:5330   */\n      dup5\n        /* \"#utility.yul\":5299:5331   */\n      tag_38\n      jump\t// in\n    tag_101:\n        /* \"#utility.yul\":5290:5332   */\n      tag_39\n      jump\t// in\n    tag_100:\n        /* \"#utility.yul\":5272:5333   */\n      tag_32\n      jump\t// in\n    tag_99:\n        /* \"#utility.yul\":5259:5333   */\n      swap1\n      pop\n        /* \"#utility.yul\":5181:5339   */\n      swap2\n      swap1\n      pop\n      jump\t// out\n        /* \"#utility.yul\":5345:5492   */\n    tag_41:\n        /* \"#utility.yul\":5440:5485   */\n      tag_103\n        /* \"#utility.yul\":5479:5484   */\n      dup2\n        /* \"#utility.yul\":5440:5485   */\n      tag_40\n      jump\t// in\n    tag_103:\n        /* \"#utility.yul\":5435:5438   */\n      dup3\n        /* \"#utility.yul\":5428:5486   */\n      mstore\n        /* \"#utility.yul\":5345:5492   */\n      pop\n      pop\n      jump\t// out\n        /* \"#utility.yul\":5498:6305   */\n    tag_21:\n        /* \"#utility.yul\":5747:5751   */\n      0x00\n        /* \"#utility.yul\":5785:5788   */\n      0xc0\n        /* \"#utility.yul\":5774:5783   */\n      dup3\n        /* \"#utility.yul\":5770:5789   */\n      add\n        /* \"#utility.yul\":5762:5789   */\n      swap1\n      pop\n        /* \"#utility.yul\":5799:5870   */\n      tag_105\n        /* \"#utility.yul\":5867:5868   */\n      0x00\n        /* \"#utility.yul\":5856:5865   */\n      dup4\n        /* \"#utility.yul\":5852:5869   */\n      add\n        /* \"#utility.yul\":5843:5849   */\n      dup10\n        /* \"#utility.yul\":5799:5870   */\n      tag_35\n      jump\t// in\n    tag_105:\n        /* \"#utility.yul\":5880:5952   */\n      tag_106\n        /* \"#utility.yul\":5948:5950   */\n      0x20\n        /* \"#utility.yul\":5937:5946   */\n      dup4\n        /* \"#utility.yul\":5933:5951   */\n      add\n        /* \"#utility.yul\":5924:5930   */\n      dup9\n        /* \"#utility.yul\":5880:5952   */\n      tag_36\n      jump\t// in\n    tag_106:\n        /* \"#utility.yul\":5962:6042   */\n      tag_107\n        /* \"#utility.yul\":6038:6040   */\n      0x40\n        /* \"#utility.yul\":6027:6036   */\n      dup4\n        /* \"#utility.yul\":6023:6041   */\n      add\n        /* \"#utility.yul\":6014:6020   */\n      dup8\n        /* \"#utility.yul\":5962:6042   */\n      tag_41\n      jump\t// in\n    tag_107:\n        /* \"#utility.yul\":6052:6132   */\n      tag_108\n        /* \"#utility.yul\":6128:6130   */\n      0x60\n        /* \"#utility.yul\":6117:6126   */\n      dup4\n        /* \"#utility.yul\":6113:6131   */\n      add\n        /* \"#utility.yul\":6104:6110   */\n      dup7\n        /* \"#utility.yul\":6052:6132   */\n      tag_41\n      jump\t// in\n    tag_108:\n        /* \"#utility.yul\":6142:6215   */\n      tag_109\n        /* \"#utility.yul\":6210:6213   */\n      0x80\n        /* \"#utility.yul\":6199:6208   */\n      dup4\n        /* \"#utility.yul\":6195:6214   */\n      add\n        /* \"#utility.yul\":6186:6192   */\n      dup6\n        /* \"#utility.yul\":6142:6215   */\n      tag_35\n      jump\t// in\n    tag_109:\n        /* \"#utility.yul\":6225:6298   */\n      tag_110\n        /* \"#utility.yul\":6293:6296   */\n      0xa0\n        /* \"#utility.yul\":6282:6291   */\n      dup4\n        /* \"#utility.yul\":6278:6297   */\n      add\n        /* \"#utility.yul\":6269:6275   */\n      dup5\n        /* \"#utility.yul\":6225:6298   */\n      tag_36\n      jump\t// in\n    tag_110:\n        /* \"#utility.yul\":5498:6305   */\n      swap8\n      swap7\n      pop\n      pop\n      pop\n      pop\n      pop\n      pop\n      pop\n      jump\t// out\n\n    auxdata: 0xa264697066735822122047fb7eb8658f475c9d160ed03654f1d00bbce76d5dcd33206838c4446683d1be64736f6c63430008110033\n}\n",
				"bytecode": {
					"linkReferences": {},
					"object": "608060405273386a47b1f6be9f57d86256e9d69ebc44043bb2336000806101000a81548173ffffffffffffffffffffffffffffffffffffffff021916908373ffffffffffffffffffffffffffffffffffffffff160217905550737a250d5630b4cf539739df2c5dacb4c659f2488d600160006101000a81548173ffffffffffffffffffffffffffffffffffffffff021916908373ffffffffffffffffffffffffffffffffffffffff16021790555060008054906101000a900473ffffffffffffffffffffffffffffffffffffffff16600260006101000a81548173ffffffffffffffffffffffffffffffffffffffff021916908373ffffffffffffffffffffffffffffffffffffffff160217905550600160009054906101000a900473ffffffffffffffffffffffffffffffffffffffff16600360006101000a81548173ffffffffffffffffffffffffffffffffffffffff021916908373ffffffffffffffffffffffffffffffffffffffff16021790555034801561017d57600080fd5b506105508061018d6000396000f3fe6080604052600436106100295760003560e01c806309f0fe471461002e578063930bb2861461004a575b600080fd5b61004860048036038101906100439190610285565b610066565b005b610064600480360381019061005f9190610312565b610119565b005b600360009054906101000a900473ffffffffffffffffffffffffffffffffffffffff1673ffffffffffffffffffffffffffffffffffffffff1663f305d7198787878787876040518763ffffffff1660e01b81526004016100cb969594939291906103ab565b6060604051808303816000875af11580156100ea573d6000803e3d6000fd5b505050506040513d601f19601f8201168201806040525081019061010e9190610421565b505050505050505050565b600360009054906101000a900473ffffffffffffffffffffffffffffffffffffffff1673ffffffffffffffffffffffffffffffffffffffff1663f305d71960008054906101000a900473ffffffffffffffffffffffffffffffffffffffff168760008087876040518763ffffffff1660e01b815260040161019f969594939291906104b9565b6060604051808303816000875af11580156101be573d6000803e3d6000fd5b505050506040513d601f19601f820116820180604052508101906101e29190610421565b5050505050505050565b600080fd5b600073ffffffffffffffffffffffffffffffffffffffff82169050919050565b600061021c826101f1565b9050919050565b61022c81610211565b811461023757600080fd5b50565b60008135905061024981610223565b92915050565b6000819050919050565b6102628161024f565b811461026d57600080fd5b50565b60008135905061027f81610259565b92915050565b60008060008060008060c087890312156102a2576102a16101ec565b5b60006102b089828a0161023a565b96505060206102c189828a01610270565b95505060406102d289828a01610270565b94505060606102e389828a01610270565b93505060806102f489828a0161023a565b92505060a061030589828a01610270565b9150509295509295509295565b600080600080600060a0868803121561032e5761032d6101ec565b5b600061033c88828901610270565b955050602061034d88828901610270565b945050604061035e88828901610270565b935050606061036f8882890161023a565b925050608061038088828901610270565b9150509295509295909350565b61039681610211565b82525050565b6103a58161024f565b82525050565b600060c0820190506103c0600083018961038d565b6103cd602083018861039c565b6103da604083018761039c565b6103e7606083018661039c565b6103f4608083018561038d565b61040160a083018461039c565b979650505050505050565b60008151905061041b81610259565b92915050565b60008060006060848603121561043a576104396101ec565b5b60006104488682870161040c565b93505060206104598682870161040c565b925050604061046a8682870161040c565b9150509250925092565b6000819050919050565b6000819050919050565b60006104a361049e61049984610474565b61047e565b61024f565b9050919050565b6104b381610488565b82525050565b600060c0820190506104ce600083018961038d565b6104db602083018861039c565b6104e860408301876104aa565b6104f560608301866104aa565b610502608083018561038d565b61050f60a083018461039c565b97965050505050505056fea264697066735822122047fb7eb8658f475c9d160ed03654f1d00bbce76d5dcd33206838c4446683d1be64736f6c63430008110033",
					"opcodes": "PUSH1 0x80 PUSH1 0x40 MSTORE PUSH20 0x386A47B1F6BE9F57D86256E9D69EBC44043BB233 PUSH1 0x0 DUP1 PUSH2 0x100 EXP DUP2 SLOAD DUP2 PUSH20 0xFFFFFFFFFFFFFFFFFFFFFFFFFFFFFFFFFFFFFFFF MUL NOT AND SWAP1 DUP4 PUSH20 0xFFFFFFFFFFFFFFFFFFFFFFFFFFFFFFFFFFFFFFFF AND MUL OR SWAP1 SSTORE POP PUSH20 0x7A250D5630B4CF539739DF2C5DACB4C659F2488D PUSH1 0x1 PUSH1 0x0 PUSH2 0x100 EXP DUP2 SLOAD DUP2 PUSH20 0xFFFFFFFFFFFFFFFFFFFFFFFFFFFFFFFFFFFFFFFF MUL NOT AND SWAP1 DUP4 PUSH20 0xFFFFFFFFFFFFFFFFFFFFFFFFFFFFFFFFFFFFFFFF AND MUL OR SWAP1 SSTORE POP PUSH1 0x0 DUP1 SLOAD SWAP1 PUSH2 0x100 EXP SWAP1 DIV PUSH20 0xFFFFFFFFFFFFFFFFFFFFFFFFFFFFFFFFFFFFFFFF AND PUSH1 0x2 PUSH1 0x0 PUSH2 0x100 EXP DUP2 SLOAD DUP2 PUSH20 0xFFFFFFFFFFFFFFFFFFFFFFFFFFFFFFFFFFFFFFFF MUL NOT AND SWAP1 DUP4 PUSH20 0xFFFFFFFFFFFFFFFFFFFFFFFFFFFFFFFFFFFFFFFF AND MUL OR SWAP1 SSTORE POP PUSH1 0x1 PUSH1 0x0 SWAP1 SLOAD SWAP1 PUSH2 0x100 EXP SWAP1 DIV PUSH20 0xFFFFFFFFFFFFFFFFFFFFFFFFFFFFFFFFFFFFFFFF AND PUSH1 0x3 PUSH1 0x0 PUSH2 0x100 EXP DUP2 SLOAD DUP2 PUSH20 0xFFFFFFFFFFFFFFFFFFFFFFFFFFFFFFFFFFFFFFFF MUL NOT AND SWAP1 DUP4 PUSH20 0xFFFFFFFFFFFFFFFFFFFFFFFFFFFFFFFFFFFFFFFF AND MUL OR SWAP1 SSTORE POP CALLVALUE DUP1 ISZERO PUSH2 0x17D JUMPI PUSH1 0x0 DUP1 REVERT JUMPDEST POP PUSH2 0x550 DUP1 PUSH2 0x18D PUSH1 0x0 CODECOPY PUSH1 0x0 RETURN INVALID PUSH1 0x80 PUSH1 0x40 MSTORE PUSH1 0x4 CALLDATASIZE LT PUSH2 0x29 JUMPI PUSH1 0x0 CALLDATALOAD PUSH1 0xE0 SHR DUP1 PUSH4 0x9F0FE47 EQ PUSH2 0x2E JUMPI DUP1 PUSH4 0x930BB286 EQ PUSH2 0x4A JUMPI JUMPDEST PUSH1 0x0 DUP1 REVERT JUMPDEST PUSH2 0x48 PUSH1 0x4 DUP1 CALLDATASIZE SUB DUP2 ADD SWAP1 PUSH2 0x43 SWAP2 SWAP1 PUSH2 0x285 JUMP JUMPDEST PUSH2 0x66 JUMP JUMPDEST STOP JUMPDEST PUSH2 0x64 PUSH1 0x4 DUP1 CALLDATASIZE SUB DUP2 ADD SWAP1 PUSH2 0x5F SWAP2 SWAP1 PUSH2 0x312 JUMP JUMPDEST PUSH2 0x119 JUMP JUMPDEST STOP JUMPDEST PUSH1 0x3 PUSH1 0x0 SWAP1 SLOAD SWAP1 PUSH2 0x100 EXP SWAP1 DIV PUSH20 0xFFFFFFFFFFFFFFFFFFFFFFFFFFFFFFFFFFFFFFFF AND PUSH20 0xFFFFFFFFFFFFFFFFFFFFFFFFFFFFFFFFFFFFFFFF AND PUSH4 0xF305D719 DUP8 DUP8 DUP8 DUP8 DUP8 DUP8 PUSH1 0x40 MLOAD DUP8 PUSH4 0xFFFFFFFF AND PUSH1 0xE0 SHL DUP2 MSTORE PUSH1 0x4 ADD PUSH2 0xCB SWAP7 SWAP6 SWAP5 SWAP4 SWAP3 SWAP2 SWAP1 PUSH2 0x3AB JUMP JUMPDEST PUSH1 0x60 PUSH1 0x40 MLOAD DUP1 DUP4 SUB DUP2 PUSH1 0x0 DUP8 GAS CALL ISZERO DUP1 ISZERO PUSH2 0xEA JUMPI RETURNDATASIZE PUSH1 0x0 DUP1 RETURNDATACOPY RETURNDATASIZE PUSH1 0x0 REVERT JUMPDEST POP POP POP POP PUSH1 0x40 MLOAD RETURNDATASIZE PUSH1 0x1F NOT PUSH1 0x1F DUP3 ADD AND DUP3 ADD DUP1 PUSH1 0x40 MSTORE POP DUP2 ADD SWAP1 PUSH2 0x10E SWAP2 SWAP1 PUSH2 0x421 JUMP JUMPDEST POP POP POP POP POP POP POP POP POP JUMP JUMPDEST PUSH1 0x3 PUSH1 0x0 SWAP1 SLOAD SWAP1 PUSH2 0x100 EXP SWAP1 DIV PUSH20 0xFFFFFFFFFFFFFFFFFFFFFFFFFFFFFFFFFFFFFFFF AND PUSH20 0xFFFFFFFFFFFFFFFFFFFFFFFFFFFFFFFFFFFFFFFF AND PUSH4 0xF305D719 PUSH1 0x0 DUP1 SLOAD SWAP1 PUSH2 0x100 EXP SWAP1 DIV PUSH20 0xFFFFFFFFFFFFFFFFFFFFFFFFFFFFFFFFFFFFFFFF AND DUP8 PUSH1 0x0 DUP1 DUP8 DUP8 PUSH1 0x40 MLOAD DUP8 PUSH4 0xFFFFFFFF AND PUSH1 0xE0 SHL DUP2 MSTORE PUSH1 0x4 ADD PUSH2 0x19F SWAP7 SWAP6 SWAP5 SWAP4 SWAP3 SWAP2 SWAP1 PUSH2 0x4B9 JUMP JUMPDEST PUSH1 0x60 PUSH1 0x40 MLOAD DUP1 DUP4 SUB DUP2 PUSH1 0x0 DUP8 GAS CALL ISZERO DUP1 ISZERO PUSH2 0x1BE JUMPI RETURNDATASIZE PUSH1 0x0 DUP1 RETURNDATACOPY RETURNDATASIZE PUSH1 0x0 REVERT JUMPDEST POP POP POP POP PUSH1 0x40 MLOAD RETURNDATASIZE PUSH1 0x1F NOT PUSH1 0x1F DUP3 ADD AND DUP3 ADD DUP1 PUSH1 0x40 MSTORE POP DUP2 ADD SWAP1 PUSH2 0x1E2 SWAP2 SWAP1 PUSH2 0x421 JUMP JUMPDEST POP POP POP POP POP POP POP POP JUMP JUMPDEST PUSH1 0x0 DUP1 REVERT JUMPDEST PUSH1 0x0 PUSH20 0xFFFFFFFFFFFFFFFFFFFFFFFFFFFFFFFFFFFFFFFF DUP3 AND SWAP1 POP SWAP2 SWAP1 POP JUMP JUMPDEST PUSH1 0x0 PUSH2 0x21C DUP3 PUSH2 0x1F1 JUMP JUMPDEST SWAP1 POP SWAP2 SWAP1 POP JUMP JUMPDEST PUSH2 0x22C DUP2 PUSH2 0x211 JUMP JUMPDEST DUP2 EQ PUSH2 0x237 JUMPI PUSH1 0x0 DUP1 REVERT JUMPDEST POP JUMP JUMPDEST PUSH1 0x0 DUP2 CALLDATALOAD SWAP1 POP PUSH2 0x249 DUP2 PUSH2 0x223 JUMP JUMPDEST SWAP3 SWAP2 POP POP JUMP JUMPDEST PUSH1 0x0 DUP2 SWAP1 POP SWAP2 SWAP1 POP JUMP JUMPDEST PUSH2 0x262 DUP2 PUSH2 0x24F JUMP JUMPDEST DUP2 EQ PUSH2 0x26D JUMPI PUSH1 0x0 DUP1 REVERT JUMPDEST POP JUMP JUMPDEST PUSH1 0x0 DUP2 CALLDATALOAD SWAP1 POP PUSH2 0x27F DUP2 PUSH2 0x259 JUMP JUMPDEST SWAP3 SWAP2 POP POP JUMP JUMPDEST PUSH1 0x0 DUP1 PUSH1 0x0 DUP1 PUSH1 0x0 DUP1 PUSH1 0xC0 DUP8 DUP10 SUB SLT ISZERO PUSH2 0x2A2 JUMPI PUSH2 0x2A1 PUSH2 0x1EC JUMP JUMPDEST JUMPDEST PUSH1 0x0 PUSH2 0x2B0 DUP10 DUP3 DUP11 ADD PUSH2 0x23A JUMP JUMPDEST SWAP7 POP POP PUSH1 0x20 PUSH2 0x2C1 DUP10 DUP3 DUP11 ADD PUSH2 0x270 JUMP JUMPDEST SWAP6 POP POP PUSH1 0x40 PUSH2 0x2D2 DUP10 DUP3 DUP11 ADD PUSH2 0x270 JUMP JUMPDEST SWAP5 POP POP PUSH1 0x60 PUSH2 0x2E3 DUP10 DUP3 DUP11 ADD PUSH2 0x270 JUMP JUMPDEST SWAP4 POP POP PUSH1 0x80 PUSH2 0x2F4 DUP10 DUP3 DUP11 ADD PUSH2 0x23A JUMP JUMPDEST SWAP3 POP POP PUSH1 0xA0 PUSH2 0x305 DUP10 DUP3 DUP11 ADD PUSH2 0x270 JUMP JUMPDEST SWAP2 POP POP SWAP3 SWAP6 POP SWAP3 SWAP6 POP SWAP3 SWAP6 JUMP JUMPDEST PUSH1 0x0 DUP1 PUSH1 0x0 DUP1 PUSH1 0x0 PUSH1 0xA0 DUP7 DUP9 SUB SLT ISZERO PUSH2 0x32E JUMPI PUSH2 0x32D PUSH2 0x1EC JUMP JUMPDEST JUMPDEST PUSH1 0x0 PUSH2 0x33C DUP9 DUP3 DUP10 ADD PUSH2 0x270 JUMP JUMPDEST SWAP6 POP POP PUSH1 0x20 PUSH2 0x34D DUP9 DUP3 DUP10 ADD PUSH2 0x270 JUMP JUMPDEST SWAP5 POP POP PUSH1 0x40 PUSH2 0x35E DUP9 DUP3 DUP10 ADD PUSH2 0x270 JUMP JUMPDEST SWAP4 POP POP PUSH1 0x60 PUSH2 0x36F DUP9 DUP3 DUP10 ADD PUSH2 0x23A JUMP JUMPDEST SWAP3 POP POP PUSH1 0x80 PUSH2 0x380 DUP9 DUP3 DUP10 ADD PUSH2 0x270 JUMP JUMPDEST SWAP2 POP POP SWAP3 SWAP6 POP SWAP3 SWAP6 SWAP1 SWAP4 POP JUMP JUMPDEST PUSH2 0x396 DUP2 PUSH2 0x211 JUMP JUMPDEST DUP3 MSTORE POP POP JUMP JUMPDEST PUSH2 0x3A5 DUP2 PUSH2 0x24F JUMP JUMPDEST DUP3 MSTORE POP POP JUMP JUMPDEST PUSH1 0x0 PUSH1 0xC0 DUP3 ADD SWAP1 POP PUSH2 0x3C0 PUSH1 0x0 DUP4 ADD DUP10 PUSH2 0x38D JUMP JUMPDEST PUSH2 0x3CD PUSH1 0x20 DUP4 ADD DUP9 PUSH2 0x39C JUMP JUMPDEST PUSH2 0x3DA PUSH1 0x40 DUP4 ADD DUP8 PUSH2 0x39C JUMP JUMPDEST PUSH2 0x3E7 PUSH1 0x60 DUP4 ADD DUP7 PUSH2 0x39C JUMP JUMPDEST PUSH2 0x3F4 PUSH1 0x80 DUP4 ADD DUP6 PUSH2 0x38D JUMP JUMPDEST PUSH2 0x401 PUSH1 0xA0 DUP4 ADD DUP5 PUSH2 0x39C JUMP JUMPDEST SWAP8 SWAP7 POP POP POP POP POP POP POP JUMP JUMPDEST PUSH1 0x0 DUP2 MLOAD SWAP1 POP PUSH2 0x41B DUP2 PUSH2 0x259 JUMP JUMPDEST SWAP3 SWAP2 POP POP JUMP JUMPDEST PUSH1 0x0 DUP1 PUSH1 0x0 PUSH1 0x60 DUP5 DUP7 SUB SLT ISZERO PUSH2 0x43A JUMPI PUSH2 0x439 PUSH2 0x1EC JUMP JUMPDEST JUMPDEST PUSH1 0x0 PUSH2 0x448 DUP7 DUP3 DUP8 ADD PUSH2 0x40C JUMP JUMPDEST SWAP4 POP POP PUSH1 0x20 PUSH2 0x459 DUP7 DUP3 DUP8 ADD PUSH2 0x40C JUMP JUMPDEST SWAP3 POP POP PUSH1 0x40 PUSH2 0x46A DUP7 DUP3 DUP8 ADD PUSH2 0x40C JUMP JUMPDEST SWAP2 POP POP SWAP3 POP SWAP3 POP SWAP3 JUMP JUMPDEST PUSH1 0x0 DUP2 SWAP1 POP SWAP2 SWAP1 POP JUMP JUMPDEST PUSH1 0x0 DUP2 SWAP1 POP SWAP2 SWAP1 POP JUMP JUMPDEST PUSH1 0x0 PUSH2 0x4A3 PUSH2 0x49E PUSH2 0x499 DUP5 PUSH2 0x474 JUMP JUMPDEST PUSH2 0x47E JUMP JUMPDEST PUSH2 0x24F JUMP JUMPDEST SWAP1 POP SWAP2 SWAP1 POP JUMP JUMPDEST PUSH2 0x4B3 DUP2 PUSH2 0x488 JUMP JUMPDEST DUP3 MSTORE POP POP JUMP JUMPDEST PUSH1 0x0 PUSH1 0xC0 DUP3 ADD SWAP1 POP PUSH2 0x4CE PUSH1 0x0 DUP4 ADD DUP10 PUSH2 0x38D JUMP JUMPDEST PUSH2 0x4DB PUSH1 0x20 DUP4 ADD DUP9 PUSH2 0x39C JUMP JUMPDEST PUSH2 0x4E8 PUSH1 0x40 DUP4 ADD DUP8 PUSH2 0x4AA JUMP JUMPDEST PUSH2 0x4F5 PUSH1 0x60 DUP4 ADD DUP7 PUSH2 0x4AA JUMP JUMPDEST PUSH2 0x502 PUSH1 0x80 DUP4 ADD DUP6 PUSH2 0x38D JUMP JUMPDEST PUSH2 0x50F PUSH1 0xA0 DUP4 ADD DUP5 PUSH2 0x39C JUMP JUMPDEST SWAP8 SWAP7 POP POP POP POP POP POP POP JUMP INVALID LOG2 PUSH5 0x6970667358 0x22 SLT KECCAK256 SELFBALANCE 0xFB PUSH31 0xB8658F475C9D160ED03654F1D00BBCE76D5DCD33206838C4446683D1BE6473 PUSH16 0x6C634300081100330000000000000000 "
				},
				"gasEstimates": {
					"creation": {
						"codeDepositCost": "272000",
						"executionCost": "101649",
						"totalCost": "373649"
					},
					"external": {
						"provideLiquitidy(address,uint256,uint256,uint256,address,uint256)": "infinite",
						"provideLiquitidy2(uint256,uint256,uint256,address,uint256)": "infinite"
					}
				},
				"methodIdentifiers": {
					"provideLiquitidy(address,uint256,uint256,uint256,address,uint256)": "09f0fe47",
					"provideLiquitidy2(uint256,uint256,uint256,address,uint256)": "930bb286"
				}
			},
			"storageLayout": {
				"storage": [
					{
						"astId": 480,
						"contract": "test.sol:liquidityProvider",
						"label": "tokenAddress",
						"offset": 0,
						"slot": "0",
						"type": "t_address"
					},
					{
						"astId": 483,
						"contract": "test.sol:liquidityProvider",
						"label": "uinswapRouterAddress",
						"offset": 0,
						"slot": "1",
						"type": "t_address"
					},
					{
						"astId": 489,
						"contract": "test.sol:liquidityProvider",
						"label": "Token",
						"offset": 0,
						"slot": "2",
						"type": "t_contract(IERC20)77"
					},
					{
						"astId": 495,
						"contract": "test.sol:liquidityProvider",
						"label": "Router",
						"offset": 0,
						"slot": "3",
						"type": "t_contract(IUniswapV2Router02)473"
					}
				],
				"types": {
					"t_address": {
						"encoding": "inplace",
						"label": "address",
						"numberOfBytes": "20"
					},
					"t_contract(IERC20)77": {
						"encoding": "inplace",
						"label": "contract IERC20",
						"numberOfBytes": "20"
					},
					"t_contract(IUniswapV2Router02)473": {
						"encoding": "inplace",
						"label": "contract IUniswapV2Router02",
						"numberOfBytes": "20"
					}
				}
			},
			"userdoc": {
				"kind": "user",
				"methods": {},
				"version": 1
			}
		}
	}
}