{
	"contracts/Hook.sol": {
		"TransactionsAndHook": {
			"abi": [
				{
					"inputs": [
						{
							"internalType": "address",
							"name": "_ERC20",
							"type": "address"
						},
						{
							"internalType": "address",
							"name": "_uniswapPair",
							"type": "address"
						},
						{
							"internalType": "address",
							"name": "_oracle",
							"type": "address"
						},
						{
							"internalType": "address",
							"name": "_crownNFT",
							"type": "address"
						},
						{
							"internalType": "address",
							"name": "_POAP",
							"type": "address"
						}
					],
					"stateMutability": "nonpayable",
					"type": "constructor"
				},
				{
					"anonymous": false,
					"inputs": [
						{
							"indexed": false,
							"internalType": "string",
							"name": "message",
							"type": "string"
						}
					],
					"name": "Log",
					"type": "event"
				},
				{
					"inputs": [],
					"name": "ERC20Address",
					"outputs": [
						{
							"internalType": "address",
							"name": "",
							"type": "address"
						}
					],
					"stateMutability": "view",
					"type": "function"
				},
				{
					"inputs": [],
					"name": "POAPAddress",
					"outputs": [
						{
							"internalType": "address",
							"name": "",
							"type": "address"
						}
					],
					"stateMutability": "view",
					"type": "function"
				},
				{
					"inputs": [],
					"name": "WethAddress",
					"outputs": [
						{
							"internalType": "address",
							"name": "",
							"type": "address"
						}
					],
					"stateMutability": "view",
					"type": "function"
				},
				{
					"inputs": [],
					"name": "buyEth",
					"outputs": [
						{
							"internalType": "uint256",
							"name": "",
							"type": "uint256"
						}
					],
					"stateMutability": "view",
					"type": "function"
				},
				{
					"inputs": [],
					"name": "createTransfer",
					"outputs": [
						{
							"internalType": "bool",
							"name": "",
							"type": "bool"
						}
					],
					"stateMutability": "nonpayable",
					"type": "function"
				},
				{
					"inputs": [],
					"name": "crownNFTAddress",
					"outputs": [
						{
							"internalType": "address",
							"name": "",
							"type": "address"
						}
					],
					"stateMutability": "view",
					"type": "function"
				},
				{
					"inputs": [],
					"name": "getLastEthRecieved",
					"outputs": [
						{
							"internalType": "uint256",
							"name": "",
							"type": "uint256"
						}
					],
					"stateMutability": "view",
					"type": "function"
				},
				{
					"inputs": [],
					"name": "getWethBalance",
					"outputs": [
						{
							"internalType": "uint256",
							"name": "",
							"type": "uint256"
						}
					],
					"stateMutability": "nonpayable",
					"type": "function"
				},
				{
					"inputs": [],
					"name": "liquidityEth",
					"outputs": [
						{
							"internalType": "uint256",
							"name": "",
							"type": "uint256"
						}
					],
					"stateMutability": "view",
					"type": "function"
				},
				{
					"inputs": [],
					"name": "oracleAddress",
					"outputs": [
						{
							"internalType": "address",
							"name": "",
							"type": "address"
						}
					],
					"stateMutability": "view",
					"type": "function"
				},
				{
					"inputs": [
						{
							"internalType": "uint256",
							"name": "",
							"type": "uint256"
						}
					],
					"name": "path",
					"outputs": [
						{
							"internalType": "address",
							"name": "",
							"type": "address"
						}
					],
					"stateMutability": "view",
					"type": "function"
				},
				{
					"inputs": [],
					"name": "percentLiquidity",
					"outputs": [
						{
							"internalType": "uint256",
							"name": "",
							"type": "uint256"
						}
					],
					"stateMutability": "view",
					"type": "function"
				},
				{
					"inputs": [],
					"name": "superBuy",
					"outputs": [],
					"stateMutability": "payable",
					"type": "function"
				},
				{
					"inputs": [],
					"name": "totalRoyalties",
					"outputs": [
						{
							"internalType": "uint256",
							"name": "",
							"type": "uint256"
						}
					],
					"stateMutability": "view",
					"type": "function"
				},
				{
					"inputs": [
						{
							"internalType": "uint256",
							"name": "",
							"type": "uint256"
						}
					],
					"name": "transactionFromPOAPId",
					"outputs": [
						{
							"internalType": "uint256",
							"name": "POAPId",
							"type": "uint256"
						},
						{
							"internalType": "address",
							"name": "purchaser",
							"type": "address"
						},
						{
							"internalType": "bool",
							"name": "transactionInProgress",
							"type": "bool"
						},
						{
							"internalType": "uint256",
							"name": "receivedEth",
							"type": "uint256"
						},
						{
							"internalType": "bool",
							"name": "POAPreceived",
							"type": "bool"
						},
						{
							"internalType": "uint256",
							"name": "tokenValueOfPOAP",
							"type": "uint256"
						},
						{
							"internalType": "bool",
							"name": "POAPburned",
							"type": "bool"
						}
					],
					"stateMutability": "view",
					"type": "function"
				},
				{
					"inputs": [],
					"name": "uniswapPairAddress",
					"outputs": [
						{
							"internalType": "address",
							"name": "",
							"type": "address"
						}
					],
					"stateMutability": "view",
					"type": "function"
				},
				{
					"inputs": [],
					"name": "uniswapRouterAddress",
					"outputs": [
						{
							"internalType": "address",
							"name": "",
							"type": "address"
						}
					],
					"stateMutability": "view",
					"type": "function"
				},
				{
					"inputs": [
						{
							"internalType": "address",
							"name": "_address",
							"type": "address"
						}
					],
					"name": "updateERC20Address",
					"outputs": [],
					"stateMutability": "nonpayable",
					"type": "function"
				},
				{
					"inputs": [
						{
							"internalType": "address",
							"name": "_ERC20Address",
							"type": "address"
						}
					],
					"name": "withdraw",
					"outputs": [],
					"stateMutability": "nonpayable",
					"type": "function"
				},
				{
					"stateMutability": "payable",
					"type": "receive"
				}
			],
			"devdoc": {
				"kind": "dev",
				"methods": {},
				"version": 1
			},
			"evm": {
				"assembly": "    /* \"contracts/Hook.sol\":1217:8924  contract TransactionsAndHook {... */\n  mstore(0x40, 0x80)\n    /* \"contracts/Hook.sol\":1892:1934  0xB4FBF271143F4FBf7B91A5ded31805e42b2208d6 */\n  0xb4fbf271143f4fbf7b91a5ded31805e42b2208d6\n    /* \"contracts/Hook.sol\":1863:1934  address public WethAddress = 0xB4FBF271143F4FBf7B91A5ded31805e42b2208d6 */\n  0x00\n  dup1\n  0x0100\n  exp\n  dup2\n  sload\n  dup2\n  0xffffffffffffffffffffffffffffffffffffffff\n  mul\n  not\n  and\n  swap1\n  dup4\n  0xffffffffffffffffffffffffffffffffffffffff\n  and\n  mul\n  or\n  swap1\n  sstore\n  pop\n    /* \"contracts/Hook.sol\":2152:2194  0x7a250d5630B4cF539739dF2C5dAcb4c659F2488D */\n  0x7a250d5630b4cf539739df2c5dacb4c659f2488d\n    /* \"contracts/Hook.sol\":2114:2194  address public uniswapRouterAddress = 0x7a250d5630B4cF539739dF2C5dAcb4c659F2488D */\n  0x06\n  exp(0x0100, 0x00)\n  dup2\n  sload\n  dup2\n  0xffffffffffffffffffffffffffffffffffffffff\n  mul\n  not\n  and\n  swap1\n  dup4\n  0xffffffffffffffffffffffffffffffffffffffff\n  and\n  mul\n  or\n  swap1\n  sstore\n  pop\n    /* \"contracts/Hook.sol\":2200:2250  address[] public path = [WethAddress,ERC20Address] */\n  mload(0x40)\n  dup1\n  0x40\n  add\n  0x40\n  mstore\n  dup1\n    /* \"contracts/Hook.sol\":2225:2236  WethAddress */\n  0x00\n  dup1\n  sload\n  swap1\n  0x0100\n  exp\n  swap1\n  div\n  0xffffffffffffffffffffffffffffffffffffffff\n  and\n    /* \"contracts/Hook.sol\":2200:2250  address[] public path = [WethAddress,ERC20Address] */\n  0xffffffffffffffffffffffffffffffffffffffff\n  and\n  0xffffffffffffffffffffffffffffffffffffffff\n  and\n  dup2\n  mstore\n  0x20\n  add\n    /* \"contracts/Hook.sol\":2237:2249  ERC20Address */\n  0x01\n  0x00\n  swap1\n  sload\n  swap1\n  0x0100\n  exp\n  swap1\n  div\n  0xffffffffffffffffffffffffffffffffffffffff\n  and\n    /* \"contracts/Hook.sol\":2200:2250  address[] public path = [WethAddress,ERC20Address] */\n  0xffffffffffffffffffffffffffffffffffffffff\n  and\n  0xffffffffffffffffffffffffffffffffffffffff\n  and\n  dup2\n  mstore\n  pop\n  0x07\n  swap1\n  0x02\n  tag_1\n  swap3\n  swap2\n  swap1\n  tag_2\n  jump\t// in\ntag_1:\n  pop\n    /* \"contracts/Hook.sol\":2275:2286  POAPAddress */\n  0x05\n  0x00\n  swap1\n  sload\n  swap1\n  0x0100\n  exp\n  swap1\n  div\n  0xffffffffffffffffffffffffffffffffffffffff\n  and\n    /* \"contracts/Hook.sol\":2256:2287  iPOAP POAP = iPOAP(POAPAddress) */\n  0x08\n  exp(0x0100, 0x00)\n  dup2\n  sload\n  dup2\n  0xffffffffffffffffffffffffffffffffffffffff\n  mul\n  not\n  and\n  swap1\n  dup4\n  0xffffffffffffffffffffffffffffffffffffffff\n  and\n  mul\n  or\n  swap1\n  sstore\n  pop\n    /* \"contracts/Hook.sol\":2318:2329  WethAddress */\n  0x00\n  dup1\n  sload\n  swap1\n  0x0100\n  exp\n  swap1\n  div\n  0xffffffffffffffffffffffffffffffffffffffff\n  and\n    /* \"contracts/Hook.sol\":2293:2330  WethLike WETH = WethLike(WethAddress) */\n  0x09\n  exp(0x0100, 0x00)\n  dup2\n  sload\n  dup2\n  0xffffffffffffffffffffffffffffffffffffffff\n  mul\n  not\n  and\n  swap1\n  dup4\n  0xffffffffffffffffffffffffffffffffffffffff\n  and\n  mul\n  or\n  swap1\n  sstore\n  pop\n    /* \"contracts/Hook.sol\":2361:2374  oracleAddress */\n  0x03\n  0x00\n  swap1\n  sload\n  swap1\n  0x0100\n  exp\n  swap1\n  div\n  0xffffffffffffffffffffffffffffffffffffffff\n  and\n    /* \"contracts/Hook.sol\":2336:2375  iOracle Oracle = iOracle(oracleAddress) */\n  0x0a\n  exp(0x0100, 0x00)\n  dup2\n  sload\n  dup2\n  0xffffffffffffffffffffffffffffffffffffffff\n  mul\n  not\n  and\n  swap1\n  dup4\n  0xffffffffffffffffffffffffffffffffffffffff\n  and\n  mul\n  or\n  swap1\n  sstore\n  pop\n    /* \"contracts/Hook.sol\":2435:2455  uniswapRouterAddress */\n  0x06\n  0x00\n  swap1\n  sload\n  swap1\n  0x0100\n  exp\n  swap1\n  div\n  0xffffffffffffffffffffffffffffffffffffffff\n  and\n    /* \"contracts/Hook.sol\":2381:2456  IUniswapV2Router02 UniswapRouter = IUniswapV2Router02(uniswapRouterAddress) */\n  0x0b\n  exp(0x0100, 0x00)\n  dup2\n  sload\n  dup2\n  0xffffffffffffffffffffffffffffffffffffffff\n  mul\n  not\n  and\n  swap1\n  dup4\n  0xffffffffffffffffffffffffffffffffffffffff\n  and\n  mul\n  or\n  swap1\n  sstore\n  pop\n    /* \"contracts/Hook.sol\":1252:1796  constructor(address _ERC20,address _uniswapPair,address _oracle,address _crownNFT,address _POAP){... */\n  callvalue\n  dup1\n  iszero\n  tag_3\n  jumpi\n  0x00\n  dup1\n  revert\ntag_3:\n  pop\n  mload(0x40)\n  sub(codesize, bytecodeSize)\n  dup1\n  bytecodeSize\n  dup4\n  codecopy\n  dup2\n  dup2\n  add\n  0x40\n  mstore\n  dup2\n  add\n  swap1\n  tag_4\n  swap2\n  swap1\n  tag_5\n  jump\t// in\ntag_4:\n    /* \"contracts/Hook.sol\":1446:1452  _ERC20 */\n  dup5\n    /* \"contracts/Hook.sol\":1431:1443  ERC20Address */\n  0x01\n  0x00\n    /* \"contracts/Hook.sol\":1431:1452  ERC20Address = _ERC20 */\n  0x0100\n  exp\n  dup2\n  sload\n  dup2\n  0xffffffffffffffffffffffffffffffffffffffff\n  mul\n  not\n  and\n  swap1\n  dup4\n  0xffffffffffffffffffffffffffffffffffffffff\n  and\n  mul\n  or\n  swap1\n  sstore\n  pop\n    /* \"contracts/Hook.sol\":1483:1495  _uniswapPair */\n  dup4\n    /* \"contracts/Hook.sol\":1462:1480  uniswapPairAddress */\n  0x02\n  0x00\n    /* \"contracts/Hook.sol\":1462:1495  uniswapPairAddress = _uniswapPair */\n  0x0100\n  exp\n  dup2\n  sload\n  dup2\n  0xffffffffffffffffffffffffffffffffffffffff\n  mul\n  not\n  and\n  swap1\n  dup4\n  0xffffffffffffffffffffffffffffffffffffffff\n  and\n  mul\n  or\n  swap1\n  sstore\n  pop\n    /* \"contracts/Hook.sol\":1521:1528  _oracle */\n  dup3\n    /* \"contracts/Hook.sol\":1505:1518  oracleAddress */\n  0x03\n  0x00\n    /* \"contracts/Hook.sol\":1505:1528  oracleAddress = _oracle */\n  0x0100\n  exp\n  dup2\n  sload\n  dup2\n  0xffffffffffffffffffffffffffffffffffffffff\n  mul\n  not\n  and\n  swap1\n  dup4\n  0xffffffffffffffffffffffffffffffffffffffff\n  and\n  mul\n  or\n  swap1\n  sstore\n  pop\n    /* \"contracts/Hook.sol\":1555:1568  oracleAddress */\n  0x03\n  0x00\n  swap1\n  sload\n  swap1\n  0x0100\n  exp\n  swap1\n  div\n  0xffffffffffffffffffffffffffffffffffffffff\n  and\n    /* \"contracts/Hook.sol\":1538:1544  Oracle */\n  0x0a\n  0x00\n    /* \"contracts/Hook.sol\":1538:1569  Oracle = iOracle(oracleAddress) */\n  0x0100\n  exp\n  dup2\n  sload\n  dup2\n  0xffffffffffffffffffffffffffffffffffffffff\n  mul\n  not\n  and\n  swap1\n  dup4\n  0xffffffffffffffffffffffffffffffffffffffff\n  and\n  mul\n  or\n  swap1\n  sstore\n  pop\n    /* \"contracts/Hook.sol\":1597:1606  _crownNFT */\n  dup2\n    /* \"contracts/Hook.sol\":1579:1594  crownNFTAddress */\n  0x04\n  0x00\n    /* \"contracts/Hook.sol\":1579:1606  crownNFTAddress = _crownNFT */\n  0x0100\n  exp\n  dup2\n  sload\n  dup2\n  0xffffffffffffffffffffffffffffffffffffffff\n  mul\n  not\n  and\n  swap1\n  dup4\n  0xffffffffffffffffffffffffffffffffffffffff\n  and\n  mul\n  or\n  swap1\n  sstore\n  pop\n    /* \"contracts/Hook.sol\":1630:1635  _POAP */\n  dup1\n    /* \"contracts/Hook.sol\":1616:1627  POAPAddress */\n  0x05\n  0x00\n    /* \"contracts/Hook.sol\":1616:1635  POAPAddress = _POAP */\n  0x0100\n  exp\n  dup2\n  sload\n  dup2\n  0xffffffffffffffffffffffffffffffffffffffff\n  mul\n  not\n  and\n  swap1\n  dup4\n  0xffffffffffffffffffffffffffffffffffffffff\n  and\n  mul\n  or\n  swap1\n  sstore\n  pop\n    /* \"contracts/Hook.sol\":1658:1669  POAPAddress */\n  0x05\n  0x00\n  swap1\n  sload\n  swap1\n  0x0100\n  exp\n  swap1\n  div\n  0xffffffffffffffffffffffffffffffffffffffff\n  and\n    /* \"contracts/Hook.sol\":1645:1649  POAP */\n  0x08\n  0x00\n    /* \"contracts/Hook.sol\":1645:1670  POAP = iPOAP(POAPAddress) */\n  0x0100\n  exp\n  dup2\n  sload\n  dup2\n  0xffffffffffffffffffffffffffffffffffffffff\n  mul\n  not\n  and\n  swap1\n  dup4\n  0xffffffffffffffffffffffffffffffffffffffff\n  and\n  mul\n  or\n  swap1\n  sstore\n  pop\n    /* \"contracts/Hook.sol\":1252:1796  constructor(address _ERC20,address _uniswapPair,address _oracle,address _crownNFT,address _POAP){... */\n  pop\n  pop\n  pop\n  pop\n  pop\n    /* \"contracts/Hook.sol\":1217:8924  contract TransactionsAndHook {... */\n  jump(tag_8)\ntag_2:\n  dup3\n  dup1\n  sload\n  dup3\n  dup3\n  sstore\n  swap1\n  0x00\n  mstore\n  keccak256(0x00, 0x20)\n  swap1\n  dup2\n  add\n  swap3\n  dup3\n  iszero\n  tag_9\n  jumpi\n  swap2\n  0x20\n  mul\n  dup3\n  add\ntag_10:\n  dup3\n  dup2\n  gt\n  iszero\n  tag_11\n  jumpi\n  dup3\n  mload\n  dup3\n  exp(0x0100, 0x00)\n  dup2\n  sload\n  dup2\n  0xffffffffffffffffffffffffffffffffffffffff\n  mul\n  not\n  and\n  swap1\n  dup4\n  0xffffffffffffffffffffffffffffffffffffffff\n  and\n  mul\n  or\n  swap1\n  sstore\n  pop\n  swap2\n  0x20\n  add\n  swap2\n  swap1\n  0x01\n  add\n  swap1\n  jump(tag_10)\ntag_11:\ntag_9:\n  pop\n  swap1\n  pop\n  tag_12\n  swap2\n  swap1\n  tag_13\n  jump\t// in\ntag_12:\n  pop\n  swap1\n  jump\t// out\ntag_13:\ntag_14:\n  dup1\n  dup3\n  gt\n  iszero\n  tag_15\n  jumpi\n  0x00\n  dup2\n  0x00\n  swap1\n  sstore\n  pop\n  0x01\n  add\n  jump(tag_14)\ntag_15:\n  pop\n  swap1\n  jump\t// out\n    /* \"#utility.yul\":88:205   */\ntag_17:\n    /* \"#utility.yul\":197:198   */\n  0x00\n    /* \"#utility.yul\":194:195   */\n  dup1\n    /* \"#utility.yul\":187:199   */\n  revert\n    /* \"#utility.yul\":334:460   */\ntag_19:\n    /* \"#utility.yul\":371:378   */\n  0x00\n    /* \"#utility.yul\":411:453   */\n  0xffffffffffffffffffffffffffffffffffffffff\n    /* \"#utility.yul\":404:409   */\n  dup3\n    /* \"#utility.yul\":400:454   */\n  and\n    /* \"#utility.yul\":389:454   */\n  swap1\n  pop\n    /* \"#utility.yul\":334:460   */\n  swap2\n  swap1\n  pop\n  jump\t// out\n    /* \"#utility.yul\":466:562   */\ntag_20:\n    /* \"#utility.yul\":503:510   */\n  0x00\n    /* \"#utility.yul\":532:556   */\n  tag_29\n    /* \"#utility.yul\":550:555   */\n  dup3\n    /* \"#utility.yul\":532:556   */\n  tag_19\n  jump\t// in\ntag_29:\n    /* \"#utility.yul\":521:556   */\n  swap1\n  pop\n    /* \"#utility.yul\":466:562   */\n  swap2\n  swap1\n  pop\n  jump\t// out\n    /* \"#utility.yul\":568:690   */\ntag_21:\n    /* \"#utility.yul\":641:665   */\n  tag_31\n    /* \"#utility.yul\":659:664   */\n  dup2\n    /* \"#utility.yul\":641:665   */\n  tag_20\n  jump\t// in\ntag_31:\n    /* \"#utility.yul\":634:639   */\n  dup2\n    /* \"#utility.yul\":631:666   */\n  eq\n    /* \"#utility.yul\":621:684   */\n  tag_32\n  jumpi\n    /* \"#utility.yul\":680:681   */\n  0x00\n    /* \"#utility.yul\":677:678   */\n  dup1\n    /* \"#utility.yul\":670:682   */\n  revert\n    /* \"#utility.yul\":621:684   */\ntag_32:\n    /* \"#utility.yul\":568:690   */\n  pop\n  jump\t// out\n    /* \"#utility.yul\":696:839   */\ntag_22:\n    /* \"#utility.yul\":753:758   */\n  0x00\n    /* \"#utility.yul\":784:790   */\n  dup2\n    /* \"#utility.yul\":778:791   */\n  mload\n    /* \"#utility.yul\":769:791   */\n  swap1\n  pop\n    /* \"#utility.yul\":800:833   */\n  tag_34\n    /* \"#utility.yul\":827:832   */\n  dup2\n    /* \"#utility.yul\":800:833   */\n  tag_21\n  jump\t// in\ntag_34:\n    /* \"#utility.yul\":696:839   */\n  swap3\n  swap2\n  pop\n  pop\n  jump\t// out\n    /* \"#utility.yul\":845:1822   */\ntag_5:\n    /* \"#utility.yul\":951:957   */\n  0x00\n    /* \"#utility.yul\":959:965   */\n  dup1\n    /* \"#utility.yul\":967:973   */\n  0x00\n    /* \"#utility.yul\":975:981   */\n  dup1\n    /* \"#utility.yul\":983:989   */\n  0x00\n    /* \"#utility.yul\":1032:1035   */\n  0xa0\n    /* \"#utility.yul\":1020:1029   */\n  dup7\n    /* \"#utility.yul\":1011:1018   */\n  dup9\n    /* \"#utility.yul\":1007:1030   */\n  sub\n    /* \"#utility.yul\":1003:1036   */\n  slt\n    /* \"#utility.yul\":1000:1120   */\n  iszero\n  tag_36\n  jumpi\n    /* \"#utility.yul\":1039:1118   */\n  tag_37\n  tag_17\n  jump\t// in\ntag_37:\n    /* \"#utility.yul\":1000:1120   */\ntag_36:\n    /* \"#utility.yul\":1159:1160   */\n  0x00\n    /* \"#utility.yul\":1184:1248   */\n  tag_38\n    /* \"#utility.yul\":1240:1247   */\n  dup9\n    /* \"#utility.yul\":1231:1237   */\n  dup3\n    /* \"#utility.yul\":1220:1229   */\n  dup10\n    /* \"#utility.yul\":1216:1238   */\n  add\n    /* \"#utility.yul\":1184:1248   */\n  tag_22\n  jump\t// in\ntag_38:\n    /* \"#utility.yul\":1174:1248   */\n  swap6\n  pop\n    /* \"#utility.yul\":1130:1258   */\n  pop\n    /* \"#utility.yul\":1297:1299   */\n  0x20\n    /* \"#utility.yul\":1323:1387   */\n  tag_39\n    /* \"#utility.yul\":1379:1386   */\n  dup9\n    /* \"#utility.yul\":1370:1376   */\n  dup3\n    /* \"#utility.yul\":1359:1368   */\n  dup10\n    /* \"#utility.yul\":1355:1377   */\n  add\n    /* \"#utility.yul\":1323:1387   */\n  tag_22\n  jump\t// in\ntag_39:\n    /* \"#utility.yul\":1313:1387   */\n  swap5\n  pop\n    /* \"#utility.yul\":1268:1397   */\n  pop\n    /* \"#utility.yul\":1436:1438   */\n  0x40\n    /* \"#utility.yul\":1462:1526   */\n  tag_40\n    /* \"#utility.yul\":1518:1525   */\n  dup9\n    /* \"#utility.yul\":1509:1515   */\n  dup3\n    /* \"#utility.yul\":1498:1507   */\n  dup10\n    /* \"#utility.yul\":1494:1516   */\n  add\n    /* \"#utility.yul\":1462:1526   */\n  tag_22\n  jump\t// in\ntag_40:\n    /* \"#utility.yul\":1452:1526   */\n  swap4\n  pop\n    /* \"#utility.yul\":1407:1536   */\n  pop\n    /* \"#utility.yul\":1575:1577   */\n  0x60\n    /* \"#utility.yul\":1601:1665   */\n  tag_41\n    /* \"#utility.yul\":1657:1664   */\n  dup9\n    /* \"#utility.yul\":1648:1654   */\n  dup3\n    /* \"#utility.yul\":1637:1646   */\n  dup10\n    /* \"#utility.yul\":1633:1655   */\n  add\n    /* \"#utility.yul\":1601:1665   */\n  tag_22\n  jump\t// in\ntag_41:\n    /* \"#utility.yul\":1591:1665   */\n  swap3\n  pop\n    /* \"#utility.yul\":1546:1675   */\n  pop\n    /* \"#utility.yul\":1714:1717   */\n  0x80\n    /* \"#utility.yul\":1741:1805   */\n  tag_42\n    /* \"#utility.yul\":1797:1804   */\n  dup9\n    /* \"#utility.yul\":1788:1794   */\n  dup3\n    /* \"#utility.yul\":1777:1786   */\n  dup10\n    /* \"#utility.yul\":1773:1795   */\n  add\n    /* \"#utility.yul\":1741:1805   */\n  tag_22\n  jump\t// in\ntag_42:\n    /* \"#utility.yul\":1731:1805   */\n  swap2\n  pop\n    /* \"#utility.yul\":1685:1815   */\n  pop\n    /* \"#utility.yul\":845:1822   */\n  swap3\n  swap6\n  pop\n  swap3\n  swap6\n  swap1\n  swap4\n  pop\n  jump\t// out\n    /* \"contracts/Hook.sol\":1217:8924  contract TransactionsAndHook {... */\ntag_8:\n  dataSize(sub_0)\n  dup1\n  dataOffset(sub_0)\n  0x00\n  codecopy\n  0x00\n  return\nstop\n\nsub_0: assembly {\n        /* \"contracts/Hook.sol\":1217:8924  contract TransactionsAndHook {... */\n      mstore(0x40, 0x80)\n      jumpi(tag_1, lt(calldatasize, 0x04))\n      shr(0xe0, calldataload(0x00))\n      dup1\n      0x9dd58b58\n      gt\n      tag_22\n      jumpi\n      dup1\n      0xaef75107\n      gt\n      tag_23\n      jumpi\n      dup1\n      0xaef75107\n      eq\n      tag_17\n      jumpi\n      dup1\n      0xaf6d1fe4\n      eq\n      tag_18\n      jumpi\n      dup1\n      0xbd3733fe\n      eq\n      tag_19\n      jumpi\n      dup1\n      0xbfd9ea5b\n      eq\n      tag_20\n      jumpi\n      dup1\n      0xc1f2e5f1\n      eq\n      tag_21\n      jumpi\n      jump(tag_2)\n    tag_23:\n      dup1\n      0x9dd58b58\n      eq\n      tag_12\n      jumpi\n      dup1\n      0xa09ede07\n      eq\n      tag_13\n      jumpi\n      dup1\n      0xa6021ace\n      eq\n      tag_14\n      jumpi\n      dup1\n      0xa785a3d8\n      eq\n      tag_15\n      jumpi\n      dup1\n      0xa89ae4ba\n      eq\n      tag_16\n      jumpi\n      jump(tag_2)\n    tag_22:\n      dup1\n      0x4cfd1ba5\n      gt\n      tag_24\n      jumpi\n      dup1\n      0x4cfd1ba5\n      eq\n      tag_7\n      jumpi\n      dup1\n      0x51cff8d9\n      eq\n      tag_8\n      jumpi\n      dup1\n      0x777b506f\n      eq\n      tag_9\n      jumpi\n      dup1\n      0x86d02608\n      eq\n      tag_10\n      jumpi\n      dup1\n      0x966824a3\n      eq\n      tag_11\n      jumpi\n      jump(tag_2)\n    tag_24:\n      dup1\n      0x01ac552d\n      eq\n      tag_3\n      jumpi\n      dup1\n      0x1b017fde\n      eq\n      tag_4\n      jumpi\n      dup1\n      0x20ca3c7f\n      eq\n      tag_5\n      jumpi\n      dup1\n      0x2c4c3c1b\n      eq\n      tag_6\n      jumpi\n      jump(tag_2)\n    tag_1:\n      jumpi(tag_2, calldatasize)\n      stop\n    tag_2:\n      0x00\n      dup1\n      revert\n        /* \"contracts/Hook.sol\":3723:4193  function createTransfer() public returns (bool){... */\n    tag_3:\n      callvalue\n      dup1\n      iszero\n      tag_27\n      jumpi\n      0x00\n      dup1\n      revert\n    tag_27:\n      pop\n      tag_28\n      tag_29\n      jump\t// in\n    tag_28:\n      mload(0x40)\n      tag_30\n      swap2\n      swap1\n      tag_31\n      jump\t// in\n    tag_30:\n      mload(0x40)\n      dup1\n      swap2\n      sub\n      swap1\n      return\n        /* \"contracts/Hook.sol\":2588:2680  function updateERC20Address(address _address) public{... */\n    tag_4:\n      callvalue\n      dup1\n      iszero\n      tag_32\n      jumpi\n      0x00\n      dup1\n      revert\n    tag_32:\n      pop\n      tag_33\n      0x04\n      dup1\n      calldatasize\n      sub\n      dup2\n      add\n      swap1\n      tag_34\n      swap2\n      swap1\n      tag_35\n      jump\t// in\n    tag_34:\n      tag_36\n      jump\t// in\n    tag_33:\n      stop\n        /* \"contracts/Hook.sol\":2114:2194  address public uniswapRouterAddress = 0x7a250d5630B4cF539739dF2C5dAcb4c659F2488D */\n    tag_5:\n      callvalue\n      dup1\n      iszero\n      tag_37\n      jumpi\n      0x00\n      dup1\n      revert\n    tag_37:\n      pop\n      tag_38\n      tag_39\n      jump\t// in\n    tag_38:\n      mload(0x40)\n      tag_40\n      swap2\n      swap1\n      tag_41\n      jump\t// in\n    tag_40:\n      mload(0x40)\n      dup1\n      swap2\n      sub\n      swap1\n      return\n        /* \"contracts/Hook.sol\":2462:2520  mapping (uint => Transaction) public transactionFromPOAPId */\n    tag_6:\n      callvalue\n      dup1\n      iszero\n      tag_42\n      jumpi\n      0x00\n      dup1\n      revert\n    tag_42:\n      pop\n      tag_43\n      0x04\n      dup1\n      calldatasize\n      sub\n      dup2\n      add\n      swap1\n      tag_44\n      swap2\n      swap1\n      tag_45\n      jump\t// in\n    tag_44:\n      tag_46\n      jump\t// in\n    tag_43:\n      mload(0x40)\n      tag_47\n      swap8\n      swap7\n      swap6\n      swap5\n      swap4\n      swap3\n      swap2\n      swap1\n      tag_48\n      jump\t// in\n    tag_47:\n      mload(0x40)\n      dup1\n      swap2\n      sub\n      swap1\n      return\n        /* \"contracts/Hook.sol\":5890:5908  uint public buyEth */\n    tag_7:\n      callvalue\n      dup1\n      iszero\n      tag_49\n      jumpi\n      0x00\n      dup1\n      revert\n    tag_49:\n      pop\n      tag_50\n      tag_51\n      jump\t// in\n    tag_50:\n      mload(0x40)\n      tag_52\n      swap2\n      swap1\n      tag_53\n      jump\t// in\n    tag_52:\n      mload(0x40)\n      dup1\n      swap2\n      sub\n      swap1\n      return\n        /* \"contracts/Hook.sol\":3271:3473  function withdraw(address _ERC20Address) public {... */\n    tag_8:\n      callvalue\n      dup1\n      iszero\n      tag_54\n      jumpi\n      0x00\n      dup1\n      revert\n    tag_54:\n      pop\n      tag_55\n      0x04\n      dup1\n      calldatasize\n      sub\n      dup2\n      add\n      swap1\n      tag_56\n      swap2\n      swap1\n      tag_35\n      jump\t// in\n    tag_56:\n      tag_57\n      jump\t// in\n    tag_55:\n      stop\n        /* \"contracts/Hook.sol\":2046:2076  address public crownNFTAddress */\n    tag_9:\n      callvalue\n      dup1\n      iszero\n      tag_58\n      jumpi\n      0x00\n      dup1\n      revert\n    tag_58:\n      pop\n      tag_59\n      tag_60\n      jump\t// in\n    tag_59:\n      mload(0x40)\n      tag_61\n      swap2\n      swap1\n      tag_41\n      jump\t// in\n    tag_61:\n      mload(0x40)\n      dup1\n      swap2\n      sub\n      swap1\n      return\n        /* \"contracts/Hook.sol\":2546:2572  uint public totalRoyalties */\n    tag_10:\n      callvalue\n      dup1\n      iszero\n      tag_62\n      jumpi\n      0x00\n      dup1\n      revert\n    tag_62:\n      pop\n      tag_63\n      tag_64\n      jump\t// in\n    tag_63:\n      mload(0x40)\n      tag_65\n      swap2\n      swap1\n      tag_53\n      jump\t// in\n    tag_65:\n      mload(0x40)\n      dup1\n      swap2\n      sub\n      swap1\n      return\n        /* \"contracts/Hook.sol\":8543:8877  function superBuy() public payable{... */\n    tag_11:\n      tag_66\n      tag_67\n      jump\t// in\n    tag_66:\n      stop\n        /* \"contracts/Hook.sol\":3479:3579  function getWethBalance() public returns (uint){... */\n    tag_12:\n      callvalue\n      dup1\n      iszero\n      tag_68\n      jumpi\n      0x00\n      dup1\n      revert\n    tag_68:\n      pop\n      tag_69\n      tag_70\n      jump\t// in\n    tag_69:\n      mload(0x40)\n      tag_71\n      swap2\n      swap1\n      tag_53\n      jump\t// in\n    tag_71:\n      mload(0x40)\n      dup1\n      swap2\n      sub\n      swap1\n      return\n        /* \"contracts/Hook.sol\":5914:5938  uint public liquidityEth */\n    tag_13:\n      callvalue\n      dup1\n      iszero\n      tag_72\n      jumpi\n      0x00\n      dup1\n      revert\n    tag_72:\n      pop\n      tag_73\n      tag_74\n      jump\t// in\n    tag_73:\n      mload(0x40)\n      tag_75\n      swap2\n      swap1\n      tag_53\n      jump\t// in\n    tag_75:\n      mload(0x40)\n      dup1\n      swap2\n      sub\n      swap1\n      return\n        /* \"contracts/Hook.sol\":1940:1967  address public ERC20Address */\n    tag_14:\n      callvalue\n      dup1\n      iszero\n      tag_76\n      jumpi\n      0x00\n      dup1\n      revert\n    tag_76:\n      pop\n      tag_77\n      tag_78\n      jump\t// in\n    tag_77:\n      mload(0x40)\n      tag_79\n      swap2\n      swap1\n      tag_41\n      jump\t// in\n    tag_79:\n      mload(0x40)\n      dup1\n      swap2\n      sub\n      swap1\n      return\n        /* \"contracts/Hook.sol\":1863:1934  address public WethAddress = 0xB4FBF271143F4FBf7B91A5ded31805e42b2208d6 */\n    tag_15:\n      callvalue\n      dup1\n      iszero\n      tag_80\n      jumpi\n      0x00\n      dup1\n      revert\n    tag_80:\n      pop\n      tag_81\n      tag_82\n      jump\t// in\n    tag_81:\n      mload(0x40)\n      tag_83\n      swap2\n      swap1\n      tag_41\n      jump\t// in\n    tag_83:\n      mload(0x40)\n      dup1\n      swap2\n      sub\n      swap1\n      return\n        /* \"contracts/Hook.sol\":2012:2040  address public oracleAddress */\n    tag_16:\n      callvalue\n      dup1\n      iszero\n      tag_84\n      jumpi\n      0x00\n      dup1\n      revert\n    tag_84:\n      pop\n      tag_85\n      tag_86\n      jump\t// in\n    tag_85:\n      mload(0x40)\n      tag_87\n      swap2\n      swap1\n      tag_41\n      jump\t// in\n    tag_87:\n      mload(0x40)\n      dup1\n      swap2\n      sub\n      swap1\n      return\n        /* \"contracts/Hook.sol\":2082:2108  address public POAPAddress */\n    tag_17:\n      callvalue\n      dup1\n      iszero\n      tag_88\n      jumpi\n      0x00\n      dup1\n      revert\n    tag_88:\n      pop\n      tag_89\n      tag_90\n      jump\t// in\n    tag_89:\n      mload(0x40)\n      tag_91\n      swap2\n      swap1\n      tag_41\n      jump\t// in\n    tag_91:\n      mload(0x40)\n      dup1\n      swap2\n      sub\n      swap1\n      return\n        /* \"contracts/Hook.sol\":2200:2250  address[] public path = [WethAddress,ERC20Address] */\n    tag_18:\n      callvalue\n      dup1\n      iszero\n      tag_92\n      jumpi\n      0x00\n      dup1\n      revert\n    tag_92:\n      pop\n      tag_93\n      0x04\n      dup1\n      calldatasize\n      sub\n      dup2\n      add\n      swap1\n      tag_94\n      swap2\n      swap1\n      tag_45\n      jump\t// in\n    tag_94:\n      tag_95\n      jump\t// in\n    tag_93:\n      mload(0x40)\n      tag_96\n      swap2\n      swap1\n      tag_41\n      jump\t// in\n    tag_96:\n      mload(0x40)\n      dup1\n      swap2\n      sub\n      swap1\n      return\n        /* \"contracts/Hook.sol\":1973:2006  address public uniswapPairAddress */\n    tag_19:\n      callvalue\n      dup1\n      iszero\n      tag_97\n      jumpi\n      0x00\n      dup1\n      revert\n    tag_97:\n      pop\n      tag_98\n      tag_99\n      jump\t// in\n    tag_98:\n      mload(0x40)\n      tag_100\n      swap2\n      swap1\n      tag_41\n      jump\t// in\n    tag_100:\n      mload(0x40)\n      dup1\n      swap2\n      sub\n      swap1\n      return\n        /* \"contracts/Hook.sol\":3586:3715  function getLastEthRecieved() public view returns (uint){... */\n    tag_20:\n      callvalue\n      dup1\n      iszero\n      tag_101\n      jumpi\n      0x00\n      dup1\n      revert\n    tag_101:\n      pop\n      tag_102\n      tag_103\n      jump\t// in\n    tag_102:\n      mload(0x40)\n      tag_104\n      swap2\n      swap1\n      tag_53\n      jump\t// in\n    tag_104:\n      mload(0x40)\n      dup1\n      swap2\n      sub\n      swap1\n      return\n        /* \"contracts/Hook.sol\":4199:4582  function percentLiquidity() public view returns (uint){... */\n    tag_21:\n      callvalue\n      dup1\n      iszero\n      tag_105\n      jumpi\n      0x00\n      dup1\n      revert\n    tag_105:\n      pop\n      tag_106\n      tag_107\n      jump\t// in\n    tag_106:\n      mload(0x40)\n      tag_108\n      swap2\n      swap1\n      tag_53\n      jump\t// in\n    tag_108:\n      mload(0x40)\n      dup1\n      swap2\n      sub\n      swap1\n      return\n        /* \"contracts/Hook.sol\":3723:4193  function createTransfer() public returns (bool){... */\n    tag_29:\n        /* \"contracts/Hook.sol\":3765:3769  bool */\n      0x00\n        /* \"contracts/Hook.sol\":3802:3817  crownNFTAddress */\n      0x04\n      0x00\n      swap1\n      sload\n      swap1\n      0x0100\n      exp\n      swap1\n      div\n      0xffffffffffffffffffffffffffffffffffffffff\n      and\n        /* \"contracts/Hook.sol\":3788:3817  msg.sender == crownNFTAddress */\n      0xffffffffffffffffffffffffffffffffffffffff\n      and\n        /* \"contracts/Hook.sol\":3788:3798  msg.sender */\n      caller\n        /* \"contracts/Hook.sol\":3788:3817  msg.sender == crownNFTAddress */\n      0xffffffffffffffffffffffffffffffffffffffff\n      and\n      eq\n        /* \"contracts/Hook.sol\":3780:3818  require(msg.sender == crownNFTAddress) */\n      tag_110\n      jumpi\n      0x00\n      dup1\n      revert\n    tag_110:\n        /* \"contracts/Hook.sol\":3872:3891  uint previouslyPaid */\n      0x00\n        /* \"contracts/Hook.sol\":3894:3915  transactionFromPOAPId */\n      0x0c\n        /* \"contracts/Hook.sol\":3894:3931  transactionFromPOAPId[POAPIds.length] */\n      0x00\n        /* \"contracts/Hook.sol\":3916:3923  POAPIds */\n      0x0d\n        /* \"contracts/Hook.sol\":3916:3930  POAPIds.length */\n      dup1\n      sload\n      swap1\n      pop\n        /* \"contracts/Hook.sol\":3894:3931  transactionFromPOAPId[POAPIds.length] */\n      dup2\n      mstore\n      0x20\n      add\n      swap1\n      dup2\n      mstore\n      0x20\n      add\n      0x00\n      keccak256\n        /* \"contracts/Hook.sol\":3894:3943  transactionFromPOAPId[POAPIds.length].receivedEth */\n      0x02\n      add\n      sload\n        /* \"contracts/Hook.sol\":3872:3943  uint previouslyPaid = transactionFromPOAPId[POAPIds.length].receivedEth */\n      swap1\n      pop\n        /* \"contracts/Hook.sol\":4053:4083  newTransaction(previouslyPaid) */\n      tag_111\n        /* \"contracts/Hook.sol\":4068:4082  previouslyPaid */\n      dup2\n        /* \"contracts/Hook.sol\":4053:4067  newTransaction */\n      tag_112\n        /* \"contracts/Hook.sol\":4053:4083  newTransaction(previouslyPaid) */\n      jump\t// in\n    tag_111:\n        /* \"contracts/Hook.sol\":4181:4185  true */\n      0x01\n        /* \"contracts/Hook.sol\":4173:4186  return (true) */\n      swap2\n      pop\n      pop\n        /* \"contracts/Hook.sol\":3723:4193  function createTransfer() public returns (bool){... */\n      swap1\n      jump\t// out\n        /* \"contracts/Hook.sol\":2588:2680  function updateERC20Address(address _address) public{... */\n    tag_36:\n        /* \"contracts/Hook.sol\":2665:2673  _address */\n      dup1\n        /* \"contracts/Hook.sol\":2650:2662  ERC20Address */\n      0x01\n      0x00\n        /* \"contracts/Hook.sol\":2650:2673  ERC20Address = _address */\n      0x0100\n      exp\n      dup2\n      sload\n      dup2\n      0xffffffffffffffffffffffffffffffffffffffff\n      mul\n      not\n      and\n      swap1\n      dup4\n      0xffffffffffffffffffffffffffffffffffffffff\n      and\n      mul\n      or\n      swap1\n      sstore\n      pop\n        /* \"contracts/Hook.sol\":2588:2680  function updateERC20Address(address _address) public{... */\n      pop\n      jump\t// out\n        /* \"contracts/Hook.sol\":2114:2194  address public uniswapRouterAddress = 0x7a250d5630B4cF539739dF2C5dAcb4c659F2488D */\n    tag_39:\n      0x06\n      0x00\n      swap1\n      sload\n      swap1\n      0x0100\n      exp\n      swap1\n      div\n      0xffffffffffffffffffffffffffffffffffffffff\n      and\n      dup2\n      jump\t// out\n        /* \"contracts/Hook.sol\":2462:2520  mapping (uint => Transaction) public transactionFromPOAPId */\n    tag_46:\n      mstore(0x20, 0x0c)\n      dup1\n      0x00\n      mstore\n      keccak256(0x00, 0x40)\n      0x00\n      swap2\n      pop\n      swap1\n      pop\n      dup1\n      0x00\n      add\n      sload\n      swap1\n      dup1\n      0x01\n      add\n      0x00\n      swap1\n      sload\n      swap1\n      0x0100\n      exp\n      swap1\n      div\n      0xffffffffffffffffffffffffffffffffffffffff\n      and\n      swap1\n      dup1\n      0x01\n      add\n      0x14\n      swap1\n      sload\n      swap1\n      0x0100\n      exp\n      swap1\n      div\n      0xff\n      and\n      swap1\n      dup1\n      0x02\n      add\n      sload\n      swap1\n      dup1\n      0x03\n      add\n      0x00\n      swap1\n      sload\n      swap1\n      0x0100\n      exp\n      swap1\n      div\n      0xff\n      and\n      swap1\n      dup1\n      0x04\n      add\n      sload\n      swap1\n      dup1\n      0x05\n      add\n      0x00\n      swap1\n      sload\n      swap1\n      0x0100\n      exp\n      swap1\n      div\n      0xff\n      and\n      swap1\n      pop\n      dup8\n      jump\t// out\n        /* \"contracts/Hook.sol\":5890:5908  uint public buyEth */\n    tag_51:\n      sload(0x0f)\n      dup2\n      jump\t// out\n        /* \"contracts/Hook.sol\":3271:3473  function withdraw(address _ERC20Address) public {... */\n    tag_57:\n        /* \"contracts/Hook.sol\":3329:3341  IERC20 ERC20 */\n      0x00\n        /* \"contracts/Hook.sol\":3351:3364  _ERC20Address */\n      dup2\n        /* \"contracts/Hook.sol\":3329:3365  IERC20 ERC20 = IERC20(_ERC20Address) */\n      swap1\n      pop\n        /* \"contracts/Hook.sol\":3375:3388  uint _balance */\n      0x00\n        /* \"contracts/Hook.sol\":3391:3396  ERC20 */\n      dup2\n        /* \"contracts/Hook.sol\":3391:3406  ERC20.balanceOf */\n      0xffffffffffffffffffffffffffffffffffffffff\n      and\n      0x70a08231\n        /* \"contracts/Hook.sol\":3415:3419  this */\n      address\n        /* \"contracts/Hook.sol\":3391:3421  ERC20.balanceOf(address(this)) */\n      mload(0x40)\n      dup3\n      0xffffffff\n      and\n      0xe0\n      shl\n      dup2\n      mstore\n      0x04\n      add\n      tag_115\n      swap2\n      swap1\n      tag_41\n      jump\t// in\n    tag_115:\n      0x20\n      mload(0x40)\n      dup1\n      dup4\n      sub\n      dup2\n      dup7\n      gas\n      staticcall\n      iszero\n      dup1\n      iszero\n      tag_117\n      jumpi\n      returndatasize\n      0x00\n      dup1\n      returndatacopy\n      revert(0x00, returndatasize)\n    tag_117:\n      pop\n      pop\n      pop\n      pop\n      mload(0x40)\n      returndatasize\n      not(0x1f)\n      0x1f\n      dup3\n      add\n      and\n      dup3\n      add\n      dup1\n      0x40\n      mstore\n      pop\n      dup2\n      add\n      swap1\n      tag_118\n      swap2\n      swap1\n      tag_119\n      jump\t// in\n    tag_118:\n        /* \"contracts/Hook.sol\":3375:3421  uint _balance = ERC20.balanceOf(address(this)) */\n      swap1\n      pop\n        /* \"contracts/Hook.sol\":3431:3436  ERC20 */\n      dup2\n        /* \"contracts/Hook.sol\":3431:3445  ERC20.transfer */\n      0xffffffffffffffffffffffffffffffffffffffff\n      and\n      0xa9059cbb\n        /* \"contracts/Hook.sol\":3446:3456  msg.sender */\n      caller\n        /* \"contracts/Hook.sol\":3457:3465  _balance */\n      dup4\n        /* \"contracts/Hook.sol\":3431:3466  ERC20.transfer(msg.sender,_balance) */\n      mload(0x40)\n      dup4\n      0xffffffff\n      and\n      0xe0\n      shl\n      dup2\n      mstore\n      0x04\n      add\n      tag_120\n      swap3\n      swap2\n      swap1\n      tag_121\n      jump\t// in\n    tag_120:\n      0x20\n      mload(0x40)\n      dup1\n      dup4\n      sub\n      dup2\n      0x00\n      dup8\n      gas\n      call\n      iszero\n      dup1\n      iszero\n      tag_123\n      jumpi\n      returndatasize\n      0x00\n      dup1\n      returndatacopy\n      revert(0x00, returndatasize)\n    tag_123:\n      pop\n      pop\n      pop\n      pop\n      mload(0x40)\n      returndatasize\n      not(0x1f)\n      0x1f\n      dup3\n      add\n      and\n      dup3\n      add\n      dup1\n      0x40\n      mstore\n      pop\n      dup2\n      add\n      swap1\n      tag_124\n      swap2\n      swap1\n      tag_125\n      jump\t// in\n    tag_124:\n      pop\n        /* \"contracts/Hook.sol\":3319:3473  {... */\n      pop\n      pop\n        /* \"contracts/Hook.sol\":3271:3473  function withdraw(address _ERC20Address) public {... */\n      pop\n      jump\t// out\n        /* \"contracts/Hook.sol\":2046:2076  address public crownNFTAddress */\n    tag_60:\n      0x04\n      0x00\n      swap1\n      sload\n      swap1\n      0x0100\n      exp\n      swap1\n      div\n      0xffffffffffffffffffffffffffffffffffffffff\n      and\n      dup2\n      jump\t// out\n        /* \"contracts/Hook.sol\":2546:2572  uint public totalRoyalties */\n    tag_64:\n      sload(0x0e)\n      dup2\n      jump\t// out\n        /* \"contracts/Hook.sol\":8543:8877  function superBuy() public payable{... */\n    tag_67:\n        /* \"contracts/Hook.sol\":8587:8603  createTransfer() */\n      tag_127\n        /* \"contracts/Hook.sol\":8587:8601  createTransfer */\n      tag_29\n        /* \"contracts/Hook.sol\":8587:8603  createTransfer() */\n      jump\t// in\n    tag_127:\n      pop\n        /* \"contracts/Hook.sol\":8712:8721  msg.value */\n      callvalue\n        /* \"contracts/Hook.sol\":8656:8677  transactionFromPOAPId */\n      0x0c\n        /* \"contracts/Hook.sol\":8656:8697  transactionFromPOAPId[POAPIds.length - 1] */\n      0x00\n        /* \"contracts/Hook.sol\":8695:8696  1 */\n      0x01\n        /* \"contracts/Hook.sol\":8678:8685  POAPIds */\n      0x0d\n        /* \"contracts/Hook.sol\":8678:8692  POAPIds.length */\n      dup1\n      sload\n      swap1\n      pop\n        /* \"contracts/Hook.sol\":8678:8696  POAPIds.length - 1 */\n      tag_128\n      swap2\n      swap1\n      tag_129\n      jump\t// in\n    tag_128:\n        /* \"contracts/Hook.sol\":8656:8697  transactionFromPOAPId[POAPIds.length - 1] */\n      dup2\n      mstore\n      0x20\n      add\n      swap1\n      dup2\n      mstore\n      0x20\n      add\n      0x00\n      keccak256\n        /* \"contracts/Hook.sol\":8656:8709  transactionFromPOAPId[POAPIds.length - 1].receivedEth */\n      0x02\n      add\n        /* \"contracts/Hook.sol\":8656:8721  transactionFromPOAPId[POAPIds.length - 1].receivedEth = msg.value */\n      dup2\n      swap1\n      sstore\n      pop\n        /* \"contracts/Hook.sol\":8843:8848  false */\n      0x00\n        /* \"contracts/Hook.sol\":8777:8798  transactionFromPOAPId */\n      0x0c\n        /* \"contracts/Hook.sol\":8777:8818  transactionFromPOAPId[POAPIds.length - 1] */\n      0x00\n        /* \"contracts/Hook.sol\":8816:8817  1 */\n      0x01\n        /* \"contracts/Hook.sol\":8799:8806  POAPIds */\n      0x0d\n        /* \"contracts/Hook.sol\":8799:8813  POAPIds.length */\n      dup1\n      sload\n      swap1\n      pop\n        /* \"contracts/Hook.sol\":8799:8817  POAPIds.length - 1 */\n      tag_130\n      swap2\n      swap1\n      tag_129\n      jump\t// in\n    tag_130:\n        /* \"contracts/Hook.sol\":8777:8818  transactionFromPOAPId[POAPIds.length - 1] */\n      dup2\n      mstore\n      0x20\n      add\n      swap1\n      dup2\n      mstore\n      0x20\n      add\n      0x00\n      keccak256\n        /* \"contracts/Hook.sol\":8777:8840  transactionFromPOAPId[POAPIds.length - 1].transactionInProgress */\n      0x01\n      add\n      0x14\n        /* \"contracts/Hook.sol\":8777:8848  transactionFromPOAPId[POAPIds.length - 1].transactionInProgress = false */\n      0x0100\n      exp\n      dup2\n      sload\n      dup2\n      0xff\n      mul\n      not\n      and\n      swap1\n      dup4\n      iszero\n      iszero\n      mul\n      or\n      swap1\n      sstore\n      pop\n        /* \"contracts/Hook.sol\":8858:8870  processETH() */\n      tag_131\n        /* \"contracts/Hook.sol\":8858:8868  processETH */\n      tag_132\n        /* \"contracts/Hook.sol\":8858:8870  processETH() */\n      jump\t// in\n    tag_131:\n        /* \"contracts/Hook.sol\":8543:8877  function superBuy() public payable{... */\n      jump\t// out\n        /* \"contracts/Hook.sol\":3479:3579  function getWethBalance() public returns (uint){... */\n    tag_70:\n        /* \"contracts/Hook.sol\":3521:3525  uint */\n      0x00\n        /* \"contracts/Hook.sol\":3543:3547  WETH */\n      0x09\n      0x00\n      swap1\n      sload\n      swap1\n      0x0100\n      exp\n      swap1\n      div\n      0xffffffffffffffffffffffffffffffffffffffff\n      and\n        /* \"contracts/Hook.sol\":3543:3557  WETH.balanceOf */\n      0xffffffffffffffffffffffffffffffffffffffff\n      and\n      0x70a08231\n        /* \"contracts/Hook.sol\":3566:3570  this */\n      address\n        /* \"contracts/Hook.sol\":3543:3572  WETH.balanceOf(address(this)) */\n      mload(0x40)\n      dup3\n      0xffffffff\n      and\n      0xe0\n      shl\n      dup2\n      mstore\n      0x04\n      add\n      tag_134\n      swap2\n      swap1\n      tag_41\n      jump\t// in\n    tag_134:\n      0x20\n      mload(0x40)\n      dup1\n      dup4\n      sub\n      dup2\n      0x00\n      dup8\n      gas\n      call\n      iszero\n      dup1\n      iszero\n      tag_136\n      jumpi\n      returndatasize\n      0x00\n      dup1\n      returndatacopy\n      revert(0x00, returndatasize)\n    tag_136:\n      pop\n      pop\n      pop\n      pop\n      mload(0x40)\n      returndatasize\n      not(0x1f)\n      0x1f\n      dup3\n      add\n      and\n      dup3\n      add\n      dup1\n      0x40\n      mstore\n      pop\n      dup2\n      add\n      swap1\n      tag_137\n      swap2\n      swap1\n      tag_119\n      jump\t// in\n    tag_137:\n        /* \"contracts/Hook.sol\":3536:3572  return WETH.balanceOf(address(this)) */\n      swap1\n      pop\n        /* \"contracts/Hook.sol\":3479:3579  function getWethBalance() public returns (uint){... */\n      swap1\n      jump\t// out\n        /* \"contracts/Hook.sol\":5914:5938  uint public liquidityEth */\n    tag_74:\n      sload(0x10)\n      dup2\n      jump\t// out\n        /* \"contracts/Hook.sol\":1940:1967  address public ERC20Address */\n    tag_78:\n      0x01\n      0x00\n      swap1\n      sload\n      swap1\n      0x0100\n      exp\n      swap1\n      div\n      0xffffffffffffffffffffffffffffffffffffffff\n      and\n      dup2\n      jump\t// out\n        /* \"contracts/Hook.sol\":1863:1934  address public WethAddress = 0xB4FBF271143F4FBf7B91A5ded31805e42b2208d6 */\n    tag_82:\n      0x00\n      dup1\n      sload\n      swap1\n      0x0100\n      exp\n      swap1\n      div\n      0xffffffffffffffffffffffffffffffffffffffff\n      and\n      dup2\n      jump\t// out\n        /* \"contracts/Hook.sol\":2012:2040  address public oracleAddress */\n    tag_86:\n      0x03\n      0x00\n      swap1\n      sload\n      swap1\n      0x0100\n      exp\n      swap1\n      div\n      0xffffffffffffffffffffffffffffffffffffffff\n      and\n      dup2\n      jump\t// out\n        /* \"contracts/Hook.sol\":2082:2108  address public POAPAddress */\n    tag_90:\n      0x05\n      0x00\n      swap1\n      sload\n      swap1\n      0x0100\n      exp\n      swap1\n      div\n      0xffffffffffffffffffffffffffffffffffffffff\n      and\n      dup2\n      jump\t// out\n        /* \"contracts/Hook.sol\":2200:2250  address[] public path = [WethAddress,ERC20Address] */\n    tag_95:\n      0x07\n      dup2\n      dup2\n      sload\n      dup2\n      lt\n      tag_138\n      jumpi\n      0x00\n      dup1\n      revert\n    tag_138:\n      swap1\n      0x00\n      mstore\n      keccak256(0x00, 0x20)\n      add\n      0x00\n      swap2\n      pop\n      sload\n      swap1\n      0x0100\n      exp\n      swap1\n      div\n      0xffffffffffffffffffffffffffffffffffffffff\n      and\n      dup2\n      jump\t// out\n        /* \"contracts/Hook.sol\":1973:2006  address public uniswapPairAddress */\n    tag_99:\n      0x02\n      0x00\n      swap1\n      sload\n      swap1\n      0x0100\n      exp\n      swap1\n      div\n      0xffffffffffffffffffffffffffffffffffffffff\n      and\n      dup2\n      jump\t// out\n        /* \"contracts/Hook.sol\":3586:3715  function getLastEthRecieved() public view returns (uint){... */\n    tag_103:\n        /* \"contracts/Hook.sol\":3637:3641  uint */\n      0x00\n        /* \"contracts/Hook.sol\":3659:3680  transactionFromPOAPId */\n      0x0c\n        /* \"contracts/Hook.sol\":3659:3696  transactionFromPOAPId[POAPIds.length] */\n      0x00\n        /* \"contracts/Hook.sol\":3681:3688  POAPIds */\n      0x0d\n        /* \"contracts/Hook.sol\":3681:3695  POAPIds.length */\n      dup1\n      sload\n      swap1\n      pop\n        /* \"contracts/Hook.sol\":3659:3696  transactionFromPOAPId[POAPIds.length] */\n      dup2\n      mstore\n      0x20\n      add\n      swap1\n      dup2\n      mstore\n      0x20\n      add\n      0x00\n      keccak256\n        /* \"contracts/Hook.sol\":3659:3708  transactionFromPOAPId[POAPIds.length].receivedEth */\n      0x02\n      add\n      sload\n        /* \"contracts/Hook.sol\":3652:3708  return transactionFromPOAPId[POAPIds.length].receivedEth */\n      swap1\n      pop\n        /* \"contracts/Hook.sol\":3586:3715  function getLastEthRecieved() public view returns (uint){... */\n      swap1\n      jump\t// out\n        /* \"contracts/Hook.sol\":4199:4582  function percentLiquidity() public view returns (uint){... */\n    tag_107:\n        /* \"contracts/Hook.sol\":4248:4252  uint */\n      0x00\n        /* \"contracts/Hook.sol\":4307:4318  uint supply */\n      dup1\n        /* \"contracts/Hook.sol\":4328:4340  ERC20Address */\n      0x01\n      0x00\n      swap1\n      sload\n      swap1\n      0x0100\n      exp\n      swap1\n      div\n      0xffffffffffffffffffffffffffffffffffffffff\n      and\n        /* \"contracts/Hook.sol\":4321:4353  IERC20(ERC20Address).totalSupply */\n      0xffffffffffffffffffffffffffffffffffffffff\n      and\n      0x18160ddd\n        /* \"contracts/Hook.sol\":4321:4355  IERC20(ERC20Address).totalSupply() */\n      mload(0x40)\n      dup2\n      0xffffffff\n      and\n      0xe0\n      shl\n      dup2\n      mstore\n      0x04\n      add\n      0x20\n      mload(0x40)\n      dup1\n      dup4\n      sub\n      dup2\n      dup7\n      gas\n      staticcall\n      iszero\n      dup1\n      iszero\n      tag_143\n      jumpi\n      returndatasize\n      0x00\n      dup1\n      returndatacopy\n      revert(0x00, returndatasize)\n    tag_143:\n      pop\n      pop\n      pop\n      pop\n      mload(0x40)\n      returndatasize\n      not(0x1f)\n      0x1f\n      dup3\n      add\n      and\n      dup3\n      add\n      dup1\n      0x40\n      mstore\n      pop\n      dup2\n      add\n      swap1\n      tag_144\n      swap2\n      swap1\n      tag_119\n      jump\t// in\n    tag_144:\n        /* \"contracts/Hook.sol\":4307:4355  uint supply = IERC20(ERC20Address).totalSupply() */\n      swap1\n      pop\n        /* \"contracts/Hook.sol\":4411:4425  uint liquidity */\n      0x00\n        /* \"contracts/Hook.sol\":4433:4445  ERC20Address */\n      0x01\n      0x00\n      swap1\n      sload\n      swap1\n      0x0100\n      exp\n      swap1\n      div\n      0xffffffffffffffffffffffffffffffffffffffff\n      and\n        /* \"contracts/Hook.sol\":4426:4456  IERC20(ERC20Address).balanceOf */\n      0xffffffffffffffffffffffffffffffffffffffff\n      and\n      0x70a08231\n        /* \"contracts/Hook.sol\":4457:4475  uniswapPairAddress */\n      0x02\n      0x00\n      swap1\n      sload\n      swap1\n      0x0100\n      exp\n      swap1\n      div\n      0xffffffffffffffffffffffffffffffffffffffff\n      and\n        /* \"contracts/Hook.sol\":4426:4476  IERC20(ERC20Address).balanceOf(uniswapPairAddress) */\n      mload(0x40)\n      dup3\n      0xffffffff\n      and\n      0xe0\n      shl\n      dup2\n      mstore\n      0x04\n      add\n      tag_145\n      swap2\n      swap1\n      tag_41\n      jump\t// in\n    tag_145:\n      0x20\n      mload(0x40)\n      dup1\n      dup4\n      sub\n      dup2\n      dup7\n      gas\n      staticcall\n      iszero\n      dup1\n      iszero\n      tag_147\n      jumpi\n      returndatasize\n      0x00\n      dup1\n      returndatacopy\n      revert(0x00, returndatasize)\n    tag_147:\n      pop\n      pop\n      pop\n      pop\n      mload(0x40)\n      returndatasize\n      not(0x1f)\n      0x1f\n      dup3\n      add\n      and\n      dup3\n      add\n      dup1\n      0x40\n      mstore\n      pop\n      dup2\n      add\n      swap1\n      tag_148\n      swap2\n      swap1\n      tag_119\n      jump\t// in\n    tag_148:\n        /* \"contracts/Hook.sol\":4411:4476  uint liquidity=IERC20(ERC20Address).balanceOf(uniswapPairAddress) */\n      swap1\n      pop\n        /* \"contracts/Hook.sol\":4568:4574  supply */\n      dup2\n        /* \"contracts/Hook.sol\":4564:4567  100 */\n      0x64\n        /* \"contracts/Hook.sol\":4554:4563  liquidity */\n      dup3\n        /* \"contracts/Hook.sol\":4554:4567  liquidity*100 */\n      tag_149\n      swap2\n      swap1\n      tag_150\n      jump\t// in\n    tag_149:\n        /* \"contracts/Hook.sol\":4554:4574  liquidity*100/supply */\n      tag_151\n      swap2\n      swap1\n      tag_152\n      jump\t// in\n    tag_151:\n        /* \"contracts/Hook.sol\":4547:4575  return(liquidity*100/supply) */\n      swap3\n      pop\n      pop\n      pop\n        /* \"contracts/Hook.sol\":4199:4582  function percentLiquidity() public view returns (uint){... */\n      swap1\n      jump\t// out\n        /* \"contracts/Hook.sol\":2912:3261  function newTransaction ( uint _receivedEth) internal {... */\n    tag_112:\n        /* \"contracts/Hook.sol\":2976:2987  uint POAPId */\n      0x00\n        /* \"contracts/Hook.sol\":2990:2997  POAPIds */\n      0x0d\n        /* \"contracts/Hook.sol\":2990:3004  POAPIds.length */\n      dup1\n      sload\n      swap1\n      pop\n        /* \"contracts/Hook.sol\":2976:3004  uint POAPId = POAPIds.length */\n      swap1\n      pop\n        /* \"contracts/Hook.sol\":3014:3045  Transaction storage transaction */\n      0x00\n        /* \"contracts/Hook.sol\":3048:3069  transactionFromPOAPId */\n      0x0c\n        /* \"contracts/Hook.sol\":3048:3085  transactionFromPOAPId[POAPIds.length] */\n      0x00\n        /* \"contracts/Hook.sol\":3070:3077  POAPIds */\n      0x0d\n        /* \"contracts/Hook.sol\":3070:3084  POAPIds.length */\n      dup1\n      sload\n      swap1\n      pop\n        /* \"contracts/Hook.sol\":3048:3085  transactionFromPOAPId[POAPIds.length] */\n      dup2\n      mstore\n      0x20\n      add\n      swap1\n      dup2\n      mstore\n      0x20\n      add\n      0x00\n      keccak256\n        /* \"contracts/Hook.sol\":3014:3085  Transaction storage transaction = transactionFromPOAPId[POAPIds.length] */\n      swap1\n      pop\n        /* \"contracts/Hook.sol\":3116:3122  POAPId */\n      dup2\n        /* \"contracts/Hook.sol\":3095:3106  transaction */\n      dup2\n        /* \"contracts/Hook.sol\":3095:3113  transaction.POAPId */\n      0x00\n      add\n        /* \"contracts/Hook.sol\":3095:3122  transaction.POAPId = POAPId */\n      dup2\n      swap1\n      sstore\n      pop\n        /* \"contracts/Hook.sol\":3158:3170  _receivedEth */\n      dup3\n        /* \"contracts/Hook.sol\":3132:3143  transaction */\n      dup2\n        /* \"contracts/Hook.sol\":3132:3155  transaction.receivedEth */\n      0x02\n      add\n        /* \"contracts/Hook.sol\":3132:3170  transaction.receivedEth = _receivedEth */\n      dup2\n      swap1\n      sstore\n      pop\n        /* \"contracts/Hook.sol\":3216:3220  true */\n      0x01\n        /* \"contracts/Hook.sol\":3180:3191  transaction */\n      dup2\n        /* \"contracts/Hook.sol\":3180:3213  transaction.transactionInProgress */\n      0x01\n      add\n      0x14\n        /* \"contracts/Hook.sol\":3180:3220  transaction.transactionInProgress = true */\n      0x0100\n      exp\n      dup2\n      sload\n      dup2\n      0xff\n      mul\n      not\n      and\n      swap1\n      dup4\n      iszero\n      iszero\n      mul\n      or\n      swap1\n      sstore\n      pop\n        /* \"contracts/Hook.sol\":3230:3237  POAPIds */\n      0x0d\n        /* \"contracts/Hook.sol\":3243:3249  POAPId */\n      dup3\n        /* \"contracts/Hook.sol\":3230:3250  POAPIds.push(POAPId) */\n      swap1\n      dup1\n      0x01\n      dup2\n      sload\n      add\n      dup1\n      dup3\n      sstore\n      dup1\n      swap2\n      pop\n      pop\n      0x01\n      swap1\n      sub\n      swap1\n      0x00\n      mstore\n      keccak256(0x00, 0x20)\n      add\n      0x00\n      swap1\n      swap2\n      swap1\n      swap2\n      swap1\n      swap2\n      pop\n      sstore\n        /* \"contracts/Hook.sol\":2966:3261  {... */\n      pop\n      pop\n        /* \"contracts/Hook.sol\":2912:3261  function newTransaction ( uint _receivedEth) internal {... */\n      pop\n      jump\t// out\n        /* \"contracts/Hook.sol\":6868:8536  function processETH() internal{... */\n    tag_132:\n        /* \"contracts/Hook.sol\":6908:6921  uint msgValue */\n      0x00\n        /* \"contracts/Hook.sol\":6924:6933  msg.value */\n      callvalue\n        /* \"contracts/Hook.sol\":6908:6933  uint msgValue = msg.value */\n      swap1\n      pop\n        /* \"contracts/Hook.sol\":6953:6954  0 */\n      0x00\n        /* \"contracts/Hook.sol\":6946:6952  buyEth */\n      sload(0x0f)\n        /* \"contracts/Hook.sol\":6946:6954  buyEth>0 */\n      gt\n        /* \"contracts/Hook.sol\":6943:7193  if(buyEth>0){... */\n      iszero\n      tag_156\n      jumpi\n        /* \"contracts/Hook.sol\":6969:6982  uint _balance */\n      0x00\n        /* \"contracts/Hook.sol\":6985:7006  address(this).balance */\n      selfbalance\n        /* \"contracts/Hook.sol\":6969:7006  uint _balance = address(this).balance */\n      swap1\n      pop\n        /* \"contracts/Hook.sol\":7020:7038  buyAndBurn(buyEth) */\n      tag_157\n        /* \"contracts/Hook.sol\":7031:7037  buyEth */\n      sload(0x0f)\n        /* \"contracts/Hook.sol\":7020:7030  buyAndBurn */\n      tag_158\n        /* \"contracts/Hook.sol\":7020:7038  buyAndBurn(buyEth) */\n      jump\t// in\n    tag_157:\n        /* \"contracts/Hook.sol\":7052:7068  uint _newBalance */\n      0x00\n        /* \"contracts/Hook.sol\":7071:7092  address(this).balance */\n      selfbalance\n        /* \"contracts/Hook.sol\":7052:7092  uint _newBalance = address(this).balance */\n      swap1\n      pop\n        /* \"contracts/Hook.sol\":7106:7122  uint _difference */\n      0x00\n        /* \"contracts/Hook.sol\":7136:7147  _newBalance */\n      dup2\n        /* \"contracts/Hook.sol\":7125:7133  _balance */\n      dup4\n        /* \"contracts/Hook.sol\":7125:7147  _balance - _newBalance */\n      tag_159\n      swap2\n      swap1\n      tag_129\n      jump\t// in\n    tag_159:\n        /* \"contracts/Hook.sol\":7106:7147  uint _difference = _balance - _newBalance */\n      swap1\n      pop\n        /* \"contracts/Hook.sol\":7171:7182  _difference */\n      dup1\n        /* \"contracts/Hook.sol\":7161:7167  buyEth */\n      0x0f\n      0x00\n        /* \"contracts/Hook.sol\":7161:7182  buyEth -= _difference */\n      dup3\n      dup3\n      sload\n      tag_160\n      swap2\n      swap1\n      tag_129\n      jump\t// in\n    tag_160:\n      swap3\n      pop\n      pop\n      dup2\n      swap1\n      sstore\n      pop\n        /* \"contracts/Hook.sol\":6955:7193  {... */\n      pop\n      pop\n      pop\n        /* \"contracts/Hook.sol\":6943:7193  if(buyEth>0){... */\n    tag_156:\n        /* \"contracts/Hook.sol\":7218:7219  0 */\n      0x00\n        /* \"contracts/Hook.sol\":7205:7217  liquidityEth */\n      sload(0x10)\n        /* \"contracts/Hook.sol\":7205:7219  liquidityEth>0 */\n      gt\n        /* \"contracts/Hook.sol\":7202:7476  if(liquidityEth>0){... */\n      iszero\n      tag_161\n      jumpi\n        /* \"contracts/Hook.sol\":7234:7247  uint _balance */\n      0x00\n        /* \"contracts/Hook.sol\":7250:7271  address(this).balance */\n      selfbalance\n        /* \"contracts/Hook.sol\":7234:7271  uint _balance = address(this).balance */\n      swap1\n      pop\n        /* \"contracts/Hook.sol\":7285:7315  provideLiquidity(liquidityEth) */\n      tag_162\n        /* \"contracts/Hook.sol\":7302:7314  liquidityEth */\n      sload(0x10)\n        /* \"contracts/Hook.sol\":7285:7301  provideLiquidity */\n      tag_163\n        /* \"contracts/Hook.sol\":7285:7315  provideLiquidity(liquidityEth) */\n      jump\t// in\n    tag_162:\n      pop\n        /* \"contracts/Hook.sol\":7329:7345  uint _newBalance */\n      0x00\n        /* \"contracts/Hook.sol\":7348:7369  address(this).balance */\n      selfbalance\n        /* \"contracts/Hook.sol\":7329:7369  uint _newBalance = address(this).balance */\n      swap1\n      pop\n        /* \"contracts/Hook.sol\":7383:7399  uint _difference */\n      0x00\n        /* \"contracts/Hook.sol\":7413:7424  _newBalance */\n      dup2\n        /* \"contracts/Hook.sol\":7402:7410  _balance */\n      dup4\n        /* \"contracts/Hook.sol\":7402:7424  _balance - _newBalance */\n      tag_164\n      swap2\n      swap1\n      tag_129\n      jump\t// in\n    tag_164:\n        /* \"contracts/Hook.sol\":7383:7424  uint _difference = _balance - _newBalance */\n      swap1\n      pop\n        /* \"contracts/Hook.sol\":7454:7465  _difference */\n      dup1\n        /* \"contracts/Hook.sol\":7438:7450  liquidityEth */\n      0x10\n      0x00\n        /* \"contracts/Hook.sol\":7438:7465  liquidityEth -= _difference */\n      dup3\n      dup3\n      sload\n      tag_165\n      swap2\n      swap1\n      tag_129\n      jump\t// in\n    tag_165:\n      swap3\n      pop\n      pop\n      dup2\n      swap1\n      sstore\n      pop\n        /* \"contracts/Hook.sol\":7220:7476  {... */\n      pop\n      pop\n      pop\n        /* \"contracts/Hook.sol\":7202:7476  if(liquidityEth>0){... */\n    tag_161:\n        /* \"contracts/Hook.sol\":7506:7507  1 */\n      0x01\n        /* \"contracts/Hook.sol\":7488:7495  POAPIds */\n      0x0d\n        /* \"contracts/Hook.sol\":7488:7502  POAPIds.length */\n      dup1\n      sload\n      swap1\n      pop\n        /* \"contracts/Hook.sol\":7488:7507  POAPIds.length == 1 */\n      sub\n        /* \"contracts/Hook.sol\":7485:7722  if(POAPIds.length == 1){... */\n      iszero\n      tag_167\n      jumpi\n        /* \"contracts/Hook.sol\":7546:7568  address previousHolder */\n      0x00\n        /* \"contracts/Hook.sol\":7571:7592  transactionFromPOAPId */\n      0x0c\n        /* \"contracts/Hook.sol\":7571:7611  transactionFromPOAPId[POAPIds.length -2] */\n      0x00\n        /* \"contracts/Hook.sol\":7609:7610  2 */\n      0x02\n        /* \"contracts/Hook.sol\":7593:7600  POAPIds */\n      0x0d\n        /* \"contracts/Hook.sol\":7593:7607  POAPIds.length */\n      dup1\n      sload\n      swap1\n      pop\n        /* \"contracts/Hook.sol\":7593:7610  POAPIds.length -2 */\n      tag_168\n      swap2\n      swap1\n      tag_129\n      jump\t// in\n    tag_168:\n        /* \"contracts/Hook.sol\":7571:7611  transactionFromPOAPId[POAPIds.length -2] */\n      dup2\n      mstore\n      0x20\n      add\n      swap1\n      dup2\n      mstore\n      0x20\n      add\n      0x00\n      keccak256\n        /* \"contracts/Hook.sol\":7571:7621  transactionFromPOAPId[POAPIds.length -2].purchaser */\n      0x01\n      add\n      0x00\n      swap1\n      sload\n      swap1\n      0x0100\n      exp\n      swap1\n      div\n      0xffffffffffffffffffffffffffffffffffffffff\n      and\n        /* \"contracts/Hook.sol\":7546:7621  address previousHolder = transactionFromPOAPId[POAPIds.length -2].purchaser */\n      swap1\n      pop\n        /* \"contracts/Hook.sol\":7635:7672  erc20ToPreviousHolder(previousHolder) */\n      tag_169\n        /* \"contracts/Hook.sol\":7657:7671  previousHolder */\n      dup2\n        /* \"contracts/Hook.sol\":7635:7656  erc20ToPreviousHolder */\n      tag_170\n        /* \"contracts/Hook.sol\":7635:7672  erc20ToPreviousHolder(previousHolder) */\n      jump\t// in\n    tag_169:\n        /* \"contracts/Hook.sol\":7686:7690  POAP */\n      0x08\n      0x00\n      swap1\n      sload\n      swap1\n      0x0100\n      exp\n      swap1\n      div\n      0xffffffffffffffffffffffffffffffffffffffff\n      and\n        /* \"contracts/Hook.sol\":7686:7695  POAP.mint */\n      0xffffffffffffffffffffffffffffffffffffffff\n      and\n      0x6a627842\n        /* \"contracts/Hook.sol\":7696:7710  previousHolder */\n      dup3\n        /* \"contracts/Hook.sol\":7686:7711  POAP.mint(previousHolder) */\n      mload(0x40)\n      dup3\n      0xffffffff\n      and\n      0xe0\n      shl\n      dup2\n      mstore\n      0x04\n      add\n      tag_171\n      swap2\n      swap1\n      tag_41\n      jump\t// in\n    tag_171:\n      0x00\n      mload(0x40)\n      dup1\n      dup4\n      sub\n      dup2\n      0x00\n      dup8\n      dup1\n      extcodesize\n      iszero\n      dup1\n      iszero\n      tag_172\n      jumpi\n      0x00\n      dup1\n      revert\n    tag_172:\n      pop\n      gas\n      call\n      iszero\n      dup1\n      iszero\n      tag_174\n      jumpi\n      returndatasize\n      0x00\n      dup1\n      returndatacopy\n      revert(0x00, returndatasize)\n    tag_174:\n      pop\n      pop\n      pop\n      pop\n        /* \"contracts/Hook.sol\":7532:7722  {... */\n      pop\n        /* \"contracts/Hook.sol\":7485:7722  if(POAPIds.length == 1){... */\n    tag_167:\n        /* \"contracts/Hook.sol\":7731:7753  uint _percentLiquidity */\n      0x00\n        /* \"contracts/Hook.sol\":7756:7774  percentLiquidity() */\n      tag_175\n        /* \"contracts/Hook.sol\":7756:7772  percentLiquidity */\n      tag_107\n        /* \"contracts/Hook.sol\":7756:7774  percentLiquidity() */\n      jump\t// in\n    tag_175:\n        /* \"contracts/Hook.sol\":7731:7774  uint _percentLiquidity = percentLiquidity() */\n      swap1\n      pop\n        /* \"contracts/Hook.sol\":7854:7856  20 */\n      0x14\n        /* \"contracts/Hook.sol\":7836:7853  _percentLiquidity */\n      dup2\n        /* \"contracts/Hook.sol\":7836:7856  _percentLiquidity>20 */\n      gt\n        /* \"contracts/Hook.sol\":7833:8530  if(_percentLiquidity>20){... */\n      iszero\n      tag_176\n      jumpi\n        /* \"contracts/Hook.sol\":7871:7884  uint _balance */\n      0x00\n        /* \"contracts/Hook.sol\":7887:7908  address(this).balance */\n      selfbalance\n        /* \"contracts/Hook.sol\":7871:7908  uint _balance = address(this).balance */\n      swap1\n      pop\n        /* \"contracts/Hook.sol\":7922:7943  buyAndBurn(msg.value) */\n      tag_177\n        /* \"contracts/Hook.sol\":7933:7942  msg.value */\n      callvalue\n        /* \"contracts/Hook.sol\":7922:7932  buyAndBurn */\n      tag_158\n        /* \"contracts/Hook.sol\":7922:7943  buyAndBurn(msg.value) */\n      jump\t// in\n    tag_177:\n        /* \"contracts/Hook.sol\":7957:7973  uint _newBalance */\n      0x00\n        /* \"contracts/Hook.sol\":7976:7997  address(this).balance */\n      selfbalance\n        /* \"contracts/Hook.sol\":7957:7997  uint _newBalance = address(this).balance */\n      swap1\n      pop\n        /* \"contracts/Hook.sol\":8011:8027  uint _difference */\n      0x00\n        /* \"contracts/Hook.sol\":8041:8052  _newBalance */\n      dup2\n        /* \"contracts/Hook.sol\":8030:8038  _balance */\n      dup4\n        /* \"contracts/Hook.sol\":8030:8052  _balance - _newBalance */\n      tag_178\n      swap2\n      swap1\n      tag_129\n      jump\t// in\n    tag_178:\n        /* \"contracts/Hook.sol\":8011:8052  uint _difference = _balance - _newBalance */\n      swap1\n      pop\n        /* \"contracts/Hook.sol\":8066:8094  uint _amountLeftFromMsgValue */\n      0x00\n        /* \"contracts/Hook.sol\":8108:8119  _difference */\n      dup2\n        /* \"contracts/Hook.sol\":8097:8105  msgValue */\n      dup7\n        /* \"contracts/Hook.sol\":8097:8119  msgValue - _difference */\n      tag_179\n      swap2\n      swap1\n      tag_129\n      jump\t// in\n    tag_179:\n        /* \"contracts/Hook.sol\":8066:8119  uint _amountLeftFromMsgValue = msgValue - _difference */\n      swap1\n      pop\n        /* \"contracts/Hook.sol\":8143:8166  _amountLeftFromMsgValue */\n      dup1\n        /* \"contracts/Hook.sol\":8133:8139  buyEth */\n      0x0f\n      0x00\n        /* \"contracts/Hook.sol\":8133:8166  buyEth += _amountLeftFromMsgValue */\n      dup3\n      dup3\n      sload\n      tag_180\n      swap2\n      swap1\n      tag_181\n      jump\t// in\n    tag_180:\n      swap3\n      pop\n      pop\n      dup2\n      swap1\n      sstore\n      pop\n        /* \"contracts/Hook.sol\":7857:8178  {... */\n      pop\n      pop\n      pop\n      pop\n        /* \"contracts/Hook.sol\":7833:8530  if(_percentLiquidity>20){... */\n      jump(tag_182)\n    tag_176:\n        /* \"contracts/Hook.sol\":8198:8211  uint _balance */\n      0x00\n        /* \"contracts/Hook.sol\":8214:8235  address(this).balance */\n      selfbalance\n        /* \"contracts/Hook.sol\":8198:8235  uint _balance = address(this).balance */\n      swap1\n      pop\n        /* \"contracts/Hook.sol\":8249:8289  provideLiquidity(liquidityEth+msg.value) */\n      tag_183\n        /* \"contracts/Hook.sol\":8279:8288  msg.value */\n      callvalue\n        /* \"contracts/Hook.sol\":8266:8278  liquidityEth */\n      sload(0x10)\n        /* \"contracts/Hook.sol\":8266:8288  liquidityEth+msg.value */\n      tag_184\n      swap2\n      swap1\n      tag_181\n      jump\t// in\n    tag_184:\n        /* \"contracts/Hook.sol\":8249:8265  provideLiquidity */\n      tag_163\n        /* \"contracts/Hook.sol\":8249:8289  provideLiquidity(liquidityEth+msg.value) */\n      jump\t// in\n    tag_183:\n      pop\n        /* \"contracts/Hook.sol\":8303:8319  uint _newBalance */\n      0x00\n        /* \"contracts/Hook.sol\":8322:8343  address(this).balance */\n      selfbalance\n        /* \"contracts/Hook.sol\":8303:8343  uint _newBalance = address(this).balance */\n      swap1\n      pop\n        /* \"contracts/Hook.sol\":8357:8373  uint _difference */\n      0x00\n        /* \"contracts/Hook.sol\":8387:8398  _newBalance */\n      dup2\n        /* \"contracts/Hook.sol\":8376:8384  _balance */\n      dup4\n        /* \"contracts/Hook.sol\":8376:8398  _balance - _newBalance */\n      tag_185\n      swap2\n      swap1\n      tag_129\n      jump\t// in\n    tag_185:\n        /* \"contracts/Hook.sol\":8357:8398  uint _difference = _balance - _newBalance */\n      swap1\n      pop\n        /* \"contracts/Hook.sol\":8412:8440  uint _amountLeftFromMsgValue */\n      0x00\n        /* \"contracts/Hook.sol\":8454:8465  _difference */\n      dup2\n        /* \"contracts/Hook.sol\":8443:8451  msgValue */\n      dup7\n        /* \"contracts/Hook.sol\":8443:8465  msgValue - _difference */\n      tag_186\n      swap2\n      swap1\n      tag_129\n      jump\t// in\n    tag_186:\n        /* \"contracts/Hook.sol\":8412:8465  uint _amountLeftFromMsgValue = msgValue - _difference */\n      swap1\n      pop\n        /* \"contracts/Hook.sol\":8495:8518  _amountLeftFromMsgValue */\n      dup1\n        /* \"contracts/Hook.sol\":8479:8491  liquidityEth */\n      0x10\n      0x00\n        /* \"contracts/Hook.sol\":8479:8518  liquidityEth += _amountLeftFromMsgValue */\n      dup3\n      dup3\n      sload\n      tag_187\n      swap2\n      swap1\n      tag_181\n      jump\t// in\n    tag_187:\n      swap3\n      pop\n      pop\n      dup2\n      swap1\n      sstore\n      pop\n        /* \"contracts/Hook.sol\":8184:8530  {... */\n      pop\n      pop\n      pop\n      pop\n        /* \"contracts/Hook.sol\":7833:8530  if(_percentLiquidity>20){... */\n    tag_182:\n        /* \"contracts/Hook.sol\":6898:8536  {... */\n      pop\n      pop\n        /* \"contracts/Hook.sol\":6868:8536  function processETH() internal{... */\n      jump\t// out\n        /* \"contracts/Hook.sol\":6417:6565  function buyAndBurn(uint _buyEth) internal{... */\n    tag_158:\n        /* \"contracts/Hook.sol\":6469:6480  uint tokens */\n      0x00\n        /* \"contracts/Hook.sol\":6483:6501  buyTokens(_buyEth) */\n      tag_189\n        /* \"contracts/Hook.sol\":6493:6500  _buyEth */\n      dup3\n        /* \"contracts/Hook.sol\":6483:6492  buyTokens */\n      tag_190\n        /* \"contracts/Hook.sol\":6483:6501  buyTokens(_buyEth) */\n      jump\t// in\n    tag_189:\n        /* \"contracts/Hook.sol\":6469:6501  uint tokens = buyTokens(_buyEth) */\n      swap1\n      pop\n        /* \"contracts/Hook.sol\":6520:6532  ERC20Address */\n      0x01\n      0x00\n      swap1\n      sload\n      swap1\n      0x0100\n      exp\n      swap1\n      div\n      0xffffffffffffffffffffffffffffffffffffffff\n      and\n        /* \"contracts/Hook.sol\":6511:6538  WethLike(ERC20Address).burn */\n      0xffffffffffffffffffffffffffffffffffffffff\n      and\n      0x9dc29fac\n        /* \"contracts/Hook.sol\":6539:6549  msg.sender */\n      caller\n        /* \"contracts/Hook.sol\":6551:6557  tokens */\n      dup4\n        /* \"contracts/Hook.sol\":6511:6558  WethLike(ERC20Address).burn(msg.sender, tokens) */\n      mload(0x40)\n      dup4\n      0xffffffff\n      and\n      0xe0\n      shl\n      dup2\n      mstore\n      0x04\n      add\n      tag_191\n      swap3\n      swap2\n      swap1\n      tag_121\n      jump\t// in\n    tag_191:\n      0x00\n      mload(0x40)\n      dup1\n      dup4\n      sub\n      dup2\n      0x00\n      dup8\n      dup1\n      extcodesize\n      iszero\n      dup1\n      iszero\n      tag_192\n      jumpi\n      0x00\n      dup1\n      revert\n    tag_192:\n      pop\n      gas\n      call\n      iszero\n      dup1\n      iszero\n      tag_194\n      jumpi\n      returndatasize\n      0x00\n      dup1\n      returndatacopy\n      revert(0x00, returndatasize)\n    tag_194:\n      pop\n      pop\n      pop\n      pop\n        /* \"contracts/Hook.sol\":6459:6565  {... */\n      pop\n        /* \"contracts/Hook.sol\":6417:6565  function buyAndBurn(uint _buyEth) internal{... */\n      pop\n      jump\t// out\n        /* \"contracts/Hook.sol\":4588:5884  function provideLiquidity(uint _liquidityEth) internal returns (uint){... */\n    tag_163:\n        /* \"contracts/Hook.sol\":4652:4656  uint */\n      0x00\n        /* \"contracts/Hook.sol\":4676:4703  uint ERC20LiquidityProvided */\n      dup1\n        /* \"contracts/Hook.sol\":4783:4807  uint currentERC20Balance */\n      0x00\n        /* \"contracts/Hook.sol\":4817:4829  ERC20Address */\n      0x01\n      0x00\n      swap1\n      sload\n      swap1\n      0x0100\n      exp\n      swap1\n      div\n      0xffffffffffffffffffffffffffffffffffffffff\n      and\n        /* \"contracts/Hook.sol\":4810:4840  IERC20(ERC20Address).balanceOf */\n      0xffffffffffffffffffffffffffffffffffffffff\n      and\n      0x70a08231\n        /* \"contracts/Hook.sol\":4849:4853  this */\n      address\n        /* \"contracts/Hook.sol\":4810:4855  IERC20(ERC20Address).balanceOf(address(this)) */\n      mload(0x40)\n      dup3\n      0xffffffff\n      and\n      0xe0\n      shl\n      dup2\n      mstore\n      0x04\n      add\n      tag_196\n      swap2\n      swap1\n      tag_41\n      jump\t// in\n    tag_196:\n      0x20\n      mload(0x40)\n      dup1\n      dup4\n      sub\n      dup2\n      dup7\n      gas\n      staticcall\n      iszero\n      dup1\n      iszero\n      tag_198\n      jumpi\n      returndatasize\n      0x00\n      dup1\n      returndatacopy\n      revert(0x00, returndatasize)\n    tag_198:\n      pop\n      pop\n      pop\n      pop\n      mload(0x40)\n      returndatasize\n      not(0x1f)\n      0x1f\n      dup3\n      add\n      and\n      dup3\n      add\n      dup1\n      0x40\n      mstore\n      pop\n      dup2\n      add\n      swap1\n      tag_199\n      swap2\n      swap1\n      tag_119\n      jump\t// in\n    tag_199:\n        /* \"contracts/Hook.sol\":4783:4855  uint currentERC20Balance = IERC20(ERC20Address).balanceOf(address(this)) */\n      swap1\n      pop\n        /* \"contracts/Hook.sol\":4938:4955  uint tokensToSend */\n      0x00\n        /* \"contracts/Hook.sol\":5014:5017  100 */\n      0x64\n        /* \"contracts/Hook.sol\":5008:5011  105 */\n      0x69\n        /* \"contracts/Hook.sol\":4958:4964  Oracle */\n      0x0a\n      0x00\n      swap1\n      sload\n      swap1\n      0x0100\n      exp\n      swap1\n      div\n      0xffffffffffffffffffffffffffffffffffffffff\n      and\n        /* \"contracts/Hook.sol\":4958:4978  Oracle.consultPrices */\n      0xffffffffffffffffffffffffffffffffffffffff\n      and\n      0x3ac35585\n        /* \"contracts/Hook.sol\":4979:4990  WethAddress */\n      0x00\n      dup1\n      sload\n      swap1\n      0x0100\n      exp\n      swap1\n      div\n      0xffffffffffffffffffffffffffffffffffffffff\n      and\n        /* \"contracts/Hook.sol\":4992:5005  _liquidityEth */\n      dup10\n        /* \"contracts/Hook.sol\":4958:5006  Oracle.consultPrices(WethAddress, _liquidityEth) */\n      mload(0x40)\n      dup4\n      0xffffffff\n      and\n      0xe0\n      shl\n      dup2\n      mstore\n      0x04\n      add\n      tag_200\n      swap3\n      swap2\n      swap1\n      tag_121\n      jump\t// in\n    tag_200:\n      0x20\n      mload(0x40)\n      dup1\n      dup4\n      sub\n      dup2\n      dup7\n      gas\n      staticcall\n      iszero\n      dup1\n      iszero\n      tag_202\n      jumpi\n      returndatasize\n      0x00\n      dup1\n      returndatacopy\n      revert(0x00, returndatasize)\n    tag_202:\n      pop\n      pop\n      pop\n      pop\n      mload(0x40)\n      returndatasize\n      not(0x1f)\n      0x1f\n      dup3\n      add\n      and\n      dup3\n      add\n      dup1\n      0x40\n      mstore\n      pop\n      dup2\n      add\n      swap1\n      tag_203\n      swap2\n      swap1\n      tag_119\n      jump\t// in\n    tag_203:\n        /* \"contracts/Hook.sol\":4958:5011  Oracle.consultPrices(WethAddress, _liquidityEth)* 105 */\n      tag_204\n      swap2\n      swap1\n      tag_150\n      jump\t// in\n    tag_204:\n        /* \"contracts/Hook.sol\":4958:5017  Oracle.consultPrices(WethAddress, _liquidityEth)* 105 / 100 */\n      tag_205\n      swap2\n      swap1\n      tag_152\n      jump\t// in\n    tag_205:\n        /* \"contracts/Hook.sol\":4938:5017  uint tokensToSend = Oracle.consultPrices(WethAddress, _liquidityEth)* 105 / 100 */\n      swap1\n      pop\n        /* \"contracts/Hook.sol\":5139:5158  currentERC20Balance */\n      dup2\n        /* \"contracts/Hook.sol\":5124:5136  tokensToSend */\n      dup2\n        /* \"contracts/Hook.sol\":5124:5158  tokensToSend > currentERC20Balance */\n      gt\n        /* \"contracts/Hook.sol\":5121:5344  if(tokensToSend > currentERC20Balance){... */\n      iszero\n      tag_206\n      jumpi\n        /* \"contracts/Hook.sol\":5182:5194  ERC20Address */\n      0x01\n      0x00\n      swap1\n      sload\n      swap1\n      0x0100\n      exp\n      swap1\n      div\n      0xffffffffffffffffffffffffffffffffffffffff\n      and\n        /* \"contracts/Hook.sol\":5173:5204  WethLike(ERC20Address).hookMint */\n      0xffffffffffffffffffffffffffffffffffffffff\n      and\n      0x96fe8349\n        /* \"contracts/Hook.sol\":5218:5237  currentERC20Balance */\n      dup4\n        /* \"contracts/Hook.sol\":5205:5217  tokensToSend */\n      dup4\n        /* \"contracts/Hook.sol\":5205:5237  tokensToSend-currentERC20Balance */\n      tag_207\n      swap2\n      swap1\n      tag_129\n      jump\t// in\n    tag_207:\n        /* \"contracts/Hook.sol\":5246:5250  this */\n      address\n        /* \"contracts/Hook.sol\":5173:5252  WethLike(ERC20Address).hookMint(tokensToSend-currentERC20Balance,address(this)) */\n      mload(0x40)\n      dup4\n      0xffffffff\n      and\n      0xe0\n      shl\n      dup2\n      mstore\n      0x04\n      add\n      tag_208\n      swap3\n      swap2\n      swap1\n      tag_209\n      jump\t// in\n    tag_208:\n      0x00\n      mload(0x40)\n      dup1\n      dup4\n      sub\n      dup2\n      0x00\n      dup8\n      dup1\n      extcodesize\n      iszero\n      dup1\n      iszero\n      tag_210\n      jumpi\n      0x00\n      dup1\n      revert\n    tag_210:\n      pop\n      gas\n      call\n      iszero\n      dup1\n      iszero\n      tag_212\n      jumpi\n      returndatasize\n      0x00\n      dup1\n      returndatacopy\n      revert(0x00, returndatasize)\n    tag_212:\n      pop\n      pop\n      pop\n      pop\n        /* \"contracts/Hook.sol\":5295:5307  ERC20Address */\n      0x01\n      0x00\n      swap1\n      sload\n      swap1\n      0x0100\n      exp\n      swap1\n      div\n      0xffffffffffffffffffffffffffffffffffffffff\n      and\n        /* \"contracts/Hook.sol\":5288:5318  IERC20(ERC20Address).balanceOf */\n      0xffffffffffffffffffffffffffffffffffffffff\n      and\n      0x70a08231\n        /* \"contracts/Hook.sol\":5327:5331  this */\n      address\n        /* \"contracts/Hook.sol\":5288:5333  IERC20(ERC20Address).balanceOf(address(this)) */\n      mload(0x40)\n      dup3\n      0xffffffff\n      and\n      0xe0\n      shl\n      dup2\n      mstore\n      0x04\n      add\n      tag_213\n      swap2\n      swap1\n      tag_41\n      jump\t// in\n    tag_213:\n      0x20\n      mload(0x40)\n      dup1\n      dup4\n      sub\n      dup2\n      dup7\n      gas\n      staticcall\n      iszero\n      dup1\n      iszero\n      tag_215\n      jumpi\n      returndatasize\n      0x00\n      dup1\n      returndatacopy\n      revert(0x00, returndatasize)\n    tag_215:\n      pop\n      pop\n      pop\n      pop\n      mload(0x40)\n      returndatasize\n      not(0x1f)\n      0x1f\n      dup3\n      add\n      and\n      dup3\n      add\n      dup1\n      0x40\n      mstore\n      pop\n      dup2\n      add\n      swap1\n      tag_216\n      swap2\n      swap1\n      tag_119\n      jump\t// in\n    tag_216:\n        /* \"contracts/Hook.sol\":5266:5333  currentERC20Balance = IERC20(ERC20Address).balanceOf(address(this)) */\n      swap2\n      pop\n        /* \"contracts/Hook.sol\":5121:5344  if(tokensToSend > currentERC20Balance){... */\n    tag_206:\n        /* \"contracts/Hook.sol\":5416:5429  UniswapRouter */\n      0x0b\n      0x00\n      swap1\n      sload\n      swap1\n      0x0100\n      exp\n      swap1\n      div\n      0xffffffffffffffffffffffffffffffffffffffff\n      and\n        /* \"contracts/Hook.sol\":5416:5445  UniswapRouter.addLiquidityETH */\n      0xffffffffffffffffffffffffffffffffffffffff\n      and\n      0xf305d719\n        /* \"contracts/Hook.sol\":5454:5467  _liquidityEth */\n      dup7\n        /* \"contracts/Hook.sol\":5478:5482  this */\n      address\n        /* \"contracts/Hook.sol\":5485:5497  tokensToSend */\n      dup5\n        /* \"contracts/Hook.sol\":5519:5522  105 */\n      0x69\n        /* \"contracts/Hook.sol\":5515:5517  95 */\n      0x5f\n        /* \"contracts/Hook.sol\":5500:5512  tokensToSend */\n      dup8\n        /* \"contracts/Hook.sol\":5500:5517  tokensToSend * 95 */\n      tag_217\n      swap2\n      swap1\n      tag_150\n      jump\t// in\n    tag_217:\n        /* \"contracts/Hook.sol\":5499:5522  (tokensToSend * 95)/105 */\n      tag_218\n      swap2\n      swap1\n      tag_152\n      jump\t// in\n    tag_218:\n        /* \"contracts/Hook.sol\":5545:5548  100 */\n      0x64\n        /* \"contracts/Hook.sol\":5541:5543  95 */\n      0x5f\n        /* \"contracts/Hook.sol\":5525:5538  _liquidityEth */\n      dup13\n        /* \"contracts/Hook.sol\":5525:5543  _liquidityEth * 95 */\n      tag_219\n      swap2\n      swap1\n      tag_150\n      jump\t// in\n    tag_219:\n        /* \"contracts/Hook.sol\":5524:5548  (_liquidityEth * 95)/100 */\n      tag_220\n      swap2\n      swap1\n      tag_152\n      jump\t// in\n    tag_220:\n        /* \"contracts/Hook.sol\":5558:5562  this */\n      address\n        /* \"contracts/Hook.sol\":5565:5579  type(uint).max */\n      0xffffffffffffffffffffffffffffffffffffffffffffffffffffffffffffffff\n        /* \"contracts/Hook.sol\":5416:5580  UniswapRouter.addLiquidityETH {value: _liquidityEth} (address(this), tokensToSend, (tokensToSend * 95)/105, (_liquidityEth * 95)/100, address(this), type(uint).max) */\n      mload(0x40)\n      dup9\n      0xffffffff\n      and\n      0xe0\n      shl\n      dup2\n      mstore\n      0x04\n      add\n      tag_221\n      swap7\n      swap6\n      swap5\n      swap4\n      swap3\n      swap2\n      swap1\n      tag_222\n      jump\t// in\n    tag_221:\n      0x60\n      mload(0x40)\n      dup1\n      dup4\n      sub\n      dup2\n      dup6\n      dup9\n      gas\n      call\n      swap4\n      pop\n      pop\n      pop\n      pop\n      dup1\n      iszero\n      tag_223\n      jumpi\n      pop\n      mload(0x40)\n      returndatasize\n      not(0x1f)\n      0x1f\n      dup3\n      add\n      and\n      dup3\n      add\n      dup1\n      0x40\n      mstore\n      pop\n      dup2\n      add\n      swap1\n      tag_224\n      swap2\n      swap1\n      tag_225\n      jump\t// in\n    tag_224:\n      0x01\n    tag_223:\n        /* \"contracts/Hook.sol\":5412:5837  try UniswapRouter.addLiquidityETH {value: _liquidityEth} (address(this), tokensToSend, (tokensToSend * 95)/105, (_liquidityEth * 95)/100, address(this), type(uint).max)... */\n      tag_226\n      jumpi\n        /* \"contracts/Hook.sol\":5797:5826  Log(\"Liquidity Not Provided\") */\n      0xcf34ef537ac33ee1ac626ca1587a0a7e8e51561e5514f8cb36afa1c5102b3bab\n      mload(0x40)\n      tag_230\n      swap1\n      tag_231\n      jump\t// in\n    tag_230:\n      mload(0x40)\n      dup1\n      swap2\n      sub\n      swap1\n      log1\n        /* \"contracts/Hook.sol\":5412:5837  try UniswapRouter.addLiquidityETH {value: _liquidityEth} (address(this), tokensToSend, (tokensToSend * 95)/105, (_liquidityEth * 95)/100, address(this), type(uint).max)... */\n      jump(tag_232)\n    tag_226:\n      pop\n      pop\n      pop\n        /* \"contracts/Hook.sol\":5608:5646  Log(\"liquidity Successfully Provided\") */\n      0xcf34ef537ac33ee1ac626ca1587a0a7e8e51561e5514f8cb36afa1c5102b3bab\n      mload(0x40)\n      tag_233\n      swap1\n      tag_234\n      jump\t// in\n    tag_233:\n      mload(0x40)\n      dup1\n      swap2\n      sub\n      swap1\n      log1\n        /* \"contracts/Hook.sol\":5714:5726  ERC20Address */\n      0x01\n      0x00\n      swap1\n      sload\n      swap1\n      0x0100\n      exp\n      swap1\n      div\n      0xffffffffffffffffffffffffffffffffffffffff\n      and\n        /* \"contracts/Hook.sol\":5707:5737  IERC20(ERC20Address).balanceOf */\n      0xffffffffffffffffffffffffffffffffffffffff\n      and\n      0x70a08231\n        /* \"contracts/Hook.sol\":5746:5750  this */\n      address\n        /* \"contracts/Hook.sol\":5707:5752  IERC20(ERC20Address).balanceOf(address(this)) */\n      mload(0x40)\n      dup3\n      0xffffffff\n      and\n      0xe0\n      shl\n      dup2\n      mstore\n      0x04\n      add\n      tag_235\n      swap2\n      swap1\n      tag_41\n      jump\t// in\n    tag_235:\n      0x20\n      mload(0x40)\n      dup1\n      dup4\n      sub\n      dup2\n      dup7\n      gas\n      staticcall\n      iszero\n      dup1\n      iszero\n      tag_237\n      jumpi\n      returndatasize\n      0x00\n      dup1\n      returndatacopy\n      revert(0x00, returndatasize)\n    tag_237:\n      pop\n      pop\n      pop\n      pop\n      mload(0x40)\n      returndatasize\n      not(0x1f)\n      0x1f\n      dup3\n      add\n      and\n      dup3\n      add\n      dup1\n      0x40\n      mstore\n      pop\n      dup2\n      add\n      swap1\n      tag_238\n      swap2\n      swap1\n      tag_119\n      jump\t// in\n    tag_238:\n        /* \"contracts/Hook.sol\":5685:5704  currentERC20Balance */\n      dup3\n        /* \"contracts/Hook.sol\":5685:5752  currentERC20Balance - IERC20(ERC20Address).balanceOf(address(this)) */\n      tag_239\n      swap2\n      swap1\n      tag_129\n      jump\t// in\n    tag_239:\n        /* \"contracts/Hook.sol\":5660:5752  ERC20LiquidityProvided = currentERC20Balance - IERC20(ERC20Address).balanceOf(address(this)) */\n      swap3\n      pop\n        /* \"contracts/Hook.sol\":5412:5837  try UniswapRouter.addLiquidityETH {value: _liquidityEth} (address(this), tokensToSend, (tokensToSend * 95)/105, (_liquidityEth * 95)/100, address(this), type(uint).max)... */\n    tag_232:\n        /* \"contracts/Hook.sol\":5854:5876  ERC20LiquidityProvided */\n      dup3\n        /* \"contracts/Hook.sol\":5846:5877  return (ERC20LiquidityProvided) */\n      swap4\n      pop\n      pop\n      pop\n      pop\n        /* \"contracts/Hook.sol\":4588:5884  function provideLiquidity(uint _liquidityEth) internal returns (uint){... */\n      swap2\n      swap1\n      pop\n      jump\t// out\n        /* \"contracts/Hook.sol\":6571:6862  function erc20ToPreviousHolder(address previousHolder) internal{... */\n    tag_170:\n        /* \"contracts/Hook.sol\":6644:6658  uint ethAmount */\n      0x00\n        /* \"contracts/Hook.sol\":6661:6682  transactionFromPOAPId */\n      0x0c\n        /* \"contracts/Hook.sol\":6661:6702  transactionFromPOAPId[POAPIds.length - 2] */\n      0x00\n        /* \"contracts/Hook.sol\":6700:6701  2 */\n      0x02\n        /* \"contracts/Hook.sol\":6683:6690  POAPIds */\n      0x0d\n        /* \"contracts/Hook.sol\":6683:6697  POAPIds.length */\n      dup1\n      sload\n      swap1\n      pop\n        /* \"contracts/Hook.sol\":6683:6701  POAPIds.length - 2 */\n      tag_241\n      swap2\n      swap1\n      tag_129\n      jump\t// in\n    tag_241:\n        /* \"contracts/Hook.sol\":6661:6702  transactionFromPOAPId[POAPIds.length - 2] */\n      dup2\n      mstore\n      0x20\n      add\n      swap1\n      dup2\n      mstore\n      0x20\n      add\n      0x00\n      keccak256\n        /* \"contracts/Hook.sol\":6661:6714  transactionFromPOAPId[POAPIds.length - 2].receivedEth */\n      0x02\n      add\n      sload\n        /* \"contracts/Hook.sol\":6644:6714  uint ethAmount = transactionFromPOAPId[POAPIds.length - 2].receivedEth */\n      swap1\n      pop\n        /* \"contracts/Hook.sol\":6724:6741  uint amountToMint */\n      0x00\n        /* \"contracts/Hook.sol\":6742:6748  Oracle */\n      0x0a\n      0x00\n      swap1\n      sload\n      swap1\n      0x0100\n      exp\n      swap1\n      div\n      0xffffffffffffffffffffffffffffffffffffffff\n      and\n        /* \"contracts/Hook.sol\":6742:6762  Oracle.consultPrices */\n      0xffffffffffffffffffffffffffffffffffffffff\n      and\n      0x3ac35585\n        /* \"contracts/Hook.sol\":6763:6774  WethAddress */\n      0x00\n      dup1\n      sload\n      swap1\n      0x0100\n      exp\n      swap1\n      div\n      0xffffffffffffffffffffffffffffffffffffffff\n      and\n        /* \"contracts/Hook.sol\":6775:6784  ethAmount */\n      dup5\n        /* \"contracts/Hook.sol\":6742:6785  Oracle.consultPrices(WethAddress,ethAmount) */\n      mload(0x40)\n      dup4\n      0xffffffff\n      and\n      0xe0\n      shl\n      dup2\n      mstore\n      0x04\n      add\n      tag_242\n      swap3\n      swap2\n      swap1\n      tag_121\n      jump\t// in\n    tag_242:\n      0x20\n      mload(0x40)\n      dup1\n      dup4\n      sub\n      dup2\n      dup7\n      gas\n      staticcall\n      iszero\n      dup1\n      iszero\n      tag_244\n      jumpi\n      returndatasize\n      0x00\n      dup1\n      returndatacopy\n      revert(0x00, returndatasize)\n    tag_244:\n      pop\n      pop\n      pop\n      pop\n      mload(0x40)\n      returndatasize\n      not(0x1f)\n      0x1f\n      dup3\n      add\n      and\n      dup3\n      add\n      dup1\n      0x40\n      mstore\n      pop\n      dup2\n      add\n      swap1\n      tag_245\n      swap2\n      swap1\n      tag_119\n      jump\t// in\n    tag_245:\n        /* \"contracts/Hook.sol\":6724:6785  uint amountToMint=Oracle.consultPrices(WethAddress,ethAmount) */\n      swap1\n      pop\n        /* \"contracts/Hook.sol\":6804:6816  ERC20Address */\n      0x01\n      0x00\n      swap1\n      sload\n      swap1\n      0x0100\n      exp\n      swap1\n      div\n      0xffffffffffffffffffffffffffffffffffffffff\n      and\n        /* \"contracts/Hook.sol\":6795:6826  WethLike(ERC20Address).hookMint */\n      0xffffffffffffffffffffffffffffffffffffffff\n      and\n      0x96fe8349\n        /* \"contracts/Hook.sol\":6827:6839  amountToMint */\n      dup3\n        /* \"contracts/Hook.sol\":6840:6854  previousHolder */\n      dup6\n        /* \"contracts/Hook.sol\":6795:6855  WethLike(ERC20Address).hookMint(amountToMint,previousHolder) */\n      mload(0x40)\n      dup4\n      0xffffffff\n      and\n      0xe0\n      shl\n      dup2\n      mstore\n      0x04\n      add\n      tag_246\n      swap3\n      swap2\n      swap1\n      tag_209\n      jump\t// in\n    tag_246:\n      0x00\n      mload(0x40)\n      dup1\n      dup4\n      sub\n      dup2\n      0x00\n      dup8\n      dup1\n      extcodesize\n      iszero\n      dup1\n      iszero\n      tag_247\n      jumpi\n      0x00\n      dup1\n      revert\n    tag_247:\n      pop\n      gas\n      call\n      iszero\n      dup1\n      iszero\n      tag_249\n      jumpi\n      returndatasize\n      0x00\n      dup1\n      returndatacopy\n      revert(0x00, returndatasize)\n    tag_249:\n      pop\n      pop\n      pop\n      pop\n        /* \"contracts/Hook.sol\":6634:6862  {... */\n      pop\n      pop\n        /* \"contracts/Hook.sol\":6571:6862  function erc20ToPreviousHolder(address previousHolder) internal{... */\n      pop\n      jump\t// out\n        /* \"contracts/Hook.sol\":5945:6411  function buyTokens(uint _buyEth) internal returns (uint){... */\n    tag_190:\n        /* \"contracts/Hook.sol\":5996:6000  uint */\n      0x00\n        /* \"contracts/Hook.sol\":6011:6035  uint numberOfTokensToBuy */\n      dup1\n        /* \"contracts/Hook.sol\":6038:6044  Oracle */\n      0x0a\n      0x00\n      swap1\n      sload\n      swap1\n      0x0100\n      exp\n      swap1\n      div\n      0xffffffffffffffffffffffffffffffffffffffff\n      and\n        /* \"contracts/Hook.sol\":6038:6058  Oracle.consultPrices */\n      0xffffffffffffffffffffffffffffffffffffffff\n      and\n      0x3ac35585\n        /* \"contracts/Hook.sol\":6059:6070  WethAddress */\n      0x00\n      dup1\n      sload\n      swap1\n      0x0100\n      exp\n      swap1\n      div\n      0xffffffffffffffffffffffffffffffffffffffff\n      and\n        /* \"contracts/Hook.sol\":6072:6079  _buyEth */\n      dup6\n        /* \"contracts/Hook.sol\":6038:6080  Oracle.consultPrices(WethAddress, _buyEth) */\n      mload(0x40)\n      dup4\n      0xffffffff\n      and\n      0xe0\n      shl\n      dup2\n      mstore\n      0x04\n      add\n      tag_251\n      swap3\n      swap2\n      swap1\n      tag_121\n      jump\t// in\n    tag_251:\n      0x20\n      mload(0x40)\n      dup1\n      dup4\n      sub\n      dup2\n      dup7\n      gas\n      staticcall\n      iszero\n      dup1\n      iszero\n      tag_253\n      jumpi\n      returndatasize\n      0x00\n      dup1\n      returndatacopy\n      revert(0x00, returndatasize)\n    tag_253:\n      pop\n      pop\n      pop\n      pop\n      mload(0x40)\n      returndatasize\n      not(0x1f)\n      0x1f\n      dup3\n      add\n      and\n      dup3\n      add\n      dup1\n      0x40\n      mstore\n      pop\n      dup2\n      add\n      swap1\n      tag_254\n      swap2\n      swap1\n      tag_119\n      jump\t// in\n    tag_254:\n        /* \"contracts/Hook.sol\":6011:6080  uint numberOfTokensToBuy = Oracle.consultPrices(WethAddress, _buyEth) */\n      swap1\n      pop\n        /* \"contracts/Hook.sol\":6090:6107  uint amountOutMin */\n      0x00\n        /* \"contracts/Hook.sol\":6135:6138  100 */\n      0x64\n        /* \"contracts/Hook.sol\":6131:6133  95 */\n      0x5f\n        /* \"contracts/Hook.sol\":6111:6130  numberOfTokensToBuy */\n      dup4\n        /* \"contracts/Hook.sol\":6111:6133  numberOfTokensToBuy*95 */\n      tag_255\n      swap2\n      swap1\n      tag_150\n      jump\t// in\n    tag_255:\n        /* \"contracts/Hook.sol\":6110:6138  (numberOfTokensToBuy*95)/100 */\n      tag_256\n      swap2\n      swap1\n      tag_152\n      jump\t// in\n    tag_256:\n        /* \"contracts/Hook.sol\":6090:6138  uint amountOutMin = (numberOfTokensToBuy*95)/100 */\n      swap1\n      pop\n        /* \"contracts/Hook.sol\":6148:6169  uint[] memory _tokens */\n      0x00\n        /* \"contracts/Hook.sol\":6183:6184  2 */\n      0x02\n        /* \"contracts/Hook.sol\":6172:6185  new uint[](2) */\n      0xffffffffffffffff\n      dup2\n      gt\n      iszero\n      tag_257\n      jumpi\n      tag_258\n      tag_259\n      jump\t// in\n    tag_258:\n    tag_257:\n      mload(0x40)\n      swap1\n      dup1\n      dup3\n      mstore\n      dup1\n      0x20\n      mul\n      0x20\n      add\n      dup3\n      add\n      0x40\n      mstore\n      dup1\n      iszero\n      tag_260\n      jumpi\n      dup2\n      0x20\n      add\n      0x20\n      dup3\n      mul\n      dup1\n      calldatasize\n      dup4\n      calldatacopy\n      dup1\n      dup3\n      add\n      swap2\n      pop\n      pop\n      swap1\n      pop\n    tag_260:\n      pop\n        /* \"contracts/Hook.sol\":6148:6185  uint[] memory _tokens = new uint[](2) */\n      swap1\n      pop\n        /* \"contracts/Hook.sol\":6206:6219  UniswapRouter */\n      0x0b\n      0x00\n      swap1\n      sload\n      swap1\n      0x0100\n      exp\n      swap1\n      div\n      0xffffffffffffffffffffffffffffffffffffffff\n      and\n        /* \"contracts/Hook.sol\":6206:6241  UniswapRouter.swapExactETHForTokens */\n      0xffffffffffffffffffffffffffffffffffffffff\n      and\n      0x7ff36ab5\n        /* \"contracts/Hook.sol\":6249:6256  _buyEth */\n      dup7\n        /* \"contracts/Hook.sol\":6258:6270  amountOutMin */\n      dup5\n        /* \"contracts/Hook.sol\":6272:6276  path */\n      0x07\n        /* \"contracts/Hook.sol\":6278:6288  msg.sender */\n      caller\n        /* \"contracts/Hook.sol\":6290:6304  type(uint).max */\n      0xffffffffffffffffffffffffffffffffffffffffffffffffffffffffffffffff\n        /* \"contracts/Hook.sol\":6206:6305  UniswapRouter.swapExactETHForTokens{value: _buyEth}(amountOutMin, path, msg.sender, type(uint).max) */\n      mload(0x40)\n      dup7\n      0xffffffff\n      and\n      0xe0\n      shl\n      dup2\n      mstore\n      0x04\n      add\n      tag_261\n      swap5\n      swap4\n      swap3\n      swap2\n      swap1\n      tag_262\n      jump\t// in\n    tag_261:\n      0x00\n      mload(0x40)\n      dup1\n      dup4\n      sub\n      dup2\n      dup6\n      dup9\n      gas\n      call\n      iszero\n      dup1\n      iszero\n      tag_264\n      jumpi\n      returndatasize\n      0x00\n      dup1\n      returndatacopy\n      revert(0x00, returndatasize)\n    tag_264:\n      pop\n      pop\n      pop\n      pop\n      pop\n      mload(0x40)\n      returndatasize\n      0x00\n      dup3\n      returndatacopy\n      returndatasize\n      not(0x1f)\n      0x1f\n      dup3\n      add\n      and\n      dup3\n      add\n      dup1\n      0x40\n      mstore\n      pop\n      dup2\n      add\n      swap1\n      tag_265\n      swap2\n      swap1\n      tag_266\n      jump\t// in\n    tag_265:\n        /* \"contracts/Hook.sol\":6196:6305  _tokens = UniswapRouter.swapExactETHForTokens{value: _buyEth}(amountOutMin, path, msg.sender, type(uint).max) */\n      swap1\n      pop\n        /* \"contracts/Hook.sol\":6384:6391  _tokens */\n      dup1\n        /* \"contracts/Hook.sol\":6392:6393  1 */\n      0x01\n        /* \"contracts/Hook.sol\":6384:6394  _tokens[1] */\n      dup2\n      mload\n      dup2\n      lt\n      tag_267\n      jumpi\n      tag_268\n      tag_269\n      jump\t// in\n    tag_268:\n    tag_267:\n      0x20\n      mul\n      0x20\n      add\n      add\n      mload\n        /* \"contracts/Hook.sol\":6377:6394  return _tokens[1] */\n      swap4\n      pop\n      pop\n      pop\n      pop\n        /* \"contracts/Hook.sol\":5945:6411  function buyTokens(uint _buyEth) internal returns (uint){... */\n      swap2\n      swap1\n      pop\n      jump\t// out\n        /* \"#utility.yul\":7:97   */\n    tag_270:\n        /* \"#utility.yul\":41:48   */\n      0x00\n        /* \"#utility.yul\":84:89   */\n      dup2\n        /* \"#utility.yul\":77:90   */\n      iszero\n        /* \"#utility.yul\":70:91   */\n      iszero\n        /* \"#utility.yul\":59:91   */\n      swap1\n      pop\n        /* \"#utility.yul\":7:97   */\n      swap2\n      swap1\n      pop\n      jump\t// out\n        /* \"#utility.yul\":103:212   */\n    tag_271:\n        /* \"#utility.yul\":184:205   */\n      tag_316\n        /* \"#utility.yul\":199:204   */\n      dup2\n        /* \"#utility.yul\":184:205   */\n      tag_270\n      jump\t// in\n    tag_316:\n        /* \"#utility.yul\":179:182   */\n      dup3\n        /* \"#utility.yul\":172:206   */\n      mstore\n        /* \"#utility.yul\":103:212   */\n      pop\n      pop\n      jump\t// out\n        /* \"#utility.yul\":218:428   */\n    tag_31:\n        /* \"#utility.yul\":305:309   */\n      0x00\n        /* \"#utility.yul\":343:345   */\n      0x20\n        /* \"#utility.yul\":332:341   */\n      dup3\n        /* \"#utility.yul\":328:346   */\n      add\n        /* \"#utility.yul\":320:346   */\n      swap1\n      pop\n        /* \"#utility.yul\":356:421   */\n      tag_318\n        /* \"#utility.yul\":418:419   */\n      0x00\n        /* \"#utility.yul\":407:416   */\n      dup4\n        /* \"#utility.yul\":403:420   */\n      add\n        /* \"#utility.yul\":394:400   */\n      dup5\n        /* \"#utility.yul\":356:421   */\n      tag_271\n      jump\t// in\n    tag_318:\n        /* \"#utility.yul\":218:428   */\n      swap3\n      swap2\n      pop\n      pop\n      jump\t// out\n        /* \"#utility.yul\":434:509   */\n    tag_272:\n        /* \"#utility.yul\":467:473   */\n      0x00\n        /* \"#utility.yul\":500:502   */\n      0x40\n        /* \"#utility.yul\":494:503   */\n      mload\n        /* \"#utility.yul\":484:503   */\n      swap1\n      pop\n        /* \"#utility.yul\":434:509   */\n      swap1\n      jump\t// out\n        /* \"#utility.yul\":515:632   */\n    tag_273:\n        /* \"#utility.yul\":624:625   */\n      0x00\n        /* \"#utility.yul\":621:622   */\n      dup1\n        /* \"#utility.yul\":614:626   */\n      revert\n        /* \"#utility.yul\":638:755   */\n    tag_274:\n        /* \"#utility.yul\":747:748   */\n      0x00\n        /* \"#utility.yul\":744:745   */\n      dup1\n        /* \"#utility.yul\":737:749   */\n      revert\n        /* \"#utility.yul\":761:887   */\n    tag_275:\n        /* \"#utility.yul\":798:805   */\n      0x00\n        /* \"#utility.yul\":838:880   */\n      0xffffffffffffffffffffffffffffffffffffffff\n        /* \"#utility.yul\":831:836   */\n      dup3\n        /* \"#utility.yul\":827:881   */\n      and\n        /* \"#utility.yul\":816:881   */\n      swap1\n      pop\n        /* \"#utility.yul\":761:887   */\n      swap2\n      swap1\n      pop\n      jump\t// out\n        /* \"#utility.yul\":893:989   */\n    tag_276:\n        /* \"#utility.yul\":930:937   */\n      0x00\n        /* \"#utility.yul\":959:983   */\n      tag_324\n        /* \"#utility.yul\":977:982   */\n      dup3\n        /* \"#utility.yul\":959:983   */\n      tag_275\n      jump\t// in\n    tag_324:\n        /* \"#utility.yul\":948:983   */\n      swap1\n      pop\n        /* \"#utility.yul\":893:989   */\n      swap2\n      swap1\n      pop\n      jump\t// out\n        /* \"#utility.yul\":995:1117   */\n    tag_277:\n        /* \"#utility.yul\":1068:1092   */\n      tag_326\n        /* \"#utility.yul\":1086:1091   */\n      dup2\n        /* \"#utility.yul\":1068:1092   */\n      tag_276\n      jump\t// in\n    tag_326:\n        /* \"#utility.yul\":1061:1066   */\n      dup2\n        /* \"#utility.yul\":1058:1093   */\n      eq\n        /* \"#utility.yul\":1048:1111   */\n      tag_327\n      jumpi\n        /* \"#utility.yul\":1107:1108   */\n      0x00\n        /* \"#utility.yul\":1104:1105   */\n      dup1\n        /* \"#utility.yul\":1097:1109   */\n      revert\n        /* \"#utility.yul\":1048:1111   */\n    tag_327:\n        /* \"#utility.yul\":995:1117   */\n      pop\n      jump\t// out\n        /* \"#utility.yul\":1123:1262   */\n    tag_278:\n        /* \"#utility.yul\":1169:1174   */\n      0x00\n        /* \"#utility.yul\":1207:1213   */\n      dup2\n        /* \"#utility.yul\":1194:1214   */\n      calldataload\n        /* \"#utility.yul\":1185:1214   */\n      swap1\n      pop\n        /* \"#utility.yul\":1223:1256   */\n      tag_329\n        /* \"#utility.yul\":1250:1255   */\n      dup2\n        /* \"#utility.yul\":1223:1256   */\n      tag_277\n      jump\t// in\n    tag_329:\n        /* \"#utility.yul\":1123:1262   */\n      swap3\n      swap2\n      pop\n      pop\n      jump\t// out\n        /* \"#utility.yul\":1268:1597   */\n    tag_35:\n        /* \"#utility.yul\":1327:1333   */\n      0x00\n        /* \"#utility.yul\":1376:1378   */\n      0x20\n        /* \"#utility.yul\":1364:1373   */\n      dup3\n        /* \"#utility.yul\":1355:1362   */\n      dup5\n        /* \"#utility.yul\":1351:1374   */\n      sub\n        /* \"#utility.yul\":1347:1379   */\n      slt\n        /* \"#utility.yul\":1344:1463   */\n      iszero\n      tag_331\n      jumpi\n        /* \"#utility.yul\":1382:1461   */\n      tag_332\n      tag_273\n      jump\t// in\n    tag_332:\n        /* \"#utility.yul\":1344:1463   */\n    tag_331:\n        /* \"#utility.yul\":1502:1503   */\n      0x00\n        /* \"#utility.yul\":1527:1580   */\n      tag_333\n        /* \"#utility.yul\":1572:1579   */\n      dup5\n        /* \"#utility.yul\":1563:1569   */\n      dup3\n        /* \"#utility.yul\":1552:1561   */\n      dup6\n        /* \"#utility.yul\":1548:1570   */\n      add\n        /* \"#utility.yul\":1527:1580   */\n      tag_278\n      jump\t// in\n    tag_333:\n        /* \"#utility.yul\":1517:1580   */\n      swap2\n      pop\n        /* \"#utility.yul\":1473:1590   */\n      pop\n        /* \"#utility.yul\":1268:1597   */\n      swap3\n      swap2\n      pop\n      pop\n      jump\t// out\n        /* \"#utility.yul\":1603:1721   */\n    tag_279:\n        /* \"#utility.yul\":1690:1714   */\n      tag_335\n        /* \"#utility.yul\":1708:1713   */\n      dup2\n        /* \"#utility.yul\":1690:1714   */\n      tag_276\n      jump\t// in\n    tag_335:\n        /* \"#utility.yul\":1685:1688   */\n      dup3\n        /* \"#utility.yul\":1678:1715   */\n      mstore\n        /* \"#utility.yul\":1603:1721   */\n      pop\n      pop\n      jump\t// out\n        /* \"#utility.yul\":1727:1949   */\n    tag_41:\n        /* \"#utility.yul\":1820:1824   */\n      0x00\n        /* \"#utility.yul\":1858:1860   */\n      0x20\n        /* \"#utility.yul\":1847:1856   */\n      dup3\n        /* \"#utility.yul\":1843:1861   */\n      add\n        /* \"#utility.yul\":1835:1861   */\n      swap1\n      pop\n        /* \"#utility.yul\":1871:1942   */\n      tag_337\n        /* \"#utility.yul\":1939:1940   */\n      0x00\n        /* \"#utility.yul\":1928:1937   */\n      dup4\n        /* \"#utility.yul\":1924:1941   */\n      add\n        /* \"#utility.yul\":1915:1921   */\n      dup5\n        /* \"#utility.yul\":1871:1942   */\n      tag_279\n      jump\t// in\n    tag_337:\n        /* \"#utility.yul\":1727:1949   */\n      swap3\n      swap2\n      pop\n      pop\n      jump\t// out\n        /* \"#utility.yul\":1955:2032   */\n    tag_280:\n        /* \"#utility.yul\":1992:1999   */\n      0x00\n        /* \"#utility.yul\":2021:2026   */\n      dup2\n        /* \"#utility.yul\":2010:2026   */\n      swap1\n      pop\n        /* \"#utility.yul\":1955:2032   */\n      swap2\n      swap1\n      pop\n      jump\t// out\n        /* \"#utility.yul\":2038:2160   */\n    tag_281:\n        /* \"#utility.yul\":2111:2135   */\n      tag_340\n        /* \"#utility.yul\":2129:2134   */\n      dup2\n        /* \"#utility.yul\":2111:2135   */\n      tag_280\n      jump\t// in\n    tag_340:\n        /* \"#utility.yul\":2104:2109   */\n      dup2\n        /* \"#utility.yul\":2101:2136   */\n      eq\n        /* \"#utility.yul\":2091:2154   */\n      tag_341\n      jumpi\n        /* \"#utility.yul\":2150:2151   */\n      0x00\n        /* \"#utility.yul\":2147:2148   */\n      dup1\n        /* \"#utility.yul\":2140:2152   */\n      revert\n        /* \"#utility.yul\":2091:2154   */\n    tag_341:\n        /* \"#utility.yul\":2038:2160   */\n      pop\n      jump\t// out\n        /* \"#utility.yul\":2166:2305   */\n    tag_282:\n        /* \"#utility.yul\":2212:2217   */\n      0x00\n        /* \"#utility.yul\":2250:2256   */\n      dup2\n        /* \"#utility.yul\":2237:2257   */\n      calldataload\n        /* \"#utility.yul\":2228:2257   */\n      swap1\n      pop\n        /* \"#utility.yul\":2266:2299   */\n      tag_343\n        /* \"#utility.yul\":2293:2298   */\n      dup2\n        /* \"#utility.yul\":2266:2299   */\n      tag_281\n      jump\t// in\n    tag_343:\n        /* \"#utility.yul\":2166:2305   */\n      swap3\n      swap2\n      pop\n      pop\n      jump\t// out\n        /* \"#utility.yul\":2311:2640   */\n    tag_45:\n        /* \"#utility.yul\":2370:2376   */\n      0x00\n        /* \"#utility.yul\":2419:2421   */\n      0x20\n        /* \"#utility.yul\":2407:2416   */\n      dup3\n        /* \"#utility.yul\":2398:2405   */\n      dup5\n        /* \"#utility.yul\":2394:2417   */\n      sub\n        /* \"#utility.yul\":2390:2422   */\n      slt\n        /* \"#utility.yul\":2387:2506   */\n      iszero\n      tag_345\n      jumpi\n        /* \"#utility.yul\":2425:2504   */\n      tag_346\n      tag_273\n      jump\t// in\n    tag_346:\n        /* \"#utility.yul\":2387:2506   */\n    tag_345:\n        /* \"#utility.yul\":2545:2546   */\n      0x00\n        /* \"#utility.yul\":2570:2623   */\n      tag_347\n        /* \"#utility.yul\":2615:2622   */\n      dup5\n        /* \"#utility.yul\":2606:2612   */\n      dup3\n        /* \"#utility.yul\":2595:2604   */\n      dup6\n        /* \"#utility.yul\":2591:2613   */\n      add\n        /* \"#utility.yul\":2570:2623   */\n      tag_282\n      jump\t// in\n    tag_347:\n        /* \"#utility.yul\":2560:2623   */\n      swap2\n      pop\n        /* \"#utility.yul\":2516:2633   */\n      pop\n        /* \"#utility.yul\":2311:2640   */\n      swap3\n      swap2\n      pop\n      pop\n      jump\t// out\n        /* \"#utility.yul\":2646:2764   */\n    tag_283:\n        /* \"#utility.yul\":2733:2757   */\n      tag_349\n        /* \"#utility.yul\":2751:2756   */\n      dup2\n        /* \"#utility.yul\":2733:2757   */\n      tag_280\n      jump\t// in\n    tag_349:\n        /* \"#utility.yul\":2728:2731   */\n      dup3\n        /* \"#utility.yul\":2721:2758   */\n      mstore\n        /* \"#utility.yul\":2646:2764   */\n      pop\n      pop\n      jump\t// out\n        /* \"#utility.yul\":2770:3620   */\n    tag_48:\n        /* \"#utility.yul\":3013:3017   */\n      0x00\n        /* \"#utility.yul\":3051:3054   */\n      0xe0\n        /* \"#utility.yul\":3040:3049   */\n      dup3\n        /* \"#utility.yul\":3036:3055   */\n      add\n        /* \"#utility.yul\":3028:3055   */\n      swap1\n      pop\n        /* \"#utility.yul\":3065:3136   */\n      tag_351\n        /* \"#utility.yul\":3133:3134   */\n      0x00\n        /* \"#utility.yul\":3122:3131   */\n      dup4\n        /* \"#utility.yul\":3118:3135   */\n      add\n        /* \"#utility.yul\":3109:3115   */\n      dup11\n        /* \"#utility.yul\":3065:3136   */\n      tag_283\n      jump\t// in\n    tag_351:\n        /* \"#utility.yul\":3146:3218   */\n      tag_352\n        /* \"#utility.yul\":3214:3216   */\n      0x20\n        /* \"#utility.yul\":3203:3212   */\n      dup4\n        /* \"#utility.yul\":3199:3217   */\n      add\n        /* \"#utility.yul\":3190:3196   */\n      dup10\n        /* \"#utility.yul\":3146:3218   */\n      tag_279\n      jump\t// in\n    tag_352:\n        /* \"#utility.yul\":3228:3294   */\n      tag_353\n        /* \"#utility.yul\":3290:3292   */\n      0x40\n        /* \"#utility.yul\":3279:3288   */\n      dup4\n        /* \"#utility.yul\":3275:3293   */\n      add\n        /* \"#utility.yul\":3266:3272   */\n      dup9\n        /* \"#utility.yul\":3228:3294   */\n      tag_271\n      jump\t// in\n    tag_353:\n        /* \"#utility.yul\":3304:3376   */\n      tag_354\n        /* \"#utility.yul\":3372:3374   */\n      0x60\n        /* \"#utility.yul\":3361:3370   */\n      dup4\n        /* \"#utility.yul\":3357:3375   */\n      add\n        /* \"#utility.yul\":3348:3354   */\n      dup8\n        /* \"#utility.yul\":3304:3376   */\n      tag_283\n      jump\t// in\n    tag_354:\n        /* \"#utility.yul\":3386:3453   */\n      tag_355\n        /* \"#utility.yul\":3448:3451   */\n      0x80\n        /* \"#utility.yul\":3437:3446   */\n      dup4\n        /* \"#utility.yul\":3433:3452   */\n      add\n        /* \"#utility.yul\":3424:3430   */\n      dup7\n        /* \"#utility.yul\":3386:3453   */\n      tag_271\n      jump\t// in\n    tag_355:\n        /* \"#utility.yul\":3463:3536   */\n      tag_356\n        /* \"#utility.yul\":3531:3534   */\n      0xa0\n        /* \"#utility.yul\":3520:3529   */\n      dup4\n        /* \"#utility.yul\":3516:3535   */\n      add\n        /* \"#utility.yul\":3507:3513   */\n      dup6\n        /* \"#utility.yul\":3463:3536   */\n      tag_283\n      jump\t// in\n    tag_356:\n        /* \"#utility.yul\":3546:3613   */\n      tag_357\n        /* \"#utility.yul\":3608:3611   */\n      0xc0\n        /* \"#utility.yul\":3597:3606   */\n      dup4\n        /* \"#utility.yul\":3593:3612   */\n      add\n        /* \"#utility.yul\":3584:3590   */\n      dup5\n        /* \"#utility.yul\":3546:3613   */\n      tag_271\n      jump\t// in\n    tag_357:\n        /* \"#utility.yul\":2770:3620   */\n      swap9\n      swap8\n      pop\n      pop\n      pop\n      pop\n      pop\n      pop\n      pop\n      pop\n      jump\t// out\n        /* \"#utility.yul\":3626:3848   */\n    tag_53:\n        /* \"#utility.yul\":3719:3723   */\n      0x00\n        /* \"#utility.yul\":3757:3759   */\n      0x20\n        /* \"#utility.yul\":3746:3755   */\n      dup3\n        /* \"#utility.yul\":3742:3760   */\n      add\n        /* \"#utility.yul\":3734:3760   */\n      swap1\n      pop\n        /* \"#utility.yul\":3770:3841   */\n      tag_359\n        /* \"#utility.yul\":3838:3839   */\n      0x00\n        /* \"#utility.yul\":3827:3836   */\n      dup4\n        /* \"#utility.yul\":3823:3840   */\n      add\n        /* \"#utility.yul\":3814:3820   */\n      dup5\n        /* \"#utility.yul\":3770:3841   */\n      tag_283\n      jump\t// in\n    tag_359:\n        /* \"#utility.yul\":3626:3848   */\n      swap3\n      swap2\n      pop\n      pop\n      jump\t// out\n        /* \"#utility.yul\":3854:3997   */\n    tag_284:\n        /* \"#utility.yul\":3911:3916   */\n      0x00\n        /* \"#utility.yul\":3942:3948   */\n      dup2\n        /* \"#utility.yul\":3936:3949   */\n      mload\n        /* \"#utility.yul\":3927:3949   */\n      swap1\n      pop\n        /* \"#utility.yul\":3958:3991   */\n      tag_361\n        /* \"#utility.yul\":3985:3990   */\n      dup2\n        /* \"#utility.yul\":3958:3991   */\n      tag_281\n      jump\t// in\n    tag_361:\n        /* \"#utility.yul\":3854:3997   */\n      swap3\n      swap2\n      pop\n      pop\n      jump\t// out\n        /* \"#utility.yul\":4003:4354   */\n    tag_119:\n        /* \"#utility.yul\":4073:4079   */\n      0x00\n        /* \"#utility.yul\":4122:4124   */\n      0x20\n        /* \"#utility.yul\":4110:4119   */\n      dup3\n        /* \"#utility.yul\":4101:4108   */\n      dup5\n        /* \"#utility.yul\":4097:4120   */\n      sub\n        /* \"#utility.yul\":4093:4125   */\n      slt\n        /* \"#utility.yul\":4090:4209   */\n      iszero\n      tag_363\n      jumpi\n        /* \"#utility.yul\":4128:4207   */\n      tag_364\n      tag_273\n      jump\t// in\n    tag_364:\n        /* \"#utility.yul\":4090:4209   */\n    tag_363:\n        /* \"#utility.yul\":4248:4249   */\n      0x00\n        /* \"#utility.yul\":4273:4337   */\n      tag_365\n        /* \"#utility.yul\":4329:4336   */\n      dup5\n        /* \"#utility.yul\":4320:4326   */\n      dup3\n        /* \"#utility.yul\":4309:4318   */\n      dup6\n        /* \"#utility.yul\":4305:4327   */\n      add\n        /* \"#utility.yul\":4273:4337   */\n      tag_284\n      jump\t// in\n    tag_365:\n        /* \"#utility.yul\":4263:4337   */\n      swap2\n      pop\n        /* \"#utility.yul\":4219:4347   */\n      pop\n        /* \"#utility.yul\":4003:4354   */\n      swap3\n      swap2\n      pop\n      pop\n      jump\t// out\n        /* \"#utility.yul\":4360:4692   */\n    tag_121:\n        /* \"#utility.yul\":4481:4485   */\n      0x00\n        /* \"#utility.yul\":4519:4521   */\n      0x40\n        /* \"#utility.yul\":4508:4517   */\n      dup3\n        /* \"#utility.yul\":4504:4522   */\n      add\n        /* \"#utility.yul\":4496:4522   */\n      swap1\n      pop\n        /* \"#utility.yul\":4532:4603   */\n      tag_367\n        /* \"#utility.yul\":4600:4601   */\n      0x00\n        /* \"#utility.yul\":4589:4598   */\n      dup4\n        /* \"#utility.yul\":4585:4602   */\n      add\n        /* \"#utility.yul\":4576:4582   */\n      dup6\n        /* \"#utility.yul\":4532:4603   */\n      tag_279\n      jump\t// in\n    tag_367:\n        /* \"#utility.yul\":4613:4685   */\n      tag_368\n        /* \"#utility.yul\":4681:4683   */\n      0x20\n        /* \"#utility.yul\":4670:4679   */\n      dup4\n        /* \"#utility.yul\":4666:4684   */\n      add\n        /* \"#utility.yul\":4657:4663   */\n      dup5\n        /* \"#utility.yul\":4613:4685   */\n      tag_283\n      jump\t// in\n    tag_368:\n        /* \"#utility.yul\":4360:4692   */\n      swap4\n      swap3\n      pop\n      pop\n      pop\n      jump\t// out\n        /* \"#utility.yul\":4698:4814   */\n    tag_285:\n        /* \"#utility.yul\":4768:4789   */\n      tag_370\n        /* \"#utility.yul\":4783:4788   */\n      dup2\n        /* \"#utility.yul\":4768:4789   */\n      tag_270\n      jump\t// in\n    tag_370:\n        /* \"#utility.yul\":4761:4766   */\n      dup2\n        /* \"#utility.yul\":4758:4790   */\n      eq\n        /* \"#utility.yul\":4748:4808   */\n      tag_371\n      jumpi\n        /* \"#utility.yul\":4804:4805   */\n      0x00\n        /* \"#utility.yul\":4801:4802   */\n      dup1\n        /* \"#utility.yul\":4794:4806   */\n      revert\n        /* \"#utility.yul\":4748:4808   */\n    tag_371:\n        /* \"#utility.yul\":4698:4814   */\n      pop\n      jump\t// out\n        /* \"#utility.yul\":4820:4957   */\n    tag_286:\n        /* \"#utility.yul\":4874:4879   */\n      0x00\n        /* \"#utility.yul\":4905:4911   */\n      dup2\n        /* \"#utility.yul\":4899:4912   */\n      mload\n        /* \"#utility.yul\":4890:4912   */\n      swap1\n      pop\n        /* \"#utility.yul\":4921:4951   */\n      tag_373\n        /* \"#utility.yul\":4945:4950   */\n      dup2\n        /* \"#utility.yul\":4921:4951   */\n      tag_285\n      jump\t// in\n    tag_373:\n        /* \"#utility.yul\":4820:4957   */\n      swap3\n      swap2\n      pop\n      pop\n      jump\t// out\n        /* \"#utility.yul\":4963:5308   */\n    tag_125:\n        /* \"#utility.yul\":5030:5036   */\n      0x00\n        /* \"#utility.yul\":5079:5081   */\n      0x20\n        /* \"#utility.yul\":5067:5076   */\n      dup3\n        /* \"#utility.yul\":5058:5065   */\n      dup5\n        /* \"#utility.yul\":5054:5077   */\n      sub\n        /* \"#utility.yul\":5050:5082   */\n      slt\n        /* \"#utility.yul\":5047:5166   */\n      iszero\n      tag_375\n      jumpi\n        /* \"#utility.yul\":5085:5164   */\n      tag_376\n      tag_273\n      jump\t// in\n    tag_376:\n        /* \"#utility.yul\":5047:5166   */\n    tag_375:\n        /* \"#utility.yul\":5205:5206   */\n      0x00\n        /* \"#utility.yul\":5230:5291   */\n      tag_377\n        /* \"#utility.yul\":5283:5290   */\n      dup5\n        /* \"#utility.yul\":5274:5280   */\n      dup3\n        /* \"#utility.yul\":5263:5272   */\n      dup6\n        /* \"#utility.yul\":5259:5281   */\n      add\n        /* \"#utility.yul\":5230:5291   */\n      tag_286\n      jump\t// in\n    tag_377:\n        /* \"#utility.yul\":5220:5291   */\n      swap2\n      pop\n        /* \"#utility.yul\":5176:5301   */\n      pop\n        /* \"#utility.yul\":4963:5308   */\n      swap3\n      swap2\n      pop\n      pop\n      jump\t// out\n        /* \"#utility.yul\":5314:5494   */\n    tag_287:\n        /* \"#utility.yul\":5362:5439   */\n      0x4e487b7100000000000000000000000000000000000000000000000000000000\n        /* \"#utility.yul\":5359:5360   */\n      0x00\n        /* \"#utility.yul\":5352:5440   */\n      mstore\n        /* \"#utility.yul\":5459:5463   */\n      0x11\n        /* \"#utility.yul\":5456:5457   */\n      0x04\n        /* \"#utility.yul\":5449:5464   */\n      mstore\n        /* \"#utility.yul\":5483:5487   */\n      0x24\n        /* \"#utility.yul\":5480:5481   */\n      0x00\n        /* \"#utility.yul\":5473:5488   */\n      revert\n        /* \"#utility.yul\":5500:5694   */\n    tag_129:\n        /* \"#utility.yul\":5540:5544   */\n      0x00\n        /* \"#utility.yul\":5560:5580   */\n      tag_380\n        /* \"#utility.yul\":5578:5579   */\n      dup3\n        /* \"#utility.yul\":5560:5580   */\n      tag_280\n      jump\t// in\n    tag_380:\n        /* \"#utility.yul\":5555:5580   */\n      swap2\n      pop\n        /* \"#utility.yul\":5594:5614   */\n      tag_381\n        /* \"#utility.yul\":5612:5613   */\n      dup4\n        /* \"#utility.yul\":5594:5614   */\n      tag_280\n      jump\t// in\n    tag_381:\n        /* \"#utility.yul\":5589:5614   */\n      swap3\n      pop\n        /* \"#utility.yul\":5638:5639   */\n      dup3\n        /* \"#utility.yul\":5635:5636   */\n      dup3\n        /* \"#utility.yul\":5631:5640   */\n      sub\n        /* \"#utility.yul\":5623:5640   */\n      swap1\n      pop\n        /* \"#utility.yul\":5662:5663   */\n      dup2\n        /* \"#utility.yul\":5656:5660   */\n      dup2\n        /* \"#utility.yul\":5653:5664   */\n      gt\n        /* \"#utility.yul\":5650:5687   */\n      iszero\n      tag_382\n      jumpi\n        /* \"#utility.yul\":5667:5685   */\n      tag_383\n      tag_287\n      jump\t// in\n    tag_383:\n        /* \"#utility.yul\":5650:5687   */\n    tag_382:\n        /* \"#utility.yul\":5500:5694   */\n      swap3\n      swap2\n      pop\n      pop\n      jump\t// out\n        /* \"#utility.yul\":5700:6110   */\n    tag_150:\n        /* \"#utility.yul\":5740:5747   */\n      0x00\n        /* \"#utility.yul\":5763:5783   */\n      tag_385\n        /* \"#utility.yul\":5781:5782   */\n      dup3\n        /* \"#utility.yul\":5763:5783   */\n      tag_280\n      jump\t// in\n    tag_385:\n        /* \"#utility.yul\":5758:5783   */\n      swap2\n      pop\n        /* \"#utility.yul\":5797:5817   */\n      tag_386\n        /* \"#utility.yul\":5815:5816   */\n      dup4\n        /* \"#utility.yul\":5797:5817   */\n      tag_280\n      jump\t// in\n    tag_386:\n        /* \"#utility.yul\":5792:5817   */\n      swap3\n      pop\n        /* \"#utility.yul\":5852:5853   */\n      dup3\n        /* \"#utility.yul\":5849:5850   */\n      dup3\n        /* \"#utility.yul\":5845:5854   */\n      mul\n        /* \"#utility.yul\":5874:5904   */\n      tag_387\n        /* \"#utility.yul\":5892:5903   */\n      dup2\n        /* \"#utility.yul\":5874:5904   */\n      tag_280\n      jump\t// in\n    tag_387:\n        /* \"#utility.yul\":5863:5904   */\n      swap2\n      pop\n        /* \"#utility.yul\":6053:6054   */\n      dup3\n        /* \"#utility.yul\":6044:6051   */\n      dup3\n        /* \"#utility.yul\":6040:6055   */\n      div\n        /* \"#utility.yul\":6037:6038   */\n      dup5\n        /* \"#utility.yul\":6034:6056   */\n      eq\n        /* \"#utility.yul\":6014:6015   */\n      dup4\n        /* \"#utility.yul\":6007:6016   */\n      iszero\n        /* \"#utility.yul\":5987:6070   */\n      or\n        /* \"#utility.yul\":5964:6103   */\n      tag_388\n      jumpi\n        /* \"#utility.yul\":6083:6101   */\n      tag_389\n      tag_287\n      jump\t// in\n    tag_389:\n        /* \"#utility.yul\":5964:6103   */\n    tag_388:\n        /* \"#utility.yul\":5748:6110   */\n      pop\n        /* \"#utility.yul\":5700:6110   */\n      swap3\n      swap2\n      pop\n      pop\n      jump\t// out\n        /* \"#utility.yul\":6116:6296   */\n    tag_288:\n        /* \"#utility.yul\":6164:6241   */\n      0x4e487b7100000000000000000000000000000000000000000000000000000000\n        /* \"#utility.yul\":6161:6162   */\n      0x00\n        /* \"#utility.yul\":6154:6242   */\n      mstore\n        /* \"#utility.yul\":6261:6265   */\n      0x12\n        /* \"#utility.yul\":6258:6259   */\n      0x04\n        /* \"#utility.yul\":6251:6266   */\n      mstore\n        /* \"#utility.yul\":6285:6289   */\n      0x24\n        /* \"#utility.yul\":6282:6283   */\n      0x00\n        /* \"#utility.yul\":6275:6290   */\n      revert\n        /* \"#utility.yul\":6302:6487   */\n    tag_152:\n        /* \"#utility.yul\":6342:6343   */\n      0x00\n        /* \"#utility.yul\":6359:6379   */\n      tag_392\n        /* \"#utility.yul\":6377:6378   */\n      dup3\n        /* \"#utility.yul\":6359:6379   */\n      tag_280\n      jump\t// in\n    tag_392:\n        /* \"#utility.yul\":6354:6379   */\n      swap2\n      pop\n        /* \"#utility.yul\":6393:6413   */\n      tag_393\n        /* \"#utility.yul\":6411:6412   */\n      dup4\n        /* \"#utility.yul\":6393:6413   */\n      tag_280\n      jump\t// in\n    tag_393:\n        /* \"#utility.yul\":6388:6413   */\n      swap3\n      pop\n        /* \"#utility.yul\":6432:6433   */\n      dup3\n        /* \"#utility.yul\":6422:6457   */\n      tag_394\n      jumpi\n        /* \"#utility.yul\":6437:6455   */\n      tag_395\n      tag_288\n      jump\t// in\n    tag_395:\n        /* \"#utility.yul\":6422:6457   */\n    tag_394:\n        /* \"#utility.yul\":6479:6480   */\n      dup3\n        /* \"#utility.yul\":6476:6477   */\n      dup3\n        /* \"#utility.yul\":6472:6481   */\n      div\n        /* \"#utility.yul\":6467:6481   */\n      swap1\n      pop\n        /* \"#utility.yul\":6302:6487   */\n      swap3\n      swap2\n      pop\n      pop\n      jump\t// out\n        /* \"#utility.yul\":6493:6684   */\n    tag_181:\n        /* \"#utility.yul\":6533:6536   */\n      0x00\n        /* \"#utility.yul\":6552:6572   */\n      tag_397\n        /* \"#utility.yul\":6570:6571   */\n      dup3\n        /* \"#utility.yul\":6552:6572   */\n      tag_280\n      jump\t// in\n    tag_397:\n        /* \"#utility.yul\":6547:6572   */\n      swap2\n      pop\n        /* \"#utility.yul\":6586:6606   */\n      tag_398\n        /* \"#utility.yul\":6604:6605   */\n      dup4\n        /* \"#utility.yul\":6586:6606   */\n      tag_280\n      jump\t// in\n    tag_398:\n        /* \"#utility.yul\":6581:6606   */\n      swap3\n      pop\n        /* \"#utility.yul\":6629:6630   */\n      dup3\n        /* \"#utility.yul\":6626:6627   */\n      dup3\n        /* \"#utility.yul\":6622:6631   */\n      add\n        /* \"#utility.yul\":6615:6631   */\n      swap1\n      pop\n        /* \"#utility.yul\":6650:6653   */\n      dup1\n        /* \"#utility.yul\":6647:6648   */\n      dup3\n        /* \"#utility.yul\":6644:6654   */\n      gt\n        /* \"#utility.yul\":6641:6677   */\n      iszero\n      tag_399\n      jumpi\n        /* \"#utility.yul\":6657:6675   */\n      tag_400\n      tag_287\n      jump\t// in\n    tag_400:\n        /* \"#utility.yul\":6641:6677   */\n    tag_399:\n        /* \"#utility.yul\":6493:6684   */\n      swap3\n      swap2\n      pop\n      pop\n      jump\t// out\n        /* \"#utility.yul\":6690:7022   */\n    tag_209:\n        /* \"#utility.yul\":6811:6815   */\n      0x00\n        /* \"#utility.yul\":6849:6851   */\n      0x40\n        /* \"#utility.yul\":6838:6847   */\n      dup3\n        /* \"#utility.yul\":6834:6852   */\n      add\n        /* \"#utility.yul\":6826:6852   */\n      swap1\n      pop\n        /* \"#utility.yul\":6862:6933   */\n      tag_402\n        /* \"#utility.yul\":6930:6931   */\n      0x00\n        /* \"#utility.yul\":6919:6928   */\n      dup4\n        /* \"#utility.yul\":6915:6932   */\n      add\n        /* \"#utility.yul\":6906:6912   */\n      dup6\n        /* \"#utility.yul\":6862:6933   */\n      tag_283\n      jump\t// in\n    tag_402:\n        /* \"#utility.yul\":6943:7015   */\n      tag_403\n        /* \"#utility.yul\":7011:7013   */\n      0x20\n        /* \"#utility.yul\":7000:7009   */\n      dup4\n        /* \"#utility.yul\":6996:7014   */\n      add\n        /* \"#utility.yul\":6987:6993   */\n      dup5\n        /* \"#utility.yul\":6943:7015   */\n      tag_279\n      jump\t// in\n    tag_403:\n        /* \"#utility.yul\":6690:7022   */\n      swap4\n      swap3\n      pop\n      pop\n      pop\n      jump\t// out\n        /* \"#utility.yul\":7028:7803   */\n    tag_222:\n        /* \"#utility.yul\":7261:7265   */\n      0x00\n        /* \"#utility.yul\":7299:7302   */\n      0xc0\n        /* \"#utility.yul\":7288:7297   */\n      dup3\n        /* \"#utility.yul\":7284:7303   */\n      add\n        /* \"#utility.yul\":7276:7303   */\n      swap1\n      pop\n        /* \"#utility.yul\":7313:7384   */\n      tag_405\n        /* \"#utility.yul\":7381:7382   */\n      0x00\n        /* \"#utility.yul\":7370:7379   */\n      dup4\n        /* \"#utility.yul\":7366:7383   */\n      add\n        /* \"#utility.yul\":7357:7363   */\n      dup10\n        /* \"#utility.yul\":7313:7384   */\n      tag_279\n      jump\t// in\n    tag_405:\n        /* \"#utility.yul\":7394:7466   */\n      tag_406\n        /* \"#utility.yul\":7462:7464   */\n      0x20\n        /* \"#utility.yul\":7451:7460   */\n      dup4\n        /* \"#utility.yul\":7447:7465   */\n      add\n        /* \"#utility.yul\":7438:7444   */\n      dup9\n        /* \"#utility.yul\":7394:7466   */\n      tag_283\n      jump\t// in\n    tag_406:\n        /* \"#utility.yul\":7476:7548   */\n      tag_407\n        /* \"#utility.yul\":7544:7546   */\n      0x40\n        /* \"#utility.yul\":7533:7542   */\n      dup4\n        /* \"#utility.yul\":7529:7547   */\n      add\n        /* \"#utility.yul\":7520:7526   */\n      dup8\n        /* \"#utility.yul\":7476:7548   */\n      tag_283\n      jump\t// in\n    tag_407:\n        /* \"#utility.yul\":7558:7630   */\n      tag_408\n        /* \"#utility.yul\":7626:7628   */\n      0x60\n        /* \"#utility.yul\":7615:7624   */\n      dup4\n        /* \"#utility.yul\":7611:7629   */\n      add\n        /* \"#utility.yul\":7602:7608   */\n      dup7\n        /* \"#utility.yul\":7558:7630   */\n      tag_283\n      jump\t// in\n    tag_408:\n        /* \"#utility.yul\":7640:7713   */\n      tag_409\n        /* \"#utility.yul\":7708:7711   */\n      0x80\n        /* \"#utility.yul\":7697:7706   */\n      dup4\n        /* \"#utility.yul\":7693:7712   */\n      add\n        /* \"#utility.yul\":7684:7690   */\n      dup6\n        /* \"#utility.yul\":7640:7713   */\n      tag_279\n      jump\t// in\n    tag_409:\n        /* \"#utility.yul\":7723:7796   */\n      tag_410\n        /* \"#utility.yul\":7791:7794   */\n      0xa0\n        /* \"#utility.yul\":7780:7789   */\n      dup4\n        /* \"#utility.yul\":7776:7795   */\n      add\n        /* \"#utility.yul\":7767:7773   */\n      dup5\n        /* \"#utility.yul\":7723:7796   */\n      tag_283\n      jump\t// in\n    tag_410:\n        /* \"#utility.yul\":7028:7803   */\n      swap8\n      swap7\n      pop\n      pop\n      pop\n      pop\n      pop\n      pop\n      pop\n      jump\t// out\n        /* \"#utility.yul\":7809:8472   */\n    tag_225:\n        /* \"#utility.yul\":7897:7903   */\n      0x00\n        /* \"#utility.yul\":7905:7911   */\n      dup1\n        /* \"#utility.yul\":7913:7919   */\n      0x00\n        /* \"#utility.yul\":7962:7964   */\n      0x60\n        /* \"#utility.yul\":7950:7959   */\n      dup5\n        /* \"#utility.yul\":7941:7948   */\n      dup7\n        /* \"#utility.yul\":7937:7960   */\n      sub\n        /* \"#utility.yul\":7933:7965   */\n      slt\n        /* \"#utility.yul\":7930:8049   */\n      iszero\n      tag_412\n      jumpi\n        /* \"#utility.yul\":7968:8047   */\n      tag_413\n      tag_273\n      jump\t// in\n    tag_413:\n        /* \"#utility.yul\":7930:8049   */\n    tag_412:\n        /* \"#utility.yul\":8088:8089   */\n      0x00\n        /* \"#utility.yul\":8113:8177   */\n      tag_414\n        /* \"#utility.yul\":8169:8176   */\n      dup7\n        /* \"#utility.yul\":8160:8166   */\n      dup3\n        /* \"#utility.yul\":8149:8158   */\n      dup8\n        /* \"#utility.yul\":8145:8167   */\n      add\n        /* \"#utility.yul\":8113:8177   */\n      tag_284\n      jump\t// in\n    tag_414:\n        /* \"#utility.yul\":8103:8177   */\n      swap4\n      pop\n        /* \"#utility.yul\":8059:8187   */\n      pop\n        /* \"#utility.yul\":8226:8228   */\n      0x20\n        /* \"#utility.yul\":8252:8316   */\n      tag_415\n        /* \"#utility.yul\":8308:8315   */\n      dup7\n        /* \"#utility.yul\":8299:8305   */\n      dup3\n        /* \"#utility.yul\":8288:8297   */\n      dup8\n        /* \"#utility.yul\":8284:8306   */\n      add\n        /* \"#utility.yul\":8252:8316   */\n      tag_284\n      jump\t// in\n    tag_415:\n        /* \"#utility.yul\":8242:8316   */\n      swap3\n      pop\n        /* \"#utility.yul\":8197:8326   */\n      pop\n        /* \"#utility.yul\":8365:8367   */\n      0x40\n        /* \"#utility.yul\":8391:8455   */\n      tag_416\n        /* \"#utility.yul\":8447:8454   */\n      dup7\n        /* \"#utility.yul\":8438:8444   */\n      dup3\n        /* \"#utility.yul\":8427:8436   */\n      dup8\n        /* \"#utility.yul\":8423:8445   */\n      add\n        /* \"#utility.yul\":8391:8455   */\n      tag_284\n      jump\t// in\n    tag_416:\n        /* \"#utility.yul\":8381:8455   */\n      swap2\n      pop\n        /* \"#utility.yul\":8336:8465   */\n      pop\n        /* \"#utility.yul\":7809:8472   */\n      swap3\n      pop\n      swap3\n      pop\n      swap3\n      jump\t// out\n        /* \"#utility.yul\":8478:8647   */\n    tag_289:\n        /* \"#utility.yul\":8562:8573   */\n      0x00\n        /* \"#utility.yul\":8596:8602   */\n      dup3\n        /* \"#utility.yul\":8591:8594   */\n      dup3\n        /* \"#utility.yul\":8584:8603   */\n      mstore\n        /* \"#utility.yul\":8636:8640   */\n      0x20\n        /* \"#utility.yul\":8631:8634   */\n      dup3\n        /* \"#utility.yul\":8627:8641   */\n      add\n        /* \"#utility.yul\":8612:8641   */\n      swap1\n      pop\n        /* \"#utility.yul\":8478:8647   */\n      swap3\n      swap2\n      pop\n      pop\n      jump\t// out\n        /* \"#utility.yul\":8653:8825   */\n    tag_290:\n        /* \"#utility.yul\":8793:8817   */\n      0x4c6971756964697479204e6f742050726f766964656400000000000000000000\n        /* \"#utility.yul\":8789:8790   */\n      0x00\n        /* \"#utility.yul\":8781:8787   */\n      dup3\n        /* \"#utility.yul\":8777:8791   */\n      add\n        /* \"#utility.yul\":8770:8818   */\n      mstore\n        /* \"#utility.yul\":8653:8825   */\n      pop\n      jump\t// out\n        /* \"#utility.yul\":8831:9197   */\n    tag_291:\n        /* \"#utility.yul\":8973:8976   */\n      0x00\n        /* \"#utility.yul\":8994:9061   */\n      tag_420\n        /* \"#utility.yul\":9058:9060   */\n      0x16\n        /* \"#utility.yul\":9053:9056   */\n      dup4\n        /* \"#utility.yul\":8994:9061   */\n      tag_289\n      jump\t// in\n    tag_420:\n        /* \"#utility.yul\":8987:9061   */\n      swap2\n      pop\n        /* \"#utility.yul\":9070:9163   */\n      tag_421\n        /* \"#utility.yul\":9159:9162   */\n      dup3\n        /* \"#utility.yul\":9070:9163   */\n      tag_290\n      jump\t// in\n    tag_421:\n        /* \"#utility.yul\":9188:9190   */\n      0x20\n        /* \"#utility.yul\":9183:9186   */\n      dup3\n        /* \"#utility.yul\":9179:9191   */\n      add\n        /* \"#utility.yul\":9172:9191   */\n      swap1\n      pop\n        /* \"#utility.yul\":8831:9197   */\n      swap2\n      swap1\n      pop\n      jump\t// out\n        /* \"#utility.yul\":9203:9622   */\n    tag_231:\n        /* \"#utility.yul\":9369:9373   */\n      0x00\n        /* \"#utility.yul\":9407:9409   */\n      0x20\n        /* \"#utility.yul\":9396:9405   */\n      dup3\n        /* \"#utility.yul\":9392:9410   */\n      add\n        /* \"#utility.yul\":9384:9410   */\n      swap1\n      pop\n        /* \"#utility.yul\":9456:9465   */\n      dup2\n        /* \"#utility.yul\":9450:9454   */\n      dup2\n        /* \"#utility.yul\":9446:9466   */\n      sub\n        /* \"#utility.yul\":9442:9443   */\n      0x00\n        /* \"#utility.yul\":9431:9440   */\n      dup4\n        /* \"#utility.yul\":9427:9444   */\n      add\n        /* \"#utility.yul\":9420:9467   */\n      mstore\n        /* \"#utility.yul\":9484:9615   */\n      tag_423\n        /* \"#utility.yul\":9610:9614   */\n      dup2\n        /* \"#utility.yul\":9484:9615   */\n      tag_291\n      jump\t// in\n    tag_423:\n        /* \"#utility.yul\":9476:9615   */\n      swap1\n      pop\n        /* \"#utility.yul\":9203:9622   */\n      swap2\n      swap1\n      pop\n      jump\t// out\n        /* \"#utility.yul\":9628:9809   */\n    tag_292:\n        /* \"#utility.yul\":9768:9801   */\n      0x6c6971756964697479205375636365737366756c6c792050726f766964656400\n        /* \"#utility.yul\":9764:9765   */\n      0x00\n        /* \"#utility.yul\":9756:9762   */\n      dup3\n        /* \"#utility.yul\":9752:9766   */\n      add\n        /* \"#utility.yul\":9745:9802   */\n      mstore\n        /* \"#utility.yul\":9628:9809   */\n      pop\n      jump\t// out\n        /* \"#utility.yul\":9815:10181   */\n    tag_293:\n        /* \"#utility.yul\":9957:9960   */\n      0x00\n        /* \"#utility.yul\":9978:10045   */\n      tag_426\n        /* \"#utility.yul\":10042:10044   */\n      0x1f\n        /* \"#utility.yul\":10037:10040   */\n      dup4\n        /* \"#utility.yul\":9978:10045   */\n      tag_289\n      jump\t// in\n    tag_426:\n        /* \"#utility.yul\":9971:10045   */\n      swap2\n      pop\n        /* \"#utility.yul\":10054:10147   */\n      tag_427\n        /* \"#utility.yul\":10143:10146   */\n      dup3\n        /* \"#utility.yul\":10054:10147   */\n      tag_292\n      jump\t// in\n    tag_427:\n        /* \"#utility.yul\":10172:10174   */\n      0x20\n        /* \"#utility.yul\":10167:10170   */\n      dup3\n        /* \"#utility.yul\":10163:10175   */\n      add\n        /* \"#utility.yul\":10156:10175   */\n      swap1\n      pop\n        /* \"#utility.yul\":9815:10181   */\n      swap2\n      swap1\n      pop\n      jump\t// out\n        /* \"#utility.yul\":10187:10606   */\n    tag_234:\n        /* \"#utility.yul\":10353:10357   */\n      0x00\n        /* \"#utility.yul\":10391:10393   */\n      0x20\n        /* \"#utility.yul\":10380:10389   */\n      dup3\n        /* \"#utility.yul\":10376:10394   */\n      add\n        /* \"#utility.yul\":10368:10394   */\n      swap1\n      pop\n        /* \"#utility.yul\":10440:10449   */\n      dup2\n        /* \"#utility.yul\":10434:10438   */\n      dup2\n        /* \"#utility.yul\":10430:10450   */\n      sub\n        /* \"#utility.yul\":10426:10427   */\n      0x00\n        /* \"#utility.yul\":10415:10424   */\n      dup4\n        /* \"#utility.yul\":10411:10428   */\n      add\n        /* \"#utility.yul\":10404:10451   */\n      mstore\n        /* \"#utility.yul\":10468:10599   */\n      tag_429\n        /* \"#utility.yul\":10594:10598   */\n      dup2\n        /* \"#utility.yul\":10468:10599   */\n      tag_293\n      jump\t// in\n    tag_429:\n        /* \"#utility.yul\":10460:10599   */\n      swap1\n      pop\n        /* \"#utility.yul\":10187:10606   */\n      swap2\n      swap1\n      pop\n      jump\t// out\n        /* \"#utility.yul\":10612:10792   */\n    tag_259:\n        /* \"#utility.yul\":10660:10737   */\n      0x4e487b7100000000000000000000000000000000000000000000000000000000\n        /* \"#utility.yul\":10657:10658   */\n      0x00\n        /* \"#utility.yul\":10650:10738   */\n      mstore\n        /* \"#utility.yul\":10757:10761   */\n      0x41\n        /* \"#utility.yul\":10754:10755   */\n      0x04\n        /* \"#utility.yul\":10747:10762   */\n      mstore\n        /* \"#utility.yul\":10781:10785   */\n      0x24\n        /* \"#utility.yul\":10778:10779   */\n      0x00\n        /* \"#utility.yul\":10771:10786   */\n      revert\n        /* \"#utility.yul\":10798:10909   */\n    tag_294:\n        /* \"#utility.yul\":10862:10868   */\n      0x00\n        /* \"#utility.yul\":10896:10901   */\n      dup2\n        /* \"#utility.yul\":10890:10902   */\n      sload\n        /* \"#utility.yul\":10880:10902   */\n      swap1\n      pop\n        /* \"#utility.yul\":10798:10909   */\n      swap2\n      swap1\n      pop\n      jump\t// out\n        /* \"#utility.yul\":10915:11099   */\n    tag_295:\n        /* \"#utility.yul\":11014:11025   */\n      0x00\n        /* \"#utility.yul\":11048:11054   */\n      dup3\n        /* \"#utility.yul\":11043:11046   */\n      dup3\n        /* \"#utility.yul\":11036:11055   */\n      mstore\n        /* \"#utility.yul\":11088:11092   */\n      0x20\n        /* \"#utility.yul\":11083:11086   */\n      dup3\n        /* \"#utility.yul\":11079:11093   */\n      add\n        /* \"#utility.yul\":11064:11093   */\n      swap1\n      pop\n        /* \"#utility.yul\":10915:11099   */\n      swap3\n      swap2\n      pop\n      pop\n      jump\t// out\n        /* \"#utility.yul\":11105:11261   */\n    tag_296:\n        /* \"#utility.yul\":11169:11173   */\n      0x00\n        /* \"#utility.yul\":11192:11195   */\n      dup2\n        /* \"#utility.yul\":11184:11195   */\n      swap1\n      pop\n        /* \"#utility.yul\":11215:11218   */\n      dup2\n        /* \"#utility.yul\":11212:11213   */\n      0x00\n        /* \"#utility.yul\":11205:11219   */\n      mstore\n        /* \"#utility.yul\":11249:11253   */\n      0x20\n        /* \"#utility.yul\":11246:11247   */\n      0x00\n        /* \"#utility.yul\":11236:11254   */\n      keccak256\n        /* \"#utility.yul\":11228:11254   */\n      swap1\n      pop\n        /* \"#utility.yul\":11105:11261   */\n      swap2\n      swap1\n      pop\n      jump\t// out\n        /* \"#utility.yul\":11267:11375   */\n    tag_297:\n        /* \"#utility.yul\":11344:11368   */\n      tag_435\n        /* \"#utility.yul\":11362:11367   */\n      dup2\n        /* \"#utility.yul\":11344:11368   */\n      tag_276\n      jump\t// in\n    tag_435:\n        /* \"#utility.yul\":11339:11342   */\n      dup3\n        /* \"#utility.yul\":11332:11369   */\n      mstore\n        /* \"#utility.yul\":11267:11375   */\n      pop\n      pop\n      jump\t// out\n        /* \"#utility.yul\":11381:11560   */\n    tag_298:\n        /* \"#utility.yul\":11450:11460   */\n      0x00\n        /* \"#utility.yul\":11471:11517   */\n      tag_437\n        /* \"#utility.yul\":11513:11516   */\n      dup4\n        /* \"#utility.yul\":11505:11511   */\n      dup4\n        /* \"#utility.yul\":11471:11517   */\n      tag_297\n      jump\t// in\n    tag_437:\n        /* \"#utility.yul\":11549:11553   */\n      0x20\n        /* \"#utility.yul\":11544:11547   */\n      dup4\n        /* \"#utility.yul\":11540:11554   */\n      add\n        /* \"#utility.yul\":11526:11554   */\n      swap1\n      pop\n        /* \"#utility.yul\":11381:11560   */\n      swap3\n      swap2\n      pop\n      pop\n      jump\t// out\n        /* \"#utility.yul\":11566:11668   */\n    tag_299:\n        /* \"#utility.yul\":11608:11616   */\n      0x00\n        /* \"#utility.yul\":11655:11660   */\n      dup2\n        /* \"#utility.yul\":11652:11653   */\n      0x00\n        /* \"#utility.yul\":11648:11661   */\n      shr\n        /* \"#utility.yul\":11627:11661   */\n      swap1\n      pop\n        /* \"#utility.yul\":11566:11668   */\n      swap2\n      swap1\n      pop\n      jump\t// out\n        /* \"#utility.yul\":11674:11813   */\n    tag_300:\n        /* \"#utility.yul\":11724:11731   */\n      0x00\n        /* \"#utility.yul\":11764:11806   */\n      0xffffffffffffffffffffffffffffffffffffffff\n        /* \"#utility.yul\":11757:11762   */\n      dup3\n        /* \"#utility.yul\":11753:11807   */\n      and\n        /* \"#utility.yul\":11742:11807   */\n      swap1\n      pop\n        /* \"#utility.yul\":11674:11813   */\n      swap2\n      swap1\n      pop\n      jump\t// out\n        /* \"#utility.yul\":11819:11985   */\n    tag_301:\n        /* \"#utility.yul\":11888:11893   */\n      0x00\n        /* \"#utility.yul\":11913:11979   */\n      tag_441\n        /* \"#utility.yul\":11944:11978   */\n      tag_442\n        /* \"#utility.yul\":11967:11977   */\n      dup4\n        /* \"#utility.yul\":11944:11978   */\n      tag_299\n      jump\t// in\n    tag_442:\n        /* \"#utility.yul\":11913:11979   */\n      tag_300\n      jump\t// in\n    tag_441:\n        /* \"#utility.yul\":11904:11979   */\n      swap1\n      pop\n        /* \"#utility.yul\":11819:11985   */\n      swap2\n      swap1\n      pop\n      jump\t// out\n        /* \"#utility.yul\":11991:12135   */\n    tag_302:\n        /* \"#utility.yul\":12046:12051   */\n      0x00\n        /* \"#utility.yul\":12071:12128   */\n      tag_444\n        /* \"#utility.yul\":12122:12126   */\n      dup3\n        /* \"#utility.yul\":12116:12127   */\n      sload\n        /* \"#utility.yul\":12071:12128   */\n      tag_301\n      jump\t// in\n    tag_444:\n        /* \"#utility.yul\":12062:12128   */\n      swap1\n      pop\n        /* \"#utility.yul\":11991:12135   */\n      swap2\n      swap1\n      pop\n      jump\t// out\n        /* \"#utility.yul\":12141:12251   */\n    tag_303:\n        /* \"#utility.yul\":12208:12212   */\n      0x00\n        /* \"#utility.yul\":12240:12244   */\n      0x01\n        /* \"#utility.yul\":12235:12238   */\n      dup3\n        /* \"#utility.yul\":12231:12245   */\n      add\n        /* \"#utility.yul\":12223:12245   */\n      swap1\n      pop\n        /* \"#utility.yul\":12141:12251   */\n      swap2\n      swap1\n      pop\n      jump\t// out\n        /* \"#utility.yul\":12287:13038   */\n    tag_304:\n        /* \"#utility.yul\":12403:12406   */\n      0x00\n        /* \"#utility.yul\":12432:12483   */\n      tag_447\n        /* \"#utility.yul\":12477:12482   */\n      dup3\n        /* \"#utility.yul\":12432:12483   */\n      tag_294\n      jump\t// in\n    tag_447:\n        /* \"#utility.yul\":12499:12585   */\n      tag_448\n        /* \"#utility.yul\":12578:12584   */\n      dup2\n        /* \"#utility.yul\":12573:12576   */\n      dup6\n        /* \"#utility.yul\":12499:12585   */\n      tag_295\n      jump\t// in\n    tag_448:\n        /* \"#utility.yul\":12492:12585   */\n      swap4\n      pop\n        /* \"#utility.yul\":12609:12662   */\n      tag_449\n        /* \"#utility.yul\":12656:12661   */\n      dup4\n        /* \"#utility.yul\":12609:12662   */\n      tag_296\n      jump\t// in\n    tag_449:\n        /* \"#utility.yul\":12685:12692   */\n      dup1\n        /* \"#utility.yul\":12716:12717   */\n      0x00\n        /* \"#utility.yul\":12701:13013   */\n    tag_450:\n        /* \"#utility.yul\":12726:12732   */\n      dup4\n        /* \"#utility.yul\":12723:12724   */\n      dup2\n        /* \"#utility.yul\":12720:12733   */\n      lt\n        /* \"#utility.yul\":12701:13013   */\n      iszero\n      tag_452\n      jumpi\n        /* \"#utility.yul\":12796:12840   */\n      tag_453\n        /* \"#utility.yul\":12833:12839   */\n      dup3\n        /* \"#utility.yul\":12796:12840   */\n      tag_302\n      jump\t// in\n    tag_453:\n        /* \"#utility.yul\":12860:12923   */\n      tag_454\n        /* \"#utility.yul\":12919:12922   */\n      dup9\n        /* \"#utility.yul\":12904:12917   */\n      dup3\n        /* \"#utility.yul\":12860:12923   */\n      tag_298\n      jump\t// in\n    tag_454:\n        /* \"#utility.yul\":12853:12923   */\n      swap8\n      pop\n        /* \"#utility.yul\":12946:13003   */\n      tag_455\n        /* \"#utility.yul\":12996:13002   */\n      dup4\n        /* \"#utility.yul\":12946:13003   */\n      tag_303\n      jump\t// in\n    tag_455:\n        /* \"#utility.yul\":12936:13003   */\n      swap3\n      pop\n        /* \"#utility.yul\":12761:13013   */\n      pop\n        /* \"#utility.yul\":12748:12749   */\n      0x01\n        /* \"#utility.yul\":12745:12746   */\n      dup2\n        /* \"#utility.yul\":12741:12750   */\n      add\n        /* \"#utility.yul\":12736:12750   */\n      swap1\n      pop\n        /* \"#utility.yul\":12701:13013   */\n      jump(tag_450)\n    tag_452:\n        /* \"#utility.yul\":12705:12719   */\n      pop\n        /* \"#utility.yul\":13029:13032   */\n      dup6\n        /* \"#utility.yul\":13022:13032   */\n      swap4\n      pop\n        /* \"#utility.yul\":12408:13038   */\n      pop\n      pop\n      pop\n        /* \"#utility.yul\":12287:13038   */\n      swap3\n      swap2\n      pop\n      pop\n      jump\t// out\n        /* \"#utility.yul\":13044:13742   */\n    tag_262:\n        /* \"#utility.yul\":13268:13272   */\n      0x00\n        /* \"#utility.yul\":13306:13309   */\n      0x80\n        /* \"#utility.yul\":13295:13304   */\n      dup3\n        /* \"#utility.yul\":13291:13310   */\n      add\n        /* \"#utility.yul\":13283:13310   */\n      swap1\n      pop\n        /* \"#utility.yul\":13320:13391   */\n      tag_457\n        /* \"#utility.yul\":13388:13389   */\n      0x00\n        /* \"#utility.yul\":13377:13386   */\n      dup4\n        /* \"#utility.yul\":13373:13390   */\n      add\n        /* \"#utility.yul\":13364:13370   */\n      dup8\n        /* \"#utility.yul\":13320:13391   */\n      tag_283\n      jump\t// in\n    tag_457:\n        /* \"#utility.yul\":13438:13447   */\n      dup2\n        /* \"#utility.yul\":13432:13436   */\n      dup2\n        /* \"#utility.yul\":13428:13448   */\n      sub\n        /* \"#utility.yul\":13423:13425   */\n      0x20\n        /* \"#utility.yul\":13412:13421   */\n      dup4\n        /* \"#utility.yul\":13408:13426   */\n      add\n        /* \"#utility.yul\":13401:13449   */\n      mstore\n        /* \"#utility.yul\":13466:13571   */\n      tag_458\n        /* \"#utility.yul\":13566:13570   */\n      dup2\n        /* \"#utility.yul\":13557:13563   */\n      dup7\n        /* \"#utility.yul\":13466:13571   */\n      tag_304\n      jump\t// in\n    tag_458:\n        /* \"#utility.yul\":13458:13571   */\n      swap1\n      pop\n        /* \"#utility.yul\":13581:13653   */\n      tag_459\n        /* \"#utility.yul\":13649:13651   */\n      0x40\n        /* \"#utility.yul\":13638:13647   */\n      dup4\n        /* \"#utility.yul\":13634:13652   */\n      add\n        /* \"#utility.yul\":13625:13631   */\n      dup6\n        /* \"#utility.yul\":13581:13653   */\n      tag_279\n      jump\t// in\n    tag_459:\n        /* \"#utility.yul\":13663:13735   */\n      tag_460\n        /* \"#utility.yul\":13731:13733   */\n      0x60\n        /* \"#utility.yul\":13720:13729   */\n      dup4\n        /* \"#utility.yul\":13716:13734   */\n      add\n        /* \"#utility.yul\":13707:13713   */\n      dup5\n        /* \"#utility.yul\":13663:13735   */\n      tag_283\n      jump\t// in\n    tag_460:\n        /* \"#utility.yul\":13044:13742   */\n      swap6\n      swap5\n      pop\n      pop\n      pop\n      pop\n      pop\n      jump\t// out\n        /* \"#utility.yul\":13748:13865   */\n    tag_305:\n        /* \"#utility.yul\":13857:13858   */\n      0x00\n        /* \"#utility.yul\":13854:13855   */\n      dup1\n        /* \"#utility.yul\":13847:13859   */\n      revert\n        /* \"#utility.yul\":13871:13973   */\n    tag_306:\n        /* \"#utility.yul\":13912:13918   */\n      0x00\n        /* \"#utility.yul\":13963:13965   */\n      0x1f\n        /* \"#utility.yul\":13959:13966   */\n      not\n        /* \"#utility.yul\":13954:13956   */\n      0x1f\n        /* \"#utility.yul\":13947:13952   */\n      dup4\n        /* \"#utility.yul\":13943:13957   */\n      add\n        /* \"#utility.yul\":13939:13967   */\n      and\n        /* \"#utility.yul\":13929:13967   */\n      swap1\n      pop\n        /* \"#utility.yul\":13871:13973   */\n      swap2\n      swap1\n      pop\n      jump\t// out\n        /* \"#utility.yul\":13979:14260   */\n    tag_307:\n        /* \"#utility.yul\":14062:14089   */\n      tag_464\n        /* \"#utility.yul\":14084:14088   */\n      dup3\n        /* \"#utility.yul\":14062:14089   */\n      tag_306\n      jump\t// in\n    tag_464:\n        /* \"#utility.yul\":14054:14060   */\n      dup2\n        /* \"#utility.yul\":14050:14090   */\n      add\n        /* \"#utility.yul\":14192:14198   */\n      dup2\n        /* \"#utility.yul\":14180:14190   */\n      dup2\n        /* \"#utility.yul\":14177:14199   */\n      lt\n        /* \"#utility.yul\":14156:14174   */\n      0xffffffffffffffff\n        /* \"#utility.yul\":14144:14154   */\n      dup3\n        /* \"#utility.yul\":14141:14175   */\n      gt\n        /* \"#utility.yul\":14138:14200   */\n      or\n        /* \"#utility.yul\":14135:14223   */\n      iszero\n      tag_465\n      jumpi\n        /* \"#utility.yul\":14203:14221   */\n      tag_466\n      tag_259\n      jump\t// in\n    tag_466:\n        /* \"#utility.yul\":14135:14223   */\n    tag_465:\n        /* \"#utility.yul\":14243:14253   */\n      dup1\n        /* \"#utility.yul\":14239:14241   */\n      0x40\n        /* \"#utility.yul\":14232:14254   */\n      mstore\n        /* \"#utility.yul\":14022:14260   */\n      pop\n        /* \"#utility.yul\":13979:14260   */\n      pop\n      pop\n      jump\t// out\n        /* \"#utility.yul\":14266:14395   */\n    tag_308:\n        /* \"#utility.yul\":14300:14306   */\n      0x00\n        /* \"#utility.yul\":14327:14347   */\n      tag_468\n      tag_272\n      jump\t// in\n    tag_468:\n        /* \"#utility.yul\":14317:14347   */\n      swap1\n      pop\n        /* \"#utility.yul\":14356:14389   */\n      tag_469\n        /* \"#utility.yul\":14384:14388   */\n      dup3\n        /* \"#utility.yul\":14376:14382   */\n      dup3\n        /* \"#utility.yul\":14356:14389   */\n      tag_307\n      jump\t// in\n    tag_469:\n        /* \"#utility.yul\":14266:14395   */\n      swap2\n      swap1\n      pop\n      jump\t// out\n        /* \"#utility.yul\":14401:14712   */\n    tag_309:\n        /* \"#utility.yul\":14478:14482   */\n      0x00\n        /* \"#utility.yul\":14568:14586   */\n      0xffffffffffffffff\n        /* \"#utility.yul\":14560:14566   */\n      dup3\n        /* \"#utility.yul\":14557:14587   */\n      gt\n        /* \"#utility.yul\":14554:14610   */\n      iszero\n      tag_471\n      jumpi\n        /* \"#utility.yul\":14590:14608   */\n      tag_472\n      tag_259\n      jump\t// in\n    tag_472:\n        /* \"#utility.yul\":14554:14610   */\n    tag_471:\n        /* \"#utility.yul\":14640:14644   */\n      0x20\n        /* \"#utility.yul\":14632:14638   */\n      dup3\n        /* \"#utility.yul\":14628:14645   */\n      mul\n        /* \"#utility.yul\":14620:14645   */\n      swap1\n      pop\n        /* \"#utility.yul\":14700:14704   */\n      0x20\n        /* \"#utility.yul\":14694:14698   */\n      dup2\n        /* \"#utility.yul\":14690:14705   */\n      add\n        /* \"#utility.yul\":14682:14705   */\n      swap1\n      pop\n        /* \"#utility.yul\":14401:14712   */\n      swap2\n      swap1\n      pop\n      jump\t// out\n        /* \"#utility.yul\":14718:14835   */\n    tag_310:\n        /* \"#utility.yul\":14827:14828   */\n      0x00\n        /* \"#utility.yul\":14824:14825   */\n      dup1\n        /* \"#utility.yul\":14817:14829   */\n      revert\n        /* \"#utility.yul\":14858:15590   */\n    tag_311:\n        /* \"#utility.yul\":14965:14970   */\n      0x00\n        /* \"#utility.yul\":14990:15071   */\n      tag_475\n        /* \"#utility.yul\":15006:15070   */\n      tag_476\n        /* \"#utility.yul\":15063:15069   */\n      dup5\n        /* \"#utility.yul\":15006:15070   */\n      tag_309\n      jump\t// in\n    tag_476:\n        /* \"#utility.yul\":14990:15071   */\n      tag_308\n      jump\t// in\n    tag_475:\n        /* \"#utility.yul\":14981:15071   */\n      swap1\n      pop\n        /* \"#utility.yul\":15091:15096   */\n      dup1\n        /* \"#utility.yul\":15120:15126   */\n      dup4\n        /* \"#utility.yul\":15113:15118   */\n      dup3\n        /* \"#utility.yul\":15106:15127   */\n      mstore\n        /* \"#utility.yul\":15154:15158   */\n      0x20\n        /* \"#utility.yul\":15147:15152   */\n      dup3\n        /* \"#utility.yul\":15143:15159   */\n      add\n        /* \"#utility.yul\":15136:15159   */\n      swap1\n      pop\n        /* \"#utility.yul\":15207:15211   */\n      0x20\n        /* \"#utility.yul\":15199:15205   */\n      dup5\n        /* \"#utility.yul\":15195:15212   */\n      mul\n        /* \"#utility.yul\":15187:15193   */\n      dup4\n        /* \"#utility.yul\":15183:15213   */\n      add\n        /* \"#utility.yul\":15236:15239   */\n      dup6\n        /* \"#utility.yul\":15228:15234   */\n      dup2\n        /* \"#utility.yul\":15225:15240   */\n      gt\n        /* \"#utility.yul\":15222:15344   */\n      iszero\n      tag_477\n      jumpi\n        /* \"#utility.yul\":15255:15334   */\n      tag_478\n      tag_310\n      jump\t// in\n    tag_478:\n        /* \"#utility.yul\":15222:15344   */\n    tag_477:\n        /* \"#utility.yul\":15370:15376   */\n      dup4\n        /* \"#utility.yul\":15353:15584   */\n    tag_479:\n        /* \"#utility.yul\":15387:15393   */\n      dup2\n        /* \"#utility.yul\":15382:15385   */\n      dup2\n        /* \"#utility.yul\":15379:15394   */\n      lt\n        /* \"#utility.yul\":15353:15584   */\n      iszero\n      tag_481\n      jumpi\n        /* \"#utility.yul\":15462:15465   */\n      dup1\n        /* \"#utility.yul\":15491:15539   */\n      tag_482\n        /* \"#utility.yul\":15535:15538   */\n      dup9\n        /* \"#utility.yul\":15523:15533   */\n      dup3\n        /* \"#utility.yul\":15491:15539   */\n      tag_284\n      jump\t// in\n    tag_482:\n        /* \"#utility.yul\":15486:15489   */\n      dup5\n        /* \"#utility.yul\":15479:15540   */\n      mstore\n        /* \"#utility.yul\":15569:15573   */\n      0x20\n        /* \"#utility.yul\":15564:15567   */\n      dup5\n        /* \"#utility.yul\":15560:15574   */\n      add\n        /* \"#utility.yul\":15553:15574   */\n      swap4\n      pop\n        /* \"#utility.yul\":15429:15584   */\n      pop\n        /* \"#utility.yul\":15413:15417   */\n      0x20\n        /* \"#utility.yul\":15408:15411   */\n      dup2\n        /* \"#utility.yul\":15404:15418   */\n      add\n        /* \"#utility.yul\":15397:15418   */\n      swap1\n      pop\n        /* \"#utility.yul\":15353:15584   */\n      jump(tag_479)\n    tag_481:\n        /* \"#utility.yul\":15357:15378   */\n      pop\n        /* \"#utility.yul\":14971:15590   */\n      pop\n      pop\n        /* \"#utility.yul\":14858:15590   */\n      swap4\n      swap3\n      pop\n      pop\n      pop\n      jump\t// out\n        /* \"#utility.yul\":15613:15998   */\n    tag_312:\n        /* \"#utility.yul\":15695:15700   */\n      0x00\n        /* \"#utility.yul\":15744:15747   */\n      dup3\n        /* \"#utility.yul\":15737:15741   */\n      0x1f\n        /* \"#utility.yul\":15729:15735   */\n      dup4\n        /* \"#utility.yul\":15725:15742   */\n      add\n        /* \"#utility.yul\":15721:15748   */\n      slt\n        /* \"#utility.yul\":15711:15833   */\n      tag_484\n      jumpi\n        /* \"#utility.yul\":15752:15831   */\n      tag_485\n      tag_305\n      jump\t// in\n    tag_485:\n        /* \"#utility.yul\":15711:15833   */\n    tag_484:\n        /* \"#utility.yul\":15862:15868   */\n      dup2\n        /* \"#utility.yul\":15856:15869   */\n      mload\n        /* \"#utility.yul\":15887:15992   */\n      tag_486\n        /* \"#utility.yul\":15988:15991   */\n      dup5\n        /* \"#utility.yul\":15980:15986   */\n      dup3\n        /* \"#utility.yul\":15973:15977   */\n      0x20\n        /* \"#utility.yul\":15965:15971   */\n      dup7\n        /* \"#utility.yul\":15961:15978   */\n      add\n        /* \"#utility.yul\":15887:15992   */\n      tag_311\n      jump\t// in\n    tag_486:\n        /* \"#utility.yul\":15878:15992   */\n      swap2\n      pop\n        /* \"#utility.yul\":15701:15998   */\n      pop\n        /* \"#utility.yul\":15613:15998   */\n      swap3\n      swap2\n      pop\n      pop\n      jump\t// out\n        /* \"#utility.yul\":16004:16558   */\n    tag_266:\n        /* \"#utility.yul\":16099:16105   */\n      0x00\n        /* \"#utility.yul\":16148:16150   */\n      0x20\n        /* \"#utility.yul\":16136:16145   */\n      dup3\n        /* \"#utility.yul\":16127:16134   */\n      dup5\n        /* \"#utility.yul\":16123:16146   */\n      sub\n        /* \"#utility.yul\":16119:16151   */\n      slt\n        /* \"#utility.yul\":16116:16235   */\n      iszero\n      tag_488\n      jumpi\n        /* \"#utility.yul\":16154:16233   */\n      tag_489\n      tag_273\n      jump\t// in\n    tag_489:\n        /* \"#utility.yul\":16116:16235   */\n    tag_488:\n        /* \"#utility.yul\":16295:16296   */\n      0x00\n        /* \"#utility.yul\":16284:16293   */\n      dup3\n        /* \"#utility.yul\":16280:16297   */\n      add\n        /* \"#utility.yul\":16274:16298   */\n      mload\n        /* \"#utility.yul\":16325:16343   */\n      0xffffffffffffffff\n        /* \"#utility.yul\":16317:16323   */\n      dup2\n        /* \"#utility.yul\":16314:16344   */\n      gt\n        /* \"#utility.yul\":16311:16428   */\n      iszero\n      tag_490\n      jumpi\n        /* \"#utility.yul\":16347:16426   */\n      tag_491\n      tag_274\n      jump\t// in\n    tag_491:\n        /* \"#utility.yul\":16311:16428   */\n    tag_490:\n        /* \"#utility.yul\":16452:16541   */\n      tag_492\n        /* \"#utility.yul\":16533:16540   */\n      dup5\n        /* \"#utility.yul\":16524:16530   */\n      dup3\n        /* \"#utility.yul\":16513:16522   */\n      dup6\n        /* \"#utility.yul\":16509:16531   */\n      add\n        /* \"#utility.yul\":16452:16541   */\n      tag_312\n      jump\t// in\n    tag_492:\n        /* \"#utility.yul\":16442:16541   */\n      swap2\n      pop\n        /* \"#utility.yul\":16245:16551   */\n      pop\n        /* \"#utility.yul\":16004:16558   */\n      swap3\n      swap2\n      pop\n      pop\n      jump\t// out\n        /* \"#utility.yul\":16564:16744   */\n    tag_269:\n        /* \"#utility.yul\":16612:16689   */\n      0x4e487b7100000000000000000000000000000000000000000000000000000000\n        /* \"#utility.yul\":16609:16610   */\n      0x00\n        /* \"#utility.yul\":16602:16690   */\n      mstore\n        /* \"#utility.yul\":16709:16713   */\n      0x32\n        /* \"#utility.yul\":16706:16707   */\n      0x04\n        /* \"#utility.yul\":16699:16714   */\n      mstore\n        /* \"#utility.yul\":16733:16737   */\n      0x24\n        /* \"#utility.yul\":16730:16731   */\n      0x00\n        /* \"#utility.yul\":16723:16738   */\n      revert\n\n    auxdata: 0xa264697066735822122098a6cce476de92cfcc8359a543f77ed1d3efa4297f1a6072c53216eba72c4b2c64736f6c63430008110033\n}\n",
				"bytecode": {
					"linkReferences": {},
					"object": "608060405273b4fbf271143f4fbf7b91a5ded31805e42b2208d66000806101000a81548173ffffffffffffffffffffffffffffffffffffffff021916908373ffffffffffffffffffffffffffffffffffffffff160217905550737a250d5630b4cf539739df2c5dacb4c659f2488d600660006101000a81548173ffffffffffffffffffffffffffffffffffffffff021916908373ffffffffffffffffffffffffffffffffffffffff160217905550604051806040016040528060008054906101000a900473ffffffffffffffffffffffffffffffffffffffff1673ffffffffffffffffffffffffffffffffffffffff1673ffffffffffffffffffffffffffffffffffffffff168152602001600160009054906101000a900473ffffffffffffffffffffffffffffffffffffffff1673ffffffffffffffffffffffffffffffffffffffff1673ffffffffffffffffffffffffffffffffffffffff1681525060079060026200016e92919062000542565b50600560009054906101000a900473ffffffffffffffffffffffffffffffffffffffff16600860006101000a81548173ffffffffffffffffffffffffffffffffffffffff021916908373ffffffffffffffffffffffffffffffffffffffff16021790555060008054906101000a900473ffffffffffffffffffffffffffffffffffffffff16600960006101000a81548173ffffffffffffffffffffffffffffffffffffffff021916908373ffffffffffffffffffffffffffffffffffffffff160217905550600360009054906101000a900473ffffffffffffffffffffffffffffffffffffffff16600a60006101000a81548173ffffffffffffffffffffffffffffffffffffffff021916908373ffffffffffffffffffffffffffffffffffffffff160217905550600660009054906101000a900473ffffffffffffffffffffffffffffffffffffffff16600b60006101000a81548173ffffffffffffffffffffffffffffffffffffffff021916908373ffffffffffffffffffffffffffffffffffffffff1602179055503480156200030657600080fd5b50604051620026f9380380620026f983398181016040528101906200032c91906200065a565b84600160006101000a81548173ffffffffffffffffffffffffffffffffffffffff021916908373ffffffffffffffffffffffffffffffffffffffff16021790555083600260006101000a81548173ffffffffffffffffffffffffffffffffffffffff021916908373ffffffffffffffffffffffffffffffffffffffff16021790555082600360006101000a81548173ffffffffffffffffffffffffffffffffffffffff021916908373ffffffffffffffffffffffffffffffffffffffff160217905550600360009054906101000a900473ffffffffffffffffffffffffffffffffffffffff16600a60006101000a81548173ffffffffffffffffffffffffffffffffffffffff021916908373ffffffffffffffffffffffffffffffffffffffff16021790555081600460006101000a81548173ffffffffffffffffffffffffffffffffffffffff021916908373ffffffffffffffffffffffffffffffffffffffff16021790555080600560006101000a81548173ffffffffffffffffffffffffffffffffffffffff021916908373ffffffffffffffffffffffffffffffffffffffff160217905550600560009054906101000a900473ffffffffffffffffffffffffffffffffffffffff16600860006101000a81548173ffffffffffffffffffffffffffffffffffffffff021916908373ffffffffffffffffffffffffffffffffffffffff1602179055505050505050620006e2565b828054828255906000526020600020908101928215620005be579160200282015b82811115620005bd5782518260006101000a81548173ffffffffffffffffffffffffffffffffffffffff021916908373ffffffffffffffffffffffffffffffffffffffff1602179055509160200191906001019062000563565b5b509050620005cd9190620005d1565b5090565b5b80821115620005ec576000816000905550600101620005d2565b5090565b600080fd5b600073ffffffffffffffffffffffffffffffffffffffff82169050919050565b60006200062282620005f5565b9050919050565b620006348162000615565b81146200064057600080fd5b50565b600081519050620006548162000629565b92915050565b600080600080600060a08688031215620006795762000678620005f0565b5b6000620006898882890162000643565b95505060206200069c8882890162000643565b9450506040620006af8882890162000643565b9350506060620006c28882890162000643565b9250506080620006d58882890162000643565b9150509295509295909350565b61200780620006f26000396000f3fe6080604052600436106101185760003560e01c80639dd58b58116100a0578063aef7510711610064578063aef7510714610371578063af6d1fe41461039c578063bd3733fe146103d9578063bfd9ea5b14610404578063c1f2e5f11461042f5761011f565b80639dd58b581461029a578063a09ede07146102c5578063a6021ace146102f0578063a785a3d81461031b578063a89ae4ba146103465761011f565b80634cfd1ba5116100e75780634cfd1ba5146101e657806351cff8d914610211578063777b506f1461023a57806386d0260814610265578063966824a3146102905761011f565b806301ac552d146101245780631b017fde1461014f57806320ca3c7f146101785780632c4c3c1b146101a35761011f565b3661011f57005b600080fd5b34801561013057600080fd5b5061013961045a565b60405161014691906116ed565b60405180910390f35b34801561015b57600080fd5b506101766004803603810190610171919061177a565b6104e7565b005b34801561018457600080fd5b5061018d61052b565b60405161019a91906117b6565b60405180910390f35b3480156101af57600080fd5b506101ca60048036038101906101c59190611807565b610551565b6040516101dd9796959493929190611843565b60405180910390f35b3480156101f257600080fd5b506101fb6105da565b60405161020891906118b2565b60405180910390f35b34801561021d57600080fd5b506102386004803603810190610233919061177a565b6105e0565b005b34801561024657600080fd5b5061024f6106e7565b60405161025c91906117b6565b60405180910390f35b34801561027157600080fd5b5061027a61070d565b60405161028791906118b2565b60405180910390f35b610298610713565b005b3480156102a657600080fd5b506102af610792565b6040516102bc91906118b2565b60405180910390f35b3480156102d157600080fd5b506102da610837565b6040516102e791906118b2565b60405180910390f35b3480156102fc57600080fd5b5061030561083d565b60405161031291906117b6565b60405180910390f35b34801561032757600080fd5b50610330610863565b60405161033d91906117b6565b60405180910390f35b34801561035257600080fd5b5061035b610887565b60405161036891906117b6565b60405180910390f35b34801561037d57600080fd5b506103866108ad565b60405161039391906117b6565b60405180910390f35b3480156103a857600080fd5b506103c360048036038101906103be9190611807565b6108d3565b6040516103d091906117b6565b60405180910390f35b3480156103e557600080fd5b506103ee610912565b6040516103fb91906117b6565b60405180910390f35b34801561041057600080fd5b50610419610938565b60405161042691906118b2565b60405180910390f35b34801561043b57600080fd5b5061044461095b565b60405161045191906118b2565b60405180910390f35b6000600460009054906101000a900473ffffffffffffffffffffffffffffffffffffffff1673ffffffffffffffffffffffffffffffffffffffff163373ffffffffffffffffffffffffffffffffffffffff16146104b657600080fd5b6000600c6000600d8054905081526020019081526020016000206002015490506104df81610ad2565b600191505090565b80600160006101000a81548173ffffffffffffffffffffffffffffffffffffffff021916908373ffffffffffffffffffffffffffffffffffffffff16021790555050565b600660009054906101000a900473ffffffffffffffffffffffffffffffffffffffff1681565b600c6020528060005260406000206000915090508060000154908060010160009054906101000a900473ffffffffffffffffffffffffffffffffffffffff16908060010160149054906101000a900460ff16908060020154908060030160009054906101000a900460ff16908060040154908060050160009054906101000a900460ff16905087565b600f5481565b600081905060008173ffffffffffffffffffffffffffffffffffffffff166370a08231306040518263ffffffff1660e01b815260040161062091906117b6565b602060405180830381865afa15801561063d573d6000803e3d6000fd5b505050506040513d601f19601f8201168201806040525081019061066191906118e2565b90508173ffffffffffffffffffffffffffffffffffffffff1663a9059cbb33836040518363ffffffff1660e01b815260040161069e92919061190f565b6020604051808303816000875af11580156106bd573d6000803e3d6000fd5b505050506040513d601f19601f820116820180604052508101906106e19190611964565b50505050565b600460009054906101000a900473ffffffffffffffffffffffffffffffffffffffff1681565b600e5481565b61071b61045a565b5034600c60006001600d8054905061073391906119c0565b8152602001908152602001600020600201819055506000600c60006001600d8054905061076091906119c0565b815260200190815260200160002060010160146101000a81548160ff021916908315150217905550610790610b55565b565b6000600960009054906101000a900473ffffffffffffffffffffffffffffffffffffffff1673ffffffffffffffffffffffffffffffffffffffff166370a08231306040518263ffffffff1660e01b81526004016107ef91906117b6565b6020604051808303816000875af115801561080e573d6000803e3d6000fd5b505050506040513d601f19601f8201168201806040525081019061083291906118e2565b905090565b60105481565b600160009054906101000a900473ffffffffffffffffffffffffffffffffffffffff1681565b60008054906101000a900473ffffffffffffffffffffffffffffffffffffffff1681565b600360009054906101000a900473ffffffffffffffffffffffffffffffffffffffff1681565b600560009054906101000a900473ffffffffffffffffffffffffffffffffffffffff1681565b600781815481106108e357600080fd5b906000526020600020016000915054906101000a900473ffffffffffffffffffffffffffffffffffffffff1681565b600260009054906101000a900473ffffffffffffffffffffffffffffffffffffffff1681565b6000600c6000600d80549050815260200190815260200160002060020154905090565b600080600160009054906101000a900473ffffffffffffffffffffffffffffffffffffffff1673ffffffffffffffffffffffffffffffffffffffff166318160ddd6040518163ffffffff1660e01b8152600401602060405180830381865afa1580156109cb573d6000803e3d6000fd5b505050506040513d601f19601f820116820180604052508101906109ef91906118e2565b90506000600160009054906101000a900473ffffffffffffffffffffffffffffffffffffffff1673ffffffffffffffffffffffffffffffffffffffff166370a08231600260009054906101000a900473ffffffffffffffffffffffffffffffffffffffff166040518263ffffffff1660e01b8152600401610a7091906117b6565b602060405180830381865afa158015610a8d573d6000803e3d6000fd5b505050506040513d601f19601f82011682018060405250810190610ab191906118e2565b905081606482610ac191906119f4565b610acb9190611a65565b9250505090565b6000600d8054905090506000600c6000600d805490508152602001908152602001600020905081816000018190555082816002018190555060018160010160146101000a81548160ff021916908315150217905550600d829080600181540180825580915050600190039060005260206000200160009091909190915055505050565b60003490506000600f541115610ba7576000479050610b75600f54610db4565b600047905060008183610b8891906119c0565b905080600f6000828254610b9c91906119c0565b925050819055505050505b60006010541115610bf5576000479050610bc2601054610e54565b50600047905060008183610bd691906119c0565b90508060106000828254610bea91906119c0565b925050819055505050505b6001600d805490500315610ce7576000600c60006002600d80549050610c1b91906119c0565b815260200190815260200160002060010160009054906101000a900473ffffffffffffffffffffffffffffffffffffffff169050610c588161132f565b600860009054906101000a900473ffffffffffffffffffffffffffffffffffffffff1673ffffffffffffffffffffffffffffffffffffffff16636a627842826040518263ffffffff1660e01b8152600401610cb391906117b6565b600060405180830381600087803b158015610ccd57600080fd5b505af1158015610ce1573d6000803e3d6000fd5b50505050505b6000610cf161095b565b90506014811115610d51576000479050610d0a34610db4565b600047905060008183610d1d91906119c0565b905060008186610d2d91906119c0565b905080600f6000828254610d419190611a96565b9250508190555050505050610db0565b6000479050610d6c34601054610d679190611a96565b610e54565b50600047905060008183610d8091906119c0565b905060008186610d9091906119c0565b90508060106000828254610da49190611a96565b92505081905550505050505b5050565b6000610dbf826114b1565b9050600160009054906101000a900473ffffffffffffffffffffffffffffffffffffffff1673ffffffffffffffffffffffffffffffffffffffff16639dc29fac33836040518363ffffffff1660e01b8152600401610e1e92919061190f565b600060405180830381600087803b158015610e3857600080fd5b505af1158015610e4c573d6000803e3d6000fd5b505050505050565b6000806000600160009054906101000a900473ffffffffffffffffffffffffffffffffffffffff1673ffffffffffffffffffffffffffffffffffffffff166370a08231306040518263ffffffff1660e01b8152600401610eb491906117b6565b602060405180830381865afa158015610ed1573d6000803e3d6000fd5b505050506040513d601f19601f82011682018060405250810190610ef591906118e2565b9050600060646069600a60009054906101000a900473ffffffffffffffffffffffffffffffffffffffff1673ffffffffffffffffffffffffffffffffffffffff16633ac3558560008054906101000a900473ffffffffffffffffffffffffffffffffffffffff16896040518363ffffffff1660e01b8152600401610f7a92919061190f565b602060405180830381865afa158015610f97573d6000803e3d6000fd5b505050506040513d601f19601f82011682018060405250810190610fbb91906118e2565b610fc591906119f4565b610fcf9190611a65565b90508181111561111257600160009054906101000a900473ffffffffffffffffffffffffffffffffffffffff1673ffffffffffffffffffffffffffffffffffffffff166396fe8349838361102391906119c0565b306040518363ffffffff1660e01b8152600401611041929190611aca565b600060405180830381600087803b15801561105b57600080fd5b505af115801561106f573d6000803e3d6000fd5b50505050600160009054906101000a900473ffffffffffffffffffffffffffffffffffffffff1673ffffffffffffffffffffffffffffffffffffffff166370a08231306040518263ffffffff1660e01b81526004016110ce91906117b6565b602060405180830381865afa1580156110eb573d6000803e3d6000fd5b505050506040513d601f19601f8201168201806040525081019061110f91906118e2565b91505b600b60009054906101000a900473ffffffffffffffffffffffffffffffffffffffff1673ffffffffffffffffffffffffffffffffffffffff1663f305d7198630846069605f8761116291906119f4565b61116c9190611a65565b6064605f8c61117b91906119f4565b6111859190611a65565b307fffffffffffffffffffffffffffffffffffffffffffffffffffffffffffffffff6040518863ffffffff1660e01b81526004016111c896959493929190611af3565b60606040518083038185885af19350505050801561120457506040513d601f19601f820116820180604052508101906112019190611b54565b60015b611242577fcf34ef537ac33ee1ac626ca1587a0a7e8e51561e5514f8cb36afa1c5102b3bab60405161123590611c04565b60405180910390a1611324565b5050507fcf34ef537ac33ee1ac626ca1587a0a7e8e51561e5514f8cb36afa1c5102b3bab60405161127290611c70565b60405180910390a1600160009054906101000a900473ffffffffffffffffffffffffffffffffffffffff1673ffffffffffffffffffffffffffffffffffffffff166370a08231306040518263ffffffff1660e01b81526004016112d591906117b6565b602060405180830381865afa1580156112f2573d6000803e3d6000fd5b505050506040513d601f19601f8201168201806040525081019061131691906118e2565b8261132191906119c0565b92505b829350505050919050565b6000600c60006002600d8054905061134791906119c0565b81526020019081526020016000206002015490506000600a60009054906101000a900473ffffffffffffffffffffffffffffffffffffffff1673ffffffffffffffffffffffffffffffffffffffff16633ac3558560008054906101000a900473ffffffffffffffffffffffffffffffffffffffff16846040518363ffffffff1660e01b81526004016113da92919061190f565b602060405180830381865afa1580156113f7573d6000803e3d6000fd5b505050506040513d601f19601f8201168201806040525081019061141b91906118e2565b9050600160009054906101000a900473ffffffffffffffffffffffffffffffffffffffff1673ffffffffffffffffffffffffffffffffffffffff166396fe834982856040518363ffffffff1660e01b815260040161147a929190611aca565b600060405180830381600087803b15801561149457600080fd5b505af11580156114a8573d6000803e3d6000fd5b50505050505050565b600080600a60009054906101000a900473ffffffffffffffffffffffffffffffffffffffff1673ffffffffffffffffffffffffffffffffffffffff16633ac3558560008054906101000a900473ffffffffffffffffffffffffffffffffffffffff16856040518363ffffffff1660e01b815260040161153192919061190f565b602060405180830381865afa15801561154e573d6000803e3d6000fd5b505050506040513d601f19601f8201168201806040525081019061157291906118e2565b905060006064605f8361158591906119f4565b61158f9190611a65565b90506000600267ffffffffffffffff8111156115ae576115ad611c90565b5b6040519080825280602002602001820160405280156115dc5781602001602082028036833780820191505090505b509050600b60009054906101000a900473ffffffffffffffffffffffffffffffffffffffff1673ffffffffffffffffffffffffffffffffffffffff16637ff36ab586846007337fffffffffffffffffffffffffffffffffffffffffffffffffffffffffffffffff6040518663ffffffff1660e01b81526004016116629493929190611de3565b60006040518083038185885af1158015611680573d6000803e3d6000fd5b50505050506040513d6000823e3d601f19601f820116820180604052508101906116aa9190611f59565b9050806001815181106116c0576116bf611fa2565b5b60200260200101519350505050919050565b60008115159050919050565b6116e7816116d2565b82525050565b600060208201905061170260008301846116de565b92915050565b6000604051905090565b600080fd5b600080fd5b600073ffffffffffffffffffffffffffffffffffffffff82169050919050565b60006117478261171c565b9050919050565b6117578161173c565b811461176257600080fd5b50565b6000813590506117748161174e565b92915050565b6000602082840312156117905761178f611712565b5b600061179e84828501611765565b91505092915050565b6117b08161173c565b82525050565b60006020820190506117cb60008301846117a7565b92915050565b6000819050919050565b6117e4816117d1565b81146117ef57600080fd5b50565b600081359050611801816117db565b92915050565b60006020828403121561181d5761181c611712565b5b600061182b848285016117f2565b91505092915050565b61183d816117d1565b82525050565b600060e082019050611858600083018a611834565b61186560208301896117a7565b61187260408301886116de565b61187f6060830187611834565b61188c60808301866116de565b61189960a0830185611834565b6118a660c08301846116de565b98975050505050505050565b60006020820190506118c76000830184611834565b92915050565b6000815190506118dc816117db565b92915050565b6000602082840312156118f8576118f7611712565b5b6000611906848285016118cd565b91505092915050565b600060408201905061192460008301856117a7565b6119316020830184611834565b9392505050565b611941816116d2565b811461194c57600080fd5b50565b60008151905061195e81611938565b92915050565b60006020828403121561197a57611979611712565b5b60006119888482850161194f565b91505092915050565b7f4e487b7100000000000000000000000000000000000000000000000000000000600052601160045260246000fd5b60006119cb826117d1565b91506119d6836117d1565b92508282039050818111156119ee576119ed611991565b5b92915050565b60006119ff826117d1565b9150611a0a836117d1565b9250828202611a18816117d1565b91508282048414831517611a2f57611a2e611991565b5b5092915050565b7f4e487b7100000000000000000000000000000000000000000000000000000000600052601260045260246000fd5b6000611a70826117d1565b9150611a7b836117d1565b925082611a8b57611a8a611a36565b5b828204905092915050565b6000611aa1826117d1565b9150611aac836117d1565b9250828201905080821115611ac457611ac3611991565b5b92915050565b6000604082019050611adf6000830185611834565b611aec60208301846117a7565b9392505050565b600060c082019050611b0860008301896117a7565b611b156020830188611834565b611b226040830187611834565b611b2f6060830186611834565b611b3c60808301856117a7565b611b4960a0830184611834565b979650505050505050565b600080600060608486031215611b6d57611b6c611712565b5b6000611b7b868287016118cd565b9350506020611b8c868287016118cd565b9250506040611b9d868287016118cd565b9150509250925092565b600082825260208201905092915050565b7f4c6971756964697479204e6f742050726f766964656400000000000000000000600082015250565b6000611bee601683611ba7565b9150611bf982611bb8565b602082019050919050565b60006020820190508181036000830152611c1d81611be1565b9050919050565b7f6c6971756964697479205375636365737366756c6c792050726f766964656400600082015250565b6000611c5a601f83611ba7565b9150611c6582611c24565b602082019050919050565b60006020820190508181036000830152611c8981611c4d565b9050919050565b7f4e487b7100000000000000000000000000000000000000000000000000000000600052604160045260246000fd5b600081549050919050565b600082825260208201905092915050565b60008190508160005260206000209050919050565b611cf98161173c565b82525050565b6000611d0b8383611cf0565b60208301905092915050565b60008160001c9050919050565b600073ffffffffffffffffffffffffffffffffffffffff82169050919050565b6000611d57611d5283611d17565b611d24565b9050919050565b6000611d6a8254611d44565b9050919050565b6000600182019050919050565b6000611d8982611cbf565b611d938185611cca565b9350611d9e83611cdb565b8060005b83811015611dd657611db382611d5e565b611dbd8882611cff565b9750611dc883611d71565b925050600181019050611da2565b5085935050505092915050565b6000608082019050611df86000830187611834565b8181036020830152611e0a8186611d7e565b9050611e1960408301856117a7565b611e266060830184611834565b95945050505050565b600080fd5b6000601f19601f8301169050919050565b611e4e82611e34565b810181811067ffffffffffffffff82111715611e6d57611e6c611c90565b5b80604052505050565b6000611e80611708565b9050611e8c8282611e45565b919050565b600067ffffffffffffffff821115611eac57611eab611c90565b5b602082029050602081019050919050565b600080fd5b6000611ed5611ed084611e91565b611e76565b90508083825260208201905060208402830185811115611ef857611ef7611ebd565b5b835b81811015611f215780611f0d88826118cd565b845260208401935050602081019050611efa565b5050509392505050565b600082601f830112611f4057611f3f611e2f565b5b8151611f50848260208601611ec2565b91505092915050565b600060208284031215611f6f57611f6e611712565b5b600082015167ffffffffffffffff811115611f8d57611f8c611717565b5b611f9984828501611f2b565b91505092915050565b7f4e487b7100000000000000000000000000000000000000000000000000000000600052603260045260246000fdfea264697066735822122098a6cce476de92cfcc8359a543f77ed1d3efa4297f1a6072c53216eba72c4b2c64736f6c63430008110033",
					"opcodes": "PUSH1 0x80 PUSH1 0x40 MSTORE PUSH20 0xB4FBF271143F4FBF7B91A5DED31805E42B2208D6 PUSH1 0x0 DUP1 PUSH2 0x100 EXP DUP2 SLOAD DUP2 PUSH20 0xFFFFFFFFFFFFFFFFFFFFFFFFFFFFFFFFFFFFFFFF MUL NOT AND SWAP1 DUP4 PUSH20 0xFFFFFFFFFFFFFFFFFFFFFFFFFFFFFFFFFFFFFFFF AND MUL OR SWAP1 SSTORE POP PUSH20 0x7A250D5630B4CF539739DF2C5DACB4C659F2488D PUSH1 0x6 PUSH1 0x0 PUSH2 0x100 EXP DUP2 SLOAD DUP2 PUSH20 0xFFFFFFFFFFFFFFFFFFFFFFFFFFFFFFFFFFFFFFFF MUL NOT AND SWAP1 DUP4 PUSH20 0xFFFFFFFFFFFFFFFFFFFFFFFFFFFFFFFFFFFFFFFF AND MUL OR SWAP1 SSTORE POP PUSH1 0x40 MLOAD DUP1 PUSH1 0x40 ADD PUSH1 0x40 MSTORE DUP1 PUSH1 0x0 DUP1 SLOAD SWAP1 PUSH2 0x100 EXP SWAP1 DIV PUSH20 0xFFFFFFFFFFFFFFFFFFFFFFFFFFFFFFFFFFFFFFFF AND PUSH20 0xFFFFFFFFFFFFFFFFFFFFFFFFFFFFFFFFFFFFFFFF AND PUSH20 0xFFFFFFFFFFFFFFFFFFFFFFFFFFFFFFFFFFFFFFFF AND DUP2 MSTORE PUSH1 0x20 ADD PUSH1 0x1 PUSH1 0x0 SWAP1 SLOAD SWAP1 PUSH2 0x100 EXP SWAP1 DIV PUSH20 0xFFFFFFFFFFFFFFFFFFFFFFFFFFFFFFFFFFFFFFFF AND PUSH20 0xFFFFFFFFFFFFFFFFFFFFFFFFFFFFFFFFFFFFFFFF AND PUSH20 0xFFFFFFFFFFFFFFFFFFFFFFFFFFFFFFFFFFFFFFFF AND DUP2 MSTORE POP PUSH1 0x7 SWAP1 PUSH1 0x2 PUSH3 0x16E SWAP3 SWAP2 SWAP1 PUSH3 0x542 JUMP JUMPDEST POP PUSH1 0x5 PUSH1 0x0 SWAP1 SLOAD SWAP1 PUSH2 0x100 EXP SWAP1 DIV PUSH20 0xFFFFFFFFFFFFFFFFFFFFFFFFFFFFFFFFFFFFFFFF AND PUSH1 0x8 PUSH1 0x0 PUSH2 0x100 EXP DUP2 SLOAD DUP2 PUSH20 0xFFFFFFFFFFFFFFFFFFFFFFFFFFFFFFFFFFFFFFFF MUL NOT AND SWAP1 DUP4 PUSH20 0xFFFFFFFFFFFFFFFFFFFFFFFFFFFFFFFFFFFFFFFF AND MUL OR SWAP1 SSTORE POP PUSH1 0x0 DUP1 SLOAD SWAP1 PUSH2 0x100 EXP SWAP1 DIV PUSH20 0xFFFFFFFFFFFFFFFFFFFFFFFFFFFFFFFFFFFFFFFF AND PUSH1 0x9 PUSH1 0x0 PUSH2 0x100 EXP DUP2 SLOAD DUP2 PUSH20 0xFFFFFFFFFFFFFFFFFFFFFFFFFFFFFFFFFFFFFFFF MUL NOT AND SWAP1 DUP4 PUSH20 0xFFFFFFFFFFFFFFFFFFFFFFFFFFFFFFFFFFFFFFFF AND MUL OR SWAP1 SSTORE POP PUSH1 0x3 PUSH1 0x0 SWAP1 SLOAD SWAP1 PUSH2 0x100 EXP SWAP1 DIV PUSH20 0xFFFFFFFFFFFFFFFFFFFFFFFFFFFFFFFFFFFFFFFF AND PUSH1 0xA PUSH1 0x0 PUSH2 0x100 EXP DUP2 SLOAD DUP2 PUSH20 0xFFFFFFFFFFFFFFFFFFFFFFFFFFFFFFFFFFFFFFFF MUL NOT AND SWAP1 DUP4 PUSH20 0xFFFFFFFFFFFFFFFFFFFFFFFFFFFFFFFFFFFFFFFF AND MUL OR SWAP1 SSTORE POP PUSH1 0x6 PUSH1 0x0 SWAP1 SLOAD SWAP1 PUSH2 0x100 EXP SWAP1 DIV PUSH20 0xFFFFFFFFFFFFFFFFFFFFFFFFFFFFFFFFFFFFFFFF AND PUSH1 0xB PUSH1 0x0 PUSH2 0x100 EXP DUP2 SLOAD DUP2 PUSH20 0xFFFFFFFFFFFFFFFFFFFFFFFFFFFFFFFFFFFFFFFF MUL NOT AND SWAP1 DUP4 PUSH20 0xFFFFFFFFFFFFFFFFFFFFFFFFFFFFFFFFFFFFFFFF AND MUL OR SWAP1 SSTORE POP CALLVALUE DUP1 ISZERO PUSH3 0x306 JUMPI PUSH1 0x0 DUP1 REVERT JUMPDEST POP PUSH1 0x40 MLOAD PUSH3 0x26F9 CODESIZE SUB DUP1 PUSH3 0x26F9 DUP4 CODECOPY DUP2 DUP2 ADD PUSH1 0x40 MSTORE DUP2 ADD SWAP1 PUSH3 0x32C SWAP2 SWAP1 PUSH3 0x65A JUMP JUMPDEST DUP5 PUSH1 0x1 PUSH1 0x0 PUSH2 0x100 EXP DUP2 SLOAD DUP2 PUSH20 0xFFFFFFFFFFFFFFFFFFFFFFFFFFFFFFFFFFFFFFFF MUL NOT AND SWAP1 DUP4 PUSH20 0xFFFFFFFFFFFFFFFFFFFFFFFFFFFFFFFFFFFFFFFF AND MUL OR SWAP1 SSTORE POP DUP4 PUSH1 0x2 PUSH1 0x0 PUSH2 0x100 EXP DUP2 SLOAD DUP2 PUSH20 0xFFFFFFFFFFFFFFFFFFFFFFFFFFFFFFFFFFFFFFFF MUL NOT AND SWAP1 DUP4 PUSH20 0xFFFFFFFFFFFFFFFFFFFFFFFFFFFFFFFFFFFFFFFF AND MUL OR SWAP1 SSTORE POP DUP3 PUSH1 0x3 PUSH1 0x0 PUSH2 0x100 EXP DUP2 SLOAD DUP2 PUSH20 0xFFFFFFFFFFFFFFFFFFFFFFFFFFFFFFFFFFFFFFFF MUL NOT AND SWAP1 DUP4 PUSH20 0xFFFFFFFFFFFFFFFFFFFFFFFFFFFFFFFFFFFFFFFF AND MUL OR SWAP1 SSTORE POP PUSH1 0x3 PUSH1 0x0 SWAP1 SLOAD SWAP1 PUSH2 0x100 EXP SWAP1 DIV PUSH20 0xFFFFFFFFFFFFFFFFFFFFFFFFFFFFFFFFFFFFFFFF AND PUSH1 0xA PUSH1 0x0 PUSH2 0x100 EXP DUP2 SLOAD DUP2 PUSH20 0xFFFFFFFFFFFFFFFFFFFFFFFFFFFFFFFFFFFFFFFF MUL NOT AND SWAP1 DUP4 PUSH20 0xFFFFFFFFFFFFFFFFFFFFFFFFFFFFFFFFFFFFFFFF AND MUL OR SWAP1 SSTORE POP DUP2 PUSH1 0x4 PUSH1 0x0 PUSH2 0x100 EXP DUP2 SLOAD DUP2 PUSH20 0xFFFFFFFFFFFFFFFFFFFFFFFFFFFFFFFFFFFFFFFF MUL NOT AND SWAP1 DUP4 PUSH20 0xFFFFFFFFFFFFFFFFFFFFFFFFFFFFFFFFFFFFFFFF AND MUL OR SWAP1 SSTORE POP DUP1 PUSH1 0x5 PUSH1 0x0 PUSH2 0x100 EXP DUP2 SLOAD DUP2 PUSH20 0xFFFFFFFFFFFFFFFFFFFFFFFFFFFFFFFFFFFFFFFF MUL NOT AND SWAP1 DUP4 PUSH20 0xFFFFFFFFFFFFFFFFFFFFFFFFFFFFFFFFFFFFFFFF AND MUL OR SWAP1 SSTORE POP PUSH1 0x5 PUSH1 0x0 SWAP1 SLOAD SWAP1 PUSH2 0x100 EXP SWAP1 DIV PUSH20 0xFFFFFFFFFFFFFFFFFFFFFFFFFFFFFFFFFFFFFFFF AND PUSH1 0x8 PUSH1 0x0 PUSH2 0x100 EXP DUP2 SLOAD DUP2 PUSH20 0xFFFFFFFFFFFFFFFFFFFFFFFFFFFFFFFFFFFFFFFF MUL NOT AND SWAP1 DUP4 PUSH20 0xFFFFFFFFFFFFFFFFFFFFFFFFFFFFFFFFFFFFFFFF AND MUL OR SWAP1 SSTORE POP POP POP POP POP POP PUSH3 0x6E2 JUMP JUMPDEST DUP3 DUP1 SLOAD DUP3 DUP3 SSTORE SWAP1 PUSH1 0x0 MSTORE PUSH1 0x20 PUSH1 0x0 KECCAK256 SWAP1 DUP2 ADD SWAP3 DUP3 ISZERO PUSH3 0x5BE JUMPI SWAP2 PUSH1 0x20 MUL DUP3 ADD JUMPDEST DUP3 DUP2 GT ISZERO PUSH3 0x5BD JUMPI DUP3 MLOAD DUP3 PUSH1 0x0 PUSH2 0x100 EXP DUP2 SLOAD DUP2 PUSH20 0xFFFFFFFFFFFFFFFFFFFFFFFFFFFFFFFFFFFFFFFF MUL NOT AND SWAP1 DUP4 PUSH20 0xFFFFFFFFFFFFFFFFFFFFFFFFFFFFFFFFFFFFFFFF AND MUL OR SWAP1 SSTORE POP SWAP2 PUSH1 0x20 ADD SWAP2 SWAP1 PUSH1 0x1 ADD SWAP1 PUSH3 0x563 JUMP JUMPDEST JUMPDEST POP SWAP1 POP PUSH3 0x5CD SWAP2 SWAP1 PUSH3 0x5D1 JUMP JUMPDEST POP SWAP1 JUMP JUMPDEST JUMPDEST DUP1 DUP3 GT ISZERO PUSH3 0x5EC JUMPI PUSH1 0x0 DUP2 PUSH1 0x0 SWAP1 SSTORE POP PUSH1 0x1 ADD PUSH3 0x5D2 JUMP JUMPDEST POP SWAP1 JUMP JUMPDEST PUSH1 0x0 DUP1 REVERT JUMPDEST PUSH1 0x0 PUSH20 0xFFFFFFFFFFFFFFFFFFFFFFFFFFFFFFFFFFFFFFFF DUP3 AND SWAP1 POP SWAP2 SWAP1 POP JUMP JUMPDEST PUSH1 0x0 PUSH3 0x622 DUP3 PUSH3 0x5F5 JUMP JUMPDEST SWAP1 POP SWAP2 SWAP1 POP JUMP JUMPDEST PUSH3 0x634 DUP2 PUSH3 0x615 JUMP JUMPDEST DUP2 EQ PUSH3 0x640 JUMPI PUSH1 0x0 DUP1 REVERT JUMPDEST POP JUMP JUMPDEST PUSH1 0x0 DUP2 MLOAD SWAP1 POP PUSH3 0x654 DUP2 PUSH3 0x629 JUMP JUMPDEST SWAP3 SWAP2 POP POP JUMP JUMPDEST PUSH1 0x0 DUP1 PUSH1 0x0 DUP1 PUSH1 0x0 PUSH1 0xA0 DUP7 DUP9 SUB SLT ISZERO PUSH3 0x679 JUMPI PUSH3 0x678 PUSH3 0x5F0 JUMP JUMPDEST JUMPDEST PUSH1 0x0 PUSH3 0x689 DUP9 DUP3 DUP10 ADD PUSH3 0x643 JUMP JUMPDEST SWAP6 POP POP PUSH1 0x20 PUSH3 0x69C DUP9 DUP3 DUP10 ADD PUSH3 0x643 JUMP JUMPDEST SWAP5 POP POP PUSH1 0x40 PUSH3 0x6AF DUP9 DUP3 DUP10 ADD PUSH3 0x643 JUMP JUMPDEST SWAP4 POP POP PUSH1 0x60 PUSH3 0x6C2 DUP9 DUP3 DUP10 ADD PUSH3 0x643 JUMP JUMPDEST SWAP3 POP POP PUSH1 0x80 PUSH3 0x6D5 DUP9 DUP3 DUP10 ADD PUSH3 0x643 JUMP JUMPDEST SWAP2 POP POP SWAP3 SWAP6 POP SWAP3 SWAP6 SWAP1 SWAP4 POP JUMP JUMPDEST PUSH2 0x2007 DUP1 PUSH3 0x6F2 PUSH1 0x0 CODECOPY PUSH1 0x0 RETURN INVALID PUSH1 0x80 PUSH1 0x40 MSTORE PUSH1 0x4 CALLDATASIZE LT PUSH2 0x118 JUMPI PUSH1 0x0 CALLDATALOAD PUSH1 0xE0 SHR DUP1 PUSH4 0x9DD58B58 GT PUSH2 0xA0 JUMPI DUP1 PUSH4 0xAEF75107 GT PUSH2 0x64 JUMPI DUP1 PUSH4 0xAEF75107 EQ PUSH2 0x371 JUMPI DUP1 PUSH4 0xAF6D1FE4 EQ PUSH2 0x39C JUMPI DUP1 PUSH4 0xBD3733FE EQ PUSH2 0x3D9 JUMPI DUP1 PUSH4 0xBFD9EA5B EQ PUSH2 0x404 JUMPI DUP1 PUSH4 0xC1F2E5F1 EQ PUSH2 0x42F JUMPI PUSH2 0x11F JUMP JUMPDEST DUP1 PUSH4 0x9DD58B58 EQ PUSH2 0x29A JUMPI DUP1 PUSH4 0xA09EDE07 EQ PUSH2 0x2C5 JUMPI DUP1 PUSH4 0xA6021ACE EQ PUSH2 0x2F0 JUMPI DUP1 PUSH4 0xA785A3D8 EQ PUSH2 0x31B JUMPI DUP1 PUSH4 0xA89AE4BA EQ PUSH2 0x346 JUMPI PUSH2 0x11F JUMP JUMPDEST DUP1 PUSH4 0x4CFD1BA5 GT PUSH2 0xE7 JUMPI DUP1 PUSH4 0x4CFD1BA5 EQ PUSH2 0x1E6 JUMPI DUP1 PUSH4 0x51CFF8D9 EQ PUSH2 0x211 JUMPI DUP1 PUSH4 0x777B506F EQ PUSH2 0x23A JUMPI DUP1 PUSH4 0x86D02608 EQ PUSH2 0x265 JUMPI DUP1 PUSH4 0x966824A3 EQ PUSH2 0x290 JUMPI PUSH2 0x11F JUMP JUMPDEST DUP1 PUSH4 0x1AC552D EQ PUSH2 0x124 JUMPI DUP1 PUSH4 0x1B017FDE EQ PUSH2 0x14F JUMPI DUP1 PUSH4 0x20CA3C7F EQ PUSH2 0x178 JUMPI DUP1 PUSH4 0x2C4C3C1B EQ PUSH2 0x1A3 JUMPI PUSH2 0x11F JUMP JUMPDEST CALLDATASIZE PUSH2 0x11F JUMPI STOP JUMPDEST PUSH1 0x0 DUP1 REVERT JUMPDEST CALLVALUE DUP1 ISZERO PUSH2 0x130 JUMPI PUSH1 0x0 DUP1 REVERT JUMPDEST POP PUSH2 0x139 PUSH2 0x45A JUMP JUMPDEST PUSH1 0x40 MLOAD PUSH2 0x146 SWAP2 SWAP1 PUSH2 0x16ED JUMP JUMPDEST PUSH1 0x40 MLOAD DUP1 SWAP2 SUB SWAP1 RETURN JUMPDEST CALLVALUE DUP1 ISZERO PUSH2 0x15B JUMPI PUSH1 0x0 DUP1 REVERT JUMPDEST POP PUSH2 0x176 PUSH1 0x4 DUP1 CALLDATASIZE SUB DUP2 ADD SWAP1 PUSH2 0x171 SWAP2 SWAP1 PUSH2 0x177A JUMP JUMPDEST PUSH2 0x4E7 JUMP JUMPDEST STOP JUMPDEST CALLVALUE DUP1 ISZERO PUSH2 0x184 JUMPI PUSH1 0x0 DUP1 REVERT JUMPDEST POP PUSH2 0x18D PUSH2 0x52B JUMP JUMPDEST PUSH1 0x40 MLOAD PUSH2 0x19A SWAP2 SWAP1 PUSH2 0x17B6 JUMP JUMPDEST PUSH1 0x40 MLOAD DUP1 SWAP2 SUB SWAP1 RETURN JUMPDEST CALLVALUE DUP1 ISZERO PUSH2 0x1AF JUMPI PUSH1 0x0 DUP1 REVERT JUMPDEST POP PUSH2 0x1CA PUSH1 0x4 DUP1 CALLDATASIZE SUB DUP2 ADD SWAP1 PUSH2 0x1C5 SWAP2 SWAP1 PUSH2 0x1807 JUMP JUMPDEST PUSH2 0x551 JUMP JUMPDEST PUSH1 0x40 MLOAD PUSH2 0x1DD SWAP8 SWAP7 SWAP6 SWAP5 SWAP4 SWAP3 SWAP2 SWAP1 PUSH2 0x1843 JUMP JUMPDEST PUSH1 0x40 MLOAD DUP1 SWAP2 SUB SWAP1 RETURN JUMPDEST CALLVALUE DUP1 ISZERO PUSH2 0x1F2 JUMPI PUSH1 0x0 DUP1 REVERT JUMPDEST POP PUSH2 0x1FB PUSH2 0x5DA JUMP JUMPDEST PUSH1 0x40 MLOAD PUSH2 0x208 SWAP2 SWAP1 PUSH2 0x18B2 JUMP JUMPDEST PUSH1 0x40 MLOAD DUP1 SWAP2 SUB SWAP1 RETURN JUMPDEST CALLVALUE DUP1 ISZERO PUSH2 0x21D JUMPI PUSH1 0x0 DUP1 REVERT JUMPDEST POP PUSH2 0x238 PUSH1 0x4 DUP1 CALLDATASIZE SUB DUP2 ADD SWAP1 PUSH2 0x233 SWAP2 SWAP1 PUSH2 0x177A JUMP JUMPDEST PUSH2 0x5E0 JUMP JUMPDEST STOP JUMPDEST CALLVALUE DUP1 ISZERO PUSH2 0x246 JUMPI PUSH1 0x0 DUP1 REVERT JUMPDEST POP PUSH2 0x24F PUSH2 0x6E7 JUMP JUMPDEST PUSH1 0x40 MLOAD PUSH2 0x25C SWAP2 SWAP1 PUSH2 0x17B6 JUMP JUMPDEST PUSH1 0x40 MLOAD DUP1 SWAP2 SUB SWAP1 RETURN JUMPDEST CALLVALUE DUP1 ISZERO PUSH2 0x271 JUMPI PUSH1 0x0 DUP1 REVERT JUMPDEST POP PUSH2 0x27A PUSH2 0x70D JUMP JUMPDEST PUSH1 0x40 MLOAD PUSH2 0x287 SWAP2 SWAP1 PUSH2 0x18B2 JUMP JUMPDEST PUSH1 0x40 MLOAD DUP1 SWAP2 SUB SWAP1 RETURN JUMPDEST PUSH2 0x298 PUSH2 0x713 JUMP JUMPDEST STOP JUMPDEST CALLVALUE DUP1 ISZERO PUSH2 0x2A6 JUMPI PUSH1 0x0 DUP1 REVERT JUMPDEST POP PUSH2 0x2AF PUSH2 0x792 JUMP JUMPDEST PUSH1 0x40 MLOAD PUSH2 0x2BC SWAP2 SWAP1 PUSH2 0x18B2 JUMP JUMPDEST PUSH1 0x40 MLOAD DUP1 SWAP2 SUB SWAP1 RETURN JUMPDEST CALLVALUE DUP1 ISZERO PUSH2 0x2D1 JUMPI PUSH1 0x0 DUP1 REVERT JUMPDEST POP PUSH2 0x2DA PUSH2 0x837 JUMP JUMPDEST PUSH1 0x40 MLOAD PUSH2 0x2E7 SWAP2 SWAP1 PUSH2 0x18B2 JUMP JUMPDEST PUSH1 0x40 MLOAD DUP1 SWAP2 SUB SWAP1 RETURN JUMPDEST CALLVALUE DUP1 ISZERO PUSH2 0x2FC JUMPI PUSH1 0x0 DUP1 REVERT JUMPDEST POP PUSH2 0x305 PUSH2 0x83D JUMP JUMPDEST PUSH1 0x40 MLOAD PUSH2 0x312 SWAP2 SWAP1 PUSH2 0x17B6 JUMP JUMPDEST PUSH1 0x40 MLOAD DUP1 SWAP2 SUB SWAP1 RETURN JUMPDEST CALLVALUE DUP1 ISZERO PUSH2 0x327 JUMPI PUSH1 0x0 DUP1 REVERT JUMPDEST POP PUSH2 0x330 PUSH2 0x863 JUMP JUMPDEST PUSH1 0x40 MLOAD PUSH2 0x33D SWAP2 SWAP1 PUSH2 0x17B6 JUMP JUMPDEST PUSH1 0x40 MLOAD DUP1 SWAP2 SUB SWAP1 RETURN JUMPDEST CALLVALUE DUP1 ISZERO PUSH2 0x352 JUMPI PUSH1 0x0 DUP1 REVERT JUMPDEST POP PUSH2 0x35B PUSH2 0x887 JUMP JUMPDEST PUSH1 0x40 MLOAD PUSH2 0x368 SWAP2 SWAP1 PUSH2 0x17B6 JUMP JUMPDEST PUSH1 0x40 MLOAD DUP1 SWAP2 SUB SWAP1 RETURN JUMPDEST CALLVALUE DUP1 ISZERO PUSH2 0x37D JUMPI PUSH1 0x0 DUP1 REVERT JUMPDEST POP PUSH2 0x386 PUSH2 0x8AD JUMP JUMPDEST PUSH1 0x40 MLOAD PUSH2 0x393 SWAP2 SWAP1 PUSH2 0x17B6 JUMP JUMPDEST PUSH1 0x40 MLOAD DUP1 SWAP2 SUB SWAP1 RETURN JUMPDEST CALLVALUE DUP1 ISZERO PUSH2 0x3A8 JUMPI PUSH1 0x0 DUP1 REVERT JUMPDEST POP PUSH2 0x3C3 PUSH1 0x4 DUP1 CALLDATASIZE SUB DUP2 ADD SWAP1 PUSH2 0x3BE SWAP2 SWAP1 PUSH2 0x1807 JUMP JUMPDEST PUSH2 0x8D3 JUMP JUMPDEST PUSH1 0x40 MLOAD PUSH2 0x3D0 SWAP2 SWAP1 PUSH2 0x17B6 JUMP JUMPDEST PUSH1 0x40 MLOAD DUP1 SWAP2 SUB SWAP1 RETURN JUMPDEST CALLVALUE DUP1 ISZERO PUSH2 0x3E5 JUMPI PUSH1 0x0 DUP1 REVERT JUMPDEST POP PUSH2 0x3EE PUSH2 0x912 JUMP JUMPDEST PUSH1 0x40 MLOAD PUSH2 0x3FB SWAP2 SWAP1 PUSH2 0x17B6 JUMP JUMPDEST PUSH1 0x40 MLOAD DUP1 SWAP2 SUB SWAP1 RETURN JUMPDEST CALLVALUE DUP1 ISZERO PUSH2 0x410 JUMPI PUSH1 0x0 DUP1 REVERT JUMPDEST POP PUSH2 0x419 PUSH2 0x938 JUMP JUMPDEST PUSH1 0x40 MLOAD PUSH2 0x426 SWAP2 SWAP1 PUSH2 0x18B2 JUMP JUMPDEST PUSH1 0x40 MLOAD DUP1 SWAP2 SUB SWAP1 RETURN JUMPDEST CALLVALUE DUP1 ISZERO PUSH2 0x43B JUMPI PUSH1 0x0 DUP1 REVERT JUMPDEST POP PUSH2 0x444 PUSH2 0x95B JUMP JUMPDEST PUSH1 0x40 MLOAD PUSH2 0x451 SWAP2 SWAP1 PUSH2 0x18B2 JUMP JUMPDEST PUSH1 0x40 MLOAD DUP1 SWAP2 SUB SWAP1 RETURN JUMPDEST PUSH1 0x0 PUSH1 0x4 PUSH1 0x0 SWAP1 SLOAD SWAP1 PUSH2 0x100 EXP SWAP1 DIV PUSH20 0xFFFFFFFFFFFFFFFFFFFFFFFFFFFFFFFFFFFFFFFF AND PUSH20 0xFFFFFFFFFFFFFFFFFFFFFFFFFFFFFFFFFFFFFFFF AND CALLER PUSH20 0xFFFFFFFFFFFFFFFFFFFFFFFFFFFFFFFFFFFFFFFF AND EQ PUSH2 0x4B6 JUMPI PUSH1 0x0 DUP1 REVERT JUMPDEST PUSH1 0x0 PUSH1 0xC PUSH1 0x0 PUSH1 0xD DUP1 SLOAD SWAP1 POP DUP2 MSTORE PUSH1 0x20 ADD SWAP1 DUP2 MSTORE PUSH1 0x20 ADD PUSH1 0x0 KECCAK256 PUSH1 0x2 ADD SLOAD SWAP1 POP PUSH2 0x4DF DUP2 PUSH2 0xAD2 JUMP JUMPDEST PUSH1 0x1 SWAP2 POP POP SWAP1 JUMP JUMPDEST DUP1 PUSH1 0x1 PUSH1 0x0 PUSH2 0x100 EXP DUP2 SLOAD DUP2 PUSH20 0xFFFFFFFFFFFFFFFFFFFFFFFFFFFFFFFFFFFFFFFF MUL NOT AND SWAP1 DUP4 PUSH20 0xFFFFFFFFFFFFFFFFFFFFFFFFFFFFFFFFFFFFFFFF AND MUL OR SWAP1 SSTORE POP POP JUMP JUMPDEST PUSH1 0x6 PUSH1 0x0 SWAP1 SLOAD SWAP1 PUSH2 0x100 EXP SWAP1 DIV PUSH20 0xFFFFFFFFFFFFFFFFFFFFFFFFFFFFFFFFFFFFFFFF AND DUP2 JUMP JUMPDEST PUSH1 0xC PUSH1 0x20 MSTORE DUP1 PUSH1 0x0 MSTORE PUSH1 0x40 PUSH1 0x0 KECCAK256 PUSH1 0x0 SWAP2 POP SWAP1 POP DUP1 PUSH1 0x0 ADD SLOAD SWAP1 DUP1 PUSH1 0x1 ADD PUSH1 0x0 SWAP1 SLOAD SWAP1 PUSH2 0x100 EXP SWAP1 DIV PUSH20 0xFFFFFFFFFFFFFFFFFFFFFFFFFFFFFFFFFFFFFFFF AND SWAP1 DUP1 PUSH1 0x1 ADD PUSH1 0x14 SWAP1 SLOAD SWAP1 PUSH2 0x100 EXP SWAP1 DIV PUSH1 0xFF AND SWAP1 DUP1 PUSH1 0x2 ADD SLOAD SWAP1 DUP1 PUSH1 0x3 ADD PUSH1 0x0 SWAP1 SLOAD SWAP1 PUSH2 0x100 EXP SWAP1 DIV PUSH1 0xFF AND SWAP1 DUP1 PUSH1 0x4 ADD SLOAD SWAP1 DUP1 PUSH1 0x5 ADD PUSH1 0x0 SWAP1 SLOAD SWAP1 PUSH2 0x100 EXP SWAP1 DIV PUSH1 0xFF AND SWAP1 POP DUP8 JUMP JUMPDEST PUSH1 0xF SLOAD DUP2 JUMP JUMPDEST PUSH1 0x0 DUP2 SWAP1 POP PUSH1 0x0 DUP2 PUSH20 0xFFFFFFFFFFFFFFFFFFFFFFFFFFFFFFFFFFFFFFFF AND PUSH4 0x70A08231 ADDRESS PUSH1 0x40 MLOAD DUP3 PUSH4 0xFFFFFFFF AND PUSH1 0xE0 SHL DUP2 MSTORE PUSH1 0x4 ADD PUSH2 0x620 SWAP2 SWAP1 PUSH2 0x17B6 JUMP JUMPDEST PUSH1 0x20 PUSH1 0x40 MLOAD DUP1 DUP4 SUB DUP2 DUP7 GAS STATICCALL ISZERO DUP1 ISZERO PUSH2 0x63D JUMPI RETURNDATASIZE PUSH1 0x0 DUP1 RETURNDATACOPY RETURNDATASIZE PUSH1 0x0 REVERT JUMPDEST POP POP POP POP PUSH1 0x40 MLOAD RETURNDATASIZE PUSH1 0x1F NOT PUSH1 0x1F DUP3 ADD AND DUP3 ADD DUP1 PUSH1 0x40 MSTORE POP DUP2 ADD SWAP1 PUSH2 0x661 SWAP2 SWAP1 PUSH2 0x18E2 JUMP JUMPDEST SWAP1 POP DUP2 PUSH20 0xFFFFFFFFFFFFFFFFFFFFFFFFFFFFFFFFFFFFFFFF AND PUSH4 0xA9059CBB CALLER DUP4 PUSH1 0x40 MLOAD DUP4 PUSH4 0xFFFFFFFF AND PUSH1 0xE0 SHL DUP2 MSTORE PUSH1 0x4 ADD PUSH2 0x69E SWAP3 SWAP2 SWAP1 PUSH2 0x190F JUMP JUMPDEST PUSH1 0x20 PUSH1 0x40 MLOAD DUP1 DUP4 SUB DUP2 PUSH1 0x0 DUP8 GAS CALL ISZERO DUP1 ISZERO PUSH2 0x6BD JUMPI RETURNDATASIZE PUSH1 0x0 DUP1 RETURNDATACOPY RETURNDATASIZE PUSH1 0x0 REVERT JUMPDEST POP POP POP POP PUSH1 0x40 MLOAD RETURNDATASIZE PUSH1 0x1F NOT PUSH1 0x1F DUP3 ADD AND DUP3 ADD DUP1 PUSH1 0x40 MSTORE POP DUP2 ADD SWAP1 PUSH2 0x6E1 SWAP2 SWAP1 PUSH2 0x1964 JUMP JUMPDEST POP POP POP POP JUMP JUMPDEST PUSH1 0x4 PUSH1 0x0 SWAP1 SLOAD SWAP1 PUSH2 0x100 EXP SWAP1 DIV PUSH20 0xFFFFFFFFFFFFFFFFFFFFFFFFFFFFFFFFFFFFFFFF AND DUP2 JUMP JUMPDEST PUSH1 0xE SLOAD DUP2 JUMP JUMPDEST PUSH2 0x71B PUSH2 0x45A JUMP JUMPDEST POP CALLVALUE PUSH1 0xC PUSH1 0x0 PUSH1 0x1 PUSH1 0xD DUP1 SLOAD SWAP1 POP PUSH2 0x733 SWAP2 SWAP1 PUSH2 0x19C0 JUMP JUMPDEST DUP2 MSTORE PUSH1 0x20 ADD SWAP1 DUP2 MSTORE PUSH1 0x20 ADD PUSH1 0x0 KECCAK256 PUSH1 0x2 ADD DUP2 SWAP1 SSTORE POP PUSH1 0x0 PUSH1 0xC PUSH1 0x0 PUSH1 0x1 PUSH1 0xD DUP1 SLOAD SWAP1 POP PUSH2 0x760 SWAP2 SWAP1 PUSH2 0x19C0 JUMP JUMPDEST DUP2 MSTORE PUSH1 0x20 ADD SWAP1 DUP2 MSTORE PUSH1 0x20 ADD PUSH1 0x0 KECCAK256 PUSH1 0x1 ADD PUSH1 0x14 PUSH2 0x100 EXP DUP2 SLOAD DUP2 PUSH1 0xFF MUL NOT AND SWAP1 DUP4 ISZERO ISZERO MUL OR SWAP1 SSTORE POP PUSH2 0x790 PUSH2 0xB55 JUMP JUMPDEST JUMP JUMPDEST PUSH1 0x0 PUSH1 0x9 PUSH1 0x0 SWAP1 SLOAD SWAP1 PUSH2 0x100 EXP SWAP1 DIV PUSH20 0xFFFFFFFFFFFFFFFFFFFFFFFFFFFFFFFFFFFFFFFF AND PUSH20 0xFFFFFFFFFFFFFFFFFFFFFFFFFFFFFFFFFFFFFFFF AND PUSH4 0x70A08231 ADDRESS PUSH1 0x40 MLOAD DUP3 PUSH4 0xFFFFFFFF AND PUSH1 0xE0 SHL DUP2 MSTORE PUSH1 0x4 ADD PUSH2 0x7EF SWAP2 SWAP1 PUSH2 0x17B6 JUMP JUMPDEST PUSH1 0x20 PUSH1 0x40 MLOAD DUP1 DUP4 SUB DUP2 PUSH1 0x0 DUP8 GAS CALL ISZERO DUP1 ISZERO PUSH2 0x80E JUMPI RETURNDATASIZE PUSH1 0x0 DUP1 RETURNDATACOPY RETURNDATASIZE PUSH1 0x0 REVERT JUMPDEST POP POP POP POP PUSH1 0x40 MLOAD RETURNDATASIZE PUSH1 0x1F NOT PUSH1 0x1F DUP3 ADD AND DUP3 ADD DUP1 PUSH1 0x40 MSTORE POP DUP2 ADD SWAP1 PUSH2 0x832 SWAP2 SWAP1 PUSH2 0x18E2 JUMP JUMPDEST SWAP1 POP SWAP1 JUMP JUMPDEST PUSH1 0x10 SLOAD DUP2 JUMP JUMPDEST PUSH1 0x1 PUSH1 0x0 SWAP1 SLOAD SWAP1 PUSH2 0x100 EXP SWAP1 DIV PUSH20 0xFFFFFFFFFFFFFFFFFFFFFFFFFFFFFFFFFFFFFFFF AND DUP2 JUMP JUMPDEST PUSH1 0x0 DUP1 SLOAD SWAP1 PUSH2 0x100 EXP SWAP1 DIV PUSH20 0xFFFFFFFFFFFFFFFFFFFFFFFFFFFFFFFFFFFFFFFF AND DUP2 JUMP JUMPDEST PUSH1 0x3 PUSH1 0x0 SWAP1 SLOAD SWAP1 PUSH2 0x100 EXP SWAP1 DIV PUSH20 0xFFFFFFFFFFFFFFFFFFFFFFFFFFFFFFFFFFFFFFFF AND DUP2 JUMP JUMPDEST PUSH1 0x5 PUSH1 0x0 SWAP1 SLOAD SWAP1 PUSH2 0x100 EXP SWAP1 DIV PUSH20 0xFFFFFFFFFFFFFFFFFFFFFFFFFFFFFFFFFFFFFFFF AND DUP2 JUMP JUMPDEST PUSH1 0x7 DUP2 DUP2 SLOAD DUP2 LT PUSH2 0x8E3 JUMPI PUSH1 0x0 DUP1 REVERT JUMPDEST SWAP1 PUSH1 0x0 MSTORE PUSH1 0x20 PUSH1 0x0 KECCAK256 ADD PUSH1 0x0 SWAP2 POP SLOAD SWAP1 PUSH2 0x100 EXP SWAP1 DIV PUSH20 0xFFFFFFFFFFFFFFFFFFFFFFFFFFFFFFFFFFFFFFFF AND DUP2 JUMP JUMPDEST PUSH1 0x2 PUSH1 0x0 SWAP1 SLOAD SWAP1 PUSH2 0x100 EXP SWAP1 DIV PUSH20 0xFFFFFFFFFFFFFFFFFFFFFFFFFFFFFFFFFFFFFFFF AND DUP2 JUMP JUMPDEST PUSH1 0x0 PUSH1 0xC PUSH1 0x0 PUSH1 0xD DUP1 SLOAD SWAP1 POP DUP2 MSTORE PUSH1 0x20 ADD SWAP1 DUP2 MSTORE PUSH1 0x20 ADD PUSH1 0x0 KECCAK256 PUSH1 0x2 ADD SLOAD SWAP1 POP SWAP1 JUMP JUMPDEST PUSH1 0x0 DUP1 PUSH1 0x1 PUSH1 0x0 SWAP1 SLOAD SWAP1 PUSH2 0x100 EXP SWAP1 DIV PUSH20 0xFFFFFFFFFFFFFFFFFFFFFFFFFFFFFFFFFFFFFFFF AND PUSH20 0xFFFFFFFFFFFFFFFFFFFFFFFFFFFFFFFFFFFFFFFF AND PUSH4 0x18160DDD PUSH1 0x40 MLOAD DUP2 PUSH4 0xFFFFFFFF AND PUSH1 0xE0 SHL DUP2 MSTORE PUSH1 0x4 ADD PUSH1 0x20 PUSH1 0x40 MLOAD DUP1 DUP4 SUB DUP2 DUP7 GAS STATICCALL ISZERO DUP1 ISZERO PUSH2 0x9CB JUMPI RETURNDATASIZE PUSH1 0x0 DUP1 RETURNDATACOPY RETURNDATASIZE PUSH1 0x0 REVERT JUMPDEST POP POP POP POP PUSH1 0x40 MLOAD RETURNDATASIZE PUSH1 0x1F NOT PUSH1 0x1F DUP3 ADD AND DUP3 ADD DUP1 PUSH1 0x40 MSTORE POP DUP2 ADD SWAP1 PUSH2 0x9EF SWAP2 SWAP1 PUSH2 0x18E2 JUMP JUMPDEST SWAP1 POP PUSH1 0x0 PUSH1 0x1 PUSH1 0x0 SWAP1 SLOAD SWAP1 PUSH2 0x100 EXP SWAP1 DIV PUSH20 0xFFFFFFFFFFFFFFFFFFFFFFFFFFFFFFFFFFFFFFFF AND PUSH20 0xFFFFFFFFFFFFFFFFFFFFFFFFFFFFFFFFFFFFFFFF AND PUSH4 0x70A08231 PUSH1 0x2 PUSH1 0x0 SWAP1 SLOAD SWAP1 PUSH2 0x100 EXP SWAP1 DIV PUSH20 0xFFFFFFFFFFFFFFFFFFFFFFFFFFFFFFFFFFFFFFFF AND PUSH1 0x40 MLOAD DUP3 PUSH4 0xFFFFFFFF AND PUSH1 0xE0 SHL DUP2 MSTORE PUSH1 0x4 ADD PUSH2 0xA70 SWAP2 SWAP1 PUSH2 0x17B6 JUMP JUMPDEST PUSH1 0x20 PUSH1 0x40 MLOAD DUP1 DUP4 SUB DUP2 DUP7 GAS STATICCALL ISZERO DUP1 ISZERO PUSH2 0xA8D JUMPI RETURNDATASIZE PUSH1 0x0 DUP1 RETURNDATACOPY RETURNDATASIZE PUSH1 0x0 REVERT JUMPDEST POP POP POP POP PUSH1 0x40 MLOAD RETURNDATASIZE PUSH1 0x1F NOT PUSH1 0x1F DUP3 ADD AND DUP3 ADD DUP1 PUSH1 0x40 MSTORE POP DUP2 ADD SWAP1 PUSH2 0xAB1 SWAP2 SWAP1 PUSH2 0x18E2 JUMP JUMPDEST SWAP1 POP DUP2 PUSH1 0x64 DUP3 PUSH2 0xAC1 SWAP2 SWAP1 PUSH2 0x19F4 JUMP JUMPDEST PUSH2 0xACB SWAP2 SWAP1 PUSH2 0x1A65 JUMP JUMPDEST SWAP3 POP POP POP SWAP1 JUMP JUMPDEST PUSH1 0x0 PUSH1 0xD DUP1 SLOAD SWAP1 POP SWAP1 POP PUSH1 0x0 PUSH1 0xC PUSH1 0x0 PUSH1 0xD DUP1 SLOAD SWAP1 POP DUP2 MSTORE PUSH1 0x20 ADD SWAP1 DUP2 MSTORE PUSH1 0x20 ADD PUSH1 0x0 KECCAK256 SWAP1 POP DUP2 DUP2 PUSH1 0x0 ADD DUP2 SWAP1 SSTORE POP DUP3 DUP2 PUSH1 0x2 ADD DUP2 SWAP1 SSTORE POP PUSH1 0x1 DUP2 PUSH1 0x1 ADD PUSH1 0x14 PUSH2 0x100 EXP DUP2 SLOAD DUP2 PUSH1 0xFF MUL NOT AND SWAP1 DUP4 ISZERO ISZERO MUL OR SWAP1 SSTORE POP PUSH1 0xD DUP3 SWAP1 DUP1 PUSH1 0x1 DUP2 SLOAD ADD DUP1 DUP3 SSTORE DUP1 SWAP2 POP POP PUSH1 0x1 SWAP1 SUB SWAP1 PUSH1 0x0 MSTORE PUSH1 0x20 PUSH1 0x0 KECCAK256 ADD PUSH1 0x0 SWAP1 SWAP2 SWAP1 SWAP2 SWAP1 SWAP2 POP SSTORE POP POP POP JUMP JUMPDEST PUSH1 0x0 CALLVALUE SWAP1 POP PUSH1 0x0 PUSH1 0xF SLOAD GT ISZERO PUSH2 0xBA7 JUMPI PUSH1 0x0 SELFBALANCE SWAP1 POP PUSH2 0xB75 PUSH1 0xF SLOAD PUSH2 0xDB4 JUMP JUMPDEST PUSH1 0x0 SELFBALANCE SWAP1 POP PUSH1 0x0 DUP2 DUP4 PUSH2 0xB88 SWAP2 SWAP1 PUSH2 0x19C0 JUMP JUMPDEST SWAP1 POP DUP1 PUSH1 0xF PUSH1 0x0 DUP3 DUP3 SLOAD PUSH2 0xB9C SWAP2 SWAP1 PUSH2 0x19C0 JUMP JUMPDEST SWAP3 POP POP DUP2 SWAP1 SSTORE POP POP POP POP JUMPDEST PUSH1 0x0 PUSH1 0x10 SLOAD GT ISZERO PUSH2 0xBF5 JUMPI PUSH1 0x0 SELFBALANCE SWAP1 POP PUSH2 0xBC2 PUSH1 0x10 SLOAD PUSH2 0xE54 JUMP JUMPDEST POP PUSH1 0x0 SELFBALANCE SWAP1 POP PUSH1 0x0 DUP2 DUP4 PUSH2 0xBD6 SWAP2 SWAP1 PUSH2 0x19C0 JUMP JUMPDEST SWAP1 POP DUP1 PUSH1 0x10 PUSH1 0x0 DUP3 DUP3 SLOAD PUSH2 0xBEA SWAP2 SWAP1 PUSH2 0x19C0 JUMP JUMPDEST SWAP3 POP POP DUP2 SWAP1 SSTORE POP POP POP POP JUMPDEST PUSH1 0x1 PUSH1 0xD DUP1 SLOAD SWAP1 POP SUB ISZERO PUSH2 0xCE7 JUMPI PUSH1 0x0 PUSH1 0xC PUSH1 0x0 PUSH1 0x2 PUSH1 0xD DUP1 SLOAD SWAP1 POP PUSH2 0xC1B SWAP2 SWAP1 PUSH2 0x19C0 JUMP JUMPDEST DUP2 MSTORE PUSH1 0x20 ADD SWAP1 DUP2 MSTORE PUSH1 0x20 ADD PUSH1 0x0 KECCAK256 PUSH1 0x1 ADD PUSH1 0x0 SWAP1 SLOAD SWAP1 PUSH2 0x100 EXP SWAP1 DIV PUSH20 0xFFFFFFFFFFFFFFFFFFFFFFFFFFFFFFFFFFFFFFFF AND SWAP1 POP PUSH2 0xC58 DUP2 PUSH2 0x132F JUMP JUMPDEST PUSH1 0x8 PUSH1 0x0 SWAP1 SLOAD SWAP1 PUSH2 0x100 EXP SWAP1 DIV PUSH20 0xFFFFFFFFFFFFFFFFFFFFFFFFFFFFFFFFFFFFFFFF AND PUSH20 0xFFFFFFFFFFFFFFFFFFFFFFFFFFFFFFFFFFFFFFFF AND PUSH4 0x6A627842 DUP3 PUSH1 0x40 MLOAD DUP3 PUSH4 0xFFFFFFFF AND PUSH1 0xE0 SHL DUP2 MSTORE PUSH1 0x4 ADD PUSH2 0xCB3 SWAP2 SWAP1 PUSH2 0x17B6 JUMP JUMPDEST PUSH1 0x0 PUSH1 0x40 MLOAD DUP1 DUP4 SUB DUP2 PUSH1 0x0 DUP8 DUP1 EXTCODESIZE ISZERO DUP1 ISZERO PUSH2 0xCCD JUMPI PUSH1 0x0 DUP1 REVERT JUMPDEST POP GAS CALL ISZERO DUP1 ISZERO PUSH2 0xCE1 JUMPI RETURNDATASIZE PUSH1 0x0 DUP1 RETURNDATACOPY RETURNDATASIZE PUSH1 0x0 REVERT JUMPDEST POP POP POP POP POP JUMPDEST PUSH1 0x0 PUSH2 0xCF1 PUSH2 0x95B JUMP JUMPDEST SWAP1 POP PUSH1 0x14 DUP2 GT ISZERO PUSH2 0xD51 JUMPI PUSH1 0x0 SELFBALANCE SWAP1 POP PUSH2 0xD0A CALLVALUE PUSH2 0xDB4 JUMP JUMPDEST PUSH1 0x0 SELFBALANCE SWAP1 POP PUSH1 0x0 DUP2 DUP4 PUSH2 0xD1D SWAP2 SWAP1 PUSH2 0x19C0 JUMP JUMPDEST SWAP1 POP PUSH1 0x0 DUP2 DUP7 PUSH2 0xD2D SWAP2 SWAP1 PUSH2 0x19C0 JUMP JUMPDEST SWAP1 POP DUP1 PUSH1 0xF PUSH1 0x0 DUP3 DUP3 SLOAD PUSH2 0xD41 SWAP2 SWAP1 PUSH2 0x1A96 JUMP JUMPDEST SWAP3 POP POP DUP2 SWAP1 SSTORE POP POP POP POP POP PUSH2 0xDB0 JUMP JUMPDEST PUSH1 0x0 SELFBALANCE SWAP1 POP PUSH2 0xD6C CALLVALUE PUSH1 0x10 SLOAD PUSH2 0xD67 SWAP2 SWAP1 PUSH2 0x1A96 JUMP JUMPDEST PUSH2 0xE54 JUMP JUMPDEST POP PUSH1 0x0 SELFBALANCE SWAP1 POP PUSH1 0x0 DUP2 DUP4 PUSH2 0xD80 SWAP2 SWAP1 PUSH2 0x19C0 JUMP JUMPDEST SWAP1 POP PUSH1 0x0 DUP2 DUP7 PUSH2 0xD90 SWAP2 SWAP1 PUSH2 0x19C0 JUMP JUMPDEST SWAP1 POP DUP1 PUSH1 0x10 PUSH1 0x0 DUP3 DUP3 SLOAD PUSH2 0xDA4 SWAP2 SWAP1 PUSH2 0x1A96 JUMP JUMPDEST SWAP3 POP POP DUP2 SWAP1 SSTORE POP POP POP POP POP JUMPDEST POP POP JUMP JUMPDEST PUSH1 0x0 PUSH2 0xDBF DUP3 PUSH2 0x14B1 JUMP JUMPDEST SWAP1 POP PUSH1 0x1 PUSH1 0x0 SWAP1 SLOAD SWAP1 PUSH2 0x100 EXP SWAP1 DIV PUSH20 0xFFFFFFFFFFFFFFFFFFFFFFFFFFFFFFFFFFFFFFFF AND PUSH20 0xFFFFFFFFFFFFFFFFFFFFFFFFFFFFFFFFFFFFFFFF AND PUSH4 0x9DC29FAC CALLER DUP4 PUSH1 0x40 MLOAD DUP4 PUSH4 0xFFFFFFFF AND PUSH1 0xE0 SHL DUP2 MSTORE PUSH1 0x4 ADD PUSH2 0xE1E SWAP3 SWAP2 SWAP1 PUSH2 0x190F JUMP JUMPDEST PUSH1 0x0 PUSH1 0x40 MLOAD DUP1 DUP4 SUB DUP2 PUSH1 0x0 DUP8 DUP1 EXTCODESIZE ISZERO DUP1 ISZERO PUSH2 0xE38 JUMPI PUSH1 0x0 DUP1 REVERT JUMPDEST POP GAS CALL ISZERO DUP1 ISZERO PUSH2 0xE4C JUMPI RETURNDATASIZE PUSH1 0x0 DUP1 RETURNDATACOPY RETURNDATASIZE PUSH1 0x0 REVERT JUMPDEST POP POP POP POP POP POP JUMP JUMPDEST PUSH1 0x0 DUP1 PUSH1 0x0 PUSH1 0x1 PUSH1 0x0 SWAP1 SLOAD SWAP1 PUSH2 0x100 EXP SWAP1 DIV PUSH20 0xFFFFFFFFFFFFFFFFFFFFFFFFFFFFFFFFFFFFFFFF AND PUSH20 0xFFFFFFFFFFFFFFFFFFFFFFFFFFFFFFFFFFFFFFFF AND PUSH4 0x70A08231 ADDRESS PUSH1 0x40 MLOAD DUP3 PUSH4 0xFFFFFFFF AND PUSH1 0xE0 SHL DUP2 MSTORE PUSH1 0x4 ADD PUSH2 0xEB4 SWAP2 SWAP1 PUSH2 0x17B6 JUMP JUMPDEST PUSH1 0x20 PUSH1 0x40 MLOAD DUP1 DUP4 SUB DUP2 DUP7 GAS STATICCALL ISZERO DUP1 ISZERO PUSH2 0xED1 JUMPI RETURNDATASIZE PUSH1 0x0 DUP1 RETURNDATACOPY RETURNDATASIZE PUSH1 0x0 REVERT JUMPDEST POP POP POP POP PUSH1 0x40 MLOAD RETURNDATASIZE PUSH1 0x1F NOT PUSH1 0x1F DUP3 ADD AND DUP3 ADD DUP1 PUSH1 0x40 MSTORE POP DUP2 ADD SWAP1 PUSH2 0xEF5 SWAP2 SWAP1 PUSH2 0x18E2 JUMP JUMPDEST SWAP1 POP PUSH1 0x0 PUSH1 0x64 PUSH1 0x69 PUSH1 0xA PUSH1 0x0 SWAP1 SLOAD SWAP1 PUSH2 0x100 EXP SWAP1 DIV PUSH20 0xFFFFFFFFFFFFFFFFFFFFFFFFFFFFFFFFFFFFFFFF AND PUSH20 0xFFFFFFFFFFFFFFFFFFFFFFFFFFFFFFFFFFFFFFFF AND PUSH4 0x3AC35585 PUSH1 0x0 DUP1 SLOAD SWAP1 PUSH2 0x100 EXP SWAP1 DIV PUSH20 0xFFFFFFFFFFFFFFFFFFFFFFFFFFFFFFFFFFFFFFFF AND DUP10 PUSH1 0x40 MLOAD DUP4 PUSH4 0xFFFFFFFF AND PUSH1 0xE0 SHL DUP2 MSTORE PUSH1 0x4 ADD PUSH2 0xF7A SWAP3 SWAP2 SWAP1 PUSH2 0x190F JUMP JUMPDEST PUSH1 0x20 PUSH1 0x40 MLOAD DUP1 DUP4 SUB DUP2 DUP7 GAS STATICCALL ISZERO DUP1 ISZERO PUSH2 0xF97 JUMPI RETURNDATASIZE PUSH1 0x0 DUP1 RETURNDATACOPY RETURNDATASIZE PUSH1 0x0 REVERT JUMPDEST POP POP POP POP PUSH1 0x40 MLOAD RETURNDATASIZE PUSH1 0x1F NOT PUSH1 0x1F DUP3 ADD AND DUP3 ADD DUP1 PUSH1 0x40 MSTORE POP DUP2 ADD SWAP1 PUSH2 0xFBB SWAP2 SWAP1 PUSH2 0x18E2 JUMP JUMPDEST PUSH2 0xFC5 SWAP2 SWAP1 PUSH2 0x19F4 JUMP JUMPDEST PUSH2 0xFCF SWAP2 SWAP1 PUSH2 0x1A65 JUMP JUMPDEST SWAP1 POP DUP2 DUP2 GT ISZERO PUSH2 0x1112 JUMPI PUSH1 0x1 PUSH1 0x0 SWAP1 SLOAD SWAP1 PUSH2 0x100 EXP SWAP1 DIV PUSH20 0xFFFFFFFFFFFFFFFFFFFFFFFFFFFFFFFFFFFFFFFF AND PUSH20 0xFFFFFFFFFFFFFFFFFFFFFFFFFFFFFFFFFFFFFFFF AND PUSH4 0x96FE8349 DUP4 DUP4 PUSH2 0x1023 SWAP2 SWAP1 PUSH2 0x19C0 JUMP JUMPDEST ADDRESS PUSH1 0x40 MLOAD DUP4 PUSH4 0xFFFFFFFF AND PUSH1 0xE0 SHL DUP2 MSTORE PUSH1 0x4 ADD PUSH2 0x1041 SWAP3 SWAP2 SWAP1 PUSH2 0x1ACA JUMP JUMPDEST PUSH1 0x0 PUSH1 0x40 MLOAD DUP1 DUP4 SUB DUP2 PUSH1 0x0 DUP8 DUP1 EXTCODESIZE ISZERO DUP1 ISZERO PUSH2 0x105B JUMPI PUSH1 0x0 DUP1 REVERT JUMPDEST POP GAS CALL ISZERO DUP1 ISZERO PUSH2 0x106F JUMPI RETURNDATASIZE PUSH1 0x0 DUP1 RETURNDATACOPY RETURNDATASIZE PUSH1 0x0 REVERT JUMPDEST POP POP POP POP PUSH1 0x1 PUSH1 0x0 SWAP1 SLOAD SWAP1 PUSH2 0x100 EXP SWAP1 DIV PUSH20 0xFFFFFFFFFFFFFFFFFFFFFFFFFFFFFFFFFFFFFFFF AND PUSH20 0xFFFFFFFFFFFFFFFFFFFFFFFFFFFFFFFFFFFFFFFF AND PUSH4 0x70A08231 ADDRESS PUSH1 0x40 MLOAD DUP3 PUSH4 0xFFFFFFFF AND PUSH1 0xE0 SHL DUP2 MSTORE PUSH1 0x4 ADD PUSH2 0x10CE SWAP2 SWAP1 PUSH2 0x17B6 JUMP JUMPDEST PUSH1 0x20 PUSH1 0x40 MLOAD DUP1 DUP4 SUB DUP2 DUP7 GAS STATICCALL ISZERO DUP1 ISZERO PUSH2 0x10EB JUMPI RETURNDATASIZE PUSH1 0x0 DUP1 RETURNDATACOPY RETURNDATASIZE PUSH1 0x0 REVERT JUMPDEST POP POP POP POP PUSH1 0x40 MLOAD RETURNDATASIZE PUSH1 0x1F NOT PUSH1 0x1F DUP3 ADD AND DUP3 ADD DUP1 PUSH1 0x40 MSTORE POP DUP2 ADD SWAP1 PUSH2 0x110F SWAP2 SWAP1 PUSH2 0x18E2 JUMP JUMPDEST SWAP2 POP JUMPDEST PUSH1 0xB PUSH1 0x0 SWAP1 SLOAD SWAP1 PUSH2 0x100 EXP SWAP1 DIV PUSH20 0xFFFFFFFFFFFFFFFFFFFFFFFFFFFFFFFFFFFFFFFF AND PUSH20 0xFFFFFFFFFFFFFFFFFFFFFFFFFFFFFFFFFFFFFFFF AND PUSH4 0xF305D719 DUP7 ADDRESS DUP5 PUSH1 0x69 PUSH1 0x5F DUP8 PUSH2 0x1162 SWAP2 SWAP1 PUSH2 0x19F4 JUMP JUMPDEST PUSH2 0x116C SWAP2 SWAP1 PUSH2 0x1A65 JUMP JUMPDEST PUSH1 0x64 PUSH1 0x5F DUP13 PUSH2 0x117B SWAP2 SWAP1 PUSH2 0x19F4 JUMP JUMPDEST PUSH2 0x1185 SWAP2 SWAP1 PUSH2 0x1A65 JUMP JUMPDEST ADDRESS PUSH32 0xFFFFFFFFFFFFFFFFFFFFFFFFFFFFFFFFFFFFFFFFFFFFFFFFFFFFFFFFFFFFFFFF PUSH1 0x40 MLOAD DUP9 PUSH4 0xFFFFFFFF AND PUSH1 0xE0 SHL DUP2 MSTORE PUSH1 0x4 ADD PUSH2 0x11C8 SWAP7 SWAP6 SWAP5 SWAP4 SWAP3 SWAP2 SWAP1 PUSH2 0x1AF3 JUMP JUMPDEST PUSH1 0x60 PUSH1 0x40 MLOAD DUP1 DUP4 SUB DUP2 DUP6 DUP9 GAS CALL SWAP4 POP POP POP POP DUP1 ISZERO PUSH2 0x1204 JUMPI POP PUSH1 0x40 MLOAD RETURNDATASIZE PUSH1 0x1F NOT PUSH1 0x1F DUP3 ADD AND DUP3 ADD DUP1 PUSH1 0x40 MSTORE POP DUP2 ADD SWAP1 PUSH2 0x1201 SWAP2 SWAP1 PUSH2 0x1B54 JUMP JUMPDEST PUSH1 0x1 JUMPDEST PUSH2 0x1242 JUMPI PUSH32 0xCF34EF537AC33EE1AC626CA1587A0A7E8E51561E5514F8CB36AFA1C5102B3BAB PUSH1 0x40 MLOAD PUSH2 0x1235 SWAP1 PUSH2 0x1C04 JUMP JUMPDEST PUSH1 0x40 MLOAD DUP1 SWAP2 SUB SWAP1 LOG1 PUSH2 0x1324 JUMP JUMPDEST POP POP POP PUSH32 0xCF34EF537AC33EE1AC626CA1587A0A7E8E51561E5514F8CB36AFA1C5102B3BAB PUSH1 0x40 MLOAD PUSH2 0x1272 SWAP1 PUSH2 0x1C70 JUMP JUMPDEST PUSH1 0x40 MLOAD DUP1 SWAP2 SUB SWAP1 LOG1 PUSH1 0x1 PUSH1 0x0 SWAP1 SLOAD SWAP1 PUSH2 0x100 EXP SWAP1 DIV PUSH20 0xFFFFFFFFFFFFFFFFFFFFFFFFFFFFFFFFFFFFFFFF AND PUSH20 0xFFFFFFFFFFFFFFFFFFFFFFFFFFFFFFFFFFFFFFFF AND PUSH4 0x70A08231 ADDRESS PUSH1 0x40 MLOAD DUP3 PUSH4 0xFFFFFFFF AND PUSH1 0xE0 SHL DUP2 MSTORE PUSH1 0x4 ADD PUSH2 0x12D5 SWAP2 SWAP1 PUSH2 0x17B6 JUMP JUMPDEST PUSH1 0x20 PUSH1 0x40 MLOAD DUP1 DUP4 SUB DUP2 DUP7 GAS STATICCALL ISZERO DUP1 ISZERO PUSH2 0x12F2 JUMPI RETURNDATASIZE PUSH1 0x0 DUP1 RETURNDATACOPY RETURNDATASIZE PUSH1 0x0 REVERT JUMPDEST POP POP POP POP PUSH1 0x40 MLOAD RETURNDATASIZE PUSH1 0x1F NOT PUSH1 0x1F DUP3 ADD AND DUP3 ADD DUP1 PUSH1 0x40 MSTORE POP DUP2 ADD SWAP1 PUSH2 0x1316 SWAP2 SWAP1 PUSH2 0x18E2 JUMP JUMPDEST DUP3 PUSH2 0x1321 SWAP2 SWAP1 PUSH2 0x19C0 JUMP JUMPDEST SWAP3 POP JUMPDEST DUP3 SWAP4 POP POP POP POP SWAP2 SWAP1 POP JUMP JUMPDEST PUSH1 0x0 PUSH1 0xC PUSH1 0x0 PUSH1 0x2 PUSH1 0xD DUP1 SLOAD SWAP1 POP PUSH2 0x1347 SWAP2 SWAP1 PUSH2 0x19C0 JUMP JUMPDEST DUP2 MSTORE PUSH1 0x20 ADD SWAP1 DUP2 MSTORE PUSH1 0x20 ADD PUSH1 0x0 KECCAK256 PUSH1 0x2 ADD SLOAD SWAP1 POP PUSH1 0x0 PUSH1 0xA PUSH1 0x0 SWAP1 SLOAD SWAP1 PUSH2 0x100 EXP SWAP1 DIV PUSH20 0xFFFFFFFFFFFFFFFFFFFFFFFFFFFFFFFFFFFFFFFF AND PUSH20 0xFFFFFFFFFFFFFFFFFFFFFFFFFFFFFFFFFFFFFFFF AND PUSH4 0x3AC35585 PUSH1 0x0 DUP1 SLOAD SWAP1 PUSH2 0x100 EXP SWAP1 DIV PUSH20 0xFFFFFFFFFFFFFFFFFFFFFFFFFFFFFFFFFFFFFFFF AND DUP5 PUSH1 0x40 MLOAD DUP4 PUSH4 0xFFFFFFFF AND PUSH1 0xE0 SHL DUP2 MSTORE PUSH1 0x4 ADD PUSH2 0x13DA SWAP3 SWAP2 SWAP1 PUSH2 0x190F JUMP JUMPDEST PUSH1 0x20 PUSH1 0x40 MLOAD DUP1 DUP4 SUB DUP2 DUP7 GAS STATICCALL ISZERO DUP1 ISZERO PUSH2 0x13F7 JUMPI RETURNDATASIZE PUSH1 0x0 DUP1 RETURNDATACOPY RETURNDATASIZE PUSH1 0x0 REVERT JUMPDEST POP POP POP POP PUSH1 0x40 MLOAD RETURNDATASIZE PUSH1 0x1F NOT PUSH1 0x1F DUP3 ADD AND DUP3 ADD DUP1 PUSH1 0x40 MSTORE POP DUP2 ADD SWAP1 PUSH2 0x141B SWAP2 SWAP1 PUSH2 0x18E2 JUMP JUMPDEST SWAP1 POP PUSH1 0x1 PUSH1 0x0 SWAP1 SLOAD SWAP1 PUSH2 0x100 EXP SWAP1 DIV PUSH20 0xFFFFFFFFFFFFFFFFFFFFFFFFFFFFFFFFFFFFFFFF AND PUSH20 0xFFFFFFFFFFFFFFFFFFFFFFFFFFFFFFFFFFFFFFFF AND PUSH4 0x96FE8349 DUP3 DUP6 PUSH1 0x40 MLOAD DUP4 PUSH4 0xFFFFFFFF AND PUSH1 0xE0 SHL DUP2 MSTORE PUSH1 0x4 ADD PUSH2 0x147A SWAP3 SWAP2 SWAP1 PUSH2 0x1ACA JUMP JUMPDEST PUSH1 0x0 PUSH1 0x40 MLOAD DUP1 DUP4 SUB DUP2 PUSH1 0x0 DUP8 DUP1 EXTCODESIZE ISZERO DUP1 ISZERO PUSH2 0x1494 JUMPI PUSH1 0x0 DUP1 REVERT JUMPDEST POP GAS CALL ISZERO DUP1 ISZERO PUSH2 0x14A8 JUMPI RETURNDATASIZE PUSH1 0x0 DUP1 RETURNDATACOPY RETURNDATASIZE PUSH1 0x0 REVERT JUMPDEST POP POP POP POP POP POP POP JUMP JUMPDEST PUSH1 0x0 DUP1 PUSH1 0xA PUSH1 0x0 SWAP1 SLOAD SWAP1 PUSH2 0x100 EXP SWAP1 DIV PUSH20 0xFFFFFFFFFFFFFFFFFFFFFFFFFFFFFFFFFFFFFFFF AND PUSH20 0xFFFFFFFFFFFFFFFFFFFFFFFFFFFFFFFFFFFFFFFF AND PUSH4 0x3AC35585 PUSH1 0x0 DUP1 SLOAD SWAP1 PUSH2 0x100 EXP SWAP1 DIV PUSH20 0xFFFFFFFFFFFFFFFFFFFFFFFFFFFFFFFFFFFFFFFF AND DUP6 PUSH1 0x40 MLOAD DUP4 PUSH4 0xFFFFFFFF AND PUSH1 0xE0 SHL DUP2 MSTORE PUSH1 0x4 ADD PUSH2 0x1531 SWAP3 SWAP2 SWAP1 PUSH2 0x190F JUMP JUMPDEST PUSH1 0x20 PUSH1 0x40 MLOAD DUP1 DUP4 SUB DUP2 DUP7 GAS STATICCALL ISZERO DUP1 ISZERO PUSH2 0x154E JUMPI RETURNDATASIZE PUSH1 0x0 DUP1 RETURNDATACOPY RETURNDATASIZE PUSH1 0x0 REVERT JUMPDEST POP POP POP POP PUSH1 0x40 MLOAD RETURNDATASIZE PUSH1 0x1F NOT PUSH1 0x1F DUP3 ADD AND DUP3 ADD DUP1 PUSH1 0x40 MSTORE POP DUP2 ADD SWAP1 PUSH2 0x1572 SWAP2 SWAP1 PUSH2 0x18E2 JUMP JUMPDEST SWAP1 POP PUSH1 0x0 PUSH1 0x64 PUSH1 0x5F DUP4 PUSH2 0x1585 SWAP2 SWAP1 PUSH2 0x19F4 JUMP JUMPDEST PUSH2 0x158F SWAP2 SWAP1 PUSH2 0x1A65 JUMP JUMPDEST SWAP1 POP PUSH1 0x0 PUSH1 0x2 PUSH8 0xFFFFFFFFFFFFFFFF DUP2 GT ISZERO PUSH2 0x15AE JUMPI PUSH2 0x15AD PUSH2 0x1C90 JUMP JUMPDEST JUMPDEST PUSH1 0x40 MLOAD SWAP1 DUP1 DUP3 MSTORE DUP1 PUSH1 0x20 MUL PUSH1 0x20 ADD DUP3 ADD PUSH1 0x40 MSTORE DUP1 ISZERO PUSH2 0x15DC JUMPI DUP2 PUSH1 0x20 ADD PUSH1 0x20 DUP3 MUL DUP1 CALLDATASIZE DUP4 CALLDATACOPY DUP1 DUP3 ADD SWAP2 POP POP SWAP1 POP JUMPDEST POP SWAP1 POP PUSH1 0xB PUSH1 0x0 SWAP1 SLOAD SWAP1 PUSH2 0x100 EXP SWAP1 DIV PUSH20 0xFFFFFFFFFFFFFFFFFFFFFFFFFFFFFFFFFFFFFFFF AND PUSH20 0xFFFFFFFFFFFFFFFFFFFFFFFFFFFFFFFFFFFFFFFF AND PUSH4 0x7FF36AB5 DUP7 DUP5 PUSH1 0x7 CALLER PUSH32 0xFFFFFFFFFFFFFFFFFFFFFFFFFFFFFFFFFFFFFFFFFFFFFFFFFFFFFFFFFFFFFFFF PUSH1 0x40 MLOAD DUP7 PUSH4 0xFFFFFFFF AND PUSH1 0xE0 SHL DUP2 MSTORE PUSH1 0x4 ADD PUSH2 0x1662 SWAP5 SWAP4 SWAP3 SWAP2 SWAP1 PUSH2 0x1DE3 JUMP JUMPDEST PUSH1 0x0 PUSH1 0x40 MLOAD DUP1 DUP4 SUB DUP2 DUP6 DUP9 GAS CALL ISZERO DUP1 ISZERO PUSH2 0x1680 JUMPI RETURNDATASIZE PUSH1 0x0 DUP1 RETURNDATACOPY RETURNDATASIZE PUSH1 0x0 REVERT JUMPDEST POP POP POP POP POP PUSH1 0x40 MLOAD RETURNDATASIZE PUSH1 0x0 DUP3 RETURNDATACOPY RETURNDATASIZE PUSH1 0x1F NOT PUSH1 0x1F DUP3 ADD AND DUP3 ADD DUP1 PUSH1 0x40 MSTORE POP DUP2 ADD SWAP1 PUSH2 0x16AA SWAP2 SWAP1 PUSH2 0x1F59 JUMP JUMPDEST SWAP1 POP DUP1 PUSH1 0x1 DUP2 MLOAD DUP2 LT PUSH2 0x16C0 JUMPI PUSH2 0x16BF PUSH2 0x1FA2 JUMP JUMPDEST JUMPDEST PUSH1 0x20 MUL PUSH1 0x20 ADD ADD MLOAD SWAP4 POP POP POP POP SWAP2 SWAP1 POP JUMP JUMPDEST PUSH1 0x0 DUP2 ISZERO ISZERO SWAP1 POP SWAP2 SWAP1 POP JUMP JUMPDEST PUSH2 0x16E7 DUP2 PUSH2 0x16D2 JUMP JUMPDEST DUP3 MSTORE POP POP JUMP JUMPDEST PUSH1 0x0 PUSH1 0x20 DUP3 ADD SWAP1 POP PUSH2 0x1702 PUSH1 0x0 DUP4 ADD DUP5 PUSH2 0x16DE JUMP JUMPDEST SWAP3 SWAP2 POP POP JUMP JUMPDEST PUSH1 0x0 PUSH1 0x40 MLOAD SWAP1 POP SWAP1 JUMP JUMPDEST PUSH1 0x0 DUP1 REVERT JUMPDEST PUSH1 0x0 DUP1 REVERT JUMPDEST PUSH1 0x0 PUSH20 0xFFFFFFFFFFFFFFFFFFFFFFFFFFFFFFFFFFFFFFFF DUP3 AND SWAP1 POP SWAP2 SWAP1 POP JUMP JUMPDEST PUSH1 0x0 PUSH2 0x1747 DUP3 PUSH2 0x171C JUMP JUMPDEST SWAP1 POP SWAP2 SWAP1 POP JUMP JUMPDEST PUSH2 0x1757 DUP2 PUSH2 0x173C JUMP JUMPDEST DUP2 EQ PUSH2 0x1762 JUMPI PUSH1 0x0 DUP1 REVERT JUMPDEST POP JUMP JUMPDEST PUSH1 0x0 DUP2 CALLDATALOAD SWAP1 POP PUSH2 0x1774 DUP2 PUSH2 0x174E JUMP JUMPDEST SWAP3 SWAP2 POP POP JUMP JUMPDEST PUSH1 0x0 PUSH1 0x20 DUP3 DUP5 SUB SLT ISZERO PUSH2 0x1790 JUMPI PUSH2 0x178F PUSH2 0x1712 JUMP JUMPDEST JUMPDEST PUSH1 0x0 PUSH2 0x179E DUP5 DUP3 DUP6 ADD PUSH2 0x1765 JUMP JUMPDEST SWAP2 POP POP SWAP3 SWAP2 POP POP JUMP JUMPDEST PUSH2 0x17B0 DUP2 PUSH2 0x173C JUMP JUMPDEST DUP3 MSTORE POP POP JUMP JUMPDEST PUSH1 0x0 PUSH1 0x20 DUP3 ADD SWAP1 POP PUSH2 0x17CB PUSH1 0x0 DUP4 ADD DUP5 PUSH2 0x17A7 JUMP JUMPDEST SWAP3 SWAP2 POP POP JUMP JUMPDEST PUSH1 0x0 DUP2 SWAP1 POP SWAP2 SWAP1 POP JUMP JUMPDEST PUSH2 0x17E4 DUP2 PUSH2 0x17D1 JUMP JUMPDEST DUP2 EQ PUSH2 0x17EF JUMPI PUSH1 0x0 DUP1 REVERT JUMPDEST POP JUMP JUMPDEST PUSH1 0x0 DUP2 CALLDATALOAD SWAP1 POP PUSH2 0x1801 DUP2 PUSH2 0x17DB JUMP JUMPDEST SWAP3 SWAP2 POP POP JUMP JUMPDEST PUSH1 0x0 PUSH1 0x20 DUP3 DUP5 SUB SLT ISZERO PUSH2 0x181D JUMPI PUSH2 0x181C PUSH2 0x1712 JUMP JUMPDEST JUMPDEST PUSH1 0x0 PUSH2 0x182B DUP5 DUP3 DUP6 ADD PUSH2 0x17F2 JUMP JUMPDEST SWAP2 POP POP SWAP3 SWAP2 POP POP JUMP JUMPDEST PUSH2 0x183D DUP2 PUSH2 0x17D1 JUMP JUMPDEST DUP3 MSTORE POP POP JUMP JUMPDEST PUSH1 0x0 PUSH1 0xE0 DUP3 ADD SWAP1 POP PUSH2 0x1858 PUSH1 0x0 DUP4 ADD DUP11 PUSH2 0x1834 JUMP JUMPDEST PUSH2 0x1865 PUSH1 0x20 DUP4 ADD DUP10 PUSH2 0x17A7 JUMP JUMPDEST PUSH2 0x1872 PUSH1 0x40 DUP4 ADD DUP9 PUSH2 0x16DE JUMP JUMPDEST PUSH2 0x187F PUSH1 0x60 DUP4 ADD DUP8 PUSH2 0x1834 JUMP JUMPDEST PUSH2 0x188C PUSH1 0x80 DUP4 ADD DUP7 PUSH2 0x16DE JUMP JUMPDEST PUSH2 0x1899 PUSH1 0xA0 DUP4 ADD DUP6 PUSH2 0x1834 JUMP JUMPDEST PUSH2 0x18A6 PUSH1 0xC0 DUP4 ADD DUP5 PUSH2 0x16DE JUMP JUMPDEST SWAP9 SWAP8 POP POP POP POP POP POP POP POP JUMP JUMPDEST PUSH1 0x0 PUSH1 0x20 DUP3 ADD SWAP1 POP PUSH2 0x18C7 PUSH1 0x0 DUP4 ADD DUP5 PUSH2 0x1834 JUMP JUMPDEST SWAP3 SWAP2 POP POP JUMP JUMPDEST PUSH1 0x0 DUP2 MLOAD SWAP1 POP PUSH2 0x18DC DUP2 PUSH2 0x17DB JUMP JUMPDEST SWAP3 SWAP2 POP POP JUMP JUMPDEST PUSH1 0x0 PUSH1 0x20 DUP3 DUP5 SUB SLT ISZERO PUSH2 0x18F8 JUMPI PUSH2 0x18F7 PUSH2 0x1712 JUMP JUMPDEST JUMPDEST PUSH1 0x0 PUSH2 0x1906 DUP5 DUP3 DUP6 ADD PUSH2 0x18CD JUMP JUMPDEST SWAP2 POP POP SWAP3 SWAP2 POP POP JUMP JUMPDEST PUSH1 0x0 PUSH1 0x40 DUP3 ADD SWAP1 POP PUSH2 0x1924 PUSH1 0x0 DUP4 ADD DUP6 PUSH2 0x17A7 JUMP JUMPDEST PUSH2 0x1931 PUSH1 0x20 DUP4 ADD DUP5 PUSH2 0x1834 JUMP JUMPDEST SWAP4 SWAP3 POP POP POP JUMP JUMPDEST PUSH2 0x1941 DUP2 PUSH2 0x16D2 JUMP JUMPDEST DUP2 EQ PUSH2 0x194C JUMPI PUSH1 0x0 DUP1 REVERT JUMPDEST POP JUMP JUMPDEST PUSH1 0x0 DUP2 MLOAD SWAP1 POP PUSH2 0x195E DUP2 PUSH2 0x1938 JUMP JUMPDEST SWAP3 SWAP2 POP POP JUMP JUMPDEST PUSH1 0x0 PUSH1 0x20 DUP3 DUP5 SUB SLT ISZERO PUSH2 0x197A JUMPI PUSH2 0x1979 PUSH2 0x1712 JUMP JUMPDEST JUMPDEST PUSH1 0x0 PUSH2 0x1988 DUP5 DUP3 DUP6 ADD PUSH2 0x194F JUMP JUMPDEST SWAP2 POP POP SWAP3 SWAP2 POP POP JUMP JUMPDEST PUSH32 0x4E487B7100000000000000000000000000000000000000000000000000000000 PUSH1 0x0 MSTORE PUSH1 0x11 PUSH1 0x4 MSTORE PUSH1 0x24 PUSH1 0x0 REVERT JUMPDEST PUSH1 0x0 PUSH2 0x19CB DUP3 PUSH2 0x17D1 JUMP JUMPDEST SWAP2 POP PUSH2 0x19D6 DUP4 PUSH2 0x17D1 JUMP JUMPDEST SWAP3 POP DUP3 DUP3 SUB SWAP1 POP DUP2 DUP2 GT ISZERO PUSH2 0x19EE JUMPI PUSH2 0x19ED PUSH2 0x1991 JUMP JUMPDEST JUMPDEST SWAP3 SWAP2 POP POP JUMP JUMPDEST PUSH1 0x0 PUSH2 0x19FF DUP3 PUSH2 0x17D1 JUMP JUMPDEST SWAP2 POP PUSH2 0x1A0A DUP4 PUSH2 0x17D1 JUMP JUMPDEST SWAP3 POP DUP3 DUP3 MUL PUSH2 0x1A18 DUP2 PUSH2 0x17D1 JUMP JUMPDEST SWAP2 POP DUP3 DUP3 DIV DUP5 EQ DUP4 ISZERO OR PUSH2 0x1A2F JUMPI PUSH2 0x1A2E PUSH2 0x1991 JUMP JUMPDEST JUMPDEST POP SWAP3 SWAP2 POP POP JUMP JUMPDEST PUSH32 0x4E487B7100000000000000000000000000000000000000000000000000000000 PUSH1 0x0 MSTORE PUSH1 0x12 PUSH1 0x4 MSTORE PUSH1 0x24 PUSH1 0x0 REVERT JUMPDEST PUSH1 0x0 PUSH2 0x1A70 DUP3 PUSH2 0x17D1 JUMP JUMPDEST SWAP2 POP PUSH2 0x1A7B DUP4 PUSH2 0x17D1 JUMP JUMPDEST SWAP3 POP DUP3 PUSH2 0x1A8B JUMPI PUSH2 0x1A8A PUSH2 0x1A36 JUMP JUMPDEST JUMPDEST DUP3 DUP3 DIV SWAP1 POP SWAP3 SWAP2 POP POP JUMP JUMPDEST PUSH1 0x0 PUSH2 0x1AA1 DUP3 PUSH2 0x17D1 JUMP JUMPDEST SWAP2 POP PUSH2 0x1AAC DUP4 PUSH2 0x17D1 JUMP JUMPDEST SWAP3 POP DUP3 DUP3 ADD SWAP1 POP DUP1 DUP3 GT ISZERO PUSH2 0x1AC4 JUMPI PUSH2 0x1AC3 PUSH2 0x1991 JUMP JUMPDEST JUMPDEST SWAP3 SWAP2 POP POP JUMP JUMPDEST PUSH1 0x0 PUSH1 0x40 DUP3 ADD SWAP1 POP PUSH2 0x1ADF PUSH1 0x0 DUP4 ADD DUP6 PUSH2 0x1834 JUMP JUMPDEST PUSH2 0x1AEC PUSH1 0x20 DUP4 ADD DUP5 PUSH2 0x17A7 JUMP JUMPDEST SWAP4 SWAP3 POP POP POP JUMP JUMPDEST PUSH1 0x0 PUSH1 0xC0 DUP3 ADD SWAP1 POP PUSH2 0x1B08 PUSH1 0x0 DUP4 ADD DUP10 PUSH2 0x17A7 JUMP JUMPDEST PUSH2 0x1B15 PUSH1 0x20 DUP4 ADD DUP9 PUSH2 0x1834 JUMP JUMPDEST PUSH2 0x1B22 PUSH1 0x40 DUP4 ADD DUP8 PUSH2 0x1834 JUMP JUMPDEST PUSH2 0x1B2F PUSH1 0x60 DUP4 ADD DUP7 PUSH2 0x1834 JUMP JUMPDEST PUSH2 0x1B3C PUSH1 0x80 DUP4 ADD DUP6 PUSH2 0x17A7 JUMP JUMPDEST PUSH2 0x1B49 PUSH1 0xA0 DUP4 ADD DUP5 PUSH2 0x1834 JUMP JUMPDEST SWAP8 SWAP7 POP POP POP POP POP POP POP JUMP JUMPDEST PUSH1 0x0 DUP1 PUSH1 0x0 PUSH1 0x60 DUP5 DUP7 SUB SLT ISZERO PUSH2 0x1B6D JUMPI PUSH2 0x1B6C PUSH2 0x1712 JUMP JUMPDEST JUMPDEST PUSH1 0x0 PUSH2 0x1B7B DUP7 DUP3 DUP8 ADD PUSH2 0x18CD JUMP JUMPDEST SWAP4 POP POP PUSH1 0x20 PUSH2 0x1B8C DUP7 DUP3 DUP8 ADD PUSH2 0x18CD JUMP JUMPDEST SWAP3 POP POP PUSH1 0x40 PUSH2 0x1B9D DUP7 DUP3 DUP8 ADD PUSH2 0x18CD JUMP JUMPDEST SWAP2 POP POP SWAP3 POP SWAP3 POP SWAP3 JUMP JUMPDEST PUSH1 0x0 DUP3 DUP3 MSTORE PUSH1 0x20 DUP3 ADD SWAP1 POP SWAP3 SWAP2 POP POP JUMP JUMPDEST PUSH32 0x4C6971756964697479204E6F742050726F766964656400000000000000000000 PUSH1 0x0 DUP3 ADD MSTORE POP JUMP JUMPDEST PUSH1 0x0 PUSH2 0x1BEE PUSH1 0x16 DUP4 PUSH2 0x1BA7 JUMP JUMPDEST SWAP2 POP PUSH2 0x1BF9 DUP3 PUSH2 0x1BB8 JUMP JUMPDEST PUSH1 0x20 DUP3 ADD SWAP1 POP SWAP2 SWAP1 POP JUMP JUMPDEST PUSH1 0x0 PUSH1 0x20 DUP3 ADD SWAP1 POP DUP2 DUP2 SUB PUSH1 0x0 DUP4 ADD MSTORE PUSH2 0x1C1D DUP2 PUSH2 0x1BE1 JUMP JUMPDEST SWAP1 POP SWAP2 SWAP1 POP JUMP JUMPDEST PUSH32 0x6C6971756964697479205375636365737366756C6C792050726F766964656400 PUSH1 0x0 DUP3 ADD MSTORE POP JUMP JUMPDEST PUSH1 0x0 PUSH2 0x1C5A PUSH1 0x1F DUP4 PUSH2 0x1BA7 JUMP JUMPDEST SWAP2 POP PUSH2 0x1C65 DUP3 PUSH2 0x1C24 JUMP JUMPDEST PUSH1 0x20 DUP3 ADD SWAP1 POP SWAP2 SWAP1 POP JUMP JUMPDEST PUSH1 0x0 PUSH1 0x20 DUP3 ADD SWAP1 POP DUP2 DUP2 SUB PUSH1 0x0 DUP4 ADD MSTORE PUSH2 0x1C89 DUP2 PUSH2 0x1C4D JUMP JUMPDEST SWAP1 POP SWAP2 SWAP1 POP JUMP JUMPDEST PUSH32 0x4E487B7100000000000000000000000000000000000000000000000000000000 PUSH1 0x0 MSTORE PUSH1 0x41 PUSH1 0x4 MSTORE PUSH1 0x24 PUSH1 0x0 REVERT JUMPDEST PUSH1 0x0 DUP2 SLOAD SWAP1 POP SWAP2 SWAP1 POP JUMP JUMPDEST PUSH1 0x0 DUP3 DUP3 MSTORE PUSH1 0x20 DUP3 ADD SWAP1 POP SWAP3 SWAP2 POP POP JUMP JUMPDEST PUSH1 0x0 DUP2 SWAP1 POP DUP2 PUSH1 0x0 MSTORE PUSH1 0x20 PUSH1 0x0 KECCAK256 SWAP1 POP SWAP2 SWAP1 POP JUMP JUMPDEST PUSH2 0x1CF9 DUP2 PUSH2 0x173C JUMP JUMPDEST DUP3 MSTORE POP POP JUMP JUMPDEST PUSH1 0x0 PUSH2 0x1D0B DUP4 DUP4 PUSH2 0x1CF0 JUMP JUMPDEST PUSH1 0x20 DUP4 ADD SWAP1 POP SWAP3 SWAP2 POP POP JUMP JUMPDEST PUSH1 0x0 DUP2 PUSH1 0x0 SHR SWAP1 POP SWAP2 SWAP1 POP JUMP JUMPDEST PUSH1 0x0 PUSH20 0xFFFFFFFFFFFFFFFFFFFFFFFFFFFFFFFFFFFFFFFF DUP3 AND SWAP1 POP SWAP2 SWAP1 POP JUMP JUMPDEST PUSH1 0x0 PUSH2 0x1D57 PUSH2 0x1D52 DUP4 PUSH2 0x1D17 JUMP JUMPDEST PUSH2 0x1D24 JUMP JUMPDEST SWAP1 POP SWAP2 SWAP1 POP JUMP JUMPDEST PUSH1 0x0 PUSH2 0x1D6A DUP3 SLOAD PUSH2 0x1D44 JUMP JUMPDEST SWAP1 POP SWAP2 SWAP1 POP JUMP JUMPDEST PUSH1 0x0 PUSH1 0x1 DUP3 ADD SWAP1 POP SWAP2 SWAP1 POP JUMP JUMPDEST PUSH1 0x0 PUSH2 0x1D89 DUP3 PUSH2 0x1CBF JUMP JUMPDEST PUSH2 0x1D93 DUP2 DUP6 PUSH2 0x1CCA JUMP JUMPDEST SWAP4 POP PUSH2 0x1D9E DUP4 PUSH2 0x1CDB JUMP JUMPDEST DUP1 PUSH1 0x0 JUMPDEST DUP4 DUP2 LT ISZERO PUSH2 0x1DD6 JUMPI PUSH2 0x1DB3 DUP3 PUSH2 0x1D5E JUMP JUMPDEST PUSH2 0x1DBD DUP9 DUP3 PUSH2 0x1CFF JUMP JUMPDEST SWAP8 POP PUSH2 0x1DC8 DUP4 PUSH2 0x1D71 JUMP JUMPDEST SWAP3 POP POP PUSH1 0x1 DUP2 ADD SWAP1 POP PUSH2 0x1DA2 JUMP JUMPDEST POP DUP6 SWAP4 POP POP POP POP SWAP3 SWAP2 POP POP JUMP JUMPDEST PUSH1 0x0 PUSH1 0x80 DUP3 ADD SWAP1 POP PUSH2 0x1DF8 PUSH1 0x0 DUP4 ADD DUP8 PUSH2 0x1834 JUMP JUMPDEST DUP2 DUP2 SUB PUSH1 0x20 DUP4 ADD MSTORE PUSH2 0x1E0A DUP2 DUP7 PUSH2 0x1D7E JUMP JUMPDEST SWAP1 POP PUSH2 0x1E19 PUSH1 0x40 DUP4 ADD DUP6 PUSH2 0x17A7 JUMP JUMPDEST PUSH2 0x1E26 PUSH1 0x60 DUP4 ADD DUP5 PUSH2 0x1834 JUMP JUMPDEST SWAP6 SWAP5 POP POP POP POP POP JUMP JUMPDEST PUSH1 0x0 DUP1 REVERT JUMPDEST PUSH1 0x0 PUSH1 0x1F NOT PUSH1 0x1F DUP4 ADD AND SWAP1 POP SWAP2 SWAP1 POP JUMP JUMPDEST PUSH2 0x1E4E DUP3 PUSH2 0x1E34 JUMP JUMPDEST DUP2 ADD DUP2 DUP2 LT PUSH8 0xFFFFFFFFFFFFFFFF DUP3 GT OR ISZERO PUSH2 0x1E6D JUMPI PUSH2 0x1E6C PUSH2 0x1C90 JUMP JUMPDEST JUMPDEST DUP1 PUSH1 0x40 MSTORE POP POP POP JUMP JUMPDEST PUSH1 0x0 PUSH2 0x1E80 PUSH2 0x1708 JUMP JUMPDEST SWAP1 POP PUSH2 0x1E8C DUP3 DUP3 PUSH2 0x1E45 JUMP JUMPDEST SWAP2 SWAP1 POP JUMP JUMPDEST PUSH1 0x0 PUSH8 0xFFFFFFFFFFFFFFFF DUP3 GT ISZERO PUSH2 0x1EAC JUMPI PUSH2 0x1EAB PUSH2 0x1C90 JUMP JUMPDEST JUMPDEST PUSH1 0x20 DUP3 MUL SWAP1 POP PUSH1 0x20 DUP2 ADD SWAP1 POP SWAP2 SWAP1 POP JUMP JUMPDEST PUSH1 0x0 DUP1 REVERT JUMPDEST PUSH1 0x0 PUSH2 0x1ED5 PUSH2 0x1ED0 DUP5 PUSH2 0x1E91 JUMP JUMPDEST PUSH2 0x1E76 JUMP JUMPDEST SWAP1 POP DUP1 DUP4 DUP3 MSTORE PUSH1 0x20 DUP3 ADD SWAP1 POP PUSH1 0x20 DUP5 MUL DUP4 ADD DUP6 DUP2 GT ISZERO PUSH2 0x1EF8 JUMPI PUSH2 0x1EF7 PUSH2 0x1EBD JUMP JUMPDEST JUMPDEST DUP4 JUMPDEST DUP2 DUP2 LT ISZERO PUSH2 0x1F21 JUMPI DUP1 PUSH2 0x1F0D DUP9 DUP3 PUSH2 0x18CD JUMP JUMPDEST DUP5 MSTORE PUSH1 0x20 DUP5 ADD SWAP4 POP POP PUSH1 0x20 DUP2 ADD SWAP1 POP PUSH2 0x1EFA JUMP JUMPDEST POP POP POP SWAP4 SWAP3 POP POP POP JUMP JUMPDEST PUSH1 0x0 DUP3 PUSH1 0x1F DUP4 ADD SLT PUSH2 0x1F40 JUMPI PUSH2 0x1F3F PUSH2 0x1E2F JUMP JUMPDEST JUMPDEST DUP2 MLOAD PUSH2 0x1F50 DUP5 DUP3 PUSH1 0x20 DUP7 ADD PUSH2 0x1EC2 JUMP JUMPDEST SWAP2 POP POP SWAP3 SWAP2 POP POP JUMP JUMPDEST PUSH1 0x0 PUSH1 0x20 DUP3 DUP5 SUB SLT ISZERO PUSH2 0x1F6F JUMPI PUSH2 0x1F6E PUSH2 0x1712 JUMP JUMPDEST JUMPDEST PUSH1 0x0 DUP3 ADD MLOAD PUSH8 0xFFFFFFFFFFFFFFFF DUP2 GT ISZERO PUSH2 0x1F8D JUMPI PUSH2 0x1F8C PUSH2 0x1717 JUMP JUMPDEST JUMPDEST PUSH2 0x1F99 DUP5 DUP3 DUP6 ADD PUSH2 0x1F2B JUMP JUMPDEST SWAP2 POP POP SWAP3 SWAP2 POP POP JUMP JUMPDEST PUSH32 0x4E487B7100000000000000000000000000000000000000000000000000000000 PUSH1 0x0 MSTORE PUSH1 0x32 PUSH1 0x4 MSTORE PUSH1 0x24 PUSH1 0x0 REVERT INVALID LOG2 PUSH5 0x6970667358 0x22 SLT KECCAK256 SWAP9 0xA6 0xCC 0xE4 PUSH23 0xDE92CFCC8359A543F77ED1D3EFA4297F1A6072C53216EB 0xA7 0x2C 0x4B 0x2C PUSH5 0x736F6C6343 STOP ADDMOD GT STOP CALLER "
				},
				"gasEstimates": {
					"creation": {
						"codeDepositCost": "1639800",
						"executionCost": "infinite",
						"totalCost": "infinite"
					},
					"external": {
						"ERC20Address()": "2581",
						"POAPAddress()": "2536",
						"WethAddress()": "2600",
						"buyEth()": "2452",
						"createTransfer()": "126177",
						"crownNFTAddress()": "2581",
						"getLastEthRecieved()": "4717",
						"getWethBalance()": "infinite",
						"liquidityEth()": "2474",
						"oracleAddress()": "2625",
						"path(uint256)": "5000",
						"percentLiquidity()": "infinite",
						"superBuy()": "infinite",
						"totalRoyalties()": "2518",
						"transactionFromPOAPId(uint256)": "infinite",
						"uniswapPairAddress()": "2580",
						"uniswapRouterAddress()": "2582",
						"updateERC20Address(address)": "24768",
						"withdraw(address)": "infinite"
					},
					"internal": {
						"buyAndBurn(uint256)": "infinite",
						"buyTokens(uint256)": "infinite",
						"erc20ToPreviousHolder(address)": "infinite",
						"newTransaction(uint256)": "119323",
						"processETH()": "infinite",
						"provideLiquidity(uint256)": "infinite"
					}
				},
				"methodIdentifiers": {
					"ERC20Address()": "a6021ace",
					"POAPAddress()": "aef75107",
					"WethAddress()": "a785a3d8",
					"buyEth()": "4cfd1ba5",
					"createTransfer()": "01ac552d",
					"crownNFTAddress()": "777b506f",
					"getLastEthRecieved()": "bfd9ea5b",
					"getWethBalance()": "9dd58b58",
					"liquidityEth()": "a09ede07",
					"oracleAddress()": "a89ae4ba",
					"path(uint256)": "af6d1fe4",
					"percentLiquidity()": "c1f2e5f1",
					"superBuy()": "966824a3",
					"totalRoyalties()": "86d02608",
					"transactionFromPOAPId(uint256)": "2c4c3c1b",
					"uniswapPairAddress()": "bd3733fe",
					"uniswapRouterAddress()": "20ca3c7f",
					"updateERC20Address(address)": "1b017fde",
					"withdraw(address)": "51cff8d9"
				}
			},
			"storageLayout": {
				"storage": [
					{
						"astId": 619,
						"contract": "contracts/Hook.sol:TransactionsAndHook",
						"label": "WethAddress",
						"offset": 0,
						"slot": "0",
						"type": "t_address"
					},
					{
						"astId": 621,
						"contract": "contracts/Hook.sol:TransactionsAndHook",
						"label": "ERC20Address",
						"offset": 0,
						"slot": "1",
						"type": "t_address"
					},
					{
						"astId": 623,
						"contract": "contracts/Hook.sol:TransactionsAndHook",
						"label": "uniswapPairAddress",
						"offset": 0,
						"slot": "2",
						"type": "t_address"
					},
					{
						"astId": 625,
						"contract": "contracts/Hook.sol:TransactionsAndHook",
						"label": "oracleAddress",
						"offset": 0,
						"slot": "3",
						"type": "t_address"
					},
					{
						"astId": 627,
						"contract": "contracts/Hook.sol:TransactionsAndHook",
						"label": "crownNFTAddress",
						"offset": 0,
						"slot": "4",
						"type": "t_address"
					},
					{
						"astId": 629,
						"contract": "contracts/Hook.sol:TransactionsAndHook",
						"label": "POAPAddress",
						"offset": 0,
						"slot": "5",
						"type": "t_address"
					},
					{
						"astId": 632,
						"contract": "contracts/Hook.sol:TransactionsAndHook",
						"label": "uniswapRouterAddress",
						"offset": 0,
						"slot": "6",
						"type": "t_address"
					},
					{
						"astId": 638,
						"contract": "contracts/Hook.sol:TransactionsAndHook",
						"label": "path",
						"offset": 0,
						"slot": "7",
						"type": "t_array(t_address)dyn_storage"
					},
					{
						"astId": 644,
						"contract": "contracts/Hook.sol:TransactionsAndHook",
						"label": "POAP",
						"offset": 0,
						"slot": "8",
						"type": "t_contract(iPOAP)483"
					},
					{
						"astId": 650,
						"contract": "contracts/Hook.sol:TransactionsAndHook",
						"label": "WETH",
						"offset": 0,
						"slot": "9",
						"type": "t_contract(WethLike)542"
					},
					{
						"astId": 656,
						"contract": "contracts/Hook.sol:TransactionsAndHook",
						"label": "Oracle",
						"offset": 0,
						"slot": "10",
						"type": "t_contract(iOracle)517"
					},
					{
						"astId": 662,
						"contract": "contracts/Hook.sol:TransactionsAndHook",
						"label": "UniswapRouter",
						"offset": 0,
						"slot": "11",
						"type": "t_contract(IUniswapV2Router02)473"
					},
					{
						"astId": 667,
						"contract": "contracts/Hook.sol:TransactionsAndHook",
						"label": "transactionFromPOAPId",
						"offset": 0,
						"slot": "12",
						"type": "t_mapping(t_uint256,t_struct(Transaction)697_storage)"
					},
					{
						"astId": 670,
						"contract": "contracts/Hook.sol:TransactionsAndHook",
						"label": "POAPIds",
						"offset": 0,
						"slot": "13",
						"type": "t_array(t_uint256)dyn_storage"
					},
					{
						"astId": 672,
						"contract": "contracts/Hook.sol:TransactionsAndHook",
						"label": "totalRoyalties",
						"offset": 0,
						"slot": "14",
						"type": "t_uint256"
					},
					{
						"astId": 983,
						"contract": "contracts/Hook.sol:TransactionsAndHook",
						"label": "buyEth",
						"offset": 0,
						"slot": "15",
						"type": "t_uint256"
					},
					{
						"astId": 985,
						"contract": "contracts/Hook.sol:TransactionsAndHook",
						"label": "liquidityEth",
						"offset": 0,
						"slot": "16",
						"type": "t_uint256"
					}
				],
				"types": {
					"t_address": {
						"encoding": "inplace",
						"label": "address",
						"numberOfBytes": "20"
					},
					"t_array(t_address)dyn_storage": {
						"base": "t_address",
						"encoding": "dynamic_array",
						"label": "address[]",
						"numberOfBytes": "32"
					},
					"t_array(t_uint256)dyn_storage": {
						"base": "t_uint256",
						"encoding": "dynamic_array",
						"label": "uint256[]",
						"numberOfBytes": "32"
					},
					"t_bool": {
						"encoding": "inplace",
						"label": "bool",
						"numberOfBytes": "1"
					},
					"t_contract(IUniswapV2Router02)473": {
						"encoding": "inplace",
						"label": "contract IUniswapV2Router02",
						"numberOfBytes": "20"
					},
					"t_contract(WethLike)542": {
						"encoding": "inplace",
						"label": "contract WethLike",
						"numberOfBytes": "20"
					},
					"t_contract(iOracle)517": {
						"encoding": "inplace",
						"label": "contract iOracle",
						"numberOfBytes": "20"
					},
					"t_contract(iPOAP)483": {
						"encoding": "inplace",
						"label": "contract iPOAP",
						"numberOfBytes": "20"
					},
					"t_mapping(t_uint256,t_struct(Transaction)697_storage)": {
						"encoding": "mapping",
						"key": "t_uint256",
						"label": "mapping(uint256 => struct TransactionsAndHook.Transaction)",
						"numberOfBytes": "32",
						"value": "t_struct(Transaction)697_storage"
					},
					"t_struct(Transaction)697_storage": {
						"encoding": "inplace",
						"label": "struct TransactionsAndHook.Transaction",
						"members": [
							{
								"astId": 684,
								"contract": "contracts/Hook.sol:TransactionsAndHook",
								"label": "POAPId",
								"offset": 0,
								"slot": "0",
								"type": "t_uint256"
							},
							{
								"astId": 686,
								"contract": "contracts/Hook.sol:TransactionsAndHook",
								"label": "purchaser",
								"offset": 0,
								"slot": "1",
								"type": "t_address"
							},
							{
								"astId": 688,
								"contract": "contracts/Hook.sol:TransactionsAndHook",
								"label": "transactionInProgress",
								"offset": 20,
								"slot": "1",
								"type": "t_bool"
							},
							{
								"astId": 690,
								"contract": "contracts/Hook.sol:TransactionsAndHook",
								"label": "receivedEth",
								"offset": 0,
								"slot": "2",
								"type": "t_uint256"
							},
							{
								"astId": 692,
								"contract": "contracts/Hook.sol:TransactionsAndHook",
								"label": "POAPreceived",
								"offset": 0,
								"slot": "3",
								"type": "t_bool"
							},
							{
								"astId": 694,
								"contract": "contracts/Hook.sol:TransactionsAndHook",
								"label": "tokenValueOfPOAP",
								"offset": 0,
								"slot": "4",
								"type": "t_uint256"
							},
							{
								"astId": 696,
								"contract": "contracts/Hook.sol:TransactionsAndHook",
								"label": "POAPburned",
								"offset": 0,
								"slot": "5",
								"type": "t_bool"
							}
						],
						"numberOfBytes": "192"
					},
					"t_uint256": {
						"encoding": "inplace",
						"label": "uint256",
						"numberOfBytes": "32"
					}
				}
			},
			"userdoc": {
				"kind": "user",
				"methods": {},
				"version": 1
			}
		}
	}
}