{
	"Hook.sol": {
		"TransactionsAndHook": {
			"abi": [
				{
					"inputs": [
						{
							"internalType": "address",
							"name": "_ERC20",
							"type": "address"
						},
						{
							"internalType": "address",
							"name": "_crownNFT",
							"type": "address"
						},
						{
							"internalType": "address",
							"name": "_POAP",
							"type": "address"
						},
						{
							"internalType": "address",
							"name": "_initialHolder",
							"type": "address"
						}
					],
					"stateMutability": "nonpayable",
					"type": "constructor"
				},
				{
					"anonymous": false,
					"inputs": [
						{
							"indexed": false,
							"internalType": "string",
							"name": "message",
							"type": "string"
						}
					],
					"name": "Log",
					"type": "event"
				},
				{
					"anonymous": false,
					"inputs": [
						{
							"indexed": false,
							"internalType": "uint256",
							"name": "number",
							"type": "uint256"
						}
					],
					"name": "Log",
					"type": "event"
				},
				{
					"anonymous": false,
					"inputs": [
						{
							"indexed": false,
							"internalType": "address",
							"name": "ad",
							"type": "address"
						}
					],
					"name": "Log",
					"type": "event"
				},
				{
					"inputs": [],
					"name": "ERC20Address",
					"outputs": [
						{
							"internalType": "address",
							"name": "",
							"type": "address"
						}
					],
					"stateMutability": "view",
					"type": "function"
				},
				{
					"inputs": [],
					"name": "POAPAddress",
					"outputs": [
						{
							"internalType": "address",
							"name": "",
							"type": "address"
						}
					],
					"stateMutability": "view",
					"type": "function"
				},
				{
					"inputs": [],
					"name": "WethAddress",
					"outputs": [
						{
							"internalType": "address",
							"name": "",
							"type": "address"
						}
					],
					"stateMutability": "view",
					"type": "function"
				},
				{
					"inputs": [],
					"name": "buyEth",
					"outputs": [
						{
							"internalType": "uint256",
							"name": "",
							"type": "uint256"
						}
					],
					"stateMutability": "view",
					"type": "function"
				},
				{
					"inputs": [],
					"name": "crownNFTAddress",
					"outputs": [
						{
							"internalType": "address",
							"name": "",
							"type": "address"
						}
					],
					"stateMutability": "view",
					"type": "function"
				},
				{
					"inputs": [],
					"name": "getLastEthRecieved",
					"outputs": [
						{
							"internalType": "uint256",
							"name": "",
							"type": "uint256"
						}
					],
					"stateMutability": "view",
					"type": "function"
				},
				{
					"inputs": [],
					"name": "getWethBalance",
					"outputs": [
						{
							"internalType": "uint256",
							"name": "",
							"type": "uint256"
						}
					],
					"stateMutability": "view",
					"type": "function"
				},
				{
					"inputs": [],
					"name": "liquidityEth",
					"outputs": [
						{
							"internalType": "uint256",
							"name": "",
							"type": "uint256"
						}
					],
					"stateMutability": "view",
					"type": "function"
				},
				{
					"inputs": [
						{
							"internalType": "uint256",
							"name": "tokens",
							"type": "uint256"
						}
					],
					"name": "mintSomeTokens",
					"outputs": [],
					"stateMutability": "nonpayable",
					"type": "function"
				},
				{
					"inputs": [],
					"name": "oracleAddress",
					"outputs": [
						{
							"internalType": "address",
							"name": "",
							"type": "address"
						}
					],
					"stateMutability": "view",
					"type": "function"
				},
				{
					"inputs": [
						{
							"internalType": "uint256",
							"name": "",
							"type": "uint256"
						}
					],
					"name": "path",
					"outputs": [
						{
							"internalType": "address",
							"name": "",
							"type": "address"
						}
					],
					"stateMutability": "view",
					"type": "function"
				},
				{
					"inputs": [],
					"name": "percentLiquidity",
					"outputs": [
						{
							"internalType": "uint256",
							"name": "",
							"type": "uint256"
						}
					],
					"stateMutability": "view",
					"type": "function"
				},
				{
					"inputs": [
						{
							"internalType": "address",
							"name": "_newOwner",
							"type": "address"
						}
					],
					"name": "superBuy",
					"outputs": [],
					"stateMutability": "payable",
					"type": "function"
				},
				{
					"inputs": [],
					"name": "totalRoyalties",
					"outputs": [
						{
							"internalType": "uint256",
							"name": "",
							"type": "uint256"
						}
					],
					"stateMutability": "view",
					"type": "function"
				},
				{
					"inputs": [
						{
							"internalType": "uint256",
							"name": "",
							"type": "uint256"
						}
					],
					"name": "transactionFromPOAPId",
					"outputs": [
						{
							"internalType": "uint256",
							"name": "POAPId",
							"type": "uint256"
						},
						{
							"internalType": "address",
							"name": "purchaser",
							"type": "address"
						},
						{
							"internalType": "uint256",
							"name": "receivedEth",
							"type": "uint256"
						}
					],
					"stateMutability": "view",
					"type": "function"
				},
				{
					"inputs": [],
					"name": "uniswapPairAddress",
					"outputs": [
						{
							"internalType": "address",
							"name": "",
							"type": "address"
						}
					],
					"stateMutability": "view",
					"type": "function"
				},
				{
					"inputs": [],
					"name": "uniswapRouterAddress",
					"outputs": [
						{
							"internalType": "address",
							"name": "",
							"type": "address"
						}
					],
					"stateMutability": "view",
					"type": "function"
				},
				{
					"inputs": [
						{
							"internalType": "address",
							"name": "_address",
							"type": "address"
						}
					],
					"name": "updateERC20Address",
					"outputs": [],
					"stateMutability": "nonpayable",
					"type": "function"
				},
				{
					"inputs": [
						{
							"internalType": "address",
							"name": "_ERC20Address",
							"type": "address"
						}
					],
					"name": "withdraw",
					"outputs": [],
					"stateMutability": "nonpayable",
					"type": "function"
				},
				{
					"inputs": [],
					"name": "xprovideLiquidity",
					"outputs": [
						{
							"internalType": "uint256",
							"name": "",
							"type": "uint256"
						}
					],
					"stateMutability": "payable",
					"type": "function"
				},
				{
					"stateMutability": "payable",
					"type": "receive"
				}
			],
			"devdoc": {
				"kind": "dev",
				"methods": {},
				"version": 1
			},
			"evm": {
				"assembly": "    /* \"Hook.sol\":1346:11982  contract TransactionsAndHook{... */\n  mstore(0x40, 0x80)\n    /* \"Hook.sol\":2357:2399  0xB4FBF271143F4FBf7B91A5ded31805e42b2208d6 */\n  0xb4fbf271143f4fbf7b91a5ded31805e42b2208d6\n    /* \"Hook.sol\":2328:2399  address public WethAddress = 0xB4FBF271143F4FBf7B91A5ded31805e42b2208d6 */\n  0x00\n  dup1\n  0x0100\n  exp\n  dup2\n  sload\n  dup2\n  0xffffffffffffffffffffffffffffffffffffffff\n  mul\n  not\n  and\n  swap1\n  dup4\n  0xffffffffffffffffffffffffffffffffffffffff\n  and\n  mul\n  or\n  swap1\n  sstore\n  pop\n    /* \"Hook.sol\":2617:2659  0x7a250d5630B4cF539739dF2C5dAcb4c659F2488D */\n  0x7a250d5630b4cf539739df2c5dacb4c659f2488d\n    /* \"Hook.sol\":2579:2659  address public uniswapRouterAddress = 0x7a250d5630B4cF539739dF2C5dAcb4c659F2488D */\n  0x06\n  exp(0x0100, 0x00)\n  dup2\n  sload\n  dup2\n  0xffffffffffffffffffffffffffffffffffffffff\n  mul\n  not\n  and\n  swap1\n  dup4\n  0xffffffffffffffffffffffffffffffffffffffff\n  and\n  mul\n  or\n  swap1\n  sstore\n  pop\n    /* \"Hook.sol\":2711:2722  POAPAddress */\n  0x05\n  0x00\n  swap1\n  sload\n  swap1\n  0x0100\n  exp\n  swap1\n  div\n  0xffffffffffffffffffffffffffffffffffffffff\n  and\n    /* \"Hook.sol\":2692:2723  iPOAP POAP = iPOAP(POAPAddress) */\n  0x08\n  exp(0x0100, 0x00)\n  dup2\n  sload\n  dup2\n  0xffffffffffffffffffffffffffffffffffffffff\n  mul\n  not\n  and\n  swap1\n  dup4\n  0xffffffffffffffffffffffffffffffffffffffff\n  and\n  mul\n  or\n  swap1\n  sstore\n  pop\n    /* \"Hook.sol\":2754:2765  WethAddress */\n  0x00\n  dup1\n  sload\n  swap1\n  0x0100\n  exp\n  swap1\n  div\n  0xffffffffffffffffffffffffffffffffffffffff\n  and\n    /* \"Hook.sol\":2729:2766  WethLike WETH = WethLike(WethAddress) */\n  0x09\n  exp(0x0100, 0x00)\n  dup2\n  sload\n  dup2\n  0xffffffffffffffffffffffffffffffffffffffff\n  mul\n  not\n  and\n  swap1\n  dup4\n  0xffffffffffffffffffffffffffffffffffffffff\n  and\n  mul\n  or\n  swap1\n  sstore\n  pop\n    /* \"Hook.sol\":2797:2810  oracleAddress */\n  0x03\n  0x00\n  swap1\n  sload\n  swap1\n  0x0100\n  exp\n  swap1\n  div\n  0xffffffffffffffffffffffffffffffffffffffff\n  and\n    /* \"Hook.sol\":2772:2811  iOracle Oracle = iOracle(oracleAddress) */\n  0x0a\n  exp(0x0100, 0x00)\n  dup2\n  sload\n  dup2\n  0xffffffffffffffffffffffffffffffffffffffff\n  mul\n  not\n  and\n  swap1\n  dup4\n  0xffffffffffffffffffffffffffffffffffffffff\n  and\n  mul\n  or\n  swap1\n  sstore\n  pop\n    /* \"Hook.sol\":2871:2891  uniswapRouterAddress */\n  0x06\n  0x00\n  swap1\n  sload\n  swap1\n  0x0100\n  exp\n  swap1\n  div\n  0xffffffffffffffffffffffffffffffffffffffff\n  and\n    /* \"Hook.sol\":2817:2892  IUniswapV2Router02 UniswapRouter = IUniswapV2Router02(uniswapRouterAddress) */\n  0x0b\n  exp(0x0100, 0x00)\n  dup2\n  sload\n  dup2\n  0xffffffffffffffffffffffffffffffffffffffff\n  mul\n  not\n  and\n  swap1\n  dup4\n  0xffffffffffffffffffffffffffffffffffffffff\n  and\n  mul\n  or\n  swap1\n  sstore\n  pop\n    /* \"Hook.sol\":1380:2204  constructor(address _ERC20,address _crownNFT,address _POAP, address _initialHolder){... */\n  callvalue\n  dup1\n  iszero\n  tag_1\n  jumpi\n  0x00\n  dup1\n  revert\ntag_1:\n  pop\n  mload(0x40)\n  sub(codesize, bytecodeSize)\n  dup1\n  bytecodeSize\n  dup4\n  codecopy\n  dup2\n  dup2\n  add\n  0x40\n  mstore\n  dup2\n  add\n  swap1\n  tag_2\n  swap2\n  swap1\n  tag_3\n  jump\t// in\ntag_2:\n    /* \"Hook.sol\":1561:1567  _ERC20 */\n  dup4\n    /* \"Hook.sol\":1546:1558  ERC20Address */\n  0x01\n  0x00\n    /* \"Hook.sol\":1546:1567  ERC20Address = _ERC20 */\n  0x0100\n  exp\n  dup2\n  sload\n  dup2\n  0xffffffffffffffffffffffffffffffffffffffff\n  mul\n  not\n  and\n  swap1\n  dup4\n  0xffffffffffffffffffffffffffffffffffffffff\n  and\n  mul\n  or\n  swap1\n  sstore\n  pop\n    /* \"Hook.sol\":1607:1619  ERC20Address */\n  0x01\n  0x00\n  swap1\n  sload\n  swap1\n  0x0100\n  exp\n  swap1\n  div\n  0xffffffffffffffffffffffffffffffffffffffff\n  and\n    /* \"Hook.sol\":1598:1639  WethLike(ERC20Address).uniswapPairAddress */\n  0xffffffffffffffffffffffffffffffffffffffff\n  and\n  0xbd3733fe\n    /* \"Hook.sol\":1598:1641  WethLike(ERC20Address).uniswapPairAddress() */\n  mload(0x40)\n  dup2\n  0xffffffff\n  and\n  0xe0\n  shl\n  dup2\n  mstore\n  0x04\n  add\n  0x20\n  mload(0x40)\n  dup1\n  dup4\n  sub\n  dup2\n  dup7\n  gas\n  staticcall\n  iszero\n  dup1\n  iszero\n  tag_7\n  jumpi\n  returndatasize\n  0x00\n  dup1\n  returndatacopy\n  revert(0x00, returndatasize)\ntag_7:\n  pop\n  pop\n  pop\n  pop\n  mload(0x40)\n  returndatasize\n  not(0x1f)\n  0x1f\n  dup3\n  add\n  and\n  dup3\n  add\n  dup1\n  0x40\n  mstore\n  pop\n  dup2\n  add\n  swap1\n  tag_8\n  swap2\n  swap1\n  tag_9\n  jump\t// in\ntag_8:\n    /* \"Hook.sol\":1577:1595  uniswapPairAddress */\n  0x02\n  0x00\n    /* \"Hook.sol\":1577:1641  uniswapPairAddress = WethLike(ERC20Address).uniswapPairAddress() */\n  0x0100\n  exp\n  dup2\n  sload\n  dup2\n  0xffffffffffffffffffffffffffffffffffffffff\n  mul\n  not\n  and\n  swap1\n  dup4\n  0xffffffffffffffffffffffffffffffffffffffff\n  and\n  mul\n  or\n  swap1\n  sstore\n  pop\n    /* \"Hook.sol\":1676:1688  ERC20Address */\n  0x01\n  0x00\n  swap1\n  sload\n  swap1\n  0x0100\n  exp\n  swap1\n  div\n  0xffffffffffffffffffffffffffffffffffffffff\n  and\n    /* \"Hook.sol\":1667:1706  WethLike(ERC20Address).getOracleAddress */\n  0xffffffffffffffffffffffffffffffffffffffff\n  and\n  0xb18b78dd\n    /* \"Hook.sol\":1667:1708  WethLike(ERC20Address).getOracleAddress() */\n  mload(0x40)\n  dup2\n  0xffffffff\n  and\n  0xe0\n  shl\n  dup2\n  mstore\n  0x04\n  add\n  0x20\n  mload(0x40)\n  dup1\n  dup4\n  sub\n  dup2\n  dup7\n  gas\n  staticcall\n  iszero\n  dup1\n  iszero\n  tag_11\n  jumpi\n  returndatasize\n  0x00\n  dup1\n  returndatacopy\n  revert(0x00, returndatasize)\ntag_11:\n  pop\n  pop\n  pop\n  pop\n  mload(0x40)\n  returndatasize\n  not(0x1f)\n  0x1f\n  dup3\n  add\n  and\n  dup3\n  add\n  dup1\n  0x40\n  mstore\n  pop\n  dup2\n  add\n  swap1\n  tag_12\n  swap2\n  swap1\n  tag_9\n  jump\t// in\ntag_12:\n    /* \"Hook.sol\":1651:1664  oracleAddress */\n  0x03\n  0x00\n    /* \"Hook.sol\":1651:1708  oracleAddress = WethLike(ERC20Address).getOracleAddress() */\n  0x0100\n  exp\n  dup2\n  sload\n  dup2\n  0xffffffffffffffffffffffffffffffffffffffff\n  mul\n  not\n  and\n  swap1\n  dup4\n  0xffffffffffffffffffffffffffffffffffffffff\n  and\n  mul\n  or\n  swap1\n  sstore\n  pop\n    /* \"Hook.sol\":1735:1748  oracleAddress */\n  0x03\n  0x00\n  swap1\n  sload\n  swap1\n  0x0100\n  exp\n  swap1\n  div\n  0xffffffffffffffffffffffffffffffffffffffff\n  and\n    /* \"Hook.sol\":1718:1724  Oracle */\n  0x0a\n  0x00\n    /* \"Hook.sol\":1718:1749  Oracle = iOracle(oracleAddress) */\n  0x0100\n  exp\n  dup2\n  sload\n  dup2\n  0xffffffffffffffffffffffffffffffffffffffff\n  mul\n  not\n  and\n  swap1\n  dup4\n  0xffffffffffffffffffffffffffffffffffffffff\n  and\n  mul\n  or\n  swap1\n  sstore\n  pop\n    /* \"Hook.sol\":1777:1786  _crownNFT */\n  dup3\n    /* \"Hook.sol\":1759:1774  crownNFTAddress */\n  0x04\n  0x00\n    /* \"Hook.sol\":1759:1786  crownNFTAddress = _crownNFT */\n  0x0100\n  exp\n  dup2\n  sload\n  dup2\n  0xffffffffffffffffffffffffffffffffffffffff\n  mul\n  not\n  and\n  swap1\n  dup4\n  0xffffffffffffffffffffffffffffffffffffffff\n  and\n  mul\n  or\n  swap1\n  sstore\n  pop\n    /* \"Hook.sol\":1810:1815  _POAP */\n  dup2\n    /* \"Hook.sol\":1796:1807  POAPAddress */\n  0x05\n  0x00\n    /* \"Hook.sol\":1796:1815  POAPAddress = _POAP */\n  0x0100\n  exp\n  dup2\n  sload\n  dup2\n  0xffffffffffffffffffffffffffffffffffffffff\n  mul\n  not\n  and\n  swap1\n  dup4\n  0xffffffffffffffffffffffffffffffffffffffff\n  and\n  mul\n  or\n  swap1\n  sstore\n  pop\n    /* \"Hook.sol\":1838:1849  POAPAddress */\n  0x05\n  0x00\n  swap1\n  sload\n  swap1\n  0x0100\n  exp\n  swap1\n  div\n  0xffffffffffffffffffffffffffffffffffffffff\n  and\n    /* \"Hook.sol\":1825:1829  POAP */\n  0x08\n  0x00\n    /* \"Hook.sol\":1825:1850  POAP = iPOAP(POAPAddress) */\n  0x0100\n  exp\n  dup2\n  sload\n  dup2\n  0xffffffffffffffffffffffffffffffffffffffff\n  mul\n  not\n  and\n  swap1\n  dup4\n  0xffffffffffffffffffffffffffffffffffffffff\n  and\n  mul\n  or\n  swap1\n  sstore\n  pop\n    /* \"Hook.sol\":1860:1897  setInitialTranscation(_initialHolder) */\n  tag_13\n    /* \"Hook.sol\":1882:1896  _initialHolder */\n  dup2\n    /* \"Hook.sol\":1860:1881  setInitialTranscation */\n  shl(0x20, tag_14)\n    /* \"Hook.sol\":1860:1897  setInitialTranscation(_initialHolder) */\n  0x20\n  shr\n  jump\t// in\ntag_13:\n    /* \"Hook.sol\":1907:1940  path = [WethAddress,ERC20Address] */\n  mload(0x40)\n  dup1\n  0x40\n  add\n  0x40\n  mstore\n  dup1\n    /* \"Hook.sol\":1915:1926  WethAddress */\n  0x00\n  dup1\n  sload\n  swap1\n  0x0100\n  exp\n  swap1\n  div\n  0xffffffffffffffffffffffffffffffffffffffff\n  and\n    /* \"Hook.sol\":1907:1940  path = [WethAddress,ERC20Address] */\n  0xffffffffffffffffffffffffffffffffffffffff\n  and\n  0xffffffffffffffffffffffffffffffffffffffff\n  and\n  dup2\n  mstore\n  0x20\n  add\n    /* \"Hook.sol\":1927:1939  ERC20Address */\n  0x01\n  0x00\n  swap1\n  sload\n  swap1\n  0x0100\n  exp\n  swap1\n  div\n  0xffffffffffffffffffffffffffffffffffffffff\n  and\n    /* \"Hook.sol\":1907:1940  path = [WethAddress,ERC20Address] */\n  0xffffffffffffffffffffffffffffffffffffffff\n  and\n  0xffffffffffffffffffffffffffffffffffffffff\n  and\n  dup2\n  mstore\n  pop\n    /* \"Hook.sol\":1907:1911  path */\n  0x07\n    /* \"Hook.sol\":1907:1940  path = [WethAddress,ERC20Address] */\n  swap1\n  0x02\n  tag_15\n  swap3\n  swap2\n  swap1\n  tag_16\n  jump\t// in\ntag_15:\n  pop\n    /* \"Hook.sol\":2020:2032  ERC20Address */\n  0x01\n  0x00\n  swap1\n  sload\n  swap1\n  0x0100\n  exp\n  swap1\n  div\n  0xffffffffffffffffffffffffffffffffffffffff\n  and\n    /* \"Hook.sol\":2013:2041  IERC20(ERC20Address).approve */\n  0xffffffffffffffffffffffffffffffffffffffff\n  and\n  0x095ea7b3\n    /* \"Hook.sol\":2042:2062  uniswapRouterAddress */\n  0x06\n  0x00\n  swap1\n  sload\n  swap1\n  0x0100\n  exp\n  swap1\n  div\n  0xffffffffffffffffffffffffffffffffffffffff\n  and\n    /* \"Hook.sol\":2063:2077  type(uint).max */\n  0xffffffffffffffffffffffffffffffffffffffffffffffffffffffffffffffff\n    /* \"Hook.sol\":2013:2078  IERC20(ERC20Address).approve(uniswapRouterAddress,type(uint).max) */\n  mload(0x40)\n  dup4\n  0xffffffff\n  and\n  0xe0\n  shl\n  dup2\n  mstore\n  0x04\n  add\n  tag_17\n  swap3\n  swap2\n  swap1\n  tag_18\n  jump\t// in\ntag_17:\n  0x20\n  mload(0x40)\n  dup1\n  dup4\n  sub\n  dup2\n  0x00\n  dup8\n  gas\n  call\n  iszero\n  dup1\n  iszero\n  tag_20\n  jumpi\n  returndatasize\n  0x00\n  dup1\n  returndatacopy\n  revert(0x00, returndatasize)\ntag_20:\n  pop\n  pop\n  pop\n  pop\n  mload(0x40)\n  returndatasize\n  not(0x1f)\n  0x1f\n  dup3\n  add\n  and\n  dup3\n  add\n  dup1\n  0x40\n  mstore\n  pop\n  dup2\n  add\n  swap1\n  tag_21\n  swap2\n  swap1\n  tag_22\n  jump\t// in\ntag_21:\n  pop\n    /* \"Hook.sol\":1380:2204  constructor(address _ERC20,address _crownNFT,address _POAP, address _initialHolder){... */\n  pop\n  pop\n  pop\n  pop\n    /* \"Hook.sol\":1346:11982  contract TransactionsAndHook{... */\n  jump(tag_23)\n    /* \"Hook.sol\":3229:3344  function setInitialTranscation (address _initialHolder) internal {... */\ntag_14:\n    /* \"Hook.sol\":3304:3337  newTransaction(0, _initialHolder) */\n  tag_25\n    /* \"Hook.sol\":3319:3320  0 */\n  0x00\n    /* \"Hook.sol\":3322:3336  _initialHolder */\n  dup3\n    /* \"Hook.sol\":3304:3318  newTransaction */\n  shl(0x20, tag_26)\n    /* \"Hook.sol\":3304:3337  newTransaction(0, _initialHolder) */\n  0x20\n  shr\n  jump\t// in\ntag_25:\n    /* \"Hook.sol\":3229:3344  function setInitialTranscation (address _initialHolder) internal {... */\n  pop\n  jump\t// out\n    /* \"Hook.sol\":3350:3710  function newTransaction (uint _receivedEth, address _newOwner) internal {... */\ntag_26:\n    /* \"Hook.sol\":3432:3443  uint POAPId */\n  0x00\n    /* \"Hook.sol\":3446:3453  POAPIds */\n  0x0d\n    /* \"Hook.sol\":3446:3460  POAPIds.length */\n  dup1\n  sload\n  swap1\n  pop\n    /* \"Hook.sol\":3432:3460  uint POAPId = POAPIds.length */\n  swap1\n  pop\n    /* \"Hook.sol\":3470:3501  Transaction storage transaction */\n  0x00\n    /* \"Hook.sol\":3504:3525  transactionFromPOAPId */\n  0x0c\n    /* \"Hook.sol\":3504:3541  transactionFromPOAPId[POAPIds.length] */\n  0x00\n    /* \"Hook.sol\":3526:3533  POAPIds */\n  0x0d\n    /* \"Hook.sol\":3526:3540  POAPIds.length */\n  dup1\n  sload\n  swap1\n  pop\n    /* \"Hook.sol\":3504:3541  transactionFromPOAPId[POAPIds.length] */\n  dup2\n  mstore\n  0x20\n  add\n  swap1\n  dup2\n  mstore\n  0x20\n  add\n  0x00\n  keccak256\n    /* \"Hook.sol\":3470:3541  Transaction storage transaction = transactionFromPOAPId[POAPIds.length] */\n  swap1\n  pop\n    /* \"Hook.sol\":3572:3578  POAPId */\n  dup2\n    /* \"Hook.sol\":3551:3562  transaction */\n  dup2\n    /* \"Hook.sol\":3551:3569  transaction.POAPId */\n  0x00\n  add\n    /* \"Hook.sol\":3551:3578  transaction.POAPId = POAPId */\n  dup2\n  swap1\n  sstore\n  pop\n    /* \"Hook.sol\":3612:3621  _newOwner */\n  dup3\n    /* \"Hook.sol\":3588:3599  transaction */\n  dup2\n    /* \"Hook.sol\":3588:3609  transaction.purchaser */\n  0x01\n  add\n  0x00\n    /* \"Hook.sol\":3588:3621  transaction.purchaser = _newOwner */\n  0x0100\n  exp\n  dup2\n  sload\n  dup2\n  0xffffffffffffffffffffffffffffffffffffffff\n  mul\n  not\n  and\n  swap1\n  dup4\n  0xffffffffffffffffffffffffffffffffffffffff\n  and\n  mul\n  or\n  swap1\n  sstore\n  pop\n    /* \"Hook.sol\":3657:3669  _receivedEth */\n  dup4\n    /* \"Hook.sol\":3631:3642  transaction */\n  dup2\n    /* \"Hook.sol\":3631:3654  transaction.receivedEth */\n  0x02\n  add\n    /* \"Hook.sol\":3631:3669  transaction.receivedEth = _receivedEth */\n  dup2\n  swap1\n  sstore\n  pop\n    /* \"Hook.sol\":3679:3686  POAPIds */\n  0x0d\n    /* \"Hook.sol\":3692:3698  POAPId */\n  dup3\n    /* \"Hook.sol\":3679:3699  POAPIds.push(POAPId) */\n  swap1\n  dup1\n  0x01\n  dup2\n  sload\n  add\n  dup1\n  dup3\n  sstore\n  dup1\n  swap2\n  pop\n  pop\n  0x01\n  swap1\n  sub\n  swap1\n  0x00\n  mstore\n  keccak256(0x00, 0x20)\n  add\n  0x00\n  swap1\n  swap2\n  swap1\n  swap2\n  swap1\n  swap2\n  pop\n  sstore\n    /* \"Hook.sol\":3422:3710  {... */\n  pop\n  pop\n    /* \"Hook.sol\":3350:3710  function newTransaction (uint _receivedEth, address _newOwner) internal {... */\n  pop\n  pop\n  jump\t// out\n    /* \"Hook.sol\":1346:11982  contract TransactionsAndHook{... */\ntag_16:\n  dup3\n  dup1\n  sload\n  dup3\n  dup3\n  sstore\n  swap1\n  0x00\n  mstore\n  keccak256(0x00, 0x20)\n  swap1\n  dup2\n  add\n  swap3\n  dup3\n  iszero\n  tag_29\n  jumpi\n  swap2\n  0x20\n  mul\n  dup3\n  add\ntag_30:\n  dup3\n  dup2\n  gt\n  iszero\n  tag_31\n  jumpi\n  dup3\n  mload\n  dup3\n  exp(0x0100, 0x00)\n  dup2\n  sload\n  dup2\n  0xffffffffffffffffffffffffffffffffffffffff\n  mul\n  not\n  and\n  swap1\n  dup4\n  0xffffffffffffffffffffffffffffffffffffffff\n  and\n  mul\n  or\n  swap1\n  sstore\n  pop\n  swap2\n  0x20\n  add\n  swap2\n  swap1\n  0x01\n  add\n  swap1\n  jump(tag_30)\ntag_31:\ntag_29:\n  pop\n  swap1\n  pop\n  tag_32\n  swap2\n  swap1\n  tag_33\n  jump\t// in\ntag_32:\n  pop\n  swap1\n  jump\t// out\ntag_33:\ntag_34:\n  dup1\n  dup3\n  gt\n  iszero\n  tag_35\n  jumpi\n  0x00\n  dup2\n  0x00\n  swap1\n  sstore\n  pop\n  0x01\n  add\n  jump(tag_34)\ntag_35:\n  pop\n  swap1\n  jump\t// out\n    /* \"#utility.yul\":88:205   */\ntag_37:\n    /* \"#utility.yul\":197:198   */\n  0x00\n    /* \"#utility.yul\":194:195   */\n  dup1\n    /* \"#utility.yul\":187:199   */\n  revert\n    /* \"#utility.yul\":334:460   */\ntag_39:\n    /* \"#utility.yul\":371:378   */\n  0x00\n    /* \"#utility.yul\":411:453   */\n  0xffffffffffffffffffffffffffffffffffffffff\n    /* \"#utility.yul\":404:409   */\n  dup3\n    /* \"#utility.yul\":400:454   */\n  and\n    /* \"#utility.yul\":389:454   */\n  swap1\n  pop\n    /* \"#utility.yul\":334:460   */\n  swap2\n  swap1\n  pop\n  jump\t// out\n    /* \"#utility.yul\":466:562   */\ntag_40:\n    /* \"#utility.yul\":503:510   */\n  0x00\n    /* \"#utility.yul\":532:556   */\n  tag_55\n    /* \"#utility.yul\":550:555   */\n  dup3\n    /* \"#utility.yul\":532:556   */\n  tag_39\n  jump\t// in\ntag_55:\n    /* \"#utility.yul\":521:556   */\n  swap1\n  pop\n    /* \"#utility.yul\":466:562   */\n  swap2\n  swap1\n  pop\n  jump\t// out\n    /* \"#utility.yul\":568:690   */\ntag_41:\n    /* \"#utility.yul\":641:665   */\n  tag_57\n    /* \"#utility.yul\":659:664   */\n  dup2\n    /* \"#utility.yul\":641:665   */\n  tag_40\n  jump\t// in\ntag_57:\n    /* \"#utility.yul\":634:639   */\n  dup2\n    /* \"#utility.yul\":631:666   */\n  eq\n    /* \"#utility.yul\":621:684   */\n  tag_58\n  jumpi\n    /* \"#utility.yul\":680:681   */\n  0x00\n    /* \"#utility.yul\":677:678   */\n  dup1\n    /* \"#utility.yul\":670:682   */\n  revert\n    /* \"#utility.yul\":621:684   */\ntag_58:\n    /* \"#utility.yul\":568:690   */\n  pop\n  jump\t// out\n    /* \"#utility.yul\":696:839   */\ntag_42:\n    /* \"#utility.yul\":753:758   */\n  0x00\n    /* \"#utility.yul\":784:790   */\n  dup2\n    /* \"#utility.yul\":778:791   */\n  mload\n    /* \"#utility.yul\":769:791   */\n  swap1\n  pop\n    /* \"#utility.yul\":800:833   */\n  tag_60\n    /* \"#utility.yul\":827:832   */\n  dup2\n    /* \"#utility.yul\":800:833   */\n  tag_41\n  jump\t// in\ntag_60:\n    /* \"#utility.yul\":696:839   */\n  swap3\n  swap2\n  pop\n  pop\n  jump\t// out\n    /* \"#utility.yul\":845:1665   */\ntag_3:\n    /* \"#utility.yul\":942:948   */\n  0x00\n    /* \"#utility.yul\":950:956   */\n  dup1\n    /* \"#utility.yul\":958:964   */\n  0x00\n    /* \"#utility.yul\":966:972   */\n  dup1\n    /* \"#utility.yul\":1015:1018   */\n  0x80\n    /* \"#utility.yul\":1003:1012   */\n  dup6\n    /* \"#utility.yul\":994:1001   */\n  dup8\n    /* \"#utility.yul\":990:1013   */\n  sub\n    /* \"#utility.yul\":986:1019   */\n  slt\n    /* \"#utility.yul\":983:1103   */\n  iszero\n  tag_62\n  jumpi\n    /* \"#utility.yul\":1022:1101   */\n  tag_63\n  tag_37\n  jump\t// in\ntag_63:\n    /* \"#utility.yul\":983:1103   */\ntag_62:\n    /* \"#utility.yul\":1142:1143   */\n  0x00\n    /* \"#utility.yul\":1167:1231   */\n  tag_64\n    /* \"#utility.yul\":1223:1230   */\n  dup8\n    /* \"#utility.yul\":1214:1220   */\n  dup3\n    /* \"#utility.yul\":1203:1212   */\n  dup9\n    /* \"#utility.yul\":1199:1221   */\n  add\n    /* \"#utility.yul\":1167:1231   */\n  tag_42\n  jump\t// in\ntag_64:\n    /* \"#utility.yul\":1157:1231   */\n  swap5\n  pop\n    /* \"#utility.yul\":1113:1241   */\n  pop\n    /* \"#utility.yul\":1280:1282   */\n  0x20\n    /* \"#utility.yul\":1306:1370   */\n  tag_65\n    /* \"#utility.yul\":1362:1369   */\n  dup8\n    /* \"#utility.yul\":1353:1359   */\n  dup3\n    /* \"#utility.yul\":1342:1351   */\n  dup9\n    /* \"#utility.yul\":1338:1360   */\n  add\n    /* \"#utility.yul\":1306:1370   */\n  tag_42\n  jump\t// in\ntag_65:\n    /* \"#utility.yul\":1296:1370   */\n  swap4\n  pop\n    /* \"#utility.yul\":1251:1380   */\n  pop\n    /* \"#utility.yul\":1419:1421   */\n  0x40\n    /* \"#utility.yul\":1445:1509   */\n  tag_66\n    /* \"#utility.yul\":1501:1508   */\n  dup8\n    /* \"#utility.yul\":1492:1498   */\n  dup3\n    /* \"#utility.yul\":1481:1490   */\n  dup9\n    /* \"#utility.yul\":1477:1499   */\n  add\n    /* \"#utility.yul\":1445:1509   */\n  tag_42\n  jump\t// in\ntag_66:\n    /* \"#utility.yul\":1435:1509   */\n  swap3\n  pop\n    /* \"#utility.yul\":1390:1519   */\n  pop\n    /* \"#utility.yul\":1558:1560   */\n  0x60\n    /* \"#utility.yul\":1584:1648   */\n  tag_67\n    /* \"#utility.yul\":1640:1647   */\n  dup8\n    /* \"#utility.yul\":1631:1637   */\n  dup3\n    /* \"#utility.yul\":1620:1629   */\n  dup9\n    /* \"#utility.yul\":1616:1638   */\n  add\n    /* \"#utility.yul\":1584:1648   */\n  tag_42\n  jump\t// in\ntag_67:\n    /* \"#utility.yul\":1574:1648   */\n  swap2\n  pop\n    /* \"#utility.yul\":1529:1658   */\n  pop\n    /* \"#utility.yul\":845:1665   */\n  swap3\n  swap6\n  swap2\n  swap5\n  pop\n  swap3\n  pop\n  jump\t// out\n    /* \"#utility.yul\":1671:2022   */\ntag_9:\n    /* \"#utility.yul\":1741:1747   */\n  0x00\n    /* \"#utility.yul\":1790:1792   */\n  0x20\n    /* \"#utility.yul\":1778:1787   */\n  dup3\n    /* \"#utility.yul\":1769:1776   */\n  dup5\n    /* \"#utility.yul\":1765:1788   */\n  sub\n    /* \"#utility.yul\":1761:1793   */\n  slt\n    /* \"#utility.yul\":1758:1877   */\n  iszero\n  tag_69\n  jumpi\n    /* \"#utility.yul\":1796:1875   */\n  tag_70\n  tag_37\n  jump\t// in\ntag_70:\n    /* \"#utility.yul\":1758:1877   */\ntag_69:\n    /* \"#utility.yul\":1916:1917   */\n  0x00\n    /* \"#utility.yul\":1941:2005   */\n  tag_71\n    /* \"#utility.yul\":1997:2004   */\n  dup5\n    /* \"#utility.yul\":1988:1994   */\n  dup3\n    /* \"#utility.yul\":1977:1986   */\n  dup6\n    /* \"#utility.yul\":1973:1995   */\n  add\n    /* \"#utility.yul\":1941:2005   */\n  tag_42\n  jump\t// in\ntag_71:\n    /* \"#utility.yul\":1931:2005   */\n  swap2\n  pop\n    /* \"#utility.yul\":1887:2015   */\n  pop\n    /* \"#utility.yul\":1671:2022   */\n  swap3\n  swap2\n  pop\n  pop\n  jump\t// out\n    /* \"#utility.yul\":2028:2146   */\ntag_43:\n    /* \"#utility.yul\":2115:2139   */\n  tag_73\n    /* \"#utility.yul\":2133:2138   */\n  dup2\n    /* \"#utility.yul\":2115:2139   */\n  tag_40\n  jump\t// in\ntag_73:\n    /* \"#utility.yul\":2110:2113   */\n  dup3\n    /* \"#utility.yul\":2103:2140   */\n  mstore\n    /* \"#utility.yul\":2028:2146   */\n  pop\n  pop\n  jump\t// out\n    /* \"#utility.yul\":2152:2229   */\ntag_44:\n    /* \"#utility.yul\":2189:2196   */\n  0x00\n    /* \"#utility.yul\":2218:2223   */\n  dup2\n    /* \"#utility.yul\":2207:2223   */\n  swap1\n  pop\n    /* \"#utility.yul\":2152:2229   */\n  swap2\n  swap1\n  pop\n  jump\t// out\n    /* \"#utility.yul\":2235:2353   */\ntag_45:\n    /* \"#utility.yul\":2322:2346   */\n  tag_76\n    /* \"#utility.yul\":2340:2345   */\n  dup2\n    /* \"#utility.yul\":2322:2346   */\n  tag_44\n  jump\t// in\ntag_76:\n    /* \"#utility.yul\":2317:2320   */\n  dup3\n    /* \"#utility.yul\":2310:2347   */\n  mstore\n    /* \"#utility.yul\":2235:2353   */\n  pop\n  pop\n  jump\t// out\n    /* \"#utility.yul\":2359:2691   */\ntag_18:\n    /* \"#utility.yul\":2480:2484   */\n  0x00\n    /* \"#utility.yul\":2518:2520   */\n  0x40\n    /* \"#utility.yul\":2507:2516   */\n  dup3\n    /* \"#utility.yul\":2503:2521   */\n  add\n    /* \"#utility.yul\":2495:2521   */\n  swap1\n  pop\n    /* \"#utility.yul\":2531:2602   */\n  tag_78\n    /* \"#utility.yul\":2599:2600   */\n  0x00\n    /* \"#utility.yul\":2588:2597   */\n  dup4\n    /* \"#utility.yul\":2584:2601   */\n  add\n    /* \"#utility.yul\":2575:2581   */\n  dup6\n    /* \"#utility.yul\":2531:2602   */\n  tag_43\n  jump\t// in\ntag_78:\n    /* \"#utility.yul\":2612:2684   */\n  tag_79\n    /* \"#utility.yul\":2680:2682   */\n  0x20\n    /* \"#utility.yul\":2669:2678   */\n  dup4\n    /* \"#utility.yul\":2665:2683   */\n  add\n    /* \"#utility.yul\":2656:2662   */\n  dup5\n    /* \"#utility.yul\":2612:2684   */\n  tag_45\n  jump\t// in\ntag_79:\n    /* \"#utility.yul\":2359:2691   */\n  swap4\n  swap3\n  pop\n  pop\n  pop\n  jump\t// out\n    /* \"#utility.yul\":2697:2787   */\ntag_46:\n    /* \"#utility.yul\":2731:2738   */\n  0x00\n    /* \"#utility.yul\":2774:2779   */\n  dup2\n    /* \"#utility.yul\":2767:2780   */\n  iszero\n    /* \"#utility.yul\":2760:2781   */\n  iszero\n    /* \"#utility.yul\":2749:2781   */\n  swap1\n  pop\n    /* \"#utility.yul\":2697:2787   */\n  swap2\n  swap1\n  pop\n  jump\t// out\n    /* \"#utility.yul\":2793:2909   */\ntag_47:\n    /* \"#utility.yul\":2863:2884   */\n  tag_82\n    /* \"#utility.yul\":2878:2883   */\n  dup2\n    /* \"#utility.yul\":2863:2884   */\n  tag_46\n  jump\t// in\ntag_82:\n    /* \"#utility.yul\":2856:2861   */\n  dup2\n    /* \"#utility.yul\":2853:2885   */\n  eq\n    /* \"#utility.yul\":2843:2903   */\n  tag_83\n  jumpi\n    /* \"#utility.yul\":2899:2900   */\n  0x00\n    /* \"#utility.yul\":2896:2897   */\n  dup1\n    /* \"#utility.yul\":2889:2901   */\n  revert\n    /* \"#utility.yul\":2843:2903   */\ntag_83:\n    /* \"#utility.yul\":2793:2909   */\n  pop\n  jump\t// out\n    /* \"#utility.yul\":2915:3052   */\ntag_48:\n    /* \"#utility.yul\":2969:2974   */\n  0x00\n    /* \"#utility.yul\":3000:3006   */\n  dup2\n    /* \"#utility.yul\":2994:3007   */\n  mload\n    /* \"#utility.yul\":2985:3007   */\n  swap1\n  pop\n    /* \"#utility.yul\":3016:3046   */\n  tag_85\n    /* \"#utility.yul\":3040:3045   */\n  dup2\n    /* \"#utility.yul\":3016:3046   */\n  tag_47\n  jump\t// in\ntag_85:\n    /* \"#utility.yul\":2915:3052   */\n  swap3\n  swap2\n  pop\n  pop\n  jump\t// out\n    /* \"#utility.yul\":3058:3403   */\ntag_22:\n    /* \"#utility.yul\":3125:3131   */\n  0x00\n    /* \"#utility.yul\":3174:3176   */\n  0x20\n    /* \"#utility.yul\":3162:3171   */\n  dup3\n    /* \"#utility.yul\":3153:3160   */\n  dup5\n    /* \"#utility.yul\":3149:3172   */\n  sub\n    /* \"#utility.yul\":3145:3177   */\n  slt\n    /* \"#utility.yul\":3142:3261   */\n  iszero\n  tag_87\n  jumpi\n    /* \"#utility.yul\":3180:3259   */\n  tag_88\n  tag_37\n  jump\t// in\ntag_88:\n    /* \"#utility.yul\":3142:3261   */\ntag_87:\n    /* \"#utility.yul\":3300:3301   */\n  0x00\n    /* \"#utility.yul\":3325:3386   */\n  tag_89\n    /* \"#utility.yul\":3378:3385   */\n  dup5\n    /* \"#utility.yul\":3369:3375   */\n  dup3\n    /* \"#utility.yul\":3358:3367   */\n  dup6\n    /* \"#utility.yul\":3354:3376   */\n  add\n    /* \"#utility.yul\":3325:3386   */\n  tag_48\n  jump\t// in\ntag_89:\n    /* \"#utility.yul\":3315:3386   */\n  swap2\n  pop\n    /* \"#utility.yul\":3271:3396   */\n  pop\n    /* \"#utility.yul\":3058:3403   */\n  swap3\n  swap2\n  pop\n  pop\n  jump\t// out\n    /* \"Hook.sol\":1346:11982  contract TransactionsAndHook{... */\ntag_23:\n  dataSize(sub_0)\n  dup1\n  dataOffset(sub_0)\n  0x00\n  codecopy\n  0x00\n  return\nstop\n\nsub_0: assembly {\n        /* \"Hook.sol\":1346:11982  contract TransactionsAndHook{... */\n      mstore(0x40, 0x80)\n      jumpi(tag_1, lt(calldatasize, 0x04))\n      shr(0xe0, calldataload(0x00))\n      dup1\n      0xa09ede07\n      gt\n      tag_23\n      jumpi\n      dup1\n      0xaf6d1fe4\n      gt\n      tag_24\n      jumpi\n      dup1\n      0xaf6d1fe4\n      eq\n      tag_18\n      jumpi\n      dup1\n      0xbd3733fe\n      eq\n      tag_19\n      jumpi\n      dup1\n      0xbfd9ea5b\n      eq\n      tag_20\n      jumpi\n      dup1\n      0xc1f2e5f1\n      eq\n      tag_21\n      jumpi\n      dup1\n      0xd4afa675\n      eq\n      tag_22\n      jumpi\n      jump(tag_2)\n    tag_24:\n      dup1\n      0xa09ede07\n      eq\n      tag_13\n      jumpi\n      dup1\n      0xa6021ace\n      eq\n      tag_14\n      jumpi\n      dup1\n      0xa785a3d8\n      eq\n      tag_15\n      jumpi\n      dup1\n      0xa89ae4ba\n      eq\n      tag_16\n      jumpi\n      dup1\n      0xaef75107\n      eq\n      tag_17\n      jumpi\n      jump(tag_2)\n    tag_23:\n      dup1\n      0x51cff8d9\n      gt\n      tag_25\n      jumpi\n      dup1\n      0x51cff8d9\n      eq\n      tag_8\n      jumpi\n      dup1\n      0x620a703c\n      eq\n      tag_9\n      jumpi\n      dup1\n      0x777b506f\n      eq\n      tag_10\n      jumpi\n      dup1\n      0x86d02608\n      eq\n      tag_11\n      jumpi\n      dup1\n      0x9dd58b58\n      eq\n      tag_12\n      jumpi\n      jump(tag_2)\n    tag_25:\n      dup1\n      0x0b2b4d9b\n      eq\n      tag_3\n      jumpi\n      dup1\n      0x1b017fde\n      eq\n      tag_4\n      jumpi\n      dup1\n      0x20ca3c7f\n      eq\n      tag_5\n      jumpi\n      dup1\n      0x2c4c3c1b\n      eq\n      tag_6\n      jumpi\n      dup1\n      0x4cfd1ba5\n      eq\n      tag_7\n      jumpi\n      jump(tag_2)\n    tag_1:\n      jumpi(tag_2, calldatasize)\n      stop\n    tag_2:\n      0x00\n      dup1\n      revert\n        /* \"Hook.sol\":11809:11935  function superBuy(address _newOwner) public payable{... */\n    tag_3:\n      tag_28\n      0x04\n      dup1\n      calldatasize\n      sub\n      dup2\n      add\n      swap1\n      tag_29\n      swap2\n      swap1\n      tag_30\n      jump\t// in\n    tag_29:\n      tag_31\n      jump\t// in\n    tag_28:\n      stop\n        /* \"Hook.sol\":3024:3116  function updateERC20Address(address _address) public{... */\n    tag_4:\n      callvalue\n      dup1\n      iszero\n      tag_32\n      jumpi\n      0x00\n      dup1\n      revert\n    tag_32:\n      pop\n      tag_33\n      0x04\n      dup1\n      calldatasize\n      sub\n      dup2\n      add\n      swap1\n      tag_34\n      swap2\n      swap1\n      tag_30\n      jump\t// in\n    tag_34:\n      tag_35\n      jump\t// in\n    tag_33:\n      stop\n        /* \"Hook.sol\":2579:2659  address public uniswapRouterAddress = 0x7a250d5630B4cF539739dF2C5dAcb4c659F2488D */\n    tag_5:\n      callvalue\n      dup1\n      iszero\n      tag_36\n      jumpi\n      0x00\n      dup1\n      revert\n    tag_36:\n      pop\n      tag_37\n      tag_38\n      jump\t// in\n    tag_37:\n      mload(0x40)\n      tag_39\n      swap2\n      swap1\n      tag_40\n      jump\t// in\n    tag_39:\n      mload(0x40)\n      dup1\n      swap2\n      sub\n      swap1\n      return\n        /* \"Hook.sol\":2898:2956  mapping (uint => Transaction) public transactionFromPOAPId */\n    tag_6:\n      callvalue\n      dup1\n      iszero\n      tag_41\n      jumpi\n      0x00\n      dup1\n      revert\n    tag_41:\n      pop\n      tag_42\n      0x04\n      dup1\n      calldatasize\n      sub\n      dup2\n      add\n      swap1\n      tag_43\n      swap2\n      swap1\n      tag_44\n      jump\t// in\n    tag_43:\n      tag_45\n      jump\t// in\n    tag_42:\n      mload(0x40)\n      tag_46\n      swap4\n      swap3\n      swap2\n      swap1\n      tag_47\n      jump\t// in\n    tag_46:\n      mload(0x40)\n      dup1\n      swap2\n      sub\n      swap1\n      return\n        /* \"Hook.sol\":7842:7860  uint public buyEth */\n    tag_7:\n      callvalue\n      dup1\n      iszero\n      tag_48\n      jumpi\n      0x00\n      dup1\n      revert\n    tag_48:\n      pop\n      tag_49\n      tag_50\n      jump\t// in\n    tag_49:\n      mload(0x40)\n      tag_51\n      swap2\n      swap1\n      tag_52\n      jump\t// in\n    tag_51:\n      mload(0x40)\n      dup1\n      swap2\n      sub\n      swap1\n      return\n        /* \"Hook.sol\":3720:3922  function withdraw(address _ERC20Address) public {... */\n    tag_8:\n      callvalue\n      dup1\n      iszero\n      tag_53\n      jumpi\n      0x00\n      dup1\n      revert\n    tag_53:\n      pop\n      tag_54\n      0x04\n      dup1\n      calldatasize\n      sub\n      dup2\n      add\n      swap1\n      tag_55\n      swap2\n      swap1\n      tag_30\n      jump\t// in\n    tag_55:\n      tag_56\n      jump\t// in\n    tag_54:\n      stop\n        /* \"Hook.sol\":4674:6557  function xprovideLiquidity() external payable returns (uint){... */\n    tag_9:\n      tag_57\n      tag_58\n      jump\t// in\n    tag_57:\n      mload(0x40)\n      tag_59\n      swap2\n      swap1\n      tag_52\n      jump\t// in\n    tag_59:\n      mload(0x40)\n      dup1\n      swap2\n      sub\n      swap1\n      return\n        /* \"Hook.sol\":2511:2541  address public crownNFTAddress */\n    tag_10:\n      callvalue\n      dup1\n      iszero\n      tag_60\n      jumpi\n      0x00\n      dup1\n      revert\n    tag_60:\n      pop\n      tag_61\n      tag_62\n      jump\t// in\n    tag_61:\n      mload(0x40)\n      tag_63\n      swap2\n      swap1\n      tag_40\n      jump\t// in\n    tag_63:\n      mload(0x40)\n      dup1\n      swap2\n      sub\n      swap1\n      return\n        /* \"Hook.sol\":2982:3008  uint public totalRoyalties */\n    tag_11:\n      callvalue\n      dup1\n      iszero\n      tag_64\n      jumpi\n      0x00\n      dup1\n      revert\n    tag_64:\n      pop\n      tag_65\n      tag_66\n      jump\t// in\n    tag_65:\n      mload(0x40)\n      tag_67\n      swap2\n      swap1\n      tag_52\n      jump\t// in\n    tag_67:\n      mload(0x40)\n      dup1\n      swap2\n      sub\n      swap1\n      return\n        /* \"Hook.sol\":3928:4033  function getWethBalance() public view returns (uint){... */\n    tag_12:\n      callvalue\n      dup1\n      iszero\n      tag_68\n      jumpi\n      0x00\n      dup1\n      revert\n    tag_68:\n      pop\n      tag_69\n      tag_70\n      jump\t// in\n    tag_69:\n      mload(0x40)\n      tag_71\n      swap2\n      swap1\n      tag_52\n      jump\t// in\n    tag_71:\n      mload(0x40)\n      dup1\n      swap2\n      sub\n      swap1\n      return\n        /* \"Hook.sol\":7866:7890  uint public liquidityEth */\n    tag_13:\n      callvalue\n      dup1\n      iszero\n      tag_72\n      jumpi\n      0x00\n      dup1\n      revert\n    tag_72:\n      pop\n      tag_73\n      tag_74\n      jump\t// in\n    tag_73:\n      mload(0x40)\n      tag_75\n      swap2\n      swap1\n      tag_52\n      jump\t// in\n    tag_75:\n      mload(0x40)\n      dup1\n      swap2\n      sub\n      swap1\n      return\n        /* \"Hook.sol\":2405:2432  address public ERC20Address */\n    tag_14:\n      callvalue\n      dup1\n      iszero\n      tag_76\n      jumpi\n      0x00\n      dup1\n      revert\n    tag_76:\n      pop\n      tag_77\n      tag_78\n      jump\t// in\n    tag_77:\n      mload(0x40)\n      tag_79\n      swap2\n      swap1\n      tag_40\n      jump\t// in\n    tag_79:\n      mload(0x40)\n      dup1\n      swap2\n      sub\n      swap1\n      return\n        /* \"Hook.sol\":2328:2399  address public WethAddress = 0xB4FBF271143F4FBf7B91A5ded31805e42b2208d6 */\n    tag_15:\n      callvalue\n      dup1\n      iszero\n      tag_80\n      jumpi\n      0x00\n      dup1\n      revert\n    tag_80:\n      pop\n      tag_81\n      tag_82\n      jump\t// in\n    tag_81:\n      mload(0x40)\n      tag_83\n      swap2\n      swap1\n      tag_40\n      jump\t// in\n    tag_83:\n      mload(0x40)\n      dup1\n      swap2\n      sub\n      swap1\n      return\n        /* \"Hook.sol\":2477:2505  address public oracleAddress */\n    tag_16:\n      callvalue\n      dup1\n      iszero\n      tag_84\n      jumpi\n      0x00\n      dup1\n      revert\n    tag_84:\n      pop\n      tag_85\n      tag_86\n      jump\t// in\n    tag_85:\n      mload(0x40)\n      tag_87\n      swap2\n      swap1\n      tag_40\n      jump\t// in\n    tag_87:\n      mload(0x40)\n      dup1\n      swap2\n      sub\n      swap1\n      return\n        /* \"Hook.sol\":2547:2573  address public POAPAddress */\n    tag_17:\n      callvalue\n      dup1\n      iszero\n      tag_88\n      jumpi\n      0x00\n      dup1\n      revert\n    tag_88:\n      pop\n      tag_89\n      tag_90\n      jump\t// in\n    tag_89:\n      mload(0x40)\n      tag_91\n      swap2\n      swap1\n      tag_40\n      jump\t// in\n    tag_91:\n      mload(0x40)\n      dup1\n      swap2\n      sub\n      swap1\n      return\n        /* \"Hook.sol\":2665:2686  address[] public path */\n    tag_18:\n      callvalue\n      dup1\n      iszero\n      tag_92\n      jumpi\n      0x00\n      dup1\n      revert\n    tag_92:\n      pop\n      tag_93\n      0x04\n      dup1\n      calldatasize\n      sub\n      dup2\n      add\n      swap1\n      tag_94\n      swap2\n      swap1\n      tag_44\n      jump\t// in\n    tag_94:\n      tag_95\n      jump\t// in\n    tag_93:\n      mload(0x40)\n      tag_96\n      swap2\n      swap1\n      tag_40\n      jump\t// in\n    tag_96:\n      mload(0x40)\n      dup1\n      swap2\n      sub\n      swap1\n      return\n        /* \"Hook.sol\":2438:2471  address public uniswapPairAddress */\n    tag_19:\n      callvalue\n      dup1\n      iszero\n      tag_97\n      jumpi\n      0x00\n      dup1\n      revert\n    tag_97:\n      pop\n      tag_98\n      tag_99\n      jump\t// in\n    tag_98:\n      mload(0x40)\n      tag_100\n      swap2\n      swap1\n      tag_40\n      jump\t// in\n    tag_100:\n      mload(0x40)\n      dup1\n      swap2\n      sub\n      swap1\n      return\n        /* \"Hook.sol\":4040:4172  function getLastEthRecieved() public view returns (uint){... */\n    tag_20:\n      callvalue\n      dup1\n      iszero\n      tag_101\n      jumpi\n      0x00\n      dup1\n      revert\n    tag_101:\n      pop\n      tag_102\n      tag_103\n      jump\t// in\n    tag_102:\n      mload(0x40)\n      tag_104\n      swap2\n      swap1\n      tag_52\n      jump\t// in\n    tag_104:\n      mload(0x40)\n      dup1\n      swap2\n      sub\n      swap1\n      return\n        /* \"Hook.sol\":4182:4668  function percentLiquidity() public view returns (uint){... */\n    tag_21:\n      callvalue\n      dup1\n      iszero\n      tag_105\n      jumpi\n      0x00\n      dup1\n      revert\n    tag_105:\n      pop\n      tag_106\n      tag_107\n      jump\t// in\n    tag_106:\n      mload(0x40)\n      tag_108\n      swap2\n      swap1\n      tag_52\n      jump\t// in\n    tag_108:\n      mload(0x40)\n      dup1\n      swap2\n      sub\n      swap1\n      return\n        /* \"Hook.sol\":11690:11803  function mintSomeTokens (uint tokens) public {... */\n    tag_22:\n      callvalue\n      dup1\n      iszero\n      tag_109\n      jumpi\n      0x00\n      dup1\n      revert\n    tag_109:\n      pop\n      tag_110\n      0x04\n      dup1\n      calldatasize\n      sub\n      dup2\n      add\n      swap1\n      tag_111\n      swap2\n      swap1\n      tag_44\n      jump\t// in\n    tag_111:\n      tag_112\n      jump\t// in\n    tag_110:\n      stop\n        /* \"Hook.sol\":11809:11935  function superBuy(address _newOwner) public payable{... */\n    tag_31:\n        /* \"Hook.sol\":11870:11906  newTransaction(msg.value, _newOwner) */\n      tag_114\n        /* \"Hook.sol\":11885:11894  msg.value */\n      callvalue\n        /* \"Hook.sol\":11896:11905  _newOwner */\n      dup3\n        /* \"Hook.sol\":11870:11884  newTransaction */\n      tag_115\n        /* \"Hook.sol\":11870:11906  newTransaction(msg.value, _newOwner) */\n      jump\t// in\n    tag_114:\n        /* \"Hook.sol\":11916:11928  processETH() */\n      tag_116\n        /* \"Hook.sol\":11916:11926  processETH */\n      tag_117\n        /* \"Hook.sol\":11916:11928  processETH() */\n      jump\t// in\n    tag_116:\n        /* \"Hook.sol\":11809:11935  function superBuy(address _newOwner) public payable{... */\n      pop\n      jump\t// out\n        /* \"Hook.sol\":3024:3116  function updateERC20Address(address _address) public{... */\n    tag_35:\n        /* \"Hook.sol\":3101:3109  _address */\n      dup1\n        /* \"Hook.sol\":3086:3098  ERC20Address */\n      0x01\n      0x00\n        /* \"Hook.sol\":3086:3109  ERC20Address = _address */\n      0x0100\n      exp\n      dup2\n      sload\n      dup2\n      0xffffffffffffffffffffffffffffffffffffffff\n      mul\n      not\n      and\n      swap1\n      dup4\n      0xffffffffffffffffffffffffffffffffffffffff\n      and\n      mul\n      or\n      swap1\n      sstore\n      pop\n        /* \"Hook.sol\":3024:3116  function updateERC20Address(address _address) public{... */\n      pop\n      jump\t// out\n        /* \"Hook.sol\":2579:2659  address public uniswapRouterAddress = 0x7a250d5630B4cF539739dF2C5dAcb4c659F2488D */\n    tag_38:\n      0x06\n      0x00\n      swap1\n      sload\n      swap1\n      0x0100\n      exp\n      swap1\n      div\n      0xffffffffffffffffffffffffffffffffffffffff\n      and\n      dup2\n      jump\t// out\n        /* \"Hook.sol\":2898:2956  mapping (uint => Transaction) public transactionFromPOAPId */\n    tag_45:\n      mstore(0x20, 0x0c)\n      dup1\n      0x00\n      mstore\n      keccak256(0x00, 0x40)\n      0x00\n      swap2\n      pop\n      swap1\n      pop\n      dup1\n      0x00\n      add\n      sload\n      swap1\n      dup1\n      0x01\n      add\n      0x00\n      swap1\n      sload\n      swap1\n      0x0100\n      exp\n      swap1\n      div\n      0xffffffffffffffffffffffffffffffffffffffff\n      and\n      swap1\n      dup1\n      0x02\n      add\n      sload\n      swap1\n      pop\n      dup4\n      jump\t// out\n        /* \"Hook.sol\":7842:7860  uint public buyEth */\n    tag_50:\n      sload(0x0f)\n      dup2\n      jump\t// out\n        /* \"Hook.sol\":3720:3922  function withdraw(address _ERC20Address) public {... */\n    tag_56:\n        /* \"Hook.sol\":3778:3790  IERC20 ERC20 */\n      0x00\n        /* \"Hook.sol\":3800:3813  _ERC20Address */\n      dup2\n        /* \"Hook.sol\":3778:3814  IERC20 ERC20 = IERC20(_ERC20Address) */\n      swap1\n      pop\n        /* \"Hook.sol\":3824:3837  uint _balance */\n      0x00\n        /* \"Hook.sol\":3840:3845  ERC20 */\n      dup2\n        /* \"Hook.sol\":3840:3855  ERC20.balanceOf */\n      0xffffffffffffffffffffffffffffffffffffffff\n      and\n      0x70a08231\n        /* \"Hook.sol\":3864:3868  this */\n      address\n        /* \"Hook.sol\":3840:3870  ERC20.balanceOf(address(this)) */\n      mload(0x40)\n      dup3\n      0xffffffff\n      and\n      0xe0\n      shl\n      dup2\n      mstore\n      0x04\n      add\n      tag_120\n      swap2\n      swap1\n      tag_40\n      jump\t// in\n    tag_120:\n      0x20\n      mload(0x40)\n      dup1\n      dup4\n      sub\n      dup2\n      dup7\n      gas\n      staticcall\n      iszero\n      dup1\n      iszero\n      tag_122\n      jumpi\n      returndatasize\n      0x00\n      dup1\n      returndatacopy\n      revert(0x00, returndatasize)\n    tag_122:\n      pop\n      pop\n      pop\n      pop\n      mload(0x40)\n      returndatasize\n      not(0x1f)\n      0x1f\n      dup3\n      add\n      and\n      dup3\n      add\n      dup1\n      0x40\n      mstore\n      pop\n      dup2\n      add\n      swap1\n      tag_123\n      swap2\n      swap1\n      tag_124\n      jump\t// in\n    tag_123:\n        /* \"Hook.sol\":3824:3870  uint _balance = ERC20.balanceOf(address(this)) */\n      swap1\n      pop\n        /* \"Hook.sol\":3880:3885  ERC20 */\n      dup2\n        /* \"Hook.sol\":3880:3894  ERC20.transfer */\n      0xffffffffffffffffffffffffffffffffffffffff\n      and\n      0xa9059cbb\n        /* \"Hook.sol\":3895:3905  msg.sender */\n      caller\n        /* \"Hook.sol\":3906:3914  _balance */\n      dup4\n        /* \"Hook.sol\":3880:3915  ERC20.transfer(msg.sender,_balance) */\n      mload(0x40)\n      dup4\n      0xffffffff\n      and\n      0xe0\n      shl\n      dup2\n      mstore\n      0x04\n      add\n      tag_125\n      swap3\n      swap2\n      swap1\n      tag_126\n      jump\t// in\n    tag_125:\n      0x20\n      mload(0x40)\n      dup1\n      dup4\n      sub\n      dup2\n      0x00\n      dup8\n      gas\n      call\n      iszero\n      dup1\n      iszero\n      tag_128\n      jumpi\n      returndatasize\n      0x00\n      dup1\n      returndatacopy\n      revert(0x00, returndatasize)\n    tag_128:\n      pop\n      pop\n      pop\n      pop\n      mload(0x40)\n      returndatasize\n      not(0x1f)\n      0x1f\n      dup3\n      add\n      and\n      dup3\n      add\n      dup1\n      0x40\n      mstore\n      pop\n      dup2\n      add\n      swap1\n      tag_129\n      swap2\n      swap1\n      tag_130\n      jump\t// in\n    tag_129:\n      pop\n        /* \"Hook.sol\":3768:3922  {... */\n      pop\n      pop\n        /* \"Hook.sol\":3720:3922  function withdraw(address _ERC20Address) public {... */\n      pop\n      jump\t// out\n        /* \"Hook.sol\":4674:6557  function xprovideLiquidity() external payable returns (uint){... */\n    tag_58:\n        /* \"Hook.sol\":4729:4733  uint */\n      0x00\n        /* \"Hook.sol\":4753:4780  uint ERC20LiquidityProvided */\n      dup1\n        /* \"Hook.sol\":4860:4884  uint currentERC20Balance */\n      0x00\n        /* \"Hook.sol\":4894:4906  ERC20Address */\n      0x01\n      0x00\n      swap1\n      sload\n      swap1\n      0x0100\n      exp\n      swap1\n      div\n      0xffffffffffffffffffffffffffffffffffffffff\n      and\n        /* \"Hook.sol\":4887:4917  IERC20(ERC20Address).balanceOf */\n      0xffffffffffffffffffffffffffffffffffffffff\n      and\n      0x70a08231\n        /* \"Hook.sol\":4926:4930  this */\n      address\n        /* \"Hook.sol\":4887:4932  IERC20(ERC20Address).balanceOf(address(this)) */\n      mload(0x40)\n      dup3\n      0xffffffff\n      and\n      0xe0\n      shl\n      dup2\n      mstore\n      0x04\n      add\n      tag_132\n      swap2\n      swap1\n      tag_40\n      jump\t// in\n    tag_132:\n      0x20\n      mload(0x40)\n      dup1\n      dup4\n      sub\n      dup2\n      dup7\n      gas\n      staticcall\n      iszero\n      dup1\n      iszero\n      tag_134\n      jumpi\n      returndatasize\n      0x00\n      dup1\n      returndatacopy\n      revert(0x00, returndatasize)\n    tag_134:\n      pop\n      pop\n      pop\n      pop\n      mload(0x40)\n      returndatasize\n      not(0x1f)\n      0x1f\n      dup3\n      add\n      and\n      dup3\n      add\n      dup1\n      0x40\n      mstore\n      pop\n      dup2\n      add\n      swap1\n      tag_135\n      swap2\n      swap1\n      tag_124\n      jump\t// in\n    tag_135:\n        /* \"Hook.sol\":4860:4932  uint currentERC20Balance = IERC20(ERC20Address).balanceOf(address(this)) */\n      swap1\n      pop\n        /* \"Hook.sol\":5015:5032  uint tokensToSend */\n      0x00\n        /* \"Hook.sol\":5087:5090  100 */\n      0x64\n        /* \"Hook.sol\":5081:5084  105 */\n      0x69\n        /* \"Hook.sol\":5035:5041  Oracle */\n      0x0a\n      0x00\n      swap1\n      sload\n      swap1\n      0x0100\n      exp\n      swap1\n      div\n      0xffffffffffffffffffffffffffffffffffffffff\n      and\n        /* \"Hook.sol\":5035:5055  Oracle.consultPrices */\n      0xffffffffffffffffffffffffffffffffffffffff\n      and\n      0x3ac35585\n        /* \"Hook.sol\":5056:5067  WethAddress */\n      0x00\n      dup1\n      sload\n      swap1\n      0x0100\n      exp\n      swap1\n      div\n      0xffffffffffffffffffffffffffffffffffffffff\n      and\n        /* \"Hook.sol\":5069:5078  msg.value */\n      callvalue\n        /* \"Hook.sol\":5035:5079  Oracle.consultPrices(WethAddress, msg.value) */\n      mload(0x40)\n      dup4\n      0xffffffff\n      and\n      0xe0\n      shl\n      dup2\n      mstore\n      0x04\n      add\n      tag_136\n      swap3\n      swap2\n      swap1\n      tag_126\n      jump\t// in\n    tag_136:\n      0x20\n      mload(0x40)\n      dup1\n      dup4\n      sub\n      dup2\n      dup7\n      gas\n      staticcall\n      iszero\n      dup1\n      iszero\n      tag_138\n      jumpi\n      returndatasize\n      0x00\n      dup1\n      returndatacopy\n      revert(0x00, returndatasize)\n    tag_138:\n      pop\n      pop\n      pop\n      pop\n      mload(0x40)\n      returndatasize\n      not(0x1f)\n      0x1f\n      dup3\n      add\n      and\n      dup3\n      add\n      dup1\n      0x40\n      mstore\n      pop\n      dup2\n      add\n      swap1\n      tag_139\n      swap2\n      swap1\n      tag_124\n      jump\t// in\n    tag_139:\n        /* \"Hook.sol\":5035:5084  Oracle.consultPrices(WethAddress, msg.value)* 105 */\n      tag_140\n      swap2\n      swap1\n      tag_141\n      jump\t// in\n    tag_140:\n        /* \"Hook.sol\":5035:5090  Oracle.consultPrices(WethAddress, msg.value)* 105 / 100 */\n      tag_142\n      swap2\n      swap1\n      tag_143\n      jump\t// in\n    tag_142:\n        /* \"Hook.sol\":5015:5090  uint tokensToSend = Oracle.consultPrices(WethAddress, msg.value)* 105 / 100 */\n      swap1\n      pop\n        /* \"Hook.sol\":5212:5231  currentERC20Balance */\n      dup2\n        /* \"Hook.sol\":5197:5209  tokensToSend */\n      dup2\n        /* \"Hook.sol\":5197:5231  tokensToSend > currentERC20Balance */\n      gt\n        /* \"Hook.sol\":5194:5650  if(tokensToSend > currentERC20Balance){... */\n      iszero\n      tag_144\n      jumpi\n        /* \"Hook.sol\":5251:5284  Log(\"Need to mint for liquidity\") */\n      0xcf34ef537ac33ee1ac626ca1587a0a7e8e51561e5514f8cb36afa1c5102b3bab\n      mload(0x40)\n      tag_145\n      swap1\n      tag_146\n      jump\t// in\n    tag_145:\n      mload(0x40)\n      dup1\n      swap2\n      sub\n      swap1\n      log1\n        /* \"Hook.sol\":5307:5319  ERC20Address */\n      0x01\n      0x00\n      swap1\n      sload\n      swap1\n      0x0100\n      exp\n      swap1\n      div\n      0xffffffffffffffffffffffffffffffffffffffff\n      and\n        /* \"Hook.sol\":5298:5329  WethLike(ERC20Address).hookMint */\n      0xffffffffffffffffffffffffffffffffffffffff\n      and\n      0x96fe8349\n        /* \"Hook.sol\":5343:5362  currentERC20Balance */\n      dup4\n        /* \"Hook.sol\":5330:5342  tokensToSend */\n      dup4\n        /* \"Hook.sol\":5330:5362  tokensToSend-currentERC20Balance */\n      tag_147\n      swap2\n      swap1\n      tag_148\n      jump\t// in\n    tag_147:\n        /* \"Hook.sol\":5371:5375  this */\n      address\n        /* \"Hook.sol\":5298:5377  WethLike(ERC20Address).hookMint(tokensToSend-currentERC20Balance,address(this)) */\n      mload(0x40)\n      dup4\n      0xffffffff\n      and\n      0xe0\n      shl\n      dup2\n      mstore\n      0x04\n      add\n      tag_149\n      swap3\n      swap2\n      swap1\n      tag_150\n      jump\t// in\n    tag_149:\n      0x00\n      mload(0x40)\n      dup1\n      dup4\n      sub\n      dup2\n      0x00\n      dup8\n      dup1\n      extcodesize\n      iszero\n      dup1\n      iszero\n      tag_151\n      jumpi\n      0x00\n      dup1\n      revert\n    tag_151:\n      pop\n      gas\n      call\n      iszero\n      dup1\n      iszero\n      tag_153\n      jumpi\n      returndatasize\n      0x00\n      dup1\n      returndatacopy\n      revert(0x00, returndatasize)\n    tag_153:\n      pop\n      pop\n      pop\n      pop\n        /* \"Hook.sol\":5396:5416  Log(\"tokens minted\") */\n      0xcf34ef537ac33ee1ac626ca1587a0a7e8e51561e5514f8cb36afa1c5102b3bab\n      mload(0x40)\n      tag_154\n      swap1\n      tag_155\n      jump\t// in\n    tag_154:\n      mload(0x40)\n      dup1\n      swap2\n      sub\n      swap1\n      log1\n        /* \"Hook.sol\":5435:5472  Log(tokensToSend-currentERC20Balance) */\n      0x909c57d5c6ac08245cf2a6de3900e2b868513fa59099b92b27d8db823d92df9c\n        /* \"Hook.sol\":5452:5471  currentERC20Balance */\n      dup3\n        /* \"Hook.sol\":5439:5451  tokensToSend */\n      dup3\n        /* \"Hook.sol\":5439:5471  tokensToSend-currentERC20Balance */\n      tag_156\n      swap2\n      swap1\n      tag_148\n      jump\t// in\n    tag_156:\n        /* \"Hook.sol\":5435:5472  Log(tokensToSend-currentERC20Balance) */\n      mload(0x40)\n      tag_157\n      swap2\n      swap1\n      tag_52\n      jump\t// in\n    tag_157:\n      mload(0x40)\n      dup1\n      swap2\n      sub\n      swap1\n      log1\n        /* \"Hook.sol\":5515:5527  ERC20Address */\n      0x01\n      0x00\n      swap1\n      sload\n      swap1\n      0x0100\n      exp\n      swap1\n      div\n      0xffffffffffffffffffffffffffffffffffffffff\n      and\n        /* \"Hook.sol\":5508:5538  IERC20(ERC20Address).balanceOf */\n      0xffffffffffffffffffffffffffffffffffffffff\n      and\n      0x70a08231\n        /* \"Hook.sol\":5547:5551  this */\n      address\n        /* \"Hook.sol\":5508:5553  IERC20(ERC20Address).balanceOf(address(this)) */\n      mload(0x40)\n      dup3\n      0xffffffff\n      and\n      0xe0\n      shl\n      dup2\n      mstore\n      0x04\n      add\n      tag_158\n      swap2\n      swap1\n      tag_40\n      jump\t// in\n    tag_158:\n      0x20\n      mload(0x40)\n      dup1\n      dup4\n      sub\n      dup2\n      dup7\n      gas\n      staticcall\n      iszero\n      dup1\n      iszero\n      tag_160\n      jumpi\n      returndatasize\n      0x00\n      dup1\n      returndatacopy\n      revert(0x00, returndatasize)\n    tag_160:\n      pop\n      pop\n      pop\n      pop\n      mload(0x40)\n      returndatasize\n      not(0x1f)\n      0x1f\n      dup3\n      add\n      and\n      dup3\n      add\n      dup1\n      0x40\n      mstore\n      pop\n      dup2\n      add\n      swap1\n      tag_161\n      swap2\n      swap1\n      tag_124\n      jump\t// in\n    tag_161:\n        /* \"Hook.sol\":5486:5553  currentERC20Balance = IERC20(ERC20Address).balanceOf(address(this)) */\n      swap2\n      pop\n        /* \"Hook.sol\":5572:5596  Log(\"New ERC20 balance\") */\n      0xcf34ef537ac33ee1ac626ca1587a0a7e8e51561e5514f8cb36afa1c5102b3bab\n      mload(0x40)\n      tag_162\n      swap1\n      tag_163\n      jump\t// in\n    tag_162:\n      mload(0x40)\n      dup1\n      swap2\n      sub\n      swap1\n      log1\n        /* \"Hook.sol\":5615:5639  Log(currentERC20Balance) */\n      0x909c57d5c6ac08245cf2a6de3900e2b868513fa59099b92b27d8db823d92df9c\n        /* \"Hook.sol\":5619:5638  currentERC20Balance */\n      dup3\n        /* \"Hook.sol\":5615:5639  Log(currentERC20Balance) */\n      mload(0x40)\n      tag_164\n      swap2\n      swap1\n      tag_52\n      jump\t// in\n    tag_164:\n      mload(0x40)\n      dup1\n      swap2\n      sub\n      swap1\n      log1\n        /* \"Hook.sol\":5194:5650  if(tokensToSend > currentERC20Balance){... */\n    tag_144:\n        /* \"Hook.sol\":5722:5735  UniswapRouter */\n      0x0b\n      0x00\n      swap1\n      sload\n      swap1\n      0x0100\n      exp\n      swap1\n      div\n      0xffffffffffffffffffffffffffffffffffffffff\n      and\n        /* \"Hook.sol\":5722:5751  UniswapRouter.addLiquidityETH */\n      0xffffffffffffffffffffffffffffffffffffffff\n      and\n      0xf305d719\n        /* \"Hook.sol\":5760:5769  msg.value */\n      callvalue\n        /* \"Hook.sol\":5772:5784  ERC20Address */\n      0x01\n      0x00\n      swap1\n      sload\n      swap1\n      0x0100\n      exp\n      swap1\n      div\n      0xffffffffffffffffffffffffffffffffffffffff\n      and\n        /* \"Hook.sol\":5786:5798  tokensToSend */\n      dup5\n        /* \"Hook.sol\":5800:5801  0 */\n      0x00\n        /* \"Hook.sol\":5803:5804  0 */\n      dup1\n        /* \"Hook.sol\":5814:5818  this */\n      address\n        /* \"Hook.sol\":5821:5835  type(uint).max */\n      0xffffffffffffffffffffffffffffffffffffffffffffffffffffffffffffffff\n        /* \"Hook.sol\":5722:5836  UniswapRouter.addLiquidityETH {value: msg.value} (ERC20Address, tokensToSend, 0, 0, address(this), type(uint).max) */\n      mload(0x40)\n      dup9\n      0xffffffff\n      and\n      0xe0\n      shl\n      dup2\n      mstore\n      0x04\n      add\n      tag_165\n      swap7\n      swap6\n      swap5\n      swap4\n      swap3\n      swap2\n      swap1\n      tag_166\n      jump\t// in\n    tag_165:\n      0x60\n      mload(0x40)\n      dup1\n      dup4\n      sub\n      dup2\n      dup6\n      dup9\n      gas\n      call\n      swap4\n      pop\n      pop\n      pop\n      pop\n      dup1\n      iszero\n      tag_167\n      jumpi\n      pop\n      mload(0x40)\n      returndatasize\n      not(0x1f)\n      0x1f\n      dup3\n      add\n      and\n      dup3\n      add\n      dup1\n      0x40\n      mstore\n      pop\n      dup2\n      add\n      swap1\n      tag_168\n      swap2\n      swap1\n      tag_169\n      jump\t// in\n    tag_168:\n      0x01\n    tag_167:\n        /* \"Hook.sol\":5718:6510  try UniswapRouter.addLiquidityETH {value: msg.value} (ERC20Address, tokensToSend, 0, 0, address(this), type(uint).max)... */\n      tag_170\n      jumpi\n        /* \"Hook.sol\":6053:6081  Log (address(UniswapRouter)) */\n      0xb8a00d6d8ca1be30bfec34d8f97e55f0f0fd9eeb7fb46e030516363d4cfe1ad6\n        /* \"Hook.sol\":6066:6079  UniswapRouter */\n      0x0b\n      0x00\n      swap1\n      sload\n      swap1\n      0x0100\n      exp\n      swap1\n      div\n      0xffffffffffffffffffffffffffffffffffffffff\n      and\n        /* \"Hook.sol\":6053:6081  Log (address(UniswapRouter)) */\n      mload(0x40)\n      tag_174\n      swap2\n      swap1\n      tag_40\n      jump\t// in\n    tag_174:\n      mload(0x40)\n      dup1\n      swap2\n      sub\n      swap1\n      log1\n        /* \"Hook.sol\":6100:6116  Log(\"msg.value\") */\n      0xcf34ef537ac33ee1ac626ca1587a0a7e8e51561e5514f8cb36afa1c5102b3bab\n      mload(0x40)\n      tag_175\n      swap1\n      tag_176\n      jump\t// in\n    tag_175:\n      mload(0x40)\n      dup1\n      swap2\n      sub\n      swap1\n      log1\n        /* \"Hook.sol\":6135:6149  Log(msg.value) */\n      0x909c57d5c6ac08245cf2a6de3900e2b868513fa59099b92b27d8db823d92df9c\n        /* \"Hook.sol\":6139:6148  msg.value */\n      callvalue\n        /* \"Hook.sol\":6135:6149  Log(msg.value) */\n      mload(0x40)\n      tag_177\n      swap2\n      swap1\n      tag_52\n      jump\t// in\n    tag_177:\n      mload(0x40)\n      dup1\n      swap2\n      sub\n      swap1\n      log1\n        /* \"Hook.sol\":6168:6187  Log(\"ERC20Address\") */\n      0xcf34ef537ac33ee1ac626ca1587a0a7e8e51561e5514f8cb36afa1c5102b3bab\n      mload(0x40)\n      tag_178\n      swap1\n      tag_179\n      jump\t// in\n    tag_178:\n      mload(0x40)\n      dup1\n      swap2\n      sub\n      swap1\n      log1\n        /* \"Hook.sol\":6206:6223  Log(ERC20Address) */\n      0xb8a00d6d8ca1be30bfec34d8f97e55f0f0fd9eeb7fb46e030516363d4cfe1ad6\n        /* \"Hook.sol\":6210:6222  ERC20Address */\n      0x01\n      0x00\n      swap1\n      sload\n      swap1\n      0x0100\n      exp\n      swap1\n      div\n      0xffffffffffffffffffffffffffffffffffffffff\n      and\n        /* \"Hook.sol\":6206:6223  Log(ERC20Address) */\n      mload(0x40)\n      tag_180\n      swap2\n      swap1\n      tag_40\n      jump\t// in\n    tag_180:\n      mload(0x40)\n      dup1\n      swap2\n      sub\n      swap1\n      log1\n        /* \"Hook.sol\":6242:6261  Log(\"tokensToSend\") */\n      0xcf34ef537ac33ee1ac626ca1587a0a7e8e51561e5514f8cb36afa1c5102b3bab\n      mload(0x40)\n      tag_181\n      swap1\n      tag_182\n      jump\t// in\n    tag_181:\n      mload(0x40)\n      dup1\n      swap2\n      sub\n      swap1\n      log1\n        /* \"Hook.sol\":6280:6297  Log(tokensToSend) */\n      0x909c57d5c6ac08245cf2a6de3900e2b868513fa59099b92b27d8db823d92df9c\n        /* \"Hook.sol\":6284:6296  tokensToSend */\n      dup2\n        /* \"Hook.sol\":6280:6297  Log(tokensToSend) */\n      mload(0x40)\n      tag_183\n      swap2\n      swap1\n      tag_52\n      jump\t// in\n    tag_183:\n      mload(0x40)\n      dup1\n      swap2\n      sub\n      swap1\n      log1\n        /* \"Hook.sol\":6316:6336  Log(\"address(this)\") */\n      0xcf34ef537ac33ee1ac626ca1587a0a7e8e51561e5514f8cb36afa1c5102b3bab\n      mload(0x40)\n      tag_184\n      swap1\n      tag_185\n      jump\t// in\n    tag_184:\n      mload(0x40)\n      dup1\n      swap2\n      sub\n      swap1\n      log1\n        /* \"Hook.sol\":6355:6373  Log(address(this)) */\n      0xb8a00d6d8ca1be30bfec34d8f97e55f0f0fd9eeb7fb46e030516363d4cfe1ad6\n        /* \"Hook.sol\":6367:6371  this */\n      address\n        /* \"Hook.sol\":6355:6373  Log(address(this)) */\n      mload(0x40)\n      tag_186\n      swap2\n      swap1\n      tag_40\n      jump\t// in\n    tag_186:\n      mload(0x40)\n      dup1\n      swap2\n      sub\n      swap1\n      log1\n        /* \"Hook.sol\":6392:6413  Log(\"type(uint).max\") */\n      0xcf34ef537ac33ee1ac626ca1587a0a7e8e51561e5514f8cb36afa1c5102b3bab\n      mload(0x40)\n      tag_187\n      swap1\n      tag_188\n      jump\t// in\n    tag_187:\n      mload(0x40)\n      dup1\n      swap2\n      sub\n      swap1\n      log1\n        /* \"Hook.sol\":6432:6451  Log(type(uint).max) */\n      0x909c57d5c6ac08245cf2a6de3900e2b868513fa59099b92b27d8db823d92df9c\n        /* \"Hook.sol\":6436:6450  type(uint).max */\n      0xffffffffffffffffffffffffffffffffffffffffffffffffffffffffffffffff\n        /* \"Hook.sol\":6432:6451  Log(type(uint).max) */\n      mload(0x40)\n      tag_189\n      swap2\n      swap1\n      tag_52\n      jump\t// in\n    tag_189:\n      mload(0x40)\n      dup1\n      swap2\n      sub\n      swap1\n      log1\n        /* \"Hook.sol\":6470:6499  Log(\"Liquidity Not Provided\") */\n      0xcf34ef537ac33ee1ac626ca1587a0a7e8e51561e5514f8cb36afa1c5102b3bab\n      mload(0x40)\n      tag_190\n      swap1\n      tag_191\n      jump\t// in\n    tag_190:\n      mload(0x40)\n      dup1\n      swap2\n      sub\n      swap1\n      log1\n        /* \"Hook.sol\":5718:6510  try UniswapRouter.addLiquidityETH {value: msg.value} (ERC20Address, tokensToSend, 0, 0, address(this), type(uint).max)... */\n      jump(tag_192)\n    tag_170:\n      pop\n      pop\n      pop\n        /* \"Hook.sol\":5864:5902  Log(\"liquidity Successfully Provided\") */\n      0xcf34ef537ac33ee1ac626ca1587a0a7e8e51561e5514f8cb36afa1c5102b3bab\n      mload(0x40)\n      tag_193\n      swap1\n      tag_194\n      jump\t// in\n    tag_193:\n      mload(0x40)\n      dup1\n      swap2\n      sub\n      swap1\n      log1\n        /* \"Hook.sol\":5970:5982  ERC20Address */\n      0x01\n      0x00\n      swap1\n      sload\n      swap1\n      0x0100\n      exp\n      swap1\n      div\n      0xffffffffffffffffffffffffffffffffffffffff\n      and\n        /* \"Hook.sol\":5963:5993  IERC20(ERC20Address).balanceOf */\n      0xffffffffffffffffffffffffffffffffffffffff\n      and\n      0x70a08231\n        /* \"Hook.sol\":6002:6006  this */\n      address\n        /* \"Hook.sol\":5963:6008  IERC20(ERC20Address).balanceOf(address(this)) */\n      mload(0x40)\n      dup3\n      0xffffffff\n      and\n      0xe0\n      shl\n      dup2\n      mstore\n      0x04\n      add\n      tag_195\n      swap2\n      swap1\n      tag_40\n      jump\t// in\n    tag_195:\n      0x20\n      mload(0x40)\n      dup1\n      dup4\n      sub\n      dup2\n      dup7\n      gas\n      staticcall\n      iszero\n      dup1\n      iszero\n      tag_197\n      jumpi\n      returndatasize\n      0x00\n      dup1\n      returndatacopy\n      revert(0x00, returndatasize)\n    tag_197:\n      pop\n      pop\n      pop\n      pop\n      mload(0x40)\n      returndatasize\n      not(0x1f)\n      0x1f\n      dup3\n      add\n      and\n      dup3\n      add\n      dup1\n      0x40\n      mstore\n      pop\n      dup2\n      add\n      swap1\n      tag_198\n      swap2\n      swap1\n      tag_124\n      jump\t// in\n    tag_198:\n        /* \"Hook.sol\":5941:5960  currentERC20Balance */\n      dup3\n        /* \"Hook.sol\":5941:6008  currentERC20Balance - IERC20(ERC20Address).balanceOf(address(this)) */\n      tag_199\n      swap2\n      swap1\n      tag_148\n      jump\t// in\n    tag_199:\n        /* \"Hook.sol\":5916:6008  ERC20LiquidityProvided = currentERC20Balance - IERC20(ERC20Address).balanceOf(address(this)) */\n      swap3\n      pop\n        /* \"Hook.sol\":5718:6510  try UniswapRouter.addLiquidityETH {value: msg.value} (ERC20Address, tokensToSend, 0, 0, address(this), type(uint).max)... */\n    tag_192:\n        /* \"Hook.sol\":6527:6549  ERC20LiquidityProvided */\n      dup3\n        /* \"Hook.sol\":6519:6550  return (ERC20LiquidityProvided) */\n      swap4\n      pop\n      pop\n      pop\n      pop\n        /* \"Hook.sol\":4674:6557  function xprovideLiquidity() external payable returns (uint){... */\n      swap1\n      jump\t// out\n        /* \"Hook.sol\":2511:2541  address public crownNFTAddress */\n    tag_62:\n      0x04\n      0x00\n      swap1\n      sload\n      swap1\n      0x0100\n      exp\n      swap1\n      div\n      0xffffffffffffffffffffffffffffffffffffffff\n      and\n      dup2\n      jump\t// out\n        /* \"Hook.sol\":2982:3008  uint public totalRoyalties */\n    tag_66:\n      sload(0x0e)\n      dup2\n      jump\t// out\n        /* \"Hook.sol\":3928:4033  function getWethBalance() public view returns (uint){... */\n    tag_70:\n        /* \"Hook.sol\":3975:3979  uint */\n      0x00\n        /* \"Hook.sol\":3997:4001  WETH */\n      0x09\n      0x00\n      swap1\n      sload\n      swap1\n      0x0100\n      exp\n      swap1\n      div\n      0xffffffffffffffffffffffffffffffffffffffff\n      and\n        /* \"Hook.sol\":3997:4011  WETH.balanceOf */\n      0xffffffffffffffffffffffffffffffffffffffff\n      and\n      0x70a08231\n        /* \"Hook.sol\":4020:4024  this */\n      address\n        /* \"Hook.sol\":3997:4026  WETH.balanceOf(address(this)) */\n      mload(0x40)\n      dup3\n      0xffffffff\n      and\n      0xe0\n      shl\n      dup2\n      mstore\n      0x04\n      add\n      tag_201\n      swap2\n      swap1\n      tag_40\n      jump\t// in\n    tag_201:\n      0x20\n      mload(0x40)\n      dup1\n      dup4\n      sub\n      dup2\n      dup7\n      gas\n      staticcall\n      iszero\n      dup1\n      iszero\n      tag_203\n      jumpi\n      returndatasize\n      0x00\n      dup1\n      returndatacopy\n      revert(0x00, returndatasize)\n    tag_203:\n      pop\n      pop\n      pop\n      pop\n      mload(0x40)\n      returndatasize\n      not(0x1f)\n      0x1f\n      dup3\n      add\n      and\n      dup3\n      add\n      dup1\n      0x40\n      mstore\n      pop\n      dup2\n      add\n      swap1\n      tag_204\n      swap2\n      swap1\n      tag_124\n      jump\t// in\n    tag_204:\n        /* \"Hook.sol\":3990:4026  return WETH.balanceOf(address(this)) */\n      swap1\n      pop\n        /* \"Hook.sol\":3928:4033  function getWethBalance() public view returns (uint){... */\n      swap1\n      jump\t// out\n        /* \"Hook.sol\":7866:7890  uint public liquidityEth */\n    tag_74:\n      sload(0x10)\n      dup2\n      jump\t// out\n        /* \"Hook.sol\":2405:2432  address public ERC20Address */\n    tag_78:\n      0x01\n      0x00\n      swap1\n      sload\n      swap1\n      0x0100\n      exp\n      swap1\n      div\n      0xffffffffffffffffffffffffffffffffffffffff\n      and\n      dup2\n      jump\t// out\n        /* \"Hook.sol\":2328:2399  address public WethAddress = 0xB4FBF271143F4FBf7B91A5ded31805e42b2208d6 */\n    tag_82:\n      0x00\n      dup1\n      sload\n      swap1\n      0x0100\n      exp\n      swap1\n      div\n      0xffffffffffffffffffffffffffffffffffffffff\n      and\n      dup2\n      jump\t// out\n        /* \"Hook.sol\":2477:2505  address public oracleAddress */\n    tag_86:\n      0x03\n      0x00\n      swap1\n      sload\n      swap1\n      0x0100\n      exp\n      swap1\n      div\n      0xffffffffffffffffffffffffffffffffffffffff\n      and\n      dup2\n      jump\t// out\n        /* \"Hook.sol\":2547:2573  address public POAPAddress */\n    tag_90:\n      0x05\n      0x00\n      swap1\n      sload\n      swap1\n      0x0100\n      exp\n      swap1\n      div\n      0xffffffffffffffffffffffffffffffffffffffff\n      and\n      dup2\n      jump\t// out\n        /* \"Hook.sol\":2665:2686  address[] public path */\n    tag_95:\n      0x07\n      dup2\n      dup2\n      sload\n      dup2\n      lt\n      tag_205\n      jumpi\n      0x00\n      dup1\n      revert\n    tag_205:\n      swap1\n      0x00\n      mstore\n      keccak256(0x00, 0x20)\n      add\n      0x00\n      swap2\n      pop\n      sload\n      swap1\n      0x0100\n      exp\n      swap1\n      div\n      0xffffffffffffffffffffffffffffffffffffffff\n      and\n      dup2\n      jump\t// out\n        /* \"Hook.sol\":2438:2471  address public uniswapPairAddress */\n    tag_99:\n      0x02\n      0x00\n      swap1\n      sload\n      swap1\n      0x0100\n      exp\n      swap1\n      div\n      0xffffffffffffffffffffffffffffffffffffffff\n      and\n      dup2\n      jump\t// out\n        /* \"Hook.sol\":4040:4172  function getLastEthRecieved() public view returns (uint){... */\n    tag_103:\n        /* \"Hook.sol\":4091:4095  uint */\n      0x00\n        /* \"Hook.sol\":4113:4134  transactionFromPOAPId */\n      0x0c\n        /* \"Hook.sol\":4113:4153  transactionFromPOAPId[POAPIds.length -1] */\n      0x00\n        /* \"Hook.sol\":4151:4152  1 */\n      0x01\n        /* \"Hook.sol\":4135:4142  POAPIds */\n      0x0d\n        /* \"Hook.sol\":4135:4149  POAPIds.length */\n      dup1\n      sload\n      swap1\n      pop\n        /* \"Hook.sol\":4135:4152  POAPIds.length -1 */\n      tag_208\n      swap2\n      swap1\n      tag_148\n      jump\t// in\n    tag_208:\n        /* \"Hook.sol\":4113:4153  transactionFromPOAPId[POAPIds.length -1] */\n      dup2\n      mstore\n      0x20\n      add\n      swap1\n      dup2\n      mstore\n      0x20\n      add\n      0x00\n      keccak256\n        /* \"Hook.sol\":4113:4165  transactionFromPOAPId[POAPIds.length -1].receivedEth */\n      0x02\n      add\n      sload\n        /* \"Hook.sol\":4106:4165  return transactionFromPOAPId[POAPIds.length -1].receivedEth */\n      swap1\n      pop\n        /* \"Hook.sol\":4040:4172  function getLastEthRecieved() public view returns (uint){... */\n      swap1\n      jump\t// out\n        /* \"Hook.sol\":4182:4668  function percentLiquidity() public view returns (uint){... */\n    tag_107:\n        /* \"Hook.sol\":4231:4235  uint */\n      0x00\n        /* \"Hook.sol\":4391:4402  uint supply */\n      dup1\n        /* \"Hook.sol\":4412:4424  ERC20Address */\n      0x01\n      0x00\n      swap1\n      sload\n      swap1\n      0x0100\n      exp\n      swap1\n      div\n      0xffffffffffffffffffffffffffffffffffffffff\n      and\n        /* \"Hook.sol\":4405:4437  IERC20(ERC20Address).totalSupply */\n      0xffffffffffffffffffffffffffffffffffffffff\n      and\n      0x18160ddd\n        /* \"Hook.sol\":4405:4439  IERC20(ERC20Address).totalSupply() */\n      mload(0x40)\n      dup2\n      0xffffffff\n      and\n      0xe0\n      shl\n      dup2\n      mstore\n      0x04\n      add\n      0x20\n      mload(0x40)\n      dup1\n      dup4\n      sub\n      dup2\n      dup7\n      gas\n      staticcall\n      iszero\n      dup1\n      iszero\n      tag_211\n      jumpi\n      returndatasize\n      0x00\n      dup1\n      returndatacopy\n      revert(0x00, returndatasize)\n    tag_211:\n      pop\n      pop\n      pop\n      pop\n      mload(0x40)\n      returndatasize\n      not(0x1f)\n      0x1f\n      dup3\n      add\n      and\n      dup3\n      add\n      dup1\n      0x40\n      mstore\n      pop\n      dup2\n      add\n      swap1\n      tag_212\n      swap2\n      swap1\n      tag_124\n      jump\t// in\n    tag_212:\n        /* \"Hook.sol\":4391:4439  uint supply = IERC20(ERC20Address).totalSupply() */\n      swap1\n      pop\n        /* \"Hook.sol\":4495:4509  uint liquidity */\n      0x00\n        /* \"Hook.sol\":4517:4529  ERC20Address */\n      0x01\n      0x00\n      swap1\n      sload\n      swap1\n      0x0100\n      exp\n      swap1\n      div\n      0xffffffffffffffffffffffffffffffffffffffff\n      and\n        /* \"Hook.sol\":4510:4540  IERC20(ERC20Address).balanceOf */\n      0xffffffffffffffffffffffffffffffffffffffff\n      and\n      0x70a08231\n        /* \"Hook.sol\":4541:4559  uniswapPairAddress */\n      0x02\n      0x00\n      swap1\n      sload\n      swap1\n      0x0100\n      exp\n      swap1\n      div\n      0xffffffffffffffffffffffffffffffffffffffff\n      and\n        /* \"Hook.sol\":4510:4560  IERC20(ERC20Address).balanceOf(uniswapPairAddress) */\n      mload(0x40)\n      dup3\n      0xffffffff\n      and\n      0xe0\n      shl\n      dup2\n      mstore\n      0x04\n      add\n      tag_213\n      swap2\n      swap1\n      tag_40\n      jump\t// in\n    tag_213:\n      0x20\n      mload(0x40)\n      dup1\n      dup4\n      sub\n      dup2\n      dup7\n      gas\n      staticcall\n      iszero\n      dup1\n      iszero\n      tag_215\n      jumpi\n      returndatasize\n      0x00\n      dup1\n      returndatacopy\n      revert(0x00, returndatasize)\n    tag_215:\n      pop\n      pop\n      pop\n      pop\n      mload(0x40)\n      returndatasize\n      not(0x1f)\n      0x1f\n      dup3\n      add\n      and\n      dup3\n      add\n      dup1\n      0x40\n      mstore\n      pop\n      dup2\n      add\n      swap1\n      tag_216\n      swap2\n      swap1\n      tag_124\n      jump\t// in\n    tag_216:\n        /* \"Hook.sol\":4495:4560  uint liquidity=IERC20(ERC20Address).balanceOf(uniswapPairAddress) */\n      swap1\n      pop\n        /* \"Hook.sol\":4654:4660  supply */\n      dup2\n        /* \"Hook.sol\":4649:4652  100 */\n      0x64\n        /* \"Hook.sol\":4639:4648  liquidity */\n      dup3\n        /* \"Hook.sol\":4639:4652  liquidity*100 */\n      tag_217\n      swap2\n      swap1\n      tag_141\n      jump\t// in\n    tag_217:\n        /* \"Hook.sol\":4638:4660  (liquidity*100)/supply */\n      tag_218\n      swap2\n      swap1\n      tag_143\n      jump\t// in\n    tag_218:\n        /* \"Hook.sol\":4631:4661  return((liquidity*100)/supply) */\n      swap3\n      pop\n      pop\n      pop\n        /* \"Hook.sol\":4182:4668  function percentLiquidity() public view returns (uint){... */\n      swap1\n      jump\t// out\n        /* \"Hook.sol\":11690:11803  function mintSomeTokens (uint tokens) public {... */\n    tag_112:\n        /* \"Hook.sol\":11754:11766  ERC20Address */\n      0x01\n      0x00\n      swap1\n      sload\n      swap1\n      0x0100\n      exp\n      swap1\n      div\n      0xffffffffffffffffffffffffffffffffffffffff\n      and\n        /* \"Hook.sol\":11745:11776  WethLike(ERC20Address).hookMint */\n      0xffffffffffffffffffffffffffffffffffffffff\n      and\n      0x96fe8349\n        /* \"Hook.sol\":11777:11783  tokens */\n      dup3\n        /* \"Hook.sol\":11785:11795  msg.sender */\n      caller\n        /* \"Hook.sol\":11745:11796  WethLike(ERC20Address).hookMint(tokens, msg.sender) */\n      mload(0x40)\n      dup4\n      0xffffffff\n      and\n      0xe0\n      shl\n      dup2\n      mstore\n      0x04\n      add\n      tag_220\n      swap3\n      swap2\n      swap1\n      tag_150\n      jump\t// in\n    tag_220:\n      0x00\n      mload(0x40)\n      dup1\n      dup4\n      sub\n      dup2\n      0x00\n      dup8\n      dup1\n      extcodesize\n      iszero\n      dup1\n      iszero\n      tag_221\n      jumpi\n      0x00\n      dup1\n      revert\n    tag_221:\n      pop\n      gas\n      call\n      iszero\n      dup1\n      iszero\n      tag_223\n      jumpi\n      returndatasize\n      0x00\n      dup1\n      returndatacopy\n      revert(0x00, returndatasize)\n    tag_223:\n      pop\n      pop\n      pop\n      pop\n        /* \"Hook.sol\":11690:11803  function mintSomeTokens (uint tokens) public {... */\n      pop\n      jump\t// out\n        /* \"Hook.sol\":3350:3710  function newTransaction (uint _receivedEth, address _newOwner) internal {... */\n    tag_115:\n        /* \"Hook.sol\":3432:3443  uint POAPId */\n      0x00\n        /* \"Hook.sol\":3446:3453  POAPIds */\n      0x0d\n        /* \"Hook.sol\":3446:3460  POAPIds.length */\n      dup1\n      sload\n      swap1\n      pop\n        /* \"Hook.sol\":3432:3460  uint POAPId = POAPIds.length */\n      swap1\n      pop\n        /* \"Hook.sol\":3470:3501  Transaction storage transaction */\n      0x00\n        /* \"Hook.sol\":3504:3525  transactionFromPOAPId */\n      0x0c\n        /* \"Hook.sol\":3504:3541  transactionFromPOAPId[POAPIds.length] */\n      0x00\n        /* \"Hook.sol\":3526:3533  POAPIds */\n      0x0d\n        /* \"Hook.sol\":3526:3540  POAPIds.length */\n      dup1\n      sload\n      swap1\n      pop\n        /* \"Hook.sol\":3504:3541  transactionFromPOAPId[POAPIds.length] */\n      dup2\n      mstore\n      0x20\n      add\n      swap1\n      dup2\n      mstore\n      0x20\n      add\n      0x00\n      keccak256\n        /* \"Hook.sol\":3470:3541  Transaction storage transaction = transactionFromPOAPId[POAPIds.length] */\n      swap1\n      pop\n        /* \"Hook.sol\":3572:3578  POAPId */\n      dup2\n        /* \"Hook.sol\":3551:3562  transaction */\n      dup2\n        /* \"Hook.sol\":3551:3569  transaction.POAPId */\n      0x00\n      add\n        /* \"Hook.sol\":3551:3578  transaction.POAPId = POAPId */\n      dup2\n      swap1\n      sstore\n      pop\n        /* \"Hook.sol\":3612:3621  _newOwner */\n      dup3\n        /* \"Hook.sol\":3588:3599  transaction */\n      dup2\n        /* \"Hook.sol\":3588:3609  transaction.purchaser */\n      0x01\n      add\n      0x00\n        /* \"Hook.sol\":3588:3621  transaction.purchaser = _newOwner */\n      0x0100\n      exp\n      dup2\n      sload\n      dup2\n      0xffffffffffffffffffffffffffffffffffffffff\n      mul\n      not\n      and\n      swap1\n      dup4\n      0xffffffffffffffffffffffffffffffffffffffff\n      and\n      mul\n      or\n      swap1\n      sstore\n      pop\n        /* \"Hook.sol\":3657:3669  _receivedEth */\n      dup4\n        /* \"Hook.sol\":3631:3642  transaction */\n      dup2\n        /* \"Hook.sol\":3631:3654  transaction.receivedEth */\n      0x02\n      add\n        /* \"Hook.sol\":3631:3669  transaction.receivedEth = _receivedEth */\n      dup2\n      swap1\n      sstore\n      pop\n        /* \"Hook.sol\":3679:3686  POAPIds */\n      0x0d\n        /* \"Hook.sol\":3692:3698  POAPId */\n      dup3\n        /* \"Hook.sol\":3679:3699  POAPIds.push(POAPId) */\n      swap1\n      dup1\n      0x01\n      dup2\n      sload\n      add\n      dup1\n      dup3\n      sstore\n      dup1\n      swap2\n      pop\n      pop\n      0x01\n      swap1\n      sub\n      swap1\n      0x00\n      mstore\n      keccak256(0x00, 0x20)\n      add\n      0x00\n      swap1\n      swap2\n      swap1\n      swap2\n      swap1\n      swap2\n      pop\n      sstore\n        /* \"Hook.sol\":3422:3710  {... */\n      pop\n      pop\n        /* \"Hook.sol\":3350:3710  function newTransaction (uint _receivedEth, address _newOwner) internal {... */\n      pop\n      pop\n      jump\t// out\n        /* \"Hook.sol\":9925:11684  function processETH() internal{... */\n    tag_117:\n        /* \"Hook.sol\":9965:9978  uint msgValue */\n      0x00\n        /* \"Hook.sol\":9981:9990  msg.value */\n      callvalue\n        /* \"Hook.sol\":9965:9990  uint msgValue = msg.value */\n      swap1\n      pop\n        /* \"Hook.sol\":10010:10011  0 */\n      0x00\n        /* \"Hook.sol\":10003:10009  buyEth */\n      sload(0x0f)\n        /* \"Hook.sol\":10003:10011  buyEth>0 */\n      gt\n        /* \"Hook.sol\":10000:10250  if(buyEth>0){... */\n      iszero\n      tag_227\n      jumpi\n        /* \"Hook.sol\":10026:10039  uint _balance */\n      0x00\n        /* \"Hook.sol\":10042:10063  address(this).balance */\n      selfbalance\n        /* \"Hook.sol\":10026:10063  uint _balance = address(this).balance */\n      swap1\n      pop\n        /* \"Hook.sol\":10077:10095  buyAndBurn(buyEth) */\n      tag_228\n        /* \"Hook.sol\":10088:10094  buyEth */\n      sload(0x0f)\n        /* \"Hook.sol\":10077:10087  buyAndBurn */\n      tag_229\n        /* \"Hook.sol\":10077:10095  buyAndBurn(buyEth) */\n      jump\t// in\n    tag_228:\n        /* \"Hook.sol\":10109:10125  uint _newBalance */\n      0x00\n        /* \"Hook.sol\":10128:10149  address(this).balance */\n      selfbalance\n        /* \"Hook.sol\":10109:10149  uint _newBalance = address(this).balance */\n      swap1\n      pop\n        /* \"Hook.sol\":10163:10179  uint _difference */\n      0x00\n        /* \"Hook.sol\":10193:10204  _newBalance */\n      dup2\n        /* \"Hook.sol\":10182:10190  _balance */\n      dup4\n        /* \"Hook.sol\":10182:10204  _balance - _newBalance */\n      tag_230\n      swap2\n      swap1\n      tag_148\n      jump\t// in\n    tag_230:\n        /* \"Hook.sol\":10163:10204  uint _difference = _balance - _newBalance */\n      swap1\n      pop\n        /* \"Hook.sol\":10228:10239  _difference */\n      dup1\n        /* \"Hook.sol\":10218:10224  buyEth */\n      0x0f\n      0x00\n        /* \"Hook.sol\":10218:10239  buyEth -= _difference */\n      dup3\n      dup3\n      sload\n      tag_231\n      swap2\n      swap1\n      tag_148\n      jump\t// in\n    tag_231:\n      swap3\n      pop\n      pop\n      dup2\n      swap1\n      sstore\n      pop\n        /* \"Hook.sol\":10012:10250  {... */\n      pop\n      pop\n      pop\n        /* \"Hook.sol\":10000:10250  if(buyEth>0){... */\n    tag_227:\n        /* \"Hook.sol\":10275:10276  0 */\n      0x00\n        /* \"Hook.sol\":10262:10274  liquidityEth */\n      sload(0x10)\n        /* \"Hook.sol\":10262:10276  liquidityEth>0 */\n      gt\n        /* \"Hook.sol\":10259:10533  if(liquidityEth>0){... */\n      iszero\n      tag_232\n      jumpi\n        /* \"Hook.sol\":10291:10304  uint _balance */\n      0x00\n        /* \"Hook.sol\":10307:10328  address(this).balance */\n      selfbalance\n        /* \"Hook.sol\":10291:10328  uint _balance = address(this).balance */\n      swap1\n      pop\n        /* \"Hook.sol\":10342:10372  provideLiquidity(liquidityEth) */\n      tag_233\n        /* \"Hook.sol\":10359:10371  liquidityEth */\n      sload(0x10)\n        /* \"Hook.sol\":10342:10358  provideLiquidity */\n      tag_234\n        /* \"Hook.sol\":10342:10372  provideLiquidity(liquidityEth) */\n      jump\t// in\n    tag_233:\n      pop\n        /* \"Hook.sol\":10386:10402  uint _newBalance */\n      0x00\n        /* \"Hook.sol\":10405:10426  address(this).balance */\n      selfbalance\n        /* \"Hook.sol\":10386:10426  uint _newBalance = address(this).balance */\n      swap1\n      pop\n        /* \"Hook.sol\":10440:10456  uint _difference */\n      0x00\n        /* \"Hook.sol\":10470:10481  _newBalance */\n      dup2\n        /* \"Hook.sol\":10459:10467  _balance */\n      dup4\n        /* \"Hook.sol\":10459:10481  _balance - _newBalance */\n      tag_235\n      swap2\n      swap1\n      tag_148\n      jump\t// in\n    tag_235:\n        /* \"Hook.sol\":10440:10481  uint _difference = _balance - _newBalance */\n      swap1\n      pop\n        /* \"Hook.sol\":10511:10522  _difference */\n      dup1\n        /* \"Hook.sol\":10495:10507  liquidityEth */\n      0x10\n      0x00\n        /* \"Hook.sol\":10495:10522  liquidityEth -= _difference */\n      dup3\n      dup3\n      sload\n      tag_236\n      swap2\n      swap1\n      tag_148\n      jump\t// in\n    tag_236:\n      swap3\n      pop\n      pop\n      dup2\n      swap1\n      sstore\n      pop\n        /* \"Hook.sol\":10277:10533  {... */\n      pop\n      pop\n      pop\n        /* \"Hook.sol\":10259:10533  if(liquidityEth>0){... */\n    tag_232:\n        /* \"Hook.sol\":10546:10568  address previousHolder */\n      0x00\n        /* \"Hook.sol\":10571:10592  transactionFromPOAPId */\n      0x0c\n        /* \"Hook.sol\":10571:10611  transactionFromPOAPId[POAPIds.length -1] */\n      0x00\n        /* \"Hook.sol\":10609:10610  1 */\n      0x01\n        /* \"Hook.sol\":10593:10600  POAPIds */\n      0x0d\n        /* \"Hook.sol\":10593:10607  POAPIds.length */\n      dup1\n      sload\n      swap1\n      pop\n        /* \"Hook.sol\":10593:10610  POAPIds.length -1 */\n      tag_237\n      swap2\n      swap1\n      tag_148\n      jump\t// in\n    tag_237:\n        /* \"Hook.sol\":10571:10611  transactionFromPOAPId[POAPIds.length -1] */\n      dup2\n      mstore\n      0x20\n      add\n      swap1\n      dup2\n      mstore\n      0x20\n      add\n      0x00\n      keccak256\n        /* \"Hook.sol\":10571:10621  transactionFromPOAPId[POAPIds.length -1].purchaser */\n      0x01\n      add\n      0x00\n      swap1\n      sload\n      swap1\n      0x0100\n      exp\n      swap1\n      div\n      0xffffffffffffffffffffffffffffffffffffffff\n      and\n        /* \"Hook.sol\":10546:10621  address previousHolder = transactionFromPOAPId[POAPIds.length -1].purchaser */\n      swap1\n      pop\n        /* \"Hook.sol\":10635:10672  erc20ToPreviousHolder(previousHolder) */\n      tag_238\n        /* \"Hook.sol\":10657:10671  previousHolder */\n      dup2\n        /* \"Hook.sol\":10635:10656  erc20ToPreviousHolder */\n      tag_239\n        /* \"Hook.sol\":10635:10672  erc20ToPreviousHolder(previousHolder) */\n      jump\t// in\n    tag_238:\n        /* \"Hook.sol\":10686:10690  POAP */\n      0x08\n      0x00\n      swap1\n      sload\n      swap1\n      0x0100\n      exp\n      swap1\n      div\n      0xffffffffffffffffffffffffffffffffffffffff\n      and\n        /* \"Hook.sol\":10686:10695  POAP.mint */\n      0xffffffffffffffffffffffffffffffffffffffff\n      and\n      0x6a627842\n        /* \"Hook.sol\":10696:10710  previousHolder */\n      dup3\n        /* \"Hook.sol\":10686:10711  POAP.mint(previousHolder) */\n      mload(0x40)\n      dup3\n      0xffffffff\n      and\n      0xe0\n      shl\n      dup2\n      mstore\n      0x04\n      add\n      tag_240\n      swap2\n      swap1\n      tag_40\n      jump\t// in\n    tag_240:\n      0x00\n      mload(0x40)\n      dup1\n      dup4\n      sub\n      dup2\n      0x00\n      dup8\n      dup1\n      extcodesize\n      iszero\n      dup1\n      iszero\n      tag_241\n      jumpi\n      0x00\n      dup1\n      revert\n    tag_241:\n      pop\n      gas\n      call\n      iszero\n      dup1\n      iszero\n      tag_243\n      jumpi\n      returndatasize\n      0x00\n      dup1\n      returndatacopy\n      revert(0x00, returndatasize)\n    tag_243:\n      pop\n      pop\n      pop\n      pop\n        /* \"Hook.sol\":10721:10743  uint _percentLiquidity */\n      0x00\n        /* \"Hook.sol\":10746:10764  percentLiquidity() */\n      tag_244\n        /* \"Hook.sol\":10746:10762  percentLiquidity */\n      tag_107\n        /* \"Hook.sol\":10746:10764  percentLiquidity() */\n      jump\t// in\n    tag_244:\n        /* \"Hook.sol\":10721:10764  uint _percentLiquidity = percentLiquidity() */\n      swap1\n      pop\n        /* \"Hook.sol\":10779:10804  Log('previous Holder is') */\n      0xcf34ef537ac33ee1ac626ca1587a0a7e8e51561e5514f8cb36afa1c5102b3bab\n      mload(0x40)\n      tag_245\n      swap1\n      tag_246\n      jump\t// in\n    tag_245:\n      mload(0x40)\n      dup1\n      swap2\n      sub\n      swap1\n      log1\n        /* \"Hook.sol\":10819:10838  Log(previousHolder) */\n      0xb8a00d6d8ca1be30bfec34d8f97e55f0f0fd9eeb7fb46e030516363d4cfe1ad6\n        /* \"Hook.sol\":10823:10837  previousHolder */\n      dup3\n        /* \"Hook.sol\":10819:10838  Log(previousHolder) */\n      mload(0x40)\n      tag_247\n      swap2\n      swap1\n      tag_40\n      jump\t// in\n    tag_247:\n      mload(0x40)\n      dup1\n      swap2\n      sub\n      swap1\n      log1\n        /* \"Hook.sol\":10853:10885  Log('current liquidity percent') */\n      0xcf34ef537ac33ee1ac626ca1587a0a7e8e51561e5514f8cb36afa1c5102b3bab\n      mload(0x40)\n      tag_248\n      swap1\n      tag_249\n      jump\t// in\n    tag_248:\n      mload(0x40)\n      dup1\n      swap2\n      sub\n      swap1\n      log1\n        /* \"Hook.sol\":10900:10922  Log(_percentLiquidity) */\n      0x909c57d5c6ac08245cf2a6de3900e2b868513fa59099b92b27d8db823d92df9c\n        /* \"Hook.sol\":10904:10921  _percentLiquidity */\n      dup2\n        /* \"Hook.sol\":10900:10922  Log(_percentLiquidity) */\n      mload(0x40)\n      tag_250\n      swap2\n      swap1\n      tag_52\n      jump\t// in\n    tag_250:\n      mload(0x40)\n      dup1\n      swap2\n      sub\n      swap1\n      log1\n        /* \"Hook.sol\":11002:11004  20 */\n      0x14\n        /* \"Hook.sol\":10984:11001  _percentLiquidity */\n      dup2\n        /* \"Hook.sol\":10984:11004  _percentLiquidity>20 */\n      gt\n        /* \"Hook.sol\":10981:11678  if(_percentLiquidity>20){... */\n      iszero\n      tag_251\n      jumpi\n        /* \"Hook.sol\":11019:11032  uint _balance */\n      0x00\n        /* \"Hook.sol\":11035:11056  address(this).balance */\n      selfbalance\n        /* \"Hook.sol\":11019:11056  uint _balance = address(this).balance */\n      swap1\n      pop\n        /* \"Hook.sol\":11070:11091  buyAndBurn(msg.value) */\n      tag_252\n        /* \"Hook.sol\":11081:11090  msg.value */\n      callvalue\n        /* \"Hook.sol\":11070:11080  buyAndBurn */\n      tag_229\n        /* \"Hook.sol\":11070:11091  buyAndBurn(msg.value) */\n      jump\t// in\n    tag_252:\n        /* \"Hook.sol\":11105:11121  uint _newBalance */\n      0x00\n        /* \"Hook.sol\":11124:11145  address(this).balance */\n      selfbalance\n        /* \"Hook.sol\":11105:11145  uint _newBalance = address(this).balance */\n      swap1\n      pop\n        /* \"Hook.sol\":11159:11175  uint _difference */\n      0x00\n        /* \"Hook.sol\":11189:11200  _newBalance */\n      dup2\n        /* \"Hook.sol\":11178:11186  _balance */\n      dup4\n        /* \"Hook.sol\":11178:11200  _balance - _newBalance */\n      tag_253\n      swap2\n      swap1\n      tag_148\n      jump\t// in\n    tag_253:\n        /* \"Hook.sol\":11159:11200  uint _difference = _balance - _newBalance */\n      swap1\n      pop\n        /* \"Hook.sol\":11214:11242  uint _amountLeftFromMsgValue */\n      0x00\n        /* \"Hook.sol\":11256:11267  _difference */\n      dup2\n        /* \"Hook.sol\":11245:11253  msgValue */\n      dup8\n        /* \"Hook.sol\":11245:11267  msgValue - _difference */\n      tag_254\n      swap2\n      swap1\n      tag_148\n      jump\t// in\n    tag_254:\n        /* \"Hook.sol\":11214:11267  uint _amountLeftFromMsgValue = msgValue - _difference */\n      swap1\n      pop\n        /* \"Hook.sol\":11291:11314  _amountLeftFromMsgValue */\n      dup1\n        /* \"Hook.sol\":11281:11287  buyEth */\n      0x0f\n      0x00\n        /* \"Hook.sol\":11281:11314  buyEth += _amountLeftFromMsgValue */\n      dup3\n      dup3\n      sload\n      tag_255\n      swap2\n      swap1\n      tag_256\n      jump\t// in\n    tag_255:\n      swap3\n      pop\n      pop\n      dup2\n      swap1\n      sstore\n      pop\n        /* \"Hook.sol\":11005:11326  {... */\n      pop\n      pop\n      pop\n      pop\n        /* \"Hook.sol\":10981:11678  if(_percentLiquidity>20){... */\n      jump(tag_257)\n    tag_251:\n        /* \"Hook.sol\":11346:11359  uint _balance */\n      0x00\n        /* \"Hook.sol\":11362:11383  address(this).balance */\n      selfbalance\n        /* \"Hook.sol\":11346:11383  uint _balance = address(this).balance */\n      swap1\n      pop\n        /* \"Hook.sol\":11397:11437  provideLiquidity(liquidityEth+msg.value) */\n      tag_258\n        /* \"Hook.sol\":11427:11436  msg.value */\n      callvalue\n        /* \"Hook.sol\":11414:11426  liquidityEth */\n      sload(0x10)\n        /* \"Hook.sol\":11414:11436  liquidityEth+msg.value */\n      tag_259\n      swap2\n      swap1\n      tag_256\n      jump\t// in\n    tag_259:\n        /* \"Hook.sol\":11397:11413  provideLiquidity */\n      tag_234\n        /* \"Hook.sol\":11397:11437  provideLiquidity(liquidityEth+msg.value) */\n      jump\t// in\n    tag_258:\n      pop\n        /* \"Hook.sol\":11451:11467  uint _newBalance */\n      0x00\n        /* \"Hook.sol\":11470:11491  address(this).balance */\n      selfbalance\n        /* \"Hook.sol\":11451:11491  uint _newBalance = address(this).balance */\n      swap1\n      pop\n        /* \"Hook.sol\":11505:11521  uint _difference */\n      0x00\n        /* \"Hook.sol\":11535:11546  _newBalance */\n      dup2\n        /* \"Hook.sol\":11524:11532  _balance */\n      dup4\n        /* \"Hook.sol\":11524:11546  _balance - _newBalance */\n      tag_260\n      swap2\n      swap1\n      tag_148\n      jump\t// in\n    tag_260:\n        /* \"Hook.sol\":11505:11546  uint _difference = _balance - _newBalance */\n      swap1\n      pop\n        /* \"Hook.sol\":11560:11588  uint _amountLeftFromMsgValue */\n      0x00\n        /* \"Hook.sol\":11602:11613  _difference */\n      dup2\n        /* \"Hook.sol\":11591:11599  msgValue */\n      dup8\n        /* \"Hook.sol\":11591:11613  msgValue - _difference */\n      tag_261\n      swap2\n      swap1\n      tag_148\n      jump\t// in\n    tag_261:\n        /* \"Hook.sol\":11560:11613  uint _amountLeftFromMsgValue = msgValue - _difference */\n      swap1\n      pop\n        /* \"Hook.sol\":11643:11666  _amountLeftFromMsgValue */\n      dup1\n        /* \"Hook.sol\":11627:11639  liquidityEth */\n      0x10\n      0x00\n        /* \"Hook.sol\":11627:11666  liquidityEth += _amountLeftFromMsgValue */\n      dup3\n      dup3\n      sload\n      tag_262\n      swap2\n      swap1\n      tag_256\n      jump\t// in\n    tag_262:\n      swap3\n      pop\n      pop\n      dup2\n      swap1\n      sstore\n      pop\n        /* \"Hook.sol\":11332:11678  {... */\n      pop\n      pop\n      pop\n      pop\n        /* \"Hook.sol\":10981:11678  if(_percentLiquidity>20){... */\n    tag_257:\n        /* \"Hook.sol\":9955:11684  {... */\n      pop\n      pop\n      pop\n        /* \"Hook.sol\":9925:11684  function processETH() internal{... */\n      jump\t// out\n        /* \"Hook.sol\":8953:9222  function buyAndBurn(uint _buyEth) internal{... */\n    tag_229:\n        /* \"Hook.sol\":9005:9016  uint tokens */\n      0x00\n        /* \"Hook.sol\":9019:9037  buyTokens(_buyEth) */\n      tag_264\n        /* \"Hook.sol\":9029:9036  _buyEth */\n      dup3\n        /* \"Hook.sol\":9019:9028  buyTokens */\n      tag_265\n        /* \"Hook.sol\":9019:9037  buyTokens(_buyEth) */\n      jump\t// in\n    tag_264:\n        /* \"Hook.sol\":9005:9037  uint tokens = buyTokens(_buyEth) */\n      swap1\n      pop\n        /* \"Hook.sol\":9060:9072  ERC20Address */\n      0x01\n      0x00\n      swap1\n      sload\n      swap1\n      0x0100\n      exp\n      swap1\n      div\n      0xffffffffffffffffffffffffffffffffffffffff\n      and\n        /* \"Hook.sol\":9051:9078  WethLike(ERC20Address).burn */\n      0xffffffffffffffffffffffffffffffffffffffff\n      and\n      0x42966c68\n        /* \"Hook.sol\":9079:9085  tokens */\n      dup3\n        /* \"Hook.sol\":9051:9086  WethLike(ERC20Address).burn(tokens) */\n      mload(0x40)\n      dup3\n      0xffffffff\n      and\n      0xe0\n      shl\n      dup2\n      mstore\n      0x04\n      add\n      tag_266\n      swap2\n      swap1\n      tag_52\n      jump\t// in\n    tag_266:\n      0x00\n      mload(0x40)\n      dup1\n      dup4\n      sub\n      dup2\n      0x00\n      dup8\n      dup1\n      extcodesize\n      iszero\n      dup1\n      iszero\n      tag_267\n      jumpi\n      0x00\n      dup1\n      revert\n    tag_267:\n      pop\n      gas\n      call\n      swap3\n      pop\n      pop\n      pop\n      dup1\n      iszero\n      tag_268\n      jumpi\n      pop\n      0x01\n    tag_268:\n        /* \"Hook.sol\":9047:9216  try WethLike(ERC20Address).burn(tokens){... */\n      tag_269\n      jumpi\n        /* \"Hook.sol\":9178:9205  Log('tokens cant be burnt') */\n      0xcf34ef537ac33ee1ac626ca1587a0a7e8e51561e5514f8cb36afa1c5102b3bab\n      mload(0x40)\n      tag_273\n      swap1\n      tag_274\n      jump\t// in\n    tag_273:\n      mload(0x40)\n      dup1\n      swap2\n      sub\n      swap1\n      log1\n        /* \"Hook.sol\":9047:9216  try WethLike(ERC20Address).burn(tokens){... */\n      jump(tag_275)\n    tag_269:\n        /* \"Hook.sol\":9105:9134  Log('tokens have been burnt') */\n      0xcf34ef537ac33ee1ac626ca1587a0a7e8e51561e5514f8cb36afa1c5102b3bab\n      mload(0x40)\n      tag_276\n      swap1\n      tag_277\n      jump\t// in\n    tag_276:\n      mload(0x40)\n      dup1\n      swap2\n      sub\n      swap1\n      log1\n        /* \"Hook.sol\":9047:9216  try WethLike(ERC20Address).burn(tokens){... */\n    tag_275:\n        /* \"Hook.sol\":8995:9222  {... */\n      pop\n        /* \"Hook.sol\":8953:9222  function buyAndBurn(uint _buyEth) internal{... */\n      pop\n      jump\t// out\n        /* \"Hook.sol\":6563:7836  function provideLiquidity(uint _liquidityEth) internal returns (uint){... */\n    tag_234:\n        /* \"Hook.sol\":6627:6631  uint */\n      0x00\n        /* \"Hook.sol\":6651:6678  uint ERC20LiquidityProvided */\n      dup1\n        /* \"Hook.sol\":6758:6782  uint currentERC20Balance */\n      0x00\n        /* \"Hook.sol\":6792:6804  ERC20Address */\n      0x01\n      0x00\n      swap1\n      sload\n      swap1\n      0x0100\n      exp\n      swap1\n      div\n      0xffffffffffffffffffffffffffffffffffffffff\n      and\n        /* \"Hook.sol\":6785:6815  IERC20(ERC20Address).balanceOf */\n      0xffffffffffffffffffffffffffffffffffffffff\n      and\n      0x70a08231\n        /* \"Hook.sol\":6824:6828  this */\n      address\n        /* \"Hook.sol\":6785:6830  IERC20(ERC20Address).balanceOf(address(this)) */\n      mload(0x40)\n      dup3\n      0xffffffff\n      and\n      0xe0\n      shl\n      dup2\n      mstore\n      0x04\n      add\n      tag_279\n      swap2\n      swap1\n      tag_40\n      jump\t// in\n    tag_279:\n      0x20\n      mload(0x40)\n      dup1\n      dup4\n      sub\n      dup2\n      dup7\n      gas\n      staticcall\n      iszero\n      dup1\n      iszero\n      tag_281\n      jumpi\n      returndatasize\n      0x00\n      dup1\n      returndatacopy\n      revert(0x00, returndatasize)\n    tag_281:\n      pop\n      pop\n      pop\n      pop\n      mload(0x40)\n      returndatasize\n      not(0x1f)\n      0x1f\n      dup3\n      add\n      and\n      dup3\n      add\n      dup1\n      0x40\n      mstore\n      pop\n      dup2\n      add\n      swap1\n      tag_282\n      swap2\n      swap1\n      tag_124\n      jump\t// in\n    tag_282:\n        /* \"Hook.sol\":6758:6830  uint currentERC20Balance = IERC20(ERC20Address).balanceOf(address(this)) */\n      swap1\n      pop\n        /* \"Hook.sol\":6913:6930  uint tokensToSend */\n      0x00\n        /* \"Hook.sol\":6989:6992  100 */\n      0x64\n        /* \"Hook.sol\":6983:6986  105 */\n      0x69\n        /* \"Hook.sol\":6933:6939  Oracle */\n      0x0a\n      0x00\n      swap1\n      sload\n      swap1\n      0x0100\n      exp\n      swap1\n      div\n      0xffffffffffffffffffffffffffffffffffffffff\n      and\n        /* \"Hook.sol\":6933:6953  Oracle.consultPrices */\n      0xffffffffffffffffffffffffffffffffffffffff\n      and\n      0x3ac35585\n        /* \"Hook.sol\":6954:6965  WethAddress */\n      0x00\n      dup1\n      sload\n      swap1\n      0x0100\n      exp\n      swap1\n      div\n      0xffffffffffffffffffffffffffffffffffffffff\n      and\n        /* \"Hook.sol\":6967:6980  _liquidityEth */\n      dup10\n        /* \"Hook.sol\":6933:6981  Oracle.consultPrices(WethAddress, _liquidityEth) */\n      mload(0x40)\n      dup4\n      0xffffffff\n      and\n      0xe0\n      shl\n      dup2\n      mstore\n      0x04\n      add\n      tag_283\n      swap3\n      swap2\n      swap1\n      tag_126\n      jump\t// in\n    tag_283:\n      0x20\n      mload(0x40)\n      dup1\n      dup4\n      sub\n      dup2\n      dup7\n      gas\n      staticcall\n      iszero\n      dup1\n      iszero\n      tag_285\n      jumpi\n      returndatasize\n      0x00\n      dup1\n      returndatacopy\n      revert(0x00, returndatasize)\n    tag_285:\n      pop\n      pop\n      pop\n      pop\n      mload(0x40)\n      returndatasize\n      not(0x1f)\n      0x1f\n      dup3\n      add\n      and\n      dup3\n      add\n      dup1\n      0x40\n      mstore\n      pop\n      dup2\n      add\n      swap1\n      tag_286\n      swap2\n      swap1\n      tag_124\n      jump\t// in\n    tag_286:\n        /* \"Hook.sol\":6933:6986  Oracle.consultPrices(WethAddress, _liquidityEth)* 105 */\n      tag_287\n      swap2\n      swap1\n      tag_141\n      jump\t// in\n    tag_287:\n        /* \"Hook.sol\":6933:6992  Oracle.consultPrices(WethAddress, _liquidityEth)* 105 / 100 */\n      tag_288\n      swap2\n      swap1\n      tag_143\n      jump\t// in\n    tag_288:\n        /* \"Hook.sol\":6913:6992  uint tokensToSend = Oracle.consultPrices(WethAddress, _liquidityEth)* 105 / 100 */\n      swap1\n      pop\n        /* \"Hook.sol\":7114:7133  currentERC20Balance */\n      dup2\n        /* \"Hook.sol\":7099:7111  tokensToSend */\n      dup2\n        /* \"Hook.sol\":7099:7133  tokensToSend > currentERC20Balance */\n      gt\n        /* \"Hook.sol\":7096:7319  if(tokensToSend > currentERC20Balance){... */\n      iszero\n      tag_289\n      jumpi\n        /* \"Hook.sol\":7157:7169  ERC20Address */\n      0x01\n      0x00\n      swap1\n      sload\n      swap1\n      0x0100\n      exp\n      swap1\n      div\n      0xffffffffffffffffffffffffffffffffffffffff\n      and\n        /* \"Hook.sol\":7148:7179  WethLike(ERC20Address).hookMint */\n      0xffffffffffffffffffffffffffffffffffffffff\n      and\n      0x96fe8349\n        /* \"Hook.sol\":7193:7212  currentERC20Balance */\n      dup4\n        /* \"Hook.sol\":7180:7192  tokensToSend */\n      dup4\n        /* \"Hook.sol\":7180:7212  tokensToSend-currentERC20Balance */\n      tag_290\n      swap2\n      swap1\n      tag_148\n      jump\t// in\n    tag_290:\n        /* \"Hook.sol\":7221:7225  this */\n      address\n        /* \"Hook.sol\":7148:7227  WethLike(ERC20Address).hookMint(tokensToSend-currentERC20Balance,address(this)) */\n      mload(0x40)\n      dup4\n      0xffffffff\n      and\n      0xe0\n      shl\n      dup2\n      mstore\n      0x04\n      add\n      tag_291\n      swap3\n      swap2\n      swap1\n      tag_150\n      jump\t// in\n    tag_291:\n      0x00\n      mload(0x40)\n      dup1\n      dup4\n      sub\n      dup2\n      0x00\n      dup8\n      dup1\n      extcodesize\n      iszero\n      dup1\n      iszero\n      tag_292\n      jumpi\n      0x00\n      dup1\n      revert\n    tag_292:\n      pop\n      gas\n      call\n      iszero\n      dup1\n      iszero\n      tag_294\n      jumpi\n      returndatasize\n      0x00\n      dup1\n      returndatacopy\n      revert(0x00, returndatasize)\n    tag_294:\n      pop\n      pop\n      pop\n      pop\n        /* \"Hook.sol\":7270:7282  ERC20Address */\n      0x01\n      0x00\n      swap1\n      sload\n      swap1\n      0x0100\n      exp\n      swap1\n      div\n      0xffffffffffffffffffffffffffffffffffffffff\n      and\n        /* \"Hook.sol\":7263:7293  IERC20(ERC20Address).balanceOf */\n      0xffffffffffffffffffffffffffffffffffffffff\n      and\n      0x70a08231\n        /* \"Hook.sol\":7302:7306  this */\n      address\n        /* \"Hook.sol\":7263:7308  IERC20(ERC20Address).balanceOf(address(this)) */\n      mload(0x40)\n      dup3\n      0xffffffff\n      and\n      0xe0\n      shl\n      dup2\n      mstore\n      0x04\n      add\n      tag_295\n      swap2\n      swap1\n      tag_40\n      jump\t// in\n    tag_295:\n      0x20\n      mload(0x40)\n      dup1\n      dup4\n      sub\n      dup2\n      dup7\n      gas\n      staticcall\n      iszero\n      dup1\n      iszero\n      tag_297\n      jumpi\n      returndatasize\n      0x00\n      dup1\n      returndatacopy\n      revert(0x00, returndatasize)\n    tag_297:\n      pop\n      pop\n      pop\n      pop\n      mload(0x40)\n      returndatasize\n      not(0x1f)\n      0x1f\n      dup3\n      add\n      and\n      dup3\n      add\n      dup1\n      0x40\n      mstore\n      pop\n      dup2\n      add\n      swap1\n      tag_298\n      swap2\n      swap1\n      tag_124\n      jump\t// in\n    tag_298:\n        /* \"Hook.sol\":7241:7308  currentERC20Balance = IERC20(ERC20Address).balanceOf(address(this)) */\n      swap2\n      pop\n        /* \"Hook.sol\":7096:7319  if(tokensToSend > currentERC20Balance){... */\n    tag_289:\n        /* \"Hook.sol\":7391:7404  UniswapRouter */\n      0x0b\n      0x00\n      swap1\n      sload\n      swap1\n      0x0100\n      exp\n      swap1\n      div\n      0xffffffffffffffffffffffffffffffffffffffff\n      and\n        /* \"Hook.sol\":7391:7420  UniswapRouter.addLiquidityETH */\n      0xffffffffffffffffffffffffffffffffffffffff\n      and\n      0xf305d719\n        /* \"Hook.sol\":7429:7442  _liquidityEth */\n      dup7\n        /* \"Hook.sol\":7445:7457  ERC20Address */\n      0x01\n      0x00\n      swap1\n      sload\n      swap1\n      0x0100\n      exp\n      swap1\n      div\n      0xffffffffffffffffffffffffffffffffffffffff\n      and\n        /* \"Hook.sol\":7459:7471  tokensToSend */\n      dup5\n        /* \"Hook.sol\":7473:7474  0 */\n      0x00\n        /* \"Hook.sol\":7497:7500  100 */\n      0x64\n        /* \"Hook.sol\":7493:7495  95 */\n      0x5f\n        /* \"Hook.sol\":7477:7490  _liquidityEth */\n      dup13\n        /* \"Hook.sol\":7477:7495  _liquidityEth * 95 */\n      tag_299\n      swap2\n      swap1\n      tag_141\n      jump\t// in\n    tag_299:\n        /* \"Hook.sol\":7476:7500  (_liquidityEth * 95)/100 */\n      tag_300\n      swap2\n      swap1\n      tag_143\n      jump\t// in\n    tag_300:\n        /* \"Hook.sol\":7510:7514  this */\n      address\n        /* \"Hook.sol\":7517:7531  type(uint).max */\n      0xffffffffffffffffffffffffffffffffffffffffffffffffffffffffffffffff\n        /* \"Hook.sol\":7391:7532  UniswapRouter.addLiquidityETH {value: _liquidityEth} (ERC20Address, tokensToSend, 0, (_liquidityEth * 95)/100, address(this), type(uint).max) */\n      mload(0x40)\n      dup9\n      0xffffffff\n      and\n      0xe0\n      shl\n      dup2\n      mstore\n      0x04\n      add\n      tag_301\n      swap7\n      swap6\n      swap5\n      swap4\n      swap3\n      swap2\n      swap1\n      tag_302\n      jump\t// in\n    tag_301:\n      0x60\n      mload(0x40)\n      dup1\n      dup4\n      sub\n      dup2\n      dup6\n      dup9\n      gas\n      call\n      swap4\n      pop\n      pop\n      pop\n      pop\n      dup1\n      iszero\n      tag_303\n      jumpi\n      pop\n      mload(0x40)\n      returndatasize\n      not(0x1f)\n      0x1f\n      dup3\n      add\n      and\n      dup3\n      add\n      dup1\n      0x40\n      mstore\n      pop\n      dup2\n      add\n      swap1\n      tag_304\n      swap2\n      swap1\n      tag_169\n      jump\t// in\n    tag_304:\n      0x01\n    tag_303:\n        /* \"Hook.sol\":7387:7789  try UniswapRouter.addLiquidityETH {value: _liquidityEth} (ERC20Address, tokensToSend, 0, (_liquidityEth * 95)/100, address(this), type(uint).max)... */\n      tag_305\n      jumpi\n        /* \"Hook.sol\":7749:7778  Log(\"Liquidity Not Provided\") */\n      0xcf34ef537ac33ee1ac626ca1587a0a7e8e51561e5514f8cb36afa1c5102b3bab\n      mload(0x40)\n      tag_309\n      swap1\n      tag_191\n      jump\t// in\n    tag_309:\n      mload(0x40)\n      dup1\n      swap2\n      sub\n      swap1\n      log1\n        /* \"Hook.sol\":7387:7789  try UniswapRouter.addLiquidityETH {value: _liquidityEth} (ERC20Address, tokensToSend, 0, (_liquidityEth * 95)/100, address(this), type(uint).max)... */\n      jump(tag_310)\n    tag_305:\n      pop\n      pop\n      pop\n        /* \"Hook.sol\":7560:7598  Log(\"liquidity Successfully Provided\") */\n      0xcf34ef537ac33ee1ac626ca1587a0a7e8e51561e5514f8cb36afa1c5102b3bab\n      mload(0x40)\n      tag_311\n      swap1\n      tag_194\n      jump\t// in\n    tag_311:\n      mload(0x40)\n      dup1\n      swap2\n      sub\n      swap1\n      log1\n        /* \"Hook.sol\":7666:7678  ERC20Address */\n      0x01\n      0x00\n      swap1\n      sload\n      swap1\n      0x0100\n      exp\n      swap1\n      div\n      0xffffffffffffffffffffffffffffffffffffffff\n      and\n        /* \"Hook.sol\":7659:7689  IERC20(ERC20Address).balanceOf */\n      0xffffffffffffffffffffffffffffffffffffffff\n      and\n      0x70a08231\n        /* \"Hook.sol\":7698:7702  this */\n      address\n        /* \"Hook.sol\":7659:7704  IERC20(ERC20Address).balanceOf(address(this)) */\n      mload(0x40)\n      dup3\n      0xffffffff\n      and\n      0xe0\n      shl\n      dup2\n      mstore\n      0x04\n      add\n      tag_312\n      swap2\n      swap1\n      tag_40\n      jump\t// in\n    tag_312:\n      0x20\n      mload(0x40)\n      dup1\n      dup4\n      sub\n      dup2\n      dup7\n      gas\n      staticcall\n      iszero\n      dup1\n      iszero\n      tag_314\n      jumpi\n      returndatasize\n      0x00\n      dup1\n      returndatacopy\n      revert(0x00, returndatasize)\n    tag_314:\n      pop\n      pop\n      pop\n      pop\n      mload(0x40)\n      returndatasize\n      not(0x1f)\n      0x1f\n      dup3\n      add\n      and\n      dup3\n      add\n      dup1\n      0x40\n      mstore\n      pop\n      dup2\n      add\n      swap1\n      tag_315\n      swap2\n      swap1\n      tag_124\n      jump\t// in\n    tag_315:\n        /* \"Hook.sol\":7637:7656  currentERC20Balance */\n      dup3\n        /* \"Hook.sol\":7637:7704  currentERC20Balance - IERC20(ERC20Address).balanceOf(address(this)) */\n      tag_316\n      swap2\n      swap1\n      tag_148\n      jump\t// in\n    tag_316:\n        /* \"Hook.sol\":7612:7704  ERC20LiquidityProvided = currentERC20Balance - IERC20(ERC20Address).balanceOf(address(this)) */\n      swap3\n      pop\n        /* \"Hook.sol\":7387:7789  try UniswapRouter.addLiquidityETH {value: _liquidityEth} (ERC20Address, tokensToSend, 0, (_liquidityEth * 95)/100, address(this), type(uint).max)... */\n    tag_310:\n        /* \"Hook.sol\":7806:7828  ERC20LiquidityProvided */\n      dup3\n        /* \"Hook.sol\":7798:7829  return (ERC20LiquidityProvided) */\n      swap4\n      pop\n      pop\n      pop\n      pop\n        /* \"Hook.sol\":6563:7836  function provideLiquidity(uint _liquidityEth) internal returns (uint){... */\n      swap2\n      swap1\n      pop\n      jump\t// out\n        /* \"Hook.sol\":9228:9919  function erc20ToPreviousHolder(address previousHolder) internal{... */\n    tag_239:\n        /* \"Hook.sol\":9301:9315  uint ethAmount */\n      0x00\n        /* \"Hook.sol\":9318:9339  transactionFromPOAPId */\n      0x0c\n        /* \"Hook.sol\":9318:9359  transactionFromPOAPId[POAPIds.length - 1] */\n      0x00\n        /* \"Hook.sol\":9357:9358  1 */\n      0x01\n        /* \"Hook.sol\":9340:9347  POAPIds */\n      0x0d\n        /* \"Hook.sol\":9340:9354  POAPIds.length */\n      dup1\n      sload\n      swap1\n      pop\n        /* \"Hook.sol\":9340:9358  POAPIds.length - 1 */\n      tag_318\n      swap2\n      swap1\n      tag_148\n      jump\t// in\n    tag_318:\n        /* \"Hook.sol\":9318:9359  transactionFromPOAPId[POAPIds.length - 1] */\n      dup2\n      mstore\n      0x20\n      add\n      swap1\n      dup2\n      mstore\n      0x20\n      add\n      0x00\n      keccak256\n        /* \"Hook.sol\":9318:9371  transactionFromPOAPId[POAPIds.length - 1].receivedEth */\n      0x02\n      add\n      sload\n        /* \"Hook.sol\":9301:9371  uint ethAmount = transactionFromPOAPId[POAPIds.length - 1].receivedEth */\n      swap1\n      pop\n        /* \"Hook.sol\":9397:9398  0 */\n      0x00\n        /* \"Hook.sol\":9384:9393  ethAmount */\n      dup2\n        /* \"Hook.sol\":9384:9398  ethAmount == 0 */\n      sub\n        /* \"Hook.sol\":9381:9913  if(ethAmount == 0){}else{... */\n      iszero\n      tag_320\n      jumpi\n        /* \"Hook.sol\":9424:9430  Oracle */\n      0x0a\n      0x00\n      swap1\n      sload\n      swap1\n      0x0100\n      exp\n      swap1\n      div\n      0xffffffffffffffffffffffffffffffffffffffff\n      and\n        /* \"Hook.sol\":9424:9444  Oracle.consultPrices */\n      0xffffffffffffffffffffffffffffffffffffffff\n      and\n      0x3ac35585\n        /* \"Hook.sol\":9445:9456  WethAddress */\n      0x00\n      dup1\n      sload\n      swap1\n      0x0100\n      exp\n      swap1\n      div\n      0xffffffffffffffffffffffffffffffffffffffff\n      and\n        /* \"Hook.sol\":9457:9466  ethAmount */\n      dup4\n        /* \"Hook.sol\":9424:9467  Oracle.consultPrices(WethAddress,ethAmount) */\n      mload(0x40)\n      dup4\n      0xffffffff\n      and\n      0xe0\n      shl\n      dup2\n      mstore\n      0x04\n      add\n      tag_321\n      swap3\n      swap2\n      swap1\n      tag_126\n      jump\t// in\n    tag_321:\n      0x20\n      mload(0x40)\n      dup1\n      dup4\n      sub\n      dup2\n      dup7\n      gas\n      staticcall\n      swap3\n      pop\n      pop\n      pop\n      dup1\n      iszero\n      tag_322\n      jumpi\n      pop\n      mload(0x40)\n      returndatasize\n      not(0x1f)\n      0x1f\n      dup3\n      add\n      and\n      dup3\n      add\n      dup1\n      0x40\n      mstore\n      pop\n      dup2\n      add\n      swap1\n      tag_323\n      swap2\n      swap1\n      tag_124\n      jump\t// in\n    tag_323:\n      0x01\n    tag_322:\n        /* \"Hook.sol\":9419:9903  try  Oracle.consultPrices(WethAddress,ethAmount){... */\n      tag_324\n      jumpi\n        /* \"Hook.sol\":9851:9888  Log ('price cant be got from Oracle') */\n      0xcf34ef537ac33ee1ac626ca1587a0a7e8e51561e5514f8cb36afa1c5102b3bab\n      mload(0x40)\n      tag_328\n      swap1\n      tag_329\n      jump\t// in\n    tag_328:\n      mload(0x40)\n      dup1\n      swap2\n      sub\n      swap1\n      log1\n        /* \"Hook.sol\":9419:9903  try  Oracle.consultPrices(WethAddress,ethAmount){... */\n      jump(tag_330)\n    tag_324:\n      pop\n        /* \"Hook.sol\":9489:9506  uint amountToMint */\n      0x00\n        /* \"Hook.sol\":9507:9513  Oracle */\n      0x0a\n      0x00\n      swap1\n      sload\n      swap1\n      0x0100\n      exp\n      swap1\n      div\n      0xffffffffffffffffffffffffffffffffffffffff\n      and\n        /* \"Hook.sol\":9507:9527  Oracle.consultPrices */\n      0xffffffffffffffffffffffffffffffffffffffff\n      and\n      0x3ac35585\n        /* \"Hook.sol\":9528:9539  WethAddress */\n      0x00\n      dup1\n      sload\n      swap1\n      0x0100\n      exp\n      swap1\n      div\n      0xffffffffffffffffffffffffffffffffffffffff\n      and\n        /* \"Hook.sol\":9540:9549  ethAmount */\n      dup5\n        /* \"Hook.sol\":9507:9550  Oracle.consultPrices(WethAddress,ethAmount) */\n      mload(0x40)\n      dup4\n      0xffffffff\n      and\n      0xe0\n      shl\n      dup2\n      mstore\n      0x04\n      add\n      tag_331\n      swap3\n      swap2\n      swap1\n      tag_126\n      jump\t// in\n    tag_331:\n      0x20\n      mload(0x40)\n      dup1\n      dup4\n      sub\n      dup2\n      dup7\n      gas\n      staticcall\n      iszero\n      dup1\n      iszero\n      tag_333\n      jumpi\n      returndatasize\n      0x00\n      dup1\n      returndatacopy\n      revert(0x00, returndatasize)\n    tag_333:\n      pop\n      pop\n      pop\n      pop\n      mload(0x40)\n      returndatasize\n      not(0x1f)\n      0x1f\n      dup3\n      add\n      and\n      dup3\n      add\n      dup1\n      0x40\n      mstore\n      pop\n      dup2\n      add\n      swap1\n      tag_334\n      swap2\n      swap1\n      tag_124\n      jump\t// in\n    tag_334:\n        /* \"Hook.sol\":9489:9550  uint amountToMint=Oracle.consultPrices(WethAddress,ethAmount) */\n      swap1\n      pop\n        /* \"Hook.sol\":9585:9597  ERC20Address */\n      0x01\n      0x00\n      swap1\n      sload\n      swap1\n      0x0100\n      exp\n      swap1\n      div\n      0xffffffffffffffffffffffffffffffffffffffff\n      and\n        /* \"Hook.sol\":9576:9607  WethLike(ERC20Address).hookMint */\n      0xffffffffffffffffffffffffffffffffffffffff\n      and\n      0x96fe8349\n        /* \"Hook.sol\":9608:9620  amountToMint */\n      dup3\n        /* \"Hook.sol\":9621:9635  previousHolder */\n      dup6\n        /* \"Hook.sol\":9576:9636  WethLike(ERC20Address).hookMint(amountToMint,previousHolder) */\n      mload(0x40)\n      dup4\n      0xffffffff\n      and\n      0xe0\n      shl\n      dup2\n      mstore\n      0x04\n      add\n      tag_335\n      swap3\n      swap2\n      swap1\n      tag_150\n      jump\t// in\n    tag_335:\n      0x00\n      mload(0x40)\n      dup1\n      dup4\n      sub\n      dup2\n      0x00\n      dup8\n      dup1\n      extcodesize\n      iszero\n      dup1\n      iszero\n      tag_336\n      jumpi\n      0x00\n      dup1\n      revert\n    tag_336:\n      pop\n      gas\n      call\n      swap3\n      pop\n      pop\n      pop\n      dup1\n      iszero\n      tag_337\n      jumpi\n      pop\n      0x01\n    tag_337:\n        /* \"Hook.sol\":9572:9809  try WethLike(ERC20Address).hookMint(amountToMint,previousHolder){... */\n      tag_338\n      jumpi\n        /* \"Hook.sol\":9762:9807  Log('price got from Oracle but couldnt mint') */\n      0xcf34ef537ac33ee1ac626ca1587a0a7e8e51561e5514f8cb36afa1c5102b3bab\n      mload(0x40)\n      tag_342\n      swap1\n      tag_343\n      jump\t// in\n    tag_342:\n      mload(0x40)\n      dup1\n      swap2\n      sub\n      swap1\n      log1\n        /* \"Hook.sol\":9572:9809  try WethLike(ERC20Address).hookMint(amountToMint,previousHolder){... */\n      jump(tag_344)\n    tag_338:\n        /* \"Hook.sol\":9667:9706  Log('tokens minted to previous holder') */\n      0xcf34ef537ac33ee1ac626ca1587a0a7e8e51561e5514f8cb36afa1c5102b3bab\n      mload(0x40)\n      tag_345\n      swap1\n      tag_346\n      jump\t// in\n    tag_345:\n      mload(0x40)\n      dup1\n      swap2\n      sub\n      swap1\n      log1\n        /* \"Hook.sol\":9572:9809  try WethLike(ERC20Address).hookMint(amountToMint,previousHolder){... */\n    tag_344:\n        /* \"Hook.sol\":9467:9810  {... */\n      pop\n        /* \"Hook.sol\":9419:9903  try  Oracle.consultPrices(WethAddress,ethAmount){... */\n    tag_330:\n        /* \"Hook.sol\":9381:9913  if(ethAmount == 0){}else{... */\n    tag_320:\n        /* \"Hook.sol\":9291:9919  {... */\n      pop\n        /* \"Hook.sol\":9228:9919  function erc20ToPreviousHolder(address previousHolder) internal{... */\n      pop\n      jump\t// out\n        /* \"Hook.sol\":7897:8947  function buyTokens(uint _buyEth) internal returns (uint){... */\n    tag_265:\n        /* \"Hook.sol\":7948:7952  uint */\n      0x00\n        /* \"Hook.sol\":7963:7987  uint initialTokenbalance */\n      dup1\n        /* \"Hook.sol\":7997:8021  uint numberOfTokensToBuy */\n      0x00\n        /* \"Hook.sol\":8042:8054  ERC20Address */\n      0x01\n      0x00\n      swap1\n      sload\n      swap1\n      0x0100\n      exp\n      swap1\n      div\n      0xffffffffffffffffffffffffffffffffffffffff\n      and\n        /* \"Hook.sol\":8035:8065  IERC20(ERC20Address).balanceOf */\n      0xffffffffffffffffffffffffffffffffffffffff\n      and\n      0x70a08231\n        /* \"Hook.sol\":8074:8078  this */\n      address\n        /* \"Hook.sol\":8035:8080  IERC20(ERC20Address).balanceOf(address(this)) */\n      mload(0x40)\n      dup3\n      0xffffffff\n      and\n      0xe0\n      shl\n      dup2\n      mstore\n      0x04\n      add\n      tag_348\n      swap2\n      swap1\n      tag_40\n      jump\t// in\n    tag_348:\n      0x20\n      mload(0x40)\n      dup1\n      dup4\n      sub\n      dup2\n      dup7\n      gas\n      staticcall\n      swap3\n      pop\n      pop\n      pop\n      dup1\n      iszero\n      tag_349\n      jumpi\n      pop\n      mload(0x40)\n      returndatasize\n      not(0x1f)\n      0x1f\n      dup3\n      add\n      and\n      dup3\n      add\n      dup1\n      0x40\n      mstore\n      pop\n      dup2\n      add\n      swap1\n      tag_350\n      swap2\n      swap1\n      tag_124\n      jump\t// in\n    tag_350:\n      0x01\n    tag_349:\n        /* \"Hook.sol\":8031:8254  try IERC20(ERC20Address).balanceOf(address(this)) {... */\n      tag_351\n      jumpi\n        /* \"Hook.sol\":8203:8243  Log('cant get balance of this contract') */\n      0xcf34ef537ac33ee1ac626ca1587a0a7e8e51561e5514f8cb36afa1c5102b3bab\n      mload(0x40)\n      tag_355\n      swap1\n      tag_356\n      jump\t// in\n    tag_355:\n      mload(0x40)\n      dup1\n      swap2\n      sub\n      swap1\n      log1\n        /* \"Hook.sol\":8031:8254  try IERC20(ERC20Address).balanceOf(address(this)) {... */\n      jump(tag_357)\n    tag_351:\n      pop\n        /* \"Hook.sol\":8120:8132  ERC20Address */\n      0x01\n      0x00\n      swap1\n      sload\n      swap1\n      0x0100\n      exp\n      swap1\n      div\n      0xffffffffffffffffffffffffffffffffffffffff\n      and\n        /* \"Hook.sol\":8113:8143  IERC20(ERC20Address).balanceOf */\n      0xffffffffffffffffffffffffffffffffffffffff\n      and\n      0x70a08231\n        /* \"Hook.sol\":8152:8156  this */\n      address\n        /* \"Hook.sol\":8113:8158  IERC20(ERC20Address).balanceOf(address(this)) */\n      mload(0x40)\n      dup3\n      0xffffffff\n      and\n      0xe0\n      shl\n      dup2\n      mstore\n      0x04\n      add\n      tag_358\n      swap2\n      swap1\n      tag_40\n      jump\t// in\n    tag_358:\n      0x20\n      mload(0x40)\n      dup1\n      dup4\n      sub\n      dup2\n      dup7\n      gas\n      staticcall\n      iszero\n      dup1\n      iszero\n      tag_360\n      jumpi\n      returndatasize\n      0x00\n      dup1\n      returndatacopy\n      revert(0x00, returndatasize)\n    tag_360:\n      pop\n      pop\n      pop\n      pop\n      mload(0x40)\n      returndatasize\n      not(0x1f)\n      0x1f\n      dup3\n      add\n      and\n      dup3\n      add\n      dup1\n      0x40\n      mstore\n      pop\n      dup2\n      add\n      swap1\n      tag_361\n      swap2\n      swap1\n      tag_124\n      jump\t// in\n    tag_361:\n        /* \"Hook.sol\":8091:8158  initialTokenbalance = IERC20(ERC20Address).balanceOf(address(this)) */\n      swap2\n      pop\n        /* \"Hook.sol\":8031:8254  try IERC20(ERC20Address).balanceOf(address(this)) {... */\n    tag_357:\n        /* \"Hook.sol\":8267:8273  Oracle */\n      0x0a\n      0x00\n      swap1\n      sload\n      swap1\n      0x0100\n      exp\n      swap1\n      div\n      0xffffffffffffffffffffffffffffffffffffffff\n      and\n        /* \"Hook.sol\":8267:8287  Oracle.consultPrices */\n      0xffffffffffffffffffffffffffffffffffffffff\n      and\n      0x3ac35585\n        /* \"Hook.sol\":8288:8299  WethAddress */\n      0x00\n      dup1\n      sload\n      swap1\n      0x0100\n      exp\n      swap1\n      div\n      0xffffffffffffffffffffffffffffffffffffffff\n      and\n        /* \"Hook.sol\":8301:8308  _buyEth */\n      dup7\n        /* \"Hook.sol\":8267:8309  Oracle.consultPrices(WethAddress, _buyEth) */\n      mload(0x40)\n      dup4\n      0xffffffff\n      and\n      0xe0\n      shl\n      dup2\n      mstore\n      0x04\n      add\n      tag_362\n      swap3\n      swap2\n      swap1\n      tag_126\n      jump\t// in\n    tag_362:\n      0x20\n      mload(0x40)\n      dup1\n      dup4\n      sub\n      dup2\n      dup7\n      gas\n      staticcall\n      swap3\n      pop\n      pop\n      pop\n      dup1\n      iszero\n      tag_363\n      jumpi\n      pop\n      mload(0x40)\n      returndatasize\n      not(0x1f)\n      0x1f\n      dup3\n      add\n      and\n      dup3\n      add\n      dup1\n      0x40\n      mstore\n      pop\n      dup2\n      add\n      swap1\n      tag_364\n      swap2\n      swap1\n      tag_124\n      jump\t// in\n    tag_364:\n      0x01\n    tag_363:\n        /* \"Hook.sol\":8263:8562  try Oracle.consultPrices(WethAddress, _buyEth) {... */\n      tag_365\n      jumpi\n        /* \"Hook.sol\":8518:8551  Log('cant get price from Oracle') */\n      0xcf34ef537ac33ee1ac626ca1587a0a7e8e51561e5514f8cb36afa1c5102b3bab\n      mload(0x40)\n      tag_369\n      swap1\n      tag_370\n      jump\t// in\n    tag_369:\n      mload(0x40)\n      dup1\n      swap2\n      sub\n      swap1\n      log1\n        /* \"Hook.sol\":8263:8562  try Oracle.consultPrices(WethAddress, _buyEth) {... */\n      jump(tag_371)\n    tag_365:\n      pop\n        /* \"Hook.sol\":8342:8348  Oracle */\n      0x0a\n      0x00\n      swap1\n      sload\n      swap1\n      0x0100\n      exp\n      swap1\n      div\n      0xffffffffffffffffffffffffffffffffffffffff\n      and\n        /* \"Hook.sol\":8342:8362  Oracle.consultPrices */\n      0xffffffffffffffffffffffffffffffffffffffff\n      and\n      0x3ac35585\n        /* \"Hook.sol\":8363:8374  WethAddress */\n      0x00\n      dup1\n      sload\n      swap1\n      0x0100\n      exp\n      swap1\n      div\n      0xffffffffffffffffffffffffffffffffffffffff\n      and\n        /* \"Hook.sol\":8376:8383  _buyEth */\n      dup7\n        /* \"Hook.sol\":8342:8384  Oracle.consultPrices(WethAddress, _buyEth) */\n      mload(0x40)\n      dup4\n      0xffffffff\n      and\n      0xe0\n      shl\n      dup2\n      mstore\n      0x04\n      add\n      tag_372\n      swap3\n      swap2\n      swap1\n      tag_126\n      jump\t// in\n    tag_372:\n      0x20\n      mload(0x40)\n      dup1\n      dup4\n      sub\n      dup2\n      dup7\n      gas\n      staticcall\n      iszero\n      dup1\n      iszero\n      tag_374\n      jumpi\n      returndatasize\n      0x00\n      dup1\n      returndatacopy\n      revert(0x00, returndatasize)\n    tag_374:\n      pop\n      pop\n      pop\n      pop\n      mload(0x40)\n      returndatasize\n      not(0x1f)\n      0x1f\n      dup3\n      add\n      and\n      dup3\n      add\n      dup1\n      0x40\n      mstore\n      pop\n      dup2\n      add\n      swap1\n      tag_375\n      swap2\n      swap1\n      tag_124\n      jump\t// in\n    tag_375:\n        /* \"Hook.sol\":8320:8384  numberOfTokensToBuy = Oracle.consultPrices(WethAddress, _buyEth) */\n      swap1\n      pop\n        /* \"Hook.sol\":8399:8433  Log ('number of Tokens to Buy is') */\n      0xcf34ef537ac33ee1ac626ca1587a0a7e8e51561e5514f8cb36afa1c5102b3bab\n      mload(0x40)\n      tag_376\n      swap1\n      tag_377\n      jump\t// in\n    tag_376:\n      mload(0x40)\n      dup1\n      swap2\n      sub\n      swap1\n      log1\n        /* \"Hook.sol\":8448:8473  Log (numberOfTokensToBuy) */\n      0x909c57d5c6ac08245cf2a6de3900e2b868513fa59099b92b27d8db823d92df9c\n        /* \"Hook.sol\":8453:8472  numberOfTokensToBuy */\n      dup2\n        /* \"Hook.sol\":8448:8473  Log (numberOfTokensToBuy) */\n      mload(0x40)\n      tag_378\n      swap2\n      swap1\n      tag_52\n      jump\t// in\n    tag_378:\n      mload(0x40)\n      dup1\n      swap2\n      sub\n      swap1\n      log1\n        /* \"Hook.sol\":8263:8562  try Oracle.consultPrices(WethAddress, _buyEth) {... */\n    tag_371:\n        /* \"Hook.sol\":8572:8589  uint amountOutMin */\n      0x00\n        /* \"Hook.sol\":8640:8653  UniswapRouter */\n      0x0b\n      0x00\n      swap1\n      sload\n      swap1\n      0x0100\n      exp\n      swap1\n      div\n      0xffffffffffffffffffffffffffffffffffffffff\n      and\n        /* \"Hook.sol\":8640:8675  UniswapRouter.swapExactETHForTokens */\n      0xffffffffffffffffffffffffffffffffffffffff\n      and\n      0x7ff36ab5\n        /* \"Hook.sol\":8683:8690  _buyEth */\n      dup7\n        /* \"Hook.sol\":8692:8704  amountOutMin */\n      dup4\n        /* \"Hook.sol\":8706:8710  path */\n      0x07\n        /* \"Hook.sol\":8712:8722  msg.sender */\n      caller\n        /* \"Hook.sol\":8724:8738  type(uint).max */\n      0xffffffffffffffffffffffffffffffffffffffffffffffffffffffffffffffff\n        /* \"Hook.sol\":8640:8739  UniswapRouter.swapExactETHForTokens{value: _buyEth}(amountOutMin, path, msg.sender, type(uint).max) */\n      mload(0x40)\n      dup7\n      0xffffffff\n      and\n      0xe0\n      shl\n      dup2\n      mstore\n      0x04\n      add\n      tag_379\n      swap5\n      swap4\n      swap3\n      swap2\n      swap1\n      tag_380\n      jump\t// in\n    tag_379:\n      0x00\n      mload(0x40)\n      dup1\n      dup4\n      sub\n      dup2\n      dup6\n      dup9\n      gas\n      call\n      swap4\n      pop\n      pop\n      pop\n      pop\n      dup1\n      iszero\n      tag_381\n      jumpi\n      pop\n      mload(0x40)\n      returndatasize\n      0x00\n      dup3\n      returndatacopy\n      returndatasize\n      not(0x1f)\n      0x1f\n      dup3\n      add\n      and\n      dup3\n      add\n      dup1\n      0x40\n      mstore\n      pop\n      dup2\n      add\n      swap1\n      tag_382\n      swap2\n      swap1\n      tag_383\n      jump\t// in\n    tag_382:\n      0x01\n    tag_381:\n        /* \"Hook.sol\":8636:8845  try UniswapRouter.swapExactETHForTokens{value: _buyEth}(amountOutMin, path, msg.sender, type(uint).max)... */\n      tag_384\n      jumpi\n        /* \"Hook.sol\":8810:8834  Log(\"tokens not bought\") */\n      0xcf34ef537ac33ee1ac626ca1587a0a7e8e51561e5514f8cb36afa1c5102b3bab\n      mload(0x40)\n      tag_388\n      swap1\n      tag_389\n      jump\t// in\n    tag_388:\n      mload(0x40)\n      dup1\n      swap2\n      sub\n      swap1\n      log1\n        /* \"Hook.sol\":8636:8845  try UniswapRouter.swapExactETHForTokens{value: _buyEth}(amountOutMin, path, msg.sender, type(uint).max)... */\n      jump(tag_390)\n    tag_384:\n      pop\n        /* \"Hook.sol\":8755:8775  Log(\"tokens bought\") */\n      0xcf34ef537ac33ee1ac626ca1587a0a7e8e51561e5514f8cb36afa1c5102b3bab\n      mload(0x40)\n      tag_391\n      swap1\n      tag_392\n      jump\t// in\n    tag_391:\n      mload(0x40)\n      dup1\n      swap2\n      sub\n      swap1\n      log1\n        /* \"Hook.sol\":8636:8845  try UniswapRouter.swapExactETHForTokens{value: _buyEth}(amountOutMin, path, msg.sender, type(uint).max)... */\n    tag_390:\n        /* \"Hook.sol\":8911:8930  initialTokenbalance */\n      dup3\n        /* \"Hook.sol\":8870:8882  ERC20Address */\n      0x01\n      0x00\n      swap1\n      sload\n      swap1\n      0x0100\n      exp\n      swap1\n      div\n      0xffffffffffffffffffffffffffffffffffffffff\n      and\n        /* \"Hook.sol\":8863:8893  IERC20(ERC20Address).balanceOf */\n      0xffffffffffffffffffffffffffffffffffffffff\n      and\n      0x70a08231\n        /* \"Hook.sol\":8902:8906  this */\n      address\n        /* \"Hook.sol\":8863:8908  IERC20(ERC20Address).balanceOf(address(this)) */\n      mload(0x40)\n      dup3\n      0xffffffff\n      and\n      0xe0\n      shl\n      dup2\n      mstore\n      0x04\n      add\n      tag_393\n      swap2\n      swap1\n      tag_40\n      jump\t// in\n    tag_393:\n      0x20\n      mload(0x40)\n      dup1\n      dup4\n      sub\n      dup2\n      dup7\n      gas\n      staticcall\n      iszero\n      dup1\n      iszero\n      tag_395\n      jumpi\n      returndatasize\n      0x00\n      dup1\n      returndatacopy\n      revert(0x00, returndatasize)\n    tag_395:\n      pop\n      pop\n      pop\n      pop\n      mload(0x40)\n      returndatasize\n      not(0x1f)\n      0x1f\n      dup3\n      add\n      and\n      dup3\n      add\n      dup1\n      0x40\n      mstore\n      pop\n      dup2\n      add\n      swap1\n      tag_396\n      swap2\n      swap1\n      tag_124\n      jump\t// in\n    tag_396:\n        /* \"Hook.sol\":8863:8930  IERC20(ERC20Address).balanceOf(address(this)) - initialTokenbalance */\n      tag_397\n      swap2\n      swap1\n      tag_148\n      jump\t// in\n    tag_397:\n        /* \"Hook.sol\":8856:8930  return IERC20(ERC20Address).balanceOf(address(this)) - initialTokenbalance */\n      swap4\n      pop\n      pop\n      pop\n      pop\n        /* \"Hook.sol\":7897:8947  function buyTokens(uint _buyEth) internal returns (uint){... */\n      swap2\n      swap1\n      pop\n      jump\t// out\n        /* \"#utility.yul\":7:82   */\n    tag_398:\n        /* \"#utility.yul\":40:46   */\n      0x00\n        /* \"#utility.yul\":73:75   */\n      0x40\n        /* \"#utility.yul\":67:76   */\n      mload\n        /* \"#utility.yul\":57:76   */\n      swap1\n      pop\n        /* \"#utility.yul\":7:82   */\n      swap1\n      jump\t// out\n        /* \"#utility.yul\":88:205   */\n    tag_399:\n        /* \"#utility.yul\":197:198   */\n      0x00\n        /* \"#utility.yul\":194:195   */\n      dup1\n        /* \"#utility.yul\":187:199   */\n      revert\n        /* \"#utility.yul\":211:328   */\n    tag_400:\n        /* \"#utility.yul\":320:321   */\n      0x00\n        /* \"#utility.yul\":317:318   */\n      dup1\n        /* \"#utility.yul\":310:322   */\n      revert\n        /* \"#utility.yul\":334:460   */\n    tag_401:\n        /* \"#utility.yul\":371:378   */\n      0x00\n        /* \"#utility.yul\":411:453   */\n      0xffffffffffffffffffffffffffffffffffffffff\n        /* \"#utility.yul\":404:409   */\n      dup3\n        /* \"#utility.yul\":400:454   */\n      and\n        /* \"#utility.yul\":389:454   */\n      swap1\n      pop\n        /* \"#utility.yul\":334:460   */\n      swap2\n      swap1\n      pop\n      jump\t// out\n        /* \"#utility.yul\":466:562   */\n    tag_402:\n        /* \"#utility.yul\":503:510   */\n      0x00\n        /* \"#utility.yul\":532:556   */\n      tag_491\n        /* \"#utility.yul\":550:555   */\n      dup3\n        /* \"#utility.yul\":532:556   */\n      tag_401\n      jump\t// in\n    tag_491:\n        /* \"#utility.yul\":521:556   */\n      swap1\n      pop\n        /* \"#utility.yul\":466:562   */\n      swap2\n      swap1\n      pop\n      jump\t// out\n        /* \"#utility.yul\":568:690   */\n    tag_403:\n        /* \"#utility.yul\":641:665   */\n      tag_493\n        /* \"#utility.yul\":659:664   */\n      dup2\n        /* \"#utility.yul\":641:665   */\n      tag_402\n      jump\t// in\n    tag_493:\n        /* \"#utility.yul\":634:639   */\n      dup2\n        /* \"#utility.yul\":631:666   */\n      eq\n        /* \"#utility.yul\":621:684   */\n      tag_494\n      jumpi\n        /* \"#utility.yul\":680:681   */\n      0x00\n        /* \"#utility.yul\":677:678   */\n      dup1\n        /* \"#utility.yul\":670:682   */\n      revert\n        /* \"#utility.yul\":621:684   */\n    tag_494:\n        /* \"#utility.yul\":568:690   */\n      pop\n      jump\t// out\n        /* \"#utility.yul\":696:835   */\n    tag_404:\n        /* \"#utility.yul\":742:747   */\n      0x00\n        /* \"#utility.yul\":780:786   */\n      dup2\n        /* \"#utility.yul\":767:787   */\n      calldataload\n        /* \"#utility.yul\":758:787   */\n      swap1\n      pop\n        /* \"#utility.yul\":796:829   */\n      tag_496\n        /* \"#utility.yul\":823:828   */\n      dup2\n        /* \"#utility.yul\":796:829   */\n      tag_403\n      jump\t// in\n    tag_496:\n        /* \"#utility.yul\":696:835   */\n      swap3\n      swap2\n      pop\n      pop\n      jump\t// out\n        /* \"#utility.yul\":841:1170   */\n    tag_30:\n        /* \"#utility.yul\":900:906   */\n      0x00\n        /* \"#utility.yul\":949:951   */\n      0x20\n        /* \"#utility.yul\":937:946   */\n      dup3\n        /* \"#utility.yul\":928:935   */\n      dup5\n        /* \"#utility.yul\":924:947   */\n      sub\n        /* \"#utility.yul\":920:952   */\n      slt\n        /* \"#utility.yul\":917:1036   */\n      iszero\n      tag_498\n      jumpi\n        /* \"#utility.yul\":955:1034   */\n      tag_499\n      tag_399\n      jump\t// in\n    tag_499:\n        /* \"#utility.yul\":917:1036   */\n    tag_498:\n        /* \"#utility.yul\":1075:1076   */\n      0x00\n        /* \"#utility.yul\":1100:1153   */\n      tag_500\n        /* \"#utility.yul\":1145:1152   */\n      dup5\n        /* \"#utility.yul\":1136:1142   */\n      dup3\n        /* \"#utility.yul\":1125:1134   */\n      dup6\n        /* \"#utility.yul\":1121:1143   */\n      add\n        /* \"#utility.yul\":1100:1153   */\n      tag_404\n      jump\t// in\n    tag_500:\n        /* \"#utility.yul\":1090:1153   */\n      swap2\n      pop\n        /* \"#utility.yul\":1046:1163   */\n      pop\n        /* \"#utility.yul\":841:1170   */\n      swap3\n      swap2\n      pop\n      pop\n      jump\t// out\n        /* \"#utility.yul\":1176:1294   */\n    tag_405:\n        /* \"#utility.yul\":1263:1287   */\n      tag_502\n        /* \"#utility.yul\":1281:1286   */\n      dup2\n        /* \"#utility.yul\":1263:1287   */\n      tag_402\n      jump\t// in\n    tag_502:\n        /* \"#utility.yul\":1258:1261   */\n      dup3\n        /* \"#utility.yul\":1251:1288   */\n      mstore\n        /* \"#utility.yul\":1176:1294   */\n      pop\n      pop\n      jump\t// out\n        /* \"#utility.yul\":1300:1522   */\n    tag_40:\n        /* \"#utility.yul\":1393:1397   */\n      0x00\n        /* \"#utility.yul\":1431:1433   */\n      0x20\n        /* \"#utility.yul\":1420:1429   */\n      dup3\n        /* \"#utility.yul\":1416:1434   */\n      add\n        /* \"#utility.yul\":1408:1434   */\n      swap1\n      pop\n        /* \"#utility.yul\":1444:1515   */\n      tag_504\n        /* \"#utility.yul\":1512:1513   */\n      0x00\n        /* \"#utility.yul\":1501:1510   */\n      dup4\n        /* \"#utility.yul\":1497:1514   */\n      add\n        /* \"#utility.yul\":1488:1494   */\n      dup5\n        /* \"#utility.yul\":1444:1515   */\n      tag_405\n      jump\t// in\n    tag_504:\n        /* \"#utility.yul\":1300:1522   */\n      swap3\n      swap2\n      pop\n      pop\n      jump\t// out\n        /* \"#utility.yul\":1528:1605   */\n    tag_406:\n        /* \"#utility.yul\":1565:1572   */\n      0x00\n        /* \"#utility.yul\":1594:1599   */\n      dup2\n        /* \"#utility.yul\":1583:1599   */\n      swap1\n      pop\n        /* \"#utility.yul\":1528:1605   */\n      swap2\n      swap1\n      pop\n      jump\t// out\n        /* \"#utility.yul\":1611:1733   */\n    tag_407:\n        /* \"#utility.yul\":1684:1708   */\n      tag_507\n        /* \"#utility.yul\":1702:1707   */\n      dup2\n        /* \"#utility.yul\":1684:1708   */\n      tag_406\n      jump\t// in\n    tag_507:\n        /* \"#utility.yul\":1677:1682   */\n      dup2\n        /* \"#utility.yul\":1674:1709   */\n      eq\n        /* \"#utility.yul\":1664:1727   */\n      tag_508\n      jumpi\n        /* \"#utility.yul\":1723:1724   */\n      0x00\n        /* \"#utility.yul\":1720:1721   */\n      dup1\n        /* \"#utility.yul\":1713:1725   */\n      revert\n        /* \"#utility.yul\":1664:1727   */\n    tag_508:\n        /* \"#utility.yul\":1611:1733   */\n      pop\n      jump\t// out\n        /* \"#utility.yul\":1739:1878   */\n    tag_408:\n        /* \"#utility.yul\":1785:1790   */\n      0x00\n        /* \"#utility.yul\":1823:1829   */\n      dup2\n        /* \"#utility.yul\":1810:1830   */\n      calldataload\n        /* \"#utility.yul\":1801:1830   */\n      swap1\n      pop\n        /* \"#utility.yul\":1839:1872   */\n      tag_510\n        /* \"#utility.yul\":1866:1871   */\n      dup2\n        /* \"#utility.yul\":1839:1872   */\n      tag_407\n      jump\t// in\n    tag_510:\n        /* \"#utility.yul\":1739:1878   */\n      swap3\n      swap2\n      pop\n      pop\n      jump\t// out\n        /* \"#utility.yul\":1884:2213   */\n    tag_44:\n        /* \"#utility.yul\":1943:1949   */\n      0x00\n        /* \"#utility.yul\":1992:1994   */\n      0x20\n        /* \"#utility.yul\":1980:1989   */\n      dup3\n        /* \"#utility.yul\":1971:1978   */\n      dup5\n        /* \"#utility.yul\":1967:1990   */\n      sub\n        /* \"#utility.yul\":1963:1995   */\n      slt\n        /* \"#utility.yul\":1960:2079   */\n      iszero\n      tag_512\n      jumpi\n        /* \"#utility.yul\":1998:2077   */\n      tag_513\n      tag_399\n      jump\t// in\n    tag_513:\n        /* \"#utility.yul\":1960:2079   */\n    tag_512:\n        /* \"#utility.yul\":2118:2119   */\n      0x00\n        /* \"#utility.yul\":2143:2196   */\n      tag_514\n        /* \"#utility.yul\":2188:2195   */\n      dup5\n        /* \"#utility.yul\":2179:2185   */\n      dup3\n        /* \"#utility.yul\":2168:2177   */\n      dup6\n        /* \"#utility.yul\":2164:2186   */\n      add\n        /* \"#utility.yul\":2143:2196   */\n      tag_408\n      jump\t// in\n    tag_514:\n        /* \"#utility.yul\":2133:2196   */\n      swap2\n      pop\n        /* \"#utility.yul\":2089:2206   */\n      pop\n        /* \"#utility.yul\":1884:2213   */\n      swap3\n      swap2\n      pop\n      pop\n      jump\t// out\n        /* \"#utility.yul\":2219:2337   */\n    tag_409:\n        /* \"#utility.yul\":2306:2330   */\n      tag_516\n        /* \"#utility.yul\":2324:2329   */\n      dup2\n        /* \"#utility.yul\":2306:2330   */\n      tag_406\n      jump\t// in\n    tag_516:\n        /* \"#utility.yul\":2301:2304   */\n      dup3\n        /* \"#utility.yul\":2294:2331   */\n      mstore\n        /* \"#utility.yul\":2219:2337   */\n      pop\n      pop\n      jump\t// out\n        /* \"#utility.yul\":2343:2785   */\n    tag_47:\n        /* \"#utility.yul\":2492:2496   */\n      0x00\n        /* \"#utility.yul\":2530:2532   */\n      0x60\n        /* \"#utility.yul\":2519:2528   */\n      dup3\n        /* \"#utility.yul\":2515:2533   */\n      add\n        /* \"#utility.yul\":2507:2533   */\n      swap1\n      pop\n        /* \"#utility.yul\":2543:2614   */\n      tag_518\n        /* \"#utility.yul\":2611:2612   */\n      0x00\n        /* \"#utility.yul\":2600:2609   */\n      dup4\n        /* \"#utility.yul\":2596:2613   */\n      add\n        /* \"#utility.yul\":2587:2593   */\n      dup7\n        /* \"#utility.yul\":2543:2614   */\n      tag_409\n      jump\t// in\n    tag_518:\n        /* \"#utility.yul\":2624:2696   */\n      tag_519\n        /* \"#utility.yul\":2692:2694   */\n      0x20\n        /* \"#utility.yul\":2681:2690   */\n      dup4\n        /* \"#utility.yul\":2677:2695   */\n      add\n        /* \"#utility.yul\":2668:2674   */\n      dup6\n        /* \"#utility.yul\":2624:2696   */\n      tag_405\n      jump\t// in\n    tag_519:\n        /* \"#utility.yul\":2706:2778   */\n      tag_520\n        /* \"#utility.yul\":2774:2776   */\n      0x40\n        /* \"#utility.yul\":2763:2772   */\n      dup4\n        /* \"#utility.yul\":2759:2777   */\n      add\n        /* \"#utility.yul\":2750:2756   */\n      dup5\n        /* \"#utility.yul\":2706:2778   */\n      tag_409\n      jump\t// in\n    tag_520:\n        /* \"#utility.yul\":2343:2785   */\n      swap5\n      swap4\n      pop\n      pop\n      pop\n      pop\n      jump\t// out\n        /* \"#utility.yul\":2791:3013   */\n    tag_52:\n        /* \"#utility.yul\":2884:2888   */\n      0x00\n        /* \"#utility.yul\":2922:2924   */\n      0x20\n        /* \"#utility.yul\":2911:2920   */\n      dup3\n        /* \"#utility.yul\":2907:2925   */\n      add\n        /* \"#utility.yul\":2899:2925   */\n      swap1\n      pop\n        /* \"#utility.yul\":2935:3006   */\n      tag_522\n        /* \"#utility.yul\":3003:3004   */\n      0x00\n        /* \"#utility.yul\":2992:3001   */\n      dup4\n        /* \"#utility.yul\":2988:3005   */\n      add\n        /* \"#utility.yul\":2979:2985   */\n      dup5\n        /* \"#utility.yul\":2935:3006   */\n      tag_409\n      jump\t// in\n    tag_522:\n        /* \"#utility.yul\":2791:3013   */\n      swap3\n      swap2\n      pop\n      pop\n      jump\t// out\n        /* \"#utility.yul\":3019:3162   */\n    tag_410:\n        /* \"#utility.yul\":3076:3081   */\n      0x00\n        /* \"#utility.yul\":3107:3113   */\n      dup2\n        /* \"#utility.yul\":3101:3114   */\n      mload\n        /* \"#utility.yul\":3092:3114   */\n      swap1\n      pop\n        /* \"#utility.yul\":3123:3156   */\n      tag_524\n        /* \"#utility.yul\":3150:3155   */\n      dup2\n        /* \"#utility.yul\":3123:3156   */\n      tag_407\n      jump\t// in\n    tag_524:\n        /* \"#utility.yul\":3019:3162   */\n      swap3\n      swap2\n      pop\n      pop\n      jump\t// out\n        /* \"#utility.yul\":3168:3519   */\n    tag_124:\n        /* \"#utility.yul\":3238:3244   */\n      0x00\n        /* \"#utility.yul\":3287:3289   */\n      0x20\n        /* \"#utility.yul\":3275:3284   */\n      dup3\n        /* \"#utility.yul\":3266:3273   */\n      dup5\n        /* \"#utility.yul\":3262:3285   */\n      sub\n        /* \"#utility.yul\":3258:3290   */\n      slt\n        /* \"#utility.yul\":3255:3374   */\n      iszero\n      tag_526\n      jumpi\n        /* \"#utility.yul\":3293:3372   */\n      tag_527\n      tag_399\n      jump\t// in\n    tag_527:\n        /* \"#utility.yul\":3255:3374   */\n    tag_526:\n        /* \"#utility.yul\":3413:3414   */\n      0x00\n        /* \"#utility.yul\":3438:3502   */\n      tag_528\n        /* \"#utility.yul\":3494:3501   */\n      dup5\n        /* \"#utility.yul\":3485:3491   */\n      dup3\n        /* \"#utility.yul\":3474:3483   */\n      dup6\n        /* \"#utility.yul\":3470:3492   */\n      add\n        /* \"#utility.yul\":3438:3502   */\n      tag_410\n      jump\t// in\n    tag_528:\n        /* \"#utility.yul\":3428:3502   */\n      swap2\n      pop\n        /* \"#utility.yul\":3384:3512   */\n      pop\n        /* \"#utility.yul\":3168:3519   */\n      swap3\n      swap2\n      pop\n      pop\n      jump\t// out\n        /* \"#utility.yul\":3525:3857   */\n    tag_126:\n        /* \"#utility.yul\":3646:3650   */\n      0x00\n        /* \"#utility.yul\":3684:3686   */\n      0x40\n        /* \"#utility.yul\":3673:3682   */\n      dup3\n        /* \"#utility.yul\":3669:3687   */\n      add\n        /* \"#utility.yul\":3661:3687   */\n      swap1\n      pop\n        /* \"#utility.yul\":3697:3768   */\n      tag_530\n        /* \"#utility.yul\":3765:3766   */\n      0x00\n        /* \"#utility.yul\":3754:3763   */\n      dup4\n        /* \"#utility.yul\":3750:3767   */\n      add\n        /* \"#utility.yul\":3741:3747   */\n      dup6\n        /* \"#utility.yul\":3697:3768   */\n      tag_405\n      jump\t// in\n    tag_530:\n        /* \"#utility.yul\":3778:3850   */\n      tag_531\n        /* \"#utility.yul\":3846:3848   */\n      0x20\n        /* \"#utility.yul\":3835:3844   */\n      dup4\n        /* \"#utility.yul\":3831:3849   */\n      add\n        /* \"#utility.yul\":3822:3828   */\n      dup5\n        /* \"#utility.yul\":3778:3850   */\n      tag_409\n      jump\t// in\n    tag_531:\n        /* \"#utility.yul\":3525:3857   */\n      swap4\n      swap3\n      pop\n      pop\n      pop\n      jump\t// out\n        /* \"#utility.yul\":3863:3953   */\n    tag_411:\n        /* \"#utility.yul\":3897:3904   */\n      0x00\n        /* \"#utility.yul\":3940:3945   */\n      dup2\n        /* \"#utility.yul\":3933:3946   */\n      iszero\n        /* \"#utility.yul\":3926:3947   */\n      iszero\n        /* \"#utility.yul\":3915:3947   */\n      swap1\n      pop\n        /* \"#utility.yul\":3863:3953   */\n      swap2\n      swap1\n      pop\n      jump\t// out\n        /* \"#utility.yul\":3959:4075   */\n    tag_412:\n        /* \"#utility.yul\":4029:4050   */\n      tag_534\n        /* \"#utility.yul\":4044:4049   */\n      dup2\n        /* \"#utility.yul\":4029:4050   */\n      tag_411\n      jump\t// in\n    tag_534:\n        /* \"#utility.yul\":4022:4027   */\n      dup2\n        /* \"#utility.yul\":4019:4051   */\n      eq\n        /* \"#utility.yul\":4009:4069   */\n      tag_535\n      jumpi\n        /* \"#utility.yul\":4065:4066   */\n      0x00\n        /* \"#utility.yul\":4062:4063   */\n      dup1\n        /* \"#utility.yul\":4055:4067   */\n      revert\n        /* \"#utility.yul\":4009:4069   */\n    tag_535:\n        /* \"#utility.yul\":3959:4075   */\n      pop\n      jump\t// out\n        /* \"#utility.yul\":4081:4218   */\n    tag_413:\n        /* \"#utility.yul\":4135:4140   */\n      0x00\n        /* \"#utility.yul\":4166:4172   */\n      dup2\n        /* \"#utility.yul\":4160:4173   */\n      mload\n        /* \"#utility.yul\":4151:4173   */\n      swap1\n      pop\n        /* \"#utility.yul\":4182:4212   */\n      tag_537\n        /* \"#utility.yul\":4206:4211   */\n      dup2\n        /* \"#utility.yul\":4182:4212   */\n      tag_412\n      jump\t// in\n    tag_537:\n        /* \"#utility.yul\":4081:4218   */\n      swap3\n      swap2\n      pop\n      pop\n      jump\t// out\n        /* \"#utility.yul\":4224:4569   */\n    tag_130:\n        /* \"#utility.yul\":4291:4297   */\n      0x00\n        /* \"#utility.yul\":4340:4342   */\n      0x20\n        /* \"#utility.yul\":4328:4337   */\n      dup3\n        /* \"#utility.yul\":4319:4326   */\n      dup5\n        /* \"#utility.yul\":4315:4338   */\n      sub\n        /* \"#utility.yul\":4311:4343   */\n      slt\n        /* \"#utility.yul\":4308:4427   */\n      iszero\n      tag_539\n      jumpi\n        /* \"#utility.yul\":4346:4425   */\n      tag_540\n      tag_399\n      jump\t// in\n    tag_540:\n        /* \"#utility.yul\":4308:4427   */\n    tag_539:\n        /* \"#utility.yul\":4466:4467   */\n      0x00\n        /* \"#utility.yul\":4491:4552   */\n      tag_541\n        /* \"#utility.yul\":4544:4551   */\n      dup5\n        /* \"#utility.yul\":4535:4541   */\n      dup3\n        /* \"#utility.yul\":4524:4533   */\n      dup6\n        /* \"#utility.yul\":4520:4542   */\n      add\n        /* \"#utility.yul\":4491:4552   */\n      tag_413\n      jump\t// in\n    tag_541:\n        /* \"#utility.yul\":4481:4552   */\n      swap2\n      pop\n        /* \"#utility.yul\":4437:4562   */\n      pop\n        /* \"#utility.yul\":4224:4569   */\n      swap3\n      swap2\n      pop\n      pop\n      jump\t// out\n        /* \"#utility.yul\":4575:4755   */\n    tag_414:\n        /* \"#utility.yul\":4623:4700   */\n      0x4e487b7100000000000000000000000000000000000000000000000000000000\n        /* \"#utility.yul\":4620:4621   */\n      0x00\n        /* \"#utility.yul\":4613:4701   */\n      mstore\n        /* \"#utility.yul\":4720:4724   */\n      0x11\n        /* \"#utility.yul\":4717:4718   */\n      0x04\n        /* \"#utility.yul\":4710:4725   */\n      mstore\n        /* \"#utility.yul\":4744:4748   */\n      0x24\n        /* \"#utility.yul\":4741:4742   */\n      0x00\n        /* \"#utility.yul\":4734:4749   */\n      revert\n        /* \"#utility.yul\":4761:5171   */\n    tag_141:\n        /* \"#utility.yul\":4801:4808   */\n      0x00\n        /* \"#utility.yul\":4824:4844   */\n      tag_544\n        /* \"#utility.yul\":4842:4843   */\n      dup3\n        /* \"#utility.yul\":4824:4844   */\n      tag_406\n      jump\t// in\n    tag_544:\n        /* \"#utility.yul\":4819:4844   */\n      swap2\n      pop\n        /* \"#utility.yul\":4858:4878   */\n      tag_545\n        /* \"#utility.yul\":4876:4877   */\n      dup4\n        /* \"#utility.yul\":4858:4878   */\n      tag_406\n      jump\t// in\n    tag_545:\n        /* \"#utility.yul\":4853:4878   */\n      swap3\n      pop\n        /* \"#utility.yul\":4913:4914   */\n      dup3\n        /* \"#utility.yul\":4910:4911   */\n      dup3\n        /* \"#utility.yul\":4906:4915   */\n      mul\n        /* \"#utility.yul\":4935:4965   */\n      tag_546\n        /* \"#utility.yul\":4953:4964   */\n      dup2\n        /* \"#utility.yul\":4935:4965   */\n      tag_406\n      jump\t// in\n    tag_546:\n        /* \"#utility.yul\":4924:4965   */\n      swap2\n      pop\n        /* \"#utility.yul\":5114:5115   */\n      dup3\n        /* \"#utility.yul\":5105:5112   */\n      dup3\n        /* \"#utility.yul\":5101:5116   */\n      div\n        /* \"#utility.yul\":5098:5099   */\n      dup5\n        /* \"#utility.yul\":5095:5117   */\n      eq\n        /* \"#utility.yul\":5075:5076   */\n      dup4\n        /* \"#utility.yul\":5068:5077   */\n      iszero\n        /* \"#utility.yul\":5048:5131   */\n      or\n        /* \"#utility.yul\":5025:5164   */\n      tag_547\n      jumpi\n        /* \"#utility.yul\":5144:5162   */\n      tag_548\n      tag_414\n      jump\t// in\n    tag_548:\n        /* \"#utility.yul\":5025:5164   */\n    tag_547:\n        /* \"#utility.yul\":4809:5171   */\n      pop\n        /* \"#utility.yul\":4761:5171   */\n      swap3\n      swap2\n      pop\n      pop\n      jump\t// out\n        /* \"#utility.yul\":5177:5357   */\n    tag_415:\n        /* \"#utility.yul\":5225:5302   */\n      0x4e487b7100000000000000000000000000000000000000000000000000000000\n        /* \"#utility.yul\":5222:5223   */\n      0x00\n        /* \"#utility.yul\":5215:5303   */\n      mstore\n        /* \"#utility.yul\":5322:5326   */\n      0x12\n        /* \"#utility.yul\":5319:5320   */\n      0x04\n        /* \"#utility.yul\":5312:5327   */\n      mstore\n        /* \"#utility.yul\":5346:5350   */\n      0x24\n        /* \"#utility.yul\":5343:5344   */\n      0x00\n        /* \"#utility.yul\":5336:5351   */\n      revert\n        /* \"#utility.yul\":5363:5548   */\n    tag_143:\n        /* \"#utility.yul\":5403:5404   */\n      0x00\n        /* \"#utility.yul\":5420:5440   */\n      tag_551\n        /* \"#utility.yul\":5438:5439   */\n      dup3\n        /* \"#utility.yul\":5420:5440   */\n      tag_406\n      jump\t// in\n    tag_551:\n        /* \"#utility.yul\":5415:5440   */\n      swap2\n      pop\n        /* \"#utility.yul\":5454:5474   */\n      tag_552\n        /* \"#utility.yul\":5472:5473   */\n      dup4\n        /* \"#utility.yul\":5454:5474   */\n      tag_406\n      jump\t// in\n    tag_552:\n        /* \"#utility.yul\":5449:5474   */\n      swap3\n      pop\n        /* \"#utility.yul\":5493:5494   */\n      dup3\n        /* \"#utility.yul\":5483:5518   */\n      tag_553\n      jumpi\n        /* \"#utility.yul\":5498:5516   */\n      tag_554\n      tag_415\n      jump\t// in\n    tag_554:\n        /* \"#utility.yul\":5483:5518   */\n    tag_553:\n        /* \"#utility.yul\":5540:5541   */\n      dup3\n        /* \"#utility.yul\":5537:5538   */\n      dup3\n        /* \"#utility.yul\":5533:5542   */\n      div\n        /* \"#utility.yul\":5528:5542   */\n      swap1\n      pop\n        /* \"#utility.yul\":5363:5548   */\n      swap3\n      swap2\n      pop\n      pop\n      jump\t// out\n        /* \"#utility.yul\":5554:5723   */\n    tag_416:\n        /* \"#utility.yul\":5638:5649   */\n      0x00\n        /* \"#utility.yul\":5672:5678   */\n      dup3\n        /* \"#utility.yul\":5667:5670   */\n      dup3\n        /* \"#utility.yul\":5660:5679   */\n      mstore\n        /* \"#utility.yul\":5712:5716   */\n      0x20\n        /* \"#utility.yul\":5707:5710   */\n      dup3\n        /* \"#utility.yul\":5703:5717   */\n      add\n        /* \"#utility.yul\":5688:5717   */\n      swap1\n      pop\n        /* \"#utility.yul\":5554:5723   */\n      swap3\n      swap2\n      pop\n      pop\n      jump\t// out\n        /* \"#utility.yul\":5729:5905   */\n    tag_417:\n        /* \"#utility.yul\":5869:5897   */\n      0x4e65656420746f206d696e7420666f72206c6971756964697479000000000000\n        /* \"#utility.yul\":5865:5866   */\n      0x00\n        /* \"#utility.yul\":5857:5863   */\n      dup3\n        /* \"#utility.yul\":5853:5867   */\n      add\n        /* \"#utility.yul\":5846:5898   */\n      mstore\n        /* \"#utility.yul\":5729:5905   */\n      pop\n      jump\t// out\n        /* \"#utility.yul\":5911:6277   */\n    tag_418:\n        /* \"#utility.yul\":6053:6056   */\n      0x00\n        /* \"#utility.yul\":6074:6141   */\n      tag_558\n        /* \"#utility.yul\":6138:6140   */\n      0x1a\n        /* \"#utility.yul\":6133:6136   */\n      dup4\n        /* \"#utility.yul\":6074:6141   */\n      tag_416\n      jump\t// in\n    tag_558:\n        /* \"#utility.yul\":6067:6141   */\n      swap2\n      pop\n        /* \"#utility.yul\":6150:6243   */\n      tag_559\n        /* \"#utility.yul\":6239:6242   */\n      dup3\n        /* \"#utility.yul\":6150:6243   */\n      tag_417\n      jump\t// in\n    tag_559:\n        /* \"#utility.yul\":6268:6270   */\n      0x20\n        /* \"#utility.yul\":6263:6266   */\n      dup3\n        /* \"#utility.yul\":6259:6271   */\n      add\n        /* \"#utility.yul\":6252:6271   */\n      swap1\n      pop\n        /* \"#utility.yul\":5911:6277   */\n      swap2\n      swap1\n      pop\n      jump\t// out\n        /* \"#utility.yul\":6283:6702   */\n    tag_146:\n        /* \"#utility.yul\":6449:6453   */\n      0x00\n        /* \"#utility.yul\":6487:6489   */\n      0x20\n        /* \"#utility.yul\":6476:6485   */\n      dup3\n        /* \"#utility.yul\":6472:6490   */\n      add\n        /* \"#utility.yul\":6464:6490   */\n      swap1\n      pop\n        /* \"#utility.yul\":6536:6545   */\n      dup2\n        /* \"#utility.yul\":6530:6534   */\n      dup2\n        /* \"#utility.yul\":6526:6546   */\n      sub\n        /* \"#utility.yul\":6522:6523   */\n      0x00\n        /* \"#utility.yul\":6511:6520   */\n      dup4\n        /* \"#utility.yul\":6507:6524   */\n      add\n        /* \"#utility.yul\":6500:6547   */\n      mstore\n        /* \"#utility.yul\":6564:6695   */\n      tag_561\n        /* \"#utility.yul\":6690:6694   */\n      dup2\n        /* \"#utility.yul\":6564:6695   */\n      tag_418\n      jump\t// in\n    tag_561:\n        /* \"#utility.yul\":6556:6695   */\n      swap1\n      pop\n        /* \"#utility.yul\":6283:6702   */\n      swap2\n      swap1\n      pop\n      jump\t// out\n        /* \"#utility.yul\":6708:6902   */\n    tag_148:\n        /* \"#utility.yul\":6748:6752   */\n      0x00\n        /* \"#utility.yul\":6768:6788   */\n      tag_563\n        /* \"#utility.yul\":6786:6787   */\n      dup3\n        /* \"#utility.yul\":6768:6788   */\n      tag_406\n      jump\t// in\n    tag_563:\n        /* \"#utility.yul\":6763:6788   */\n      swap2\n      pop\n        /* \"#utility.yul\":6802:6822   */\n      tag_564\n        /* \"#utility.yul\":6820:6821   */\n      dup4\n        /* \"#utility.yul\":6802:6822   */\n      tag_406\n      jump\t// in\n    tag_564:\n        /* \"#utility.yul\":6797:6822   */\n      swap3\n      pop\n        /* \"#utility.yul\":6846:6847   */\n      dup3\n        /* \"#utility.yul\":6843:6844   */\n      dup3\n        /* \"#utility.yul\":6839:6848   */\n      sub\n        /* \"#utility.yul\":6831:6848   */\n      swap1\n      pop\n        /* \"#utility.yul\":6870:6871   */\n      dup2\n        /* \"#utility.yul\":6864:6868   */\n      dup2\n        /* \"#utility.yul\":6861:6872   */\n      gt\n        /* \"#utility.yul\":6858:6895   */\n      iszero\n      tag_565\n      jumpi\n        /* \"#utility.yul\":6875:6893   */\n      tag_566\n      tag_414\n      jump\t// in\n    tag_566:\n        /* \"#utility.yul\":6858:6895   */\n    tag_565:\n        /* \"#utility.yul\":6708:6902   */\n      swap3\n      swap2\n      pop\n      pop\n      jump\t// out\n        /* \"#utility.yul\":6908:7240   */\n    tag_150:\n        /* \"#utility.yul\":7029:7033   */\n      0x00\n        /* \"#utility.yul\":7067:7069   */\n      0x40\n        /* \"#utility.yul\":7056:7065   */\n      dup3\n        /* \"#utility.yul\":7052:7070   */\n      add\n        /* \"#utility.yul\":7044:7070   */\n      swap1\n      pop\n        /* \"#utility.yul\":7080:7151   */\n      tag_568\n        /* \"#utility.yul\":7148:7149   */\n      0x00\n        /* \"#utility.yul\":7137:7146   */\n      dup4\n        /* \"#utility.yul\":7133:7150   */\n      add\n        /* \"#utility.yul\":7124:7130   */\n      dup6\n        /* \"#utility.yul\":7080:7151   */\n      tag_409\n      jump\t// in\n    tag_568:\n        /* \"#utility.yul\":7161:7233   */\n      tag_569\n        /* \"#utility.yul\":7229:7231   */\n      0x20\n        /* \"#utility.yul\":7218:7227   */\n      dup4\n        /* \"#utility.yul\":7214:7232   */\n      add\n        /* \"#utility.yul\":7205:7211   */\n      dup5\n        /* \"#utility.yul\":7161:7233   */\n      tag_405\n      jump\t// in\n    tag_569:\n        /* \"#utility.yul\":6908:7240   */\n      swap4\n      swap3\n      pop\n      pop\n      pop\n      jump\t// out\n        /* \"#utility.yul\":7246:7409   */\n    tag_419:\n        /* \"#utility.yul\":7386:7401   */\n      0x746f6b656e73206d696e74656400000000000000000000000000000000000000\n        /* \"#utility.yul\":7382:7383   */\n      0x00\n        /* \"#utility.yul\":7374:7380   */\n      dup3\n        /* \"#utility.yul\":7370:7384   */\n      add\n        /* \"#utility.yul\":7363:7402   */\n      mstore\n        /* \"#utility.yul\":7246:7409   */\n      pop\n      jump\t// out\n        /* \"#utility.yul\":7415:7781   */\n    tag_420:\n        /* \"#utility.yul\":7557:7560   */\n      0x00\n        /* \"#utility.yul\":7578:7645   */\n      tag_572\n        /* \"#utility.yul\":7642:7644   */\n      0x0d\n        /* \"#utility.yul\":7637:7640   */\n      dup4\n        /* \"#utility.yul\":7578:7645   */\n      tag_416\n      jump\t// in\n    tag_572:\n        /* \"#utility.yul\":7571:7645   */\n      swap2\n      pop\n        /* \"#utility.yul\":7654:7747   */\n      tag_573\n        /* \"#utility.yul\":7743:7746   */\n      dup3\n        /* \"#utility.yul\":7654:7747   */\n      tag_419\n      jump\t// in\n    tag_573:\n        /* \"#utility.yul\":7772:7774   */\n      0x20\n        /* \"#utility.yul\":7767:7770   */\n      dup3\n        /* \"#utility.yul\":7763:7775   */\n      add\n        /* \"#utility.yul\":7756:7775   */\n      swap1\n      pop\n        /* \"#utility.yul\":7415:7781   */\n      swap2\n      swap1\n      pop\n      jump\t// out\n        /* \"#utility.yul\":7787:8206   */\n    tag_155:\n        /* \"#utility.yul\":7953:7957   */\n      0x00\n        /* \"#utility.yul\":7991:7993   */\n      0x20\n        /* \"#utility.yul\":7980:7989   */\n      dup3\n        /* \"#utility.yul\":7976:7994   */\n      add\n        /* \"#utility.yul\":7968:7994   */\n      swap1\n      pop\n        /* \"#utility.yul\":8040:8049   */\n      dup2\n        /* \"#utility.yul\":8034:8038   */\n      dup2\n        /* \"#utility.yul\":8030:8050   */\n      sub\n        /* \"#utility.yul\":8026:8027   */\n      0x00\n        /* \"#utility.yul\":8015:8024   */\n      dup4\n        /* \"#utility.yul\":8011:8028   */\n      add\n        /* \"#utility.yul\":8004:8051   */\n      mstore\n        /* \"#utility.yul\":8068:8199   */\n      tag_575\n        /* \"#utility.yul\":8194:8198   */\n      dup2\n        /* \"#utility.yul\":8068:8199   */\n      tag_420\n      jump\t// in\n    tag_575:\n        /* \"#utility.yul\":8060:8199   */\n      swap1\n      pop\n        /* \"#utility.yul\":7787:8206   */\n      swap2\n      swap1\n      pop\n      jump\t// out\n        /* \"#utility.yul\":8212:8379   */\n    tag_421:\n        /* \"#utility.yul\":8352:8371   */\n      0x4e65772045524332302062616c616e6365000000000000000000000000000000\n        /* \"#utility.yul\":8348:8349   */\n      0x00\n        /* \"#utility.yul\":8340:8346   */\n      dup3\n        /* \"#utility.yul\":8336:8350   */\n      add\n        /* \"#utility.yul\":8329:8372   */\n      mstore\n        /* \"#utility.yul\":8212:8379   */\n      pop\n      jump\t// out\n        /* \"#utility.yul\":8385:8751   */\n    tag_422:\n        /* \"#utility.yul\":8527:8530   */\n      0x00\n        /* \"#utility.yul\":8548:8615   */\n      tag_578\n        /* \"#utility.yul\":8612:8614   */\n      0x11\n        /* \"#utility.yul\":8607:8610   */\n      dup4\n        /* \"#utility.yul\":8548:8615   */\n      tag_416\n      jump\t// in\n    tag_578:\n        /* \"#utility.yul\":8541:8615   */\n      swap2\n      pop\n        /* \"#utility.yul\":8624:8717   */\n      tag_579\n        /* \"#utility.yul\":8713:8716   */\n      dup3\n        /* \"#utility.yul\":8624:8717   */\n      tag_421\n      jump\t// in\n    tag_579:\n        /* \"#utility.yul\":8742:8744   */\n      0x20\n        /* \"#utility.yul\":8737:8740   */\n      dup3\n        /* \"#utility.yul\":8733:8745   */\n      add\n        /* \"#utility.yul\":8726:8745   */\n      swap1\n      pop\n        /* \"#utility.yul\":8385:8751   */\n      swap2\n      swap1\n      pop\n      jump\t// out\n        /* \"#utility.yul\":8757:9176   */\n    tag_163:\n        /* \"#utility.yul\":8923:8927   */\n      0x00\n        /* \"#utility.yul\":8961:8963   */\n      0x20\n        /* \"#utility.yul\":8950:8959   */\n      dup3\n        /* \"#utility.yul\":8946:8964   */\n      add\n        /* \"#utility.yul\":8938:8964   */\n      swap1\n      pop\n        /* \"#utility.yul\":9010:9019   */\n      dup2\n        /* \"#utility.yul\":9004:9008   */\n      dup2\n        /* \"#utility.yul\":9000:9020   */\n      sub\n        /* \"#utility.yul\":8996:8997   */\n      0x00\n        /* \"#utility.yul\":8985:8994   */\n      dup4\n        /* \"#utility.yul\":8981:8998   */\n      add\n        /* \"#utility.yul\":8974:9021   */\n      mstore\n        /* \"#utility.yul\":9038:9169   */\n      tag_581\n        /* \"#utility.yul\":9164:9168   */\n      dup2\n        /* \"#utility.yul\":9038:9169   */\n      tag_422\n      jump\t// in\n    tag_581:\n        /* \"#utility.yul\":9030:9169   */\n      swap1\n      pop\n        /* \"#utility.yul\":8757:9176   */\n      swap2\n      swap1\n      pop\n      jump\t// out\n        /* \"#utility.yul\":9182:9267   */\n    tag_423:\n        /* \"#utility.yul\":9227:9234   */\n      0x00\n        /* \"#utility.yul\":9256:9261   */\n      dup2\n        /* \"#utility.yul\":9245:9261   */\n      swap1\n      pop\n        /* \"#utility.yul\":9182:9267   */\n      swap2\n      swap1\n      pop\n      jump\t// out\n        /* \"#utility.yul\":9273:9333   */\n    tag_424:\n        /* \"#utility.yul\":9301:9304   */\n      0x00\n        /* \"#utility.yul\":9322:9327   */\n      dup2\n        /* \"#utility.yul\":9315:9327   */\n      swap1\n      pop\n        /* \"#utility.yul\":9273:9333   */\n      swap2\n      swap1\n      pop\n      jump\t// out\n        /* \"#utility.yul\":9339:9497   */\n    tag_425:\n        /* \"#utility.yul\":9397:9406   */\n      0x00\n        /* \"#utility.yul\":9430:9491   */\n      tag_585\n        /* \"#utility.yul\":9448:9490   */\n      tag_586\n        /* \"#utility.yul\":9457:9489   */\n      tag_587\n        /* \"#utility.yul\":9483:9488   */\n      dup5\n        /* \"#utility.yul\":9457:9489   */\n      tag_423\n      jump\t// in\n    tag_587:\n        /* \"#utility.yul\":9448:9490   */\n      tag_424\n      jump\t// in\n    tag_586:\n        /* \"#utility.yul\":9430:9491   */\n      tag_406\n      jump\t// in\n    tag_585:\n        /* \"#utility.yul\":9417:9491   */\n      swap1\n      pop\n        /* \"#utility.yul\":9339:9497   */\n      swap2\n      swap1\n      pop\n      jump\t// out\n        /* \"#utility.yul\":9503:9650   */\n    tag_426:\n        /* \"#utility.yul\":9598:9643   */\n      tag_589\n        /* \"#utility.yul\":9637:9642   */\n      dup2\n        /* \"#utility.yul\":9598:9643   */\n      tag_425\n      jump\t// in\n    tag_589:\n        /* \"#utility.yul\":9593:9596   */\n      dup3\n        /* \"#utility.yul\":9586:9644   */\n      mstore\n        /* \"#utility.yul\":9503:9650   */\n      pop\n      pop\n      jump\t// out\n        /* \"#utility.yul\":9656:10463   */\n    tag_166:\n        /* \"#utility.yul\":9905:9909   */\n      0x00\n        /* \"#utility.yul\":9943:9946   */\n      0xc0\n        /* \"#utility.yul\":9932:9941   */\n      dup3\n        /* \"#utility.yul\":9928:9947   */\n      add\n        /* \"#utility.yul\":9920:9947   */\n      swap1\n      pop\n        /* \"#utility.yul\":9957:10028   */\n      tag_591\n        /* \"#utility.yul\":10025:10026   */\n      0x00\n        /* \"#utility.yul\":10014:10023   */\n      dup4\n        /* \"#utility.yul\":10010:10027   */\n      add\n        /* \"#utility.yul\":10001:10007   */\n      dup10\n        /* \"#utility.yul\":9957:10028   */\n      tag_405\n      jump\t// in\n    tag_591:\n        /* \"#utility.yul\":10038:10110   */\n      tag_592\n        /* \"#utility.yul\":10106:10108   */\n      0x20\n        /* \"#utility.yul\":10095:10104   */\n      dup4\n        /* \"#utility.yul\":10091:10109   */\n      add\n        /* \"#utility.yul\":10082:10088   */\n      dup9\n        /* \"#utility.yul\":10038:10110   */\n      tag_409\n      jump\t// in\n    tag_592:\n        /* \"#utility.yul\":10120:10200   */\n      tag_593\n        /* \"#utility.yul\":10196:10198   */\n      0x40\n        /* \"#utility.yul\":10185:10194   */\n      dup4\n        /* \"#utility.yul\":10181:10199   */\n      add\n        /* \"#utility.yul\":10172:10178   */\n      dup8\n        /* \"#utility.yul\":10120:10200   */\n      tag_426\n      jump\t// in\n    tag_593:\n        /* \"#utility.yul\":10210:10290   */\n      tag_594\n        /* \"#utility.yul\":10286:10288   */\n      0x60\n        /* \"#utility.yul\":10275:10284   */\n      dup4\n        /* \"#utility.yul\":10271:10289   */\n      add\n        /* \"#utility.yul\":10262:10268   */\n      dup7\n        /* \"#utility.yul\":10210:10290   */\n      tag_426\n      jump\t// in\n    tag_594:\n        /* \"#utility.yul\":10300:10373   */\n      tag_595\n        /* \"#utility.yul\":10368:10371   */\n      0x80\n        /* \"#utility.yul\":10357:10366   */\n      dup4\n        /* \"#utility.yul\":10353:10372   */\n      add\n        /* \"#utility.yul\":10344:10350   */\n      dup6\n        /* \"#utility.yul\":10300:10373   */\n      tag_405\n      jump\t// in\n    tag_595:\n        /* \"#utility.yul\":10383:10456   */\n      tag_596\n        /* \"#utility.yul\":10451:10454   */\n      0xa0\n        /* \"#utility.yul\":10440:10449   */\n      dup4\n        /* \"#utility.yul\":10436:10455   */\n      add\n        /* \"#utility.yul\":10427:10433   */\n      dup5\n        /* \"#utility.yul\":10383:10456   */\n      tag_409\n      jump\t// in\n    tag_596:\n        /* \"#utility.yul\":9656:10463   */\n      swap8\n      swap7\n      pop\n      pop\n      pop\n      pop\n      pop\n      pop\n      pop\n      jump\t// out\n        /* \"#utility.yul\":10469:11132   */\n    tag_169:\n        /* \"#utility.yul\":10557:10563   */\n      0x00\n        /* \"#utility.yul\":10565:10571   */\n      dup1\n        /* \"#utility.yul\":10573:10579   */\n      0x00\n        /* \"#utility.yul\":10622:10624   */\n      0x60\n        /* \"#utility.yul\":10610:10619   */\n      dup5\n        /* \"#utility.yul\":10601:10608   */\n      dup7\n        /* \"#utility.yul\":10597:10620   */\n      sub\n        /* \"#utility.yul\":10593:10625   */\n      slt\n        /* \"#utility.yul\":10590:10709   */\n      iszero\n      tag_598\n      jumpi\n        /* \"#utility.yul\":10628:10707   */\n      tag_599\n      tag_399\n      jump\t// in\n    tag_599:\n        /* \"#utility.yul\":10590:10709   */\n    tag_598:\n        /* \"#utility.yul\":10748:10749   */\n      0x00\n        /* \"#utility.yul\":10773:10837   */\n      tag_600\n        /* \"#utility.yul\":10829:10836   */\n      dup7\n        /* \"#utility.yul\":10820:10826   */\n      dup3\n        /* \"#utility.yul\":10809:10818   */\n      dup8\n        /* \"#utility.yul\":10805:10827   */\n      add\n        /* \"#utility.yul\":10773:10837   */\n      tag_410\n      jump\t// in\n    tag_600:\n        /* \"#utility.yul\":10763:10837   */\n      swap4\n      pop\n        /* \"#utility.yul\":10719:10847   */\n      pop\n        /* \"#utility.yul\":10886:10888   */\n      0x20\n        /* \"#utility.yul\":10912:10976   */\n      tag_601\n        /* \"#utility.yul\":10968:10975   */\n      dup7\n        /* \"#utility.yul\":10959:10965   */\n      dup3\n        /* \"#utility.yul\":10948:10957   */\n      dup8\n        /* \"#utility.yul\":10944:10966   */\n      add\n        /* \"#utility.yul\":10912:10976   */\n      tag_410\n      jump\t// in\n    tag_601:\n        /* \"#utility.yul\":10902:10976   */\n      swap3\n      pop\n        /* \"#utility.yul\":10857:10986   */\n      pop\n        /* \"#utility.yul\":11025:11027   */\n      0x40\n        /* \"#utility.yul\":11051:11115   */\n      tag_602\n        /* \"#utility.yul\":11107:11114   */\n      dup7\n        /* \"#utility.yul\":11098:11104   */\n      dup3\n        /* \"#utility.yul\":11087:11096   */\n      dup8\n        /* \"#utility.yul\":11083:11105   */\n      add\n        /* \"#utility.yul\":11051:11115   */\n      tag_410\n      jump\t// in\n    tag_602:\n        /* \"#utility.yul\":11041:11115   */\n      swap2\n      pop\n        /* \"#utility.yul\":10996:11125   */\n      pop\n        /* \"#utility.yul\":10469:11132   */\n      swap3\n      pop\n      swap3\n      pop\n      swap3\n      jump\t// out\n        /* \"#utility.yul\":11138:11297   */\n    tag_427:\n        /* \"#utility.yul\":11278:11289   */\n      0x6d73672e76616c75650000000000000000000000000000000000000000000000\n        /* \"#utility.yul\":11274:11275   */\n      0x00\n        /* \"#utility.yul\":11266:11272   */\n      dup3\n        /* \"#utility.yul\":11262:11276   */\n      add\n        /* \"#utility.yul\":11255:11290   */\n      mstore\n        /* \"#utility.yul\":11138:11297   */\n      pop\n      jump\t// out\n        /* \"#utility.yul\":11303:11668   */\n    tag_428:\n        /* \"#utility.yul\":11445:11448   */\n      0x00\n        /* \"#utility.yul\":11466:11532   */\n      tag_605\n        /* \"#utility.yul\":11530:11531   */\n      0x09\n        /* \"#utility.yul\":11525:11528   */\n      dup4\n        /* \"#utility.yul\":11466:11532   */\n      tag_416\n      jump\t// in\n    tag_605:\n        /* \"#utility.yul\":11459:11532   */\n      swap2\n      pop\n        /* \"#utility.yul\":11541:11634   */\n      tag_606\n        /* \"#utility.yul\":11630:11633   */\n      dup3\n        /* \"#utility.yul\":11541:11634   */\n      tag_427\n      jump\t// in\n    tag_606:\n        /* \"#utility.yul\":11659:11661   */\n      0x20\n        /* \"#utility.yul\":11654:11657   */\n      dup3\n        /* \"#utility.yul\":11650:11662   */\n      add\n        /* \"#utility.yul\":11643:11662   */\n      swap1\n      pop\n        /* \"#utility.yul\":11303:11668   */\n      swap2\n      swap1\n      pop\n      jump\t// out\n        /* \"#utility.yul\":11674:12093   */\n    tag_176:\n        /* \"#utility.yul\":11840:11844   */\n      0x00\n        /* \"#utility.yul\":11878:11880   */\n      0x20\n        /* \"#utility.yul\":11867:11876   */\n      dup3\n        /* \"#utility.yul\":11863:11881   */\n      add\n        /* \"#utility.yul\":11855:11881   */\n      swap1\n      pop\n        /* \"#utility.yul\":11927:11936   */\n      dup2\n        /* \"#utility.yul\":11921:11925   */\n      dup2\n        /* \"#utility.yul\":11917:11937   */\n      sub\n        /* \"#utility.yul\":11913:11914   */\n      0x00\n        /* \"#utility.yul\":11902:11911   */\n      dup4\n        /* \"#utility.yul\":11898:11915   */\n      add\n        /* \"#utility.yul\":11891:11938   */\n      mstore\n        /* \"#utility.yul\":11955:12086   */\n      tag_608\n        /* \"#utility.yul\":12081:12085   */\n      dup2\n        /* \"#utility.yul\":11955:12086   */\n      tag_428\n      jump\t// in\n    tag_608:\n        /* \"#utility.yul\":11947:12086   */\n      swap1\n      pop\n        /* \"#utility.yul\":11674:12093   */\n      swap2\n      swap1\n      pop\n      jump\t// out\n        /* \"#utility.yul\":12099:12261   */\n    tag_429:\n        /* \"#utility.yul\":12239:12253   */\n      0x4552433230416464726573730000000000000000000000000000000000000000\n        /* \"#utility.yul\":12235:12236   */\n      0x00\n        /* \"#utility.yul\":12227:12233   */\n      dup3\n        /* \"#utility.yul\":12223:12237   */\n      add\n        /* \"#utility.yul\":12216:12254   */\n      mstore\n        /* \"#utility.yul\":12099:12261   */\n      pop\n      jump\t// out\n        /* \"#utility.yul\":12267:12633   */\n    tag_430:\n        /* \"#utility.yul\":12409:12412   */\n      0x00\n        /* \"#utility.yul\":12430:12497   */\n      tag_611\n        /* \"#utility.yul\":12494:12496   */\n      0x0c\n        /* \"#utility.yul\":12489:12492   */\n      dup4\n        /* \"#utility.yul\":12430:12497   */\n      tag_416\n      jump\t// in\n    tag_611:\n        /* \"#utility.yul\":12423:12497   */\n      swap2\n      pop\n        /* \"#utility.yul\":12506:12599   */\n      tag_612\n        /* \"#utility.yul\":12595:12598   */\n      dup3\n        /* \"#utility.yul\":12506:12599   */\n      tag_429\n      jump\t// in\n    tag_612:\n        /* \"#utility.yul\":12624:12626   */\n      0x20\n        /* \"#utility.yul\":12619:12622   */\n      dup3\n        /* \"#utility.yul\":12615:12627   */\n      add\n        /* \"#utility.yul\":12608:12627   */\n      swap1\n      pop\n        /* \"#utility.yul\":12267:12633   */\n      swap2\n      swap1\n      pop\n      jump\t// out\n        /* \"#utility.yul\":12639:13058   */\n    tag_179:\n        /* \"#utility.yul\":12805:12809   */\n      0x00\n        /* \"#utility.yul\":12843:12845   */\n      0x20\n        /* \"#utility.yul\":12832:12841   */\n      dup3\n        /* \"#utility.yul\":12828:12846   */\n      add\n        /* \"#utility.yul\":12820:12846   */\n      swap1\n      pop\n        /* \"#utility.yul\":12892:12901   */\n      dup2\n        /* \"#utility.yul\":12886:12890   */\n      dup2\n        /* \"#utility.yul\":12882:12902   */\n      sub\n        /* \"#utility.yul\":12878:12879   */\n      0x00\n        /* \"#utility.yul\":12867:12876   */\n      dup4\n        /* \"#utility.yul\":12863:12880   */\n      add\n        /* \"#utility.yul\":12856:12903   */\n      mstore\n        /* \"#utility.yul\":12920:13051   */\n      tag_614\n        /* \"#utility.yul\":13046:13050   */\n      dup2\n        /* \"#utility.yul\":12920:13051   */\n      tag_430\n      jump\t// in\n    tag_614:\n        /* \"#utility.yul\":12912:13051   */\n      swap1\n      pop\n        /* \"#utility.yul\":12639:13058   */\n      swap2\n      swap1\n      pop\n      jump\t// out\n        /* \"#utility.yul\":13064:13226   */\n    tag_431:\n        /* \"#utility.yul\":13204:13218   */\n      0x746f6b656e73546f53656e640000000000000000000000000000000000000000\n        /* \"#utility.yul\":13200:13201   */\n      0x00\n        /* \"#utility.yul\":13192:13198   */\n      dup3\n        /* \"#utility.yul\":13188:13202   */\n      add\n        /* \"#utility.yul\":13181:13219   */\n      mstore\n        /* \"#utility.yul\":13064:13226   */\n      pop\n      jump\t// out\n        /* \"#utility.yul\":13232:13598   */\n    tag_432:\n        /* \"#utility.yul\":13374:13377   */\n      0x00\n        /* \"#utility.yul\":13395:13462   */\n      tag_617\n        /* \"#utility.yul\":13459:13461   */\n      0x0c\n        /* \"#utility.yul\":13454:13457   */\n      dup4\n        /* \"#utility.yul\":13395:13462   */\n      tag_416\n      jump\t// in\n    tag_617:\n        /* \"#utility.yul\":13388:13462   */\n      swap2\n      pop\n        /* \"#utility.yul\":13471:13564   */\n      tag_618\n        /* \"#utility.yul\":13560:13563   */\n      dup3\n        /* \"#utility.yul\":13471:13564   */\n      tag_431\n      jump\t// in\n    tag_618:\n        /* \"#utility.yul\":13589:13591   */\n      0x20\n        /* \"#utility.yul\":13584:13587   */\n      dup3\n        /* \"#utility.yul\":13580:13592   */\n      add\n        /* \"#utility.yul\":13573:13592   */\n      swap1\n      pop\n        /* \"#utility.yul\":13232:13598   */\n      swap2\n      swap1\n      pop\n      jump\t// out\n        /* \"#utility.yul\":13604:14023   */\n    tag_182:\n        /* \"#utility.yul\":13770:13774   */\n      0x00\n        /* \"#utility.yul\":13808:13810   */\n      0x20\n        /* \"#utility.yul\":13797:13806   */\n      dup3\n        /* \"#utility.yul\":13793:13811   */\n      add\n        /* \"#utility.yul\":13785:13811   */\n      swap1\n      pop\n        /* \"#utility.yul\":13857:13866   */\n      dup2\n        /* \"#utility.yul\":13851:13855   */\n      dup2\n        /* \"#utility.yul\":13847:13867   */\n      sub\n        /* \"#utility.yul\":13843:13844   */\n      0x00\n        /* \"#utility.yul\":13832:13841   */\n      dup4\n        /* \"#utility.yul\":13828:13845   */\n      add\n        /* \"#utility.yul\":13821:13868   */\n      mstore\n        /* \"#utility.yul\":13885:14016   */\n      tag_620\n        /* \"#utility.yul\":14011:14015   */\n      dup2\n        /* \"#utility.yul\":13885:14016   */\n      tag_432\n      jump\t// in\n    tag_620:\n        /* \"#utility.yul\":13877:14016   */\n      swap1\n      pop\n        /* \"#utility.yul\":13604:14023   */\n      swap2\n      swap1\n      pop\n      jump\t// out\n        /* \"#utility.yul\":14029:14192   */\n    tag_433:\n        /* \"#utility.yul\":14169:14184   */\n      0x6164647265737328746869732900000000000000000000000000000000000000\n        /* \"#utility.yul\":14165:14166   */\n      0x00\n        /* \"#utility.yul\":14157:14163   */\n      dup3\n        /* \"#utility.yul\":14153:14167   */\n      add\n        /* \"#utility.yul\":14146:14185   */\n      mstore\n        /* \"#utility.yul\":14029:14192   */\n      pop\n      jump\t// out\n        /* \"#utility.yul\":14198:14564   */\n    tag_434:\n        /* \"#utility.yul\":14340:14343   */\n      0x00\n        /* \"#utility.yul\":14361:14428   */\n      tag_623\n        /* \"#utility.yul\":14425:14427   */\n      0x0d\n        /* \"#utility.yul\":14420:14423   */\n      dup4\n        /* \"#utility.yul\":14361:14428   */\n      tag_416\n      jump\t// in\n    tag_623:\n        /* \"#utility.yul\":14354:14428   */\n      swap2\n      pop\n        /* \"#utility.yul\":14437:14530   */\n      tag_624\n        /* \"#utility.yul\":14526:14529   */\n      dup3\n        /* \"#utility.yul\":14437:14530   */\n      tag_433\n      jump\t// in\n    tag_624:\n        /* \"#utility.yul\":14555:14557   */\n      0x20\n        /* \"#utility.yul\":14550:14553   */\n      dup3\n        /* \"#utility.yul\":14546:14558   */\n      add\n        /* \"#utility.yul\":14539:14558   */\n      swap1\n      pop\n        /* \"#utility.yul\":14198:14564   */\n      swap2\n      swap1\n      pop\n      jump\t// out\n        /* \"#utility.yul\":14570:14989   */\n    tag_185:\n        /* \"#utility.yul\":14736:14740   */\n      0x00\n        /* \"#utility.yul\":14774:14776   */\n      0x20\n        /* \"#utility.yul\":14763:14772   */\n      dup3\n        /* \"#utility.yul\":14759:14777   */\n      add\n        /* \"#utility.yul\":14751:14777   */\n      swap1\n      pop\n        /* \"#utility.yul\":14823:14832   */\n      dup2\n        /* \"#utility.yul\":14817:14821   */\n      dup2\n        /* \"#utility.yul\":14813:14833   */\n      sub\n        /* \"#utility.yul\":14809:14810   */\n      0x00\n        /* \"#utility.yul\":14798:14807   */\n      dup4\n        /* \"#utility.yul\":14794:14811   */\n      add\n        /* \"#utility.yul\":14787:14834   */\n      mstore\n        /* \"#utility.yul\":14851:14982   */\n      tag_626\n        /* \"#utility.yul\":14977:14981   */\n      dup2\n        /* \"#utility.yul\":14851:14982   */\n      tag_434\n      jump\t// in\n    tag_626:\n        /* \"#utility.yul\":14843:14982   */\n      swap1\n      pop\n        /* \"#utility.yul\":14570:14989   */\n      swap2\n      swap1\n      pop\n      jump\t// out\n        /* \"#utility.yul\":14995:15159   */\n    tag_435:\n        /* \"#utility.yul\":15135:15151   */\n      0x747970652875696e74292e6d6178000000000000000000000000000000000000\n        /* \"#utility.yul\":15131:15132   */\n      0x00\n        /* \"#utility.yul\":15123:15129   */\n      dup3\n        /* \"#utility.yul\":15119:15133   */\n      add\n        /* \"#utility.yul\":15112:15152   */\n      mstore\n        /* \"#utility.yul\":14995:15159   */\n      pop\n      jump\t// out\n        /* \"#utility.yul\":15165:15531   */\n    tag_436:\n        /* \"#utility.yul\":15307:15310   */\n      0x00\n        /* \"#utility.yul\":15328:15395   */\n      tag_629\n        /* \"#utility.yul\":15392:15394   */\n      0x0e\n        /* \"#utility.yul\":15387:15390   */\n      dup4\n        /* \"#utility.yul\":15328:15395   */\n      tag_416\n      jump\t// in\n    tag_629:\n        /* \"#utility.yul\":15321:15395   */\n      swap2\n      pop\n        /* \"#utility.yul\":15404:15497   */\n      tag_630\n        /* \"#utility.yul\":15493:15496   */\n      dup3\n        /* \"#utility.yul\":15404:15497   */\n      tag_435\n      jump\t// in\n    tag_630:\n        /* \"#utility.yul\":15522:15524   */\n      0x20\n        /* \"#utility.yul\":15517:15520   */\n      dup3\n        /* \"#utility.yul\":15513:15525   */\n      add\n        /* \"#utility.yul\":15506:15525   */\n      swap1\n      pop\n        /* \"#utility.yul\":15165:15531   */\n      swap2\n      swap1\n      pop\n      jump\t// out\n        /* \"#utility.yul\":15537:15956   */\n    tag_188:\n        /* \"#utility.yul\":15703:15707   */\n      0x00\n        /* \"#utility.yul\":15741:15743   */\n      0x20\n        /* \"#utility.yul\":15730:15739   */\n      dup3\n        /* \"#utility.yul\":15726:15744   */\n      add\n        /* \"#utility.yul\":15718:15744   */\n      swap1\n      pop\n        /* \"#utility.yul\":15790:15799   */\n      dup2\n        /* \"#utility.yul\":15784:15788   */\n      dup2\n        /* \"#utility.yul\":15780:15800   */\n      sub\n        /* \"#utility.yul\":15776:15777   */\n      0x00\n        /* \"#utility.yul\":15765:15774   */\n      dup4\n        /* \"#utility.yul\":15761:15778   */\n      add\n        /* \"#utility.yul\":15754:15801   */\n      mstore\n        /* \"#utility.yul\":15818:15949   */\n      tag_632\n        /* \"#utility.yul\":15944:15948   */\n      dup2\n        /* \"#utility.yul\":15818:15949   */\n      tag_436\n      jump\t// in\n    tag_632:\n        /* \"#utility.yul\":15810:15949   */\n      swap1\n      pop\n        /* \"#utility.yul\":15537:15956   */\n      swap2\n      swap1\n      pop\n      jump\t// out\n        /* \"#utility.yul\":15962:16134   */\n    tag_437:\n        /* \"#utility.yul\":16102:16126   */\n      0x4c6971756964697479204e6f742050726f766964656400000000000000000000\n        /* \"#utility.yul\":16098:16099   */\n      0x00\n        /* \"#utility.yul\":16090:16096   */\n      dup3\n        /* \"#utility.yul\":16086:16100   */\n      add\n        /* \"#utility.yul\":16079:16127   */\n      mstore\n        /* \"#utility.yul\":15962:16134   */\n      pop\n      jump\t// out\n        /* \"#utility.yul\":16140:16506   */\n    tag_438:\n        /* \"#utility.yul\":16282:16285   */\n      0x00\n        /* \"#utility.yul\":16303:16370   */\n      tag_635\n        /* \"#utility.yul\":16367:16369   */\n      0x16\n        /* \"#utility.yul\":16362:16365   */\n      dup4\n        /* \"#utility.yul\":16303:16370   */\n      tag_416\n      jump\t// in\n    tag_635:\n        /* \"#utility.yul\":16296:16370   */\n      swap2\n      pop\n        /* \"#utility.yul\":16379:16472   */\n      tag_636\n        /* \"#utility.yul\":16468:16471   */\n      dup3\n        /* \"#utility.yul\":16379:16472   */\n      tag_437\n      jump\t// in\n    tag_636:\n        /* \"#utility.yul\":16497:16499   */\n      0x20\n        /* \"#utility.yul\":16492:16495   */\n      dup3\n        /* \"#utility.yul\":16488:16500   */\n      add\n        /* \"#utility.yul\":16481:16500   */\n      swap1\n      pop\n        /* \"#utility.yul\":16140:16506   */\n      swap2\n      swap1\n      pop\n      jump\t// out\n        /* \"#utility.yul\":16512:16931   */\n    tag_191:\n        /* \"#utility.yul\":16678:16682   */\n      0x00\n        /* \"#utility.yul\":16716:16718   */\n      0x20\n        /* \"#utility.yul\":16705:16714   */\n      dup3\n        /* \"#utility.yul\":16701:16719   */\n      add\n        /* \"#utility.yul\":16693:16719   */\n      swap1\n      pop\n        /* \"#utility.yul\":16765:16774   */\n      dup2\n        /* \"#utility.yul\":16759:16763   */\n      dup2\n        /* \"#utility.yul\":16755:16775   */\n      sub\n        /* \"#utility.yul\":16751:16752   */\n      0x00\n        /* \"#utility.yul\":16740:16749   */\n      dup4\n        /* \"#utility.yul\":16736:16753   */\n      add\n        /* \"#utility.yul\":16729:16776   */\n      mstore\n        /* \"#utility.yul\":16793:16924   */\n      tag_638\n        /* \"#utility.yul\":16919:16923   */\n      dup2\n        /* \"#utility.yul\":16793:16924   */\n      tag_438\n      jump\t// in\n    tag_638:\n        /* \"#utility.yul\":16785:16924   */\n      swap1\n      pop\n        /* \"#utility.yul\":16512:16931   */\n      swap2\n      swap1\n      pop\n      jump\t// out\n        /* \"#utility.yul\":16937:17118   */\n    tag_439:\n        /* \"#utility.yul\":17077:17110   */\n      0x6c6971756964697479205375636365737366756c6c792050726f766964656400\n        /* \"#utility.yul\":17073:17074   */\n      0x00\n        /* \"#utility.yul\":17065:17071   */\n      dup3\n        /* \"#utility.yul\":17061:17075   */\n      add\n        /* \"#utility.yul\":17054:17111   */\n      mstore\n        /* \"#utility.yul\":16937:17118   */\n      pop\n      jump\t// out\n        /* \"#utility.yul\":17124:17490   */\n    tag_440:\n        /* \"#utility.yul\":17266:17269   */\n      0x00\n        /* \"#utility.yul\":17287:17354   */\n      tag_641\n        /* \"#utility.yul\":17351:17353   */\n      0x1f\n        /* \"#utility.yul\":17346:17349   */\n      dup4\n        /* \"#utility.yul\":17287:17354   */\n      tag_416\n      jump\t// in\n    tag_641:\n        /* \"#utility.yul\":17280:17354   */\n      swap2\n      pop\n        /* \"#utility.yul\":17363:17456   */\n      tag_642\n        /* \"#utility.yul\":17452:17455   */\n      dup3\n        /* \"#utility.yul\":17363:17456   */\n      tag_439\n      jump\t// in\n    tag_642:\n        /* \"#utility.yul\":17481:17483   */\n      0x20\n        /* \"#utility.yul\":17476:17479   */\n      dup3\n        /* \"#utility.yul\":17472:17484   */\n      add\n        /* \"#utility.yul\":17465:17484   */\n      swap1\n      pop\n        /* \"#utility.yul\":17124:17490   */\n      swap2\n      swap1\n      pop\n      jump\t// out\n        /* \"#utility.yul\":17496:17915   */\n    tag_194:\n        /* \"#utility.yul\":17662:17666   */\n      0x00\n        /* \"#utility.yul\":17700:17702   */\n      0x20\n        /* \"#utility.yul\":17689:17698   */\n      dup3\n        /* \"#utility.yul\":17685:17703   */\n      add\n        /* \"#utility.yul\":17677:17703   */\n      swap1\n      pop\n        /* \"#utility.yul\":17749:17758   */\n      dup2\n        /* \"#utility.yul\":17743:17747   */\n      dup2\n        /* \"#utility.yul\":17739:17759   */\n      sub\n        /* \"#utility.yul\":17735:17736   */\n      0x00\n        /* \"#utility.yul\":17724:17733   */\n      dup4\n        /* \"#utility.yul\":17720:17737   */\n      add\n        /* \"#utility.yul\":17713:17760   */\n      mstore\n        /* \"#utility.yul\":17777:17908   */\n      tag_644\n        /* \"#utility.yul\":17903:17907   */\n      dup2\n        /* \"#utility.yul\":17777:17908   */\n      tag_440\n      jump\t// in\n    tag_644:\n        /* \"#utility.yul\":17769:17908   */\n      swap1\n      pop\n        /* \"#utility.yul\":17496:17915   */\n      swap2\n      swap1\n      pop\n      jump\t// out\n        /* \"#utility.yul\":17921:18089   */\n    tag_441:\n        /* \"#utility.yul\":18061:18081   */\n      0x70726576696f757320486f6c6465722069730000000000000000000000000000\n        /* \"#utility.yul\":18057:18058   */\n      0x00\n        /* \"#utility.yul\":18049:18055   */\n      dup3\n        /* \"#utility.yul\":18045:18059   */\n      add\n        /* \"#utility.yul\":18038:18082   */\n      mstore\n        /* \"#utility.yul\":17921:18089   */\n      pop\n      jump\t// out\n        /* \"#utility.yul\":18095:18461   */\n    tag_442:\n        /* \"#utility.yul\":18237:18240   */\n      0x00\n        /* \"#utility.yul\":18258:18325   */\n      tag_647\n        /* \"#utility.yul\":18322:18324   */\n      0x12\n        /* \"#utility.yul\":18317:18320   */\n      dup4\n        /* \"#utility.yul\":18258:18325   */\n      tag_416\n      jump\t// in\n    tag_647:\n        /* \"#utility.yul\":18251:18325   */\n      swap2\n      pop\n        /* \"#utility.yul\":18334:18427   */\n      tag_648\n        /* \"#utility.yul\":18423:18426   */\n      dup3\n        /* \"#utility.yul\":18334:18427   */\n      tag_441\n      jump\t// in\n    tag_648:\n        /* \"#utility.yul\":18452:18454   */\n      0x20\n        /* \"#utility.yul\":18447:18450   */\n      dup3\n        /* \"#utility.yul\":18443:18455   */\n      add\n        /* \"#utility.yul\":18436:18455   */\n      swap1\n      pop\n        /* \"#utility.yul\":18095:18461   */\n      swap2\n      swap1\n      pop\n      jump\t// out\n        /* \"#utility.yul\":18467:18886   */\n    tag_246:\n        /* \"#utility.yul\":18633:18637   */\n      0x00\n        /* \"#utility.yul\":18671:18673   */\n      0x20\n        /* \"#utility.yul\":18660:18669   */\n      dup3\n        /* \"#utility.yul\":18656:18674   */\n      add\n        /* \"#utility.yul\":18648:18674   */\n      swap1\n      pop\n        /* \"#utility.yul\":18720:18729   */\n      dup2\n        /* \"#utility.yul\":18714:18718   */\n      dup2\n        /* \"#utility.yul\":18710:18730   */\n      sub\n        /* \"#utility.yul\":18706:18707   */\n      0x00\n        /* \"#utility.yul\":18695:18704   */\n      dup4\n        /* \"#utility.yul\":18691:18708   */\n      add\n        /* \"#utility.yul\":18684:18731   */\n      mstore\n        /* \"#utility.yul\":18748:18879   */\n      tag_650\n        /* \"#utility.yul\":18874:18878   */\n      dup2\n        /* \"#utility.yul\":18748:18879   */\n      tag_442\n      jump\t// in\n    tag_650:\n        /* \"#utility.yul\":18740:18879   */\n      swap1\n      pop\n        /* \"#utility.yul\":18467:18886   */\n      swap2\n      swap1\n      pop\n      jump\t// out\n        /* \"#utility.yul\":18892:19067   */\n    tag_443:\n        /* \"#utility.yul\":19032:19059   */\n      0x63757272656e74206c69717569646974792070657263656e7400000000000000\n        /* \"#utility.yul\":19028:19029   */\n      0x00\n        /* \"#utility.yul\":19020:19026   */\n      dup3\n        /* \"#utility.yul\":19016:19030   */\n      add\n        /* \"#utility.yul\":19009:19060   */\n      mstore\n        /* \"#utility.yul\":18892:19067   */\n      pop\n      jump\t// out\n        /* \"#utility.yul\":19073:19439   */\n    tag_444:\n        /* \"#utility.yul\":19215:19218   */\n      0x00\n        /* \"#utility.yul\":19236:19303   */\n      tag_653\n        /* \"#utility.yul\":19300:19302   */\n      0x19\n        /* \"#utility.yul\":19295:19298   */\n      dup4\n        /* \"#utility.yul\":19236:19303   */\n      tag_416\n      jump\t// in\n    tag_653:\n        /* \"#utility.yul\":19229:19303   */\n      swap2\n      pop\n        /* \"#utility.yul\":19312:19405   */\n      tag_654\n        /* \"#utility.yul\":19401:19404   */\n      dup3\n        /* \"#utility.yul\":19312:19405   */\n      tag_443\n      jump\t// in\n    tag_654:\n        /* \"#utility.yul\":19430:19432   */\n      0x20\n        /* \"#utility.yul\":19425:19428   */\n      dup3\n        /* \"#utility.yul\":19421:19433   */\n      add\n        /* \"#utility.yul\":19414:19433   */\n      swap1\n      pop\n        /* \"#utility.yul\":19073:19439   */\n      swap2\n      swap1\n      pop\n      jump\t// out\n        /* \"#utility.yul\":19445:19864   */\n    tag_249:\n        /* \"#utility.yul\":19611:19615   */\n      0x00\n        /* \"#utility.yul\":19649:19651   */\n      0x20\n        /* \"#utility.yul\":19638:19647   */\n      dup3\n        /* \"#utility.yul\":19634:19652   */\n      add\n        /* \"#utility.yul\":19626:19652   */\n      swap1\n      pop\n        /* \"#utility.yul\":19698:19707   */\n      dup2\n        /* \"#utility.yul\":19692:19696   */\n      dup2\n        /* \"#utility.yul\":19688:19708   */\n      sub\n        /* \"#utility.yul\":19684:19685   */\n      0x00\n        /* \"#utility.yul\":19673:19682   */\n      dup4\n        /* \"#utility.yul\":19669:19686   */\n      add\n        /* \"#utility.yul\":19662:19709   */\n      mstore\n        /* \"#utility.yul\":19726:19857   */\n      tag_656\n        /* \"#utility.yul\":19852:19856   */\n      dup2\n        /* \"#utility.yul\":19726:19857   */\n      tag_444\n      jump\t// in\n    tag_656:\n        /* \"#utility.yul\":19718:19857   */\n      swap1\n      pop\n        /* \"#utility.yul\":19445:19864   */\n      swap2\n      swap1\n      pop\n      jump\t// out\n        /* \"#utility.yul\":19870:20061   */\n    tag_256:\n        /* \"#utility.yul\":19910:19913   */\n      0x00\n        /* \"#utility.yul\":19929:19949   */\n      tag_658\n        /* \"#utility.yul\":19947:19948   */\n      dup3\n        /* \"#utility.yul\":19929:19949   */\n      tag_406\n      jump\t// in\n    tag_658:\n        /* \"#utility.yul\":19924:19949   */\n      swap2\n      pop\n        /* \"#utility.yul\":19963:19983   */\n      tag_659\n        /* \"#utility.yul\":19981:19982   */\n      dup4\n        /* \"#utility.yul\":19963:19983   */\n      tag_406\n      jump\t// in\n    tag_659:\n        /* \"#utility.yul\":19958:19983   */\n      swap3\n      pop\n        /* \"#utility.yul\":20006:20007   */\n      dup3\n        /* \"#utility.yul\":20003:20004   */\n      dup3\n        /* \"#utility.yul\":19999:20008   */\n      add\n        /* \"#utility.yul\":19992:20008   */\n      swap1\n      pop\n        /* \"#utility.yul\":20027:20030   */\n      dup1\n        /* \"#utility.yul\":20024:20025   */\n      dup3\n        /* \"#utility.yul\":20021:20031   */\n      gt\n        /* \"#utility.yul\":20018:20054   */\n      iszero\n      tag_660\n      jumpi\n        /* \"#utility.yul\":20034:20052   */\n      tag_661\n      tag_414\n      jump\t// in\n    tag_661:\n        /* \"#utility.yul\":20018:20054   */\n    tag_660:\n        /* \"#utility.yul\":19870:20061   */\n      swap3\n      swap2\n      pop\n      pop\n      jump\t// out\n        /* \"#utility.yul\":20067:20237   */\n    tag_445:\n        /* \"#utility.yul\":20207:20229   */\n      0x746f6b656e732063616e74206265206275726e74000000000000000000000000\n        /* \"#utility.yul\":20203:20204   */\n      0x00\n        /* \"#utility.yul\":20195:20201   */\n      dup3\n        /* \"#utility.yul\":20191:20205   */\n      add\n        /* \"#utility.yul\":20184:20230   */\n      mstore\n        /* \"#utility.yul\":20067:20237   */\n      pop\n      jump\t// out\n        /* \"#utility.yul\":20243:20609   */\n    tag_446:\n        /* \"#utility.yul\":20385:20388   */\n      0x00\n        /* \"#utility.yul\":20406:20473   */\n      tag_664\n        /* \"#utility.yul\":20470:20472   */\n      0x14\n        /* \"#utility.yul\":20465:20468   */\n      dup4\n        /* \"#utility.yul\":20406:20473   */\n      tag_416\n      jump\t// in\n    tag_664:\n        /* \"#utility.yul\":20399:20473   */\n      swap2\n      pop\n        /* \"#utility.yul\":20482:20575   */\n      tag_665\n        /* \"#utility.yul\":20571:20574   */\n      dup3\n        /* \"#utility.yul\":20482:20575   */\n      tag_445\n      jump\t// in\n    tag_665:\n        /* \"#utility.yul\":20600:20602   */\n      0x20\n        /* \"#utility.yul\":20595:20598   */\n      dup3\n        /* \"#utility.yul\":20591:20603   */\n      add\n        /* \"#utility.yul\":20584:20603   */\n      swap1\n      pop\n        /* \"#utility.yul\":20243:20609   */\n      swap2\n      swap1\n      pop\n      jump\t// out\n        /* \"#utility.yul\":20615:21034   */\n    tag_274:\n        /* \"#utility.yul\":20781:20785   */\n      0x00\n        /* \"#utility.yul\":20819:20821   */\n      0x20\n        /* \"#utility.yul\":20808:20817   */\n      dup3\n        /* \"#utility.yul\":20804:20822   */\n      add\n        /* \"#utility.yul\":20796:20822   */\n      swap1\n      pop\n        /* \"#utility.yul\":20868:20877   */\n      dup2\n        /* \"#utility.yul\":20862:20866   */\n      dup2\n        /* \"#utility.yul\":20858:20878   */\n      sub\n        /* \"#utility.yul\":20854:20855   */\n      0x00\n        /* \"#utility.yul\":20843:20852   */\n      dup4\n        /* \"#utility.yul\":20839:20856   */\n      add\n        /* \"#utility.yul\":20832:20879   */\n      mstore\n        /* \"#utility.yul\":20896:21027   */\n      tag_667\n        /* \"#utility.yul\":21022:21026   */\n      dup2\n        /* \"#utility.yul\":20896:21027   */\n      tag_446\n      jump\t// in\n    tag_667:\n        /* \"#utility.yul\":20888:21027   */\n      swap1\n      pop\n        /* \"#utility.yul\":20615:21034   */\n      swap2\n      swap1\n      pop\n      jump\t// out\n        /* \"#utility.yul\":21040:21212   */\n    tag_447:\n        /* \"#utility.yul\":21180:21204   */\n      0x746f6b656e732068617665206265656e206275726e7400000000000000000000\n        /* \"#utility.yul\":21176:21177   */\n      0x00\n        /* \"#utility.yul\":21168:21174   */\n      dup3\n        /* \"#utility.yul\":21164:21178   */\n      add\n        /* \"#utility.yul\":21157:21205   */\n      mstore\n        /* \"#utility.yul\":21040:21212   */\n      pop\n      jump\t// out\n        /* \"#utility.yul\":21218:21584   */\n    tag_448:\n        /* \"#utility.yul\":21360:21363   */\n      0x00\n        /* \"#utility.yul\":21381:21448   */\n      tag_670\n        /* \"#utility.yul\":21445:21447   */\n      0x16\n        /* \"#utility.yul\":21440:21443   */\n      dup4\n        /* \"#utility.yul\":21381:21448   */\n      tag_416\n      jump\t// in\n    tag_670:\n        /* \"#utility.yul\":21374:21448   */\n      swap2\n      pop\n        /* \"#utility.yul\":21457:21550   */\n      tag_671\n        /* \"#utility.yul\":21546:21549   */\n      dup3\n        /* \"#utility.yul\":21457:21550   */\n      tag_447\n      jump\t// in\n    tag_671:\n        /* \"#utility.yul\":21575:21577   */\n      0x20\n        /* \"#utility.yul\":21570:21573   */\n      dup3\n        /* \"#utility.yul\":21566:21578   */\n      add\n        /* \"#utility.yul\":21559:21578   */\n      swap1\n      pop\n        /* \"#utility.yul\":21218:21584   */\n      swap2\n      swap1\n      pop\n      jump\t// out\n        /* \"#utility.yul\":21590:22009   */\n    tag_277:\n        /* \"#utility.yul\":21756:21760   */\n      0x00\n        /* \"#utility.yul\":21794:21796   */\n      0x20\n        /* \"#utility.yul\":21783:21792   */\n      dup3\n        /* \"#utility.yul\":21779:21797   */\n      add\n        /* \"#utility.yul\":21771:21797   */\n      swap1\n      pop\n        /* \"#utility.yul\":21843:21852   */\n      dup2\n        /* \"#utility.yul\":21837:21841   */\n      dup2\n        /* \"#utility.yul\":21833:21853   */\n      sub\n        /* \"#utility.yul\":21829:21830   */\n      0x00\n        /* \"#utility.yul\":21818:21827   */\n      dup4\n        /* \"#utility.yul\":21814:21831   */\n      add\n        /* \"#utility.yul\":21807:21854   */\n      mstore\n        /* \"#utility.yul\":21871:22002   */\n      tag_673\n        /* \"#utility.yul\":21997:22001   */\n      dup2\n        /* \"#utility.yul\":21871:22002   */\n      tag_448\n      jump\t// in\n    tag_673:\n        /* \"#utility.yul\":21863:22002   */\n      swap1\n      pop\n        /* \"#utility.yul\":21590:22009   */\n      swap2\n      swap1\n      pop\n      jump\t// out\n        /* \"#utility.yul\":22015:22806   */\n    tag_302:\n        /* \"#utility.yul\":22256:22260   */\n      0x00\n        /* \"#utility.yul\":22294:22297   */\n      0xc0\n        /* \"#utility.yul\":22283:22292   */\n      dup3\n        /* \"#utility.yul\":22279:22298   */\n      add\n        /* \"#utility.yul\":22271:22298   */\n      swap1\n      pop\n        /* \"#utility.yul\":22308:22379   */\n      tag_675\n        /* \"#utility.yul\":22376:22377   */\n      0x00\n        /* \"#utility.yul\":22365:22374   */\n      dup4\n        /* \"#utility.yul\":22361:22378   */\n      add\n        /* \"#utility.yul\":22352:22358   */\n      dup10\n        /* \"#utility.yul\":22308:22379   */\n      tag_405\n      jump\t// in\n    tag_675:\n        /* \"#utility.yul\":22389:22461   */\n      tag_676\n        /* \"#utility.yul\":22457:22459   */\n      0x20\n        /* \"#utility.yul\":22446:22455   */\n      dup4\n        /* \"#utility.yul\":22442:22460   */\n      add\n        /* \"#utility.yul\":22433:22439   */\n      dup9\n        /* \"#utility.yul\":22389:22461   */\n      tag_409\n      jump\t// in\n    tag_676:\n        /* \"#utility.yul\":22471:22551   */\n      tag_677\n        /* \"#utility.yul\":22547:22549   */\n      0x40\n        /* \"#utility.yul\":22536:22545   */\n      dup4\n        /* \"#utility.yul\":22532:22550   */\n      add\n        /* \"#utility.yul\":22523:22529   */\n      dup8\n        /* \"#utility.yul\":22471:22551   */\n      tag_426\n      jump\t// in\n    tag_677:\n        /* \"#utility.yul\":22561:22633   */\n      tag_678\n        /* \"#utility.yul\":22629:22631   */\n      0x60\n        /* \"#utility.yul\":22618:22627   */\n      dup4\n        /* \"#utility.yul\":22614:22632   */\n      add\n        /* \"#utility.yul\":22605:22611   */\n      dup7\n        /* \"#utility.yul\":22561:22633   */\n      tag_409\n      jump\t// in\n    tag_678:\n        /* \"#utility.yul\":22643:22716   */\n      tag_679\n        /* \"#utility.yul\":22711:22714   */\n      0x80\n        /* \"#utility.yul\":22700:22709   */\n      dup4\n        /* \"#utility.yul\":22696:22715   */\n      add\n        /* \"#utility.yul\":22687:22693   */\n      dup6\n        /* \"#utility.yul\":22643:22716   */\n      tag_405\n      jump\t// in\n    tag_679:\n        /* \"#utility.yul\":22726:22799   */\n      tag_680\n        /* \"#utility.yul\":22794:22797   */\n      0xa0\n        /* \"#utility.yul\":22783:22792   */\n      dup4\n        /* \"#utility.yul\":22779:22798   */\n      add\n        /* \"#utility.yul\":22770:22776   */\n      dup5\n        /* \"#utility.yul\":22726:22799   */\n      tag_409\n      jump\t// in\n    tag_680:\n        /* \"#utility.yul\":22015:22806   */\n      swap8\n      swap7\n      pop\n      pop\n      pop\n      pop\n      pop\n      pop\n      pop\n      jump\t// out\n        /* \"#utility.yul\":22812:22991   */\n    tag_449:\n        /* \"#utility.yul\":22952:22983   */\n      0x70726963652063616e7420626520676f742066726f6d204f7261636c65000000\n        /* \"#utility.yul\":22948:22949   */\n      0x00\n        /* \"#utility.yul\":22940:22946   */\n      dup3\n        /* \"#utility.yul\":22936:22950   */\n      add\n        /* \"#utility.yul\":22929:22984   */\n      mstore\n        /* \"#utility.yul\":22812:22991   */\n      pop\n      jump\t// out\n        /* \"#utility.yul\":22997:23363   */\n    tag_450:\n        /* \"#utility.yul\":23139:23142   */\n      0x00\n        /* \"#utility.yul\":23160:23227   */\n      tag_683\n        /* \"#utility.yul\":23224:23226   */\n      0x1d\n        /* \"#utility.yul\":23219:23222   */\n      dup4\n        /* \"#utility.yul\":23160:23227   */\n      tag_416\n      jump\t// in\n    tag_683:\n        /* \"#utility.yul\":23153:23227   */\n      swap2\n      pop\n        /* \"#utility.yul\":23236:23329   */\n      tag_684\n        /* \"#utility.yul\":23325:23328   */\n      dup3\n        /* \"#utility.yul\":23236:23329   */\n      tag_449\n      jump\t// in\n    tag_684:\n        /* \"#utility.yul\":23354:23356   */\n      0x20\n        /* \"#utility.yul\":23349:23352   */\n      dup3\n        /* \"#utility.yul\":23345:23357   */\n      add\n        /* \"#utility.yul\":23338:23357   */\n      swap1\n      pop\n        /* \"#utility.yul\":22997:23363   */\n      swap2\n      swap1\n      pop\n      jump\t// out\n        /* \"#utility.yul\":23369:23788   */\n    tag_329:\n        /* \"#utility.yul\":23535:23539   */\n      0x00\n        /* \"#utility.yul\":23573:23575   */\n      0x20\n        /* \"#utility.yul\":23562:23571   */\n      dup3\n        /* \"#utility.yul\":23558:23576   */\n      add\n        /* \"#utility.yul\":23550:23576   */\n      swap1\n      pop\n        /* \"#utility.yul\":23622:23631   */\n      dup2\n        /* \"#utility.yul\":23616:23620   */\n      dup2\n        /* \"#utility.yul\":23612:23632   */\n      sub\n        /* \"#utility.yul\":23608:23609   */\n      0x00\n        /* \"#utility.yul\":23597:23606   */\n      dup4\n        /* \"#utility.yul\":23593:23610   */\n      add\n        /* \"#utility.yul\":23586:23633   */\n      mstore\n        /* \"#utility.yul\":23650:23781   */\n      tag_686\n        /* \"#utility.yul\":23776:23780   */\n      dup2\n        /* \"#utility.yul\":23650:23781   */\n      tag_450\n      jump\t// in\n    tag_686:\n        /* \"#utility.yul\":23642:23781   */\n      swap1\n      pop\n        /* \"#utility.yul\":23369:23788   */\n      swap2\n      swap1\n      pop\n      jump\t// out\n        /* \"#utility.yul\":23794:24019   */\n    tag_451:\n        /* \"#utility.yul\":23934:23968   */\n      0x707269636520676f742066726f6d204f7261636c652062757420636f756c646e\n        /* \"#utility.yul\":23930:23931   */\n      0x00\n        /* \"#utility.yul\":23922:23928   */\n      dup3\n        /* \"#utility.yul\":23918:23932   */\n      add\n        /* \"#utility.yul\":23911:23969   */\n      mstore\n        /* \"#utility.yul\":24003:24011   */\n      0x74206d696e740000000000000000000000000000000000000000000000000000\n        /* \"#utility.yul\":23998:24000   */\n      0x20\n        /* \"#utility.yul\":23990:23996   */\n      dup3\n        /* \"#utility.yul\":23986:24001   */\n      add\n        /* \"#utility.yul\":23979:24012   */\n      mstore\n        /* \"#utility.yul\":23794:24019   */\n      pop\n      jump\t// out\n        /* \"#utility.yul\":24025:24391   */\n    tag_452:\n        /* \"#utility.yul\":24167:24170   */\n      0x00\n        /* \"#utility.yul\":24188:24255   */\n      tag_689\n        /* \"#utility.yul\":24252:24254   */\n      0x26\n        /* \"#utility.yul\":24247:24250   */\n      dup4\n        /* \"#utility.yul\":24188:24255   */\n      tag_416\n      jump\t// in\n    tag_689:\n        /* \"#utility.yul\":24181:24255   */\n      swap2\n      pop\n        /* \"#utility.yul\":24264:24357   */\n      tag_690\n        /* \"#utility.yul\":24353:24356   */\n      dup3\n        /* \"#utility.yul\":24264:24357   */\n      tag_451\n      jump\t// in\n    tag_690:\n        /* \"#utility.yul\":24382:24384   */\n      0x40\n        /* \"#utility.yul\":24377:24380   */\n      dup3\n        /* \"#utility.yul\":24373:24385   */\n      add\n        /* \"#utility.yul\":24366:24385   */\n      swap1\n      pop\n        /* \"#utility.yul\":24025:24391   */\n      swap2\n      swap1\n      pop\n      jump\t// out\n        /* \"#utility.yul\":24397:24816   */\n    tag_343:\n        /* \"#utility.yul\":24563:24567   */\n      0x00\n        /* \"#utility.yul\":24601:24603   */\n      0x20\n        /* \"#utility.yul\":24590:24599   */\n      dup3\n        /* \"#utility.yul\":24586:24604   */\n      add\n        /* \"#utility.yul\":24578:24604   */\n      swap1\n      pop\n        /* \"#utility.yul\":24650:24659   */\n      dup2\n        /* \"#utility.yul\":24644:24648   */\n      dup2\n        /* \"#utility.yul\":24640:24660   */\n      sub\n        /* \"#utility.yul\":24636:24637   */\n      0x00\n        /* \"#utility.yul\":24625:24634   */\n      dup4\n        /* \"#utility.yul\":24621:24638   */\n      add\n        /* \"#utility.yul\":24614:24661   */\n      mstore\n        /* \"#utility.yul\":24678:24809   */\n      tag_692\n        /* \"#utility.yul\":24804:24808   */\n      dup2\n        /* \"#utility.yul\":24678:24809   */\n      tag_452\n      jump\t// in\n    tag_692:\n        /* \"#utility.yul\":24670:24809   */\n      swap1\n      pop\n        /* \"#utility.yul\":24397:24816   */\n      swap2\n      swap1\n      pop\n      jump\t// out\n        /* \"#utility.yul\":24822:25004   */\n    tag_453:\n        /* \"#utility.yul\":24962:24996   */\n      0x746f6b656e73206d696e74656420746f2070726576696f757320686f6c646572\n        /* \"#utility.yul\":24958:24959   */\n      0x00\n        /* \"#utility.yul\":24950:24956   */\n      dup3\n        /* \"#utility.yul\":24946:24960   */\n      add\n        /* \"#utility.yul\":24939:24997   */\n      mstore\n        /* \"#utility.yul\":24822:25004   */\n      pop\n      jump\t// out\n        /* \"#utility.yul\":25010:25376   */\n    tag_454:\n        /* \"#utility.yul\":25152:25155   */\n      0x00\n        /* \"#utility.yul\":25173:25240   */\n      tag_695\n        /* \"#utility.yul\":25237:25239   */\n      0x20\n        /* \"#utility.yul\":25232:25235   */\n      dup4\n        /* \"#utility.yul\":25173:25240   */\n      tag_416\n      jump\t// in\n    tag_695:\n        /* \"#utility.yul\":25166:25240   */\n      swap2\n      pop\n        /* \"#utility.yul\":25249:25342   */\n      tag_696\n        /* \"#utility.yul\":25338:25341   */\n      dup3\n        /* \"#utility.yul\":25249:25342   */\n      tag_453\n      jump\t// in\n    tag_696:\n        /* \"#utility.yul\":25367:25369   */\n      0x20\n        /* \"#utility.yul\":25362:25365   */\n      dup3\n        /* \"#utility.yul\":25358:25370   */\n      add\n        /* \"#utility.yul\":25351:25370   */\n      swap1\n      pop\n        /* \"#utility.yul\":25010:25376   */\n      swap2\n      swap1\n      pop\n      jump\t// out\n        /* \"#utility.yul\":25382:25801   */\n    tag_346:\n        /* \"#utility.yul\":25548:25552   */\n      0x00\n        /* \"#utility.yul\":25586:25588   */\n      0x20\n        /* \"#utility.yul\":25575:25584   */\n      dup3\n        /* \"#utility.yul\":25571:25589   */\n      add\n        /* \"#utility.yul\":25563:25589   */\n      swap1\n      pop\n        /* \"#utility.yul\":25635:25644   */\n      dup2\n        /* \"#utility.yul\":25629:25633   */\n      dup2\n        /* \"#utility.yul\":25625:25645   */\n      sub\n        /* \"#utility.yul\":25621:25622   */\n      0x00\n        /* \"#utility.yul\":25610:25619   */\n      dup4\n        /* \"#utility.yul\":25606:25623   */\n      add\n        /* \"#utility.yul\":25599:25646   */\n      mstore\n        /* \"#utility.yul\":25663:25794   */\n      tag_698\n        /* \"#utility.yul\":25789:25793   */\n      dup2\n        /* \"#utility.yul\":25663:25794   */\n      tag_454\n      jump\t// in\n    tag_698:\n        /* \"#utility.yul\":25655:25794   */\n      swap1\n      pop\n        /* \"#utility.yul\":25382:25801   */\n      swap2\n      swap1\n      pop\n      jump\t// out\n        /* \"#utility.yul\":25807:26027   */\n    tag_455:\n        /* \"#utility.yul\":25947:25981   */\n      0x63616e74206765742062616c616e6365206f66207468697320636f6e74726163\n        /* \"#utility.yul\":25943:25944   */\n      0x00\n        /* \"#utility.yul\":25935:25941   */\n      dup3\n        /* \"#utility.yul\":25931:25945   */\n      add\n        /* \"#utility.yul\":25924:25982   */\n      mstore\n        /* \"#utility.yul\":26016:26019   */\n      0x7400000000000000000000000000000000000000000000000000000000000000\n        /* \"#utility.yul\":26011:26013   */\n      0x20\n        /* \"#utility.yul\":26003:26009   */\n      dup3\n        /* \"#utility.yul\":25999:26014   */\n      add\n        /* \"#utility.yul\":25992:26020   */\n      mstore\n        /* \"#utility.yul\":25807:26027   */\n      pop\n      jump\t// out\n        /* \"#utility.yul\":26033:26399   */\n    tag_456:\n        /* \"#utility.yul\":26175:26178   */\n      0x00\n        /* \"#utility.yul\":26196:26263   */\n      tag_701\n        /* \"#utility.yul\":26260:26262   */\n      0x21\n        /* \"#utility.yul\":26255:26258   */\n      dup4\n        /* \"#utility.yul\":26196:26263   */\n      tag_416\n      jump\t// in\n    tag_701:\n        /* \"#utility.yul\":26189:26263   */\n      swap2\n      pop\n        /* \"#utility.yul\":26272:26365   */\n      tag_702\n        /* \"#utility.yul\":26361:26364   */\n      dup3\n        /* \"#utility.yul\":26272:26365   */\n      tag_455\n      jump\t// in\n    tag_702:\n        /* \"#utility.yul\":26390:26392   */\n      0x40\n        /* \"#utility.yul\":26385:26388   */\n      dup3\n        /* \"#utility.yul\":26381:26393   */\n      add\n        /* \"#utility.yul\":26374:26393   */\n      swap1\n      pop\n        /* \"#utility.yul\":26033:26399   */\n      swap2\n      swap1\n      pop\n      jump\t// out\n        /* \"#utility.yul\":26405:26824   */\n    tag_356:\n        /* \"#utility.yul\":26571:26575   */\n      0x00\n        /* \"#utility.yul\":26609:26611   */\n      0x20\n        /* \"#utility.yul\":26598:26607   */\n      dup3\n        /* \"#utility.yul\":26594:26612   */\n      add\n        /* \"#utility.yul\":26586:26612   */\n      swap1\n      pop\n        /* \"#utility.yul\":26658:26667   */\n      dup2\n        /* \"#utility.yul\":26652:26656   */\n      dup2\n        /* \"#utility.yul\":26648:26668   */\n      sub\n        /* \"#utility.yul\":26644:26645   */\n      0x00\n        /* \"#utility.yul\":26633:26642   */\n      dup4\n        /* \"#utility.yul\":26629:26646   */\n      add\n        /* \"#utility.yul\":26622:26669   */\n      mstore\n        /* \"#utility.yul\":26686:26817   */\n      tag_704\n        /* \"#utility.yul\":26812:26816   */\n      dup2\n        /* \"#utility.yul\":26686:26817   */\n      tag_456\n      jump\t// in\n    tag_704:\n        /* \"#utility.yul\":26678:26817   */\n      swap1\n      pop\n        /* \"#utility.yul\":26405:26824   */\n      swap2\n      swap1\n      pop\n      jump\t// out\n        /* \"#utility.yul\":26830:27006   */\n    tag_457:\n        /* \"#utility.yul\":26970:26998   */\n      0x63616e74206765742070726963652066726f6d204f7261636c65000000000000\n        /* \"#utility.yul\":26966:26967   */\n      0x00\n        /* \"#utility.yul\":26958:26964   */\n      dup3\n        /* \"#utility.yul\":26954:26968   */\n      add\n        /* \"#utility.yul\":26947:26999   */\n      mstore\n        /* \"#utility.yul\":26830:27006   */\n      pop\n      jump\t// out\n        /* \"#utility.yul\":27012:27378   */\n    tag_458:\n        /* \"#utility.yul\":27154:27157   */\n      0x00\n        /* \"#utility.yul\":27175:27242   */\n      tag_707\n        /* \"#utility.yul\":27239:27241   */\n      0x1a\n        /* \"#utility.yul\":27234:27237   */\n      dup4\n        /* \"#utility.yul\":27175:27242   */\n      tag_416\n      jump\t// in\n    tag_707:\n        /* \"#utility.yul\":27168:27242   */\n      swap2\n      pop\n        /* \"#utility.yul\":27251:27344   */\n      tag_708\n        /* \"#utility.yul\":27340:27343   */\n      dup3\n        /* \"#utility.yul\":27251:27344   */\n      tag_457\n      jump\t// in\n    tag_708:\n        /* \"#utility.yul\":27369:27371   */\n      0x20\n        /* \"#utility.yul\":27364:27367   */\n      dup3\n        /* \"#utility.yul\":27360:27372   */\n      add\n        /* \"#utility.yul\":27353:27372   */\n      swap1\n      pop\n        /* \"#utility.yul\":27012:27378   */\n      swap2\n      swap1\n      pop\n      jump\t// out\n        /* \"#utility.yul\":27384:27803   */\n    tag_370:\n        /* \"#utility.yul\":27550:27554   */\n      0x00\n        /* \"#utility.yul\":27588:27590   */\n      0x20\n        /* \"#utility.yul\":27577:27586   */\n      dup3\n        /* \"#utility.yul\":27573:27591   */\n      add\n        /* \"#utility.yul\":27565:27591   */\n      swap1\n      pop\n        /* \"#utility.yul\":27637:27646   */\n      dup2\n        /* \"#utility.yul\":27631:27635   */\n      dup2\n        /* \"#utility.yul\":27627:27647   */\n      sub\n        /* \"#utility.yul\":27623:27624   */\n      0x00\n        /* \"#utility.yul\":27612:27621   */\n      dup4\n        /* \"#utility.yul\":27608:27625   */\n      add\n        /* \"#utility.yul\":27601:27648   */\n      mstore\n        /* \"#utility.yul\":27665:27796   */\n      tag_710\n        /* \"#utility.yul\":27791:27795   */\n      dup2\n        /* \"#utility.yul\":27665:27796   */\n      tag_458\n      jump\t// in\n    tag_710:\n        /* \"#utility.yul\":27657:27796   */\n      swap1\n      pop\n        /* \"#utility.yul\":27384:27803   */\n      swap2\n      swap1\n      pop\n      jump\t// out\n        /* \"#utility.yul\":27809:27985   */\n    tag_459:\n        /* \"#utility.yul\":27949:27977   */\n      0x6e756d626572206f6620546f6b656e7320746f20427579206973000000000000\n        /* \"#utility.yul\":27945:27946   */\n      0x00\n        /* \"#utility.yul\":27937:27943   */\n      dup3\n        /* \"#utility.yul\":27933:27947   */\n      add\n        /* \"#utility.yul\":27926:27978   */\n      mstore\n        /* \"#utility.yul\":27809:27985   */\n      pop\n      jump\t// out\n        /* \"#utility.yul\":27991:28357   */\n    tag_460:\n        /* \"#utility.yul\":28133:28136   */\n      0x00\n        /* \"#utility.yul\":28154:28221   */\n      tag_713\n        /* \"#utility.yul\":28218:28220   */\n      0x1a\n        /* \"#utility.yul\":28213:28216   */\n      dup4\n        /* \"#utility.yul\":28154:28221   */\n      tag_416\n      jump\t// in\n    tag_713:\n        /* \"#utility.yul\":28147:28221   */\n      swap2\n      pop\n        /* \"#utility.yul\":28230:28323   */\n      tag_714\n        /* \"#utility.yul\":28319:28322   */\n      dup3\n        /* \"#utility.yul\":28230:28323   */\n      tag_459\n      jump\t// in\n    tag_714:\n        /* \"#utility.yul\":28348:28350   */\n      0x20\n        /* \"#utility.yul\":28343:28346   */\n      dup3\n        /* \"#utility.yul\":28339:28351   */\n      add\n        /* \"#utility.yul\":28332:28351   */\n      swap1\n      pop\n        /* \"#utility.yul\":27991:28357   */\n      swap2\n      swap1\n      pop\n      jump\t// out\n        /* \"#utility.yul\":28363:28782   */\n    tag_377:\n        /* \"#utility.yul\":28529:28533   */\n      0x00\n        /* \"#utility.yul\":28567:28569   */\n      0x20\n        /* \"#utility.yul\":28556:28565   */\n      dup3\n        /* \"#utility.yul\":28552:28570   */\n      add\n        /* \"#utility.yul\":28544:28570   */\n      swap1\n      pop\n        /* \"#utility.yul\":28616:28625   */\n      dup2\n        /* \"#utility.yul\":28610:28614   */\n      dup2\n        /* \"#utility.yul\":28606:28626   */\n      sub\n        /* \"#utility.yul\":28602:28603   */\n      0x00\n        /* \"#utility.yul\":28591:28600   */\n      dup4\n        /* \"#utility.yul\":28587:28604   */\n      add\n        /* \"#utility.yul\":28580:28627   */\n      mstore\n        /* \"#utility.yul\":28644:28775   */\n      tag_716\n        /* \"#utility.yul\":28770:28774   */\n      dup2\n        /* \"#utility.yul\":28644:28775   */\n      tag_460\n      jump\t// in\n    tag_716:\n        /* \"#utility.yul\":28636:28775   */\n      swap1\n      pop\n        /* \"#utility.yul\":28363:28782   */\n      swap2\n      swap1\n      pop\n      jump\t// out\n        /* \"#utility.yul\":28788:28899   */\n    tag_461:\n        /* \"#utility.yul\":28852:28858   */\n      0x00\n        /* \"#utility.yul\":28886:28891   */\n      dup2\n        /* \"#utility.yul\":28880:28892   */\n      sload\n        /* \"#utility.yul\":28870:28892   */\n      swap1\n      pop\n        /* \"#utility.yul\":28788:28899   */\n      swap2\n      swap1\n      pop\n      jump\t// out\n        /* \"#utility.yul\":28905:29089   */\n    tag_462:\n        /* \"#utility.yul\":29004:29015   */\n      0x00\n        /* \"#utility.yul\":29038:29044   */\n      dup3\n        /* \"#utility.yul\":29033:29036   */\n      dup3\n        /* \"#utility.yul\":29026:29045   */\n      mstore\n        /* \"#utility.yul\":29078:29082   */\n      0x20\n        /* \"#utility.yul\":29073:29076   */\n      dup3\n        /* \"#utility.yul\":29069:29083   */\n      add\n        /* \"#utility.yul\":29054:29083   */\n      swap1\n      pop\n        /* \"#utility.yul\":28905:29089   */\n      swap3\n      swap2\n      pop\n      pop\n      jump\t// out\n        /* \"#utility.yul\":29095:29251   */\n    tag_463:\n        /* \"#utility.yul\":29159:29163   */\n      0x00\n        /* \"#utility.yul\":29182:29185   */\n      dup2\n        /* \"#utility.yul\":29174:29185   */\n      swap1\n      pop\n        /* \"#utility.yul\":29205:29208   */\n      dup2\n        /* \"#utility.yul\":29202:29203   */\n      0x00\n        /* \"#utility.yul\":29195:29209   */\n      mstore\n        /* \"#utility.yul\":29239:29243   */\n      0x20\n        /* \"#utility.yul\":29236:29237   */\n      0x00\n        /* \"#utility.yul\":29226:29244   */\n      keccak256\n        /* \"#utility.yul\":29218:29244   */\n      swap1\n      pop\n        /* \"#utility.yul\":29095:29251   */\n      swap2\n      swap1\n      pop\n      jump\t// out\n        /* \"#utility.yul\":29257:29365   */\n    tag_464:\n        /* \"#utility.yul\":29334:29358   */\n      tag_721\n        /* \"#utility.yul\":29352:29357   */\n      dup2\n        /* \"#utility.yul\":29334:29358   */\n      tag_402\n      jump\t// in\n    tag_721:\n        /* \"#utility.yul\":29329:29332   */\n      dup3\n        /* \"#utility.yul\":29322:29359   */\n      mstore\n        /* \"#utility.yul\":29257:29365   */\n      pop\n      pop\n      jump\t// out\n        /* \"#utility.yul\":29371:29550   */\n    tag_465:\n        /* \"#utility.yul\":29440:29450   */\n      0x00\n        /* \"#utility.yul\":29461:29507   */\n      tag_723\n        /* \"#utility.yul\":29503:29506   */\n      dup4\n        /* \"#utility.yul\":29495:29501   */\n      dup4\n        /* \"#utility.yul\":29461:29507   */\n      tag_464\n      jump\t// in\n    tag_723:\n        /* \"#utility.yul\":29539:29543   */\n      0x20\n        /* \"#utility.yul\":29534:29537   */\n      dup4\n        /* \"#utility.yul\":29530:29544   */\n      add\n        /* \"#utility.yul\":29516:29544   */\n      swap1\n      pop\n        /* \"#utility.yul\":29371:29550   */\n      swap3\n      swap2\n      pop\n      pop\n      jump\t// out\n        /* \"#utility.yul\":29556:29658   */\n    tag_466:\n        /* \"#utility.yul\":29598:29606   */\n      0x00\n        /* \"#utility.yul\":29645:29650   */\n      dup2\n        /* \"#utility.yul\":29642:29643   */\n      0x00\n        /* \"#utility.yul\":29638:29651   */\n      shr\n        /* \"#utility.yul\":29617:29651   */\n      swap1\n      pop\n        /* \"#utility.yul\":29556:29658   */\n      swap2\n      swap1\n      pop\n      jump\t// out\n        /* \"#utility.yul\":29664:29803   */\n    tag_467:\n        /* \"#utility.yul\":29714:29721   */\n      0x00\n        /* \"#utility.yul\":29754:29796   */\n      0xffffffffffffffffffffffffffffffffffffffff\n        /* \"#utility.yul\":29747:29752   */\n      dup3\n        /* \"#utility.yul\":29743:29797   */\n      and\n        /* \"#utility.yul\":29732:29797   */\n      swap1\n      pop\n        /* \"#utility.yul\":29664:29803   */\n      swap2\n      swap1\n      pop\n      jump\t// out\n        /* \"#utility.yul\":29809:29975   */\n    tag_468:\n        /* \"#utility.yul\":29878:29883   */\n      0x00\n        /* \"#utility.yul\":29903:29969   */\n      tag_727\n        /* \"#utility.yul\":29934:29968   */\n      tag_728\n        /* \"#utility.yul\":29957:29967   */\n      dup4\n        /* \"#utility.yul\":29934:29968   */\n      tag_466\n      jump\t// in\n    tag_728:\n        /* \"#utility.yul\":29903:29969   */\n      tag_467\n      jump\t// in\n    tag_727:\n        /* \"#utility.yul\":29894:29969   */\n      swap1\n      pop\n        /* \"#utility.yul\":29809:29975   */\n      swap2\n      swap1\n      pop\n      jump\t// out\n        /* \"#utility.yul\":29981:30125   */\n    tag_469:\n        /* \"#utility.yul\":30036:30041   */\n      0x00\n        /* \"#utility.yul\":30061:30118   */\n      tag_730\n        /* \"#utility.yul\":30112:30116   */\n      dup3\n        /* \"#utility.yul\":30106:30117   */\n      sload\n        /* \"#utility.yul\":30061:30118   */\n      tag_468\n      jump\t// in\n    tag_730:\n        /* \"#utility.yul\":30052:30118   */\n      swap1\n      pop\n        /* \"#utility.yul\":29981:30125   */\n      swap2\n      swap1\n      pop\n      jump\t// out\n        /* \"#utility.yul\":30131:30241   */\n    tag_470:\n        /* \"#utility.yul\":30198:30202   */\n      0x00\n        /* \"#utility.yul\":30230:30234   */\n      0x01\n        /* \"#utility.yul\":30225:30228   */\n      dup3\n        /* \"#utility.yul\":30221:30235   */\n      add\n        /* \"#utility.yul\":30213:30235   */\n      swap1\n      pop\n        /* \"#utility.yul\":30131:30241   */\n      swap2\n      swap1\n      pop\n      jump\t// out\n        /* \"#utility.yul\":30277:31028   */\n    tag_471:\n        /* \"#utility.yul\":30393:30396   */\n      0x00\n        /* \"#utility.yul\":30422:30473   */\n      tag_733\n        /* \"#utility.yul\":30467:30472   */\n      dup3\n        /* \"#utility.yul\":30422:30473   */\n      tag_461\n      jump\t// in\n    tag_733:\n        /* \"#utility.yul\":30489:30575   */\n      tag_734\n        /* \"#utility.yul\":30568:30574   */\n      dup2\n        /* \"#utility.yul\":30563:30566   */\n      dup6\n        /* \"#utility.yul\":30489:30575   */\n      tag_462\n      jump\t// in\n    tag_734:\n        /* \"#utility.yul\":30482:30575   */\n      swap4\n      pop\n        /* \"#utility.yul\":30599:30652   */\n      tag_735\n        /* \"#utility.yul\":30646:30651   */\n      dup4\n        /* \"#utility.yul\":30599:30652   */\n      tag_463\n      jump\t// in\n    tag_735:\n        /* \"#utility.yul\":30675:30682   */\n      dup1\n        /* \"#utility.yul\":30706:30707   */\n      0x00\n        /* \"#utility.yul\":30691:31003   */\n    tag_736:\n        /* \"#utility.yul\":30716:30722   */\n      dup4\n        /* \"#utility.yul\":30713:30714   */\n      dup2\n        /* \"#utility.yul\":30710:30723   */\n      lt\n        /* \"#utility.yul\":30691:31003   */\n      iszero\n      tag_738\n      jumpi\n        /* \"#utility.yul\":30786:30830   */\n      tag_739\n        /* \"#utility.yul\":30823:30829   */\n      dup3\n        /* \"#utility.yul\":30786:30830   */\n      tag_469\n      jump\t// in\n    tag_739:\n        /* \"#utility.yul\":30850:30913   */\n      tag_740\n        /* \"#utility.yul\":30909:30912   */\n      dup9\n        /* \"#utility.yul\":30894:30907   */\n      dup3\n        /* \"#utility.yul\":30850:30913   */\n      tag_465\n      jump\t// in\n    tag_740:\n        /* \"#utility.yul\":30843:30913   */\n      swap8\n      pop\n        /* \"#utility.yul\":30936:30993   */\n      tag_741\n        /* \"#utility.yul\":30986:30992   */\n      dup4\n        /* \"#utility.yul\":30936:30993   */\n      tag_470\n      jump\t// in\n    tag_741:\n        /* \"#utility.yul\":30926:30993   */\n      swap3\n      pop\n        /* \"#utility.yul\":30751:31003   */\n      pop\n        /* \"#utility.yul\":30738:30739   */\n      0x01\n        /* \"#utility.yul\":30735:30736   */\n      dup2\n        /* \"#utility.yul\":30731:30740   */\n      add\n        /* \"#utility.yul\":30726:30740   */\n      swap1\n      pop\n        /* \"#utility.yul\":30691:31003   */\n      jump(tag_736)\n    tag_738:\n        /* \"#utility.yul\":30695:30709   */\n      pop\n        /* \"#utility.yul\":31019:31022   */\n      dup6\n        /* \"#utility.yul\":31012:31022   */\n      swap4\n      pop\n        /* \"#utility.yul\":30398:31028   */\n      pop\n      pop\n      pop\n        /* \"#utility.yul\":30277:31028   */\n      swap3\n      swap2\n      pop\n      pop\n      jump\t// out\n        /* \"#utility.yul\":31034:31732   */\n    tag_380:\n        /* \"#utility.yul\":31258:31262   */\n      0x00\n        /* \"#utility.yul\":31296:31299   */\n      0x80\n        /* \"#utility.yul\":31285:31294   */\n      dup3\n        /* \"#utility.yul\":31281:31300   */\n      add\n        /* \"#utility.yul\":31273:31300   */\n      swap1\n      pop\n        /* \"#utility.yul\":31310:31381   */\n      tag_743\n        /* \"#utility.yul\":31378:31379   */\n      0x00\n        /* \"#utility.yul\":31367:31376   */\n      dup4\n        /* \"#utility.yul\":31363:31380   */\n      add\n        /* \"#utility.yul\":31354:31360   */\n      dup8\n        /* \"#utility.yul\":31310:31381   */\n      tag_409\n      jump\t// in\n    tag_743:\n        /* \"#utility.yul\":31428:31437   */\n      dup2\n        /* \"#utility.yul\":31422:31426   */\n      dup2\n        /* \"#utility.yul\":31418:31438   */\n      sub\n        /* \"#utility.yul\":31413:31415   */\n      0x20\n        /* \"#utility.yul\":31402:31411   */\n      dup4\n        /* \"#utility.yul\":31398:31416   */\n      add\n        /* \"#utility.yul\":31391:31439   */\n      mstore\n        /* \"#utility.yul\":31456:31561   */\n      tag_744\n        /* \"#utility.yul\":31556:31560   */\n      dup2\n        /* \"#utility.yul\":31547:31553   */\n      dup7\n        /* \"#utility.yul\":31456:31561   */\n      tag_471\n      jump\t// in\n    tag_744:\n        /* \"#utility.yul\":31448:31561   */\n      swap1\n      pop\n        /* \"#utility.yul\":31571:31643   */\n      tag_745\n        /* \"#utility.yul\":31639:31641   */\n      0x40\n        /* \"#utility.yul\":31628:31637   */\n      dup4\n        /* \"#utility.yul\":31624:31642   */\n      add\n        /* \"#utility.yul\":31615:31621   */\n      dup6\n        /* \"#utility.yul\":31571:31643   */\n      tag_405\n      jump\t// in\n    tag_745:\n        /* \"#utility.yul\":31653:31725   */\n      tag_746\n        /* \"#utility.yul\":31721:31723   */\n      0x60\n        /* \"#utility.yul\":31710:31719   */\n      dup4\n        /* \"#utility.yul\":31706:31724   */\n      add\n        /* \"#utility.yul\":31697:31703   */\n      dup5\n        /* \"#utility.yul\":31653:31725   */\n      tag_409\n      jump\t// in\n    tag_746:\n        /* \"#utility.yul\":31034:31732   */\n      swap6\n      swap5\n      pop\n      pop\n      pop\n      pop\n      pop\n      jump\t// out\n        /* \"#utility.yul\":31738:31855   */\n    tag_472:\n        /* \"#utility.yul\":31847:31848   */\n      0x00\n        /* \"#utility.yul\":31844:31845   */\n      dup1\n        /* \"#utility.yul\":31837:31849   */\n      revert\n        /* \"#utility.yul\":31861:31963   */\n    tag_473:\n        /* \"#utility.yul\":31902:31908   */\n      0x00\n        /* \"#utility.yul\":31953:31955   */\n      0x1f\n        /* \"#utility.yul\":31949:31956   */\n      not\n        /* \"#utility.yul\":31944:31946   */\n      0x1f\n        /* \"#utility.yul\":31937:31942   */\n      dup4\n        /* \"#utility.yul\":31933:31947   */\n      add\n        /* \"#utility.yul\":31929:31957   */\n      and\n        /* \"#utility.yul\":31919:31957   */\n      swap1\n      pop\n        /* \"#utility.yul\":31861:31963   */\n      swap2\n      swap1\n      pop\n      jump\t// out\n        /* \"#utility.yul\":31969:32149   */\n    tag_474:\n        /* \"#utility.yul\":32017:32094   */\n      0x4e487b7100000000000000000000000000000000000000000000000000000000\n        /* \"#utility.yul\":32014:32015   */\n      0x00\n        /* \"#utility.yul\":32007:32095   */\n      mstore\n        /* \"#utility.yul\":32114:32118   */\n      0x41\n        /* \"#utility.yul\":32111:32112   */\n      0x04\n        /* \"#utility.yul\":32104:32119   */\n      mstore\n        /* \"#utility.yul\":32138:32142   */\n      0x24\n        /* \"#utility.yul\":32135:32136   */\n      0x00\n        /* \"#utility.yul\":32128:32143   */\n      revert\n        /* \"#utility.yul\":32155:32436   */\n    tag_475:\n        /* \"#utility.yul\":32238:32265   */\n      tag_751\n        /* \"#utility.yul\":32260:32264   */\n      dup3\n        /* \"#utility.yul\":32238:32265   */\n      tag_473\n      jump\t// in\n    tag_751:\n        /* \"#utility.yul\":32230:32236   */\n      dup2\n        /* \"#utility.yul\":32226:32266   */\n      add\n        /* \"#utility.yul\":32368:32374   */\n      dup2\n        /* \"#utility.yul\":32356:32366   */\n      dup2\n        /* \"#utility.yul\":32353:32375   */\n      lt\n        /* \"#utility.yul\":32332:32350   */\n      0xffffffffffffffff\n        /* \"#utility.yul\":32320:32330   */\n      dup3\n        /* \"#utility.yul\":32317:32351   */\n      gt\n        /* \"#utility.yul\":32314:32376   */\n      or\n        /* \"#utility.yul\":32311:32399   */\n      iszero\n      tag_752\n      jumpi\n        /* \"#utility.yul\":32379:32397   */\n      tag_753\n      tag_474\n      jump\t// in\n    tag_753:\n        /* \"#utility.yul\":32311:32399   */\n    tag_752:\n        /* \"#utility.yul\":32419:32429   */\n      dup1\n        /* \"#utility.yul\":32415:32417   */\n      0x40\n        /* \"#utility.yul\":32408:32430   */\n      mstore\n        /* \"#utility.yul\":32198:32436   */\n      pop\n        /* \"#utility.yul\":32155:32436   */\n      pop\n      pop\n      jump\t// out\n        /* \"#utility.yul\":32442:32571   */\n    tag_476:\n        /* \"#utility.yul\":32476:32482   */\n      0x00\n        /* \"#utility.yul\":32503:32523   */\n      tag_755\n      tag_398\n      jump\t// in\n    tag_755:\n        /* \"#utility.yul\":32493:32523   */\n      swap1\n      pop\n        /* \"#utility.yul\":32532:32565   */\n      tag_756\n        /* \"#utility.yul\":32560:32564   */\n      dup3\n        /* \"#utility.yul\":32552:32558   */\n      dup3\n        /* \"#utility.yul\":32532:32565   */\n      tag_475\n      jump\t// in\n    tag_756:\n        /* \"#utility.yul\":32442:32571   */\n      swap2\n      swap1\n      pop\n      jump\t// out\n        /* \"#utility.yul\":32577:32888   */\n    tag_477:\n        /* \"#utility.yul\":32654:32658   */\n      0x00\n        /* \"#utility.yul\":32744:32762   */\n      0xffffffffffffffff\n        /* \"#utility.yul\":32736:32742   */\n      dup3\n        /* \"#utility.yul\":32733:32763   */\n      gt\n        /* \"#utility.yul\":32730:32786   */\n      iszero\n      tag_758\n      jumpi\n        /* \"#utility.yul\":32766:32784   */\n      tag_759\n      tag_474\n      jump\t// in\n    tag_759:\n        /* \"#utility.yul\":32730:32786   */\n    tag_758:\n        /* \"#utility.yul\":32816:32820   */\n      0x20\n        /* \"#utility.yul\":32808:32814   */\n      dup3\n        /* \"#utility.yul\":32804:32821   */\n      mul\n        /* \"#utility.yul\":32796:32821   */\n      swap1\n      pop\n        /* \"#utility.yul\":32876:32880   */\n      0x20\n        /* \"#utility.yul\":32870:32874   */\n      dup2\n        /* \"#utility.yul\":32866:32881   */\n      add\n        /* \"#utility.yul\":32858:32881   */\n      swap1\n      pop\n        /* \"#utility.yul\":32577:32888   */\n      swap2\n      swap1\n      pop\n      jump\t// out\n        /* \"#utility.yul\":32894:33011   */\n    tag_478:\n        /* \"#utility.yul\":33003:33004   */\n      0x00\n        /* \"#utility.yul\":33000:33001   */\n      dup1\n        /* \"#utility.yul\":32993:33005   */\n      revert\n        /* \"#utility.yul\":33034:33766   */\n    tag_479:\n        /* \"#utility.yul\":33141:33146   */\n      0x00\n        /* \"#utility.yul\":33166:33247   */\n      tag_762\n        /* \"#utility.yul\":33182:33246   */\n      tag_763\n        /* \"#utility.yul\":33239:33245   */\n      dup5\n        /* \"#utility.yul\":33182:33246   */\n      tag_477\n      jump\t// in\n    tag_763:\n        /* \"#utility.yul\":33166:33247   */\n      tag_476\n      jump\t// in\n    tag_762:\n        /* \"#utility.yul\":33157:33247   */\n      swap1\n      pop\n        /* \"#utility.yul\":33267:33272   */\n      dup1\n        /* \"#utility.yul\":33296:33302   */\n      dup4\n        /* \"#utility.yul\":33289:33294   */\n      dup3\n        /* \"#utility.yul\":33282:33303   */\n      mstore\n        /* \"#utility.yul\":33330:33334   */\n      0x20\n        /* \"#utility.yul\":33323:33328   */\n      dup3\n        /* \"#utility.yul\":33319:33335   */\n      add\n        /* \"#utility.yul\":33312:33335   */\n      swap1\n      pop\n        /* \"#utility.yul\":33383:33387   */\n      0x20\n        /* \"#utility.yul\":33375:33381   */\n      dup5\n        /* \"#utility.yul\":33371:33388   */\n      mul\n        /* \"#utility.yul\":33363:33369   */\n      dup4\n        /* \"#utility.yul\":33359:33389   */\n      add\n        /* \"#utility.yul\":33412:33415   */\n      dup6\n        /* \"#utility.yul\":33404:33410   */\n      dup2\n        /* \"#utility.yul\":33401:33416   */\n      gt\n        /* \"#utility.yul\":33398:33520   */\n      iszero\n      tag_764\n      jumpi\n        /* \"#utility.yul\":33431:33510   */\n      tag_765\n      tag_478\n      jump\t// in\n    tag_765:\n        /* \"#utility.yul\":33398:33520   */\n    tag_764:\n        /* \"#utility.yul\":33546:33552   */\n      dup4\n        /* \"#utility.yul\":33529:33760   */\n    tag_766:\n        /* \"#utility.yul\":33563:33569   */\n      dup2\n        /* \"#utility.yul\":33558:33561   */\n      dup2\n        /* \"#utility.yul\":33555:33570   */\n      lt\n        /* \"#utility.yul\":33529:33760   */\n      iszero\n      tag_768\n      jumpi\n        /* \"#utility.yul\":33638:33641   */\n      dup1\n        /* \"#utility.yul\":33667:33715   */\n      tag_769\n        /* \"#utility.yul\":33711:33714   */\n      dup9\n        /* \"#utility.yul\":33699:33709   */\n      dup3\n        /* \"#utility.yul\":33667:33715   */\n      tag_410\n      jump\t// in\n    tag_769:\n        /* \"#utility.yul\":33662:33665   */\n      dup5\n        /* \"#utility.yul\":33655:33716   */\n      mstore\n        /* \"#utility.yul\":33745:33749   */\n      0x20\n        /* \"#utility.yul\":33740:33743   */\n      dup5\n        /* \"#utility.yul\":33736:33750   */\n      add\n        /* \"#utility.yul\":33729:33750   */\n      swap4\n      pop\n        /* \"#utility.yul\":33605:33760   */\n      pop\n        /* \"#utility.yul\":33589:33593   */\n      0x20\n        /* \"#utility.yul\":33584:33587   */\n      dup2\n        /* \"#utility.yul\":33580:33594   */\n      add\n        /* \"#utility.yul\":33573:33594   */\n      swap1\n      pop\n        /* \"#utility.yul\":33529:33760   */\n      jump(tag_766)\n    tag_768:\n        /* \"#utility.yul\":33533:33554   */\n      pop\n        /* \"#utility.yul\":33147:33766   */\n      pop\n      pop\n        /* \"#utility.yul\":33034:33766   */\n      swap4\n      swap3\n      pop\n      pop\n      pop\n      jump\t// out\n        /* \"#utility.yul\":33789:34174   */\n    tag_480:\n        /* \"#utility.yul\":33871:33876   */\n      0x00\n        /* \"#utility.yul\":33920:33923   */\n      dup3\n        /* \"#utility.yul\":33913:33917   */\n      0x1f\n        /* \"#utility.yul\":33905:33911   */\n      dup4\n        /* \"#utility.yul\":33901:33918   */\n      add\n        /* \"#utility.yul\":33897:33924   */\n      slt\n        /* \"#utility.yul\":33887:34009   */\n      tag_771\n      jumpi\n        /* \"#utility.yul\":33928:34007   */\n      tag_772\n      tag_472\n      jump\t// in\n    tag_772:\n        /* \"#utility.yul\":33887:34009   */\n    tag_771:\n        /* \"#utility.yul\":34038:34044   */\n      dup2\n        /* \"#utility.yul\":34032:34045   */\n      mload\n        /* \"#utility.yul\":34063:34168   */\n      tag_773\n        /* \"#utility.yul\":34164:34167   */\n      dup5\n        /* \"#utility.yul\":34156:34162   */\n      dup3\n        /* \"#utility.yul\":34149:34153   */\n      0x20\n        /* \"#utility.yul\":34141:34147   */\n      dup7\n        /* \"#utility.yul\":34137:34154   */\n      add\n        /* \"#utility.yul\":34063:34168   */\n      tag_479\n      jump\t// in\n    tag_773:\n        /* \"#utility.yul\":34054:34168   */\n      swap2\n      pop\n        /* \"#utility.yul\":33877:34174   */\n      pop\n        /* \"#utility.yul\":33789:34174   */\n      swap3\n      swap2\n      pop\n      pop\n      jump\t// out\n        /* \"#utility.yul\":34180:34734   */\n    tag_383:\n        /* \"#utility.yul\":34275:34281   */\n      0x00\n        /* \"#utility.yul\":34324:34326   */\n      0x20\n        /* \"#utility.yul\":34312:34321   */\n      dup3\n        /* \"#utility.yul\":34303:34310   */\n      dup5\n        /* \"#utility.yul\":34299:34322   */\n      sub\n        /* \"#utility.yul\":34295:34327   */\n      slt\n        /* \"#utility.yul\":34292:34411   */\n      iszero\n      tag_775\n      jumpi\n        /* \"#utility.yul\":34330:34409   */\n      tag_776\n      tag_399\n      jump\t// in\n    tag_776:\n        /* \"#utility.yul\":34292:34411   */\n    tag_775:\n        /* \"#utility.yul\":34471:34472   */\n      0x00\n        /* \"#utility.yul\":34460:34469   */\n      dup3\n        /* \"#utility.yul\":34456:34473   */\n      add\n        /* \"#utility.yul\":34450:34474   */\n      mload\n        /* \"#utility.yul\":34501:34519   */\n      0xffffffffffffffff\n        /* \"#utility.yul\":34493:34499   */\n      dup2\n        /* \"#utility.yul\":34490:34520   */\n      gt\n        /* \"#utility.yul\":34487:34604   */\n      iszero\n      tag_777\n      jumpi\n        /* \"#utility.yul\":34523:34602   */\n      tag_778\n      tag_400\n      jump\t// in\n    tag_778:\n        /* \"#utility.yul\":34487:34604   */\n    tag_777:\n        /* \"#utility.yul\":34628:34717   */\n      tag_779\n        /* \"#utility.yul\":34709:34716   */\n      dup5\n        /* \"#utility.yul\":34700:34706   */\n      dup3\n        /* \"#utility.yul\":34689:34698   */\n      dup6\n        /* \"#utility.yul\":34685:34707   */\n      add\n        /* \"#utility.yul\":34628:34717   */\n      tag_480\n      jump\t// in\n    tag_779:\n        /* \"#utility.yul\":34618:34717   */\n      swap2\n      pop\n        /* \"#utility.yul\":34421:34727   */\n      pop\n        /* \"#utility.yul\":34180:34734   */\n      swap3\n      swap2\n      pop\n      pop\n      jump\t// out\n        /* \"#utility.yul\":34740:34907   */\n    tag_481:\n        /* \"#utility.yul\":34880:34899   */\n      0x746f6b656e73206e6f7420626f75676874000000000000000000000000000000\n        /* \"#utility.yul\":34876:34877   */\n      0x00\n        /* \"#utility.yul\":34868:34874   */\n      dup3\n        /* \"#utility.yul\":34864:34878   */\n      add\n        /* \"#utility.yul\":34857:34900   */\n      mstore\n        /* \"#utility.yul\":34740:34907   */\n      pop\n      jump\t// out\n        /* \"#utility.yul\":34913:35279   */\n    tag_482:\n        /* \"#utility.yul\":35055:35058   */\n      0x00\n        /* \"#utility.yul\":35076:35143   */\n      tag_782\n        /* \"#utility.yul\":35140:35142   */\n      0x11\n        /* \"#utility.yul\":35135:35138   */\n      dup4\n        /* \"#utility.yul\":35076:35143   */\n      tag_416\n      jump\t// in\n    tag_782:\n        /* \"#utility.yul\":35069:35143   */\n      swap2\n      pop\n        /* \"#utility.yul\":35152:35245   */\n      tag_783\n        /* \"#utility.yul\":35241:35244   */\n      dup3\n        /* \"#utility.yul\":35152:35245   */\n      tag_481\n      jump\t// in\n    tag_783:\n        /* \"#utility.yul\":35270:35272   */\n      0x20\n        /* \"#utility.yul\":35265:35268   */\n      dup3\n        /* \"#utility.yul\":35261:35273   */\n      add\n        /* \"#utility.yul\":35254:35273   */\n      swap1\n      pop\n        /* \"#utility.yul\":34913:35279   */\n      swap2\n      swap1\n      pop\n      jump\t// out\n        /* \"#utility.yul\":35285:35704   */\n    tag_389:\n        /* \"#utility.yul\":35451:35455   */\n      0x00\n        /* \"#utility.yul\":35489:35491   */\n      0x20\n        /* \"#utility.yul\":35478:35487   */\n      dup3\n        /* \"#utility.yul\":35474:35492   */\n      add\n        /* \"#utility.yul\":35466:35492   */\n      swap1\n      pop\n        /* \"#utility.yul\":35538:35547   */\n      dup2\n        /* \"#utility.yul\":35532:35536   */\n      dup2\n        /* \"#utility.yul\":35528:35548   */\n      sub\n        /* \"#utility.yul\":35524:35525   */\n      0x00\n        /* \"#utility.yul\":35513:35522   */\n      dup4\n        /* \"#utility.yul\":35509:35526   */\n      add\n        /* \"#utility.yul\":35502:35549   */\n      mstore\n        /* \"#utility.yul\":35566:35697   */\n      tag_785\n        /* \"#utility.yul\":35692:35696   */\n      dup2\n        /* \"#utility.yul\":35566:35697   */\n      tag_482\n      jump\t// in\n    tag_785:\n        /* \"#utility.yul\":35558:35697   */\n      swap1\n      pop\n        /* \"#utility.yul\":35285:35704   */\n      swap2\n      swap1\n      pop\n      jump\t// out\n        /* \"#utility.yul\":35710:35873   */\n    tag_483:\n        /* \"#utility.yul\":35850:35865   */\n      0x746f6b656e7320626f7567687400000000000000000000000000000000000000\n        /* \"#utility.yul\":35846:35847   */\n      0x00\n        /* \"#utility.yul\":35838:35844   */\n      dup3\n        /* \"#utility.yul\":35834:35848   */\n      add\n        /* \"#utility.yul\":35827:35866   */\n      mstore\n        /* \"#utility.yul\":35710:35873   */\n      pop\n      jump\t// out\n        /* \"#utility.yul\":35879:36245   */\n    tag_484:\n        /* \"#utility.yul\":36021:36024   */\n      0x00\n        /* \"#utility.yul\":36042:36109   */\n      tag_788\n        /* \"#utility.yul\":36106:36108   */\n      0x0d\n        /* \"#utility.yul\":36101:36104   */\n      dup4\n        /* \"#utility.yul\":36042:36109   */\n      tag_416\n      jump\t// in\n    tag_788:\n        /* \"#utility.yul\":36035:36109   */\n      swap2\n      pop\n        /* \"#utility.yul\":36118:36211   */\n      tag_789\n        /* \"#utility.yul\":36207:36210   */\n      dup3\n        /* \"#utility.yul\":36118:36211   */\n      tag_483\n      jump\t// in\n    tag_789:\n        /* \"#utility.yul\":36236:36238   */\n      0x20\n        /* \"#utility.yul\":36231:36234   */\n      dup3\n        /* \"#utility.yul\":36227:36239   */\n      add\n        /* \"#utility.yul\":36220:36239   */\n      swap1\n      pop\n        /* \"#utility.yul\":35879:36245   */\n      swap2\n      swap1\n      pop\n      jump\t// out\n        /* \"#utility.yul\":36251:36670   */\n    tag_392:\n        /* \"#utility.yul\":36417:36421   */\n      0x00\n        /* \"#utility.yul\":36455:36457   */\n      0x20\n        /* \"#utility.yul\":36444:36453   */\n      dup3\n        /* \"#utility.yul\":36440:36458   */\n      add\n        /* \"#utility.yul\":36432:36458   */\n      swap1\n      pop\n        /* \"#utility.yul\":36504:36513   */\n      dup2\n        /* \"#utility.yul\":36498:36502   */\n      dup2\n        /* \"#utility.yul\":36494:36514   */\n      sub\n        /* \"#utility.yul\":36490:36491   */\n      0x00\n        /* \"#utility.yul\":36479:36488   */\n      dup4\n        /* \"#utility.yul\":36475:36492   */\n      add\n        /* \"#utility.yul\":36468:36515   */\n      mstore\n        /* \"#utility.yul\":36532:36663   */\n      tag_791\n        /* \"#utility.yul\":36658:36662   */\n      dup2\n        /* \"#utility.yul\":36532:36663   */\n      tag_484\n      jump\t// in\n    tag_791:\n        /* \"#utility.yul\":36524:36663   */\n      swap1\n      pop\n        /* \"#utility.yul\":36251:36670   */\n      swap2\n      swap1\n      pop\n      jump\t// out\n\n    auxdata: 0xa26469706673582212206b2149f07043a499672d6f1ee364104ec410769ff4e1f6ed5ab3240483d9605a64736f6c63430008110033\n}\n",
				"bytecode": {
					"linkReferences": {},
					"object": "608060405273b4fbf271143f4fbf7b91a5ded31805e42b2208d66000806101000a81548173ffffffffffffffffffffffffffffffffffffffff021916908373ffffffffffffffffffffffffffffffffffffffff160217905550737a250d5630b4cf539739df2c5dacb4c659f2488d600660006101000a81548173ffffffffffffffffffffffffffffffffffffffff021916908373ffffffffffffffffffffffffffffffffffffffff160217905550600560009054906101000a900473ffffffffffffffffffffffffffffffffffffffff16600860006101000a81548173ffffffffffffffffffffffffffffffffffffffff021916908373ffffffffffffffffffffffffffffffffffffffff16021790555060008054906101000a900473ffffffffffffffffffffffffffffffffffffffff16600960006101000a81548173ffffffffffffffffffffffffffffffffffffffff021916908373ffffffffffffffffffffffffffffffffffffffff160217905550600360009054906101000a900473ffffffffffffffffffffffffffffffffffffffff16600a60006101000a81548173ffffffffffffffffffffffffffffffffffffffff021916908373ffffffffffffffffffffffffffffffffffffffff160217905550600660009054906101000a900473ffffffffffffffffffffffffffffffffffffffff16600b60006101000a81548173ffffffffffffffffffffffffffffffffffffffff021916908373ffffffffffffffffffffffffffffffffffffffff1602179055503480156200024457600080fd5b50604051620041fc380380620041fc83398181016040528101906200026a919062000938565b83600160006101000a81548173ffffffffffffffffffffffffffffffffffffffff021916908373ffffffffffffffffffffffffffffffffffffffff160217905550600160009054906101000a900473ffffffffffffffffffffffffffffffffffffffff1673ffffffffffffffffffffffffffffffffffffffff1663bd3733fe6040518163ffffffff1660e01b8152600401602060405180830381865afa15801562000319573d6000803e3d6000fd5b505050506040513d601f19601f820116820180604052508101906200033f9190620009aa565b600260006101000a81548173ffffffffffffffffffffffffffffffffffffffff021916908373ffffffffffffffffffffffffffffffffffffffff160217905550600160009054906101000a900473ffffffffffffffffffffffffffffffffffffffff1673ffffffffffffffffffffffffffffffffffffffff1663b18b78dd6040518163ffffffff1660e01b8152600401602060405180830381865afa158015620003ed573d6000803e3d6000fd5b505050506040513d601f19601f82011682018060405250810190620004139190620009aa565b600360006101000a81548173ffffffffffffffffffffffffffffffffffffffff021916908373ffffffffffffffffffffffffffffffffffffffff160217905550600360009054906101000a900473ffffffffffffffffffffffffffffffffffffffff16600a60006101000a81548173ffffffffffffffffffffffffffffffffffffffff021916908373ffffffffffffffffffffffffffffffffffffffff16021790555082600460006101000a81548173ffffffffffffffffffffffffffffffffffffffff021916908373ffffffffffffffffffffffffffffffffffffffff16021790555081600560006101000a81548173ffffffffffffffffffffffffffffffffffffffff021916908373ffffffffffffffffffffffffffffffffffffffff160217905550600560009054906101000a900473ffffffffffffffffffffffffffffffffffffffff16600860006101000a81548173ffffffffffffffffffffffffffffffffffffffff021916908373ffffffffffffffffffffffffffffffffffffffff160217905550620005ac816200076060201b60201c565b604051806040016040528060008054906101000a900473ffffffffffffffffffffffffffffffffffffffff1673ffffffffffffffffffffffffffffffffffffffff1673ffffffffffffffffffffffffffffffffffffffff168152602001600160009054906101000a900473ffffffffffffffffffffffffffffffffffffffff1673ffffffffffffffffffffffffffffffffffffffff1673ffffffffffffffffffffffffffffffffffffffff1681525060079060026200066d92919062000820565b50600160009054906101000a900473ffffffffffffffffffffffffffffffffffffffff1673ffffffffffffffffffffffffffffffffffffffff1663095ea7b3600660009054906101000a900473ffffffffffffffffffffffffffffffffffffffff167fffffffffffffffffffffffffffffffffffffffffffffffffffffffffffffffff6040518363ffffffff1660e01b81526004016200070f92919062000a08565b6020604051808303816000875af11580156200072f573d6000803e3d6000fd5b505050506040513d601f19601f8201168201806040525081019062000755919062000a72565b505050505062000aa4565b620007736000826200077660201b60201c565b50565b6000600d8054905090506000600c6000600d8054905081526020019081526020016000209050818160000181905550828160010160006101000a81548173ffffffffffffffffffffffffffffffffffffffff021916908373ffffffffffffffffffffffffffffffffffffffff160217905550838160020181905550600d82908060018154018082558091505060019003906000526020600020016000909190919091505550505050565b8280548282559060005260206000209081019282156200089c579160200282015b828111156200089b5782518260006101000a81548173ffffffffffffffffffffffffffffffffffffffff021916908373ffffffffffffffffffffffffffffffffffffffff1602179055509160200191906001019062000841565b5b509050620008ab9190620008af565b5090565b5b80821115620008ca576000816000905550600101620008b0565b5090565b600080fd5b600073ffffffffffffffffffffffffffffffffffffffff82169050919050565b60006200090082620008d3565b9050919050565b6200091281620008f3565b81146200091e57600080fd5b50565b600081519050620009328162000907565b92915050565b60008060008060808587031215620009555762000954620008ce565b5b6000620009658782880162000921565b9450506020620009788782880162000921565b93505060406200098b8782880162000921565b92505060606200099e8782880162000921565b91505092959194509250565b600060208284031215620009c357620009c2620008ce565b5b6000620009d38482850162000921565b91505092915050565b620009e781620008f3565b82525050565b6000819050919050565b62000a0281620009ed565b82525050565b600060408201905062000a1f6000830185620009dc565b62000a2e6020830184620009f7565b9392505050565b60008115159050919050565b62000a4c8162000a35565b811462000a5857600080fd5b50565b60008151905062000a6c8162000a41565b92915050565b60006020828403121562000a8b5762000a8a620008ce565b5b600062000a9b8482850162000a5b565b91505092915050565b6137488062000ab46000396000f3fe6080604052600436106101235760003560e01c8063a09ede07116100a0578063af6d1fe411610064578063af6d1fe4146103a8578063bd3733fe146103e5578063bfd9ea5b14610410578063c1f2e5f11461043b578063d4afa675146104665761012a565b8063a09ede07146102d1578063a6021ace146102fc578063a785a3d814610327578063a89ae4ba14610352578063aef751071461037d5761012a565b806351cff8d9116100e757806351cff8d914610209578063620a703c14610232578063777b506f1461025057806386d026081461027b5780639dd58b58146102a65761012a565b80630b2b4d9b1461012f5780631b017fde1461014b57806320ca3c7f146101745780632c4c3c1b1461019f5780634cfd1ba5146101de5761012a565b3661012a57005b600080fd5b610149600480360381019061014491906125b4565b61048f565b005b34801561015757600080fd5b50610172600480360381019061016d91906125b4565b6104a4565b005b34801561018057600080fd5b506101896104e8565b60405161019691906125f0565b60405180910390f35b3480156101ab57600080fd5b506101c660048036038101906101c19190612641565b61050e565b6040516101d59392919061267d565b60405180910390f35b3480156101ea57600080fd5b506101f3610558565b60405161020091906126b4565b60405180910390f35b34801561021557600080fd5b50610230600480360381019061022b91906125b4565b61055e565b005b61023a610665565b60405161024791906126b4565b60405180910390f35b34801561025c57600080fd5b50610265610f00565b60405161027291906125f0565b60405180910390f35b34801561028757600080fd5b50610290610f26565b60405161029d91906126b4565b60405180910390f35b3480156102b257600080fd5b506102bb610f2c565b6040516102c891906126b4565b60405180910390f35b3480156102dd57600080fd5b506102e6610fcf565b6040516102f391906126b4565b60405180910390f35b34801561030857600080fd5b50610311610fd5565b60405161031e91906125f0565b60405180910390f35b34801561033357600080fd5b5061033c610ffb565b60405161034991906125f0565b60405180910390f35b34801561035e57600080fd5b5061036761101f565b60405161037491906125f0565b60405180910390f35b34801561038957600080fd5b50610392611045565b60405161039f91906125f0565b60405180910390f35b3480156103b457600080fd5b506103cf60048036038101906103ca9190612641565b61106b565b6040516103dc91906125f0565b60405180910390f35b3480156103f157600080fd5b506103fa6110aa565b60405161040791906125f0565b60405180910390f35b34801561041c57600080fd5b506104256110d0565b60405161043291906126b4565b60405180910390f35b34801561044757600080fd5b506104506110ff565b60405161045d91906126b4565b60405180910390f35b34801561047257600080fd5b5061048d60048036038101906104889190612641565b611276565b005b6104993482611308565b6104a16113b2565b50565b80600160006101000a81548173ffffffffffffffffffffffffffffffffffffffff021916908373ffffffffffffffffffffffffffffffffffffffff16021790555050565b600660009054906101000a900473ffffffffffffffffffffffffffffffffffffffff1681565b600c6020528060005260406000206000915090508060000154908060010160009054906101000a900473ffffffffffffffffffffffffffffffffffffffff16908060020154905083565b600f5481565b600081905060008173ffffffffffffffffffffffffffffffffffffffff166370a08231306040518263ffffffff1660e01b815260040161059e91906125f0565b602060405180830381865afa1580156105bb573d6000803e3d6000fd5b505050506040513d601f19601f820116820180604052508101906105df91906126e4565b90508173ffffffffffffffffffffffffffffffffffffffff1663a9059cbb33836040518363ffffffff1660e01b815260040161061c929190612711565b6020604051808303816000875af115801561063b573d6000803e3d6000fd5b505050506040513d601f19601f8201168201806040525081019061065f9190612772565b50505050565b6000806000600160009054906101000a900473ffffffffffffffffffffffffffffffffffffffff1673ffffffffffffffffffffffffffffffffffffffff166370a08231306040518263ffffffff1660e01b81526004016106c591906125f0565b602060405180830381865afa1580156106e2573d6000803e3d6000fd5b505050506040513d601f19601f8201168201806040525081019061070691906126e4565b9050600060646069600a60009054906101000a900473ffffffffffffffffffffffffffffffffffffffff1673ffffffffffffffffffffffffffffffffffffffff16633ac3558560008054906101000a900473ffffffffffffffffffffffffffffffffffffffff16346040518363ffffffff1660e01b815260040161078b929190612711565b602060405180830381865afa1580156107a8573d6000803e3d6000fd5b505050506040513d601f19601f820116820180604052508101906107cc91906126e4565b6107d691906127ce565b6107e0919061283f565b905081811115610a3b577fcf34ef537ac33ee1ac626ca1587a0a7e8e51561e5514f8cb36afa1c5102b3bab604051610817906128cd565b60405180910390a1600160009054906101000a900473ffffffffffffffffffffffffffffffffffffffff1673ffffffffffffffffffffffffffffffffffffffff166396fe8349838361086991906128ed565b306040518363ffffffff1660e01b8152600401610887929190612921565b600060405180830381600087803b1580156108a157600080fd5b505af11580156108b5573d6000803e3d6000fd5b505050507fcf34ef537ac33ee1ac626ca1587a0a7e8e51561e5514f8cb36afa1c5102b3bab6040516108e690612996565b60405180910390a17f909c57d5c6ac08245cf2a6de3900e2b868513fa59099b92b27d8db823d92df9c828261091b91906128ed565b60405161092891906126b4565b60405180910390a1600160009054906101000a900473ffffffffffffffffffffffffffffffffffffffff1673ffffffffffffffffffffffffffffffffffffffff166370a08231306040518263ffffffff1660e01b815260040161098b91906125f0565b602060405180830381865afa1580156109a8573d6000803e3d6000fd5b505050506040513d601f19601f820116820180604052508101906109cc91906126e4565b91507fcf34ef537ac33ee1ac626ca1587a0a7e8e51561e5514f8cb36afa1c5102b3bab6040516109fb90612a02565b60405180910390a17f909c57d5c6ac08245cf2a6de3900e2b868513fa59099b92b27d8db823d92df9c82604051610a3291906126b4565b60405180910390a15b600b60009054906101000a900473ffffffffffffffffffffffffffffffffffffffff1673ffffffffffffffffffffffffffffffffffffffff1663f305d71934600160009054906101000a900473ffffffffffffffffffffffffffffffffffffffff1684600080307fffffffffffffffffffffffffffffffffffffffffffffffffffffffffffffffff6040518863ffffffff1660e01b8152600401610ae496959493929190612a67565b60606040518083038185885af193505050508015610b2057506040513d601f19601f82011682018060405250810190610b1d9190612ac8565b60015b610e15577fb8a00d6d8ca1be30bfec34d8f97e55f0f0fd9eeb7fb46e030516363d4cfe1ad6600b60009054906101000a900473ffffffffffffffffffffffffffffffffffffffff16604051610b7591906125f0565b60405180910390a17fcf34ef537ac33ee1ac626ca1587a0a7e8e51561e5514f8cb36afa1c5102b3bab604051610baa90612b67565b60405180910390a17f909c57d5c6ac08245cf2a6de3900e2b868513fa59099b92b27d8db823d92df9c34604051610be191906126b4565b60405180910390a17fcf34ef537ac33ee1ac626ca1587a0a7e8e51561e5514f8cb36afa1c5102b3bab604051610c1690612bd3565b60405180910390a17fb8a00d6d8ca1be30bfec34d8f97e55f0f0fd9eeb7fb46e030516363d4cfe1ad6600160009054906101000a900473ffffffffffffffffffffffffffffffffffffffff16604051610c6f91906125f0565b60405180910390a17fcf34ef537ac33ee1ac626ca1587a0a7e8e51561e5514f8cb36afa1c5102b3bab604051610ca490612c3f565b60405180910390a17f909c57d5c6ac08245cf2a6de3900e2b868513fa59099b92b27d8db823d92df9c81604051610cdb91906126b4565b60405180910390a17fcf34ef537ac33ee1ac626ca1587a0a7e8e51561e5514f8cb36afa1c5102b3bab604051610d1090612cab565b60405180910390a17fb8a00d6d8ca1be30bfec34d8f97e55f0f0fd9eeb7fb46e030516363d4cfe1ad630604051610d4791906125f0565b60405180910390a17fcf34ef537ac33ee1ac626ca1587a0a7e8e51561e5514f8cb36afa1c5102b3bab604051610d7c90612d17565b60405180910390a17f909c57d5c6ac08245cf2a6de3900e2b868513fa59099b92b27d8db823d92df9c7fffffffffffffffffffffffffffffffffffffffffffffffffffffffffffffffff604051610dd391906126b4565b60405180910390a17fcf34ef537ac33ee1ac626ca1587a0a7e8e51561e5514f8cb36afa1c5102b3bab604051610e0890612d83565b60405180910390a1610ef7565b5050507fcf34ef537ac33ee1ac626ca1587a0a7e8e51561e5514f8cb36afa1c5102b3bab604051610e4590612def565b60405180910390a1600160009054906101000a900473ffffffffffffffffffffffffffffffffffffffff1673ffffffffffffffffffffffffffffffffffffffff166370a08231306040518263ffffffff1660e01b8152600401610ea891906125f0565b602060405180830381865afa158015610ec5573d6000803e3d6000fd5b505050506040513d601f19601f82011682018060405250810190610ee991906126e4565b82610ef491906128ed565b92505b82935050505090565b600460009054906101000a900473ffffffffffffffffffffffffffffffffffffffff1681565b600e5481565b6000600960009054906101000a900473ffffffffffffffffffffffffffffffffffffffff1673ffffffffffffffffffffffffffffffffffffffff166370a08231306040518263ffffffff1660e01b8152600401610f8991906125f0565b602060405180830381865afa158015610fa6573d6000803e3d6000fd5b505050506040513d601f19601f82011682018060405250810190610fca91906126e4565b905090565b60105481565b600160009054906101000a900473ffffffffffffffffffffffffffffffffffffffff1681565b60008054906101000a900473ffffffffffffffffffffffffffffffffffffffff1681565b600360009054906101000a900473ffffffffffffffffffffffffffffffffffffffff1681565b600560009054906101000a900473ffffffffffffffffffffffffffffffffffffffff1681565b6007818154811061107b57600080fd5b906000526020600020016000915054906101000a900473ffffffffffffffffffffffffffffffffffffffff1681565b600260009054906101000a900473ffffffffffffffffffffffffffffffffffffffff1681565b6000600c60006001600d805490506110e891906128ed565b815260200190815260200160002060020154905090565b600080600160009054906101000a900473ffffffffffffffffffffffffffffffffffffffff1673ffffffffffffffffffffffffffffffffffffffff166318160ddd6040518163ffffffff1660e01b8152600401602060405180830381865afa15801561116f573d6000803e3d6000fd5b505050506040513d601f19601f8201168201806040525081019061119391906126e4565b90506000600160009054906101000a900473ffffffffffffffffffffffffffffffffffffffff1673ffffffffffffffffffffffffffffffffffffffff166370a08231600260009054906101000a900473ffffffffffffffffffffffffffffffffffffffff166040518263ffffffff1660e01b815260040161121491906125f0565b602060405180830381865afa158015611231573d6000803e3d6000fd5b505050506040513d601f19601f8201168201806040525081019061125591906126e4565b90508160648261126591906127ce565b61126f919061283f565b9250505090565b600160009054906101000a900473ffffffffffffffffffffffffffffffffffffffff1673ffffffffffffffffffffffffffffffffffffffff166396fe834982336040518363ffffffff1660e01b81526004016112d3929190612921565b600060405180830381600087803b1580156112ed57600080fd5b505af1158015611301573d6000803e3d6000fd5b5050505050565b6000600d8054905090506000600c6000600d8054905081526020019081526020016000209050818160000181905550828160010160006101000a81548173ffffffffffffffffffffffffffffffffffffffff021916908373ffffffffffffffffffffffffffffffffffffffff160217905550838160020181905550600d82908060018154018082558091505060019003906000526020600020016000909190919091505550505050565b60003490506000600f5411156114045760004790506113d2600f546116da565b6000479050600081836113e591906128ed565b905080600f60008282546113f991906128ed565b925050819055505050505b6000601054111561145257600047905061141f6010546117e5565b5060004790506000818361143391906128ed565b9050806010600082825461144791906128ed565b925050819055505050505b6000600c60006001600d8054905061146a91906128ed565b815260200190815260200160002060010160009054906101000a900473ffffffffffffffffffffffffffffffffffffffff1690506114a781611ccb565b600860009054906101000a900473ffffffffffffffffffffffffffffffffffffffff1673ffffffffffffffffffffffffffffffffffffffff16636a627842826040518263ffffffff1660e01b815260040161150291906125f0565b600060405180830381600087803b15801561151c57600080fd5b505af1158015611530573d6000803e3d6000fd5b50505050600061153e6110ff565b90507fcf34ef537ac33ee1ac626ca1587a0a7e8e51561e5514f8cb36afa1c5102b3bab60405161156d90612e5b565b60405180910390a17fb8a00d6d8ca1be30bfec34d8f97e55f0f0fd9eeb7fb46e030516363d4cfe1ad6826040516115a491906125f0565b60405180910390a17fcf34ef537ac33ee1ac626ca1587a0a7e8e51561e5514f8cb36afa1c5102b3bab6040516115d990612ec7565b60405180910390a17f909c57d5c6ac08245cf2a6de3900e2b868513fa59099b92b27d8db823d92df9c8160405161161091906126b4565b60405180910390a1601481111561167657600047905061162f346116da565b60004790506000818361164291906128ed565b90506000818761165291906128ed565b905080600f60008282546116669190612ee7565b92505081905550505050506116d5565b60004790506116913460105461168c9190612ee7565b6117e5565b506000479050600081836116a591906128ed565b9050600081876116b591906128ed565b905080601060008282546116c99190612ee7565b92505081905550505050505b505050565b60006116e582611fbb565b9050600160009054906101000a900473ffffffffffffffffffffffffffffffffffffffff1673ffffffffffffffffffffffffffffffffffffffff166342966c68826040518263ffffffff1660e01b815260040161174291906126b4565b600060405180830381600087803b15801561175c57600080fd5b505af192505050801561176d575060015b6117ab577fcf34ef537ac33ee1ac626ca1587a0a7e8e51561e5514f8cb36afa1c5102b3bab60405161179e90612f67565b60405180910390a16117e1565b7fcf34ef537ac33ee1ac626ca1587a0a7e8e51561e5514f8cb36afa1c5102b3bab6040516117d890612fd3565b60405180910390a15b5050565b6000806000600160009054906101000a900473ffffffffffffffffffffffffffffffffffffffff1673ffffffffffffffffffffffffffffffffffffffff166370a08231306040518263ffffffff1660e01b815260040161184591906125f0565b602060405180830381865afa158015611862573d6000803e3d6000fd5b505050506040513d601f19601f8201168201806040525081019061188691906126e4565b9050600060646069600a60009054906101000a900473ffffffffffffffffffffffffffffffffffffffff1673ffffffffffffffffffffffffffffffffffffffff16633ac3558560008054906101000a900473ffffffffffffffffffffffffffffffffffffffff16896040518363ffffffff1660e01b815260040161190b929190612711565b602060405180830381865afa158015611928573d6000803e3d6000fd5b505050506040513d601f19601f8201168201806040525081019061194c91906126e4565b61195691906127ce565b611960919061283f565b905081811115611aa357600160009054906101000a900473ffffffffffffffffffffffffffffffffffffffff1673ffffffffffffffffffffffffffffffffffffffff166396fe834983836119b491906128ed565b306040518363ffffffff1660e01b81526004016119d2929190612921565b600060405180830381600087803b1580156119ec57600080fd5b505af1158015611a00573d6000803e3d6000fd5b50505050600160009054906101000a900473ffffffffffffffffffffffffffffffffffffffff1673ffffffffffffffffffffffffffffffffffffffff166370a08231306040518263ffffffff1660e01b8152600401611a5f91906125f0565b602060405180830381865afa158015611a7c573d6000803e3d6000fd5b505050506040513d601f19601f82011682018060405250810190611aa091906126e4565b91505b600b60009054906101000a900473ffffffffffffffffffffffffffffffffffffffff1673ffffffffffffffffffffffffffffffffffffffff1663f305d71986600160009054906101000a900473ffffffffffffffffffffffffffffffffffffffff168460006064605f8c611b1791906127ce565b611b21919061283f565b307fffffffffffffffffffffffffffffffffffffffffffffffffffffffffffffffff6040518863ffffffff1660e01b8152600401611b6496959493929190612ff3565b60606040518083038185885af193505050508015611ba057506040513d601f19601f82011682018060405250810190611b9d9190612ac8565b60015b611bde577fcf34ef537ac33ee1ac626ca1587a0a7e8e51561e5514f8cb36afa1c5102b3bab604051611bd190612d83565b60405180910390a1611cc0565b5050507fcf34ef537ac33ee1ac626ca1587a0a7e8e51561e5514f8cb36afa1c5102b3bab604051611c0e90612def565b60405180910390a1600160009054906101000a900473ffffffffffffffffffffffffffffffffffffffff1673ffffffffffffffffffffffffffffffffffffffff166370a08231306040518263ffffffff1660e01b8152600401611c7191906125f0565b602060405180830381865afa158015611c8e573d6000803e3d6000fd5b505050506040513d601f19601f82011682018060405250810190611cb291906126e4565b82611cbd91906128ed565b92505b829350505050919050565b6000600c60006001600d80549050611ce391906128ed565b81526020019081526020016000206002015490506000810315611fb757600a60009054906101000a900473ffffffffffffffffffffffffffffffffffffffff1673ffffffffffffffffffffffffffffffffffffffff16633ac3558560008054906101000a900473ffffffffffffffffffffffffffffffffffffffff16836040518363ffffffff1660e01b8152600401611d7d929190612711565b602060405180830381865afa925050508015611db757506040513d601f19601f82011682018060405250810190611db491906126e4565b60015b611df5577fcf34ef537ac33ee1ac626ca1587a0a7e8e51561e5514f8cb36afa1c5102b3bab604051611de8906130a0565b60405180910390a1611fb6565b506000600a60009054906101000a900473ffffffffffffffffffffffffffffffffffffffff1673ffffffffffffffffffffffffffffffffffffffff16633ac3558560008054906101000a900473ffffffffffffffffffffffffffffffffffffffff16846040518363ffffffff1660e01b8152600401611e75929190612711565b602060405180830381865afa158015611e92573d6000803e3d6000fd5b505050506040513d601f19601f82011682018060405250810190611eb691906126e4565b9050600160009054906101000a900473ffffffffffffffffffffffffffffffffffffffff1673ffffffffffffffffffffffffffffffffffffffff166396fe834982856040518363ffffffff1660e01b8152600401611f15929190612921565b600060405180830381600087803b158015611f2f57600080fd5b505af1925050508015611f40575060015b611f7e577fcf34ef537ac33ee1ac626ca1587a0a7e8e51561e5514f8cb36afa1c5102b3bab604051611f7190613132565b60405180910390a1611fb4565b7fcf34ef537ac33ee1ac626ca1587a0a7e8e51561e5514f8cb36afa1c5102b3bab604051611fab9061319e565b60405180910390a15b505b5b5050565b6000806000600160009054906101000a900473ffffffffffffffffffffffffffffffffffffffff1673ffffffffffffffffffffffffffffffffffffffff166370a08231306040518263ffffffff1660e01b815260040161201b91906125f0565b602060405180830381865afa92505050801561205557506040513d601f19601f8201168201806040525081019061205291906126e4565b60015b612093577fcf34ef537ac33ee1ac626ca1587a0a7e8e51561e5514f8cb36afa1c5102b3bab60405161208690613230565b60405180910390a1612133565b50600160009054906101000a900473ffffffffffffffffffffffffffffffffffffffff1673ffffffffffffffffffffffffffffffffffffffff166370a08231306040518263ffffffff1660e01b81526004016120ef91906125f0565b602060405180830381865afa15801561210c573d6000803e3d6000fd5b505050506040513d601f19601f8201168201806040525081019061213091906126e4565b91505b600a60009054906101000a900473ffffffffffffffffffffffffffffffffffffffff1673ffffffffffffffffffffffffffffffffffffffff16633ac3558560008054906101000a900473ffffffffffffffffffffffffffffffffffffffff16866040518363ffffffff1660e01b81526004016121b0929190612711565b602060405180830381865afa9250505080156121ea57506040513d601f19601f820116820180604052508101906121e791906126e4565b60015b612228577fcf34ef537ac33ee1ac626ca1587a0a7e8e51561e5514f8cb36afa1c5102b3bab60405161221b9061329c565b60405180910390a1612356565b50600a60009054906101000a900473ffffffffffffffffffffffffffffffffffffffff1673ffffffffffffffffffffffffffffffffffffffff16633ac3558560008054906101000a900473ffffffffffffffffffffffffffffffffffffffff16866040518363ffffffff1660e01b81526004016122a6929190612711565b602060405180830381865afa1580156122c3573d6000803e3d6000fd5b505050506040513d601f19601f820116820180604052508101906122e791906126e4565b90507fcf34ef537ac33ee1ac626ca1587a0a7e8e51561e5514f8cb36afa1c5102b3bab60405161231690613308565b60405180910390a17f909c57d5c6ac08245cf2a6de3900e2b868513fa59099b92b27d8db823d92df9c8160405161234d91906126b4565b60405180910390a15b6000600b60009054906101000a900473ffffffffffffffffffffffffffffffffffffffff1673ffffffffffffffffffffffffffffffffffffffff16637ff36ab586836007337fffffffffffffffffffffffffffffffffffffffffffffffffffffffffffffffff6040518663ffffffff1660e01b81526004016123db949392919061344c565b60006040518083038185885af19350505050801561241c57506040513d6000823e3d601f19601f8201168201806040525081019061241991906135f1565b60015b61245a577fcf34ef537ac33ee1ac626ca1587a0a7e8e51561e5514f8cb36afa1c5102b3bab60405161244d90613686565b60405180910390a1612491565b507fcf34ef537ac33ee1ac626ca1587a0a7e8e51561e5514f8cb36afa1c5102b3bab604051612488906136f2565b60405180910390a15b82600160009054906101000a900473ffffffffffffffffffffffffffffffffffffffff1673ffffffffffffffffffffffffffffffffffffffff166370a08231306040518263ffffffff1660e01b81526004016124ed91906125f0565b602060405180830381865afa15801561250a573d6000803e3d6000fd5b505050506040513d601f19601f8201168201806040525081019061252e91906126e4565b61253891906128ed565b9350505050919050565b6000604051905090565b600080fd5b600080fd5b600073ffffffffffffffffffffffffffffffffffffffff82169050919050565b600061258182612556565b9050919050565b61259181612576565b811461259c57600080fd5b50565b6000813590506125ae81612588565b92915050565b6000602082840312156125ca576125c961254c565b5b60006125d88482850161259f565b91505092915050565b6125ea81612576565b82525050565b600060208201905061260560008301846125e1565b92915050565b6000819050919050565b61261e8161260b565b811461262957600080fd5b50565b60008135905061263b81612615565b92915050565b6000602082840312156126575761265661254c565b5b60006126658482850161262c565b91505092915050565b6126778161260b565b82525050565b6000606082019050612692600083018661266e565b61269f60208301856125e1565b6126ac604083018461266e565b949350505050565b60006020820190506126c9600083018461266e565b92915050565b6000815190506126de81612615565b92915050565b6000602082840312156126fa576126f961254c565b5b6000612708848285016126cf565b91505092915050565b600060408201905061272660008301856125e1565b612733602083018461266e565b9392505050565b60008115159050919050565b61274f8161273a565b811461275a57600080fd5b50565b60008151905061276c81612746565b92915050565b6000602082840312156127885761278761254c565b5b60006127968482850161275d565b91505092915050565b7f4e487b7100000000000000000000000000000000000000000000000000000000600052601160045260246000fd5b60006127d98261260b565b91506127e48361260b565b92508282026127f28161260b565b915082820484148315176128095761280861279f565b5b5092915050565b7f4e487b7100000000000000000000000000000000000000000000000000000000600052601260045260246000fd5b600061284a8261260b565b91506128558361260b565b92508261286557612864612810565b5b828204905092915050565b600082825260208201905092915050565b7f4e65656420746f206d696e7420666f72206c6971756964697479000000000000600082015250565b60006128b7601a83612870565b91506128c282612881565b602082019050919050565b600060208201905081810360008301526128e6816128aa565b9050919050565b60006128f88261260b565b91506129038361260b565b925082820390508181111561291b5761291a61279f565b5b92915050565b6000604082019050612936600083018561266e565b61294360208301846125e1565b9392505050565b7f746f6b656e73206d696e74656400000000000000000000000000000000000000600082015250565b6000612980600d83612870565b915061298b8261294a565b602082019050919050565b600060208201905081810360008301526129af81612973565b9050919050565b7f4e65772045524332302062616c616e6365000000000000000000000000000000600082015250565b60006129ec601183612870565b91506129f7826129b6565b602082019050919050565b60006020820190508181036000830152612a1b816129df565b9050919050565b6000819050919050565b6000819050919050565b6000612a51612a4c612a4784612a22565b612a2c565b61260b565b9050919050565b612a6181612a36565b82525050565b600060c082019050612a7c60008301896125e1565b612a89602083018861266e565b612a966040830187612a58565b612aa36060830186612a58565b612ab060808301856125e1565b612abd60a083018461266e565b979650505050505050565b600080600060608486031215612ae157612ae061254c565b5b6000612aef868287016126cf565b9350506020612b00868287016126cf565b9250506040612b11868287016126cf565b9150509250925092565b7f6d73672e76616c75650000000000000000000000000000000000000000000000600082015250565b6000612b51600983612870565b9150612b5c82612b1b565b602082019050919050565b60006020820190508181036000830152612b8081612b44565b9050919050565b7f4552433230416464726573730000000000000000000000000000000000000000600082015250565b6000612bbd600c83612870565b9150612bc882612b87565b602082019050919050565b60006020820190508181036000830152612bec81612bb0565b9050919050565b7f746f6b656e73546f53656e640000000000000000000000000000000000000000600082015250565b6000612c29600c83612870565b9150612c3482612bf3565b602082019050919050565b60006020820190508181036000830152612c5881612c1c565b9050919050565b7f6164647265737328746869732900000000000000000000000000000000000000600082015250565b6000612c95600d83612870565b9150612ca082612c5f565b602082019050919050565b60006020820190508181036000830152612cc481612c88565b9050919050565b7f747970652875696e74292e6d6178000000000000000000000000000000000000600082015250565b6000612d01600e83612870565b9150612d0c82612ccb565b602082019050919050565b60006020820190508181036000830152612d3081612cf4565b9050919050565b7f4c6971756964697479204e6f742050726f766964656400000000000000000000600082015250565b6000612d6d601683612870565b9150612d7882612d37565b602082019050919050565b60006020820190508181036000830152612d9c81612d60565b9050919050565b7f6c6971756964697479205375636365737366756c6c792050726f766964656400600082015250565b6000612dd9601f83612870565b9150612de482612da3565b602082019050919050565b60006020820190508181036000830152612e0881612dcc565b9050919050565b7f70726576696f757320486f6c6465722069730000000000000000000000000000600082015250565b6000612e45601283612870565b9150612e5082612e0f565b602082019050919050565b60006020820190508181036000830152612e7481612e38565b9050919050565b7f63757272656e74206c69717569646974792070657263656e7400000000000000600082015250565b6000612eb1601983612870565b9150612ebc82612e7b565b602082019050919050565b60006020820190508181036000830152612ee081612ea4565b9050919050565b6000612ef28261260b565b9150612efd8361260b565b9250828201905080821115612f1557612f1461279f565b5b92915050565b7f746f6b656e732063616e74206265206275726e74000000000000000000000000600082015250565b6000612f51601483612870565b9150612f5c82612f1b565b602082019050919050565b60006020820190508181036000830152612f8081612f44565b9050919050565b7f746f6b656e732068617665206265656e206275726e7400000000000000000000600082015250565b6000612fbd601683612870565b9150612fc882612f87565b602082019050919050565b60006020820190508181036000830152612fec81612fb0565b9050919050565b600060c08201905061300860008301896125e1565b613015602083018861266e565b6130226040830187612a58565b61302f606083018661266e565b61303c60808301856125e1565b61304960a083018461266e565b979650505050505050565b7f70726963652063616e7420626520676f742066726f6d204f7261636c65000000600082015250565b600061308a601d83612870565b915061309582613054565b602082019050919050565b600060208201905081810360008301526130b98161307d565b9050919050565b7f707269636520676f742066726f6d204f7261636c652062757420636f756c646e60008201527f74206d696e740000000000000000000000000000000000000000000000000000602082015250565b600061311c602683612870565b9150613127826130c0565b604082019050919050565b6000602082019050818103600083015261314b8161310f565b9050919050565b7f746f6b656e73206d696e74656420746f2070726576696f757320686f6c646572600082015250565b6000613188602083612870565b915061319382613152565b602082019050919050565b600060208201905081810360008301526131b78161317b565b9050919050565b7f63616e74206765742062616c616e6365206f66207468697320636f6e7472616360008201527f7400000000000000000000000000000000000000000000000000000000000000602082015250565b600061321a602183612870565b9150613225826131be565b604082019050919050565b600060208201905081810360008301526132498161320d565b9050919050565b7f63616e74206765742070726963652066726f6d204f7261636c65000000000000600082015250565b6000613286601a83612870565b915061329182613250565b602082019050919050565b600060208201905081810360008301526132b581613279565b9050919050565b7f6e756d626572206f6620546f6b656e7320746f20427579206973000000000000600082015250565b60006132f2601a83612870565b91506132fd826132bc565b602082019050919050565b60006020820190508181036000830152613321816132e5565b9050919050565b600081549050919050565b600082825260208201905092915050565b60008190508160005260206000209050919050565b61336281612576565b82525050565b60006133748383613359565b60208301905092915050565b60008160001c9050919050565b600073ffffffffffffffffffffffffffffffffffffffff82169050919050565b60006133c06133bb83613380565b61338d565b9050919050565b60006133d382546133ad565b9050919050565b6000600182019050919050565b60006133f282613328565b6133fc8185613333565b935061340783613344565b8060005b8381101561343f5761341c826133c7565b6134268882613368565b9750613431836133da565b92505060018101905061340b565b5085935050505092915050565b6000608082019050613461600083018761266e565b818103602083015261347381866133e7565b905061348260408301856125e1565b61348f606083018461266e565b95945050505050565b600080fd5b6000601f19601f8301169050919050565b7f4e487b7100000000000000000000000000000000000000000000000000000000600052604160045260246000fd5b6134e68261349d565b810181811067ffffffffffffffff82111715613505576135046134ae565b5b80604052505050565b6000613518612542565b905061352482826134dd565b919050565b600067ffffffffffffffff821115613544576135436134ae565b5b602082029050602081019050919050565b600080fd5b600061356d61356884613529565b61350e565b905080838252602082019050602084028301858111156135905761358f613555565b5b835b818110156135b957806135a588826126cf565b845260208401935050602081019050613592565b5050509392505050565b600082601f8301126135d8576135d7613498565b5b81516135e884826020860161355a565b91505092915050565b6000602082840312156136075761360661254c565b5b600082015167ffffffffffffffff81111561362557613624612551565b5b613631848285016135c3565b91505092915050565b7f746f6b656e73206e6f7420626f75676874000000000000000000000000000000600082015250565b6000613670601183612870565b915061367b8261363a565b602082019050919050565b6000602082019050818103600083015261369f81613663565b9050919050565b7f746f6b656e7320626f7567687400000000000000000000000000000000000000600082015250565b60006136dc600d83612870565b91506136e7826136a6565b602082019050919050565b6000602082019050818103600083015261370b816136cf565b905091905056fea26469706673582212206b2149f07043a499672d6f1ee364104ec410769ff4e1f6ed5ab3240483d9605a64736f6c63430008110033",
					"opcodes": "PUSH1 0x80 PUSH1 0x40 MSTORE PUSH20 0xB4FBF271143F4FBF7B91A5DED31805E42B2208D6 PUSH1 0x0 DUP1 PUSH2 0x100 EXP DUP2 SLOAD DUP2 PUSH20 0xFFFFFFFFFFFFFFFFFFFFFFFFFFFFFFFFFFFFFFFF MUL NOT AND SWAP1 DUP4 PUSH20 0xFFFFFFFFFFFFFFFFFFFFFFFFFFFFFFFFFFFFFFFF AND MUL OR SWAP1 SSTORE POP PUSH20 0x7A250D5630B4CF539739DF2C5DACB4C659F2488D PUSH1 0x6 PUSH1 0x0 PUSH2 0x100 EXP DUP2 SLOAD DUP2 PUSH20 0xFFFFFFFFFFFFFFFFFFFFFFFFFFFFFFFFFFFFFFFF MUL NOT AND SWAP1 DUP4 PUSH20 0xFFFFFFFFFFFFFFFFFFFFFFFFFFFFFFFFFFFFFFFF AND MUL OR SWAP1 SSTORE POP PUSH1 0x5 PUSH1 0x0 SWAP1 SLOAD SWAP1 PUSH2 0x100 EXP SWAP1 DIV PUSH20 0xFFFFFFFFFFFFFFFFFFFFFFFFFFFFFFFFFFFFFFFF AND PUSH1 0x8 PUSH1 0x0 PUSH2 0x100 EXP DUP2 SLOAD DUP2 PUSH20 0xFFFFFFFFFFFFFFFFFFFFFFFFFFFFFFFFFFFFFFFF MUL NOT AND SWAP1 DUP4 PUSH20 0xFFFFFFFFFFFFFFFFFFFFFFFFFFFFFFFFFFFFFFFF AND MUL OR SWAP1 SSTORE POP PUSH1 0x0 DUP1 SLOAD SWAP1 PUSH2 0x100 EXP SWAP1 DIV PUSH20 0xFFFFFFFFFFFFFFFFFFFFFFFFFFFFFFFFFFFFFFFF AND PUSH1 0x9 PUSH1 0x0 PUSH2 0x100 EXP DUP2 SLOAD DUP2 PUSH20 0xFFFFFFFFFFFFFFFFFFFFFFFFFFFFFFFFFFFFFFFF MUL NOT AND SWAP1 DUP4 PUSH20 0xFFFFFFFFFFFFFFFFFFFFFFFFFFFFFFFFFFFFFFFF AND MUL OR SWAP1 SSTORE POP PUSH1 0x3 PUSH1 0x0 SWAP1 SLOAD SWAP1 PUSH2 0x100 EXP SWAP1 DIV PUSH20 0xFFFFFFFFFFFFFFFFFFFFFFFFFFFFFFFFFFFFFFFF AND PUSH1 0xA PUSH1 0x0 PUSH2 0x100 EXP DUP2 SLOAD DUP2 PUSH20 0xFFFFFFFFFFFFFFFFFFFFFFFFFFFFFFFFFFFFFFFF MUL NOT AND SWAP1 DUP4 PUSH20 0xFFFFFFFFFFFFFFFFFFFFFFFFFFFFFFFFFFFFFFFF AND MUL OR SWAP1 SSTORE POP PUSH1 0x6 PUSH1 0x0 SWAP1 SLOAD SWAP1 PUSH2 0x100 EXP SWAP1 DIV PUSH20 0xFFFFFFFFFFFFFFFFFFFFFFFFFFFFFFFFFFFFFFFF AND PUSH1 0xB PUSH1 0x0 PUSH2 0x100 EXP DUP2 SLOAD DUP2 PUSH20 0xFFFFFFFFFFFFFFFFFFFFFFFFFFFFFFFFFFFFFFFF MUL NOT AND SWAP1 DUP4 PUSH20 0xFFFFFFFFFFFFFFFFFFFFFFFFFFFFFFFFFFFFFFFF AND MUL OR SWAP1 SSTORE POP CALLVALUE DUP1 ISZERO PUSH3 0x244 JUMPI PUSH1 0x0 DUP1 REVERT JUMPDEST POP PUSH1 0x40 MLOAD PUSH3 0x41FC CODESIZE SUB DUP1 PUSH3 0x41FC DUP4 CODECOPY DUP2 DUP2 ADD PUSH1 0x40 MSTORE DUP2 ADD SWAP1 PUSH3 0x26A SWAP2 SWAP1 PUSH3 0x938 JUMP JUMPDEST DUP4 PUSH1 0x1 PUSH1 0x0 PUSH2 0x100 EXP DUP2 SLOAD DUP2 PUSH20 0xFFFFFFFFFFFFFFFFFFFFFFFFFFFFFFFFFFFFFFFF MUL NOT AND SWAP1 DUP4 PUSH20 0xFFFFFFFFFFFFFFFFFFFFFFFFFFFFFFFFFFFFFFFF AND MUL OR SWAP1 SSTORE POP PUSH1 0x1 PUSH1 0x0 SWAP1 SLOAD SWAP1 PUSH2 0x100 EXP SWAP1 DIV PUSH20 0xFFFFFFFFFFFFFFFFFFFFFFFFFFFFFFFFFFFFFFFF AND PUSH20 0xFFFFFFFFFFFFFFFFFFFFFFFFFFFFFFFFFFFFFFFF AND PUSH4 0xBD3733FE PUSH1 0x40 MLOAD DUP2 PUSH4 0xFFFFFFFF AND PUSH1 0xE0 SHL DUP2 MSTORE PUSH1 0x4 ADD PUSH1 0x20 PUSH1 0x40 MLOAD DUP1 DUP4 SUB DUP2 DUP7 GAS STATICCALL ISZERO DUP1 ISZERO PUSH3 0x319 JUMPI RETURNDATASIZE PUSH1 0x0 DUP1 RETURNDATACOPY RETURNDATASIZE PUSH1 0x0 REVERT JUMPDEST POP POP POP POP PUSH1 0x40 MLOAD RETURNDATASIZE PUSH1 0x1F NOT PUSH1 0x1F DUP3 ADD AND DUP3 ADD DUP1 PUSH1 0x40 MSTORE POP DUP2 ADD SWAP1 PUSH3 0x33F SWAP2 SWAP1 PUSH3 0x9AA JUMP JUMPDEST PUSH1 0x2 PUSH1 0x0 PUSH2 0x100 EXP DUP2 SLOAD DUP2 PUSH20 0xFFFFFFFFFFFFFFFFFFFFFFFFFFFFFFFFFFFFFFFF MUL NOT AND SWAP1 DUP4 PUSH20 0xFFFFFFFFFFFFFFFFFFFFFFFFFFFFFFFFFFFFFFFF AND MUL OR SWAP1 SSTORE POP PUSH1 0x1 PUSH1 0x0 SWAP1 SLOAD SWAP1 PUSH2 0x100 EXP SWAP1 DIV PUSH20 0xFFFFFFFFFFFFFFFFFFFFFFFFFFFFFFFFFFFFFFFF AND PUSH20 0xFFFFFFFFFFFFFFFFFFFFFFFFFFFFFFFFFFFFFFFF AND PUSH4 0xB18B78DD PUSH1 0x40 MLOAD DUP2 PUSH4 0xFFFFFFFF AND PUSH1 0xE0 SHL DUP2 MSTORE PUSH1 0x4 ADD PUSH1 0x20 PUSH1 0x40 MLOAD DUP1 DUP4 SUB DUP2 DUP7 GAS STATICCALL ISZERO DUP1 ISZERO PUSH3 0x3ED JUMPI RETURNDATASIZE PUSH1 0x0 DUP1 RETURNDATACOPY RETURNDATASIZE PUSH1 0x0 REVERT JUMPDEST POP POP POP POP PUSH1 0x40 MLOAD RETURNDATASIZE PUSH1 0x1F NOT PUSH1 0x1F DUP3 ADD AND DUP3 ADD DUP1 PUSH1 0x40 MSTORE POP DUP2 ADD SWAP1 PUSH3 0x413 SWAP2 SWAP1 PUSH3 0x9AA JUMP JUMPDEST PUSH1 0x3 PUSH1 0x0 PUSH2 0x100 EXP DUP2 SLOAD DUP2 PUSH20 0xFFFFFFFFFFFFFFFFFFFFFFFFFFFFFFFFFFFFFFFF MUL NOT AND SWAP1 DUP4 PUSH20 0xFFFFFFFFFFFFFFFFFFFFFFFFFFFFFFFFFFFFFFFF AND MUL OR SWAP1 SSTORE POP PUSH1 0x3 PUSH1 0x0 SWAP1 SLOAD SWAP1 PUSH2 0x100 EXP SWAP1 DIV PUSH20 0xFFFFFFFFFFFFFFFFFFFFFFFFFFFFFFFFFFFFFFFF AND PUSH1 0xA PUSH1 0x0 PUSH2 0x100 EXP DUP2 SLOAD DUP2 PUSH20 0xFFFFFFFFFFFFFFFFFFFFFFFFFFFFFFFFFFFFFFFF MUL NOT AND SWAP1 DUP4 PUSH20 0xFFFFFFFFFFFFFFFFFFFFFFFFFFFFFFFFFFFFFFFF AND MUL OR SWAP1 SSTORE POP DUP3 PUSH1 0x4 PUSH1 0x0 PUSH2 0x100 EXP DUP2 SLOAD DUP2 PUSH20 0xFFFFFFFFFFFFFFFFFFFFFFFFFFFFFFFFFFFFFFFF MUL NOT AND SWAP1 DUP4 PUSH20 0xFFFFFFFFFFFFFFFFFFFFFFFFFFFFFFFFFFFFFFFF AND MUL OR SWAP1 SSTORE POP DUP2 PUSH1 0x5 PUSH1 0x0 PUSH2 0x100 EXP DUP2 SLOAD DUP2 PUSH20 0xFFFFFFFFFFFFFFFFFFFFFFFFFFFFFFFFFFFFFFFF MUL NOT AND SWAP1 DUP4 PUSH20 0xFFFFFFFFFFFFFFFFFFFFFFFFFFFFFFFFFFFFFFFF AND MUL OR SWAP1 SSTORE POP PUSH1 0x5 PUSH1 0x0 SWAP1 SLOAD SWAP1 PUSH2 0x100 EXP SWAP1 DIV PUSH20 0xFFFFFFFFFFFFFFFFFFFFFFFFFFFFFFFFFFFFFFFF AND PUSH1 0x8 PUSH1 0x0 PUSH2 0x100 EXP DUP2 SLOAD DUP2 PUSH20 0xFFFFFFFFFFFFFFFFFFFFFFFFFFFFFFFFFFFFFFFF MUL NOT AND SWAP1 DUP4 PUSH20 0xFFFFFFFFFFFFFFFFFFFFFFFFFFFFFFFFFFFFFFFF AND MUL OR SWAP1 SSTORE POP PUSH3 0x5AC DUP2 PUSH3 0x760 PUSH1 0x20 SHL PUSH1 0x20 SHR JUMP JUMPDEST PUSH1 0x40 MLOAD DUP1 PUSH1 0x40 ADD PUSH1 0x40 MSTORE DUP1 PUSH1 0x0 DUP1 SLOAD SWAP1 PUSH2 0x100 EXP SWAP1 DIV PUSH20 0xFFFFFFFFFFFFFFFFFFFFFFFFFFFFFFFFFFFFFFFF AND PUSH20 0xFFFFFFFFFFFFFFFFFFFFFFFFFFFFFFFFFFFFFFFF AND PUSH20 0xFFFFFFFFFFFFFFFFFFFFFFFFFFFFFFFFFFFFFFFF AND DUP2 MSTORE PUSH1 0x20 ADD PUSH1 0x1 PUSH1 0x0 SWAP1 SLOAD SWAP1 PUSH2 0x100 EXP SWAP1 DIV PUSH20 0xFFFFFFFFFFFFFFFFFFFFFFFFFFFFFFFFFFFFFFFF AND PUSH20 0xFFFFFFFFFFFFFFFFFFFFFFFFFFFFFFFFFFFFFFFF AND PUSH20 0xFFFFFFFFFFFFFFFFFFFFFFFFFFFFFFFFFFFFFFFF AND DUP2 MSTORE POP PUSH1 0x7 SWAP1 PUSH1 0x2 PUSH3 0x66D SWAP3 SWAP2 SWAP1 PUSH3 0x820 JUMP JUMPDEST POP PUSH1 0x1 PUSH1 0x0 SWAP1 SLOAD SWAP1 PUSH2 0x100 EXP SWAP1 DIV PUSH20 0xFFFFFFFFFFFFFFFFFFFFFFFFFFFFFFFFFFFFFFFF AND PUSH20 0xFFFFFFFFFFFFFFFFFFFFFFFFFFFFFFFFFFFFFFFF AND PUSH4 0x95EA7B3 PUSH1 0x6 PUSH1 0x0 SWAP1 SLOAD SWAP1 PUSH2 0x100 EXP SWAP1 DIV PUSH20 0xFFFFFFFFFFFFFFFFFFFFFFFFFFFFFFFFFFFFFFFF AND PUSH32 0xFFFFFFFFFFFFFFFFFFFFFFFFFFFFFFFFFFFFFFFFFFFFFFFFFFFFFFFFFFFFFFFF PUSH1 0x40 MLOAD DUP4 PUSH4 0xFFFFFFFF AND PUSH1 0xE0 SHL DUP2 MSTORE PUSH1 0x4 ADD PUSH3 0x70F SWAP3 SWAP2 SWAP1 PUSH3 0xA08 JUMP JUMPDEST PUSH1 0x20 PUSH1 0x40 MLOAD DUP1 DUP4 SUB DUP2 PUSH1 0x0 DUP8 GAS CALL ISZERO DUP1 ISZERO PUSH3 0x72F JUMPI RETURNDATASIZE PUSH1 0x0 DUP1 RETURNDATACOPY RETURNDATASIZE PUSH1 0x0 REVERT JUMPDEST POP POP POP POP PUSH1 0x40 MLOAD RETURNDATASIZE PUSH1 0x1F NOT PUSH1 0x1F DUP3 ADD AND DUP3 ADD DUP1 PUSH1 0x40 MSTORE POP DUP2 ADD SWAP1 PUSH3 0x755 SWAP2 SWAP1 PUSH3 0xA72 JUMP JUMPDEST POP POP POP POP POP PUSH3 0xAA4 JUMP JUMPDEST PUSH3 0x773 PUSH1 0x0 DUP3 PUSH3 0x776 PUSH1 0x20 SHL PUSH1 0x20 SHR JUMP JUMPDEST POP JUMP JUMPDEST PUSH1 0x0 PUSH1 0xD DUP1 SLOAD SWAP1 POP SWAP1 POP PUSH1 0x0 PUSH1 0xC PUSH1 0x0 PUSH1 0xD DUP1 SLOAD SWAP1 POP DUP2 MSTORE PUSH1 0x20 ADD SWAP1 DUP2 MSTORE PUSH1 0x20 ADD PUSH1 0x0 KECCAK256 SWAP1 POP DUP2 DUP2 PUSH1 0x0 ADD DUP2 SWAP1 SSTORE POP DUP3 DUP2 PUSH1 0x1 ADD PUSH1 0x0 PUSH2 0x100 EXP DUP2 SLOAD DUP2 PUSH20 0xFFFFFFFFFFFFFFFFFFFFFFFFFFFFFFFFFFFFFFFF MUL NOT AND SWAP1 DUP4 PUSH20 0xFFFFFFFFFFFFFFFFFFFFFFFFFFFFFFFFFFFFFFFF AND MUL OR SWAP1 SSTORE POP DUP4 DUP2 PUSH1 0x2 ADD DUP2 SWAP1 SSTORE POP PUSH1 0xD DUP3 SWAP1 DUP1 PUSH1 0x1 DUP2 SLOAD ADD DUP1 DUP3 SSTORE DUP1 SWAP2 POP POP PUSH1 0x1 SWAP1 SUB SWAP1 PUSH1 0x0 MSTORE PUSH1 0x20 PUSH1 0x0 KECCAK256 ADD PUSH1 0x0 SWAP1 SWAP2 SWAP1 SWAP2 SWAP1 SWAP2 POP SSTORE POP POP POP POP JUMP JUMPDEST DUP3 DUP1 SLOAD DUP3 DUP3 SSTORE SWAP1 PUSH1 0x0 MSTORE PUSH1 0x20 PUSH1 0x0 KECCAK256 SWAP1 DUP2 ADD SWAP3 DUP3 ISZERO PUSH3 0x89C JUMPI SWAP2 PUSH1 0x20 MUL DUP3 ADD JUMPDEST DUP3 DUP2 GT ISZERO PUSH3 0x89B JUMPI DUP3 MLOAD DUP3 PUSH1 0x0 PUSH2 0x100 EXP DUP2 SLOAD DUP2 PUSH20 0xFFFFFFFFFFFFFFFFFFFFFFFFFFFFFFFFFFFFFFFF MUL NOT AND SWAP1 DUP4 PUSH20 0xFFFFFFFFFFFFFFFFFFFFFFFFFFFFFFFFFFFFFFFF AND MUL OR SWAP1 SSTORE POP SWAP2 PUSH1 0x20 ADD SWAP2 SWAP1 PUSH1 0x1 ADD SWAP1 PUSH3 0x841 JUMP JUMPDEST JUMPDEST POP SWAP1 POP PUSH3 0x8AB SWAP2 SWAP1 PUSH3 0x8AF JUMP JUMPDEST POP SWAP1 JUMP JUMPDEST JUMPDEST DUP1 DUP3 GT ISZERO PUSH3 0x8CA JUMPI PUSH1 0x0 DUP2 PUSH1 0x0 SWAP1 SSTORE POP PUSH1 0x1 ADD PUSH3 0x8B0 JUMP JUMPDEST POP SWAP1 JUMP JUMPDEST PUSH1 0x0 DUP1 REVERT JUMPDEST PUSH1 0x0 PUSH20 0xFFFFFFFFFFFFFFFFFFFFFFFFFFFFFFFFFFFFFFFF DUP3 AND SWAP1 POP SWAP2 SWAP1 POP JUMP JUMPDEST PUSH1 0x0 PUSH3 0x900 DUP3 PUSH3 0x8D3 JUMP JUMPDEST SWAP1 POP SWAP2 SWAP1 POP JUMP JUMPDEST PUSH3 0x912 DUP2 PUSH3 0x8F3 JUMP JUMPDEST DUP2 EQ PUSH3 0x91E JUMPI PUSH1 0x0 DUP1 REVERT JUMPDEST POP JUMP JUMPDEST PUSH1 0x0 DUP2 MLOAD SWAP1 POP PUSH3 0x932 DUP2 PUSH3 0x907 JUMP JUMPDEST SWAP3 SWAP2 POP POP JUMP JUMPDEST PUSH1 0x0 DUP1 PUSH1 0x0 DUP1 PUSH1 0x80 DUP6 DUP8 SUB SLT ISZERO PUSH3 0x955 JUMPI PUSH3 0x954 PUSH3 0x8CE JUMP JUMPDEST JUMPDEST PUSH1 0x0 PUSH3 0x965 DUP8 DUP3 DUP9 ADD PUSH3 0x921 JUMP JUMPDEST SWAP5 POP POP PUSH1 0x20 PUSH3 0x978 DUP8 DUP3 DUP9 ADD PUSH3 0x921 JUMP JUMPDEST SWAP4 POP POP PUSH1 0x40 PUSH3 0x98B DUP8 DUP3 DUP9 ADD PUSH3 0x921 JUMP JUMPDEST SWAP3 POP POP PUSH1 0x60 PUSH3 0x99E DUP8 DUP3 DUP9 ADD PUSH3 0x921 JUMP JUMPDEST SWAP2 POP POP SWAP3 SWAP6 SWAP2 SWAP5 POP SWAP3 POP JUMP JUMPDEST PUSH1 0x0 PUSH1 0x20 DUP3 DUP5 SUB SLT ISZERO PUSH3 0x9C3 JUMPI PUSH3 0x9C2 PUSH3 0x8CE JUMP JUMPDEST JUMPDEST PUSH1 0x0 PUSH3 0x9D3 DUP5 DUP3 DUP6 ADD PUSH3 0x921 JUMP JUMPDEST SWAP2 POP POP SWAP3 SWAP2 POP POP JUMP JUMPDEST PUSH3 0x9E7 DUP2 PUSH3 0x8F3 JUMP JUMPDEST DUP3 MSTORE POP POP JUMP JUMPDEST PUSH1 0x0 DUP2 SWAP1 POP SWAP2 SWAP1 POP JUMP JUMPDEST PUSH3 0xA02 DUP2 PUSH3 0x9ED JUMP JUMPDEST DUP3 MSTORE POP POP JUMP JUMPDEST PUSH1 0x0 PUSH1 0x40 DUP3 ADD SWAP1 POP PUSH3 0xA1F PUSH1 0x0 DUP4 ADD DUP6 PUSH3 0x9DC JUMP JUMPDEST PUSH3 0xA2E PUSH1 0x20 DUP4 ADD DUP5 PUSH3 0x9F7 JUMP JUMPDEST SWAP4 SWAP3 POP POP POP JUMP JUMPDEST PUSH1 0x0 DUP2 ISZERO ISZERO SWAP1 POP SWAP2 SWAP1 POP JUMP JUMPDEST PUSH3 0xA4C DUP2 PUSH3 0xA35 JUMP JUMPDEST DUP2 EQ PUSH3 0xA58 JUMPI PUSH1 0x0 DUP1 REVERT JUMPDEST POP JUMP JUMPDEST PUSH1 0x0 DUP2 MLOAD SWAP1 POP PUSH3 0xA6C DUP2 PUSH3 0xA41 JUMP JUMPDEST SWAP3 SWAP2 POP POP JUMP JUMPDEST PUSH1 0x0 PUSH1 0x20 DUP3 DUP5 SUB SLT ISZERO PUSH3 0xA8B JUMPI PUSH3 0xA8A PUSH3 0x8CE JUMP JUMPDEST JUMPDEST PUSH1 0x0 PUSH3 0xA9B DUP5 DUP3 DUP6 ADD PUSH3 0xA5B JUMP JUMPDEST SWAP2 POP POP SWAP3 SWAP2 POP POP JUMP JUMPDEST PUSH2 0x3748 DUP1 PUSH3 0xAB4 PUSH1 0x0 CODECOPY PUSH1 0x0 RETURN INVALID PUSH1 0x80 PUSH1 0x40 MSTORE PUSH1 0x4 CALLDATASIZE LT PUSH2 0x123 JUMPI PUSH1 0x0 CALLDATALOAD PUSH1 0xE0 SHR DUP1 PUSH4 0xA09EDE07 GT PUSH2 0xA0 JUMPI DUP1 PUSH4 0xAF6D1FE4 GT PUSH2 0x64 JUMPI DUP1 PUSH4 0xAF6D1FE4 EQ PUSH2 0x3A8 JUMPI DUP1 PUSH4 0xBD3733FE EQ PUSH2 0x3E5 JUMPI DUP1 PUSH4 0xBFD9EA5B EQ PUSH2 0x410 JUMPI DUP1 PUSH4 0xC1F2E5F1 EQ PUSH2 0x43B JUMPI DUP1 PUSH4 0xD4AFA675 EQ PUSH2 0x466 JUMPI PUSH2 0x12A JUMP JUMPDEST DUP1 PUSH4 0xA09EDE07 EQ PUSH2 0x2D1 JUMPI DUP1 PUSH4 0xA6021ACE EQ PUSH2 0x2FC JUMPI DUP1 PUSH4 0xA785A3D8 EQ PUSH2 0x327 JUMPI DUP1 PUSH4 0xA89AE4BA EQ PUSH2 0x352 JUMPI DUP1 PUSH4 0xAEF75107 EQ PUSH2 0x37D JUMPI PUSH2 0x12A JUMP JUMPDEST DUP1 PUSH4 0x51CFF8D9 GT PUSH2 0xE7 JUMPI DUP1 PUSH4 0x51CFF8D9 EQ PUSH2 0x209 JUMPI DUP1 PUSH4 0x620A703C EQ PUSH2 0x232 JUMPI DUP1 PUSH4 0x777B506F EQ PUSH2 0x250 JUMPI DUP1 PUSH4 0x86D02608 EQ PUSH2 0x27B JUMPI DUP1 PUSH4 0x9DD58B58 EQ PUSH2 0x2A6 JUMPI PUSH2 0x12A JUMP JUMPDEST DUP1 PUSH4 0xB2B4D9B EQ PUSH2 0x12F JUMPI DUP1 PUSH4 0x1B017FDE EQ PUSH2 0x14B JUMPI DUP1 PUSH4 0x20CA3C7F EQ PUSH2 0x174 JUMPI DUP1 PUSH4 0x2C4C3C1B EQ PUSH2 0x19F JUMPI DUP1 PUSH4 0x4CFD1BA5 EQ PUSH2 0x1DE JUMPI PUSH2 0x12A JUMP JUMPDEST CALLDATASIZE PUSH2 0x12A JUMPI STOP JUMPDEST PUSH1 0x0 DUP1 REVERT JUMPDEST PUSH2 0x149 PUSH1 0x4 DUP1 CALLDATASIZE SUB DUP2 ADD SWAP1 PUSH2 0x144 SWAP2 SWAP1 PUSH2 0x25B4 JUMP JUMPDEST PUSH2 0x48F JUMP JUMPDEST STOP JUMPDEST CALLVALUE DUP1 ISZERO PUSH2 0x157 JUMPI PUSH1 0x0 DUP1 REVERT JUMPDEST POP PUSH2 0x172 PUSH1 0x4 DUP1 CALLDATASIZE SUB DUP2 ADD SWAP1 PUSH2 0x16D SWAP2 SWAP1 PUSH2 0x25B4 JUMP JUMPDEST PUSH2 0x4A4 JUMP JUMPDEST STOP JUMPDEST CALLVALUE DUP1 ISZERO PUSH2 0x180 JUMPI PUSH1 0x0 DUP1 REVERT JUMPDEST POP PUSH2 0x189 PUSH2 0x4E8 JUMP JUMPDEST PUSH1 0x40 MLOAD PUSH2 0x196 SWAP2 SWAP1 PUSH2 0x25F0 JUMP JUMPDEST PUSH1 0x40 MLOAD DUP1 SWAP2 SUB SWAP1 RETURN JUMPDEST CALLVALUE DUP1 ISZERO PUSH2 0x1AB JUMPI PUSH1 0x0 DUP1 REVERT JUMPDEST POP PUSH2 0x1C6 PUSH1 0x4 DUP1 CALLDATASIZE SUB DUP2 ADD SWAP1 PUSH2 0x1C1 SWAP2 SWAP1 PUSH2 0x2641 JUMP JUMPDEST PUSH2 0x50E JUMP JUMPDEST PUSH1 0x40 MLOAD PUSH2 0x1D5 SWAP4 SWAP3 SWAP2 SWAP1 PUSH2 0x267D JUMP JUMPDEST PUSH1 0x40 MLOAD DUP1 SWAP2 SUB SWAP1 RETURN JUMPDEST CALLVALUE DUP1 ISZERO PUSH2 0x1EA JUMPI PUSH1 0x0 DUP1 REVERT JUMPDEST POP PUSH2 0x1F3 PUSH2 0x558 JUMP JUMPDEST PUSH1 0x40 MLOAD PUSH2 0x200 SWAP2 SWAP1 PUSH2 0x26B4 JUMP JUMPDEST PUSH1 0x40 MLOAD DUP1 SWAP2 SUB SWAP1 RETURN JUMPDEST CALLVALUE DUP1 ISZERO PUSH2 0x215 JUMPI PUSH1 0x0 DUP1 REVERT JUMPDEST POP PUSH2 0x230 PUSH1 0x4 DUP1 CALLDATASIZE SUB DUP2 ADD SWAP1 PUSH2 0x22B SWAP2 SWAP1 PUSH2 0x25B4 JUMP JUMPDEST PUSH2 0x55E JUMP JUMPDEST STOP JUMPDEST PUSH2 0x23A PUSH2 0x665 JUMP JUMPDEST PUSH1 0x40 MLOAD PUSH2 0x247 SWAP2 SWAP1 PUSH2 0x26B4 JUMP JUMPDEST PUSH1 0x40 MLOAD DUP1 SWAP2 SUB SWAP1 RETURN JUMPDEST CALLVALUE DUP1 ISZERO PUSH2 0x25C JUMPI PUSH1 0x0 DUP1 REVERT JUMPDEST POP PUSH2 0x265 PUSH2 0xF00 JUMP JUMPDEST PUSH1 0x40 MLOAD PUSH2 0x272 SWAP2 SWAP1 PUSH2 0x25F0 JUMP JUMPDEST PUSH1 0x40 MLOAD DUP1 SWAP2 SUB SWAP1 RETURN JUMPDEST CALLVALUE DUP1 ISZERO PUSH2 0x287 JUMPI PUSH1 0x0 DUP1 REVERT JUMPDEST POP PUSH2 0x290 PUSH2 0xF26 JUMP JUMPDEST PUSH1 0x40 MLOAD PUSH2 0x29D SWAP2 SWAP1 PUSH2 0x26B4 JUMP JUMPDEST PUSH1 0x40 MLOAD DUP1 SWAP2 SUB SWAP1 RETURN JUMPDEST CALLVALUE DUP1 ISZERO PUSH2 0x2B2 JUMPI PUSH1 0x0 DUP1 REVERT JUMPDEST POP PUSH2 0x2BB PUSH2 0xF2C JUMP JUMPDEST PUSH1 0x40 MLOAD PUSH2 0x2C8 SWAP2 SWAP1 PUSH2 0x26B4 JUMP JUMPDEST PUSH1 0x40 MLOAD DUP1 SWAP2 SUB SWAP1 RETURN JUMPDEST CALLVALUE DUP1 ISZERO PUSH2 0x2DD JUMPI PUSH1 0x0 DUP1 REVERT JUMPDEST POP PUSH2 0x2E6 PUSH2 0xFCF JUMP JUMPDEST PUSH1 0x40 MLOAD PUSH2 0x2F3 SWAP2 SWAP1 PUSH2 0x26B4 JUMP JUMPDEST PUSH1 0x40 MLOAD DUP1 SWAP2 SUB SWAP1 RETURN JUMPDEST CALLVALUE DUP1 ISZERO PUSH2 0x308 JUMPI PUSH1 0x0 DUP1 REVERT JUMPDEST POP PUSH2 0x311 PUSH2 0xFD5 JUMP JUMPDEST PUSH1 0x40 MLOAD PUSH2 0x31E SWAP2 SWAP1 PUSH2 0x25F0 JUMP JUMPDEST PUSH1 0x40 MLOAD DUP1 SWAP2 SUB SWAP1 RETURN JUMPDEST CALLVALUE DUP1 ISZERO PUSH2 0x333 JUMPI PUSH1 0x0 DUP1 REVERT JUMPDEST POP PUSH2 0x33C PUSH2 0xFFB JUMP JUMPDEST PUSH1 0x40 MLOAD PUSH2 0x349 SWAP2 SWAP1 PUSH2 0x25F0 JUMP JUMPDEST PUSH1 0x40 MLOAD DUP1 SWAP2 SUB SWAP1 RETURN JUMPDEST CALLVALUE DUP1 ISZERO PUSH2 0x35E JUMPI PUSH1 0x0 DUP1 REVERT JUMPDEST POP PUSH2 0x367 PUSH2 0x101F JUMP JUMPDEST PUSH1 0x40 MLOAD PUSH2 0x374 SWAP2 SWAP1 PUSH2 0x25F0 JUMP JUMPDEST PUSH1 0x40 MLOAD DUP1 SWAP2 SUB SWAP1 RETURN JUMPDEST CALLVALUE DUP1 ISZERO PUSH2 0x389 JUMPI PUSH1 0x0 DUP1 REVERT JUMPDEST POP PUSH2 0x392 PUSH2 0x1045 JUMP JUMPDEST PUSH1 0x40 MLOAD PUSH2 0x39F SWAP2 SWAP1 PUSH2 0x25F0 JUMP JUMPDEST PUSH1 0x40 MLOAD DUP1 SWAP2 SUB SWAP1 RETURN JUMPDEST CALLVALUE DUP1 ISZERO PUSH2 0x3B4 JUMPI PUSH1 0x0 DUP1 REVERT JUMPDEST POP PUSH2 0x3CF PUSH1 0x4 DUP1 CALLDATASIZE SUB DUP2 ADD SWAP1 PUSH2 0x3CA SWAP2 SWAP1 PUSH2 0x2641 JUMP JUMPDEST PUSH2 0x106B JUMP JUMPDEST PUSH1 0x40 MLOAD PUSH2 0x3DC SWAP2 SWAP1 PUSH2 0x25F0 JUMP JUMPDEST PUSH1 0x40 MLOAD DUP1 SWAP2 SUB SWAP1 RETURN JUMPDEST CALLVALUE DUP1 ISZERO PUSH2 0x3F1 JUMPI PUSH1 0x0 DUP1 REVERT JUMPDEST POP PUSH2 0x3FA PUSH2 0x10AA JUMP JUMPDEST PUSH1 0x40 MLOAD PUSH2 0x407 SWAP2 SWAP1 PUSH2 0x25F0 JUMP JUMPDEST PUSH1 0x40 MLOAD DUP1 SWAP2 SUB SWAP1 RETURN JUMPDEST CALLVALUE DUP1 ISZERO PUSH2 0x41C JUMPI PUSH1 0x0 DUP1 REVERT JUMPDEST POP PUSH2 0x425 PUSH2 0x10D0 JUMP JUMPDEST PUSH1 0x40 MLOAD PUSH2 0x432 SWAP2 SWAP1 PUSH2 0x26B4 JUMP JUMPDEST PUSH1 0x40 MLOAD DUP1 SWAP2 SUB SWAP1 RETURN JUMPDEST CALLVALUE DUP1 ISZERO PUSH2 0x447 JUMPI PUSH1 0x0 DUP1 REVERT JUMPDEST POP PUSH2 0x450 PUSH2 0x10FF JUMP JUMPDEST PUSH1 0x40 MLOAD PUSH2 0x45D SWAP2 SWAP1 PUSH2 0x26B4 JUMP JUMPDEST PUSH1 0x40 MLOAD DUP1 SWAP2 SUB SWAP1 RETURN JUMPDEST CALLVALUE DUP1 ISZERO PUSH2 0x472 JUMPI PUSH1 0x0 DUP1 REVERT JUMPDEST POP PUSH2 0x48D PUSH1 0x4 DUP1 CALLDATASIZE SUB DUP2 ADD SWAP1 PUSH2 0x488 SWAP2 SWAP1 PUSH2 0x2641 JUMP JUMPDEST PUSH2 0x1276 JUMP JUMPDEST STOP JUMPDEST PUSH2 0x499 CALLVALUE DUP3 PUSH2 0x1308 JUMP JUMPDEST PUSH2 0x4A1 PUSH2 0x13B2 JUMP JUMPDEST POP JUMP JUMPDEST DUP1 PUSH1 0x1 PUSH1 0x0 PUSH2 0x100 EXP DUP2 SLOAD DUP2 PUSH20 0xFFFFFFFFFFFFFFFFFFFFFFFFFFFFFFFFFFFFFFFF MUL NOT AND SWAP1 DUP4 PUSH20 0xFFFFFFFFFFFFFFFFFFFFFFFFFFFFFFFFFFFFFFFF AND MUL OR SWAP1 SSTORE POP POP JUMP JUMPDEST PUSH1 0x6 PUSH1 0x0 SWAP1 SLOAD SWAP1 PUSH2 0x100 EXP SWAP1 DIV PUSH20 0xFFFFFFFFFFFFFFFFFFFFFFFFFFFFFFFFFFFFFFFF AND DUP2 JUMP JUMPDEST PUSH1 0xC PUSH1 0x20 MSTORE DUP1 PUSH1 0x0 MSTORE PUSH1 0x40 PUSH1 0x0 KECCAK256 PUSH1 0x0 SWAP2 POP SWAP1 POP DUP1 PUSH1 0x0 ADD SLOAD SWAP1 DUP1 PUSH1 0x1 ADD PUSH1 0x0 SWAP1 SLOAD SWAP1 PUSH2 0x100 EXP SWAP1 DIV PUSH20 0xFFFFFFFFFFFFFFFFFFFFFFFFFFFFFFFFFFFFFFFF AND SWAP1 DUP1 PUSH1 0x2 ADD SLOAD SWAP1 POP DUP4 JUMP JUMPDEST PUSH1 0xF SLOAD DUP2 JUMP JUMPDEST PUSH1 0x0 DUP2 SWAP1 POP PUSH1 0x0 DUP2 PUSH20 0xFFFFFFFFFFFFFFFFFFFFFFFFFFFFFFFFFFFFFFFF AND PUSH4 0x70A08231 ADDRESS PUSH1 0x40 MLOAD DUP3 PUSH4 0xFFFFFFFF AND PUSH1 0xE0 SHL DUP2 MSTORE PUSH1 0x4 ADD PUSH2 0x59E SWAP2 SWAP1 PUSH2 0x25F0 JUMP JUMPDEST PUSH1 0x20 PUSH1 0x40 MLOAD DUP1 DUP4 SUB DUP2 DUP7 GAS STATICCALL ISZERO DUP1 ISZERO PUSH2 0x5BB JUMPI RETURNDATASIZE PUSH1 0x0 DUP1 RETURNDATACOPY RETURNDATASIZE PUSH1 0x0 REVERT JUMPDEST POP POP POP POP PUSH1 0x40 MLOAD RETURNDATASIZE PUSH1 0x1F NOT PUSH1 0x1F DUP3 ADD AND DUP3 ADD DUP1 PUSH1 0x40 MSTORE POP DUP2 ADD SWAP1 PUSH2 0x5DF SWAP2 SWAP1 PUSH2 0x26E4 JUMP JUMPDEST SWAP1 POP DUP2 PUSH20 0xFFFFFFFFFFFFFFFFFFFFFFFFFFFFFFFFFFFFFFFF AND PUSH4 0xA9059CBB CALLER DUP4 PUSH1 0x40 MLOAD DUP4 PUSH4 0xFFFFFFFF AND PUSH1 0xE0 SHL DUP2 MSTORE PUSH1 0x4 ADD PUSH2 0x61C SWAP3 SWAP2 SWAP1 PUSH2 0x2711 JUMP JUMPDEST PUSH1 0x20 PUSH1 0x40 MLOAD DUP1 DUP4 SUB DUP2 PUSH1 0x0 DUP8 GAS CALL ISZERO DUP1 ISZERO PUSH2 0x63B JUMPI RETURNDATASIZE PUSH1 0x0 DUP1 RETURNDATACOPY RETURNDATASIZE PUSH1 0x0 REVERT JUMPDEST POP POP POP POP PUSH1 0x40 MLOAD RETURNDATASIZE PUSH1 0x1F NOT PUSH1 0x1F DUP3 ADD AND DUP3 ADD DUP1 PUSH1 0x40 MSTORE POP DUP2 ADD SWAP1 PUSH2 0x65F SWAP2 SWAP1 PUSH2 0x2772 JUMP JUMPDEST POP POP POP POP JUMP JUMPDEST PUSH1 0x0 DUP1 PUSH1 0x0 PUSH1 0x1 PUSH1 0x0 SWAP1 SLOAD SWAP1 PUSH2 0x100 EXP SWAP1 DIV PUSH20 0xFFFFFFFFFFFFFFFFFFFFFFFFFFFFFFFFFFFFFFFF AND PUSH20 0xFFFFFFFFFFFFFFFFFFFFFFFFFFFFFFFFFFFFFFFF AND PUSH4 0x70A08231 ADDRESS PUSH1 0x40 MLOAD DUP3 PUSH4 0xFFFFFFFF AND PUSH1 0xE0 SHL DUP2 MSTORE PUSH1 0x4 ADD PUSH2 0x6C5 SWAP2 SWAP1 PUSH2 0x25F0 JUMP JUMPDEST PUSH1 0x20 PUSH1 0x40 MLOAD DUP1 DUP4 SUB DUP2 DUP7 GAS STATICCALL ISZERO DUP1 ISZERO PUSH2 0x6E2 JUMPI RETURNDATASIZE PUSH1 0x0 DUP1 RETURNDATACOPY RETURNDATASIZE PUSH1 0x0 REVERT JUMPDEST POP POP POP POP PUSH1 0x40 MLOAD RETURNDATASIZE PUSH1 0x1F NOT PUSH1 0x1F DUP3 ADD AND DUP3 ADD DUP1 PUSH1 0x40 MSTORE POP DUP2 ADD SWAP1 PUSH2 0x706 SWAP2 SWAP1 PUSH2 0x26E4 JUMP JUMPDEST SWAP1 POP PUSH1 0x0 PUSH1 0x64 PUSH1 0x69 PUSH1 0xA PUSH1 0x0 SWAP1 SLOAD SWAP1 PUSH2 0x100 EXP SWAP1 DIV PUSH20 0xFFFFFFFFFFFFFFFFFFFFFFFFFFFFFFFFFFFFFFFF AND PUSH20 0xFFFFFFFFFFFFFFFFFFFFFFFFFFFFFFFFFFFFFFFF AND PUSH4 0x3AC35585 PUSH1 0x0 DUP1 SLOAD SWAP1 PUSH2 0x100 EXP SWAP1 DIV PUSH20 0xFFFFFFFFFFFFFFFFFFFFFFFFFFFFFFFFFFFFFFFF AND CALLVALUE PUSH1 0x40 MLOAD DUP4 PUSH4 0xFFFFFFFF AND PUSH1 0xE0 SHL DUP2 MSTORE PUSH1 0x4 ADD PUSH2 0x78B SWAP3 SWAP2 SWAP1 PUSH2 0x2711 JUMP JUMPDEST PUSH1 0x20 PUSH1 0x40 MLOAD DUP1 DUP4 SUB DUP2 DUP7 GAS STATICCALL ISZERO DUP1 ISZERO PUSH2 0x7A8 JUMPI RETURNDATASIZE PUSH1 0x0 DUP1 RETURNDATACOPY RETURNDATASIZE PUSH1 0x0 REVERT JUMPDEST POP POP POP POP PUSH1 0x40 MLOAD RETURNDATASIZE PUSH1 0x1F NOT PUSH1 0x1F DUP3 ADD AND DUP3 ADD DUP1 PUSH1 0x40 MSTORE POP DUP2 ADD SWAP1 PUSH2 0x7CC SWAP2 SWAP1 PUSH2 0x26E4 JUMP JUMPDEST PUSH2 0x7D6 SWAP2 SWAP1 PUSH2 0x27CE JUMP JUMPDEST PUSH2 0x7E0 SWAP2 SWAP1 PUSH2 0x283F JUMP JUMPDEST SWAP1 POP DUP2 DUP2 GT ISZERO PUSH2 0xA3B JUMPI PUSH32 0xCF34EF537AC33EE1AC626CA1587A0A7E8E51561E5514F8CB36AFA1C5102B3BAB PUSH1 0x40 MLOAD PUSH2 0x817 SWAP1 PUSH2 0x28CD JUMP JUMPDEST PUSH1 0x40 MLOAD DUP1 SWAP2 SUB SWAP1 LOG1 PUSH1 0x1 PUSH1 0x0 SWAP1 SLOAD SWAP1 PUSH2 0x100 EXP SWAP1 DIV PUSH20 0xFFFFFFFFFFFFFFFFFFFFFFFFFFFFFFFFFFFFFFFF AND PUSH20 0xFFFFFFFFFFFFFFFFFFFFFFFFFFFFFFFFFFFFFFFF AND PUSH4 0x96FE8349 DUP4 DUP4 PUSH2 0x869 SWAP2 SWAP1 PUSH2 0x28ED JUMP JUMPDEST ADDRESS PUSH1 0x40 MLOAD DUP4 PUSH4 0xFFFFFFFF AND PUSH1 0xE0 SHL DUP2 MSTORE PUSH1 0x4 ADD PUSH2 0x887 SWAP3 SWAP2 SWAP1 PUSH2 0x2921 JUMP JUMPDEST PUSH1 0x0 PUSH1 0x40 MLOAD DUP1 DUP4 SUB DUP2 PUSH1 0x0 DUP8 DUP1 EXTCODESIZE ISZERO DUP1 ISZERO PUSH2 0x8A1 JUMPI PUSH1 0x0 DUP1 REVERT JUMPDEST POP GAS CALL ISZERO DUP1 ISZERO PUSH2 0x8B5 JUMPI RETURNDATASIZE PUSH1 0x0 DUP1 RETURNDATACOPY RETURNDATASIZE PUSH1 0x0 REVERT JUMPDEST POP POP POP POP PUSH32 0xCF34EF537AC33EE1AC626CA1587A0A7E8E51561E5514F8CB36AFA1C5102B3BAB PUSH1 0x40 MLOAD PUSH2 0x8E6 SWAP1 PUSH2 0x2996 JUMP JUMPDEST PUSH1 0x40 MLOAD DUP1 SWAP2 SUB SWAP1 LOG1 PUSH32 0x909C57D5C6AC08245CF2A6DE3900E2B868513FA59099B92B27D8DB823D92DF9C DUP3 DUP3 PUSH2 0x91B SWAP2 SWAP1 PUSH2 0x28ED JUMP JUMPDEST PUSH1 0x40 MLOAD PUSH2 0x928 SWAP2 SWAP1 PUSH2 0x26B4 JUMP JUMPDEST PUSH1 0x40 MLOAD DUP1 SWAP2 SUB SWAP1 LOG1 PUSH1 0x1 PUSH1 0x0 SWAP1 SLOAD SWAP1 PUSH2 0x100 EXP SWAP1 DIV PUSH20 0xFFFFFFFFFFFFFFFFFFFFFFFFFFFFFFFFFFFFFFFF AND PUSH20 0xFFFFFFFFFFFFFFFFFFFFFFFFFFFFFFFFFFFFFFFF AND PUSH4 0x70A08231 ADDRESS PUSH1 0x40 MLOAD DUP3 PUSH4 0xFFFFFFFF AND PUSH1 0xE0 SHL DUP2 MSTORE PUSH1 0x4 ADD PUSH2 0x98B SWAP2 SWAP1 PUSH2 0x25F0 JUMP JUMPDEST PUSH1 0x20 PUSH1 0x40 MLOAD DUP1 DUP4 SUB DUP2 DUP7 GAS STATICCALL ISZERO DUP1 ISZERO PUSH2 0x9A8 JUMPI RETURNDATASIZE PUSH1 0x0 DUP1 RETURNDATACOPY RETURNDATASIZE PUSH1 0x0 REVERT JUMPDEST POP POP POP POP PUSH1 0x40 MLOAD RETURNDATASIZE PUSH1 0x1F NOT PUSH1 0x1F DUP3 ADD AND DUP3 ADD DUP1 PUSH1 0x40 MSTORE POP DUP2 ADD SWAP1 PUSH2 0x9CC SWAP2 SWAP1 PUSH2 0x26E4 JUMP JUMPDEST SWAP2 POP PUSH32 0xCF34EF537AC33EE1AC626CA1587A0A7E8E51561E5514F8CB36AFA1C5102B3BAB PUSH1 0x40 MLOAD PUSH2 0x9FB SWAP1 PUSH2 0x2A02 JUMP JUMPDEST PUSH1 0x40 MLOAD DUP1 SWAP2 SUB SWAP1 LOG1 PUSH32 0x909C57D5C6AC08245CF2A6DE3900E2B868513FA59099B92B27D8DB823D92DF9C DUP3 PUSH1 0x40 MLOAD PUSH2 0xA32 SWAP2 SWAP1 PUSH2 0x26B4 JUMP JUMPDEST PUSH1 0x40 MLOAD DUP1 SWAP2 SUB SWAP1 LOG1 JUMPDEST PUSH1 0xB PUSH1 0x0 SWAP1 SLOAD SWAP1 PUSH2 0x100 EXP SWAP1 DIV PUSH20 0xFFFFFFFFFFFFFFFFFFFFFFFFFFFFFFFFFFFFFFFF AND PUSH20 0xFFFFFFFFFFFFFFFFFFFFFFFFFFFFFFFFFFFFFFFF AND PUSH4 0xF305D719 CALLVALUE PUSH1 0x1 PUSH1 0x0 SWAP1 SLOAD SWAP1 PUSH2 0x100 EXP SWAP1 DIV PUSH20 0xFFFFFFFFFFFFFFFFFFFFFFFFFFFFFFFFFFFFFFFF AND DUP5 PUSH1 0x0 DUP1 ADDRESS PUSH32 0xFFFFFFFFFFFFFFFFFFFFFFFFFFFFFFFFFFFFFFFFFFFFFFFFFFFFFFFFFFFFFFFF PUSH1 0x40 MLOAD DUP9 PUSH4 0xFFFFFFFF AND PUSH1 0xE0 SHL DUP2 MSTORE PUSH1 0x4 ADD PUSH2 0xAE4 SWAP7 SWAP6 SWAP5 SWAP4 SWAP3 SWAP2 SWAP1 PUSH2 0x2A67 JUMP JUMPDEST PUSH1 0x60 PUSH1 0x40 MLOAD DUP1 DUP4 SUB DUP2 DUP6 DUP9 GAS CALL SWAP4 POP POP POP POP DUP1 ISZERO PUSH2 0xB20 JUMPI POP PUSH1 0x40 MLOAD RETURNDATASIZE PUSH1 0x1F NOT PUSH1 0x1F DUP3 ADD AND DUP3 ADD DUP1 PUSH1 0x40 MSTORE POP DUP2 ADD SWAP1 PUSH2 0xB1D SWAP2 SWAP1 PUSH2 0x2AC8 JUMP JUMPDEST PUSH1 0x1 JUMPDEST PUSH2 0xE15 JUMPI PUSH32 0xB8A00D6D8CA1BE30BFEC34D8F97E55F0F0FD9EEB7FB46E030516363D4CFE1AD6 PUSH1 0xB PUSH1 0x0 SWAP1 SLOAD SWAP1 PUSH2 0x100 EXP SWAP1 DIV PUSH20 0xFFFFFFFFFFFFFFFFFFFFFFFFFFFFFFFFFFFFFFFF AND PUSH1 0x40 MLOAD PUSH2 0xB75 SWAP2 SWAP1 PUSH2 0x25F0 JUMP JUMPDEST PUSH1 0x40 MLOAD DUP1 SWAP2 SUB SWAP1 LOG1 PUSH32 0xCF34EF537AC33EE1AC626CA1587A0A7E8E51561E5514F8CB36AFA1C5102B3BAB PUSH1 0x40 MLOAD PUSH2 0xBAA SWAP1 PUSH2 0x2B67 JUMP JUMPDEST PUSH1 0x40 MLOAD DUP1 SWAP2 SUB SWAP1 LOG1 PUSH32 0x909C57D5C6AC08245CF2A6DE3900E2B868513FA59099B92B27D8DB823D92DF9C CALLVALUE PUSH1 0x40 MLOAD PUSH2 0xBE1 SWAP2 SWAP1 PUSH2 0x26B4 JUMP JUMPDEST PUSH1 0x40 MLOAD DUP1 SWAP2 SUB SWAP1 LOG1 PUSH32 0xCF34EF537AC33EE1AC626CA1587A0A7E8E51561E5514F8CB36AFA1C5102B3BAB PUSH1 0x40 MLOAD PUSH2 0xC16 SWAP1 PUSH2 0x2BD3 JUMP JUMPDEST PUSH1 0x40 MLOAD DUP1 SWAP2 SUB SWAP1 LOG1 PUSH32 0xB8A00D6D8CA1BE30BFEC34D8F97E55F0F0FD9EEB7FB46E030516363D4CFE1AD6 PUSH1 0x1 PUSH1 0x0 SWAP1 SLOAD SWAP1 PUSH2 0x100 EXP SWAP1 DIV PUSH20 0xFFFFFFFFFFFFFFFFFFFFFFFFFFFFFFFFFFFFFFFF AND PUSH1 0x40 MLOAD PUSH2 0xC6F SWAP2 SWAP1 PUSH2 0x25F0 JUMP JUMPDEST PUSH1 0x40 MLOAD DUP1 SWAP2 SUB SWAP1 LOG1 PUSH32 0xCF34EF537AC33EE1AC626CA1587A0A7E8E51561E5514F8CB36AFA1C5102B3BAB PUSH1 0x40 MLOAD PUSH2 0xCA4 SWAP1 PUSH2 0x2C3F JUMP JUMPDEST PUSH1 0x40 MLOAD DUP1 SWAP2 SUB SWAP1 LOG1 PUSH32 0x909C57D5C6AC08245CF2A6DE3900E2B868513FA59099B92B27D8DB823D92DF9C DUP2 PUSH1 0x40 MLOAD PUSH2 0xCDB SWAP2 SWAP1 PUSH2 0x26B4 JUMP JUMPDEST PUSH1 0x40 MLOAD DUP1 SWAP2 SUB SWAP1 LOG1 PUSH32 0xCF34EF537AC33EE1AC626CA1587A0A7E8E51561E5514F8CB36AFA1C5102B3BAB PUSH1 0x40 MLOAD PUSH2 0xD10 SWAP1 PUSH2 0x2CAB JUMP JUMPDEST PUSH1 0x40 MLOAD DUP1 SWAP2 SUB SWAP1 LOG1 PUSH32 0xB8A00D6D8CA1BE30BFEC34D8F97E55F0F0FD9EEB7FB46E030516363D4CFE1AD6 ADDRESS PUSH1 0x40 MLOAD PUSH2 0xD47 SWAP2 SWAP1 PUSH2 0x25F0 JUMP JUMPDEST PUSH1 0x40 MLOAD DUP1 SWAP2 SUB SWAP1 LOG1 PUSH32 0xCF34EF537AC33EE1AC626CA1587A0A7E8E51561E5514F8CB36AFA1C5102B3BAB PUSH1 0x40 MLOAD PUSH2 0xD7C SWAP1 PUSH2 0x2D17 JUMP JUMPDEST PUSH1 0x40 MLOAD DUP1 SWAP2 SUB SWAP1 LOG1 PUSH32 0x909C57D5C6AC08245CF2A6DE3900E2B868513FA59099B92B27D8DB823D92DF9C PUSH32 0xFFFFFFFFFFFFFFFFFFFFFFFFFFFFFFFFFFFFFFFFFFFFFFFFFFFFFFFFFFFFFFFF PUSH1 0x40 MLOAD PUSH2 0xDD3 SWAP2 SWAP1 PUSH2 0x26B4 JUMP JUMPDEST PUSH1 0x40 MLOAD DUP1 SWAP2 SUB SWAP1 LOG1 PUSH32 0xCF34EF537AC33EE1AC626CA1587A0A7E8E51561E5514F8CB36AFA1C5102B3BAB PUSH1 0x40 MLOAD PUSH2 0xE08 SWAP1 PUSH2 0x2D83 JUMP JUMPDEST PUSH1 0x40 MLOAD DUP1 SWAP2 SUB SWAP1 LOG1 PUSH2 0xEF7 JUMP JUMPDEST POP POP POP PUSH32 0xCF34EF537AC33EE1AC626CA1587A0A7E8E51561E5514F8CB36AFA1C5102B3BAB PUSH1 0x40 MLOAD PUSH2 0xE45 SWAP1 PUSH2 0x2DEF JUMP JUMPDEST PUSH1 0x40 MLOAD DUP1 SWAP2 SUB SWAP1 LOG1 PUSH1 0x1 PUSH1 0x0 SWAP1 SLOAD SWAP1 PUSH2 0x100 EXP SWAP1 DIV PUSH20 0xFFFFFFFFFFFFFFFFFFFFFFFFFFFFFFFFFFFFFFFF AND PUSH20 0xFFFFFFFFFFFFFFFFFFFFFFFFFFFFFFFFFFFFFFFF AND PUSH4 0x70A08231 ADDRESS PUSH1 0x40 MLOAD DUP3 PUSH4 0xFFFFFFFF AND PUSH1 0xE0 SHL DUP2 MSTORE PUSH1 0x4 ADD PUSH2 0xEA8 SWAP2 SWAP1 PUSH2 0x25F0 JUMP JUMPDEST PUSH1 0x20 PUSH1 0x40 MLOAD DUP1 DUP4 SUB DUP2 DUP7 GAS STATICCALL ISZERO DUP1 ISZERO PUSH2 0xEC5 JUMPI RETURNDATASIZE PUSH1 0x0 DUP1 RETURNDATACOPY RETURNDATASIZE PUSH1 0x0 REVERT JUMPDEST POP POP POP POP PUSH1 0x40 MLOAD RETURNDATASIZE PUSH1 0x1F NOT PUSH1 0x1F DUP3 ADD AND DUP3 ADD DUP1 PUSH1 0x40 MSTORE POP DUP2 ADD SWAP1 PUSH2 0xEE9 SWAP2 SWAP1 PUSH2 0x26E4 JUMP JUMPDEST DUP3 PUSH2 0xEF4 SWAP2 SWAP1 PUSH2 0x28ED JUMP JUMPDEST SWAP3 POP JUMPDEST DUP3 SWAP4 POP POP POP POP SWAP1 JUMP JUMPDEST PUSH1 0x4 PUSH1 0x0 SWAP1 SLOAD SWAP1 PUSH2 0x100 EXP SWAP1 DIV PUSH20 0xFFFFFFFFFFFFFFFFFFFFFFFFFFFFFFFFFFFFFFFF AND DUP2 JUMP JUMPDEST PUSH1 0xE SLOAD DUP2 JUMP JUMPDEST PUSH1 0x0 PUSH1 0x9 PUSH1 0x0 SWAP1 SLOAD SWAP1 PUSH2 0x100 EXP SWAP1 DIV PUSH20 0xFFFFFFFFFFFFFFFFFFFFFFFFFFFFFFFFFFFFFFFF AND PUSH20 0xFFFFFFFFFFFFFFFFFFFFFFFFFFFFFFFFFFFFFFFF AND PUSH4 0x70A08231 ADDRESS PUSH1 0x40 MLOAD DUP3 PUSH4 0xFFFFFFFF AND PUSH1 0xE0 SHL DUP2 MSTORE PUSH1 0x4 ADD PUSH2 0xF89 SWAP2 SWAP1 PUSH2 0x25F0 JUMP JUMPDEST PUSH1 0x20 PUSH1 0x40 MLOAD DUP1 DUP4 SUB DUP2 DUP7 GAS STATICCALL ISZERO DUP1 ISZERO PUSH2 0xFA6 JUMPI RETURNDATASIZE PUSH1 0x0 DUP1 RETURNDATACOPY RETURNDATASIZE PUSH1 0x0 REVERT JUMPDEST POP POP POP POP PUSH1 0x40 MLOAD RETURNDATASIZE PUSH1 0x1F NOT PUSH1 0x1F DUP3 ADD AND DUP3 ADD DUP1 PUSH1 0x40 MSTORE POP DUP2 ADD SWAP1 PUSH2 0xFCA SWAP2 SWAP1 PUSH2 0x26E4 JUMP JUMPDEST SWAP1 POP SWAP1 JUMP JUMPDEST PUSH1 0x10 SLOAD DUP2 JUMP JUMPDEST PUSH1 0x1 PUSH1 0x0 SWAP1 SLOAD SWAP1 PUSH2 0x100 EXP SWAP1 DIV PUSH20 0xFFFFFFFFFFFFFFFFFFFFFFFFFFFFFFFFFFFFFFFF AND DUP2 JUMP JUMPDEST PUSH1 0x0 DUP1 SLOAD SWAP1 PUSH2 0x100 EXP SWAP1 DIV PUSH20 0xFFFFFFFFFFFFFFFFFFFFFFFFFFFFFFFFFFFFFFFF AND DUP2 JUMP JUMPDEST PUSH1 0x3 PUSH1 0x0 SWAP1 SLOAD SWAP1 PUSH2 0x100 EXP SWAP1 DIV PUSH20 0xFFFFFFFFFFFFFFFFFFFFFFFFFFFFFFFFFFFFFFFF AND DUP2 JUMP JUMPDEST PUSH1 0x5 PUSH1 0x0 SWAP1 SLOAD SWAP1 PUSH2 0x100 EXP SWAP1 DIV PUSH20 0xFFFFFFFFFFFFFFFFFFFFFFFFFFFFFFFFFFFFFFFF AND DUP2 JUMP JUMPDEST PUSH1 0x7 DUP2 DUP2 SLOAD DUP2 LT PUSH2 0x107B JUMPI PUSH1 0x0 DUP1 REVERT JUMPDEST SWAP1 PUSH1 0x0 MSTORE PUSH1 0x20 PUSH1 0x0 KECCAK256 ADD PUSH1 0x0 SWAP2 POP SLOAD SWAP1 PUSH2 0x100 EXP SWAP1 DIV PUSH20 0xFFFFFFFFFFFFFFFFFFFFFFFFFFFFFFFFFFFFFFFF AND DUP2 JUMP JUMPDEST PUSH1 0x2 PUSH1 0x0 SWAP1 SLOAD SWAP1 PUSH2 0x100 EXP SWAP1 DIV PUSH20 0xFFFFFFFFFFFFFFFFFFFFFFFFFFFFFFFFFFFFFFFF AND DUP2 JUMP JUMPDEST PUSH1 0x0 PUSH1 0xC PUSH1 0x0 PUSH1 0x1 PUSH1 0xD DUP1 SLOAD SWAP1 POP PUSH2 0x10E8 SWAP2 SWAP1 PUSH2 0x28ED JUMP JUMPDEST DUP2 MSTORE PUSH1 0x20 ADD SWAP1 DUP2 MSTORE PUSH1 0x20 ADD PUSH1 0x0 KECCAK256 PUSH1 0x2 ADD SLOAD SWAP1 POP SWAP1 JUMP JUMPDEST PUSH1 0x0 DUP1 PUSH1 0x1 PUSH1 0x0 SWAP1 SLOAD SWAP1 PUSH2 0x100 EXP SWAP1 DIV PUSH20 0xFFFFFFFFFFFFFFFFFFFFFFFFFFFFFFFFFFFFFFFF AND PUSH20 0xFFFFFFFFFFFFFFFFFFFFFFFFFFFFFFFFFFFFFFFF AND PUSH4 0x18160DDD PUSH1 0x40 MLOAD DUP2 PUSH4 0xFFFFFFFF AND PUSH1 0xE0 SHL DUP2 MSTORE PUSH1 0x4 ADD PUSH1 0x20 PUSH1 0x40 MLOAD DUP1 DUP4 SUB DUP2 DUP7 GAS STATICCALL ISZERO DUP1 ISZERO PUSH2 0x116F JUMPI RETURNDATASIZE PUSH1 0x0 DUP1 RETURNDATACOPY RETURNDATASIZE PUSH1 0x0 REVERT JUMPDEST POP POP POP POP PUSH1 0x40 MLOAD RETURNDATASIZE PUSH1 0x1F NOT PUSH1 0x1F DUP3 ADD AND DUP3 ADD DUP1 PUSH1 0x40 MSTORE POP DUP2 ADD SWAP1 PUSH2 0x1193 SWAP2 SWAP1 PUSH2 0x26E4 JUMP JUMPDEST SWAP1 POP PUSH1 0x0 PUSH1 0x1 PUSH1 0x0 SWAP1 SLOAD SWAP1 PUSH2 0x100 EXP SWAP1 DIV PUSH20 0xFFFFFFFFFFFFFFFFFFFFFFFFFFFFFFFFFFFFFFFF AND PUSH20 0xFFFFFFFFFFFFFFFFFFFFFFFFFFFFFFFFFFFFFFFF AND PUSH4 0x70A08231 PUSH1 0x2 PUSH1 0x0 SWAP1 SLOAD SWAP1 PUSH2 0x100 EXP SWAP1 DIV PUSH20 0xFFFFFFFFFFFFFFFFFFFFFFFFFFFFFFFFFFFFFFFF AND PUSH1 0x40 MLOAD DUP3 PUSH4 0xFFFFFFFF AND PUSH1 0xE0 SHL DUP2 MSTORE PUSH1 0x4 ADD PUSH2 0x1214 SWAP2 SWAP1 PUSH2 0x25F0 JUMP JUMPDEST PUSH1 0x20 PUSH1 0x40 MLOAD DUP1 DUP4 SUB DUP2 DUP7 GAS STATICCALL ISZERO DUP1 ISZERO PUSH2 0x1231 JUMPI RETURNDATASIZE PUSH1 0x0 DUP1 RETURNDATACOPY RETURNDATASIZE PUSH1 0x0 REVERT JUMPDEST POP POP POP POP PUSH1 0x40 MLOAD RETURNDATASIZE PUSH1 0x1F NOT PUSH1 0x1F DUP3 ADD AND DUP3 ADD DUP1 PUSH1 0x40 MSTORE POP DUP2 ADD SWAP1 PUSH2 0x1255 SWAP2 SWAP1 PUSH2 0x26E4 JUMP JUMPDEST SWAP1 POP DUP2 PUSH1 0x64 DUP3 PUSH2 0x1265 SWAP2 SWAP1 PUSH2 0x27CE JUMP JUMPDEST PUSH2 0x126F SWAP2 SWAP1 PUSH2 0x283F JUMP JUMPDEST SWAP3 POP POP POP SWAP1 JUMP JUMPDEST PUSH1 0x1 PUSH1 0x0 SWAP1 SLOAD SWAP1 PUSH2 0x100 EXP SWAP1 DIV PUSH20 0xFFFFFFFFFFFFFFFFFFFFFFFFFFFFFFFFFFFFFFFF AND PUSH20 0xFFFFFFFFFFFFFFFFFFFFFFFFFFFFFFFFFFFFFFFF AND PUSH4 0x96FE8349 DUP3 CALLER PUSH1 0x40 MLOAD DUP4 PUSH4 0xFFFFFFFF AND PUSH1 0xE0 SHL DUP2 MSTORE PUSH1 0x4 ADD PUSH2 0x12D3 SWAP3 SWAP2 SWAP1 PUSH2 0x2921 JUMP JUMPDEST PUSH1 0x0 PUSH1 0x40 MLOAD DUP1 DUP4 SUB DUP2 PUSH1 0x0 DUP8 DUP1 EXTCODESIZE ISZERO DUP1 ISZERO PUSH2 0x12ED JUMPI PUSH1 0x0 DUP1 REVERT JUMPDEST POP GAS CALL ISZERO DUP1 ISZERO PUSH2 0x1301 JUMPI RETURNDATASIZE PUSH1 0x0 DUP1 RETURNDATACOPY RETURNDATASIZE PUSH1 0x0 REVERT JUMPDEST POP POP POP POP POP JUMP JUMPDEST PUSH1 0x0 PUSH1 0xD DUP1 SLOAD SWAP1 POP SWAP1 POP PUSH1 0x0 PUSH1 0xC PUSH1 0x0 PUSH1 0xD DUP1 SLOAD SWAP1 POP DUP2 MSTORE PUSH1 0x20 ADD SWAP1 DUP2 MSTORE PUSH1 0x20 ADD PUSH1 0x0 KECCAK256 SWAP1 POP DUP2 DUP2 PUSH1 0x0 ADD DUP2 SWAP1 SSTORE POP DUP3 DUP2 PUSH1 0x1 ADD PUSH1 0x0 PUSH2 0x100 EXP DUP2 SLOAD DUP2 PUSH20 0xFFFFFFFFFFFFFFFFFFFFFFFFFFFFFFFFFFFFFFFF MUL NOT AND SWAP1 DUP4 PUSH20 0xFFFFFFFFFFFFFFFFFFFFFFFFFFFFFFFFFFFFFFFF AND MUL OR SWAP1 SSTORE POP DUP4 DUP2 PUSH1 0x2 ADD DUP2 SWAP1 SSTORE POP PUSH1 0xD DUP3 SWAP1 DUP1 PUSH1 0x1 DUP2 SLOAD ADD DUP1 DUP3 SSTORE DUP1 SWAP2 POP POP PUSH1 0x1 SWAP1 SUB SWAP1 PUSH1 0x0 MSTORE PUSH1 0x20 PUSH1 0x0 KECCAK256 ADD PUSH1 0x0 SWAP1 SWAP2 SWAP1 SWAP2 SWAP1 SWAP2 POP SSTORE POP POP POP POP JUMP JUMPDEST PUSH1 0x0 CALLVALUE SWAP1 POP PUSH1 0x0 PUSH1 0xF SLOAD GT ISZERO PUSH2 0x1404 JUMPI PUSH1 0x0 SELFBALANCE SWAP1 POP PUSH2 0x13D2 PUSH1 0xF SLOAD PUSH2 0x16DA JUMP JUMPDEST PUSH1 0x0 SELFBALANCE SWAP1 POP PUSH1 0x0 DUP2 DUP4 PUSH2 0x13E5 SWAP2 SWAP1 PUSH2 0x28ED JUMP JUMPDEST SWAP1 POP DUP1 PUSH1 0xF PUSH1 0x0 DUP3 DUP3 SLOAD PUSH2 0x13F9 SWAP2 SWAP1 PUSH2 0x28ED JUMP JUMPDEST SWAP3 POP POP DUP2 SWAP1 SSTORE POP POP POP POP JUMPDEST PUSH1 0x0 PUSH1 0x10 SLOAD GT ISZERO PUSH2 0x1452 JUMPI PUSH1 0x0 SELFBALANCE SWAP1 POP PUSH2 0x141F PUSH1 0x10 SLOAD PUSH2 0x17E5 JUMP JUMPDEST POP PUSH1 0x0 SELFBALANCE SWAP1 POP PUSH1 0x0 DUP2 DUP4 PUSH2 0x1433 SWAP2 SWAP1 PUSH2 0x28ED JUMP JUMPDEST SWAP1 POP DUP1 PUSH1 0x10 PUSH1 0x0 DUP3 DUP3 SLOAD PUSH2 0x1447 SWAP2 SWAP1 PUSH2 0x28ED JUMP JUMPDEST SWAP3 POP POP DUP2 SWAP1 SSTORE POP POP POP POP JUMPDEST PUSH1 0x0 PUSH1 0xC PUSH1 0x0 PUSH1 0x1 PUSH1 0xD DUP1 SLOAD SWAP1 POP PUSH2 0x146A SWAP2 SWAP1 PUSH2 0x28ED JUMP JUMPDEST DUP2 MSTORE PUSH1 0x20 ADD SWAP1 DUP2 MSTORE PUSH1 0x20 ADD PUSH1 0x0 KECCAK256 PUSH1 0x1 ADD PUSH1 0x0 SWAP1 SLOAD SWAP1 PUSH2 0x100 EXP SWAP1 DIV PUSH20 0xFFFFFFFFFFFFFFFFFFFFFFFFFFFFFFFFFFFFFFFF AND SWAP1 POP PUSH2 0x14A7 DUP2 PUSH2 0x1CCB JUMP JUMPDEST PUSH1 0x8 PUSH1 0x0 SWAP1 SLOAD SWAP1 PUSH2 0x100 EXP SWAP1 DIV PUSH20 0xFFFFFFFFFFFFFFFFFFFFFFFFFFFFFFFFFFFFFFFF AND PUSH20 0xFFFFFFFFFFFFFFFFFFFFFFFFFFFFFFFFFFFFFFFF AND PUSH4 0x6A627842 DUP3 PUSH1 0x40 MLOAD DUP3 PUSH4 0xFFFFFFFF AND PUSH1 0xE0 SHL DUP2 MSTORE PUSH1 0x4 ADD PUSH2 0x1502 SWAP2 SWAP1 PUSH2 0x25F0 JUMP JUMPDEST PUSH1 0x0 PUSH1 0x40 MLOAD DUP1 DUP4 SUB DUP2 PUSH1 0x0 DUP8 DUP1 EXTCODESIZE ISZERO DUP1 ISZERO PUSH2 0x151C JUMPI PUSH1 0x0 DUP1 REVERT JUMPDEST POP GAS CALL ISZERO DUP1 ISZERO PUSH2 0x1530 JUMPI RETURNDATASIZE PUSH1 0x0 DUP1 RETURNDATACOPY RETURNDATASIZE PUSH1 0x0 REVERT JUMPDEST POP POP POP POP PUSH1 0x0 PUSH2 0x153E PUSH2 0x10FF JUMP JUMPDEST SWAP1 POP PUSH32 0xCF34EF537AC33EE1AC626CA1587A0A7E8E51561E5514F8CB36AFA1C5102B3BAB PUSH1 0x40 MLOAD PUSH2 0x156D SWAP1 PUSH2 0x2E5B JUMP JUMPDEST PUSH1 0x40 MLOAD DUP1 SWAP2 SUB SWAP1 LOG1 PUSH32 0xB8A00D6D8CA1BE30BFEC34D8F97E55F0F0FD9EEB7FB46E030516363D4CFE1AD6 DUP3 PUSH1 0x40 MLOAD PUSH2 0x15A4 SWAP2 SWAP1 PUSH2 0x25F0 JUMP JUMPDEST PUSH1 0x40 MLOAD DUP1 SWAP2 SUB SWAP1 LOG1 PUSH32 0xCF34EF537AC33EE1AC626CA1587A0A7E8E51561E5514F8CB36AFA1C5102B3BAB PUSH1 0x40 MLOAD PUSH2 0x15D9 SWAP1 PUSH2 0x2EC7 JUMP JUMPDEST PUSH1 0x40 MLOAD DUP1 SWAP2 SUB SWAP1 LOG1 PUSH32 0x909C57D5C6AC08245CF2A6DE3900E2B868513FA59099B92B27D8DB823D92DF9C DUP2 PUSH1 0x40 MLOAD PUSH2 0x1610 SWAP2 SWAP1 PUSH2 0x26B4 JUMP JUMPDEST PUSH1 0x40 MLOAD DUP1 SWAP2 SUB SWAP1 LOG1 PUSH1 0x14 DUP2 GT ISZERO PUSH2 0x1676 JUMPI PUSH1 0x0 SELFBALANCE SWAP1 POP PUSH2 0x162F CALLVALUE PUSH2 0x16DA JUMP JUMPDEST PUSH1 0x0 SELFBALANCE SWAP1 POP PUSH1 0x0 DUP2 DUP4 PUSH2 0x1642 SWAP2 SWAP1 PUSH2 0x28ED JUMP JUMPDEST SWAP1 POP PUSH1 0x0 DUP2 DUP8 PUSH2 0x1652 SWAP2 SWAP1 PUSH2 0x28ED JUMP JUMPDEST SWAP1 POP DUP1 PUSH1 0xF PUSH1 0x0 DUP3 DUP3 SLOAD PUSH2 0x1666 SWAP2 SWAP1 PUSH2 0x2EE7 JUMP JUMPDEST SWAP3 POP POP DUP2 SWAP1 SSTORE POP POP POP POP POP PUSH2 0x16D5 JUMP JUMPDEST PUSH1 0x0 SELFBALANCE SWAP1 POP PUSH2 0x1691 CALLVALUE PUSH1 0x10 SLOAD PUSH2 0x168C SWAP2 SWAP1 PUSH2 0x2EE7 JUMP JUMPDEST PUSH2 0x17E5 JUMP JUMPDEST POP PUSH1 0x0 SELFBALANCE SWAP1 POP PUSH1 0x0 DUP2 DUP4 PUSH2 0x16A5 SWAP2 SWAP1 PUSH2 0x28ED JUMP JUMPDEST SWAP1 POP PUSH1 0x0 DUP2 DUP8 PUSH2 0x16B5 SWAP2 SWAP1 PUSH2 0x28ED JUMP JUMPDEST SWAP1 POP DUP1 PUSH1 0x10 PUSH1 0x0 DUP3 DUP3 SLOAD PUSH2 0x16C9 SWAP2 SWAP1 PUSH2 0x2EE7 JUMP JUMPDEST SWAP3 POP POP DUP2 SWAP1 SSTORE POP POP POP POP POP JUMPDEST POP POP POP JUMP JUMPDEST PUSH1 0x0 PUSH2 0x16E5 DUP3 PUSH2 0x1FBB JUMP JUMPDEST SWAP1 POP PUSH1 0x1 PUSH1 0x0 SWAP1 SLOAD SWAP1 PUSH2 0x100 EXP SWAP1 DIV PUSH20 0xFFFFFFFFFFFFFFFFFFFFFFFFFFFFFFFFFFFFFFFF AND PUSH20 0xFFFFFFFFFFFFFFFFFFFFFFFFFFFFFFFFFFFFFFFF AND PUSH4 0x42966C68 DUP3 PUSH1 0x40 MLOAD DUP3 PUSH4 0xFFFFFFFF AND PUSH1 0xE0 SHL DUP2 MSTORE PUSH1 0x4 ADD PUSH2 0x1742 SWAP2 SWAP1 PUSH2 0x26B4 JUMP JUMPDEST PUSH1 0x0 PUSH1 0x40 MLOAD DUP1 DUP4 SUB DUP2 PUSH1 0x0 DUP8 DUP1 EXTCODESIZE ISZERO DUP1 ISZERO PUSH2 0x175C JUMPI PUSH1 0x0 DUP1 REVERT JUMPDEST POP GAS CALL SWAP3 POP POP POP DUP1 ISZERO PUSH2 0x176D JUMPI POP PUSH1 0x1 JUMPDEST PUSH2 0x17AB JUMPI PUSH32 0xCF34EF537AC33EE1AC626CA1587A0A7E8E51561E5514F8CB36AFA1C5102B3BAB PUSH1 0x40 MLOAD PUSH2 0x179E SWAP1 PUSH2 0x2F67 JUMP JUMPDEST PUSH1 0x40 MLOAD DUP1 SWAP2 SUB SWAP1 LOG1 PUSH2 0x17E1 JUMP JUMPDEST PUSH32 0xCF34EF537AC33EE1AC626CA1587A0A7E8E51561E5514F8CB36AFA1C5102B3BAB PUSH1 0x40 MLOAD PUSH2 0x17D8 SWAP1 PUSH2 0x2FD3 JUMP JUMPDEST PUSH1 0x40 MLOAD DUP1 SWAP2 SUB SWAP1 LOG1 JUMPDEST POP POP JUMP JUMPDEST PUSH1 0x0 DUP1 PUSH1 0x0 PUSH1 0x1 PUSH1 0x0 SWAP1 SLOAD SWAP1 PUSH2 0x100 EXP SWAP1 DIV PUSH20 0xFFFFFFFFFFFFFFFFFFFFFFFFFFFFFFFFFFFFFFFF AND PUSH20 0xFFFFFFFFFFFFFFFFFFFFFFFFFFFFFFFFFFFFFFFF AND PUSH4 0x70A08231 ADDRESS PUSH1 0x40 MLOAD DUP3 PUSH4 0xFFFFFFFF AND PUSH1 0xE0 SHL DUP2 MSTORE PUSH1 0x4 ADD PUSH2 0x1845 SWAP2 SWAP1 PUSH2 0x25F0 JUMP JUMPDEST PUSH1 0x20 PUSH1 0x40 MLOAD DUP1 DUP4 SUB DUP2 DUP7 GAS STATICCALL ISZERO DUP1 ISZERO PUSH2 0x1862 JUMPI RETURNDATASIZE PUSH1 0x0 DUP1 RETURNDATACOPY RETURNDATASIZE PUSH1 0x0 REVERT JUMPDEST POP POP POP POP PUSH1 0x40 MLOAD RETURNDATASIZE PUSH1 0x1F NOT PUSH1 0x1F DUP3 ADD AND DUP3 ADD DUP1 PUSH1 0x40 MSTORE POP DUP2 ADD SWAP1 PUSH2 0x1886 SWAP2 SWAP1 PUSH2 0x26E4 JUMP JUMPDEST SWAP1 POP PUSH1 0x0 PUSH1 0x64 PUSH1 0x69 PUSH1 0xA PUSH1 0x0 SWAP1 SLOAD SWAP1 PUSH2 0x100 EXP SWAP1 DIV PUSH20 0xFFFFFFFFFFFFFFFFFFFFFFFFFFFFFFFFFFFFFFFF AND PUSH20 0xFFFFFFFFFFFFFFFFFFFFFFFFFFFFFFFFFFFFFFFF AND PUSH4 0x3AC35585 PUSH1 0x0 DUP1 SLOAD SWAP1 PUSH2 0x100 EXP SWAP1 DIV PUSH20 0xFFFFFFFFFFFFFFFFFFFFFFFFFFFFFFFFFFFFFFFF AND DUP10 PUSH1 0x40 MLOAD DUP4 PUSH4 0xFFFFFFFF AND PUSH1 0xE0 SHL DUP2 MSTORE PUSH1 0x4 ADD PUSH2 0x190B SWAP3 SWAP2 SWAP1 PUSH2 0x2711 JUMP JUMPDEST PUSH1 0x20 PUSH1 0x40 MLOAD DUP1 DUP4 SUB DUP2 DUP7 GAS STATICCALL ISZERO DUP1 ISZERO PUSH2 0x1928 JUMPI RETURNDATASIZE PUSH1 0x0 DUP1 RETURNDATACOPY RETURNDATASIZE PUSH1 0x0 REVERT JUMPDEST POP POP POP POP PUSH1 0x40 MLOAD RETURNDATASIZE PUSH1 0x1F NOT PUSH1 0x1F DUP3 ADD AND DUP3 ADD DUP1 PUSH1 0x40 MSTORE POP DUP2 ADD SWAP1 PUSH2 0x194C SWAP2 SWAP1 PUSH2 0x26E4 JUMP JUMPDEST PUSH2 0x1956 SWAP2 SWAP1 PUSH2 0x27CE JUMP JUMPDEST PUSH2 0x1960 SWAP2 SWAP1 PUSH2 0x283F JUMP JUMPDEST SWAP1 POP DUP2 DUP2 GT ISZERO PUSH2 0x1AA3 JUMPI PUSH1 0x1 PUSH1 0x0 SWAP1 SLOAD SWAP1 PUSH2 0x100 EXP SWAP1 DIV PUSH20 0xFFFFFFFFFFFFFFFFFFFFFFFFFFFFFFFFFFFFFFFF AND PUSH20 0xFFFFFFFFFFFFFFFFFFFFFFFFFFFFFFFFFFFFFFFF AND PUSH4 0x96FE8349 DUP4 DUP4 PUSH2 0x19B4 SWAP2 SWAP1 PUSH2 0x28ED JUMP JUMPDEST ADDRESS PUSH1 0x40 MLOAD DUP4 PUSH4 0xFFFFFFFF AND PUSH1 0xE0 SHL DUP2 MSTORE PUSH1 0x4 ADD PUSH2 0x19D2 SWAP3 SWAP2 SWAP1 PUSH2 0x2921 JUMP JUMPDEST PUSH1 0x0 PUSH1 0x40 MLOAD DUP1 DUP4 SUB DUP2 PUSH1 0x0 DUP8 DUP1 EXTCODESIZE ISZERO DUP1 ISZERO PUSH2 0x19EC JUMPI PUSH1 0x0 DUP1 REVERT JUMPDEST POP GAS CALL ISZERO DUP1 ISZERO PUSH2 0x1A00 JUMPI RETURNDATASIZE PUSH1 0x0 DUP1 RETURNDATACOPY RETURNDATASIZE PUSH1 0x0 REVERT JUMPDEST POP POP POP POP PUSH1 0x1 PUSH1 0x0 SWAP1 SLOAD SWAP1 PUSH2 0x100 EXP SWAP1 DIV PUSH20 0xFFFFFFFFFFFFFFFFFFFFFFFFFFFFFFFFFFFFFFFF AND PUSH20 0xFFFFFFFFFFFFFFFFFFFFFFFFFFFFFFFFFFFFFFFF AND PUSH4 0x70A08231 ADDRESS PUSH1 0x40 MLOAD DUP3 PUSH4 0xFFFFFFFF AND PUSH1 0xE0 SHL DUP2 MSTORE PUSH1 0x4 ADD PUSH2 0x1A5F SWAP2 SWAP1 PUSH2 0x25F0 JUMP JUMPDEST PUSH1 0x20 PUSH1 0x40 MLOAD DUP1 DUP4 SUB DUP2 DUP7 GAS STATICCALL ISZERO DUP1 ISZERO PUSH2 0x1A7C JUMPI RETURNDATASIZE PUSH1 0x0 DUP1 RETURNDATACOPY RETURNDATASIZE PUSH1 0x0 REVERT JUMPDEST POP POP POP POP PUSH1 0x40 MLOAD RETURNDATASIZE PUSH1 0x1F NOT PUSH1 0x1F DUP3 ADD AND DUP3 ADD DUP1 PUSH1 0x40 MSTORE POP DUP2 ADD SWAP1 PUSH2 0x1AA0 SWAP2 SWAP1 PUSH2 0x26E4 JUMP JUMPDEST SWAP2 POP JUMPDEST PUSH1 0xB PUSH1 0x0 SWAP1 SLOAD SWAP1 PUSH2 0x100 EXP SWAP1 DIV PUSH20 0xFFFFFFFFFFFFFFFFFFFFFFFFFFFFFFFFFFFFFFFF AND PUSH20 0xFFFFFFFFFFFFFFFFFFFFFFFFFFFFFFFFFFFFFFFF AND PUSH4 0xF305D719 DUP7 PUSH1 0x1 PUSH1 0x0 SWAP1 SLOAD SWAP1 PUSH2 0x100 EXP SWAP1 DIV PUSH20 0xFFFFFFFFFFFFFFFFFFFFFFFFFFFFFFFFFFFFFFFF AND DUP5 PUSH1 0x0 PUSH1 0x64 PUSH1 0x5F DUP13 PUSH2 0x1B17 SWAP2 SWAP1 PUSH2 0x27CE JUMP JUMPDEST PUSH2 0x1B21 SWAP2 SWAP1 PUSH2 0x283F JUMP JUMPDEST ADDRESS PUSH32 0xFFFFFFFFFFFFFFFFFFFFFFFFFFFFFFFFFFFFFFFFFFFFFFFFFFFFFFFFFFFFFFFF PUSH1 0x40 MLOAD DUP9 PUSH4 0xFFFFFFFF AND PUSH1 0xE0 SHL DUP2 MSTORE PUSH1 0x4 ADD PUSH2 0x1B64 SWAP7 SWAP6 SWAP5 SWAP4 SWAP3 SWAP2 SWAP1 PUSH2 0x2FF3 JUMP JUMPDEST PUSH1 0x60 PUSH1 0x40 MLOAD DUP1 DUP4 SUB DUP2 DUP6 DUP9 GAS CALL SWAP4 POP POP POP POP DUP1 ISZERO PUSH2 0x1BA0 JUMPI POP PUSH1 0x40 MLOAD RETURNDATASIZE PUSH1 0x1F NOT PUSH1 0x1F DUP3 ADD AND DUP3 ADD DUP1 PUSH1 0x40 MSTORE POP DUP2 ADD SWAP1 PUSH2 0x1B9D SWAP2 SWAP1 PUSH2 0x2AC8 JUMP JUMPDEST PUSH1 0x1 JUMPDEST PUSH2 0x1BDE JUMPI PUSH32 0xCF34EF537AC33EE1AC626CA1587A0A7E8E51561E5514F8CB36AFA1C5102B3BAB PUSH1 0x40 MLOAD PUSH2 0x1BD1 SWAP1 PUSH2 0x2D83 JUMP JUMPDEST PUSH1 0x40 MLOAD DUP1 SWAP2 SUB SWAP1 LOG1 PUSH2 0x1CC0 JUMP JUMPDEST POP POP POP PUSH32 0xCF34EF537AC33EE1AC626CA1587A0A7E8E51561E5514F8CB36AFA1C5102B3BAB PUSH1 0x40 MLOAD PUSH2 0x1C0E SWAP1 PUSH2 0x2DEF JUMP JUMPDEST PUSH1 0x40 MLOAD DUP1 SWAP2 SUB SWAP1 LOG1 PUSH1 0x1 PUSH1 0x0 SWAP1 SLOAD SWAP1 PUSH2 0x100 EXP SWAP1 DIV PUSH20 0xFFFFFFFFFFFFFFFFFFFFFFFFFFFFFFFFFFFFFFFF AND PUSH20 0xFFFFFFFFFFFFFFFFFFFFFFFFFFFFFFFFFFFFFFFF AND PUSH4 0x70A08231 ADDRESS PUSH1 0x40 MLOAD DUP3 PUSH4 0xFFFFFFFF AND PUSH1 0xE0 SHL DUP2 MSTORE PUSH1 0x4 ADD PUSH2 0x1C71 SWAP2 SWAP1 PUSH2 0x25F0 JUMP JUMPDEST PUSH1 0x20 PUSH1 0x40 MLOAD DUP1 DUP4 SUB DUP2 DUP7 GAS STATICCALL ISZERO DUP1 ISZERO PUSH2 0x1C8E JUMPI RETURNDATASIZE PUSH1 0x0 DUP1 RETURNDATACOPY RETURNDATASIZE PUSH1 0x0 REVERT JUMPDEST POP POP POP POP PUSH1 0x40 MLOAD RETURNDATASIZE PUSH1 0x1F NOT PUSH1 0x1F DUP3 ADD AND DUP3 ADD DUP1 PUSH1 0x40 MSTORE POP DUP2 ADD SWAP1 PUSH2 0x1CB2 SWAP2 SWAP1 PUSH2 0x26E4 JUMP JUMPDEST DUP3 PUSH2 0x1CBD SWAP2 SWAP1 PUSH2 0x28ED JUMP JUMPDEST SWAP3 POP JUMPDEST DUP3 SWAP4 POP POP POP POP SWAP2 SWAP1 POP JUMP JUMPDEST PUSH1 0x0 PUSH1 0xC PUSH1 0x0 PUSH1 0x1 PUSH1 0xD DUP1 SLOAD SWAP1 POP PUSH2 0x1CE3 SWAP2 SWAP1 PUSH2 0x28ED JUMP JUMPDEST DUP2 MSTORE PUSH1 0x20 ADD SWAP1 DUP2 MSTORE PUSH1 0x20 ADD PUSH1 0x0 KECCAK256 PUSH1 0x2 ADD SLOAD SWAP1 POP PUSH1 0x0 DUP2 SUB ISZERO PUSH2 0x1FB7 JUMPI PUSH1 0xA PUSH1 0x0 SWAP1 SLOAD SWAP1 PUSH2 0x100 EXP SWAP1 DIV PUSH20 0xFFFFFFFFFFFFFFFFFFFFFFFFFFFFFFFFFFFFFFFF AND PUSH20 0xFFFFFFFFFFFFFFFFFFFFFFFFFFFFFFFFFFFFFFFF AND PUSH4 0x3AC35585 PUSH1 0x0 DUP1 SLOAD SWAP1 PUSH2 0x100 EXP SWAP1 DIV PUSH20 0xFFFFFFFFFFFFFFFFFFFFFFFFFFFFFFFFFFFFFFFF AND DUP4 PUSH1 0x40 MLOAD DUP4 PUSH4 0xFFFFFFFF AND PUSH1 0xE0 SHL DUP2 MSTORE PUSH1 0x4 ADD PUSH2 0x1D7D SWAP3 SWAP2 SWAP1 PUSH2 0x2711 JUMP JUMPDEST PUSH1 0x20 PUSH1 0x40 MLOAD DUP1 DUP4 SUB DUP2 DUP7 GAS STATICCALL SWAP3 POP POP POP DUP1 ISZERO PUSH2 0x1DB7 JUMPI POP PUSH1 0x40 MLOAD RETURNDATASIZE PUSH1 0x1F NOT PUSH1 0x1F DUP3 ADD AND DUP3 ADD DUP1 PUSH1 0x40 MSTORE POP DUP2 ADD SWAP1 PUSH2 0x1DB4 SWAP2 SWAP1 PUSH2 0x26E4 JUMP JUMPDEST PUSH1 0x1 JUMPDEST PUSH2 0x1DF5 JUMPI PUSH32 0xCF34EF537AC33EE1AC626CA1587A0A7E8E51561E5514F8CB36AFA1C5102B3BAB PUSH1 0x40 MLOAD PUSH2 0x1DE8 SWAP1 PUSH2 0x30A0 JUMP JUMPDEST PUSH1 0x40 MLOAD DUP1 SWAP2 SUB SWAP1 LOG1 PUSH2 0x1FB6 JUMP JUMPDEST POP PUSH1 0x0 PUSH1 0xA PUSH1 0x0 SWAP1 SLOAD SWAP1 PUSH2 0x100 EXP SWAP1 DIV PUSH20 0xFFFFFFFFFFFFFFFFFFFFFFFFFFFFFFFFFFFFFFFF AND PUSH20 0xFFFFFFFFFFFFFFFFFFFFFFFFFFFFFFFFFFFFFFFF AND PUSH4 0x3AC35585 PUSH1 0x0 DUP1 SLOAD SWAP1 PUSH2 0x100 EXP SWAP1 DIV PUSH20 0xFFFFFFFFFFFFFFFFFFFFFFFFFFFFFFFFFFFFFFFF AND DUP5 PUSH1 0x40 MLOAD DUP4 PUSH4 0xFFFFFFFF AND PUSH1 0xE0 SHL DUP2 MSTORE PUSH1 0x4 ADD PUSH2 0x1E75 SWAP3 SWAP2 SWAP1 PUSH2 0x2711 JUMP JUMPDEST PUSH1 0x20 PUSH1 0x40 MLOAD DUP1 DUP4 SUB DUP2 DUP7 GAS STATICCALL ISZERO DUP1 ISZERO PUSH2 0x1E92 JUMPI RETURNDATASIZE PUSH1 0x0 DUP1 RETURNDATACOPY RETURNDATASIZE PUSH1 0x0 REVERT JUMPDEST POP POP POP POP PUSH1 0x40 MLOAD RETURNDATASIZE PUSH1 0x1F NOT PUSH1 0x1F DUP3 ADD AND DUP3 ADD DUP1 PUSH1 0x40 MSTORE POP DUP2 ADD SWAP1 PUSH2 0x1EB6 SWAP2 SWAP1 PUSH2 0x26E4 JUMP JUMPDEST SWAP1 POP PUSH1 0x1 PUSH1 0x0 SWAP1 SLOAD SWAP1 PUSH2 0x100 EXP SWAP1 DIV PUSH20 0xFFFFFFFFFFFFFFFFFFFFFFFFFFFFFFFFFFFFFFFF AND PUSH20 0xFFFFFFFFFFFFFFFFFFFFFFFFFFFFFFFFFFFFFFFF AND PUSH4 0x96FE8349 DUP3 DUP6 PUSH1 0x40 MLOAD DUP4 PUSH4 0xFFFFFFFF AND PUSH1 0xE0 SHL DUP2 MSTORE PUSH1 0x4 ADD PUSH2 0x1F15 SWAP3 SWAP2 SWAP1 PUSH2 0x2921 JUMP JUMPDEST PUSH1 0x0 PUSH1 0x40 MLOAD DUP1 DUP4 SUB DUP2 PUSH1 0x0 DUP8 DUP1 EXTCODESIZE ISZERO DUP1 ISZERO PUSH2 0x1F2F JUMPI PUSH1 0x0 DUP1 REVERT JUMPDEST POP GAS CALL SWAP3 POP POP POP DUP1 ISZERO PUSH2 0x1F40 JUMPI POP PUSH1 0x1 JUMPDEST PUSH2 0x1F7E JUMPI PUSH32 0xCF34EF537AC33EE1AC626CA1587A0A7E8E51561E5514F8CB36AFA1C5102B3BAB PUSH1 0x40 MLOAD PUSH2 0x1F71 SWAP1 PUSH2 0x3132 JUMP JUMPDEST PUSH1 0x40 MLOAD DUP1 SWAP2 SUB SWAP1 LOG1 PUSH2 0x1FB4 JUMP JUMPDEST PUSH32 0xCF34EF537AC33EE1AC626CA1587A0A7E8E51561E5514F8CB36AFA1C5102B3BAB PUSH1 0x40 MLOAD PUSH2 0x1FAB SWAP1 PUSH2 0x319E JUMP JUMPDEST PUSH1 0x40 MLOAD DUP1 SWAP2 SUB SWAP1 LOG1 JUMPDEST POP JUMPDEST JUMPDEST POP POP JUMP JUMPDEST PUSH1 0x0 DUP1 PUSH1 0x0 PUSH1 0x1 PUSH1 0x0 SWAP1 SLOAD SWAP1 PUSH2 0x100 EXP SWAP1 DIV PUSH20 0xFFFFFFFFFFFFFFFFFFFFFFFFFFFFFFFFFFFFFFFF AND PUSH20 0xFFFFFFFFFFFFFFFFFFFFFFFFFFFFFFFFFFFFFFFF AND PUSH4 0x70A08231 ADDRESS PUSH1 0x40 MLOAD DUP3 PUSH4 0xFFFFFFFF AND PUSH1 0xE0 SHL DUP2 MSTORE PUSH1 0x4 ADD PUSH2 0x201B SWAP2 SWAP1 PUSH2 0x25F0 JUMP JUMPDEST PUSH1 0x20 PUSH1 0x40 MLOAD DUP1 DUP4 SUB DUP2 DUP7 GAS STATICCALL SWAP3 POP POP POP DUP1 ISZERO PUSH2 0x2055 JUMPI POP PUSH1 0x40 MLOAD RETURNDATASIZE PUSH1 0x1F NOT PUSH1 0x1F DUP3 ADD AND DUP3 ADD DUP1 PUSH1 0x40 MSTORE POP DUP2 ADD SWAP1 PUSH2 0x2052 SWAP2 SWAP1 PUSH2 0x26E4 JUMP JUMPDEST PUSH1 0x1 JUMPDEST PUSH2 0x2093 JUMPI PUSH32 0xCF34EF537AC33EE1AC626CA1587A0A7E8E51561E5514F8CB36AFA1C5102B3BAB PUSH1 0x40 MLOAD PUSH2 0x2086 SWAP1 PUSH2 0x3230 JUMP JUMPDEST PUSH1 0x40 MLOAD DUP1 SWAP2 SUB SWAP1 LOG1 PUSH2 0x2133 JUMP JUMPDEST POP PUSH1 0x1 PUSH1 0x0 SWAP1 SLOAD SWAP1 PUSH2 0x100 EXP SWAP1 DIV PUSH20 0xFFFFFFFFFFFFFFFFFFFFFFFFFFFFFFFFFFFFFFFF AND PUSH20 0xFFFFFFFFFFFFFFFFFFFFFFFFFFFFFFFFFFFFFFFF AND PUSH4 0x70A08231 ADDRESS PUSH1 0x40 MLOAD DUP3 PUSH4 0xFFFFFFFF AND PUSH1 0xE0 SHL DUP2 MSTORE PUSH1 0x4 ADD PUSH2 0x20EF SWAP2 SWAP1 PUSH2 0x25F0 JUMP JUMPDEST PUSH1 0x20 PUSH1 0x40 MLOAD DUP1 DUP4 SUB DUP2 DUP7 GAS STATICCALL ISZERO DUP1 ISZERO PUSH2 0x210C JUMPI RETURNDATASIZE PUSH1 0x0 DUP1 RETURNDATACOPY RETURNDATASIZE PUSH1 0x0 REVERT JUMPDEST POP POP POP POP PUSH1 0x40 MLOAD RETURNDATASIZE PUSH1 0x1F NOT PUSH1 0x1F DUP3 ADD AND DUP3 ADD DUP1 PUSH1 0x40 MSTORE POP DUP2 ADD SWAP1 PUSH2 0x2130 SWAP2 SWAP1 PUSH2 0x26E4 JUMP JUMPDEST SWAP2 POP JUMPDEST PUSH1 0xA PUSH1 0x0 SWAP1 SLOAD SWAP1 PUSH2 0x100 EXP SWAP1 DIV PUSH20 0xFFFFFFFFFFFFFFFFFFFFFFFFFFFFFFFFFFFFFFFF AND PUSH20 0xFFFFFFFFFFFFFFFFFFFFFFFFFFFFFFFFFFFFFFFF AND PUSH4 0x3AC35585 PUSH1 0x0 DUP1 SLOAD SWAP1 PUSH2 0x100 EXP SWAP1 DIV PUSH20 0xFFFFFFFFFFFFFFFFFFFFFFFFFFFFFFFFFFFFFFFF AND DUP7 PUSH1 0x40 MLOAD DUP4 PUSH4 0xFFFFFFFF AND PUSH1 0xE0 SHL DUP2 MSTORE PUSH1 0x4 ADD PUSH2 0x21B0 SWAP3 SWAP2 SWAP1 PUSH2 0x2711 JUMP JUMPDEST PUSH1 0x20 PUSH1 0x40 MLOAD DUP1 DUP4 SUB DUP2 DUP7 GAS STATICCALL SWAP3 POP POP POP DUP1 ISZERO PUSH2 0x21EA JUMPI POP PUSH1 0x40 MLOAD RETURNDATASIZE PUSH1 0x1F NOT PUSH1 0x1F DUP3 ADD AND DUP3 ADD DUP1 PUSH1 0x40 MSTORE POP DUP2 ADD SWAP1 PUSH2 0x21E7 SWAP2 SWAP1 PUSH2 0x26E4 JUMP JUMPDEST PUSH1 0x1 JUMPDEST PUSH2 0x2228 JUMPI PUSH32 0xCF34EF537AC33EE1AC626CA1587A0A7E8E51561E5514F8CB36AFA1C5102B3BAB PUSH1 0x40 MLOAD PUSH2 0x221B SWAP1 PUSH2 0x329C JUMP JUMPDEST PUSH1 0x40 MLOAD DUP1 SWAP2 SUB SWAP1 LOG1 PUSH2 0x2356 JUMP JUMPDEST POP PUSH1 0xA PUSH1 0x0 SWAP1 SLOAD SWAP1 PUSH2 0x100 EXP SWAP1 DIV PUSH20 0xFFFFFFFFFFFFFFFFFFFFFFFFFFFFFFFFFFFFFFFF AND PUSH20 0xFFFFFFFFFFFFFFFFFFFFFFFFFFFFFFFFFFFFFFFF AND PUSH4 0x3AC35585 PUSH1 0x0 DUP1 SLOAD SWAP1 PUSH2 0x100 EXP SWAP1 DIV PUSH20 0xFFFFFFFFFFFFFFFFFFFFFFFFFFFFFFFFFFFFFFFF AND DUP7 PUSH1 0x40 MLOAD DUP4 PUSH4 0xFFFFFFFF AND PUSH1 0xE0 SHL DUP2 MSTORE PUSH1 0x4 ADD PUSH2 0x22A6 SWAP3 SWAP2 SWAP1 PUSH2 0x2711 JUMP JUMPDEST PUSH1 0x20 PUSH1 0x40 MLOAD DUP1 DUP4 SUB DUP2 DUP7 GAS STATICCALL ISZERO DUP1 ISZERO PUSH2 0x22C3 JUMPI RETURNDATASIZE PUSH1 0x0 DUP1 RETURNDATACOPY RETURNDATASIZE PUSH1 0x0 REVERT JUMPDEST POP POP POP POP PUSH1 0x40 MLOAD RETURNDATASIZE PUSH1 0x1F NOT PUSH1 0x1F DUP3 ADD AND DUP3 ADD DUP1 PUSH1 0x40 MSTORE POP DUP2 ADD SWAP1 PUSH2 0x22E7 SWAP2 SWAP1 PUSH2 0x26E4 JUMP JUMPDEST SWAP1 POP PUSH32 0xCF34EF537AC33EE1AC626CA1587A0A7E8E51561E5514F8CB36AFA1C5102B3BAB PUSH1 0x40 MLOAD PUSH2 0x2316 SWAP1 PUSH2 0x3308 JUMP JUMPDEST PUSH1 0x40 MLOAD DUP1 SWAP2 SUB SWAP1 LOG1 PUSH32 0x909C57D5C6AC08245CF2A6DE3900E2B868513FA59099B92B27D8DB823D92DF9C DUP2 PUSH1 0x40 MLOAD PUSH2 0x234D SWAP2 SWAP1 PUSH2 0x26B4 JUMP JUMPDEST PUSH1 0x40 MLOAD DUP1 SWAP2 SUB SWAP1 LOG1 JUMPDEST PUSH1 0x0 PUSH1 0xB PUSH1 0x0 SWAP1 SLOAD SWAP1 PUSH2 0x100 EXP SWAP1 DIV PUSH20 0xFFFFFFFFFFFFFFFFFFFFFFFFFFFFFFFFFFFFFFFF AND PUSH20 0xFFFFFFFFFFFFFFFFFFFFFFFFFFFFFFFFFFFFFFFF AND PUSH4 0x7FF36AB5 DUP7 DUP4 PUSH1 0x7 CALLER PUSH32 0xFFFFFFFFFFFFFFFFFFFFFFFFFFFFFFFFFFFFFFFFFFFFFFFFFFFFFFFFFFFFFFFF PUSH1 0x40 MLOAD DUP7 PUSH4 0xFFFFFFFF AND PUSH1 0xE0 SHL DUP2 MSTORE PUSH1 0x4 ADD PUSH2 0x23DB SWAP5 SWAP4 SWAP3 SWAP2 SWAP1 PUSH2 0x344C JUMP JUMPDEST PUSH1 0x0 PUSH1 0x40 MLOAD DUP1 DUP4 SUB DUP2 DUP6 DUP9 GAS CALL SWAP4 POP POP POP POP DUP1 ISZERO PUSH2 0x241C JUMPI POP PUSH1 0x40 MLOAD RETURNDATASIZE PUSH1 0x0 DUP3 RETURNDATACOPY RETURNDATASIZE PUSH1 0x1F NOT PUSH1 0x1F DUP3 ADD AND DUP3 ADD DUP1 PUSH1 0x40 MSTORE POP DUP2 ADD SWAP1 PUSH2 0x2419 SWAP2 SWAP1 PUSH2 0x35F1 JUMP JUMPDEST PUSH1 0x1 JUMPDEST PUSH2 0x245A JUMPI PUSH32 0xCF34EF537AC33EE1AC626CA1587A0A7E8E51561E5514F8CB36AFA1C5102B3BAB PUSH1 0x40 MLOAD PUSH2 0x244D SWAP1 PUSH2 0x3686 JUMP JUMPDEST PUSH1 0x40 MLOAD DUP1 SWAP2 SUB SWAP1 LOG1 PUSH2 0x2491 JUMP JUMPDEST POP PUSH32 0xCF34EF537AC33EE1AC626CA1587A0A7E8E51561E5514F8CB36AFA1C5102B3BAB PUSH1 0x40 MLOAD PUSH2 0x2488 SWAP1 PUSH2 0x36F2 JUMP JUMPDEST PUSH1 0x40 MLOAD DUP1 SWAP2 SUB SWAP1 LOG1 JUMPDEST DUP3 PUSH1 0x1 PUSH1 0x0 SWAP1 SLOAD SWAP1 PUSH2 0x100 EXP SWAP1 DIV PUSH20 0xFFFFFFFFFFFFFFFFFFFFFFFFFFFFFFFFFFFFFFFF AND PUSH20 0xFFFFFFFFFFFFFFFFFFFFFFFFFFFFFFFFFFFFFFFF AND PUSH4 0x70A08231 ADDRESS PUSH1 0x40 MLOAD DUP3 PUSH4 0xFFFFFFFF AND PUSH1 0xE0 SHL DUP2 MSTORE PUSH1 0x4 ADD PUSH2 0x24ED SWAP2 SWAP1 PUSH2 0x25F0 JUMP JUMPDEST PUSH1 0x20 PUSH1 0x40 MLOAD DUP1 DUP4 SUB DUP2 DUP7 GAS STATICCALL ISZERO DUP1 ISZERO PUSH2 0x250A JUMPI RETURNDATASIZE PUSH1 0x0 DUP1 RETURNDATACOPY RETURNDATASIZE PUSH1 0x0 REVERT JUMPDEST POP POP POP POP PUSH1 0x40 MLOAD RETURNDATASIZE PUSH1 0x1F NOT PUSH1 0x1F DUP3 ADD AND DUP3 ADD DUP1 PUSH1 0x40 MSTORE POP DUP2 ADD SWAP1 PUSH2 0x252E SWAP2 SWAP1 PUSH2 0x26E4 JUMP JUMPDEST PUSH2 0x2538 SWAP2 SWAP1 PUSH2 0x28ED JUMP JUMPDEST SWAP4 POP POP POP POP SWAP2 SWAP1 POP JUMP JUMPDEST PUSH1 0x0 PUSH1 0x40 MLOAD SWAP1 POP SWAP1 JUMP JUMPDEST PUSH1 0x0 DUP1 REVERT JUMPDEST PUSH1 0x0 DUP1 REVERT JUMPDEST PUSH1 0x0 PUSH20 0xFFFFFFFFFFFFFFFFFFFFFFFFFFFFFFFFFFFFFFFF DUP3 AND SWAP1 POP SWAP2 SWAP1 POP JUMP JUMPDEST PUSH1 0x0 PUSH2 0x2581 DUP3 PUSH2 0x2556 JUMP JUMPDEST SWAP1 POP SWAP2 SWAP1 POP JUMP JUMPDEST PUSH2 0x2591 DUP2 PUSH2 0x2576 JUMP JUMPDEST DUP2 EQ PUSH2 0x259C JUMPI PUSH1 0x0 DUP1 REVERT JUMPDEST POP JUMP JUMPDEST PUSH1 0x0 DUP2 CALLDATALOAD SWAP1 POP PUSH2 0x25AE DUP2 PUSH2 0x2588 JUMP JUMPDEST SWAP3 SWAP2 POP POP JUMP JUMPDEST PUSH1 0x0 PUSH1 0x20 DUP3 DUP5 SUB SLT ISZERO PUSH2 0x25CA JUMPI PUSH2 0x25C9 PUSH2 0x254C JUMP JUMPDEST JUMPDEST PUSH1 0x0 PUSH2 0x25D8 DUP5 DUP3 DUP6 ADD PUSH2 0x259F JUMP JUMPDEST SWAP2 POP POP SWAP3 SWAP2 POP POP JUMP JUMPDEST PUSH2 0x25EA DUP2 PUSH2 0x2576 JUMP JUMPDEST DUP3 MSTORE POP POP JUMP JUMPDEST PUSH1 0x0 PUSH1 0x20 DUP3 ADD SWAP1 POP PUSH2 0x2605 PUSH1 0x0 DUP4 ADD DUP5 PUSH2 0x25E1 JUMP JUMPDEST SWAP3 SWAP2 POP POP JUMP JUMPDEST PUSH1 0x0 DUP2 SWAP1 POP SWAP2 SWAP1 POP JUMP JUMPDEST PUSH2 0x261E DUP2 PUSH2 0x260B JUMP JUMPDEST DUP2 EQ PUSH2 0x2629 JUMPI PUSH1 0x0 DUP1 REVERT JUMPDEST POP JUMP JUMPDEST PUSH1 0x0 DUP2 CALLDATALOAD SWAP1 POP PUSH2 0x263B DUP2 PUSH2 0x2615 JUMP JUMPDEST SWAP3 SWAP2 POP POP JUMP JUMPDEST PUSH1 0x0 PUSH1 0x20 DUP3 DUP5 SUB SLT ISZERO PUSH2 0x2657 JUMPI PUSH2 0x2656 PUSH2 0x254C JUMP JUMPDEST JUMPDEST PUSH1 0x0 PUSH2 0x2665 DUP5 DUP3 DUP6 ADD PUSH2 0x262C JUMP JUMPDEST SWAP2 POP POP SWAP3 SWAP2 POP POP JUMP JUMPDEST PUSH2 0x2677 DUP2 PUSH2 0x260B JUMP JUMPDEST DUP3 MSTORE POP POP JUMP JUMPDEST PUSH1 0x0 PUSH1 0x60 DUP3 ADD SWAP1 POP PUSH2 0x2692 PUSH1 0x0 DUP4 ADD DUP7 PUSH2 0x266E JUMP JUMPDEST PUSH2 0x269F PUSH1 0x20 DUP4 ADD DUP6 PUSH2 0x25E1 JUMP JUMPDEST PUSH2 0x26AC PUSH1 0x40 DUP4 ADD DUP5 PUSH2 0x266E JUMP JUMPDEST SWAP5 SWAP4 POP POP POP POP JUMP JUMPDEST PUSH1 0x0 PUSH1 0x20 DUP3 ADD SWAP1 POP PUSH2 0x26C9 PUSH1 0x0 DUP4 ADD DUP5 PUSH2 0x266E JUMP JUMPDEST SWAP3 SWAP2 POP POP JUMP JUMPDEST PUSH1 0x0 DUP2 MLOAD SWAP1 POP PUSH2 0x26DE DUP2 PUSH2 0x2615 JUMP JUMPDEST SWAP3 SWAP2 POP POP JUMP JUMPDEST PUSH1 0x0 PUSH1 0x20 DUP3 DUP5 SUB SLT ISZERO PUSH2 0x26FA JUMPI PUSH2 0x26F9 PUSH2 0x254C JUMP JUMPDEST JUMPDEST PUSH1 0x0 PUSH2 0x2708 DUP5 DUP3 DUP6 ADD PUSH2 0x26CF JUMP JUMPDEST SWAP2 POP POP SWAP3 SWAP2 POP POP JUMP JUMPDEST PUSH1 0x0 PUSH1 0x40 DUP3 ADD SWAP1 POP PUSH2 0x2726 PUSH1 0x0 DUP4 ADD DUP6 PUSH2 0x25E1 JUMP JUMPDEST PUSH2 0x2733 PUSH1 0x20 DUP4 ADD DUP5 PUSH2 0x266E JUMP JUMPDEST SWAP4 SWAP3 POP POP POP JUMP JUMPDEST PUSH1 0x0 DUP2 ISZERO ISZERO SWAP1 POP SWAP2 SWAP1 POP JUMP JUMPDEST PUSH2 0x274F DUP2 PUSH2 0x273A JUMP JUMPDEST DUP2 EQ PUSH2 0x275A JUMPI PUSH1 0x0 DUP1 REVERT JUMPDEST POP JUMP JUMPDEST PUSH1 0x0 DUP2 MLOAD SWAP1 POP PUSH2 0x276C DUP2 PUSH2 0x2746 JUMP JUMPDEST SWAP3 SWAP2 POP POP JUMP JUMPDEST PUSH1 0x0 PUSH1 0x20 DUP3 DUP5 SUB SLT ISZERO PUSH2 0x2788 JUMPI PUSH2 0x2787 PUSH2 0x254C JUMP JUMPDEST JUMPDEST PUSH1 0x0 PUSH2 0x2796 DUP5 DUP3 DUP6 ADD PUSH2 0x275D JUMP JUMPDEST SWAP2 POP POP SWAP3 SWAP2 POP POP JUMP JUMPDEST PUSH32 0x4E487B7100000000000000000000000000000000000000000000000000000000 PUSH1 0x0 MSTORE PUSH1 0x11 PUSH1 0x4 MSTORE PUSH1 0x24 PUSH1 0x0 REVERT JUMPDEST PUSH1 0x0 PUSH2 0x27D9 DUP3 PUSH2 0x260B JUMP JUMPDEST SWAP2 POP PUSH2 0x27E4 DUP4 PUSH2 0x260B JUMP JUMPDEST SWAP3 POP DUP3 DUP3 MUL PUSH2 0x27F2 DUP2 PUSH2 0x260B JUMP JUMPDEST SWAP2 POP DUP3 DUP3 DIV DUP5 EQ DUP4 ISZERO OR PUSH2 0x2809 JUMPI PUSH2 0x2808 PUSH2 0x279F JUMP JUMPDEST JUMPDEST POP SWAP3 SWAP2 POP POP JUMP JUMPDEST PUSH32 0x4E487B7100000000000000000000000000000000000000000000000000000000 PUSH1 0x0 MSTORE PUSH1 0x12 PUSH1 0x4 MSTORE PUSH1 0x24 PUSH1 0x0 REVERT JUMPDEST PUSH1 0x0 PUSH2 0x284A DUP3 PUSH2 0x260B JUMP JUMPDEST SWAP2 POP PUSH2 0x2855 DUP4 PUSH2 0x260B JUMP JUMPDEST SWAP3 POP DUP3 PUSH2 0x2865 JUMPI PUSH2 0x2864 PUSH2 0x2810 JUMP JUMPDEST JUMPDEST DUP3 DUP3 DIV SWAP1 POP SWAP3 SWAP2 POP POP JUMP JUMPDEST PUSH1 0x0 DUP3 DUP3 MSTORE PUSH1 0x20 DUP3 ADD SWAP1 POP SWAP3 SWAP2 POP POP JUMP JUMPDEST PUSH32 0x4E65656420746F206D696E7420666F72206C6971756964697479000000000000 PUSH1 0x0 DUP3 ADD MSTORE POP JUMP JUMPDEST PUSH1 0x0 PUSH2 0x28B7 PUSH1 0x1A DUP4 PUSH2 0x2870 JUMP JUMPDEST SWAP2 POP PUSH2 0x28C2 DUP3 PUSH2 0x2881 JUMP JUMPDEST PUSH1 0x20 DUP3 ADD SWAP1 POP SWAP2 SWAP1 POP JUMP JUMPDEST PUSH1 0x0 PUSH1 0x20 DUP3 ADD SWAP1 POP DUP2 DUP2 SUB PUSH1 0x0 DUP4 ADD MSTORE PUSH2 0x28E6 DUP2 PUSH2 0x28AA JUMP JUMPDEST SWAP1 POP SWAP2 SWAP1 POP JUMP JUMPDEST PUSH1 0x0 PUSH2 0x28F8 DUP3 PUSH2 0x260B JUMP JUMPDEST SWAP2 POP PUSH2 0x2903 DUP4 PUSH2 0x260B JUMP JUMPDEST SWAP3 POP DUP3 DUP3 SUB SWAP1 POP DUP2 DUP2 GT ISZERO PUSH2 0x291B JUMPI PUSH2 0x291A PUSH2 0x279F JUMP JUMPDEST JUMPDEST SWAP3 SWAP2 POP POP JUMP JUMPDEST PUSH1 0x0 PUSH1 0x40 DUP3 ADD SWAP1 POP PUSH2 0x2936 PUSH1 0x0 DUP4 ADD DUP6 PUSH2 0x266E JUMP JUMPDEST PUSH2 0x2943 PUSH1 0x20 DUP4 ADD DUP5 PUSH2 0x25E1 JUMP JUMPDEST SWAP4 SWAP3 POP POP POP JUMP JUMPDEST PUSH32 0x746F6B656E73206D696E74656400000000000000000000000000000000000000 PUSH1 0x0 DUP3 ADD MSTORE POP JUMP JUMPDEST PUSH1 0x0 PUSH2 0x2980 PUSH1 0xD DUP4 PUSH2 0x2870 JUMP JUMPDEST SWAP2 POP PUSH2 0x298B DUP3 PUSH2 0x294A JUMP JUMPDEST PUSH1 0x20 DUP3 ADD SWAP1 POP SWAP2 SWAP1 POP JUMP JUMPDEST PUSH1 0x0 PUSH1 0x20 DUP3 ADD SWAP1 POP DUP2 DUP2 SUB PUSH1 0x0 DUP4 ADD MSTORE PUSH2 0x29AF DUP2 PUSH2 0x2973 JUMP JUMPDEST SWAP1 POP SWAP2 SWAP1 POP JUMP JUMPDEST PUSH32 0x4E65772045524332302062616C616E6365000000000000000000000000000000 PUSH1 0x0 DUP3 ADD MSTORE POP JUMP JUMPDEST PUSH1 0x0 PUSH2 0x29EC PUSH1 0x11 DUP4 PUSH2 0x2870 JUMP JUMPDEST SWAP2 POP PUSH2 0x29F7 DUP3 PUSH2 0x29B6 JUMP JUMPDEST PUSH1 0x20 DUP3 ADD SWAP1 POP SWAP2 SWAP1 POP JUMP JUMPDEST PUSH1 0x0 PUSH1 0x20 DUP3 ADD SWAP1 POP DUP2 DUP2 SUB PUSH1 0x0 DUP4 ADD MSTORE PUSH2 0x2A1B DUP2 PUSH2 0x29DF JUMP JUMPDEST SWAP1 POP SWAP2 SWAP1 POP JUMP JUMPDEST PUSH1 0x0 DUP2 SWAP1 POP SWAP2 SWAP1 POP JUMP JUMPDEST PUSH1 0x0 DUP2 SWAP1 POP SWAP2 SWAP1 POP JUMP JUMPDEST PUSH1 0x0 PUSH2 0x2A51 PUSH2 0x2A4C PUSH2 0x2A47 DUP5 PUSH2 0x2A22 JUMP JUMPDEST PUSH2 0x2A2C JUMP JUMPDEST PUSH2 0x260B JUMP JUMPDEST SWAP1 POP SWAP2 SWAP1 POP JUMP JUMPDEST PUSH2 0x2A61 DUP2 PUSH2 0x2A36 JUMP JUMPDEST DUP3 MSTORE POP POP JUMP JUMPDEST PUSH1 0x0 PUSH1 0xC0 DUP3 ADD SWAP1 POP PUSH2 0x2A7C PUSH1 0x0 DUP4 ADD DUP10 PUSH2 0x25E1 JUMP JUMPDEST PUSH2 0x2A89 PUSH1 0x20 DUP4 ADD DUP9 PUSH2 0x266E JUMP JUMPDEST PUSH2 0x2A96 PUSH1 0x40 DUP4 ADD DUP8 PUSH2 0x2A58 JUMP JUMPDEST PUSH2 0x2AA3 PUSH1 0x60 DUP4 ADD DUP7 PUSH2 0x2A58 JUMP JUMPDEST PUSH2 0x2AB0 PUSH1 0x80 DUP4 ADD DUP6 PUSH2 0x25E1 JUMP JUMPDEST PUSH2 0x2ABD PUSH1 0xA0 DUP4 ADD DUP5 PUSH2 0x266E JUMP JUMPDEST SWAP8 SWAP7 POP POP POP POP POP POP POP JUMP JUMPDEST PUSH1 0x0 DUP1 PUSH1 0x0 PUSH1 0x60 DUP5 DUP7 SUB SLT ISZERO PUSH2 0x2AE1 JUMPI PUSH2 0x2AE0 PUSH2 0x254C JUMP JUMPDEST JUMPDEST PUSH1 0x0 PUSH2 0x2AEF DUP7 DUP3 DUP8 ADD PUSH2 0x26CF JUMP JUMPDEST SWAP4 POP POP PUSH1 0x20 PUSH2 0x2B00 DUP7 DUP3 DUP8 ADD PUSH2 0x26CF JUMP JUMPDEST SWAP3 POP POP PUSH1 0x40 PUSH2 0x2B11 DUP7 DUP3 DUP8 ADD PUSH2 0x26CF JUMP JUMPDEST SWAP2 POP POP SWAP3 POP SWAP3 POP SWAP3 JUMP JUMPDEST PUSH32 0x6D73672E76616C75650000000000000000000000000000000000000000000000 PUSH1 0x0 DUP3 ADD MSTORE POP JUMP JUMPDEST PUSH1 0x0 PUSH2 0x2B51 PUSH1 0x9 DUP4 PUSH2 0x2870 JUMP JUMPDEST SWAP2 POP PUSH2 0x2B5C DUP3 PUSH2 0x2B1B JUMP JUMPDEST PUSH1 0x20 DUP3 ADD SWAP1 POP SWAP2 SWAP1 POP JUMP JUMPDEST PUSH1 0x0 PUSH1 0x20 DUP3 ADD SWAP1 POP DUP2 DUP2 SUB PUSH1 0x0 DUP4 ADD MSTORE PUSH2 0x2B80 DUP2 PUSH2 0x2B44 JUMP JUMPDEST SWAP1 POP SWAP2 SWAP1 POP JUMP JUMPDEST PUSH32 0x4552433230416464726573730000000000000000000000000000000000000000 PUSH1 0x0 DUP3 ADD MSTORE POP JUMP JUMPDEST PUSH1 0x0 PUSH2 0x2BBD PUSH1 0xC DUP4 PUSH2 0x2870 JUMP JUMPDEST SWAP2 POP PUSH2 0x2BC8 DUP3 PUSH2 0x2B87 JUMP JUMPDEST PUSH1 0x20 DUP3 ADD SWAP1 POP SWAP2 SWAP1 POP JUMP JUMPDEST PUSH1 0x0 PUSH1 0x20 DUP3 ADD SWAP1 POP DUP2 DUP2 SUB PUSH1 0x0 DUP4 ADD MSTORE PUSH2 0x2BEC DUP2 PUSH2 0x2BB0 JUMP JUMPDEST SWAP1 POP SWAP2 SWAP1 POP JUMP JUMPDEST PUSH32 0x746F6B656E73546F53656E640000000000000000000000000000000000000000 PUSH1 0x0 DUP3 ADD MSTORE POP JUMP JUMPDEST PUSH1 0x0 PUSH2 0x2C29 PUSH1 0xC DUP4 PUSH2 0x2870 JUMP JUMPDEST SWAP2 POP PUSH2 0x2C34 DUP3 PUSH2 0x2BF3 JUMP JUMPDEST PUSH1 0x20 DUP3 ADD SWAP1 POP SWAP2 SWAP1 POP JUMP JUMPDEST PUSH1 0x0 PUSH1 0x20 DUP3 ADD SWAP1 POP DUP2 DUP2 SUB PUSH1 0x0 DUP4 ADD MSTORE PUSH2 0x2C58 DUP2 PUSH2 0x2C1C JUMP JUMPDEST SWAP1 POP SWAP2 SWAP1 POP JUMP JUMPDEST PUSH32 0x6164647265737328746869732900000000000000000000000000000000000000 PUSH1 0x0 DUP3 ADD MSTORE POP JUMP JUMPDEST PUSH1 0x0 PUSH2 0x2C95 PUSH1 0xD DUP4 PUSH2 0x2870 JUMP JUMPDEST SWAP2 POP PUSH2 0x2CA0 DUP3 PUSH2 0x2C5F JUMP JUMPDEST PUSH1 0x20 DUP3 ADD SWAP1 POP SWAP2 SWAP1 POP JUMP JUMPDEST PUSH1 0x0 PUSH1 0x20 DUP3 ADD SWAP1 POP DUP2 DUP2 SUB PUSH1 0x0 DUP4 ADD MSTORE PUSH2 0x2CC4 DUP2 PUSH2 0x2C88 JUMP JUMPDEST SWAP1 POP SWAP2 SWAP1 POP JUMP JUMPDEST PUSH32 0x747970652875696E74292E6D6178000000000000000000000000000000000000 PUSH1 0x0 DUP3 ADD MSTORE POP JUMP JUMPDEST PUSH1 0x0 PUSH2 0x2D01 PUSH1 0xE DUP4 PUSH2 0x2870 JUMP JUMPDEST SWAP2 POP PUSH2 0x2D0C DUP3 PUSH2 0x2CCB JUMP JUMPDEST PUSH1 0x20 DUP3 ADD SWAP1 POP SWAP2 SWAP1 POP JUMP JUMPDEST PUSH1 0x0 PUSH1 0x20 DUP3 ADD SWAP1 POP DUP2 DUP2 SUB PUSH1 0x0 DUP4 ADD MSTORE PUSH2 0x2D30 DUP2 PUSH2 0x2CF4 JUMP JUMPDEST SWAP1 POP SWAP2 SWAP1 POP JUMP JUMPDEST PUSH32 0x4C6971756964697479204E6F742050726F766964656400000000000000000000 PUSH1 0x0 DUP3 ADD MSTORE POP JUMP JUMPDEST PUSH1 0x0 PUSH2 0x2D6D PUSH1 0x16 DUP4 PUSH2 0x2870 JUMP JUMPDEST SWAP2 POP PUSH2 0x2D78 DUP3 PUSH2 0x2D37 JUMP JUMPDEST PUSH1 0x20 DUP3 ADD SWAP1 POP SWAP2 SWAP1 POP JUMP JUMPDEST PUSH1 0x0 PUSH1 0x20 DUP3 ADD SWAP1 POP DUP2 DUP2 SUB PUSH1 0x0 DUP4 ADD MSTORE PUSH2 0x2D9C DUP2 PUSH2 0x2D60 JUMP JUMPDEST SWAP1 POP SWAP2 SWAP1 POP JUMP JUMPDEST PUSH32 0x6C6971756964697479205375636365737366756C6C792050726F766964656400 PUSH1 0x0 DUP3 ADD MSTORE POP JUMP JUMPDEST PUSH1 0x0 PUSH2 0x2DD9 PUSH1 0x1F DUP4 PUSH2 0x2870 JUMP JUMPDEST SWAP2 POP PUSH2 0x2DE4 DUP3 PUSH2 0x2DA3 JUMP JUMPDEST PUSH1 0x20 DUP3 ADD SWAP1 POP SWAP2 SWAP1 POP JUMP JUMPDEST PUSH1 0x0 PUSH1 0x20 DUP3 ADD SWAP1 POP DUP2 DUP2 SUB PUSH1 0x0 DUP4 ADD MSTORE PUSH2 0x2E08 DUP2 PUSH2 0x2DCC JUMP JUMPDEST SWAP1 POP SWAP2 SWAP1 POP JUMP JUMPDEST PUSH32 0x70726576696F757320486F6C6465722069730000000000000000000000000000 PUSH1 0x0 DUP3 ADD MSTORE POP JUMP JUMPDEST PUSH1 0x0 PUSH2 0x2E45 PUSH1 0x12 DUP4 PUSH2 0x2870 JUMP JUMPDEST SWAP2 POP PUSH2 0x2E50 DUP3 PUSH2 0x2E0F JUMP JUMPDEST PUSH1 0x20 DUP3 ADD SWAP1 POP SWAP2 SWAP1 POP JUMP JUMPDEST PUSH1 0x0 PUSH1 0x20 DUP3 ADD SWAP1 POP DUP2 DUP2 SUB PUSH1 0x0 DUP4 ADD MSTORE PUSH2 0x2E74 DUP2 PUSH2 0x2E38 JUMP JUMPDEST SWAP1 POP SWAP2 SWAP1 POP JUMP JUMPDEST PUSH32 0x63757272656E74206C69717569646974792070657263656E7400000000000000 PUSH1 0x0 DUP3 ADD MSTORE POP JUMP JUMPDEST PUSH1 0x0 PUSH2 0x2EB1 PUSH1 0x19 DUP4 PUSH2 0x2870 JUMP JUMPDEST SWAP2 POP PUSH2 0x2EBC DUP3 PUSH2 0x2E7B JUMP JUMPDEST PUSH1 0x20 DUP3 ADD SWAP1 POP SWAP2 SWAP1 POP JUMP JUMPDEST PUSH1 0x0 PUSH1 0x20 DUP3 ADD SWAP1 POP DUP2 DUP2 SUB PUSH1 0x0 DUP4 ADD MSTORE PUSH2 0x2EE0 DUP2 PUSH2 0x2EA4 JUMP JUMPDEST SWAP1 POP SWAP2 SWAP1 POP JUMP JUMPDEST PUSH1 0x0 PUSH2 0x2EF2 DUP3 PUSH2 0x260B JUMP JUMPDEST SWAP2 POP PUSH2 0x2EFD DUP4 PUSH2 0x260B JUMP JUMPDEST SWAP3 POP DUP3 DUP3 ADD SWAP1 POP DUP1 DUP3 GT ISZERO PUSH2 0x2F15 JUMPI PUSH2 0x2F14 PUSH2 0x279F JUMP JUMPDEST JUMPDEST SWAP3 SWAP2 POP POP JUMP JUMPDEST PUSH32 0x746F6B656E732063616E74206265206275726E74000000000000000000000000 PUSH1 0x0 DUP3 ADD MSTORE POP JUMP JUMPDEST PUSH1 0x0 PUSH2 0x2F51 PUSH1 0x14 DUP4 PUSH2 0x2870 JUMP JUMPDEST SWAP2 POP PUSH2 0x2F5C DUP3 PUSH2 0x2F1B JUMP JUMPDEST PUSH1 0x20 DUP3 ADD SWAP1 POP SWAP2 SWAP1 POP JUMP JUMPDEST PUSH1 0x0 PUSH1 0x20 DUP3 ADD SWAP1 POP DUP2 DUP2 SUB PUSH1 0x0 DUP4 ADD MSTORE PUSH2 0x2F80 DUP2 PUSH2 0x2F44 JUMP JUMPDEST SWAP1 POP SWAP2 SWAP1 POP JUMP JUMPDEST PUSH32 0x746F6B656E732068617665206265656E206275726E7400000000000000000000 PUSH1 0x0 DUP3 ADD MSTORE POP JUMP JUMPDEST PUSH1 0x0 PUSH2 0x2FBD PUSH1 0x16 DUP4 PUSH2 0x2870 JUMP JUMPDEST SWAP2 POP PUSH2 0x2FC8 DUP3 PUSH2 0x2F87 JUMP JUMPDEST PUSH1 0x20 DUP3 ADD SWAP1 POP SWAP2 SWAP1 POP JUMP JUMPDEST PUSH1 0x0 PUSH1 0x20 DUP3 ADD SWAP1 POP DUP2 DUP2 SUB PUSH1 0x0 DUP4 ADD MSTORE PUSH2 0x2FEC DUP2 PUSH2 0x2FB0 JUMP JUMPDEST SWAP1 POP SWAP2 SWAP1 POP JUMP JUMPDEST PUSH1 0x0 PUSH1 0xC0 DUP3 ADD SWAP1 POP PUSH2 0x3008 PUSH1 0x0 DUP4 ADD DUP10 PUSH2 0x25E1 JUMP JUMPDEST PUSH2 0x3015 PUSH1 0x20 DUP4 ADD DUP9 PUSH2 0x266E JUMP JUMPDEST PUSH2 0x3022 PUSH1 0x40 DUP4 ADD DUP8 PUSH2 0x2A58 JUMP JUMPDEST PUSH2 0x302F PUSH1 0x60 DUP4 ADD DUP7 PUSH2 0x266E JUMP JUMPDEST PUSH2 0x303C PUSH1 0x80 DUP4 ADD DUP6 PUSH2 0x25E1 JUMP JUMPDEST PUSH2 0x3049 PUSH1 0xA0 DUP4 ADD DUP5 PUSH2 0x266E JUMP JUMPDEST SWAP8 SWAP7 POP POP POP POP POP POP POP JUMP JUMPDEST PUSH32 0x70726963652063616E7420626520676F742066726F6D204F7261636C65000000 PUSH1 0x0 DUP3 ADD MSTORE POP JUMP JUMPDEST PUSH1 0x0 PUSH2 0x308A PUSH1 0x1D DUP4 PUSH2 0x2870 JUMP JUMPDEST SWAP2 POP PUSH2 0x3095 DUP3 PUSH2 0x3054 JUMP JUMPDEST PUSH1 0x20 DUP3 ADD SWAP1 POP SWAP2 SWAP1 POP JUMP JUMPDEST PUSH1 0x0 PUSH1 0x20 DUP3 ADD SWAP1 POP DUP2 DUP2 SUB PUSH1 0x0 DUP4 ADD MSTORE PUSH2 0x30B9 DUP2 PUSH2 0x307D JUMP JUMPDEST SWAP1 POP SWAP2 SWAP1 POP JUMP JUMPDEST PUSH32 0x707269636520676F742066726F6D204F7261636C652062757420636F756C646E PUSH1 0x0 DUP3 ADD MSTORE PUSH32 0x74206D696E740000000000000000000000000000000000000000000000000000 PUSH1 0x20 DUP3 ADD MSTORE POP JUMP JUMPDEST PUSH1 0x0 PUSH2 0x311C PUSH1 0x26 DUP4 PUSH2 0x2870 JUMP JUMPDEST SWAP2 POP PUSH2 0x3127 DUP3 PUSH2 0x30C0 JUMP JUMPDEST PUSH1 0x40 DUP3 ADD SWAP1 POP SWAP2 SWAP1 POP JUMP JUMPDEST PUSH1 0x0 PUSH1 0x20 DUP3 ADD SWAP1 POP DUP2 DUP2 SUB PUSH1 0x0 DUP4 ADD MSTORE PUSH2 0x314B DUP2 PUSH2 0x310F JUMP JUMPDEST SWAP1 POP SWAP2 SWAP1 POP JUMP JUMPDEST PUSH32 0x746F6B656E73206D696E74656420746F2070726576696F757320686F6C646572 PUSH1 0x0 DUP3 ADD MSTORE POP JUMP JUMPDEST PUSH1 0x0 PUSH2 0x3188 PUSH1 0x20 DUP4 PUSH2 0x2870 JUMP JUMPDEST SWAP2 POP PUSH2 0x3193 DUP3 PUSH2 0x3152 JUMP JUMPDEST PUSH1 0x20 DUP3 ADD SWAP1 POP SWAP2 SWAP1 POP JUMP JUMPDEST PUSH1 0x0 PUSH1 0x20 DUP3 ADD SWAP1 POP DUP2 DUP2 SUB PUSH1 0x0 DUP4 ADD MSTORE PUSH2 0x31B7 DUP2 PUSH2 0x317B JUMP JUMPDEST SWAP1 POP SWAP2 SWAP1 POP JUMP JUMPDEST PUSH32 0x63616E74206765742062616C616E6365206F66207468697320636F6E74726163 PUSH1 0x0 DUP3 ADD MSTORE PUSH32 0x7400000000000000000000000000000000000000000000000000000000000000 PUSH1 0x20 DUP3 ADD MSTORE POP JUMP JUMPDEST PUSH1 0x0 PUSH2 0x321A PUSH1 0x21 DUP4 PUSH2 0x2870 JUMP JUMPDEST SWAP2 POP PUSH2 0x3225 DUP3 PUSH2 0x31BE JUMP JUMPDEST PUSH1 0x40 DUP3 ADD SWAP1 POP SWAP2 SWAP1 POP JUMP JUMPDEST PUSH1 0x0 PUSH1 0x20 DUP3 ADD SWAP1 POP DUP2 DUP2 SUB PUSH1 0x0 DUP4 ADD MSTORE PUSH2 0x3249 DUP2 PUSH2 0x320D JUMP JUMPDEST SWAP1 POP SWAP2 SWAP1 POP JUMP JUMPDEST PUSH32 0x63616E74206765742070726963652066726F6D204F7261636C65000000000000 PUSH1 0x0 DUP3 ADD MSTORE POP JUMP JUMPDEST PUSH1 0x0 PUSH2 0x3286 PUSH1 0x1A DUP4 PUSH2 0x2870 JUMP JUMPDEST SWAP2 POP PUSH2 0x3291 DUP3 PUSH2 0x3250 JUMP JUMPDEST PUSH1 0x20 DUP3 ADD SWAP1 POP SWAP2 SWAP1 POP JUMP JUMPDEST PUSH1 0x0 PUSH1 0x20 DUP3 ADD SWAP1 POP DUP2 DUP2 SUB PUSH1 0x0 DUP4 ADD MSTORE PUSH2 0x32B5 DUP2 PUSH2 0x3279 JUMP JUMPDEST SWAP1 POP SWAP2 SWAP1 POP JUMP JUMPDEST PUSH32 0x6E756D626572206F6620546F6B656E7320746F20427579206973000000000000 PUSH1 0x0 DUP3 ADD MSTORE POP JUMP JUMPDEST PUSH1 0x0 PUSH2 0x32F2 PUSH1 0x1A DUP4 PUSH2 0x2870 JUMP JUMPDEST SWAP2 POP PUSH2 0x32FD DUP3 PUSH2 0x32BC JUMP JUMPDEST PUSH1 0x20 DUP3 ADD SWAP1 POP SWAP2 SWAP1 POP JUMP JUMPDEST PUSH1 0x0 PUSH1 0x20 DUP3 ADD SWAP1 POP DUP2 DUP2 SUB PUSH1 0x0 DUP4 ADD MSTORE PUSH2 0x3321 DUP2 PUSH2 0x32E5 JUMP JUMPDEST SWAP1 POP SWAP2 SWAP1 POP JUMP JUMPDEST PUSH1 0x0 DUP2 SLOAD SWAP1 POP SWAP2 SWAP1 POP JUMP JUMPDEST PUSH1 0x0 DUP3 DUP3 MSTORE PUSH1 0x20 DUP3 ADD SWAP1 POP SWAP3 SWAP2 POP POP JUMP JUMPDEST PUSH1 0x0 DUP2 SWAP1 POP DUP2 PUSH1 0x0 MSTORE PUSH1 0x20 PUSH1 0x0 KECCAK256 SWAP1 POP SWAP2 SWAP1 POP JUMP JUMPDEST PUSH2 0x3362 DUP2 PUSH2 0x2576 JUMP JUMPDEST DUP3 MSTORE POP POP JUMP JUMPDEST PUSH1 0x0 PUSH2 0x3374 DUP4 DUP4 PUSH2 0x3359 JUMP JUMPDEST PUSH1 0x20 DUP4 ADD SWAP1 POP SWAP3 SWAP2 POP POP JUMP JUMPDEST PUSH1 0x0 DUP2 PUSH1 0x0 SHR SWAP1 POP SWAP2 SWAP1 POP JUMP JUMPDEST PUSH1 0x0 PUSH20 0xFFFFFFFFFFFFFFFFFFFFFFFFFFFFFFFFFFFFFFFF DUP3 AND SWAP1 POP SWAP2 SWAP1 POP JUMP JUMPDEST PUSH1 0x0 PUSH2 0x33C0 PUSH2 0x33BB DUP4 PUSH2 0x3380 JUMP JUMPDEST PUSH2 0x338D JUMP JUMPDEST SWAP1 POP SWAP2 SWAP1 POP JUMP JUMPDEST PUSH1 0x0 PUSH2 0x33D3 DUP3 SLOAD PUSH2 0x33AD JUMP JUMPDEST SWAP1 POP SWAP2 SWAP1 POP JUMP JUMPDEST PUSH1 0x0 PUSH1 0x1 DUP3 ADD SWAP1 POP SWAP2 SWAP1 POP JUMP JUMPDEST PUSH1 0x0 PUSH2 0x33F2 DUP3 PUSH2 0x3328 JUMP JUMPDEST PUSH2 0x33FC DUP2 DUP6 PUSH2 0x3333 JUMP JUMPDEST SWAP4 POP PUSH2 0x3407 DUP4 PUSH2 0x3344 JUMP JUMPDEST DUP1 PUSH1 0x0 JUMPDEST DUP4 DUP2 LT ISZERO PUSH2 0x343F JUMPI PUSH2 0x341C DUP3 PUSH2 0x33C7 JUMP JUMPDEST PUSH2 0x3426 DUP9 DUP3 PUSH2 0x3368 JUMP JUMPDEST SWAP8 POP PUSH2 0x3431 DUP4 PUSH2 0x33DA JUMP JUMPDEST SWAP3 POP POP PUSH1 0x1 DUP2 ADD SWAP1 POP PUSH2 0x340B JUMP JUMPDEST POP DUP6 SWAP4 POP POP POP POP SWAP3 SWAP2 POP POP JUMP JUMPDEST PUSH1 0x0 PUSH1 0x80 DUP3 ADD SWAP1 POP PUSH2 0x3461 PUSH1 0x0 DUP4 ADD DUP8 PUSH2 0x266E JUMP JUMPDEST DUP2 DUP2 SUB PUSH1 0x20 DUP4 ADD MSTORE PUSH2 0x3473 DUP2 DUP7 PUSH2 0x33E7 JUMP JUMPDEST SWAP1 POP PUSH2 0x3482 PUSH1 0x40 DUP4 ADD DUP6 PUSH2 0x25E1 JUMP JUMPDEST PUSH2 0x348F PUSH1 0x60 DUP4 ADD DUP5 PUSH2 0x266E JUMP JUMPDEST SWAP6 SWAP5 POP POP POP POP POP JUMP JUMPDEST PUSH1 0x0 DUP1 REVERT JUMPDEST PUSH1 0x0 PUSH1 0x1F NOT PUSH1 0x1F DUP4 ADD AND SWAP1 POP SWAP2 SWAP1 POP JUMP JUMPDEST PUSH32 0x4E487B7100000000000000000000000000000000000000000000000000000000 PUSH1 0x0 MSTORE PUSH1 0x41 PUSH1 0x4 MSTORE PUSH1 0x24 PUSH1 0x0 REVERT JUMPDEST PUSH2 0x34E6 DUP3 PUSH2 0x349D JUMP JUMPDEST DUP2 ADD DUP2 DUP2 LT PUSH8 0xFFFFFFFFFFFFFFFF DUP3 GT OR ISZERO PUSH2 0x3505 JUMPI PUSH2 0x3504 PUSH2 0x34AE JUMP JUMPDEST JUMPDEST DUP1 PUSH1 0x40 MSTORE POP POP POP JUMP JUMPDEST PUSH1 0x0 PUSH2 0x3518 PUSH2 0x2542 JUMP JUMPDEST SWAP1 POP PUSH2 0x3524 DUP3 DUP3 PUSH2 0x34DD JUMP JUMPDEST SWAP2 SWAP1 POP JUMP JUMPDEST PUSH1 0x0 PUSH8 0xFFFFFFFFFFFFFFFF DUP3 GT ISZERO PUSH2 0x3544 JUMPI PUSH2 0x3543 PUSH2 0x34AE JUMP JUMPDEST JUMPDEST PUSH1 0x20 DUP3 MUL SWAP1 POP PUSH1 0x20 DUP2 ADD SWAP1 POP SWAP2 SWAP1 POP JUMP JUMPDEST PUSH1 0x0 DUP1 REVERT JUMPDEST PUSH1 0x0 PUSH2 0x356D PUSH2 0x3568 DUP5 PUSH2 0x3529 JUMP JUMPDEST PUSH2 0x350E JUMP JUMPDEST SWAP1 POP DUP1 DUP4 DUP3 MSTORE PUSH1 0x20 DUP3 ADD SWAP1 POP PUSH1 0x20 DUP5 MUL DUP4 ADD DUP6 DUP2 GT ISZERO PUSH2 0x3590 JUMPI PUSH2 0x358F PUSH2 0x3555 JUMP JUMPDEST JUMPDEST DUP4 JUMPDEST DUP2 DUP2 LT ISZERO PUSH2 0x35B9 JUMPI DUP1 PUSH2 0x35A5 DUP9 DUP3 PUSH2 0x26CF JUMP JUMPDEST DUP5 MSTORE PUSH1 0x20 DUP5 ADD SWAP4 POP POP PUSH1 0x20 DUP2 ADD SWAP1 POP PUSH2 0x3592 JUMP JUMPDEST POP POP POP SWAP4 SWAP3 POP POP POP JUMP JUMPDEST PUSH1 0x0 DUP3 PUSH1 0x1F DUP4 ADD SLT PUSH2 0x35D8 JUMPI PUSH2 0x35D7 PUSH2 0x3498 JUMP JUMPDEST JUMPDEST DUP2 MLOAD PUSH2 0x35E8 DUP5 DUP3 PUSH1 0x20 DUP7 ADD PUSH2 0x355A JUMP JUMPDEST SWAP2 POP POP SWAP3 SWAP2 POP POP JUMP JUMPDEST PUSH1 0x0 PUSH1 0x20 DUP3 DUP5 SUB SLT ISZERO PUSH2 0x3607 JUMPI PUSH2 0x3606 PUSH2 0x254C JUMP JUMPDEST JUMPDEST PUSH1 0x0 DUP3 ADD MLOAD PUSH8 0xFFFFFFFFFFFFFFFF DUP2 GT ISZERO PUSH2 0x3625 JUMPI PUSH2 0x3624 PUSH2 0x2551 JUMP JUMPDEST JUMPDEST PUSH2 0x3631 DUP5 DUP3 DUP6 ADD PUSH2 0x35C3 JUMP JUMPDEST SWAP2 POP POP SWAP3 SWAP2 POP POP JUMP JUMPDEST PUSH32 0x746F6B656E73206E6F7420626F75676874000000000000000000000000000000 PUSH1 0x0 DUP3 ADD MSTORE POP JUMP JUMPDEST PUSH1 0x0 PUSH2 0x3670 PUSH1 0x11 DUP4 PUSH2 0x2870 JUMP JUMPDEST SWAP2 POP PUSH2 0x367B DUP3 PUSH2 0x363A JUMP JUMPDEST PUSH1 0x20 DUP3 ADD SWAP1 POP SWAP2 SWAP1 POP JUMP JUMPDEST PUSH1 0x0 PUSH1 0x20 DUP3 ADD SWAP1 POP DUP2 DUP2 SUB PUSH1 0x0 DUP4 ADD MSTORE PUSH2 0x369F DUP2 PUSH2 0x3663 JUMP JUMPDEST SWAP1 POP SWAP2 SWAP1 POP JUMP JUMPDEST PUSH32 0x746F6B656E7320626F7567687400000000000000000000000000000000000000 PUSH1 0x0 DUP3 ADD MSTORE POP JUMP JUMPDEST PUSH1 0x0 PUSH2 0x36DC PUSH1 0xD DUP4 PUSH2 0x2870 JUMP JUMPDEST SWAP2 POP PUSH2 0x36E7 DUP3 PUSH2 0x36A6 JUMP JUMPDEST PUSH1 0x20 DUP3 ADD SWAP1 POP SWAP2 SWAP1 POP JUMP JUMPDEST PUSH1 0x0 PUSH1 0x20 DUP3 ADD SWAP1 POP DUP2 DUP2 SUB PUSH1 0x0 DUP4 ADD MSTORE PUSH2 0x370B DUP2 PUSH2 0x36CF JUMP JUMPDEST SWAP1 POP SWAP2 SWAP1 POP JUMP INVALID LOG2 PUSH5 0x6970667358 0x22 SLT KECCAK256 PUSH12 0x2149F07043A499672D6F1EE3 PUSH5 0x104EC41076 SWAP16 DELEGATECALL 0xE1 0xF6 0xED GAS 0xB3 0x24 DIV DUP4 0xD9 PUSH1 0x5A PUSH5 0x736F6C6343 STOP ADDMOD GT STOP CALLER "
				},
				"gasEstimates": {
					"creation": {
						"codeDepositCost": "2830400",
						"executionCost": "infinite",
						"totalCost": "infinite"
					},
					"external": {
						"ERC20Address()": "2559",
						"POAPAddress()": "2625",
						"WethAddress()": "2578",
						"buyEth()": "2541",
						"crownNFTAddress()": "2581",
						"getLastEthRecieved()": "infinite",
						"getWethBalance()": "infinite",
						"liquidityEth()": "2452",
						"mintSomeTokens(uint256)": "infinite",
						"oracleAddress()": "2603",
						"path(uint256)": "4978",
						"percentLiquidity()": "infinite",
						"superBuy(address)": "infinite",
						"totalRoyalties()": "2518",
						"transactionFromPOAPId(uint256)": "infinite",
						"uniswapPairAddress()": "2558",
						"uniswapRouterAddress()": "2582",
						"updateERC20Address(address)": "24768",
						"withdraw(address)": "infinite",
						"xprovideLiquidity()": "infinite"
					},
					"internal": {
						"buyAndBurn(uint256)": "infinite",
						"buyTokens(uint256)": "infinite",
						"erc20ToPreviousHolder(address)": "infinite",
						"newTransaction(uint256,address)": "119275",
						"processETH()": "infinite",
						"provideLiquidity(uint256)": "infinite",
						"setInitialTranscation(address)": "infinite"
					}
				},
				"methodIdentifiers": {
					"ERC20Address()": "a6021ace",
					"POAPAddress()": "aef75107",
					"WethAddress()": "a785a3d8",
					"buyEth()": "4cfd1ba5",
					"crownNFTAddress()": "777b506f",
					"getLastEthRecieved()": "bfd9ea5b",
					"getWethBalance()": "9dd58b58",
					"liquidityEth()": "a09ede07",
					"mintSomeTokens(uint256)": "d4afa675",
					"oracleAddress()": "a89ae4ba",
					"path(uint256)": "af6d1fe4",
					"percentLiquidity()": "c1f2e5f1",
					"superBuy(address)": "0b2b4d9b",
					"totalRoyalties()": "86d02608",
					"transactionFromPOAPId(uint256)": "2c4c3c1b",
					"uniswapPairAddress()": "bd3733fe",
					"uniswapRouterAddress()": "20ca3c7f",
					"updateERC20Address(address)": "1b017fde",
					"withdraw(address)": "51cff8d9",
					"xprovideLiquidity()": "620a703c"
				}
			},
			"storageLayout": {
				"storage": [
					{
						"astId": 663,
						"contract": "Hook.sol:TransactionsAndHook",
						"label": "WethAddress",
						"offset": 0,
						"slot": "0",
						"type": "t_address"
					},
					{
						"astId": 665,
						"contract": "Hook.sol:TransactionsAndHook",
						"label": "ERC20Address",
						"offset": 0,
						"slot": "1",
						"type": "t_address"
					},
					{
						"astId": 667,
						"contract": "Hook.sol:TransactionsAndHook",
						"label": "uniswapPairAddress",
						"offset": 0,
						"slot": "2",
						"type": "t_address"
					},
					{
						"astId": 669,
						"contract": "Hook.sol:TransactionsAndHook",
						"label": "oracleAddress",
						"offset": 0,
						"slot": "3",
						"type": "t_address"
					},
					{
						"astId": 671,
						"contract": "Hook.sol:TransactionsAndHook",
						"label": "crownNFTAddress",
						"offset": 0,
						"slot": "4",
						"type": "t_address"
					},
					{
						"astId": 673,
						"contract": "Hook.sol:TransactionsAndHook",
						"label": "POAPAddress",
						"offset": 0,
						"slot": "5",
						"type": "t_address"
					},
					{
						"astId": 676,
						"contract": "Hook.sol:TransactionsAndHook",
						"label": "uniswapRouterAddress",
						"offset": 0,
						"slot": "6",
						"type": "t_address"
					},
					{
						"astId": 679,
						"contract": "Hook.sol:TransactionsAndHook",
						"label": "path",
						"offset": 0,
						"slot": "7",
						"type": "t_array(t_address)dyn_storage"
					},
					{
						"astId": 685,
						"contract": "Hook.sol:TransactionsAndHook",
						"label": "POAP",
						"offset": 0,
						"slot": "8",
						"type": "t_contract(iPOAP)483"
					},
					{
						"astId": 691,
						"contract": "Hook.sol:TransactionsAndHook",
						"label": "WETH",
						"offset": 0,
						"slot": "9",
						"type": "t_contract(WethLike)550"
					},
					{
						"astId": 697,
						"contract": "Hook.sol:TransactionsAndHook",
						"label": "Oracle",
						"offset": 0,
						"slot": "10",
						"type": "t_contract(iOracle)517"
					},
					{
						"astId": 703,
						"contract": "Hook.sol:TransactionsAndHook",
						"label": "UniswapRouter",
						"offset": 0,
						"slot": "11",
						"type": "t_contract(IUniswapV2Router02)473"
					},
					{
						"astId": 708,
						"contract": "Hook.sol:TransactionsAndHook",
						"label": "transactionFromPOAPId",
						"offset": 0,
						"slot": "12",
						"type": "t_mapping(t_uint256,t_struct(Transaction)730_storage)"
					},
					{
						"astId": 711,
						"contract": "Hook.sol:TransactionsAndHook",
						"label": "POAPIds",
						"offset": 0,
						"slot": "13",
						"type": "t_array(t_uint256)dyn_storage"
					},
					{
						"astId": 713,
						"contract": "Hook.sol:TransactionsAndHook",
						"label": "totalRoyalties",
						"offset": 0,
						"slot": "14",
						"type": "t_uint256"
					},
					{
						"astId": 1186,
						"contract": "Hook.sol:TransactionsAndHook",
						"label": "buyEth",
						"offset": 0,
						"slot": "15",
						"type": "t_uint256"
					},
					{
						"astId": 1188,
						"contract": "Hook.sol:TransactionsAndHook",
						"label": "liquidityEth",
						"offset": 0,
						"slot": "16",
						"type": "t_uint256"
					}
				],
				"types": {
					"t_address": {
						"encoding": "inplace",
						"label": "address",
						"numberOfBytes": "20"
					},
					"t_array(t_address)dyn_storage": {
						"base": "t_address",
						"encoding": "dynamic_array",
						"label": "address[]",
						"numberOfBytes": "32"
					},
					"t_array(t_uint256)dyn_storage": {
						"base": "t_uint256",
						"encoding": "dynamic_array",
						"label": "uint256[]",
						"numberOfBytes": "32"
					},
					"t_contract(IUniswapV2Router02)473": {
						"encoding": "inplace",
						"label": "contract IUniswapV2Router02",
						"numberOfBytes": "20"
					},
					"t_contract(WethLike)550": {
						"encoding": "inplace",
						"label": "contract WethLike",
						"numberOfBytes": "20"
					},
					"t_contract(iOracle)517": {
						"encoding": "inplace",
						"label": "contract iOracle",
						"numberOfBytes": "20"
					},
					"t_contract(iPOAP)483": {
						"encoding": "inplace",
						"label": "contract iPOAP",
						"numberOfBytes": "20"
					},
					"t_mapping(t_uint256,t_struct(Transaction)730_storage)": {
						"encoding": "mapping",
						"key": "t_uint256",
						"label": "mapping(uint256 => struct TransactionsAndHook.Transaction)",
						"numberOfBytes": "32",
						"value": "t_struct(Transaction)730_storage"
					},
					"t_struct(Transaction)730_storage": {
						"encoding": "inplace",
						"label": "struct TransactionsAndHook.Transaction",
						"members": [
							{
								"astId": 725,
								"contract": "Hook.sol:TransactionsAndHook",
								"label": "POAPId",
								"offset": 0,
								"slot": "0",
								"type": "t_uint256"
							},
							{
								"astId": 727,
								"contract": "Hook.sol:TransactionsAndHook",
								"label": "purchaser",
								"offset": 0,
								"slot": "1",
								"type": "t_address"
							},
							{
								"astId": 729,
								"contract": "Hook.sol:TransactionsAndHook",
								"label": "receivedEth",
								"offset": 0,
								"slot": "2",
								"type": "t_uint256"
							}
						],
						"numberOfBytes": "96"
					},
					"t_uint256": {
						"encoding": "inplace",
						"label": "uint256",
						"numberOfBytes": "32"
					}
				}
			},
			"userdoc": {
				"kind": "user",
				"methods": {},
				"version": 1
			}
		}
	}
}