{
	"test.sol": {
		"liquidityProvider": {
			"abi": [
				{
					"inputs": [],
					"stateMutability": "nonpayable",
					"type": "constructor"
				},
				{
					"inputs": [
						{
							"internalType": "address",
							"name": "token",
							"type": "address"
						},
						{
							"internalType": "uint256",
							"name": "amountTokenDesired",
							"type": "uint256"
						},
						{
							"internalType": "uint256",
							"name": "amountTokenMin",
							"type": "uint256"
						},
						{
							"internalType": "uint256",
							"name": "amountETHMin",
							"type": "uint256"
						},
						{
							"internalType": "uint256",
							"name": "deadline",
							"type": "uint256"
						}
					],
					"name": "provideLiquitidy",
					"outputs": [],
					"stateMutability": "payable",
					"type": "function"
				},
				{
					"inputs": [
						{
							"internalType": "uint256",
							"name": "amountTokenDesired",
							"type": "uint256"
						},
						{
							"internalType": "address",
							"name": "to",
							"type": "address"
						},
						{
							"internalType": "uint256",
							"name": "deadline",
							"type": "uint256"
						}
					],
					"name": "provideLiquitidy2",
					"outputs": [],
					"stateMutability": "payable",
					"type": "function"
				}
			],
			"devdoc": {
				"kind": "dev",
				"methods": {},
				"version": 1
			},
			"evm": {
				"assembly": "    /* \"test.sol\":205:1003  contract liquidityProvider {... */\n  mstore(0x40, 0x80)\n    /* \"test.sol\":262:304  0x386A47b1f6BE9f57D86256E9D69Ebc44043bB233 */\n  0x386a47b1f6be9f57d86256e9d69ebc44043bb233\n    /* \"test.sol\":239:304  address tokenAddress = 0x386A47b1f6BE9f57D86256E9D69Ebc44043bB233 */\n  0x00\n  dup1\n  0x0100\n  exp\n  dup2\n  sload\n  dup2\n  0xffffffffffffffffffffffffffffffffffffffff\n  mul\n  not\n  and\n  swap1\n  dup4\n  0xffffffffffffffffffffffffffffffffffffffff\n  and\n  mul\n  or\n  swap1\n  sstore\n  pop\n    /* \"test.sol\":341:383  0x7a250d5630B4cF539739dF2C5dAcb4c659F2488D */\n  0x7a250d5630b4cf539739df2c5dacb4c659f2488d\n    /* \"test.sol\":310:383  address uinswapRouterAddress = 0x7a250d5630B4cF539739dF2C5dAcb4c659F2488D */\n  0x01\n  exp(0x0100, 0x00)\n  dup2\n  sload\n  dup2\n  0xffffffffffffffffffffffffffffffffffffffff\n  mul\n  not\n  and\n  swap1\n  dup4\n  0xffffffffffffffffffffffffffffffffffffffff\n  and\n  mul\n  or\n  swap1\n  sstore\n  pop\n    /* \"test.sol\":411:423  tokenAddress */\n  0x00\n  dup1\n  sload\n  swap1\n  0x0100\n  exp\n  swap1\n  div\n  0xffffffffffffffffffffffffffffffffffffffff\n  and\n    /* \"test.sol\":389:424  IERC20 Token = IERC20(tokenAddress) */\n  0x02\n  exp(0x0100, 0x00)\n  dup2\n  sload\n  dup2\n  0xffffffffffffffffffffffffffffffffffffffff\n  mul\n  not\n  and\n  swap1\n  dup4\n  0xffffffffffffffffffffffffffffffffffffffff\n  and\n  mul\n  or\n  swap1\n  sstore\n  pop\n    /* \"test.sol\":477:497  uinswapRouterAddress */\n  0x01\n  0x00\n  swap1\n  sload\n  swap1\n  0x0100\n  exp\n  swap1\n  div\n  0xffffffffffffffffffffffffffffffffffffffff\n  and\n    /* \"test.sol\":430:498  IUniswapV2Router02 Router = IUniswapV2Router02(uinswapRouterAddress) */\n  0x03\n  exp(0x0100, 0x00)\n  dup2\n  sload\n  dup2\n  0xffffffffffffffffffffffffffffffffffffffff\n  mul\n  not\n  and\n  swap1\n  dup4\n  0xffffffffffffffffffffffffffffffffffffffff\n  and\n  mul\n  or\n  swap1\n  sstore\n  pop\n    /* \"test.sol\":509:538  constructor(){... */\n  callvalue\n  dup1\n  iszero\n  tag_1\n  jumpi\n  0x00\n  dup1\n  revert\ntag_1:\n  pop\n    /* \"test.sol\":205:1003  contract liquidityProvider {... */\n  dataSize(sub_0)\n  dup1\n  dataOffset(sub_0)\n  0x00\n  codecopy\n  0x00\n  return\nstop\n\nsub_0: assembly {\n        /* \"test.sol\":205:1003  contract liquidityProvider {... */\n      mstore(0x40, 0x80)\n      jumpi(tag_1, lt(calldatasize, 0x04))\n      shr(0xe0, calldataload(0x00))\n      dup1\n      0x0eaaad9e\n      eq\n      tag_2\n      jumpi\n      dup1\n      0x167b6bc5\n      eq\n      tag_3\n      jumpi\n    tag_1:\n      0x00\n      dup1\n      revert\n        /* \"test.sol\":544:792  function provideLiquitidy  (address token,uint amountTokenDesired,uint amountTokenMin,uint amountETHMin,uint deadline) external payable{... */\n    tag_2:\n      tag_4\n      0x04\n      dup1\n      calldatasize\n      sub\n      dup2\n      add\n      swap1\n      tag_5\n      swap2\n      swap1\n      tag_6\n      jump\t// in\n    tag_5:\n      tag_7\n      jump\t// in\n    tag_4:\n      stop\n        /* \"test.sol\":798:999  function provideLiquitidy2  (uint amountTokenDesired,address to,uint deadline) external payable{... */\n    tag_3:\n      tag_8\n      0x04\n      dup1\n      calldatasize\n      sub\n      dup2\n      add\n      swap1\n      tag_9\n      swap2\n      swap1\n      tag_10\n      jump\t// in\n    tag_9:\n      tag_11\n      jump\t// in\n    tag_8:\n      stop\n        /* \"test.sol\":544:792  function provideLiquitidy  (address token,uint amountTokenDesired,uint amountTokenMin,uint amountETHMin,uint deadline) external payable{... */\n    tag_7:\n        /* \"test.sol\":689:695  Router */\n      0x03\n      0x00\n      swap1\n      sload\n      swap1\n      0x0100\n      exp\n      swap1\n      div\n      0xffffffffffffffffffffffffffffffffffffffff\n      and\n        /* \"test.sol\":689:711  Router.addLiquidityETH */\n      0xffffffffffffffffffffffffffffffffffffffff\n      and\n      0xf305d719\n        /* \"test.sol\":712:717  token */\n      dup7\n        /* \"test.sol\":718:736  amountTokenDesired */\n      dup7\n        /* \"test.sol\":737:751  amountTokenMin */\n      dup7\n        /* \"test.sol\":752:764  amountETHMin */\n      dup7\n        /* \"test.sol\":765:775  msg.sender */\n      caller\n        /* \"test.sol\":776:784  deadline */\n      dup8\n        /* \"test.sol\":689:785  Router.addLiquidityETH(token,amountTokenDesired,amountTokenMin,amountETHMin,msg.sender,deadline) */\n      mload(0x40)\n      dup8\n      0xffffffff\n      and\n      0xe0\n      shl\n      dup2\n      mstore\n      0x04\n      add\n      tag_13\n      swap7\n      swap6\n      swap5\n      swap4\n      swap3\n      swap2\n      swap1\n      tag_14\n      jump\t// in\n    tag_13:\n      0x60\n      mload(0x40)\n      dup1\n      dup4\n      sub\n      dup2\n      0x00\n      dup8\n      gas\n      call\n      iszero\n      dup1\n      iszero\n      tag_16\n      jumpi\n      returndatasize\n      0x00\n      dup1\n      returndatacopy\n      revert(0x00, returndatasize)\n    tag_16:\n      pop\n      pop\n      pop\n      pop\n      mload(0x40)\n      returndatasize\n      not(0x1f)\n      0x1f\n      dup3\n      add\n      and\n      dup3\n      add\n      dup1\n      0x40\n      mstore\n      pop\n      dup2\n      add\n      swap1\n      tag_17\n      swap2\n      swap1\n      tag_18\n      jump\t// in\n    tag_17:\n      pop\n      pop\n      pop\n        /* \"test.sol\":544:792  function provideLiquitidy  (address token,uint amountTokenDesired,uint amountTokenMin,uint amountETHMin,uint deadline) external payable{... */\n      pop\n      pop\n      pop\n      pop\n      pop\n      jump\t// out\n        /* \"test.sol\":798:999  function provideLiquitidy2  (uint amountTokenDesired,address to,uint deadline) external payable{... */\n    tag_11:\n        /* \"test.sol\":921:927  Router */\n      0x03\n      0x00\n      swap1\n      sload\n      swap1\n      0x0100\n      exp\n      swap1\n      div\n      0xffffffffffffffffffffffffffffffffffffffff\n      and\n        /* \"test.sol\":921:943  Router.addLiquidityETH */\n      0xffffffffffffffffffffffffffffffffffffffff\n      and\n      0xf305d719\n        /* \"test.sol\":944:956  tokenAddress */\n      0x00\n      dup1\n      sload\n      swap1\n      0x0100\n      exp\n      swap1\n      div\n      0xffffffffffffffffffffffffffffffffffffffff\n      and\n        /* \"test.sol\":957:975  amountTokenDesired */\n      dup6\n        /* \"test.sol\":976:977  0 */\n      0x00\n        /* \"test.sol\":978:979  0 */\n      dup1\n        /* \"test.sol\":980:982  to */\n      dup8\n        /* \"test.sol\":983:991  deadline */\n      dup8\n        /* \"test.sol\":921:992  Router.addLiquidityETH(tokenAddress,amountTokenDesired,0,0,to,deadline) */\n      mload(0x40)\n      dup8\n      0xffffffff\n      and\n      0xe0\n      shl\n      dup2\n      mstore\n      0x04\n      add\n      tag_20\n      swap7\n      swap6\n      swap5\n      swap4\n      swap3\n      swap2\n      swap1\n      tag_21\n      jump\t// in\n    tag_20:\n      0x60\n      mload(0x40)\n      dup1\n      dup4\n      sub\n      dup2\n      0x00\n      dup8\n      gas\n      call\n      iszero\n      dup1\n      iszero\n      tag_23\n      jumpi\n      returndatasize\n      0x00\n      dup1\n      returndatacopy\n      revert(0x00, returndatasize)\n    tag_23:\n      pop\n      pop\n      pop\n      pop\n      mload(0x40)\n      returndatasize\n      not(0x1f)\n      0x1f\n      dup3\n      add\n      and\n      dup3\n      add\n      dup1\n      0x40\n      mstore\n      pop\n      dup2\n      add\n      swap1\n      tag_24\n      swap2\n      swap1\n      tag_18\n      jump\t// in\n    tag_24:\n      pop\n      pop\n      pop\n        /* \"test.sol\":798:999  function provideLiquitidy2  (uint amountTokenDesired,address to,uint deadline) external payable{... */\n      pop\n      pop\n      pop\n      jump\t// out\n        /* \"#utility.yul\":88:205   */\n    tag_26:\n        /* \"#utility.yul\":197:198   */\n      0x00\n        /* \"#utility.yul\":194:195   */\n      dup1\n        /* \"#utility.yul\":187:199   */\n      revert\n        /* \"#utility.yul\":334:460   */\n    tag_28:\n        /* \"#utility.yul\":371:378   */\n      0x00\n        /* \"#utility.yul\":411:453   */\n      0xffffffffffffffffffffffffffffffffffffffff\n        /* \"#utility.yul\":404:409   */\n      dup3\n        /* \"#utility.yul\":400:454   */\n      and\n        /* \"#utility.yul\":389:454   */\n      swap1\n      pop\n        /* \"#utility.yul\":334:460   */\n      swap2\n      swap1\n      pop\n      jump\t// out\n        /* \"#utility.yul\":466:562   */\n    tag_29:\n        /* \"#utility.yul\":503:510   */\n      0x00\n        /* \"#utility.yul\":532:556   */\n      tag_48\n        /* \"#utility.yul\":550:555   */\n      dup3\n        /* \"#utility.yul\":532:556   */\n      tag_28\n      jump\t// in\n    tag_48:\n        /* \"#utility.yul\":521:556   */\n      swap1\n      pop\n        /* \"#utility.yul\":466:562   */\n      swap2\n      swap1\n      pop\n      jump\t// out\n        /* \"#utility.yul\":568:690   */\n    tag_30:\n        /* \"#utility.yul\":641:665   */\n      tag_50\n        /* \"#utility.yul\":659:664   */\n      dup2\n        /* \"#utility.yul\":641:665   */\n      tag_29\n      jump\t// in\n    tag_50:\n        /* \"#utility.yul\":634:639   */\n      dup2\n        /* \"#utility.yul\":631:666   */\n      eq\n        /* \"#utility.yul\":621:684   */\n      tag_51\n      jumpi\n        /* \"#utility.yul\":680:681   */\n      0x00\n        /* \"#utility.yul\":677:678   */\n      dup1\n        /* \"#utility.yul\":670:682   */\n      revert\n        /* \"#utility.yul\":621:684   */\n    tag_51:\n        /* \"#utility.yul\":568:690   */\n      pop\n      jump\t// out\n        /* \"#utility.yul\":696:835   */\n    tag_31:\n        /* \"#utility.yul\":742:747   */\n      0x00\n        /* \"#utility.yul\":780:786   */\n      dup2\n        /* \"#utility.yul\":767:787   */\n      calldataload\n        /* \"#utility.yul\":758:787   */\n      swap1\n      pop\n        /* \"#utility.yul\":796:829   */\n      tag_53\n        /* \"#utility.yul\":823:828   */\n      dup2\n        /* \"#utility.yul\":796:829   */\n      tag_30\n      jump\t// in\n    tag_53:\n        /* \"#utility.yul\":696:835   */\n      swap3\n      swap2\n      pop\n      pop\n      jump\t// out\n        /* \"#utility.yul\":841:918   */\n    tag_32:\n        /* \"#utility.yul\":878:885   */\n      0x00\n        /* \"#utility.yul\":907:912   */\n      dup2\n        /* \"#utility.yul\":896:912   */\n      swap1\n      pop\n        /* \"#utility.yul\":841:918   */\n      swap2\n      swap1\n      pop\n      jump\t// out\n        /* \"#utility.yul\":924:1046   */\n    tag_33:\n        /* \"#utility.yul\":997:1021   */\n      tag_56\n        /* \"#utility.yul\":1015:1020   */\n      dup2\n        /* \"#utility.yul\":997:1021   */\n      tag_32\n      jump\t// in\n    tag_56:\n        /* \"#utility.yul\":990:995   */\n      dup2\n        /* \"#utility.yul\":987:1022   */\n      eq\n        /* \"#utility.yul\":977:1040   */\n      tag_57\n      jumpi\n        /* \"#utility.yul\":1036:1037   */\n      0x00\n        /* \"#utility.yul\":1033:1034   */\n      dup1\n        /* \"#utility.yul\":1026:1038   */\n      revert\n        /* \"#utility.yul\":977:1040   */\n    tag_57:\n        /* \"#utility.yul\":924:1046   */\n      pop\n      jump\t// out\n        /* \"#utility.yul\":1052:1191   */\n    tag_34:\n        /* \"#utility.yul\":1098:1103   */\n      0x00\n        /* \"#utility.yul\":1136:1142   */\n      dup2\n        /* \"#utility.yul\":1123:1143   */\n      calldataload\n        /* \"#utility.yul\":1114:1143   */\n      swap1\n      pop\n        /* \"#utility.yul\":1152:1185   */\n      tag_59\n        /* \"#utility.yul\":1179:1184   */\n      dup2\n        /* \"#utility.yul\":1152:1185   */\n      tag_33\n      jump\t// in\n    tag_59:\n        /* \"#utility.yul\":1052:1191   */\n      swap3\n      swap2\n      pop\n      pop\n      jump\t// out\n        /* \"#utility.yul\":1197:2108   */\n    tag_6:\n        /* \"#utility.yul\":1292:1298   */\n      0x00\n        /* \"#utility.yul\":1300:1306   */\n      dup1\n        /* \"#utility.yul\":1308:1314   */\n      0x00\n        /* \"#utility.yul\":1316:1322   */\n      dup1\n        /* \"#utility.yul\":1324:1330   */\n      0x00\n        /* \"#utility.yul\":1373:1376   */\n      0xa0\n        /* \"#utility.yul\":1361:1370   */\n      dup7\n        /* \"#utility.yul\":1352:1359   */\n      dup9\n        /* \"#utility.yul\":1348:1371   */\n      sub\n        /* \"#utility.yul\":1344:1377   */\n      slt\n        /* \"#utility.yul\":1341:1461   */\n      iszero\n      tag_61\n      jumpi\n        /* \"#utility.yul\":1380:1459   */\n      tag_62\n      tag_26\n      jump\t// in\n    tag_62:\n        /* \"#utility.yul\":1341:1461   */\n    tag_61:\n        /* \"#utility.yul\":1500:1501   */\n      0x00\n        /* \"#utility.yul\":1525:1578   */\n      tag_63\n        /* \"#utility.yul\":1570:1577   */\n      dup9\n        /* \"#utility.yul\":1561:1567   */\n      dup3\n        /* \"#utility.yul\":1550:1559   */\n      dup10\n        /* \"#utility.yul\":1546:1568   */\n      add\n        /* \"#utility.yul\":1525:1578   */\n      tag_31\n      jump\t// in\n    tag_63:\n        /* \"#utility.yul\":1515:1578   */\n      swap6\n      pop\n        /* \"#utility.yul\":1471:1588   */\n      pop\n        /* \"#utility.yul\":1627:1629   */\n      0x20\n        /* \"#utility.yul\":1653:1706   */\n      tag_64\n        /* \"#utility.yul\":1698:1705   */\n      dup9\n        /* \"#utility.yul\":1689:1695   */\n      dup3\n        /* \"#utility.yul\":1678:1687   */\n      dup10\n        /* \"#utility.yul\":1674:1696   */\n      add\n        /* \"#utility.yul\":1653:1706   */\n      tag_34\n      jump\t// in\n    tag_64:\n        /* \"#utility.yul\":1643:1706   */\n      swap5\n      pop\n        /* \"#utility.yul\":1598:1716   */\n      pop\n        /* \"#utility.yul\":1755:1757   */\n      0x40\n        /* \"#utility.yul\":1781:1834   */\n      tag_65\n        /* \"#utility.yul\":1826:1833   */\n      dup9\n        /* \"#utility.yul\":1817:1823   */\n      dup3\n        /* \"#utility.yul\":1806:1815   */\n      dup10\n        /* \"#utility.yul\":1802:1824   */\n      add\n        /* \"#utility.yul\":1781:1834   */\n      tag_34\n      jump\t// in\n    tag_65:\n        /* \"#utility.yul\":1771:1834   */\n      swap4\n      pop\n        /* \"#utility.yul\":1726:1844   */\n      pop\n        /* \"#utility.yul\":1883:1885   */\n      0x60\n        /* \"#utility.yul\":1909:1962   */\n      tag_66\n        /* \"#utility.yul\":1954:1961   */\n      dup9\n        /* \"#utility.yul\":1945:1951   */\n      dup3\n        /* \"#utility.yul\":1934:1943   */\n      dup10\n        /* \"#utility.yul\":1930:1952   */\n      add\n        /* \"#utility.yul\":1909:1962   */\n      tag_34\n      jump\t// in\n    tag_66:\n        /* \"#utility.yul\":1899:1962   */\n      swap3\n      pop\n        /* \"#utility.yul\":1854:1972   */\n      pop\n        /* \"#utility.yul\":2011:2014   */\n      0x80\n        /* \"#utility.yul\":2038:2091   */\n      tag_67\n        /* \"#utility.yul\":2083:2090   */\n      dup9\n        /* \"#utility.yul\":2074:2080   */\n      dup3\n        /* \"#utility.yul\":2063:2072   */\n      dup10\n        /* \"#utility.yul\":2059:2081   */\n      add\n        /* \"#utility.yul\":2038:2091   */\n      tag_34\n      jump\t// in\n    tag_67:\n        /* \"#utility.yul\":2028:2091   */\n      swap2\n      pop\n        /* \"#utility.yul\":1982:2101   */\n      pop\n        /* \"#utility.yul\":1197:2108   */\n      swap3\n      swap6\n      pop\n      swap3\n      swap6\n      swap1\n      swap4\n      pop\n      jump\t// out\n        /* \"#utility.yul\":2114:2733   */\n    tag_10:\n        /* \"#utility.yul\":2191:2197   */\n      0x00\n        /* \"#utility.yul\":2199:2205   */\n      dup1\n        /* \"#utility.yul\":2207:2213   */\n      0x00\n        /* \"#utility.yul\":2256:2258   */\n      0x60\n        /* \"#utility.yul\":2244:2253   */\n      dup5\n        /* \"#utility.yul\":2235:2242   */\n      dup7\n        /* \"#utility.yul\":2231:2254   */\n      sub\n        /* \"#utility.yul\":2227:2259   */\n      slt\n        /* \"#utility.yul\":2224:2343   */\n      iszero\n      tag_69\n      jumpi\n        /* \"#utility.yul\":2262:2341   */\n      tag_70\n      tag_26\n      jump\t// in\n    tag_70:\n        /* \"#utility.yul\":2224:2343   */\n    tag_69:\n        /* \"#utility.yul\":2382:2383   */\n      0x00\n        /* \"#utility.yul\":2407:2460   */\n      tag_71\n        /* \"#utility.yul\":2452:2459   */\n      dup7\n        /* \"#utility.yul\":2443:2449   */\n      dup3\n        /* \"#utility.yul\":2432:2441   */\n      dup8\n        /* \"#utility.yul\":2428:2450   */\n      add\n        /* \"#utility.yul\":2407:2460   */\n      tag_34\n      jump\t// in\n    tag_71:\n        /* \"#utility.yul\":2397:2460   */\n      swap4\n      pop\n        /* \"#utility.yul\":2353:2470   */\n      pop\n        /* \"#utility.yul\":2509:2511   */\n      0x20\n        /* \"#utility.yul\":2535:2588   */\n      tag_72\n        /* \"#utility.yul\":2580:2587   */\n      dup7\n        /* \"#utility.yul\":2571:2577   */\n      dup3\n        /* \"#utility.yul\":2560:2569   */\n      dup8\n        /* \"#utility.yul\":2556:2578   */\n      add\n        /* \"#utility.yul\":2535:2588   */\n      tag_31\n      jump\t// in\n    tag_72:\n        /* \"#utility.yul\":2525:2588   */\n      swap3\n      pop\n        /* \"#utility.yul\":2480:2598   */\n      pop\n        /* \"#utility.yul\":2637:2639   */\n      0x40\n        /* \"#utility.yul\":2663:2716   */\n      tag_73\n        /* \"#utility.yul\":2708:2715   */\n      dup7\n        /* \"#utility.yul\":2699:2705   */\n      dup3\n        /* \"#utility.yul\":2688:2697   */\n      dup8\n        /* \"#utility.yul\":2684:2706   */\n      add\n        /* \"#utility.yul\":2663:2716   */\n      tag_34\n      jump\t// in\n    tag_73:\n        /* \"#utility.yul\":2653:2716   */\n      swap2\n      pop\n        /* \"#utility.yul\":2608:2726   */\n      pop\n        /* \"#utility.yul\":2114:2733   */\n      swap3\n      pop\n      swap3\n      pop\n      swap3\n      jump\t// out\n        /* \"#utility.yul\":2739:2857   */\n    tag_35:\n        /* \"#utility.yul\":2826:2850   */\n      tag_75\n        /* \"#utility.yul\":2844:2849   */\n      dup2\n        /* \"#utility.yul\":2826:2850   */\n      tag_29\n      jump\t// in\n    tag_75:\n        /* \"#utility.yul\":2821:2824   */\n      dup3\n        /* \"#utility.yul\":2814:2851   */\n      mstore\n        /* \"#utility.yul\":2739:2857   */\n      pop\n      pop\n      jump\t// out\n        /* \"#utility.yul\":2863:2981   */\n    tag_36:\n        /* \"#utility.yul\":2950:2974   */\n      tag_77\n        /* \"#utility.yul\":2968:2973   */\n      dup2\n        /* \"#utility.yul\":2950:2974   */\n      tag_32\n      jump\t// in\n    tag_77:\n        /* \"#utility.yul\":2945:2948   */\n      dup3\n        /* \"#utility.yul\":2938:2975   */\n      mstore\n        /* \"#utility.yul\":2863:2981   */\n      pop\n      pop\n      jump\t// out\n        /* \"#utility.yul\":2987:3762   */\n    tag_14:\n        /* \"#utility.yul\":3220:3224   */\n      0x00\n        /* \"#utility.yul\":3258:3261   */\n      0xc0\n        /* \"#utility.yul\":3247:3256   */\n      dup3\n        /* \"#utility.yul\":3243:3262   */\n      add\n        /* \"#utility.yul\":3235:3262   */\n      swap1\n      pop\n        /* \"#utility.yul\":3272:3343   */\n      tag_79\n        /* \"#utility.yul\":3340:3341   */\n      0x00\n        /* \"#utility.yul\":3329:3338   */\n      dup4\n        /* \"#utility.yul\":3325:3342   */\n      add\n        /* \"#utility.yul\":3316:3322   */\n      dup10\n        /* \"#utility.yul\":3272:3343   */\n      tag_35\n      jump\t// in\n    tag_79:\n        /* \"#utility.yul\":3353:3425   */\n      tag_80\n        /* \"#utility.yul\":3421:3423   */\n      0x20\n        /* \"#utility.yul\":3410:3419   */\n      dup4\n        /* \"#utility.yul\":3406:3424   */\n      add\n        /* \"#utility.yul\":3397:3403   */\n      dup9\n        /* \"#utility.yul\":3353:3425   */\n      tag_36\n      jump\t// in\n    tag_80:\n        /* \"#utility.yul\":3435:3507   */\n      tag_81\n        /* \"#utility.yul\":3503:3505   */\n      0x40\n        /* \"#utility.yul\":3492:3501   */\n      dup4\n        /* \"#utility.yul\":3488:3506   */\n      add\n        /* \"#utility.yul\":3479:3485   */\n      dup8\n        /* \"#utility.yul\":3435:3507   */\n      tag_36\n      jump\t// in\n    tag_81:\n        /* \"#utility.yul\":3517:3589   */\n      tag_82\n        /* \"#utility.yul\":3585:3587   */\n      0x60\n        /* \"#utility.yul\":3574:3583   */\n      dup4\n        /* \"#utility.yul\":3570:3588   */\n      add\n        /* \"#utility.yul\":3561:3567   */\n      dup7\n        /* \"#utility.yul\":3517:3589   */\n      tag_36\n      jump\t// in\n    tag_82:\n        /* \"#utility.yul\":3599:3672   */\n      tag_83\n        /* \"#utility.yul\":3667:3670   */\n      0x80\n        /* \"#utility.yul\":3656:3665   */\n      dup4\n        /* \"#utility.yul\":3652:3671   */\n      add\n        /* \"#utility.yul\":3643:3649   */\n      dup6\n        /* \"#utility.yul\":3599:3672   */\n      tag_35\n      jump\t// in\n    tag_83:\n        /* \"#utility.yul\":3682:3755   */\n      tag_84\n        /* \"#utility.yul\":3750:3753   */\n      0xa0\n        /* \"#utility.yul\":3739:3748   */\n      dup4\n        /* \"#utility.yul\":3735:3754   */\n      add\n        /* \"#utility.yul\":3726:3732   */\n      dup5\n        /* \"#utility.yul\":3682:3755   */\n      tag_36\n      jump\t// in\n    tag_84:\n        /* \"#utility.yul\":2987:3762   */\n      swap8\n      swap7\n      pop\n      pop\n      pop\n      pop\n      pop\n      pop\n      pop\n      jump\t// out\n        /* \"#utility.yul\":3768:3911   */\n    tag_37:\n        /* \"#utility.yul\":3825:3830   */\n      0x00\n        /* \"#utility.yul\":3856:3862   */\n      dup2\n        /* \"#utility.yul\":3850:3863   */\n      mload\n        /* \"#utility.yul\":3841:3863   */\n      swap1\n      pop\n        /* \"#utility.yul\":3872:3905   */\n      tag_86\n        /* \"#utility.yul\":3899:3904   */\n      dup2\n        /* \"#utility.yul\":3872:3905   */\n      tag_33\n      jump\t// in\n    tag_86:\n        /* \"#utility.yul\":3768:3911   */\n      swap3\n      swap2\n      pop\n      pop\n      jump\t// out\n        /* \"#utility.yul\":3917:4580   */\n    tag_18:\n        /* \"#utility.yul\":4005:4011   */\n      0x00\n        /* \"#utility.yul\":4013:4019   */\n      dup1\n        /* \"#utility.yul\":4021:4027   */\n      0x00\n        /* \"#utility.yul\":4070:4072   */\n      0x60\n        /* \"#utility.yul\":4058:4067   */\n      dup5\n        /* \"#utility.yul\":4049:4056   */\n      dup7\n        /* \"#utility.yul\":4045:4068   */\n      sub\n        /* \"#utility.yul\":4041:4073   */\n      slt\n        /* \"#utility.yul\":4038:4157   */\n      iszero\n      tag_88\n      jumpi\n        /* \"#utility.yul\":4076:4155   */\n      tag_89\n      tag_26\n      jump\t// in\n    tag_89:\n        /* \"#utility.yul\":4038:4157   */\n    tag_88:\n        /* \"#utility.yul\":4196:4197   */\n      0x00\n        /* \"#utility.yul\":4221:4285   */\n      tag_90\n        /* \"#utility.yul\":4277:4284   */\n      dup7\n        /* \"#utility.yul\":4268:4274   */\n      dup3\n        /* \"#utility.yul\":4257:4266   */\n      dup8\n        /* \"#utility.yul\":4253:4275   */\n      add\n        /* \"#utility.yul\":4221:4285   */\n      tag_37\n      jump\t// in\n    tag_90:\n        /* \"#utility.yul\":4211:4285   */\n      swap4\n      pop\n        /* \"#utility.yul\":4167:4295   */\n      pop\n        /* \"#utility.yul\":4334:4336   */\n      0x20\n        /* \"#utility.yul\":4360:4424   */\n      tag_91\n        /* \"#utility.yul\":4416:4423   */\n      dup7\n        /* \"#utility.yul\":4407:4413   */\n      dup3\n        /* \"#utility.yul\":4396:4405   */\n      dup8\n        /* \"#utility.yul\":4392:4414   */\n      add\n        /* \"#utility.yul\":4360:4424   */\n      tag_37\n      jump\t// in\n    tag_91:\n        /* \"#utility.yul\":4350:4424   */\n      swap3\n      pop\n        /* \"#utility.yul\":4305:4434   */\n      pop\n        /* \"#utility.yul\":4473:4475   */\n      0x40\n        /* \"#utility.yul\":4499:4563   */\n      tag_92\n        /* \"#utility.yul\":4555:4562   */\n      dup7\n        /* \"#utility.yul\":4546:4552   */\n      dup3\n        /* \"#utility.yul\":4535:4544   */\n      dup8\n        /* \"#utility.yul\":4531:4553   */\n      add\n        /* \"#utility.yul\":4499:4563   */\n      tag_37\n      jump\t// in\n    tag_92:\n        /* \"#utility.yul\":4489:4563   */\n      swap2\n      pop\n        /* \"#utility.yul\":4444:4573   */\n      pop\n        /* \"#utility.yul\":3917:4580   */\n      swap3\n      pop\n      swap3\n      pop\n      swap3\n      jump\t// out\n        /* \"#utility.yul\":4586:4671   */\n    tag_38:\n        /* \"#utility.yul\":4631:4638   */\n      0x00\n        /* \"#utility.yul\":4660:4665   */\n      dup2\n        /* \"#utility.yul\":4649:4665   */\n      swap1\n      pop\n        /* \"#utility.yul\":4586:4671   */\n      swap2\n      swap1\n      pop\n      jump\t// out\n        /* \"#utility.yul\":4677:4737   */\n    tag_39:\n        /* \"#utility.yul\":4705:4708   */\n      0x00\n        /* \"#utility.yul\":4726:4731   */\n      dup2\n        /* \"#utility.yul\":4719:4731   */\n      swap1\n      pop\n        /* \"#utility.yul\":4677:4737   */\n      swap2\n      swap1\n      pop\n      jump\t// out\n        /* \"#utility.yul\":4743:4901   */\n    tag_40:\n        /* \"#utility.yul\":4801:4810   */\n      0x00\n        /* \"#utility.yul\":4834:4895   */\n      tag_96\n        /* \"#utility.yul\":4852:4894   */\n      tag_97\n        /* \"#utility.yul\":4861:4893   */\n      tag_98\n        /* \"#utility.yul\":4887:4892   */\n      dup5\n        /* \"#utility.yul\":4861:4893   */\n      tag_38\n      jump\t// in\n    tag_98:\n        /* \"#utility.yul\":4852:4894   */\n      tag_39\n      jump\t// in\n    tag_97:\n        /* \"#utility.yul\":4834:4895   */\n      tag_32\n      jump\t// in\n    tag_96:\n        /* \"#utility.yul\":4821:4895   */\n      swap1\n      pop\n        /* \"#utility.yul\":4743:4901   */\n      swap2\n      swap1\n      pop\n      jump\t// out\n        /* \"#utility.yul\":4907:5054   */\n    tag_41:\n        /* \"#utility.yul\":5002:5047   */\n      tag_100\n        /* \"#utility.yul\":5041:5046   */\n      dup2\n        /* \"#utility.yul\":5002:5047   */\n      tag_40\n      jump\t// in\n    tag_100:\n        /* \"#utility.yul\":4997:5000   */\n      dup3\n        /* \"#utility.yul\":4990:5048   */\n      mstore\n        /* \"#utility.yul\":4907:5054   */\n      pop\n      pop\n      jump\t// out\n        /* \"#utility.yul\":5060:5867   */\n    tag_21:\n        /* \"#utility.yul\":5309:5313   */\n      0x00\n        /* \"#utility.yul\":5347:5350   */\n      0xc0\n        /* \"#utility.yul\":5336:5345   */\n      dup3\n        /* \"#utility.yul\":5332:5351   */\n      add\n        /* \"#utility.yul\":5324:5351   */\n      swap1\n      pop\n        /* \"#utility.yul\":5361:5432   */\n      tag_102\n        /* \"#utility.yul\":5429:5430   */\n      0x00\n        /* \"#utility.yul\":5418:5427   */\n      dup4\n        /* \"#utility.yul\":5414:5431   */\n      add\n        /* \"#utility.yul\":5405:5411   */\n      dup10\n        /* \"#utility.yul\":5361:5432   */\n      tag_35\n      jump\t// in\n    tag_102:\n        /* \"#utility.yul\":5442:5514   */\n      tag_103\n        /* \"#utility.yul\":5510:5512   */\n      0x20\n        /* \"#utility.yul\":5499:5508   */\n      dup4\n        /* \"#utility.yul\":5495:5513   */\n      add\n        /* \"#utility.yul\":5486:5492   */\n      dup9\n        /* \"#utility.yul\":5442:5514   */\n      tag_36\n      jump\t// in\n    tag_103:\n        /* \"#utility.yul\":5524:5604   */\n      tag_104\n        /* \"#utility.yul\":5600:5602   */\n      0x40\n        /* \"#utility.yul\":5589:5598   */\n      dup4\n        /* \"#utility.yul\":5585:5603   */\n      add\n        /* \"#utility.yul\":5576:5582   */\n      dup8\n        /* \"#utility.yul\":5524:5604   */\n      tag_41\n      jump\t// in\n    tag_104:\n        /* \"#utility.yul\":5614:5694   */\n      tag_105\n        /* \"#utility.yul\":5690:5692   */\n      0x60\n        /* \"#utility.yul\":5679:5688   */\n      dup4\n        /* \"#utility.yul\":5675:5693   */\n      add\n        /* \"#utility.yul\":5666:5672   */\n      dup7\n        /* \"#utility.yul\":5614:5694   */\n      tag_41\n      jump\t// in\n    tag_105:\n        /* \"#utility.yul\":5704:5777   */\n      tag_106\n        /* \"#utility.yul\":5772:5775   */\n      0x80\n        /* \"#utility.yul\":5761:5770   */\n      dup4\n        /* \"#utility.yul\":5757:5776   */\n      add\n        /* \"#utility.yul\":5748:5754   */\n      dup6\n        /* \"#utility.yul\":5704:5777   */\n      tag_35\n      jump\t// in\n    tag_106:\n        /* \"#utility.yul\":5787:5860   */\n      tag_107\n        /* \"#utility.yul\":5855:5858   */\n      0xa0\n        /* \"#utility.yul\":5844:5853   */\n      dup4\n        /* \"#utility.yul\":5840:5859   */\n      add\n        /* \"#utility.yul\":5831:5837   */\n      dup5\n        /* \"#utility.yul\":5787:5860   */\n      tag_36\n      jump\t// in\n    tag_107:\n        /* \"#utility.yul\":5060:5867   */\n      swap8\n      swap7\n      pop\n      pop\n      pop\n      pop\n      pop\n      pop\n      pop\n      jump\t// out\n\n    auxdata: 0xa2646970667358221220d44823886a7160e33da414969f21dd68dfd8101f7f45208a7306c0c7eb9d4c7164736f6c63430008110033\n}\n",
				"bytecode": {
					"linkReferences": {},
					"object": "608060405273386a47b1f6be9f57d86256e9d69ebc44043bb2336000806101000a81548173ffffffffffffffffffffffffffffffffffffffff021916908373ffffffffffffffffffffffffffffffffffffffff160217905550737a250d5630b4cf539739df2c5dacb4c659f2488d600160006101000a81548173ffffffffffffffffffffffffffffffffffffffff021916908373ffffffffffffffffffffffffffffffffffffffff16021790555060008054906101000a900473ffffffffffffffffffffffffffffffffffffffff16600260006101000a81548173ffffffffffffffffffffffffffffffffffffffff021916908373ffffffffffffffffffffffffffffffffffffffff160217905550600160009054906101000a900473ffffffffffffffffffffffffffffffffffffffff16600360006101000a81548173ffffffffffffffffffffffffffffffffffffffff021916908373ffffffffffffffffffffffffffffffffffffffff16021790555034801561017d57600080fd5b506105138061018d6000396000f3fe6080604052600436106100295760003560e01c80630eaaad9e1461002e578063167b6bc51461004a575b600080fd5b61004860048036038101906100439190610282565b610066565b005b610064600480360381019061005f91906102fd565b610118565b005b600360009054906101000a900473ffffffffffffffffffffffffffffffffffffffff1673ffffffffffffffffffffffffffffffffffffffff1663f305d7198686868633876040518763ffffffff1660e01b81526004016100cb9695949392919061036e565b6060604051808303816000875af11580156100ea573d6000803e3d6000fd5b505050506040513d601f19601f8201168201806040525081019061010e91906103e4565b5050505050505050565b600360009054906101000a900473ffffffffffffffffffffffffffffffffffffffff1673ffffffffffffffffffffffffffffffffffffffff1663f305d71960008054906101000a900473ffffffffffffffffffffffffffffffffffffffff168560008087876040518763ffffffff1660e01b815260040161019e9695949392919061047c565b6060604051808303816000875af11580156101bd573d6000803e3d6000fd5b505050506040513d601f19601f820116820180604052508101906101e191906103e4565b505050505050565b600080fd5b600073ffffffffffffffffffffffffffffffffffffffff82169050919050565b6000610219826101ee565b9050919050565b6102298161020e565b811461023457600080fd5b50565b60008135905061024681610220565b92915050565b6000819050919050565b61025f8161024c565b811461026a57600080fd5b50565b60008135905061027c81610256565b92915050565b600080600080600060a0868803121561029e5761029d6101e9565b5b60006102ac88828901610237565b95505060206102bd8882890161026d565b94505060406102ce8882890161026d565b93505060606102df8882890161026d565b92505060806102f08882890161026d565b9150509295509295909350565b600080600060608486031215610316576103156101e9565b5b60006103248682870161026d565b935050602061033586828701610237565b92505060406103468682870161026d565b9150509250925092565b6103598161020e565b82525050565b6103688161024c565b82525050565b600060c0820190506103836000830189610350565b610390602083018861035f565b61039d604083018761035f565b6103aa606083018661035f565b6103b76080830185610350565b6103c460a083018461035f565b979650505050505050565b6000815190506103de81610256565b92915050565b6000806000606084860312156103fd576103fc6101e9565b5b600061040b868287016103cf565b935050602061041c868287016103cf565b925050604061042d868287016103cf565b9150509250925092565b6000819050919050565b6000819050919050565b600061046661046161045c84610437565b610441565b61024c565b9050919050565b6104768161044b565b82525050565b600060c0820190506104916000830189610350565b61049e602083018861035f565b6104ab604083018761046d565b6104b8606083018661046d565b6104c56080830185610350565b6104d260a083018461035f565b97965050505050505056fea2646970667358221220d44823886a7160e33da414969f21dd68dfd8101f7f45208a7306c0c7eb9d4c7164736f6c63430008110033",
					"opcodes": "PUSH1 0x80 PUSH1 0x40 MSTORE PUSH20 0x386A47B1F6BE9F57D86256E9D69EBC44043BB233 PUSH1 0x0 DUP1 PUSH2 0x100 EXP DUP2 SLOAD DUP2 PUSH20 0xFFFFFFFFFFFFFFFFFFFFFFFFFFFFFFFFFFFFFFFF MUL NOT AND SWAP1 DUP4 PUSH20 0xFFFFFFFFFFFFFFFFFFFFFFFFFFFFFFFFFFFFFFFF AND MUL OR SWAP1 SSTORE POP PUSH20 0x7A250D5630B4CF539739DF2C5DACB4C659F2488D PUSH1 0x1 PUSH1 0x0 PUSH2 0x100 EXP DUP2 SLOAD DUP2 PUSH20 0xFFFFFFFFFFFFFFFFFFFFFFFFFFFFFFFFFFFFFFFF MUL NOT AND SWAP1 DUP4 PUSH20 0xFFFFFFFFFFFFFFFFFFFFFFFFFFFFFFFFFFFFFFFF AND MUL OR SWAP1 SSTORE POP PUSH1 0x0 DUP1 SLOAD SWAP1 PUSH2 0x100 EXP SWAP1 DIV PUSH20 0xFFFFFFFFFFFFFFFFFFFFFFFFFFFFFFFFFFFFFFFF AND PUSH1 0x2 PUSH1 0x0 PUSH2 0x100 EXP DUP2 SLOAD DUP2 PUSH20 0xFFFFFFFFFFFFFFFFFFFFFFFFFFFFFFFFFFFFFFFF MUL NOT AND SWAP1 DUP4 PUSH20 0xFFFFFFFFFFFFFFFFFFFFFFFFFFFFFFFFFFFFFFFF AND MUL OR SWAP1 SSTORE POP PUSH1 0x1 PUSH1 0x0 SWAP1 SLOAD SWAP1 PUSH2 0x100 EXP SWAP1 DIV PUSH20 0xFFFFFFFFFFFFFFFFFFFFFFFFFFFFFFFFFFFFFFFF AND PUSH1 0x3 PUSH1 0x0 PUSH2 0x100 EXP DUP2 SLOAD DUP2 PUSH20 0xFFFFFFFFFFFFFFFFFFFFFFFFFFFFFFFFFFFFFFFF MUL NOT AND SWAP1 DUP4 PUSH20 0xFFFFFFFFFFFFFFFFFFFFFFFFFFFFFFFFFFFFFFFF AND MUL OR SWAP1 SSTORE POP CALLVALUE DUP1 ISZERO PUSH2 0x17D JUMPI PUSH1 0x0 DUP1 REVERT JUMPDEST POP PUSH2 0x513 DUP1 PUSH2 0x18D PUSH1 0x0 CODECOPY PUSH1 0x0 RETURN INVALID PUSH1 0x80 PUSH1 0x40 MSTORE PUSH1 0x4 CALLDATASIZE LT PUSH2 0x29 JUMPI PUSH1 0x0 CALLDATALOAD PUSH1 0xE0 SHR DUP1 PUSH4 0xEAAAD9E EQ PUSH2 0x2E JUMPI DUP1 PUSH4 0x167B6BC5 EQ PUSH2 0x4A JUMPI JUMPDEST PUSH1 0x0 DUP1 REVERT JUMPDEST PUSH2 0x48 PUSH1 0x4 DUP1 CALLDATASIZE SUB DUP2 ADD SWAP1 PUSH2 0x43 SWAP2 SWAP1 PUSH2 0x282 JUMP JUMPDEST PUSH2 0x66 JUMP JUMPDEST STOP JUMPDEST PUSH2 0x64 PUSH1 0x4 DUP1 CALLDATASIZE SUB DUP2 ADD SWAP1 PUSH2 0x5F SWAP2 SWAP1 PUSH2 0x2FD JUMP JUMPDEST PUSH2 0x118 JUMP JUMPDEST STOP JUMPDEST PUSH1 0x3 PUSH1 0x0 SWAP1 SLOAD SWAP1 PUSH2 0x100 EXP SWAP1 DIV PUSH20 0xFFFFFFFFFFFFFFFFFFFFFFFFFFFFFFFFFFFFFFFF AND PUSH20 0xFFFFFFFFFFFFFFFFFFFFFFFFFFFFFFFFFFFFFFFF AND PUSH4 0xF305D719 DUP7 DUP7 DUP7 DUP7 CALLER DUP8 PUSH1 0x40 MLOAD DUP8 PUSH4 0xFFFFFFFF AND PUSH1 0xE0 SHL DUP2 MSTORE PUSH1 0x4 ADD PUSH2 0xCB SWAP7 SWAP6 SWAP5 SWAP4 SWAP3 SWAP2 SWAP1 PUSH2 0x36E JUMP JUMPDEST PUSH1 0x60 PUSH1 0x40 MLOAD DUP1 DUP4 SUB DUP2 PUSH1 0x0 DUP8 GAS CALL ISZERO DUP1 ISZERO PUSH2 0xEA JUMPI RETURNDATASIZE PUSH1 0x0 DUP1 RETURNDATACOPY RETURNDATASIZE PUSH1 0x0 REVERT JUMPDEST POP POP POP POP PUSH1 0x40 MLOAD RETURNDATASIZE PUSH1 0x1F NOT PUSH1 0x1F DUP3 ADD AND DUP3 ADD DUP1 PUSH1 0x40 MSTORE POP DUP2 ADD SWAP1 PUSH2 0x10E SWAP2 SWAP1 PUSH2 0x3E4 JUMP JUMPDEST POP POP POP POP POP POP POP POP JUMP JUMPDEST PUSH1 0x3 PUSH1 0x0 SWAP1 SLOAD SWAP1 PUSH2 0x100 EXP SWAP1 DIV PUSH20 0xFFFFFFFFFFFFFFFFFFFFFFFFFFFFFFFFFFFFFFFF AND PUSH20 0xFFFFFFFFFFFFFFFFFFFFFFFFFFFFFFFFFFFFFFFF AND PUSH4 0xF305D719 PUSH1 0x0 DUP1 SLOAD SWAP1 PUSH2 0x100 EXP SWAP1 DIV PUSH20 0xFFFFFFFFFFFFFFFFFFFFFFFFFFFFFFFFFFFFFFFF AND DUP6 PUSH1 0x0 DUP1 DUP8 DUP8 PUSH1 0x40 MLOAD DUP8 PUSH4 0xFFFFFFFF AND PUSH1 0xE0 SHL DUP2 MSTORE PUSH1 0x4 ADD PUSH2 0x19E SWAP7 SWAP6 SWAP5 SWAP4 SWAP3 SWAP2 SWAP1 PUSH2 0x47C JUMP JUMPDEST PUSH1 0x60 PUSH1 0x40 MLOAD DUP1 DUP4 SUB DUP2 PUSH1 0x0 DUP8 GAS CALL ISZERO DUP1 ISZERO PUSH2 0x1BD JUMPI RETURNDATASIZE PUSH1 0x0 DUP1 RETURNDATACOPY RETURNDATASIZE PUSH1 0x0 REVERT JUMPDEST POP POP POP POP PUSH1 0x40 MLOAD RETURNDATASIZE PUSH1 0x1F NOT PUSH1 0x1F DUP3 ADD AND DUP3 ADD DUP1 PUSH1 0x40 MSTORE POP DUP2 ADD SWAP1 PUSH2 0x1E1 SWAP2 SWAP1 PUSH2 0x3E4 JUMP JUMPDEST POP POP POP POP POP POP JUMP JUMPDEST PUSH1 0x0 DUP1 REVERT JUMPDEST PUSH1 0x0 PUSH20 0xFFFFFFFFFFFFFFFFFFFFFFFFFFFFFFFFFFFFFFFF DUP3 AND SWAP1 POP SWAP2 SWAP1 POP JUMP JUMPDEST PUSH1 0x0 PUSH2 0x219 DUP3 PUSH2 0x1EE JUMP JUMPDEST SWAP1 POP SWAP2 SWAP1 POP JUMP JUMPDEST PUSH2 0x229 DUP2 PUSH2 0x20E JUMP JUMPDEST DUP2 EQ PUSH2 0x234 JUMPI PUSH1 0x0 DUP1 REVERT JUMPDEST POP JUMP JUMPDEST PUSH1 0x0 DUP2 CALLDATALOAD SWAP1 POP PUSH2 0x246 DUP2 PUSH2 0x220 JUMP JUMPDEST SWAP3 SWAP2 POP POP JUMP JUMPDEST PUSH1 0x0 DUP2 SWAP1 POP SWAP2 SWAP1 POP JUMP JUMPDEST PUSH2 0x25F DUP2 PUSH2 0x24C JUMP JUMPDEST DUP2 EQ PUSH2 0x26A JUMPI PUSH1 0x0 DUP1 REVERT JUMPDEST POP JUMP JUMPDEST PUSH1 0x0 DUP2 CALLDATALOAD SWAP1 POP PUSH2 0x27C DUP2 PUSH2 0x256 JUMP JUMPDEST SWAP3 SWAP2 POP POP JUMP JUMPDEST PUSH1 0x0 DUP1 PUSH1 0x0 DUP1 PUSH1 0x0 PUSH1 0xA0 DUP7 DUP9 SUB SLT ISZERO PUSH2 0x29E JUMPI PUSH2 0x29D PUSH2 0x1E9 JUMP JUMPDEST JUMPDEST PUSH1 0x0 PUSH2 0x2AC DUP9 DUP3 DUP10 ADD PUSH2 0x237 JUMP JUMPDEST SWAP6 POP POP PUSH1 0x20 PUSH2 0x2BD DUP9 DUP3 DUP10 ADD PUSH2 0x26D JUMP JUMPDEST SWAP5 POP POP PUSH1 0x40 PUSH2 0x2CE DUP9 DUP3 DUP10 ADD PUSH2 0x26D JUMP JUMPDEST SWAP4 POP POP PUSH1 0x60 PUSH2 0x2DF DUP9 DUP3 DUP10 ADD PUSH2 0x26D JUMP JUMPDEST SWAP3 POP POP PUSH1 0x80 PUSH2 0x2F0 DUP9 DUP3 DUP10 ADD PUSH2 0x26D JUMP JUMPDEST SWAP2 POP POP SWAP3 SWAP6 POP SWAP3 SWAP6 SWAP1 SWAP4 POP JUMP JUMPDEST PUSH1 0x0 DUP1 PUSH1 0x0 PUSH1 0x60 DUP5 DUP7 SUB SLT ISZERO PUSH2 0x316 JUMPI PUSH2 0x315 PUSH2 0x1E9 JUMP JUMPDEST JUMPDEST PUSH1 0x0 PUSH2 0x324 DUP7 DUP3 DUP8 ADD PUSH2 0x26D JUMP JUMPDEST SWAP4 POP POP PUSH1 0x20 PUSH2 0x335 DUP7 DUP3 DUP8 ADD PUSH2 0x237 JUMP JUMPDEST SWAP3 POP POP PUSH1 0x40 PUSH2 0x346 DUP7 DUP3 DUP8 ADD PUSH2 0x26D JUMP JUMPDEST SWAP2 POP POP SWAP3 POP SWAP3 POP SWAP3 JUMP JUMPDEST PUSH2 0x359 DUP2 PUSH2 0x20E JUMP JUMPDEST DUP3 MSTORE POP POP JUMP JUMPDEST PUSH2 0x368 DUP2 PUSH2 0x24C JUMP JUMPDEST DUP3 MSTORE POP POP JUMP JUMPDEST PUSH1 0x0 PUSH1 0xC0 DUP3 ADD SWAP1 POP PUSH2 0x383 PUSH1 0x0 DUP4 ADD DUP10 PUSH2 0x350 JUMP JUMPDEST PUSH2 0x390 PUSH1 0x20 DUP4 ADD DUP9 PUSH2 0x35F JUMP JUMPDEST PUSH2 0x39D PUSH1 0x40 DUP4 ADD DUP8 PUSH2 0x35F JUMP JUMPDEST PUSH2 0x3AA PUSH1 0x60 DUP4 ADD DUP7 PUSH2 0x35F JUMP JUMPDEST PUSH2 0x3B7 PUSH1 0x80 DUP4 ADD DUP6 PUSH2 0x350 JUMP JUMPDEST PUSH2 0x3C4 PUSH1 0xA0 DUP4 ADD DUP5 PUSH2 0x35F JUMP JUMPDEST SWAP8 SWAP7 POP POP POP POP POP POP POP JUMP JUMPDEST PUSH1 0x0 DUP2 MLOAD SWAP1 POP PUSH2 0x3DE DUP2 PUSH2 0x256 JUMP JUMPDEST SWAP3 SWAP2 POP POP JUMP JUMPDEST PUSH1 0x0 DUP1 PUSH1 0x0 PUSH1 0x60 DUP5 DUP7 SUB SLT ISZERO PUSH2 0x3FD JUMPI PUSH2 0x3FC PUSH2 0x1E9 JUMP JUMPDEST JUMPDEST PUSH1 0x0 PUSH2 0x40B DUP7 DUP3 DUP8 ADD PUSH2 0x3CF JUMP JUMPDEST SWAP4 POP POP PUSH1 0x20 PUSH2 0x41C DUP7 DUP3 DUP8 ADD PUSH2 0x3CF JUMP JUMPDEST SWAP3 POP POP PUSH1 0x40 PUSH2 0x42D DUP7 DUP3 DUP8 ADD PUSH2 0x3CF JUMP JUMPDEST SWAP2 POP POP SWAP3 POP SWAP3 POP SWAP3 JUMP JUMPDEST PUSH1 0x0 DUP2 SWAP1 POP SWAP2 SWAP1 POP JUMP JUMPDEST PUSH1 0x0 DUP2 SWAP1 POP SWAP2 SWAP1 POP JUMP JUMPDEST PUSH1 0x0 PUSH2 0x466 PUSH2 0x461 PUSH2 0x45C DUP5 PUSH2 0x437 JUMP JUMPDEST PUSH2 0x441 JUMP JUMPDEST PUSH2 0x24C JUMP JUMPDEST SWAP1 POP SWAP2 SWAP1 POP JUMP JUMPDEST PUSH2 0x476 DUP2 PUSH2 0x44B JUMP JUMPDEST DUP3 MSTORE POP POP JUMP JUMPDEST PUSH1 0x0 PUSH1 0xC0 DUP3 ADD SWAP1 POP PUSH2 0x491 PUSH1 0x0 DUP4 ADD DUP10 PUSH2 0x350 JUMP JUMPDEST PUSH2 0x49E PUSH1 0x20 DUP4 ADD DUP9 PUSH2 0x35F JUMP JUMPDEST PUSH2 0x4AB PUSH1 0x40 DUP4 ADD DUP8 PUSH2 0x46D JUMP JUMPDEST PUSH2 0x4B8 PUSH1 0x60 DUP4 ADD DUP7 PUSH2 0x46D JUMP JUMPDEST PUSH2 0x4C5 PUSH1 0x80 DUP4 ADD DUP6 PUSH2 0x350 JUMP JUMPDEST PUSH2 0x4D2 PUSH1 0xA0 DUP4 ADD DUP5 PUSH2 0x35F JUMP JUMPDEST SWAP8 SWAP7 POP POP POP POP POP POP POP JUMP INVALID LOG2 PUSH5 0x6970667358 0x22 SLT KECCAK256 0xD4 BASEFEE 0x23 DUP9 PUSH11 0x7160E33DA414969F21DD68 0xDF 0xD8 LT 0x1F PUSH32 0x45208A7306C0C7EB9D4C7164736F6C6343000811003300000000000000000000 "
				},
				"gasEstimates": {
					"creation": {
						"codeDepositCost": "259800",
						"executionCost": "101637",
						"totalCost": "361437"
					},
					"external": {
						"provideLiquitidy(address,uint256,uint256,uint256,uint256)": "infinite",
						"provideLiquitidy2(uint256,address,uint256)": "infinite"
					}
				},
				"methodIdentifiers": {
					"provideLiquitidy(address,uint256,uint256,uint256,uint256)": "0eaaad9e",
					"provideLiquitidy2(uint256,address,uint256)": "167b6bc5"
				}
			},
			"storageLayout": {
				"storage": [
					{
						"astId": 480,
						"contract": "test.sol:liquidityProvider",
						"label": "tokenAddress",
						"offset": 0,
						"slot": "0",
						"type": "t_address"
					},
					{
						"astId": 483,
						"contract": "test.sol:liquidityProvider",
						"label": "uinswapRouterAddress",
						"offset": 0,
						"slot": "1",
						"type": "t_address"
					},
					{
						"astId": 489,
						"contract": "test.sol:liquidityProvider",
						"label": "Token",
						"offset": 0,
						"slot": "2",
						"type": "t_contract(IERC20)77"
					},
					{
						"astId": 495,
						"contract": "test.sol:liquidityProvider",
						"label": "Router",
						"offset": 0,
						"slot": "3",
						"type": "t_contract(IUniswapV2Router02)473"
					}
				],
				"types": {
					"t_address": {
						"encoding": "inplace",
						"label": "address",
						"numberOfBytes": "20"
					},
					"t_contract(IERC20)77": {
						"encoding": "inplace",
						"label": "contract IERC20",
						"numberOfBytes": "20"
					},
					"t_contract(IUniswapV2Router02)473": {
						"encoding": "inplace",
						"label": "contract IUniswapV2Router02",
						"numberOfBytes": "20"
					}
				}
			},
			"userdoc": {
				"kind": "user",
				"methods": {},
				"version": 1
			}
		}
	}
}