{
	"contracts/Hook.sol": {
		"TransactionsAndHook": {
			"abi": [
				{
					"inputs": [
						{
							"internalType": "address",
							"name": "_ERC20",
							"type": "address"
						},
						{
							"internalType": "address",
							"name": "_uniswapPair",
							"type": "address"
						},
						{
							"internalType": "address",
							"name": "_oracle",
							"type": "address"
						},
						{
							"internalType": "address",
							"name": "_crownNFT",
							"type": "address"
						},
						{
							"internalType": "address",
							"name": "_POAP",
							"type": "address"
						}
					],
					"stateMutability": "nonpayable",
					"type": "constructor"
				},
				{
					"anonymous": false,
					"inputs": [
						{
							"indexed": false,
							"internalType": "string",
							"name": "message",
							"type": "string"
						}
					],
					"name": "Log",
					"type": "event"
				},
				{
					"inputs": [],
					"name": "ERC20Address",
					"outputs": [
						{
							"internalType": "address",
							"name": "",
							"type": "address"
						}
					],
					"stateMutability": "view",
					"type": "function"
				},
				{
					"inputs": [],
					"name": "POAPAddress",
					"outputs": [
						{
							"internalType": "address",
							"name": "",
							"type": "address"
						}
					],
					"stateMutability": "view",
					"type": "function"
				},
				{
					"inputs": [],
					"name": "WethAddress",
					"outputs": [
						{
							"internalType": "address",
							"name": "",
							"type": "address"
						}
					],
					"stateMutability": "view",
					"type": "function"
				},
				{
					"inputs": [],
					"name": "buyEth",
					"outputs": [
						{
							"internalType": "uint256",
							"name": "",
							"type": "uint256"
						}
					],
					"stateMutability": "view",
					"type": "function"
				},
				{
					"inputs": [],
					"name": "crownNFTAddress",
					"outputs": [
						{
							"internalType": "address",
							"name": "",
							"type": "address"
						}
					],
					"stateMutability": "view",
					"type": "function"
				},
				{
					"inputs": [],
					"name": "getLastEthRecieved",
					"outputs": [
						{
							"internalType": "uint256",
							"name": "",
							"type": "uint256"
						}
					],
					"stateMutability": "view",
					"type": "function"
				},
				{
					"inputs": [],
					"name": "getWethBalance",
					"outputs": [
						{
							"internalType": "uint256",
							"name": "",
							"type": "uint256"
						}
					],
					"stateMutability": "nonpayable",
					"type": "function"
				},
				{
					"inputs": [],
					"name": "liquidityEth",
					"outputs": [
						{
							"internalType": "uint256",
							"name": "",
							"type": "uint256"
						}
					],
					"stateMutability": "view",
					"type": "function"
				},
				{
					"inputs": [],
					"name": "oracleAddress",
					"outputs": [
						{
							"internalType": "address",
							"name": "",
							"type": "address"
						}
					],
					"stateMutability": "view",
					"type": "function"
				},
				{
					"inputs": [
						{
							"internalType": "uint256",
							"name": "",
							"type": "uint256"
						}
					],
					"name": "path",
					"outputs": [
						{
							"internalType": "address",
							"name": "",
							"type": "address"
						}
					],
					"stateMutability": "view",
					"type": "function"
				},
				{
					"inputs": [],
					"name": "percentLiquidity",
					"outputs": [
						{
							"internalType": "uint256",
							"name": "",
							"type": "uint256"
						}
					],
					"stateMutability": "view",
					"type": "function"
				},
				{
					"inputs": [],
					"name": "superBuy",
					"outputs": [],
					"stateMutability": "payable",
					"type": "function"
				},
				{
					"inputs": [],
					"name": "totalRoyalties",
					"outputs": [
						{
							"internalType": "uint256",
							"name": "",
							"type": "uint256"
						}
					],
					"stateMutability": "view",
					"type": "function"
				},
				{
					"inputs": [
						{
							"internalType": "uint256",
							"name": "",
							"type": "uint256"
						}
					],
					"name": "transactionFromPOAPId",
					"outputs": [
						{
							"internalType": "uint256",
							"name": "POAPId",
							"type": "uint256"
						},
						{
							"internalType": "address",
							"name": "purchaser",
							"type": "address"
						},
						{
							"internalType": "uint256",
							"name": "receivedEth",
							"type": "uint256"
						},
						{
							"internalType": "bool",
							"name": "POAPreceived",
							"type": "bool"
						},
						{
							"internalType": "uint256",
							"name": "tokenValueOfPOAP",
							"type": "uint256"
						},
						{
							"internalType": "bool",
							"name": "POAPburned",
							"type": "bool"
						}
					],
					"stateMutability": "view",
					"type": "function"
				},
				{
					"inputs": [],
					"name": "uniswapPairAddress",
					"outputs": [
						{
							"internalType": "address",
							"name": "",
							"type": "address"
						}
					],
					"stateMutability": "view",
					"type": "function"
				},
				{
					"inputs": [],
					"name": "uniswapRouterAddress",
					"outputs": [
						{
							"internalType": "address",
							"name": "",
							"type": "address"
						}
					],
					"stateMutability": "view",
					"type": "function"
				},
				{
					"inputs": [
						{
							"internalType": "address",
							"name": "_address",
							"type": "address"
						}
					],
					"name": "updateERC20Address",
					"outputs": [],
					"stateMutability": "nonpayable",
					"type": "function"
				},
				{
					"inputs": [
						{
							"internalType": "address",
							"name": "_ERC20Address",
							"type": "address"
						}
					],
					"name": "withdraw",
					"outputs": [],
					"stateMutability": "nonpayable",
					"type": "function"
				},
				{
					"stateMutability": "payable",
					"type": "receive"
				}
			],
			"devdoc": {
				"kind": "dev",
				"methods": {},
				"version": 1
			},
			"evm": {
				"assembly": "    /* \"contracts/Hook.sol\":1217:8128  contract TransactionsAndHook {... */\n  mstore(0x40, 0x80)\n    /* \"contracts/Hook.sol\":1892:1934  0xB4FBF271143F4FBf7B91A5ded31805e42b2208d6 */\n  0xb4fbf271143f4fbf7b91a5ded31805e42b2208d6\n    /* \"contracts/Hook.sol\":1863:1934  address public WethAddress = 0xB4FBF271143F4FBf7B91A5ded31805e42b2208d6 */\n  0x00\n  dup1\n  0x0100\n  exp\n  dup2\n  sload\n  dup2\n  0xffffffffffffffffffffffffffffffffffffffff\n  mul\n  not\n  and\n  swap1\n  dup4\n  0xffffffffffffffffffffffffffffffffffffffff\n  and\n  mul\n  or\n  swap1\n  sstore\n  pop\n    /* \"contracts/Hook.sol\":2152:2194  0x7a250d5630B4cF539739dF2C5dAcb4c659F2488D */\n  0x7a250d5630b4cf539739df2c5dacb4c659f2488d\n    /* \"contracts/Hook.sol\":2114:2194  address public uniswapRouterAddress = 0x7a250d5630B4cF539739dF2C5dAcb4c659F2488D */\n  0x06\n  exp(0x0100, 0x00)\n  dup2\n  sload\n  dup2\n  0xffffffffffffffffffffffffffffffffffffffff\n  mul\n  not\n  and\n  swap1\n  dup4\n  0xffffffffffffffffffffffffffffffffffffffff\n  and\n  mul\n  or\n  swap1\n  sstore\n  pop\n    /* \"contracts/Hook.sol\":2200:2250  address[] public path = [WethAddress,ERC20Address] */\n  mload(0x40)\n  dup1\n  0x40\n  add\n  0x40\n  mstore\n  dup1\n    /* \"contracts/Hook.sol\":2225:2236  WethAddress */\n  0x00\n  dup1\n  sload\n  swap1\n  0x0100\n  exp\n  swap1\n  div\n  0xffffffffffffffffffffffffffffffffffffffff\n  and\n    /* \"contracts/Hook.sol\":2200:2250  address[] public path = [WethAddress,ERC20Address] */\n  0xffffffffffffffffffffffffffffffffffffffff\n  and\n  0xffffffffffffffffffffffffffffffffffffffff\n  and\n  dup2\n  mstore\n  0x20\n  add\n    /* \"contracts/Hook.sol\":2237:2249  ERC20Address */\n  0x01\n  0x00\n  swap1\n  sload\n  swap1\n  0x0100\n  exp\n  swap1\n  div\n  0xffffffffffffffffffffffffffffffffffffffff\n  and\n    /* \"contracts/Hook.sol\":2200:2250  address[] public path = [WethAddress,ERC20Address] */\n  0xffffffffffffffffffffffffffffffffffffffff\n  and\n  0xffffffffffffffffffffffffffffffffffffffff\n  and\n  dup2\n  mstore\n  pop\n  0x07\n  swap1\n  0x02\n  tag_1\n  swap3\n  swap2\n  swap1\n  tag_2\n  jump\t// in\ntag_1:\n  pop\n    /* \"contracts/Hook.sol\":2275:2286  POAPAddress */\n  0x05\n  0x00\n  swap1\n  sload\n  swap1\n  0x0100\n  exp\n  swap1\n  div\n  0xffffffffffffffffffffffffffffffffffffffff\n  and\n    /* \"contracts/Hook.sol\":2256:2287  iPOAP POAP = iPOAP(POAPAddress) */\n  0x08\n  exp(0x0100, 0x00)\n  dup2\n  sload\n  dup2\n  0xffffffffffffffffffffffffffffffffffffffff\n  mul\n  not\n  and\n  swap1\n  dup4\n  0xffffffffffffffffffffffffffffffffffffffff\n  and\n  mul\n  or\n  swap1\n  sstore\n  pop\n    /* \"contracts/Hook.sol\":2318:2329  WethAddress */\n  0x00\n  dup1\n  sload\n  swap1\n  0x0100\n  exp\n  swap1\n  div\n  0xffffffffffffffffffffffffffffffffffffffff\n  and\n    /* \"contracts/Hook.sol\":2293:2330  WethLike WETH = WethLike(WethAddress) */\n  0x09\n  exp(0x0100, 0x00)\n  dup2\n  sload\n  dup2\n  0xffffffffffffffffffffffffffffffffffffffff\n  mul\n  not\n  and\n  swap1\n  dup4\n  0xffffffffffffffffffffffffffffffffffffffff\n  and\n  mul\n  or\n  swap1\n  sstore\n  pop\n    /* \"contracts/Hook.sol\":2361:2374  oracleAddress */\n  0x03\n  0x00\n  swap1\n  sload\n  swap1\n  0x0100\n  exp\n  swap1\n  div\n  0xffffffffffffffffffffffffffffffffffffffff\n  and\n    /* \"contracts/Hook.sol\":2336:2375  iOracle Oracle = iOracle(oracleAddress) */\n  0x0a\n  exp(0x0100, 0x00)\n  dup2\n  sload\n  dup2\n  0xffffffffffffffffffffffffffffffffffffffff\n  mul\n  not\n  and\n  swap1\n  dup4\n  0xffffffffffffffffffffffffffffffffffffffff\n  and\n  mul\n  or\n  swap1\n  sstore\n  pop\n    /* \"contracts/Hook.sol\":2435:2455  uniswapRouterAddress */\n  0x06\n  0x00\n  swap1\n  sload\n  swap1\n  0x0100\n  exp\n  swap1\n  div\n  0xffffffffffffffffffffffffffffffffffffffff\n  and\n    /* \"contracts/Hook.sol\":2381:2456  IUniswapV2Router02 UniswapRouter = IUniswapV2Router02(uniswapRouterAddress) */\n  0x0b\n  exp(0x0100, 0x00)\n  dup2\n  sload\n  dup2\n  0xffffffffffffffffffffffffffffffffffffffff\n  mul\n  not\n  and\n  swap1\n  dup4\n  0xffffffffffffffffffffffffffffffffffffffff\n  and\n  mul\n  or\n  swap1\n  sstore\n  pop\n    /* \"contracts/Hook.sol\":1252:1796  constructor(address _ERC20,address _uniswapPair,address _oracle,address _crownNFT,address _POAP){... */\n  callvalue\n  dup1\n  iszero\n  tag_3\n  jumpi\n  0x00\n  dup1\n  revert\ntag_3:\n  pop\n  mload(0x40)\n  sub(codesize, bytecodeSize)\n  dup1\n  bytecodeSize\n  dup4\n  codecopy\n  dup2\n  dup2\n  add\n  0x40\n  mstore\n  dup2\n  add\n  swap1\n  tag_4\n  swap2\n  swap1\n  tag_5\n  jump\t// in\ntag_4:\n    /* \"contracts/Hook.sol\":1446:1452  _ERC20 */\n  dup5\n    /* \"contracts/Hook.sol\":1431:1443  ERC20Address */\n  0x01\n  0x00\n    /* \"contracts/Hook.sol\":1431:1452  ERC20Address = _ERC20 */\n  0x0100\n  exp\n  dup2\n  sload\n  dup2\n  0xffffffffffffffffffffffffffffffffffffffff\n  mul\n  not\n  and\n  swap1\n  dup4\n  0xffffffffffffffffffffffffffffffffffffffff\n  and\n  mul\n  or\n  swap1\n  sstore\n  pop\n    /* \"contracts/Hook.sol\":1483:1495  _uniswapPair */\n  dup4\n    /* \"contracts/Hook.sol\":1462:1480  uniswapPairAddress */\n  0x02\n  0x00\n    /* \"contracts/Hook.sol\":1462:1495  uniswapPairAddress = _uniswapPair */\n  0x0100\n  exp\n  dup2\n  sload\n  dup2\n  0xffffffffffffffffffffffffffffffffffffffff\n  mul\n  not\n  and\n  swap1\n  dup4\n  0xffffffffffffffffffffffffffffffffffffffff\n  and\n  mul\n  or\n  swap1\n  sstore\n  pop\n    /* \"contracts/Hook.sol\":1521:1528  _oracle */\n  dup3\n    /* \"contracts/Hook.sol\":1505:1518  oracleAddress */\n  0x03\n  0x00\n    /* \"contracts/Hook.sol\":1505:1528  oracleAddress = _oracle */\n  0x0100\n  exp\n  dup2\n  sload\n  dup2\n  0xffffffffffffffffffffffffffffffffffffffff\n  mul\n  not\n  and\n  swap1\n  dup4\n  0xffffffffffffffffffffffffffffffffffffffff\n  and\n  mul\n  or\n  swap1\n  sstore\n  pop\n    /* \"contracts/Hook.sol\":1555:1568  oracleAddress */\n  0x03\n  0x00\n  swap1\n  sload\n  swap1\n  0x0100\n  exp\n  swap1\n  div\n  0xffffffffffffffffffffffffffffffffffffffff\n  and\n    /* \"contracts/Hook.sol\":1538:1544  Oracle */\n  0x0a\n  0x00\n    /* \"contracts/Hook.sol\":1538:1569  Oracle = iOracle(oracleAddress) */\n  0x0100\n  exp\n  dup2\n  sload\n  dup2\n  0xffffffffffffffffffffffffffffffffffffffff\n  mul\n  not\n  and\n  swap1\n  dup4\n  0xffffffffffffffffffffffffffffffffffffffff\n  and\n  mul\n  or\n  swap1\n  sstore\n  pop\n    /* \"contracts/Hook.sol\":1597:1606  _crownNFT */\n  dup2\n    /* \"contracts/Hook.sol\":1579:1594  crownNFTAddress */\n  0x04\n  0x00\n    /* \"contracts/Hook.sol\":1579:1606  crownNFTAddress = _crownNFT */\n  0x0100\n  exp\n  dup2\n  sload\n  dup2\n  0xffffffffffffffffffffffffffffffffffffffff\n  mul\n  not\n  and\n  swap1\n  dup4\n  0xffffffffffffffffffffffffffffffffffffffff\n  and\n  mul\n  or\n  swap1\n  sstore\n  pop\n    /* \"contracts/Hook.sol\":1630:1635  _POAP */\n  dup1\n    /* \"contracts/Hook.sol\":1616:1627  POAPAddress */\n  0x05\n  0x00\n    /* \"contracts/Hook.sol\":1616:1635  POAPAddress = _POAP */\n  0x0100\n  exp\n  dup2\n  sload\n  dup2\n  0xffffffffffffffffffffffffffffffffffffffff\n  mul\n  not\n  and\n  swap1\n  dup4\n  0xffffffffffffffffffffffffffffffffffffffff\n  and\n  mul\n  or\n  swap1\n  sstore\n  pop\n    /* \"contracts/Hook.sol\":1658:1669  POAPAddress */\n  0x05\n  0x00\n  swap1\n  sload\n  swap1\n  0x0100\n  exp\n  swap1\n  div\n  0xffffffffffffffffffffffffffffffffffffffff\n  and\n    /* \"contracts/Hook.sol\":1645:1649  POAP */\n  0x08\n  0x00\n    /* \"contracts/Hook.sol\":1645:1670  POAP = iPOAP(POAPAddress) */\n  0x0100\n  exp\n  dup2\n  sload\n  dup2\n  0xffffffffffffffffffffffffffffffffffffffff\n  mul\n  not\n  and\n  swap1\n  dup4\n  0xffffffffffffffffffffffffffffffffffffffff\n  and\n  mul\n  or\n  swap1\n  sstore\n  pop\n    /* \"contracts/Hook.sol\":1252:1796  constructor(address _ERC20,address _uniswapPair,address _oracle,address _crownNFT,address _POAP){... */\n  pop\n  pop\n  pop\n  pop\n  pop\n    /* \"contracts/Hook.sol\":1217:8128  contract TransactionsAndHook {... */\n  jump(tag_8)\ntag_2:\n  dup3\n  dup1\n  sload\n  dup3\n  dup3\n  sstore\n  swap1\n  0x00\n  mstore\n  keccak256(0x00, 0x20)\n  swap1\n  dup2\n  add\n  swap3\n  dup3\n  iszero\n  tag_9\n  jumpi\n  swap2\n  0x20\n  mul\n  dup3\n  add\ntag_10:\n  dup3\n  dup2\n  gt\n  iszero\n  tag_11\n  jumpi\n  dup3\n  mload\n  dup3\n  exp(0x0100, 0x00)\n  dup2\n  sload\n  dup2\n  0xffffffffffffffffffffffffffffffffffffffff\n  mul\n  not\n  and\n  swap1\n  dup4\n  0xffffffffffffffffffffffffffffffffffffffff\n  and\n  mul\n  or\n  swap1\n  sstore\n  pop\n  swap2\n  0x20\n  add\n  swap2\n  swap1\n  0x01\n  add\n  swap1\n  jump(tag_10)\ntag_11:\ntag_9:\n  pop\n  swap1\n  pop\n  tag_12\n  swap2\n  swap1\n  tag_13\n  jump\t// in\ntag_12:\n  pop\n  swap1\n  jump\t// out\ntag_13:\ntag_14:\n  dup1\n  dup3\n  gt\n  iszero\n  tag_15\n  jumpi\n  0x00\n  dup2\n  0x00\n  swap1\n  sstore\n  pop\n  0x01\n  add\n  jump(tag_14)\ntag_15:\n  pop\n  swap1\n  jump\t// out\n    /* \"#utility.yul\":88:205   */\ntag_17:\n    /* \"#utility.yul\":197:198   */\n  0x00\n    /* \"#utility.yul\":194:195   */\n  dup1\n    /* \"#utility.yul\":187:199   */\n  revert\n    /* \"#utility.yul\":334:460   */\ntag_19:\n    /* \"#utility.yul\":371:378   */\n  0x00\n    /* \"#utility.yul\":411:453   */\n  0xffffffffffffffffffffffffffffffffffffffff\n    /* \"#utility.yul\":404:409   */\n  dup3\n    /* \"#utility.yul\":400:454   */\n  and\n    /* \"#utility.yul\":389:454   */\n  swap1\n  pop\n    /* \"#utility.yul\":334:460   */\n  swap2\n  swap1\n  pop\n  jump\t// out\n    /* \"#utility.yul\":466:562   */\ntag_20:\n    /* \"#utility.yul\":503:510   */\n  0x00\n    /* \"#utility.yul\":532:556   */\n  tag_29\n    /* \"#utility.yul\":550:555   */\n  dup3\n    /* \"#utility.yul\":532:556   */\n  tag_19\n  jump\t// in\ntag_29:\n    /* \"#utility.yul\":521:556   */\n  swap1\n  pop\n    /* \"#utility.yul\":466:562   */\n  swap2\n  swap1\n  pop\n  jump\t// out\n    /* \"#utility.yul\":568:690   */\ntag_21:\n    /* \"#utility.yul\":641:665   */\n  tag_31\n    /* \"#utility.yul\":659:664   */\n  dup2\n    /* \"#utility.yul\":641:665   */\n  tag_20\n  jump\t// in\ntag_31:\n    /* \"#utility.yul\":634:639   */\n  dup2\n    /* \"#utility.yul\":631:666   */\n  eq\n    /* \"#utility.yul\":621:684   */\n  tag_32\n  jumpi\n    /* \"#utility.yul\":680:681   */\n  0x00\n    /* \"#utility.yul\":677:678   */\n  dup1\n    /* \"#utility.yul\":670:682   */\n  revert\n    /* \"#utility.yul\":621:684   */\ntag_32:\n    /* \"#utility.yul\":568:690   */\n  pop\n  jump\t// out\n    /* \"#utility.yul\":696:839   */\ntag_22:\n    /* \"#utility.yul\":753:758   */\n  0x00\n    /* \"#utility.yul\":784:790   */\n  dup2\n    /* \"#utility.yul\":778:791   */\n  mload\n    /* \"#utility.yul\":769:791   */\n  swap1\n  pop\n    /* \"#utility.yul\":800:833   */\n  tag_34\n    /* \"#utility.yul\":827:832   */\n  dup2\n    /* \"#utility.yul\":800:833   */\n  tag_21\n  jump\t// in\ntag_34:\n    /* \"#utility.yul\":696:839   */\n  swap3\n  swap2\n  pop\n  pop\n  jump\t// out\n    /* \"#utility.yul\":845:1822   */\ntag_5:\n    /* \"#utility.yul\":951:957   */\n  0x00\n    /* \"#utility.yul\":959:965   */\n  dup1\n    /* \"#utility.yul\":967:973   */\n  0x00\n    /* \"#utility.yul\":975:981   */\n  dup1\n    /* \"#utility.yul\":983:989   */\n  0x00\n    /* \"#utility.yul\":1032:1035   */\n  0xa0\n    /* \"#utility.yul\":1020:1029   */\n  dup7\n    /* \"#utility.yul\":1011:1018   */\n  dup9\n    /* \"#utility.yul\":1007:1030   */\n  sub\n    /* \"#utility.yul\":1003:1036   */\n  slt\n    /* \"#utility.yul\":1000:1120   */\n  iszero\n  tag_36\n  jumpi\n    /* \"#utility.yul\":1039:1118   */\n  tag_37\n  tag_17\n  jump\t// in\ntag_37:\n    /* \"#utility.yul\":1000:1120   */\ntag_36:\n    /* \"#utility.yul\":1159:1160   */\n  0x00\n    /* \"#utility.yul\":1184:1248   */\n  tag_38\n    /* \"#utility.yul\":1240:1247   */\n  dup9\n    /* \"#utility.yul\":1231:1237   */\n  dup3\n    /* \"#utility.yul\":1220:1229   */\n  dup10\n    /* \"#utility.yul\":1216:1238   */\n  add\n    /* \"#utility.yul\":1184:1248   */\n  tag_22\n  jump\t// in\ntag_38:\n    /* \"#utility.yul\":1174:1248   */\n  swap6\n  pop\n    /* \"#utility.yul\":1130:1258   */\n  pop\n    /* \"#utility.yul\":1297:1299   */\n  0x20\n    /* \"#utility.yul\":1323:1387   */\n  tag_39\n    /* \"#utility.yul\":1379:1386   */\n  dup9\n    /* \"#utility.yul\":1370:1376   */\n  dup3\n    /* \"#utility.yul\":1359:1368   */\n  dup10\n    /* \"#utility.yul\":1355:1377   */\n  add\n    /* \"#utility.yul\":1323:1387   */\n  tag_22\n  jump\t// in\ntag_39:\n    /* \"#utility.yul\":1313:1387   */\n  swap5\n  pop\n    /* \"#utility.yul\":1268:1397   */\n  pop\n    /* \"#utility.yul\":1436:1438   */\n  0x40\n    /* \"#utility.yul\":1462:1526   */\n  tag_40\n    /* \"#utility.yul\":1518:1525   */\n  dup9\n    /* \"#utility.yul\":1509:1515   */\n  dup3\n    /* \"#utility.yul\":1498:1507   */\n  dup10\n    /* \"#utility.yul\":1494:1516   */\n  add\n    /* \"#utility.yul\":1462:1526   */\n  tag_22\n  jump\t// in\ntag_40:\n    /* \"#utility.yul\":1452:1526   */\n  swap4\n  pop\n    /* \"#utility.yul\":1407:1536   */\n  pop\n    /* \"#utility.yul\":1575:1577   */\n  0x60\n    /* \"#utility.yul\":1601:1665   */\n  tag_41\n    /* \"#utility.yul\":1657:1664   */\n  dup9\n    /* \"#utility.yul\":1648:1654   */\n  dup3\n    /* \"#utility.yul\":1637:1646   */\n  dup10\n    /* \"#utility.yul\":1633:1655   */\n  add\n    /* \"#utility.yul\":1601:1665   */\n  tag_22\n  jump\t// in\ntag_41:\n    /* \"#utility.yul\":1591:1665   */\n  swap3\n  pop\n    /* \"#utility.yul\":1546:1675   */\n  pop\n    /* \"#utility.yul\":1714:1717   */\n  0x80\n    /* \"#utility.yul\":1741:1805   */\n  tag_42\n    /* \"#utility.yul\":1797:1804   */\n  dup9\n    /* \"#utility.yul\":1788:1794   */\n  dup3\n    /* \"#utility.yul\":1777:1786   */\n  dup10\n    /* \"#utility.yul\":1773:1795   */\n  add\n    /* \"#utility.yul\":1741:1805   */\n  tag_22\n  jump\t// in\ntag_42:\n    /* \"#utility.yul\":1731:1805   */\n  swap2\n  pop\n    /* \"#utility.yul\":1685:1815   */\n  pop\n    /* \"#utility.yul\":845:1822   */\n  swap3\n  swap6\n  pop\n  swap3\n  swap6\n  swap1\n  swap4\n  pop\n  jump\t// out\n    /* \"contracts/Hook.sol\":1217:8128  contract TransactionsAndHook {... */\ntag_8:\n  dataSize(sub_0)\n  dup1\n  dataOffset(sub_0)\n  0x00\n  codecopy\n  0x00\n  return\nstop\n\nsub_0: assembly {\n        /* \"contracts/Hook.sol\":1217:8128  contract TransactionsAndHook {... */\n      mstore(0x40, 0x80)\n      jumpi(tag_1, lt(calldatasize, 0x04))\n      shr(0xe0, calldataload(0x00))\n      dup1\n      0xa09ede07\n      gt\n      tag_21\n      jumpi\n      dup1\n      0xaef75107\n      gt\n      tag_22\n      jumpi\n      dup1\n      0xaef75107\n      eq\n      tag_16\n      jumpi\n      dup1\n      0xaf6d1fe4\n      eq\n      tag_17\n      jumpi\n      dup1\n      0xbd3733fe\n      eq\n      tag_18\n      jumpi\n      dup1\n      0xbfd9ea5b\n      eq\n      tag_19\n      jumpi\n      dup1\n      0xc1f2e5f1\n      eq\n      tag_20\n      jumpi\n      jump(tag_2)\n    tag_22:\n      dup1\n      0xa09ede07\n      eq\n      tag_12\n      jumpi\n      dup1\n      0xa6021ace\n      eq\n      tag_13\n      jumpi\n      dup1\n      0xa785a3d8\n      eq\n      tag_14\n      jumpi\n      dup1\n      0xa89ae4ba\n      eq\n      tag_15\n      jumpi\n      jump(tag_2)\n    tag_21:\n      dup1\n      0x51cff8d9\n      gt\n      tag_23\n      jumpi\n      dup1\n      0x51cff8d9\n      eq\n      tag_7\n      jumpi\n      dup1\n      0x777b506f\n      eq\n      tag_8\n      jumpi\n      dup1\n      0x86d02608\n      eq\n      tag_9\n      jumpi\n      dup1\n      0x966824a3\n      eq\n      tag_10\n      jumpi\n      dup1\n      0x9dd58b58\n      eq\n      tag_11\n      jumpi\n      jump(tag_2)\n    tag_23:\n      dup1\n      0x1b017fde\n      eq\n      tag_3\n      jumpi\n      dup1\n      0x20ca3c7f\n      eq\n      tag_4\n      jumpi\n      dup1\n      0x2c4c3c1b\n      eq\n      tag_5\n      jumpi\n      dup1\n      0x4cfd1ba5\n      eq\n      tag_6\n      jumpi\n      jump(tag_2)\n    tag_1:\n      jumpi(tag_2, calldatasize)\n      stop\n    tag_2:\n      0x00\n      dup1\n      revert\n        /* \"contracts/Hook.sol\":2588:2680  function updateERC20Address(address _address) public{... */\n    tag_3:\n      callvalue\n      dup1\n      iszero\n      tag_26\n      jumpi\n      0x00\n      dup1\n      revert\n    tag_26:\n      pop\n      tag_27\n      0x04\n      dup1\n      calldatasize\n      sub\n      dup2\n      add\n      swap1\n      tag_28\n      swap2\n      swap1\n      tag_29\n      jump\t// in\n    tag_28:\n      tag_30\n      jump\t// in\n    tag_27:\n      stop\n        /* \"contracts/Hook.sol\":2114:2194  address public uniswapRouterAddress = 0x7a250d5630B4cF539739dF2C5dAcb4c659F2488D */\n    tag_4:\n      callvalue\n      dup1\n      iszero\n      tag_31\n      jumpi\n      0x00\n      dup1\n      revert\n    tag_31:\n      pop\n      tag_32\n      tag_33\n      jump\t// in\n    tag_32:\n      mload(0x40)\n      tag_34\n      swap2\n      swap1\n      tag_35\n      jump\t// in\n    tag_34:\n      mload(0x40)\n      dup1\n      swap2\n      sub\n      swap1\n      return\n        /* \"contracts/Hook.sol\":2462:2520  mapping (uint => Transaction) public transactionFromPOAPId */\n    tag_5:\n      callvalue\n      dup1\n      iszero\n      tag_36\n      jumpi\n      0x00\n      dup1\n      revert\n    tag_36:\n      pop\n      tag_37\n      0x04\n      dup1\n      calldatasize\n      sub\n      dup2\n      add\n      swap1\n      tag_38\n      swap2\n      swap1\n      tag_39\n      jump\t// in\n    tag_38:\n      tag_40\n      jump\t// in\n    tag_37:\n      mload(0x40)\n      tag_41\n      swap7\n      swap6\n      swap5\n      swap4\n      swap3\n      swap2\n      swap1\n      tag_42\n      jump\t// in\n    tag_41:\n      mload(0x40)\n      dup1\n      swap2\n      sub\n      swap1\n      return\n        /* \"contracts/Hook.sol\":5330:5348  uint public buyEth */\n    tag_6:\n      callvalue\n      dup1\n      iszero\n      tag_43\n      jumpi\n      0x00\n      dup1\n      revert\n    tag_43:\n      pop\n      tag_44\n      tag_45\n      jump\t// in\n    tag_44:\n      mload(0x40)\n      tag_46\n      swap2\n      swap1\n      tag_47\n      jump\t// in\n    tag_46:\n      mload(0x40)\n      dup1\n      swap2\n      sub\n      swap1\n      return\n        /* \"contracts/Hook.sol\":3185:3387  function withdraw(address _ERC20Address) public {... */\n    tag_7:\n      callvalue\n      dup1\n      iszero\n      tag_48\n      jumpi\n      0x00\n      dup1\n      revert\n    tag_48:\n      pop\n      tag_49\n      0x04\n      dup1\n      calldatasize\n      sub\n      dup2\n      add\n      swap1\n      tag_50\n      swap2\n      swap1\n      tag_29\n      jump\t// in\n    tag_50:\n      tag_51\n      jump\t// in\n    tag_49:\n      stop\n        /* \"contracts/Hook.sol\":2046:2076  address public crownNFTAddress */\n    tag_8:\n      callvalue\n      dup1\n      iszero\n      tag_52\n      jumpi\n      0x00\n      dup1\n      revert\n    tag_52:\n      pop\n      tag_53\n      tag_54\n      jump\t// in\n    tag_53:\n      mload(0x40)\n      tag_55\n      swap2\n      swap1\n      tag_35\n      jump\t// in\n    tag_55:\n      mload(0x40)\n      dup1\n      swap2\n      sub\n      swap1\n      return\n        /* \"contracts/Hook.sol\":2546:2572  uint public totalRoyalties */\n    tag_9:\n      callvalue\n      dup1\n      iszero\n      tag_56\n      jumpi\n      0x00\n      dup1\n      revert\n    tag_56:\n      pop\n      tag_57\n      tag_58\n      jump\t// in\n    tag_57:\n      mload(0x40)\n      tag_59\n      swap2\n      swap1\n      tag_47\n      jump\t// in\n    tag_59:\n      mload(0x40)\n      dup1\n      swap2\n      sub\n      swap1\n      return\n        /* \"contracts/Hook.sol\":7983:8081  function superBuy() public payable{... */\n    tag_10:\n      tag_60\n      tag_61\n      jump\t// in\n    tag_60:\n      stop\n        /* \"contracts/Hook.sol\":3393:3493  function getWethBalance() public returns (uint){... */\n    tag_11:\n      callvalue\n      dup1\n      iszero\n      tag_62\n      jumpi\n      0x00\n      dup1\n      revert\n    tag_62:\n      pop\n      tag_63\n      tag_64\n      jump\t// in\n    tag_63:\n      mload(0x40)\n      tag_65\n      swap2\n      swap1\n      tag_47\n      jump\t// in\n    tag_65:\n      mload(0x40)\n      dup1\n      swap2\n      sub\n      swap1\n      return\n        /* \"contracts/Hook.sol\":5354:5378  uint public liquidityEth */\n    tag_12:\n      callvalue\n      dup1\n      iszero\n      tag_66\n      jumpi\n      0x00\n      dup1\n      revert\n    tag_66:\n      pop\n      tag_67\n      tag_68\n      jump\t// in\n    tag_67:\n      mload(0x40)\n      tag_69\n      swap2\n      swap1\n      tag_47\n      jump\t// in\n    tag_69:\n      mload(0x40)\n      dup1\n      swap2\n      sub\n      swap1\n      return\n        /* \"contracts/Hook.sol\":1940:1967  address public ERC20Address */\n    tag_13:\n      callvalue\n      dup1\n      iszero\n      tag_70\n      jumpi\n      0x00\n      dup1\n      revert\n    tag_70:\n      pop\n      tag_71\n      tag_72\n      jump\t// in\n    tag_71:\n      mload(0x40)\n      tag_73\n      swap2\n      swap1\n      tag_35\n      jump\t// in\n    tag_73:\n      mload(0x40)\n      dup1\n      swap2\n      sub\n      swap1\n      return\n        /* \"contracts/Hook.sol\":1863:1934  address public WethAddress = 0xB4FBF271143F4FBf7B91A5ded31805e42b2208d6 */\n    tag_14:\n      callvalue\n      dup1\n      iszero\n      tag_74\n      jumpi\n      0x00\n      dup1\n      revert\n    tag_74:\n      pop\n      tag_75\n      tag_76\n      jump\t// in\n    tag_75:\n      mload(0x40)\n      tag_77\n      swap2\n      swap1\n      tag_35\n      jump\t// in\n    tag_77:\n      mload(0x40)\n      dup1\n      swap2\n      sub\n      swap1\n      return\n        /* \"contracts/Hook.sol\":2012:2040  address public oracleAddress */\n    tag_15:\n      callvalue\n      dup1\n      iszero\n      tag_78\n      jumpi\n      0x00\n      dup1\n      revert\n    tag_78:\n      pop\n      tag_79\n      tag_80\n      jump\t// in\n    tag_79:\n      mload(0x40)\n      tag_81\n      swap2\n      swap1\n      tag_35\n      jump\t// in\n    tag_81:\n      mload(0x40)\n      dup1\n      swap2\n      sub\n      swap1\n      return\n        /* \"contracts/Hook.sol\":2082:2108  address public POAPAddress */\n    tag_16:\n      callvalue\n      dup1\n      iszero\n      tag_82\n      jumpi\n      0x00\n      dup1\n      revert\n    tag_82:\n      pop\n      tag_83\n      tag_84\n      jump\t// in\n    tag_83:\n      mload(0x40)\n      tag_85\n      swap2\n      swap1\n      tag_35\n      jump\t// in\n    tag_85:\n      mload(0x40)\n      dup1\n      swap2\n      sub\n      swap1\n      return\n        /* \"contracts/Hook.sol\":2200:2250  address[] public path = [WethAddress,ERC20Address] */\n    tag_17:\n      callvalue\n      dup1\n      iszero\n      tag_86\n      jumpi\n      0x00\n      dup1\n      revert\n    tag_86:\n      pop\n      tag_87\n      0x04\n      dup1\n      calldatasize\n      sub\n      dup2\n      add\n      swap1\n      tag_88\n      swap2\n      swap1\n      tag_39\n      jump\t// in\n    tag_88:\n      tag_89\n      jump\t// in\n    tag_87:\n      mload(0x40)\n      tag_90\n      swap2\n      swap1\n      tag_35\n      jump\t// in\n    tag_90:\n      mload(0x40)\n      dup1\n      swap2\n      sub\n      swap1\n      return\n        /* \"contracts/Hook.sol\":1973:2006  address public uniswapPairAddress */\n    tag_18:\n      callvalue\n      dup1\n      iszero\n      tag_91\n      jumpi\n      0x00\n      dup1\n      revert\n    tag_91:\n      pop\n      tag_92\n      tag_93\n      jump\t// in\n    tag_92:\n      mload(0x40)\n      tag_94\n      swap2\n      swap1\n      tag_35\n      jump\t// in\n    tag_94:\n      mload(0x40)\n      dup1\n      swap2\n      sub\n      swap1\n      return\n        /* \"contracts/Hook.sol\":3500:3629  function getLastEthRecieved() public view returns (uint){... */\n    tag_19:\n      callvalue\n      dup1\n      iszero\n      tag_95\n      jumpi\n      0x00\n      dup1\n      revert\n    tag_95:\n      pop\n      tag_96\n      tag_97\n      jump\t// in\n    tag_96:\n      mload(0x40)\n      tag_98\n      swap2\n      swap1\n      tag_47\n      jump\t// in\n    tag_98:\n      mload(0x40)\n      dup1\n      swap2\n      sub\n      swap1\n      return\n        /* \"contracts/Hook.sol\":3639:4022  function percentLiquidity() public view returns (uint){... */\n    tag_20:\n      callvalue\n      dup1\n      iszero\n      tag_99\n      jumpi\n      0x00\n      dup1\n      revert\n    tag_99:\n      pop\n      tag_100\n      tag_101\n      jump\t// in\n    tag_100:\n      mload(0x40)\n      tag_102\n      swap2\n      swap1\n      tag_47\n      jump\t// in\n    tag_102:\n      mload(0x40)\n      dup1\n      swap2\n      sub\n      swap1\n      return\n        /* \"contracts/Hook.sol\":2588:2680  function updateERC20Address(address _address) public{... */\n    tag_30:\n        /* \"contracts/Hook.sol\":2665:2673  _address */\n      dup1\n        /* \"contracts/Hook.sol\":2650:2662  ERC20Address */\n      0x01\n      0x00\n        /* \"contracts/Hook.sol\":2650:2673  ERC20Address = _address */\n      0x0100\n      exp\n      dup2\n      sload\n      dup2\n      0xffffffffffffffffffffffffffffffffffffffff\n      mul\n      not\n      and\n      swap1\n      dup4\n      0xffffffffffffffffffffffffffffffffffffffff\n      and\n      mul\n      or\n      swap1\n      sstore\n      pop\n        /* \"contracts/Hook.sol\":2588:2680  function updateERC20Address(address _address) public{... */\n      pop\n      jump\t// out\n        /* \"contracts/Hook.sol\":2114:2194  address public uniswapRouterAddress = 0x7a250d5630B4cF539739dF2C5dAcb4c659F2488D */\n    tag_33:\n      0x06\n      0x00\n      swap1\n      sload\n      swap1\n      0x0100\n      exp\n      swap1\n      div\n      0xffffffffffffffffffffffffffffffffffffffff\n      and\n      dup2\n      jump\t// out\n        /* \"contracts/Hook.sol\":2462:2520  mapping (uint => Transaction) public transactionFromPOAPId */\n    tag_40:\n      mstore(0x20, 0x0c)\n      dup1\n      0x00\n      mstore\n      keccak256(0x00, 0x40)\n      0x00\n      swap2\n      pop\n      swap1\n      pop\n      dup1\n      0x00\n      add\n      sload\n      swap1\n      dup1\n      0x01\n      add\n      0x00\n      swap1\n      sload\n      swap1\n      0x0100\n      exp\n      swap1\n      div\n      0xffffffffffffffffffffffffffffffffffffffff\n      and\n      swap1\n      dup1\n      0x02\n      add\n      sload\n      swap1\n      dup1\n      0x03\n      add\n      0x00\n      swap1\n      sload\n      swap1\n      0x0100\n      exp\n      swap1\n      div\n      0xff\n      and\n      swap1\n      dup1\n      0x04\n      add\n      sload\n      swap1\n      dup1\n      0x05\n      add\n      0x00\n      swap1\n      sload\n      swap1\n      0x0100\n      exp\n      swap1\n      div\n      0xff\n      and\n      swap1\n      pop\n      dup7\n      jump\t// out\n        /* \"contracts/Hook.sol\":5330:5348  uint public buyEth */\n    tag_45:\n      sload(0x0f)\n      dup2\n      jump\t// out\n        /* \"contracts/Hook.sol\":3185:3387  function withdraw(address _ERC20Address) public {... */\n    tag_51:\n        /* \"contracts/Hook.sol\":3243:3255  IERC20 ERC20 */\n      0x00\n        /* \"contracts/Hook.sol\":3265:3278  _ERC20Address */\n      dup2\n        /* \"contracts/Hook.sol\":3243:3279  IERC20 ERC20 = IERC20(_ERC20Address) */\n      swap1\n      pop\n        /* \"contracts/Hook.sol\":3289:3302  uint _balance */\n      0x00\n        /* \"contracts/Hook.sol\":3305:3310  ERC20 */\n      dup2\n        /* \"contracts/Hook.sol\":3305:3320  ERC20.balanceOf */\n      0xffffffffffffffffffffffffffffffffffffffff\n      and\n      0x70a08231\n        /* \"contracts/Hook.sol\":3329:3333  this */\n      address\n        /* \"contracts/Hook.sol\":3305:3335  ERC20.balanceOf(address(this)) */\n      mload(0x40)\n      dup3\n      0xffffffff\n      and\n      0xe0\n      shl\n      dup2\n      mstore\n      0x04\n      add\n      tag_105\n      swap2\n      swap1\n      tag_35\n      jump\t// in\n    tag_105:\n      0x20\n      mload(0x40)\n      dup1\n      dup4\n      sub\n      dup2\n      dup7\n      gas\n      staticcall\n      iszero\n      dup1\n      iszero\n      tag_107\n      jumpi\n      returndatasize\n      0x00\n      dup1\n      returndatacopy\n      revert(0x00, returndatasize)\n    tag_107:\n      pop\n      pop\n      pop\n      pop\n      mload(0x40)\n      returndatasize\n      not(0x1f)\n      0x1f\n      dup3\n      add\n      and\n      dup3\n      add\n      dup1\n      0x40\n      mstore\n      pop\n      dup2\n      add\n      swap1\n      tag_108\n      swap2\n      swap1\n      tag_109\n      jump\t// in\n    tag_108:\n        /* \"contracts/Hook.sol\":3289:3335  uint _balance = ERC20.balanceOf(address(this)) */\n      swap1\n      pop\n        /* \"contracts/Hook.sol\":3345:3350  ERC20 */\n      dup2\n        /* \"contracts/Hook.sol\":3345:3359  ERC20.transfer */\n      0xffffffffffffffffffffffffffffffffffffffff\n      and\n      0xa9059cbb\n        /* \"contracts/Hook.sol\":3360:3370  msg.sender */\n      caller\n        /* \"contracts/Hook.sol\":3371:3379  _balance */\n      dup4\n        /* \"contracts/Hook.sol\":3345:3380  ERC20.transfer(msg.sender,_balance) */\n      mload(0x40)\n      dup4\n      0xffffffff\n      and\n      0xe0\n      shl\n      dup2\n      mstore\n      0x04\n      add\n      tag_110\n      swap3\n      swap2\n      swap1\n      tag_111\n      jump\t// in\n    tag_110:\n      0x20\n      mload(0x40)\n      dup1\n      dup4\n      sub\n      dup2\n      0x00\n      dup8\n      gas\n      call\n      iszero\n      dup1\n      iszero\n      tag_113\n      jumpi\n      returndatasize\n      0x00\n      dup1\n      returndatacopy\n      revert(0x00, returndatasize)\n    tag_113:\n      pop\n      pop\n      pop\n      pop\n      mload(0x40)\n      returndatasize\n      not(0x1f)\n      0x1f\n      dup3\n      add\n      and\n      dup3\n      add\n      dup1\n      0x40\n      mstore\n      pop\n      dup2\n      add\n      swap1\n      tag_114\n      swap2\n      swap1\n      tag_115\n      jump\t// in\n    tag_114:\n      pop\n        /* \"contracts/Hook.sol\":3233:3387  {... */\n      pop\n      pop\n        /* \"contracts/Hook.sol\":3185:3387  function withdraw(address _ERC20Address) public {... */\n      pop\n      jump\t// out\n        /* \"contracts/Hook.sol\":2046:2076  address public crownNFTAddress */\n    tag_54:\n      0x04\n      0x00\n      swap1\n      sload\n      swap1\n      0x0100\n      exp\n      swap1\n      div\n      0xffffffffffffffffffffffffffffffffffffffff\n      and\n      dup2\n      jump\t// out\n        /* \"contracts/Hook.sol\":2546:2572  uint public totalRoyalties */\n    tag_58:\n      sload(0x0e)\n      dup2\n      jump\t// out\n        /* \"contracts/Hook.sol\":7983:8081  function superBuy() public payable{... */\n    tag_61:\n        /* \"contracts/Hook.sol\":8027:8052  newTransaction(msg.value) */\n      tag_117\n        /* \"contracts/Hook.sol\":8042:8051  msg.value */\n      callvalue\n        /* \"contracts/Hook.sol\":8027:8041  newTransaction */\n      tag_118\n        /* \"contracts/Hook.sol\":8027:8052  newTransaction(msg.value) */\n      jump\t// in\n    tag_117:\n        /* \"contracts/Hook.sol\":8062:8074  processETH() */\n      tag_119\n        /* \"contracts/Hook.sol\":8062:8072  processETH */\n      tag_120\n        /* \"contracts/Hook.sol\":8062:8074  processETH() */\n      jump\t// in\n    tag_119:\n        /* \"contracts/Hook.sol\":7983:8081  function superBuy() public payable{... */\n      jump\t// out\n        /* \"contracts/Hook.sol\":3393:3493  function getWethBalance() public returns (uint){... */\n    tag_64:\n        /* \"contracts/Hook.sol\":3435:3439  uint */\n      0x00\n        /* \"contracts/Hook.sol\":3457:3461  WETH */\n      0x09\n      0x00\n      swap1\n      sload\n      swap1\n      0x0100\n      exp\n      swap1\n      div\n      0xffffffffffffffffffffffffffffffffffffffff\n      and\n        /* \"contracts/Hook.sol\":3457:3471  WETH.balanceOf */\n      0xffffffffffffffffffffffffffffffffffffffff\n      and\n      0x70a08231\n        /* \"contracts/Hook.sol\":3480:3484  this */\n      address\n        /* \"contracts/Hook.sol\":3457:3486  WETH.balanceOf(address(this)) */\n      mload(0x40)\n      dup3\n      0xffffffff\n      and\n      0xe0\n      shl\n      dup2\n      mstore\n      0x04\n      add\n      tag_122\n      swap2\n      swap1\n      tag_35\n      jump\t// in\n    tag_122:\n      0x20\n      mload(0x40)\n      dup1\n      dup4\n      sub\n      dup2\n      0x00\n      dup8\n      gas\n      call\n      iszero\n      dup1\n      iszero\n      tag_124\n      jumpi\n      returndatasize\n      0x00\n      dup1\n      returndatacopy\n      revert(0x00, returndatasize)\n    tag_124:\n      pop\n      pop\n      pop\n      pop\n      mload(0x40)\n      returndatasize\n      not(0x1f)\n      0x1f\n      dup3\n      add\n      and\n      dup3\n      add\n      dup1\n      0x40\n      mstore\n      pop\n      dup2\n      add\n      swap1\n      tag_125\n      swap2\n      swap1\n      tag_109\n      jump\t// in\n    tag_125:\n        /* \"contracts/Hook.sol\":3450:3486  return WETH.balanceOf(address(this)) */\n      swap1\n      pop\n        /* \"contracts/Hook.sol\":3393:3493  function getWethBalance() public returns (uint){... */\n      swap1\n      jump\t// out\n        /* \"contracts/Hook.sol\":5354:5378  uint public liquidityEth */\n    tag_68:\n      sload(0x10)\n      dup2\n      jump\t// out\n        /* \"contracts/Hook.sol\":1940:1967  address public ERC20Address */\n    tag_72:\n      0x01\n      0x00\n      swap1\n      sload\n      swap1\n      0x0100\n      exp\n      swap1\n      div\n      0xffffffffffffffffffffffffffffffffffffffff\n      and\n      dup2\n      jump\t// out\n        /* \"contracts/Hook.sol\":1863:1934  address public WethAddress = 0xB4FBF271143F4FBf7B91A5ded31805e42b2208d6 */\n    tag_76:\n      0x00\n      dup1\n      sload\n      swap1\n      0x0100\n      exp\n      swap1\n      div\n      0xffffffffffffffffffffffffffffffffffffffff\n      and\n      dup2\n      jump\t// out\n        /* \"contracts/Hook.sol\":2012:2040  address public oracleAddress */\n    tag_80:\n      0x03\n      0x00\n      swap1\n      sload\n      swap1\n      0x0100\n      exp\n      swap1\n      div\n      0xffffffffffffffffffffffffffffffffffffffff\n      and\n      dup2\n      jump\t// out\n        /* \"contracts/Hook.sol\":2082:2108  address public POAPAddress */\n    tag_84:\n      0x05\n      0x00\n      swap1\n      sload\n      swap1\n      0x0100\n      exp\n      swap1\n      div\n      0xffffffffffffffffffffffffffffffffffffffff\n      and\n      dup2\n      jump\t// out\n        /* \"contracts/Hook.sol\":2200:2250  address[] public path = [WethAddress,ERC20Address] */\n    tag_89:\n      0x07\n      dup2\n      dup2\n      sload\n      dup2\n      lt\n      tag_126\n      jumpi\n      0x00\n      dup1\n      revert\n    tag_126:\n      swap1\n      0x00\n      mstore\n      keccak256(0x00, 0x20)\n      add\n      0x00\n      swap2\n      pop\n      sload\n      swap1\n      0x0100\n      exp\n      swap1\n      div\n      0xffffffffffffffffffffffffffffffffffffffff\n      and\n      dup2\n      jump\t// out\n        /* \"contracts/Hook.sol\":1973:2006  address public uniswapPairAddress */\n    tag_93:\n      0x02\n      0x00\n      swap1\n      sload\n      swap1\n      0x0100\n      exp\n      swap1\n      div\n      0xffffffffffffffffffffffffffffffffffffffff\n      and\n      dup2\n      jump\t// out\n        /* \"contracts/Hook.sol\":3500:3629  function getLastEthRecieved() public view returns (uint){... */\n    tag_97:\n        /* \"contracts/Hook.sol\":3551:3555  uint */\n      0x00\n        /* \"contracts/Hook.sol\":3573:3594  transactionFromPOAPId */\n      0x0c\n        /* \"contracts/Hook.sol\":3573:3610  transactionFromPOAPId[POAPIds.length] */\n      0x00\n        /* \"contracts/Hook.sol\":3595:3602  POAPIds */\n      0x0d\n        /* \"contracts/Hook.sol\":3595:3609  POAPIds.length */\n      dup1\n      sload\n      swap1\n      pop\n        /* \"contracts/Hook.sol\":3573:3610  transactionFromPOAPId[POAPIds.length] */\n      dup2\n      mstore\n      0x20\n      add\n      swap1\n      dup2\n      mstore\n      0x20\n      add\n      0x00\n      keccak256\n        /* \"contracts/Hook.sol\":3573:3622  transactionFromPOAPId[POAPIds.length].receivedEth */\n      0x02\n      add\n      sload\n        /* \"contracts/Hook.sol\":3566:3622  return transactionFromPOAPId[POAPIds.length].receivedEth */\n      swap1\n      pop\n        /* \"contracts/Hook.sol\":3500:3629  function getLastEthRecieved() public view returns (uint){... */\n      swap1\n      jump\t// out\n        /* \"contracts/Hook.sol\":3639:4022  function percentLiquidity() public view returns (uint){... */\n    tag_101:\n        /* \"contracts/Hook.sol\":3688:3692  uint */\n      0x00\n        /* \"contracts/Hook.sol\":3747:3758  uint supply */\n      dup1\n        /* \"contracts/Hook.sol\":3768:3780  ERC20Address */\n      0x01\n      0x00\n      swap1\n      sload\n      swap1\n      0x0100\n      exp\n      swap1\n      div\n      0xffffffffffffffffffffffffffffffffffffffff\n      and\n        /* \"contracts/Hook.sol\":3761:3793  IERC20(ERC20Address).totalSupply */\n      0xffffffffffffffffffffffffffffffffffffffff\n      and\n      0x18160ddd\n        /* \"contracts/Hook.sol\":3761:3795  IERC20(ERC20Address).totalSupply() */\n      mload(0x40)\n      dup2\n      0xffffffff\n      and\n      0xe0\n      shl\n      dup2\n      mstore\n      0x04\n      add\n      0x20\n      mload(0x40)\n      dup1\n      dup4\n      sub\n      dup2\n      dup7\n      gas\n      staticcall\n      iszero\n      dup1\n      iszero\n      tag_131\n      jumpi\n      returndatasize\n      0x00\n      dup1\n      returndatacopy\n      revert(0x00, returndatasize)\n    tag_131:\n      pop\n      pop\n      pop\n      pop\n      mload(0x40)\n      returndatasize\n      not(0x1f)\n      0x1f\n      dup3\n      add\n      and\n      dup3\n      add\n      dup1\n      0x40\n      mstore\n      pop\n      dup2\n      add\n      swap1\n      tag_132\n      swap2\n      swap1\n      tag_109\n      jump\t// in\n    tag_132:\n        /* \"contracts/Hook.sol\":3747:3795  uint supply = IERC20(ERC20Address).totalSupply() */\n      swap1\n      pop\n        /* \"contracts/Hook.sol\":3851:3865  uint liquidity */\n      0x00\n        /* \"contracts/Hook.sol\":3873:3885  ERC20Address */\n      0x01\n      0x00\n      swap1\n      sload\n      swap1\n      0x0100\n      exp\n      swap1\n      div\n      0xffffffffffffffffffffffffffffffffffffffff\n      and\n        /* \"contracts/Hook.sol\":3866:3896  IERC20(ERC20Address).balanceOf */\n      0xffffffffffffffffffffffffffffffffffffffff\n      and\n      0x70a08231\n        /* \"contracts/Hook.sol\":3897:3915  uniswapPairAddress */\n      0x02\n      0x00\n      swap1\n      sload\n      swap1\n      0x0100\n      exp\n      swap1\n      div\n      0xffffffffffffffffffffffffffffffffffffffff\n      and\n        /* \"contracts/Hook.sol\":3866:3916  IERC20(ERC20Address).balanceOf(uniswapPairAddress) */\n      mload(0x40)\n      dup3\n      0xffffffff\n      and\n      0xe0\n      shl\n      dup2\n      mstore\n      0x04\n      add\n      tag_133\n      swap2\n      swap1\n      tag_35\n      jump\t// in\n    tag_133:\n      0x20\n      mload(0x40)\n      dup1\n      dup4\n      sub\n      dup2\n      dup7\n      gas\n      staticcall\n      iszero\n      dup1\n      iszero\n      tag_135\n      jumpi\n      returndatasize\n      0x00\n      dup1\n      returndatacopy\n      revert(0x00, returndatasize)\n    tag_135:\n      pop\n      pop\n      pop\n      pop\n      mload(0x40)\n      returndatasize\n      not(0x1f)\n      0x1f\n      dup3\n      add\n      and\n      dup3\n      add\n      dup1\n      0x40\n      mstore\n      pop\n      dup2\n      add\n      swap1\n      tag_136\n      swap2\n      swap1\n      tag_109\n      jump\t// in\n    tag_136:\n        /* \"contracts/Hook.sol\":3851:3916  uint liquidity=IERC20(ERC20Address).balanceOf(uniswapPairAddress) */\n      swap1\n      pop\n        /* \"contracts/Hook.sol\":4008:4014  supply */\n      dup2\n        /* \"contracts/Hook.sol\":4004:4007  100 */\n      0x64\n        /* \"contracts/Hook.sol\":3994:4003  liquidity */\n      dup3\n        /* \"contracts/Hook.sol\":3994:4007  liquidity*100 */\n      tag_137\n      swap2\n      swap1\n      tag_138\n      jump\t// in\n    tag_137:\n        /* \"contracts/Hook.sol\":3994:4014  liquidity*100/supply */\n      tag_139\n      swap2\n      swap1\n      tag_140\n      jump\t// in\n    tag_139:\n        /* \"contracts/Hook.sol\":3987:4015  return(liquidity*100/supply) */\n      swap3\n      pop\n      pop\n      pop\n        /* \"contracts/Hook.sol\":3639:4022  function percentLiquidity() public view returns (uint){... */\n      swap1\n      jump\t// out\n        /* \"contracts/Hook.sol\":2876:3175  function newTransaction ( uint _receivedEth) internal {... */\n    tag_118:\n        /* \"contracts/Hook.sol\":2940:2951  uint POAPId */\n      0x00\n        /* \"contracts/Hook.sol\":2954:2961  POAPIds */\n      0x0d\n        /* \"contracts/Hook.sol\":2954:2968  POAPIds.length */\n      dup1\n      sload\n      swap1\n      pop\n        /* \"contracts/Hook.sol\":2940:2968  uint POAPId = POAPIds.length */\n      swap1\n      pop\n        /* \"contracts/Hook.sol\":2978:3009  Transaction storage transaction */\n      0x00\n        /* \"contracts/Hook.sol\":3012:3033  transactionFromPOAPId */\n      0x0c\n        /* \"contracts/Hook.sol\":3012:3049  transactionFromPOAPId[POAPIds.length] */\n      0x00\n        /* \"contracts/Hook.sol\":3034:3041  POAPIds */\n      0x0d\n        /* \"contracts/Hook.sol\":3034:3048  POAPIds.length */\n      dup1\n      sload\n      swap1\n      pop\n        /* \"contracts/Hook.sol\":3012:3049  transactionFromPOAPId[POAPIds.length] */\n      dup2\n      mstore\n      0x20\n      add\n      swap1\n      dup2\n      mstore\n      0x20\n      add\n      0x00\n      keccak256\n        /* \"contracts/Hook.sol\":2978:3049  Transaction storage transaction = transactionFromPOAPId[POAPIds.length] */\n      swap1\n      pop\n        /* \"contracts/Hook.sol\":3080:3086  POAPId */\n      dup2\n        /* \"contracts/Hook.sol\":3059:3070  transaction */\n      dup2\n        /* \"contracts/Hook.sol\":3059:3077  transaction.POAPId */\n      0x00\n      add\n        /* \"contracts/Hook.sol\":3059:3086  transaction.POAPId = POAPId */\n      dup2\n      swap1\n      sstore\n      pop\n        /* \"contracts/Hook.sol\":3122:3134  _receivedEth */\n      dup3\n        /* \"contracts/Hook.sol\":3096:3107  transaction */\n      dup2\n        /* \"contracts/Hook.sol\":3096:3119  transaction.receivedEth */\n      0x02\n      add\n        /* \"contracts/Hook.sol\":3096:3134  transaction.receivedEth = _receivedEth */\n      dup2\n      swap1\n      sstore\n      pop\n        /* \"contracts/Hook.sol\":3144:3151  POAPIds */\n      0x0d\n        /* \"contracts/Hook.sol\":3157:3163  POAPId */\n      dup3\n        /* \"contracts/Hook.sol\":3144:3164  POAPIds.push(POAPId) */\n      swap1\n      dup1\n      0x01\n      dup2\n      sload\n      add\n      dup1\n      dup3\n      sstore\n      dup1\n      swap2\n      pop\n      pop\n      0x01\n      swap1\n      sub\n      swap1\n      0x00\n      mstore\n      keccak256(0x00, 0x20)\n      add\n      0x00\n      swap1\n      swap2\n      swap1\n      swap2\n      swap1\n      swap2\n      pop\n      sstore\n        /* \"contracts/Hook.sol\":2930:3175  {... */\n      pop\n      pop\n        /* \"contracts/Hook.sol\":2876:3175  function newTransaction ( uint _receivedEth) internal {... */\n      pop\n      jump\t// out\n        /* \"contracts/Hook.sol\":6308:7976  function processETH() internal{... */\n    tag_120:\n        /* \"contracts/Hook.sol\":6348:6361  uint msgValue */\n      0x00\n        /* \"contracts/Hook.sol\":6364:6373  msg.value */\n      callvalue\n        /* \"contracts/Hook.sol\":6348:6373  uint msgValue = msg.value */\n      swap1\n      pop\n        /* \"contracts/Hook.sol\":6393:6394  0 */\n      0x00\n        /* \"contracts/Hook.sol\":6386:6392  buyEth */\n      sload(0x0f)\n        /* \"contracts/Hook.sol\":6386:6394  buyEth>0 */\n      gt\n        /* \"contracts/Hook.sol\":6383:6633  if(buyEth>0){... */\n      iszero\n      tag_144\n      jumpi\n        /* \"contracts/Hook.sol\":6409:6422  uint _balance */\n      0x00\n        /* \"contracts/Hook.sol\":6425:6446  address(this).balance */\n      selfbalance\n        /* \"contracts/Hook.sol\":6409:6446  uint _balance = address(this).balance */\n      swap1\n      pop\n        /* \"contracts/Hook.sol\":6460:6478  buyAndBurn(buyEth) */\n      tag_145\n        /* \"contracts/Hook.sol\":6471:6477  buyEth */\n      sload(0x0f)\n        /* \"contracts/Hook.sol\":6460:6470  buyAndBurn */\n      tag_146\n        /* \"contracts/Hook.sol\":6460:6478  buyAndBurn(buyEth) */\n      jump\t// in\n    tag_145:\n        /* \"contracts/Hook.sol\":6492:6508  uint _newBalance */\n      0x00\n        /* \"contracts/Hook.sol\":6511:6532  address(this).balance */\n      selfbalance\n        /* \"contracts/Hook.sol\":6492:6532  uint _newBalance = address(this).balance */\n      swap1\n      pop\n        /* \"contracts/Hook.sol\":6546:6562  uint _difference */\n      0x00\n        /* \"contracts/Hook.sol\":6576:6587  _newBalance */\n      dup2\n        /* \"contracts/Hook.sol\":6565:6573  _balance */\n      dup4\n        /* \"contracts/Hook.sol\":6565:6587  _balance - _newBalance */\n      tag_147\n      swap2\n      swap1\n      tag_148\n      jump\t// in\n    tag_147:\n        /* \"contracts/Hook.sol\":6546:6587  uint _difference = _balance - _newBalance */\n      swap1\n      pop\n        /* \"contracts/Hook.sol\":6611:6622  _difference */\n      dup1\n        /* \"contracts/Hook.sol\":6601:6607  buyEth */\n      0x0f\n      0x00\n        /* \"contracts/Hook.sol\":6601:6622  buyEth -= _difference */\n      dup3\n      dup3\n      sload\n      tag_149\n      swap2\n      swap1\n      tag_148\n      jump\t// in\n    tag_149:\n      swap3\n      pop\n      pop\n      dup2\n      swap1\n      sstore\n      pop\n        /* \"contracts/Hook.sol\":6395:6633  {... */\n      pop\n      pop\n      pop\n        /* \"contracts/Hook.sol\":6383:6633  if(buyEth>0){... */\n    tag_144:\n        /* \"contracts/Hook.sol\":6658:6659  0 */\n      0x00\n        /* \"contracts/Hook.sol\":6645:6657  liquidityEth */\n      sload(0x10)\n        /* \"contracts/Hook.sol\":6645:6659  liquidityEth>0 */\n      gt\n        /* \"contracts/Hook.sol\":6642:6916  if(liquidityEth>0){... */\n      iszero\n      tag_150\n      jumpi\n        /* \"contracts/Hook.sol\":6674:6687  uint _balance */\n      0x00\n        /* \"contracts/Hook.sol\":6690:6711  address(this).balance */\n      selfbalance\n        /* \"contracts/Hook.sol\":6674:6711  uint _balance = address(this).balance */\n      swap1\n      pop\n        /* \"contracts/Hook.sol\":6725:6755  provideLiquidity(liquidityEth) */\n      tag_151\n        /* \"contracts/Hook.sol\":6742:6754  liquidityEth */\n      sload(0x10)\n        /* \"contracts/Hook.sol\":6725:6741  provideLiquidity */\n      tag_152\n        /* \"contracts/Hook.sol\":6725:6755  provideLiquidity(liquidityEth) */\n      jump\t// in\n    tag_151:\n      pop\n        /* \"contracts/Hook.sol\":6769:6785  uint _newBalance */\n      0x00\n        /* \"contracts/Hook.sol\":6788:6809  address(this).balance */\n      selfbalance\n        /* \"contracts/Hook.sol\":6769:6809  uint _newBalance = address(this).balance */\n      swap1\n      pop\n        /* \"contracts/Hook.sol\":6823:6839  uint _difference */\n      0x00\n        /* \"contracts/Hook.sol\":6853:6864  _newBalance */\n      dup2\n        /* \"contracts/Hook.sol\":6842:6850  _balance */\n      dup4\n        /* \"contracts/Hook.sol\":6842:6864  _balance - _newBalance */\n      tag_153\n      swap2\n      swap1\n      tag_148\n      jump\t// in\n    tag_153:\n        /* \"contracts/Hook.sol\":6823:6864  uint _difference = _balance - _newBalance */\n      swap1\n      pop\n        /* \"contracts/Hook.sol\":6894:6905  _difference */\n      dup1\n        /* \"contracts/Hook.sol\":6878:6890  liquidityEth */\n      0x10\n      0x00\n        /* \"contracts/Hook.sol\":6878:6905  liquidityEth -= _difference */\n      dup3\n      dup3\n      sload\n      tag_154\n      swap2\n      swap1\n      tag_148\n      jump\t// in\n    tag_154:\n      swap3\n      pop\n      pop\n      dup2\n      swap1\n      sstore\n      pop\n        /* \"contracts/Hook.sol\":6660:6916  {... */\n      pop\n      pop\n      pop\n        /* \"contracts/Hook.sol\":6642:6916  if(liquidityEth>0){... */\n    tag_150:\n        /* \"contracts/Hook.sol\":6946:6947  1 */\n      0x01\n        /* \"contracts/Hook.sol\":6928:6935  POAPIds */\n      0x0d\n        /* \"contracts/Hook.sol\":6928:6942  POAPIds.length */\n      dup1\n      sload\n      swap1\n      pop\n        /* \"contracts/Hook.sol\":6928:6947  POAPIds.length == 1 */\n      sub\n        /* \"contracts/Hook.sol\":6925:7162  if(POAPIds.length == 1){... */\n      iszero\n      tag_156\n      jumpi\n        /* \"contracts/Hook.sol\":6986:7008  address previousHolder */\n      0x00\n        /* \"contracts/Hook.sol\":7011:7032  transactionFromPOAPId */\n      0x0c\n        /* \"contracts/Hook.sol\":7011:7051  transactionFromPOAPId[POAPIds.length -2] */\n      0x00\n        /* \"contracts/Hook.sol\":7049:7050  2 */\n      0x02\n        /* \"contracts/Hook.sol\":7033:7040  POAPIds */\n      0x0d\n        /* \"contracts/Hook.sol\":7033:7047  POAPIds.length */\n      dup1\n      sload\n      swap1\n      pop\n        /* \"contracts/Hook.sol\":7033:7050  POAPIds.length -2 */\n      tag_157\n      swap2\n      swap1\n      tag_148\n      jump\t// in\n    tag_157:\n        /* \"contracts/Hook.sol\":7011:7051  transactionFromPOAPId[POAPIds.length -2] */\n      dup2\n      mstore\n      0x20\n      add\n      swap1\n      dup2\n      mstore\n      0x20\n      add\n      0x00\n      keccak256\n        /* \"contracts/Hook.sol\":7011:7061  transactionFromPOAPId[POAPIds.length -2].purchaser */\n      0x01\n      add\n      0x00\n      swap1\n      sload\n      swap1\n      0x0100\n      exp\n      swap1\n      div\n      0xffffffffffffffffffffffffffffffffffffffff\n      and\n        /* \"contracts/Hook.sol\":6986:7061  address previousHolder = transactionFromPOAPId[POAPIds.length -2].purchaser */\n      swap1\n      pop\n        /* \"contracts/Hook.sol\":7075:7112  erc20ToPreviousHolder(previousHolder) */\n      tag_158\n        /* \"contracts/Hook.sol\":7097:7111  previousHolder */\n      dup2\n        /* \"contracts/Hook.sol\":7075:7096  erc20ToPreviousHolder */\n      tag_159\n        /* \"contracts/Hook.sol\":7075:7112  erc20ToPreviousHolder(previousHolder) */\n      jump\t// in\n    tag_158:\n        /* \"contracts/Hook.sol\":7126:7130  POAP */\n      0x08\n      0x00\n      swap1\n      sload\n      swap1\n      0x0100\n      exp\n      swap1\n      div\n      0xffffffffffffffffffffffffffffffffffffffff\n      and\n        /* \"contracts/Hook.sol\":7126:7135  POAP.mint */\n      0xffffffffffffffffffffffffffffffffffffffff\n      and\n      0x6a627842\n        /* \"contracts/Hook.sol\":7136:7150  previousHolder */\n      dup3\n        /* \"contracts/Hook.sol\":7126:7151  POAP.mint(previousHolder) */\n      mload(0x40)\n      dup3\n      0xffffffff\n      and\n      0xe0\n      shl\n      dup2\n      mstore\n      0x04\n      add\n      tag_160\n      swap2\n      swap1\n      tag_35\n      jump\t// in\n    tag_160:\n      0x00\n      mload(0x40)\n      dup1\n      dup4\n      sub\n      dup2\n      0x00\n      dup8\n      dup1\n      extcodesize\n      iszero\n      dup1\n      iszero\n      tag_161\n      jumpi\n      0x00\n      dup1\n      revert\n    tag_161:\n      pop\n      gas\n      call\n      iszero\n      dup1\n      iszero\n      tag_163\n      jumpi\n      returndatasize\n      0x00\n      dup1\n      returndatacopy\n      revert(0x00, returndatasize)\n    tag_163:\n      pop\n      pop\n      pop\n      pop\n        /* \"contracts/Hook.sol\":6972:7162  {... */\n      pop\n        /* \"contracts/Hook.sol\":6925:7162  if(POAPIds.length == 1){... */\n    tag_156:\n        /* \"contracts/Hook.sol\":7171:7193  uint _percentLiquidity */\n      0x00\n        /* \"contracts/Hook.sol\":7196:7214  percentLiquidity() */\n      tag_164\n        /* \"contracts/Hook.sol\":7196:7212  percentLiquidity */\n      tag_101\n        /* \"contracts/Hook.sol\":7196:7214  percentLiquidity() */\n      jump\t// in\n    tag_164:\n        /* \"contracts/Hook.sol\":7171:7214  uint _percentLiquidity = percentLiquidity() */\n      swap1\n      pop\n        /* \"contracts/Hook.sol\":7294:7296  20 */\n      0x14\n        /* \"contracts/Hook.sol\":7276:7293  _percentLiquidity */\n      dup2\n        /* \"contracts/Hook.sol\":7276:7296  _percentLiquidity>20 */\n      gt\n        /* \"contracts/Hook.sol\":7273:7970  if(_percentLiquidity>20){... */\n      iszero\n      tag_165\n      jumpi\n        /* \"contracts/Hook.sol\":7311:7324  uint _balance */\n      0x00\n        /* \"contracts/Hook.sol\":7327:7348  address(this).balance */\n      selfbalance\n        /* \"contracts/Hook.sol\":7311:7348  uint _balance = address(this).balance */\n      swap1\n      pop\n        /* \"contracts/Hook.sol\":7362:7383  buyAndBurn(msg.value) */\n      tag_166\n        /* \"contracts/Hook.sol\":7373:7382  msg.value */\n      callvalue\n        /* \"contracts/Hook.sol\":7362:7372  buyAndBurn */\n      tag_146\n        /* \"contracts/Hook.sol\":7362:7383  buyAndBurn(msg.value) */\n      jump\t// in\n    tag_166:\n        /* \"contracts/Hook.sol\":7397:7413  uint _newBalance */\n      0x00\n        /* \"contracts/Hook.sol\":7416:7437  address(this).balance */\n      selfbalance\n        /* \"contracts/Hook.sol\":7397:7437  uint _newBalance = address(this).balance */\n      swap1\n      pop\n        /* \"contracts/Hook.sol\":7451:7467  uint _difference */\n      0x00\n        /* \"contracts/Hook.sol\":7481:7492  _newBalance */\n      dup2\n        /* \"contracts/Hook.sol\":7470:7478  _balance */\n      dup4\n        /* \"contracts/Hook.sol\":7470:7492  _balance - _newBalance */\n      tag_167\n      swap2\n      swap1\n      tag_148\n      jump\t// in\n    tag_167:\n        /* \"contracts/Hook.sol\":7451:7492  uint _difference = _balance - _newBalance */\n      swap1\n      pop\n        /* \"contracts/Hook.sol\":7506:7534  uint _amountLeftFromMsgValue */\n      0x00\n        /* \"contracts/Hook.sol\":7548:7559  _difference */\n      dup2\n        /* \"contracts/Hook.sol\":7537:7545  msgValue */\n      dup7\n        /* \"contracts/Hook.sol\":7537:7559  msgValue - _difference */\n      tag_168\n      swap2\n      swap1\n      tag_148\n      jump\t// in\n    tag_168:\n        /* \"contracts/Hook.sol\":7506:7559  uint _amountLeftFromMsgValue = msgValue - _difference */\n      swap1\n      pop\n        /* \"contracts/Hook.sol\":7583:7606  _amountLeftFromMsgValue */\n      dup1\n        /* \"contracts/Hook.sol\":7573:7579  buyEth */\n      0x0f\n      0x00\n        /* \"contracts/Hook.sol\":7573:7606  buyEth += _amountLeftFromMsgValue */\n      dup3\n      dup3\n      sload\n      tag_169\n      swap2\n      swap1\n      tag_170\n      jump\t// in\n    tag_169:\n      swap3\n      pop\n      pop\n      dup2\n      swap1\n      sstore\n      pop\n        /* \"contracts/Hook.sol\":7297:7618  {... */\n      pop\n      pop\n      pop\n      pop\n        /* \"contracts/Hook.sol\":7273:7970  if(_percentLiquidity>20){... */\n      jump(tag_171)\n    tag_165:\n        /* \"contracts/Hook.sol\":7638:7651  uint _balance */\n      0x00\n        /* \"contracts/Hook.sol\":7654:7675  address(this).balance */\n      selfbalance\n        /* \"contracts/Hook.sol\":7638:7675  uint _balance = address(this).balance */\n      swap1\n      pop\n        /* \"contracts/Hook.sol\":7689:7729  provideLiquidity(liquidityEth+msg.value) */\n      tag_172\n        /* \"contracts/Hook.sol\":7719:7728  msg.value */\n      callvalue\n        /* \"contracts/Hook.sol\":7706:7718  liquidityEth */\n      sload(0x10)\n        /* \"contracts/Hook.sol\":7706:7728  liquidityEth+msg.value */\n      tag_173\n      swap2\n      swap1\n      tag_170\n      jump\t// in\n    tag_173:\n        /* \"contracts/Hook.sol\":7689:7705  provideLiquidity */\n      tag_152\n        /* \"contracts/Hook.sol\":7689:7729  provideLiquidity(liquidityEth+msg.value) */\n      jump\t// in\n    tag_172:\n      pop\n        /* \"contracts/Hook.sol\":7743:7759  uint _newBalance */\n      0x00\n        /* \"contracts/Hook.sol\":7762:7783  address(this).balance */\n      selfbalance\n        /* \"contracts/Hook.sol\":7743:7783  uint _newBalance = address(this).balance */\n      swap1\n      pop\n        /* \"contracts/Hook.sol\":7797:7813  uint _difference */\n      0x00\n        /* \"contracts/Hook.sol\":7827:7838  _newBalance */\n      dup2\n        /* \"contracts/Hook.sol\":7816:7824  _balance */\n      dup4\n        /* \"contracts/Hook.sol\":7816:7838  _balance - _newBalance */\n      tag_174\n      swap2\n      swap1\n      tag_148\n      jump\t// in\n    tag_174:\n        /* \"contracts/Hook.sol\":7797:7838  uint _difference = _balance - _newBalance */\n      swap1\n      pop\n        /* \"contracts/Hook.sol\":7852:7880  uint _amountLeftFromMsgValue */\n      0x00\n        /* \"contracts/Hook.sol\":7894:7905  _difference */\n      dup2\n        /* \"contracts/Hook.sol\":7883:7891  msgValue */\n      dup7\n        /* \"contracts/Hook.sol\":7883:7905  msgValue - _difference */\n      tag_175\n      swap2\n      swap1\n      tag_148\n      jump\t// in\n    tag_175:\n        /* \"contracts/Hook.sol\":7852:7905  uint _amountLeftFromMsgValue = msgValue - _difference */\n      swap1\n      pop\n        /* \"contracts/Hook.sol\":7935:7958  _amountLeftFromMsgValue */\n      dup1\n        /* \"contracts/Hook.sol\":7919:7931  liquidityEth */\n      0x10\n      0x00\n        /* \"contracts/Hook.sol\":7919:7958  liquidityEth += _amountLeftFromMsgValue */\n      dup3\n      dup3\n      sload\n      tag_176\n      swap2\n      swap1\n      tag_170\n      jump\t// in\n    tag_176:\n      swap3\n      pop\n      pop\n      dup2\n      swap1\n      sstore\n      pop\n        /* \"contracts/Hook.sol\":7624:7970  {... */\n      pop\n      pop\n      pop\n      pop\n        /* \"contracts/Hook.sol\":7273:7970  if(_percentLiquidity>20){... */\n    tag_171:\n        /* \"contracts/Hook.sol\":6338:7976  {... */\n      pop\n      pop\n        /* \"contracts/Hook.sol\":6308:7976  function processETH() internal{... */\n      jump\t// out\n        /* \"contracts/Hook.sol\":5857:6005  function buyAndBurn(uint _buyEth) internal{... */\n    tag_146:\n        /* \"contracts/Hook.sol\":5909:5920  uint tokens */\n      0x00\n        /* \"contracts/Hook.sol\":5923:5941  buyTokens(_buyEth) */\n      tag_178\n        /* \"contracts/Hook.sol\":5933:5940  _buyEth */\n      dup3\n        /* \"contracts/Hook.sol\":5923:5932  buyTokens */\n      tag_179\n        /* \"contracts/Hook.sol\":5923:5941  buyTokens(_buyEth) */\n      jump\t// in\n    tag_178:\n        /* \"contracts/Hook.sol\":5909:5941  uint tokens = buyTokens(_buyEth) */\n      swap1\n      pop\n        /* \"contracts/Hook.sol\":5960:5972  ERC20Address */\n      0x01\n      0x00\n      swap1\n      sload\n      swap1\n      0x0100\n      exp\n      swap1\n      div\n      0xffffffffffffffffffffffffffffffffffffffff\n      and\n        /* \"contracts/Hook.sol\":5951:5978  WethLike(ERC20Address).burn */\n      0xffffffffffffffffffffffffffffffffffffffff\n      and\n      0x9dc29fac\n        /* \"contracts/Hook.sol\":5979:5989  msg.sender */\n      caller\n        /* \"contracts/Hook.sol\":5991:5997  tokens */\n      dup4\n        /* \"contracts/Hook.sol\":5951:5998  WethLike(ERC20Address).burn(msg.sender, tokens) */\n      mload(0x40)\n      dup4\n      0xffffffff\n      and\n      0xe0\n      shl\n      dup2\n      mstore\n      0x04\n      add\n      tag_180\n      swap3\n      swap2\n      swap1\n      tag_111\n      jump\t// in\n    tag_180:\n      0x00\n      mload(0x40)\n      dup1\n      dup4\n      sub\n      dup2\n      0x00\n      dup8\n      dup1\n      extcodesize\n      iszero\n      dup1\n      iszero\n      tag_181\n      jumpi\n      0x00\n      dup1\n      revert\n    tag_181:\n      pop\n      gas\n      call\n      iszero\n      dup1\n      iszero\n      tag_183\n      jumpi\n      returndatasize\n      0x00\n      dup1\n      returndatacopy\n      revert(0x00, returndatasize)\n    tag_183:\n      pop\n      pop\n      pop\n      pop\n        /* \"contracts/Hook.sol\":5899:6005  {... */\n      pop\n        /* \"contracts/Hook.sol\":5857:6005  function buyAndBurn(uint _buyEth) internal{... */\n      pop\n      jump\t// out\n        /* \"contracts/Hook.sol\":4028:5324  function provideLiquidity(uint _liquidityEth) internal returns (uint){... */\n    tag_152:\n        /* \"contracts/Hook.sol\":4092:4096  uint */\n      0x00\n        /* \"contracts/Hook.sol\":4116:4143  uint ERC20LiquidityProvided */\n      dup1\n        /* \"contracts/Hook.sol\":4223:4247  uint currentERC20Balance */\n      0x00\n        /* \"contracts/Hook.sol\":4257:4269  ERC20Address */\n      0x01\n      0x00\n      swap1\n      sload\n      swap1\n      0x0100\n      exp\n      swap1\n      div\n      0xffffffffffffffffffffffffffffffffffffffff\n      and\n        /* \"contracts/Hook.sol\":4250:4280  IERC20(ERC20Address).balanceOf */\n      0xffffffffffffffffffffffffffffffffffffffff\n      and\n      0x70a08231\n        /* \"contracts/Hook.sol\":4289:4293  this */\n      address\n        /* \"contracts/Hook.sol\":4250:4295  IERC20(ERC20Address).balanceOf(address(this)) */\n      mload(0x40)\n      dup3\n      0xffffffff\n      and\n      0xe0\n      shl\n      dup2\n      mstore\n      0x04\n      add\n      tag_185\n      swap2\n      swap1\n      tag_35\n      jump\t// in\n    tag_185:\n      0x20\n      mload(0x40)\n      dup1\n      dup4\n      sub\n      dup2\n      dup7\n      gas\n      staticcall\n      iszero\n      dup1\n      iszero\n      tag_187\n      jumpi\n      returndatasize\n      0x00\n      dup1\n      returndatacopy\n      revert(0x00, returndatasize)\n    tag_187:\n      pop\n      pop\n      pop\n      pop\n      mload(0x40)\n      returndatasize\n      not(0x1f)\n      0x1f\n      dup3\n      add\n      and\n      dup3\n      add\n      dup1\n      0x40\n      mstore\n      pop\n      dup2\n      add\n      swap1\n      tag_188\n      swap2\n      swap1\n      tag_109\n      jump\t// in\n    tag_188:\n        /* \"contracts/Hook.sol\":4223:4295  uint currentERC20Balance = IERC20(ERC20Address).balanceOf(address(this)) */\n      swap1\n      pop\n        /* \"contracts/Hook.sol\":4378:4395  uint tokensToSend */\n      0x00\n        /* \"contracts/Hook.sol\":4454:4457  100 */\n      0x64\n        /* \"contracts/Hook.sol\":4448:4451  105 */\n      0x69\n        /* \"contracts/Hook.sol\":4398:4404  Oracle */\n      0x0a\n      0x00\n      swap1\n      sload\n      swap1\n      0x0100\n      exp\n      swap1\n      div\n      0xffffffffffffffffffffffffffffffffffffffff\n      and\n        /* \"contracts/Hook.sol\":4398:4418  Oracle.consultPrices */\n      0xffffffffffffffffffffffffffffffffffffffff\n      and\n      0x3ac35585\n        /* \"contracts/Hook.sol\":4419:4430  WethAddress */\n      0x00\n      dup1\n      sload\n      swap1\n      0x0100\n      exp\n      swap1\n      div\n      0xffffffffffffffffffffffffffffffffffffffff\n      and\n        /* \"contracts/Hook.sol\":4432:4445  _liquidityEth */\n      dup10\n        /* \"contracts/Hook.sol\":4398:4446  Oracle.consultPrices(WethAddress, _liquidityEth) */\n      mload(0x40)\n      dup4\n      0xffffffff\n      and\n      0xe0\n      shl\n      dup2\n      mstore\n      0x04\n      add\n      tag_189\n      swap3\n      swap2\n      swap1\n      tag_111\n      jump\t// in\n    tag_189:\n      0x20\n      mload(0x40)\n      dup1\n      dup4\n      sub\n      dup2\n      dup7\n      gas\n      staticcall\n      iszero\n      dup1\n      iszero\n      tag_191\n      jumpi\n      returndatasize\n      0x00\n      dup1\n      returndatacopy\n      revert(0x00, returndatasize)\n    tag_191:\n      pop\n      pop\n      pop\n      pop\n      mload(0x40)\n      returndatasize\n      not(0x1f)\n      0x1f\n      dup3\n      add\n      and\n      dup3\n      add\n      dup1\n      0x40\n      mstore\n      pop\n      dup2\n      add\n      swap1\n      tag_192\n      swap2\n      swap1\n      tag_109\n      jump\t// in\n    tag_192:\n        /* \"contracts/Hook.sol\":4398:4451  Oracle.consultPrices(WethAddress, _liquidityEth)* 105 */\n      tag_193\n      swap2\n      swap1\n      tag_138\n      jump\t// in\n    tag_193:\n        /* \"contracts/Hook.sol\":4398:4457  Oracle.consultPrices(WethAddress, _liquidityEth)* 105 / 100 */\n      tag_194\n      swap2\n      swap1\n      tag_140\n      jump\t// in\n    tag_194:\n        /* \"contracts/Hook.sol\":4378:4457  uint tokensToSend = Oracle.consultPrices(WethAddress, _liquidityEth)* 105 / 100 */\n      swap1\n      pop\n        /* \"contracts/Hook.sol\":4579:4598  currentERC20Balance */\n      dup2\n        /* \"contracts/Hook.sol\":4564:4576  tokensToSend */\n      dup2\n        /* \"contracts/Hook.sol\":4564:4598  tokensToSend > currentERC20Balance */\n      gt\n        /* \"contracts/Hook.sol\":4561:4784  if(tokensToSend > currentERC20Balance){... */\n      iszero\n      tag_195\n      jumpi\n        /* \"contracts/Hook.sol\":4622:4634  ERC20Address */\n      0x01\n      0x00\n      swap1\n      sload\n      swap1\n      0x0100\n      exp\n      swap1\n      div\n      0xffffffffffffffffffffffffffffffffffffffff\n      and\n        /* \"contracts/Hook.sol\":4613:4644  WethLike(ERC20Address).hookMint */\n      0xffffffffffffffffffffffffffffffffffffffff\n      and\n      0x96fe8349\n        /* \"contracts/Hook.sol\":4658:4677  currentERC20Balance */\n      dup4\n        /* \"contracts/Hook.sol\":4645:4657  tokensToSend */\n      dup4\n        /* \"contracts/Hook.sol\":4645:4677  tokensToSend-currentERC20Balance */\n      tag_196\n      swap2\n      swap1\n      tag_148\n      jump\t// in\n    tag_196:\n        /* \"contracts/Hook.sol\":4686:4690  this */\n      address\n        /* \"contracts/Hook.sol\":4613:4692  WethLike(ERC20Address).hookMint(tokensToSend-currentERC20Balance,address(this)) */\n      mload(0x40)\n      dup4\n      0xffffffff\n      and\n      0xe0\n      shl\n      dup2\n      mstore\n      0x04\n      add\n      tag_197\n      swap3\n      swap2\n      swap1\n      tag_198\n      jump\t// in\n    tag_197:\n      0x00\n      mload(0x40)\n      dup1\n      dup4\n      sub\n      dup2\n      0x00\n      dup8\n      dup1\n      extcodesize\n      iszero\n      dup1\n      iszero\n      tag_199\n      jumpi\n      0x00\n      dup1\n      revert\n    tag_199:\n      pop\n      gas\n      call\n      iszero\n      dup1\n      iszero\n      tag_201\n      jumpi\n      returndatasize\n      0x00\n      dup1\n      returndatacopy\n      revert(0x00, returndatasize)\n    tag_201:\n      pop\n      pop\n      pop\n      pop\n        /* \"contracts/Hook.sol\":4735:4747  ERC20Address */\n      0x01\n      0x00\n      swap1\n      sload\n      swap1\n      0x0100\n      exp\n      swap1\n      div\n      0xffffffffffffffffffffffffffffffffffffffff\n      and\n        /* \"contracts/Hook.sol\":4728:4758  IERC20(ERC20Address).balanceOf */\n      0xffffffffffffffffffffffffffffffffffffffff\n      and\n      0x70a08231\n        /* \"contracts/Hook.sol\":4767:4771  this */\n      address\n        /* \"contracts/Hook.sol\":4728:4773  IERC20(ERC20Address).balanceOf(address(this)) */\n      mload(0x40)\n      dup3\n      0xffffffff\n      and\n      0xe0\n      shl\n      dup2\n      mstore\n      0x04\n      add\n      tag_202\n      swap2\n      swap1\n      tag_35\n      jump\t// in\n    tag_202:\n      0x20\n      mload(0x40)\n      dup1\n      dup4\n      sub\n      dup2\n      dup7\n      gas\n      staticcall\n      iszero\n      dup1\n      iszero\n      tag_204\n      jumpi\n      returndatasize\n      0x00\n      dup1\n      returndatacopy\n      revert(0x00, returndatasize)\n    tag_204:\n      pop\n      pop\n      pop\n      pop\n      mload(0x40)\n      returndatasize\n      not(0x1f)\n      0x1f\n      dup3\n      add\n      and\n      dup3\n      add\n      dup1\n      0x40\n      mstore\n      pop\n      dup2\n      add\n      swap1\n      tag_205\n      swap2\n      swap1\n      tag_109\n      jump\t// in\n    tag_205:\n        /* \"contracts/Hook.sol\":4706:4773  currentERC20Balance = IERC20(ERC20Address).balanceOf(address(this)) */\n      swap2\n      pop\n        /* \"contracts/Hook.sol\":4561:4784  if(tokensToSend > currentERC20Balance){... */\n    tag_195:\n        /* \"contracts/Hook.sol\":4856:4869  UniswapRouter */\n      0x0b\n      0x00\n      swap1\n      sload\n      swap1\n      0x0100\n      exp\n      swap1\n      div\n      0xffffffffffffffffffffffffffffffffffffffff\n      and\n        /* \"contracts/Hook.sol\":4856:4885  UniswapRouter.addLiquidityETH */\n      0xffffffffffffffffffffffffffffffffffffffff\n      and\n      0xf305d719\n        /* \"contracts/Hook.sol\":4894:4907  _liquidityEth */\n      dup7\n        /* \"contracts/Hook.sol\":4918:4922  this */\n      address\n        /* \"contracts/Hook.sol\":4925:4937  tokensToSend */\n      dup5\n        /* \"contracts/Hook.sol\":4959:4962  105 */\n      0x69\n        /* \"contracts/Hook.sol\":4955:4957  95 */\n      0x5f\n        /* \"contracts/Hook.sol\":4940:4952  tokensToSend */\n      dup8\n        /* \"contracts/Hook.sol\":4940:4957  tokensToSend * 95 */\n      tag_206\n      swap2\n      swap1\n      tag_138\n      jump\t// in\n    tag_206:\n        /* \"contracts/Hook.sol\":4939:4962  (tokensToSend * 95)/105 */\n      tag_207\n      swap2\n      swap1\n      tag_140\n      jump\t// in\n    tag_207:\n        /* \"contracts/Hook.sol\":4985:4988  100 */\n      0x64\n        /* \"contracts/Hook.sol\":4981:4983  95 */\n      0x5f\n        /* \"contracts/Hook.sol\":4965:4978  _liquidityEth */\n      dup13\n        /* \"contracts/Hook.sol\":4965:4983  _liquidityEth * 95 */\n      tag_208\n      swap2\n      swap1\n      tag_138\n      jump\t// in\n    tag_208:\n        /* \"contracts/Hook.sol\":4964:4988  (_liquidityEth * 95)/100 */\n      tag_209\n      swap2\n      swap1\n      tag_140\n      jump\t// in\n    tag_209:\n        /* \"contracts/Hook.sol\":4998:5002  this */\n      address\n        /* \"contracts/Hook.sol\":5005:5019  type(uint).max */\n      0xffffffffffffffffffffffffffffffffffffffffffffffffffffffffffffffff\n        /* \"contracts/Hook.sol\":4856:5020  UniswapRouter.addLiquidityETH {value: _liquidityEth} (address(this), tokensToSend, (tokensToSend * 95)/105, (_liquidityEth * 95)/100, address(this), type(uint).max) */\n      mload(0x40)\n      dup9\n      0xffffffff\n      and\n      0xe0\n      shl\n      dup2\n      mstore\n      0x04\n      add\n      tag_210\n      swap7\n      swap6\n      swap5\n      swap4\n      swap3\n      swap2\n      swap1\n      tag_211\n      jump\t// in\n    tag_210:\n      0x60\n      mload(0x40)\n      dup1\n      dup4\n      sub\n      dup2\n      dup6\n      dup9\n      gas\n      call\n      swap4\n      pop\n      pop\n      pop\n      pop\n      dup1\n      iszero\n      tag_212\n      jumpi\n      pop\n      mload(0x40)\n      returndatasize\n      not(0x1f)\n      0x1f\n      dup3\n      add\n      and\n      dup3\n      add\n      dup1\n      0x40\n      mstore\n      pop\n      dup2\n      add\n      swap1\n      tag_213\n      swap2\n      swap1\n      tag_214\n      jump\t// in\n    tag_213:\n      0x01\n    tag_212:\n        /* \"contracts/Hook.sol\":4852:5277  try UniswapRouter.addLiquidityETH {value: _liquidityEth} (address(this), tokensToSend, (tokensToSend * 95)/105, (_liquidityEth * 95)/100, address(this), type(uint).max)... */\n      tag_215\n      jumpi\n        /* \"contracts/Hook.sol\":5237:5266  Log(\"Liquidity Not Provided\") */\n      0xcf34ef537ac33ee1ac626ca1587a0a7e8e51561e5514f8cb36afa1c5102b3bab\n      mload(0x40)\n      tag_219\n      swap1\n      tag_220\n      jump\t// in\n    tag_219:\n      mload(0x40)\n      dup1\n      swap2\n      sub\n      swap1\n      log1\n        /* \"contracts/Hook.sol\":4852:5277  try UniswapRouter.addLiquidityETH {value: _liquidityEth} (address(this), tokensToSend, (tokensToSend * 95)/105, (_liquidityEth * 95)/100, address(this), type(uint).max)... */\n      jump(tag_221)\n    tag_215:\n      pop\n      pop\n      pop\n        /* \"contracts/Hook.sol\":5048:5086  Log(\"liquidity Successfully Provided\") */\n      0xcf34ef537ac33ee1ac626ca1587a0a7e8e51561e5514f8cb36afa1c5102b3bab\n      mload(0x40)\n      tag_222\n      swap1\n      tag_223\n      jump\t// in\n    tag_222:\n      mload(0x40)\n      dup1\n      swap2\n      sub\n      swap1\n      log1\n        /* \"contracts/Hook.sol\":5154:5166  ERC20Address */\n      0x01\n      0x00\n      swap1\n      sload\n      swap1\n      0x0100\n      exp\n      swap1\n      div\n      0xffffffffffffffffffffffffffffffffffffffff\n      and\n        /* \"contracts/Hook.sol\":5147:5177  IERC20(ERC20Address).balanceOf */\n      0xffffffffffffffffffffffffffffffffffffffff\n      and\n      0x70a08231\n        /* \"contracts/Hook.sol\":5186:5190  this */\n      address\n        /* \"contracts/Hook.sol\":5147:5192  IERC20(ERC20Address).balanceOf(address(this)) */\n      mload(0x40)\n      dup3\n      0xffffffff\n      and\n      0xe0\n      shl\n      dup2\n      mstore\n      0x04\n      add\n      tag_224\n      swap2\n      swap1\n      tag_35\n      jump\t// in\n    tag_224:\n      0x20\n      mload(0x40)\n      dup1\n      dup4\n      sub\n      dup2\n      dup7\n      gas\n      staticcall\n      iszero\n      dup1\n      iszero\n      tag_226\n      jumpi\n      returndatasize\n      0x00\n      dup1\n      returndatacopy\n      revert(0x00, returndatasize)\n    tag_226:\n      pop\n      pop\n      pop\n      pop\n      mload(0x40)\n      returndatasize\n      not(0x1f)\n      0x1f\n      dup3\n      add\n      and\n      dup3\n      add\n      dup1\n      0x40\n      mstore\n      pop\n      dup2\n      add\n      swap1\n      tag_227\n      swap2\n      swap1\n      tag_109\n      jump\t// in\n    tag_227:\n        /* \"contracts/Hook.sol\":5125:5144  currentERC20Balance */\n      dup3\n        /* \"contracts/Hook.sol\":5125:5192  currentERC20Balance - IERC20(ERC20Address).balanceOf(address(this)) */\n      tag_228\n      swap2\n      swap1\n      tag_148\n      jump\t// in\n    tag_228:\n        /* \"contracts/Hook.sol\":5100:5192  ERC20LiquidityProvided = currentERC20Balance - IERC20(ERC20Address).balanceOf(address(this)) */\n      swap3\n      pop\n        /* \"contracts/Hook.sol\":4852:5277  try UniswapRouter.addLiquidityETH {value: _liquidityEth} (address(this), tokensToSend, (tokensToSend * 95)/105, (_liquidityEth * 95)/100, address(this), type(uint).max)... */\n    tag_221:\n        /* \"contracts/Hook.sol\":5294:5316  ERC20LiquidityProvided */\n      dup3\n        /* \"contracts/Hook.sol\":5286:5317  return (ERC20LiquidityProvided) */\n      swap4\n      pop\n      pop\n      pop\n      pop\n        /* \"contracts/Hook.sol\":4028:5324  function provideLiquidity(uint _liquidityEth) internal returns (uint){... */\n      swap2\n      swap1\n      pop\n      jump\t// out\n        /* \"contracts/Hook.sol\":6011:6302  function erc20ToPreviousHolder(address previousHolder) internal{... */\n    tag_159:\n        /* \"contracts/Hook.sol\":6084:6098  uint ethAmount */\n      0x00\n        /* \"contracts/Hook.sol\":6101:6122  transactionFromPOAPId */\n      0x0c\n        /* \"contracts/Hook.sol\":6101:6142  transactionFromPOAPId[POAPIds.length - 2] */\n      0x00\n        /* \"contracts/Hook.sol\":6140:6141  2 */\n      0x02\n        /* \"contracts/Hook.sol\":6123:6130  POAPIds */\n      0x0d\n        /* \"contracts/Hook.sol\":6123:6137  POAPIds.length */\n      dup1\n      sload\n      swap1\n      pop\n        /* \"contracts/Hook.sol\":6123:6141  POAPIds.length - 2 */\n      tag_230\n      swap2\n      swap1\n      tag_148\n      jump\t// in\n    tag_230:\n        /* \"contracts/Hook.sol\":6101:6142  transactionFromPOAPId[POAPIds.length - 2] */\n      dup2\n      mstore\n      0x20\n      add\n      swap1\n      dup2\n      mstore\n      0x20\n      add\n      0x00\n      keccak256\n        /* \"contracts/Hook.sol\":6101:6154  transactionFromPOAPId[POAPIds.length - 2].receivedEth */\n      0x02\n      add\n      sload\n        /* \"contracts/Hook.sol\":6084:6154  uint ethAmount = transactionFromPOAPId[POAPIds.length - 2].receivedEth */\n      swap1\n      pop\n        /* \"contracts/Hook.sol\":6164:6181  uint amountToMint */\n      0x00\n        /* \"contracts/Hook.sol\":6182:6188  Oracle */\n      0x0a\n      0x00\n      swap1\n      sload\n      swap1\n      0x0100\n      exp\n      swap1\n      div\n      0xffffffffffffffffffffffffffffffffffffffff\n      and\n        /* \"contracts/Hook.sol\":6182:6202  Oracle.consultPrices */\n      0xffffffffffffffffffffffffffffffffffffffff\n      and\n      0x3ac35585\n        /* \"contracts/Hook.sol\":6203:6214  WethAddress */\n      0x00\n      dup1\n      sload\n      swap1\n      0x0100\n      exp\n      swap1\n      div\n      0xffffffffffffffffffffffffffffffffffffffff\n      and\n        /* \"contracts/Hook.sol\":6215:6224  ethAmount */\n      dup5\n        /* \"contracts/Hook.sol\":6182:6225  Oracle.consultPrices(WethAddress,ethAmount) */\n      mload(0x40)\n      dup4\n      0xffffffff\n      and\n      0xe0\n      shl\n      dup2\n      mstore\n      0x04\n      add\n      tag_231\n      swap3\n      swap2\n      swap1\n      tag_111\n      jump\t// in\n    tag_231:\n      0x20\n      mload(0x40)\n      dup1\n      dup4\n      sub\n      dup2\n      dup7\n      gas\n      staticcall\n      iszero\n      dup1\n      iszero\n      tag_233\n      jumpi\n      returndatasize\n      0x00\n      dup1\n      returndatacopy\n      revert(0x00, returndatasize)\n    tag_233:\n      pop\n      pop\n      pop\n      pop\n      mload(0x40)\n      returndatasize\n      not(0x1f)\n      0x1f\n      dup3\n      add\n      and\n      dup3\n      add\n      dup1\n      0x40\n      mstore\n      pop\n      dup2\n      add\n      swap1\n      tag_234\n      swap2\n      swap1\n      tag_109\n      jump\t// in\n    tag_234:\n        /* \"contracts/Hook.sol\":6164:6225  uint amountToMint=Oracle.consultPrices(WethAddress,ethAmount) */\n      swap1\n      pop\n        /* \"contracts/Hook.sol\":6244:6256  ERC20Address */\n      0x01\n      0x00\n      swap1\n      sload\n      swap1\n      0x0100\n      exp\n      swap1\n      div\n      0xffffffffffffffffffffffffffffffffffffffff\n      and\n        /* \"contracts/Hook.sol\":6235:6266  WethLike(ERC20Address).hookMint */\n      0xffffffffffffffffffffffffffffffffffffffff\n      and\n      0x96fe8349\n        /* \"contracts/Hook.sol\":6267:6279  amountToMint */\n      dup3\n        /* \"contracts/Hook.sol\":6280:6294  previousHolder */\n      dup6\n        /* \"contracts/Hook.sol\":6235:6295  WethLike(ERC20Address).hookMint(amountToMint,previousHolder) */\n      mload(0x40)\n      dup4\n      0xffffffff\n      and\n      0xe0\n      shl\n      dup2\n      mstore\n      0x04\n      add\n      tag_235\n      swap3\n      swap2\n      swap1\n      tag_198\n      jump\t// in\n    tag_235:\n      0x00\n      mload(0x40)\n      dup1\n      dup4\n      sub\n      dup2\n      0x00\n      dup8\n      dup1\n      extcodesize\n      iszero\n      dup1\n      iszero\n      tag_236\n      jumpi\n      0x00\n      dup1\n      revert\n    tag_236:\n      pop\n      gas\n      call\n      iszero\n      dup1\n      iszero\n      tag_238\n      jumpi\n      returndatasize\n      0x00\n      dup1\n      returndatacopy\n      revert(0x00, returndatasize)\n    tag_238:\n      pop\n      pop\n      pop\n      pop\n        /* \"contracts/Hook.sol\":6074:6302  {... */\n      pop\n      pop\n        /* \"contracts/Hook.sol\":6011:6302  function erc20ToPreviousHolder(address previousHolder) internal{... */\n      pop\n      jump\t// out\n        /* \"contracts/Hook.sol\":5385:5851  function buyTokens(uint _buyEth) internal returns (uint){... */\n    tag_179:\n        /* \"contracts/Hook.sol\":5436:5440  uint */\n      0x00\n        /* \"contracts/Hook.sol\":5451:5475  uint numberOfTokensToBuy */\n      dup1\n        /* \"contracts/Hook.sol\":5478:5484  Oracle */\n      0x0a\n      0x00\n      swap1\n      sload\n      swap1\n      0x0100\n      exp\n      swap1\n      div\n      0xffffffffffffffffffffffffffffffffffffffff\n      and\n        /* \"contracts/Hook.sol\":5478:5498  Oracle.consultPrices */\n      0xffffffffffffffffffffffffffffffffffffffff\n      and\n      0x3ac35585\n        /* \"contracts/Hook.sol\":5499:5510  WethAddress */\n      0x00\n      dup1\n      sload\n      swap1\n      0x0100\n      exp\n      swap1\n      div\n      0xffffffffffffffffffffffffffffffffffffffff\n      and\n        /* \"contracts/Hook.sol\":5512:5519  _buyEth */\n      dup6\n        /* \"contracts/Hook.sol\":5478:5520  Oracle.consultPrices(WethAddress, _buyEth) */\n      mload(0x40)\n      dup4\n      0xffffffff\n      and\n      0xe0\n      shl\n      dup2\n      mstore\n      0x04\n      add\n      tag_240\n      swap3\n      swap2\n      swap1\n      tag_111\n      jump\t// in\n    tag_240:\n      0x20\n      mload(0x40)\n      dup1\n      dup4\n      sub\n      dup2\n      dup7\n      gas\n      staticcall\n      iszero\n      dup1\n      iszero\n      tag_242\n      jumpi\n      returndatasize\n      0x00\n      dup1\n      returndatacopy\n      revert(0x00, returndatasize)\n    tag_242:\n      pop\n      pop\n      pop\n      pop\n      mload(0x40)\n      returndatasize\n      not(0x1f)\n      0x1f\n      dup3\n      add\n      and\n      dup3\n      add\n      dup1\n      0x40\n      mstore\n      pop\n      dup2\n      add\n      swap1\n      tag_243\n      swap2\n      swap1\n      tag_109\n      jump\t// in\n    tag_243:\n        /* \"contracts/Hook.sol\":5451:5520  uint numberOfTokensToBuy = Oracle.consultPrices(WethAddress, _buyEth) */\n      swap1\n      pop\n        /* \"contracts/Hook.sol\":5530:5547  uint amountOutMin */\n      0x00\n        /* \"contracts/Hook.sol\":5575:5578  100 */\n      0x64\n        /* \"contracts/Hook.sol\":5571:5573  95 */\n      0x5f\n        /* \"contracts/Hook.sol\":5551:5570  numberOfTokensToBuy */\n      dup4\n        /* \"contracts/Hook.sol\":5551:5573  numberOfTokensToBuy*95 */\n      tag_244\n      swap2\n      swap1\n      tag_138\n      jump\t// in\n    tag_244:\n        /* \"contracts/Hook.sol\":5550:5578  (numberOfTokensToBuy*95)/100 */\n      tag_245\n      swap2\n      swap1\n      tag_140\n      jump\t// in\n    tag_245:\n        /* \"contracts/Hook.sol\":5530:5578  uint amountOutMin = (numberOfTokensToBuy*95)/100 */\n      swap1\n      pop\n        /* \"contracts/Hook.sol\":5588:5609  uint[] memory _tokens */\n      0x00\n        /* \"contracts/Hook.sol\":5623:5624  2 */\n      0x02\n        /* \"contracts/Hook.sol\":5612:5625  new uint[](2) */\n      0xffffffffffffffff\n      dup2\n      gt\n      iszero\n      tag_246\n      jumpi\n      tag_247\n      tag_248\n      jump\t// in\n    tag_247:\n    tag_246:\n      mload(0x40)\n      swap1\n      dup1\n      dup3\n      mstore\n      dup1\n      0x20\n      mul\n      0x20\n      add\n      dup3\n      add\n      0x40\n      mstore\n      dup1\n      iszero\n      tag_249\n      jumpi\n      dup2\n      0x20\n      add\n      0x20\n      dup3\n      mul\n      dup1\n      calldatasize\n      dup4\n      calldatacopy\n      dup1\n      dup3\n      add\n      swap2\n      pop\n      pop\n      swap1\n      pop\n    tag_249:\n      pop\n        /* \"contracts/Hook.sol\":5588:5625  uint[] memory _tokens = new uint[](2) */\n      swap1\n      pop\n        /* \"contracts/Hook.sol\":5646:5659  UniswapRouter */\n      0x0b\n      0x00\n      swap1\n      sload\n      swap1\n      0x0100\n      exp\n      swap1\n      div\n      0xffffffffffffffffffffffffffffffffffffffff\n      and\n        /* \"contracts/Hook.sol\":5646:5681  UniswapRouter.swapExactETHForTokens */\n      0xffffffffffffffffffffffffffffffffffffffff\n      and\n      0x7ff36ab5\n        /* \"contracts/Hook.sol\":5689:5696  _buyEth */\n      dup7\n        /* \"contracts/Hook.sol\":5698:5710  amountOutMin */\n      dup5\n        /* \"contracts/Hook.sol\":5712:5716  path */\n      0x07\n        /* \"contracts/Hook.sol\":5718:5728  msg.sender */\n      caller\n        /* \"contracts/Hook.sol\":5730:5744  type(uint).max */\n      0xffffffffffffffffffffffffffffffffffffffffffffffffffffffffffffffff\n        /* \"contracts/Hook.sol\":5646:5745  UniswapRouter.swapExactETHForTokens{value: _buyEth}(amountOutMin, path, msg.sender, type(uint).max) */\n      mload(0x40)\n      dup7\n      0xffffffff\n      and\n      0xe0\n      shl\n      dup2\n      mstore\n      0x04\n      add\n      tag_250\n      swap5\n      swap4\n      swap3\n      swap2\n      swap1\n      tag_251\n      jump\t// in\n    tag_250:\n      0x00\n      mload(0x40)\n      dup1\n      dup4\n      sub\n      dup2\n      dup6\n      dup9\n      gas\n      call\n      iszero\n      dup1\n      iszero\n      tag_253\n      jumpi\n      returndatasize\n      0x00\n      dup1\n      returndatacopy\n      revert(0x00, returndatasize)\n    tag_253:\n      pop\n      pop\n      pop\n      pop\n      pop\n      mload(0x40)\n      returndatasize\n      0x00\n      dup3\n      returndatacopy\n      returndatasize\n      not(0x1f)\n      0x1f\n      dup3\n      add\n      and\n      dup3\n      add\n      dup1\n      0x40\n      mstore\n      pop\n      dup2\n      add\n      swap1\n      tag_254\n      swap2\n      swap1\n      tag_255\n      jump\t// in\n    tag_254:\n        /* \"contracts/Hook.sol\":5636:5745  _tokens = UniswapRouter.swapExactETHForTokens{value: _buyEth}(amountOutMin, path, msg.sender, type(uint).max) */\n      swap1\n      pop\n        /* \"contracts/Hook.sol\":5824:5831  _tokens */\n      dup1\n        /* \"contracts/Hook.sol\":5832:5833  1 */\n      0x01\n        /* \"contracts/Hook.sol\":5824:5834  _tokens[1] */\n      dup2\n      mload\n      dup2\n      lt\n      tag_256\n      jumpi\n      tag_257\n      tag_258\n      jump\t// in\n    tag_257:\n    tag_256:\n      0x20\n      mul\n      0x20\n      add\n      add\n      mload\n        /* \"contracts/Hook.sol\":5817:5834  return _tokens[1] */\n      swap4\n      pop\n      pop\n      pop\n      pop\n        /* \"contracts/Hook.sol\":5385:5851  function buyTokens(uint _buyEth) internal returns (uint){... */\n      swap2\n      swap1\n      pop\n      jump\t// out\n        /* \"#utility.yul\":7:82   */\n    tag_259:\n        /* \"#utility.yul\":40:46   */\n      0x00\n        /* \"#utility.yul\":73:75   */\n      0x40\n        /* \"#utility.yul\":67:76   */\n      mload\n        /* \"#utility.yul\":57:76   */\n      swap1\n      pop\n        /* \"#utility.yul\":7:82   */\n      swap1\n      jump\t// out\n        /* \"#utility.yul\":88:205   */\n    tag_260:\n        /* \"#utility.yul\":197:198   */\n      0x00\n        /* \"#utility.yul\":194:195   */\n      dup1\n        /* \"#utility.yul\":187:199   */\n      revert\n        /* \"#utility.yul\":211:328   */\n    tag_261:\n        /* \"#utility.yul\":320:321   */\n      0x00\n        /* \"#utility.yul\":317:318   */\n      dup1\n        /* \"#utility.yul\":310:322   */\n      revert\n        /* \"#utility.yul\":334:460   */\n    tag_262:\n        /* \"#utility.yul\":371:378   */\n      0x00\n        /* \"#utility.yul\":411:453   */\n      0xffffffffffffffffffffffffffffffffffffffff\n        /* \"#utility.yul\":404:409   */\n      dup3\n        /* \"#utility.yul\":400:454   */\n      and\n        /* \"#utility.yul\":389:454   */\n      swap1\n      pop\n        /* \"#utility.yul\":334:460   */\n      swap2\n      swap1\n      pop\n      jump\t// out\n        /* \"#utility.yul\":466:562   */\n    tag_263:\n        /* \"#utility.yul\":503:510   */\n      0x00\n        /* \"#utility.yul\":532:556   */\n      tag_308\n        /* \"#utility.yul\":550:555   */\n      dup3\n        /* \"#utility.yul\":532:556   */\n      tag_262\n      jump\t// in\n    tag_308:\n        /* \"#utility.yul\":521:556   */\n      swap1\n      pop\n        /* \"#utility.yul\":466:562   */\n      swap2\n      swap1\n      pop\n      jump\t// out\n        /* \"#utility.yul\":568:690   */\n    tag_264:\n        /* \"#utility.yul\":641:665   */\n      tag_310\n        /* \"#utility.yul\":659:664   */\n      dup2\n        /* \"#utility.yul\":641:665   */\n      tag_263\n      jump\t// in\n    tag_310:\n        /* \"#utility.yul\":634:639   */\n      dup2\n        /* \"#utility.yul\":631:666   */\n      eq\n        /* \"#utility.yul\":621:684   */\n      tag_311\n      jumpi\n        /* \"#utility.yul\":680:681   */\n      0x00\n        /* \"#utility.yul\":677:678   */\n      dup1\n        /* \"#utility.yul\":670:682   */\n      revert\n        /* \"#utility.yul\":621:684   */\n    tag_311:\n        /* \"#utility.yul\":568:690   */\n      pop\n      jump\t// out\n        /* \"#utility.yul\":696:835   */\n    tag_265:\n        /* \"#utility.yul\":742:747   */\n      0x00\n        /* \"#utility.yul\":780:786   */\n      dup2\n        /* \"#utility.yul\":767:787   */\n      calldataload\n        /* \"#utility.yul\":758:787   */\n      swap1\n      pop\n        /* \"#utility.yul\":796:829   */\n      tag_313\n        /* \"#utility.yul\":823:828   */\n      dup2\n        /* \"#utility.yul\":796:829   */\n      tag_264\n      jump\t// in\n    tag_313:\n        /* \"#utility.yul\":696:835   */\n      swap3\n      swap2\n      pop\n      pop\n      jump\t// out\n        /* \"#utility.yul\":841:1170   */\n    tag_29:\n        /* \"#utility.yul\":900:906   */\n      0x00\n        /* \"#utility.yul\":949:951   */\n      0x20\n        /* \"#utility.yul\":937:946   */\n      dup3\n        /* \"#utility.yul\":928:935   */\n      dup5\n        /* \"#utility.yul\":924:947   */\n      sub\n        /* \"#utility.yul\":920:952   */\n      slt\n        /* \"#utility.yul\":917:1036   */\n      iszero\n      tag_315\n      jumpi\n        /* \"#utility.yul\":955:1034   */\n      tag_316\n      tag_260\n      jump\t// in\n    tag_316:\n        /* \"#utility.yul\":917:1036   */\n    tag_315:\n        /* \"#utility.yul\":1075:1076   */\n      0x00\n        /* \"#utility.yul\":1100:1153   */\n      tag_317\n        /* \"#utility.yul\":1145:1152   */\n      dup5\n        /* \"#utility.yul\":1136:1142   */\n      dup3\n        /* \"#utility.yul\":1125:1134   */\n      dup6\n        /* \"#utility.yul\":1121:1143   */\n      add\n        /* \"#utility.yul\":1100:1153   */\n      tag_265\n      jump\t// in\n    tag_317:\n        /* \"#utility.yul\":1090:1153   */\n      swap2\n      pop\n        /* \"#utility.yul\":1046:1163   */\n      pop\n        /* \"#utility.yul\":841:1170   */\n      swap3\n      swap2\n      pop\n      pop\n      jump\t// out\n        /* \"#utility.yul\":1176:1294   */\n    tag_266:\n        /* \"#utility.yul\":1263:1287   */\n      tag_319\n        /* \"#utility.yul\":1281:1286   */\n      dup2\n        /* \"#utility.yul\":1263:1287   */\n      tag_263\n      jump\t// in\n    tag_319:\n        /* \"#utility.yul\":1258:1261   */\n      dup3\n        /* \"#utility.yul\":1251:1288   */\n      mstore\n        /* \"#utility.yul\":1176:1294   */\n      pop\n      pop\n      jump\t// out\n        /* \"#utility.yul\":1300:1522   */\n    tag_35:\n        /* \"#utility.yul\":1393:1397   */\n      0x00\n        /* \"#utility.yul\":1431:1433   */\n      0x20\n        /* \"#utility.yul\":1420:1429   */\n      dup3\n        /* \"#utility.yul\":1416:1434   */\n      add\n        /* \"#utility.yul\":1408:1434   */\n      swap1\n      pop\n        /* \"#utility.yul\":1444:1515   */\n      tag_321\n        /* \"#utility.yul\":1512:1513   */\n      0x00\n        /* \"#utility.yul\":1501:1510   */\n      dup4\n        /* \"#utility.yul\":1497:1514   */\n      add\n        /* \"#utility.yul\":1488:1494   */\n      dup5\n        /* \"#utility.yul\":1444:1515   */\n      tag_266\n      jump\t// in\n    tag_321:\n        /* \"#utility.yul\":1300:1522   */\n      swap3\n      swap2\n      pop\n      pop\n      jump\t// out\n        /* \"#utility.yul\":1528:1605   */\n    tag_267:\n        /* \"#utility.yul\":1565:1572   */\n      0x00\n        /* \"#utility.yul\":1594:1599   */\n      dup2\n        /* \"#utility.yul\":1583:1599   */\n      swap1\n      pop\n        /* \"#utility.yul\":1528:1605   */\n      swap2\n      swap1\n      pop\n      jump\t// out\n        /* \"#utility.yul\":1611:1733   */\n    tag_268:\n        /* \"#utility.yul\":1684:1708   */\n      tag_324\n        /* \"#utility.yul\":1702:1707   */\n      dup2\n        /* \"#utility.yul\":1684:1708   */\n      tag_267\n      jump\t// in\n    tag_324:\n        /* \"#utility.yul\":1677:1682   */\n      dup2\n        /* \"#utility.yul\":1674:1709   */\n      eq\n        /* \"#utility.yul\":1664:1727   */\n      tag_325\n      jumpi\n        /* \"#utility.yul\":1723:1724   */\n      0x00\n        /* \"#utility.yul\":1720:1721   */\n      dup1\n        /* \"#utility.yul\":1713:1725   */\n      revert\n        /* \"#utility.yul\":1664:1727   */\n    tag_325:\n        /* \"#utility.yul\":1611:1733   */\n      pop\n      jump\t// out\n        /* \"#utility.yul\":1739:1878   */\n    tag_269:\n        /* \"#utility.yul\":1785:1790   */\n      0x00\n        /* \"#utility.yul\":1823:1829   */\n      dup2\n        /* \"#utility.yul\":1810:1830   */\n      calldataload\n        /* \"#utility.yul\":1801:1830   */\n      swap1\n      pop\n        /* \"#utility.yul\":1839:1872   */\n      tag_327\n        /* \"#utility.yul\":1866:1871   */\n      dup2\n        /* \"#utility.yul\":1839:1872   */\n      tag_268\n      jump\t// in\n    tag_327:\n        /* \"#utility.yul\":1739:1878   */\n      swap3\n      swap2\n      pop\n      pop\n      jump\t// out\n        /* \"#utility.yul\":1884:2213   */\n    tag_39:\n        /* \"#utility.yul\":1943:1949   */\n      0x00\n        /* \"#utility.yul\":1992:1994   */\n      0x20\n        /* \"#utility.yul\":1980:1989   */\n      dup3\n        /* \"#utility.yul\":1971:1978   */\n      dup5\n        /* \"#utility.yul\":1967:1990   */\n      sub\n        /* \"#utility.yul\":1963:1995   */\n      slt\n        /* \"#utility.yul\":1960:2079   */\n      iszero\n      tag_329\n      jumpi\n        /* \"#utility.yul\":1998:2077   */\n      tag_330\n      tag_260\n      jump\t// in\n    tag_330:\n        /* \"#utility.yul\":1960:2079   */\n    tag_329:\n        /* \"#utility.yul\":2118:2119   */\n      0x00\n        /* \"#utility.yul\":2143:2196   */\n      tag_331\n        /* \"#utility.yul\":2188:2195   */\n      dup5\n        /* \"#utility.yul\":2179:2185   */\n      dup3\n        /* \"#utility.yul\":2168:2177   */\n      dup6\n        /* \"#utility.yul\":2164:2186   */\n      add\n        /* \"#utility.yul\":2143:2196   */\n      tag_269\n      jump\t// in\n    tag_331:\n        /* \"#utility.yul\":2133:2196   */\n      swap2\n      pop\n        /* \"#utility.yul\":2089:2206   */\n      pop\n        /* \"#utility.yul\":1884:2213   */\n      swap3\n      swap2\n      pop\n      pop\n      jump\t// out\n        /* \"#utility.yul\":2219:2337   */\n    tag_270:\n        /* \"#utility.yul\":2306:2330   */\n      tag_333\n        /* \"#utility.yul\":2324:2329   */\n      dup2\n        /* \"#utility.yul\":2306:2330   */\n      tag_267\n      jump\t// in\n    tag_333:\n        /* \"#utility.yul\":2301:2304   */\n      dup3\n        /* \"#utility.yul\":2294:2331   */\n      mstore\n        /* \"#utility.yul\":2219:2337   */\n      pop\n      pop\n      jump\t// out\n        /* \"#utility.yul\":2343:2433   */\n    tag_271:\n        /* \"#utility.yul\":2377:2384   */\n      0x00\n        /* \"#utility.yul\":2420:2425   */\n      dup2\n        /* \"#utility.yul\":2413:2426   */\n      iszero\n        /* \"#utility.yul\":2406:2427   */\n      iszero\n        /* \"#utility.yul\":2395:2427   */\n      swap1\n      pop\n        /* \"#utility.yul\":2343:2433   */\n      swap2\n      swap1\n      pop\n      jump\t// out\n        /* \"#utility.yul\":2439:2548   */\n    tag_272:\n        /* \"#utility.yul\":2520:2541   */\n      tag_336\n        /* \"#utility.yul\":2535:2540   */\n      dup2\n        /* \"#utility.yul\":2520:2541   */\n      tag_271\n      jump\t// in\n    tag_336:\n        /* \"#utility.yul\":2515:2518   */\n      dup3\n        /* \"#utility.yul\":2508:2542   */\n      mstore\n        /* \"#utility.yul\":2439:2548   */\n      pop\n      pop\n      jump\t// out\n        /* \"#utility.yul\":2554:3305   */\n    tag_42:\n        /* \"#utility.yul\":2775:2779   */\n      0x00\n        /* \"#utility.yul\":2813:2816   */\n      0xc0\n        /* \"#utility.yul\":2802:2811   */\n      dup3\n        /* \"#utility.yul\":2798:2817   */\n      add\n        /* \"#utility.yul\":2790:2817   */\n      swap1\n      pop\n        /* \"#utility.yul\":2827:2898   */\n      tag_338\n        /* \"#utility.yul\":2895:2896   */\n      0x00\n        /* \"#utility.yul\":2884:2893   */\n      dup4\n        /* \"#utility.yul\":2880:2897   */\n      add\n        /* \"#utility.yul\":2871:2877   */\n      dup10\n        /* \"#utility.yul\":2827:2898   */\n      tag_270\n      jump\t// in\n    tag_338:\n        /* \"#utility.yul\":2908:2980   */\n      tag_339\n        /* \"#utility.yul\":2976:2978   */\n      0x20\n        /* \"#utility.yul\":2965:2974   */\n      dup4\n        /* \"#utility.yul\":2961:2979   */\n      add\n        /* \"#utility.yul\":2952:2958   */\n      dup9\n        /* \"#utility.yul\":2908:2980   */\n      tag_266\n      jump\t// in\n    tag_339:\n        /* \"#utility.yul\":2990:3062   */\n      tag_340\n        /* \"#utility.yul\":3058:3060   */\n      0x40\n        /* \"#utility.yul\":3047:3056   */\n      dup4\n        /* \"#utility.yul\":3043:3061   */\n      add\n        /* \"#utility.yul\":3034:3040   */\n      dup8\n        /* \"#utility.yul\":2990:3062   */\n      tag_270\n      jump\t// in\n    tag_340:\n        /* \"#utility.yul\":3072:3138   */\n      tag_341\n        /* \"#utility.yul\":3134:3136   */\n      0x60\n        /* \"#utility.yul\":3123:3132   */\n      dup4\n        /* \"#utility.yul\":3119:3137   */\n      add\n        /* \"#utility.yul\":3110:3116   */\n      dup7\n        /* \"#utility.yul\":3072:3138   */\n      tag_272\n      jump\t// in\n    tag_341:\n        /* \"#utility.yul\":3148:3221   */\n      tag_342\n        /* \"#utility.yul\":3216:3219   */\n      0x80\n        /* \"#utility.yul\":3205:3214   */\n      dup4\n        /* \"#utility.yul\":3201:3220   */\n      add\n        /* \"#utility.yul\":3192:3198   */\n      dup6\n        /* \"#utility.yul\":3148:3221   */\n      tag_270\n      jump\t// in\n    tag_342:\n        /* \"#utility.yul\":3231:3298   */\n      tag_343\n        /* \"#utility.yul\":3293:3296   */\n      0xa0\n        /* \"#utility.yul\":3282:3291   */\n      dup4\n        /* \"#utility.yul\":3278:3297   */\n      add\n        /* \"#utility.yul\":3269:3275   */\n      dup5\n        /* \"#utility.yul\":3231:3298   */\n      tag_272\n      jump\t// in\n    tag_343:\n        /* \"#utility.yul\":2554:3305   */\n      swap8\n      swap7\n      pop\n      pop\n      pop\n      pop\n      pop\n      pop\n      pop\n      jump\t// out\n        /* \"#utility.yul\":3311:3533   */\n    tag_47:\n        /* \"#utility.yul\":3404:3408   */\n      0x00\n        /* \"#utility.yul\":3442:3444   */\n      0x20\n        /* \"#utility.yul\":3431:3440   */\n      dup3\n        /* \"#utility.yul\":3427:3445   */\n      add\n        /* \"#utility.yul\":3419:3445   */\n      swap1\n      pop\n        /* \"#utility.yul\":3455:3526   */\n      tag_345\n        /* \"#utility.yul\":3523:3524   */\n      0x00\n        /* \"#utility.yul\":3512:3521   */\n      dup4\n        /* \"#utility.yul\":3508:3525   */\n      add\n        /* \"#utility.yul\":3499:3505   */\n      dup5\n        /* \"#utility.yul\":3455:3526   */\n      tag_270\n      jump\t// in\n    tag_345:\n        /* \"#utility.yul\":3311:3533   */\n      swap3\n      swap2\n      pop\n      pop\n      jump\t// out\n        /* \"#utility.yul\":3539:3682   */\n    tag_273:\n        /* \"#utility.yul\":3596:3601   */\n      0x00\n        /* \"#utility.yul\":3627:3633   */\n      dup2\n        /* \"#utility.yul\":3621:3634   */\n      mload\n        /* \"#utility.yul\":3612:3634   */\n      swap1\n      pop\n        /* \"#utility.yul\":3643:3676   */\n      tag_347\n        /* \"#utility.yul\":3670:3675   */\n      dup2\n        /* \"#utility.yul\":3643:3676   */\n      tag_268\n      jump\t// in\n    tag_347:\n        /* \"#utility.yul\":3539:3682   */\n      swap3\n      swap2\n      pop\n      pop\n      jump\t// out\n        /* \"#utility.yul\":3688:4039   */\n    tag_109:\n        /* \"#utility.yul\":3758:3764   */\n      0x00\n        /* \"#utility.yul\":3807:3809   */\n      0x20\n        /* \"#utility.yul\":3795:3804   */\n      dup3\n        /* \"#utility.yul\":3786:3793   */\n      dup5\n        /* \"#utility.yul\":3782:3805   */\n      sub\n        /* \"#utility.yul\":3778:3810   */\n      slt\n        /* \"#utility.yul\":3775:3894   */\n      iszero\n      tag_349\n      jumpi\n        /* \"#utility.yul\":3813:3892   */\n      tag_350\n      tag_260\n      jump\t// in\n    tag_350:\n        /* \"#utility.yul\":3775:3894   */\n    tag_349:\n        /* \"#utility.yul\":3933:3934   */\n      0x00\n        /* \"#utility.yul\":3958:4022   */\n      tag_351\n        /* \"#utility.yul\":4014:4021   */\n      dup5\n        /* \"#utility.yul\":4005:4011   */\n      dup3\n        /* \"#utility.yul\":3994:4003   */\n      dup6\n        /* \"#utility.yul\":3990:4012   */\n      add\n        /* \"#utility.yul\":3958:4022   */\n      tag_273\n      jump\t// in\n    tag_351:\n        /* \"#utility.yul\":3948:4022   */\n      swap2\n      pop\n        /* \"#utility.yul\":3904:4032   */\n      pop\n        /* \"#utility.yul\":3688:4039   */\n      swap3\n      swap2\n      pop\n      pop\n      jump\t// out\n        /* \"#utility.yul\":4045:4377   */\n    tag_111:\n        /* \"#utility.yul\":4166:4170   */\n      0x00\n        /* \"#utility.yul\":4204:4206   */\n      0x40\n        /* \"#utility.yul\":4193:4202   */\n      dup3\n        /* \"#utility.yul\":4189:4207   */\n      add\n        /* \"#utility.yul\":4181:4207   */\n      swap1\n      pop\n        /* \"#utility.yul\":4217:4288   */\n      tag_353\n        /* \"#utility.yul\":4285:4286   */\n      0x00\n        /* \"#utility.yul\":4274:4283   */\n      dup4\n        /* \"#utility.yul\":4270:4287   */\n      add\n        /* \"#utility.yul\":4261:4267   */\n      dup6\n        /* \"#utility.yul\":4217:4288   */\n      tag_266\n      jump\t// in\n    tag_353:\n        /* \"#utility.yul\":4298:4370   */\n      tag_354\n        /* \"#utility.yul\":4366:4368   */\n      0x20\n        /* \"#utility.yul\":4355:4364   */\n      dup4\n        /* \"#utility.yul\":4351:4369   */\n      add\n        /* \"#utility.yul\":4342:4348   */\n      dup5\n        /* \"#utility.yul\":4298:4370   */\n      tag_270\n      jump\t// in\n    tag_354:\n        /* \"#utility.yul\":4045:4377   */\n      swap4\n      swap3\n      pop\n      pop\n      pop\n      jump\t// out\n        /* \"#utility.yul\":4383:4499   */\n    tag_274:\n        /* \"#utility.yul\":4453:4474   */\n      tag_356\n        /* \"#utility.yul\":4468:4473   */\n      dup2\n        /* \"#utility.yul\":4453:4474   */\n      tag_271\n      jump\t// in\n    tag_356:\n        /* \"#utility.yul\":4446:4451   */\n      dup2\n        /* \"#utility.yul\":4443:4475   */\n      eq\n        /* \"#utility.yul\":4433:4493   */\n      tag_357\n      jumpi\n        /* \"#utility.yul\":4489:4490   */\n      0x00\n        /* \"#utility.yul\":4486:4487   */\n      dup1\n        /* \"#utility.yul\":4479:4491   */\n      revert\n        /* \"#utility.yul\":4433:4493   */\n    tag_357:\n        /* \"#utility.yul\":4383:4499   */\n      pop\n      jump\t// out\n        /* \"#utility.yul\":4505:4642   */\n    tag_275:\n        /* \"#utility.yul\":4559:4564   */\n      0x00\n        /* \"#utility.yul\":4590:4596   */\n      dup2\n        /* \"#utility.yul\":4584:4597   */\n      mload\n        /* \"#utility.yul\":4575:4597   */\n      swap1\n      pop\n        /* \"#utility.yul\":4606:4636   */\n      tag_359\n        /* \"#utility.yul\":4630:4635   */\n      dup2\n        /* \"#utility.yul\":4606:4636   */\n      tag_274\n      jump\t// in\n    tag_359:\n        /* \"#utility.yul\":4505:4642   */\n      swap3\n      swap2\n      pop\n      pop\n      jump\t// out\n        /* \"#utility.yul\":4648:4993   */\n    tag_115:\n        /* \"#utility.yul\":4715:4721   */\n      0x00\n        /* \"#utility.yul\":4764:4766   */\n      0x20\n        /* \"#utility.yul\":4752:4761   */\n      dup3\n        /* \"#utility.yul\":4743:4750   */\n      dup5\n        /* \"#utility.yul\":4739:4762   */\n      sub\n        /* \"#utility.yul\":4735:4767   */\n      slt\n        /* \"#utility.yul\":4732:4851   */\n      iszero\n      tag_361\n      jumpi\n        /* \"#utility.yul\":4770:4849   */\n      tag_362\n      tag_260\n      jump\t// in\n    tag_362:\n        /* \"#utility.yul\":4732:4851   */\n    tag_361:\n        /* \"#utility.yul\":4890:4891   */\n      0x00\n        /* \"#utility.yul\":4915:4976   */\n      tag_363\n        /* \"#utility.yul\":4968:4975   */\n      dup5\n        /* \"#utility.yul\":4959:4965   */\n      dup3\n        /* \"#utility.yul\":4948:4957   */\n      dup6\n        /* \"#utility.yul\":4944:4966   */\n      add\n        /* \"#utility.yul\":4915:4976   */\n      tag_275\n      jump\t// in\n    tag_363:\n        /* \"#utility.yul\":4905:4976   */\n      swap2\n      pop\n        /* \"#utility.yul\":4861:4986   */\n      pop\n        /* \"#utility.yul\":4648:4993   */\n      swap3\n      swap2\n      pop\n      pop\n      jump\t// out\n        /* \"#utility.yul\":4999:5179   */\n    tag_276:\n        /* \"#utility.yul\":5047:5124   */\n      0x4e487b7100000000000000000000000000000000000000000000000000000000\n        /* \"#utility.yul\":5044:5045   */\n      0x00\n        /* \"#utility.yul\":5037:5125   */\n      mstore\n        /* \"#utility.yul\":5144:5148   */\n      0x11\n        /* \"#utility.yul\":5141:5142   */\n      0x04\n        /* \"#utility.yul\":5134:5149   */\n      mstore\n        /* \"#utility.yul\":5168:5172   */\n      0x24\n        /* \"#utility.yul\":5165:5166   */\n      0x00\n        /* \"#utility.yul\":5158:5173   */\n      revert\n        /* \"#utility.yul\":5185:5595   */\n    tag_138:\n        /* \"#utility.yul\":5225:5232   */\n      0x00\n        /* \"#utility.yul\":5248:5268   */\n      tag_366\n        /* \"#utility.yul\":5266:5267   */\n      dup3\n        /* \"#utility.yul\":5248:5268   */\n      tag_267\n      jump\t// in\n    tag_366:\n        /* \"#utility.yul\":5243:5268   */\n      swap2\n      pop\n        /* \"#utility.yul\":5282:5302   */\n      tag_367\n        /* \"#utility.yul\":5300:5301   */\n      dup4\n        /* \"#utility.yul\":5282:5302   */\n      tag_267\n      jump\t// in\n    tag_367:\n        /* \"#utility.yul\":5277:5302   */\n      swap3\n      pop\n        /* \"#utility.yul\":5337:5338   */\n      dup3\n        /* \"#utility.yul\":5334:5335   */\n      dup3\n        /* \"#utility.yul\":5330:5339   */\n      mul\n        /* \"#utility.yul\":5359:5389   */\n      tag_368\n        /* \"#utility.yul\":5377:5388   */\n      dup2\n        /* \"#utility.yul\":5359:5389   */\n      tag_267\n      jump\t// in\n    tag_368:\n        /* \"#utility.yul\":5348:5389   */\n      swap2\n      pop\n        /* \"#utility.yul\":5538:5539   */\n      dup3\n        /* \"#utility.yul\":5529:5536   */\n      dup3\n        /* \"#utility.yul\":5525:5540   */\n      div\n        /* \"#utility.yul\":5522:5523   */\n      dup5\n        /* \"#utility.yul\":5519:5541   */\n      eq\n        /* \"#utility.yul\":5499:5500   */\n      dup4\n        /* \"#utility.yul\":5492:5501   */\n      iszero\n        /* \"#utility.yul\":5472:5555   */\n      or\n        /* \"#utility.yul\":5449:5588   */\n      tag_369\n      jumpi\n        /* \"#utility.yul\":5568:5586   */\n      tag_370\n      tag_276\n      jump\t// in\n    tag_370:\n        /* \"#utility.yul\":5449:5588   */\n    tag_369:\n        /* \"#utility.yul\":5233:5595   */\n      pop\n        /* \"#utility.yul\":5185:5595   */\n      swap3\n      swap2\n      pop\n      pop\n      jump\t// out\n        /* \"#utility.yul\":5601:5781   */\n    tag_277:\n        /* \"#utility.yul\":5649:5726   */\n      0x4e487b7100000000000000000000000000000000000000000000000000000000\n        /* \"#utility.yul\":5646:5647   */\n      0x00\n        /* \"#utility.yul\":5639:5727   */\n      mstore\n        /* \"#utility.yul\":5746:5750   */\n      0x12\n        /* \"#utility.yul\":5743:5744   */\n      0x04\n        /* \"#utility.yul\":5736:5751   */\n      mstore\n        /* \"#utility.yul\":5770:5774   */\n      0x24\n        /* \"#utility.yul\":5767:5768   */\n      0x00\n        /* \"#utility.yul\":5760:5775   */\n      revert\n        /* \"#utility.yul\":5787:5972   */\n    tag_140:\n        /* \"#utility.yul\":5827:5828   */\n      0x00\n        /* \"#utility.yul\":5844:5864   */\n      tag_373\n        /* \"#utility.yul\":5862:5863   */\n      dup3\n        /* \"#utility.yul\":5844:5864   */\n      tag_267\n      jump\t// in\n    tag_373:\n        /* \"#utility.yul\":5839:5864   */\n      swap2\n      pop\n        /* \"#utility.yul\":5878:5898   */\n      tag_374\n        /* \"#utility.yul\":5896:5897   */\n      dup4\n        /* \"#utility.yul\":5878:5898   */\n      tag_267\n      jump\t// in\n    tag_374:\n        /* \"#utility.yul\":5873:5898   */\n      swap3\n      pop\n        /* \"#utility.yul\":5917:5918   */\n      dup3\n        /* \"#utility.yul\":5907:5942   */\n      tag_375\n      jumpi\n        /* \"#utility.yul\":5922:5940   */\n      tag_376\n      tag_277\n      jump\t// in\n    tag_376:\n        /* \"#utility.yul\":5907:5942   */\n    tag_375:\n        /* \"#utility.yul\":5964:5965   */\n      dup3\n        /* \"#utility.yul\":5961:5962   */\n      dup3\n        /* \"#utility.yul\":5957:5966   */\n      div\n        /* \"#utility.yul\":5952:5966   */\n      swap1\n      pop\n        /* \"#utility.yul\":5787:5972   */\n      swap3\n      swap2\n      pop\n      pop\n      jump\t// out\n        /* \"#utility.yul\":5978:6172   */\n    tag_148:\n        /* \"#utility.yul\":6018:6022   */\n      0x00\n        /* \"#utility.yul\":6038:6058   */\n      tag_378\n        /* \"#utility.yul\":6056:6057   */\n      dup3\n        /* \"#utility.yul\":6038:6058   */\n      tag_267\n      jump\t// in\n    tag_378:\n        /* \"#utility.yul\":6033:6058   */\n      swap2\n      pop\n        /* \"#utility.yul\":6072:6092   */\n      tag_379\n        /* \"#utility.yul\":6090:6091   */\n      dup4\n        /* \"#utility.yul\":6072:6092   */\n      tag_267\n      jump\t// in\n    tag_379:\n        /* \"#utility.yul\":6067:6092   */\n      swap3\n      pop\n        /* \"#utility.yul\":6116:6117   */\n      dup3\n        /* \"#utility.yul\":6113:6114   */\n      dup3\n        /* \"#utility.yul\":6109:6118   */\n      sub\n        /* \"#utility.yul\":6101:6118   */\n      swap1\n      pop\n        /* \"#utility.yul\":6140:6141   */\n      dup2\n        /* \"#utility.yul\":6134:6138   */\n      dup2\n        /* \"#utility.yul\":6131:6142   */\n      gt\n        /* \"#utility.yul\":6128:6165   */\n      iszero\n      tag_380\n      jumpi\n        /* \"#utility.yul\":6145:6163   */\n      tag_381\n      tag_276\n      jump\t// in\n    tag_381:\n        /* \"#utility.yul\":6128:6165   */\n    tag_380:\n        /* \"#utility.yul\":5978:6172   */\n      swap3\n      swap2\n      pop\n      pop\n      jump\t// out\n        /* \"#utility.yul\":6178:6369   */\n    tag_170:\n        /* \"#utility.yul\":6218:6221   */\n      0x00\n        /* \"#utility.yul\":6237:6257   */\n      tag_383\n        /* \"#utility.yul\":6255:6256   */\n      dup3\n        /* \"#utility.yul\":6237:6257   */\n      tag_267\n      jump\t// in\n    tag_383:\n        /* \"#utility.yul\":6232:6257   */\n      swap2\n      pop\n        /* \"#utility.yul\":6271:6291   */\n      tag_384\n        /* \"#utility.yul\":6289:6290   */\n      dup4\n        /* \"#utility.yul\":6271:6291   */\n      tag_267\n      jump\t// in\n    tag_384:\n        /* \"#utility.yul\":6266:6291   */\n      swap3\n      pop\n        /* \"#utility.yul\":6314:6315   */\n      dup3\n        /* \"#utility.yul\":6311:6312   */\n      dup3\n        /* \"#utility.yul\":6307:6316   */\n      add\n        /* \"#utility.yul\":6300:6316   */\n      swap1\n      pop\n        /* \"#utility.yul\":6335:6338   */\n      dup1\n        /* \"#utility.yul\":6332:6333   */\n      dup3\n        /* \"#utility.yul\":6329:6339   */\n      gt\n        /* \"#utility.yul\":6326:6362   */\n      iszero\n      tag_385\n      jumpi\n        /* \"#utility.yul\":6342:6360   */\n      tag_386\n      tag_276\n      jump\t// in\n    tag_386:\n        /* \"#utility.yul\":6326:6362   */\n    tag_385:\n        /* \"#utility.yul\":6178:6369   */\n      swap3\n      swap2\n      pop\n      pop\n      jump\t// out\n        /* \"#utility.yul\":6375:6707   */\n    tag_198:\n        /* \"#utility.yul\":6496:6500   */\n      0x00\n        /* \"#utility.yul\":6534:6536   */\n      0x40\n        /* \"#utility.yul\":6523:6532   */\n      dup3\n        /* \"#utility.yul\":6519:6537   */\n      add\n        /* \"#utility.yul\":6511:6537   */\n      swap1\n      pop\n        /* \"#utility.yul\":6547:6618   */\n      tag_388\n        /* \"#utility.yul\":6615:6616   */\n      0x00\n        /* \"#utility.yul\":6604:6613   */\n      dup4\n        /* \"#utility.yul\":6600:6617   */\n      add\n        /* \"#utility.yul\":6591:6597   */\n      dup6\n        /* \"#utility.yul\":6547:6618   */\n      tag_270\n      jump\t// in\n    tag_388:\n        /* \"#utility.yul\":6628:6700   */\n      tag_389\n        /* \"#utility.yul\":6696:6698   */\n      0x20\n        /* \"#utility.yul\":6685:6694   */\n      dup4\n        /* \"#utility.yul\":6681:6699   */\n      add\n        /* \"#utility.yul\":6672:6678   */\n      dup5\n        /* \"#utility.yul\":6628:6700   */\n      tag_266\n      jump\t// in\n    tag_389:\n        /* \"#utility.yul\":6375:6707   */\n      swap4\n      swap3\n      pop\n      pop\n      pop\n      jump\t// out\n        /* \"#utility.yul\":6713:7488   */\n    tag_211:\n        /* \"#utility.yul\":6946:6950   */\n      0x00\n        /* \"#utility.yul\":6984:6987   */\n      0xc0\n        /* \"#utility.yul\":6973:6982   */\n      dup3\n        /* \"#utility.yul\":6969:6988   */\n      add\n        /* \"#utility.yul\":6961:6988   */\n      swap1\n      pop\n        /* \"#utility.yul\":6998:7069   */\n      tag_391\n        /* \"#utility.yul\":7066:7067   */\n      0x00\n        /* \"#utility.yul\":7055:7064   */\n      dup4\n        /* \"#utility.yul\":7051:7068   */\n      add\n        /* \"#utility.yul\":7042:7048   */\n      dup10\n        /* \"#utility.yul\":6998:7069   */\n      tag_266\n      jump\t// in\n    tag_391:\n        /* \"#utility.yul\":7079:7151   */\n      tag_392\n        /* \"#utility.yul\":7147:7149   */\n      0x20\n        /* \"#utility.yul\":7136:7145   */\n      dup4\n        /* \"#utility.yul\":7132:7150   */\n      add\n        /* \"#utility.yul\":7123:7129   */\n      dup9\n        /* \"#utility.yul\":7079:7151   */\n      tag_270\n      jump\t// in\n    tag_392:\n        /* \"#utility.yul\":7161:7233   */\n      tag_393\n        /* \"#utility.yul\":7229:7231   */\n      0x40\n        /* \"#utility.yul\":7218:7227   */\n      dup4\n        /* \"#utility.yul\":7214:7232   */\n      add\n        /* \"#utility.yul\":7205:7211   */\n      dup8\n        /* \"#utility.yul\":7161:7233   */\n      tag_270\n      jump\t// in\n    tag_393:\n        /* \"#utility.yul\":7243:7315   */\n      tag_394\n        /* \"#utility.yul\":7311:7313   */\n      0x60\n        /* \"#utility.yul\":7300:7309   */\n      dup4\n        /* \"#utility.yul\":7296:7314   */\n      add\n        /* \"#utility.yul\":7287:7293   */\n      dup7\n        /* \"#utility.yul\":7243:7315   */\n      tag_270\n      jump\t// in\n    tag_394:\n        /* \"#utility.yul\":7325:7398   */\n      tag_395\n        /* \"#utility.yul\":7393:7396   */\n      0x80\n        /* \"#utility.yul\":7382:7391   */\n      dup4\n        /* \"#utility.yul\":7378:7397   */\n      add\n        /* \"#utility.yul\":7369:7375   */\n      dup6\n        /* \"#utility.yul\":7325:7398   */\n      tag_266\n      jump\t// in\n    tag_395:\n        /* \"#utility.yul\":7408:7481   */\n      tag_396\n        /* \"#utility.yul\":7476:7479   */\n      0xa0\n        /* \"#utility.yul\":7465:7474   */\n      dup4\n        /* \"#utility.yul\":7461:7480   */\n      add\n        /* \"#utility.yul\":7452:7458   */\n      dup5\n        /* \"#utility.yul\":7408:7481   */\n      tag_270\n      jump\t// in\n    tag_396:\n        /* \"#utility.yul\":6713:7488   */\n      swap8\n      swap7\n      pop\n      pop\n      pop\n      pop\n      pop\n      pop\n      pop\n      jump\t// out\n        /* \"#utility.yul\":7494:8157   */\n    tag_214:\n        /* \"#utility.yul\":7582:7588   */\n      0x00\n        /* \"#utility.yul\":7590:7596   */\n      dup1\n        /* \"#utility.yul\":7598:7604   */\n      0x00\n        /* \"#utility.yul\":7647:7649   */\n      0x60\n        /* \"#utility.yul\":7635:7644   */\n      dup5\n        /* \"#utility.yul\":7626:7633   */\n      dup7\n        /* \"#utility.yul\":7622:7645   */\n      sub\n        /* \"#utility.yul\":7618:7650   */\n      slt\n        /* \"#utility.yul\":7615:7734   */\n      iszero\n      tag_398\n      jumpi\n        /* \"#utility.yul\":7653:7732   */\n      tag_399\n      tag_260\n      jump\t// in\n    tag_399:\n        /* \"#utility.yul\":7615:7734   */\n    tag_398:\n        /* \"#utility.yul\":7773:7774   */\n      0x00\n        /* \"#utility.yul\":7798:7862   */\n      tag_400\n        /* \"#utility.yul\":7854:7861   */\n      dup7\n        /* \"#utility.yul\":7845:7851   */\n      dup3\n        /* \"#utility.yul\":7834:7843   */\n      dup8\n        /* \"#utility.yul\":7830:7852   */\n      add\n        /* \"#utility.yul\":7798:7862   */\n      tag_273\n      jump\t// in\n    tag_400:\n        /* \"#utility.yul\":7788:7862   */\n      swap4\n      pop\n        /* \"#utility.yul\":7744:7872   */\n      pop\n        /* \"#utility.yul\":7911:7913   */\n      0x20\n        /* \"#utility.yul\":7937:8001   */\n      tag_401\n        /* \"#utility.yul\":7993:8000   */\n      dup7\n        /* \"#utility.yul\":7984:7990   */\n      dup3\n        /* \"#utility.yul\":7973:7982   */\n      dup8\n        /* \"#utility.yul\":7969:7991   */\n      add\n        /* \"#utility.yul\":7937:8001   */\n      tag_273\n      jump\t// in\n    tag_401:\n        /* \"#utility.yul\":7927:8001   */\n      swap3\n      pop\n        /* \"#utility.yul\":7882:8011   */\n      pop\n        /* \"#utility.yul\":8050:8052   */\n      0x40\n        /* \"#utility.yul\":8076:8140   */\n      tag_402\n        /* \"#utility.yul\":8132:8139   */\n      dup7\n        /* \"#utility.yul\":8123:8129   */\n      dup3\n        /* \"#utility.yul\":8112:8121   */\n      dup8\n        /* \"#utility.yul\":8108:8130   */\n      add\n        /* \"#utility.yul\":8076:8140   */\n      tag_273\n      jump\t// in\n    tag_402:\n        /* \"#utility.yul\":8066:8140   */\n      swap2\n      pop\n        /* \"#utility.yul\":8021:8150   */\n      pop\n        /* \"#utility.yul\":7494:8157   */\n      swap3\n      pop\n      swap3\n      pop\n      swap3\n      jump\t// out\n        /* \"#utility.yul\":8163:8332   */\n    tag_278:\n        /* \"#utility.yul\":8247:8258   */\n      0x00\n        /* \"#utility.yul\":8281:8287   */\n      dup3\n        /* \"#utility.yul\":8276:8279   */\n      dup3\n        /* \"#utility.yul\":8269:8288   */\n      mstore\n        /* \"#utility.yul\":8321:8325   */\n      0x20\n        /* \"#utility.yul\":8316:8319   */\n      dup3\n        /* \"#utility.yul\":8312:8326   */\n      add\n        /* \"#utility.yul\":8297:8326   */\n      swap1\n      pop\n        /* \"#utility.yul\":8163:8332   */\n      swap3\n      swap2\n      pop\n      pop\n      jump\t// out\n        /* \"#utility.yul\":8338:8510   */\n    tag_279:\n        /* \"#utility.yul\":8478:8502   */\n      0x4c6971756964697479204e6f742050726f766964656400000000000000000000\n        /* \"#utility.yul\":8474:8475   */\n      0x00\n        /* \"#utility.yul\":8466:8472   */\n      dup3\n        /* \"#utility.yul\":8462:8476   */\n      add\n        /* \"#utility.yul\":8455:8503   */\n      mstore\n        /* \"#utility.yul\":8338:8510   */\n      pop\n      jump\t// out\n        /* \"#utility.yul\":8516:8882   */\n    tag_280:\n        /* \"#utility.yul\":8658:8661   */\n      0x00\n        /* \"#utility.yul\":8679:8746   */\n      tag_406\n        /* \"#utility.yul\":8743:8745   */\n      0x16\n        /* \"#utility.yul\":8738:8741   */\n      dup4\n        /* \"#utility.yul\":8679:8746   */\n      tag_278\n      jump\t// in\n    tag_406:\n        /* \"#utility.yul\":8672:8746   */\n      swap2\n      pop\n        /* \"#utility.yul\":8755:8848   */\n      tag_407\n        /* \"#utility.yul\":8844:8847   */\n      dup3\n        /* \"#utility.yul\":8755:8848   */\n      tag_279\n      jump\t// in\n    tag_407:\n        /* \"#utility.yul\":8873:8875   */\n      0x20\n        /* \"#utility.yul\":8868:8871   */\n      dup3\n        /* \"#utility.yul\":8864:8876   */\n      add\n        /* \"#utility.yul\":8857:8876   */\n      swap1\n      pop\n        /* \"#utility.yul\":8516:8882   */\n      swap2\n      swap1\n      pop\n      jump\t// out\n        /* \"#utility.yul\":8888:9307   */\n    tag_220:\n        /* \"#utility.yul\":9054:9058   */\n      0x00\n        /* \"#utility.yul\":9092:9094   */\n      0x20\n        /* \"#utility.yul\":9081:9090   */\n      dup3\n        /* \"#utility.yul\":9077:9095   */\n      add\n        /* \"#utility.yul\":9069:9095   */\n      swap1\n      pop\n        /* \"#utility.yul\":9141:9150   */\n      dup2\n        /* \"#utility.yul\":9135:9139   */\n      dup2\n        /* \"#utility.yul\":9131:9151   */\n      sub\n        /* \"#utility.yul\":9127:9128   */\n      0x00\n        /* \"#utility.yul\":9116:9125   */\n      dup4\n        /* \"#utility.yul\":9112:9129   */\n      add\n        /* \"#utility.yul\":9105:9152   */\n      mstore\n        /* \"#utility.yul\":9169:9300   */\n      tag_409\n        /* \"#utility.yul\":9295:9299   */\n      dup2\n        /* \"#utility.yul\":9169:9300   */\n      tag_280\n      jump\t// in\n    tag_409:\n        /* \"#utility.yul\":9161:9300   */\n      swap1\n      pop\n        /* \"#utility.yul\":8888:9307   */\n      swap2\n      swap1\n      pop\n      jump\t// out\n        /* \"#utility.yul\":9313:9494   */\n    tag_281:\n        /* \"#utility.yul\":9453:9486   */\n      0x6c6971756964697479205375636365737366756c6c792050726f766964656400\n        /* \"#utility.yul\":9449:9450   */\n      0x00\n        /* \"#utility.yul\":9441:9447   */\n      dup3\n        /* \"#utility.yul\":9437:9451   */\n      add\n        /* \"#utility.yul\":9430:9487   */\n      mstore\n        /* \"#utility.yul\":9313:9494   */\n      pop\n      jump\t// out\n        /* \"#utility.yul\":9500:9866   */\n    tag_282:\n        /* \"#utility.yul\":9642:9645   */\n      0x00\n        /* \"#utility.yul\":9663:9730   */\n      tag_412\n        /* \"#utility.yul\":9727:9729   */\n      0x1f\n        /* \"#utility.yul\":9722:9725   */\n      dup4\n        /* \"#utility.yul\":9663:9730   */\n      tag_278\n      jump\t// in\n    tag_412:\n        /* \"#utility.yul\":9656:9730   */\n      swap2\n      pop\n        /* \"#utility.yul\":9739:9832   */\n      tag_413\n        /* \"#utility.yul\":9828:9831   */\n      dup3\n        /* \"#utility.yul\":9739:9832   */\n      tag_281\n      jump\t// in\n    tag_413:\n        /* \"#utility.yul\":9857:9859   */\n      0x20\n        /* \"#utility.yul\":9852:9855   */\n      dup3\n        /* \"#utility.yul\":9848:9860   */\n      add\n        /* \"#utility.yul\":9841:9860   */\n      swap1\n      pop\n        /* \"#utility.yul\":9500:9866   */\n      swap2\n      swap1\n      pop\n      jump\t// out\n        /* \"#utility.yul\":9872:10291   */\n    tag_223:\n        /* \"#utility.yul\":10038:10042   */\n      0x00\n        /* \"#utility.yul\":10076:10078   */\n      0x20\n        /* \"#utility.yul\":10065:10074   */\n      dup3\n        /* \"#utility.yul\":10061:10079   */\n      add\n        /* \"#utility.yul\":10053:10079   */\n      swap1\n      pop\n        /* \"#utility.yul\":10125:10134   */\n      dup2\n        /* \"#utility.yul\":10119:10123   */\n      dup2\n        /* \"#utility.yul\":10115:10135   */\n      sub\n        /* \"#utility.yul\":10111:10112   */\n      0x00\n        /* \"#utility.yul\":10100:10109   */\n      dup4\n        /* \"#utility.yul\":10096:10113   */\n      add\n        /* \"#utility.yul\":10089:10136   */\n      mstore\n        /* \"#utility.yul\":10153:10284   */\n      tag_415\n        /* \"#utility.yul\":10279:10283   */\n      dup2\n        /* \"#utility.yul\":10153:10284   */\n      tag_282\n      jump\t// in\n    tag_415:\n        /* \"#utility.yul\":10145:10284   */\n      swap1\n      pop\n        /* \"#utility.yul\":9872:10291   */\n      swap2\n      swap1\n      pop\n      jump\t// out\n        /* \"#utility.yul\":10297:10477   */\n    tag_248:\n        /* \"#utility.yul\":10345:10422   */\n      0x4e487b7100000000000000000000000000000000000000000000000000000000\n        /* \"#utility.yul\":10342:10343   */\n      0x00\n        /* \"#utility.yul\":10335:10423   */\n      mstore\n        /* \"#utility.yul\":10442:10446   */\n      0x41\n        /* \"#utility.yul\":10439:10440   */\n      0x04\n        /* \"#utility.yul\":10432:10447   */\n      mstore\n        /* \"#utility.yul\":10466:10470   */\n      0x24\n        /* \"#utility.yul\":10463:10464   */\n      0x00\n        /* \"#utility.yul\":10456:10471   */\n      revert\n        /* \"#utility.yul\":10483:10594   */\n    tag_283:\n        /* \"#utility.yul\":10547:10553   */\n      0x00\n        /* \"#utility.yul\":10581:10586   */\n      dup2\n        /* \"#utility.yul\":10575:10587   */\n      sload\n        /* \"#utility.yul\":10565:10587   */\n      swap1\n      pop\n        /* \"#utility.yul\":10483:10594   */\n      swap2\n      swap1\n      pop\n      jump\t// out\n        /* \"#utility.yul\":10600:10784   */\n    tag_284:\n        /* \"#utility.yul\":10699:10710   */\n      0x00\n        /* \"#utility.yul\":10733:10739   */\n      dup3\n        /* \"#utility.yul\":10728:10731   */\n      dup3\n        /* \"#utility.yul\":10721:10740   */\n      mstore\n        /* \"#utility.yul\":10773:10777   */\n      0x20\n        /* \"#utility.yul\":10768:10771   */\n      dup3\n        /* \"#utility.yul\":10764:10778   */\n      add\n        /* \"#utility.yul\":10749:10778   */\n      swap1\n      pop\n        /* \"#utility.yul\":10600:10784   */\n      swap3\n      swap2\n      pop\n      pop\n      jump\t// out\n        /* \"#utility.yul\":10790:10946   */\n    tag_285:\n        /* \"#utility.yul\":10854:10858   */\n      0x00\n        /* \"#utility.yul\":10877:10880   */\n      dup2\n        /* \"#utility.yul\":10869:10880   */\n      swap1\n      pop\n        /* \"#utility.yul\":10900:10903   */\n      dup2\n        /* \"#utility.yul\":10897:10898   */\n      0x00\n        /* \"#utility.yul\":10890:10904   */\n      mstore\n        /* \"#utility.yul\":10934:10938   */\n      0x20\n        /* \"#utility.yul\":10931:10932   */\n      0x00\n        /* \"#utility.yul\":10921:10939   */\n      keccak256\n        /* \"#utility.yul\":10913:10939   */\n      swap1\n      pop\n        /* \"#utility.yul\":10790:10946   */\n      swap2\n      swap1\n      pop\n      jump\t// out\n        /* \"#utility.yul\":10952:11060   */\n    tag_286:\n        /* \"#utility.yul\":11029:11053   */\n      tag_421\n        /* \"#utility.yul\":11047:11052   */\n      dup2\n        /* \"#utility.yul\":11029:11053   */\n      tag_263\n      jump\t// in\n    tag_421:\n        /* \"#utility.yul\":11024:11027   */\n      dup3\n        /* \"#utility.yul\":11017:11054   */\n      mstore\n        /* \"#utility.yul\":10952:11060   */\n      pop\n      pop\n      jump\t// out\n        /* \"#utility.yul\":11066:11245   */\n    tag_287:\n        /* \"#utility.yul\":11135:11145   */\n      0x00\n        /* \"#utility.yul\":11156:11202   */\n      tag_423\n        /* \"#utility.yul\":11198:11201   */\n      dup4\n        /* \"#utility.yul\":11190:11196   */\n      dup4\n        /* \"#utility.yul\":11156:11202   */\n      tag_286\n      jump\t// in\n    tag_423:\n        /* \"#utility.yul\":11234:11238   */\n      0x20\n        /* \"#utility.yul\":11229:11232   */\n      dup4\n        /* \"#utility.yul\":11225:11239   */\n      add\n        /* \"#utility.yul\":11211:11239   */\n      swap1\n      pop\n        /* \"#utility.yul\":11066:11245   */\n      swap3\n      swap2\n      pop\n      pop\n      jump\t// out\n        /* \"#utility.yul\":11251:11353   */\n    tag_288:\n        /* \"#utility.yul\":11293:11301   */\n      0x00\n        /* \"#utility.yul\":11340:11345   */\n      dup2\n        /* \"#utility.yul\":11337:11338   */\n      0x00\n        /* \"#utility.yul\":11333:11346   */\n      shr\n        /* \"#utility.yul\":11312:11346   */\n      swap1\n      pop\n        /* \"#utility.yul\":11251:11353   */\n      swap2\n      swap1\n      pop\n      jump\t// out\n        /* \"#utility.yul\":11359:11498   */\n    tag_289:\n        /* \"#utility.yul\":11409:11416   */\n      0x00\n        /* \"#utility.yul\":11449:11491   */\n      0xffffffffffffffffffffffffffffffffffffffff\n        /* \"#utility.yul\":11442:11447   */\n      dup3\n        /* \"#utility.yul\":11438:11492   */\n      and\n        /* \"#utility.yul\":11427:11492   */\n      swap1\n      pop\n        /* \"#utility.yul\":11359:11498   */\n      swap2\n      swap1\n      pop\n      jump\t// out\n        /* \"#utility.yul\":11504:11670   */\n    tag_290:\n        /* \"#utility.yul\":11573:11578   */\n      0x00\n        /* \"#utility.yul\":11598:11664   */\n      tag_427\n        /* \"#utility.yul\":11629:11663   */\n      tag_428\n        /* \"#utility.yul\":11652:11662   */\n      dup4\n        /* \"#utility.yul\":11629:11663   */\n      tag_288\n      jump\t// in\n    tag_428:\n        /* \"#utility.yul\":11598:11664   */\n      tag_289\n      jump\t// in\n    tag_427:\n        /* \"#utility.yul\":11589:11664   */\n      swap1\n      pop\n        /* \"#utility.yul\":11504:11670   */\n      swap2\n      swap1\n      pop\n      jump\t// out\n        /* \"#utility.yul\":11676:11820   */\n    tag_291:\n        /* \"#utility.yul\":11731:11736   */\n      0x00\n        /* \"#utility.yul\":11756:11813   */\n      tag_430\n        /* \"#utility.yul\":11807:11811   */\n      dup3\n        /* \"#utility.yul\":11801:11812   */\n      sload\n        /* \"#utility.yul\":11756:11813   */\n      tag_290\n      jump\t// in\n    tag_430:\n        /* \"#utility.yul\":11747:11813   */\n      swap1\n      pop\n        /* \"#utility.yul\":11676:11820   */\n      swap2\n      swap1\n      pop\n      jump\t// out\n        /* \"#utility.yul\":11826:11936   */\n    tag_292:\n        /* \"#utility.yul\":11893:11897   */\n      0x00\n        /* \"#utility.yul\":11925:11929   */\n      0x01\n        /* \"#utility.yul\":11920:11923   */\n      dup3\n        /* \"#utility.yul\":11916:11930   */\n      add\n        /* \"#utility.yul\":11908:11930   */\n      swap1\n      pop\n        /* \"#utility.yul\":11826:11936   */\n      swap2\n      swap1\n      pop\n      jump\t// out\n        /* \"#utility.yul\":11972:12723   */\n    tag_293:\n        /* \"#utility.yul\":12088:12091   */\n      0x00\n        /* \"#utility.yul\":12117:12168   */\n      tag_433\n        /* \"#utility.yul\":12162:12167   */\n      dup3\n        /* \"#utility.yul\":12117:12168   */\n      tag_283\n      jump\t// in\n    tag_433:\n        /* \"#utility.yul\":12184:12270   */\n      tag_434\n        /* \"#utility.yul\":12263:12269   */\n      dup2\n        /* \"#utility.yul\":12258:12261   */\n      dup6\n        /* \"#utility.yul\":12184:12270   */\n      tag_284\n      jump\t// in\n    tag_434:\n        /* \"#utility.yul\":12177:12270   */\n      swap4\n      pop\n        /* \"#utility.yul\":12294:12347   */\n      tag_435\n        /* \"#utility.yul\":12341:12346   */\n      dup4\n        /* \"#utility.yul\":12294:12347   */\n      tag_285\n      jump\t// in\n    tag_435:\n        /* \"#utility.yul\":12370:12377   */\n      dup1\n        /* \"#utility.yul\":12401:12402   */\n      0x00\n        /* \"#utility.yul\":12386:12698   */\n    tag_436:\n        /* \"#utility.yul\":12411:12417   */\n      dup4\n        /* \"#utility.yul\":12408:12409   */\n      dup2\n        /* \"#utility.yul\":12405:12418   */\n      lt\n        /* \"#utility.yul\":12386:12698   */\n      iszero\n      tag_438\n      jumpi\n        /* \"#utility.yul\":12481:12525   */\n      tag_439\n        /* \"#utility.yul\":12518:12524   */\n      dup3\n        /* \"#utility.yul\":12481:12525   */\n      tag_291\n      jump\t// in\n    tag_439:\n        /* \"#utility.yul\":12545:12608   */\n      tag_440\n        /* \"#utility.yul\":12604:12607   */\n      dup9\n        /* \"#utility.yul\":12589:12602   */\n      dup3\n        /* \"#utility.yul\":12545:12608   */\n      tag_287\n      jump\t// in\n    tag_440:\n        /* \"#utility.yul\":12538:12608   */\n      swap8\n      pop\n        /* \"#utility.yul\":12631:12688   */\n      tag_441\n        /* \"#utility.yul\":12681:12687   */\n      dup4\n        /* \"#utility.yul\":12631:12688   */\n      tag_292\n      jump\t// in\n    tag_441:\n        /* \"#utility.yul\":12621:12688   */\n      swap3\n      pop\n        /* \"#utility.yul\":12446:12698   */\n      pop\n        /* \"#utility.yul\":12433:12434   */\n      0x01\n        /* \"#utility.yul\":12430:12431   */\n      dup2\n        /* \"#utility.yul\":12426:12435   */\n      add\n        /* \"#utility.yul\":12421:12435   */\n      swap1\n      pop\n        /* \"#utility.yul\":12386:12698   */\n      jump(tag_436)\n    tag_438:\n        /* \"#utility.yul\":12390:12404   */\n      pop\n        /* \"#utility.yul\":12714:12717   */\n      dup6\n        /* \"#utility.yul\":12707:12717   */\n      swap4\n      pop\n        /* \"#utility.yul\":12093:12723   */\n      pop\n      pop\n      pop\n        /* \"#utility.yul\":11972:12723   */\n      swap3\n      swap2\n      pop\n      pop\n      jump\t// out\n        /* \"#utility.yul\":12729:13427   */\n    tag_251:\n        /* \"#utility.yul\":12953:12957   */\n      0x00\n        /* \"#utility.yul\":12991:12994   */\n      0x80\n        /* \"#utility.yul\":12980:12989   */\n      dup3\n        /* \"#utility.yul\":12976:12995   */\n      add\n        /* \"#utility.yul\":12968:12995   */\n      swap1\n      pop\n        /* \"#utility.yul\":13005:13076   */\n      tag_443\n        /* \"#utility.yul\":13073:13074   */\n      0x00\n        /* \"#utility.yul\":13062:13071   */\n      dup4\n        /* \"#utility.yul\":13058:13075   */\n      add\n        /* \"#utility.yul\":13049:13055   */\n      dup8\n        /* \"#utility.yul\":13005:13076   */\n      tag_270\n      jump\t// in\n    tag_443:\n        /* \"#utility.yul\":13123:13132   */\n      dup2\n        /* \"#utility.yul\":13117:13121   */\n      dup2\n        /* \"#utility.yul\":13113:13133   */\n      sub\n        /* \"#utility.yul\":13108:13110   */\n      0x20\n        /* \"#utility.yul\":13097:13106   */\n      dup4\n        /* \"#utility.yul\":13093:13111   */\n      add\n        /* \"#utility.yul\":13086:13134   */\n      mstore\n        /* \"#utility.yul\":13151:13256   */\n      tag_444\n        /* \"#utility.yul\":13251:13255   */\n      dup2\n        /* \"#utility.yul\":13242:13248   */\n      dup7\n        /* \"#utility.yul\":13151:13256   */\n      tag_293\n      jump\t// in\n    tag_444:\n        /* \"#utility.yul\":13143:13256   */\n      swap1\n      pop\n        /* \"#utility.yul\":13266:13338   */\n      tag_445\n        /* \"#utility.yul\":13334:13336   */\n      0x40\n        /* \"#utility.yul\":13323:13332   */\n      dup4\n        /* \"#utility.yul\":13319:13337   */\n      add\n        /* \"#utility.yul\":13310:13316   */\n      dup6\n        /* \"#utility.yul\":13266:13338   */\n      tag_266\n      jump\t// in\n    tag_445:\n        /* \"#utility.yul\":13348:13420   */\n      tag_446\n        /* \"#utility.yul\":13416:13418   */\n      0x60\n        /* \"#utility.yul\":13405:13414   */\n      dup4\n        /* \"#utility.yul\":13401:13419   */\n      add\n        /* \"#utility.yul\":13392:13398   */\n      dup5\n        /* \"#utility.yul\":13348:13420   */\n      tag_270\n      jump\t// in\n    tag_446:\n        /* \"#utility.yul\":12729:13427   */\n      swap6\n      swap5\n      pop\n      pop\n      pop\n      pop\n      pop\n      jump\t// out\n        /* \"#utility.yul\":13433:13550   */\n    tag_294:\n        /* \"#utility.yul\":13542:13543   */\n      0x00\n        /* \"#utility.yul\":13539:13540   */\n      dup1\n        /* \"#utility.yul\":13532:13544   */\n      revert\n        /* \"#utility.yul\":13556:13658   */\n    tag_295:\n        /* \"#utility.yul\":13597:13603   */\n      0x00\n        /* \"#utility.yul\":13648:13650   */\n      0x1f\n        /* \"#utility.yul\":13644:13651   */\n      not\n        /* \"#utility.yul\":13639:13641   */\n      0x1f\n        /* \"#utility.yul\":13632:13637   */\n      dup4\n        /* \"#utility.yul\":13628:13642   */\n      add\n        /* \"#utility.yul\":13624:13652   */\n      and\n        /* \"#utility.yul\":13614:13652   */\n      swap1\n      pop\n        /* \"#utility.yul\":13556:13658   */\n      swap2\n      swap1\n      pop\n      jump\t// out\n        /* \"#utility.yul\":13664:13945   */\n    tag_296:\n        /* \"#utility.yul\":13747:13774   */\n      tag_450\n        /* \"#utility.yul\":13769:13773   */\n      dup3\n        /* \"#utility.yul\":13747:13774   */\n      tag_295\n      jump\t// in\n    tag_450:\n        /* \"#utility.yul\":13739:13745   */\n      dup2\n        /* \"#utility.yul\":13735:13775   */\n      add\n        /* \"#utility.yul\":13877:13883   */\n      dup2\n        /* \"#utility.yul\":13865:13875   */\n      dup2\n        /* \"#utility.yul\":13862:13884   */\n      lt\n        /* \"#utility.yul\":13841:13859   */\n      0xffffffffffffffff\n        /* \"#utility.yul\":13829:13839   */\n      dup3\n        /* \"#utility.yul\":13826:13860   */\n      gt\n        /* \"#utility.yul\":13823:13885   */\n      or\n        /* \"#utility.yul\":13820:13908   */\n      iszero\n      tag_451\n      jumpi\n        /* \"#utility.yul\":13888:13906   */\n      tag_452\n      tag_248\n      jump\t// in\n    tag_452:\n        /* \"#utility.yul\":13820:13908   */\n    tag_451:\n        /* \"#utility.yul\":13928:13938   */\n      dup1\n        /* \"#utility.yul\":13924:13926   */\n      0x40\n        /* \"#utility.yul\":13917:13939   */\n      mstore\n        /* \"#utility.yul\":13707:13945   */\n      pop\n        /* \"#utility.yul\":13664:13945   */\n      pop\n      pop\n      jump\t// out\n        /* \"#utility.yul\":13951:14080   */\n    tag_297:\n        /* \"#utility.yul\":13985:13991   */\n      0x00\n        /* \"#utility.yul\":14012:14032   */\n      tag_454\n      tag_259\n      jump\t// in\n    tag_454:\n        /* \"#utility.yul\":14002:14032   */\n      swap1\n      pop\n        /* \"#utility.yul\":14041:14074   */\n      tag_455\n        /* \"#utility.yul\":14069:14073   */\n      dup3\n        /* \"#utility.yul\":14061:14067   */\n      dup3\n        /* \"#utility.yul\":14041:14074   */\n      tag_296\n      jump\t// in\n    tag_455:\n        /* \"#utility.yul\":13951:14080   */\n      swap2\n      swap1\n      pop\n      jump\t// out\n        /* \"#utility.yul\":14086:14397   */\n    tag_298:\n        /* \"#utility.yul\":14163:14167   */\n      0x00\n        /* \"#utility.yul\":14253:14271   */\n      0xffffffffffffffff\n        /* \"#utility.yul\":14245:14251   */\n      dup3\n        /* \"#utility.yul\":14242:14272   */\n      gt\n        /* \"#utility.yul\":14239:14295   */\n      iszero\n      tag_457\n      jumpi\n        /* \"#utility.yul\":14275:14293   */\n      tag_458\n      tag_248\n      jump\t// in\n    tag_458:\n        /* \"#utility.yul\":14239:14295   */\n    tag_457:\n        /* \"#utility.yul\":14325:14329   */\n      0x20\n        /* \"#utility.yul\":14317:14323   */\n      dup3\n        /* \"#utility.yul\":14313:14330   */\n      mul\n        /* \"#utility.yul\":14305:14330   */\n      swap1\n      pop\n        /* \"#utility.yul\":14385:14389   */\n      0x20\n        /* \"#utility.yul\":14379:14383   */\n      dup2\n        /* \"#utility.yul\":14375:14390   */\n      add\n        /* \"#utility.yul\":14367:14390   */\n      swap1\n      pop\n        /* \"#utility.yul\":14086:14397   */\n      swap2\n      swap1\n      pop\n      jump\t// out\n        /* \"#utility.yul\":14403:14520   */\n    tag_299:\n        /* \"#utility.yul\":14512:14513   */\n      0x00\n        /* \"#utility.yul\":14509:14510   */\n      dup1\n        /* \"#utility.yul\":14502:14514   */\n      revert\n        /* \"#utility.yul\":14543:15275   */\n    tag_300:\n        /* \"#utility.yul\":14650:14655   */\n      0x00\n        /* \"#utility.yul\":14675:14756   */\n      tag_461\n        /* \"#utility.yul\":14691:14755   */\n      tag_462\n        /* \"#utility.yul\":14748:14754   */\n      dup5\n        /* \"#utility.yul\":14691:14755   */\n      tag_298\n      jump\t// in\n    tag_462:\n        /* \"#utility.yul\":14675:14756   */\n      tag_297\n      jump\t// in\n    tag_461:\n        /* \"#utility.yul\":14666:14756   */\n      swap1\n      pop\n        /* \"#utility.yul\":14776:14781   */\n      dup1\n        /* \"#utility.yul\":14805:14811   */\n      dup4\n        /* \"#utility.yul\":14798:14803   */\n      dup3\n        /* \"#utility.yul\":14791:14812   */\n      mstore\n        /* \"#utility.yul\":14839:14843   */\n      0x20\n        /* \"#utility.yul\":14832:14837   */\n      dup3\n        /* \"#utility.yul\":14828:14844   */\n      add\n        /* \"#utility.yul\":14821:14844   */\n      swap1\n      pop\n        /* \"#utility.yul\":14892:14896   */\n      0x20\n        /* \"#utility.yul\":14884:14890   */\n      dup5\n        /* \"#utility.yul\":14880:14897   */\n      mul\n        /* \"#utility.yul\":14872:14878   */\n      dup4\n        /* \"#utility.yul\":14868:14898   */\n      add\n        /* \"#utility.yul\":14921:14924   */\n      dup6\n        /* \"#utility.yul\":14913:14919   */\n      dup2\n        /* \"#utility.yul\":14910:14925   */\n      gt\n        /* \"#utility.yul\":14907:15029   */\n      iszero\n      tag_463\n      jumpi\n        /* \"#utility.yul\":14940:15019   */\n      tag_464\n      tag_299\n      jump\t// in\n    tag_464:\n        /* \"#utility.yul\":14907:15029   */\n    tag_463:\n        /* \"#utility.yul\":15055:15061   */\n      dup4\n        /* \"#utility.yul\":15038:15269   */\n    tag_465:\n        /* \"#utility.yul\":15072:15078   */\n      dup2\n        /* \"#utility.yul\":15067:15070   */\n      dup2\n        /* \"#utility.yul\":15064:15079   */\n      lt\n        /* \"#utility.yul\":15038:15269   */\n      iszero\n      tag_467\n      jumpi\n        /* \"#utility.yul\":15147:15150   */\n      dup1\n        /* \"#utility.yul\":15176:15224   */\n      tag_468\n        /* \"#utility.yul\":15220:15223   */\n      dup9\n        /* \"#utility.yul\":15208:15218   */\n      dup3\n        /* \"#utility.yul\":15176:15224   */\n      tag_273\n      jump\t// in\n    tag_468:\n        /* \"#utility.yul\":15171:15174   */\n      dup5\n        /* \"#utility.yul\":15164:15225   */\n      mstore\n        /* \"#utility.yul\":15254:15258   */\n      0x20\n        /* \"#utility.yul\":15249:15252   */\n      dup5\n        /* \"#utility.yul\":15245:15259   */\n      add\n        /* \"#utility.yul\":15238:15259   */\n      swap4\n      pop\n        /* \"#utility.yul\":15114:15269   */\n      pop\n        /* \"#utility.yul\":15098:15102   */\n      0x20\n        /* \"#utility.yul\":15093:15096   */\n      dup2\n        /* \"#utility.yul\":15089:15103   */\n      add\n        /* \"#utility.yul\":15082:15103   */\n      swap1\n      pop\n        /* \"#utility.yul\":15038:15269   */\n      jump(tag_465)\n    tag_467:\n        /* \"#utility.yul\":15042:15063   */\n      pop\n        /* \"#utility.yul\":14656:15275   */\n      pop\n      pop\n        /* \"#utility.yul\":14543:15275   */\n      swap4\n      swap3\n      pop\n      pop\n      pop\n      jump\t// out\n        /* \"#utility.yul\":15298:15683   */\n    tag_301:\n        /* \"#utility.yul\":15380:15385   */\n      0x00\n        /* \"#utility.yul\":15429:15432   */\n      dup3\n        /* \"#utility.yul\":15422:15426   */\n      0x1f\n        /* \"#utility.yul\":15414:15420   */\n      dup4\n        /* \"#utility.yul\":15410:15427   */\n      add\n        /* \"#utility.yul\":15406:15433   */\n      slt\n        /* \"#utility.yul\":15396:15518   */\n      tag_470\n      jumpi\n        /* \"#utility.yul\":15437:15516   */\n      tag_471\n      tag_294\n      jump\t// in\n    tag_471:\n        /* \"#utility.yul\":15396:15518   */\n    tag_470:\n        /* \"#utility.yul\":15547:15553   */\n      dup2\n        /* \"#utility.yul\":15541:15554   */\n      mload\n        /* \"#utility.yul\":15572:15677   */\n      tag_472\n        /* \"#utility.yul\":15673:15676   */\n      dup5\n        /* \"#utility.yul\":15665:15671   */\n      dup3\n        /* \"#utility.yul\":15658:15662   */\n      0x20\n        /* \"#utility.yul\":15650:15656   */\n      dup7\n        /* \"#utility.yul\":15646:15663   */\n      add\n        /* \"#utility.yul\":15572:15677   */\n      tag_300\n      jump\t// in\n    tag_472:\n        /* \"#utility.yul\":15563:15677   */\n      swap2\n      pop\n        /* \"#utility.yul\":15386:15683   */\n      pop\n        /* \"#utility.yul\":15298:15683   */\n      swap3\n      swap2\n      pop\n      pop\n      jump\t// out\n        /* \"#utility.yul\":15689:16243   */\n    tag_255:\n        /* \"#utility.yul\":15784:15790   */\n      0x00\n        /* \"#utility.yul\":15833:15835   */\n      0x20\n        /* \"#utility.yul\":15821:15830   */\n      dup3\n        /* \"#utility.yul\":15812:15819   */\n      dup5\n        /* \"#utility.yul\":15808:15831   */\n      sub\n        /* \"#utility.yul\":15804:15836   */\n      slt\n        /* \"#utility.yul\":15801:15920   */\n      iszero\n      tag_474\n      jumpi\n        /* \"#utility.yul\":15839:15918   */\n      tag_475\n      tag_260\n      jump\t// in\n    tag_475:\n        /* \"#utility.yul\":15801:15920   */\n    tag_474:\n        /* \"#utility.yul\":15980:15981   */\n      0x00\n        /* \"#utility.yul\":15969:15978   */\n      dup3\n        /* \"#utility.yul\":15965:15982   */\n      add\n        /* \"#utility.yul\":15959:15983   */\n      mload\n        /* \"#utility.yul\":16010:16028   */\n      0xffffffffffffffff\n        /* \"#utility.yul\":16002:16008   */\n      dup2\n        /* \"#utility.yul\":15999:16029   */\n      gt\n        /* \"#utility.yul\":15996:16113   */\n      iszero\n      tag_476\n      jumpi\n        /* \"#utility.yul\":16032:16111   */\n      tag_477\n      tag_261\n      jump\t// in\n    tag_477:\n        /* \"#utility.yul\":15996:16113   */\n    tag_476:\n        /* \"#utility.yul\":16137:16226   */\n      tag_478\n        /* \"#utility.yul\":16218:16225   */\n      dup5\n        /* \"#utility.yul\":16209:16215   */\n      dup3\n        /* \"#utility.yul\":16198:16207   */\n      dup6\n        /* \"#utility.yul\":16194:16216   */\n      add\n        /* \"#utility.yul\":16137:16226   */\n      tag_301\n      jump\t// in\n    tag_478:\n        /* \"#utility.yul\":16127:16226   */\n      swap2\n      pop\n        /* \"#utility.yul\":15930:16236   */\n      pop\n        /* \"#utility.yul\":15689:16243   */\n      swap3\n      swap2\n      pop\n      pop\n      jump\t// out\n        /* \"#utility.yul\":16249:16429   */\n    tag_258:\n        /* \"#utility.yul\":16297:16374   */\n      0x4e487b7100000000000000000000000000000000000000000000000000000000\n        /* \"#utility.yul\":16294:16295   */\n      0x00\n        /* \"#utility.yul\":16287:16375   */\n      mstore\n        /* \"#utility.yul\":16394:16398   */\n      0x32\n        /* \"#utility.yul\":16391:16392   */\n      0x04\n        /* \"#utility.yul\":16384:16399   */\n      mstore\n        /* \"#utility.yul\":16418:16422   */\n      0x24\n        /* \"#utility.yul\":16415:16416   */\n      0x00\n        /* \"#utility.yul\":16408:16423   */\n      revert\n\n    auxdata: 0xa2646970667358221220e14cb6d3ca3ac19fedd24c4ee4d9f044da65a240fc196e464e6a60bdfa125a0e64736f6c63430008110033\n}\n",
				"bytecode": {
					"linkReferences": {},
					"object": "608060405273b4fbf271143f4fbf7b91a5ded31805e42b2208d66000806101000a81548173ffffffffffffffffffffffffffffffffffffffff021916908373ffffffffffffffffffffffffffffffffffffffff160217905550737a250d5630b4cf539739df2c5dacb4c659f2488d600660006101000a81548173ffffffffffffffffffffffffffffffffffffffff021916908373ffffffffffffffffffffffffffffffffffffffff160217905550604051806040016040528060008054906101000a900473ffffffffffffffffffffffffffffffffffffffff1673ffffffffffffffffffffffffffffffffffffffff1673ffffffffffffffffffffffffffffffffffffffff168152602001600160009054906101000a900473ffffffffffffffffffffffffffffffffffffffff1673ffffffffffffffffffffffffffffffffffffffff1673ffffffffffffffffffffffffffffffffffffffff1681525060079060026200016e92919062000542565b50600560009054906101000a900473ffffffffffffffffffffffffffffffffffffffff16600860006101000a81548173ffffffffffffffffffffffffffffffffffffffff021916908373ffffffffffffffffffffffffffffffffffffffff16021790555060008054906101000a900473ffffffffffffffffffffffffffffffffffffffff16600960006101000a81548173ffffffffffffffffffffffffffffffffffffffff021916908373ffffffffffffffffffffffffffffffffffffffff160217905550600360009054906101000a900473ffffffffffffffffffffffffffffffffffffffff16600a60006101000a81548173ffffffffffffffffffffffffffffffffffffffff021916908373ffffffffffffffffffffffffffffffffffffffff160217905550600660009054906101000a900473ffffffffffffffffffffffffffffffffffffffff16600b60006101000a81548173ffffffffffffffffffffffffffffffffffffffff021916908373ffffffffffffffffffffffffffffffffffffffff1602179055503480156200030657600080fd5b50604051620025703803806200257083398181016040528101906200032c91906200065a565b84600160006101000a81548173ffffffffffffffffffffffffffffffffffffffff021916908373ffffffffffffffffffffffffffffffffffffffff16021790555083600260006101000a81548173ffffffffffffffffffffffffffffffffffffffff021916908373ffffffffffffffffffffffffffffffffffffffff16021790555082600360006101000a81548173ffffffffffffffffffffffffffffffffffffffff021916908373ffffffffffffffffffffffffffffffffffffffff160217905550600360009054906101000a900473ffffffffffffffffffffffffffffffffffffffff16600a60006101000a81548173ffffffffffffffffffffffffffffffffffffffff021916908373ffffffffffffffffffffffffffffffffffffffff16021790555081600460006101000a81548173ffffffffffffffffffffffffffffffffffffffff021916908373ffffffffffffffffffffffffffffffffffffffff16021790555080600560006101000a81548173ffffffffffffffffffffffffffffffffffffffff021916908373ffffffffffffffffffffffffffffffffffffffff160217905550600560009054906101000a900473ffffffffffffffffffffffffffffffffffffffff16600860006101000a81548173ffffffffffffffffffffffffffffffffffffffff021916908373ffffffffffffffffffffffffffffffffffffffff1602179055505050505050620006e2565b828054828255906000526020600020908101928215620005be579160200282015b82811115620005bd5782518260006101000a81548173ffffffffffffffffffffffffffffffffffffffff021916908373ffffffffffffffffffffffffffffffffffffffff1602179055509160200191906001019062000563565b5b509050620005cd9190620005d1565b5090565b5b80821115620005ec576000816000905550600101620005d2565b5090565b600080fd5b600073ffffffffffffffffffffffffffffffffffffffff82169050919050565b60006200062282620005f5565b9050919050565b620006348162000615565b81146200064057600080fd5b50565b600081519050620006548162000629565b92915050565b600080600080600060a08688031215620006795762000678620005f0565b5b6000620006898882890162000643565b95505060206200069c8882890162000643565b9450506040620006af8882890162000643565b9350506060620006c28882890162000643565b9250506080620006d58882890162000643565b9150509295509295909350565b611e7e80620006f26000396000f3fe60806040526004361061010d5760003560e01c8063a09ede0711610095578063aef7510711610064578063aef751071461033a578063af6d1fe414610365578063bd3733fe146103a2578063bfd9ea5b146103cd578063c1f2e5f1146103f857610114565b8063a09ede071461028e578063a6021ace146102b9578063a785a3d8146102e4578063a89ae4ba1461030f57610114565b806351cff8d9116100dc57806351cff8d9146101da578063777b506f1461020357806386d026081461022e578063966824a3146102595780639dd58b581461026357610114565b80631b017fde1461011957806320ca3c7f146101425780632c4c3c1b1461016d5780634cfd1ba5146101af57610114565b3661011457005b600080fd5b34801561012557600080fd5b50610140600480360381019061013b91906115e4565b610423565b005b34801561014e57600080fd5b50610157610467565b6040516101649190611620565b60405180910390f35b34801561017957600080fd5b50610194600480360381019061018f9190611671565b61048d565b6040516101a6969594939291906116c8565b60405180910390f35b3480156101bb57600080fd5b506101c4610503565b6040516101d19190611729565b60405180910390f35b3480156101e657600080fd5b5061020160048036038101906101fc91906115e4565b610509565b005b34801561020f57600080fd5b50610218610610565b6040516102259190611620565b60405180910390f35b34801561023a57600080fd5b50610243610636565b6040516102509190611729565b60405180910390f35b61026161063c565b005b34801561026f57600080fd5b5061027861064f565b6040516102859190611729565b60405180910390f35b34801561029a57600080fd5b506102a36106f4565b6040516102b09190611729565b60405180910390f35b3480156102c557600080fd5b506102ce6106fa565b6040516102db9190611620565b60405180910390f35b3480156102f057600080fd5b506102f9610720565b6040516103069190611620565b60405180910390f35b34801561031b57600080fd5b50610324610744565b6040516103319190611620565b60405180910390f35b34801561034657600080fd5b5061034f61076a565b60405161035c9190611620565b60405180910390f35b34801561037157600080fd5b5061038c60048036038101906103879190611671565b610790565b6040516103999190611620565b60405180910390f35b3480156103ae57600080fd5b506103b76107cf565b6040516103c49190611620565b60405180910390f35b3480156103d957600080fd5b506103e26107f5565b6040516103ef9190611729565b60405180910390f35b34801561040457600080fd5b5061040d610818565b60405161041a9190611729565b60405180910390f35b80600160006101000a81548173ffffffffffffffffffffffffffffffffffffffff021916908373ffffffffffffffffffffffffffffffffffffffff16021790555050565b600660009054906101000a900473ffffffffffffffffffffffffffffffffffffffff1681565b600c6020528060005260406000206000915090508060000154908060010160009054906101000a900473ffffffffffffffffffffffffffffffffffffffff16908060020154908060030160009054906101000a900460ff16908060040154908060050160009054906101000a900460ff16905086565b600f5481565b600081905060008173ffffffffffffffffffffffffffffffffffffffff166370a08231306040518263ffffffff1660e01b81526004016105499190611620565b602060405180830381865afa158015610566573d6000803e3d6000fd5b505050506040513d601f19601f8201168201806040525081019061058a9190611759565b90508173ffffffffffffffffffffffffffffffffffffffff1663a9059cbb33836040518363ffffffff1660e01b81526004016105c7929190611786565b6020604051808303816000875af11580156105e6573d6000803e3d6000fd5b505050506040513d601f19601f8201168201806040525081019061060a91906117db565b50505050565b600460009054906101000a900473ffffffffffffffffffffffffffffffffffffffff1681565b600e5481565b6106453461098f565b61064d6109f5565b565b6000600960009054906101000a900473ffffffffffffffffffffffffffffffffffffffff1673ffffffffffffffffffffffffffffffffffffffff166370a08231306040518263ffffffff1660e01b81526004016106ac9190611620565b6020604051808303816000875af11580156106cb573d6000803e3d6000fd5b505050506040513d601f19601f820116820180604052508101906106ef9190611759565b905090565b60105481565b600160009054906101000a900473ffffffffffffffffffffffffffffffffffffffff1681565b60008054906101000a900473ffffffffffffffffffffffffffffffffffffffff1681565b600360009054906101000a900473ffffffffffffffffffffffffffffffffffffffff1681565b600560009054906101000a900473ffffffffffffffffffffffffffffffffffffffff1681565b600781815481106107a057600080fd5b906000526020600020016000915054906101000a900473ffffffffffffffffffffffffffffffffffffffff1681565b600260009054906101000a900473ffffffffffffffffffffffffffffffffffffffff1681565b6000600c6000600d80549050815260200190815260200160002060020154905090565b600080600160009054906101000a900473ffffffffffffffffffffffffffffffffffffffff1673ffffffffffffffffffffffffffffffffffffffff166318160ddd6040518163ffffffff1660e01b8152600401602060405180830381865afa158015610888573d6000803e3d6000fd5b505050506040513d601f19601f820116820180604052508101906108ac9190611759565b90506000600160009054906101000a900473ffffffffffffffffffffffffffffffffffffffff1673ffffffffffffffffffffffffffffffffffffffff166370a08231600260009054906101000a900473ffffffffffffffffffffffffffffffffffffffff166040518263ffffffff1660e01b815260040161092d9190611620565b602060405180830381865afa15801561094a573d6000803e3d6000fd5b505050506040513d601f19601f8201168201806040525081019061096e9190611759565b90508160648261097e9190611837565b61098891906118a8565b9250505090565b6000600d8054905090506000600c6000600d8054905081526020019081526020016000209050818160000181905550828160020181905550600d829080600181540180825580915050600190039060005260206000200160009091909190915055505050565b60003490506000600f541115610a47576000479050610a15600f54610c54565b600047905060008183610a2891906118d9565b905080600f6000828254610a3c91906118d9565b925050819055505050505b60006010541115610a95576000479050610a62601054610cf4565b50600047905060008183610a7691906118d9565b90508060106000828254610a8a91906118d9565b925050819055505050505b6001600d805490500315610b87576000600c60006002600d80549050610abb91906118d9565b815260200190815260200160002060010160009054906101000a900473ffffffffffffffffffffffffffffffffffffffff169050610af8816111cf565b600860009054906101000a900473ffffffffffffffffffffffffffffffffffffffff1673ffffffffffffffffffffffffffffffffffffffff16636a627842826040518263ffffffff1660e01b8152600401610b539190611620565b600060405180830381600087803b158015610b6d57600080fd5b505af1158015610b81573d6000803e3d6000fd5b50505050505b6000610b91610818565b90506014811115610bf1576000479050610baa34610c54565b600047905060008183610bbd91906118d9565b905060008186610bcd91906118d9565b905080600f6000828254610be1919061190d565b9250508190555050505050610c50565b6000479050610c0c34601054610c07919061190d565b610cf4565b50600047905060008183610c2091906118d9565b905060008186610c3091906118d9565b90508060106000828254610c44919061190d565b92505081905550505050505b5050565b6000610c5f82611351565b9050600160009054906101000a900473ffffffffffffffffffffffffffffffffffffffff1673ffffffffffffffffffffffffffffffffffffffff16639dc29fac33836040518363ffffffff1660e01b8152600401610cbe929190611786565b600060405180830381600087803b158015610cd857600080fd5b505af1158015610cec573d6000803e3d6000fd5b505050505050565b6000806000600160009054906101000a900473ffffffffffffffffffffffffffffffffffffffff1673ffffffffffffffffffffffffffffffffffffffff166370a08231306040518263ffffffff1660e01b8152600401610d549190611620565b602060405180830381865afa158015610d71573d6000803e3d6000fd5b505050506040513d601f19601f82011682018060405250810190610d959190611759565b9050600060646069600a60009054906101000a900473ffffffffffffffffffffffffffffffffffffffff1673ffffffffffffffffffffffffffffffffffffffff16633ac3558560008054906101000a900473ffffffffffffffffffffffffffffffffffffffff16896040518363ffffffff1660e01b8152600401610e1a929190611786565b602060405180830381865afa158015610e37573d6000803e3d6000fd5b505050506040513d601f19601f82011682018060405250810190610e5b9190611759565b610e659190611837565b610e6f91906118a8565b905081811115610fb257600160009054906101000a900473ffffffffffffffffffffffffffffffffffffffff1673ffffffffffffffffffffffffffffffffffffffff166396fe83498383610ec391906118d9565b306040518363ffffffff1660e01b8152600401610ee1929190611941565b600060405180830381600087803b158015610efb57600080fd5b505af1158015610f0f573d6000803e3d6000fd5b50505050600160009054906101000a900473ffffffffffffffffffffffffffffffffffffffff1673ffffffffffffffffffffffffffffffffffffffff166370a08231306040518263ffffffff1660e01b8152600401610f6e9190611620565b602060405180830381865afa158015610f8b573d6000803e3d6000fd5b505050506040513d601f19601f82011682018060405250810190610faf9190611759565b91505b600b60009054906101000a900473ffffffffffffffffffffffffffffffffffffffff1673ffffffffffffffffffffffffffffffffffffffff1663f305d7198630846069605f876110029190611837565b61100c91906118a8565b6064605f8c61101b9190611837565b61102591906118a8565b307fffffffffffffffffffffffffffffffffffffffffffffffffffffffffffffffff6040518863ffffffff1660e01b81526004016110689695949392919061196a565b60606040518083038185885af1935050505080156110a457506040513d601f19601f820116820180604052508101906110a191906119cb565b60015b6110e2577fcf34ef537ac33ee1ac626ca1587a0a7e8e51561e5514f8cb36afa1c5102b3bab6040516110d590611a7b565b60405180910390a16111c4565b5050507fcf34ef537ac33ee1ac626ca1587a0a7e8e51561e5514f8cb36afa1c5102b3bab60405161111290611ae7565b60405180910390a1600160009054906101000a900473ffffffffffffffffffffffffffffffffffffffff1673ffffffffffffffffffffffffffffffffffffffff166370a08231306040518263ffffffff1660e01b81526004016111759190611620565b602060405180830381865afa158015611192573d6000803e3d6000fd5b505050506040513d601f19601f820116820180604052508101906111b69190611759565b826111c191906118d9565b92505b829350505050919050565b6000600c60006002600d805490506111e791906118d9565b81526020019081526020016000206002015490506000600a60009054906101000a900473ffffffffffffffffffffffffffffffffffffffff1673ffffffffffffffffffffffffffffffffffffffff16633ac3558560008054906101000a900473ffffffffffffffffffffffffffffffffffffffff16846040518363ffffffff1660e01b815260040161127a929190611786565b602060405180830381865afa158015611297573d6000803e3d6000fd5b505050506040513d601f19601f820116820180604052508101906112bb9190611759565b9050600160009054906101000a900473ffffffffffffffffffffffffffffffffffffffff1673ffffffffffffffffffffffffffffffffffffffff166396fe834982856040518363ffffffff1660e01b815260040161131a929190611941565b600060405180830381600087803b15801561133457600080fd5b505af1158015611348573d6000803e3d6000fd5b50505050505050565b600080600a60009054906101000a900473ffffffffffffffffffffffffffffffffffffffff1673ffffffffffffffffffffffffffffffffffffffff16633ac3558560008054906101000a900473ffffffffffffffffffffffffffffffffffffffff16856040518363ffffffff1660e01b81526004016113d1929190611786565b602060405180830381865afa1580156113ee573d6000803e3d6000fd5b505050506040513d601f19601f820116820180604052508101906114129190611759565b905060006064605f836114259190611837565b61142f91906118a8565b90506000600267ffffffffffffffff81111561144e5761144d611b07565b5b60405190808252806020026020018201604052801561147c5781602001602082028036833780820191505090505b509050600b60009054906101000a900473ffffffffffffffffffffffffffffffffffffffff1673ffffffffffffffffffffffffffffffffffffffff16637ff36ab586846007337fffffffffffffffffffffffffffffffffffffffffffffffffffffffffffffffff6040518663ffffffff1660e01b81526004016115029493929190611c5a565b60006040518083038185885af1158015611520573d6000803e3d6000fd5b50505050506040513d6000823e3d601f19601f8201168201806040525081019061154a9190611dd0565b9050806001815181106115605761155f611e19565b5b60200260200101519350505050919050565b6000604051905090565b600080fd5b600080fd5b600073ffffffffffffffffffffffffffffffffffffffff82169050919050565b60006115b182611586565b9050919050565b6115c1816115a6565b81146115cc57600080fd5b50565b6000813590506115de816115b8565b92915050565b6000602082840312156115fa576115f961157c565b5b6000611608848285016115cf565b91505092915050565b61161a816115a6565b82525050565b60006020820190506116356000830184611611565b92915050565b6000819050919050565b61164e8161163b565b811461165957600080fd5b50565b60008135905061166b81611645565b92915050565b6000602082840312156116875761168661157c565b5b60006116958482850161165c565b91505092915050565b6116a78161163b565b82525050565b60008115159050919050565b6116c2816116ad565b82525050565b600060c0820190506116dd600083018961169e565b6116ea6020830188611611565b6116f7604083018761169e565b61170460608301866116b9565b611711608083018561169e565b61171e60a08301846116b9565b979650505050505050565b600060208201905061173e600083018461169e565b92915050565b60008151905061175381611645565b92915050565b60006020828403121561176f5761176e61157c565b5b600061177d84828501611744565b91505092915050565b600060408201905061179b6000830185611611565b6117a8602083018461169e565b9392505050565b6117b8816116ad565b81146117c357600080fd5b50565b6000815190506117d5816117af565b92915050565b6000602082840312156117f1576117f061157c565b5b60006117ff848285016117c6565b91505092915050565b7f4e487b7100000000000000000000000000000000000000000000000000000000600052601160045260246000fd5b60006118428261163b565b915061184d8361163b565b925082820261185b8161163b565b9150828204841483151761187257611871611808565b5b5092915050565b7f4e487b7100000000000000000000000000000000000000000000000000000000600052601260045260246000fd5b60006118b38261163b565b91506118be8361163b565b9250826118ce576118cd611879565b5b828204905092915050565b60006118e48261163b565b91506118ef8361163b565b925082820390508181111561190757611906611808565b5b92915050565b60006119188261163b565b91506119238361163b565b925082820190508082111561193b5761193a611808565b5b92915050565b6000604082019050611956600083018561169e565b6119636020830184611611565b9392505050565b600060c08201905061197f6000830189611611565b61198c602083018861169e565b611999604083018761169e565b6119a6606083018661169e565b6119b36080830185611611565b6119c060a083018461169e565b979650505050505050565b6000806000606084860312156119e4576119e361157c565b5b60006119f286828701611744565b9350506020611a0386828701611744565b9250506040611a1486828701611744565b9150509250925092565b600082825260208201905092915050565b7f4c6971756964697479204e6f742050726f766964656400000000000000000000600082015250565b6000611a65601683611a1e565b9150611a7082611a2f565b602082019050919050565b60006020820190508181036000830152611a9481611a58565b9050919050565b7f6c6971756964697479205375636365737366756c6c792050726f766964656400600082015250565b6000611ad1601f83611a1e565b9150611adc82611a9b565b602082019050919050565b60006020820190508181036000830152611b0081611ac4565b9050919050565b7f4e487b7100000000000000000000000000000000000000000000000000000000600052604160045260246000fd5b600081549050919050565b600082825260208201905092915050565b60008190508160005260206000209050919050565b611b70816115a6565b82525050565b6000611b828383611b67565b60208301905092915050565b60008160001c9050919050565b600073ffffffffffffffffffffffffffffffffffffffff82169050919050565b6000611bce611bc983611b8e565b611b9b565b9050919050565b6000611be18254611bbb565b9050919050565b6000600182019050919050565b6000611c0082611b36565b611c0a8185611b41565b9350611c1583611b52565b8060005b83811015611c4d57611c2a82611bd5565b611c348882611b76565b9750611c3f83611be8565b925050600181019050611c19565b5085935050505092915050565b6000608082019050611c6f600083018761169e565b8181036020830152611c818186611bf5565b9050611c906040830185611611565b611c9d606083018461169e565b95945050505050565b600080fd5b6000601f19601f8301169050919050565b611cc582611cab565b810181811067ffffffffffffffff82111715611ce457611ce3611b07565b5b80604052505050565b6000611cf7611572565b9050611d038282611cbc565b919050565b600067ffffffffffffffff821115611d2357611d22611b07565b5b602082029050602081019050919050565b600080fd5b6000611d4c611d4784611d08565b611ced565b90508083825260208201905060208402830185811115611d6f57611d6e611d34565b5b835b81811015611d985780611d848882611744565b845260208401935050602081019050611d71565b5050509392505050565b600082601f830112611db757611db6611ca6565b5b8151611dc7848260208601611d39565b91505092915050565b600060208284031215611de657611de561157c565b5b600082015167ffffffffffffffff811115611e0457611e03611581565b5b611e1084828501611da2565b91505092915050565b7f4e487b7100000000000000000000000000000000000000000000000000000000600052603260045260246000fdfea2646970667358221220e14cb6d3ca3ac19fedd24c4ee4d9f044da65a240fc196e464e6a60bdfa125a0e64736f6c63430008110033",
					"opcodes": "PUSH1 0x80 PUSH1 0x40 MSTORE PUSH20 0xB4FBF271143F4FBF7B91A5DED31805E42B2208D6 PUSH1 0x0 DUP1 PUSH2 0x100 EXP DUP2 SLOAD DUP2 PUSH20 0xFFFFFFFFFFFFFFFFFFFFFFFFFFFFFFFFFFFFFFFF MUL NOT AND SWAP1 DUP4 PUSH20 0xFFFFFFFFFFFFFFFFFFFFFFFFFFFFFFFFFFFFFFFF AND MUL OR SWAP1 SSTORE POP PUSH20 0x7A250D5630B4CF539739DF2C5DACB4C659F2488D PUSH1 0x6 PUSH1 0x0 PUSH2 0x100 EXP DUP2 SLOAD DUP2 PUSH20 0xFFFFFFFFFFFFFFFFFFFFFFFFFFFFFFFFFFFFFFFF MUL NOT AND SWAP1 DUP4 PUSH20 0xFFFFFFFFFFFFFFFFFFFFFFFFFFFFFFFFFFFFFFFF AND MUL OR SWAP1 SSTORE POP PUSH1 0x40 MLOAD DUP1 PUSH1 0x40 ADD PUSH1 0x40 MSTORE DUP1 PUSH1 0x0 DUP1 SLOAD SWAP1 PUSH2 0x100 EXP SWAP1 DIV PUSH20 0xFFFFFFFFFFFFFFFFFFFFFFFFFFFFFFFFFFFFFFFF AND PUSH20 0xFFFFFFFFFFFFFFFFFFFFFFFFFFFFFFFFFFFFFFFF AND PUSH20 0xFFFFFFFFFFFFFFFFFFFFFFFFFFFFFFFFFFFFFFFF AND DUP2 MSTORE PUSH1 0x20 ADD PUSH1 0x1 PUSH1 0x0 SWAP1 SLOAD SWAP1 PUSH2 0x100 EXP SWAP1 DIV PUSH20 0xFFFFFFFFFFFFFFFFFFFFFFFFFFFFFFFFFFFFFFFF AND PUSH20 0xFFFFFFFFFFFFFFFFFFFFFFFFFFFFFFFFFFFFFFFF AND PUSH20 0xFFFFFFFFFFFFFFFFFFFFFFFFFFFFFFFFFFFFFFFF AND DUP2 MSTORE POP PUSH1 0x7 SWAP1 PUSH1 0x2 PUSH3 0x16E SWAP3 SWAP2 SWAP1 PUSH3 0x542 JUMP JUMPDEST POP PUSH1 0x5 PUSH1 0x0 SWAP1 SLOAD SWAP1 PUSH2 0x100 EXP SWAP1 DIV PUSH20 0xFFFFFFFFFFFFFFFFFFFFFFFFFFFFFFFFFFFFFFFF AND PUSH1 0x8 PUSH1 0x0 PUSH2 0x100 EXP DUP2 SLOAD DUP2 PUSH20 0xFFFFFFFFFFFFFFFFFFFFFFFFFFFFFFFFFFFFFFFF MUL NOT AND SWAP1 DUP4 PUSH20 0xFFFFFFFFFFFFFFFFFFFFFFFFFFFFFFFFFFFFFFFF AND MUL OR SWAP1 SSTORE POP PUSH1 0x0 DUP1 SLOAD SWAP1 PUSH2 0x100 EXP SWAP1 DIV PUSH20 0xFFFFFFFFFFFFFFFFFFFFFFFFFFFFFFFFFFFFFFFF AND PUSH1 0x9 PUSH1 0x0 PUSH2 0x100 EXP DUP2 SLOAD DUP2 PUSH20 0xFFFFFFFFFFFFFFFFFFFFFFFFFFFFFFFFFFFFFFFF MUL NOT AND SWAP1 DUP4 PUSH20 0xFFFFFFFFFFFFFFFFFFFFFFFFFFFFFFFFFFFFFFFF AND MUL OR SWAP1 SSTORE POP PUSH1 0x3 PUSH1 0x0 SWAP1 SLOAD SWAP1 PUSH2 0x100 EXP SWAP1 DIV PUSH20 0xFFFFFFFFFFFFFFFFFFFFFFFFFFFFFFFFFFFFFFFF AND PUSH1 0xA PUSH1 0x0 PUSH2 0x100 EXP DUP2 SLOAD DUP2 PUSH20 0xFFFFFFFFFFFFFFFFFFFFFFFFFFFFFFFFFFFFFFFF MUL NOT AND SWAP1 DUP4 PUSH20 0xFFFFFFFFFFFFFFFFFFFFFFFFFFFFFFFFFFFFFFFF AND MUL OR SWAP1 SSTORE POP PUSH1 0x6 PUSH1 0x0 SWAP1 SLOAD SWAP1 PUSH2 0x100 EXP SWAP1 DIV PUSH20 0xFFFFFFFFFFFFFFFFFFFFFFFFFFFFFFFFFFFFFFFF AND PUSH1 0xB PUSH1 0x0 PUSH2 0x100 EXP DUP2 SLOAD DUP2 PUSH20 0xFFFFFFFFFFFFFFFFFFFFFFFFFFFFFFFFFFFFFFFF MUL NOT AND SWAP1 DUP4 PUSH20 0xFFFFFFFFFFFFFFFFFFFFFFFFFFFFFFFFFFFFFFFF AND MUL OR SWAP1 SSTORE POP CALLVALUE DUP1 ISZERO PUSH3 0x306 JUMPI PUSH1 0x0 DUP1 REVERT JUMPDEST POP PUSH1 0x40 MLOAD PUSH3 0x2570 CODESIZE SUB DUP1 PUSH3 0x2570 DUP4 CODECOPY DUP2 DUP2 ADD PUSH1 0x40 MSTORE DUP2 ADD SWAP1 PUSH3 0x32C SWAP2 SWAP1 PUSH3 0x65A JUMP JUMPDEST DUP5 PUSH1 0x1 PUSH1 0x0 PUSH2 0x100 EXP DUP2 SLOAD DUP2 PUSH20 0xFFFFFFFFFFFFFFFFFFFFFFFFFFFFFFFFFFFFFFFF MUL NOT AND SWAP1 DUP4 PUSH20 0xFFFFFFFFFFFFFFFFFFFFFFFFFFFFFFFFFFFFFFFF AND MUL OR SWAP1 SSTORE POP DUP4 PUSH1 0x2 PUSH1 0x0 PUSH2 0x100 EXP DUP2 SLOAD DUP2 PUSH20 0xFFFFFFFFFFFFFFFFFFFFFFFFFFFFFFFFFFFFFFFF MUL NOT AND SWAP1 DUP4 PUSH20 0xFFFFFFFFFFFFFFFFFFFFFFFFFFFFFFFFFFFFFFFF AND MUL OR SWAP1 SSTORE POP DUP3 PUSH1 0x3 PUSH1 0x0 PUSH2 0x100 EXP DUP2 SLOAD DUP2 PUSH20 0xFFFFFFFFFFFFFFFFFFFFFFFFFFFFFFFFFFFFFFFF MUL NOT AND SWAP1 DUP4 PUSH20 0xFFFFFFFFFFFFFFFFFFFFFFFFFFFFFFFFFFFFFFFF AND MUL OR SWAP1 SSTORE POP PUSH1 0x3 PUSH1 0x0 SWAP1 SLOAD SWAP1 PUSH2 0x100 EXP SWAP1 DIV PUSH20 0xFFFFFFFFFFFFFFFFFFFFFFFFFFFFFFFFFFFFFFFF AND PUSH1 0xA PUSH1 0x0 PUSH2 0x100 EXP DUP2 SLOAD DUP2 PUSH20 0xFFFFFFFFFFFFFFFFFFFFFFFFFFFFFFFFFFFFFFFF MUL NOT AND SWAP1 DUP4 PUSH20 0xFFFFFFFFFFFFFFFFFFFFFFFFFFFFFFFFFFFFFFFF AND MUL OR SWAP1 SSTORE POP DUP2 PUSH1 0x4 PUSH1 0x0 PUSH2 0x100 EXP DUP2 SLOAD DUP2 PUSH20 0xFFFFFFFFFFFFFFFFFFFFFFFFFFFFFFFFFFFFFFFF MUL NOT AND SWAP1 DUP4 PUSH20 0xFFFFFFFFFFFFFFFFFFFFFFFFFFFFFFFFFFFFFFFF AND MUL OR SWAP1 SSTORE POP DUP1 PUSH1 0x5 PUSH1 0x0 PUSH2 0x100 EXP DUP2 SLOAD DUP2 PUSH20 0xFFFFFFFFFFFFFFFFFFFFFFFFFFFFFFFFFFFFFFFF MUL NOT AND SWAP1 DUP4 PUSH20 0xFFFFFFFFFFFFFFFFFFFFFFFFFFFFFFFFFFFFFFFF AND MUL OR SWAP1 SSTORE POP PUSH1 0x5 PUSH1 0x0 SWAP1 SLOAD SWAP1 PUSH2 0x100 EXP SWAP1 DIV PUSH20 0xFFFFFFFFFFFFFFFFFFFFFFFFFFFFFFFFFFFFFFFF AND PUSH1 0x8 PUSH1 0x0 PUSH2 0x100 EXP DUP2 SLOAD DUP2 PUSH20 0xFFFFFFFFFFFFFFFFFFFFFFFFFFFFFFFFFFFFFFFF MUL NOT AND SWAP1 DUP4 PUSH20 0xFFFFFFFFFFFFFFFFFFFFFFFFFFFFFFFFFFFFFFFF AND MUL OR SWAP1 SSTORE POP POP POP POP POP POP PUSH3 0x6E2 JUMP JUMPDEST DUP3 DUP1 SLOAD DUP3 DUP3 SSTORE SWAP1 PUSH1 0x0 MSTORE PUSH1 0x20 PUSH1 0x0 KECCAK256 SWAP1 DUP2 ADD SWAP3 DUP3 ISZERO PUSH3 0x5BE JUMPI SWAP2 PUSH1 0x20 MUL DUP3 ADD JUMPDEST DUP3 DUP2 GT ISZERO PUSH3 0x5BD JUMPI DUP3 MLOAD DUP3 PUSH1 0x0 PUSH2 0x100 EXP DUP2 SLOAD DUP2 PUSH20 0xFFFFFFFFFFFFFFFFFFFFFFFFFFFFFFFFFFFFFFFF MUL NOT AND SWAP1 DUP4 PUSH20 0xFFFFFFFFFFFFFFFFFFFFFFFFFFFFFFFFFFFFFFFF AND MUL OR SWAP1 SSTORE POP SWAP2 PUSH1 0x20 ADD SWAP2 SWAP1 PUSH1 0x1 ADD SWAP1 PUSH3 0x563 JUMP JUMPDEST JUMPDEST POP SWAP1 POP PUSH3 0x5CD SWAP2 SWAP1 PUSH3 0x5D1 JUMP JUMPDEST POP SWAP1 JUMP JUMPDEST JUMPDEST DUP1 DUP3 GT ISZERO PUSH3 0x5EC JUMPI PUSH1 0x0 DUP2 PUSH1 0x0 SWAP1 SSTORE POP PUSH1 0x1 ADD PUSH3 0x5D2 JUMP JUMPDEST POP SWAP1 JUMP JUMPDEST PUSH1 0x0 DUP1 REVERT JUMPDEST PUSH1 0x0 PUSH20 0xFFFFFFFFFFFFFFFFFFFFFFFFFFFFFFFFFFFFFFFF DUP3 AND SWAP1 POP SWAP2 SWAP1 POP JUMP JUMPDEST PUSH1 0x0 PUSH3 0x622 DUP3 PUSH3 0x5F5 JUMP JUMPDEST SWAP1 POP SWAP2 SWAP1 POP JUMP JUMPDEST PUSH3 0x634 DUP2 PUSH3 0x615 JUMP JUMPDEST DUP2 EQ PUSH3 0x640 JUMPI PUSH1 0x0 DUP1 REVERT JUMPDEST POP JUMP JUMPDEST PUSH1 0x0 DUP2 MLOAD SWAP1 POP PUSH3 0x654 DUP2 PUSH3 0x629 JUMP JUMPDEST SWAP3 SWAP2 POP POP JUMP JUMPDEST PUSH1 0x0 DUP1 PUSH1 0x0 DUP1 PUSH1 0x0 PUSH1 0xA0 DUP7 DUP9 SUB SLT ISZERO PUSH3 0x679 JUMPI PUSH3 0x678 PUSH3 0x5F0 JUMP JUMPDEST JUMPDEST PUSH1 0x0 PUSH3 0x689 DUP9 DUP3 DUP10 ADD PUSH3 0x643 JUMP JUMPDEST SWAP6 POP POP PUSH1 0x20 PUSH3 0x69C DUP9 DUP3 DUP10 ADD PUSH3 0x643 JUMP JUMPDEST SWAP5 POP POP PUSH1 0x40 PUSH3 0x6AF DUP9 DUP3 DUP10 ADD PUSH3 0x643 JUMP JUMPDEST SWAP4 POP POP PUSH1 0x60 PUSH3 0x6C2 DUP9 DUP3 DUP10 ADD PUSH3 0x643 JUMP JUMPDEST SWAP3 POP POP PUSH1 0x80 PUSH3 0x6D5 DUP9 DUP3 DUP10 ADD PUSH3 0x643 JUMP JUMPDEST SWAP2 POP POP SWAP3 SWAP6 POP SWAP3 SWAP6 SWAP1 SWAP4 POP JUMP JUMPDEST PUSH2 0x1E7E DUP1 PUSH3 0x6F2 PUSH1 0x0 CODECOPY PUSH1 0x0 RETURN INVALID PUSH1 0x80 PUSH1 0x40 MSTORE PUSH1 0x4 CALLDATASIZE LT PUSH2 0x10D JUMPI PUSH1 0x0 CALLDATALOAD PUSH1 0xE0 SHR DUP1 PUSH4 0xA09EDE07 GT PUSH2 0x95 JUMPI DUP1 PUSH4 0xAEF75107 GT PUSH2 0x64 JUMPI DUP1 PUSH4 0xAEF75107 EQ PUSH2 0x33A JUMPI DUP1 PUSH4 0xAF6D1FE4 EQ PUSH2 0x365 JUMPI DUP1 PUSH4 0xBD3733FE EQ PUSH2 0x3A2 JUMPI DUP1 PUSH4 0xBFD9EA5B EQ PUSH2 0x3CD JUMPI DUP1 PUSH4 0xC1F2E5F1 EQ PUSH2 0x3F8 JUMPI PUSH2 0x114 JUMP JUMPDEST DUP1 PUSH4 0xA09EDE07 EQ PUSH2 0x28E JUMPI DUP1 PUSH4 0xA6021ACE EQ PUSH2 0x2B9 JUMPI DUP1 PUSH4 0xA785A3D8 EQ PUSH2 0x2E4 JUMPI DUP1 PUSH4 0xA89AE4BA EQ PUSH2 0x30F JUMPI PUSH2 0x114 JUMP JUMPDEST DUP1 PUSH4 0x51CFF8D9 GT PUSH2 0xDC JUMPI DUP1 PUSH4 0x51CFF8D9 EQ PUSH2 0x1DA JUMPI DUP1 PUSH4 0x777B506F EQ PUSH2 0x203 JUMPI DUP1 PUSH4 0x86D02608 EQ PUSH2 0x22E JUMPI DUP1 PUSH4 0x966824A3 EQ PUSH2 0x259 JUMPI DUP1 PUSH4 0x9DD58B58 EQ PUSH2 0x263 JUMPI PUSH2 0x114 JUMP JUMPDEST DUP1 PUSH4 0x1B017FDE EQ PUSH2 0x119 JUMPI DUP1 PUSH4 0x20CA3C7F EQ PUSH2 0x142 JUMPI DUP1 PUSH4 0x2C4C3C1B EQ PUSH2 0x16D JUMPI DUP1 PUSH4 0x4CFD1BA5 EQ PUSH2 0x1AF JUMPI PUSH2 0x114 JUMP JUMPDEST CALLDATASIZE PUSH2 0x114 JUMPI STOP JUMPDEST PUSH1 0x0 DUP1 REVERT JUMPDEST CALLVALUE DUP1 ISZERO PUSH2 0x125 JUMPI PUSH1 0x0 DUP1 REVERT JUMPDEST POP PUSH2 0x140 PUSH1 0x4 DUP1 CALLDATASIZE SUB DUP2 ADD SWAP1 PUSH2 0x13B SWAP2 SWAP1 PUSH2 0x15E4 JUMP JUMPDEST PUSH2 0x423 JUMP JUMPDEST STOP JUMPDEST CALLVALUE DUP1 ISZERO PUSH2 0x14E JUMPI PUSH1 0x0 DUP1 REVERT JUMPDEST POP PUSH2 0x157 PUSH2 0x467 JUMP JUMPDEST PUSH1 0x40 MLOAD PUSH2 0x164 SWAP2 SWAP1 PUSH2 0x1620 JUMP JUMPDEST PUSH1 0x40 MLOAD DUP1 SWAP2 SUB SWAP1 RETURN JUMPDEST CALLVALUE DUP1 ISZERO PUSH2 0x179 JUMPI PUSH1 0x0 DUP1 REVERT JUMPDEST POP PUSH2 0x194 PUSH1 0x4 DUP1 CALLDATASIZE SUB DUP2 ADD SWAP1 PUSH2 0x18F SWAP2 SWAP1 PUSH2 0x1671 JUMP JUMPDEST PUSH2 0x48D JUMP JUMPDEST PUSH1 0x40 MLOAD PUSH2 0x1A6 SWAP7 SWAP6 SWAP5 SWAP4 SWAP3 SWAP2 SWAP1 PUSH2 0x16C8 JUMP JUMPDEST PUSH1 0x40 MLOAD DUP1 SWAP2 SUB SWAP1 RETURN JUMPDEST CALLVALUE DUP1 ISZERO PUSH2 0x1BB JUMPI PUSH1 0x0 DUP1 REVERT JUMPDEST POP PUSH2 0x1C4 PUSH2 0x503 JUMP JUMPDEST PUSH1 0x40 MLOAD PUSH2 0x1D1 SWAP2 SWAP1 PUSH2 0x1729 JUMP JUMPDEST PUSH1 0x40 MLOAD DUP1 SWAP2 SUB SWAP1 RETURN JUMPDEST CALLVALUE DUP1 ISZERO PUSH2 0x1E6 JUMPI PUSH1 0x0 DUP1 REVERT JUMPDEST POP PUSH2 0x201 PUSH1 0x4 DUP1 CALLDATASIZE SUB DUP2 ADD SWAP1 PUSH2 0x1FC SWAP2 SWAP1 PUSH2 0x15E4 JUMP JUMPDEST PUSH2 0x509 JUMP JUMPDEST STOP JUMPDEST CALLVALUE DUP1 ISZERO PUSH2 0x20F JUMPI PUSH1 0x0 DUP1 REVERT JUMPDEST POP PUSH2 0x218 PUSH2 0x610 JUMP JUMPDEST PUSH1 0x40 MLOAD PUSH2 0x225 SWAP2 SWAP1 PUSH2 0x1620 JUMP JUMPDEST PUSH1 0x40 MLOAD DUP1 SWAP2 SUB SWAP1 RETURN JUMPDEST CALLVALUE DUP1 ISZERO PUSH2 0x23A JUMPI PUSH1 0x0 DUP1 REVERT JUMPDEST POP PUSH2 0x243 PUSH2 0x636 JUMP JUMPDEST PUSH1 0x40 MLOAD PUSH2 0x250 SWAP2 SWAP1 PUSH2 0x1729 JUMP JUMPDEST PUSH1 0x40 MLOAD DUP1 SWAP2 SUB SWAP1 RETURN JUMPDEST PUSH2 0x261 PUSH2 0x63C JUMP JUMPDEST STOP JUMPDEST CALLVALUE DUP1 ISZERO PUSH2 0x26F JUMPI PUSH1 0x0 DUP1 REVERT JUMPDEST POP PUSH2 0x278 PUSH2 0x64F JUMP JUMPDEST PUSH1 0x40 MLOAD PUSH2 0x285 SWAP2 SWAP1 PUSH2 0x1729 JUMP JUMPDEST PUSH1 0x40 MLOAD DUP1 SWAP2 SUB SWAP1 RETURN JUMPDEST CALLVALUE DUP1 ISZERO PUSH2 0x29A JUMPI PUSH1 0x0 DUP1 REVERT JUMPDEST POP PUSH2 0x2A3 PUSH2 0x6F4 JUMP JUMPDEST PUSH1 0x40 MLOAD PUSH2 0x2B0 SWAP2 SWAP1 PUSH2 0x1729 JUMP JUMPDEST PUSH1 0x40 MLOAD DUP1 SWAP2 SUB SWAP1 RETURN JUMPDEST CALLVALUE DUP1 ISZERO PUSH2 0x2C5 JUMPI PUSH1 0x0 DUP1 REVERT JUMPDEST POP PUSH2 0x2CE PUSH2 0x6FA JUMP JUMPDEST PUSH1 0x40 MLOAD PUSH2 0x2DB SWAP2 SWAP1 PUSH2 0x1620 JUMP JUMPDEST PUSH1 0x40 MLOAD DUP1 SWAP2 SUB SWAP1 RETURN JUMPDEST CALLVALUE DUP1 ISZERO PUSH2 0x2F0 JUMPI PUSH1 0x0 DUP1 REVERT JUMPDEST POP PUSH2 0x2F9 PUSH2 0x720 JUMP JUMPDEST PUSH1 0x40 MLOAD PUSH2 0x306 SWAP2 SWAP1 PUSH2 0x1620 JUMP JUMPDEST PUSH1 0x40 MLOAD DUP1 SWAP2 SUB SWAP1 RETURN JUMPDEST CALLVALUE DUP1 ISZERO PUSH2 0x31B JUMPI PUSH1 0x0 DUP1 REVERT JUMPDEST POP PUSH2 0x324 PUSH2 0x744 JUMP JUMPDEST PUSH1 0x40 MLOAD PUSH2 0x331 SWAP2 SWAP1 PUSH2 0x1620 JUMP JUMPDEST PUSH1 0x40 MLOAD DUP1 SWAP2 SUB SWAP1 RETURN JUMPDEST CALLVALUE DUP1 ISZERO PUSH2 0x346 JUMPI PUSH1 0x0 DUP1 REVERT JUMPDEST POP PUSH2 0x34F PUSH2 0x76A JUMP JUMPDEST PUSH1 0x40 MLOAD PUSH2 0x35C SWAP2 SWAP1 PUSH2 0x1620 JUMP JUMPDEST PUSH1 0x40 MLOAD DUP1 SWAP2 SUB SWAP1 RETURN JUMPDEST CALLVALUE DUP1 ISZERO PUSH2 0x371 JUMPI PUSH1 0x0 DUP1 REVERT JUMPDEST POP PUSH2 0x38C PUSH1 0x4 DUP1 CALLDATASIZE SUB DUP2 ADD SWAP1 PUSH2 0x387 SWAP2 SWAP1 PUSH2 0x1671 JUMP JUMPDEST PUSH2 0x790 JUMP JUMPDEST PUSH1 0x40 MLOAD PUSH2 0x399 SWAP2 SWAP1 PUSH2 0x1620 JUMP JUMPDEST PUSH1 0x40 MLOAD DUP1 SWAP2 SUB SWAP1 RETURN JUMPDEST CALLVALUE DUP1 ISZERO PUSH2 0x3AE JUMPI PUSH1 0x0 DUP1 REVERT JUMPDEST POP PUSH2 0x3B7 PUSH2 0x7CF JUMP JUMPDEST PUSH1 0x40 MLOAD PUSH2 0x3C4 SWAP2 SWAP1 PUSH2 0x1620 JUMP JUMPDEST PUSH1 0x40 MLOAD DUP1 SWAP2 SUB SWAP1 RETURN JUMPDEST CALLVALUE DUP1 ISZERO PUSH2 0x3D9 JUMPI PUSH1 0x0 DUP1 REVERT JUMPDEST POP PUSH2 0x3E2 PUSH2 0x7F5 JUMP JUMPDEST PUSH1 0x40 MLOAD PUSH2 0x3EF SWAP2 SWAP1 PUSH2 0x1729 JUMP JUMPDEST PUSH1 0x40 MLOAD DUP1 SWAP2 SUB SWAP1 RETURN JUMPDEST CALLVALUE DUP1 ISZERO PUSH2 0x404 JUMPI PUSH1 0x0 DUP1 REVERT JUMPDEST POP PUSH2 0x40D PUSH2 0x818 JUMP JUMPDEST PUSH1 0x40 MLOAD PUSH2 0x41A SWAP2 SWAP1 PUSH2 0x1729 JUMP JUMPDEST PUSH1 0x40 MLOAD DUP1 SWAP2 SUB SWAP1 RETURN JUMPDEST DUP1 PUSH1 0x1 PUSH1 0x0 PUSH2 0x100 EXP DUP2 SLOAD DUP2 PUSH20 0xFFFFFFFFFFFFFFFFFFFFFFFFFFFFFFFFFFFFFFFF MUL NOT AND SWAP1 DUP4 PUSH20 0xFFFFFFFFFFFFFFFFFFFFFFFFFFFFFFFFFFFFFFFF AND MUL OR SWAP1 SSTORE POP POP JUMP JUMPDEST PUSH1 0x6 PUSH1 0x0 SWAP1 SLOAD SWAP1 PUSH2 0x100 EXP SWAP1 DIV PUSH20 0xFFFFFFFFFFFFFFFFFFFFFFFFFFFFFFFFFFFFFFFF AND DUP2 JUMP JUMPDEST PUSH1 0xC PUSH1 0x20 MSTORE DUP1 PUSH1 0x0 MSTORE PUSH1 0x40 PUSH1 0x0 KECCAK256 PUSH1 0x0 SWAP2 POP SWAP1 POP DUP1 PUSH1 0x0 ADD SLOAD SWAP1 DUP1 PUSH1 0x1 ADD PUSH1 0x0 SWAP1 SLOAD SWAP1 PUSH2 0x100 EXP SWAP1 DIV PUSH20 0xFFFFFFFFFFFFFFFFFFFFFFFFFFFFFFFFFFFFFFFF AND SWAP1 DUP1 PUSH1 0x2 ADD SLOAD SWAP1 DUP1 PUSH1 0x3 ADD PUSH1 0x0 SWAP1 SLOAD SWAP1 PUSH2 0x100 EXP SWAP1 DIV PUSH1 0xFF AND SWAP1 DUP1 PUSH1 0x4 ADD SLOAD SWAP1 DUP1 PUSH1 0x5 ADD PUSH1 0x0 SWAP1 SLOAD SWAP1 PUSH2 0x100 EXP SWAP1 DIV PUSH1 0xFF AND SWAP1 POP DUP7 JUMP JUMPDEST PUSH1 0xF SLOAD DUP2 JUMP JUMPDEST PUSH1 0x0 DUP2 SWAP1 POP PUSH1 0x0 DUP2 PUSH20 0xFFFFFFFFFFFFFFFFFFFFFFFFFFFFFFFFFFFFFFFF AND PUSH4 0x70A08231 ADDRESS PUSH1 0x40 MLOAD DUP3 PUSH4 0xFFFFFFFF AND PUSH1 0xE0 SHL DUP2 MSTORE PUSH1 0x4 ADD PUSH2 0x549 SWAP2 SWAP1 PUSH2 0x1620 JUMP JUMPDEST PUSH1 0x20 PUSH1 0x40 MLOAD DUP1 DUP4 SUB DUP2 DUP7 GAS STATICCALL ISZERO DUP1 ISZERO PUSH2 0x566 JUMPI RETURNDATASIZE PUSH1 0x0 DUP1 RETURNDATACOPY RETURNDATASIZE PUSH1 0x0 REVERT JUMPDEST POP POP POP POP PUSH1 0x40 MLOAD RETURNDATASIZE PUSH1 0x1F NOT PUSH1 0x1F DUP3 ADD AND DUP3 ADD DUP1 PUSH1 0x40 MSTORE POP DUP2 ADD SWAP1 PUSH2 0x58A SWAP2 SWAP1 PUSH2 0x1759 JUMP JUMPDEST SWAP1 POP DUP2 PUSH20 0xFFFFFFFFFFFFFFFFFFFFFFFFFFFFFFFFFFFFFFFF AND PUSH4 0xA9059CBB CALLER DUP4 PUSH1 0x40 MLOAD DUP4 PUSH4 0xFFFFFFFF AND PUSH1 0xE0 SHL DUP2 MSTORE PUSH1 0x4 ADD PUSH2 0x5C7 SWAP3 SWAP2 SWAP1 PUSH2 0x1786 JUMP JUMPDEST PUSH1 0x20 PUSH1 0x40 MLOAD DUP1 DUP4 SUB DUP2 PUSH1 0x0 DUP8 GAS CALL ISZERO DUP1 ISZERO PUSH2 0x5E6 JUMPI RETURNDATASIZE PUSH1 0x0 DUP1 RETURNDATACOPY RETURNDATASIZE PUSH1 0x0 REVERT JUMPDEST POP POP POP POP PUSH1 0x40 MLOAD RETURNDATASIZE PUSH1 0x1F NOT PUSH1 0x1F DUP3 ADD AND DUP3 ADD DUP1 PUSH1 0x40 MSTORE POP DUP2 ADD SWAP1 PUSH2 0x60A SWAP2 SWAP1 PUSH2 0x17DB JUMP JUMPDEST POP POP POP POP JUMP JUMPDEST PUSH1 0x4 PUSH1 0x0 SWAP1 SLOAD SWAP1 PUSH2 0x100 EXP SWAP1 DIV PUSH20 0xFFFFFFFFFFFFFFFFFFFFFFFFFFFFFFFFFFFFFFFF AND DUP2 JUMP JUMPDEST PUSH1 0xE SLOAD DUP2 JUMP JUMPDEST PUSH2 0x645 CALLVALUE PUSH2 0x98F JUMP JUMPDEST PUSH2 0x64D PUSH2 0x9F5 JUMP JUMPDEST JUMP JUMPDEST PUSH1 0x0 PUSH1 0x9 PUSH1 0x0 SWAP1 SLOAD SWAP1 PUSH2 0x100 EXP SWAP1 DIV PUSH20 0xFFFFFFFFFFFFFFFFFFFFFFFFFFFFFFFFFFFFFFFF AND PUSH20 0xFFFFFFFFFFFFFFFFFFFFFFFFFFFFFFFFFFFFFFFF AND PUSH4 0x70A08231 ADDRESS PUSH1 0x40 MLOAD DUP3 PUSH4 0xFFFFFFFF AND PUSH1 0xE0 SHL DUP2 MSTORE PUSH1 0x4 ADD PUSH2 0x6AC SWAP2 SWAP1 PUSH2 0x1620 JUMP JUMPDEST PUSH1 0x20 PUSH1 0x40 MLOAD DUP1 DUP4 SUB DUP2 PUSH1 0x0 DUP8 GAS CALL ISZERO DUP1 ISZERO PUSH2 0x6CB JUMPI RETURNDATASIZE PUSH1 0x0 DUP1 RETURNDATACOPY RETURNDATASIZE PUSH1 0x0 REVERT JUMPDEST POP POP POP POP PUSH1 0x40 MLOAD RETURNDATASIZE PUSH1 0x1F NOT PUSH1 0x1F DUP3 ADD AND DUP3 ADD DUP1 PUSH1 0x40 MSTORE POP DUP2 ADD SWAP1 PUSH2 0x6EF SWAP2 SWAP1 PUSH2 0x1759 JUMP JUMPDEST SWAP1 POP SWAP1 JUMP JUMPDEST PUSH1 0x10 SLOAD DUP2 JUMP JUMPDEST PUSH1 0x1 PUSH1 0x0 SWAP1 SLOAD SWAP1 PUSH2 0x100 EXP SWAP1 DIV PUSH20 0xFFFFFFFFFFFFFFFFFFFFFFFFFFFFFFFFFFFFFFFF AND DUP2 JUMP JUMPDEST PUSH1 0x0 DUP1 SLOAD SWAP1 PUSH2 0x100 EXP SWAP1 DIV PUSH20 0xFFFFFFFFFFFFFFFFFFFFFFFFFFFFFFFFFFFFFFFF AND DUP2 JUMP JUMPDEST PUSH1 0x3 PUSH1 0x0 SWAP1 SLOAD SWAP1 PUSH2 0x100 EXP SWAP1 DIV PUSH20 0xFFFFFFFFFFFFFFFFFFFFFFFFFFFFFFFFFFFFFFFF AND DUP2 JUMP JUMPDEST PUSH1 0x5 PUSH1 0x0 SWAP1 SLOAD SWAP1 PUSH2 0x100 EXP SWAP1 DIV PUSH20 0xFFFFFFFFFFFFFFFFFFFFFFFFFFFFFFFFFFFFFFFF AND DUP2 JUMP JUMPDEST PUSH1 0x7 DUP2 DUP2 SLOAD DUP2 LT PUSH2 0x7A0 JUMPI PUSH1 0x0 DUP1 REVERT JUMPDEST SWAP1 PUSH1 0x0 MSTORE PUSH1 0x20 PUSH1 0x0 KECCAK256 ADD PUSH1 0x0 SWAP2 POP SLOAD SWAP1 PUSH2 0x100 EXP SWAP1 DIV PUSH20 0xFFFFFFFFFFFFFFFFFFFFFFFFFFFFFFFFFFFFFFFF AND DUP2 JUMP JUMPDEST PUSH1 0x2 PUSH1 0x0 SWAP1 SLOAD SWAP1 PUSH2 0x100 EXP SWAP1 DIV PUSH20 0xFFFFFFFFFFFFFFFFFFFFFFFFFFFFFFFFFFFFFFFF AND DUP2 JUMP JUMPDEST PUSH1 0x0 PUSH1 0xC PUSH1 0x0 PUSH1 0xD DUP1 SLOAD SWAP1 POP DUP2 MSTORE PUSH1 0x20 ADD SWAP1 DUP2 MSTORE PUSH1 0x20 ADD PUSH1 0x0 KECCAK256 PUSH1 0x2 ADD SLOAD SWAP1 POP SWAP1 JUMP JUMPDEST PUSH1 0x0 DUP1 PUSH1 0x1 PUSH1 0x0 SWAP1 SLOAD SWAP1 PUSH2 0x100 EXP SWAP1 DIV PUSH20 0xFFFFFFFFFFFFFFFFFFFFFFFFFFFFFFFFFFFFFFFF AND PUSH20 0xFFFFFFFFFFFFFFFFFFFFFFFFFFFFFFFFFFFFFFFF AND PUSH4 0x18160DDD PUSH1 0x40 MLOAD DUP2 PUSH4 0xFFFFFFFF AND PUSH1 0xE0 SHL DUP2 MSTORE PUSH1 0x4 ADD PUSH1 0x20 PUSH1 0x40 MLOAD DUP1 DUP4 SUB DUP2 DUP7 GAS STATICCALL ISZERO DUP1 ISZERO PUSH2 0x888 JUMPI RETURNDATASIZE PUSH1 0x0 DUP1 RETURNDATACOPY RETURNDATASIZE PUSH1 0x0 REVERT JUMPDEST POP POP POP POP PUSH1 0x40 MLOAD RETURNDATASIZE PUSH1 0x1F NOT PUSH1 0x1F DUP3 ADD AND DUP3 ADD DUP1 PUSH1 0x40 MSTORE POP DUP2 ADD SWAP1 PUSH2 0x8AC SWAP2 SWAP1 PUSH2 0x1759 JUMP JUMPDEST SWAP1 POP PUSH1 0x0 PUSH1 0x1 PUSH1 0x0 SWAP1 SLOAD SWAP1 PUSH2 0x100 EXP SWAP1 DIV PUSH20 0xFFFFFFFFFFFFFFFFFFFFFFFFFFFFFFFFFFFFFFFF AND PUSH20 0xFFFFFFFFFFFFFFFFFFFFFFFFFFFFFFFFFFFFFFFF AND PUSH4 0x70A08231 PUSH1 0x2 PUSH1 0x0 SWAP1 SLOAD SWAP1 PUSH2 0x100 EXP SWAP1 DIV PUSH20 0xFFFFFFFFFFFFFFFFFFFFFFFFFFFFFFFFFFFFFFFF AND PUSH1 0x40 MLOAD DUP3 PUSH4 0xFFFFFFFF AND PUSH1 0xE0 SHL DUP2 MSTORE PUSH1 0x4 ADD PUSH2 0x92D SWAP2 SWAP1 PUSH2 0x1620 JUMP JUMPDEST PUSH1 0x20 PUSH1 0x40 MLOAD DUP1 DUP4 SUB DUP2 DUP7 GAS STATICCALL ISZERO DUP1 ISZERO PUSH2 0x94A JUMPI RETURNDATASIZE PUSH1 0x0 DUP1 RETURNDATACOPY RETURNDATASIZE PUSH1 0x0 REVERT JUMPDEST POP POP POP POP PUSH1 0x40 MLOAD RETURNDATASIZE PUSH1 0x1F NOT PUSH1 0x1F DUP3 ADD AND DUP3 ADD DUP1 PUSH1 0x40 MSTORE POP DUP2 ADD SWAP1 PUSH2 0x96E SWAP2 SWAP1 PUSH2 0x1759 JUMP JUMPDEST SWAP1 POP DUP2 PUSH1 0x64 DUP3 PUSH2 0x97E SWAP2 SWAP1 PUSH2 0x1837 JUMP JUMPDEST PUSH2 0x988 SWAP2 SWAP1 PUSH2 0x18A8 JUMP JUMPDEST SWAP3 POP POP POP SWAP1 JUMP JUMPDEST PUSH1 0x0 PUSH1 0xD DUP1 SLOAD SWAP1 POP SWAP1 POP PUSH1 0x0 PUSH1 0xC PUSH1 0x0 PUSH1 0xD DUP1 SLOAD SWAP1 POP DUP2 MSTORE PUSH1 0x20 ADD SWAP1 DUP2 MSTORE PUSH1 0x20 ADD PUSH1 0x0 KECCAK256 SWAP1 POP DUP2 DUP2 PUSH1 0x0 ADD DUP2 SWAP1 SSTORE POP DUP3 DUP2 PUSH1 0x2 ADD DUP2 SWAP1 SSTORE POP PUSH1 0xD DUP3 SWAP1 DUP1 PUSH1 0x1 DUP2 SLOAD ADD DUP1 DUP3 SSTORE DUP1 SWAP2 POP POP PUSH1 0x1 SWAP1 SUB SWAP1 PUSH1 0x0 MSTORE PUSH1 0x20 PUSH1 0x0 KECCAK256 ADD PUSH1 0x0 SWAP1 SWAP2 SWAP1 SWAP2 SWAP1 SWAP2 POP SSTORE POP POP POP JUMP JUMPDEST PUSH1 0x0 CALLVALUE SWAP1 POP PUSH1 0x0 PUSH1 0xF SLOAD GT ISZERO PUSH2 0xA47 JUMPI PUSH1 0x0 SELFBALANCE SWAP1 POP PUSH2 0xA15 PUSH1 0xF SLOAD PUSH2 0xC54 JUMP JUMPDEST PUSH1 0x0 SELFBALANCE SWAP1 POP PUSH1 0x0 DUP2 DUP4 PUSH2 0xA28 SWAP2 SWAP1 PUSH2 0x18D9 JUMP JUMPDEST SWAP1 POP DUP1 PUSH1 0xF PUSH1 0x0 DUP3 DUP3 SLOAD PUSH2 0xA3C SWAP2 SWAP1 PUSH2 0x18D9 JUMP JUMPDEST SWAP3 POP POP DUP2 SWAP1 SSTORE POP POP POP POP JUMPDEST PUSH1 0x0 PUSH1 0x10 SLOAD GT ISZERO PUSH2 0xA95 JUMPI PUSH1 0x0 SELFBALANCE SWAP1 POP PUSH2 0xA62 PUSH1 0x10 SLOAD PUSH2 0xCF4 JUMP JUMPDEST POP PUSH1 0x0 SELFBALANCE SWAP1 POP PUSH1 0x0 DUP2 DUP4 PUSH2 0xA76 SWAP2 SWAP1 PUSH2 0x18D9 JUMP JUMPDEST SWAP1 POP DUP1 PUSH1 0x10 PUSH1 0x0 DUP3 DUP3 SLOAD PUSH2 0xA8A SWAP2 SWAP1 PUSH2 0x18D9 JUMP JUMPDEST SWAP3 POP POP DUP2 SWAP1 SSTORE POP POP POP POP JUMPDEST PUSH1 0x1 PUSH1 0xD DUP1 SLOAD SWAP1 POP SUB ISZERO PUSH2 0xB87 JUMPI PUSH1 0x0 PUSH1 0xC PUSH1 0x0 PUSH1 0x2 PUSH1 0xD DUP1 SLOAD SWAP1 POP PUSH2 0xABB SWAP2 SWAP1 PUSH2 0x18D9 JUMP JUMPDEST DUP2 MSTORE PUSH1 0x20 ADD SWAP1 DUP2 MSTORE PUSH1 0x20 ADD PUSH1 0x0 KECCAK256 PUSH1 0x1 ADD PUSH1 0x0 SWAP1 SLOAD SWAP1 PUSH2 0x100 EXP SWAP1 DIV PUSH20 0xFFFFFFFFFFFFFFFFFFFFFFFFFFFFFFFFFFFFFFFF AND SWAP1 POP PUSH2 0xAF8 DUP2 PUSH2 0x11CF JUMP JUMPDEST PUSH1 0x8 PUSH1 0x0 SWAP1 SLOAD SWAP1 PUSH2 0x100 EXP SWAP1 DIV PUSH20 0xFFFFFFFFFFFFFFFFFFFFFFFFFFFFFFFFFFFFFFFF AND PUSH20 0xFFFFFFFFFFFFFFFFFFFFFFFFFFFFFFFFFFFFFFFF AND PUSH4 0x6A627842 DUP3 PUSH1 0x40 MLOAD DUP3 PUSH4 0xFFFFFFFF AND PUSH1 0xE0 SHL DUP2 MSTORE PUSH1 0x4 ADD PUSH2 0xB53 SWAP2 SWAP1 PUSH2 0x1620 JUMP JUMPDEST PUSH1 0x0 PUSH1 0x40 MLOAD DUP1 DUP4 SUB DUP2 PUSH1 0x0 DUP8 DUP1 EXTCODESIZE ISZERO DUP1 ISZERO PUSH2 0xB6D JUMPI PUSH1 0x0 DUP1 REVERT JUMPDEST POP GAS CALL ISZERO DUP1 ISZERO PUSH2 0xB81 JUMPI RETURNDATASIZE PUSH1 0x0 DUP1 RETURNDATACOPY RETURNDATASIZE PUSH1 0x0 REVERT JUMPDEST POP POP POP POP POP JUMPDEST PUSH1 0x0 PUSH2 0xB91 PUSH2 0x818 JUMP JUMPDEST SWAP1 POP PUSH1 0x14 DUP2 GT ISZERO PUSH2 0xBF1 JUMPI PUSH1 0x0 SELFBALANCE SWAP1 POP PUSH2 0xBAA CALLVALUE PUSH2 0xC54 JUMP JUMPDEST PUSH1 0x0 SELFBALANCE SWAP1 POP PUSH1 0x0 DUP2 DUP4 PUSH2 0xBBD SWAP2 SWAP1 PUSH2 0x18D9 JUMP JUMPDEST SWAP1 POP PUSH1 0x0 DUP2 DUP7 PUSH2 0xBCD SWAP2 SWAP1 PUSH2 0x18D9 JUMP JUMPDEST SWAP1 POP DUP1 PUSH1 0xF PUSH1 0x0 DUP3 DUP3 SLOAD PUSH2 0xBE1 SWAP2 SWAP1 PUSH2 0x190D JUMP JUMPDEST SWAP3 POP POP DUP2 SWAP1 SSTORE POP POP POP POP POP PUSH2 0xC50 JUMP JUMPDEST PUSH1 0x0 SELFBALANCE SWAP1 POP PUSH2 0xC0C CALLVALUE PUSH1 0x10 SLOAD PUSH2 0xC07 SWAP2 SWAP1 PUSH2 0x190D JUMP JUMPDEST PUSH2 0xCF4 JUMP JUMPDEST POP PUSH1 0x0 SELFBALANCE SWAP1 POP PUSH1 0x0 DUP2 DUP4 PUSH2 0xC20 SWAP2 SWAP1 PUSH2 0x18D9 JUMP JUMPDEST SWAP1 POP PUSH1 0x0 DUP2 DUP7 PUSH2 0xC30 SWAP2 SWAP1 PUSH2 0x18D9 JUMP JUMPDEST SWAP1 POP DUP1 PUSH1 0x10 PUSH1 0x0 DUP3 DUP3 SLOAD PUSH2 0xC44 SWAP2 SWAP1 PUSH2 0x190D JUMP JUMPDEST SWAP3 POP POP DUP2 SWAP1 SSTORE POP POP POP POP POP JUMPDEST POP POP JUMP JUMPDEST PUSH1 0x0 PUSH2 0xC5F DUP3 PUSH2 0x1351 JUMP JUMPDEST SWAP1 POP PUSH1 0x1 PUSH1 0x0 SWAP1 SLOAD SWAP1 PUSH2 0x100 EXP SWAP1 DIV PUSH20 0xFFFFFFFFFFFFFFFFFFFFFFFFFFFFFFFFFFFFFFFF AND PUSH20 0xFFFFFFFFFFFFFFFFFFFFFFFFFFFFFFFFFFFFFFFF AND PUSH4 0x9DC29FAC CALLER DUP4 PUSH1 0x40 MLOAD DUP4 PUSH4 0xFFFFFFFF AND PUSH1 0xE0 SHL DUP2 MSTORE PUSH1 0x4 ADD PUSH2 0xCBE SWAP3 SWAP2 SWAP1 PUSH2 0x1786 JUMP JUMPDEST PUSH1 0x0 PUSH1 0x40 MLOAD DUP1 DUP4 SUB DUP2 PUSH1 0x0 DUP8 DUP1 EXTCODESIZE ISZERO DUP1 ISZERO PUSH2 0xCD8 JUMPI PUSH1 0x0 DUP1 REVERT JUMPDEST POP GAS CALL ISZERO DUP1 ISZERO PUSH2 0xCEC JUMPI RETURNDATASIZE PUSH1 0x0 DUP1 RETURNDATACOPY RETURNDATASIZE PUSH1 0x0 REVERT JUMPDEST POP POP POP POP POP POP JUMP JUMPDEST PUSH1 0x0 DUP1 PUSH1 0x0 PUSH1 0x1 PUSH1 0x0 SWAP1 SLOAD SWAP1 PUSH2 0x100 EXP SWAP1 DIV PUSH20 0xFFFFFFFFFFFFFFFFFFFFFFFFFFFFFFFFFFFFFFFF AND PUSH20 0xFFFFFFFFFFFFFFFFFFFFFFFFFFFFFFFFFFFFFFFF AND PUSH4 0x70A08231 ADDRESS PUSH1 0x40 MLOAD DUP3 PUSH4 0xFFFFFFFF AND PUSH1 0xE0 SHL DUP2 MSTORE PUSH1 0x4 ADD PUSH2 0xD54 SWAP2 SWAP1 PUSH2 0x1620 JUMP JUMPDEST PUSH1 0x20 PUSH1 0x40 MLOAD DUP1 DUP4 SUB DUP2 DUP7 GAS STATICCALL ISZERO DUP1 ISZERO PUSH2 0xD71 JUMPI RETURNDATASIZE PUSH1 0x0 DUP1 RETURNDATACOPY RETURNDATASIZE PUSH1 0x0 REVERT JUMPDEST POP POP POP POP PUSH1 0x40 MLOAD RETURNDATASIZE PUSH1 0x1F NOT PUSH1 0x1F DUP3 ADD AND DUP3 ADD DUP1 PUSH1 0x40 MSTORE POP DUP2 ADD SWAP1 PUSH2 0xD95 SWAP2 SWAP1 PUSH2 0x1759 JUMP JUMPDEST SWAP1 POP PUSH1 0x0 PUSH1 0x64 PUSH1 0x69 PUSH1 0xA PUSH1 0x0 SWAP1 SLOAD SWAP1 PUSH2 0x100 EXP SWAP1 DIV PUSH20 0xFFFFFFFFFFFFFFFFFFFFFFFFFFFFFFFFFFFFFFFF AND PUSH20 0xFFFFFFFFFFFFFFFFFFFFFFFFFFFFFFFFFFFFFFFF AND PUSH4 0x3AC35585 PUSH1 0x0 DUP1 SLOAD SWAP1 PUSH2 0x100 EXP SWAP1 DIV PUSH20 0xFFFFFFFFFFFFFFFFFFFFFFFFFFFFFFFFFFFFFFFF AND DUP10 PUSH1 0x40 MLOAD DUP4 PUSH4 0xFFFFFFFF AND PUSH1 0xE0 SHL DUP2 MSTORE PUSH1 0x4 ADD PUSH2 0xE1A SWAP3 SWAP2 SWAP1 PUSH2 0x1786 JUMP JUMPDEST PUSH1 0x20 PUSH1 0x40 MLOAD DUP1 DUP4 SUB DUP2 DUP7 GAS STATICCALL ISZERO DUP1 ISZERO PUSH2 0xE37 JUMPI RETURNDATASIZE PUSH1 0x0 DUP1 RETURNDATACOPY RETURNDATASIZE PUSH1 0x0 REVERT JUMPDEST POP POP POP POP PUSH1 0x40 MLOAD RETURNDATASIZE PUSH1 0x1F NOT PUSH1 0x1F DUP3 ADD AND DUP3 ADD DUP1 PUSH1 0x40 MSTORE POP DUP2 ADD SWAP1 PUSH2 0xE5B SWAP2 SWAP1 PUSH2 0x1759 JUMP JUMPDEST PUSH2 0xE65 SWAP2 SWAP1 PUSH2 0x1837 JUMP JUMPDEST PUSH2 0xE6F SWAP2 SWAP1 PUSH2 0x18A8 JUMP JUMPDEST SWAP1 POP DUP2 DUP2 GT ISZERO PUSH2 0xFB2 JUMPI PUSH1 0x1 PUSH1 0x0 SWAP1 SLOAD SWAP1 PUSH2 0x100 EXP SWAP1 DIV PUSH20 0xFFFFFFFFFFFFFFFFFFFFFFFFFFFFFFFFFFFFFFFF AND PUSH20 0xFFFFFFFFFFFFFFFFFFFFFFFFFFFFFFFFFFFFFFFF AND PUSH4 0x96FE8349 DUP4 DUP4 PUSH2 0xEC3 SWAP2 SWAP1 PUSH2 0x18D9 JUMP JUMPDEST ADDRESS PUSH1 0x40 MLOAD DUP4 PUSH4 0xFFFFFFFF AND PUSH1 0xE0 SHL DUP2 MSTORE PUSH1 0x4 ADD PUSH2 0xEE1 SWAP3 SWAP2 SWAP1 PUSH2 0x1941 JUMP JUMPDEST PUSH1 0x0 PUSH1 0x40 MLOAD DUP1 DUP4 SUB DUP2 PUSH1 0x0 DUP8 DUP1 EXTCODESIZE ISZERO DUP1 ISZERO PUSH2 0xEFB JUMPI PUSH1 0x0 DUP1 REVERT JUMPDEST POP GAS CALL ISZERO DUP1 ISZERO PUSH2 0xF0F JUMPI RETURNDATASIZE PUSH1 0x0 DUP1 RETURNDATACOPY RETURNDATASIZE PUSH1 0x0 REVERT JUMPDEST POP POP POP POP PUSH1 0x1 PUSH1 0x0 SWAP1 SLOAD SWAP1 PUSH2 0x100 EXP SWAP1 DIV PUSH20 0xFFFFFFFFFFFFFFFFFFFFFFFFFFFFFFFFFFFFFFFF AND PUSH20 0xFFFFFFFFFFFFFFFFFFFFFFFFFFFFFFFFFFFFFFFF AND PUSH4 0x70A08231 ADDRESS PUSH1 0x40 MLOAD DUP3 PUSH4 0xFFFFFFFF AND PUSH1 0xE0 SHL DUP2 MSTORE PUSH1 0x4 ADD PUSH2 0xF6E SWAP2 SWAP1 PUSH2 0x1620 JUMP JUMPDEST PUSH1 0x20 PUSH1 0x40 MLOAD DUP1 DUP4 SUB DUP2 DUP7 GAS STATICCALL ISZERO DUP1 ISZERO PUSH2 0xF8B JUMPI RETURNDATASIZE PUSH1 0x0 DUP1 RETURNDATACOPY RETURNDATASIZE PUSH1 0x0 REVERT JUMPDEST POP POP POP POP PUSH1 0x40 MLOAD RETURNDATASIZE PUSH1 0x1F NOT PUSH1 0x1F DUP3 ADD AND DUP3 ADD DUP1 PUSH1 0x40 MSTORE POP DUP2 ADD SWAP1 PUSH2 0xFAF SWAP2 SWAP1 PUSH2 0x1759 JUMP JUMPDEST SWAP2 POP JUMPDEST PUSH1 0xB PUSH1 0x0 SWAP1 SLOAD SWAP1 PUSH2 0x100 EXP SWAP1 DIV PUSH20 0xFFFFFFFFFFFFFFFFFFFFFFFFFFFFFFFFFFFFFFFF AND PUSH20 0xFFFFFFFFFFFFFFFFFFFFFFFFFFFFFFFFFFFFFFFF AND PUSH4 0xF305D719 DUP7 ADDRESS DUP5 PUSH1 0x69 PUSH1 0x5F DUP8 PUSH2 0x1002 SWAP2 SWAP1 PUSH2 0x1837 JUMP JUMPDEST PUSH2 0x100C SWAP2 SWAP1 PUSH2 0x18A8 JUMP JUMPDEST PUSH1 0x64 PUSH1 0x5F DUP13 PUSH2 0x101B SWAP2 SWAP1 PUSH2 0x1837 JUMP JUMPDEST PUSH2 0x1025 SWAP2 SWAP1 PUSH2 0x18A8 JUMP JUMPDEST ADDRESS PUSH32 0xFFFFFFFFFFFFFFFFFFFFFFFFFFFFFFFFFFFFFFFFFFFFFFFFFFFFFFFFFFFFFFFF PUSH1 0x40 MLOAD DUP9 PUSH4 0xFFFFFFFF AND PUSH1 0xE0 SHL DUP2 MSTORE PUSH1 0x4 ADD PUSH2 0x1068 SWAP7 SWAP6 SWAP5 SWAP4 SWAP3 SWAP2 SWAP1 PUSH2 0x196A JUMP JUMPDEST PUSH1 0x60 PUSH1 0x40 MLOAD DUP1 DUP4 SUB DUP2 DUP6 DUP9 GAS CALL SWAP4 POP POP POP POP DUP1 ISZERO PUSH2 0x10A4 JUMPI POP PUSH1 0x40 MLOAD RETURNDATASIZE PUSH1 0x1F NOT PUSH1 0x1F DUP3 ADD AND DUP3 ADD DUP1 PUSH1 0x40 MSTORE POP DUP2 ADD SWAP1 PUSH2 0x10A1 SWAP2 SWAP1 PUSH2 0x19CB JUMP JUMPDEST PUSH1 0x1 JUMPDEST PUSH2 0x10E2 JUMPI PUSH32 0xCF34EF537AC33EE1AC626CA1587A0A7E8E51561E5514F8CB36AFA1C5102B3BAB PUSH1 0x40 MLOAD PUSH2 0x10D5 SWAP1 PUSH2 0x1A7B JUMP JUMPDEST PUSH1 0x40 MLOAD DUP1 SWAP2 SUB SWAP1 LOG1 PUSH2 0x11C4 JUMP JUMPDEST POP POP POP PUSH32 0xCF34EF537AC33EE1AC626CA1587A0A7E8E51561E5514F8CB36AFA1C5102B3BAB PUSH1 0x40 MLOAD PUSH2 0x1112 SWAP1 PUSH2 0x1AE7 JUMP JUMPDEST PUSH1 0x40 MLOAD DUP1 SWAP2 SUB SWAP1 LOG1 PUSH1 0x1 PUSH1 0x0 SWAP1 SLOAD SWAP1 PUSH2 0x100 EXP SWAP1 DIV PUSH20 0xFFFFFFFFFFFFFFFFFFFFFFFFFFFFFFFFFFFFFFFF AND PUSH20 0xFFFFFFFFFFFFFFFFFFFFFFFFFFFFFFFFFFFFFFFF AND PUSH4 0x70A08231 ADDRESS PUSH1 0x40 MLOAD DUP3 PUSH4 0xFFFFFFFF AND PUSH1 0xE0 SHL DUP2 MSTORE PUSH1 0x4 ADD PUSH2 0x1175 SWAP2 SWAP1 PUSH2 0x1620 JUMP JUMPDEST PUSH1 0x20 PUSH1 0x40 MLOAD DUP1 DUP4 SUB DUP2 DUP7 GAS STATICCALL ISZERO DUP1 ISZERO PUSH2 0x1192 JUMPI RETURNDATASIZE PUSH1 0x0 DUP1 RETURNDATACOPY RETURNDATASIZE PUSH1 0x0 REVERT JUMPDEST POP POP POP POP PUSH1 0x40 MLOAD RETURNDATASIZE PUSH1 0x1F NOT PUSH1 0x1F DUP3 ADD AND DUP3 ADD DUP1 PUSH1 0x40 MSTORE POP DUP2 ADD SWAP1 PUSH2 0x11B6 SWAP2 SWAP1 PUSH2 0x1759 JUMP JUMPDEST DUP3 PUSH2 0x11C1 SWAP2 SWAP1 PUSH2 0x18D9 JUMP JUMPDEST SWAP3 POP JUMPDEST DUP3 SWAP4 POP POP POP POP SWAP2 SWAP1 POP JUMP JUMPDEST PUSH1 0x0 PUSH1 0xC PUSH1 0x0 PUSH1 0x2 PUSH1 0xD DUP1 SLOAD SWAP1 POP PUSH2 0x11E7 SWAP2 SWAP1 PUSH2 0x18D9 JUMP JUMPDEST DUP2 MSTORE PUSH1 0x20 ADD SWAP1 DUP2 MSTORE PUSH1 0x20 ADD PUSH1 0x0 KECCAK256 PUSH1 0x2 ADD SLOAD SWAP1 POP PUSH1 0x0 PUSH1 0xA PUSH1 0x0 SWAP1 SLOAD SWAP1 PUSH2 0x100 EXP SWAP1 DIV PUSH20 0xFFFFFFFFFFFFFFFFFFFFFFFFFFFFFFFFFFFFFFFF AND PUSH20 0xFFFFFFFFFFFFFFFFFFFFFFFFFFFFFFFFFFFFFFFF AND PUSH4 0x3AC35585 PUSH1 0x0 DUP1 SLOAD SWAP1 PUSH2 0x100 EXP SWAP1 DIV PUSH20 0xFFFFFFFFFFFFFFFFFFFFFFFFFFFFFFFFFFFFFFFF AND DUP5 PUSH1 0x40 MLOAD DUP4 PUSH4 0xFFFFFFFF AND PUSH1 0xE0 SHL DUP2 MSTORE PUSH1 0x4 ADD PUSH2 0x127A SWAP3 SWAP2 SWAP1 PUSH2 0x1786 JUMP JUMPDEST PUSH1 0x20 PUSH1 0x40 MLOAD DUP1 DUP4 SUB DUP2 DUP7 GAS STATICCALL ISZERO DUP1 ISZERO PUSH2 0x1297 JUMPI RETURNDATASIZE PUSH1 0x0 DUP1 RETURNDATACOPY RETURNDATASIZE PUSH1 0x0 REVERT JUMPDEST POP POP POP POP PUSH1 0x40 MLOAD RETURNDATASIZE PUSH1 0x1F NOT PUSH1 0x1F DUP3 ADD AND DUP3 ADD DUP1 PUSH1 0x40 MSTORE POP DUP2 ADD SWAP1 PUSH2 0x12BB SWAP2 SWAP1 PUSH2 0x1759 JUMP JUMPDEST SWAP1 POP PUSH1 0x1 PUSH1 0x0 SWAP1 SLOAD SWAP1 PUSH2 0x100 EXP SWAP1 DIV PUSH20 0xFFFFFFFFFFFFFFFFFFFFFFFFFFFFFFFFFFFFFFFF AND PUSH20 0xFFFFFFFFFFFFFFFFFFFFFFFFFFFFFFFFFFFFFFFF AND PUSH4 0x96FE8349 DUP3 DUP6 PUSH1 0x40 MLOAD DUP4 PUSH4 0xFFFFFFFF AND PUSH1 0xE0 SHL DUP2 MSTORE PUSH1 0x4 ADD PUSH2 0x131A SWAP3 SWAP2 SWAP1 PUSH2 0x1941 JUMP JUMPDEST PUSH1 0x0 PUSH1 0x40 MLOAD DUP1 DUP4 SUB DUP2 PUSH1 0x0 DUP8 DUP1 EXTCODESIZE ISZERO DUP1 ISZERO PUSH2 0x1334 JUMPI PUSH1 0x0 DUP1 REVERT JUMPDEST POP GAS CALL ISZERO DUP1 ISZERO PUSH2 0x1348 JUMPI RETURNDATASIZE PUSH1 0x0 DUP1 RETURNDATACOPY RETURNDATASIZE PUSH1 0x0 REVERT JUMPDEST POP POP POP POP POP POP POP JUMP JUMPDEST PUSH1 0x0 DUP1 PUSH1 0xA PUSH1 0x0 SWAP1 SLOAD SWAP1 PUSH2 0x100 EXP SWAP1 DIV PUSH20 0xFFFFFFFFFFFFFFFFFFFFFFFFFFFFFFFFFFFFFFFF AND PUSH20 0xFFFFFFFFFFFFFFFFFFFFFFFFFFFFFFFFFFFFFFFF AND PUSH4 0x3AC35585 PUSH1 0x0 DUP1 SLOAD SWAP1 PUSH2 0x100 EXP SWAP1 DIV PUSH20 0xFFFFFFFFFFFFFFFFFFFFFFFFFFFFFFFFFFFFFFFF AND DUP6 PUSH1 0x40 MLOAD DUP4 PUSH4 0xFFFFFFFF AND PUSH1 0xE0 SHL DUP2 MSTORE PUSH1 0x4 ADD PUSH2 0x13D1 SWAP3 SWAP2 SWAP1 PUSH2 0x1786 JUMP JUMPDEST PUSH1 0x20 PUSH1 0x40 MLOAD DUP1 DUP4 SUB DUP2 DUP7 GAS STATICCALL ISZERO DUP1 ISZERO PUSH2 0x13EE JUMPI RETURNDATASIZE PUSH1 0x0 DUP1 RETURNDATACOPY RETURNDATASIZE PUSH1 0x0 REVERT JUMPDEST POP POP POP POP PUSH1 0x40 MLOAD RETURNDATASIZE PUSH1 0x1F NOT PUSH1 0x1F DUP3 ADD AND DUP3 ADD DUP1 PUSH1 0x40 MSTORE POP DUP2 ADD SWAP1 PUSH2 0x1412 SWAP2 SWAP1 PUSH2 0x1759 JUMP JUMPDEST SWAP1 POP PUSH1 0x0 PUSH1 0x64 PUSH1 0x5F DUP4 PUSH2 0x1425 SWAP2 SWAP1 PUSH2 0x1837 JUMP JUMPDEST PUSH2 0x142F SWAP2 SWAP1 PUSH2 0x18A8 JUMP JUMPDEST SWAP1 POP PUSH1 0x0 PUSH1 0x2 PUSH8 0xFFFFFFFFFFFFFFFF DUP2 GT ISZERO PUSH2 0x144E JUMPI PUSH2 0x144D PUSH2 0x1B07 JUMP JUMPDEST JUMPDEST PUSH1 0x40 MLOAD SWAP1 DUP1 DUP3 MSTORE DUP1 PUSH1 0x20 MUL PUSH1 0x20 ADD DUP3 ADD PUSH1 0x40 MSTORE DUP1 ISZERO PUSH2 0x147C JUMPI DUP2 PUSH1 0x20 ADD PUSH1 0x20 DUP3 MUL DUP1 CALLDATASIZE DUP4 CALLDATACOPY DUP1 DUP3 ADD SWAP2 POP POP SWAP1 POP JUMPDEST POP SWAP1 POP PUSH1 0xB PUSH1 0x0 SWAP1 SLOAD SWAP1 PUSH2 0x100 EXP SWAP1 DIV PUSH20 0xFFFFFFFFFFFFFFFFFFFFFFFFFFFFFFFFFFFFFFFF AND PUSH20 0xFFFFFFFFFFFFFFFFFFFFFFFFFFFFFFFFFFFFFFFF AND PUSH4 0x7FF36AB5 DUP7 DUP5 PUSH1 0x7 CALLER PUSH32 0xFFFFFFFFFFFFFFFFFFFFFFFFFFFFFFFFFFFFFFFFFFFFFFFFFFFFFFFFFFFFFFFF PUSH1 0x40 MLOAD DUP7 PUSH4 0xFFFFFFFF AND PUSH1 0xE0 SHL DUP2 MSTORE PUSH1 0x4 ADD PUSH2 0x1502 SWAP5 SWAP4 SWAP3 SWAP2 SWAP1 PUSH2 0x1C5A JUMP JUMPDEST PUSH1 0x0 PUSH1 0x40 MLOAD DUP1 DUP4 SUB DUP2 DUP6 DUP9 GAS CALL ISZERO DUP1 ISZERO PUSH2 0x1520 JUMPI RETURNDATASIZE PUSH1 0x0 DUP1 RETURNDATACOPY RETURNDATASIZE PUSH1 0x0 REVERT JUMPDEST POP POP POP POP POP PUSH1 0x40 MLOAD RETURNDATASIZE PUSH1 0x0 DUP3 RETURNDATACOPY RETURNDATASIZE PUSH1 0x1F NOT PUSH1 0x1F DUP3 ADD AND DUP3 ADD DUP1 PUSH1 0x40 MSTORE POP DUP2 ADD SWAP1 PUSH2 0x154A SWAP2 SWAP1 PUSH2 0x1DD0 JUMP JUMPDEST SWAP1 POP DUP1 PUSH1 0x1 DUP2 MLOAD DUP2 LT PUSH2 0x1560 JUMPI PUSH2 0x155F PUSH2 0x1E19 JUMP JUMPDEST JUMPDEST PUSH1 0x20 MUL PUSH1 0x20 ADD ADD MLOAD SWAP4 POP POP POP POP SWAP2 SWAP1 POP JUMP JUMPDEST PUSH1 0x0 PUSH1 0x40 MLOAD SWAP1 POP SWAP1 JUMP JUMPDEST PUSH1 0x0 DUP1 REVERT JUMPDEST PUSH1 0x0 DUP1 REVERT JUMPDEST PUSH1 0x0 PUSH20 0xFFFFFFFFFFFFFFFFFFFFFFFFFFFFFFFFFFFFFFFF DUP3 AND SWAP1 POP SWAP2 SWAP1 POP JUMP JUMPDEST PUSH1 0x0 PUSH2 0x15B1 DUP3 PUSH2 0x1586 JUMP JUMPDEST SWAP1 POP SWAP2 SWAP1 POP JUMP JUMPDEST PUSH2 0x15C1 DUP2 PUSH2 0x15A6 JUMP JUMPDEST DUP2 EQ PUSH2 0x15CC JUMPI PUSH1 0x0 DUP1 REVERT JUMPDEST POP JUMP JUMPDEST PUSH1 0x0 DUP2 CALLDATALOAD SWAP1 POP PUSH2 0x15DE DUP2 PUSH2 0x15B8 JUMP JUMPDEST SWAP3 SWAP2 POP POP JUMP JUMPDEST PUSH1 0x0 PUSH1 0x20 DUP3 DUP5 SUB SLT ISZERO PUSH2 0x15FA JUMPI PUSH2 0x15F9 PUSH2 0x157C JUMP JUMPDEST JUMPDEST PUSH1 0x0 PUSH2 0x1608 DUP5 DUP3 DUP6 ADD PUSH2 0x15CF JUMP JUMPDEST SWAP2 POP POP SWAP3 SWAP2 POP POP JUMP JUMPDEST PUSH2 0x161A DUP2 PUSH2 0x15A6 JUMP JUMPDEST DUP3 MSTORE POP POP JUMP JUMPDEST PUSH1 0x0 PUSH1 0x20 DUP3 ADD SWAP1 POP PUSH2 0x1635 PUSH1 0x0 DUP4 ADD DUP5 PUSH2 0x1611 JUMP JUMPDEST SWAP3 SWAP2 POP POP JUMP JUMPDEST PUSH1 0x0 DUP2 SWAP1 POP SWAP2 SWAP1 POP JUMP JUMPDEST PUSH2 0x164E DUP2 PUSH2 0x163B JUMP JUMPDEST DUP2 EQ PUSH2 0x1659 JUMPI PUSH1 0x0 DUP1 REVERT JUMPDEST POP JUMP JUMPDEST PUSH1 0x0 DUP2 CALLDATALOAD SWAP1 POP PUSH2 0x166B DUP2 PUSH2 0x1645 JUMP JUMPDEST SWAP3 SWAP2 POP POP JUMP JUMPDEST PUSH1 0x0 PUSH1 0x20 DUP3 DUP5 SUB SLT ISZERO PUSH2 0x1687 JUMPI PUSH2 0x1686 PUSH2 0x157C JUMP JUMPDEST JUMPDEST PUSH1 0x0 PUSH2 0x1695 DUP5 DUP3 DUP6 ADD PUSH2 0x165C JUMP JUMPDEST SWAP2 POP POP SWAP3 SWAP2 POP POP JUMP JUMPDEST PUSH2 0x16A7 DUP2 PUSH2 0x163B JUMP JUMPDEST DUP3 MSTORE POP POP JUMP JUMPDEST PUSH1 0x0 DUP2 ISZERO ISZERO SWAP1 POP SWAP2 SWAP1 POP JUMP JUMPDEST PUSH2 0x16C2 DUP2 PUSH2 0x16AD JUMP JUMPDEST DUP3 MSTORE POP POP JUMP JUMPDEST PUSH1 0x0 PUSH1 0xC0 DUP3 ADD SWAP1 POP PUSH2 0x16DD PUSH1 0x0 DUP4 ADD DUP10 PUSH2 0x169E JUMP JUMPDEST PUSH2 0x16EA PUSH1 0x20 DUP4 ADD DUP9 PUSH2 0x1611 JUMP JUMPDEST PUSH2 0x16F7 PUSH1 0x40 DUP4 ADD DUP8 PUSH2 0x169E JUMP JUMPDEST PUSH2 0x1704 PUSH1 0x60 DUP4 ADD DUP7 PUSH2 0x16B9 JUMP JUMPDEST PUSH2 0x1711 PUSH1 0x80 DUP4 ADD DUP6 PUSH2 0x169E JUMP JUMPDEST PUSH2 0x171E PUSH1 0xA0 DUP4 ADD DUP5 PUSH2 0x16B9 JUMP JUMPDEST SWAP8 SWAP7 POP POP POP POP POP POP POP JUMP JUMPDEST PUSH1 0x0 PUSH1 0x20 DUP3 ADD SWAP1 POP PUSH2 0x173E PUSH1 0x0 DUP4 ADD DUP5 PUSH2 0x169E JUMP JUMPDEST SWAP3 SWAP2 POP POP JUMP JUMPDEST PUSH1 0x0 DUP2 MLOAD SWAP1 POP PUSH2 0x1753 DUP2 PUSH2 0x1645 JUMP JUMPDEST SWAP3 SWAP2 POP POP JUMP JUMPDEST PUSH1 0x0 PUSH1 0x20 DUP3 DUP5 SUB SLT ISZERO PUSH2 0x176F JUMPI PUSH2 0x176E PUSH2 0x157C JUMP JUMPDEST JUMPDEST PUSH1 0x0 PUSH2 0x177D DUP5 DUP3 DUP6 ADD PUSH2 0x1744 JUMP JUMPDEST SWAP2 POP POP SWAP3 SWAP2 POP POP JUMP JUMPDEST PUSH1 0x0 PUSH1 0x40 DUP3 ADD SWAP1 POP PUSH2 0x179B PUSH1 0x0 DUP4 ADD DUP6 PUSH2 0x1611 JUMP JUMPDEST PUSH2 0x17A8 PUSH1 0x20 DUP4 ADD DUP5 PUSH2 0x169E JUMP JUMPDEST SWAP4 SWAP3 POP POP POP JUMP JUMPDEST PUSH2 0x17B8 DUP2 PUSH2 0x16AD JUMP JUMPDEST DUP2 EQ PUSH2 0x17C3 JUMPI PUSH1 0x0 DUP1 REVERT JUMPDEST POP JUMP JUMPDEST PUSH1 0x0 DUP2 MLOAD SWAP1 POP PUSH2 0x17D5 DUP2 PUSH2 0x17AF JUMP JUMPDEST SWAP3 SWAP2 POP POP JUMP JUMPDEST PUSH1 0x0 PUSH1 0x20 DUP3 DUP5 SUB SLT ISZERO PUSH2 0x17F1 JUMPI PUSH2 0x17F0 PUSH2 0x157C JUMP JUMPDEST JUMPDEST PUSH1 0x0 PUSH2 0x17FF DUP5 DUP3 DUP6 ADD PUSH2 0x17C6 JUMP JUMPDEST SWAP2 POP POP SWAP3 SWAP2 POP POP JUMP JUMPDEST PUSH32 0x4E487B7100000000000000000000000000000000000000000000000000000000 PUSH1 0x0 MSTORE PUSH1 0x11 PUSH1 0x4 MSTORE PUSH1 0x24 PUSH1 0x0 REVERT JUMPDEST PUSH1 0x0 PUSH2 0x1842 DUP3 PUSH2 0x163B JUMP JUMPDEST SWAP2 POP PUSH2 0x184D DUP4 PUSH2 0x163B JUMP JUMPDEST SWAP3 POP DUP3 DUP3 MUL PUSH2 0x185B DUP2 PUSH2 0x163B JUMP JUMPDEST SWAP2 POP DUP3 DUP3 DIV DUP5 EQ DUP4 ISZERO OR PUSH2 0x1872 JUMPI PUSH2 0x1871 PUSH2 0x1808 JUMP JUMPDEST JUMPDEST POP SWAP3 SWAP2 POP POP JUMP JUMPDEST PUSH32 0x4E487B7100000000000000000000000000000000000000000000000000000000 PUSH1 0x0 MSTORE PUSH1 0x12 PUSH1 0x4 MSTORE PUSH1 0x24 PUSH1 0x0 REVERT JUMPDEST PUSH1 0x0 PUSH2 0x18B3 DUP3 PUSH2 0x163B JUMP JUMPDEST SWAP2 POP PUSH2 0x18BE DUP4 PUSH2 0x163B JUMP JUMPDEST SWAP3 POP DUP3 PUSH2 0x18CE JUMPI PUSH2 0x18CD PUSH2 0x1879 JUMP JUMPDEST JUMPDEST DUP3 DUP3 DIV SWAP1 POP SWAP3 SWAP2 POP POP JUMP JUMPDEST PUSH1 0x0 PUSH2 0x18E4 DUP3 PUSH2 0x163B JUMP JUMPDEST SWAP2 POP PUSH2 0x18EF DUP4 PUSH2 0x163B JUMP JUMPDEST SWAP3 POP DUP3 DUP3 SUB SWAP1 POP DUP2 DUP2 GT ISZERO PUSH2 0x1907 JUMPI PUSH2 0x1906 PUSH2 0x1808 JUMP JUMPDEST JUMPDEST SWAP3 SWAP2 POP POP JUMP JUMPDEST PUSH1 0x0 PUSH2 0x1918 DUP3 PUSH2 0x163B JUMP JUMPDEST SWAP2 POP PUSH2 0x1923 DUP4 PUSH2 0x163B JUMP JUMPDEST SWAP3 POP DUP3 DUP3 ADD SWAP1 POP DUP1 DUP3 GT ISZERO PUSH2 0x193B JUMPI PUSH2 0x193A PUSH2 0x1808 JUMP JUMPDEST JUMPDEST SWAP3 SWAP2 POP POP JUMP JUMPDEST PUSH1 0x0 PUSH1 0x40 DUP3 ADD SWAP1 POP PUSH2 0x1956 PUSH1 0x0 DUP4 ADD DUP6 PUSH2 0x169E JUMP JUMPDEST PUSH2 0x1963 PUSH1 0x20 DUP4 ADD DUP5 PUSH2 0x1611 JUMP JUMPDEST SWAP4 SWAP3 POP POP POP JUMP JUMPDEST PUSH1 0x0 PUSH1 0xC0 DUP3 ADD SWAP1 POP PUSH2 0x197F PUSH1 0x0 DUP4 ADD DUP10 PUSH2 0x1611 JUMP JUMPDEST PUSH2 0x198C PUSH1 0x20 DUP4 ADD DUP9 PUSH2 0x169E JUMP JUMPDEST PUSH2 0x1999 PUSH1 0x40 DUP4 ADD DUP8 PUSH2 0x169E JUMP JUMPDEST PUSH2 0x19A6 PUSH1 0x60 DUP4 ADD DUP7 PUSH2 0x169E JUMP JUMPDEST PUSH2 0x19B3 PUSH1 0x80 DUP4 ADD DUP6 PUSH2 0x1611 JUMP JUMPDEST PUSH2 0x19C0 PUSH1 0xA0 DUP4 ADD DUP5 PUSH2 0x169E JUMP JUMPDEST SWAP8 SWAP7 POP POP POP POP POP POP POP JUMP JUMPDEST PUSH1 0x0 DUP1 PUSH1 0x0 PUSH1 0x60 DUP5 DUP7 SUB SLT ISZERO PUSH2 0x19E4 JUMPI PUSH2 0x19E3 PUSH2 0x157C JUMP JUMPDEST JUMPDEST PUSH1 0x0 PUSH2 0x19F2 DUP7 DUP3 DUP8 ADD PUSH2 0x1744 JUMP JUMPDEST SWAP4 POP POP PUSH1 0x20 PUSH2 0x1A03 DUP7 DUP3 DUP8 ADD PUSH2 0x1744 JUMP JUMPDEST SWAP3 POP POP PUSH1 0x40 PUSH2 0x1A14 DUP7 DUP3 DUP8 ADD PUSH2 0x1744 JUMP JUMPDEST SWAP2 POP POP SWAP3 POP SWAP3 POP SWAP3 JUMP JUMPDEST PUSH1 0x0 DUP3 DUP3 MSTORE PUSH1 0x20 DUP3 ADD SWAP1 POP SWAP3 SWAP2 POP POP JUMP JUMPDEST PUSH32 0x4C6971756964697479204E6F742050726F766964656400000000000000000000 PUSH1 0x0 DUP3 ADD MSTORE POP JUMP JUMPDEST PUSH1 0x0 PUSH2 0x1A65 PUSH1 0x16 DUP4 PUSH2 0x1A1E JUMP JUMPDEST SWAP2 POP PUSH2 0x1A70 DUP3 PUSH2 0x1A2F JUMP JUMPDEST PUSH1 0x20 DUP3 ADD SWAP1 POP SWAP2 SWAP1 POP JUMP JUMPDEST PUSH1 0x0 PUSH1 0x20 DUP3 ADD SWAP1 POP DUP2 DUP2 SUB PUSH1 0x0 DUP4 ADD MSTORE PUSH2 0x1A94 DUP2 PUSH2 0x1A58 JUMP JUMPDEST SWAP1 POP SWAP2 SWAP1 POP JUMP JUMPDEST PUSH32 0x6C6971756964697479205375636365737366756C6C792050726F766964656400 PUSH1 0x0 DUP3 ADD MSTORE POP JUMP JUMPDEST PUSH1 0x0 PUSH2 0x1AD1 PUSH1 0x1F DUP4 PUSH2 0x1A1E JUMP JUMPDEST SWAP2 POP PUSH2 0x1ADC DUP3 PUSH2 0x1A9B JUMP JUMPDEST PUSH1 0x20 DUP3 ADD SWAP1 POP SWAP2 SWAP1 POP JUMP JUMPDEST PUSH1 0x0 PUSH1 0x20 DUP3 ADD SWAP1 POP DUP2 DUP2 SUB PUSH1 0x0 DUP4 ADD MSTORE PUSH2 0x1B00 DUP2 PUSH2 0x1AC4 JUMP JUMPDEST SWAP1 POP SWAP2 SWAP1 POP JUMP JUMPDEST PUSH32 0x4E487B7100000000000000000000000000000000000000000000000000000000 PUSH1 0x0 MSTORE PUSH1 0x41 PUSH1 0x4 MSTORE PUSH1 0x24 PUSH1 0x0 REVERT JUMPDEST PUSH1 0x0 DUP2 SLOAD SWAP1 POP SWAP2 SWAP1 POP JUMP JUMPDEST PUSH1 0x0 DUP3 DUP3 MSTORE PUSH1 0x20 DUP3 ADD SWAP1 POP SWAP3 SWAP2 POP POP JUMP JUMPDEST PUSH1 0x0 DUP2 SWAP1 POP DUP2 PUSH1 0x0 MSTORE PUSH1 0x20 PUSH1 0x0 KECCAK256 SWAP1 POP SWAP2 SWAP1 POP JUMP JUMPDEST PUSH2 0x1B70 DUP2 PUSH2 0x15A6 JUMP JUMPDEST DUP3 MSTORE POP POP JUMP JUMPDEST PUSH1 0x0 PUSH2 0x1B82 DUP4 DUP4 PUSH2 0x1B67 JUMP JUMPDEST PUSH1 0x20 DUP4 ADD SWAP1 POP SWAP3 SWAP2 POP POP JUMP JUMPDEST PUSH1 0x0 DUP2 PUSH1 0x0 SHR SWAP1 POP SWAP2 SWAP1 POP JUMP JUMPDEST PUSH1 0x0 PUSH20 0xFFFFFFFFFFFFFFFFFFFFFFFFFFFFFFFFFFFFFFFF DUP3 AND SWAP1 POP SWAP2 SWAP1 POP JUMP JUMPDEST PUSH1 0x0 PUSH2 0x1BCE PUSH2 0x1BC9 DUP4 PUSH2 0x1B8E JUMP JUMPDEST PUSH2 0x1B9B JUMP JUMPDEST SWAP1 POP SWAP2 SWAP1 POP JUMP JUMPDEST PUSH1 0x0 PUSH2 0x1BE1 DUP3 SLOAD PUSH2 0x1BBB JUMP JUMPDEST SWAP1 POP SWAP2 SWAP1 POP JUMP JUMPDEST PUSH1 0x0 PUSH1 0x1 DUP3 ADD SWAP1 POP SWAP2 SWAP1 POP JUMP JUMPDEST PUSH1 0x0 PUSH2 0x1C00 DUP3 PUSH2 0x1B36 JUMP JUMPDEST PUSH2 0x1C0A DUP2 DUP6 PUSH2 0x1B41 JUMP JUMPDEST SWAP4 POP PUSH2 0x1C15 DUP4 PUSH2 0x1B52 JUMP JUMPDEST DUP1 PUSH1 0x0 JUMPDEST DUP4 DUP2 LT ISZERO PUSH2 0x1C4D JUMPI PUSH2 0x1C2A DUP3 PUSH2 0x1BD5 JUMP JUMPDEST PUSH2 0x1C34 DUP9 DUP3 PUSH2 0x1B76 JUMP JUMPDEST SWAP8 POP PUSH2 0x1C3F DUP4 PUSH2 0x1BE8 JUMP JUMPDEST SWAP3 POP POP PUSH1 0x1 DUP2 ADD SWAP1 POP PUSH2 0x1C19 JUMP JUMPDEST POP DUP6 SWAP4 POP POP POP POP SWAP3 SWAP2 POP POP JUMP JUMPDEST PUSH1 0x0 PUSH1 0x80 DUP3 ADD SWAP1 POP PUSH2 0x1C6F PUSH1 0x0 DUP4 ADD DUP8 PUSH2 0x169E JUMP JUMPDEST DUP2 DUP2 SUB PUSH1 0x20 DUP4 ADD MSTORE PUSH2 0x1C81 DUP2 DUP7 PUSH2 0x1BF5 JUMP JUMPDEST SWAP1 POP PUSH2 0x1C90 PUSH1 0x40 DUP4 ADD DUP6 PUSH2 0x1611 JUMP JUMPDEST PUSH2 0x1C9D PUSH1 0x60 DUP4 ADD DUP5 PUSH2 0x169E JUMP JUMPDEST SWAP6 SWAP5 POP POP POP POP POP JUMP JUMPDEST PUSH1 0x0 DUP1 REVERT JUMPDEST PUSH1 0x0 PUSH1 0x1F NOT PUSH1 0x1F DUP4 ADD AND SWAP1 POP SWAP2 SWAP1 POP JUMP JUMPDEST PUSH2 0x1CC5 DUP3 PUSH2 0x1CAB JUMP JUMPDEST DUP2 ADD DUP2 DUP2 LT PUSH8 0xFFFFFFFFFFFFFFFF DUP3 GT OR ISZERO PUSH2 0x1CE4 JUMPI PUSH2 0x1CE3 PUSH2 0x1B07 JUMP JUMPDEST JUMPDEST DUP1 PUSH1 0x40 MSTORE POP POP POP JUMP JUMPDEST PUSH1 0x0 PUSH2 0x1CF7 PUSH2 0x1572 JUMP JUMPDEST SWAP1 POP PUSH2 0x1D03 DUP3 DUP3 PUSH2 0x1CBC JUMP JUMPDEST SWAP2 SWAP1 POP JUMP JUMPDEST PUSH1 0x0 PUSH8 0xFFFFFFFFFFFFFFFF DUP3 GT ISZERO PUSH2 0x1D23 JUMPI PUSH2 0x1D22 PUSH2 0x1B07 JUMP JUMPDEST JUMPDEST PUSH1 0x20 DUP3 MUL SWAP1 POP PUSH1 0x20 DUP2 ADD SWAP1 POP SWAP2 SWAP1 POP JUMP JUMPDEST PUSH1 0x0 DUP1 REVERT JUMPDEST PUSH1 0x0 PUSH2 0x1D4C PUSH2 0x1D47 DUP5 PUSH2 0x1D08 JUMP JUMPDEST PUSH2 0x1CED JUMP JUMPDEST SWAP1 POP DUP1 DUP4 DUP3 MSTORE PUSH1 0x20 DUP3 ADD SWAP1 POP PUSH1 0x20 DUP5 MUL DUP4 ADD DUP6 DUP2 GT ISZERO PUSH2 0x1D6F JUMPI PUSH2 0x1D6E PUSH2 0x1D34 JUMP JUMPDEST JUMPDEST DUP4 JUMPDEST DUP2 DUP2 LT ISZERO PUSH2 0x1D98 JUMPI DUP1 PUSH2 0x1D84 DUP9 DUP3 PUSH2 0x1744 JUMP JUMPDEST DUP5 MSTORE PUSH1 0x20 DUP5 ADD SWAP4 POP POP PUSH1 0x20 DUP2 ADD SWAP1 POP PUSH2 0x1D71 JUMP JUMPDEST POP POP POP SWAP4 SWAP3 POP POP POP JUMP JUMPDEST PUSH1 0x0 DUP3 PUSH1 0x1F DUP4 ADD SLT PUSH2 0x1DB7 JUMPI PUSH2 0x1DB6 PUSH2 0x1CA6 JUMP JUMPDEST JUMPDEST DUP2 MLOAD PUSH2 0x1DC7 DUP5 DUP3 PUSH1 0x20 DUP7 ADD PUSH2 0x1D39 JUMP JUMPDEST SWAP2 POP POP SWAP3 SWAP2 POP POP JUMP JUMPDEST PUSH1 0x0 PUSH1 0x20 DUP3 DUP5 SUB SLT ISZERO PUSH2 0x1DE6 JUMPI PUSH2 0x1DE5 PUSH2 0x157C JUMP JUMPDEST JUMPDEST PUSH1 0x0 DUP3 ADD MLOAD PUSH8 0xFFFFFFFFFFFFFFFF DUP2 GT ISZERO PUSH2 0x1E04 JUMPI PUSH2 0x1E03 PUSH2 0x1581 JUMP JUMPDEST JUMPDEST PUSH2 0x1E10 DUP5 DUP3 DUP6 ADD PUSH2 0x1DA2 JUMP JUMPDEST SWAP2 POP POP SWAP3 SWAP2 POP POP JUMP JUMPDEST PUSH32 0x4E487B7100000000000000000000000000000000000000000000000000000000 PUSH1 0x0 MSTORE PUSH1 0x32 PUSH1 0x4 MSTORE PUSH1 0x24 PUSH1 0x0 REVERT INVALID LOG2 PUSH5 0x6970667358 0x22 SLT KECCAK256 0xE1 0x4C 0xB6 0xD3 0xCA GASPRICE 0xC1 SWAP16 0xED 0xD2 0x4C 0x4E 0xE4 0xD9 CREATE DIFFICULTY 0xDA PUSH6 0xA240FC196E46 0x4E PUSH11 0x60BDFA125A0E64736F6C63 NUMBER STOP ADDMOD GT STOP CALLER "
				},
				"gasEstimates": {
					"creation": {
						"codeDepositCost": "1561200",
						"executionCost": "infinite",
						"totalCost": "infinite"
					},
					"external": {
						"ERC20Address()": "2559",
						"POAPAddress()": "2536",
						"WethAddress()": "2578",
						"buyEth()": "2519",
						"crownNFTAddress()": "2559",
						"getLastEthRecieved()": "4717",
						"getWethBalance()": "infinite",
						"liquidityEth()": "2452",
						"oracleAddress()": "2603",
						"path(uint256)": "5000",
						"percentLiquidity()": "infinite",
						"superBuy()": "infinite",
						"totalRoyalties()": "2496",
						"transactionFromPOAPId(uint256)": "infinite",
						"uniswapPairAddress()": "2580",
						"uniswapRouterAddress()": "2560",
						"updateERC20Address(address)": "24746",
						"withdraw(address)": "infinite"
					},
					"internal": {
						"buyAndBurn(uint256)": "infinite",
						"buyTokens(uint256)": "infinite",
						"erc20ToPreviousHolder(address)": "infinite",
						"newTransaction(uint256)": "95000",
						"processETH()": "infinite",
						"provideLiquidity(uint256)": "infinite"
					}
				},
				"methodIdentifiers": {
					"ERC20Address()": "a6021ace",
					"POAPAddress()": "aef75107",
					"WethAddress()": "a785a3d8",
					"buyEth()": "4cfd1ba5",
					"crownNFTAddress()": "777b506f",
					"getLastEthRecieved()": "bfd9ea5b",
					"getWethBalance()": "9dd58b58",
					"liquidityEth()": "a09ede07",
					"oracleAddress()": "a89ae4ba",
					"path(uint256)": "af6d1fe4",
					"percentLiquidity()": "c1f2e5f1",
					"superBuy()": "966824a3",
					"totalRoyalties()": "86d02608",
					"transactionFromPOAPId(uint256)": "2c4c3c1b",
					"uniswapPairAddress()": "bd3733fe",
					"uniswapRouterAddress()": "20ca3c7f",
					"updateERC20Address(address)": "1b017fde",
					"withdraw(address)": "51cff8d9"
				}
			},
			"storageLayout": {
				"storage": [
					{
						"astId": 619,
						"contract": "contracts/Hook.sol:TransactionsAndHook",
						"label": "WethAddress",
						"offset": 0,
						"slot": "0",
						"type": "t_address"
					},
					{
						"astId": 621,
						"contract": "contracts/Hook.sol:TransactionsAndHook",
						"label": "ERC20Address",
						"offset": 0,
						"slot": "1",
						"type": "t_address"
					},
					{
						"astId": 623,
						"contract": "contracts/Hook.sol:TransactionsAndHook",
						"label": "uniswapPairAddress",
						"offset": 0,
						"slot": "2",
						"type": "t_address"
					},
					{
						"astId": 625,
						"contract": "contracts/Hook.sol:TransactionsAndHook",
						"label": "oracleAddress",
						"offset": 0,
						"slot": "3",
						"type": "t_address"
					},
					{
						"astId": 627,
						"contract": "contracts/Hook.sol:TransactionsAndHook",
						"label": "crownNFTAddress",
						"offset": 0,
						"slot": "4",
						"type": "t_address"
					},
					{
						"astId": 629,
						"contract": "contracts/Hook.sol:TransactionsAndHook",
						"label": "POAPAddress",
						"offset": 0,
						"slot": "5",
						"type": "t_address"
					},
					{
						"astId": 632,
						"contract": "contracts/Hook.sol:TransactionsAndHook",
						"label": "uniswapRouterAddress",
						"offset": 0,
						"slot": "6",
						"type": "t_address"
					},
					{
						"astId": 638,
						"contract": "contracts/Hook.sol:TransactionsAndHook",
						"label": "path",
						"offset": 0,
						"slot": "7",
						"type": "t_array(t_address)dyn_storage"
					},
					{
						"astId": 644,
						"contract": "contracts/Hook.sol:TransactionsAndHook",
						"label": "POAP",
						"offset": 0,
						"slot": "8",
						"type": "t_contract(iPOAP)483"
					},
					{
						"astId": 650,
						"contract": "contracts/Hook.sol:TransactionsAndHook",
						"label": "WETH",
						"offset": 0,
						"slot": "9",
						"type": "t_contract(WethLike)542"
					},
					{
						"astId": 656,
						"contract": "contracts/Hook.sol:TransactionsAndHook",
						"label": "Oracle",
						"offset": 0,
						"slot": "10",
						"type": "t_contract(iOracle)517"
					},
					{
						"astId": 662,
						"contract": "contracts/Hook.sol:TransactionsAndHook",
						"label": "UniswapRouter",
						"offset": 0,
						"slot": "11",
						"type": "t_contract(IUniswapV2Router02)473"
					},
					{
						"astId": 667,
						"contract": "contracts/Hook.sol:TransactionsAndHook",
						"label": "transactionFromPOAPId",
						"offset": 0,
						"slot": "12",
						"type": "t_mapping(t_uint256,t_struct(Transaction)695_storage)"
					},
					{
						"astId": 670,
						"contract": "contracts/Hook.sol:TransactionsAndHook",
						"label": "POAPIds",
						"offset": 0,
						"slot": "13",
						"type": "t_array(t_uint256)dyn_storage"
					},
					{
						"astId": 672,
						"contract": "contracts/Hook.sol:TransactionsAndHook",
						"label": "totalRoyalties",
						"offset": 0,
						"slot": "14",
						"type": "t_uint256"
					},
					{
						"astId": 947,
						"contract": "contracts/Hook.sol:TransactionsAndHook",
						"label": "buyEth",
						"offset": 0,
						"slot": "15",
						"type": "t_uint256"
					},
					{
						"astId": 949,
						"contract": "contracts/Hook.sol:TransactionsAndHook",
						"label": "liquidityEth",
						"offset": 0,
						"slot": "16",
						"type": "t_uint256"
					}
				],
				"types": {
					"t_address": {
						"encoding": "inplace",
						"label": "address",
						"numberOfBytes": "20"
					},
					"t_array(t_address)dyn_storage": {
						"base": "t_address",
						"encoding": "dynamic_array",
						"label": "address[]",
						"numberOfBytes": "32"
					},
					"t_array(t_uint256)dyn_storage": {
						"base": "t_uint256",
						"encoding": "dynamic_array",
						"label": "uint256[]",
						"numberOfBytes": "32"
					},
					"t_bool": {
						"encoding": "inplace",
						"label": "bool",
						"numberOfBytes": "1"
					},
					"t_contract(IUniswapV2Router02)473": {
						"encoding": "inplace",
						"label": "contract IUniswapV2Router02",
						"numberOfBytes": "20"
					},
					"t_contract(WethLike)542": {
						"encoding": "inplace",
						"label": "contract WethLike",
						"numberOfBytes": "20"
					},
					"t_contract(iOracle)517": {
						"encoding": "inplace",
						"label": "contract iOracle",
						"numberOfBytes": "20"
					},
					"t_contract(iPOAP)483": {
						"encoding": "inplace",
						"label": "contract iPOAP",
						"numberOfBytes": "20"
					},
					"t_mapping(t_uint256,t_struct(Transaction)695_storage)": {
						"encoding": "mapping",
						"key": "t_uint256",
						"label": "mapping(uint256 => struct TransactionsAndHook.Transaction)",
						"numberOfBytes": "32",
						"value": "t_struct(Transaction)695_storage"
					},
					"t_struct(Transaction)695_storage": {
						"encoding": "inplace",
						"label": "struct TransactionsAndHook.Transaction",
						"members": [
							{
								"astId": 684,
								"contract": "contracts/Hook.sol:TransactionsAndHook",
								"label": "POAPId",
								"offset": 0,
								"slot": "0",
								"type": "t_uint256"
							},
							{
								"astId": 686,
								"contract": "contracts/Hook.sol:TransactionsAndHook",
								"label": "purchaser",
								"offset": 0,
								"slot": "1",
								"type": "t_address"
							},
							{
								"astId": 688,
								"contract": "contracts/Hook.sol:TransactionsAndHook",
								"label": "receivedEth",
								"offset": 0,
								"slot": "2",
								"type": "t_uint256"
							},
							{
								"astId": 690,
								"contract": "contracts/Hook.sol:TransactionsAndHook",
								"label": "POAPreceived",
								"offset": 0,
								"slot": "3",
								"type": "t_bool"
							},
							{
								"astId": 692,
								"contract": "contracts/Hook.sol:TransactionsAndHook",
								"label": "tokenValueOfPOAP",
								"offset": 0,
								"slot": "4",
								"type": "t_uint256"
							},
							{
								"astId": 694,
								"contract": "contracts/Hook.sol:TransactionsAndHook",
								"label": "POAPburned",
								"offset": 0,
								"slot": "5",
								"type": "t_bool"
							}
						],
						"numberOfBytes": "192"
					},
					"t_uint256": {
						"encoding": "inplace",
						"label": "uint256",
						"numberOfBytes": "32"
					}
				}
			},
			"userdoc": {
				"kind": "user",
				"methods": {},
				"version": 1
			}
		}
	}
}