{
	"test.sol": {
		"liquidityProvider": {
			"abi": [
				{
					"inputs": [
						{
							"internalType": "address",
							"name": "token",
							"type": "address"
						},
						{
							"internalType": "uint256",
							"name": "amountTokenDesired",
							"type": "uint256"
						},
						{
							"internalType": "uint256",
							"name": "amountTokenMin",
							"type": "uint256"
						},
						{
							"internalType": "uint256",
							"name": "amountETHMin",
							"type": "uint256"
						},
						{
							"internalType": "uint256",
							"name": "deadline",
							"type": "uint256"
						}
					],
					"name": "provideLiquitidy",
					"outputs": [],
					"stateMutability": "payable",
					"type": "function"
				},
				{
					"inputs": [
						{
							"internalType": "uint256",
							"name": "amountTokenDesired",
							"type": "uint256"
						},
						{
							"internalType": "uint256",
							"name": "amountTokenMin",
							"type": "uint256"
						},
						{
							"internalType": "uint256",
							"name": "amountETHMin",
							"type": "uint256"
						},
						{
							"internalType": "address",
							"name": "to",
							"type": "address"
						},
						{
							"internalType": "uint256",
							"name": "deadline",
							"type": "uint256"
						}
					],
					"name": "provideLiquitidy2",
					"outputs": [],
					"stateMutability": "payable",
					"type": "function"
				}
			],
			"devdoc": {
				"kind": "dev",
				"methods": {},
				"version": 1
			},
			"evm": {
				"assembly": "    /* \"test.sol\":205:1002  contract liquidityProvider {... */\n  mstore(0x40, 0x80)\n    /* \"test.sol\":262:304  0x386A47b1f6BE9f57D86256E9D69Ebc44043bB233 */\n  0x386a47b1f6be9f57d86256e9d69ebc44043bb233\n    /* \"test.sol\":239:304  address tokenAddress = 0x386A47b1f6BE9f57D86256E9D69Ebc44043bB233 */\n  0x00\n  dup1\n  0x0100\n  exp\n  dup2\n  sload\n  dup2\n  0xffffffffffffffffffffffffffffffffffffffff\n  mul\n  not\n  and\n  swap1\n  dup4\n  0xffffffffffffffffffffffffffffffffffffffff\n  and\n  mul\n  or\n  swap1\n  sstore\n  pop\n    /* \"test.sol\":341:383  0x7a250d5630B4cF539739dF2C5dAcb4c659F2488D */\n  0x7a250d5630b4cf539739df2c5dacb4c659f2488d\n    /* \"test.sol\":310:383  address uinswapRouterAddress = 0x7a250d5630B4cF539739dF2C5dAcb4c659F2488D */\n  0x01\n  exp(0x0100, 0x00)\n  dup2\n  sload\n  dup2\n  0xffffffffffffffffffffffffffffffffffffffff\n  mul\n  not\n  and\n  swap1\n  dup4\n  0xffffffffffffffffffffffffffffffffffffffff\n  and\n  mul\n  or\n  swap1\n  sstore\n  pop\n    /* \"test.sol\":411:423  tokenAddress */\n  0x00\n  dup1\n  sload\n  swap1\n  0x0100\n  exp\n  swap1\n  div\n  0xffffffffffffffffffffffffffffffffffffffff\n  and\n    /* \"test.sol\":389:424  IERC20 Token = IERC20(tokenAddress) */\n  0x02\n  exp(0x0100, 0x00)\n  dup2\n  sload\n  dup2\n  0xffffffffffffffffffffffffffffffffffffffff\n  mul\n  not\n  and\n  swap1\n  dup4\n  0xffffffffffffffffffffffffffffffffffffffff\n  and\n  mul\n  or\n  swap1\n  sstore\n  pop\n    /* \"test.sol\":477:497  uinswapRouterAddress */\n  0x01\n  0x00\n  swap1\n  sload\n  swap1\n  0x0100\n  exp\n  swap1\n  div\n  0xffffffffffffffffffffffffffffffffffffffff\n  and\n    /* \"test.sol\":430:498  IUniswapV2Router02 Router = IUniswapV2Router02(uinswapRouterAddress) */\n  0x03\n  exp(0x0100, 0x00)\n  dup2\n  sload\n  dup2\n  0xffffffffffffffffffffffffffffffffffffffff\n  mul\n  not\n  and\n  swap1\n  dup4\n  0xffffffffffffffffffffffffffffffffffffffff\n  and\n  mul\n  or\n  swap1\n  sstore\n  pop\n    /* \"test.sol\":205:1002  contract liquidityProvider {... */\n  callvalue\n  dup1\n  iszero\n  tag_1\n  jumpi\n  0x00\n  dup1\n  revert\ntag_1:\n  pop\n  dataSize(sub_0)\n  dup1\n  dataOffset(sub_0)\n  0x00\n  codecopy\n  0x00\n  return\nstop\n\nsub_0: assembly {\n        /* \"test.sol\":205:1002  contract liquidityProvider {... */\n      mstore(0x40, 0x80)\n      jumpi(tag_1, lt(calldatasize, 0x04))\n      shr(0xe0, calldataload(0x00))\n      dup1\n      0x0eaaad9e\n      eq\n      tag_2\n      jumpi\n      dup1\n      0x930bb286\n      eq\n      tag_3\n      jumpi\n    tag_1:\n      0x00\n      dup1\n      revert\n        /* \"test.sol\":505:753  function provideLiquitidy  (address token,uint amountTokenDesired,uint amountTokenMin,uint amountETHMin,uint deadline) external payable{... */\n    tag_2:\n      tag_4\n      0x04\n      dup1\n      calldatasize\n      sub\n      dup2\n      add\n      swap1\n      tag_5\n      swap2\n      swap1\n      tag_6\n      jump\t// in\n    tag_5:\n      tag_7\n      jump\t// in\n    tag_4:\n      stop\n        /* \"test.sol\":759:998  function provideLiquitidy2  (uint amountTokenDesired,uint amountTokenMin,uint amountETHMin,address to,uint deadline) external payable{... */\n    tag_3:\n      tag_8\n      0x04\n      dup1\n      calldatasize\n      sub\n      dup2\n      add\n      swap1\n      tag_9\n      swap2\n      swap1\n      tag_10\n      jump\t// in\n    tag_9:\n      tag_11\n      jump\t// in\n    tag_8:\n      stop\n        /* \"test.sol\":505:753  function provideLiquitidy  (address token,uint amountTokenDesired,uint amountTokenMin,uint amountETHMin,uint deadline) external payable{... */\n    tag_7:\n        /* \"test.sol\":650:656  Router */\n      0x03\n      0x00\n      swap1\n      sload\n      swap1\n      0x0100\n      exp\n      swap1\n      div\n      0xffffffffffffffffffffffffffffffffffffffff\n      and\n        /* \"test.sol\":650:672  Router.addLiquidityETH */\n      0xffffffffffffffffffffffffffffffffffffffff\n      and\n      0xf305d719\n        /* \"test.sol\":673:678  token */\n      dup7\n        /* \"test.sol\":679:697  amountTokenDesired */\n      dup7\n        /* \"test.sol\":698:712  amountTokenMin */\n      dup7\n        /* \"test.sol\":713:725  amountETHMin */\n      dup7\n        /* \"test.sol\":726:736  msg.sender */\n      caller\n        /* \"test.sol\":737:745  deadline */\n      dup8\n        /* \"test.sol\":650:746  Router.addLiquidityETH(token,amountTokenDesired,amountTokenMin,amountETHMin,msg.sender,deadline) */\n      mload(0x40)\n      dup8\n      0xffffffff\n      and\n      0xe0\n      shl\n      dup2\n      mstore\n      0x04\n      add\n      tag_13\n      swap7\n      swap6\n      swap5\n      swap4\n      swap3\n      swap2\n      swap1\n      tag_14\n      jump\t// in\n    tag_13:\n      0x60\n      mload(0x40)\n      dup1\n      dup4\n      sub\n      dup2\n      0x00\n      dup8\n      gas\n      call\n      iszero\n      dup1\n      iszero\n      tag_16\n      jumpi\n      returndatasize\n      0x00\n      dup1\n      returndatacopy\n      revert(0x00, returndatasize)\n    tag_16:\n      pop\n      pop\n      pop\n      pop\n      mload(0x40)\n      returndatasize\n      not(0x1f)\n      0x1f\n      dup3\n      add\n      and\n      dup3\n      add\n      dup1\n      0x40\n      mstore\n      pop\n      dup2\n      add\n      swap1\n      tag_17\n      swap2\n      swap1\n      tag_18\n      jump\t// in\n    tag_17:\n      pop\n      pop\n      pop\n        /* \"test.sol\":505:753  function provideLiquitidy  (address token,uint amountTokenDesired,uint amountTokenMin,uint amountETHMin,uint deadline) external payable{... */\n      pop\n      pop\n      pop\n      pop\n      pop\n      jump\t// out\n        /* \"test.sol\":759:998  function provideLiquitidy2  (uint amountTokenDesired,uint amountTokenMin,uint amountETHMin,address to,uint deadline) external payable{... */\n    tag_11:\n        /* \"test.sol\":920:926  Router */\n      0x03\n      0x00\n      swap1\n      sload\n      swap1\n      0x0100\n      exp\n      swap1\n      div\n      0xffffffffffffffffffffffffffffffffffffffff\n      and\n        /* \"test.sol\":920:942  Router.addLiquidityETH */\n      0xffffffffffffffffffffffffffffffffffffffff\n      and\n      0xf305d719\n        /* \"test.sol\":943:955  tokenAddress */\n      0x00\n      dup1\n      sload\n      swap1\n      0x0100\n      exp\n      swap1\n      div\n      0xffffffffffffffffffffffffffffffffffffffff\n      and\n        /* \"test.sol\":956:974  amountTokenDesired */\n      dup8\n        /* \"test.sol\":975:976  0 */\n      0x00\n        /* \"test.sol\":977:978  0 */\n      dup1\n        /* \"test.sol\":979:981  to */\n      dup8\n        /* \"test.sol\":982:990  deadline */\n      dup8\n        /* \"test.sol\":920:991  Router.addLiquidityETH(tokenAddress,amountTokenDesired,0,0,to,deadline) */\n      mload(0x40)\n      dup8\n      0xffffffff\n      and\n      0xe0\n      shl\n      dup2\n      mstore\n      0x04\n      add\n      tag_20\n      swap7\n      swap6\n      swap5\n      swap4\n      swap3\n      swap2\n      swap1\n      tag_21\n      jump\t// in\n    tag_20:\n      0x60\n      mload(0x40)\n      dup1\n      dup4\n      sub\n      dup2\n      0x00\n      dup8\n      gas\n      call\n      iszero\n      dup1\n      iszero\n      tag_23\n      jumpi\n      returndatasize\n      0x00\n      dup1\n      returndatacopy\n      revert(0x00, returndatasize)\n    tag_23:\n      pop\n      pop\n      pop\n      pop\n      mload(0x40)\n      returndatasize\n      not(0x1f)\n      0x1f\n      dup3\n      add\n      and\n      dup3\n      add\n      dup1\n      0x40\n      mstore\n      pop\n      dup2\n      add\n      swap1\n      tag_24\n      swap2\n      swap1\n      tag_18\n      jump\t// in\n    tag_24:\n      pop\n      pop\n      pop\n        /* \"test.sol\":759:998  function provideLiquitidy2  (uint amountTokenDesired,uint amountTokenMin,uint amountETHMin,address to,uint deadline) external payable{... */\n      pop\n      pop\n      pop\n      pop\n      pop\n      jump\t// out\n        /* \"#utility.yul\":88:205   */\n    tag_26:\n        /* \"#utility.yul\":197:198   */\n      0x00\n        /* \"#utility.yul\":194:195   */\n      dup1\n        /* \"#utility.yul\":187:199   */\n      revert\n        /* \"#utility.yul\":334:460   */\n    tag_28:\n        /* \"#utility.yul\":371:378   */\n      0x00\n        /* \"#utility.yul\":411:453   */\n      0xffffffffffffffffffffffffffffffffffffffff\n        /* \"#utility.yul\":404:409   */\n      dup3\n        /* \"#utility.yul\":400:454   */\n      and\n        /* \"#utility.yul\":389:454   */\n      swap1\n      pop\n        /* \"#utility.yul\":334:460   */\n      swap2\n      swap1\n      pop\n      jump\t// out\n        /* \"#utility.yul\":466:562   */\n    tag_29:\n        /* \"#utility.yul\":503:510   */\n      0x00\n        /* \"#utility.yul\":532:556   */\n      tag_48\n        /* \"#utility.yul\":550:555   */\n      dup3\n        /* \"#utility.yul\":532:556   */\n      tag_28\n      jump\t// in\n    tag_48:\n        /* \"#utility.yul\":521:556   */\n      swap1\n      pop\n        /* \"#utility.yul\":466:562   */\n      swap2\n      swap1\n      pop\n      jump\t// out\n        /* \"#utility.yul\":568:690   */\n    tag_30:\n        /* \"#utility.yul\":641:665   */\n      tag_50\n        /* \"#utility.yul\":659:664   */\n      dup2\n        /* \"#utility.yul\":641:665   */\n      tag_29\n      jump\t// in\n    tag_50:\n        /* \"#utility.yul\":634:639   */\n      dup2\n        /* \"#utility.yul\":631:666   */\n      eq\n        /* \"#utility.yul\":621:684   */\n      tag_51\n      jumpi\n        /* \"#utility.yul\":680:681   */\n      0x00\n        /* \"#utility.yul\":677:678   */\n      dup1\n        /* \"#utility.yul\":670:682   */\n      revert\n        /* \"#utility.yul\":621:684   */\n    tag_51:\n        /* \"#utility.yul\":568:690   */\n      pop\n      jump\t// out\n        /* \"#utility.yul\":696:835   */\n    tag_31:\n        /* \"#utility.yul\":742:747   */\n      0x00\n        /* \"#utility.yul\":780:786   */\n      dup2\n        /* \"#utility.yul\":767:787   */\n      calldataload\n        /* \"#utility.yul\":758:787   */\n      swap1\n      pop\n        /* \"#utility.yul\":796:829   */\n      tag_53\n        /* \"#utility.yul\":823:828   */\n      dup2\n        /* \"#utility.yul\":796:829   */\n      tag_30\n      jump\t// in\n    tag_53:\n        /* \"#utility.yul\":696:835   */\n      swap3\n      swap2\n      pop\n      pop\n      jump\t// out\n        /* \"#utility.yul\":841:918   */\n    tag_32:\n        /* \"#utility.yul\":878:885   */\n      0x00\n        /* \"#utility.yul\":907:912   */\n      dup2\n        /* \"#utility.yul\":896:912   */\n      swap1\n      pop\n        /* \"#utility.yul\":841:918   */\n      swap2\n      swap1\n      pop\n      jump\t// out\n        /* \"#utility.yul\":924:1046   */\n    tag_33:\n        /* \"#utility.yul\":997:1021   */\n      tag_56\n        /* \"#utility.yul\":1015:1020   */\n      dup2\n        /* \"#utility.yul\":997:1021   */\n      tag_32\n      jump\t// in\n    tag_56:\n        /* \"#utility.yul\":990:995   */\n      dup2\n        /* \"#utility.yul\":987:1022   */\n      eq\n        /* \"#utility.yul\":977:1040   */\n      tag_57\n      jumpi\n        /* \"#utility.yul\":1036:1037   */\n      0x00\n        /* \"#utility.yul\":1033:1034   */\n      dup1\n        /* \"#utility.yul\":1026:1038   */\n      revert\n        /* \"#utility.yul\":977:1040   */\n    tag_57:\n        /* \"#utility.yul\":924:1046   */\n      pop\n      jump\t// out\n        /* \"#utility.yul\":1052:1191   */\n    tag_34:\n        /* \"#utility.yul\":1098:1103   */\n      0x00\n        /* \"#utility.yul\":1136:1142   */\n      dup2\n        /* \"#utility.yul\":1123:1143   */\n      calldataload\n        /* \"#utility.yul\":1114:1143   */\n      swap1\n      pop\n        /* \"#utility.yul\":1152:1185   */\n      tag_59\n        /* \"#utility.yul\":1179:1184   */\n      dup2\n        /* \"#utility.yul\":1152:1185   */\n      tag_33\n      jump\t// in\n    tag_59:\n        /* \"#utility.yul\":1052:1191   */\n      swap3\n      swap2\n      pop\n      pop\n      jump\t// out\n        /* \"#utility.yul\":1197:2108   */\n    tag_6:\n        /* \"#utility.yul\":1292:1298   */\n      0x00\n        /* \"#utility.yul\":1300:1306   */\n      dup1\n        /* \"#utility.yul\":1308:1314   */\n      0x00\n        /* \"#utility.yul\":1316:1322   */\n      dup1\n        /* \"#utility.yul\":1324:1330   */\n      0x00\n        /* \"#utility.yul\":1373:1376   */\n      0xa0\n        /* \"#utility.yul\":1361:1370   */\n      dup7\n        /* \"#utility.yul\":1352:1359   */\n      dup9\n        /* \"#utility.yul\":1348:1371   */\n      sub\n        /* \"#utility.yul\":1344:1377   */\n      slt\n        /* \"#utility.yul\":1341:1461   */\n      iszero\n      tag_61\n      jumpi\n        /* \"#utility.yul\":1380:1459   */\n      tag_62\n      tag_26\n      jump\t// in\n    tag_62:\n        /* \"#utility.yul\":1341:1461   */\n    tag_61:\n        /* \"#utility.yul\":1500:1501   */\n      0x00\n        /* \"#utility.yul\":1525:1578   */\n      tag_63\n        /* \"#utility.yul\":1570:1577   */\n      dup9\n        /* \"#utility.yul\":1561:1567   */\n      dup3\n        /* \"#utility.yul\":1550:1559   */\n      dup10\n        /* \"#utility.yul\":1546:1568   */\n      add\n        /* \"#utility.yul\":1525:1578   */\n      tag_31\n      jump\t// in\n    tag_63:\n        /* \"#utility.yul\":1515:1578   */\n      swap6\n      pop\n        /* \"#utility.yul\":1471:1588   */\n      pop\n        /* \"#utility.yul\":1627:1629   */\n      0x20\n        /* \"#utility.yul\":1653:1706   */\n      tag_64\n        /* \"#utility.yul\":1698:1705   */\n      dup9\n        /* \"#utility.yul\":1689:1695   */\n      dup3\n        /* \"#utility.yul\":1678:1687   */\n      dup10\n        /* \"#utility.yul\":1674:1696   */\n      add\n        /* \"#utility.yul\":1653:1706   */\n      tag_34\n      jump\t// in\n    tag_64:\n        /* \"#utility.yul\":1643:1706   */\n      swap5\n      pop\n        /* \"#utility.yul\":1598:1716   */\n      pop\n        /* \"#utility.yul\":1755:1757   */\n      0x40\n        /* \"#utility.yul\":1781:1834   */\n      tag_65\n        /* \"#utility.yul\":1826:1833   */\n      dup9\n        /* \"#utility.yul\":1817:1823   */\n      dup3\n        /* \"#utility.yul\":1806:1815   */\n      dup10\n        /* \"#utility.yul\":1802:1824   */\n      add\n        /* \"#utility.yul\":1781:1834   */\n      tag_34\n      jump\t// in\n    tag_65:\n        /* \"#utility.yul\":1771:1834   */\n      swap4\n      pop\n        /* \"#utility.yul\":1726:1844   */\n      pop\n        /* \"#utility.yul\":1883:1885   */\n      0x60\n        /* \"#utility.yul\":1909:1962   */\n      tag_66\n        /* \"#utility.yul\":1954:1961   */\n      dup9\n        /* \"#utility.yul\":1945:1951   */\n      dup3\n        /* \"#utility.yul\":1934:1943   */\n      dup10\n        /* \"#utility.yul\":1930:1952   */\n      add\n        /* \"#utility.yul\":1909:1962   */\n      tag_34\n      jump\t// in\n    tag_66:\n        /* \"#utility.yul\":1899:1962   */\n      swap3\n      pop\n        /* \"#utility.yul\":1854:1972   */\n      pop\n        /* \"#utility.yul\":2011:2014   */\n      0x80\n        /* \"#utility.yul\":2038:2091   */\n      tag_67\n        /* \"#utility.yul\":2083:2090   */\n      dup9\n        /* \"#utility.yul\":2074:2080   */\n      dup3\n        /* \"#utility.yul\":2063:2072   */\n      dup10\n        /* \"#utility.yul\":2059:2081   */\n      add\n        /* \"#utility.yul\":2038:2091   */\n      tag_34\n      jump\t// in\n    tag_67:\n        /* \"#utility.yul\":2028:2091   */\n      swap2\n      pop\n        /* \"#utility.yul\":1982:2101   */\n      pop\n        /* \"#utility.yul\":1197:2108   */\n      swap3\n      swap6\n      pop\n      swap3\n      swap6\n      swap1\n      swap4\n      pop\n      jump\t// out\n        /* \"#utility.yul\":2114:3025   */\n    tag_10:\n        /* \"#utility.yul\":2209:2215   */\n      0x00\n        /* \"#utility.yul\":2217:2223   */\n      dup1\n        /* \"#utility.yul\":2225:2231   */\n      0x00\n        /* \"#utility.yul\":2233:2239   */\n      dup1\n        /* \"#utility.yul\":2241:2247   */\n      0x00\n        /* \"#utility.yul\":2290:2293   */\n      0xa0\n        /* \"#utility.yul\":2278:2287   */\n      dup7\n        /* \"#utility.yul\":2269:2276   */\n      dup9\n        /* \"#utility.yul\":2265:2288   */\n      sub\n        /* \"#utility.yul\":2261:2294   */\n      slt\n        /* \"#utility.yul\":2258:2378   */\n      iszero\n      tag_69\n      jumpi\n        /* \"#utility.yul\":2297:2376   */\n      tag_70\n      tag_26\n      jump\t// in\n    tag_70:\n        /* \"#utility.yul\":2258:2378   */\n    tag_69:\n        /* \"#utility.yul\":2417:2418   */\n      0x00\n        /* \"#utility.yul\":2442:2495   */\n      tag_71\n        /* \"#utility.yul\":2487:2494   */\n      dup9\n        /* \"#utility.yul\":2478:2484   */\n      dup3\n        /* \"#utility.yul\":2467:2476   */\n      dup10\n        /* \"#utility.yul\":2463:2485   */\n      add\n        /* \"#utility.yul\":2442:2495   */\n      tag_34\n      jump\t// in\n    tag_71:\n        /* \"#utility.yul\":2432:2495   */\n      swap6\n      pop\n        /* \"#utility.yul\":2388:2505   */\n      pop\n        /* \"#utility.yul\":2544:2546   */\n      0x20\n        /* \"#utility.yul\":2570:2623   */\n      tag_72\n        /* \"#utility.yul\":2615:2622   */\n      dup9\n        /* \"#utility.yul\":2606:2612   */\n      dup3\n        /* \"#utility.yul\":2595:2604   */\n      dup10\n        /* \"#utility.yul\":2591:2613   */\n      add\n        /* \"#utility.yul\":2570:2623   */\n      tag_34\n      jump\t// in\n    tag_72:\n        /* \"#utility.yul\":2560:2623   */\n      swap5\n      pop\n        /* \"#utility.yul\":2515:2633   */\n      pop\n        /* \"#utility.yul\":2672:2674   */\n      0x40\n        /* \"#utility.yul\":2698:2751   */\n      tag_73\n        /* \"#utility.yul\":2743:2750   */\n      dup9\n        /* \"#utility.yul\":2734:2740   */\n      dup3\n        /* \"#utility.yul\":2723:2732   */\n      dup10\n        /* \"#utility.yul\":2719:2741   */\n      add\n        /* \"#utility.yul\":2698:2751   */\n      tag_34\n      jump\t// in\n    tag_73:\n        /* \"#utility.yul\":2688:2751   */\n      swap4\n      pop\n        /* \"#utility.yul\":2643:2761   */\n      pop\n        /* \"#utility.yul\":2800:2802   */\n      0x60\n        /* \"#utility.yul\":2826:2879   */\n      tag_74\n        /* \"#utility.yul\":2871:2878   */\n      dup9\n        /* \"#utility.yul\":2862:2868   */\n      dup3\n        /* \"#utility.yul\":2851:2860   */\n      dup10\n        /* \"#utility.yul\":2847:2869   */\n      add\n        /* \"#utility.yul\":2826:2879   */\n      tag_31\n      jump\t// in\n    tag_74:\n        /* \"#utility.yul\":2816:2879   */\n      swap3\n      pop\n        /* \"#utility.yul\":2771:2889   */\n      pop\n        /* \"#utility.yul\":2928:2931   */\n      0x80\n        /* \"#utility.yul\":2955:3008   */\n      tag_75\n        /* \"#utility.yul\":3000:3007   */\n      dup9\n        /* \"#utility.yul\":2991:2997   */\n      dup3\n        /* \"#utility.yul\":2980:2989   */\n      dup10\n        /* \"#utility.yul\":2976:2998   */\n      add\n        /* \"#utility.yul\":2955:3008   */\n      tag_34\n      jump\t// in\n    tag_75:\n        /* \"#utility.yul\":2945:3008   */\n      swap2\n      pop\n        /* \"#utility.yul\":2899:3018   */\n      pop\n        /* \"#utility.yul\":2114:3025   */\n      swap3\n      swap6\n      pop\n      swap3\n      swap6\n      swap1\n      swap4\n      pop\n      jump\t// out\n        /* \"#utility.yul\":3031:3149   */\n    tag_35:\n        /* \"#utility.yul\":3118:3142   */\n      tag_77\n        /* \"#utility.yul\":3136:3141   */\n      dup2\n        /* \"#utility.yul\":3118:3142   */\n      tag_29\n      jump\t// in\n    tag_77:\n        /* \"#utility.yul\":3113:3116   */\n      dup3\n        /* \"#utility.yul\":3106:3143   */\n      mstore\n        /* \"#utility.yul\":3031:3149   */\n      pop\n      pop\n      jump\t// out\n        /* \"#utility.yul\":3155:3273   */\n    tag_36:\n        /* \"#utility.yul\":3242:3266   */\n      tag_79\n        /* \"#utility.yul\":3260:3265   */\n      dup2\n        /* \"#utility.yul\":3242:3266   */\n      tag_32\n      jump\t// in\n    tag_79:\n        /* \"#utility.yul\":3237:3240   */\n      dup3\n        /* \"#utility.yul\":3230:3267   */\n      mstore\n        /* \"#utility.yul\":3155:3273   */\n      pop\n      pop\n      jump\t// out\n        /* \"#utility.yul\":3279:4054   */\n    tag_14:\n        /* \"#utility.yul\":3512:3516   */\n      0x00\n        /* \"#utility.yul\":3550:3553   */\n      0xc0\n        /* \"#utility.yul\":3539:3548   */\n      dup3\n        /* \"#utility.yul\":3535:3554   */\n      add\n        /* \"#utility.yul\":3527:3554   */\n      swap1\n      pop\n        /* \"#utility.yul\":3564:3635   */\n      tag_81\n        /* \"#utility.yul\":3632:3633   */\n      0x00\n        /* \"#utility.yul\":3621:3630   */\n      dup4\n        /* \"#utility.yul\":3617:3634   */\n      add\n        /* \"#utility.yul\":3608:3614   */\n      dup10\n        /* \"#utility.yul\":3564:3635   */\n      tag_35\n      jump\t// in\n    tag_81:\n        /* \"#utility.yul\":3645:3717   */\n      tag_82\n        /* \"#utility.yul\":3713:3715   */\n      0x20\n        /* \"#utility.yul\":3702:3711   */\n      dup4\n        /* \"#utility.yul\":3698:3716   */\n      add\n        /* \"#utility.yul\":3689:3695   */\n      dup9\n        /* \"#utility.yul\":3645:3717   */\n      tag_36\n      jump\t// in\n    tag_82:\n        /* \"#utility.yul\":3727:3799   */\n      tag_83\n        /* \"#utility.yul\":3795:3797   */\n      0x40\n        /* \"#utility.yul\":3784:3793   */\n      dup4\n        /* \"#utility.yul\":3780:3798   */\n      add\n        /* \"#utility.yul\":3771:3777   */\n      dup8\n        /* \"#utility.yul\":3727:3799   */\n      tag_36\n      jump\t// in\n    tag_83:\n        /* \"#utility.yul\":3809:3881   */\n      tag_84\n        /* \"#utility.yul\":3877:3879   */\n      0x60\n        /* \"#utility.yul\":3866:3875   */\n      dup4\n        /* \"#utility.yul\":3862:3880   */\n      add\n        /* \"#utility.yul\":3853:3859   */\n      dup7\n        /* \"#utility.yul\":3809:3881   */\n      tag_36\n      jump\t// in\n    tag_84:\n        /* \"#utility.yul\":3891:3964   */\n      tag_85\n        /* \"#utility.yul\":3959:3962   */\n      0x80\n        /* \"#utility.yul\":3948:3957   */\n      dup4\n        /* \"#utility.yul\":3944:3963   */\n      add\n        /* \"#utility.yul\":3935:3941   */\n      dup6\n        /* \"#utility.yul\":3891:3964   */\n      tag_35\n      jump\t// in\n    tag_85:\n        /* \"#utility.yul\":3974:4047   */\n      tag_86\n        /* \"#utility.yul\":4042:4045   */\n      0xa0\n        /* \"#utility.yul\":4031:4040   */\n      dup4\n        /* \"#utility.yul\":4027:4046   */\n      add\n        /* \"#utility.yul\":4018:4024   */\n      dup5\n        /* \"#utility.yul\":3974:4047   */\n      tag_36\n      jump\t// in\n    tag_86:\n        /* \"#utility.yul\":3279:4054   */\n      swap8\n      swap7\n      pop\n      pop\n      pop\n      pop\n      pop\n      pop\n      pop\n      jump\t// out\n        /* \"#utility.yul\":4060:4203   */\n    tag_37:\n        /* \"#utility.yul\":4117:4122   */\n      0x00\n        /* \"#utility.yul\":4148:4154   */\n      dup2\n        /* \"#utility.yul\":4142:4155   */\n      mload\n        /* \"#utility.yul\":4133:4155   */\n      swap1\n      pop\n        /* \"#utility.yul\":4164:4197   */\n      tag_88\n        /* \"#utility.yul\":4191:4196   */\n      dup2\n        /* \"#utility.yul\":4164:4197   */\n      tag_33\n      jump\t// in\n    tag_88:\n        /* \"#utility.yul\":4060:4203   */\n      swap3\n      swap2\n      pop\n      pop\n      jump\t// out\n        /* \"#utility.yul\":4209:4872   */\n    tag_18:\n        /* \"#utility.yul\":4297:4303   */\n      0x00\n        /* \"#utility.yul\":4305:4311   */\n      dup1\n        /* \"#utility.yul\":4313:4319   */\n      0x00\n        /* \"#utility.yul\":4362:4364   */\n      0x60\n        /* \"#utility.yul\":4350:4359   */\n      dup5\n        /* \"#utility.yul\":4341:4348   */\n      dup7\n        /* \"#utility.yul\":4337:4360   */\n      sub\n        /* \"#utility.yul\":4333:4365   */\n      slt\n        /* \"#utility.yul\":4330:4449   */\n      iszero\n      tag_90\n      jumpi\n        /* \"#utility.yul\":4368:4447   */\n      tag_91\n      tag_26\n      jump\t// in\n    tag_91:\n        /* \"#utility.yul\":4330:4449   */\n    tag_90:\n        /* \"#utility.yul\":4488:4489   */\n      0x00\n        /* \"#utility.yul\":4513:4577   */\n      tag_92\n        /* \"#utility.yul\":4569:4576   */\n      dup7\n        /* \"#utility.yul\":4560:4566   */\n      dup3\n        /* \"#utility.yul\":4549:4558   */\n      dup8\n        /* \"#utility.yul\":4545:4567   */\n      add\n        /* \"#utility.yul\":4513:4577   */\n      tag_37\n      jump\t// in\n    tag_92:\n        /* \"#utility.yul\":4503:4577   */\n      swap4\n      pop\n        /* \"#utility.yul\":4459:4587   */\n      pop\n        /* \"#utility.yul\":4626:4628   */\n      0x20\n        /* \"#utility.yul\":4652:4716   */\n      tag_93\n        /* \"#utility.yul\":4708:4715   */\n      dup7\n        /* \"#utility.yul\":4699:4705   */\n      dup3\n        /* \"#utility.yul\":4688:4697   */\n      dup8\n        /* \"#utility.yul\":4684:4706   */\n      add\n        /* \"#utility.yul\":4652:4716   */\n      tag_37\n      jump\t// in\n    tag_93:\n        /* \"#utility.yul\":4642:4716   */\n      swap3\n      pop\n        /* \"#utility.yul\":4597:4726   */\n      pop\n        /* \"#utility.yul\":4765:4767   */\n      0x40\n        /* \"#utility.yul\":4791:4855   */\n      tag_94\n        /* \"#utility.yul\":4847:4854   */\n      dup7\n        /* \"#utility.yul\":4838:4844   */\n      dup3\n        /* \"#utility.yul\":4827:4836   */\n      dup8\n        /* \"#utility.yul\":4823:4845   */\n      add\n        /* \"#utility.yul\":4791:4855   */\n      tag_37\n      jump\t// in\n    tag_94:\n        /* \"#utility.yul\":4781:4855   */\n      swap2\n      pop\n        /* \"#utility.yul\":4736:4865   */\n      pop\n        /* \"#utility.yul\":4209:4872   */\n      swap3\n      pop\n      swap3\n      pop\n      swap3\n      jump\t// out\n        /* \"#utility.yul\":4878:4963   */\n    tag_38:\n        /* \"#utility.yul\":4923:4930   */\n      0x00\n        /* \"#utility.yul\":4952:4957   */\n      dup2\n        /* \"#utility.yul\":4941:4957   */\n      swap1\n      pop\n        /* \"#utility.yul\":4878:4963   */\n      swap2\n      swap1\n      pop\n      jump\t// out\n        /* \"#utility.yul\":4969:5029   */\n    tag_39:\n        /* \"#utility.yul\":4997:5000   */\n      0x00\n        /* \"#utility.yul\":5018:5023   */\n      dup2\n        /* \"#utility.yul\":5011:5023   */\n      swap1\n      pop\n        /* \"#utility.yul\":4969:5029   */\n      swap2\n      swap1\n      pop\n      jump\t// out\n        /* \"#utility.yul\":5035:5193   */\n    tag_40:\n        /* \"#utility.yul\":5093:5102   */\n      0x00\n        /* \"#utility.yul\":5126:5187   */\n      tag_98\n        /* \"#utility.yul\":5144:5186   */\n      tag_99\n        /* \"#utility.yul\":5153:5185   */\n      tag_100\n        /* \"#utility.yul\":5179:5184   */\n      dup5\n        /* \"#utility.yul\":5153:5185   */\n      tag_38\n      jump\t// in\n    tag_100:\n        /* \"#utility.yul\":5144:5186   */\n      tag_39\n      jump\t// in\n    tag_99:\n        /* \"#utility.yul\":5126:5187   */\n      tag_32\n      jump\t// in\n    tag_98:\n        /* \"#utility.yul\":5113:5187   */\n      swap1\n      pop\n        /* \"#utility.yul\":5035:5193   */\n      swap2\n      swap1\n      pop\n      jump\t// out\n        /* \"#utility.yul\":5199:5346   */\n    tag_41:\n        /* \"#utility.yul\":5294:5339   */\n      tag_102\n        /* \"#utility.yul\":5333:5338   */\n      dup2\n        /* \"#utility.yul\":5294:5339   */\n      tag_40\n      jump\t// in\n    tag_102:\n        /* \"#utility.yul\":5289:5292   */\n      dup3\n        /* \"#utility.yul\":5282:5340   */\n      mstore\n        /* \"#utility.yul\":5199:5346   */\n      pop\n      pop\n      jump\t// out\n        /* \"#utility.yul\":5352:6159   */\n    tag_21:\n        /* \"#utility.yul\":5601:5605   */\n      0x00\n        /* \"#utility.yul\":5639:5642   */\n      0xc0\n        /* \"#utility.yul\":5628:5637   */\n      dup3\n        /* \"#utility.yul\":5624:5643   */\n      add\n        /* \"#utility.yul\":5616:5643   */\n      swap1\n      pop\n        /* \"#utility.yul\":5653:5724   */\n      tag_104\n        /* \"#utility.yul\":5721:5722   */\n      0x00\n        /* \"#utility.yul\":5710:5719   */\n      dup4\n        /* \"#utility.yul\":5706:5723   */\n      add\n        /* \"#utility.yul\":5697:5703   */\n      dup10\n        /* \"#utility.yul\":5653:5724   */\n      tag_35\n      jump\t// in\n    tag_104:\n        /* \"#utility.yul\":5734:5806   */\n      tag_105\n        /* \"#utility.yul\":5802:5804   */\n      0x20\n        /* \"#utility.yul\":5791:5800   */\n      dup4\n        /* \"#utility.yul\":5787:5805   */\n      add\n        /* \"#utility.yul\":5778:5784   */\n      dup9\n        /* \"#utility.yul\":5734:5806   */\n      tag_36\n      jump\t// in\n    tag_105:\n        /* \"#utility.yul\":5816:5896   */\n      tag_106\n        /* \"#utility.yul\":5892:5894   */\n      0x40\n        /* \"#utility.yul\":5881:5890   */\n      dup4\n        /* \"#utility.yul\":5877:5895   */\n      add\n        /* \"#utility.yul\":5868:5874   */\n      dup8\n        /* \"#utility.yul\":5816:5896   */\n      tag_41\n      jump\t// in\n    tag_106:\n        /* \"#utility.yul\":5906:5986   */\n      tag_107\n        /* \"#utility.yul\":5982:5984   */\n      0x60\n        /* \"#utility.yul\":5971:5980   */\n      dup4\n        /* \"#utility.yul\":5967:5985   */\n      add\n        /* \"#utility.yul\":5958:5964   */\n      dup7\n        /* \"#utility.yul\":5906:5986   */\n      tag_41\n      jump\t// in\n    tag_107:\n        /* \"#utility.yul\":5996:6069   */\n      tag_108\n        /* \"#utility.yul\":6064:6067   */\n      0x80\n        /* \"#utility.yul\":6053:6062   */\n      dup4\n        /* \"#utility.yul\":6049:6068   */\n      add\n        /* \"#utility.yul\":6040:6046   */\n      dup6\n        /* \"#utility.yul\":5996:6069   */\n      tag_35\n      jump\t// in\n    tag_108:\n        /* \"#utility.yul\":6079:6152   */\n      tag_109\n        /* \"#utility.yul\":6147:6150   */\n      0xa0\n        /* \"#utility.yul\":6136:6145   */\n      dup4\n        /* \"#utility.yul\":6132:6151   */\n      add\n        /* \"#utility.yul\":6123:6129   */\n      dup5\n        /* \"#utility.yul\":6079:6152   */\n      tag_36\n      jump\t// in\n    tag_109:\n        /* \"#utility.yul\":5352:6159   */\n      swap8\n      swap7\n      pop\n      pop\n      pop\n      pop\n      pop\n      pop\n      pop\n      jump\t// out\n\n    auxdata: 0xa26469706673582212203eb8e2313005d67ed3b4dcd73e29ee375bbe4554248cd0edf91906459e72723464736f6c63430008110033\n}\n",
				"bytecode": {
					"linkReferences": {},
					"object": "608060405273386a47b1f6be9f57d86256e9d69ebc44043bb2336000806101000a81548173ffffffffffffffffffffffffffffffffffffffff021916908373ffffffffffffffffffffffffffffffffffffffff160217905550737a250d5630b4cf539739df2c5dacb4c659f2488d600160006101000a81548173ffffffffffffffffffffffffffffffffffffffff021916908373ffffffffffffffffffffffffffffffffffffffff16021790555060008054906101000a900473ffffffffffffffffffffffffffffffffffffffff16600260006101000a81548173ffffffffffffffffffffffffffffffffffffffff021916908373ffffffffffffffffffffffffffffffffffffffff160217905550600160009054906101000a900473ffffffffffffffffffffffffffffffffffffffff16600360006101000a81548173ffffffffffffffffffffffffffffffffffffffff021916908373ffffffffffffffffffffffffffffffffffffffff16021790555034801561017d57600080fd5b5061053d8061018d6000396000f3fe6080604052600436106100295760003560e01c80630eaaad9e1461002e578063930bb2861461004a575b600080fd5b61004860048036038101906100439190610284565b610066565b005b610064600480360381019061005f91906102ff565b610118565b005b600360009054906101000a900473ffffffffffffffffffffffffffffffffffffffff1673ffffffffffffffffffffffffffffffffffffffff1663f305d7198686868633876040518763ffffffff1660e01b81526004016100cb96959493929190610398565b6060604051808303816000875af11580156100ea573d6000803e3d6000fd5b505050506040513d601f19601f8201168201806040525081019061010e919061040e565b5050505050505050565b600360009054906101000a900473ffffffffffffffffffffffffffffffffffffffff1673ffffffffffffffffffffffffffffffffffffffff1663f305d71960008054906101000a900473ffffffffffffffffffffffffffffffffffffffff168760008087876040518763ffffffff1660e01b815260040161019e969594939291906104a6565b6060604051808303816000875af11580156101bd573d6000803e3d6000fd5b505050506040513d601f19601f820116820180604052508101906101e1919061040e565b5050505050505050565b600080fd5b600073ffffffffffffffffffffffffffffffffffffffff82169050919050565b600061021b826101f0565b9050919050565b61022b81610210565b811461023657600080fd5b50565b60008135905061024881610222565b92915050565b6000819050919050565b6102618161024e565b811461026c57600080fd5b50565b60008135905061027e81610258565b92915050565b600080600080600060a086880312156102a05761029f6101eb565b5b60006102ae88828901610239565b95505060206102bf8882890161026f565b94505060406102d08882890161026f565b93505060606102e18882890161026f565b92505060806102f28882890161026f565b9150509295509295909350565b600080600080600060a0868803121561031b5761031a6101eb565b5b60006103298882890161026f565b955050602061033a8882890161026f565b945050604061034b8882890161026f565b935050606061035c88828901610239565b925050608061036d8882890161026f565b9150509295509295909350565b61038381610210565b82525050565b6103928161024e565b82525050565b600060c0820190506103ad600083018961037a565b6103ba6020830188610389565b6103c76040830187610389565b6103d46060830186610389565b6103e1608083018561037a565b6103ee60a0830184610389565b979650505050505050565b60008151905061040881610258565b92915050565b600080600060608486031215610427576104266101eb565b5b6000610435868287016103f9565b9350506020610446868287016103f9565b9250506040610457868287016103f9565b9150509250925092565b6000819050919050565b6000819050919050565b600061049061048b61048684610461565b61046b565b61024e565b9050919050565b6104a081610475565b82525050565b600060c0820190506104bb600083018961037a565b6104c86020830188610389565b6104d56040830187610497565b6104e26060830186610497565b6104ef608083018561037a565b6104fc60a0830184610389565b97965050505050505056fea26469706673582212203eb8e2313005d67ed3b4dcd73e29ee375bbe4554248cd0edf91906459e72723464736f6c63430008110033",
					"opcodes": "PUSH1 0x80 PUSH1 0x40 MSTORE PUSH20 0x386A47B1F6BE9F57D86256E9D69EBC44043BB233 PUSH1 0x0 DUP1 PUSH2 0x100 EXP DUP2 SLOAD DUP2 PUSH20 0xFFFFFFFFFFFFFFFFFFFFFFFFFFFFFFFFFFFFFFFF MUL NOT AND SWAP1 DUP4 PUSH20 0xFFFFFFFFFFFFFFFFFFFFFFFFFFFFFFFFFFFFFFFF AND MUL OR SWAP1 SSTORE POP PUSH20 0x7A250D5630B4CF539739DF2C5DACB4C659F2488D PUSH1 0x1 PUSH1 0x0 PUSH2 0x100 EXP DUP2 SLOAD DUP2 PUSH20 0xFFFFFFFFFFFFFFFFFFFFFFFFFFFFFFFFFFFFFFFF MUL NOT AND SWAP1 DUP4 PUSH20 0xFFFFFFFFFFFFFFFFFFFFFFFFFFFFFFFFFFFFFFFF AND MUL OR SWAP1 SSTORE POP PUSH1 0x0 DUP1 SLOAD SWAP1 PUSH2 0x100 EXP SWAP1 DIV PUSH20 0xFFFFFFFFFFFFFFFFFFFFFFFFFFFFFFFFFFFFFFFF AND PUSH1 0x2 PUSH1 0x0 PUSH2 0x100 EXP DUP2 SLOAD DUP2 PUSH20 0xFFFFFFFFFFFFFFFFFFFFFFFFFFFFFFFFFFFFFFFF MUL NOT AND SWAP1 DUP4 PUSH20 0xFFFFFFFFFFFFFFFFFFFFFFFFFFFFFFFFFFFFFFFF AND MUL OR SWAP1 SSTORE POP PUSH1 0x1 PUSH1 0x0 SWAP1 SLOAD SWAP1 PUSH2 0x100 EXP SWAP1 DIV PUSH20 0xFFFFFFFFFFFFFFFFFFFFFFFFFFFFFFFFFFFFFFFF AND PUSH1 0x3 PUSH1 0x0 PUSH2 0x100 EXP DUP2 SLOAD DUP2 PUSH20 0xFFFFFFFFFFFFFFFFFFFFFFFFFFFFFFFFFFFFFFFF MUL NOT AND SWAP1 DUP4 PUSH20 0xFFFFFFFFFFFFFFFFFFFFFFFFFFFFFFFFFFFFFFFF AND MUL OR SWAP1 SSTORE POP CALLVALUE DUP1 ISZERO PUSH2 0x17D JUMPI PUSH1 0x0 DUP1 REVERT JUMPDEST POP PUSH2 0x53D DUP1 PUSH2 0x18D PUSH1 0x0 CODECOPY PUSH1 0x0 RETURN INVALID PUSH1 0x80 PUSH1 0x40 MSTORE PUSH1 0x4 CALLDATASIZE LT PUSH2 0x29 JUMPI PUSH1 0x0 CALLDATALOAD PUSH1 0xE0 SHR DUP1 PUSH4 0xEAAAD9E EQ PUSH2 0x2E JUMPI DUP1 PUSH4 0x930BB286 EQ PUSH2 0x4A JUMPI JUMPDEST PUSH1 0x0 DUP1 REVERT JUMPDEST PUSH2 0x48 PUSH1 0x4 DUP1 CALLDATASIZE SUB DUP2 ADD SWAP1 PUSH2 0x43 SWAP2 SWAP1 PUSH2 0x284 JUMP JUMPDEST PUSH2 0x66 JUMP JUMPDEST STOP JUMPDEST PUSH2 0x64 PUSH1 0x4 DUP1 CALLDATASIZE SUB DUP2 ADD SWAP1 PUSH2 0x5F SWAP2 SWAP1 PUSH2 0x2FF JUMP JUMPDEST PUSH2 0x118 JUMP JUMPDEST STOP JUMPDEST PUSH1 0x3 PUSH1 0x0 SWAP1 SLOAD SWAP1 PUSH2 0x100 EXP SWAP1 DIV PUSH20 0xFFFFFFFFFFFFFFFFFFFFFFFFFFFFFFFFFFFFFFFF AND PUSH20 0xFFFFFFFFFFFFFFFFFFFFFFFFFFFFFFFFFFFFFFFF AND PUSH4 0xF305D719 DUP7 DUP7 DUP7 DUP7 CALLER DUP8 PUSH1 0x40 MLOAD DUP8 PUSH4 0xFFFFFFFF AND PUSH1 0xE0 SHL DUP2 MSTORE PUSH1 0x4 ADD PUSH2 0xCB SWAP7 SWAP6 SWAP5 SWAP4 SWAP3 SWAP2 SWAP1 PUSH2 0x398 JUMP JUMPDEST PUSH1 0x60 PUSH1 0x40 MLOAD DUP1 DUP4 SUB DUP2 PUSH1 0x0 DUP8 GAS CALL ISZERO DUP1 ISZERO PUSH2 0xEA JUMPI RETURNDATASIZE PUSH1 0x0 DUP1 RETURNDATACOPY RETURNDATASIZE PUSH1 0x0 REVERT JUMPDEST POP POP POP POP PUSH1 0x40 MLOAD RETURNDATASIZE PUSH1 0x1F NOT PUSH1 0x1F DUP3 ADD AND DUP3 ADD DUP1 PUSH1 0x40 MSTORE POP DUP2 ADD SWAP1 PUSH2 0x10E SWAP2 SWAP1 PUSH2 0x40E JUMP JUMPDEST POP POP POP POP POP POP POP POP JUMP JUMPDEST PUSH1 0x3 PUSH1 0x0 SWAP1 SLOAD SWAP1 PUSH2 0x100 EXP SWAP1 DIV PUSH20 0xFFFFFFFFFFFFFFFFFFFFFFFFFFFFFFFFFFFFFFFF AND PUSH20 0xFFFFFFFFFFFFFFFFFFFFFFFFFFFFFFFFFFFFFFFF AND PUSH4 0xF305D719 PUSH1 0x0 DUP1 SLOAD SWAP1 PUSH2 0x100 EXP SWAP1 DIV PUSH20 0xFFFFFFFFFFFFFFFFFFFFFFFFFFFFFFFFFFFFFFFF AND DUP8 PUSH1 0x0 DUP1 DUP8 DUP8 PUSH1 0x40 MLOAD DUP8 PUSH4 0xFFFFFFFF AND PUSH1 0xE0 SHL DUP2 MSTORE PUSH1 0x4 ADD PUSH2 0x19E SWAP7 SWAP6 SWAP5 SWAP4 SWAP3 SWAP2 SWAP1 PUSH2 0x4A6 JUMP JUMPDEST PUSH1 0x60 PUSH1 0x40 MLOAD DUP1 DUP4 SUB DUP2 PUSH1 0x0 DUP8 GAS CALL ISZERO DUP1 ISZERO PUSH2 0x1BD JUMPI RETURNDATASIZE PUSH1 0x0 DUP1 RETURNDATACOPY RETURNDATASIZE PUSH1 0x0 REVERT JUMPDEST POP POP POP POP PUSH1 0x40 MLOAD RETURNDATASIZE PUSH1 0x1F NOT PUSH1 0x1F DUP3 ADD AND DUP3 ADD DUP1 PUSH1 0x40 MSTORE POP DUP2 ADD SWAP1 PUSH2 0x1E1 SWAP2 SWAP1 PUSH2 0x40E JUMP JUMPDEST POP POP POP POP POP POP POP POP JUMP JUMPDEST PUSH1 0x0 DUP1 REVERT JUMPDEST PUSH1 0x0 PUSH20 0xFFFFFFFFFFFFFFFFFFFFFFFFFFFFFFFFFFFFFFFF DUP3 AND SWAP1 POP SWAP2 SWAP1 POP JUMP JUMPDEST PUSH1 0x0 PUSH2 0x21B DUP3 PUSH2 0x1F0 JUMP JUMPDEST SWAP1 POP SWAP2 SWAP1 POP JUMP JUMPDEST PUSH2 0x22B DUP2 PUSH2 0x210 JUMP JUMPDEST DUP2 EQ PUSH2 0x236 JUMPI PUSH1 0x0 DUP1 REVERT JUMPDEST POP JUMP JUMPDEST PUSH1 0x0 DUP2 CALLDATALOAD SWAP1 POP PUSH2 0x248 DUP2 PUSH2 0x222 JUMP JUMPDEST SWAP3 SWAP2 POP POP JUMP JUMPDEST PUSH1 0x0 DUP2 SWAP1 POP SWAP2 SWAP1 POP JUMP JUMPDEST PUSH2 0x261 DUP2 PUSH2 0x24E JUMP JUMPDEST DUP2 EQ PUSH2 0x26C JUMPI PUSH1 0x0 DUP1 REVERT JUMPDEST POP JUMP JUMPDEST PUSH1 0x0 DUP2 CALLDATALOAD SWAP1 POP PUSH2 0x27E DUP2 PUSH2 0x258 JUMP JUMPDEST SWAP3 SWAP2 POP POP JUMP JUMPDEST PUSH1 0x0 DUP1 PUSH1 0x0 DUP1 PUSH1 0x0 PUSH1 0xA0 DUP7 DUP9 SUB SLT ISZERO PUSH2 0x2A0 JUMPI PUSH2 0x29F PUSH2 0x1EB JUMP JUMPDEST JUMPDEST PUSH1 0x0 PUSH2 0x2AE DUP9 DUP3 DUP10 ADD PUSH2 0x239 JUMP JUMPDEST SWAP6 POP POP PUSH1 0x20 PUSH2 0x2BF DUP9 DUP3 DUP10 ADD PUSH2 0x26F JUMP JUMPDEST SWAP5 POP POP PUSH1 0x40 PUSH2 0x2D0 DUP9 DUP3 DUP10 ADD PUSH2 0x26F JUMP JUMPDEST SWAP4 POP POP PUSH1 0x60 PUSH2 0x2E1 DUP9 DUP3 DUP10 ADD PUSH2 0x26F JUMP JUMPDEST SWAP3 POP POP PUSH1 0x80 PUSH2 0x2F2 DUP9 DUP3 DUP10 ADD PUSH2 0x26F JUMP JUMPDEST SWAP2 POP POP SWAP3 SWAP6 POP SWAP3 SWAP6 SWAP1 SWAP4 POP JUMP JUMPDEST PUSH1 0x0 DUP1 PUSH1 0x0 DUP1 PUSH1 0x0 PUSH1 0xA0 DUP7 DUP9 SUB SLT ISZERO PUSH2 0x31B JUMPI PUSH2 0x31A PUSH2 0x1EB JUMP JUMPDEST JUMPDEST PUSH1 0x0 PUSH2 0x329 DUP9 DUP3 DUP10 ADD PUSH2 0x26F JUMP JUMPDEST SWAP6 POP POP PUSH1 0x20 PUSH2 0x33A DUP9 DUP3 DUP10 ADD PUSH2 0x26F JUMP JUMPDEST SWAP5 POP POP PUSH1 0x40 PUSH2 0x34B DUP9 DUP3 DUP10 ADD PUSH2 0x26F JUMP JUMPDEST SWAP4 POP POP PUSH1 0x60 PUSH2 0x35C DUP9 DUP3 DUP10 ADD PUSH2 0x239 JUMP JUMPDEST SWAP3 POP POP PUSH1 0x80 PUSH2 0x36D DUP9 DUP3 DUP10 ADD PUSH2 0x26F JUMP JUMPDEST SWAP2 POP POP SWAP3 SWAP6 POP SWAP3 SWAP6 SWAP1 SWAP4 POP JUMP JUMPDEST PUSH2 0x383 DUP2 PUSH2 0x210 JUMP JUMPDEST DUP3 MSTORE POP POP JUMP JUMPDEST PUSH2 0x392 DUP2 PUSH2 0x24E JUMP JUMPDEST DUP3 MSTORE POP POP JUMP JUMPDEST PUSH1 0x0 PUSH1 0xC0 DUP3 ADD SWAP1 POP PUSH2 0x3AD PUSH1 0x0 DUP4 ADD DUP10 PUSH2 0x37A JUMP JUMPDEST PUSH2 0x3BA PUSH1 0x20 DUP4 ADD DUP9 PUSH2 0x389 JUMP JUMPDEST PUSH2 0x3C7 PUSH1 0x40 DUP4 ADD DUP8 PUSH2 0x389 JUMP JUMPDEST PUSH2 0x3D4 PUSH1 0x60 DUP4 ADD DUP7 PUSH2 0x389 JUMP JUMPDEST PUSH2 0x3E1 PUSH1 0x80 DUP4 ADD DUP6 PUSH2 0x37A JUMP JUMPDEST PUSH2 0x3EE PUSH1 0xA0 DUP4 ADD DUP5 PUSH2 0x389 JUMP JUMPDEST SWAP8 SWAP7 POP POP POP POP POP POP POP JUMP JUMPDEST PUSH1 0x0 DUP2 MLOAD SWAP1 POP PUSH2 0x408 DUP2 PUSH2 0x258 JUMP JUMPDEST SWAP3 SWAP2 POP POP JUMP JUMPDEST PUSH1 0x0 DUP1 PUSH1 0x0 PUSH1 0x60 DUP5 DUP7 SUB SLT ISZERO PUSH2 0x427 JUMPI PUSH2 0x426 PUSH2 0x1EB JUMP JUMPDEST JUMPDEST PUSH1 0x0 PUSH2 0x435 DUP7 DUP3 DUP8 ADD PUSH2 0x3F9 JUMP JUMPDEST SWAP4 POP POP PUSH1 0x20 PUSH2 0x446 DUP7 DUP3 DUP8 ADD PUSH2 0x3F9 JUMP JUMPDEST SWAP3 POP POP PUSH1 0x40 PUSH2 0x457 DUP7 DUP3 DUP8 ADD PUSH2 0x3F9 JUMP JUMPDEST SWAP2 POP POP SWAP3 POP SWAP3 POP SWAP3 JUMP JUMPDEST PUSH1 0x0 DUP2 SWAP1 POP SWAP2 SWAP1 POP JUMP JUMPDEST PUSH1 0x0 DUP2 SWAP1 POP SWAP2 SWAP1 POP JUMP JUMPDEST PUSH1 0x0 PUSH2 0x490 PUSH2 0x48B PUSH2 0x486 DUP5 PUSH2 0x461 JUMP JUMPDEST PUSH2 0x46B JUMP JUMPDEST PUSH2 0x24E JUMP JUMPDEST SWAP1 POP SWAP2 SWAP1 POP JUMP JUMPDEST PUSH2 0x4A0 DUP2 PUSH2 0x475 JUMP JUMPDEST DUP3 MSTORE POP POP JUMP JUMPDEST PUSH1 0x0 PUSH1 0xC0 DUP3 ADD SWAP1 POP PUSH2 0x4BB PUSH1 0x0 DUP4 ADD DUP10 PUSH2 0x37A JUMP JUMPDEST PUSH2 0x4C8 PUSH1 0x20 DUP4 ADD DUP9 PUSH2 0x389 JUMP JUMPDEST PUSH2 0x4D5 PUSH1 0x40 DUP4 ADD DUP8 PUSH2 0x497 JUMP JUMPDEST PUSH2 0x4E2 PUSH1 0x60 DUP4 ADD DUP7 PUSH2 0x497 JUMP JUMPDEST PUSH2 0x4EF PUSH1 0x80 DUP4 ADD DUP6 PUSH2 0x37A JUMP JUMPDEST PUSH2 0x4FC PUSH1 0xA0 DUP4 ADD DUP5 PUSH2 0x389 JUMP JUMPDEST SWAP8 SWAP7 POP POP POP POP POP POP POP JUMP INVALID LOG2 PUSH5 0x6970667358 0x22 SLT KECCAK256 RETURNDATACOPY 0xB8 0xE2 BALANCE ADDRESS SDIV 0xD6 PUSH31 0xD3B4DCD73E29EE375BBE4554248CD0EDF91906459E72723464736F6C634300 ADDMOD GT STOP CALLER "
				},
				"gasEstimates": {
					"creation": {
						"codeDepositCost": "268200",
						"executionCost": "101643",
						"totalCost": "369843"
					},
					"external": {
						"provideLiquitidy(address,uint256,uint256,uint256,uint256)": "infinite",
						"provideLiquitidy2(uint256,uint256,uint256,address,uint256)": "infinite"
					}
				},
				"methodIdentifiers": {
					"provideLiquitidy(address,uint256,uint256,uint256,uint256)": "0eaaad9e",
					"provideLiquitidy2(uint256,uint256,uint256,address,uint256)": "930bb286"
				}
			},
			"storageLayout": {
				"storage": [
					{
						"astId": 480,
						"contract": "test.sol:liquidityProvider",
						"label": "tokenAddress",
						"offset": 0,
						"slot": "0",
						"type": "t_address"
					},
					{
						"astId": 483,
						"contract": "test.sol:liquidityProvider",
						"label": "uinswapRouterAddress",
						"offset": 0,
						"slot": "1",
						"type": "t_address"
					},
					{
						"astId": 489,
						"contract": "test.sol:liquidityProvider",
						"label": "Token",
						"offset": 0,
						"slot": "2",
						"type": "t_contract(IERC20)77"
					},
					{
						"astId": 495,
						"contract": "test.sol:liquidityProvider",
						"label": "Router",
						"offset": 0,
						"slot": "3",
						"type": "t_contract(IUniswapV2Router02)473"
					}
				],
				"types": {
					"t_address": {
						"encoding": "inplace",
						"label": "address",
						"numberOfBytes": "20"
					},
					"t_contract(IERC20)77": {
						"encoding": "inplace",
						"label": "contract IERC20",
						"numberOfBytes": "20"
					},
					"t_contract(IUniswapV2Router02)473": {
						"encoding": "inplace",
						"label": "contract IUniswapV2Router02",
						"numberOfBytes": "20"
					}
				}
			},
			"userdoc": {
				"kind": "user",
				"methods": {},
				"version": 1
			}
		}
	}
}