{
	"contracts/Hook.sol": {
		"TransactionsAndHook": {
			"abi": [
				{
					"inputs": [
						{
							"internalType": "address",
							"name": "_ERC20",
							"type": "address"
						},
						{
							"internalType": "address",
							"name": "_uniswapPair",
							"type": "address"
						},
						{
							"internalType": "address",
							"name": "_oracle",
							"type": "address"
						},
						{
							"internalType": "address",
							"name": "_crownNFT",
							"type": "address"
						},
						{
							"internalType": "address",
							"name": "_POAP",
							"type": "address"
						}
					],
					"stateMutability": "nonpayable",
					"type": "constructor"
				},
				{
					"anonymous": false,
					"inputs": [
						{
							"indexed": false,
							"internalType": "string",
							"name": "message",
							"type": "string"
						}
					],
					"name": "Log",
					"type": "event"
				},
				{
					"inputs": [],
					"name": "ERC20Address",
					"outputs": [
						{
							"internalType": "address",
							"name": "",
							"type": "address"
						}
					],
					"stateMutability": "view",
					"type": "function"
				},
				{
					"inputs": [],
					"name": "POAPAddress",
					"outputs": [
						{
							"internalType": "address",
							"name": "",
							"type": "address"
						}
					],
					"stateMutability": "view",
					"type": "function"
				},
				{
					"inputs": [],
					"name": "WethAddress",
					"outputs": [
						{
							"internalType": "address",
							"name": "",
							"type": "address"
						}
					],
					"stateMutability": "view",
					"type": "function"
				},
				{
					"inputs": [],
					"name": "buyEth",
					"outputs": [
						{
							"internalType": "uint256",
							"name": "",
							"type": "uint256"
						}
					],
					"stateMutability": "view",
					"type": "function"
				},
				{
					"inputs": [
						{
							"internalType": "uint256",
							"name": "_p",
							"type": "uint256"
						}
					],
					"name": "createTransfer",
					"outputs": [
						{
							"internalType": "bool",
							"name": "",
							"type": "bool"
						}
					],
					"stateMutability": "nonpayable",
					"type": "function"
				},
				{
					"inputs": [],
					"name": "crownNFTAddress",
					"outputs": [
						{
							"internalType": "address",
							"name": "",
							"type": "address"
						}
					],
					"stateMutability": "view",
					"type": "function"
				},
				{
					"inputs": [],
					"name": "getLastEthRecieved",
					"outputs": [
						{
							"internalType": "uint256",
							"name": "",
							"type": "uint256"
						}
					],
					"stateMutability": "view",
					"type": "function"
				},
				{
					"inputs": [],
					"name": "getWethBalance",
					"outputs": [
						{
							"internalType": "uint256",
							"name": "",
							"type": "uint256"
						}
					],
					"stateMutability": "nonpayable",
					"type": "function"
				},
				{
					"inputs": [],
					"name": "liquidityEth",
					"outputs": [
						{
							"internalType": "uint256",
							"name": "",
							"type": "uint256"
						}
					],
					"stateMutability": "view",
					"type": "function"
				},
				{
					"inputs": [],
					"name": "oracleAddress",
					"outputs": [
						{
							"internalType": "address",
							"name": "",
							"type": "address"
						}
					],
					"stateMutability": "view",
					"type": "function"
				},
				{
					"inputs": [
						{
							"internalType": "uint256",
							"name": "",
							"type": "uint256"
						}
					],
					"name": "path",
					"outputs": [
						{
							"internalType": "address",
							"name": "",
							"type": "address"
						}
					],
					"stateMutability": "view",
					"type": "function"
				},
				{
					"inputs": [],
					"name": "percentLiquidity",
					"outputs": [
						{
							"internalType": "uint256",
							"name": "",
							"type": "uint256"
						}
					],
					"stateMutability": "view",
					"type": "function"
				},
				{
					"inputs": [],
					"name": "superBuy",
					"outputs": [],
					"stateMutability": "payable",
					"type": "function"
				},
				{
					"inputs": [],
					"name": "totalRoyalties",
					"outputs": [
						{
							"internalType": "uint256",
							"name": "",
							"type": "uint256"
						}
					],
					"stateMutability": "view",
					"type": "function"
				},
				{
					"inputs": [
						{
							"internalType": "uint256",
							"name": "",
							"type": "uint256"
						}
					],
					"name": "transactionFromPOAPId",
					"outputs": [
						{
							"internalType": "uint256",
							"name": "POAPId",
							"type": "uint256"
						},
						{
							"internalType": "address",
							"name": "purchaser",
							"type": "address"
						},
						{
							"internalType": "uint256",
							"name": "receivedEth",
							"type": "uint256"
						},
						{
							"internalType": "bool",
							"name": "POAPreceived",
							"type": "bool"
						},
						{
							"internalType": "uint256",
							"name": "tokenValueOfPOAP",
							"type": "uint256"
						},
						{
							"internalType": "bool",
							"name": "POAPburned",
							"type": "bool"
						}
					],
					"stateMutability": "view",
					"type": "function"
				},
				{
					"inputs": [],
					"name": "uniswapPairAddress",
					"outputs": [
						{
							"internalType": "address",
							"name": "",
							"type": "address"
						}
					],
					"stateMutability": "view",
					"type": "function"
				},
				{
					"inputs": [],
					"name": "uniswapRouterAddress",
					"outputs": [
						{
							"internalType": "address",
							"name": "",
							"type": "address"
						}
					],
					"stateMutability": "view",
					"type": "function"
				},
				{
					"inputs": [
						{
							"internalType": "address",
							"name": "_address",
							"type": "address"
						}
					],
					"name": "updateERC20Address",
					"outputs": [],
					"stateMutability": "nonpayable",
					"type": "function"
				},
				{
					"inputs": [
						{
							"internalType": "address",
							"name": "_ERC20Address",
							"type": "address"
						}
					],
					"name": "withdraw",
					"outputs": [],
					"stateMutability": "nonpayable",
					"type": "function"
				},
				{
					"stateMutability": "payable",
					"type": "receive"
				}
			],
			"devdoc": {
				"kind": "dev",
				"methods": {},
				"version": 1
			},
			"evm": {
				"assembly": "    /* \"contracts/Hook.sol\":1217:8609  contract TransactionsAndHook {... */\n  mstore(0x40, 0x80)\n    /* \"contracts/Hook.sol\":1892:1934  0xB4FBF271143F4FBf7B91A5ded31805e42b2208d6 */\n  0xb4fbf271143f4fbf7b91a5ded31805e42b2208d6\n    /* \"contracts/Hook.sol\":1863:1934  address public WethAddress = 0xB4FBF271143F4FBf7B91A5ded31805e42b2208d6 */\n  0x00\n  dup1\n  0x0100\n  exp\n  dup2\n  sload\n  dup2\n  0xffffffffffffffffffffffffffffffffffffffff\n  mul\n  not\n  and\n  swap1\n  dup4\n  0xffffffffffffffffffffffffffffffffffffffff\n  and\n  mul\n  or\n  swap1\n  sstore\n  pop\n    /* \"contracts/Hook.sol\":2152:2194  0x7a250d5630B4cF539739dF2C5dAcb4c659F2488D */\n  0x7a250d5630b4cf539739df2c5dacb4c659f2488d\n    /* \"contracts/Hook.sol\":2114:2194  address public uniswapRouterAddress = 0x7a250d5630B4cF539739dF2C5dAcb4c659F2488D */\n  0x06\n  exp(0x0100, 0x00)\n  dup2\n  sload\n  dup2\n  0xffffffffffffffffffffffffffffffffffffffff\n  mul\n  not\n  and\n  swap1\n  dup4\n  0xffffffffffffffffffffffffffffffffffffffff\n  and\n  mul\n  or\n  swap1\n  sstore\n  pop\n    /* \"contracts/Hook.sol\":2200:2250  address[] public path = [WethAddress,ERC20Address] */\n  mload(0x40)\n  dup1\n  0x40\n  add\n  0x40\n  mstore\n  dup1\n    /* \"contracts/Hook.sol\":2225:2236  WethAddress */\n  0x00\n  dup1\n  sload\n  swap1\n  0x0100\n  exp\n  swap1\n  div\n  0xffffffffffffffffffffffffffffffffffffffff\n  and\n    /* \"contracts/Hook.sol\":2200:2250  address[] public path = [WethAddress,ERC20Address] */\n  0xffffffffffffffffffffffffffffffffffffffff\n  and\n  0xffffffffffffffffffffffffffffffffffffffff\n  and\n  dup2\n  mstore\n  0x20\n  add\n    /* \"contracts/Hook.sol\":2237:2249  ERC20Address */\n  0x01\n  0x00\n  swap1\n  sload\n  swap1\n  0x0100\n  exp\n  swap1\n  div\n  0xffffffffffffffffffffffffffffffffffffffff\n  and\n    /* \"contracts/Hook.sol\":2200:2250  address[] public path = [WethAddress,ERC20Address] */\n  0xffffffffffffffffffffffffffffffffffffffff\n  and\n  0xffffffffffffffffffffffffffffffffffffffff\n  and\n  dup2\n  mstore\n  pop\n  0x07\n  swap1\n  0x02\n  tag_1\n  swap3\n  swap2\n  swap1\n  tag_2\n  jump\t// in\ntag_1:\n  pop\n    /* \"contracts/Hook.sol\":2275:2286  POAPAddress */\n  0x05\n  0x00\n  swap1\n  sload\n  swap1\n  0x0100\n  exp\n  swap1\n  div\n  0xffffffffffffffffffffffffffffffffffffffff\n  and\n    /* \"contracts/Hook.sol\":2256:2287  iPOAP POAP = iPOAP(POAPAddress) */\n  0x08\n  exp(0x0100, 0x00)\n  dup2\n  sload\n  dup2\n  0xffffffffffffffffffffffffffffffffffffffff\n  mul\n  not\n  and\n  swap1\n  dup4\n  0xffffffffffffffffffffffffffffffffffffffff\n  and\n  mul\n  or\n  swap1\n  sstore\n  pop\n    /* \"contracts/Hook.sol\":2318:2329  WethAddress */\n  0x00\n  dup1\n  sload\n  swap1\n  0x0100\n  exp\n  swap1\n  div\n  0xffffffffffffffffffffffffffffffffffffffff\n  and\n    /* \"contracts/Hook.sol\":2293:2330  WethLike WETH = WethLike(WethAddress) */\n  0x09\n  exp(0x0100, 0x00)\n  dup2\n  sload\n  dup2\n  0xffffffffffffffffffffffffffffffffffffffff\n  mul\n  not\n  and\n  swap1\n  dup4\n  0xffffffffffffffffffffffffffffffffffffffff\n  and\n  mul\n  or\n  swap1\n  sstore\n  pop\n    /* \"contracts/Hook.sol\":2361:2374  oracleAddress */\n  0x03\n  0x00\n  swap1\n  sload\n  swap1\n  0x0100\n  exp\n  swap1\n  div\n  0xffffffffffffffffffffffffffffffffffffffff\n  and\n    /* \"contracts/Hook.sol\":2336:2375  iOracle Oracle = iOracle(oracleAddress) */\n  0x0a\n  exp(0x0100, 0x00)\n  dup2\n  sload\n  dup2\n  0xffffffffffffffffffffffffffffffffffffffff\n  mul\n  not\n  and\n  swap1\n  dup4\n  0xffffffffffffffffffffffffffffffffffffffff\n  and\n  mul\n  or\n  swap1\n  sstore\n  pop\n    /* \"contracts/Hook.sol\":2435:2455  uniswapRouterAddress */\n  0x06\n  0x00\n  swap1\n  sload\n  swap1\n  0x0100\n  exp\n  swap1\n  div\n  0xffffffffffffffffffffffffffffffffffffffff\n  and\n    /* \"contracts/Hook.sol\":2381:2456  IUniswapV2Router02 UniswapRouter = IUniswapV2Router02(uniswapRouterAddress) */\n  0x0b\n  exp(0x0100, 0x00)\n  dup2\n  sload\n  dup2\n  0xffffffffffffffffffffffffffffffffffffffff\n  mul\n  not\n  and\n  swap1\n  dup4\n  0xffffffffffffffffffffffffffffffffffffffff\n  and\n  mul\n  or\n  swap1\n  sstore\n  pop\n    /* \"contracts/Hook.sol\":1252:1796  constructor(address _ERC20,address _uniswapPair,address _oracle,address _crownNFT,address _POAP){... */\n  callvalue\n  dup1\n  iszero\n  tag_3\n  jumpi\n  0x00\n  dup1\n  revert\ntag_3:\n  pop\n  mload(0x40)\n  sub(codesize, bytecodeSize)\n  dup1\n  bytecodeSize\n  dup4\n  codecopy\n  dup2\n  dup2\n  add\n  0x40\n  mstore\n  dup2\n  add\n  swap1\n  tag_4\n  swap2\n  swap1\n  tag_5\n  jump\t// in\ntag_4:\n    /* \"contracts/Hook.sol\":1446:1452  _ERC20 */\n  dup5\n    /* \"contracts/Hook.sol\":1431:1443  ERC20Address */\n  0x01\n  0x00\n    /* \"contracts/Hook.sol\":1431:1452  ERC20Address = _ERC20 */\n  0x0100\n  exp\n  dup2\n  sload\n  dup2\n  0xffffffffffffffffffffffffffffffffffffffff\n  mul\n  not\n  and\n  swap1\n  dup4\n  0xffffffffffffffffffffffffffffffffffffffff\n  and\n  mul\n  or\n  swap1\n  sstore\n  pop\n    /* \"contracts/Hook.sol\":1483:1495  _uniswapPair */\n  dup4\n    /* \"contracts/Hook.sol\":1462:1480  uniswapPairAddress */\n  0x02\n  0x00\n    /* \"contracts/Hook.sol\":1462:1495  uniswapPairAddress = _uniswapPair */\n  0x0100\n  exp\n  dup2\n  sload\n  dup2\n  0xffffffffffffffffffffffffffffffffffffffff\n  mul\n  not\n  and\n  swap1\n  dup4\n  0xffffffffffffffffffffffffffffffffffffffff\n  and\n  mul\n  or\n  swap1\n  sstore\n  pop\n    /* \"contracts/Hook.sol\":1521:1528  _oracle */\n  dup3\n    /* \"contracts/Hook.sol\":1505:1518  oracleAddress */\n  0x03\n  0x00\n    /* \"contracts/Hook.sol\":1505:1528  oracleAddress = _oracle */\n  0x0100\n  exp\n  dup2\n  sload\n  dup2\n  0xffffffffffffffffffffffffffffffffffffffff\n  mul\n  not\n  and\n  swap1\n  dup4\n  0xffffffffffffffffffffffffffffffffffffffff\n  and\n  mul\n  or\n  swap1\n  sstore\n  pop\n    /* \"contracts/Hook.sol\":1555:1568  oracleAddress */\n  0x03\n  0x00\n  swap1\n  sload\n  swap1\n  0x0100\n  exp\n  swap1\n  div\n  0xffffffffffffffffffffffffffffffffffffffff\n  and\n    /* \"contracts/Hook.sol\":1538:1544  Oracle */\n  0x0a\n  0x00\n    /* \"contracts/Hook.sol\":1538:1569  Oracle = iOracle(oracleAddress) */\n  0x0100\n  exp\n  dup2\n  sload\n  dup2\n  0xffffffffffffffffffffffffffffffffffffffff\n  mul\n  not\n  and\n  swap1\n  dup4\n  0xffffffffffffffffffffffffffffffffffffffff\n  and\n  mul\n  or\n  swap1\n  sstore\n  pop\n    /* \"contracts/Hook.sol\":1597:1606  _crownNFT */\n  dup2\n    /* \"contracts/Hook.sol\":1579:1594  crownNFTAddress */\n  0x04\n  0x00\n    /* \"contracts/Hook.sol\":1579:1606  crownNFTAddress = _crownNFT */\n  0x0100\n  exp\n  dup2\n  sload\n  dup2\n  0xffffffffffffffffffffffffffffffffffffffff\n  mul\n  not\n  and\n  swap1\n  dup4\n  0xffffffffffffffffffffffffffffffffffffffff\n  and\n  mul\n  or\n  swap1\n  sstore\n  pop\n    /* \"contracts/Hook.sol\":1630:1635  _POAP */\n  dup1\n    /* \"contracts/Hook.sol\":1616:1627  POAPAddress */\n  0x05\n  0x00\n    /* \"contracts/Hook.sol\":1616:1635  POAPAddress = _POAP */\n  0x0100\n  exp\n  dup2\n  sload\n  dup2\n  0xffffffffffffffffffffffffffffffffffffffff\n  mul\n  not\n  and\n  swap1\n  dup4\n  0xffffffffffffffffffffffffffffffffffffffff\n  and\n  mul\n  or\n  swap1\n  sstore\n  pop\n    /* \"contracts/Hook.sol\":1658:1669  POAPAddress */\n  0x05\n  0x00\n  swap1\n  sload\n  swap1\n  0x0100\n  exp\n  swap1\n  div\n  0xffffffffffffffffffffffffffffffffffffffff\n  and\n    /* \"contracts/Hook.sol\":1645:1649  POAP */\n  0x08\n  0x00\n    /* \"contracts/Hook.sol\":1645:1670  POAP = iPOAP(POAPAddress) */\n  0x0100\n  exp\n  dup2\n  sload\n  dup2\n  0xffffffffffffffffffffffffffffffffffffffff\n  mul\n  not\n  and\n  swap1\n  dup4\n  0xffffffffffffffffffffffffffffffffffffffff\n  and\n  mul\n  or\n  swap1\n  sstore\n  pop\n    /* \"contracts/Hook.sol\":1252:1796  constructor(address _ERC20,address _uniswapPair,address _oracle,address _crownNFT,address _POAP){... */\n  pop\n  pop\n  pop\n  pop\n  pop\n    /* \"contracts/Hook.sol\":1217:8609  contract TransactionsAndHook {... */\n  jump(tag_8)\ntag_2:\n  dup3\n  dup1\n  sload\n  dup3\n  dup3\n  sstore\n  swap1\n  0x00\n  mstore\n  keccak256(0x00, 0x20)\n  swap1\n  dup2\n  add\n  swap3\n  dup3\n  iszero\n  tag_9\n  jumpi\n  swap2\n  0x20\n  mul\n  dup3\n  add\ntag_10:\n  dup3\n  dup2\n  gt\n  iszero\n  tag_11\n  jumpi\n  dup3\n  mload\n  dup3\n  exp(0x0100, 0x00)\n  dup2\n  sload\n  dup2\n  0xffffffffffffffffffffffffffffffffffffffff\n  mul\n  not\n  and\n  swap1\n  dup4\n  0xffffffffffffffffffffffffffffffffffffffff\n  and\n  mul\n  or\n  swap1\n  sstore\n  pop\n  swap2\n  0x20\n  add\n  swap2\n  swap1\n  0x01\n  add\n  swap1\n  jump(tag_10)\ntag_11:\ntag_9:\n  pop\n  swap1\n  pop\n  tag_12\n  swap2\n  swap1\n  tag_13\n  jump\t// in\ntag_12:\n  pop\n  swap1\n  jump\t// out\ntag_13:\ntag_14:\n  dup1\n  dup3\n  gt\n  iszero\n  tag_15\n  jumpi\n  0x00\n  dup2\n  0x00\n  swap1\n  sstore\n  pop\n  0x01\n  add\n  jump(tag_14)\ntag_15:\n  pop\n  swap1\n  jump\t// out\n    /* \"#utility.yul\":88:205   */\ntag_17:\n    /* \"#utility.yul\":197:198   */\n  0x00\n    /* \"#utility.yul\":194:195   */\n  dup1\n    /* \"#utility.yul\":187:199   */\n  revert\n    /* \"#utility.yul\":334:460   */\ntag_19:\n    /* \"#utility.yul\":371:378   */\n  0x00\n    /* \"#utility.yul\":411:453   */\n  0xffffffffffffffffffffffffffffffffffffffff\n    /* \"#utility.yul\":404:409   */\n  dup3\n    /* \"#utility.yul\":400:454   */\n  and\n    /* \"#utility.yul\":389:454   */\n  swap1\n  pop\n    /* \"#utility.yul\":334:460   */\n  swap2\n  swap1\n  pop\n  jump\t// out\n    /* \"#utility.yul\":466:562   */\ntag_20:\n    /* \"#utility.yul\":503:510   */\n  0x00\n    /* \"#utility.yul\":532:556   */\n  tag_29\n    /* \"#utility.yul\":550:555   */\n  dup3\n    /* \"#utility.yul\":532:556   */\n  tag_19\n  jump\t// in\ntag_29:\n    /* \"#utility.yul\":521:556   */\n  swap1\n  pop\n    /* \"#utility.yul\":466:562   */\n  swap2\n  swap1\n  pop\n  jump\t// out\n    /* \"#utility.yul\":568:690   */\ntag_21:\n    /* \"#utility.yul\":641:665   */\n  tag_31\n    /* \"#utility.yul\":659:664   */\n  dup2\n    /* \"#utility.yul\":641:665   */\n  tag_20\n  jump\t// in\ntag_31:\n    /* \"#utility.yul\":634:639   */\n  dup2\n    /* \"#utility.yul\":631:666   */\n  eq\n    /* \"#utility.yul\":621:684   */\n  tag_32\n  jumpi\n    /* \"#utility.yul\":680:681   */\n  0x00\n    /* \"#utility.yul\":677:678   */\n  dup1\n    /* \"#utility.yul\":670:682   */\n  revert\n    /* \"#utility.yul\":621:684   */\ntag_32:\n    /* \"#utility.yul\":568:690   */\n  pop\n  jump\t// out\n    /* \"#utility.yul\":696:839   */\ntag_22:\n    /* \"#utility.yul\":753:758   */\n  0x00\n    /* \"#utility.yul\":784:790   */\n  dup2\n    /* \"#utility.yul\":778:791   */\n  mload\n    /* \"#utility.yul\":769:791   */\n  swap1\n  pop\n    /* \"#utility.yul\":800:833   */\n  tag_34\n    /* \"#utility.yul\":827:832   */\n  dup2\n    /* \"#utility.yul\":800:833   */\n  tag_21\n  jump\t// in\ntag_34:\n    /* \"#utility.yul\":696:839   */\n  swap3\n  swap2\n  pop\n  pop\n  jump\t// out\n    /* \"#utility.yul\":845:1822   */\ntag_5:\n    /* \"#utility.yul\":951:957   */\n  0x00\n    /* \"#utility.yul\":959:965   */\n  dup1\n    /* \"#utility.yul\":967:973   */\n  0x00\n    /* \"#utility.yul\":975:981   */\n  dup1\n    /* \"#utility.yul\":983:989   */\n  0x00\n    /* \"#utility.yul\":1032:1035   */\n  0xa0\n    /* \"#utility.yul\":1020:1029   */\n  dup7\n    /* \"#utility.yul\":1011:1018   */\n  dup9\n    /* \"#utility.yul\":1007:1030   */\n  sub\n    /* \"#utility.yul\":1003:1036   */\n  slt\n    /* \"#utility.yul\":1000:1120   */\n  iszero\n  tag_36\n  jumpi\n    /* \"#utility.yul\":1039:1118   */\n  tag_37\n  tag_17\n  jump\t// in\ntag_37:\n    /* \"#utility.yul\":1000:1120   */\ntag_36:\n    /* \"#utility.yul\":1159:1160   */\n  0x00\n    /* \"#utility.yul\":1184:1248   */\n  tag_38\n    /* \"#utility.yul\":1240:1247   */\n  dup9\n    /* \"#utility.yul\":1231:1237   */\n  dup3\n    /* \"#utility.yul\":1220:1229   */\n  dup10\n    /* \"#utility.yul\":1216:1238   */\n  add\n    /* \"#utility.yul\":1184:1248   */\n  tag_22\n  jump\t// in\ntag_38:\n    /* \"#utility.yul\":1174:1248   */\n  swap6\n  pop\n    /* \"#utility.yul\":1130:1258   */\n  pop\n    /* \"#utility.yul\":1297:1299   */\n  0x20\n    /* \"#utility.yul\":1323:1387   */\n  tag_39\n    /* \"#utility.yul\":1379:1386   */\n  dup9\n    /* \"#utility.yul\":1370:1376   */\n  dup3\n    /* \"#utility.yul\":1359:1368   */\n  dup10\n    /* \"#utility.yul\":1355:1377   */\n  add\n    /* \"#utility.yul\":1323:1387   */\n  tag_22\n  jump\t// in\ntag_39:\n    /* \"#utility.yul\":1313:1387   */\n  swap5\n  pop\n    /* \"#utility.yul\":1268:1397   */\n  pop\n    /* \"#utility.yul\":1436:1438   */\n  0x40\n    /* \"#utility.yul\":1462:1526   */\n  tag_40\n    /* \"#utility.yul\":1518:1525   */\n  dup9\n    /* \"#utility.yul\":1509:1515   */\n  dup3\n    /* \"#utility.yul\":1498:1507   */\n  dup10\n    /* \"#utility.yul\":1494:1516   */\n  add\n    /* \"#utility.yul\":1462:1526   */\n  tag_22\n  jump\t// in\ntag_40:\n    /* \"#utility.yul\":1452:1526   */\n  swap4\n  pop\n    /* \"#utility.yul\":1407:1536   */\n  pop\n    /* \"#utility.yul\":1575:1577   */\n  0x60\n    /* \"#utility.yul\":1601:1665   */\n  tag_41\n    /* \"#utility.yul\":1657:1664   */\n  dup9\n    /* \"#utility.yul\":1648:1654   */\n  dup3\n    /* \"#utility.yul\":1637:1646   */\n  dup10\n    /* \"#utility.yul\":1633:1655   */\n  add\n    /* \"#utility.yul\":1601:1665   */\n  tag_22\n  jump\t// in\ntag_41:\n    /* \"#utility.yul\":1591:1665   */\n  swap3\n  pop\n    /* \"#utility.yul\":1546:1675   */\n  pop\n    /* \"#utility.yul\":1714:1717   */\n  0x80\n    /* \"#utility.yul\":1741:1805   */\n  tag_42\n    /* \"#utility.yul\":1797:1804   */\n  dup9\n    /* \"#utility.yul\":1788:1794   */\n  dup3\n    /* \"#utility.yul\":1777:1786   */\n  dup10\n    /* \"#utility.yul\":1773:1795   */\n  add\n    /* \"#utility.yul\":1741:1805   */\n  tag_22\n  jump\t// in\ntag_42:\n    /* \"#utility.yul\":1731:1805   */\n  swap2\n  pop\n    /* \"#utility.yul\":1685:1815   */\n  pop\n    /* \"#utility.yul\":845:1822   */\n  swap3\n  swap6\n  pop\n  swap3\n  swap6\n  swap1\n  swap4\n  pop\n  jump\t// out\n    /* \"contracts/Hook.sol\":1217:8609  contract TransactionsAndHook {... */\ntag_8:\n  dataSize(sub_0)\n  dup1\n  dataOffset(sub_0)\n  0x00\n  codecopy\n  0x00\n  return\nstop\n\nsub_0: assembly {\n        /* \"contracts/Hook.sol\":1217:8609  contract TransactionsAndHook {... */\n      mstore(0x40, 0x80)\n      jumpi(tag_1, lt(calldatasize, 0x04))\n      shr(0xe0, calldataload(0x00))\n      dup1\n      0x9dd58b58\n      gt\n      tag_22\n      jumpi\n      dup1\n      0xaef75107\n      gt\n      tag_23\n      jumpi\n      dup1\n      0xaef75107\n      eq\n      tag_17\n      jumpi\n      dup1\n      0xaf6d1fe4\n      eq\n      tag_18\n      jumpi\n      dup1\n      0xbd3733fe\n      eq\n      tag_19\n      jumpi\n      dup1\n      0xbfd9ea5b\n      eq\n      tag_20\n      jumpi\n      dup1\n      0xc1f2e5f1\n      eq\n      tag_21\n      jumpi\n      jump(tag_2)\n    tag_23:\n      dup1\n      0x9dd58b58\n      eq\n      tag_12\n      jumpi\n      dup1\n      0xa09ede07\n      eq\n      tag_13\n      jumpi\n      dup1\n      0xa6021ace\n      eq\n      tag_14\n      jumpi\n      dup1\n      0xa785a3d8\n      eq\n      tag_15\n      jumpi\n      dup1\n      0xa89ae4ba\n      eq\n      tag_16\n      jumpi\n      jump(tag_2)\n    tag_22:\n      dup1\n      0x51cff8d9\n      gt\n      tag_24\n      jumpi\n      dup1\n      0x51cff8d9\n      eq\n      tag_7\n      jumpi\n      dup1\n      0x76537438\n      eq\n      tag_8\n      jumpi\n      dup1\n      0x777b506f\n      eq\n      tag_9\n      jumpi\n      dup1\n      0x86d02608\n      eq\n      tag_10\n      jumpi\n      dup1\n      0x966824a3\n      eq\n      tag_11\n      jumpi\n      jump(tag_2)\n    tag_24:\n      dup1\n      0x1b017fde\n      eq\n      tag_3\n      jumpi\n      dup1\n      0x20ca3c7f\n      eq\n      tag_4\n      jumpi\n      dup1\n      0x2c4c3c1b\n      eq\n      tag_5\n      jumpi\n      dup1\n      0x4cfd1ba5\n      eq\n      tag_6\n      jumpi\n      jump(tag_2)\n    tag_1:\n      jumpi(tag_2, calldatasize)\n      stop\n    tag_2:\n      0x00\n      dup1\n      revert\n        /* \"contracts/Hook.sol\":2588:2680  function updateERC20Address(address _address) public{... */\n    tag_3:\n      callvalue\n      dup1\n      iszero\n      tag_27\n      jumpi\n      0x00\n      dup1\n      revert\n    tag_27:\n      pop\n      tag_28\n      0x04\n      dup1\n      calldatasize\n      sub\n      dup2\n      add\n      swap1\n      tag_29\n      swap2\n      swap1\n      tag_30\n      jump\t// in\n    tag_29:\n      tag_31\n      jump\t// in\n    tag_28:\n      stop\n        /* \"contracts/Hook.sol\":2114:2194  address public uniswapRouterAddress = 0x7a250d5630B4cF539739dF2C5dAcb4c659F2488D */\n    tag_4:\n      callvalue\n      dup1\n      iszero\n      tag_32\n      jumpi\n      0x00\n      dup1\n      revert\n    tag_32:\n      pop\n      tag_33\n      tag_34\n      jump\t// in\n    tag_33:\n      mload(0x40)\n      tag_35\n      swap2\n      swap1\n      tag_36\n      jump\t// in\n    tag_35:\n      mload(0x40)\n      dup1\n      swap2\n      sub\n      swap1\n      return\n        /* \"contracts/Hook.sol\":2462:2520  mapping (uint => Transaction) public transactionFromPOAPId */\n    tag_5:\n      callvalue\n      dup1\n      iszero\n      tag_37\n      jumpi\n      0x00\n      dup1\n      revert\n    tag_37:\n      pop\n      tag_38\n      0x04\n      dup1\n      calldatasize\n      sub\n      dup2\n      add\n      swap1\n      tag_39\n      swap2\n      swap1\n      tag_40\n      jump\t// in\n    tag_39:\n      tag_41\n      jump\t// in\n    tag_38:\n      mload(0x40)\n      tag_42\n      swap7\n      swap6\n      swap5\n      swap4\n      swap3\n      swap2\n      swap1\n      tag_43\n      jump\t// in\n    tag_42:\n      mload(0x40)\n      dup1\n      swap2\n      sub\n      swap1\n      return\n        /* \"contracts/Hook.sol\":5811:5829  uint public buyEth */\n    tag_6:\n      callvalue\n      dup1\n      iszero\n      tag_44\n      jumpi\n      0x00\n      dup1\n      revert\n    tag_44:\n      pop\n      tag_45\n      tag_46\n      jump\t// in\n    tag_45:\n      mload(0x40)\n      tag_47\n      swap2\n      swap1\n      tag_48\n      jump\t// in\n    tag_47:\n      mload(0x40)\n      dup1\n      swap2\n      sub\n      swap1\n      return\n        /* \"contracts/Hook.sol\":3185:3387  function withdraw(address _ERC20Address) public {... */\n    tag_7:\n      callvalue\n      dup1\n      iszero\n      tag_49\n      jumpi\n      0x00\n      dup1\n      revert\n    tag_49:\n      pop\n      tag_50\n      0x04\n      dup1\n      calldatasize\n      sub\n      dup2\n      add\n      swap1\n      tag_51\n      swap2\n      swap1\n      tag_30\n      jump\t// in\n    tag_51:\n      tag_52\n      jump\t// in\n    tag_50:\n      stop\n        /* \"contracts/Hook.sol\":3637:4114  function createTransfer(uint _p) public returns (bool){... */\n    tag_8:\n      callvalue\n      dup1\n      iszero\n      tag_53\n      jumpi\n      0x00\n      dup1\n      revert\n    tag_53:\n      pop\n      tag_54\n      0x04\n      dup1\n      calldatasize\n      sub\n      dup2\n      add\n      swap1\n      tag_55\n      swap2\n      swap1\n      tag_40\n      jump\t// in\n    tag_55:\n      tag_56\n      jump\t// in\n    tag_54:\n      mload(0x40)\n      tag_57\n      swap2\n      swap1\n      tag_58\n      jump\t// in\n    tag_57:\n      mload(0x40)\n      dup1\n      swap2\n      sub\n      swap1\n      return\n        /* \"contracts/Hook.sol\":2046:2076  address public crownNFTAddress */\n    tag_9:\n      callvalue\n      dup1\n      iszero\n      tag_59\n      jumpi\n      0x00\n      dup1\n      revert\n    tag_59:\n      pop\n      tag_60\n      tag_61\n      jump\t// in\n    tag_60:\n      mload(0x40)\n      tag_62\n      swap2\n      swap1\n      tag_36\n      jump\t// in\n    tag_62:\n      mload(0x40)\n      dup1\n      swap2\n      sub\n      swap1\n      return\n        /* \"contracts/Hook.sol\":2546:2572  uint public totalRoyalties */\n    tag_10:\n      callvalue\n      dup1\n      iszero\n      tag_63\n      jumpi\n      0x00\n      dup1\n      revert\n    tag_63:\n      pop\n      tag_64\n      tag_65\n      jump\t// in\n    tag_64:\n      mload(0x40)\n      tag_66\n      swap2\n      swap1\n      tag_48\n      jump\t// in\n    tag_66:\n      mload(0x40)\n      dup1\n      swap2\n      sub\n      swap1\n      return\n        /* \"contracts/Hook.sol\":8464:8562  function superBuy() public payable{... */\n    tag_11:\n      tag_67\n      tag_68\n      jump\t// in\n    tag_67:\n      stop\n        /* \"contracts/Hook.sol\":3393:3493  function getWethBalance() public returns (uint){... */\n    tag_12:\n      callvalue\n      dup1\n      iszero\n      tag_69\n      jumpi\n      0x00\n      dup1\n      revert\n    tag_69:\n      pop\n      tag_70\n      tag_71\n      jump\t// in\n    tag_70:\n      mload(0x40)\n      tag_72\n      swap2\n      swap1\n      tag_48\n      jump\t// in\n    tag_72:\n      mload(0x40)\n      dup1\n      swap2\n      sub\n      swap1\n      return\n        /* \"contracts/Hook.sol\":5835:5859  uint public liquidityEth */\n    tag_13:\n      callvalue\n      dup1\n      iszero\n      tag_73\n      jumpi\n      0x00\n      dup1\n      revert\n    tag_73:\n      pop\n      tag_74\n      tag_75\n      jump\t// in\n    tag_74:\n      mload(0x40)\n      tag_76\n      swap2\n      swap1\n      tag_48\n      jump\t// in\n    tag_76:\n      mload(0x40)\n      dup1\n      swap2\n      sub\n      swap1\n      return\n        /* \"contracts/Hook.sol\":1940:1967  address public ERC20Address */\n    tag_14:\n      callvalue\n      dup1\n      iszero\n      tag_77\n      jumpi\n      0x00\n      dup1\n      revert\n    tag_77:\n      pop\n      tag_78\n      tag_79\n      jump\t// in\n    tag_78:\n      mload(0x40)\n      tag_80\n      swap2\n      swap1\n      tag_36\n      jump\t// in\n    tag_80:\n      mload(0x40)\n      dup1\n      swap2\n      sub\n      swap1\n      return\n        /* \"contracts/Hook.sol\":1863:1934  address public WethAddress = 0xB4FBF271143F4FBf7B91A5ded31805e42b2208d6 */\n    tag_15:\n      callvalue\n      dup1\n      iszero\n      tag_81\n      jumpi\n      0x00\n      dup1\n      revert\n    tag_81:\n      pop\n      tag_82\n      tag_83\n      jump\t// in\n    tag_82:\n      mload(0x40)\n      tag_84\n      swap2\n      swap1\n      tag_36\n      jump\t// in\n    tag_84:\n      mload(0x40)\n      dup1\n      swap2\n      sub\n      swap1\n      return\n        /* \"contracts/Hook.sol\":2012:2040  address public oracleAddress */\n    tag_16:\n      callvalue\n      dup1\n      iszero\n      tag_85\n      jumpi\n      0x00\n      dup1\n      revert\n    tag_85:\n      pop\n      tag_86\n      tag_87\n      jump\t// in\n    tag_86:\n      mload(0x40)\n      tag_88\n      swap2\n      swap1\n      tag_36\n      jump\t// in\n    tag_88:\n      mload(0x40)\n      dup1\n      swap2\n      sub\n      swap1\n      return\n        /* \"contracts/Hook.sol\":2082:2108  address public POAPAddress */\n    tag_17:\n      callvalue\n      dup1\n      iszero\n      tag_89\n      jumpi\n      0x00\n      dup1\n      revert\n    tag_89:\n      pop\n      tag_90\n      tag_91\n      jump\t// in\n    tag_90:\n      mload(0x40)\n      tag_92\n      swap2\n      swap1\n      tag_36\n      jump\t// in\n    tag_92:\n      mload(0x40)\n      dup1\n      swap2\n      sub\n      swap1\n      return\n        /* \"contracts/Hook.sol\":2200:2250  address[] public path = [WethAddress,ERC20Address] */\n    tag_18:\n      callvalue\n      dup1\n      iszero\n      tag_93\n      jumpi\n      0x00\n      dup1\n      revert\n    tag_93:\n      pop\n      tag_94\n      0x04\n      dup1\n      calldatasize\n      sub\n      dup2\n      add\n      swap1\n      tag_95\n      swap2\n      swap1\n      tag_40\n      jump\t// in\n    tag_95:\n      tag_96\n      jump\t// in\n    tag_94:\n      mload(0x40)\n      tag_97\n      swap2\n      swap1\n      tag_36\n      jump\t// in\n    tag_97:\n      mload(0x40)\n      dup1\n      swap2\n      sub\n      swap1\n      return\n        /* \"contracts/Hook.sol\":1973:2006  address public uniswapPairAddress */\n    tag_19:\n      callvalue\n      dup1\n      iszero\n      tag_98\n      jumpi\n      0x00\n      dup1\n      revert\n    tag_98:\n      pop\n      tag_99\n      tag_100\n      jump\t// in\n    tag_99:\n      mload(0x40)\n      tag_101\n      swap2\n      swap1\n      tag_36\n      jump\t// in\n    tag_101:\n      mload(0x40)\n      dup1\n      swap2\n      sub\n      swap1\n      return\n        /* \"contracts/Hook.sol\":3500:3629  function getLastEthRecieved() public view returns (uint){... */\n    tag_20:\n      callvalue\n      dup1\n      iszero\n      tag_102\n      jumpi\n      0x00\n      dup1\n      revert\n    tag_102:\n      pop\n      tag_103\n      tag_104\n      jump\t// in\n    tag_103:\n      mload(0x40)\n      tag_105\n      swap2\n      swap1\n      tag_48\n      jump\t// in\n    tag_105:\n      mload(0x40)\n      dup1\n      swap2\n      sub\n      swap1\n      return\n        /* \"contracts/Hook.sol\":4120:4503  function percentLiquidity() public view returns (uint){... */\n    tag_21:\n      callvalue\n      dup1\n      iszero\n      tag_106\n      jumpi\n      0x00\n      dup1\n      revert\n    tag_106:\n      pop\n      tag_107\n      tag_108\n      jump\t// in\n    tag_107:\n      mload(0x40)\n      tag_109\n      swap2\n      swap1\n      tag_48\n      jump\t// in\n    tag_109:\n      mload(0x40)\n      dup1\n      swap2\n      sub\n      swap1\n      return\n        /* \"contracts/Hook.sol\":2588:2680  function updateERC20Address(address _address) public{... */\n    tag_31:\n        /* \"contracts/Hook.sol\":2665:2673  _address */\n      dup1\n        /* \"contracts/Hook.sol\":2650:2662  ERC20Address */\n      0x01\n      0x00\n        /* \"contracts/Hook.sol\":2650:2673  ERC20Address = _address */\n      0x0100\n      exp\n      dup2\n      sload\n      dup2\n      0xffffffffffffffffffffffffffffffffffffffff\n      mul\n      not\n      and\n      swap1\n      dup4\n      0xffffffffffffffffffffffffffffffffffffffff\n      and\n      mul\n      or\n      swap1\n      sstore\n      pop\n        /* \"contracts/Hook.sol\":2588:2680  function updateERC20Address(address _address) public{... */\n      pop\n      jump\t// out\n        /* \"contracts/Hook.sol\":2114:2194  address public uniswapRouterAddress = 0x7a250d5630B4cF539739dF2C5dAcb4c659F2488D */\n    tag_34:\n      0x06\n      0x00\n      swap1\n      sload\n      swap1\n      0x0100\n      exp\n      swap1\n      div\n      0xffffffffffffffffffffffffffffffffffffffff\n      and\n      dup2\n      jump\t// out\n        /* \"contracts/Hook.sol\":2462:2520  mapping (uint => Transaction) public transactionFromPOAPId */\n    tag_41:\n      mstore(0x20, 0x0c)\n      dup1\n      0x00\n      mstore\n      keccak256(0x00, 0x40)\n      0x00\n      swap2\n      pop\n      swap1\n      pop\n      dup1\n      0x00\n      add\n      sload\n      swap1\n      dup1\n      0x01\n      add\n      0x00\n      swap1\n      sload\n      swap1\n      0x0100\n      exp\n      swap1\n      div\n      0xffffffffffffffffffffffffffffffffffffffff\n      and\n      swap1\n      dup1\n      0x02\n      add\n      sload\n      swap1\n      dup1\n      0x03\n      add\n      0x00\n      swap1\n      sload\n      swap1\n      0x0100\n      exp\n      swap1\n      div\n      0xff\n      and\n      swap1\n      dup1\n      0x04\n      add\n      sload\n      swap1\n      dup1\n      0x05\n      add\n      0x00\n      swap1\n      sload\n      swap1\n      0x0100\n      exp\n      swap1\n      div\n      0xff\n      and\n      swap1\n      pop\n      dup7\n      jump\t// out\n        /* \"contracts/Hook.sol\":5811:5829  uint public buyEth */\n    tag_46:\n      sload(0x0f)\n      dup2\n      jump\t// out\n        /* \"contracts/Hook.sol\":3185:3387  function withdraw(address _ERC20Address) public {... */\n    tag_52:\n        /* \"contracts/Hook.sol\":3243:3255  IERC20 ERC20 */\n      0x00\n        /* \"contracts/Hook.sol\":3265:3278  _ERC20Address */\n      dup2\n        /* \"contracts/Hook.sol\":3243:3279  IERC20 ERC20 = IERC20(_ERC20Address) */\n      swap1\n      pop\n        /* \"contracts/Hook.sol\":3289:3302  uint _balance */\n      0x00\n        /* \"contracts/Hook.sol\":3305:3310  ERC20 */\n      dup2\n        /* \"contracts/Hook.sol\":3305:3320  ERC20.balanceOf */\n      0xffffffffffffffffffffffffffffffffffffffff\n      and\n      0x70a08231\n        /* \"contracts/Hook.sol\":3329:3333  this */\n      address\n        /* \"contracts/Hook.sol\":3305:3335  ERC20.balanceOf(address(this)) */\n      mload(0x40)\n      dup3\n      0xffffffff\n      and\n      0xe0\n      shl\n      dup2\n      mstore\n      0x04\n      add\n      tag_112\n      swap2\n      swap1\n      tag_36\n      jump\t// in\n    tag_112:\n      0x20\n      mload(0x40)\n      dup1\n      dup4\n      sub\n      dup2\n      dup7\n      gas\n      staticcall\n      iszero\n      dup1\n      iszero\n      tag_114\n      jumpi\n      returndatasize\n      0x00\n      dup1\n      returndatacopy\n      revert(0x00, returndatasize)\n    tag_114:\n      pop\n      pop\n      pop\n      pop\n      mload(0x40)\n      returndatasize\n      not(0x1f)\n      0x1f\n      dup3\n      add\n      and\n      dup3\n      add\n      dup1\n      0x40\n      mstore\n      pop\n      dup2\n      add\n      swap1\n      tag_115\n      swap2\n      swap1\n      tag_116\n      jump\t// in\n    tag_115:\n        /* \"contracts/Hook.sol\":3289:3335  uint _balance = ERC20.balanceOf(address(this)) */\n      swap1\n      pop\n        /* \"contracts/Hook.sol\":3345:3350  ERC20 */\n      dup2\n        /* \"contracts/Hook.sol\":3345:3359  ERC20.transfer */\n      0xffffffffffffffffffffffffffffffffffffffff\n      and\n      0xa9059cbb\n        /* \"contracts/Hook.sol\":3360:3370  msg.sender */\n      caller\n        /* \"contracts/Hook.sol\":3371:3379  _balance */\n      dup4\n        /* \"contracts/Hook.sol\":3345:3380  ERC20.transfer(msg.sender,_balance) */\n      mload(0x40)\n      dup4\n      0xffffffff\n      and\n      0xe0\n      shl\n      dup2\n      mstore\n      0x04\n      add\n      tag_117\n      swap3\n      swap2\n      swap1\n      tag_118\n      jump\t// in\n    tag_117:\n      0x20\n      mload(0x40)\n      dup1\n      dup4\n      sub\n      dup2\n      0x00\n      dup8\n      gas\n      call\n      iszero\n      dup1\n      iszero\n      tag_120\n      jumpi\n      returndatasize\n      0x00\n      dup1\n      returndatacopy\n      revert(0x00, returndatasize)\n    tag_120:\n      pop\n      pop\n      pop\n      pop\n      mload(0x40)\n      returndatasize\n      not(0x1f)\n      0x1f\n      dup3\n      add\n      and\n      dup3\n      add\n      dup1\n      0x40\n      mstore\n      pop\n      dup2\n      add\n      swap1\n      tag_121\n      swap2\n      swap1\n      tag_122\n      jump\t// in\n    tag_121:\n      pop\n        /* \"contracts/Hook.sol\":3233:3387  {... */\n      pop\n      pop\n        /* \"contracts/Hook.sol\":3185:3387  function withdraw(address _ERC20Address) public {... */\n      pop\n      jump\t// out\n        /* \"contracts/Hook.sol\":3637:4114  function createTransfer(uint _p) public returns (bool){... */\n    tag_56:\n        /* \"contracts/Hook.sol\":3686:3690  bool */\n      0x00\n        /* \"contracts/Hook.sol\":3723:3738  crownNFTAddress */\n      0x04\n      0x00\n      swap1\n      sload\n      swap1\n      0x0100\n      exp\n      swap1\n      div\n      0xffffffffffffffffffffffffffffffffffffffff\n      and\n        /* \"contracts/Hook.sol\":3709:3738  msg.sender == crownNFTAddress */\n      0xffffffffffffffffffffffffffffffffffffffff\n      and\n        /* \"contracts/Hook.sol\":3709:3719  msg.sender */\n      caller\n        /* \"contracts/Hook.sol\":3709:3738  msg.sender == crownNFTAddress */\n      0xffffffffffffffffffffffffffffffffffffffff\n      and\n      eq\n        /* \"contracts/Hook.sol\":3701:3739  require(msg.sender == crownNFTAddress) */\n      tag_124\n      jumpi\n      0x00\n      dup1\n      revert\n    tag_124:\n        /* \"contracts/Hook.sol\":3793:3812  uint previouslyPaid */\n      0x00\n        /* \"contracts/Hook.sol\":3815:3836  transactionFromPOAPId */\n      0x0c\n        /* \"contracts/Hook.sol\":3815:3852  transactionFromPOAPId[POAPIds.length] */\n      0x00\n        /* \"contracts/Hook.sol\":3837:3844  POAPIds */\n      0x0d\n        /* \"contracts/Hook.sol\":3837:3851  POAPIds.length */\n      dup1\n      sload\n      swap1\n      pop\n        /* \"contracts/Hook.sol\":3815:3852  transactionFromPOAPId[POAPIds.length] */\n      dup2\n      mstore\n      0x20\n      add\n      swap1\n      dup2\n      mstore\n      0x20\n      add\n      0x00\n      keccak256\n        /* \"contracts/Hook.sol\":3815:3864  transactionFromPOAPId[POAPIds.length].receivedEth */\n      0x02\n      add\n      sload\n        /* \"contracts/Hook.sol\":3793:3864  uint previouslyPaid = transactionFromPOAPId[POAPIds.length].receivedEth */\n      swap1\n      pop\n        /* \"contracts/Hook.sol\":3974:4004  newTransaction(previouslyPaid) */\n      tag_125\n        /* \"contracts/Hook.sol\":3989:4003  previouslyPaid */\n      dup2\n        /* \"contracts/Hook.sol\":3974:3988  newTransaction */\n      tag_126\n        /* \"contracts/Hook.sol\":3974:4004  newTransaction(previouslyPaid) */\n      jump\t// in\n    tag_125:\n        /* \"contracts/Hook.sol\":4102:4106  true */\n      0x01\n        /* \"contracts/Hook.sol\":4094:4107  return (true) */\n      swap2\n      pop\n      pop\n        /* \"contracts/Hook.sol\":3637:4114  function createTransfer(uint _p) public returns (bool){... */\n      swap2\n      swap1\n      pop\n      jump\t// out\n        /* \"contracts/Hook.sol\":2046:2076  address public crownNFTAddress */\n    tag_61:\n      0x04\n      0x00\n      swap1\n      sload\n      swap1\n      0x0100\n      exp\n      swap1\n      div\n      0xffffffffffffffffffffffffffffffffffffffff\n      and\n      dup2\n      jump\t// out\n        /* \"contracts/Hook.sol\":2546:2572  uint public totalRoyalties */\n    tag_65:\n      sload(0x0e)\n      dup2\n      jump\t// out\n        /* \"contracts/Hook.sol\":8464:8562  function superBuy() public payable{... */\n    tag_68:\n        /* \"contracts/Hook.sol\":8508:8533  createTransfer(msg.value) */\n      tag_128\n        /* \"contracts/Hook.sol\":8523:8532  msg.value */\n      callvalue\n        /* \"contracts/Hook.sol\":8508:8522  createTransfer */\n      tag_56\n        /* \"contracts/Hook.sol\":8508:8533  createTransfer(msg.value) */\n      jump\t// in\n    tag_128:\n      pop\n        /* \"contracts/Hook.sol\":8543:8555  processETH() */\n      tag_129\n        /* \"contracts/Hook.sol\":8543:8553  processETH */\n      tag_130\n        /* \"contracts/Hook.sol\":8543:8555  processETH() */\n      jump\t// in\n    tag_129:\n        /* \"contracts/Hook.sol\":8464:8562  function superBuy() public payable{... */\n      jump\t// out\n        /* \"contracts/Hook.sol\":3393:3493  function getWethBalance() public returns (uint){... */\n    tag_71:\n        /* \"contracts/Hook.sol\":3435:3439  uint */\n      0x00\n        /* \"contracts/Hook.sol\":3457:3461  WETH */\n      0x09\n      0x00\n      swap1\n      sload\n      swap1\n      0x0100\n      exp\n      swap1\n      div\n      0xffffffffffffffffffffffffffffffffffffffff\n      and\n        /* \"contracts/Hook.sol\":3457:3471  WETH.balanceOf */\n      0xffffffffffffffffffffffffffffffffffffffff\n      and\n      0x70a08231\n        /* \"contracts/Hook.sol\":3480:3484  this */\n      address\n        /* \"contracts/Hook.sol\":3457:3486  WETH.balanceOf(address(this)) */\n      mload(0x40)\n      dup3\n      0xffffffff\n      and\n      0xe0\n      shl\n      dup2\n      mstore\n      0x04\n      add\n      tag_132\n      swap2\n      swap1\n      tag_36\n      jump\t// in\n    tag_132:\n      0x20\n      mload(0x40)\n      dup1\n      dup4\n      sub\n      dup2\n      0x00\n      dup8\n      gas\n      call\n      iszero\n      dup1\n      iszero\n      tag_134\n      jumpi\n      returndatasize\n      0x00\n      dup1\n      returndatacopy\n      revert(0x00, returndatasize)\n    tag_134:\n      pop\n      pop\n      pop\n      pop\n      mload(0x40)\n      returndatasize\n      not(0x1f)\n      0x1f\n      dup3\n      add\n      and\n      dup3\n      add\n      dup1\n      0x40\n      mstore\n      pop\n      dup2\n      add\n      swap1\n      tag_135\n      swap2\n      swap1\n      tag_116\n      jump\t// in\n    tag_135:\n        /* \"contracts/Hook.sol\":3450:3486  return WETH.balanceOf(address(this)) */\n      swap1\n      pop\n        /* \"contracts/Hook.sol\":3393:3493  function getWethBalance() public returns (uint){... */\n      swap1\n      jump\t// out\n        /* \"contracts/Hook.sol\":5835:5859  uint public liquidityEth */\n    tag_75:\n      sload(0x10)\n      dup2\n      jump\t// out\n        /* \"contracts/Hook.sol\":1940:1967  address public ERC20Address */\n    tag_79:\n      0x01\n      0x00\n      swap1\n      sload\n      swap1\n      0x0100\n      exp\n      swap1\n      div\n      0xffffffffffffffffffffffffffffffffffffffff\n      and\n      dup2\n      jump\t// out\n        /* \"contracts/Hook.sol\":1863:1934  address public WethAddress = 0xB4FBF271143F4FBf7B91A5ded31805e42b2208d6 */\n    tag_83:\n      0x00\n      dup1\n      sload\n      swap1\n      0x0100\n      exp\n      swap1\n      div\n      0xffffffffffffffffffffffffffffffffffffffff\n      and\n      dup2\n      jump\t// out\n        /* \"contracts/Hook.sol\":2012:2040  address public oracleAddress */\n    tag_87:\n      0x03\n      0x00\n      swap1\n      sload\n      swap1\n      0x0100\n      exp\n      swap1\n      div\n      0xffffffffffffffffffffffffffffffffffffffff\n      and\n      dup2\n      jump\t// out\n        /* \"contracts/Hook.sol\":2082:2108  address public POAPAddress */\n    tag_91:\n      0x05\n      0x00\n      swap1\n      sload\n      swap1\n      0x0100\n      exp\n      swap1\n      div\n      0xffffffffffffffffffffffffffffffffffffffff\n      and\n      dup2\n      jump\t// out\n        /* \"contracts/Hook.sol\":2200:2250  address[] public path = [WethAddress,ERC20Address] */\n    tag_96:\n      0x07\n      dup2\n      dup2\n      sload\n      dup2\n      lt\n      tag_136\n      jumpi\n      0x00\n      dup1\n      revert\n    tag_136:\n      swap1\n      0x00\n      mstore\n      keccak256(0x00, 0x20)\n      add\n      0x00\n      swap2\n      pop\n      sload\n      swap1\n      0x0100\n      exp\n      swap1\n      div\n      0xffffffffffffffffffffffffffffffffffffffff\n      and\n      dup2\n      jump\t// out\n        /* \"contracts/Hook.sol\":1973:2006  address public uniswapPairAddress */\n    tag_100:\n      0x02\n      0x00\n      swap1\n      sload\n      swap1\n      0x0100\n      exp\n      swap1\n      div\n      0xffffffffffffffffffffffffffffffffffffffff\n      and\n      dup2\n      jump\t// out\n        /* \"contracts/Hook.sol\":3500:3629  function getLastEthRecieved() public view returns (uint){... */\n    tag_104:\n        /* \"contracts/Hook.sol\":3551:3555  uint */\n      0x00\n        /* \"contracts/Hook.sol\":3573:3594  transactionFromPOAPId */\n      0x0c\n        /* \"contracts/Hook.sol\":3573:3610  transactionFromPOAPId[POAPIds.length] */\n      0x00\n        /* \"contracts/Hook.sol\":3595:3602  POAPIds */\n      0x0d\n        /* \"contracts/Hook.sol\":3595:3609  POAPIds.length */\n      dup1\n      sload\n      swap1\n      pop\n        /* \"contracts/Hook.sol\":3573:3610  transactionFromPOAPId[POAPIds.length] */\n      dup2\n      mstore\n      0x20\n      add\n      swap1\n      dup2\n      mstore\n      0x20\n      add\n      0x00\n      keccak256\n        /* \"contracts/Hook.sol\":3573:3622  transactionFromPOAPId[POAPIds.length].receivedEth */\n      0x02\n      add\n      sload\n        /* \"contracts/Hook.sol\":3566:3622  return transactionFromPOAPId[POAPIds.length].receivedEth */\n      swap1\n      pop\n        /* \"contracts/Hook.sol\":3500:3629  function getLastEthRecieved() public view returns (uint){... */\n      swap1\n      jump\t// out\n        /* \"contracts/Hook.sol\":4120:4503  function percentLiquidity() public view returns (uint){... */\n    tag_108:\n        /* \"contracts/Hook.sol\":4169:4173  uint */\n      0x00\n        /* \"contracts/Hook.sol\":4228:4239  uint supply */\n      dup1\n        /* \"contracts/Hook.sol\":4249:4261  ERC20Address */\n      0x01\n      0x00\n      swap1\n      sload\n      swap1\n      0x0100\n      exp\n      swap1\n      div\n      0xffffffffffffffffffffffffffffffffffffffff\n      and\n        /* \"contracts/Hook.sol\":4242:4274  IERC20(ERC20Address).totalSupply */\n      0xffffffffffffffffffffffffffffffffffffffff\n      and\n      0x18160ddd\n        /* \"contracts/Hook.sol\":4242:4276  IERC20(ERC20Address).totalSupply() */\n      mload(0x40)\n      dup2\n      0xffffffff\n      and\n      0xe0\n      shl\n      dup2\n      mstore\n      0x04\n      add\n      0x20\n      mload(0x40)\n      dup1\n      dup4\n      sub\n      dup2\n      dup7\n      gas\n      staticcall\n      iszero\n      dup1\n      iszero\n      tag_141\n      jumpi\n      returndatasize\n      0x00\n      dup1\n      returndatacopy\n      revert(0x00, returndatasize)\n    tag_141:\n      pop\n      pop\n      pop\n      pop\n      mload(0x40)\n      returndatasize\n      not(0x1f)\n      0x1f\n      dup3\n      add\n      and\n      dup3\n      add\n      dup1\n      0x40\n      mstore\n      pop\n      dup2\n      add\n      swap1\n      tag_142\n      swap2\n      swap1\n      tag_116\n      jump\t// in\n    tag_142:\n        /* \"contracts/Hook.sol\":4228:4276  uint supply = IERC20(ERC20Address).totalSupply() */\n      swap1\n      pop\n        /* \"contracts/Hook.sol\":4332:4346  uint liquidity */\n      0x00\n        /* \"contracts/Hook.sol\":4354:4366  ERC20Address */\n      0x01\n      0x00\n      swap1\n      sload\n      swap1\n      0x0100\n      exp\n      swap1\n      div\n      0xffffffffffffffffffffffffffffffffffffffff\n      and\n        /* \"contracts/Hook.sol\":4347:4377  IERC20(ERC20Address).balanceOf */\n      0xffffffffffffffffffffffffffffffffffffffff\n      and\n      0x70a08231\n        /* \"contracts/Hook.sol\":4378:4396  uniswapPairAddress */\n      0x02\n      0x00\n      swap1\n      sload\n      swap1\n      0x0100\n      exp\n      swap1\n      div\n      0xffffffffffffffffffffffffffffffffffffffff\n      and\n        /* \"contracts/Hook.sol\":4347:4397  IERC20(ERC20Address).balanceOf(uniswapPairAddress) */\n      mload(0x40)\n      dup3\n      0xffffffff\n      and\n      0xe0\n      shl\n      dup2\n      mstore\n      0x04\n      add\n      tag_143\n      swap2\n      swap1\n      tag_36\n      jump\t// in\n    tag_143:\n      0x20\n      mload(0x40)\n      dup1\n      dup4\n      sub\n      dup2\n      dup7\n      gas\n      staticcall\n      iszero\n      dup1\n      iszero\n      tag_145\n      jumpi\n      returndatasize\n      0x00\n      dup1\n      returndatacopy\n      revert(0x00, returndatasize)\n    tag_145:\n      pop\n      pop\n      pop\n      pop\n      mload(0x40)\n      returndatasize\n      not(0x1f)\n      0x1f\n      dup3\n      add\n      and\n      dup3\n      add\n      dup1\n      0x40\n      mstore\n      pop\n      dup2\n      add\n      swap1\n      tag_146\n      swap2\n      swap1\n      tag_116\n      jump\t// in\n    tag_146:\n        /* \"contracts/Hook.sol\":4332:4397  uint liquidity=IERC20(ERC20Address).balanceOf(uniswapPairAddress) */\n      swap1\n      pop\n        /* \"contracts/Hook.sol\":4489:4495  supply */\n      dup2\n        /* \"contracts/Hook.sol\":4485:4488  100 */\n      0x64\n        /* \"contracts/Hook.sol\":4475:4484  liquidity */\n      dup3\n        /* \"contracts/Hook.sol\":4475:4488  liquidity*100 */\n      tag_147\n      swap2\n      swap1\n      tag_148\n      jump\t// in\n    tag_147:\n        /* \"contracts/Hook.sol\":4475:4495  liquidity*100/supply */\n      tag_149\n      swap2\n      swap1\n      tag_150\n      jump\t// in\n    tag_149:\n        /* \"contracts/Hook.sol\":4468:4496  return(liquidity*100/supply) */\n      swap3\n      pop\n      pop\n      pop\n        /* \"contracts/Hook.sol\":4120:4503  function percentLiquidity() public view returns (uint){... */\n      swap1\n      jump\t// out\n        /* \"contracts/Hook.sol\":2876:3175  function newTransaction ( uint _receivedEth) internal {... */\n    tag_126:\n        /* \"contracts/Hook.sol\":2940:2951  uint POAPId */\n      0x00\n        /* \"contracts/Hook.sol\":2954:2961  POAPIds */\n      0x0d\n        /* \"contracts/Hook.sol\":2954:2968  POAPIds.length */\n      dup1\n      sload\n      swap1\n      pop\n        /* \"contracts/Hook.sol\":2940:2968  uint POAPId = POAPIds.length */\n      swap1\n      pop\n        /* \"contracts/Hook.sol\":2978:3009  Transaction storage transaction */\n      0x00\n        /* \"contracts/Hook.sol\":3012:3033  transactionFromPOAPId */\n      0x0c\n        /* \"contracts/Hook.sol\":3012:3049  transactionFromPOAPId[POAPIds.length] */\n      0x00\n        /* \"contracts/Hook.sol\":3034:3041  POAPIds */\n      0x0d\n        /* \"contracts/Hook.sol\":3034:3048  POAPIds.length */\n      dup1\n      sload\n      swap1\n      pop\n        /* \"contracts/Hook.sol\":3012:3049  transactionFromPOAPId[POAPIds.length] */\n      dup2\n      mstore\n      0x20\n      add\n      swap1\n      dup2\n      mstore\n      0x20\n      add\n      0x00\n      keccak256\n        /* \"contracts/Hook.sol\":2978:3049  Transaction storage transaction = transactionFromPOAPId[POAPIds.length] */\n      swap1\n      pop\n        /* \"contracts/Hook.sol\":3080:3086  POAPId */\n      dup2\n        /* \"contracts/Hook.sol\":3059:3070  transaction */\n      dup2\n        /* \"contracts/Hook.sol\":3059:3077  transaction.POAPId */\n      0x00\n      add\n        /* \"contracts/Hook.sol\":3059:3086  transaction.POAPId = POAPId */\n      dup2\n      swap1\n      sstore\n      pop\n        /* \"contracts/Hook.sol\":3122:3134  _receivedEth */\n      dup3\n        /* \"contracts/Hook.sol\":3096:3107  transaction */\n      dup2\n        /* \"contracts/Hook.sol\":3096:3119  transaction.receivedEth */\n      0x02\n      add\n        /* \"contracts/Hook.sol\":3096:3134  transaction.receivedEth = _receivedEth */\n      dup2\n      swap1\n      sstore\n      pop\n        /* \"contracts/Hook.sol\":3144:3151  POAPIds */\n      0x0d\n        /* \"contracts/Hook.sol\":3157:3163  POAPId */\n      dup3\n        /* \"contracts/Hook.sol\":3144:3164  POAPIds.push(POAPId) */\n      swap1\n      dup1\n      0x01\n      dup2\n      sload\n      add\n      dup1\n      dup3\n      sstore\n      dup1\n      swap2\n      pop\n      pop\n      0x01\n      swap1\n      sub\n      swap1\n      0x00\n      mstore\n      keccak256(0x00, 0x20)\n      add\n      0x00\n      swap1\n      swap2\n      swap1\n      swap2\n      swap1\n      swap2\n      pop\n      sstore\n        /* \"contracts/Hook.sol\":2930:3175  {... */\n      pop\n      pop\n        /* \"contracts/Hook.sol\":2876:3175  function newTransaction ( uint _receivedEth) internal {... */\n      pop\n      jump\t// out\n        /* \"contracts/Hook.sol\":6789:8457  function processETH() internal{... */\n    tag_130:\n        /* \"contracts/Hook.sol\":6829:6842  uint msgValue */\n      0x00\n        /* \"contracts/Hook.sol\":6845:6854  msg.value */\n      callvalue\n        /* \"contracts/Hook.sol\":6829:6854  uint msgValue = msg.value */\n      swap1\n      pop\n        /* \"contracts/Hook.sol\":6874:6875  0 */\n      0x00\n        /* \"contracts/Hook.sol\":6867:6873  buyEth */\n      sload(0x0f)\n        /* \"contracts/Hook.sol\":6867:6875  buyEth>0 */\n      gt\n        /* \"contracts/Hook.sol\":6864:7114  if(buyEth>0){... */\n      iszero\n      tag_154\n      jumpi\n        /* \"contracts/Hook.sol\":6890:6903  uint _balance */\n      0x00\n        /* \"contracts/Hook.sol\":6906:6927  address(this).balance */\n      selfbalance\n        /* \"contracts/Hook.sol\":6890:6927  uint _balance = address(this).balance */\n      swap1\n      pop\n        /* \"contracts/Hook.sol\":6941:6959  buyAndBurn(buyEth) */\n      tag_155\n        /* \"contracts/Hook.sol\":6952:6958  buyEth */\n      sload(0x0f)\n        /* \"contracts/Hook.sol\":6941:6951  buyAndBurn */\n      tag_156\n        /* \"contracts/Hook.sol\":6941:6959  buyAndBurn(buyEth) */\n      jump\t// in\n    tag_155:\n        /* \"contracts/Hook.sol\":6973:6989  uint _newBalance */\n      0x00\n        /* \"contracts/Hook.sol\":6992:7013  address(this).balance */\n      selfbalance\n        /* \"contracts/Hook.sol\":6973:7013  uint _newBalance = address(this).balance */\n      swap1\n      pop\n        /* \"contracts/Hook.sol\":7027:7043  uint _difference */\n      0x00\n        /* \"contracts/Hook.sol\":7057:7068  _newBalance */\n      dup2\n        /* \"contracts/Hook.sol\":7046:7054  _balance */\n      dup4\n        /* \"contracts/Hook.sol\":7046:7068  _balance - _newBalance */\n      tag_157\n      swap2\n      swap1\n      tag_158\n      jump\t// in\n    tag_157:\n        /* \"contracts/Hook.sol\":7027:7068  uint _difference = _balance - _newBalance */\n      swap1\n      pop\n        /* \"contracts/Hook.sol\":7092:7103  _difference */\n      dup1\n        /* \"contracts/Hook.sol\":7082:7088  buyEth */\n      0x0f\n      0x00\n        /* \"contracts/Hook.sol\":7082:7103  buyEth -= _difference */\n      dup3\n      dup3\n      sload\n      tag_159\n      swap2\n      swap1\n      tag_158\n      jump\t// in\n    tag_159:\n      swap3\n      pop\n      pop\n      dup2\n      swap1\n      sstore\n      pop\n        /* \"contracts/Hook.sol\":6876:7114  {... */\n      pop\n      pop\n      pop\n        /* \"contracts/Hook.sol\":6864:7114  if(buyEth>0){... */\n    tag_154:\n        /* \"contracts/Hook.sol\":7139:7140  0 */\n      0x00\n        /* \"contracts/Hook.sol\":7126:7138  liquidityEth */\n      sload(0x10)\n        /* \"contracts/Hook.sol\":7126:7140  liquidityEth>0 */\n      gt\n        /* \"contracts/Hook.sol\":7123:7397  if(liquidityEth>0){... */\n      iszero\n      tag_160\n      jumpi\n        /* \"contracts/Hook.sol\":7155:7168  uint _balance */\n      0x00\n        /* \"contracts/Hook.sol\":7171:7192  address(this).balance */\n      selfbalance\n        /* \"contracts/Hook.sol\":7155:7192  uint _balance = address(this).balance */\n      swap1\n      pop\n        /* \"contracts/Hook.sol\":7206:7236  provideLiquidity(liquidityEth) */\n      tag_161\n        /* \"contracts/Hook.sol\":7223:7235  liquidityEth */\n      sload(0x10)\n        /* \"contracts/Hook.sol\":7206:7222  provideLiquidity */\n      tag_162\n        /* \"contracts/Hook.sol\":7206:7236  provideLiquidity(liquidityEth) */\n      jump\t// in\n    tag_161:\n      pop\n        /* \"contracts/Hook.sol\":7250:7266  uint _newBalance */\n      0x00\n        /* \"contracts/Hook.sol\":7269:7290  address(this).balance */\n      selfbalance\n        /* \"contracts/Hook.sol\":7250:7290  uint _newBalance = address(this).balance */\n      swap1\n      pop\n        /* \"contracts/Hook.sol\":7304:7320  uint _difference */\n      0x00\n        /* \"contracts/Hook.sol\":7334:7345  _newBalance */\n      dup2\n        /* \"contracts/Hook.sol\":7323:7331  _balance */\n      dup4\n        /* \"contracts/Hook.sol\":7323:7345  _balance - _newBalance */\n      tag_163\n      swap2\n      swap1\n      tag_158\n      jump\t// in\n    tag_163:\n        /* \"contracts/Hook.sol\":7304:7345  uint _difference = _balance - _newBalance */\n      swap1\n      pop\n        /* \"contracts/Hook.sol\":7375:7386  _difference */\n      dup1\n        /* \"contracts/Hook.sol\":7359:7371  liquidityEth */\n      0x10\n      0x00\n        /* \"contracts/Hook.sol\":7359:7386  liquidityEth -= _difference */\n      dup3\n      dup3\n      sload\n      tag_164\n      swap2\n      swap1\n      tag_158\n      jump\t// in\n    tag_164:\n      swap3\n      pop\n      pop\n      dup2\n      swap1\n      sstore\n      pop\n        /* \"contracts/Hook.sol\":7141:7397  {... */\n      pop\n      pop\n      pop\n        /* \"contracts/Hook.sol\":7123:7397  if(liquidityEth>0){... */\n    tag_160:\n        /* \"contracts/Hook.sol\":7427:7428  1 */\n      0x01\n        /* \"contracts/Hook.sol\":7409:7416  POAPIds */\n      0x0d\n        /* \"contracts/Hook.sol\":7409:7423  POAPIds.length */\n      dup1\n      sload\n      swap1\n      pop\n        /* \"contracts/Hook.sol\":7409:7428  POAPIds.length == 1 */\n      sub\n        /* \"contracts/Hook.sol\":7406:7643  if(POAPIds.length == 1){... */\n      iszero\n      tag_166\n      jumpi\n        /* \"contracts/Hook.sol\":7467:7489  address previousHolder */\n      0x00\n        /* \"contracts/Hook.sol\":7492:7513  transactionFromPOAPId */\n      0x0c\n        /* \"contracts/Hook.sol\":7492:7532  transactionFromPOAPId[POAPIds.length -2] */\n      0x00\n        /* \"contracts/Hook.sol\":7530:7531  2 */\n      0x02\n        /* \"contracts/Hook.sol\":7514:7521  POAPIds */\n      0x0d\n        /* \"contracts/Hook.sol\":7514:7528  POAPIds.length */\n      dup1\n      sload\n      swap1\n      pop\n        /* \"contracts/Hook.sol\":7514:7531  POAPIds.length -2 */\n      tag_167\n      swap2\n      swap1\n      tag_158\n      jump\t// in\n    tag_167:\n        /* \"contracts/Hook.sol\":7492:7532  transactionFromPOAPId[POAPIds.length -2] */\n      dup2\n      mstore\n      0x20\n      add\n      swap1\n      dup2\n      mstore\n      0x20\n      add\n      0x00\n      keccak256\n        /* \"contracts/Hook.sol\":7492:7542  transactionFromPOAPId[POAPIds.length -2].purchaser */\n      0x01\n      add\n      0x00\n      swap1\n      sload\n      swap1\n      0x0100\n      exp\n      swap1\n      div\n      0xffffffffffffffffffffffffffffffffffffffff\n      and\n        /* \"contracts/Hook.sol\":7467:7542  address previousHolder = transactionFromPOAPId[POAPIds.length -2].purchaser */\n      swap1\n      pop\n        /* \"contracts/Hook.sol\":7556:7593  erc20ToPreviousHolder(previousHolder) */\n      tag_168\n        /* \"contracts/Hook.sol\":7578:7592  previousHolder */\n      dup2\n        /* \"contracts/Hook.sol\":7556:7577  erc20ToPreviousHolder */\n      tag_169\n        /* \"contracts/Hook.sol\":7556:7593  erc20ToPreviousHolder(previousHolder) */\n      jump\t// in\n    tag_168:\n        /* \"contracts/Hook.sol\":7607:7611  POAP */\n      0x08\n      0x00\n      swap1\n      sload\n      swap1\n      0x0100\n      exp\n      swap1\n      div\n      0xffffffffffffffffffffffffffffffffffffffff\n      and\n        /* \"contracts/Hook.sol\":7607:7616  POAP.mint */\n      0xffffffffffffffffffffffffffffffffffffffff\n      and\n      0x6a627842\n        /* \"contracts/Hook.sol\":7617:7631  previousHolder */\n      dup3\n        /* \"contracts/Hook.sol\":7607:7632  POAP.mint(previousHolder) */\n      mload(0x40)\n      dup3\n      0xffffffff\n      and\n      0xe0\n      shl\n      dup2\n      mstore\n      0x04\n      add\n      tag_170\n      swap2\n      swap1\n      tag_36\n      jump\t// in\n    tag_170:\n      0x00\n      mload(0x40)\n      dup1\n      dup4\n      sub\n      dup2\n      0x00\n      dup8\n      dup1\n      extcodesize\n      iszero\n      dup1\n      iszero\n      tag_171\n      jumpi\n      0x00\n      dup1\n      revert\n    tag_171:\n      pop\n      gas\n      call\n      iszero\n      dup1\n      iszero\n      tag_173\n      jumpi\n      returndatasize\n      0x00\n      dup1\n      returndatacopy\n      revert(0x00, returndatasize)\n    tag_173:\n      pop\n      pop\n      pop\n      pop\n        /* \"contracts/Hook.sol\":7453:7643  {... */\n      pop\n        /* \"contracts/Hook.sol\":7406:7643  if(POAPIds.length == 1){... */\n    tag_166:\n        /* \"contracts/Hook.sol\":7652:7674  uint _percentLiquidity */\n      0x00\n        /* \"contracts/Hook.sol\":7677:7695  percentLiquidity() */\n      tag_174\n        /* \"contracts/Hook.sol\":7677:7693  percentLiquidity */\n      tag_108\n        /* \"contracts/Hook.sol\":7677:7695  percentLiquidity() */\n      jump\t// in\n    tag_174:\n        /* \"contracts/Hook.sol\":7652:7695  uint _percentLiquidity = percentLiquidity() */\n      swap1\n      pop\n        /* \"contracts/Hook.sol\":7775:7777  20 */\n      0x14\n        /* \"contracts/Hook.sol\":7757:7774  _percentLiquidity */\n      dup2\n        /* \"contracts/Hook.sol\":7757:7777  _percentLiquidity>20 */\n      gt\n        /* \"contracts/Hook.sol\":7754:8451  if(_percentLiquidity>20){... */\n      iszero\n      tag_175\n      jumpi\n        /* \"contracts/Hook.sol\":7792:7805  uint _balance */\n      0x00\n        /* \"contracts/Hook.sol\":7808:7829  address(this).balance */\n      selfbalance\n        /* \"contracts/Hook.sol\":7792:7829  uint _balance = address(this).balance */\n      swap1\n      pop\n        /* \"contracts/Hook.sol\":7843:7864  buyAndBurn(msg.value) */\n      tag_176\n        /* \"contracts/Hook.sol\":7854:7863  msg.value */\n      callvalue\n        /* \"contracts/Hook.sol\":7843:7853  buyAndBurn */\n      tag_156\n        /* \"contracts/Hook.sol\":7843:7864  buyAndBurn(msg.value) */\n      jump\t// in\n    tag_176:\n        /* \"contracts/Hook.sol\":7878:7894  uint _newBalance */\n      0x00\n        /* \"contracts/Hook.sol\":7897:7918  address(this).balance */\n      selfbalance\n        /* \"contracts/Hook.sol\":7878:7918  uint _newBalance = address(this).balance */\n      swap1\n      pop\n        /* \"contracts/Hook.sol\":7932:7948  uint _difference */\n      0x00\n        /* \"contracts/Hook.sol\":7962:7973  _newBalance */\n      dup2\n        /* \"contracts/Hook.sol\":7951:7959  _balance */\n      dup4\n        /* \"contracts/Hook.sol\":7951:7973  _balance - _newBalance */\n      tag_177\n      swap2\n      swap1\n      tag_158\n      jump\t// in\n    tag_177:\n        /* \"contracts/Hook.sol\":7932:7973  uint _difference = _balance - _newBalance */\n      swap1\n      pop\n        /* \"contracts/Hook.sol\":7987:8015  uint _amountLeftFromMsgValue */\n      0x00\n        /* \"contracts/Hook.sol\":8029:8040  _difference */\n      dup2\n        /* \"contracts/Hook.sol\":8018:8026  msgValue */\n      dup7\n        /* \"contracts/Hook.sol\":8018:8040  msgValue - _difference */\n      tag_178\n      swap2\n      swap1\n      tag_158\n      jump\t// in\n    tag_178:\n        /* \"contracts/Hook.sol\":7987:8040  uint _amountLeftFromMsgValue = msgValue - _difference */\n      swap1\n      pop\n        /* \"contracts/Hook.sol\":8064:8087  _amountLeftFromMsgValue */\n      dup1\n        /* \"contracts/Hook.sol\":8054:8060  buyEth */\n      0x0f\n      0x00\n        /* \"contracts/Hook.sol\":8054:8087  buyEth += _amountLeftFromMsgValue */\n      dup3\n      dup3\n      sload\n      tag_179\n      swap2\n      swap1\n      tag_180\n      jump\t// in\n    tag_179:\n      swap3\n      pop\n      pop\n      dup2\n      swap1\n      sstore\n      pop\n        /* \"contracts/Hook.sol\":7778:8099  {... */\n      pop\n      pop\n      pop\n      pop\n        /* \"contracts/Hook.sol\":7754:8451  if(_percentLiquidity>20){... */\n      jump(tag_181)\n    tag_175:\n        /* \"contracts/Hook.sol\":8119:8132  uint _balance */\n      0x00\n        /* \"contracts/Hook.sol\":8135:8156  address(this).balance */\n      selfbalance\n        /* \"contracts/Hook.sol\":8119:8156  uint _balance = address(this).balance */\n      swap1\n      pop\n        /* \"contracts/Hook.sol\":8170:8210  provideLiquidity(liquidityEth+msg.value) */\n      tag_182\n        /* \"contracts/Hook.sol\":8200:8209  msg.value */\n      callvalue\n        /* \"contracts/Hook.sol\":8187:8199  liquidityEth */\n      sload(0x10)\n        /* \"contracts/Hook.sol\":8187:8209  liquidityEth+msg.value */\n      tag_183\n      swap2\n      swap1\n      tag_180\n      jump\t// in\n    tag_183:\n        /* \"contracts/Hook.sol\":8170:8186  provideLiquidity */\n      tag_162\n        /* \"contracts/Hook.sol\":8170:8210  provideLiquidity(liquidityEth+msg.value) */\n      jump\t// in\n    tag_182:\n      pop\n        /* \"contracts/Hook.sol\":8224:8240  uint _newBalance */\n      0x00\n        /* \"contracts/Hook.sol\":8243:8264  address(this).balance */\n      selfbalance\n        /* \"contracts/Hook.sol\":8224:8264  uint _newBalance = address(this).balance */\n      swap1\n      pop\n        /* \"contracts/Hook.sol\":8278:8294  uint _difference */\n      0x00\n        /* \"contracts/Hook.sol\":8308:8319  _newBalance */\n      dup2\n        /* \"contracts/Hook.sol\":8297:8305  _balance */\n      dup4\n        /* \"contracts/Hook.sol\":8297:8319  _balance - _newBalance */\n      tag_184\n      swap2\n      swap1\n      tag_158\n      jump\t// in\n    tag_184:\n        /* \"contracts/Hook.sol\":8278:8319  uint _difference = _balance - _newBalance */\n      swap1\n      pop\n        /* \"contracts/Hook.sol\":8333:8361  uint _amountLeftFromMsgValue */\n      0x00\n        /* \"contracts/Hook.sol\":8375:8386  _difference */\n      dup2\n        /* \"contracts/Hook.sol\":8364:8372  msgValue */\n      dup7\n        /* \"contracts/Hook.sol\":8364:8386  msgValue - _difference */\n      tag_185\n      swap2\n      swap1\n      tag_158\n      jump\t// in\n    tag_185:\n        /* \"contracts/Hook.sol\":8333:8386  uint _amountLeftFromMsgValue = msgValue - _difference */\n      swap1\n      pop\n        /* \"contracts/Hook.sol\":8416:8439  _amountLeftFromMsgValue */\n      dup1\n        /* \"contracts/Hook.sol\":8400:8412  liquidityEth */\n      0x10\n      0x00\n        /* \"contracts/Hook.sol\":8400:8439  liquidityEth += _amountLeftFromMsgValue */\n      dup3\n      dup3\n      sload\n      tag_186\n      swap2\n      swap1\n      tag_180\n      jump\t// in\n    tag_186:\n      swap3\n      pop\n      pop\n      dup2\n      swap1\n      sstore\n      pop\n        /* \"contracts/Hook.sol\":8105:8451  {... */\n      pop\n      pop\n      pop\n      pop\n        /* \"contracts/Hook.sol\":7754:8451  if(_percentLiquidity>20){... */\n    tag_181:\n        /* \"contracts/Hook.sol\":6819:8457  {... */\n      pop\n      pop\n        /* \"contracts/Hook.sol\":6789:8457  function processETH() internal{... */\n      jump\t// out\n        /* \"contracts/Hook.sol\":6338:6486  function buyAndBurn(uint _buyEth) internal{... */\n    tag_156:\n        /* \"contracts/Hook.sol\":6390:6401  uint tokens */\n      0x00\n        /* \"contracts/Hook.sol\":6404:6422  buyTokens(_buyEth) */\n      tag_188\n        /* \"contracts/Hook.sol\":6414:6421  _buyEth */\n      dup3\n        /* \"contracts/Hook.sol\":6404:6413  buyTokens */\n      tag_189\n        /* \"contracts/Hook.sol\":6404:6422  buyTokens(_buyEth) */\n      jump\t// in\n    tag_188:\n        /* \"contracts/Hook.sol\":6390:6422  uint tokens = buyTokens(_buyEth) */\n      swap1\n      pop\n        /* \"contracts/Hook.sol\":6441:6453  ERC20Address */\n      0x01\n      0x00\n      swap1\n      sload\n      swap1\n      0x0100\n      exp\n      swap1\n      div\n      0xffffffffffffffffffffffffffffffffffffffff\n      and\n        /* \"contracts/Hook.sol\":6432:6459  WethLike(ERC20Address).burn */\n      0xffffffffffffffffffffffffffffffffffffffff\n      and\n      0x9dc29fac\n        /* \"contracts/Hook.sol\":6460:6470  msg.sender */\n      caller\n        /* \"contracts/Hook.sol\":6472:6478  tokens */\n      dup4\n        /* \"contracts/Hook.sol\":6432:6479  WethLike(ERC20Address).burn(msg.sender, tokens) */\n      mload(0x40)\n      dup4\n      0xffffffff\n      and\n      0xe0\n      shl\n      dup2\n      mstore\n      0x04\n      add\n      tag_190\n      swap3\n      swap2\n      swap1\n      tag_118\n      jump\t// in\n    tag_190:\n      0x00\n      mload(0x40)\n      dup1\n      dup4\n      sub\n      dup2\n      0x00\n      dup8\n      dup1\n      extcodesize\n      iszero\n      dup1\n      iszero\n      tag_191\n      jumpi\n      0x00\n      dup1\n      revert\n    tag_191:\n      pop\n      gas\n      call\n      iszero\n      dup1\n      iszero\n      tag_193\n      jumpi\n      returndatasize\n      0x00\n      dup1\n      returndatacopy\n      revert(0x00, returndatasize)\n    tag_193:\n      pop\n      pop\n      pop\n      pop\n        /* \"contracts/Hook.sol\":6380:6486  {... */\n      pop\n        /* \"contracts/Hook.sol\":6338:6486  function buyAndBurn(uint _buyEth) internal{... */\n      pop\n      jump\t// out\n        /* \"contracts/Hook.sol\":4509:5805  function provideLiquidity(uint _liquidityEth) internal returns (uint){... */\n    tag_162:\n        /* \"contracts/Hook.sol\":4573:4577  uint */\n      0x00\n        /* \"contracts/Hook.sol\":4597:4624  uint ERC20LiquidityProvided */\n      dup1\n        /* \"contracts/Hook.sol\":4704:4728  uint currentERC20Balance */\n      0x00\n        /* \"contracts/Hook.sol\":4738:4750  ERC20Address */\n      0x01\n      0x00\n      swap1\n      sload\n      swap1\n      0x0100\n      exp\n      swap1\n      div\n      0xffffffffffffffffffffffffffffffffffffffff\n      and\n        /* \"contracts/Hook.sol\":4731:4761  IERC20(ERC20Address).balanceOf */\n      0xffffffffffffffffffffffffffffffffffffffff\n      and\n      0x70a08231\n        /* \"contracts/Hook.sol\":4770:4774  this */\n      address\n        /* \"contracts/Hook.sol\":4731:4776  IERC20(ERC20Address).balanceOf(address(this)) */\n      mload(0x40)\n      dup3\n      0xffffffff\n      and\n      0xe0\n      shl\n      dup2\n      mstore\n      0x04\n      add\n      tag_195\n      swap2\n      swap1\n      tag_36\n      jump\t// in\n    tag_195:\n      0x20\n      mload(0x40)\n      dup1\n      dup4\n      sub\n      dup2\n      dup7\n      gas\n      staticcall\n      iszero\n      dup1\n      iszero\n      tag_197\n      jumpi\n      returndatasize\n      0x00\n      dup1\n      returndatacopy\n      revert(0x00, returndatasize)\n    tag_197:\n      pop\n      pop\n      pop\n      pop\n      mload(0x40)\n      returndatasize\n      not(0x1f)\n      0x1f\n      dup3\n      add\n      and\n      dup3\n      add\n      dup1\n      0x40\n      mstore\n      pop\n      dup2\n      add\n      swap1\n      tag_198\n      swap2\n      swap1\n      tag_116\n      jump\t// in\n    tag_198:\n        /* \"contracts/Hook.sol\":4704:4776  uint currentERC20Balance = IERC20(ERC20Address).balanceOf(address(this)) */\n      swap1\n      pop\n        /* \"contracts/Hook.sol\":4859:4876  uint tokensToSend */\n      0x00\n        /* \"contracts/Hook.sol\":4935:4938  100 */\n      0x64\n        /* \"contracts/Hook.sol\":4929:4932  105 */\n      0x69\n        /* \"contracts/Hook.sol\":4879:4885  Oracle */\n      0x0a\n      0x00\n      swap1\n      sload\n      swap1\n      0x0100\n      exp\n      swap1\n      div\n      0xffffffffffffffffffffffffffffffffffffffff\n      and\n        /* \"contracts/Hook.sol\":4879:4899  Oracle.consultPrices */\n      0xffffffffffffffffffffffffffffffffffffffff\n      and\n      0x3ac35585\n        /* \"contracts/Hook.sol\":4900:4911  WethAddress */\n      0x00\n      dup1\n      sload\n      swap1\n      0x0100\n      exp\n      swap1\n      div\n      0xffffffffffffffffffffffffffffffffffffffff\n      and\n        /* \"contracts/Hook.sol\":4913:4926  _liquidityEth */\n      dup10\n        /* \"contracts/Hook.sol\":4879:4927  Oracle.consultPrices(WethAddress, _liquidityEth) */\n      mload(0x40)\n      dup4\n      0xffffffff\n      and\n      0xe0\n      shl\n      dup2\n      mstore\n      0x04\n      add\n      tag_199\n      swap3\n      swap2\n      swap1\n      tag_118\n      jump\t// in\n    tag_199:\n      0x20\n      mload(0x40)\n      dup1\n      dup4\n      sub\n      dup2\n      dup7\n      gas\n      staticcall\n      iszero\n      dup1\n      iszero\n      tag_201\n      jumpi\n      returndatasize\n      0x00\n      dup1\n      returndatacopy\n      revert(0x00, returndatasize)\n    tag_201:\n      pop\n      pop\n      pop\n      pop\n      mload(0x40)\n      returndatasize\n      not(0x1f)\n      0x1f\n      dup3\n      add\n      and\n      dup3\n      add\n      dup1\n      0x40\n      mstore\n      pop\n      dup2\n      add\n      swap1\n      tag_202\n      swap2\n      swap1\n      tag_116\n      jump\t// in\n    tag_202:\n        /* \"contracts/Hook.sol\":4879:4932  Oracle.consultPrices(WethAddress, _liquidityEth)* 105 */\n      tag_203\n      swap2\n      swap1\n      tag_148\n      jump\t// in\n    tag_203:\n        /* \"contracts/Hook.sol\":4879:4938  Oracle.consultPrices(WethAddress, _liquidityEth)* 105 / 100 */\n      tag_204\n      swap2\n      swap1\n      tag_150\n      jump\t// in\n    tag_204:\n        /* \"contracts/Hook.sol\":4859:4938  uint tokensToSend = Oracle.consultPrices(WethAddress, _liquidityEth)* 105 / 100 */\n      swap1\n      pop\n        /* \"contracts/Hook.sol\":5060:5079  currentERC20Balance */\n      dup2\n        /* \"contracts/Hook.sol\":5045:5057  tokensToSend */\n      dup2\n        /* \"contracts/Hook.sol\":5045:5079  tokensToSend > currentERC20Balance */\n      gt\n        /* \"contracts/Hook.sol\":5042:5265  if(tokensToSend > currentERC20Balance){... */\n      iszero\n      tag_205\n      jumpi\n        /* \"contracts/Hook.sol\":5103:5115  ERC20Address */\n      0x01\n      0x00\n      swap1\n      sload\n      swap1\n      0x0100\n      exp\n      swap1\n      div\n      0xffffffffffffffffffffffffffffffffffffffff\n      and\n        /* \"contracts/Hook.sol\":5094:5125  WethLike(ERC20Address).hookMint */\n      0xffffffffffffffffffffffffffffffffffffffff\n      and\n      0x96fe8349\n        /* \"contracts/Hook.sol\":5139:5158  currentERC20Balance */\n      dup4\n        /* \"contracts/Hook.sol\":5126:5138  tokensToSend */\n      dup4\n        /* \"contracts/Hook.sol\":5126:5158  tokensToSend-currentERC20Balance */\n      tag_206\n      swap2\n      swap1\n      tag_158\n      jump\t// in\n    tag_206:\n        /* \"contracts/Hook.sol\":5167:5171  this */\n      address\n        /* \"contracts/Hook.sol\":5094:5173  WethLike(ERC20Address).hookMint(tokensToSend-currentERC20Balance,address(this)) */\n      mload(0x40)\n      dup4\n      0xffffffff\n      and\n      0xe0\n      shl\n      dup2\n      mstore\n      0x04\n      add\n      tag_207\n      swap3\n      swap2\n      swap1\n      tag_208\n      jump\t// in\n    tag_207:\n      0x00\n      mload(0x40)\n      dup1\n      dup4\n      sub\n      dup2\n      0x00\n      dup8\n      dup1\n      extcodesize\n      iszero\n      dup1\n      iszero\n      tag_209\n      jumpi\n      0x00\n      dup1\n      revert\n    tag_209:\n      pop\n      gas\n      call\n      iszero\n      dup1\n      iszero\n      tag_211\n      jumpi\n      returndatasize\n      0x00\n      dup1\n      returndatacopy\n      revert(0x00, returndatasize)\n    tag_211:\n      pop\n      pop\n      pop\n      pop\n        /* \"contracts/Hook.sol\":5216:5228  ERC20Address */\n      0x01\n      0x00\n      swap1\n      sload\n      swap1\n      0x0100\n      exp\n      swap1\n      div\n      0xffffffffffffffffffffffffffffffffffffffff\n      and\n        /* \"contracts/Hook.sol\":5209:5239  IERC20(ERC20Address).balanceOf */\n      0xffffffffffffffffffffffffffffffffffffffff\n      and\n      0x70a08231\n        /* \"contracts/Hook.sol\":5248:5252  this */\n      address\n        /* \"contracts/Hook.sol\":5209:5254  IERC20(ERC20Address).balanceOf(address(this)) */\n      mload(0x40)\n      dup3\n      0xffffffff\n      and\n      0xe0\n      shl\n      dup2\n      mstore\n      0x04\n      add\n      tag_212\n      swap2\n      swap1\n      tag_36\n      jump\t// in\n    tag_212:\n      0x20\n      mload(0x40)\n      dup1\n      dup4\n      sub\n      dup2\n      dup7\n      gas\n      staticcall\n      iszero\n      dup1\n      iszero\n      tag_214\n      jumpi\n      returndatasize\n      0x00\n      dup1\n      returndatacopy\n      revert(0x00, returndatasize)\n    tag_214:\n      pop\n      pop\n      pop\n      pop\n      mload(0x40)\n      returndatasize\n      not(0x1f)\n      0x1f\n      dup3\n      add\n      and\n      dup3\n      add\n      dup1\n      0x40\n      mstore\n      pop\n      dup2\n      add\n      swap1\n      tag_215\n      swap2\n      swap1\n      tag_116\n      jump\t// in\n    tag_215:\n        /* \"contracts/Hook.sol\":5187:5254  currentERC20Balance = IERC20(ERC20Address).balanceOf(address(this)) */\n      swap2\n      pop\n        /* \"contracts/Hook.sol\":5042:5265  if(tokensToSend > currentERC20Balance){... */\n    tag_205:\n        /* \"contracts/Hook.sol\":5337:5350  UniswapRouter */\n      0x0b\n      0x00\n      swap1\n      sload\n      swap1\n      0x0100\n      exp\n      swap1\n      div\n      0xffffffffffffffffffffffffffffffffffffffff\n      and\n        /* \"contracts/Hook.sol\":5337:5366  UniswapRouter.addLiquidityETH */\n      0xffffffffffffffffffffffffffffffffffffffff\n      and\n      0xf305d719\n        /* \"contracts/Hook.sol\":5375:5388  _liquidityEth */\n      dup7\n        /* \"contracts/Hook.sol\":5399:5403  this */\n      address\n        /* \"contracts/Hook.sol\":5406:5418  tokensToSend */\n      dup5\n        /* \"contracts/Hook.sol\":5440:5443  105 */\n      0x69\n        /* \"contracts/Hook.sol\":5436:5438  95 */\n      0x5f\n        /* \"contracts/Hook.sol\":5421:5433  tokensToSend */\n      dup8\n        /* \"contracts/Hook.sol\":5421:5438  tokensToSend * 95 */\n      tag_216\n      swap2\n      swap1\n      tag_148\n      jump\t// in\n    tag_216:\n        /* \"contracts/Hook.sol\":5420:5443  (tokensToSend * 95)/105 */\n      tag_217\n      swap2\n      swap1\n      tag_150\n      jump\t// in\n    tag_217:\n        /* \"contracts/Hook.sol\":5466:5469  100 */\n      0x64\n        /* \"contracts/Hook.sol\":5462:5464  95 */\n      0x5f\n        /* \"contracts/Hook.sol\":5446:5459  _liquidityEth */\n      dup13\n        /* \"contracts/Hook.sol\":5446:5464  _liquidityEth * 95 */\n      tag_218\n      swap2\n      swap1\n      tag_148\n      jump\t// in\n    tag_218:\n        /* \"contracts/Hook.sol\":5445:5469  (_liquidityEth * 95)/100 */\n      tag_219\n      swap2\n      swap1\n      tag_150\n      jump\t// in\n    tag_219:\n        /* \"contracts/Hook.sol\":5479:5483  this */\n      address\n        /* \"contracts/Hook.sol\":5486:5500  type(uint).max */\n      0xffffffffffffffffffffffffffffffffffffffffffffffffffffffffffffffff\n        /* \"contracts/Hook.sol\":5337:5501  UniswapRouter.addLiquidityETH {value: _liquidityEth} (address(this), tokensToSend, (tokensToSend * 95)/105, (_liquidityEth * 95)/100, address(this), type(uint).max) */\n      mload(0x40)\n      dup9\n      0xffffffff\n      and\n      0xe0\n      shl\n      dup2\n      mstore\n      0x04\n      add\n      tag_220\n      swap7\n      swap6\n      swap5\n      swap4\n      swap3\n      swap2\n      swap1\n      tag_221\n      jump\t// in\n    tag_220:\n      0x60\n      mload(0x40)\n      dup1\n      dup4\n      sub\n      dup2\n      dup6\n      dup9\n      gas\n      call\n      swap4\n      pop\n      pop\n      pop\n      pop\n      dup1\n      iszero\n      tag_222\n      jumpi\n      pop\n      mload(0x40)\n      returndatasize\n      not(0x1f)\n      0x1f\n      dup3\n      add\n      and\n      dup3\n      add\n      dup1\n      0x40\n      mstore\n      pop\n      dup2\n      add\n      swap1\n      tag_223\n      swap2\n      swap1\n      tag_224\n      jump\t// in\n    tag_223:\n      0x01\n    tag_222:\n        /* \"contracts/Hook.sol\":5333:5758  try UniswapRouter.addLiquidityETH {value: _liquidityEth} (address(this), tokensToSend, (tokensToSend * 95)/105, (_liquidityEth * 95)/100, address(this), type(uint).max)... */\n      tag_225\n      jumpi\n        /* \"contracts/Hook.sol\":5718:5747  Log(\"Liquidity Not Provided\") */\n      0xcf34ef537ac33ee1ac626ca1587a0a7e8e51561e5514f8cb36afa1c5102b3bab\n      mload(0x40)\n      tag_229\n      swap1\n      tag_230\n      jump\t// in\n    tag_229:\n      mload(0x40)\n      dup1\n      swap2\n      sub\n      swap1\n      log1\n        /* \"contracts/Hook.sol\":5333:5758  try UniswapRouter.addLiquidityETH {value: _liquidityEth} (address(this), tokensToSend, (tokensToSend * 95)/105, (_liquidityEth * 95)/100, address(this), type(uint).max)... */\n      jump(tag_231)\n    tag_225:\n      pop\n      pop\n      pop\n        /* \"contracts/Hook.sol\":5529:5567  Log(\"liquidity Successfully Provided\") */\n      0xcf34ef537ac33ee1ac626ca1587a0a7e8e51561e5514f8cb36afa1c5102b3bab\n      mload(0x40)\n      tag_232\n      swap1\n      tag_233\n      jump\t// in\n    tag_232:\n      mload(0x40)\n      dup1\n      swap2\n      sub\n      swap1\n      log1\n        /* \"contracts/Hook.sol\":5635:5647  ERC20Address */\n      0x01\n      0x00\n      swap1\n      sload\n      swap1\n      0x0100\n      exp\n      swap1\n      div\n      0xffffffffffffffffffffffffffffffffffffffff\n      and\n        /* \"contracts/Hook.sol\":5628:5658  IERC20(ERC20Address).balanceOf */\n      0xffffffffffffffffffffffffffffffffffffffff\n      and\n      0x70a08231\n        /* \"contracts/Hook.sol\":5667:5671  this */\n      address\n        /* \"contracts/Hook.sol\":5628:5673  IERC20(ERC20Address).balanceOf(address(this)) */\n      mload(0x40)\n      dup3\n      0xffffffff\n      and\n      0xe0\n      shl\n      dup2\n      mstore\n      0x04\n      add\n      tag_234\n      swap2\n      swap1\n      tag_36\n      jump\t// in\n    tag_234:\n      0x20\n      mload(0x40)\n      dup1\n      dup4\n      sub\n      dup2\n      dup7\n      gas\n      staticcall\n      iszero\n      dup1\n      iszero\n      tag_236\n      jumpi\n      returndatasize\n      0x00\n      dup1\n      returndatacopy\n      revert(0x00, returndatasize)\n    tag_236:\n      pop\n      pop\n      pop\n      pop\n      mload(0x40)\n      returndatasize\n      not(0x1f)\n      0x1f\n      dup3\n      add\n      and\n      dup3\n      add\n      dup1\n      0x40\n      mstore\n      pop\n      dup2\n      add\n      swap1\n      tag_237\n      swap2\n      swap1\n      tag_116\n      jump\t// in\n    tag_237:\n        /* \"contracts/Hook.sol\":5606:5625  currentERC20Balance */\n      dup3\n        /* \"contracts/Hook.sol\":5606:5673  currentERC20Balance - IERC20(ERC20Address).balanceOf(address(this)) */\n      tag_238\n      swap2\n      swap1\n      tag_158\n      jump\t// in\n    tag_238:\n        /* \"contracts/Hook.sol\":5581:5673  ERC20LiquidityProvided = currentERC20Balance - IERC20(ERC20Address).balanceOf(address(this)) */\n      swap3\n      pop\n        /* \"contracts/Hook.sol\":5333:5758  try UniswapRouter.addLiquidityETH {value: _liquidityEth} (address(this), tokensToSend, (tokensToSend * 95)/105, (_liquidityEth * 95)/100, address(this), type(uint).max)... */\n    tag_231:\n        /* \"contracts/Hook.sol\":5775:5797  ERC20LiquidityProvided */\n      dup3\n        /* \"contracts/Hook.sol\":5767:5798  return (ERC20LiquidityProvided) */\n      swap4\n      pop\n      pop\n      pop\n      pop\n        /* \"contracts/Hook.sol\":4509:5805  function provideLiquidity(uint _liquidityEth) internal returns (uint){... */\n      swap2\n      swap1\n      pop\n      jump\t// out\n        /* \"contracts/Hook.sol\":6492:6783  function erc20ToPreviousHolder(address previousHolder) internal{... */\n    tag_169:\n        /* \"contracts/Hook.sol\":6565:6579  uint ethAmount */\n      0x00\n        /* \"contracts/Hook.sol\":6582:6603  transactionFromPOAPId */\n      0x0c\n        /* \"contracts/Hook.sol\":6582:6623  transactionFromPOAPId[POAPIds.length - 2] */\n      0x00\n        /* \"contracts/Hook.sol\":6621:6622  2 */\n      0x02\n        /* \"contracts/Hook.sol\":6604:6611  POAPIds */\n      0x0d\n        /* \"contracts/Hook.sol\":6604:6618  POAPIds.length */\n      dup1\n      sload\n      swap1\n      pop\n        /* \"contracts/Hook.sol\":6604:6622  POAPIds.length - 2 */\n      tag_240\n      swap2\n      swap1\n      tag_158\n      jump\t// in\n    tag_240:\n        /* \"contracts/Hook.sol\":6582:6623  transactionFromPOAPId[POAPIds.length - 2] */\n      dup2\n      mstore\n      0x20\n      add\n      swap1\n      dup2\n      mstore\n      0x20\n      add\n      0x00\n      keccak256\n        /* \"contracts/Hook.sol\":6582:6635  transactionFromPOAPId[POAPIds.length - 2].receivedEth */\n      0x02\n      add\n      sload\n        /* \"contracts/Hook.sol\":6565:6635  uint ethAmount = transactionFromPOAPId[POAPIds.length - 2].receivedEth */\n      swap1\n      pop\n        /* \"contracts/Hook.sol\":6645:6662  uint amountToMint */\n      0x00\n        /* \"contracts/Hook.sol\":6663:6669  Oracle */\n      0x0a\n      0x00\n      swap1\n      sload\n      swap1\n      0x0100\n      exp\n      swap1\n      div\n      0xffffffffffffffffffffffffffffffffffffffff\n      and\n        /* \"contracts/Hook.sol\":6663:6683  Oracle.consultPrices */\n      0xffffffffffffffffffffffffffffffffffffffff\n      and\n      0x3ac35585\n        /* \"contracts/Hook.sol\":6684:6695  WethAddress */\n      0x00\n      dup1\n      sload\n      swap1\n      0x0100\n      exp\n      swap1\n      div\n      0xffffffffffffffffffffffffffffffffffffffff\n      and\n        /* \"contracts/Hook.sol\":6696:6705  ethAmount */\n      dup5\n        /* \"contracts/Hook.sol\":6663:6706  Oracle.consultPrices(WethAddress,ethAmount) */\n      mload(0x40)\n      dup4\n      0xffffffff\n      and\n      0xe0\n      shl\n      dup2\n      mstore\n      0x04\n      add\n      tag_241\n      swap3\n      swap2\n      swap1\n      tag_118\n      jump\t// in\n    tag_241:\n      0x20\n      mload(0x40)\n      dup1\n      dup4\n      sub\n      dup2\n      dup7\n      gas\n      staticcall\n      iszero\n      dup1\n      iszero\n      tag_243\n      jumpi\n      returndatasize\n      0x00\n      dup1\n      returndatacopy\n      revert(0x00, returndatasize)\n    tag_243:\n      pop\n      pop\n      pop\n      pop\n      mload(0x40)\n      returndatasize\n      not(0x1f)\n      0x1f\n      dup3\n      add\n      and\n      dup3\n      add\n      dup1\n      0x40\n      mstore\n      pop\n      dup2\n      add\n      swap1\n      tag_244\n      swap2\n      swap1\n      tag_116\n      jump\t// in\n    tag_244:\n        /* \"contracts/Hook.sol\":6645:6706  uint amountToMint=Oracle.consultPrices(WethAddress,ethAmount) */\n      swap1\n      pop\n        /* \"contracts/Hook.sol\":6725:6737  ERC20Address */\n      0x01\n      0x00\n      swap1\n      sload\n      swap1\n      0x0100\n      exp\n      swap1\n      div\n      0xffffffffffffffffffffffffffffffffffffffff\n      and\n        /* \"contracts/Hook.sol\":6716:6747  WethLike(ERC20Address).hookMint */\n      0xffffffffffffffffffffffffffffffffffffffff\n      and\n      0x96fe8349\n        /* \"contracts/Hook.sol\":6748:6760  amountToMint */\n      dup3\n        /* \"contracts/Hook.sol\":6761:6775  previousHolder */\n      dup6\n        /* \"contracts/Hook.sol\":6716:6776  WethLike(ERC20Address).hookMint(amountToMint,previousHolder) */\n      mload(0x40)\n      dup4\n      0xffffffff\n      and\n      0xe0\n      shl\n      dup2\n      mstore\n      0x04\n      add\n      tag_245\n      swap3\n      swap2\n      swap1\n      tag_208\n      jump\t// in\n    tag_245:\n      0x00\n      mload(0x40)\n      dup1\n      dup4\n      sub\n      dup2\n      0x00\n      dup8\n      dup1\n      extcodesize\n      iszero\n      dup1\n      iszero\n      tag_246\n      jumpi\n      0x00\n      dup1\n      revert\n    tag_246:\n      pop\n      gas\n      call\n      iszero\n      dup1\n      iszero\n      tag_248\n      jumpi\n      returndatasize\n      0x00\n      dup1\n      returndatacopy\n      revert(0x00, returndatasize)\n    tag_248:\n      pop\n      pop\n      pop\n      pop\n        /* \"contracts/Hook.sol\":6555:6783  {... */\n      pop\n      pop\n        /* \"contracts/Hook.sol\":6492:6783  function erc20ToPreviousHolder(address previousHolder) internal{... */\n      pop\n      jump\t// out\n        /* \"contracts/Hook.sol\":5866:6332  function buyTokens(uint _buyEth) internal returns (uint){... */\n    tag_189:\n        /* \"contracts/Hook.sol\":5917:5921  uint */\n      0x00\n        /* \"contracts/Hook.sol\":5932:5956  uint numberOfTokensToBuy */\n      dup1\n        /* \"contracts/Hook.sol\":5959:5965  Oracle */\n      0x0a\n      0x00\n      swap1\n      sload\n      swap1\n      0x0100\n      exp\n      swap1\n      div\n      0xffffffffffffffffffffffffffffffffffffffff\n      and\n        /* \"contracts/Hook.sol\":5959:5979  Oracle.consultPrices */\n      0xffffffffffffffffffffffffffffffffffffffff\n      and\n      0x3ac35585\n        /* \"contracts/Hook.sol\":5980:5991  WethAddress */\n      0x00\n      dup1\n      sload\n      swap1\n      0x0100\n      exp\n      swap1\n      div\n      0xffffffffffffffffffffffffffffffffffffffff\n      and\n        /* \"contracts/Hook.sol\":5993:6000  _buyEth */\n      dup6\n        /* \"contracts/Hook.sol\":5959:6001  Oracle.consultPrices(WethAddress, _buyEth) */\n      mload(0x40)\n      dup4\n      0xffffffff\n      and\n      0xe0\n      shl\n      dup2\n      mstore\n      0x04\n      add\n      tag_250\n      swap3\n      swap2\n      swap1\n      tag_118\n      jump\t// in\n    tag_250:\n      0x20\n      mload(0x40)\n      dup1\n      dup4\n      sub\n      dup2\n      dup7\n      gas\n      staticcall\n      iszero\n      dup1\n      iszero\n      tag_252\n      jumpi\n      returndatasize\n      0x00\n      dup1\n      returndatacopy\n      revert(0x00, returndatasize)\n    tag_252:\n      pop\n      pop\n      pop\n      pop\n      mload(0x40)\n      returndatasize\n      not(0x1f)\n      0x1f\n      dup3\n      add\n      and\n      dup3\n      add\n      dup1\n      0x40\n      mstore\n      pop\n      dup2\n      add\n      swap1\n      tag_253\n      swap2\n      swap1\n      tag_116\n      jump\t// in\n    tag_253:\n        /* \"contracts/Hook.sol\":5932:6001  uint numberOfTokensToBuy = Oracle.consultPrices(WethAddress, _buyEth) */\n      swap1\n      pop\n        /* \"contracts/Hook.sol\":6011:6028  uint amountOutMin */\n      0x00\n        /* \"contracts/Hook.sol\":6056:6059  100 */\n      0x64\n        /* \"contracts/Hook.sol\":6052:6054  95 */\n      0x5f\n        /* \"contracts/Hook.sol\":6032:6051  numberOfTokensToBuy */\n      dup4\n        /* \"contracts/Hook.sol\":6032:6054  numberOfTokensToBuy*95 */\n      tag_254\n      swap2\n      swap1\n      tag_148\n      jump\t// in\n    tag_254:\n        /* \"contracts/Hook.sol\":6031:6059  (numberOfTokensToBuy*95)/100 */\n      tag_255\n      swap2\n      swap1\n      tag_150\n      jump\t// in\n    tag_255:\n        /* \"contracts/Hook.sol\":6011:6059  uint amountOutMin = (numberOfTokensToBuy*95)/100 */\n      swap1\n      pop\n        /* \"contracts/Hook.sol\":6069:6090  uint[] memory _tokens */\n      0x00\n        /* \"contracts/Hook.sol\":6104:6105  2 */\n      0x02\n        /* \"contracts/Hook.sol\":6093:6106  new uint[](2) */\n      0xffffffffffffffff\n      dup2\n      gt\n      iszero\n      tag_256\n      jumpi\n      tag_257\n      tag_258\n      jump\t// in\n    tag_257:\n    tag_256:\n      mload(0x40)\n      swap1\n      dup1\n      dup3\n      mstore\n      dup1\n      0x20\n      mul\n      0x20\n      add\n      dup3\n      add\n      0x40\n      mstore\n      dup1\n      iszero\n      tag_259\n      jumpi\n      dup2\n      0x20\n      add\n      0x20\n      dup3\n      mul\n      dup1\n      calldatasize\n      dup4\n      calldatacopy\n      dup1\n      dup3\n      add\n      swap2\n      pop\n      pop\n      swap1\n      pop\n    tag_259:\n      pop\n        /* \"contracts/Hook.sol\":6069:6106  uint[] memory _tokens = new uint[](2) */\n      swap1\n      pop\n        /* \"contracts/Hook.sol\":6127:6140  UniswapRouter */\n      0x0b\n      0x00\n      swap1\n      sload\n      swap1\n      0x0100\n      exp\n      swap1\n      div\n      0xffffffffffffffffffffffffffffffffffffffff\n      and\n        /* \"contracts/Hook.sol\":6127:6162  UniswapRouter.swapExactETHForTokens */\n      0xffffffffffffffffffffffffffffffffffffffff\n      and\n      0x7ff36ab5\n        /* \"contracts/Hook.sol\":6170:6177  _buyEth */\n      dup7\n        /* \"contracts/Hook.sol\":6179:6191  amountOutMin */\n      dup5\n        /* \"contracts/Hook.sol\":6193:6197  path */\n      0x07\n        /* \"contracts/Hook.sol\":6199:6209  msg.sender */\n      caller\n        /* \"contracts/Hook.sol\":6211:6225  type(uint).max */\n      0xffffffffffffffffffffffffffffffffffffffffffffffffffffffffffffffff\n        /* \"contracts/Hook.sol\":6127:6226  UniswapRouter.swapExactETHForTokens{value: _buyEth}(amountOutMin, path, msg.sender, type(uint).max) */\n      mload(0x40)\n      dup7\n      0xffffffff\n      and\n      0xe0\n      shl\n      dup2\n      mstore\n      0x04\n      add\n      tag_260\n      swap5\n      swap4\n      swap3\n      swap2\n      swap1\n      tag_261\n      jump\t// in\n    tag_260:\n      0x00\n      mload(0x40)\n      dup1\n      dup4\n      sub\n      dup2\n      dup6\n      dup9\n      gas\n      call\n      iszero\n      dup1\n      iszero\n      tag_263\n      jumpi\n      returndatasize\n      0x00\n      dup1\n      returndatacopy\n      revert(0x00, returndatasize)\n    tag_263:\n      pop\n      pop\n      pop\n      pop\n      pop\n      mload(0x40)\n      returndatasize\n      0x00\n      dup3\n      returndatacopy\n      returndatasize\n      not(0x1f)\n      0x1f\n      dup3\n      add\n      and\n      dup3\n      add\n      dup1\n      0x40\n      mstore\n      pop\n      dup2\n      add\n      swap1\n      tag_264\n      swap2\n      swap1\n      tag_265\n      jump\t// in\n    tag_264:\n        /* \"contracts/Hook.sol\":6117:6226  _tokens = UniswapRouter.swapExactETHForTokens{value: _buyEth}(amountOutMin, path, msg.sender, type(uint).max) */\n      swap1\n      pop\n        /* \"contracts/Hook.sol\":6305:6312  _tokens */\n      dup1\n        /* \"contracts/Hook.sol\":6313:6314  1 */\n      0x01\n        /* \"contracts/Hook.sol\":6305:6315  _tokens[1] */\n      dup2\n      mload\n      dup2\n      lt\n      tag_266\n      jumpi\n      tag_267\n      tag_268\n      jump\t// in\n    tag_267:\n    tag_266:\n      0x20\n      mul\n      0x20\n      add\n      add\n      mload\n        /* \"contracts/Hook.sol\":6298:6315  return _tokens[1] */\n      swap4\n      pop\n      pop\n      pop\n      pop\n        /* \"contracts/Hook.sol\":5866:6332  function buyTokens(uint _buyEth) internal returns (uint){... */\n      swap2\n      swap1\n      pop\n      jump\t// out\n        /* \"#utility.yul\":7:82   */\n    tag_269:\n        /* \"#utility.yul\":40:46   */\n      0x00\n        /* \"#utility.yul\":73:75   */\n      0x40\n        /* \"#utility.yul\":67:76   */\n      mload\n        /* \"#utility.yul\":57:76   */\n      swap1\n      pop\n        /* \"#utility.yul\":7:82   */\n      swap1\n      jump\t// out\n        /* \"#utility.yul\":88:205   */\n    tag_270:\n        /* \"#utility.yul\":197:198   */\n      0x00\n        /* \"#utility.yul\":194:195   */\n      dup1\n        /* \"#utility.yul\":187:199   */\n      revert\n        /* \"#utility.yul\":211:328   */\n    tag_271:\n        /* \"#utility.yul\":320:321   */\n      0x00\n        /* \"#utility.yul\":317:318   */\n      dup1\n        /* \"#utility.yul\":310:322   */\n      revert\n        /* \"#utility.yul\":334:460   */\n    tag_272:\n        /* \"#utility.yul\":371:378   */\n      0x00\n        /* \"#utility.yul\":411:453   */\n      0xffffffffffffffffffffffffffffffffffffffff\n        /* \"#utility.yul\":404:409   */\n      dup3\n        /* \"#utility.yul\":400:454   */\n      and\n        /* \"#utility.yul\":389:454   */\n      swap1\n      pop\n        /* \"#utility.yul\":334:460   */\n      swap2\n      swap1\n      pop\n      jump\t// out\n        /* \"#utility.yul\":466:562   */\n    tag_273:\n        /* \"#utility.yul\":503:510   */\n      0x00\n        /* \"#utility.yul\":532:556   */\n      tag_318\n        /* \"#utility.yul\":550:555   */\n      dup3\n        /* \"#utility.yul\":532:556   */\n      tag_272\n      jump\t// in\n    tag_318:\n        /* \"#utility.yul\":521:556   */\n      swap1\n      pop\n        /* \"#utility.yul\":466:562   */\n      swap2\n      swap1\n      pop\n      jump\t// out\n        /* \"#utility.yul\":568:690   */\n    tag_274:\n        /* \"#utility.yul\":641:665   */\n      tag_320\n        /* \"#utility.yul\":659:664   */\n      dup2\n        /* \"#utility.yul\":641:665   */\n      tag_273\n      jump\t// in\n    tag_320:\n        /* \"#utility.yul\":634:639   */\n      dup2\n        /* \"#utility.yul\":631:666   */\n      eq\n        /* \"#utility.yul\":621:684   */\n      tag_321\n      jumpi\n        /* \"#utility.yul\":680:681   */\n      0x00\n        /* \"#utility.yul\":677:678   */\n      dup1\n        /* \"#utility.yul\":670:682   */\n      revert\n        /* \"#utility.yul\":621:684   */\n    tag_321:\n        /* \"#utility.yul\":568:690   */\n      pop\n      jump\t// out\n        /* \"#utility.yul\":696:835   */\n    tag_275:\n        /* \"#utility.yul\":742:747   */\n      0x00\n        /* \"#utility.yul\":780:786   */\n      dup2\n        /* \"#utility.yul\":767:787   */\n      calldataload\n        /* \"#utility.yul\":758:787   */\n      swap1\n      pop\n        /* \"#utility.yul\":796:829   */\n      tag_323\n        /* \"#utility.yul\":823:828   */\n      dup2\n        /* \"#utility.yul\":796:829   */\n      tag_274\n      jump\t// in\n    tag_323:\n        /* \"#utility.yul\":696:835   */\n      swap3\n      swap2\n      pop\n      pop\n      jump\t// out\n        /* \"#utility.yul\":841:1170   */\n    tag_30:\n        /* \"#utility.yul\":900:906   */\n      0x00\n        /* \"#utility.yul\":949:951   */\n      0x20\n        /* \"#utility.yul\":937:946   */\n      dup3\n        /* \"#utility.yul\":928:935   */\n      dup5\n        /* \"#utility.yul\":924:947   */\n      sub\n        /* \"#utility.yul\":920:952   */\n      slt\n        /* \"#utility.yul\":917:1036   */\n      iszero\n      tag_325\n      jumpi\n        /* \"#utility.yul\":955:1034   */\n      tag_326\n      tag_270\n      jump\t// in\n    tag_326:\n        /* \"#utility.yul\":917:1036   */\n    tag_325:\n        /* \"#utility.yul\":1075:1076   */\n      0x00\n        /* \"#utility.yul\":1100:1153   */\n      tag_327\n        /* \"#utility.yul\":1145:1152   */\n      dup5\n        /* \"#utility.yul\":1136:1142   */\n      dup3\n        /* \"#utility.yul\":1125:1134   */\n      dup6\n        /* \"#utility.yul\":1121:1143   */\n      add\n        /* \"#utility.yul\":1100:1153   */\n      tag_275\n      jump\t// in\n    tag_327:\n        /* \"#utility.yul\":1090:1153   */\n      swap2\n      pop\n        /* \"#utility.yul\":1046:1163   */\n      pop\n        /* \"#utility.yul\":841:1170   */\n      swap3\n      swap2\n      pop\n      pop\n      jump\t// out\n        /* \"#utility.yul\":1176:1294   */\n    tag_276:\n        /* \"#utility.yul\":1263:1287   */\n      tag_329\n        /* \"#utility.yul\":1281:1286   */\n      dup2\n        /* \"#utility.yul\":1263:1287   */\n      tag_273\n      jump\t// in\n    tag_329:\n        /* \"#utility.yul\":1258:1261   */\n      dup3\n        /* \"#utility.yul\":1251:1288   */\n      mstore\n        /* \"#utility.yul\":1176:1294   */\n      pop\n      pop\n      jump\t// out\n        /* \"#utility.yul\":1300:1522   */\n    tag_36:\n        /* \"#utility.yul\":1393:1397   */\n      0x00\n        /* \"#utility.yul\":1431:1433   */\n      0x20\n        /* \"#utility.yul\":1420:1429   */\n      dup3\n        /* \"#utility.yul\":1416:1434   */\n      add\n        /* \"#utility.yul\":1408:1434   */\n      swap1\n      pop\n        /* \"#utility.yul\":1444:1515   */\n      tag_331\n        /* \"#utility.yul\":1512:1513   */\n      0x00\n        /* \"#utility.yul\":1501:1510   */\n      dup4\n        /* \"#utility.yul\":1497:1514   */\n      add\n        /* \"#utility.yul\":1488:1494   */\n      dup5\n        /* \"#utility.yul\":1444:1515   */\n      tag_276\n      jump\t// in\n    tag_331:\n        /* \"#utility.yul\":1300:1522   */\n      swap3\n      swap2\n      pop\n      pop\n      jump\t// out\n        /* \"#utility.yul\":1528:1605   */\n    tag_277:\n        /* \"#utility.yul\":1565:1572   */\n      0x00\n        /* \"#utility.yul\":1594:1599   */\n      dup2\n        /* \"#utility.yul\":1583:1599   */\n      swap1\n      pop\n        /* \"#utility.yul\":1528:1605   */\n      swap2\n      swap1\n      pop\n      jump\t// out\n        /* \"#utility.yul\":1611:1733   */\n    tag_278:\n        /* \"#utility.yul\":1684:1708   */\n      tag_334\n        /* \"#utility.yul\":1702:1707   */\n      dup2\n        /* \"#utility.yul\":1684:1708   */\n      tag_277\n      jump\t// in\n    tag_334:\n        /* \"#utility.yul\":1677:1682   */\n      dup2\n        /* \"#utility.yul\":1674:1709   */\n      eq\n        /* \"#utility.yul\":1664:1727   */\n      tag_335\n      jumpi\n        /* \"#utility.yul\":1723:1724   */\n      0x00\n        /* \"#utility.yul\":1720:1721   */\n      dup1\n        /* \"#utility.yul\":1713:1725   */\n      revert\n        /* \"#utility.yul\":1664:1727   */\n    tag_335:\n        /* \"#utility.yul\":1611:1733   */\n      pop\n      jump\t// out\n        /* \"#utility.yul\":1739:1878   */\n    tag_279:\n        /* \"#utility.yul\":1785:1790   */\n      0x00\n        /* \"#utility.yul\":1823:1829   */\n      dup2\n        /* \"#utility.yul\":1810:1830   */\n      calldataload\n        /* \"#utility.yul\":1801:1830   */\n      swap1\n      pop\n        /* \"#utility.yul\":1839:1872   */\n      tag_337\n        /* \"#utility.yul\":1866:1871   */\n      dup2\n        /* \"#utility.yul\":1839:1872   */\n      tag_278\n      jump\t// in\n    tag_337:\n        /* \"#utility.yul\":1739:1878   */\n      swap3\n      swap2\n      pop\n      pop\n      jump\t// out\n        /* \"#utility.yul\":1884:2213   */\n    tag_40:\n        /* \"#utility.yul\":1943:1949   */\n      0x00\n        /* \"#utility.yul\":1992:1994   */\n      0x20\n        /* \"#utility.yul\":1980:1989   */\n      dup3\n        /* \"#utility.yul\":1971:1978   */\n      dup5\n        /* \"#utility.yul\":1967:1990   */\n      sub\n        /* \"#utility.yul\":1963:1995   */\n      slt\n        /* \"#utility.yul\":1960:2079   */\n      iszero\n      tag_339\n      jumpi\n        /* \"#utility.yul\":1998:2077   */\n      tag_340\n      tag_270\n      jump\t// in\n    tag_340:\n        /* \"#utility.yul\":1960:2079   */\n    tag_339:\n        /* \"#utility.yul\":2118:2119   */\n      0x00\n        /* \"#utility.yul\":2143:2196   */\n      tag_341\n        /* \"#utility.yul\":2188:2195   */\n      dup5\n        /* \"#utility.yul\":2179:2185   */\n      dup3\n        /* \"#utility.yul\":2168:2177   */\n      dup6\n        /* \"#utility.yul\":2164:2186   */\n      add\n        /* \"#utility.yul\":2143:2196   */\n      tag_279\n      jump\t// in\n    tag_341:\n        /* \"#utility.yul\":2133:2196   */\n      swap2\n      pop\n        /* \"#utility.yul\":2089:2206   */\n      pop\n        /* \"#utility.yul\":1884:2213   */\n      swap3\n      swap2\n      pop\n      pop\n      jump\t// out\n        /* \"#utility.yul\":2219:2337   */\n    tag_280:\n        /* \"#utility.yul\":2306:2330   */\n      tag_343\n        /* \"#utility.yul\":2324:2329   */\n      dup2\n        /* \"#utility.yul\":2306:2330   */\n      tag_277\n      jump\t// in\n    tag_343:\n        /* \"#utility.yul\":2301:2304   */\n      dup3\n        /* \"#utility.yul\":2294:2331   */\n      mstore\n        /* \"#utility.yul\":2219:2337   */\n      pop\n      pop\n      jump\t// out\n        /* \"#utility.yul\":2343:2433   */\n    tag_281:\n        /* \"#utility.yul\":2377:2384   */\n      0x00\n        /* \"#utility.yul\":2420:2425   */\n      dup2\n        /* \"#utility.yul\":2413:2426   */\n      iszero\n        /* \"#utility.yul\":2406:2427   */\n      iszero\n        /* \"#utility.yul\":2395:2427   */\n      swap1\n      pop\n        /* \"#utility.yul\":2343:2433   */\n      swap2\n      swap1\n      pop\n      jump\t// out\n        /* \"#utility.yul\":2439:2548   */\n    tag_282:\n        /* \"#utility.yul\":2520:2541   */\n      tag_346\n        /* \"#utility.yul\":2535:2540   */\n      dup2\n        /* \"#utility.yul\":2520:2541   */\n      tag_281\n      jump\t// in\n    tag_346:\n        /* \"#utility.yul\":2515:2518   */\n      dup3\n        /* \"#utility.yul\":2508:2542   */\n      mstore\n        /* \"#utility.yul\":2439:2548   */\n      pop\n      pop\n      jump\t// out\n        /* \"#utility.yul\":2554:3305   */\n    tag_43:\n        /* \"#utility.yul\":2775:2779   */\n      0x00\n        /* \"#utility.yul\":2813:2816   */\n      0xc0\n        /* \"#utility.yul\":2802:2811   */\n      dup3\n        /* \"#utility.yul\":2798:2817   */\n      add\n        /* \"#utility.yul\":2790:2817   */\n      swap1\n      pop\n        /* \"#utility.yul\":2827:2898   */\n      tag_348\n        /* \"#utility.yul\":2895:2896   */\n      0x00\n        /* \"#utility.yul\":2884:2893   */\n      dup4\n        /* \"#utility.yul\":2880:2897   */\n      add\n        /* \"#utility.yul\":2871:2877   */\n      dup10\n        /* \"#utility.yul\":2827:2898   */\n      tag_280\n      jump\t// in\n    tag_348:\n        /* \"#utility.yul\":2908:2980   */\n      tag_349\n        /* \"#utility.yul\":2976:2978   */\n      0x20\n        /* \"#utility.yul\":2965:2974   */\n      dup4\n        /* \"#utility.yul\":2961:2979   */\n      add\n        /* \"#utility.yul\":2952:2958   */\n      dup9\n        /* \"#utility.yul\":2908:2980   */\n      tag_276\n      jump\t// in\n    tag_349:\n        /* \"#utility.yul\":2990:3062   */\n      tag_350\n        /* \"#utility.yul\":3058:3060   */\n      0x40\n        /* \"#utility.yul\":3047:3056   */\n      dup4\n        /* \"#utility.yul\":3043:3061   */\n      add\n        /* \"#utility.yul\":3034:3040   */\n      dup8\n        /* \"#utility.yul\":2990:3062   */\n      tag_280\n      jump\t// in\n    tag_350:\n        /* \"#utility.yul\":3072:3138   */\n      tag_351\n        /* \"#utility.yul\":3134:3136   */\n      0x60\n        /* \"#utility.yul\":3123:3132   */\n      dup4\n        /* \"#utility.yul\":3119:3137   */\n      add\n        /* \"#utility.yul\":3110:3116   */\n      dup7\n        /* \"#utility.yul\":3072:3138   */\n      tag_282\n      jump\t// in\n    tag_351:\n        /* \"#utility.yul\":3148:3221   */\n      tag_352\n        /* \"#utility.yul\":3216:3219   */\n      0x80\n        /* \"#utility.yul\":3205:3214   */\n      dup4\n        /* \"#utility.yul\":3201:3220   */\n      add\n        /* \"#utility.yul\":3192:3198   */\n      dup6\n        /* \"#utility.yul\":3148:3221   */\n      tag_280\n      jump\t// in\n    tag_352:\n        /* \"#utility.yul\":3231:3298   */\n      tag_353\n        /* \"#utility.yul\":3293:3296   */\n      0xa0\n        /* \"#utility.yul\":3282:3291   */\n      dup4\n        /* \"#utility.yul\":3278:3297   */\n      add\n        /* \"#utility.yul\":3269:3275   */\n      dup5\n        /* \"#utility.yul\":3231:3298   */\n      tag_282\n      jump\t// in\n    tag_353:\n        /* \"#utility.yul\":2554:3305   */\n      swap8\n      swap7\n      pop\n      pop\n      pop\n      pop\n      pop\n      pop\n      pop\n      jump\t// out\n        /* \"#utility.yul\":3311:3533   */\n    tag_48:\n        /* \"#utility.yul\":3404:3408   */\n      0x00\n        /* \"#utility.yul\":3442:3444   */\n      0x20\n        /* \"#utility.yul\":3431:3440   */\n      dup3\n        /* \"#utility.yul\":3427:3445   */\n      add\n        /* \"#utility.yul\":3419:3445   */\n      swap1\n      pop\n        /* \"#utility.yul\":3455:3526   */\n      tag_355\n        /* \"#utility.yul\":3523:3524   */\n      0x00\n        /* \"#utility.yul\":3512:3521   */\n      dup4\n        /* \"#utility.yul\":3508:3525   */\n      add\n        /* \"#utility.yul\":3499:3505   */\n      dup5\n        /* \"#utility.yul\":3455:3526   */\n      tag_280\n      jump\t// in\n    tag_355:\n        /* \"#utility.yul\":3311:3533   */\n      swap3\n      swap2\n      pop\n      pop\n      jump\t// out\n        /* \"#utility.yul\":3539:3749   */\n    tag_58:\n        /* \"#utility.yul\":3626:3630   */\n      0x00\n        /* \"#utility.yul\":3664:3666   */\n      0x20\n        /* \"#utility.yul\":3653:3662   */\n      dup3\n        /* \"#utility.yul\":3649:3667   */\n      add\n        /* \"#utility.yul\":3641:3667   */\n      swap1\n      pop\n        /* \"#utility.yul\":3677:3742   */\n      tag_357\n        /* \"#utility.yul\":3739:3740   */\n      0x00\n        /* \"#utility.yul\":3728:3737   */\n      dup4\n        /* \"#utility.yul\":3724:3741   */\n      add\n        /* \"#utility.yul\":3715:3721   */\n      dup5\n        /* \"#utility.yul\":3677:3742   */\n      tag_282\n      jump\t// in\n    tag_357:\n        /* \"#utility.yul\":3539:3749   */\n      swap3\n      swap2\n      pop\n      pop\n      jump\t// out\n        /* \"#utility.yul\":3755:3898   */\n    tag_283:\n        /* \"#utility.yul\":3812:3817   */\n      0x00\n        /* \"#utility.yul\":3843:3849   */\n      dup2\n        /* \"#utility.yul\":3837:3850   */\n      mload\n        /* \"#utility.yul\":3828:3850   */\n      swap1\n      pop\n        /* \"#utility.yul\":3859:3892   */\n      tag_359\n        /* \"#utility.yul\":3886:3891   */\n      dup2\n        /* \"#utility.yul\":3859:3892   */\n      tag_278\n      jump\t// in\n    tag_359:\n        /* \"#utility.yul\":3755:3898   */\n      swap3\n      swap2\n      pop\n      pop\n      jump\t// out\n        /* \"#utility.yul\":3904:4255   */\n    tag_116:\n        /* \"#utility.yul\":3974:3980   */\n      0x00\n        /* \"#utility.yul\":4023:4025   */\n      0x20\n        /* \"#utility.yul\":4011:4020   */\n      dup3\n        /* \"#utility.yul\":4002:4009   */\n      dup5\n        /* \"#utility.yul\":3998:4021   */\n      sub\n        /* \"#utility.yul\":3994:4026   */\n      slt\n        /* \"#utility.yul\":3991:4110   */\n      iszero\n      tag_361\n      jumpi\n        /* \"#utility.yul\":4029:4108   */\n      tag_362\n      tag_270\n      jump\t// in\n    tag_362:\n        /* \"#utility.yul\":3991:4110   */\n    tag_361:\n        /* \"#utility.yul\":4149:4150   */\n      0x00\n        /* \"#utility.yul\":4174:4238   */\n      tag_363\n        /* \"#utility.yul\":4230:4237   */\n      dup5\n        /* \"#utility.yul\":4221:4227   */\n      dup3\n        /* \"#utility.yul\":4210:4219   */\n      dup6\n        /* \"#utility.yul\":4206:4228   */\n      add\n        /* \"#utility.yul\":4174:4238   */\n      tag_283\n      jump\t// in\n    tag_363:\n        /* \"#utility.yul\":4164:4238   */\n      swap2\n      pop\n        /* \"#utility.yul\":4120:4248   */\n      pop\n        /* \"#utility.yul\":3904:4255   */\n      swap3\n      swap2\n      pop\n      pop\n      jump\t// out\n        /* \"#utility.yul\":4261:4593   */\n    tag_118:\n        /* \"#utility.yul\":4382:4386   */\n      0x00\n        /* \"#utility.yul\":4420:4422   */\n      0x40\n        /* \"#utility.yul\":4409:4418   */\n      dup3\n        /* \"#utility.yul\":4405:4423   */\n      add\n        /* \"#utility.yul\":4397:4423   */\n      swap1\n      pop\n        /* \"#utility.yul\":4433:4504   */\n      tag_365\n        /* \"#utility.yul\":4501:4502   */\n      0x00\n        /* \"#utility.yul\":4490:4499   */\n      dup4\n        /* \"#utility.yul\":4486:4503   */\n      add\n        /* \"#utility.yul\":4477:4483   */\n      dup6\n        /* \"#utility.yul\":4433:4504   */\n      tag_276\n      jump\t// in\n    tag_365:\n        /* \"#utility.yul\":4514:4586   */\n      tag_366\n        /* \"#utility.yul\":4582:4584   */\n      0x20\n        /* \"#utility.yul\":4571:4580   */\n      dup4\n        /* \"#utility.yul\":4567:4585   */\n      add\n        /* \"#utility.yul\":4558:4564   */\n      dup5\n        /* \"#utility.yul\":4514:4586   */\n      tag_280\n      jump\t// in\n    tag_366:\n        /* \"#utility.yul\":4261:4593   */\n      swap4\n      swap3\n      pop\n      pop\n      pop\n      jump\t// out\n        /* \"#utility.yul\":4599:4715   */\n    tag_284:\n        /* \"#utility.yul\":4669:4690   */\n      tag_368\n        /* \"#utility.yul\":4684:4689   */\n      dup2\n        /* \"#utility.yul\":4669:4690   */\n      tag_281\n      jump\t// in\n    tag_368:\n        /* \"#utility.yul\":4662:4667   */\n      dup2\n        /* \"#utility.yul\":4659:4691   */\n      eq\n        /* \"#utility.yul\":4649:4709   */\n      tag_369\n      jumpi\n        /* \"#utility.yul\":4705:4706   */\n      0x00\n        /* \"#utility.yul\":4702:4703   */\n      dup1\n        /* \"#utility.yul\":4695:4707   */\n      revert\n        /* \"#utility.yul\":4649:4709   */\n    tag_369:\n        /* \"#utility.yul\":4599:4715   */\n      pop\n      jump\t// out\n        /* \"#utility.yul\":4721:4858   */\n    tag_285:\n        /* \"#utility.yul\":4775:4780   */\n      0x00\n        /* \"#utility.yul\":4806:4812   */\n      dup2\n        /* \"#utility.yul\":4800:4813   */\n      mload\n        /* \"#utility.yul\":4791:4813   */\n      swap1\n      pop\n        /* \"#utility.yul\":4822:4852   */\n      tag_371\n        /* \"#utility.yul\":4846:4851   */\n      dup2\n        /* \"#utility.yul\":4822:4852   */\n      tag_284\n      jump\t// in\n    tag_371:\n        /* \"#utility.yul\":4721:4858   */\n      swap3\n      swap2\n      pop\n      pop\n      jump\t// out\n        /* \"#utility.yul\":4864:5209   */\n    tag_122:\n        /* \"#utility.yul\":4931:4937   */\n      0x00\n        /* \"#utility.yul\":4980:4982   */\n      0x20\n        /* \"#utility.yul\":4968:4977   */\n      dup3\n        /* \"#utility.yul\":4959:4966   */\n      dup5\n        /* \"#utility.yul\":4955:4978   */\n      sub\n        /* \"#utility.yul\":4951:4983   */\n      slt\n        /* \"#utility.yul\":4948:5067   */\n      iszero\n      tag_373\n      jumpi\n        /* \"#utility.yul\":4986:5065   */\n      tag_374\n      tag_270\n      jump\t// in\n    tag_374:\n        /* \"#utility.yul\":4948:5067   */\n    tag_373:\n        /* \"#utility.yul\":5106:5107   */\n      0x00\n        /* \"#utility.yul\":5131:5192   */\n      tag_375\n        /* \"#utility.yul\":5184:5191   */\n      dup5\n        /* \"#utility.yul\":5175:5181   */\n      dup3\n        /* \"#utility.yul\":5164:5173   */\n      dup6\n        /* \"#utility.yul\":5160:5182   */\n      add\n        /* \"#utility.yul\":5131:5192   */\n      tag_285\n      jump\t// in\n    tag_375:\n        /* \"#utility.yul\":5121:5192   */\n      swap2\n      pop\n        /* \"#utility.yul\":5077:5202   */\n      pop\n        /* \"#utility.yul\":4864:5209   */\n      swap3\n      swap2\n      pop\n      pop\n      jump\t// out\n        /* \"#utility.yul\":5215:5395   */\n    tag_286:\n        /* \"#utility.yul\":5263:5340   */\n      0x4e487b7100000000000000000000000000000000000000000000000000000000\n        /* \"#utility.yul\":5260:5261   */\n      0x00\n        /* \"#utility.yul\":5253:5341   */\n      mstore\n        /* \"#utility.yul\":5360:5364   */\n      0x11\n        /* \"#utility.yul\":5357:5358   */\n      0x04\n        /* \"#utility.yul\":5350:5365   */\n      mstore\n        /* \"#utility.yul\":5384:5388   */\n      0x24\n        /* \"#utility.yul\":5381:5382   */\n      0x00\n        /* \"#utility.yul\":5374:5389   */\n      revert\n        /* \"#utility.yul\":5401:5811   */\n    tag_148:\n        /* \"#utility.yul\":5441:5448   */\n      0x00\n        /* \"#utility.yul\":5464:5484   */\n      tag_378\n        /* \"#utility.yul\":5482:5483   */\n      dup3\n        /* \"#utility.yul\":5464:5484   */\n      tag_277\n      jump\t// in\n    tag_378:\n        /* \"#utility.yul\":5459:5484   */\n      swap2\n      pop\n        /* \"#utility.yul\":5498:5518   */\n      tag_379\n        /* \"#utility.yul\":5516:5517   */\n      dup4\n        /* \"#utility.yul\":5498:5518   */\n      tag_277\n      jump\t// in\n    tag_379:\n        /* \"#utility.yul\":5493:5518   */\n      swap3\n      pop\n        /* \"#utility.yul\":5553:5554   */\n      dup3\n        /* \"#utility.yul\":5550:5551   */\n      dup3\n        /* \"#utility.yul\":5546:5555   */\n      mul\n        /* \"#utility.yul\":5575:5605   */\n      tag_380\n        /* \"#utility.yul\":5593:5604   */\n      dup2\n        /* \"#utility.yul\":5575:5605   */\n      tag_277\n      jump\t// in\n    tag_380:\n        /* \"#utility.yul\":5564:5605   */\n      swap2\n      pop\n        /* \"#utility.yul\":5754:5755   */\n      dup3\n        /* \"#utility.yul\":5745:5752   */\n      dup3\n        /* \"#utility.yul\":5741:5756   */\n      div\n        /* \"#utility.yul\":5738:5739   */\n      dup5\n        /* \"#utility.yul\":5735:5757   */\n      eq\n        /* \"#utility.yul\":5715:5716   */\n      dup4\n        /* \"#utility.yul\":5708:5717   */\n      iszero\n        /* \"#utility.yul\":5688:5771   */\n      or\n        /* \"#utility.yul\":5665:5804   */\n      tag_381\n      jumpi\n        /* \"#utility.yul\":5784:5802   */\n      tag_382\n      tag_286\n      jump\t// in\n    tag_382:\n        /* \"#utility.yul\":5665:5804   */\n    tag_381:\n        /* \"#utility.yul\":5449:5811   */\n      pop\n        /* \"#utility.yul\":5401:5811   */\n      swap3\n      swap2\n      pop\n      pop\n      jump\t// out\n        /* \"#utility.yul\":5817:5997   */\n    tag_287:\n        /* \"#utility.yul\":5865:5942   */\n      0x4e487b7100000000000000000000000000000000000000000000000000000000\n        /* \"#utility.yul\":5862:5863   */\n      0x00\n        /* \"#utility.yul\":5855:5943   */\n      mstore\n        /* \"#utility.yul\":5962:5966   */\n      0x12\n        /* \"#utility.yul\":5959:5960   */\n      0x04\n        /* \"#utility.yul\":5952:5967   */\n      mstore\n        /* \"#utility.yul\":5986:5990   */\n      0x24\n        /* \"#utility.yul\":5983:5984   */\n      0x00\n        /* \"#utility.yul\":5976:5991   */\n      revert\n        /* \"#utility.yul\":6003:6188   */\n    tag_150:\n        /* \"#utility.yul\":6043:6044   */\n      0x00\n        /* \"#utility.yul\":6060:6080   */\n      tag_385\n        /* \"#utility.yul\":6078:6079   */\n      dup3\n        /* \"#utility.yul\":6060:6080   */\n      tag_277\n      jump\t// in\n    tag_385:\n        /* \"#utility.yul\":6055:6080   */\n      swap2\n      pop\n        /* \"#utility.yul\":6094:6114   */\n      tag_386\n        /* \"#utility.yul\":6112:6113   */\n      dup4\n        /* \"#utility.yul\":6094:6114   */\n      tag_277\n      jump\t// in\n    tag_386:\n        /* \"#utility.yul\":6089:6114   */\n      swap3\n      pop\n        /* \"#utility.yul\":6133:6134   */\n      dup3\n        /* \"#utility.yul\":6123:6158   */\n      tag_387\n      jumpi\n        /* \"#utility.yul\":6138:6156   */\n      tag_388\n      tag_287\n      jump\t// in\n    tag_388:\n        /* \"#utility.yul\":6123:6158   */\n    tag_387:\n        /* \"#utility.yul\":6180:6181   */\n      dup3\n        /* \"#utility.yul\":6177:6178   */\n      dup3\n        /* \"#utility.yul\":6173:6182   */\n      div\n        /* \"#utility.yul\":6168:6182   */\n      swap1\n      pop\n        /* \"#utility.yul\":6003:6188   */\n      swap3\n      swap2\n      pop\n      pop\n      jump\t// out\n        /* \"#utility.yul\":6194:6388   */\n    tag_158:\n        /* \"#utility.yul\":6234:6238   */\n      0x00\n        /* \"#utility.yul\":6254:6274   */\n      tag_390\n        /* \"#utility.yul\":6272:6273   */\n      dup3\n        /* \"#utility.yul\":6254:6274   */\n      tag_277\n      jump\t// in\n    tag_390:\n        /* \"#utility.yul\":6249:6274   */\n      swap2\n      pop\n        /* \"#utility.yul\":6288:6308   */\n      tag_391\n        /* \"#utility.yul\":6306:6307   */\n      dup4\n        /* \"#utility.yul\":6288:6308   */\n      tag_277\n      jump\t// in\n    tag_391:\n        /* \"#utility.yul\":6283:6308   */\n      swap3\n      pop\n        /* \"#utility.yul\":6332:6333   */\n      dup3\n        /* \"#utility.yul\":6329:6330   */\n      dup3\n        /* \"#utility.yul\":6325:6334   */\n      sub\n        /* \"#utility.yul\":6317:6334   */\n      swap1\n      pop\n        /* \"#utility.yul\":6356:6357   */\n      dup2\n        /* \"#utility.yul\":6350:6354   */\n      dup2\n        /* \"#utility.yul\":6347:6358   */\n      gt\n        /* \"#utility.yul\":6344:6381   */\n      iszero\n      tag_392\n      jumpi\n        /* \"#utility.yul\":6361:6379   */\n      tag_393\n      tag_286\n      jump\t// in\n    tag_393:\n        /* \"#utility.yul\":6344:6381   */\n    tag_392:\n        /* \"#utility.yul\":6194:6388   */\n      swap3\n      swap2\n      pop\n      pop\n      jump\t// out\n        /* \"#utility.yul\":6394:6585   */\n    tag_180:\n        /* \"#utility.yul\":6434:6437   */\n      0x00\n        /* \"#utility.yul\":6453:6473   */\n      tag_395\n        /* \"#utility.yul\":6471:6472   */\n      dup3\n        /* \"#utility.yul\":6453:6473   */\n      tag_277\n      jump\t// in\n    tag_395:\n        /* \"#utility.yul\":6448:6473   */\n      swap2\n      pop\n        /* \"#utility.yul\":6487:6507   */\n      tag_396\n        /* \"#utility.yul\":6505:6506   */\n      dup4\n        /* \"#utility.yul\":6487:6507   */\n      tag_277\n      jump\t// in\n    tag_396:\n        /* \"#utility.yul\":6482:6507   */\n      swap3\n      pop\n        /* \"#utility.yul\":6530:6531   */\n      dup3\n        /* \"#utility.yul\":6527:6528   */\n      dup3\n        /* \"#utility.yul\":6523:6532   */\n      add\n        /* \"#utility.yul\":6516:6532   */\n      swap1\n      pop\n        /* \"#utility.yul\":6551:6554   */\n      dup1\n        /* \"#utility.yul\":6548:6549   */\n      dup3\n        /* \"#utility.yul\":6545:6555   */\n      gt\n        /* \"#utility.yul\":6542:6578   */\n      iszero\n      tag_397\n      jumpi\n        /* \"#utility.yul\":6558:6576   */\n      tag_398\n      tag_286\n      jump\t// in\n    tag_398:\n        /* \"#utility.yul\":6542:6578   */\n    tag_397:\n        /* \"#utility.yul\":6394:6585   */\n      swap3\n      swap2\n      pop\n      pop\n      jump\t// out\n        /* \"#utility.yul\":6591:6923   */\n    tag_208:\n        /* \"#utility.yul\":6712:6716   */\n      0x00\n        /* \"#utility.yul\":6750:6752   */\n      0x40\n        /* \"#utility.yul\":6739:6748   */\n      dup3\n        /* \"#utility.yul\":6735:6753   */\n      add\n        /* \"#utility.yul\":6727:6753   */\n      swap1\n      pop\n        /* \"#utility.yul\":6763:6834   */\n      tag_400\n        /* \"#utility.yul\":6831:6832   */\n      0x00\n        /* \"#utility.yul\":6820:6829   */\n      dup4\n        /* \"#utility.yul\":6816:6833   */\n      add\n        /* \"#utility.yul\":6807:6813   */\n      dup6\n        /* \"#utility.yul\":6763:6834   */\n      tag_280\n      jump\t// in\n    tag_400:\n        /* \"#utility.yul\":6844:6916   */\n      tag_401\n        /* \"#utility.yul\":6912:6914   */\n      0x20\n        /* \"#utility.yul\":6901:6910   */\n      dup4\n        /* \"#utility.yul\":6897:6915   */\n      add\n        /* \"#utility.yul\":6888:6894   */\n      dup5\n        /* \"#utility.yul\":6844:6916   */\n      tag_276\n      jump\t// in\n    tag_401:\n        /* \"#utility.yul\":6591:6923   */\n      swap4\n      swap3\n      pop\n      pop\n      pop\n      jump\t// out\n        /* \"#utility.yul\":6929:7704   */\n    tag_221:\n        /* \"#utility.yul\":7162:7166   */\n      0x00\n        /* \"#utility.yul\":7200:7203   */\n      0xc0\n        /* \"#utility.yul\":7189:7198   */\n      dup3\n        /* \"#utility.yul\":7185:7204   */\n      add\n        /* \"#utility.yul\":7177:7204   */\n      swap1\n      pop\n        /* \"#utility.yul\":7214:7285   */\n      tag_403\n        /* \"#utility.yul\":7282:7283   */\n      0x00\n        /* \"#utility.yul\":7271:7280   */\n      dup4\n        /* \"#utility.yul\":7267:7284   */\n      add\n        /* \"#utility.yul\":7258:7264   */\n      dup10\n        /* \"#utility.yul\":7214:7285   */\n      tag_276\n      jump\t// in\n    tag_403:\n        /* \"#utility.yul\":7295:7367   */\n      tag_404\n        /* \"#utility.yul\":7363:7365   */\n      0x20\n        /* \"#utility.yul\":7352:7361   */\n      dup4\n        /* \"#utility.yul\":7348:7366   */\n      add\n        /* \"#utility.yul\":7339:7345   */\n      dup9\n        /* \"#utility.yul\":7295:7367   */\n      tag_280\n      jump\t// in\n    tag_404:\n        /* \"#utility.yul\":7377:7449   */\n      tag_405\n        /* \"#utility.yul\":7445:7447   */\n      0x40\n        /* \"#utility.yul\":7434:7443   */\n      dup4\n        /* \"#utility.yul\":7430:7448   */\n      add\n        /* \"#utility.yul\":7421:7427   */\n      dup8\n        /* \"#utility.yul\":7377:7449   */\n      tag_280\n      jump\t// in\n    tag_405:\n        /* \"#utility.yul\":7459:7531   */\n      tag_406\n        /* \"#utility.yul\":7527:7529   */\n      0x60\n        /* \"#utility.yul\":7516:7525   */\n      dup4\n        /* \"#utility.yul\":7512:7530   */\n      add\n        /* \"#utility.yul\":7503:7509   */\n      dup7\n        /* \"#utility.yul\":7459:7531   */\n      tag_280\n      jump\t// in\n    tag_406:\n        /* \"#utility.yul\":7541:7614   */\n      tag_407\n        /* \"#utility.yul\":7609:7612   */\n      0x80\n        /* \"#utility.yul\":7598:7607   */\n      dup4\n        /* \"#utility.yul\":7594:7613   */\n      add\n        /* \"#utility.yul\":7585:7591   */\n      dup6\n        /* \"#utility.yul\":7541:7614   */\n      tag_276\n      jump\t// in\n    tag_407:\n        /* \"#utility.yul\":7624:7697   */\n      tag_408\n        /* \"#utility.yul\":7692:7695   */\n      0xa0\n        /* \"#utility.yul\":7681:7690   */\n      dup4\n        /* \"#utility.yul\":7677:7696   */\n      add\n        /* \"#utility.yul\":7668:7674   */\n      dup5\n        /* \"#utility.yul\":7624:7697   */\n      tag_280\n      jump\t// in\n    tag_408:\n        /* \"#utility.yul\":6929:7704   */\n      swap8\n      swap7\n      pop\n      pop\n      pop\n      pop\n      pop\n      pop\n      pop\n      jump\t// out\n        /* \"#utility.yul\":7710:8373   */\n    tag_224:\n        /* \"#utility.yul\":7798:7804   */\n      0x00\n        /* \"#utility.yul\":7806:7812   */\n      dup1\n        /* \"#utility.yul\":7814:7820   */\n      0x00\n        /* \"#utility.yul\":7863:7865   */\n      0x60\n        /* \"#utility.yul\":7851:7860   */\n      dup5\n        /* \"#utility.yul\":7842:7849   */\n      dup7\n        /* \"#utility.yul\":7838:7861   */\n      sub\n        /* \"#utility.yul\":7834:7866   */\n      slt\n        /* \"#utility.yul\":7831:7950   */\n      iszero\n      tag_410\n      jumpi\n        /* \"#utility.yul\":7869:7948   */\n      tag_411\n      tag_270\n      jump\t// in\n    tag_411:\n        /* \"#utility.yul\":7831:7950   */\n    tag_410:\n        /* \"#utility.yul\":7989:7990   */\n      0x00\n        /* \"#utility.yul\":8014:8078   */\n      tag_412\n        /* \"#utility.yul\":8070:8077   */\n      dup7\n        /* \"#utility.yul\":8061:8067   */\n      dup3\n        /* \"#utility.yul\":8050:8059   */\n      dup8\n        /* \"#utility.yul\":8046:8068   */\n      add\n        /* \"#utility.yul\":8014:8078   */\n      tag_283\n      jump\t// in\n    tag_412:\n        /* \"#utility.yul\":8004:8078   */\n      swap4\n      pop\n        /* \"#utility.yul\":7960:8088   */\n      pop\n        /* \"#utility.yul\":8127:8129   */\n      0x20\n        /* \"#utility.yul\":8153:8217   */\n      tag_413\n        /* \"#utility.yul\":8209:8216   */\n      dup7\n        /* \"#utility.yul\":8200:8206   */\n      dup3\n        /* \"#utility.yul\":8189:8198   */\n      dup8\n        /* \"#utility.yul\":8185:8207   */\n      add\n        /* \"#utility.yul\":8153:8217   */\n      tag_283\n      jump\t// in\n    tag_413:\n        /* \"#utility.yul\":8143:8217   */\n      swap3\n      pop\n        /* \"#utility.yul\":8098:8227   */\n      pop\n        /* \"#utility.yul\":8266:8268   */\n      0x40\n        /* \"#utility.yul\":8292:8356   */\n      tag_414\n        /* \"#utility.yul\":8348:8355   */\n      dup7\n        /* \"#utility.yul\":8339:8345   */\n      dup3\n        /* \"#utility.yul\":8328:8337   */\n      dup8\n        /* \"#utility.yul\":8324:8346   */\n      add\n        /* \"#utility.yul\":8292:8356   */\n      tag_283\n      jump\t// in\n    tag_414:\n        /* \"#utility.yul\":8282:8356   */\n      swap2\n      pop\n        /* \"#utility.yul\":8237:8366   */\n      pop\n        /* \"#utility.yul\":7710:8373   */\n      swap3\n      pop\n      swap3\n      pop\n      swap3\n      jump\t// out\n        /* \"#utility.yul\":8379:8548   */\n    tag_288:\n        /* \"#utility.yul\":8463:8474   */\n      0x00\n        /* \"#utility.yul\":8497:8503   */\n      dup3\n        /* \"#utility.yul\":8492:8495   */\n      dup3\n        /* \"#utility.yul\":8485:8504   */\n      mstore\n        /* \"#utility.yul\":8537:8541   */\n      0x20\n        /* \"#utility.yul\":8532:8535   */\n      dup3\n        /* \"#utility.yul\":8528:8542   */\n      add\n        /* \"#utility.yul\":8513:8542   */\n      swap1\n      pop\n        /* \"#utility.yul\":8379:8548   */\n      swap3\n      swap2\n      pop\n      pop\n      jump\t// out\n        /* \"#utility.yul\":8554:8726   */\n    tag_289:\n        /* \"#utility.yul\":8694:8718   */\n      0x4c6971756964697479204e6f742050726f766964656400000000000000000000\n        /* \"#utility.yul\":8690:8691   */\n      0x00\n        /* \"#utility.yul\":8682:8688   */\n      dup3\n        /* \"#utility.yul\":8678:8692   */\n      add\n        /* \"#utility.yul\":8671:8719   */\n      mstore\n        /* \"#utility.yul\":8554:8726   */\n      pop\n      jump\t// out\n        /* \"#utility.yul\":8732:9098   */\n    tag_290:\n        /* \"#utility.yul\":8874:8877   */\n      0x00\n        /* \"#utility.yul\":8895:8962   */\n      tag_418\n        /* \"#utility.yul\":8959:8961   */\n      0x16\n        /* \"#utility.yul\":8954:8957   */\n      dup4\n        /* \"#utility.yul\":8895:8962   */\n      tag_288\n      jump\t// in\n    tag_418:\n        /* \"#utility.yul\":8888:8962   */\n      swap2\n      pop\n        /* \"#utility.yul\":8971:9064   */\n      tag_419\n        /* \"#utility.yul\":9060:9063   */\n      dup3\n        /* \"#utility.yul\":8971:9064   */\n      tag_289\n      jump\t// in\n    tag_419:\n        /* \"#utility.yul\":9089:9091   */\n      0x20\n        /* \"#utility.yul\":9084:9087   */\n      dup3\n        /* \"#utility.yul\":9080:9092   */\n      add\n        /* \"#utility.yul\":9073:9092   */\n      swap1\n      pop\n        /* \"#utility.yul\":8732:9098   */\n      swap2\n      swap1\n      pop\n      jump\t// out\n        /* \"#utility.yul\":9104:9523   */\n    tag_230:\n        /* \"#utility.yul\":9270:9274   */\n      0x00\n        /* \"#utility.yul\":9308:9310   */\n      0x20\n        /* \"#utility.yul\":9297:9306   */\n      dup3\n        /* \"#utility.yul\":9293:9311   */\n      add\n        /* \"#utility.yul\":9285:9311   */\n      swap1\n      pop\n        /* \"#utility.yul\":9357:9366   */\n      dup2\n        /* \"#utility.yul\":9351:9355   */\n      dup2\n        /* \"#utility.yul\":9347:9367   */\n      sub\n        /* \"#utility.yul\":9343:9344   */\n      0x00\n        /* \"#utility.yul\":9332:9341   */\n      dup4\n        /* \"#utility.yul\":9328:9345   */\n      add\n        /* \"#utility.yul\":9321:9368   */\n      mstore\n        /* \"#utility.yul\":9385:9516   */\n      tag_421\n        /* \"#utility.yul\":9511:9515   */\n      dup2\n        /* \"#utility.yul\":9385:9516   */\n      tag_290\n      jump\t// in\n    tag_421:\n        /* \"#utility.yul\":9377:9516   */\n      swap1\n      pop\n        /* \"#utility.yul\":9104:9523   */\n      swap2\n      swap1\n      pop\n      jump\t// out\n        /* \"#utility.yul\":9529:9710   */\n    tag_291:\n        /* \"#utility.yul\":9669:9702   */\n      0x6c6971756964697479205375636365737366756c6c792050726f766964656400\n        /* \"#utility.yul\":9665:9666   */\n      0x00\n        /* \"#utility.yul\":9657:9663   */\n      dup3\n        /* \"#utility.yul\":9653:9667   */\n      add\n        /* \"#utility.yul\":9646:9703   */\n      mstore\n        /* \"#utility.yul\":9529:9710   */\n      pop\n      jump\t// out\n        /* \"#utility.yul\":9716:10082   */\n    tag_292:\n        /* \"#utility.yul\":9858:9861   */\n      0x00\n        /* \"#utility.yul\":9879:9946   */\n      tag_424\n        /* \"#utility.yul\":9943:9945   */\n      0x1f\n        /* \"#utility.yul\":9938:9941   */\n      dup4\n        /* \"#utility.yul\":9879:9946   */\n      tag_288\n      jump\t// in\n    tag_424:\n        /* \"#utility.yul\":9872:9946   */\n      swap2\n      pop\n        /* \"#utility.yul\":9955:10048   */\n      tag_425\n        /* \"#utility.yul\":10044:10047   */\n      dup3\n        /* \"#utility.yul\":9955:10048   */\n      tag_291\n      jump\t// in\n    tag_425:\n        /* \"#utility.yul\":10073:10075   */\n      0x20\n        /* \"#utility.yul\":10068:10071   */\n      dup3\n        /* \"#utility.yul\":10064:10076   */\n      add\n        /* \"#utility.yul\":10057:10076   */\n      swap1\n      pop\n        /* \"#utility.yul\":9716:10082   */\n      swap2\n      swap1\n      pop\n      jump\t// out\n        /* \"#utility.yul\":10088:10507   */\n    tag_233:\n        /* \"#utility.yul\":10254:10258   */\n      0x00\n        /* \"#utility.yul\":10292:10294   */\n      0x20\n        /* \"#utility.yul\":10281:10290   */\n      dup3\n        /* \"#utility.yul\":10277:10295   */\n      add\n        /* \"#utility.yul\":10269:10295   */\n      swap1\n      pop\n        /* \"#utility.yul\":10341:10350   */\n      dup2\n        /* \"#utility.yul\":10335:10339   */\n      dup2\n        /* \"#utility.yul\":10331:10351   */\n      sub\n        /* \"#utility.yul\":10327:10328   */\n      0x00\n        /* \"#utility.yul\":10316:10325   */\n      dup4\n        /* \"#utility.yul\":10312:10329   */\n      add\n        /* \"#utility.yul\":10305:10352   */\n      mstore\n        /* \"#utility.yul\":10369:10500   */\n      tag_427\n        /* \"#utility.yul\":10495:10499   */\n      dup2\n        /* \"#utility.yul\":10369:10500   */\n      tag_292\n      jump\t// in\n    tag_427:\n        /* \"#utility.yul\":10361:10500   */\n      swap1\n      pop\n        /* \"#utility.yul\":10088:10507   */\n      swap2\n      swap1\n      pop\n      jump\t// out\n        /* \"#utility.yul\":10513:10693   */\n    tag_258:\n        /* \"#utility.yul\":10561:10638   */\n      0x4e487b7100000000000000000000000000000000000000000000000000000000\n        /* \"#utility.yul\":10558:10559   */\n      0x00\n        /* \"#utility.yul\":10551:10639   */\n      mstore\n        /* \"#utility.yul\":10658:10662   */\n      0x41\n        /* \"#utility.yul\":10655:10656   */\n      0x04\n        /* \"#utility.yul\":10648:10663   */\n      mstore\n        /* \"#utility.yul\":10682:10686   */\n      0x24\n        /* \"#utility.yul\":10679:10680   */\n      0x00\n        /* \"#utility.yul\":10672:10687   */\n      revert\n        /* \"#utility.yul\":10699:10810   */\n    tag_293:\n        /* \"#utility.yul\":10763:10769   */\n      0x00\n        /* \"#utility.yul\":10797:10802   */\n      dup2\n        /* \"#utility.yul\":10791:10803   */\n      sload\n        /* \"#utility.yul\":10781:10803   */\n      swap1\n      pop\n        /* \"#utility.yul\":10699:10810   */\n      swap2\n      swap1\n      pop\n      jump\t// out\n        /* \"#utility.yul\":10816:11000   */\n    tag_294:\n        /* \"#utility.yul\":10915:10926   */\n      0x00\n        /* \"#utility.yul\":10949:10955   */\n      dup3\n        /* \"#utility.yul\":10944:10947   */\n      dup3\n        /* \"#utility.yul\":10937:10956   */\n      mstore\n        /* \"#utility.yul\":10989:10993   */\n      0x20\n        /* \"#utility.yul\":10984:10987   */\n      dup3\n        /* \"#utility.yul\":10980:10994   */\n      add\n        /* \"#utility.yul\":10965:10994   */\n      swap1\n      pop\n        /* \"#utility.yul\":10816:11000   */\n      swap3\n      swap2\n      pop\n      pop\n      jump\t// out\n        /* \"#utility.yul\":11006:11162   */\n    tag_295:\n        /* \"#utility.yul\":11070:11074   */\n      0x00\n        /* \"#utility.yul\":11093:11096   */\n      dup2\n        /* \"#utility.yul\":11085:11096   */\n      swap1\n      pop\n        /* \"#utility.yul\":11116:11119   */\n      dup2\n        /* \"#utility.yul\":11113:11114   */\n      0x00\n        /* \"#utility.yul\":11106:11120   */\n      mstore\n        /* \"#utility.yul\":11150:11154   */\n      0x20\n        /* \"#utility.yul\":11147:11148   */\n      0x00\n        /* \"#utility.yul\":11137:11155   */\n      keccak256\n        /* \"#utility.yul\":11129:11155   */\n      swap1\n      pop\n        /* \"#utility.yul\":11006:11162   */\n      swap2\n      swap1\n      pop\n      jump\t// out\n        /* \"#utility.yul\":11168:11276   */\n    tag_296:\n        /* \"#utility.yul\":11245:11269   */\n      tag_433\n        /* \"#utility.yul\":11263:11268   */\n      dup2\n        /* \"#utility.yul\":11245:11269   */\n      tag_273\n      jump\t// in\n    tag_433:\n        /* \"#utility.yul\":11240:11243   */\n      dup3\n        /* \"#utility.yul\":11233:11270   */\n      mstore\n        /* \"#utility.yul\":11168:11276   */\n      pop\n      pop\n      jump\t// out\n        /* \"#utility.yul\":11282:11461   */\n    tag_297:\n        /* \"#utility.yul\":11351:11361   */\n      0x00\n        /* \"#utility.yul\":11372:11418   */\n      tag_435\n        /* \"#utility.yul\":11414:11417   */\n      dup4\n        /* \"#utility.yul\":11406:11412   */\n      dup4\n        /* \"#utility.yul\":11372:11418   */\n      tag_296\n      jump\t// in\n    tag_435:\n        /* \"#utility.yul\":11450:11454   */\n      0x20\n        /* \"#utility.yul\":11445:11448   */\n      dup4\n        /* \"#utility.yul\":11441:11455   */\n      add\n        /* \"#utility.yul\":11427:11455   */\n      swap1\n      pop\n        /* \"#utility.yul\":11282:11461   */\n      swap3\n      swap2\n      pop\n      pop\n      jump\t// out\n        /* \"#utility.yul\":11467:11569   */\n    tag_298:\n        /* \"#utility.yul\":11509:11517   */\n      0x00\n        /* \"#utility.yul\":11556:11561   */\n      dup2\n        /* \"#utility.yul\":11553:11554   */\n      0x00\n        /* \"#utility.yul\":11549:11562   */\n      shr\n        /* \"#utility.yul\":11528:11562   */\n      swap1\n      pop\n        /* \"#utility.yul\":11467:11569   */\n      swap2\n      swap1\n      pop\n      jump\t// out\n        /* \"#utility.yul\":11575:11714   */\n    tag_299:\n        /* \"#utility.yul\":11625:11632   */\n      0x00\n        /* \"#utility.yul\":11665:11707   */\n      0xffffffffffffffffffffffffffffffffffffffff\n        /* \"#utility.yul\":11658:11663   */\n      dup3\n        /* \"#utility.yul\":11654:11708   */\n      and\n        /* \"#utility.yul\":11643:11708   */\n      swap1\n      pop\n        /* \"#utility.yul\":11575:11714   */\n      swap2\n      swap1\n      pop\n      jump\t// out\n        /* \"#utility.yul\":11720:11886   */\n    tag_300:\n        /* \"#utility.yul\":11789:11794   */\n      0x00\n        /* \"#utility.yul\":11814:11880   */\n      tag_439\n        /* \"#utility.yul\":11845:11879   */\n      tag_440\n        /* \"#utility.yul\":11868:11878   */\n      dup4\n        /* \"#utility.yul\":11845:11879   */\n      tag_298\n      jump\t// in\n    tag_440:\n        /* \"#utility.yul\":11814:11880   */\n      tag_299\n      jump\t// in\n    tag_439:\n        /* \"#utility.yul\":11805:11880   */\n      swap1\n      pop\n        /* \"#utility.yul\":11720:11886   */\n      swap2\n      swap1\n      pop\n      jump\t// out\n        /* \"#utility.yul\":11892:12036   */\n    tag_301:\n        /* \"#utility.yul\":11947:11952   */\n      0x00\n        /* \"#utility.yul\":11972:12029   */\n      tag_442\n        /* \"#utility.yul\":12023:12027   */\n      dup3\n        /* \"#utility.yul\":12017:12028   */\n      sload\n        /* \"#utility.yul\":11972:12029   */\n      tag_300\n      jump\t// in\n    tag_442:\n        /* \"#utility.yul\":11963:12029   */\n      swap1\n      pop\n        /* \"#utility.yul\":11892:12036   */\n      swap2\n      swap1\n      pop\n      jump\t// out\n        /* \"#utility.yul\":12042:12152   */\n    tag_302:\n        /* \"#utility.yul\":12109:12113   */\n      0x00\n        /* \"#utility.yul\":12141:12145   */\n      0x01\n        /* \"#utility.yul\":12136:12139   */\n      dup3\n        /* \"#utility.yul\":12132:12146   */\n      add\n        /* \"#utility.yul\":12124:12146   */\n      swap1\n      pop\n        /* \"#utility.yul\":12042:12152   */\n      swap2\n      swap1\n      pop\n      jump\t// out\n        /* \"#utility.yul\":12188:12939   */\n    tag_303:\n        /* \"#utility.yul\":12304:12307   */\n      0x00\n        /* \"#utility.yul\":12333:12384   */\n      tag_445\n        /* \"#utility.yul\":12378:12383   */\n      dup3\n        /* \"#utility.yul\":12333:12384   */\n      tag_293\n      jump\t// in\n    tag_445:\n        /* \"#utility.yul\":12400:12486   */\n      tag_446\n        /* \"#utility.yul\":12479:12485   */\n      dup2\n        /* \"#utility.yul\":12474:12477   */\n      dup6\n        /* \"#utility.yul\":12400:12486   */\n      tag_294\n      jump\t// in\n    tag_446:\n        /* \"#utility.yul\":12393:12486   */\n      swap4\n      pop\n        /* \"#utility.yul\":12510:12563   */\n      tag_447\n        /* \"#utility.yul\":12557:12562   */\n      dup4\n        /* \"#utility.yul\":12510:12563   */\n      tag_295\n      jump\t// in\n    tag_447:\n        /* \"#utility.yul\":12586:12593   */\n      dup1\n        /* \"#utility.yul\":12617:12618   */\n      0x00\n        /* \"#utility.yul\":12602:12914   */\n    tag_448:\n        /* \"#utility.yul\":12627:12633   */\n      dup4\n        /* \"#utility.yul\":12624:12625   */\n      dup2\n        /* \"#utility.yul\":12621:12634   */\n      lt\n        /* \"#utility.yul\":12602:12914   */\n      iszero\n      tag_450\n      jumpi\n        /* \"#utility.yul\":12697:12741   */\n      tag_451\n        /* \"#utility.yul\":12734:12740   */\n      dup3\n        /* \"#utility.yul\":12697:12741   */\n      tag_301\n      jump\t// in\n    tag_451:\n        /* \"#utility.yul\":12761:12824   */\n      tag_452\n        /* \"#utility.yul\":12820:12823   */\n      dup9\n        /* \"#utility.yul\":12805:12818   */\n      dup3\n        /* \"#utility.yul\":12761:12824   */\n      tag_297\n      jump\t// in\n    tag_452:\n        /* \"#utility.yul\":12754:12824   */\n      swap8\n      pop\n        /* \"#utility.yul\":12847:12904   */\n      tag_453\n        /* \"#utility.yul\":12897:12903   */\n      dup4\n        /* \"#utility.yul\":12847:12904   */\n      tag_302\n      jump\t// in\n    tag_453:\n        /* \"#utility.yul\":12837:12904   */\n      swap3\n      pop\n        /* \"#utility.yul\":12662:12914   */\n      pop\n        /* \"#utility.yul\":12649:12650   */\n      0x01\n        /* \"#utility.yul\":12646:12647   */\n      dup2\n        /* \"#utility.yul\":12642:12651   */\n      add\n        /* \"#utility.yul\":12637:12651   */\n      swap1\n      pop\n        /* \"#utility.yul\":12602:12914   */\n      jump(tag_448)\n    tag_450:\n        /* \"#utility.yul\":12606:12620   */\n      pop\n        /* \"#utility.yul\":12930:12933   */\n      dup6\n        /* \"#utility.yul\":12923:12933   */\n      swap4\n      pop\n        /* \"#utility.yul\":12309:12939   */\n      pop\n      pop\n      pop\n        /* \"#utility.yul\":12188:12939   */\n      swap3\n      swap2\n      pop\n      pop\n      jump\t// out\n        /* \"#utility.yul\":12945:13643   */\n    tag_261:\n        /* \"#utility.yul\":13169:13173   */\n      0x00\n        /* \"#utility.yul\":13207:13210   */\n      0x80\n        /* \"#utility.yul\":13196:13205   */\n      dup3\n        /* \"#utility.yul\":13192:13211   */\n      add\n        /* \"#utility.yul\":13184:13211   */\n      swap1\n      pop\n        /* \"#utility.yul\":13221:13292   */\n      tag_455\n        /* \"#utility.yul\":13289:13290   */\n      0x00\n        /* \"#utility.yul\":13278:13287   */\n      dup4\n        /* \"#utility.yul\":13274:13291   */\n      add\n        /* \"#utility.yul\":13265:13271   */\n      dup8\n        /* \"#utility.yul\":13221:13292   */\n      tag_280\n      jump\t// in\n    tag_455:\n        /* \"#utility.yul\":13339:13348   */\n      dup2\n        /* \"#utility.yul\":13333:13337   */\n      dup2\n        /* \"#utility.yul\":13329:13349   */\n      sub\n        /* \"#utility.yul\":13324:13326   */\n      0x20\n        /* \"#utility.yul\":13313:13322   */\n      dup4\n        /* \"#utility.yul\":13309:13327   */\n      add\n        /* \"#utility.yul\":13302:13350   */\n      mstore\n        /* \"#utility.yul\":13367:13472   */\n      tag_456\n        /* \"#utility.yul\":13467:13471   */\n      dup2\n        /* \"#utility.yul\":13458:13464   */\n      dup7\n        /* \"#utility.yul\":13367:13472   */\n      tag_303\n      jump\t// in\n    tag_456:\n        /* \"#utility.yul\":13359:13472   */\n      swap1\n      pop\n        /* \"#utility.yul\":13482:13554   */\n      tag_457\n        /* \"#utility.yul\":13550:13552   */\n      0x40\n        /* \"#utility.yul\":13539:13548   */\n      dup4\n        /* \"#utility.yul\":13535:13553   */\n      add\n        /* \"#utility.yul\":13526:13532   */\n      dup6\n        /* \"#utility.yul\":13482:13554   */\n      tag_276\n      jump\t// in\n    tag_457:\n        /* \"#utility.yul\":13564:13636   */\n      tag_458\n        /* \"#utility.yul\":13632:13634   */\n      0x60\n        /* \"#utility.yul\":13621:13630   */\n      dup4\n        /* \"#utility.yul\":13617:13635   */\n      add\n        /* \"#utility.yul\":13608:13614   */\n      dup5\n        /* \"#utility.yul\":13564:13636   */\n      tag_280\n      jump\t// in\n    tag_458:\n        /* \"#utility.yul\":12945:13643   */\n      swap6\n      swap5\n      pop\n      pop\n      pop\n      pop\n      pop\n      jump\t// out\n        /* \"#utility.yul\":13649:13766   */\n    tag_304:\n        /* \"#utility.yul\":13758:13759   */\n      0x00\n        /* \"#utility.yul\":13755:13756   */\n      dup1\n        /* \"#utility.yul\":13748:13760   */\n      revert\n        /* \"#utility.yul\":13772:13874   */\n    tag_305:\n        /* \"#utility.yul\":13813:13819   */\n      0x00\n        /* \"#utility.yul\":13864:13866   */\n      0x1f\n        /* \"#utility.yul\":13860:13867   */\n      not\n        /* \"#utility.yul\":13855:13857   */\n      0x1f\n        /* \"#utility.yul\":13848:13853   */\n      dup4\n        /* \"#utility.yul\":13844:13858   */\n      add\n        /* \"#utility.yul\":13840:13868   */\n      and\n        /* \"#utility.yul\":13830:13868   */\n      swap1\n      pop\n        /* \"#utility.yul\":13772:13874   */\n      swap2\n      swap1\n      pop\n      jump\t// out\n        /* \"#utility.yul\":13880:14161   */\n    tag_306:\n        /* \"#utility.yul\":13963:13990   */\n      tag_462\n        /* \"#utility.yul\":13985:13989   */\n      dup3\n        /* \"#utility.yul\":13963:13990   */\n      tag_305\n      jump\t// in\n    tag_462:\n        /* \"#utility.yul\":13955:13961   */\n      dup2\n        /* \"#utility.yul\":13951:13991   */\n      add\n        /* \"#utility.yul\":14093:14099   */\n      dup2\n        /* \"#utility.yul\":14081:14091   */\n      dup2\n        /* \"#utility.yul\":14078:14100   */\n      lt\n        /* \"#utility.yul\":14057:14075   */\n      0xffffffffffffffff\n        /* \"#utility.yul\":14045:14055   */\n      dup3\n        /* \"#utility.yul\":14042:14076   */\n      gt\n        /* \"#utility.yul\":14039:14101   */\n      or\n        /* \"#utility.yul\":14036:14124   */\n      iszero\n      tag_463\n      jumpi\n        /* \"#utility.yul\":14104:14122   */\n      tag_464\n      tag_258\n      jump\t// in\n    tag_464:\n        /* \"#utility.yul\":14036:14124   */\n    tag_463:\n        /* \"#utility.yul\":14144:14154   */\n      dup1\n        /* \"#utility.yul\":14140:14142   */\n      0x40\n        /* \"#utility.yul\":14133:14155   */\n      mstore\n        /* \"#utility.yul\":13923:14161   */\n      pop\n        /* \"#utility.yul\":13880:14161   */\n      pop\n      pop\n      jump\t// out\n        /* \"#utility.yul\":14167:14296   */\n    tag_307:\n        /* \"#utility.yul\":14201:14207   */\n      0x00\n        /* \"#utility.yul\":14228:14248   */\n      tag_466\n      tag_269\n      jump\t// in\n    tag_466:\n        /* \"#utility.yul\":14218:14248   */\n      swap1\n      pop\n        /* \"#utility.yul\":14257:14290   */\n      tag_467\n        /* \"#utility.yul\":14285:14289   */\n      dup3\n        /* \"#utility.yul\":14277:14283   */\n      dup3\n        /* \"#utility.yul\":14257:14290   */\n      tag_306\n      jump\t// in\n    tag_467:\n        /* \"#utility.yul\":14167:14296   */\n      swap2\n      swap1\n      pop\n      jump\t// out\n        /* \"#utility.yul\":14302:14613   */\n    tag_308:\n        /* \"#utility.yul\":14379:14383   */\n      0x00\n        /* \"#utility.yul\":14469:14487   */\n      0xffffffffffffffff\n        /* \"#utility.yul\":14461:14467   */\n      dup3\n        /* \"#utility.yul\":14458:14488   */\n      gt\n        /* \"#utility.yul\":14455:14511   */\n      iszero\n      tag_469\n      jumpi\n        /* \"#utility.yul\":14491:14509   */\n      tag_470\n      tag_258\n      jump\t// in\n    tag_470:\n        /* \"#utility.yul\":14455:14511   */\n    tag_469:\n        /* \"#utility.yul\":14541:14545   */\n      0x20\n        /* \"#utility.yul\":14533:14539   */\n      dup3\n        /* \"#utility.yul\":14529:14546   */\n      mul\n        /* \"#utility.yul\":14521:14546   */\n      swap1\n      pop\n        /* \"#utility.yul\":14601:14605   */\n      0x20\n        /* \"#utility.yul\":14595:14599   */\n      dup2\n        /* \"#utility.yul\":14591:14606   */\n      add\n        /* \"#utility.yul\":14583:14606   */\n      swap1\n      pop\n        /* \"#utility.yul\":14302:14613   */\n      swap2\n      swap1\n      pop\n      jump\t// out\n        /* \"#utility.yul\":14619:14736   */\n    tag_309:\n        /* \"#utility.yul\":14728:14729   */\n      0x00\n        /* \"#utility.yul\":14725:14726   */\n      dup1\n        /* \"#utility.yul\":14718:14730   */\n      revert\n        /* \"#utility.yul\":14759:15491   */\n    tag_310:\n        /* \"#utility.yul\":14866:14871   */\n      0x00\n        /* \"#utility.yul\":14891:14972   */\n      tag_473\n        /* \"#utility.yul\":14907:14971   */\n      tag_474\n        /* \"#utility.yul\":14964:14970   */\n      dup5\n        /* \"#utility.yul\":14907:14971   */\n      tag_308\n      jump\t// in\n    tag_474:\n        /* \"#utility.yul\":14891:14972   */\n      tag_307\n      jump\t// in\n    tag_473:\n        /* \"#utility.yul\":14882:14972   */\n      swap1\n      pop\n        /* \"#utility.yul\":14992:14997   */\n      dup1\n        /* \"#utility.yul\":15021:15027   */\n      dup4\n        /* \"#utility.yul\":15014:15019   */\n      dup3\n        /* \"#utility.yul\":15007:15028   */\n      mstore\n        /* \"#utility.yul\":15055:15059   */\n      0x20\n        /* \"#utility.yul\":15048:15053   */\n      dup3\n        /* \"#utility.yul\":15044:15060   */\n      add\n        /* \"#utility.yul\":15037:15060   */\n      swap1\n      pop\n        /* \"#utility.yul\":15108:15112   */\n      0x20\n        /* \"#utility.yul\":15100:15106   */\n      dup5\n        /* \"#utility.yul\":15096:15113   */\n      mul\n        /* \"#utility.yul\":15088:15094   */\n      dup4\n        /* \"#utility.yul\":15084:15114   */\n      add\n        /* \"#utility.yul\":15137:15140   */\n      dup6\n        /* \"#utility.yul\":15129:15135   */\n      dup2\n        /* \"#utility.yul\":15126:15141   */\n      gt\n        /* \"#utility.yul\":15123:15245   */\n      iszero\n      tag_475\n      jumpi\n        /* \"#utility.yul\":15156:15235   */\n      tag_476\n      tag_309\n      jump\t// in\n    tag_476:\n        /* \"#utility.yul\":15123:15245   */\n    tag_475:\n        /* \"#utility.yul\":15271:15277   */\n      dup4\n        /* \"#utility.yul\":15254:15485   */\n    tag_477:\n        /* \"#utility.yul\":15288:15294   */\n      dup2\n        /* \"#utility.yul\":15283:15286   */\n      dup2\n        /* \"#utility.yul\":15280:15295   */\n      lt\n        /* \"#utility.yul\":15254:15485   */\n      iszero\n      tag_479\n      jumpi\n        /* \"#utility.yul\":15363:15366   */\n      dup1\n        /* \"#utility.yul\":15392:15440   */\n      tag_480\n        /* \"#utility.yul\":15436:15439   */\n      dup9\n        /* \"#utility.yul\":15424:15434   */\n      dup3\n        /* \"#utility.yul\":15392:15440   */\n      tag_283\n      jump\t// in\n    tag_480:\n        /* \"#utility.yul\":15387:15390   */\n      dup5\n        /* \"#utility.yul\":15380:15441   */\n      mstore\n        /* \"#utility.yul\":15470:15474   */\n      0x20\n        /* \"#utility.yul\":15465:15468   */\n      dup5\n        /* \"#utility.yul\":15461:15475   */\n      add\n        /* \"#utility.yul\":15454:15475   */\n      swap4\n      pop\n        /* \"#utility.yul\":15330:15485   */\n      pop\n        /* \"#utility.yul\":15314:15318   */\n      0x20\n        /* \"#utility.yul\":15309:15312   */\n      dup2\n        /* \"#utility.yul\":15305:15319   */\n      add\n        /* \"#utility.yul\":15298:15319   */\n      swap1\n      pop\n        /* \"#utility.yul\":15254:15485   */\n      jump(tag_477)\n    tag_479:\n        /* \"#utility.yul\":15258:15279   */\n      pop\n        /* \"#utility.yul\":14872:15491   */\n      pop\n      pop\n        /* \"#utility.yul\":14759:15491   */\n      swap4\n      swap3\n      pop\n      pop\n      pop\n      jump\t// out\n        /* \"#utility.yul\":15514:15899   */\n    tag_311:\n        /* \"#utility.yul\":15596:15601   */\n      0x00\n        /* \"#utility.yul\":15645:15648   */\n      dup3\n        /* \"#utility.yul\":15638:15642   */\n      0x1f\n        /* \"#utility.yul\":15630:15636   */\n      dup4\n        /* \"#utility.yul\":15626:15643   */\n      add\n        /* \"#utility.yul\":15622:15649   */\n      slt\n        /* \"#utility.yul\":15612:15734   */\n      tag_482\n      jumpi\n        /* \"#utility.yul\":15653:15732   */\n      tag_483\n      tag_304\n      jump\t// in\n    tag_483:\n        /* \"#utility.yul\":15612:15734   */\n    tag_482:\n        /* \"#utility.yul\":15763:15769   */\n      dup2\n        /* \"#utility.yul\":15757:15770   */\n      mload\n        /* \"#utility.yul\":15788:15893   */\n      tag_484\n        /* \"#utility.yul\":15889:15892   */\n      dup5\n        /* \"#utility.yul\":15881:15887   */\n      dup3\n        /* \"#utility.yul\":15874:15878   */\n      0x20\n        /* \"#utility.yul\":15866:15872   */\n      dup7\n        /* \"#utility.yul\":15862:15879   */\n      add\n        /* \"#utility.yul\":15788:15893   */\n      tag_310\n      jump\t// in\n    tag_484:\n        /* \"#utility.yul\":15779:15893   */\n      swap2\n      pop\n        /* \"#utility.yul\":15602:15899   */\n      pop\n        /* \"#utility.yul\":15514:15899   */\n      swap3\n      swap2\n      pop\n      pop\n      jump\t// out\n        /* \"#utility.yul\":15905:16459   */\n    tag_265:\n        /* \"#utility.yul\":16000:16006   */\n      0x00\n        /* \"#utility.yul\":16049:16051   */\n      0x20\n        /* \"#utility.yul\":16037:16046   */\n      dup3\n        /* \"#utility.yul\":16028:16035   */\n      dup5\n        /* \"#utility.yul\":16024:16047   */\n      sub\n        /* \"#utility.yul\":16020:16052   */\n      slt\n        /* \"#utility.yul\":16017:16136   */\n      iszero\n      tag_486\n      jumpi\n        /* \"#utility.yul\":16055:16134   */\n      tag_487\n      tag_270\n      jump\t// in\n    tag_487:\n        /* \"#utility.yul\":16017:16136   */\n    tag_486:\n        /* \"#utility.yul\":16196:16197   */\n      0x00\n        /* \"#utility.yul\":16185:16194   */\n      dup3\n        /* \"#utility.yul\":16181:16198   */\n      add\n        /* \"#utility.yul\":16175:16199   */\n      mload\n        /* \"#utility.yul\":16226:16244   */\n      0xffffffffffffffff\n        /* \"#utility.yul\":16218:16224   */\n      dup2\n        /* \"#utility.yul\":16215:16245   */\n      gt\n        /* \"#utility.yul\":16212:16329   */\n      iszero\n      tag_488\n      jumpi\n        /* \"#utility.yul\":16248:16327   */\n      tag_489\n      tag_271\n      jump\t// in\n    tag_489:\n        /* \"#utility.yul\":16212:16329   */\n    tag_488:\n        /* \"#utility.yul\":16353:16442   */\n      tag_490\n        /* \"#utility.yul\":16434:16441   */\n      dup5\n        /* \"#utility.yul\":16425:16431   */\n      dup3\n        /* \"#utility.yul\":16414:16423   */\n      dup6\n        /* \"#utility.yul\":16410:16432   */\n      add\n        /* \"#utility.yul\":16353:16442   */\n      tag_311\n      jump\t// in\n    tag_490:\n        /* \"#utility.yul\":16343:16442   */\n      swap2\n      pop\n        /* \"#utility.yul\":16146:16452   */\n      pop\n        /* \"#utility.yul\":15905:16459   */\n      swap3\n      swap2\n      pop\n      pop\n      jump\t// out\n        /* \"#utility.yul\":16465:16645   */\n    tag_268:\n        /* \"#utility.yul\":16513:16590   */\n      0x4e487b7100000000000000000000000000000000000000000000000000000000\n        /* \"#utility.yul\":16510:16511   */\n      0x00\n        /* \"#utility.yul\":16503:16591   */\n      mstore\n        /* \"#utility.yul\":16610:16614   */\n      0x32\n        /* \"#utility.yul\":16607:16608   */\n      0x04\n        /* \"#utility.yul\":16600:16615   */\n      mstore\n        /* \"#utility.yul\":16634:16638   */\n      0x24\n        /* \"#utility.yul\":16631:16632   */\n      0x00\n        /* \"#utility.yul\":16624:16639   */\n      revert\n\n    auxdata: 0xa26469706673582212203f8cc629699806b6c56d60b0926d604d826eaab7b35ba07cca21d86c7756c6bb64736f6c63430008110033\n}\n",
				"bytecode": {
					"linkReferences": {},
					"object": "608060405273b4fbf271143f4fbf7b91a5ded31805e42b2208d66000806101000a81548173ffffffffffffffffffffffffffffffffffffffff021916908373ffffffffffffffffffffffffffffffffffffffff160217905550737a250d5630b4cf539739df2c5dacb4c659f2488d600660006101000a81548173ffffffffffffffffffffffffffffffffffffffff021916908373ffffffffffffffffffffffffffffffffffffffff160217905550604051806040016040528060008054906101000a900473ffffffffffffffffffffffffffffffffffffffff1673ffffffffffffffffffffffffffffffffffffffff1673ffffffffffffffffffffffffffffffffffffffff168152602001600160009054906101000a900473ffffffffffffffffffffffffffffffffffffffff1673ffffffffffffffffffffffffffffffffffffffff1673ffffffffffffffffffffffffffffffffffffffff1681525060079060026200016e92919062000542565b50600560009054906101000a900473ffffffffffffffffffffffffffffffffffffffff16600860006101000a81548173ffffffffffffffffffffffffffffffffffffffff021916908373ffffffffffffffffffffffffffffffffffffffff16021790555060008054906101000a900473ffffffffffffffffffffffffffffffffffffffff16600960006101000a81548173ffffffffffffffffffffffffffffffffffffffff021916908373ffffffffffffffffffffffffffffffffffffffff160217905550600360009054906101000a900473ffffffffffffffffffffffffffffffffffffffff16600a60006101000a81548173ffffffffffffffffffffffffffffffffffffffff021916908373ffffffffffffffffffffffffffffffffffffffff160217905550600660009054906101000a900473ffffffffffffffffffffffffffffffffffffffff16600b60006101000a81548173ffffffffffffffffffffffffffffffffffffffff021916908373ffffffffffffffffffffffffffffffffffffffff1602179055503480156200030657600080fd5b50604051620026633803806200266383398181016040528101906200032c91906200065a565b84600160006101000a81548173ffffffffffffffffffffffffffffffffffffffff021916908373ffffffffffffffffffffffffffffffffffffffff16021790555083600260006101000a81548173ffffffffffffffffffffffffffffffffffffffff021916908373ffffffffffffffffffffffffffffffffffffffff16021790555082600360006101000a81548173ffffffffffffffffffffffffffffffffffffffff021916908373ffffffffffffffffffffffffffffffffffffffff160217905550600360009054906101000a900473ffffffffffffffffffffffffffffffffffffffff16600a60006101000a81548173ffffffffffffffffffffffffffffffffffffffff021916908373ffffffffffffffffffffffffffffffffffffffff16021790555081600460006101000a81548173ffffffffffffffffffffffffffffffffffffffff021916908373ffffffffffffffffffffffffffffffffffffffff16021790555080600560006101000a81548173ffffffffffffffffffffffffffffffffffffffff021916908373ffffffffffffffffffffffffffffffffffffffff160217905550600560009054906101000a900473ffffffffffffffffffffffffffffffffffffffff16600860006101000a81548173ffffffffffffffffffffffffffffffffffffffff021916908373ffffffffffffffffffffffffffffffffffffffff1602179055505050505050620006e2565b828054828255906000526020600020908101928215620005be579160200282015b82811115620005bd5782518260006101000a81548173ffffffffffffffffffffffffffffffffffffffff021916908373ffffffffffffffffffffffffffffffffffffffff1602179055509160200191906001019062000563565b5b509050620005cd9190620005d1565b5090565b5b80821115620005ec576000816000905550600101620005d2565b5090565b600080fd5b600073ffffffffffffffffffffffffffffffffffffffff82169050919050565b60006200062282620005f5565b9050919050565b620006348162000615565b81146200064057600080fd5b50565b600081519050620006548162000629565b92915050565b600080600080600060a08688031215620006795762000678620005f0565b5b6000620006898882890162000643565b95505060206200069c8882890162000643565b9450506040620006af8882890162000643565b9350506060620006c28882890162000643565b9250506080620006d58882890162000643565b9150509295509295909350565b611f7180620006f26000396000f3fe6080604052600436106101185760003560e01c80639dd58b58116100a0578063aef7510711610064578063aef7510714610382578063af6d1fe4146103ad578063bd3733fe146103ea578063bfd9ea5b14610415578063c1f2e5f1146104405761011f565b80639dd58b58146102ab578063a09ede07146102d6578063a6021ace14610301578063a785a3d81461032c578063a89ae4ba146103575761011f565b806351cff8d9116100e757806351cff8d9146101e5578063765374381461020e578063777b506f1461024b57806386d0260814610276578063966824a3146102a15761011f565b80631b017fde1461012457806320ca3c7f1461014d5780632c4c3c1b146101785780634cfd1ba5146101ba5761011f565b3661011f57005b600080fd5b34801561013057600080fd5b5061014b600480360381019061014691906116bc565b61046b565b005b34801561015957600080fd5b506101626104af565b60405161016f91906116f8565b60405180910390f35b34801561018457600080fd5b5061019f600480360381019061019a9190611749565b6104d5565b6040516101b1969594939291906117a0565b60405180910390f35b3480156101c657600080fd5b506101cf61054b565b6040516101dc9190611801565b60405180910390f35b3480156101f157600080fd5b5061020c600480360381019061020791906116bc565b610551565b005b34801561021a57600080fd5b5061023560048036038101906102309190611749565b610658565b604051610242919061181c565b60405180910390f35b34801561025757600080fd5b506102606106e7565b60405161026d91906116f8565b60405180910390f35b34801561028257600080fd5b5061028b61070d565b6040516102989190611801565b60405180910390f35b6102a9610713565b005b3480156102b757600080fd5b506102c0610727565b6040516102cd9190611801565b60405180910390f35b3480156102e257600080fd5b506102eb6107cc565b6040516102f89190611801565b60405180910390f35b34801561030d57600080fd5b506103166107d2565b60405161032391906116f8565b60405180910390f35b34801561033857600080fd5b506103416107f8565b60405161034e91906116f8565b60405180910390f35b34801561036357600080fd5b5061036c61081c565b60405161037991906116f8565b60405180910390f35b34801561038e57600080fd5b50610397610842565b6040516103a491906116f8565b60405180910390f35b3480156103b957600080fd5b506103d460048036038101906103cf9190611749565b610868565b6040516103e191906116f8565b60405180910390f35b3480156103f657600080fd5b506103ff6108a7565b60405161040c91906116f8565b60405180910390f35b34801561042157600080fd5b5061042a6108cd565b6040516104379190611801565b60405180910390f35b34801561044c57600080fd5b506104556108f0565b6040516104629190611801565b60405180910390f35b80600160006101000a81548173ffffffffffffffffffffffffffffffffffffffff021916908373ffffffffffffffffffffffffffffffffffffffff16021790555050565b600660009054906101000a900473ffffffffffffffffffffffffffffffffffffffff1681565b600c6020528060005260406000206000915090508060000154908060010160009054906101000a900473ffffffffffffffffffffffffffffffffffffffff16908060020154908060030160009054906101000a900460ff16908060040154908060050160009054906101000a900460ff16905086565b600f5481565b600081905060008173ffffffffffffffffffffffffffffffffffffffff166370a08231306040518263ffffffff1660e01b815260040161059191906116f8565b602060405180830381865afa1580156105ae573d6000803e3d6000fd5b505050506040513d601f19601f820116820180604052508101906105d2919061184c565b90508173ffffffffffffffffffffffffffffffffffffffff1663a9059cbb33836040518363ffffffff1660e01b815260040161060f929190611879565b6020604051808303816000875af115801561062e573d6000803e3d6000fd5b505050506040513d601f19601f8201168201806040525081019061065291906118ce565b50505050565b6000600460009054906101000a900473ffffffffffffffffffffffffffffffffffffffff1673ffffffffffffffffffffffffffffffffffffffff163373ffffffffffffffffffffffffffffffffffffffff16146106b457600080fd5b6000600c6000600d8054905081526020019081526020016000206002015490506106dd81610a67565b6001915050919050565b600460009054906101000a900473ffffffffffffffffffffffffffffffffffffffff1681565b600e5481565b61071c34610658565b50610725610acd565b565b6000600960009054906101000a900473ffffffffffffffffffffffffffffffffffffffff1673ffffffffffffffffffffffffffffffffffffffff166370a08231306040518263ffffffff1660e01b815260040161078491906116f8565b6020604051808303816000875af11580156107a3573d6000803e3d6000fd5b505050506040513d601f19601f820116820180604052508101906107c7919061184c565b905090565b60105481565b600160009054906101000a900473ffffffffffffffffffffffffffffffffffffffff1681565b60008054906101000a900473ffffffffffffffffffffffffffffffffffffffff1681565b600360009054906101000a900473ffffffffffffffffffffffffffffffffffffffff1681565b600560009054906101000a900473ffffffffffffffffffffffffffffffffffffffff1681565b6007818154811061087857600080fd5b906000526020600020016000915054906101000a900473ffffffffffffffffffffffffffffffffffffffff1681565b600260009054906101000a900473ffffffffffffffffffffffffffffffffffffffff1681565b6000600c6000600d80549050815260200190815260200160002060020154905090565b600080600160009054906101000a900473ffffffffffffffffffffffffffffffffffffffff1673ffffffffffffffffffffffffffffffffffffffff166318160ddd6040518163ffffffff1660e01b8152600401602060405180830381865afa158015610960573d6000803e3d6000fd5b505050506040513d601f19601f82011682018060405250810190610984919061184c565b90506000600160009054906101000a900473ffffffffffffffffffffffffffffffffffffffff1673ffffffffffffffffffffffffffffffffffffffff166370a08231600260009054906101000a900473ffffffffffffffffffffffffffffffffffffffff166040518263ffffffff1660e01b8152600401610a0591906116f8565b602060405180830381865afa158015610a22573d6000803e3d6000fd5b505050506040513d601f19601f82011682018060405250810190610a46919061184c565b905081606482610a56919061192a565b610a60919061199b565b9250505090565b6000600d8054905090506000600c6000600d8054905081526020019081526020016000209050818160000181905550828160020181905550600d829080600181540180825580915050600190039060005260206000200160009091909190915055505050565b60003490506000600f541115610b1f576000479050610aed600f54610d2c565b600047905060008183610b0091906119cc565b905080600f6000828254610b1491906119cc565b925050819055505050505b60006010541115610b6d576000479050610b3a601054610dcc565b50600047905060008183610b4e91906119cc565b90508060106000828254610b6291906119cc565b925050819055505050505b6001600d805490500315610c5f576000600c60006002600d80549050610b9391906119cc565b815260200190815260200160002060010160009054906101000a900473ffffffffffffffffffffffffffffffffffffffff169050610bd0816112a7565b600860009054906101000a900473ffffffffffffffffffffffffffffffffffffffff1673ffffffffffffffffffffffffffffffffffffffff16636a627842826040518263ffffffff1660e01b8152600401610c2b91906116f8565b600060405180830381600087803b158015610c4557600080fd5b505af1158015610c59573d6000803e3d6000fd5b50505050505b6000610c696108f0565b90506014811115610cc9576000479050610c8234610d2c565b600047905060008183610c9591906119cc565b905060008186610ca591906119cc565b905080600f6000828254610cb99190611a00565b9250508190555050505050610d28565b6000479050610ce434601054610cdf9190611a00565b610dcc565b50600047905060008183610cf891906119cc565b905060008186610d0891906119cc565b90508060106000828254610d1c9190611a00565b92505081905550505050505b5050565b6000610d3782611429565b9050600160009054906101000a900473ffffffffffffffffffffffffffffffffffffffff1673ffffffffffffffffffffffffffffffffffffffff16639dc29fac33836040518363ffffffff1660e01b8152600401610d96929190611879565b600060405180830381600087803b158015610db057600080fd5b505af1158015610dc4573d6000803e3d6000fd5b505050505050565b6000806000600160009054906101000a900473ffffffffffffffffffffffffffffffffffffffff1673ffffffffffffffffffffffffffffffffffffffff166370a08231306040518263ffffffff1660e01b8152600401610e2c91906116f8565b602060405180830381865afa158015610e49573d6000803e3d6000fd5b505050506040513d601f19601f82011682018060405250810190610e6d919061184c565b9050600060646069600a60009054906101000a900473ffffffffffffffffffffffffffffffffffffffff1673ffffffffffffffffffffffffffffffffffffffff16633ac3558560008054906101000a900473ffffffffffffffffffffffffffffffffffffffff16896040518363ffffffff1660e01b8152600401610ef2929190611879565b602060405180830381865afa158015610f0f573d6000803e3d6000fd5b505050506040513d601f19601f82011682018060405250810190610f33919061184c565b610f3d919061192a565b610f47919061199b565b90508181111561108a57600160009054906101000a900473ffffffffffffffffffffffffffffffffffffffff1673ffffffffffffffffffffffffffffffffffffffff166396fe83498383610f9b91906119cc565b306040518363ffffffff1660e01b8152600401610fb9929190611a34565b600060405180830381600087803b158015610fd357600080fd5b505af1158015610fe7573d6000803e3d6000fd5b50505050600160009054906101000a900473ffffffffffffffffffffffffffffffffffffffff1673ffffffffffffffffffffffffffffffffffffffff166370a08231306040518263ffffffff1660e01b815260040161104691906116f8565b602060405180830381865afa158015611063573d6000803e3d6000fd5b505050506040513d601f19601f82011682018060405250810190611087919061184c565b91505b600b60009054906101000a900473ffffffffffffffffffffffffffffffffffffffff1673ffffffffffffffffffffffffffffffffffffffff1663f305d7198630846069605f876110da919061192a565b6110e4919061199b565b6064605f8c6110f3919061192a565b6110fd919061199b565b307fffffffffffffffffffffffffffffffffffffffffffffffffffffffffffffffff6040518863ffffffff1660e01b815260040161114096959493929190611a5d565b60606040518083038185885af19350505050801561117c57506040513d601f19601f820116820180604052508101906111799190611abe565b60015b6111ba577fcf34ef537ac33ee1ac626ca1587a0a7e8e51561e5514f8cb36afa1c5102b3bab6040516111ad90611b6e565b60405180910390a161129c565b5050507fcf34ef537ac33ee1ac626ca1587a0a7e8e51561e5514f8cb36afa1c5102b3bab6040516111ea90611bda565b60405180910390a1600160009054906101000a900473ffffffffffffffffffffffffffffffffffffffff1673ffffffffffffffffffffffffffffffffffffffff166370a08231306040518263ffffffff1660e01b815260040161124d91906116f8565b602060405180830381865afa15801561126a573d6000803e3d6000fd5b505050506040513d601f19601f8201168201806040525081019061128e919061184c565b8261129991906119cc565b92505b829350505050919050565b6000600c60006002600d805490506112bf91906119cc565b81526020019081526020016000206002015490506000600a60009054906101000a900473ffffffffffffffffffffffffffffffffffffffff1673ffffffffffffffffffffffffffffffffffffffff16633ac3558560008054906101000a900473ffffffffffffffffffffffffffffffffffffffff16846040518363ffffffff1660e01b8152600401611352929190611879565b602060405180830381865afa15801561136f573d6000803e3d6000fd5b505050506040513d601f19601f82011682018060405250810190611393919061184c565b9050600160009054906101000a900473ffffffffffffffffffffffffffffffffffffffff1673ffffffffffffffffffffffffffffffffffffffff166396fe834982856040518363ffffffff1660e01b81526004016113f2929190611a34565b600060405180830381600087803b15801561140c57600080fd5b505af1158015611420573d6000803e3d6000fd5b50505050505050565b600080600a60009054906101000a900473ffffffffffffffffffffffffffffffffffffffff1673ffffffffffffffffffffffffffffffffffffffff16633ac3558560008054906101000a900473ffffffffffffffffffffffffffffffffffffffff16856040518363ffffffff1660e01b81526004016114a9929190611879565b602060405180830381865afa1580156114c6573d6000803e3d6000fd5b505050506040513d601f19601f820116820180604052508101906114ea919061184c565b905060006064605f836114fd919061192a565b611507919061199b565b90506000600267ffffffffffffffff81111561152657611525611bfa565b5b6040519080825280602002602001820160405280156115545781602001602082028036833780820191505090505b509050600b60009054906101000a900473ffffffffffffffffffffffffffffffffffffffff1673ffffffffffffffffffffffffffffffffffffffff16637ff36ab586846007337fffffffffffffffffffffffffffffffffffffffffffffffffffffffffffffffff6040518663ffffffff1660e01b81526004016115da9493929190611d4d565b60006040518083038185885af11580156115f8573d6000803e3d6000fd5b50505050506040513d6000823e3d601f19601f820116820180604052508101906116229190611ec3565b90508060018151811061163857611637611f0c565b5b60200260200101519350505050919050565b6000604051905090565b600080fd5b600080fd5b600073ffffffffffffffffffffffffffffffffffffffff82169050919050565b60006116898261165e565b9050919050565b6116998161167e565b81146116a457600080fd5b50565b6000813590506116b681611690565b92915050565b6000602082840312156116d2576116d1611654565b5b60006116e0848285016116a7565b91505092915050565b6116f28161167e565b82525050565b600060208201905061170d60008301846116e9565b92915050565b6000819050919050565b61172681611713565b811461173157600080fd5b50565b6000813590506117438161171d565b92915050565b60006020828403121561175f5761175e611654565b5b600061176d84828501611734565b91505092915050565b61177f81611713565b82525050565b60008115159050919050565b61179a81611785565b82525050565b600060c0820190506117b56000830189611776565b6117c260208301886116e9565b6117cf6040830187611776565b6117dc6060830186611791565b6117e96080830185611776565b6117f660a0830184611791565b979650505050505050565b60006020820190506118166000830184611776565b92915050565b60006020820190506118316000830184611791565b92915050565b6000815190506118468161171d565b92915050565b60006020828403121561186257611861611654565b5b600061187084828501611837565b91505092915050565b600060408201905061188e60008301856116e9565b61189b6020830184611776565b9392505050565b6118ab81611785565b81146118b657600080fd5b50565b6000815190506118c8816118a2565b92915050565b6000602082840312156118e4576118e3611654565b5b60006118f2848285016118b9565b91505092915050565b7f4e487b7100000000000000000000000000000000000000000000000000000000600052601160045260246000fd5b600061193582611713565b915061194083611713565b925082820261194e81611713565b91508282048414831517611965576119646118fb565b5b5092915050565b7f4e487b7100000000000000000000000000000000000000000000000000000000600052601260045260246000fd5b60006119a682611713565b91506119b183611713565b9250826119c1576119c061196c565b5b828204905092915050565b60006119d782611713565b91506119e283611713565b92508282039050818111156119fa576119f96118fb565b5b92915050565b6000611a0b82611713565b9150611a1683611713565b9250828201905080821115611a2e57611a2d6118fb565b5b92915050565b6000604082019050611a496000830185611776565b611a5660208301846116e9565b9392505050565b600060c082019050611a7260008301896116e9565b611a7f6020830188611776565b611a8c6040830187611776565b611a996060830186611776565b611aa660808301856116e9565b611ab360a0830184611776565b979650505050505050565b600080600060608486031215611ad757611ad6611654565b5b6000611ae586828701611837565b9350506020611af686828701611837565b9250506040611b0786828701611837565b9150509250925092565b600082825260208201905092915050565b7f4c6971756964697479204e6f742050726f766964656400000000000000000000600082015250565b6000611b58601683611b11565b9150611b6382611b22565b602082019050919050565b60006020820190508181036000830152611b8781611b4b565b9050919050565b7f6c6971756964697479205375636365737366756c6c792050726f766964656400600082015250565b6000611bc4601f83611b11565b9150611bcf82611b8e565b602082019050919050565b60006020820190508181036000830152611bf381611bb7565b9050919050565b7f4e487b7100000000000000000000000000000000000000000000000000000000600052604160045260246000fd5b600081549050919050565b600082825260208201905092915050565b60008190508160005260206000209050919050565b611c638161167e565b82525050565b6000611c758383611c5a565b60208301905092915050565b60008160001c9050919050565b600073ffffffffffffffffffffffffffffffffffffffff82169050919050565b6000611cc1611cbc83611c81565b611c8e565b9050919050565b6000611cd48254611cae565b9050919050565b6000600182019050919050565b6000611cf382611c29565b611cfd8185611c34565b9350611d0883611c45565b8060005b83811015611d4057611d1d82611cc8565b611d278882611c69565b9750611d3283611cdb565b925050600181019050611d0c565b5085935050505092915050565b6000608082019050611d626000830187611776565b8181036020830152611d748186611ce8565b9050611d8360408301856116e9565b611d906060830184611776565b95945050505050565b600080fd5b6000601f19601f8301169050919050565b611db882611d9e565b810181811067ffffffffffffffff82111715611dd757611dd6611bfa565b5b80604052505050565b6000611dea61164a565b9050611df68282611daf565b919050565b600067ffffffffffffffff821115611e1657611e15611bfa565b5b602082029050602081019050919050565b600080fd5b6000611e3f611e3a84611dfb565b611de0565b90508083825260208201905060208402830185811115611e6257611e61611e27565b5b835b81811015611e8b5780611e778882611837565b845260208401935050602081019050611e64565b5050509392505050565b600082601f830112611eaa57611ea9611d99565b5b8151611eba848260208601611e2c565b91505092915050565b600060208284031215611ed957611ed8611654565b5b600082015167ffffffffffffffff811115611ef757611ef6611659565b5b611f0384828501611e95565b91505092915050565b7f4e487b7100000000000000000000000000000000000000000000000000000000600052603260045260246000fdfea26469706673582212203f8cc629699806b6c56d60b0926d604d826eaab7b35ba07cca21d86c7756c6bb64736f6c63430008110033",
					"opcodes": "PUSH1 0x80 PUSH1 0x40 MSTORE PUSH20 0xB4FBF271143F4FBF7B91A5DED31805E42B2208D6 PUSH1 0x0 DUP1 PUSH2 0x100 EXP DUP2 SLOAD DUP2 PUSH20 0xFFFFFFFFFFFFFFFFFFFFFFFFFFFFFFFFFFFFFFFF MUL NOT AND SWAP1 DUP4 PUSH20 0xFFFFFFFFFFFFFFFFFFFFFFFFFFFFFFFFFFFFFFFF AND MUL OR SWAP1 SSTORE POP PUSH20 0x7A250D5630B4CF539739DF2C5DACB4C659F2488D PUSH1 0x6 PUSH1 0x0 PUSH2 0x100 EXP DUP2 SLOAD DUP2 PUSH20 0xFFFFFFFFFFFFFFFFFFFFFFFFFFFFFFFFFFFFFFFF MUL NOT AND SWAP1 DUP4 PUSH20 0xFFFFFFFFFFFFFFFFFFFFFFFFFFFFFFFFFFFFFFFF AND MUL OR SWAP1 SSTORE POP PUSH1 0x40 MLOAD DUP1 PUSH1 0x40 ADD PUSH1 0x40 MSTORE DUP1 PUSH1 0x0 DUP1 SLOAD SWAP1 PUSH2 0x100 EXP SWAP1 DIV PUSH20 0xFFFFFFFFFFFFFFFFFFFFFFFFFFFFFFFFFFFFFFFF AND PUSH20 0xFFFFFFFFFFFFFFFFFFFFFFFFFFFFFFFFFFFFFFFF AND PUSH20 0xFFFFFFFFFFFFFFFFFFFFFFFFFFFFFFFFFFFFFFFF AND DUP2 MSTORE PUSH1 0x20 ADD PUSH1 0x1 PUSH1 0x0 SWAP1 SLOAD SWAP1 PUSH2 0x100 EXP SWAP1 DIV PUSH20 0xFFFFFFFFFFFFFFFFFFFFFFFFFFFFFFFFFFFFFFFF AND PUSH20 0xFFFFFFFFFFFFFFFFFFFFFFFFFFFFFFFFFFFFFFFF AND PUSH20 0xFFFFFFFFFFFFFFFFFFFFFFFFFFFFFFFFFFFFFFFF AND DUP2 MSTORE POP PUSH1 0x7 SWAP1 PUSH1 0x2 PUSH3 0x16E SWAP3 SWAP2 SWAP1 PUSH3 0x542 JUMP JUMPDEST POP PUSH1 0x5 PUSH1 0x0 SWAP1 SLOAD SWAP1 PUSH2 0x100 EXP SWAP1 DIV PUSH20 0xFFFFFFFFFFFFFFFFFFFFFFFFFFFFFFFFFFFFFFFF AND PUSH1 0x8 PUSH1 0x0 PUSH2 0x100 EXP DUP2 SLOAD DUP2 PUSH20 0xFFFFFFFFFFFFFFFFFFFFFFFFFFFFFFFFFFFFFFFF MUL NOT AND SWAP1 DUP4 PUSH20 0xFFFFFFFFFFFFFFFFFFFFFFFFFFFFFFFFFFFFFFFF AND MUL OR SWAP1 SSTORE POP PUSH1 0x0 DUP1 SLOAD SWAP1 PUSH2 0x100 EXP SWAP1 DIV PUSH20 0xFFFFFFFFFFFFFFFFFFFFFFFFFFFFFFFFFFFFFFFF AND PUSH1 0x9 PUSH1 0x0 PUSH2 0x100 EXP DUP2 SLOAD DUP2 PUSH20 0xFFFFFFFFFFFFFFFFFFFFFFFFFFFFFFFFFFFFFFFF MUL NOT AND SWAP1 DUP4 PUSH20 0xFFFFFFFFFFFFFFFFFFFFFFFFFFFFFFFFFFFFFFFF AND MUL OR SWAP1 SSTORE POP PUSH1 0x3 PUSH1 0x0 SWAP1 SLOAD SWAP1 PUSH2 0x100 EXP SWAP1 DIV PUSH20 0xFFFFFFFFFFFFFFFFFFFFFFFFFFFFFFFFFFFFFFFF AND PUSH1 0xA PUSH1 0x0 PUSH2 0x100 EXP DUP2 SLOAD DUP2 PUSH20 0xFFFFFFFFFFFFFFFFFFFFFFFFFFFFFFFFFFFFFFFF MUL NOT AND SWAP1 DUP4 PUSH20 0xFFFFFFFFFFFFFFFFFFFFFFFFFFFFFFFFFFFFFFFF AND MUL OR SWAP1 SSTORE POP PUSH1 0x6 PUSH1 0x0 SWAP1 SLOAD SWAP1 PUSH2 0x100 EXP SWAP1 DIV PUSH20 0xFFFFFFFFFFFFFFFFFFFFFFFFFFFFFFFFFFFFFFFF AND PUSH1 0xB PUSH1 0x0 PUSH2 0x100 EXP DUP2 SLOAD DUP2 PUSH20 0xFFFFFFFFFFFFFFFFFFFFFFFFFFFFFFFFFFFFFFFF MUL NOT AND SWAP1 DUP4 PUSH20 0xFFFFFFFFFFFFFFFFFFFFFFFFFFFFFFFFFFFFFFFF AND MUL OR SWAP1 SSTORE POP CALLVALUE DUP1 ISZERO PUSH3 0x306 JUMPI PUSH1 0x0 DUP1 REVERT JUMPDEST POP PUSH1 0x40 MLOAD PUSH3 0x2663 CODESIZE SUB DUP1 PUSH3 0x2663 DUP4 CODECOPY DUP2 DUP2 ADD PUSH1 0x40 MSTORE DUP2 ADD SWAP1 PUSH3 0x32C SWAP2 SWAP1 PUSH3 0x65A JUMP JUMPDEST DUP5 PUSH1 0x1 PUSH1 0x0 PUSH2 0x100 EXP DUP2 SLOAD DUP2 PUSH20 0xFFFFFFFFFFFFFFFFFFFFFFFFFFFFFFFFFFFFFFFF MUL NOT AND SWAP1 DUP4 PUSH20 0xFFFFFFFFFFFFFFFFFFFFFFFFFFFFFFFFFFFFFFFF AND MUL OR SWAP1 SSTORE POP DUP4 PUSH1 0x2 PUSH1 0x0 PUSH2 0x100 EXP DUP2 SLOAD DUP2 PUSH20 0xFFFFFFFFFFFFFFFFFFFFFFFFFFFFFFFFFFFFFFFF MUL NOT AND SWAP1 DUP4 PUSH20 0xFFFFFFFFFFFFFFFFFFFFFFFFFFFFFFFFFFFFFFFF AND MUL OR SWAP1 SSTORE POP DUP3 PUSH1 0x3 PUSH1 0x0 PUSH2 0x100 EXP DUP2 SLOAD DUP2 PUSH20 0xFFFFFFFFFFFFFFFFFFFFFFFFFFFFFFFFFFFFFFFF MUL NOT AND SWAP1 DUP4 PUSH20 0xFFFFFFFFFFFFFFFFFFFFFFFFFFFFFFFFFFFFFFFF AND MUL OR SWAP1 SSTORE POP PUSH1 0x3 PUSH1 0x0 SWAP1 SLOAD SWAP1 PUSH2 0x100 EXP SWAP1 DIV PUSH20 0xFFFFFFFFFFFFFFFFFFFFFFFFFFFFFFFFFFFFFFFF AND PUSH1 0xA PUSH1 0x0 PUSH2 0x100 EXP DUP2 SLOAD DUP2 PUSH20 0xFFFFFFFFFFFFFFFFFFFFFFFFFFFFFFFFFFFFFFFF MUL NOT AND SWAP1 DUP4 PUSH20 0xFFFFFFFFFFFFFFFFFFFFFFFFFFFFFFFFFFFFFFFF AND MUL OR SWAP1 SSTORE POP DUP2 PUSH1 0x4 PUSH1 0x0 PUSH2 0x100 EXP DUP2 SLOAD DUP2 PUSH20 0xFFFFFFFFFFFFFFFFFFFFFFFFFFFFFFFFFFFFFFFF MUL NOT AND SWAP1 DUP4 PUSH20 0xFFFFFFFFFFFFFFFFFFFFFFFFFFFFFFFFFFFFFFFF AND MUL OR SWAP1 SSTORE POP DUP1 PUSH1 0x5 PUSH1 0x0 PUSH2 0x100 EXP DUP2 SLOAD DUP2 PUSH20 0xFFFFFFFFFFFFFFFFFFFFFFFFFFFFFFFFFFFFFFFF MUL NOT AND SWAP1 DUP4 PUSH20 0xFFFFFFFFFFFFFFFFFFFFFFFFFFFFFFFFFFFFFFFF AND MUL OR SWAP1 SSTORE POP PUSH1 0x5 PUSH1 0x0 SWAP1 SLOAD SWAP1 PUSH2 0x100 EXP SWAP1 DIV PUSH20 0xFFFFFFFFFFFFFFFFFFFFFFFFFFFFFFFFFFFFFFFF AND PUSH1 0x8 PUSH1 0x0 PUSH2 0x100 EXP DUP2 SLOAD DUP2 PUSH20 0xFFFFFFFFFFFFFFFFFFFFFFFFFFFFFFFFFFFFFFFF MUL NOT AND SWAP1 DUP4 PUSH20 0xFFFFFFFFFFFFFFFFFFFFFFFFFFFFFFFFFFFFFFFF AND MUL OR SWAP1 SSTORE POP POP POP POP POP POP PUSH3 0x6E2 JUMP JUMPDEST DUP3 DUP1 SLOAD DUP3 DUP3 SSTORE SWAP1 PUSH1 0x0 MSTORE PUSH1 0x20 PUSH1 0x0 KECCAK256 SWAP1 DUP2 ADD SWAP3 DUP3 ISZERO PUSH3 0x5BE JUMPI SWAP2 PUSH1 0x20 MUL DUP3 ADD JUMPDEST DUP3 DUP2 GT ISZERO PUSH3 0x5BD JUMPI DUP3 MLOAD DUP3 PUSH1 0x0 PUSH2 0x100 EXP DUP2 SLOAD DUP2 PUSH20 0xFFFFFFFFFFFFFFFFFFFFFFFFFFFFFFFFFFFFFFFF MUL NOT AND SWAP1 DUP4 PUSH20 0xFFFFFFFFFFFFFFFFFFFFFFFFFFFFFFFFFFFFFFFF AND MUL OR SWAP1 SSTORE POP SWAP2 PUSH1 0x20 ADD SWAP2 SWAP1 PUSH1 0x1 ADD SWAP1 PUSH3 0x563 JUMP JUMPDEST JUMPDEST POP SWAP1 POP PUSH3 0x5CD SWAP2 SWAP1 PUSH3 0x5D1 JUMP JUMPDEST POP SWAP1 JUMP JUMPDEST JUMPDEST DUP1 DUP3 GT ISZERO PUSH3 0x5EC JUMPI PUSH1 0x0 DUP2 PUSH1 0x0 SWAP1 SSTORE POP PUSH1 0x1 ADD PUSH3 0x5D2 JUMP JUMPDEST POP SWAP1 JUMP JUMPDEST PUSH1 0x0 DUP1 REVERT JUMPDEST PUSH1 0x0 PUSH20 0xFFFFFFFFFFFFFFFFFFFFFFFFFFFFFFFFFFFFFFFF DUP3 AND SWAP1 POP SWAP2 SWAP1 POP JUMP JUMPDEST PUSH1 0x0 PUSH3 0x622 DUP3 PUSH3 0x5F5 JUMP JUMPDEST SWAP1 POP SWAP2 SWAP1 POP JUMP JUMPDEST PUSH3 0x634 DUP2 PUSH3 0x615 JUMP JUMPDEST DUP2 EQ PUSH3 0x640 JUMPI PUSH1 0x0 DUP1 REVERT JUMPDEST POP JUMP JUMPDEST PUSH1 0x0 DUP2 MLOAD SWAP1 POP PUSH3 0x654 DUP2 PUSH3 0x629 JUMP JUMPDEST SWAP3 SWAP2 POP POP JUMP JUMPDEST PUSH1 0x0 DUP1 PUSH1 0x0 DUP1 PUSH1 0x0 PUSH1 0xA0 DUP7 DUP9 SUB SLT ISZERO PUSH3 0x679 JUMPI PUSH3 0x678 PUSH3 0x5F0 JUMP JUMPDEST JUMPDEST PUSH1 0x0 PUSH3 0x689 DUP9 DUP3 DUP10 ADD PUSH3 0x643 JUMP JUMPDEST SWAP6 POP POP PUSH1 0x20 PUSH3 0x69C DUP9 DUP3 DUP10 ADD PUSH3 0x643 JUMP JUMPDEST SWAP5 POP POP PUSH1 0x40 PUSH3 0x6AF DUP9 DUP3 DUP10 ADD PUSH3 0x643 JUMP JUMPDEST SWAP4 POP POP PUSH1 0x60 PUSH3 0x6C2 DUP9 DUP3 DUP10 ADD PUSH3 0x643 JUMP JUMPDEST SWAP3 POP POP PUSH1 0x80 PUSH3 0x6D5 DUP9 DUP3 DUP10 ADD PUSH3 0x643 JUMP JUMPDEST SWAP2 POP POP SWAP3 SWAP6 POP SWAP3 SWAP6 SWAP1 SWAP4 POP JUMP JUMPDEST PUSH2 0x1F71 DUP1 PUSH3 0x6F2 PUSH1 0x0 CODECOPY PUSH1 0x0 RETURN INVALID PUSH1 0x80 PUSH1 0x40 MSTORE PUSH1 0x4 CALLDATASIZE LT PUSH2 0x118 JUMPI PUSH1 0x0 CALLDATALOAD PUSH1 0xE0 SHR DUP1 PUSH4 0x9DD58B58 GT PUSH2 0xA0 JUMPI DUP1 PUSH4 0xAEF75107 GT PUSH2 0x64 JUMPI DUP1 PUSH4 0xAEF75107 EQ PUSH2 0x382 JUMPI DUP1 PUSH4 0xAF6D1FE4 EQ PUSH2 0x3AD JUMPI DUP1 PUSH4 0xBD3733FE EQ PUSH2 0x3EA JUMPI DUP1 PUSH4 0xBFD9EA5B EQ PUSH2 0x415 JUMPI DUP1 PUSH4 0xC1F2E5F1 EQ PUSH2 0x440 JUMPI PUSH2 0x11F JUMP JUMPDEST DUP1 PUSH4 0x9DD58B58 EQ PUSH2 0x2AB JUMPI DUP1 PUSH4 0xA09EDE07 EQ PUSH2 0x2D6 JUMPI DUP1 PUSH4 0xA6021ACE EQ PUSH2 0x301 JUMPI DUP1 PUSH4 0xA785A3D8 EQ PUSH2 0x32C JUMPI DUP1 PUSH4 0xA89AE4BA EQ PUSH2 0x357 JUMPI PUSH2 0x11F JUMP JUMPDEST DUP1 PUSH4 0x51CFF8D9 GT PUSH2 0xE7 JUMPI DUP1 PUSH4 0x51CFF8D9 EQ PUSH2 0x1E5 JUMPI DUP1 PUSH4 0x76537438 EQ PUSH2 0x20E JUMPI DUP1 PUSH4 0x777B506F EQ PUSH2 0x24B JUMPI DUP1 PUSH4 0x86D02608 EQ PUSH2 0x276 JUMPI DUP1 PUSH4 0x966824A3 EQ PUSH2 0x2A1 JUMPI PUSH2 0x11F JUMP JUMPDEST DUP1 PUSH4 0x1B017FDE EQ PUSH2 0x124 JUMPI DUP1 PUSH4 0x20CA3C7F EQ PUSH2 0x14D JUMPI DUP1 PUSH4 0x2C4C3C1B EQ PUSH2 0x178 JUMPI DUP1 PUSH4 0x4CFD1BA5 EQ PUSH2 0x1BA JUMPI PUSH2 0x11F JUMP JUMPDEST CALLDATASIZE PUSH2 0x11F JUMPI STOP JUMPDEST PUSH1 0x0 DUP1 REVERT JUMPDEST CALLVALUE DUP1 ISZERO PUSH2 0x130 JUMPI PUSH1 0x0 DUP1 REVERT JUMPDEST POP PUSH2 0x14B PUSH1 0x4 DUP1 CALLDATASIZE SUB DUP2 ADD SWAP1 PUSH2 0x146 SWAP2 SWAP1 PUSH2 0x16BC JUMP JUMPDEST PUSH2 0x46B JUMP JUMPDEST STOP JUMPDEST CALLVALUE DUP1 ISZERO PUSH2 0x159 JUMPI PUSH1 0x0 DUP1 REVERT JUMPDEST POP PUSH2 0x162 PUSH2 0x4AF JUMP JUMPDEST PUSH1 0x40 MLOAD PUSH2 0x16F SWAP2 SWAP1 PUSH2 0x16F8 JUMP JUMPDEST PUSH1 0x40 MLOAD DUP1 SWAP2 SUB SWAP1 RETURN JUMPDEST CALLVALUE DUP1 ISZERO PUSH2 0x184 JUMPI PUSH1 0x0 DUP1 REVERT JUMPDEST POP PUSH2 0x19F PUSH1 0x4 DUP1 CALLDATASIZE SUB DUP2 ADD SWAP1 PUSH2 0x19A SWAP2 SWAP1 PUSH2 0x1749 JUMP JUMPDEST PUSH2 0x4D5 JUMP JUMPDEST PUSH1 0x40 MLOAD PUSH2 0x1B1 SWAP7 SWAP6 SWAP5 SWAP4 SWAP3 SWAP2 SWAP1 PUSH2 0x17A0 JUMP JUMPDEST PUSH1 0x40 MLOAD DUP1 SWAP2 SUB SWAP1 RETURN JUMPDEST CALLVALUE DUP1 ISZERO PUSH2 0x1C6 JUMPI PUSH1 0x0 DUP1 REVERT JUMPDEST POP PUSH2 0x1CF PUSH2 0x54B JUMP JUMPDEST PUSH1 0x40 MLOAD PUSH2 0x1DC SWAP2 SWAP1 PUSH2 0x1801 JUMP JUMPDEST PUSH1 0x40 MLOAD DUP1 SWAP2 SUB SWAP1 RETURN JUMPDEST CALLVALUE DUP1 ISZERO PUSH2 0x1F1 JUMPI PUSH1 0x0 DUP1 REVERT JUMPDEST POP PUSH2 0x20C PUSH1 0x4 DUP1 CALLDATASIZE SUB DUP2 ADD SWAP1 PUSH2 0x207 SWAP2 SWAP1 PUSH2 0x16BC JUMP JUMPDEST PUSH2 0x551 JUMP JUMPDEST STOP JUMPDEST CALLVALUE DUP1 ISZERO PUSH2 0x21A JUMPI PUSH1 0x0 DUP1 REVERT JUMPDEST POP PUSH2 0x235 PUSH1 0x4 DUP1 CALLDATASIZE SUB DUP2 ADD SWAP1 PUSH2 0x230 SWAP2 SWAP1 PUSH2 0x1749 JUMP JUMPDEST PUSH2 0x658 JUMP JUMPDEST PUSH1 0x40 MLOAD PUSH2 0x242 SWAP2 SWAP1 PUSH2 0x181C JUMP JUMPDEST PUSH1 0x40 MLOAD DUP1 SWAP2 SUB SWAP1 RETURN JUMPDEST CALLVALUE DUP1 ISZERO PUSH2 0x257 JUMPI PUSH1 0x0 DUP1 REVERT JUMPDEST POP PUSH2 0x260 PUSH2 0x6E7 JUMP JUMPDEST PUSH1 0x40 MLOAD PUSH2 0x26D SWAP2 SWAP1 PUSH2 0x16F8 JUMP JUMPDEST PUSH1 0x40 MLOAD DUP1 SWAP2 SUB SWAP1 RETURN JUMPDEST CALLVALUE DUP1 ISZERO PUSH2 0x282 JUMPI PUSH1 0x0 DUP1 REVERT JUMPDEST POP PUSH2 0x28B PUSH2 0x70D JUMP JUMPDEST PUSH1 0x40 MLOAD PUSH2 0x298 SWAP2 SWAP1 PUSH2 0x1801 JUMP JUMPDEST PUSH1 0x40 MLOAD DUP1 SWAP2 SUB SWAP1 RETURN JUMPDEST PUSH2 0x2A9 PUSH2 0x713 JUMP JUMPDEST STOP JUMPDEST CALLVALUE DUP1 ISZERO PUSH2 0x2B7 JUMPI PUSH1 0x0 DUP1 REVERT JUMPDEST POP PUSH2 0x2C0 PUSH2 0x727 JUMP JUMPDEST PUSH1 0x40 MLOAD PUSH2 0x2CD SWAP2 SWAP1 PUSH2 0x1801 JUMP JUMPDEST PUSH1 0x40 MLOAD DUP1 SWAP2 SUB SWAP1 RETURN JUMPDEST CALLVALUE DUP1 ISZERO PUSH2 0x2E2 JUMPI PUSH1 0x0 DUP1 REVERT JUMPDEST POP PUSH2 0x2EB PUSH2 0x7CC JUMP JUMPDEST PUSH1 0x40 MLOAD PUSH2 0x2F8 SWAP2 SWAP1 PUSH2 0x1801 JUMP JUMPDEST PUSH1 0x40 MLOAD DUP1 SWAP2 SUB SWAP1 RETURN JUMPDEST CALLVALUE DUP1 ISZERO PUSH2 0x30D JUMPI PUSH1 0x0 DUP1 REVERT JUMPDEST POP PUSH2 0x316 PUSH2 0x7D2 JUMP JUMPDEST PUSH1 0x40 MLOAD PUSH2 0x323 SWAP2 SWAP1 PUSH2 0x16F8 JUMP JUMPDEST PUSH1 0x40 MLOAD DUP1 SWAP2 SUB SWAP1 RETURN JUMPDEST CALLVALUE DUP1 ISZERO PUSH2 0x338 JUMPI PUSH1 0x0 DUP1 REVERT JUMPDEST POP PUSH2 0x341 PUSH2 0x7F8 JUMP JUMPDEST PUSH1 0x40 MLOAD PUSH2 0x34E SWAP2 SWAP1 PUSH2 0x16F8 JUMP JUMPDEST PUSH1 0x40 MLOAD DUP1 SWAP2 SUB SWAP1 RETURN JUMPDEST CALLVALUE DUP1 ISZERO PUSH2 0x363 JUMPI PUSH1 0x0 DUP1 REVERT JUMPDEST POP PUSH2 0x36C PUSH2 0x81C JUMP JUMPDEST PUSH1 0x40 MLOAD PUSH2 0x379 SWAP2 SWAP1 PUSH2 0x16F8 JUMP JUMPDEST PUSH1 0x40 MLOAD DUP1 SWAP2 SUB SWAP1 RETURN JUMPDEST CALLVALUE DUP1 ISZERO PUSH2 0x38E JUMPI PUSH1 0x0 DUP1 REVERT JUMPDEST POP PUSH2 0x397 PUSH2 0x842 JUMP JUMPDEST PUSH1 0x40 MLOAD PUSH2 0x3A4 SWAP2 SWAP1 PUSH2 0x16F8 JUMP JUMPDEST PUSH1 0x40 MLOAD DUP1 SWAP2 SUB SWAP1 RETURN JUMPDEST CALLVALUE DUP1 ISZERO PUSH2 0x3B9 JUMPI PUSH1 0x0 DUP1 REVERT JUMPDEST POP PUSH2 0x3D4 PUSH1 0x4 DUP1 CALLDATASIZE SUB DUP2 ADD SWAP1 PUSH2 0x3CF SWAP2 SWAP1 PUSH2 0x1749 JUMP JUMPDEST PUSH2 0x868 JUMP JUMPDEST PUSH1 0x40 MLOAD PUSH2 0x3E1 SWAP2 SWAP1 PUSH2 0x16F8 JUMP JUMPDEST PUSH1 0x40 MLOAD DUP1 SWAP2 SUB SWAP1 RETURN JUMPDEST CALLVALUE DUP1 ISZERO PUSH2 0x3F6 JUMPI PUSH1 0x0 DUP1 REVERT JUMPDEST POP PUSH2 0x3FF PUSH2 0x8A7 JUMP JUMPDEST PUSH1 0x40 MLOAD PUSH2 0x40C SWAP2 SWAP1 PUSH2 0x16F8 JUMP JUMPDEST PUSH1 0x40 MLOAD DUP1 SWAP2 SUB SWAP1 RETURN JUMPDEST CALLVALUE DUP1 ISZERO PUSH2 0x421 JUMPI PUSH1 0x0 DUP1 REVERT JUMPDEST POP PUSH2 0x42A PUSH2 0x8CD JUMP JUMPDEST PUSH1 0x40 MLOAD PUSH2 0x437 SWAP2 SWAP1 PUSH2 0x1801 JUMP JUMPDEST PUSH1 0x40 MLOAD DUP1 SWAP2 SUB SWAP1 RETURN JUMPDEST CALLVALUE DUP1 ISZERO PUSH2 0x44C JUMPI PUSH1 0x0 DUP1 REVERT JUMPDEST POP PUSH2 0x455 PUSH2 0x8F0 JUMP JUMPDEST PUSH1 0x40 MLOAD PUSH2 0x462 SWAP2 SWAP1 PUSH2 0x1801 JUMP JUMPDEST PUSH1 0x40 MLOAD DUP1 SWAP2 SUB SWAP1 RETURN JUMPDEST DUP1 PUSH1 0x1 PUSH1 0x0 PUSH2 0x100 EXP DUP2 SLOAD DUP2 PUSH20 0xFFFFFFFFFFFFFFFFFFFFFFFFFFFFFFFFFFFFFFFF MUL NOT AND SWAP1 DUP4 PUSH20 0xFFFFFFFFFFFFFFFFFFFFFFFFFFFFFFFFFFFFFFFF AND MUL OR SWAP1 SSTORE POP POP JUMP JUMPDEST PUSH1 0x6 PUSH1 0x0 SWAP1 SLOAD SWAP1 PUSH2 0x100 EXP SWAP1 DIV PUSH20 0xFFFFFFFFFFFFFFFFFFFFFFFFFFFFFFFFFFFFFFFF AND DUP2 JUMP JUMPDEST PUSH1 0xC PUSH1 0x20 MSTORE DUP1 PUSH1 0x0 MSTORE PUSH1 0x40 PUSH1 0x0 KECCAK256 PUSH1 0x0 SWAP2 POP SWAP1 POP DUP1 PUSH1 0x0 ADD SLOAD SWAP1 DUP1 PUSH1 0x1 ADD PUSH1 0x0 SWAP1 SLOAD SWAP1 PUSH2 0x100 EXP SWAP1 DIV PUSH20 0xFFFFFFFFFFFFFFFFFFFFFFFFFFFFFFFFFFFFFFFF AND SWAP1 DUP1 PUSH1 0x2 ADD SLOAD SWAP1 DUP1 PUSH1 0x3 ADD PUSH1 0x0 SWAP1 SLOAD SWAP1 PUSH2 0x100 EXP SWAP1 DIV PUSH1 0xFF AND SWAP1 DUP1 PUSH1 0x4 ADD SLOAD SWAP1 DUP1 PUSH1 0x5 ADD PUSH1 0x0 SWAP1 SLOAD SWAP1 PUSH2 0x100 EXP SWAP1 DIV PUSH1 0xFF AND SWAP1 POP DUP7 JUMP JUMPDEST PUSH1 0xF SLOAD DUP2 JUMP JUMPDEST PUSH1 0x0 DUP2 SWAP1 POP PUSH1 0x0 DUP2 PUSH20 0xFFFFFFFFFFFFFFFFFFFFFFFFFFFFFFFFFFFFFFFF AND PUSH4 0x70A08231 ADDRESS PUSH1 0x40 MLOAD DUP3 PUSH4 0xFFFFFFFF AND PUSH1 0xE0 SHL DUP2 MSTORE PUSH1 0x4 ADD PUSH2 0x591 SWAP2 SWAP1 PUSH2 0x16F8 JUMP JUMPDEST PUSH1 0x20 PUSH1 0x40 MLOAD DUP1 DUP4 SUB DUP2 DUP7 GAS STATICCALL ISZERO DUP1 ISZERO PUSH2 0x5AE JUMPI RETURNDATASIZE PUSH1 0x0 DUP1 RETURNDATACOPY RETURNDATASIZE PUSH1 0x0 REVERT JUMPDEST POP POP POP POP PUSH1 0x40 MLOAD RETURNDATASIZE PUSH1 0x1F NOT PUSH1 0x1F DUP3 ADD AND DUP3 ADD DUP1 PUSH1 0x40 MSTORE POP DUP2 ADD SWAP1 PUSH2 0x5D2 SWAP2 SWAP1 PUSH2 0x184C JUMP JUMPDEST SWAP1 POP DUP2 PUSH20 0xFFFFFFFFFFFFFFFFFFFFFFFFFFFFFFFFFFFFFFFF AND PUSH4 0xA9059CBB CALLER DUP4 PUSH1 0x40 MLOAD DUP4 PUSH4 0xFFFFFFFF AND PUSH1 0xE0 SHL DUP2 MSTORE PUSH1 0x4 ADD PUSH2 0x60F SWAP3 SWAP2 SWAP1 PUSH2 0x1879 JUMP JUMPDEST PUSH1 0x20 PUSH1 0x40 MLOAD DUP1 DUP4 SUB DUP2 PUSH1 0x0 DUP8 GAS CALL ISZERO DUP1 ISZERO PUSH2 0x62E JUMPI RETURNDATASIZE PUSH1 0x0 DUP1 RETURNDATACOPY RETURNDATASIZE PUSH1 0x0 REVERT JUMPDEST POP POP POP POP PUSH1 0x40 MLOAD RETURNDATASIZE PUSH1 0x1F NOT PUSH1 0x1F DUP3 ADD AND DUP3 ADD DUP1 PUSH1 0x40 MSTORE POP DUP2 ADD SWAP1 PUSH2 0x652 SWAP2 SWAP1 PUSH2 0x18CE JUMP JUMPDEST POP POP POP POP JUMP JUMPDEST PUSH1 0x0 PUSH1 0x4 PUSH1 0x0 SWAP1 SLOAD SWAP1 PUSH2 0x100 EXP SWAP1 DIV PUSH20 0xFFFFFFFFFFFFFFFFFFFFFFFFFFFFFFFFFFFFFFFF AND PUSH20 0xFFFFFFFFFFFFFFFFFFFFFFFFFFFFFFFFFFFFFFFF AND CALLER PUSH20 0xFFFFFFFFFFFFFFFFFFFFFFFFFFFFFFFFFFFFFFFF AND EQ PUSH2 0x6B4 JUMPI PUSH1 0x0 DUP1 REVERT JUMPDEST PUSH1 0x0 PUSH1 0xC PUSH1 0x0 PUSH1 0xD DUP1 SLOAD SWAP1 POP DUP2 MSTORE PUSH1 0x20 ADD SWAP1 DUP2 MSTORE PUSH1 0x20 ADD PUSH1 0x0 KECCAK256 PUSH1 0x2 ADD SLOAD SWAP1 POP PUSH2 0x6DD DUP2 PUSH2 0xA67 JUMP JUMPDEST PUSH1 0x1 SWAP2 POP POP SWAP2 SWAP1 POP JUMP JUMPDEST PUSH1 0x4 PUSH1 0x0 SWAP1 SLOAD SWAP1 PUSH2 0x100 EXP SWAP1 DIV PUSH20 0xFFFFFFFFFFFFFFFFFFFFFFFFFFFFFFFFFFFFFFFF AND DUP2 JUMP JUMPDEST PUSH1 0xE SLOAD DUP2 JUMP JUMPDEST PUSH2 0x71C CALLVALUE PUSH2 0x658 JUMP JUMPDEST POP PUSH2 0x725 PUSH2 0xACD JUMP JUMPDEST JUMP JUMPDEST PUSH1 0x0 PUSH1 0x9 PUSH1 0x0 SWAP1 SLOAD SWAP1 PUSH2 0x100 EXP SWAP1 DIV PUSH20 0xFFFFFFFFFFFFFFFFFFFFFFFFFFFFFFFFFFFFFFFF AND PUSH20 0xFFFFFFFFFFFFFFFFFFFFFFFFFFFFFFFFFFFFFFFF AND PUSH4 0x70A08231 ADDRESS PUSH1 0x40 MLOAD DUP3 PUSH4 0xFFFFFFFF AND PUSH1 0xE0 SHL DUP2 MSTORE PUSH1 0x4 ADD PUSH2 0x784 SWAP2 SWAP1 PUSH2 0x16F8 JUMP JUMPDEST PUSH1 0x20 PUSH1 0x40 MLOAD DUP1 DUP4 SUB DUP2 PUSH1 0x0 DUP8 GAS CALL ISZERO DUP1 ISZERO PUSH2 0x7A3 JUMPI RETURNDATASIZE PUSH1 0x0 DUP1 RETURNDATACOPY RETURNDATASIZE PUSH1 0x0 REVERT JUMPDEST POP POP POP POP PUSH1 0x40 MLOAD RETURNDATASIZE PUSH1 0x1F NOT PUSH1 0x1F DUP3 ADD AND DUP3 ADD DUP1 PUSH1 0x40 MSTORE POP DUP2 ADD SWAP1 PUSH2 0x7C7 SWAP2 SWAP1 PUSH2 0x184C JUMP JUMPDEST SWAP1 POP SWAP1 JUMP JUMPDEST PUSH1 0x10 SLOAD DUP2 JUMP JUMPDEST PUSH1 0x1 PUSH1 0x0 SWAP1 SLOAD SWAP1 PUSH2 0x100 EXP SWAP1 DIV PUSH20 0xFFFFFFFFFFFFFFFFFFFFFFFFFFFFFFFFFFFFFFFF AND DUP2 JUMP JUMPDEST PUSH1 0x0 DUP1 SLOAD SWAP1 PUSH2 0x100 EXP SWAP1 DIV PUSH20 0xFFFFFFFFFFFFFFFFFFFFFFFFFFFFFFFFFFFFFFFF AND DUP2 JUMP JUMPDEST PUSH1 0x3 PUSH1 0x0 SWAP1 SLOAD SWAP1 PUSH2 0x100 EXP SWAP1 DIV PUSH20 0xFFFFFFFFFFFFFFFFFFFFFFFFFFFFFFFFFFFFFFFF AND DUP2 JUMP JUMPDEST PUSH1 0x5 PUSH1 0x0 SWAP1 SLOAD SWAP1 PUSH2 0x100 EXP SWAP1 DIV PUSH20 0xFFFFFFFFFFFFFFFFFFFFFFFFFFFFFFFFFFFFFFFF AND DUP2 JUMP JUMPDEST PUSH1 0x7 DUP2 DUP2 SLOAD DUP2 LT PUSH2 0x878 JUMPI PUSH1 0x0 DUP1 REVERT JUMPDEST SWAP1 PUSH1 0x0 MSTORE PUSH1 0x20 PUSH1 0x0 KECCAK256 ADD PUSH1 0x0 SWAP2 POP SLOAD SWAP1 PUSH2 0x100 EXP SWAP1 DIV PUSH20 0xFFFFFFFFFFFFFFFFFFFFFFFFFFFFFFFFFFFFFFFF AND DUP2 JUMP JUMPDEST PUSH1 0x2 PUSH1 0x0 SWAP1 SLOAD SWAP1 PUSH2 0x100 EXP SWAP1 DIV PUSH20 0xFFFFFFFFFFFFFFFFFFFFFFFFFFFFFFFFFFFFFFFF AND DUP2 JUMP JUMPDEST PUSH1 0x0 PUSH1 0xC PUSH1 0x0 PUSH1 0xD DUP1 SLOAD SWAP1 POP DUP2 MSTORE PUSH1 0x20 ADD SWAP1 DUP2 MSTORE PUSH1 0x20 ADD PUSH1 0x0 KECCAK256 PUSH1 0x2 ADD SLOAD SWAP1 POP SWAP1 JUMP JUMPDEST PUSH1 0x0 DUP1 PUSH1 0x1 PUSH1 0x0 SWAP1 SLOAD SWAP1 PUSH2 0x100 EXP SWAP1 DIV PUSH20 0xFFFFFFFFFFFFFFFFFFFFFFFFFFFFFFFFFFFFFFFF AND PUSH20 0xFFFFFFFFFFFFFFFFFFFFFFFFFFFFFFFFFFFFFFFF AND PUSH4 0x18160DDD PUSH1 0x40 MLOAD DUP2 PUSH4 0xFFFFFFFF AND PUSH1 0xE0 SHL DUP2 MSTORE PUSH1 0x4 ADD PUSH1 0x20 PUSH1 0x40 MLOAD DUP1 DUP4 SUB DUP2 DUP7 GAS STATICCALL ISZERO DUP1 ISZERO PUSH2 0x960 JUMPI RETURNDATASIZE PUSH1 0x0 DUP1 RETURNDATACOPY RETURNDATASIZE PUSH1 0x0 REVERT JUMPDEST POP POP POP POP PUSH1 0x40 MLOAD RETURNDATASIZE PUSH1 0x1F NOT PUSH1 0x1F DUP3 ADD AND DUP3 ADD DUP1 PUSH1 0x40 MSTORE POP DUP2 ADD SWAP1 PUSH2 0x984 SWAP2 SWAP1 PUSH2 0x184C JUMP JUMPDEST SWAP1 POP PUSH1 0x0 PUSH1 0x1 PUSH1 0x0 SWAP1 SLOAD SWAP1 PUSH2 0x100 EXP SWAP1 DIV PUSH20 0xFFFFFFFFFFFFFFFFFFFFFFFFFFFFFFFFFFFFFFFF AND PUSH20 0xFFFFFFFFFFFFFFFFFFFFFFFFFFFFFFFFFFFFFFFF AND PUSH4 0x70A08231 PUSH1 0x2 PUSH1 0x0 SWAP1 SLOAD SWAP1 PUSH2 0x100 EXP SWAP1 DIV PUSH20 0xFFFFFFFFFFFFFFFFFFFFFFFFFFFFFFFFFFFFFFFF AND PUSH1 0x40 MLOAD DUP3 PUSH4 0xFFFFFFFF AND PUSH1 0xE0 SHL DUP2 MSTORE PUSH1 0x4 ADD PUSH2 0xA05 SWAP2 SWAP1 PUSH2 0x16F8 JUMP JUMPDEST PUSH1 0x20 PUSH1 0x40 MLOAD DUP1 DUP4 SUB DUP2 DUP7 GAS STATICCALL ISZERO DUP1 ISZERO PUSH2 0xA22 JUMPI RETURNDATASIZE PUSH1 0x0 DUP1 RETURNDATACOPY RETURNDATASIZE PUSH1 0x0 REVERT JUMPDEST POP POP POP POP PUSH1 0x40 MLOAD RETURNDATASIZE PUSH1 0x1F NOT PUSH1 0x1F DUP3 ADD AND DUP3 ADD DUP1 PUSH1 0x40 MSTORE POP DUP2 ADD SWAP1 PUSH2 0xA46 SWAP2 SWAP1 PUSH2 0x184C JUMP JUMPDEST SWAP1 POP DUP2 PUSH1 0x64 DUP3 PUSH2 0xA56 SWAP2 SWAP1 PUSH2 0x192A JUMP JUMPDEST PUSH2 0xA60 SWAP2 SWAP1 PUSH2 0x199B JUMP JUMPDEST SWAP3 POP POP POP SWAP1 JUMP JUMPDEST PUSH1 0x0 PUSH1 0xD DUP1 SLOAD SWAP1 POP SWAP1 POP PUSH1 0x0 PUSH1 0xC PUSH1 0x0 PUSH1 0xD DUP1 SLOAD SWAP1 POP DUP2 MSTORE PUSH1 0x20 ADD SWAP1 DUP2 MSTORE PUSH1 0x20 ADD PUSH1 0x0 KECCAK256 SWAP1 POP DUP2 DUP2 PUSH1 0x0 ADD DUP2 SWAP1 SSTORE POP DUP3 DUP2 PUSH1 0x2 ADD DUP2 SWAP1 SSTORE POP PUSH1 0xD DUP3 SWAP1 DUP1 PUSH1 0x1 DUP2 SLOAD ADD DUP1 DUP3 SSTORE DUP1 SWAP2 POP POP PUSH1 0x1 SWAP1 SUB SWAP1 PUSH1 0x0 MSTORE PUSH1 0x20 PUSH1 0x0 KECCAK256 ADD PUSH1 0x0 SWAP1 SWAP2 SWAP1 SWAP2 SWAP1 SWAP2 POP SSTORE POP POP POP JUMP JUMPDEST PUSH1 0x0 CALLVALUE SWAP1 POP PUSH1 0x0 PUSH1 0xF SLOAD GT ISZERO PUSH2 0xB1F JUMPI PUSH1 0x0 SELFBALANCE SWAP1 POP PUSH2 0xAED PUSH1 0xF SLOAD PUSH2 0xD2C JUMP JUMPDEST PUSH1 0x0 SELFBALANCE SWAP1 POP PUSH1 0x0 DUP2 DUP4 PUSH2 0xB00 SWAP2 SWAP1 PUSH2 0x19CC JUMP JUMPDEST SWAP1 POP DUP1 PUSH1 0xF PUSH1 0x0 DUP3 DUP3 SLOAD PUSH2 0xB14 SWAP2 SWAP1 PUSH2 0x19CC JUMP JUMPDEST SWAP3 POP POP DUP2 SWAP1 SSTORE POP POP POP POP JUMPDEST PUSH1 0x0 PUSH1 0x10 SLOAD GT ISZERO PUSH2 0xB6D JUMPI PUSH1 0x0 SELFBALANCE SWAP1 POP PUSH2 0xB3A PUSH1 0x10 SLOAD PUSH2 0xDCC JUMP JUMPDEST POP PUSH1 0x0 SELFBALANCE SWAP1 POP PUSH1 0x0 DUP2 DUP4 PUSH2 0xB4E SWAP2 SWAP1 PUSH2 0x19CC JUMP JUMPDEST SWAP1 POP DUP1 PUSH1 0x10 PUSH1 0x0 DUP3 DUP3 SLOAD PUSH2 0xB62 SWAP2 SWAP1 PUSH2 0x19CC JUMP JUMPDEST SWAP3 POP POP DUP2 SWAP1 SSTORE POP POP POP POP JUMPDEST PUSH1 0x1 PUSH1 0xD DUP1 SLOAD SWAP1 POP SUB ISZERO PUSH2 0xC5F JUMPI PUSH1 0x0 PUSH1 0xC PUSH1 0x0 PUSH1 0x2 PUSH1 0xD DUP1 SLOAD SWAP1 POP PUSH2 0xB93 SWAP2 SWAP1 PUSH2 0x19CC JUMP JUMPDEST DUP2 MSTORE PUSH1 0x20 ADD SWAP1 DUP2 MSTORE PUSH1 0x20 ADD PUSH1 0x0 KECCAK256 PUSH1 0x1 ADD PUSH1 0x0 SWAP1 SLOAD SWAP1 PUSH2 0x100 EXP SWAP1 DIV PUSH20 0xFFFFFFFFFFFFFFFFFFFFFFFFFFFFFFFFFFFFFFFF AND SWAP1 POP PUSH2 0xBD0 DUP2 PUSH2 0x12A7 JUMP JUMPDEST PUSH1 0x8 PUSH1 0x0 SWAP1 SLOAD SWAP1 PUSH2 0x100 EXP SWAP1 DIV PUSH20 0xFFFFFFFFFFFFFFFFFFFFFFFFFFFFFFFFFFFFFFFF AND PUSH20 0xFFFFFFFFFFFFFFFFFFFFFFFFFFFFFFFFFFFFFFFF AND PUSH4 0x6A627842 DUP3 PUSH1 0x40 MLOAD DUP3 PUSH4 0xFFFFFFFF AND PUSH1 0xE0 SHL DUP2 MSTORE PUSH1 0x4 ADD PUSH2 0xC2B SWAP2 SWAP1 PUSH2 0x16F8 JUMP JUMPDEST PUSH1 0x0 PUSH1 0x40 MLOAD DUP1 DUP4 SUB DUP2 PUSH1 0x0 DUP8 DUP1 EXTCODESIZE ISZERO DUP1 ISZERO PUSH2 0xC45 JUMPI PUSH1 0x0 DUP1 REVERT JUMPDEST POP GAS CALL ISZERO DUP1 ISZERO PUSH2 0xC59 JUMPI RETURNDATASIZE PUSH1 0x0 DUP1 RETURNDATACOPY RETURNDATASIZE PUSH1 0x0 REVERT JUMPDEST POP POP POP POP POP JUMPDEST PUSH1 0x0 PUSH2 0xC69 PUSH2 0x8F0 JUMP JUMPDEST SWAP1 POP PUSH1 0x14 DUP2 GT ISZERO PUSH2 0xCC9 JUMPI PUSH1 0x0 SELFBALANCE SWAP1 POP PUSH2 0xC82 CALLVALUE PUSH2 0xD2C JUMP JUMPDEST PUSH1 0x0 SELFBALANCE SWAP1 POP PUSH1 0x0 DUP2 DUP4 PUSH2 0xC95 SWAP2 SWAP1 PUSH2 0x19CC JUMP JUMPDEST SWAP1 POP PUSH1 0x0 DUP2 DUP7 PUSH2 0xCA5 SWAP2 SWAP1 PUSH2 0x19CC JUMP JUMPDEST SWAP1 POP DUP1 PUSH1 0xF PUSH1 0x0 DUP3 DUP3 SLOAD PUSH2 0xCB9 SWAP2 SWAP1 PUSH2 0x1A00 JUMP JUMPDEST SWAP3 POP POP DUP2 SWAP1 SSTORE POP POP POP POP POP PUSH2 0xD28 JUMP JUMPDEST PUSH1 0x0 SELFBALANCE SWAP1 POP PUSH2 0xCE4 CALLVALUE PUSH1 0x10 SLOAD PUSH2 0xCDF SWAP2 SWAP1 PUSH2 0x1A00 JUMP JUMPDEST PUSH2 0xDCC JUMP JUMPDEST POP PUSH1 0x0 SELFBALANCE SWAP1 POP PUSH1 0x0 DUP2 DUP4 PUSH2 0xCF8 SWAP2 SWAP1 PUSH2 0x19CC JUMP JUMPDEST SWAP1 POP PUSH1 0x0 DUP2 DUP7 PUSH2 0xD08 SWAP2 SWAP1 PUSH2 0x19CC JUMP JUMPDEST SWAP1 POP DUP1 PUSH1 0x10 PUSH1 0x0 DUP3 DUP3 SLOAD PUSH2 0xD1C SWAP2 SWAP1 PUSH2 0x1A00 JUMP JUMPDEST SWAP3 POP POP DUP2 SWAP1 SSTORE POP POP POP POP POP JUMPDEST POP POP JUMP JUMPDEST PUSH1 0x0 PUSH2 0xD37 DUP3 PUSH2 0x1429 JUMP JUMPDEST SWAP1 POP PUSH1 0x1 PUSH1 0x0 SWAP1 SLOAD SWAP1 PUSH2 0x100 EXP SWAP1 DIV PUSH20 0xFFFFFFFFFFFFFFFFFFFFFFFFFFFFFFFFFFFFFFFF AND PUSH20 0xFFFFFFFFFFFFFFFFFFFFFFFFFFFFFFFFFFFFFFFF AND PUSH4 0x9DC29FAC CALLER DUP4 PUSH1 0x40 MLOAD DUP4 PUSH4 0xFFFFFFFF AND PUSH1 0xE0 SHL DUP2 MSTORE PUSH1 0x4 ADD PUSH2 0xD96 SWAP3 SWAP2 SWAP1 PUSH2 0x1879 JUMP JUMPDEST PUSH1 0x0 PUSH1 0x40 MLOAD DUP1 DUP4 SUB DUP2 PUSH1 0x0 DUP8 DUP1 EXTCODESIZE ISZERO DUP1 ISZERO PUSH2 0xDB0 JUMPI PUSH1 0x0 DUP1 REVERT JUMPDEST POP GAS CALL ISZERO DUP1 ISZERO PUSH2 0xDC4 JUMPI RETURNDATASIZE PUSH1 0x0 DUP1 RETURNDATACOPY RETURNDATASIZE PUSH1 0x0 REVERT JUMPDEST POP POP POP POP POP POP JUMP JUMPDEST PUSH1 0x0 DUP1 PUSH1 0x0 PUSH1 0x1 PUSH1 0x0 SWAP1 SLOAD SWAP1 PUSH2 0x100 EXP SWAP1 DIV PUSH20 0xFFFFFFFFFFFFFFFFFFFFFFFFFFFFFFFFFFFFFFFF AND PUSH20 0xFFFFFFFFFFFFFFFFFFFFFFFFFFFFFFFFFFFFFFFF AND PUSH4 0x70A08231 ADDRESS PUSH1 0x40 MLOAD DUP3 PUSH4 0xFFFFFFFF AND PUSH1 0xE0 SHL DUP2 MSTORE PUSH1 0x4 ADD PUSH2 0xE2C SWAP2 SWAP1 PUSH2 0x16F8 JUMP JUMPDEST PUSH1 0x20 PUSH1 0x40 MLOAD DUP1 DUP4 SUB DUP2 DUP7 GAS STATICCALL ISZERO DUP1 ISZERO PUSH2 0xE49 JUMPI RETURNDATASIZE PUSH1 0x0 DUP1 RETURNDATACOPY RETURNDATASIZE PUSH1 0x0 REVERT JUMPDEST POP POP POP POP PUSH1 0x40 MLOAD RETURNDATASIZE PUSH1 0x1F NOT PUSH1 0x1F DUP3 ADD AND DUP3 ADD DUP1 PUSH1 0x40 MSTORE POP DUP2 ADD SWAP1 PUSH2 0xE6D SWAP2 SWAP1 PUSH2 0x184C JUMP JUMPDEST SWAP1 POP PUSH1 0x0 PUSH1 0x64 PUSH1 0x69 PUSH1 0xA PUSH1 0x0 SWAP1 SLOAD SWAP1 PUSH2 0x100 EXP SWAP1 DIV PUSH20 0xFFFFFFFFFFFFFFFFFFFFFFFFFFFFFFFFFFFFFFFF AND PUSH20 0xFFFFFFFFFFFFFFFFFFFFFFFFFFFFFFFFFFFFFFFF AND PUSH4 0x3AC35585 PUSH1 0x0 DUP1 SLOAD SWAP1 PUSH2 0x100 EXP SWAP1 DIV PUSH20 0xFFFFFFFFFFFFFFFFFFFFFFFFFFFFFFFFFFFFFFFF AND DUP10 PUSH1 0x40 MLOAD DUP4 PUSH4 0xFFFFFFFF AND PUSH1 0xE0 SHL DUP2 MSTORE PUSH1 0x4 ADD PUSH2 0xEF2 SWAP3 SWAP2 SWAP1 PUSH2 0x1879 JUMP JUMPDEST PUSH1 0x20 PUSH1 0x40 MLOAD DUP1 DUP4 SUB DUP2 DUP7 GAS STATICCALL ISZERO DUP1 ISZERO PUSH2 0xF0F JUMPI RETURNDATASIZE PUSH1 0x0 DUP1 RETURNDATACOPY RETURNDATASIZE PUSH1 0x0 REVERT JUMPDEST POP POP POP POP PUSH1 0x40 MLOAD RETURNDATASIZE PUSH1 0x1F NOT PUSH1 0x1F DUP3 ADD AND DUP3 ADD DUP1 PUSH1 0x40 MSTORE POP DUP2 ADD SWAP1 PUSH2 0xF33 SWAP2 SWAP1 PUSH2 0x184C JUMP JUMPDEST PUSH2 0xF3D SWAP2 SWAP1 PUSH2 0x192A JUMP JUMPDEST PUSH2 0xF47 SWAP2 SWAP1 PUSH2 0x199B JUMP JUMPDEST SWAP1 POP DUP2 DUP2 GT ISZERO PUSH2 0x108A JUMPI PUSH1 0x1 PUSH1 0x0 SWAP1 SLOAD SWAP1 PUSH2 0x100 EXP SWAP1 DIV PUSH20 0xFFFFFFFFFFFFFFFFFFFFFFFFFFFFFFFFFFFFFFFF AND PUSH20 0xFFFFFFFFFFFFFFFFFFFFFFFFFFFFFFFFFFFFFFFF AND PUSH4 0x96FE8349 DUP4 DUP4 PUSH2 0xF9B SWAP2 SWAP1 PUSH2 0x19CC JUMP JUMPDEST ADDRESS PUSH1 0x40 MLOAD DUP4 PUSH4 0xFFFFFFFF AND PUSH1 0xE0 SHL DUP2 MSTORE PUSH1 0x4 ADD PUSH2 0xFB9 SWAP3 SWAP2 SWAP1 PUSH2 0x1A34 JUMP JUMPDEST PUSH1 0x0 PUSH1 0x40 MLOAD DUP1 DUP4 SUB DUP2 PUSH1 0x0 DUP8 DUP1 EXTCODESIZE ISZERO DUP1 ISZERO PUSH2 0xFD3 JUMPI PUSH1 0x0 DUP1 REVERT JUMPDEST POP GAS CALL ISZERO DUP1 ISZERO PUSH2 0xFE7 JUMPI RETURNDATASIZE PUSH1 0x0 DUP1 RETURNDATACOPY RETURNDATASIZE PUSH1 0x0 REVERT JUMPDEST POP POP POP POP PUSH1 0x1 PUSH1 0x0 SWAP1 SLOAD SWAP1 PUSH2 0x100 EXP SWAP1 DIV PUSH20 0xFFFFFFFFFFFFFFFFFFFFFFFFFFFFFFFFFFFFFFFF AND PUSH20 0xFFFFFFFFFFFFFFFFFFFFFFFFFFFFFFFFFFFFFFFF AND PUSH4 0x70A08231 ADDRESS PUSH1 0x40 MLOAD DUP3 PUSH4 0xFFFFFFFF AND PUSH1 0xE0 SHL DUP2 MSTORE PUSH1 0x4 ADD PUSH2 0x1046 SWAP2 SWAP1 PUSH2 0x16F8 JUMP JUMPDEST PUSH1 0x20 PUSH1 0x40 MLOAD DUP1 DUP4 SUB DUP2 DUP7 GAS STATICCALL ISZERO DUP1 ISZERO PUSH2 0x1063 JUMPI RETURNDATASIZE PUSH1 0x0 DUP1 RETURNDATACOPY RETURNDATASIZE PUSH1 0x0 REVERT JUMPDEST POP POP POP POP PUSH1 0x40 MLOAD RETURNDATASIZE PUSH1 0x1F NOT PUSH1 0x1F DUP3 ADD AND DUP3 ADD DUP1 PUSH1 0x40 MSTORE POP DUP2 ADD SWAP1 PUSH2 0x1087 SWAP2 SWAP1 PUSH2 0x184C JUMP JUMPDEST SWAP2 POP JUMPDEST PUSH1 0xB PUSH1 0x0 SWAP1 SLOAD SWAP1 PUSH2 0x100 EXP SWAP1 DIV PUSH20 0xFFFFFFFFFFFFFFFFFFFFFFFFFFFFFFFFFFFFFFFF AND PUSH20 0xFFFFFFFFFFFFFFFFFFFFFFFFFFFFFFFFFFFFFFFF AND PUSH4 0xF305D719 DUP7 ADDRESS DUP5 PUSH1 0x69 PUSH1 0x5F DUP8 PUSH2 0x10DA SWAP2 SWAP1 PUSH2 0x192A JUMP JUMPDEST PUSH2 0x10E4 SWAP2 SWAP1 PUSH2 0x199B JUMP JUMPDEST PUSH1 0x64 PUSH1 0x5F DUP13 PUSH2 0x10F3 SWAP2 SWAP1 PUSH2 0x192A JUMP JUMPDEST PUSH2 0x10FD SWAP2 SWAP1 PUSH2 0x199B JUMP JUMPDEST ADDRESS PUSH32 0xFFFFFFFFFFFFFFFFFFFFFFFFFFFFFFFFFFFFFFFFFFFFFFFFFFFFFFFFFFFFFFFF PUSH1 0x40 MLOAD DUP9 PUSH4 0xFFFFFFFF AND PUSH1 0xE0 SHL DUP2 MSTORE PUSH1 0x4 ADD PUSH2 0x1140 SWAP7 SWAP6 SWAP5 SWAP4 SWAP3 SWAP2 SWAP1 PUSH2 0x1A5D JUMP JUMPDEST PUSH1 0x60 PUSH1 0x40 MLOAD DUP1 DUP4 SUB DUP2 DUP6 DUP9 GAS CALL SWAP4 POP POP POP POP DUP1 ISZERO PUSH2 0x117C JUMPI POP PUSH1 0x40 MLOAD RETURNDATASIZE PUSH1 0x1F NOT PUSH1 0x1F DUP3 ADD AND DUP3 ADD DUP1 PUSH1 0x40 MSTORE POP DUP2 ADD SWAP1 PUSH2 0x1179 SWAP2 SWAP1 PUSH2 0x1ABE JUMP JUMPDEST PUSH1 0x1 JUMPDEST PUSH2 0x11BA JUMPI PUSH32 0xCF34EF537AC33EE1AC626CA1587A0A7E8E51561E5514F8CB36AFA1C5102B3BAB PUSH1 0x40 MLOAD PUSH2 0x11AD SWAP1 PUSH2 0x1B6E JUMP JUMPDEST PUSH1 0x40 MLOAD DUP1 SWAP2 SUB SWAP1 LOG1 PUSH2 0x129C JUMP JUMPDEST POP POP POP PUSH32 0xCF34EF537AC33EE1AC626CA1587A0A7E8E51561E5514F8CB36AFA1C5102B3BAB PUSH1 0x40 MLOAD PUSH2 0x11EA SWAP1 PUSH2 0x1BDA JUMP JUMPDEST PUSH1 0x40 MLOAD DUP1 SWAP2 SUB SWAP1 LOG1 PUSH1 0x1 PUSH1 0x0 SWAP1 SLOAD SWAP1 PUSH2 0x100 EXP SWAP1 DIV PUSH20 0xFFFFFFFFFFFFFFFFFFFFFFFFFFFFFFFFFFFFFFFF AND PUSH20 0xFFFFFFFFFFFFFFFFFFFFFFFFFFFFFFFFFFFFFFFF AND PUSH4 0x70A08231 ADDRESS PUSH1 0x40 MLOAD DUP3 PUSH4 0xFFFFFFFF AND PUSH1 0xE0 SHL DUP2 MSTORE PUSH1 0x4 ADD PUSH2 0x124D SWAP2 SWAP1 PUSH2 0x16F8 JUMP JUMPDEST PUSH1 0x20 PUSH1 0x40 MLOAD DUP1 DUP4 SUB DUP2 DUP7 GAS STATICCALL ISZERO DUP1 ISZERO PUSH2 0x126A JUMPI RETURNDATASIZE PUSH1 0x0 DUP1 RETURNDATACOPY RETURNDATASIZE PUSH1 0x0 REVERT JUMPDEST POP POP POP POP PUSH1 0x40 MLOAD RETURNDATASIZE PUSH1 0x1F NOT PUSH1 0x1F DUP3 ADD AND DUP3 ADD DUP1 PUSH1 0x40 MSTORE POP DUP2 ADD SWAP1 PUSH2 0x128E SWAP2 SWAP1 PUSH2 0x184C JUMP JUMPDEST DUP3 PUSH2 0x1299 SWAP2 SWAP1 PUSH2 0x19CC JUMP JUMPDEST SWAP3 POP JUMPDEST DUP3 SWAP4 POP POP POP POP SWAP2 SWAP1 POP JUMP JUMPDEST PUSH1 0x0 PUSH1 0xC PUSH1 0x0 PUSH1 0x2 PUSH1 0xD DUP1 SLOAD SWAP1 POP PUSH2 0x12BF SWAP2 SWAP1 PUSH2 0x19CC JUMP JUMPDEST DUP2 MSTORE PUSH1 0x20 ADD SWAP1 DUP2 MSTORE PUSH1 0x20 ADD PUSH1 0x0 KECCAK256 PUSH1 0x2 ADD SLOAD SWAP1 POP PUSH1 0x0 PUSH1 0xA PUSH1 0x0 SWAP1 SLOAD SWAP1 PUSH2 0x100 EXP SWAP1 DIV PUSH20 0xFFFFFFFFFFFFFFFFFFFFFFFFFFFFFFFFFFFFFFFF AND PUSH20 0xFFFFFFFFFFFFFFFFFFFFFFFFFFFFFFFFFFFFFFFF AND PUSH4 0x3AC35585 PUSH1 0x0 DUP1 SLOAD SWAP1 PUSH2 0x100 EXP SWAP1 DIV PUSH20 0xFFFFFFFFFFFFFFFFFFFFFFFFFFFFFFFFFFFFFFFF AND DUP5 PUSH1 0x40 MLOAD DUP4 PUSH4 0xFFFFFFFF AND PUSH1 0xE0 SHL DUP2 MSTORE PUSH1 0x4 ADD PUSH2 0x1352 SWAP3 SWAP2 SWAP1 PUSH2 0x1879 JUMP JUMPDEST PUSH1 0x20 PUSH1 0x40 MLOAD DUP1 DUP4 SUB DUP2 DUP7 GAS STATICCALL ISZERO DUP1 ISZERO PUSH2 0x136F JUMPI RETURNDATASIZE PUSH1 0x0 DUP1 RETURNDATACOPY RETURNDATASIZE PUSH1 0x0 REVERT JUMPDEST POP POP POP POP PUSH1 0x40 MLOAD RETURNDATASIZE PUSH1 0x1F NOT PUSH1 0x1F DUP3 ADD AND DUP3 ADD DUP1 PUSH1 0x40 MSTORE POP DUP2 ADD SWAP1 PUSH2 0x1393 SWAP2 SWAP1 PUSH2 0x184C JUMP JUMPDEST SWAP1 POP PUSH1 0x1 PUSH1 0x0 SWAP1 SLOAD SWAP1 PUSH2 0x100 EXP SWAP1 DIV PUSH20 0xFFFFFFFFFFFFFFFFFFFFFFFFFFFFFFFFFFFFFFFF AND PUSH20 0xFFFFFFFFFFFFFFFFFFFFFFFFFFFFFFFFFFFFFFFF AND PUSH4 0x96FE8349 DUP3 DUP6 PUSH1 0x40 MLOAD DUP4 PUSH4 0xFFFFFFFF AND PUSH1 0xE0 SHL DUP2 MSTORE PUSH1 0x4 ADD PUSH2 0x13F2 SWAP3 SWAP2 SWAP1 PUSH2 0x1A34 JUMP JUMPDEST PUSH1 0x0 PUSH1 0x40 MLOAD DUP1 DUP4 SUB DUP2 PUSH1 0x0 DUP8 DUP1 EXTCODESIZE ISZERO DUP1 ISZERO PUSH2 0x140C JUMPI PUSH1 0x0 DUP1 REVERT JUMPDEST POP GAS CALL ISZERO DUP1 ISZERO PUSH2 0x1420 JUMPI RETURNDATASIZE PUSH1 0x0 DUP1 RETURNDATACOPY RETURNDATASIZE PUSH1 0x0 REVERT JUMPDEST POP POP POP POP POP POP POP JUMP JUMPDEST PUSH1 0x0 DUP1 PUSH1 0xA PUSH1 0x0 SWAP1 SLOAD SWAP1 PUSH2 0x100 EXP SWAP1 DIV PUSH20 0xFFFFFFFFFFFFFFFFFFFFFFFFFFFFFFFFFFFFFFFF AND PUSH20 0xFFFFFFFFFFFFFFFFFFFFFFFFFFFFFFFFFFFFFFFF AND PUSH4 0x3AC35585 PUSH1 0x0 DUP1 SLOAD SWAP1 PUSH2 0x100 EXP SWAP1 DIV PUSH20 0xFFFFFFFFFFFFFFFFFFFFFFFFFFFFFFFFFFFFFFFF AND DUP6 PUSH1 0x40 MLOAD DUP4 PUSH4 0xFFFFFFFF AND PUSH1 0xE0 SHL DUP2 MSTORE PUSH1 0x4 ADD PUSH2 0x14A9 SWAP3 SWAP2 SWAP1 PUSH2 0x1879 JUMP JUMPDEST PUSH1 0x20 PUSH1 0x40 MLOAD DUP1 DUP4 SUB DUP2 DUP7 GAS STATICCALL ISZERO DUP1 ISZERO PUSH2 0x14C6 JUMPI RETURNDATASIZE PUSH1 0x0 DUP1 RETURNDATACOPY RETURNDATASIZE PUSH1 0x0 REVERT JUMPDEST POP POP POP POP PUSH1 0x40 MLOAD RETURNDATASIZE PUSH1 0x1F NOT PUSH1 0x1F DUP3 ADD AND DUP3 ADD DUP1 PUSH1 0x40 MSTORE POP DUP2 ADD SWAP1 PUSH2 0x14EA SWAP2 SWAP1 PUSH2 0x184C JUMP JUMPDEST SWAP1 POP PUSH1 0x0 PUSH1 0x64 PUSH1 0x5F DUP4 PUSH2 0x14FD SWAP2 SWAP1 PUSH2 0x192A JUMP JUMPDEST PUSH2 0x1507 SWAP2 SWAP1 PUSH2 0x199B JUMP JUMPDEST SWAP1 POP PUSH1 0x0 PUSH1 0x2 PUSH8 0xFFFFFFFFFFFFFFFF DUP2 GT ISZERO PUSH2 0x1526 JUMPI PUSH2 0x1525 PUSH2 0x1BFA JUMP JUMPDEST JUMPDEST PUSH1 0x40 MLOAD SWAP1 DUP1 DUP3 MSTORE DUP1 PUSH1 0x20 MUL PUSH1 0x20 ADD DUP3 ADD PUSH1 0x40 MSTORE DUP1 ISZERO PUSH2 0x1554 JUMPI DUP2 PUSH1 0x20 ADD PUSH1 0x20 DUP3 MUL DUP1 CALLDATASIZE DUP4 CALLDATACOPY DUP1 DUP3 ADD SWAP2 POP POP SWAP1 POP JUMPDEST POP SWAP1 POP PUSH1 0xB PUSH1 0x0 SWAP1 SLOAD SWAP1 PUSH2 0x100 EXP SWAP1 DIV PUSH20 0xFFFFFFFFFFFFFFFFFFFFFFFFFFFFFFFFFFFFFFFF AND PUSH20 0xFFFFFFFFFFFFFFFFFFFFFFFFFFFFFFFFFFFFFFFF AND PUSH4 0x7FF36AB5 DUP7 DUP5 PUSH1 0x7 CALLER PUSH32 0xFFFFFFFFFFFFFFFFFFFFFFFFFFFFFFFFFFFFFFFFFFFFFFFFFFFFFFFFFFFFFFFF PUSH1 0x40 MLOAD DUP7 PUSH4 0xFFFFFFFF AND PUSH1 0xE0 SHL DUP2 MSTORE PUSH1 0x4 ADD PUSH2 0x15DA SWAP5 SWAP4 SWAP3 SWAP2 SWAP1 PUSH2 0x1D4D JUMP JUMPDEST PUSH1 0x0 PUSH1 0x40 MLOAD DUP1 DUP4 SUB DUP2 DUP6 DUP9 GAS CALL ISZERO DUP1 ISZERO PUSH2 0x15F8 JUMPI RETURNDATASIZE PUSH1 0x0 DUP1 RETURNDATACOPY RETURNDATASIZE PUSH1 0x0 REVERT JUMPDEST POP POP POP POP POP PUSH1 0x40 MLOAD RETURNDATASIZE PUSH1 0x0 DUP3 RETURNDATACOPY RETURNDATASIZE PUSH1 0x1F NOT PUSH1 0x1F DUP3 ADD AND DUP3 ADD DUP1 PUSH1 0x40 MSTORE POP DUP2 ADD SWAP1 PUSH2 0x1622 SWAP2 SWAP1 PUSH2 0x1EC3 JUMP JUMPDEST SWAP1 POP DUP1 PUSH1 0x1 DUP2 MLOAD DUP2 LT PUSH2 0x1638 JUMPI PUSH2 0x1637 PUSH2 0x1F0C JUMP JUMPDEST JUMPDEST PUSH1 0x20 MUL PUSH1 0x20 ADD ADD MLOAD SWAP4 POP POP POP POP SWAP2 SWAP1 POP JUMP JUMPDEST PUSH1 0x0 PUSH1 0x40 MLOAD SWAP1 POP SWAP1 JUMP JUMPDEST PUSH1 0x0 DUP1 REVERT JUMPDEST PUSH1 0x0 DUP1 REVERT JUMPDEST PUSH1 0x0 PUSH20 0xFFFFFFFFFFFFFFFFFFFFFFFFFFFFFFFFFFFFFFFF DUP3 AND SWAP1 POP SWAP2 SWAP1 POP JUMP JUMPDEST PUSH1 0x0 PUSH2 0x1689 DUP3 PUSH2 0x165E JUMP JUMPDEST SWAP1 POP SWAP2 SWAP1 POP JUMP JUMPDEST PUSH2 0x1699 DUP2 PUSH2 0x167E JUMP JUMPDEST DUP2 EQ PUSH2 0x16A4 JUMPI PUSH1 0x0 DUP1 REVERT JUMPDEST POP JUMP JUMPDEST PUSH1 0x0 DUP2 CALLDATALOAD SWAP1 POP PUSH2 0x16B6 DUP2 PUSH2 0x1690 JUMP JUMPDEST SWAP3 SWAP2 POP POP JUMP JUMPDEST PUSH1 0x0 PUSH1 0x20 DUP3 DUP5 SUB SLT ISZERO PUSH2 0x16D2 JUMPI PUSH2 0x16D1 PUSH2 0x1654 JUMP JUMPDEST JUMPDEST PUSH1 0x0 PUSH2 0x16E0 DUP5 DUP3 DUP6 ADD PUSH2 0x16A7 JUMP JUMPDEST SWAP2 POP POP SWAP3 SWAP2 POP POP JUMP JUMPDEST PUSH2 0x16F2 DUP2 PUSH2 0x167E JUMP JUMPDEST DUP3 MSTORE POP POP JUMP JUMPDEST PUSH1 0x0 PUSH1 0x20 DUP3 ADD SWAP1 POP PUSH2 0x170D PUSH1 0x0 DUP4 ADD DUP5 PUSH2 0x16E9 JUMP JUMPDEST SWAP3 SWAP2 POP POP JUMP JUMPDEST PUSH1 0x0 DUP2 SWAP1 POP SWAP2 SWAP1 POP JUMP JUMPDEST PUSH2 0x1726 DUP2 PUSH2 0x1713 JUMP JUMPDEST DUP2 EQ PUSH2 0x1731 JUMPI PUSH1 0x0 DUP1 REVERT JUMPDEST POP JUMP JUMPDEST PUSH1 0x0 DUP2 CALLDATALOAD SWAP1 POP PUSH2 0x1743 DUP2 PUSH2 0x171D JUMP JUMPDEST SWAP3 SWAP2 POP POP JUMP JUMPDEST PUSH1 0x0 PUSH1 0x20 DUP3 DUP5 SUB SLT ISZERO PUSH2 0x175F JUMPI PUSH2 0x175E PUSH2 0x1654 JUMP JUMPDEST JUMPDEST PUSH1 0x0 PUSH2 0x176D DUP5 DUP3 DUP6 ADD PUSH2 0x1734 JUMP JUMPDEST SWAP2 POP POP SWAP3 SWAP2 POP POP JUMP JUMPDEST PUSH2 0x177F DUP2 PUSH2 0x1713 JUMP JUMPDEST DUP3 MSTORE POP POP JUMP JUMPDEST PUSH1 0x0 DUP2 ISZERO ISZERO SWAP1 POP SWAP2 SWAP1 POP JUMP JUMPDEST PUSH2 0x179A DUP2 PUSH2 0x1785 JUMP JUMPDEST DUP3 MSTORE POP POP JUMP JUMPDEST PUSH1 0x0 PUSH1 0xC0 DUP3 ADD SWAP1 POP PUSH2 0x17B5 PUSH1 0x0 DUP4 ADD DUP10 PUSH2 0x1776 JUMP JUMPDEST PUSH2 0x17C2 PUSH1 0x20 DUP4 ADD DUP9 PUSH2 0x16E9 JUMP JUMPDEST PUSH2 0x17CF PUSH1 0x40 DUP4 ADD DUP8 PUSH2 0x1776 JUMP JUMPDEST PUSH2 0x17DC PUSH1 0x60 DUP4 ADD DUP7 PUSH2 0x1791 JUMP JUMPDEST PUSH2 0x17E9 PUSH1 0x80 DUP4 ADD DUP6 PUSH2 0x1776 JUMP JUMPDEST PUSH2 0x17F6 PUSH1 0xA0 DUP4 ADD DUP5 PUSH2 0x1791 JUMP JUMPDEST SWAP8 SWAP7 POP POP POP POP POP POP POP JUMP JUMPDEST PUSH1 0x0 PUSH1 0x20 DUP3 ADD SWAP1 POP PUSH2 0x1816 PUSH1 0x0 DUP4 ADD DUP5 PUSH2 0x1776 JUMP JUMPDEST SWAP3 SWAP2 POP POP JUMP JUMPDEST PUSH1 0x0 PUSH1 0x20 DUP3 ADD SWAP1 POP PUSH2 0x1831 PUSH1 0x0 DUP4 ADD DUP5 PUSH2 0x1791 JUMP JUMPDEST SWAP3 SWAP2 POP POP JUMP JUMPDEST PUSH1 0x0 DUP2 MLOAD SWAP1 POP PUSH2 0x1846 DUP2 PUSH2 0x171D JUMP JUMPDEST SWAP3 SWAP2 POP POP JUMP JUMPDEST PUSH1 0x0 PUSH1 0x20 DUP3 DUP5 SUB SLT ISZERO PUSH2 0x1862 JUMPI PUSH2 0x1861 PUSH2 0x1654 JUMP JUMPDEST JUMPDEST PUSH1 0x0 PUSH2 0x1870 DUP5 DUP3 DUP6 ADD PUSH2 0x1837 JUMP JUMPDEST SWAP2 POP POP SWAP3 SWAP2 POP POP JUMP JUMPDEST PUSH1 0x0 PUSH1 0x40 DUP3 ADD SWAP1 POP PUSH2 0x188E PUSH1 0x0 DUP4 ADD DUP6 PUSH2 0x16E9 JUMP JUMPDEST PUSH2 0x189B PUSH1 0x20 DUP4 ADD DUP5 PUSH2 0x1776 JUMP JUMPDEST SWAP4 SWAP3 POP POP POP JUMP JUMPDEST PUSH2 0x18AB DUP2 PUSH2 0x1785 JUMP JUMPDEST DUP2 EQ PUSH2 0x18B6 JUMPI PUSH1 0x0 DUP1 REVERT JUMPDEST POP JUMP JUMPDEST PUSH1 0x0 DUP2 MLOAD SWAP1 POP PUSH2 0x18C8 DUP2 PUSH2 0x18A2 JUMP JUMPDEST SWAP3 SWAP2 POP POP JUMP JUMPDEST PUSH1 0x0 PUSH1 0x20 DUP3 DUP5 SUB SLT ISZERO PUSH2 0x18E4 JUMPI PUSH2 0x18E3 PUSH2 0x1654 JUMP JUMPDEST JUMPDEST PUSH1 0x0 PUSH2 0x18F2 DUP5 DUP3 DUP6 ADD PUSH2 0x18B9 JUMP JUMPDEST SWAP2 POP POP SWAP3 SWAP2 POP POP JUMP JUMPDEST PUSH32 0x4E487B7100000000000000000000000000000000000000000000000000000000 PUSH1 0x0 MSTORE PUSH1 0x11 PUSH1 0x4 MSTORE PUSH1 0x24 PUSH1 0x0 REVERT JUMPDEST PUSH1 0x0 PUSH2 0x1935 DUP3 PUSH2 0x1713 JUMP JUMPDEST SWAP2 POP PUSH2 0x1940 DUP4 PUSH2 0x1713 JUMP JUMPDEST SWAP3 POP DUP3 DUP3 MUL PUSH2 0x194E DUP2 PUSH2 0x1713 JUMP JUMPDEST SWAP2 POP DUP3 DUP3 DIV DUP5 EQ DUP4 ISZERO OR PUSH2 0x1965 JUMPI PUSH2 0x1964 PUSH2 0x18FB JUMP JUMPDEST JUMPDEST POP SWAP3 SWAP2 POP POP JUMP JUMPDEST PUSH32 0x4E487B7100000000000000000000000000000000000000000000000000000000 PUSH1 0x0 MSTORE PUSH1 0x12 PUSH1 0x4 MSTORE PUSH1 0x24 PUSH1 0x0 REVERT JUMPDEST PUSH1 0x0 PUSH2 0x19A6 DUP3 PUSH2 0x1713 JUMP JUMPDEST SWAP2 POP PUSH2 0x19B1 DUP4 PUSH2 0x1713 JUMP JUMPDEST SWAP3 POP DUP3 PUSH2 0x19C1 JUMPI PUSH2 0x19C0 PUSH2 0x196C JUMP JUMPDEST JUMPDEST DUP3 DUP3 DIV SWAP1 POP SWAP3 SWAP2 POP POP JUMP JUMPDEST PUSH1 0x0 PUSH2 0x19D7 DUP3 PUSH2 0x1713 JUMP JUMPDEST SWAP2 POP PUSH2 0x19E2 DUP4 PUSH2 0x1713 JUMP JUMPDEST SWAP3 POP DUP3 DUP3 SUB SWAP1 POP DUP2 DUP2 GT ISZERO PUSH2 0x19FA JUMPI PUSH2 0x19F9 PUSH2 0x18FB JUMP JUMPDEST JUMPDEST SWAP3 SWAP2 POP POP JUMP JUMPDEST PUSH1 0x0 PUSH2 0x1A0B DUP3 PUSH2 0x1713 JUMP JUMPDEST SWAP2 POP PUSH2 0x1A16 DUP4 PUSH2 0x1713 JUMP JUMPDEST SWAP3 POP DUP3 DUP3 ADD SWAP1 POP DUP1 DUP3 GT ISZERO PUSH2 0x1A2E JUMPI PUSH2 0x1A2D PUSH2 0x18FB JUMP JUMPDEST JUMPDEST SWAP3 SWAP2 POP POP JUMP JUMPDEST PUSH1 0x0 PUSH1 0x40 DUP3 ADD SWAP1 POP PUSH2 0x1A49 PUSH1 0x0 DUP4 ADD DUP6 PUSH2 0x1776 JUMP JUMPDEST PUSH2 0x1A56 PUSH1 0x20 DUP4 ADD DUP5 PUSH2 0x16E9 JUMP JUMPDEST SWAP4 SWAP3 POP POP POP JUMP JUMPDEST PUSH1 0x0 PUSH1 0xC0 DUP3 ADD SWAP1 POP PUSH2 0x1A72 PUSH1 0x0 DUP4 ADD DUP10 PUSH2 0x16E9 JUMP JUMPDEST PUSH2 0x1A7F PUSH1 0x20 DUP4 ADD DUP9 PUSH2 0x1776 JUMP JUMPDEST PUSH2 0x1A8C PUSH1 0x40 DUP4 ADD DUP8 PUSH2 0x1776 JUMP JUMPDEST PUSH2 0x1A99 PUSH1 0x60 DUP4 ADD DUP7 PUSH2 0x1776 JUMP JUMPDEST PUSH2 0x1AA6 PUSH1 0x80 DUP4 ADD DUP6 PUSH2 0x16E9 JUMP JUMPDEST PUSH2 0x1AB3 PUSH1 0xA0 DUP4 ADD DUP5 PUSH2 0x1776 JUMP JUMPDEST SWAP8 SWAP7 POP POP POP POP POP POP POP JUMP JUMPDEST PUSH1 0x0 DUP1 PUSH1 0x0 PUSH1 0x60 DUP5 DUP7 SUB SLT ISZERO PUSH2 0x1AD7 JUMPI PUSH2 0x1AD6 PUSH2 0x1654 JUMP JUMPDEST JUMPDEST PUSH1 0x0 PUSH2 0x1AE5 DUP7 DUP3 DUP8 ADD PUSH2 0x1837 JUMP JUMPDEST SWAP4 POP POP PUSH1 0x20 PUSH2 0x1AF6 DUP7 DUP3 DUP8 ADD PUSH2 0x1837 JUMP JUMPDEST SWAP3 POP POP PUSH1 0x40 PUSH2 0x1B07 DUP7 DUP3 DUP8 ADD PUSH2 0x1837 JUMP JUMPDEST SWAP2 POP POP SWAP3 POP SWAP3 POP SWAP3 JUMP JUMPDEST PUSH1 0x0 DUP3 DUP3 MSTORE PUSH1 0x20 DUP3 ADD SWAP1 POP SWAP3 SWAP2 POP POP JUMP JUMPDEST PUSH32 0x4C6971756964697479204E6F742050726F766964656400000000000000000000 PUSH1 0x0 DUP3 ADD MSTORE POP JUMP JUMPDEST PUSH1 0x0 PUSH2 0x1B58 PUSH1 0x16 DUP4 PUSH2 0x1B11 JUMP JUMPDEST SWAP2 POP PUSH2 0x1B63 DUP3 PUSH2 0x1B22 JUMP JUMPDEST PUSH1 0x20 DUP3 ADD SWAP1 POP SWAP2 SWAP1 POP JUMP JUMPDEST PUSH1 0x0 PUSH1 0x20 DUP3 ADD SWAP1 POP DUP2 DUP2 SUB PUSH1 0x0 DUP4 ADD MSTORE PUSH2 0x1B87 DUP2 PUSH2 0x1B4B JUMP JUMPDEST SWAP1 POP SWAP2 SWAP1 POP JUMP JUMPDEST PUSH32 0x6C6971756964697479205375636365737366756C6C792050726F766964656400 PUSH1 0x0 DUP3 ADD MSTORE POP JUMP JUMPDEST PUSH1 0x0 PUSH2 0x1BC4 PUSH1 0x1F DUP4 PUSH2 0x1B11 JUMP JUMPDEST SWAP2 POP PUSH2 0x1BCF DUP3 PUSH2 0x1B8E JUMP JUMPDEST PUSH1 0x20 DUP3 ADD SWAP1 POP SWAP2 SWAP1 POP JUMP JUMPDEST PUSH1 0x0 PUSH1 0x20 DUP3 ADD SWAP1 POP DUP2 DUP2 SUB PUSH1 0x0 DUP4 ADD MSTORE PUSH2 0x1BF3 DUP2 PUSH2 0x1BB7 JUMP JUMPDEST SWAP1 POP SWAP2 SWAP1 POP JUMP JUMPDEST PUSH32 0x4E487B7100000000000000000000000000000000000000000000000000000000 PUSH1 0x0 MSTORE PUSH1 0x41 PUSH1 0x4 MSTORE PUSH1 0x24 PUSH1 0x0 REVERT JUMPDEST PUSH1 0x0 DUP2 SLOAD SWAP1 POP SWAP2 SWAP1 POP JUMP JUMPDEST PUSH1 0x0 DUP3 DUP3 MSTORE PUSH1 0x20 DUP3 ADD SWAP1 POP SWAP3 SWAP2 POP POP JUMP JUMPDEST PUSH1 0x0 DUP2 SWAP1 POP DUP2 PUSH1 0x0 MSTORE PUSH1 0x20 PUSH1 0x0 KECCAK256 SWAP1 POP SWAP2 SWAP1 POP JUMP JUMPDEST PUSH2 0x1C63 DUP2 PUSH2 0x167E JUMP JUMPDEST DUP3 MSTORE POP POP JUMP JUMPDEST PUSH1 0x0 PUSH2 0x1C75 DUP4 DUP4 PUSH2 0x1C5A JUMP JUMPDEST PUSH1 0x20 DUP4 ADD SWAP1 POP SWAP3 SWAP2 POP POP JUMP JUMPDEST PUSH1 0x0 DUP2 PUSH1 0x0 SHR SWAP1 POP SWAP2 SWAP1 POP JUMP JUMPDEST PUSH1 0x0 PUSH20 0xFFFFFFFFFFFFFFFFFFFFFFFFFFFFFFFFFFFFFFFF DUP3 AND SWAP1 POP SWAP2 SWAP1 POP JUMP JUMPDEST PUSH1 0x0 PUSH2 0x1CC1 PUSH2 0x1CBC DUP4 PUSH2 0x1C81 JUMP JUMPDEST PUSH2 0x1C8E JUMP JUMPDEST SWAP1 POP SWAP2 SWAP1 POP JUMP JUMPDEST PUSH1 0x0 PUSH2 0x1CD4 DUP3 SLOAD PUSH2 0x1CAE JUMP JUMPDEST SWAP1 POP SWAP2 SWAP1 POP JUMP JUMPDEST PUSH1 0x0 PUSH1 0x1 DUP3 ADD SWAP1 POP SWAP2 SWAP1 POP JUMP JUMPDEST PUSH1 0x0 PUSH2 0x1CF3 DUP3 PUSH2 0x1C29 JUMP JUMPDEST PUSH2 0x1CFD DUP2 DUP6 PUSH2 0x1C34 JUMP JUMPDEST SWAP4 POP PUSH2 0x1D08 DUP4 PUSH2 0x1C45 JUMP JUMPDEST DUP1 PUSH1 0x0 JUMPDEST DUP4 DUP2 LT ISZERO PUSH2 0x1D40 JUMPI PUSH2 0x1D1D DUP3 PUSH2 0x1CC8 JUMP JUMPDEST PUSH2 0x1D27 DUP9 DUP3 PUSH2 0x1C69 JUMP JUMPDEST SWAP8 POP PUSH2 0x1D32 DUP4 PUSH2 0x1CDB JUMP JUMPDEST SWAP3 POP POP PUSH1 0x1 DUP2 ADD SWAP1 POP PUSH2 0x1D0C JUMP JUMPDEST POP DUP6 SWAP4 POP POP POP POP SWAP3 SWAP2 POP POP JUMP JUMPDEST PUSH1 0x0 PUSH1 0x80 DUP3 ADD SWAP1 POP PUSH2 0x1D62 PUSH1 0x0 DUP4 ADD DUP8 PUSH2 0x1776 JUMP JUMPDEST DUP2 DUP2 SUB PUSH1 0x20 DUP4 ADD MSTORE PUSH2 0x1D74 DUP2 DUP7 PUSH2 0x1CE8 JUMP JUMPDEST SWAP1 POP PUSH2 0x1D83 PUSH1 0x40 DUP4 ADD DUP6 PUSH2 0x16E9 JUMP JUMPDEST PUSH2 0x1D90 PUSH1 0x60 DUP4 ADD DUP5 PUSH2 0x1776 JUMP JUMPDEST SWAP6 SWAP5 POP POP POP POP POP JUMP JUMPDEST PUSH1 0x0 DUP1 REVERT JUMPDEST PUSH1 0x0 PUSH1 0x1F NOT PUSH1 0x1F DUP4 ADD AND SWAP1 POP SWAP2 SWAP1 POP JUMP JUMPDEST PUSH2 0x1DB8 DUP3 PUSH2 0x1D9E JUMP JUMPDEST DUP2 ADD DUP2 DUP2 LT PUSH8 0xFFFFFFFFFFFFFFFF DUP3 GT OR ISZERO PUSH2 0x1DD7 JUMPI PUSH2 0x1DD6 PUSH2 0x1BFA JUMP JUMPDEST JUMPDEST DUP1 PUSH1 0x40 MSTORE POP POP POP JUMP JUMPDEST PUSH1 0x0 PUSH2 0x1DEA PUSH2 0x164A JUMP JUMPDEST SWAP1 POP PUSH2 0x1DF6 DUP3 DUP3 PUSH2 0x1DAF JUMP JUMPDEST SWAP2 SWAP1 POP JUMP JUMPDEST PUSH1 0x0 PUSH8 0xFFFFFFFFFFFFFFFF DUP3 GT ISZERO PUSH2 0x1E16 JUMPI PUSH2 0x1E15 PUSH2 0x1BFA JUMP JUMPDEST JUMPDEST PUSH1 0x20 DUP3 MUL SWAP1 POP PUSH1 0x20 DUP2 ADD SWAP1 POP SWAP2 SWAP1 POP JUMP JUMPDEST PUSH1 0x0 DUP1 REVERT JUMPDEST PUSH1 0x0 PUSH2 0x1E3F PUSH2 0x1E3A DUP5 PUSH2 0x1DFB JUMP JUMPDEST PUSH2 0x1DE0 JUMP JUMPDEST SWAP1 POP DUP1 DUP4 DUP3 MSTORE PUSH1 0x20 DUP3 ADD SWAP1 POP PUSH1 0x20 DUP5 MUL DUP4 ADD DUP6 DUP2 GT ISZERO PUSH2 0x1E62 JUMPI PUSH2 0x1E61 PUSH2 0x1E27 JUMP JUMPDEST JUMPDEST DUP4 JUMPDEST DUP2 DUP2 LT ISZERO PUSH2 0x1E8B JUMPI DUP1 PUSH2 0x1E77 DUP9 DUP3 PUSH2 0x1837 JUMP JUMPDEST DUP5 MSTORE PUSH1 0x20 DUP5 ADD SWAP4 POP POP PUSH1 0x20 DUP2 ADD SWAP1 POP PUSH2 0x1E64 JUMP JUMPDEST POP POP POP SWAP4 SWAP3 POP POP POP JUMP JUMPDEST PUSH1 0x0 DUP3 PUSH1 0x1F DUP4 ADD SLT PUSH2 0x1EAA JUMPI PUSH2 0x1EA9 PUSH2 0x1D99 JUMP JUMPDEST JUMPDEST DUP2 MLOAD PUSH2 0x1EBA DUP5 DUP3 PUSH1 0x20 DUP7 ADD PUSH2 0x1E2C JUMP JUMPDEST SWAP2 POP POP SWAP3 SWAP2 POP POP JUMP JUMPDEST PUSH1 0x0 PUSH1 0x20 DUP3 DUP5 SUB SLT ISZERO PUSH2 0x1ED9 JUMPI PUSH2 0x1ED8 PUSH2 0x1654 JUMP JUMPDEST JUMPDEST PUSH1 0x0 DUP3 ADD MLOAD PUSH8 0xFFFFFFFFFFFFFFFF DUP2 GT ISZERO PUSH2 0x1EF7 JUMPI PUSH2 0x1EF6 PUSH2 0x1659 JUMP JUMPDEST JUMPDEST PUSH2 0x1F03 DUP5 DUP3 DUP6 ADD PUSH2 0x1E95 JUMP JUMPDEST SWAP2 POP POP SWAP3 SWAP2 POP POP JUMP JUMPDEST PUSH32 0x4E487B7100000000000000000000000000000000000000000000000000000000 PUSH1 0x0 MSTORE PUSH1 0x32 PUSH1 0x4 MSTORE PUSH1 0x24 PUSH1 0x0 REVERT INVALID LOG2 PUSH5 0x6970667358 0x22 SLT KECCAK256 EXTCODEHASH DUP13 0xC6 0x29 PUSH10 0x9806B6C56D60B0926D60 0x4D DUP3 PUSH15 0xAAB7B35BA07CCA21D86C7756C6BB64 PUSH20 0x6F6C634300081100330000000000000000000000 "
				},
				"gasEstimates": {
					"creation": {
						"codeDepositCost": "1609800",
						"executionCost": "infinite",
						"totalCost": "infinite"
					},
					"external": {
						"ERC20Address()": "2581",
						"POAPAddress()": "2536",
						"WethAddress()": "2600",
						"buyEth()": "2519",
						"createTransfer(uint256)": "102140",
						"crownNFTAddress()": "2581",
						"getLastEthRecieved()": "4717",
						"getWethBalance()": "infinite",
						"liquidityEth()": "2474",
						"oracleAddress()": "2625",
						"path(uint256)": "5000",
						"percentLiquidity()": "infinite",
						"superBuy()": "infinite",
						"totalRoyalties()": "2518",
						"transactionFromPOAPId(uint256)": "infinite",
						"uniswapPairAddress()": "2580",
						"uniswapRouterAddress()": "2560",
						"updateERC20Address(address)": "24746",
						"withdraw(address)": "infinite"
					},
					"internal": {
						"buyAndBurn(uint256)": "infinite",
						"buyTokens(uint256)": "infinite",
						"erc20ToPreviousHolder(address)": "infinite",
						"newTransaction(uint256)": "95000",
						"processETH()": "infinite",
						"provideLiquidity(uint256)": "infinite"
					}
				},
				"methodIdentifiers": {
					"ERC20Address()": "a6021ace",
					"POAPAddress()": "aef75107",
					"WethAddress()": "a785a3d8",
					"buyEth()": "4cfd1ba5",
					"createTransfer(uint256)": "76537438",
					"crownNFTAddress()": "777b506f",
					"getLastEthRecieved()": "bfd9ea5b",
					"getWethBalance()": "9dd58b58",
					"liquidityEth()": "a09ede07",
					"oracleAddress()": "a89ae4ba",
					"path(uint256)": "af6d1fe4",
					"percentLiquidity()": "c1f2e5f1",
					"superBuy()": "966824a3",
					"totalRoyalties()": "86d02608",
					"transactionFromPOAPId(uint256)": "2c4c3c1b",
					"uniswapPairAddress()": "bd3733fe",
					"uniswapRouterAddress()": "20ca3c7f",
					"updateERC20Address(address)": "1b017fde",
					"withdraw(address)": "51cff8d9"
				}
			},
			"storageLayout": {
				"storage": [
					{
						"astId": 619,
						"contract": "contracts/Hook.sol:TransactionsAndHook",
						"label": "WethAddress",
						"offset": 0,
						"slot": "0",
						"type": "t_address"
					},
					{
						"astId": 621,
						"contract": "contracts/Hook.sol:TransactionsAndHook",
						"label": "ERC20Address",
						"offset": 0,
						"slot": "1",
						"type": "t_address"
					},
					{
						"astId": 623,
						"contract": "contracts/Hook.sol:TransactionsAndHook",
						"label": "uniswapPairAddress",
						"offset": 0,
						"slot": "2",
						"type": "t_address"
					},
					{
						"astId": 625,
						"contract": "contracts/Hook.sol:TransactionsAndHook",
						"label": "oracleAddress",
						"offset": 0,
						"slot": "3",
						"type": "t_address"
					},
					{
						"astId": 627,
						"contract": "contracts/Hook.sol:TransactionsAndHook",
						"label": "crownNFTAddress",
						"offset": 0,
						"slot": "4",
						"type": "t_address"
					},
					{
						"astId": 629,
						"contract": "contracts/Hook.sol:TransactionsAndHook",
						"label": "POAPAddress",
						"offset": 0,
						"slot": "5",
						"type": "t_address"
					},
					{
						"astId": 632,
						"contract": "contracts/Hook.sol:TransactionsAndHook",
						"label": "uniswapRouterAddress",
						"offset": 0,
						"slot": "6",
						"type": "t_address"
					},
					{
						"astId": 638,
						"contract": "contracts/Hook.sol:TransactionsAndHook",
						"label": "path",
						"offset": 0,
						"slot": "7",
						"type": "t_array(t_address)dyn_storage"
					},
					{
						"astId": 644,
						"contract": "contracts/Hook.sol:TransactionsAndHook",
						"label": "POAP",
						"offset": 0,
						"slot": "8",
						"type": "t_contract(iPOAP)483"
					},
					{
						"astId": 650,
						"contract": "contracts/Hook.sol:TransactionsAndHook",
						"label": "WETH",
						"offset": 0,
						"slot": "9",
						"type": "t_contract(WethLike)542"
					},
					{
						"astId": 656,
						"contract": "contracts/Hook.sol:TransactionsAndHook",
						"label": "Oracle",
						"offset": 0,
						"slot": "10",
						"type": "t_contract(iOracle)517"
					},
					{
						"astId": 662,
						"contract": "contracts/Hook.sol:TransactionsAndHook",
						"label": "UniswapRouter",
						"offset": 0,
						"slot": "11",
						"type": "t_contract(IUniswapV2Router02)473"
					},
					{
						"astId": 667,
						"contract": "contracts/Hook.sol:TransactionsAndHook",
						"label": "transactionFromPOAPId",
						"offset": 0,
						"slot": "12",
						"type": "t_mapping(t_uint256,t_struct(Transaction)695_storage)"
					},
					{
						"astId": 670,
						"contract": "contracts/Hook.sol:TransactionsAndHook",
						"label": "POAPIds",
						"offset": 0,
						"slot": "13",
						"type": "t_array(t_uint256)dyn_storage"
					},
					{
						"astId": 672,
						"contract": "contracts/Hook.sol:TransactionsAndHook",
						"label": "totalRoyalties",
						"offset": 0,
						"slot": "14",
						"type": "t_uint256"
					},
					{
						"astId": 977,
						"contract": "contracts/Hook.sol:TransactionsAndHook",
						"label": "buyEth",
						"offset": 0,
						"slot": "15",
						"type": "t_uint256"
					},
					{
						"astId": 979,
						"contract": "contracts/Hook.sol:TransactionsAndHook",
						"label": "liquidityEth",
						"offset": 0,
						"slot": "16",
						"type": "t_uint256"
					}
				],
				"types": {
					"t_address": {
						"encoding": "inplace",
						"label": "address",
						"numberOfBytes": "20"
					},
					"t_array(t_address)dyn_storage": {
						"base": "t_address",
						"encoding": "dynamic_array",
						"label": "address[]",
						"numberOfBytes": "32"
					},
					"t_array(t_uint256)dyn_storage": {
						"base": "t_uint256",
						"encoding": "dynamic_array",
						"label": "uint256[]",
						"numberOfBytes": "32"
					},
					"t_bool": {
						"encoding": "inplace",
						"label": "bool",
						"numberOfBytes": "1"
					},
					"t_contract(IUniswapV2Router02)473": {
						"encoding": "inplace",
						"label": "contract IUniswapV2Router02",
						"numberOfBytes": "20"
					},
					"t_contract(WethLike)542": {
						"encoding": "inplace",
						"label": "contract WethLike",
						"numberOfBytes": "20"
					},
					"t_contract(iOracle)517": {
						"encoding": "inplace",
						"label": "contract iOracle",
						"numberOfBytes": "20"
					},
					"t_contract(iPOAP)483": {
						"encoding": "inplace",
						"label": "contract iPOAP",
						"numberOfBytes": "20"
					},
					"t_mapping(t_uint256,t_struct(Transaction)695_storage)": {
						"encoding": "mapping",
						"key": "t_uint256",
						"label": "mapping(uint256 => struct TransactionsAndHook.Transaction)",
						"numberOfBytes": "32",
						"value": "t_struct(Transaction)695_storage"
					},
					"t_struct(Transaction)695_storage": {
						"encoding": "inplace",
						"label": "struct TransactionsAndHook.Transaction",
						"members": [
							{
								"astId": 684,
								"contract": "contracts/Hook.sol:TransactionsAndHook",
								"label": "POAPId",
								"offset": 0,
								"slot": "0",
								"type": "t_uint256"
							},
							{
								"astId": 686,
								"contract": "contracts/Hook.sol:TransactionsAndHook",
								"label": "purchaser",
								"offset": 0,
								"slot": "1",
								"type": "t_address"
							},
							{
								"astId": 688,
								"contract": "contracts/Hook.sol:TransactionsAndHook",
								"label": "receivedEth",
								"offset": 0,
								"slot": "2",
								"type": "t_uint256"
							},
							{
								"astId": 690,
								"contract": "contracts/Hook.sol:TransactionsAndHook",
								"label": "POAPreceived",
								"offset": 0,
								"slot": "3",
								"type": "t_bool"
							},
							{
								"astId": 692,
								"contract": "contracts/Hook.sol:TransactionsAndHook",
								"label": "tokenValueOfPOAP",
								"offset": 0,
								"slot": "4",
								"type": "t_uint256"
							},
							{
								"astId": 694,
								"contract": "contracts/Hook.sol:TransactionsAndHook",
								"label": "POAPburned",
								"offset": 0,
								"slot": "5",
								"type": "t_bool"
							}
						],
						"numberOfBytes": "192"
					},
					"t_uint256": {
						"encoding": "inplace",
						"label": "uint256",
						"numberOfBytes": "32"
					}
				}
			},
			"userdoc": {
				"kind": "user",
				"methods": {},
				"version": 1
			}
		}
	}
}