{
	"LiquidERC20.sol": {
		"liquidERC": {
			"abi": [
				{
					"inputs": [],
					"stateMutability": "nonpayable",
					"type": "constructor"
				},
				{
					"anonymous": false,
					"inputs": [
						{
							"indexed": true,
							"internalType": "address",
							"name": "owner",
							"type": "address"
						},
						{
							"indexed": true,
							"internalType": "address",
							"name": "spender",
							"type": "address"
						},
						{
							"indexed": false,
							"internalType": "uint256",
							"name": "value",
							"type": "uint256"
						}
					],
					"name": "Approval",
					"type": "event"
				},
				{
					"anonymous": false,
					"inputs": [
						{
							"indexed": false,
							"internalType": "string",
							"name": "message",
							"type": "string"
						}
					],
					"name": "Log",
					"type": "event"
				},
				{
					"anonymous": false,
					"inputs": [
						{
							"indexed": true,
							"internalType": "address",
							"name": "from",
							"type": "address"
						},
						{
							"indexed": true,
							"internalType": "address",
							"name": "to",
							"type": "address"
						},
						{
							"indexed": false,
							"internalType": "uint256",
							"name": "value",
							"type": "uint256"
						}
					],
					"name": "Transfer",
					"type": "event"
				},
				{
					"inputs": [],
					"name": "activate",
					"outputs": [],
					"stateMutability": "payable",
					"type": "function"
				},
				{
					"inputs": [
						{
							"internalType": "address",
							"name": "owner",
							"type": "address"
						},
						{
							"internalType": "address",
							"name": "spender",
							"type": "address"
						}
					],
					"name": "allowance",
					"outputs": [
						{
							"internalType": "uint256",
							"name": "",
							"type": "uint256"
						}
					],
					"stateMutability": "view",
					"type": "function"
				},
				{
					"inputs": [
						{
							"internalType": "address",
							"name": "spender",
							"type": "address"
						},
						{
							"internalType": "uint256",
							"name": "amount",
							"type": "uint256"
						}
					],
					"name": "approve",
					"outputs": [
						{
							"internalType": "bool",
							"name": "",
							"type": "bool"
						}
					],
					"stateMutability": "nonpayable",
					"type": "function"
				},
				{
					"inputs": [
						{
							"internalType": "address",
							"name": "account",
							"type": "address"
						}
					],
					"name": "balanceOf",
					"outputs": [
						{
							"internalType": "uint256",
							"name": "",
							"type": "uint256"
						}
					],
					"stateMutability": "view",
					"type": "function"
				},
				{
					"inputs": [
						{
							"internalType": "uint256",
							"name": "tokens",
							"type": "uint256"
						}
					],
					"name": "burn",
					"outputs": [],
					"stateMutability": "nonpayable",
					"type": "function"
				},
				{
					"inputs": [],
					"name": "decimals",
					"outputs": [
						{
							"internalType": "uint8",
							"name": "",
							"type": "uint8"
						}
					],
					"stateMutability": "view",
					"type": "function"
				},
				{
					"inputs": [
						{
							"internalType": "address",
							"name": "spender",
							"type": "address"
						},
						{
							"internalType": "uint256",
							"name": "subtractedValue",
							"type": "uint256"
						}
					],
					"name": "decreaseAllowance",
					"outputs": [
						{
							"internalType": "bool",
							"name": "",
							"type": "bool"
						}
					],
					"stateMutability": "nonpayable",
					"type": "function"
				},
				{
					"inputs": [],
					"name": "getOracleAddress",
					"outputs": [
						{
							"internalType": "address",
							"name": "",
							"type": "address"
						}
					],
					"stateMutability": "view",
					"type": "function"
				},
				{
					"inputs": [
						{
							"internalType": "uint256",
							"name": "",
							"type": "uint256"
						}
					],
					"name": "holders",
					"outputs": [
						{
							"internalType": "address payable",
							"name": "",
							"type": "address"
						}
					],
					"stateMutability": "view",
					"type": "function"
				},
				{
					"inputs": [],
					"name": "hookAddress",
					"outputs": [
						{
							"internalType": "address",
							"name": "",
							"type": "address"
						}
					],
					"stateMutability": "view",
					"type": "function"
				},
				{
					"inputs": [
						{
							"internalType": "uint256",
							"name": "_numberOfTokens",
							"type": "uint256"
						},
						{
							"internalType": "address",
							"name": "_previousHolder",
							"type": "address"
						}
					],
					"name": "hookMint",
					"outputs": [],
					"stateMutability": "nonpayable",
					"type": "function"
				},
				{
					"inputs": [
						{
							"internalType": "address",
							"name": "spender",
							"type": "address"
						},
						{
							"internalType": "uint256",
							"name": "addedValue",
							"type": "uint256"
						}
					],
					"name": "increaseAllowance",
					"outputs": [
						{
							"internalType": "bool",
							"name": "",
							"type": "bool"
						}
					],
					"stateMutability": "nonpayable",
					"type": "function"
				},
				{
					"inputs": [],
					"name": "name",
					"outputs": [
						{
							"internalType": "string",
							"name": "",
							"type": "string"
						}
					],
					"stateMutability": "view",
					"type": "function"
				},
				{
					"inputs": [],
					"name": "oracle",
					"outputs": [
						{
							"internalType": "contract Oracle",
							"name": "",
							"type": "address"
						}
					],
					"stateMutability": "view",
					"type": "function"
				},
				{
					"inputs": [],
					"name": "owner",
					"outputs": [
						{
							"internalType": "address",
							"name": "",
							"type": "address"
						}
					],
					"stateMutability": "view",
					"type": "function"
				},
				{
					"inputs": [
						{
							"internalType": "uint256",
							"name": "",
							"type": "uint256"
						}
					],
					"name": "path",
					"outputs": [
						{
							"internalType": "address",
							"name": "",
							"type": "address"
						}
					],
					"stateMutability": "view",
					"type": "function"
				},
				{
					"inputs": [
						{
							"internalType": "address",
							"name": "_hookAddress",
							"type": "address"
						}
					],
					"name": "setHookAddress",
					"outputs": [],
					"stateMutability": "nonpayable",
					"type": "function"
				},
				{
					"inputs": [
						{
							"internalType": "contract Oracle",
							"name": "_oracle",
							"type": "address"
						}
					],
					"name": "setOracle",
					"outputs": [],
					"stateMutability": "nonpayable",
					"type": "function"
				},
				{
					"inputs": [
						{
							"internalType": "address",
							"name": "_owner",
							"type": "address"
						}
					],
					"name": "setOwner",
					"outputs": [],
					"stateMutability": "nonpayable",
					"type": "function"
				},
				{
					"inputs": [],
					"name": "symbol",
					"outputs": [
						{
							"internalType": "string",
							"name": "",
							"type": "string"
						}
					],
					"stateMutability": "view",
					"type": "function"
				},
				{
					"inputs": [],
					"name": "totalSupply",
					"outputs": [
						{
							"internalType": "uint256",
							"name": "",
							"type": "uint256"
						}
					],
					"stateMutability": "view",
					"type": "function"
				},
				{
					"inputs": [
						{
							"internalType": "address",
							"name": "to",
							"type": "address"
						},
						{
							"internalType": "uint256",
							"name": "amount",
							"type": "uint256"
						}
					],
					"name": "transfer",
					"outputs": [
						{
							"internalType": "bool",
							"name": "",
							"type": "bool"
						}
					],
					"stateMutability": "nonpayable",
					"type": "function"
				},
				{
					"inputs": [
						{
							"internalType": "address",
							"name": "from",
							"type": "address"
						},
						{
							"internalType": "address",
							"name": "to",
							"type": "address"
						},
						{
							"internalType": "uint256",
							"name": "amount",
							"type": "uint256"
						}
					],
					"name": "transferFrom",
					"outputs": [
						{
							"internalType": "bool",
							"name": "",
							"type": "bool"
						}
					],
					"stateMutability": "nonpayable",
					"type": "function"
				},
				{
					"inputs": [],
					"name": "uniswapPairAddress",
					"outputs": [
						{
							"internalType": "address",
							"name": "",
							"type": "address"
						}
					],
					"stateMutability": "view",
					"type": "function"
				}
			],
			"devdoc": {
				"kind": "dev",
				"methods": {
					"allowance(address,address)": {
						"details": "See {IERC20-allowance}."
					},
					"approve(address,uint256)": {
						"details": "See {IERC20-approve}. NOTE: If `amount` is the maximum `uint256`, the allowance is not updated on `transferFrom`. This is semantically equivalent to an infinite approval. Requirements: - `spender` cannot be the zero address."
					},
					"balanceOf(address)": {
						"details": "See {IERC20-balanceOf}."
					},
					"decimals()": {
						"details": "Returns the number of decimals used to get its user representation. For example, if `decimals` equals `2`, a balance of `505` tokens should be displayed to a user as `5.05` (`505 / 10 ** 2`). Tokens usually opt for a value of 18, imitating the relationship between Ether and Wei. This is the value {ERC20} uses, unless this function is overridden; NOTE: This information is only used for _display_ purposes: it in no way affects any of the arithmetic of the contract, including {IERC20-balanceOf} and {IERC20-transfer}."
					},
					"decreaseAllowance(address,uint256)": {
						"details": "Atomically decreases the allowance granted to `spender` by the caller. This is an alternative to {approve} that can be used as a mitigation for problems described in {IERC20-approve}. Emits an {Approval} event indicating the updated allowance. Requirements: - `spender` cannot be the zero address. - `spender` must have allowance for the caller of at least `subtractedValue`."
					},
					"increaseAllowance(address,uint256)": {
						"details": "Atomically increases the allowance granted to `spender` by the caller. This is an alternative to {approve} that can be used as a mitigation for problems described in {IERC20-approve}. Emits an {Approval} event indicating the updated allowance. Requirements: - `spender` cannot be the zero address."
					},
					"name()": {
						"details": "Returns the name of the token."
					},
					"symbol()": {
						"details": "Returns the symbol of the token, usually a shorter version of the name."
					},
					"totalSupply()": {
						"details": "See {IERC20-totalSupply}."
					},
					"transfer(address,uint256)": {
						"details": "See {IERC20-transfer}. Requirements: - `to` cannot be the zero address. - the caller must have a balance of at least `amount`."
					},
					"transferFrom(address,address,uint256)": {
						"details": "See {IERC20-transferFrom}. Emits an {Approval} event indicating the updated allowance. This is not required by the EIP. See the note at the beginning of {ERC20}. NOTE: Does not update the allowance if the current allowance is the maximum `uint256`. Requirements: - `from` and `to` cannot be the zero address. - `from` must have a balance of at least `amount`. - the caller must have allowance for ``from``'s tokens of at least `amount`."
					}
				},
				"version": 1
			},
			"evm": {
				"assembly": "    /* \"LiquidERC20.sol\":606:3511  contract liquidERC is ERC20{... */\n  mstore(0x40, 0x80)\n    /* \"LiquidERC20.sol\":1047:1125  115792089237316195423570985008687907853269984665640564039457584007913129639935 */\n  0xffffffffffffffffffffffffffffffffffffffffffffffffffffffffffffffff\n    /* \"LiquidERC20.sol\":1032:1125  uint maxUint = 115792089237316195423570985008687907853269984665640564039457584007913129639935 */\n  0x05\n  sstore\n    /* \"LiquidERC20.sol\":1184:1226  0x7a250d5630B4cF539739dF2C5dAcb4c659F2488D */\n  0x7a250d5630b4cf539739df2c5dacb4c659f2488d\n    /* \"LiquidERC20.sol\":1153:1226  address uniswapRouterAddress = 0x7a250d5630B4cF539739dF2C5dAcb4c659F2488D */\n  0x07\n  exp(0x0100, 0x00)\n  dup2\n  sload\n  dup2\n  0xffffffffffffffffffffffffffffffffffffffff\n  mul\n  not\n  and\n  swap1\n  dup4\n  0xffffffffffffffffffffffffffffffffffffffff\n  and\n  mul\n  or\n  swap1\n  sstore\n  pop\n    /* \"LiquidERC20.sol\":1264:1306  0x5C69bEe701ef814a2B6a3EDD4B1652CB9cc5aA6f */\n  0x5c69bee701ef814a2b6a3edd4b1652cb9cc5aa6f\n    /* \"LiquidERC20.sol\":1232:1306  address uniswapFactoryAddress = 0x5C69bEe701ef814a2B6a3EDD4B1652CB9cc5aA6f */\n  0x08\n  exp(0x0100, 0x00)\n  dup2\n  sload\n  dup2\n  0xffffffffffffffffffffffffffffffffffffffff\n  mul\n  not\n  and\n  swap1\n  dup4\n  0xffffffffffffffffffffffffffffffffffffffff\n  and\n  mul\n  or\n  swap1\n  sstore\n  pop\n    /* \"LiquidERC20.sol\":1334:1376  0xB4FBF271143F4FBf7B91A5ded31805e42b2208d6 */\n  0xb4fbf271143f4fbf7b91a5ded31805e42b2208d6\n    /* \"LiquidERC20.sol\":1312:1376  address wethAddress = 0xB4FBF271143F4FBf7B91A5ded31805e42b2208d6 */\n  0x09\n  exp(0x0100, 0x00)\n  dup2\n  sload\n  dup2\n  0xffffffffffffffffffffffffffffffffffffffff\n  mul\n  not\n  and\n  swap1\n  dup4\n  0xffffffffffffffffffffffffffffffffffffffff\n  and\n  mul\n  or\n  swap1\n  sstore\n  pop\n    /* \"LiquidERC20.sol\":1767:1787  uniswapRouterAddress */\n  0x07\n  0x00\n  swap1\n  sload\n  swap1\n  0x0100\n  exp\n  swap1\n  div\n  0xffffffffffffffffffffffffffffffffffffffff\n  and\n    /* \"LiquidERC20.sol\":1713:1788  IUniswapV2Router02 UniswapRouter = IUniswapV2Router02(uniswapRouterAddress) */\n  0x0f\n  exp(0x0100, 0x00)\n  dup2\n  sload\n  dup2\n  0xffffffffffffffffffffffffffffffffffffffff\n  mul\n  not\n  and\n  swap1\n  dup4\n  0xffffffffffffffffffffffffffffffffffffffff\n  and\n  mul\n  or\n  swap1\n  sstore\n  pop\n    /* \"LiquidERC20.sol\":1847:1868  uniswapFactoryAddress */\n  0x08\n  0x00\n  swap1\n  sload\n  swap1\n  0x0100\n  exp\n  swap1\n  div\n  0xffffffffffffffffffffffffffffffffffffffff\n  and\n    /* \"LiquidERC20.sol\":1794:1869  IUniswapV2Factory UniswapFactory = IUniswapV2Factory(uniswapFactoryAddress) */\n  0x10\n  exp(0x0100, 0x00)\n  dup2\n  sload\n  dup2\n  0xffffffffffffffffffffffffffffffffffffffff\n  mul\n  not\n  and\n  swap1\n  dup4\n  0xffffffffffffffffffffffffffffffffffffffff\n  and\n  mul\n  or\n  swap1\n  sstore\n  pop\n    /* \"LiquidERC20.sol\":1924:1929  false */\n  0x00\n    /* \"LiquidERC20.sol\":1907:1929  bool oracleSet = false */\n  0x11\n  exp(0x0100, 0x14)\n  dup2\n  sload\n  dup2\n  0xff\n  mul\n  not\n  and\n  swap1\n  dup4\n  iszero\n  iszero\n  mul\n  or\n  swap1\n  sstore\n  pop\n    /* \"LiquidERC20.sol\":639:990  constructor()ERC20('gold','gld') {... */\n  callvalue\n  dup1\n  iszero\n  tag_1\n  jumpi\n  0x00\n  dup1\n  revert\ntag_1:\n  pop\n    /* \"@openzeppelin/contracts/token/ERC20/ERC20.sol\":1978:2091  constructor(string memory name_, string memory symbol_) {... */\n  mload(0x40)\n  dup1\n  0x40\n  add\n  0x40\n  mstore\n  dup1\n  0x04\n  dup2\n  mstore\n  0x20\n  add\n  0x676f6c6400000000000000000000000000000000000000000000000000000000\n  dup2\n  mstore\n  pop\n  mload(0x40)\n  dup1\n  0x40\n  add\n  0x40\n  mstore\n  dup1\n  0x03\n  dup2\n  mstore\n  0x20\n  add\n  0x676c640000000000000000000000000000000000000000000000000000000000\n  dup2\n  mstore\n  pop\n    /* \"@openzeppelin/contracts/token/ERC20/ERC20.sol\":2052:2057  name_ */\n  dup2\n    /* \"@openzeppelin/contracts/token/ERC20/ERC20.sol\":2044:2049  _name */\n  0x03\n    /* \"@openzeppelin/contracts/token/ERC20/ERC20.sol\":2044:2057  _name = name_ */\n  swap1\n  dup1\n  mload\n  swap1\n  0x20\n  add\n  swap1\n  tag_5\n  swap3\n  swap2\n  swap1\n  tag_6\n  jump\t// in\ntag_5:\n  pop\n    /* \"@openzeppelin/contracts/token/ERC20/ERC20.sol\":2077:2084  symbol_ */\n  dup1\n    /* \"@openzeppelin/contracts/token/ERC20/ERC20.sol\":2067:2074  _symbol */\n  0x04\n    /* \"@openzeppelin/contracts/token/ERC20/ERC20.sol\":2067:2084  _symbol = symbol_ */\n  swap1\n  dup1\n  mload\n  swap1\n  0x20\n  add\n  swap1\n  tag_7\n  swap3\n  swap2\n  swap1\n  tag_6\n  jump\t// in\ntag_7:\n  pop\n    /* \"@openzeppelin/contracts/token/ERC20/ERC20.sol\":1978:2091  constructor(string memory name_, string memory symbol_) {... */\n  pop\n  pop\n    /* \"LiquidERC20.sol\":806:859  _approve(address(this),uniswapRouterAddress, maxUint) */\n  tag_9\n    /* \"LiquidERC20.sol\":823:827  this */\n  address\n    /* \"LiquidERC20.sol\":829:849  uniswapRouterAddress */\n  0x07\n  0x00\n  swap1\n  sload\n  swap1\n  0x0100\n  exp\n  swap1\n  div\n  0xffffffffffffffffffffffffffffffffffffffff\n  and\n    /* \"LiquidERC20.sol\":851:858  maxUint */\n  sload(0x05)\n    /* \"LiquidERC20.sol\":806:814  _approve */\n  shl(0x20, tag_10)\n    /* \"LiquidERC20.sol\":806:859  _approve(address(this),uniswapRouterAddress, maxUint) */\n  0x20\n  shr\n  jump\t// in\ntag_9:\n    /* \"LiquidERC20.sol\":865:919  _approve(uniswapRouterAddress, address(this), maxUint) */\n  tag_11\n    /* \"LiquidERC20.sol\":874:894  uniswapRouterAddress */\n  0x07\n  0x00\n  swap1\n  sload\n  swap1\n  0x0100\n  exp\n  swap1\n  div\n  0xffffffffffffffffffffffffffffffffffffffff\n  and\n    /* \"LiquidERC20.sol\":904:908  this */\n  address\n    /* \"LiquidERC20.sol\":911:918  maxUint */\n  sload(0x05)\n    /* \"LiquidERC20.sol\":865:873  _approve */\n  shl(0x20, tag_10)\n    /* \"LiquidERC20.sol\":865:919  _approve(uniswapRouterAddress, address(this), maxUint) */\n  0x20\n  shr\n  jump\t// in\ntag_11:\n    /* \"LiquidERC20.sol\":925:959  path = [wethAddress,address(this)] */\n  mload(0x40)\n  dup1\n  0x40\n  add\n  0x40\n  mstore\n  dup1\n    /* \"LiquidERC20.sol\":933:944  wethAddress */\n  0x09\n  0x00\n  swap1\n  sload\n  swap1\n  0x0100\n  exp\n  swap1\n  div\n  0xffffffffffffffffffffffffffffffffffffffff\n  and\n    /* \"LiquidERC20.sol\":925:959  path = [wethAddress,address(this)] */\n  0xffffffffffffffffffffffffffffffffffffffff\n  and\n  0xffffffffffffffffffffffffffffffffffffffff\n  and\n  dup2\n  mstore\n  0x20\n  add\n    /* \"LiquidERC20.sol\":953:957  this */\n  address\n    /* \"LiquidERC20.sol\":925:959  path = [wethAddress,address(this)] */\n  0xffffffffffffffffffffffffffffffffffffffff\n  and\n  0xffffffffffffffffffffffffffffffffffffffff\n  and\n  dup2\n  mstore\n  pop\n    /* \"LiquidERC20.sol\":925:929  path */\n  0x0d\n    /* \"LiquidERC20.sol\":925:959  path = [wethAddress,address(this)] */\n  swap1\n  0x02\n  tag_12\n  swap3\n  swap2\n  swap1\n  tag_13\n  jump\t// in\ntag_12:\n  pop\n    /* \"LiquidERC20.sol\":973:983  msg.sender */\n  caller\n    /* \"LiquidERC20.sol\":965:970  owner */\n  0x0b\n  0x00\n    /* \"LiquidERC20.sol\":965:983  owner = msg.sender */\n  0x0100\n  exp\n  dup2\n  sload\n  dup2\n  0xffffffffffffffffffffffffffffffffffffffff\n  mul\n  not\n  and\n  swap1\n  dup4\n  0xffffffffffffffffffffffffffffffffffffffff\n  and\n  mul\n  or\n  swap1\n  sstore\n  pop\n    /* \"LiquidERC20.sol\":606:3511  contract liquidERC is ERC20{... */\n  jump(tag_14)\n    /* \"@openzeppelin/contracts/token/ERC20/ERC20.sol\":10110:10480  function _approve(... */\ntag_10:\n    /* \"@openzeppelin/contracts/token/ERC20/ERC20.sol\":10258:10259  0 */\n  0x00\n    /* \"@openzeppelin/contracts/token/ERC20/ERC20.sol\":10241:10260  owner != address(0) */\n  0xffffffffffffffffffffffffffffffffffffffff\n  and\n    /* \"@openzeppelin/contracts/token/ERC20/ERC20.sol\":10241:10246  owner */\n  dup4\n    /* \"@openzeppelin/contracts/token/ERC20/ERC20.sol\":10241:10260  owner != address(0) */\n  0xffffffffffffffffffffffffffffffffffffffff\n  and\n  eq\n  iszero\n    /* \"@openzeppelin/contracts/token/ERC20/ERC20.sol\":10233:10301  require(owner != address(0), \"ERC20: approve from the zero address\") */\n  tag_16\n  jumpi\n  mload(0x40)\n  0x08c379a000000000000000000000000000000000000000000000000000000000\n  dup2\n  mstore\n  0x04\n  add\n  tag_17\n  swap1\n  tag_18\n  jump\t// in\ntag_17:\n  mload(0x40)\n  dup1\n  swap2\n  sub\n  swap1\n  revert\ntag_16:\n    /* \"@openzeppelin/contracts/token/ERC20/ERC20.sol\":10338:10339  0 */\n  0x00\n    /* \"@openzeppelin/contracts/token/ERC20/ERC20.sol\":10319:10340  spender != address(0) */\n  0xffffffffffffffffffffffffffffffffffffffff\n  and\n    /* \"@openzeppelin/contracts/token/ERC20/ERC20.sol\":10319:10326  spender */\n  dup3\n    /* \"@openzeppelin/contracts/token/ERC20/ERC20.sol\":10319:10340  spender != address(0) */\n  0xffffffffffffffffffffffffffffffffffffffff\n  and\n  eq\n  iszero\n    /* \"@openzeppelin/contracts/token/ERC20/ERC20.sol\":10311:10379  require(spender != address(0), \"ERC20: approve to the zero address\") */\n  tag_19\n  jumpi\n  mload(0x40)\n  0x08c379a000000000000000000000000000000000000000000000000000000000\n  dup2\n  mstore\n  0x04\n  add\n  tag_20\n  swap1\n  tag_21\n  jump\t// in\ntag_20:\n  mload(0x40)\n  dup1\n  swap2\n  sub\n  swap1\n  revert\ntag_19:\n    /* \"@openzeppelin/contracts/token/ERC20/ERC20.sol\":10420:10426  amount */\n  dup1\n    /* \"@openzeppelin/contracts/token/ERC20/ERC20.sol\":10390:10401  _allowances */\n  0x01\n    /* \"@openzeppelin/contracts/token/ERC20/ERC20.sol\":10390:10408  _allowances[owner] */\n  0x00\n    /* \"@openzeppelin/contracts/token/ERC20/ERC20.sol\":10402:10407  owner */\n  dup6\n    /* \"@openzeppelin/contracts/token/ERC20/ERC20.sol\":10390:10408  _allowances[owner] */\n  0xffffffffffffffffffffffffffffffffffffffff\n  and\n  0xffffffffffffffffffffffffffffffffffffffff\n  and\n  dup2\n  mstore\n  0x20\n  add\n  swap1\n  dup2\n  mstore\n  0x20\n  add\n  0x00\n  keccak256\n    /* \"@openzeppelin/contracts/token/ERC20/ERC20.sol\":10390:10417  _allowances[owner][spender] */\n  0x00\n    /* \"@openzeppelin/contracts/token/ERC20/ERC20.sol\":10409:10416  spender */\n  dup5\n    /* \"@openzeppelin/contracts/token/ERC20/ERC20.sol\":10390:10417  _allowances[owner][spender] */\n  0xffffffffffffffffffffffffffffffffffffffff\n  and\n  0xffffffffffffffffffffffffffffffffffffffff\n  and\n  dup2\n  mstore\n  0x20\n  add\n  swap1\n  dup2\n  mstore\n  0x20\n  add\n  0x00\n  keccak256\n    /* \"@openzeppelin/contracts/token/ERC20/ERC20.sol\":10390:10426  _allowances[owner][spender] = amount */\n  dup2\n  swap1\n  sstore\n  pop\n    /* \"@openzeppelin/contracts/token/ERC20/ERC20.sol\":10457:10464  spender */\n  dup2\n    /* \"@openzeppelin/contracts/token/ERC20/ERC20.sol\":10441:10473  Approval(owner, spender, amount) */\n  0xffffffffffffffffffffffffffffffffffffffff\n  and\n    /* \"@openzeppelin/contracts/token/ERC20/ERC20.sol\":10450:10455  owner */\n  dup4\n    /* \"@openzeppelin/contracts/token/ERC20/ERC20.sol\":10441:10473  Approval(owner, spender, amount) */\n  0xffffffffffffffffffffffffffffffffffffffff\n  and\n  0x8c5be1e5ebec7d5bd14f71427d1e84f3dd0314c0f7b2291e5b200ac8c7c3b925\n    /* \"@openzeppelin/contracts/token/ERC20/ERC20.sol\":10466:10472  amount */\n  dup4\n    /* \"@openzeppelin/contracts/token/ERC20/ERC20.sol\":10441:10473  Approval(owner, spender, amount) */\n  mload(0x40)\n  tag_22\n  swap2\n  swap1\n  tag_23\n  jump\t// in\ntag_22:\n  mload(0x40)\n  dup1\n  swap2\n  sub\n  swap1\n  log3\n    /* \"@openzeppelin/contracts/token/ERC20/ERC20.sol\":10110:10480  function _approve(... */\n  pop\n  pop\n  pop\n  jump\t// out\n    /* \"LiquidERC20.sol\":606:3511  contract liquidERC is ERC20{... */\ntag_6:\n  dup3\n  dup1\n  sload\n  tag_24\n  swap1\n  tag_25\n  jump\t// in\ntag_24:\n  swap1\n  0x00\n  mstore\n  keccak256(0x00, 0x20)\n  swap1\n  0x1f\n  add\n  0x20\n  swap1\n  div\n  dup2\n  add\n  swap3\n  dup3\n  tag_27\n  jumpi\n  0x00\n  dup6\n  sstore\n  jump(tag_26)\ntag_27:\n  dup3\n  0x1f\n  lt\n  tag_28\n  jumpi\n  dup1\n  mload\n  not(0xff)\n  and\n  dup4\n  dup1\n  add\n  or\n  dup6\n  sstore\n  jump(tag_26)\ntag_28:\n  dup3\n  dup1\n  add\n  0x01\n  add\n  dup6\n  sstore\n  dup3\n  iszero\n  tag_26\n  jumpi\n  swap2\n  dup3\n  add\ntag_29:\n  dup3\n  dup2\n  gt\n  iszero\n  tag_30\n  jumpi\n  dup3\n  mload\n  dup3\n  sstore\n  swap2\n  0x20\n  add\n  swap2\n  swap1\n  0x01\n  add\n  swap1\n  jump(tag_29)\ntag_30:\ntag_26:\n  pop\n  swap1\n  pop\n  tag_31\n  swap2\n  swap1\n  tag_32\n  jump\t// in\ntag_31:\n  pop\n  swap1\n  jump\t// out\ntag_13:\n  dup3\n  dup1\n  sload\n  dup3\n  dup3\n  sstore\n  swap1\n  0x00\n  mstore\n  keccak256(0x00, 0x20)\n  swap1\n  dup2\n  add\n  swap3\n  dup3\n  iszero\n  tag_33\n  jumpi\n  swap2\n  0x20\n  mul\n  dup3\n  add\ntag_34:\n  dup3\n  dup2\n  gt\n  iszero\n  tag_35\n  jumpi\n  dup3\n  mload\n  dup3\n  exp(0x0100, 0x00)\n  dup2\n  sload\n  dup2\n  0xffffffffffffffffffffffffffffffffffffffff\n  mul\n  not\n  and\n  swap1\n  dup4\n  0xffffffffffffffffffffffffffffffffffffffff\n  and\n  mul\n  or\n  swap1\n  sstore\n  pop\n  swap2\n  0x20\n  add\n  swap2\n  swap1\n  0x01\n  add\n  swap1\n  jump(tag_34)\ntag_35:\ntag_33:\n  pop\n  swap1\n  pop\n  tag_36\n  swap2\n  swap1\n  tag_32\n  jump\t// in\ntag_36:\n  pop\n  swap1\n  jump\t// out\ntag_32:\ntag_37:\n  dup1\n  dup3\n  gt\n  iszero\n  tag_38\n  jumpi\n  0x00\n  dup2\n  0x00\n  swap1\n  sstore\n  pop\n  0x01\n  add\n  jump(tag_37)\ntag_38:\n  pop\n  swap1\n  jump\t// out\n    /* \"#utility.yul\":7:373   */\ntag_40:\n    /* \"#utility.yul\":149:152   */\n  0x00\n    /* \"#utility.yul\":170:237   */\n  tag_42\n    /* \"#utility.yul\":234:236   */\n  0x22\n    /* \"#utility.yul\":229:232   */\n  dup4\n    /* \"#utility.yul\":170:237   */\n  tag_43\n  jump\t// in\ntag_42:\n    /* \"#utility.yul\":163:237   */\n  swap2\n  pop\n    /* \"#utility.yul\":246:339   */\n  tag_44\n    /* \"#utility.yul\":335:338   */\n  dup3\n    /* \"#utility.yul\":246:339   */\n  tag_45\n  jump\t// in\ntag_44:\n    /* \"#utility.yul\":364:366   */\n  0x40\n    /* \"#utility.yul\":359:362   */\n  dup3\n    /* \"#utility.yul\":355:367   */\n  add\n    /* \"#utility.yul\":348:367   */\n  swap1\n  pop\n    /* \"#utility.yul\":7:373   */\n  swap2\n  swap1\n  pop\n  jump\t// out\n    /* \"#utility.yul\":379:745   */\ntag_46:\n    /* \"#utility.yul\":521:524   */\n  0x00\n    /* \"#utility.yul\":542:609   */\n  tag_48\n    /* \"#utility.yul\":606:608   */\n  0x24\n    /* \"#utility.yul\":601:604   */\n  dup4\n    /* \"#utility.yul\":542:609   */\n  tag_43\n  jump\t// in\ntag_48:\n    /* \"#utility.yul\":535:609   */\n  swap2\n  pop\n    /* \"#utility.yul\":618:711   */\n  tag_49\n    /* \"#utility.yul\":707:710   */\n  dup3\n    /* \"#utility.yul\":618:711   */\n  tag_50\n  jump\t// in\ntag_49:\n    /* \"#utility.yul\":736:738   */\n  0x40\n    /* \"#utility.yul\":731:734   */\n  dup3\n    /* \"#utility.yul\":727:739   */\n  add\n    /* \"#utility.yul\":720:739   */\n  swap1\n  pop\n    /* \"#utility.yul\":379:745   */\n  swap2\n  swap1\n  pop\n  jump\t// out\n    /* \"#utility.yul\":751:869   */\ntag_51:\n    /* \"#utility.yul\":838:862   */\n  tag_53\n    /* \"#utility.yul\":856:861   */\n  dup2\n    /* \"#utility.yul\":838:862   */\n  tag_54\n  jump\t// in\ntag_53:\n    /* \"#utility.yul\":833:836   */\n  dup3\n    /* \"#utility.yul\":826:863   */\n  mstore\n    /* \"#utility.yul\":751:869   */\n  pop\n  pop\n  jump\t// out\n    /* \"#utility.yul\":875:1294   */\ntag_21:\n    /* \"#utility.yul\":1041:1045   */\n  0x00\n    /* \"#utility.yul\":1079:1081   */\n  0x20\n    /* \"#utility.yul\":1068:1077   */\n  dup3\n    /* \"#utility.yul\":1064:1082   */\n  add\n    /* \"#utility.yul\":1056:1082   */\n  swap1\n  pop\n    /* \"#utility.yul\":1128:1137   */\n  dup2\n    /* \"#utility.yul\":1122:1126   */\n  dup2\n    /* \"#utility.yul\":1118:1138   */\n  sub\n    /* \"#utility.yul\":1114:1115   */\n  0x00\n    /* \"#utility.yul\":1103:1112   */\n  dup4\n    /* \"#utility.yul\":1099:1116   */\n  add\n    /* \"#utility.yul\":1092:1139   */\n  mstore\n    /* \"#utility.yul\":1156:1287   */\n  tag_56\n    /* \"#utility.yul\":1282:1286   */\n  dup2\n    /* \"#utility.yul\":1156:1287   */\n  tag_40\n  jump\t// in\ntag_56:\n    /* \"#utility.yul\":1148:1287   */\n  swap1\n  pop\n    /* \"#utility.yul\":875:1294   */\n  swap2\n  swap1\n  pop\n  jump\t// out\n    /* \"#utility.yul\":1300:1719   */\ntag_18:\n    /* \"#utility.yul\":1466:1470   */\n  0x00\n    /* \"#utility.yul\":1504:1506   */\n  0x20\n    /* \"#utility.yul\":1493:1502   */\n  dup3\n    /* \"#utility.yul\":1489:1507   */\n  add\n    /* \"#utility.yul\":1481:1507   */\n  swap1\n  pop\n    /* \"#utility.yul\":1553:1562   */\n  dup2\n    /* \"#utility.yul\":1547:1551   */\n  dup2\n    /* \"#utility.yul\":1543:1563   */\n  sub\n    /* \"#utility.yul\":1539:1540   */\n  0x00\n    /* \"#utility.yul\":1528:1537   */\n  dup4\n    /* \"#utility.yul\":1524:1541   */\n  add\n    /* \"#utility.yul\":1517:1564   */\n  mstore\n    /* \"#utility.yul\":1581:1712   */\n  tag_58\n    /* \"#utility.yul\":1707:1711   */\n  dup2\n    /* \"#utility.yul\":1581:1712   */\n  tag_46\n  jump\t// in\ntag_58:\n    /* \"#utility.yul\":1573:1712   */\n  swap1\n  pop\n    /* \"#utility.yul\":1300:1719   */\n  swap2\n  swap1\n  pop\n  jump\t// out\n    /* \"#utility.yul\":1725:1947   */\ntag_23:\n    /* \"#utility.yul\":1818:1822   */\n  0x00\n    /* \"#utility.yul\":1856:1858   */\n  0x20\n    /* \"#utility.yul\":1845:1854   */\n  dup3\n    /* \"#utility.yul\":1841:1859   */\n  add\n    /* \"#utility.yul\":1833:1859   */\n  swap1\n  pop\n    /* \"#utility.yul\":1869:1940   */\n  tag_60\n    /* \"#utility.yul\":1937:1938   */\n  0x00\n    /* \"#utility.yul\":1926:1935   */\n  dup4\n    /* \"#utility.yul\":1922:1939   */\n  add\n    /* \"#utility.yul\":1913:1919   */\n  dup5\n    /* \"#utility.yul\":1869:1940   */\n  tag_51\n  jump\t// in\ntag_60:\n    /* \"#utility.yul\":1725:1947   */\n  swap3\n  swap2\n  pop\n  pop\n  jump\t// out\n    /* \"#utility.yul\":1953:2122   */\ntag_43:\n    /* \"#utility.yul\":2037:2048   */\n  0x00\n    /* \"#utility.yul\":2071:2077   */\n  dup3\n    /* \"#utility.yul\":2066:2069   */\n  dup3\n    /* \"#utility.yul\":2059:2078   */\n  mstore\n    /* \"#utility.yul\":2111:2115   */\n  0x20\n    /* \"#utility.yul\":2106:2109   */\n  dup3\n    /* \"#utility.yul\":2102:2116   */\n  add\n    /* \"#utility.yul\":2087:2116   */\n  swap1\n  pop\n    /* \"#utility.yul\":1953:2122   */\n  swap3\n  swap2\n  pop\n  pop\n  jump\t// out\n    /* \"#utility.yul\":2128:2205   */\ntag_54:\n    /* \"#utility.yul\":2165:2172   */\n  0x00\n    /* \"#utility.yul\":2194:2199   */\n  dup2\n    /* \"#utility.yul\":2183:2199   */\n  swap1\n  pop\n    /* \"#utility.yul\":2128:2205   */\n  swap2\n  swap1\n  pop\n  jump\t// out\n    /* \"#utility.yul\":2211:2531   */\ntag_25:\n    /* \"#utility.yul\":2255:2261   */\n  0x00\n    /* \"#utility.yul\":2292:2293   */\n  0x02\n    /* \"#utility.yul\":2286:2290   */\n  dup3\n    /* \"#utility.yul\":2282:2294   */\n  div\n    /* \"#utility.yul\":2272:2294   */\n  swap1\n  pop\n    /* \"#utility.yul\":2339:2340   */\n  0x01\n    /* \"#utility.yul\":2333:2337   */\n  dup3\n    /* \"#utility.yul\":2329:2341   */\n  and\n    /* \"#utility.yul\":2360:2378   */\n  dup1\n    /* \"#utility.yul\":2350:2431   */\n  tag_64\n  jumpi\n    /* \"#utility.yul\":2416:2420   */\n  0x7f\n    /* \"#utility.yul\":2408:2414   */\n  dup3\n    /* \"#utility.yul\":2404:2421   */\n  and\n    /* \"#utility.yul\":2394:2421   */\n  swap2\n  pop\n    /* \"#utility.yul\":2350:2431   */\ntag_64:\n    /* \"#utility.yul\":2478:2480   */\n  0x20\n    /* \"#utility.yul\":2470:2476   */\n  dup3\n    /* \"#utility.yul\":2467:2481   */\n  lt\n    /* \"#utility.yul\":2447:2465   */\n  dup2\n    /* \"#utility.yul\":2444:2482   */\n  eq\n    /* \"#utility.yul\":2441:2525   */\n  iszero\n  tag_65\n  jumpi\n    /* \"#utility.yul\":2497:2515   */\n  tag_66\n  tag_67\n  jump\t// in\ntag_66:\n    /* \"#utility.yul\":2441:2525   */\ntag_65:\n    /* \"#utility.yul\":2262:2531   */\n  pop\n    /* \"#utility.yul\":2211:2531   */\n  swap2\n  swap1\n  pop\n  jump\t// out\n    /* \"#utility.yul\":2537:2717   */\ntag_67:\n    /* \"#utility.yul\":2585:2662   */\n  0x4e487b7100000000000000000000000000000000000000000000000000000000\n    /* \"#utility.yul\":2582:2583   */\n  0x00\n    /* \"#utility.yul\":2575:2663   */\n  mstore\n    /* \"#utility.yul\":2682:2686   */\n  0x22\n    /* \"#utility.yul\":2679:2680   */\n  0x04\n    /* \"#utility.yul\":2672:2687   */\n  mstore\n    /* \"#utility.yul\":2706:2710   */\n  0x24\n    /* \"#utility.yul\":2703:2704   */\n  0x00\n    /* \"#utility.yul\":2696:2711   */\n  revert\n    /* \"#utility.yul\":2723:2944   */\ntag_45:\n    /* \"#utility.yul\":2863:2897   */\n  0x45524332303a20617070726f766520746f20746865207a65726f206164647265\n    /* \"#utility.yul\":2859:2860   */\n  0x00\n    /* \"#utility.yul\":2851:2857   */\n  dup3\n    /* \"#utility.yul\":2847:2861   */\n  add\n    /* \"#utility.yul\":2840:2898   */\n  mstore\n    /* \"#utility.yul\":2932:2936   */\n  0x7373000000000000000000000000000000000000000000000000000000000000\n    /* \"#utility.yul\":2927:2929   */\n  0x20\n    /* \"#utility.yul\":2919:2925   */\n  dup3\n    /* \"#utility.yul\":2915:2930   */\n  add\n    /* \"#utility.yul\":2908:2937   */\n  mstore\n    /* \"#utility.yul\":2723:2944   */\n  pop\n  jump\t// out\n    /* \"#utility.yul\":2950:3173   */\ntag_50:\n    /* \"#utility.yul\":3090:3124   */\n  0x45524332303a20617070726f76652066726f6d20746865207a65726f20616464\n    /* \"#utility.yul\":3086:3087   */\n  0x00\n    /* \"#utility.yul\":3078:3084   */\n  dup3\n    /* \"#utility.yul\":3074:3088   */\n  add\n    /* \"#utility.yul\":3067:3125   */\n  mstore\n    /* \"#utility.yul\":3159:3165   */\n  0x7265737300000000000000000000000000000000000000000000000000000000\n    /* \"#utility.yul\":3154:3156   */\n  0x20\n    /* \"#utility.yul\":3146:3152   */\n  dup3\n    /* \"#utility.yul\":3142:3157   */\n  add\n    /* \"#utility.yul\":3135:3166   */\n  mstore\n    /* \"#utility.yul\":2950:3173   */\n  pop\n  jump\t// out\n    /* \"LiquidERC20.sol\":606:3511  contract liquidERC is ERC20{... */\ntag_14:\n  dataSize(sub_0)\n  dup1\n  dataOffset(sub_0)\n  0x00\n  codecopy\n  0x00\n  return\nstop\n\nsub_0: assembly {\n        /* \"LiquidERC20.sol\":606:3511  contract liquidERC is ERC20{... */\n      mstore(0x40, 0x80)\n      jumpi(tag_1, lt(calldatasize, 0x04))\n      shr(0xe0, calldataload(0x00))\n      dup1\n      0x70a08231\n      gt\n      tag_26\n      jumpi\n      dup1\n      0xa457c2d7\n      gt\n      tag_27\n      jumpi\n      dup1\n      0xa457c2d7\n      eq\n      tag_20\n      jumpi\n      dup1\n      0xa9059cbb\n      eq\n      tag_21\n      jumpi\n      dup1\n      0xaf6d1fe4\n      eq\n      tag_22\n      jumpi\n      dup1\n      0xb18b78dd\n      eq\n      tag_23\n      jumpi\n      dup1\n      0xbd3733fe\n      eq\n      tag_24\n      jumpi\n      dup1\n      0xdd62ed3e\n      eq\n      tag_25\n      jumpi\n      jump(tag_1)\n    tag_27:\n      dup1\n      0x70a08231\n      eq\n      tag_14\n      jumpi\n      dup1\n      0x7adbf973\n      eq\n      tag_15\n      jumpi\n      dup1\n      0x7dc0d1d0\n      eq\n      tag_16\n      jumpi\n      dup1\n      0x8da5cb5b\n      eq\n      tag_17\n      jumpi\n      dup1\n      0x95d89b41\n      eq\n      tag_18\n      jumpi\n      dup1\n      0x96fe8349\n      eq\n      tag_19\n      jumpi\n      jump(tag_1)\n    tag_26:\n      dup1\n      0x2a11ced0\n      gt\n      tag_28\n      jumpi\n      dup1\n      0x2a11ced0\n      eq\n      tag_8\n      jumpi\n      dup1\n      0x313ce567\n      eq\n      tag_9\n      jumpi\n      dup1\n      0x32a3cf96\n      eq\n      tag_10\n      jumpi\n      dup1\n      0x39509351\n      eq\n      tag_11\n      jumpi\n      dup1\n      0x42966c68\n      eq\n      tag_12\n      jumpi\n      dup1\n      0x45863322\n      eq\n      tag_13\n      jumpi\n      jump(tag_1)\n    tag_28:\n      dup1\n      0x06fdde03\n      eq\n      tag_2\n      jumpi\n      dup1\n      0x095ea7b3\n      eq\n      tag_3\n      jumpi\n      dup1\n      0x0f15f4c0\n      eq\n      tag_4\n      jumpi\n      dup1\n      0x13af4035\n      eq\n      tag_5\n      jumpi\n      dup1\n      0x18160ddd\n      eq\n      tag_6\n      jumpi\n      dup1\n      0x23b872dd\n      eq\n      tag_7\n      jumpi\n    tag_1:\n      0x00\n      dup1\n      revert\n        /* \"@openzeppelin/contracts/token/ERC20/ERC20.sol\":2156:2254  function name() public view virtual override returns (string memory) {... */\n    tag_2:\n      callvalue\n      dup1\n      iszero\n      tag_29\n      jumpi\n      0x00\n      dup1\n      revert\n    tag_29:\n      pop\n      tag_30\n      tag_31\n      jump\t// in\n    tag_30:\n      mload(0x40)\n      tag_32\n      swap2\n      swap1\n      tag_33\n      jump\t// in\n    tag_32:\n      mload(0x40)\n      dup1\n      swap2\n      sub\n      swap1\n      return\n        /* \"@openzeppelin/contracts/token/ERC20/ERC20.sol\":4433:4630  function approve(address spender, uint256 amount) public virtual override returns (bool) {... */\n    tag_3:\n      callvalue\n      dup1\n      iszero\n      tag_34\n      jumpi\n      0x00\n      dup1\n      revert\n    tag_34:\n      pop\n      tag_35\n      0x04\n      dup1\n      calldatasize\n      sub\n      dup2\n      add\n      swap1\n      tag_36\n      swap2\n      swap1\n      tag_37\n      jump\t// in\n    tag_36:\n      tag_38\n      jump\t// in\n    tag_35:\n      mload(0x40)\n      tag_39\n      swap2\n      swap1\n      tag_40\n      jump\t// in\n    tag_39:\n      mload(0x40)\n      dup1\n      swap2\n      sub\n      swap1\n      return\n        /* \"LiquidERC20.sol\":2870:3342  function activate() external payable onlyOwner{... */\n    tag_4:\n      tag_41\n      tag_42\n      jump\t// in\n    tag_41:\n      stop\n        /* \"LiquidERC20.sol\":1990:2074  function setOwner (address _owner) external onlyOwner{... */\n    tag_5:\n      callvalue\n      dup1\n      iszero\n      tag_43\n      jumpi\n      0x00\n      dup1\n      revert\n    tag_43:\n      pop\n      tag_44\n      0x04\n      dup1\n      calldatasize\n      sub\n      dup2\n      add\n      swap1\n      tag_45\n      swap2\n      swap1\n      tag_46\n      jump\t// in\n    tag_45:\n      tag_47\n      jump\t// in\n    tag_44:\n      stop\n        /* \"@openzeppelin/contracts/token/ERC20/ERC20.sol\":3244:3350  function totalSupply() public view virtual override returns (uint256) {... */\n    tag_6:\n      callvalue\n      dup1\n      iszero\n      tag_48\n      jumpi\n      0x00\n      dup1\n      revert\n    tag_48:\n      pop\n      tag_49\n      tag_50\n      jump\t// in\n    tag_49:\n      mload(0x40)\n      tag_51\n      swap2\n      swap1\n      tag_52\n      jump\t// in\n    tag_51:\n      mload(0x40)\n      dup1\n      swap2\n      sub\n      swap1\n      return\n        /* \"@openzeppelin/contracts/token/ERC20/ERC20.sol\":5192:5478  function transferFrom(... */\n    tag_7:\n      callvalue\n      dup1\n      iszero\n      tag_53\n      jumpi\n      0x00\n      dup1\n      revert\n    tag_53:\n      pop\n      tag_54\n      0x04\n      dup1\n      calldatasize\n      sub\n      dup2\n      add\n      swap1\n      tag_55\n      swap2\n      swap1\n      tag_56\n      jump\t// in\n    tag_55:\n      tag_57\n      jump\t// in\n    tag_54:\n      mload(0x40)\n      tag_58\n      swap2\n      swap1\n      tag_40\n      jump\t// in\n    tag_58:\n      mload(0x40)\n      dup1\n      swap2\n      sub\n      swap1\n      return\n        /* \"LiquidERC20.sol\":1565:1598  address payable [] public holders */\n    tag_8:\n      callvalue\n      dup1\n      iszero\n      tag_59\n      jumpi\n      0x00\n      dup1\n      revert\n    tag_59:\n      pop\n      tag_60\n      0x04\n      dup1\n      calldatasize\n      sub\n      dup2\n      add\n      swap1\n      tag_61\n      swap2\n      swap1\n      tag_62\n      jump\t// in\n    tag_61:\n      tag_63\n      jump\t// in\n    tag_60:\n      mload(0x40)\n      tag_64\n      swap2\n      swap1\n      tag_65\n      jump\t// in\n    tag_64:\n      mload(0x40)\n      dup1\n      swap2\n      sub\n      swap1\n      return\n        /* \"@openzeppelin/contracts/token/ERC20/ERC20.sol\":3093:3184  function decimals() public view virtual override returns (uint8) {... */\n    tag_9:\n      callvalue\n      dup1\n      iszero\n      tag_66\n      jumpi\n      0x00\n      dup1\n      revert\n    tag_66:\n      pop\n      tag_67\n      tag_68\n      jump\t// in\n    tag_67:\n      mload(0x40)\n      tag_69\n      swap2\n      swap1\n      tag_70\n      jump\t// in\n    tag_69:\n      mload(0x40)\n      dup1\n      swap2\n      sub\n      swap1\n      return\n        /* \"LiquidERC20.sol\":1439:1465  address public hookAddress */\n    tag_10:\n      callvalue\n      dup1\n      iszero\n      tag_71\n      jumpi\n      0x00\n      dup1\n      revert\n    tag_71:\n      pop\n      tag_72\n      tag_73\n      jump\t// in\n    tag_72:\n      mload(0x40)\n      tag_74\n      swap2\n      swap1\n      tag_75\n      jump\t// in\n    tag_74:\n      mload(0x40)\n      dup1\n      swap2\n      sub\n      swap1\n      return\n        /* \"@openzeppelin/contracts/token/ERC20/ERC20.sol\":5873:6107  function increaseAllowance(address spender, uint256 addedValue) public virtual returns (bool) {... */\n    tag_11:\n      callvalue\n      dup1\n      iszero\n      tag_76\n      jumpi\n      0x00\n      dup1\n      revert\n    tag_76:\n      pop\n      tag_77\n      0x04\n      dup1\n      calldatasize\n      sub\n      dup2\n      add\n      swap1\n      tag_78\n      swap2\n      swap1\n      tag_37\n      jump\t// in\n    tag_78:\n      tag_79\n      jump\t// in\n    tag_77:\n      mload(0x40)\n      tag_80\n      swap2\n      swap1\n      tag_40\n      jump\t// in\n    tag_80:\n      mload(0x40)\n      dup1\n      swap2\n      sub\n      swap1\n      return\n        /* \"LiquidERC20.sol\":2646:2723  function burn(uint tokens) external {... */\n    tag_12:\n      callvalue\n      dup1\n      iszero\n      tag_81\n      jumpi\n      0x00\n      dup1\n      revert\n    tag_81:\n      pop\n      tag_82\n      0x04\n      dup1\n      calldatasize\n      sub\n      dup2\n      add\n      swap1\n      tag_83\n      swap2\n      swap1\n      tag_62\n      jump\t// in\n    tag_83:\n      tag_84\n      jump\t// in\n    tag_82:\n      stop\n        /* \"LiquidERC20.sol\":2225:2332  function setHookAddress(address _hookAddress) external onlyOwner{... */\n    tag_13:\n      callvalue\n      dup1\n      iszero\n      tag_85\n      jumpi\n      0x00\n      dup1\n      revert\n    tag_85:\n      pop\n      tag_86\n      0x04\n      dup1\n      calldatasize\n      sub\n      dup2\n      add\n      swap1\n      tag_87\n      swap2\n      swap1\n      tag_46\n      jump\t// in\n    tag_87:\n      tag_88\n      jump\t// in\n    tag_86:\n      stop\n        /* \"@openzeppelin/contracts/token/ERC20/ERC20.sol\":3408:3533  function balanceOf(address account) public view virtual override returns (uint256) {... */\n    tag_14:\n      callvalue\n      dup1\n      iszero\n      tag_89\n      jumpi\n      0x00\n      dup1\n      revert\n    tag_89:\n      pop\n      tag_90\n      0x04\n      dup1\n      calldatasize\n      sub\n      dup2\n      add\n      swap1\n      tag_91\n      swap2\n      swap1\n      tag_46\n      jump\t// in\n    tag_91:\n      tag_92\n      jump\t// in\n    tag_90:\n      mload(0x40)\n      tag_93\n      swap2\n      swap1\n      tag_52\n      jump\t// in\n    tag_93:\n      mload(0x40)\n      dup1\n      swap2\n      sub\n      swap1\n      return\n        /* \"LiquidERC20.sol\":2080:2219  function setOracle(Oracle _oracle) public onlyOwner{... */\n    tag_15:\n      callvalue\n      dup1\n      iszero\n      tag_94\n      jumpi\n      0x00\n      dup1\n      revert\n    tag_94:\n      pop\n      tag_95\n      0x04\n      dup1\n      calldatasize\n      sub\n      dup2\n      add\n      swap1\n      tag_96\n      swap2\n      swap1\n      tag_97\n      jump\t// in\n    tag_96:\n      tag_98\n      jump\t// in\n    tag_95:\n      stop\n        /* \"LiquidERC20.sol\":1935:1955  Oracle public oracle */\n    tag_16:\n      callvalue\n      dup1\n      iszero\n      tag_99\n      jumpi\n      0x00\n      dup1\n      revert\n    tag_99:\n      pop\n      tag_100\n      tag_101\n      jump\t// in\n    tag_100:\n      mload(0x40)\n      tag_102\n      swap2\n      swap1\n      tag_103\n      jump\t// in\n    tag_102:\n      mload(0x40)\n      dup1\n      swap2\n      sub\n      swap1\n      return\n        /* \"LiquidERC20.sol\":1471:1491  address public owner */\n    tag_17:\n      callvalue\n      dup1\n      iszero\n      tag_104\n      jumpi\n      0x00\n      dup1\n      revert\n    tag_104:\n      pop\n      tag_105\n      tag_106\n      jump\t// in\n    tag_105:\n      mload(0x40)\n      tag_107\n      swap2\n      swap1\n      tag_75\n      jump\t// in\n    tag_107:\n      mload(0x40)\n      dup1\n      swap2\n      sub\n      swap1\n      return\n        /* \"@openzeppelin/contracts/token/ERC20/ERC20.sol\":2367:2469  function symbol() public view virtual override returns (string memory) {... */\n    tag_18:\n      callvalue\n      dup1\n      iszero\n      tag_108\n      jumpi\n      0x00\n      dup1\n      revert\n    tag_108:\n      pop\n      tag_109\n      tag_110\n      jump\t// in\n    tag_109:\n      mload(0x40)\n      tag_111\n      swap2\n      swap1\n      tag_33\n      jump\t// in\n    tag_111:\n      mload(0x40)\n      dup1\n      swap2\n      sub\n      swap1\n      return\n        /* \"LiquidERC20.sol\":2730:2858  function hookMint(uint _numberOfTokens, address _previousHolder) public {... */\n    tag_19:\n      callvalue\n      dup1\n      iszero\n      tag_112\n      jumpi\n      0x00\n      dup1\n      revert\n    tag_112:\n      pop\n      tag_113\n      0x04\n      dup1\n      calldatasize\n      sub\n      dup2\n      add\n      swap1\n      tag_114\n      swap2\n      swap1\n      tag_115\n      jump\t// in\n    tag_114:\n      tag_116\n      jump\t// in\n    tag_113:\n      stop\n        /* \"@openzeppelin/contracts/token/ERC20/ERC20.sol\":6594:7021  function decreaseAllowance(address spender, uint256 subtractedValue) public virtual returns (bool) {... */\n    tag_20:\n      callvalue\n      dup1\n      iszero\n      tag_117\n      jumpi\n      0x00\n      dup1\n      revert\n    tag_117:\n      pop\n      tag_118\n      0x04\n      dup1\n      calldatasize\n      sub\n      dup2\n      add\n      swap1\n      tag_119\n      swap2\n      swap1\n      tag_37\n      jump\t// in\n    tag_119:\n      tag_120\n      jump\t// in\n    tag_118:\n      mload(0x40)\n      tag_121\n      swap2\n      swap1\n      tag_40\n      jump\t// in\n    tag_121:\n      mload(0x40)\n      dup1\n      swap2\n      sub\n      swap1\n      return\n        /* \"@openzeppelin/contracts/token/ERC20/ERC20.sol\":3729:3918  function transfer(address to, uint256 amount) public virtual override returns (bool) {... */\n    tag_21:\n      callvalue\n      dup1\n      iszero\n      tag_122\n      jumpi\n      0x00\n      dup1\n      revert\n    tag_122:\n      pop\n      tag_123\n      0x04\n      dup1\n      calldatasize\n      sub\n      dup2\n      add\n      swap1\n      tag_124\n      swap2\n      swap1\n      tag_37\n      jump\t// in\n    tag_124:\n      tag_125\n      jump\t// in\n    tag_123:\n      mload(0x40)\n      tag_126\n      swap2\n      swap1\n      tag_40\n      jump\t// in\n    tag_126:\n      mload(0x40)\n      dup1\n      swap2\n      sub\n      swap1\n      return\n        /* \"LiquidERC20.sol\":1538:1559  address[] public path */\n    tag_22:\n      callvalue\n      dup1\n      iszero\n      tag_127\n      jumpi\n      0x00\n      dup1\n      revert\n    tag_127:\n      pop\n      tag_128\n      0x04\n      dup1\n      calldatasize\n      sub\n      dup2\n      add\n      swap1\n      tag_129\n      swap2\n      swap1\n      tag_62\n      jump\t// in\n    tag_129:\n      tag_130\n      jump\t// in\n    tag_128:\n      mload(0x40)\n      tag_131\n      swap2\n      swap1\n      tag_75\n      jump\t// in\n    tag_131:\n      mload(0x40)\n      dup1\n      swap2\n      sub\n      swap1\n      return\n        /* \"LiquidERC20.sol\":1607:1703  function getOracleAddress() public view returns (address){... */\n    tag_23:\n      callvalue\n      dup1\n      iszero\n      tag_132\n      jumpi\n      0x00\n      dup1\n      revert\n    tag_132:\n      pop\n      tag_133\n      tag_134\n      jump\t// in\n    tag_133:\n      mload(0x40)\n      tag_135\n      swap2\n      swap1\n      tag_75\n      jump\t// in\n    tag_135:\n      mload(0x40)\n      dup1\n      swap2\n      sub\n      swap1\n      return\n        /* \"LiquidERC20.sol\":1498:1531  address public uniswapPairAddress */\n    tag_24:\n      callvalue\n      dup1\n      iszero\n      tag_136\n      jumpi\n      0x00\n      dup1\n      revert\n    tag_136:\n      pop\n      tag_137\n      tag_138\n      jump\t// in\n    tag_137:\n      mload(0x40)\n      tag_139\n      swap2\n      swap1\n      tag_75\n      jump\t// in\n    tag_139:\n      mload(0x40)\n      dup1\n      swap2\n      sub\n      swap1\n      return\n        /* \"@openzeppelin/contracts/token/ERC20/ERC20.sol\":3976:4125  function allowance(address owner, address spender) public view virtual override returns (uint256) {... */\n    tag_25:\n      callvalue\n      dup1\n      iszero\n      tag_140\n      jumpi\n      0x00\n      dup1\n      revert\n    tag_140:\n      pop\n      tag_141\n      0x04\n      dup1\n      calldatasize\n      sub\n      dup2\n      add\n      swap1\n      tag_142\n      swap2\n      swap1\n      tag_143\n      jump\t// in\n    tag_142:\n      tag_144\n      jump\t// in\n    tag_141:\n      mload(0x40)\n      tag_145\n      swap2\n      swap1\n      tag_52\n      jump\t// in\n    tag_145:\n      mload(0x40)\n      dup1\n      swap2\n      sub\n      swap1\n      return\n        /* \"@openzeppelin/contracts/token/ERC20/ERC20.sol\":2156:2254  function name() public view virtual override returns (string memory) {... */\n    tag_31:\n        /* \"@openzeppelin/contracts/token/ERC20/ERC20.sol\":2210:2223  string memory */\n      0x60\n        /* \"@openzeppelin/contracts/token/ERC20/ERC20.sol\":2242:2247  _name */\n      0x03\n        /* \"@openzeppelin/contracts/token/ERC20/ERC20.sol\":2235:2247  return _name */\n      dup1\n      sload\n      tag_147\n      swap1\n      tag_148\n      jump\t// in\n    tag_147:\n      dup1\n      0x1f\n      add\n      0x20\n      dup1\n      swap2\n      div\n      mul\n      0x20\n      add\n      mload(0x40)\n      swap1\n      dup2\n      add\n      0x40\n      mstore\n      dup1\n      swap3\n      swap2\n      swap1\n      dup2\n      dup2\n      mstore\n      0x20\n      add\n      dup3\n      dup1\n      sload\n      tag_149\n      swap1\n      tag_148\n      jump\t// in\n    tag_149:\n      dup1\n      iszero\n      tag_150\n      jumpi\n      dup1\n      0x1f\n      lt\n      tag_151\n      jumpi\n      0x0100\n      dup1\n      dup4\n      sload\n      div\n      mul\n      dup4\n      mstore\n      swap2\n      0x20\n      add\n      swap2\n      jump(tag_150)\n    tag_151:\n      dup3\n      add\n      swap2\n      swap1\n      0x00\n      mstore\n      keccak256(0x00, 0x20)\n      swap1\n    tag_152:\n      dup2\n      sload\n      dup2\n      mstore\n      swap1\n      0x01\n      add\n      swap1\n      0x20\n      add\n      dup1\n      dup4\n      gt\n      tag_152\n      jumpi\n      dup3\n      swap1\n      sub\n      0x1f\n      and\n      dup3\n      add\n      swap2\n    tag_150:\n      pop\n      pop\n      pop\n      pop\n      pop\n      swap1\n      pop\n        /* \"@openzeppelin/contracts/token/ERC20/ERC20.sol\":2156:2254  function name() public view virtual override returns (string memory) {... */\n      swap1\n      jump\t// out\n        /* \"@openzeppelin/contracts/token/ERC20/ERC20.sol\":4433:4630  function approve(address spender, uint256 amount) public virtual override returns (bool) {... */\n    tag_38:\n        /* \"@openzeppelin/contracts/token/ERC20/ERC20.sol\":4516:4520  bool */\n      0x00\n        /* \"@openzeppelin/contracts/token/ERC20/ERC20.sol\":4532:4545  address owner */\n      dup1\n        /* \"@openzeppelin/contracts/token/ERC20/ERC20.sol\":4548:4560  _msgSender() */\n      tag_154\n        /* \"@openzeppelin/contracts/token/ERC20/ERC20.sol\":4548:4558  _msgSender */\n      tag_155\n        /* \"@openzeppelin/contracts/token/ERC20/ERC20.sol\":4548:4560  _msgSender() */\n      jump\t// in\n    tag_154:\n        /* \"@openzeppelin/contracts/token/ERC20/ERC20.sol\":4532:4560  address owner = _msgSender() */\n      swap1\n      pop\n        /* \"@openzeppelin/contracts/token/ERC20/ERC20.sol\":4570:4602  _approve(owner, spender, amount) */\n      tag_156\n        /* \"@openzeppelin/contracts/token/ERC20/ERC20.sol\":4579:4584  owner */\n      dup2\n        /* \"@openzeppelin/contracts/token/ERC20/ERC20.sol\":4586:4593  spender */\n      dup6\n        /* \"@openzeppelin/contracts/token/ERC20/ERC20.sol\":4595:4601  amount */\n      dup6\n        /* \"@openzeppelin/contracts/token/ERC20/ERC20.sol\":4570:4578  _approve */\n      tag_157\n        /* \"@openzeppelin/contracts/token/ERC20/ERC20.sol\":4570:4602  _approve(owner, spender, amount) */\n      jump\t// in\n    tag_156:\n        /* \"@openzeppelin/contracts/token/ERC20/ERC20.sol\":4619:4623  true */\n      0x01\n        /* \"@openzeppelin/contracts/token/ERC20/ERC20.sol\":4612:4623  return true */\n      swap2\n      pop\n      pop\n        /* \"@openzeppelin/contracts/token/ERC20/ERC20.sol\":4433:4630  function approve(address spender, uint256 amount) public virtual override returns (bool) {... */\n      swap3\n      swap2\n      pop\n      pop\n      jump\t// out\n        /* \"LiquidERC20.sol\":2870:3342  function activate() external payable onlyOwner{... */\n    tag_42:\n        /* \"LiquidERC20.sol\":3484:3489  owner */\n      0x0b\n      0x00\n      swap1\n      sload\n      swap1\n      0x0100\n      exp\n      swap1\n      div\n      0xffffffffffffffffffffffffffffffffffffffff\n      and\n        /* \"LiquidERC20.sol\":3472:3489  msg.sender==owner */\n      0xffffffffffffffffffffffffffffffffffffffff\n      and\n        /* \"LiquidERC20.sol\":3472:3482  msg.sender */\n      caller\n        /* \"LiquidERC20.sol\":3472:3489  msg.sender==owner */\n      0xffffffffffffffffffffffffffffffffffffffff\n      and\n      eq\n        /* \"LiquidERC20.sol\":3463:3490  require (msg.sender==owner) */\n      tag_159\n      jumpi\n      0x00\n      dup1\n      revert\n    tag_159:\n        /* \"LiquidERC20.sol\":2926:2947  uint initialLiquidity */\n      0x00\n        /* \"LiquidERC20.sol\":2950:2956  10**18 */\n      0x0de0b6b3a7640000\n        /* \"LiquidERC20.sol\":2926:2956  uint initialLiquidity = 10**18 */\n      swap1\n      pop\n        /* \"LiquidERC20.sol\":2966:3003  _mint(address(this),initialLiquidity) */\n      tag_161\n        /* \"LiquidERC20.sol\":2980:2984  this */\n      address\n        /* \"LiquidERC20.sol\":2986:3002  initialLiquidity */\n      dup3\n        /* \"LiquidERC20.sol\":2966:2971  _mint */\n      tag_162\n        /* \"LiquidERC20.sol\":2966:3003  _mint(address(this),initialLiquidity) */\n      jump\t// in\n    tag_161:\n        /* \"LiquidERC20.sol\":3034:3048  UniswapFactory */\n      0x10\n      0x00\n      swap1\n      sload\n      swap1\n      0x0100\n      exp\n      swap1\n      div\n      0xffffffffffffffffffffffffffffffffffffffff\n      and\n        /* \"LiquidERC20.sol\":3034:3059  UniswapFactory.createPair */\n      0xffffffffffffffffffffffffffffffffffffffff\n      and\n      0xc9c65396\n        /* \"LiquidERC20.sol\":3068:3072  this */\n      address\n        /* \"LiquidERC20.sol\":3075:3086  wethAddress */\n      0x09\n      0x00\n      swap1\n      sload\n      swap1\n      0x0100\n      exp\n      swap1\n      div\n      0xffffffffffffffffffffffffffffffffffffffff\n      and\n        /* \"LiquidERC20.sol\":3034:3087  UniswapFactory.createPair(address(this), wethAddress) */\n      mload(0x40)\n      dup4\n      0xffffffff\n      and\n      0xe0\n      shl\n      dup2\n      mstore\n      0x04\n      add\n      tag_163\n      swap3\n      swap2\n      swap1\n      tag_164\n      jump\t// in\n    tag_163:\n      0x20\n      mload(0x40)\n      dup1\n      dup4\n      sub\n      dup2\n      0x00\n      dup8\n      dup1\n      extcodesize\n      iszero\n      dup1\n      iszero\n      tag_165\n      jumpi\n      0x00\n      dup1\n      revert\n    tag_165:\n      pop\n      gas\n      call\n      iszero\n      dup1\n      iszero\n      tag_167\n      jumpi\n      returndatasize\n      0x00\n      dup1\n      returndatacopy\n      revert(0x00, returndatasize)\n    tag_167:\n      pop\n      pop\n      pop\n      pop\n      mload(0x40)\n      returndatasize\n      not(0x1f)\n      0x1f\n      dup3\n      add\n      and\n      dup3\n      add\n      dup1\n      0x40\n      mstore\n      pop\n      dup2\n      add\n      swap1\n      tag_168\n      swap2\n      swap1\n      tag_169\n      jump\t// in\n    tag_168:\n        /* \"LiquidERC20.sol\":3013:3031  uniswapPairAddress */\n      0x0c\n      0x00\n        /* \"LiquidERC20.sol\":3013:3087  uniswapPairAddress = UniswapFactory.createPair(address(this), wethAddress) */\n      0x0100\n      exp\n      dup2\n      sload\n      dup2\n      0xffffffffffffffffffffffffffffffffffffffff\n      mul\n      not\n      and\n      swap1\n      dup4\n      0xffffffffffffffffffffffffffffffffffffffff\n      and\n      mul\n      or\n      swap1\n      sstore\n      pop\n        /* \"LiquidERC20.sol\":3126:3144  uniswapPairAddress */\n      0x0c\n      0x00\n      swap1\n      sload\n      swap1\n      0x0100\n      exp\n      swap1\n      div\n      0xffffffffffffffffffffffffffffffffffffffff\n      and\n        /* \"LiquidERC20.sol\":3097:3108  UniswapPair */\n      0x11\n      0x00\n        /* \"LiquidERC20.sol\":3097:3145  UniswapPair = IUniswapV2Pair(uniswapPairAddress) */\n      0x0100\n      exp\n      dup2\n      sload\n      dup2\n      0xffffffffffffffffffffffffffffffffffffffff\n      mul\n      not\n      and\n      swap1\n      dup4\n      0xffffffffffffffffffffffffffffffffffffffff\n      and\n      mul\n      or\n      swap1\n      sstore\n      pop\n        /* \"LiquidERC20.sol\":3155:3168  UniswapRouter */\n      0x0f\n      0x00\n      swap1\n      sload\n      swap1\n      0x0100\n      exp\n      swap1\n      div\n      0xffffffffffffffffffffffffffffffffffffffff\n      and\n        /* \"LiquidERC20.sol\":3155:3184  UniswapRouter.addLiquidityETH */\n      0xffffffffffffffffffffffffffffffffffffffff\n      and\n      0xf305d719\n        /* \"LiquidERC20.sol\":3192:3201  msg.value */\n      callvalue\n        /* \"LiquidERC20.sol\":3211:3215  this */\n      address\n        /* \"LiquidERC20.sol\":3226:3242  initialLiquidity */\n      dup5\n        /* \"LiquidERC20.sol\":3252:3253  0 */\n      0x00\n        /* \"LiquidERC20.sol\":3263:3264  0 */\n      dup1\n        /* \"LiquidERC20.sol\":3282:3286  this */\n      address\n        /* \"LiquidERC20.sol\":3297:3304  maxUint */\n      sload(0x05)\n        /* \"LiquidERC20.sol\":3155:3305  UniswapRouter.addLiquidityETH{value: msg.value}(address(this),... */\n      mload(0x40)\n      dup9\n      0xffffffff\n      and\n      0xe0\n      shl\n      dup2\n      mstore\n      0x04\n      add\n      tag_170\n      swap7\n      swap6\n      swap5\n      swap4\n      swap3\n      swap2\n      swap1\n      tag_171\n      jump\t// in\n    tag_170:\n      0x60\n      mload(0x40)\n      dup1\n      dup4\n      sub\n      dup2\n      dup6\n      dup9\n      dup1\n      extcodesize\n      iszero\n      dup1\n      iszero\n      tag_172\n      jumpi\n      0x00\n      dup1\n      revert\n    tag_172:\n      pop\n      gas\n      call\n      iszero\n      dup1\n      iszero\n      tag_174\n      jumpi\n      returndatasize\n      0x00\n      dup1\n      returndatacopy\n      revert(0x00, returndatasize)\n    tag_174:\n      pop\n      pop\n      pop\n      pop\n      pop\n      mload(0x40)\n      returndatasize\n      not(0x1f)\n      0x1f\n      dup3\n      add\n      and\n      dup3\n      add\n      dup1\n      0x40\n      mstore\n      pop\n      dup2\n      add\n      swap1\n      tag_175\n      swap2\n      swap1\n      tag_176\n      jump\t// in\n    tag_175:\n      pop\n      pop\n      pop\n        /* \"LiquidERC20.sol\":3331:3335  true */\n      0x01\n        /* \"LiquidERC20.sol\":3315:3328  poolActivated */\n      0x12\n      0x14\n        /* \"LiquidERC20.sol\":3315:3335  poolActivated = true */\n      0x0100\n      exp\n      dup2\n      sload\n      dup2\n      0xff\n      mul\n      not\n      and\n      swap1\n      dup4\n      iszero\n      iszero\n      mul\n      or\n      swap1\n      sstore\n      pop\n        /* \"LiquidERC20.sol\":2916:3342  {... */\n      pop\n        /* \"LiquidERC20.sol\":2870:3342  function activate() external payable onlyOwner{... */\n      jump\t// out\n        /* \"LiquidERC20.sol\":1990:2074  function setOwner (address _owner) external onlyOwner{... */\n    tag_47:\n        /* \"LiquidERC20.sol\":3484:3489  owner */\n      0x0b\n      0x00\n      swap1\n      sload\n      swap1\n      0x0100\n      exp\n      swap1\n      div\n      0xffffffffffffffffffffffffffffffffffffffff\n      and\n        /* \"LiquidERC20.sol\":3472:3489  msg.sender==owner */\n      0xffffffffffffffffffffffffffffffffffffffff\n      and\n        /* \"LiquidERC20.sol\":3472:3482  msg.sender */\n      caller\n        /* \"LiquidERC20.sol\":3472:3489  msg.sender==owner */\n      0xffffffffffffffffffffffffffffffffffffffff\n      and\n      eq\n        /* \"LiquidERC20.sol\":3463:3490  require (msg.sender==owner) */\n      tag_178\n      jumpi\n      0x00\n      dup1\n      revert\n    tag_178:\n        /* \"LiquidERC20.sol\":2061:2067  _owner */\n      dup1\n        /* \"LiquidERC20.sol\":2053:2058  owner */\n      0x0b\n      0x00\n        /* \"LiquidERC20.sol\":2053:2067  owner = _owner */\n      0x0100\n      exp\n      dup2\n      sload\n      dup2\n      0xffffffffffffffffffffffffffffffffffffffff\n      mul\n      not\n      and\n      swap1\n      dup4\n      0xffffffffffffffffffffffffffffffffffffffff\n      and\n      mul\n      or\n      swap1\n      sstore\n      pop\n        /* \"LiquidERC20.sol\":1990:2074  function setOwner (address _owner) external onlyOwner{... */\n      pop\n      jump\t// out\n        /* \"@openzeppelin/contracts/token/ERC20/ERC20.sol\":3244:3350  function totalSupply() public view virtual override returns (uint256) {... */\n    tag_50:\n        /* \"@openzeppelin/contracts/token/ERC20/ERC20.sol\":3305:3312  uint256 */\n      0x00\n        /* \"@openzeppelin/contracts/token/ERC20/ERC20.sol\":3331:3343  _totalSupply */\n      sload(0x02)\n        /* \"@openzeppelin/contracts/token/ERC20/ERC20.sol\":3324:3343  return _totalSupply */\n      swap1\n      pop\n        /* \"@openzeppelin/contracts/token/ERC20/ERC20.sol\":3244:3350  function totalSupply() public view virtual override returns (uint256) {... */\n      swap1\n      jump\t// out\n        /* \"@openzeppelin/contracts/token/ERC20/ERC20.sol\":5192:5478  function transferFrom(... */\n    tag_57:\n        /* \"@openzeppelin/contracts/token/ERC20/ERC20.sol\":5319:5323  bool */\n      0x00\n        /* \"@openzeppelin/contracts/token/ERC20/ERC20.sol\":5335:5350  address spender */\n      dup1\n        /* \"@openzeppelin/contracts/token/ERC20/ERC20.sol\":5353:5365  _msgSender() */\n      tag_182\n        /* \"@openzeppelin/contracts/token/ERC20/ERC20.sol\":5353:5363  _msgSender */\n      tag_155\n        /* \"@openzeppelin/contracts/token/ERC20/ERC20.sol\":5353:5365  _msgSender() */\n      jump\t// in\n    tag_182:\n        /* \"@openzeppelin/contracts/token/ERC20/ERC20.sol\":5335:5365  address spender = _msgSender() */\n      swap1\n      pop\n        /* \"@openzeppelin/contracts/token/ERC20/ERC20.sol\":5375:5413  _spendAllowance(from, spender, amount) */\n      tag_183\n        /* \"@openzeppelin/contracts/token/ERC20/ERC20.sol\":5391:5395  from */\n      dup6\n        /* \"@openzeppelin/contracts/token/ERC20/ERC20.sol\":5397:5404  spender */\n      dup3\n        /* \"@openzeppelin/contracts/token/ERC20/ERC20.sol\":5406:5412  amount */\n      dup6\n        /* \"@openzeppelin/contracts/token/ERC20/ERC20.sol\":5375:5390  _spendAllowance */\n      tag_184\n        /* \"@openzeppelin/contracts/token/ERC20/ERC20.sol\":5375:5413  _spendAllowance(from, spender, amount) */\n      jump\t// in\n    tag_183:\n        /* \"@openzeppelin/contracts/token/ERC20/ERC20.sol\":5423:5450  _transfer(from, to, amount) */\n      tag_185\n        /* \"@openzeppelin/contracts/token/ERC20/ERC20.sol\":5433:5437  from */\n      dup6\n        /* \"@openzeppelin/contracts/token/ERC20/ERC20.sol\":5439:5441  to */\n      dup6\n        /* \"@openzeppelin/contracts/token/ERC20/ERC20.sol\":5443:5449  amount */\n      dup6\n        /* \"@openzeppelin/contracts/token/ERC20/ERC20.sol\":5423:5432  _transfer */\n      tag_186\n        /* \"@openzeppelin/contracts/token/ERC20/ERC20.sol\":5423:5450  _transfer(from, to, amount) */\n      jump\t// in\n    tag_185:\n        /* \"@openzeppelin/contracts/token/ERC20/ERC20.sol\":5467:5471  true */\n      0x01\n        /* \"@openzeppelin/contracts/token/ERC20/ERC20.sol\":5460:5471  return true */\n      swap2\n      pop\n      pop\n        /* \"@openzeppelin/contracts/token/ERC20/ERC20.sol\":5192:5478  function transferFrom(... */\n      swap4\n      swap3\n      pop\n      pop\n      pop\n      jump\t// out\n        /* \"LiquidERC20.sol\":1565:1598  address payable [] public holders */\n    tag_63:\n      0x0e\n      dup2\n      dup2\n      sload\n      dup2\n      lt\n      tag_187\n      jumpi\n      0x00\n      dup1\n      revert\n    tag_187:\n      swap1\n      0x00\n      mstore\n      keccak256(0x00, 0x20)\n      add\n      0x00\n      swap2\n      pop\n      sload\n      swap1\n      0x0100\n      exp\n      swap1\n      div\n      0xffffffffffffffffffffffffffffffffffffffff\n      and\n      dup2\n      jump\t// out\n        /* \"@openzeppelin/contracts/token/ERC20/ERC20.sol\":3093:3184  function decimals() public view virtual override returns (uint8) {... */\n    tag_68:\n        /* \"@openzeppelin/contracts/token/ERC20/ERC20.sol\":3151:3156  uint8 */\n      0x00\n        /* \"@openzeppelin/contracts/token/ERC20/ERC20.sol\":3175:3177  18 */\n      0x12\n        /* \"@openzeppelin/contracts/token/ERC20/ERC20.sol\":3168:3177  return 18 */\n      swap1\n      pop\n        /* \"@openzeppelin/contracts/token/ERC20/ERC20.sol\":3093:3184  function decimals() public view virtual override returns (uint8) {... */\n      swap1\n      jump\t// out\n        /* \"LiquidERC20.sol\":1439:1465  address public hookAddress */\n    tag_73:\n      0x0a\n      0x00\n      swap1\n      sload\n      swap1\n      0x0100\n      exp\n      swap1\n      div\n      0xffffffffffffffffffffffffffffffffffffffff\n      and\n      dup2\n      jump\t// out\n        /* \"@openzeppelin/contracts/token/ERC20/ERC20.sol\":5873:6107  function increaseAllowance(address spender, uint256 addedValue) public virtual returns (bool) {... */\n    tag_79:\n        /* \"@openzeppelin/contracts/token/ERC20/ERC20.sol\":5961:5965  bool */\n      0x00\n        /* \"@openzeppelin/contracts/token/ERC20/ERC20.sol\":5977:5990  address owner */\n      dup1\n        /* \"@openzeppelin/contracts/token/ERC20/ERC20.sol\":5993:6005  _msgSender() */\n      tag_191\n        /* \"@openzeppelin/contracts/token/ERC20/ERC20.sol\":5993:6003  _msgSender */\n      tag_155\n        /* \"@openzeppelin/contracts/token/ERC20/ERC20.sol\":5993:6005  _msgSender() */\n      jump\t// in\n    tag_191:\n        /* \"@openzeppelin/contracts/token/ERC20/ERC20.sol\":5977:6005  address owner = _msgSender() */\n      swap1\n      pop\n        /* \"@openzeppelin/contracts/token/ERC20/ERC20.sol\":6015:6079  _approve(owner, spender, allowance(owner, spender) + addedValue) */\n      tag_192\n        /* \"@openzeppelin/contracts/token/ERC20/ERC20.sol\":6024:6029  owner */\n      dup2\n        /* \"@openzeppelin/contracts/token/ERC20/ERC20.sol\":6031:6038  spender */\n      dup6\n        /* \"@openzeppelin/contracts/token/ERC20/ERC20.sol\":6068:6078  addedValue */\n      dup6\n        /* \"@openzeppelin/contracts/token/ERC20/ERC20.sol\":6040:6065  allowance(owner, spender) */\n      tag_193\n        /* \"@openzeppelin/contracts/token/ERC20/ERC20.sol\":6050:6055  owner */\n      dup6\n        /* \"@openzeppelin/contracts/token/ERC20/ERC20.sol\":6057:6064  spender */\n      dup10\n        /* \"@openzeppelin/contracts/token/ERC20/ERC20.sol\":6040:6049  allowance */\n      tag_144\n        /* \"@openzeppelin/contracts/token/ERC20/ERC20.sol\":6040:6065  allowance(owner, spender) */\n      jump\t// in\n    tag_193:\n        /* \"@openzeppelin/contracts/token/ERC20/ERC20.sol\":6040:6078  allowance(owner, spender) + addedValue */\n      tag_194\n      swap2\n      swap1\n      tag_195\n      jump\t// in\n    tag_194:\n        /* \"@openzeppelin/contracts/token/ERC20/ERC20.sol\":6015:6023  _approve */\n      tag_157\n        /* \"@openzeppelin/contracts/token/ERC20/ERC20.sol\":6015:6079  _approve(owner, spender, allowance(owner, spender) + addedValue) */\n      jump\t// in\n    tag_192:\n        /* \"@openzeppelin/contracts/token/ERC20/ERC20.sol\":6096:6100  true */\n      0x01\n        /* \"@openzeppelin/contracts/token/ERC20/ERC20.sol\":6089:6100  return true */\n      swap2\n      pop\n      pop\n        /* \"@openzeppelin/contracts/token/ERC20/ERC20.sol\":5873:6107  function increaseAllowance(address spender, uint256 addedValue) public virtual returns (bool) {... */\n      swap3\n      swap2\n      pop\n      pop\n      jump\t// out\n        /* \"LiquidERC20.sol\":2646:2723  function burn(uint tokens) external {... */\n    tag_84:\n        /* \"LiquidERC20.sol\":2692:2716  _burn(msg.sender,tokens) */\n      tag_197\n        /* \"LiquidERC20.sol\":2698:2708  msg.sender */\n      caller\n        /* \"LiquidERC20.sol\":2709:2715  tokens */\n      dup3\n        /* \"LiquidERC20.sol\":2692:2697  _burn */\n      tag_198\n        /* \"LiquidERC20.sol\":2692:2716  _burn(msg.sender,tokens) */\n      jump\t// in\n    tag_197:\n        /* \"LiquidERC20.sol\":2646:2723  function burn(uint tokens) external {... */\n      pop\n      jump\t// out\n        /* \"LiquidERC20.sol\":2225:2332  function setHookAddress(address _hookAddress) external onlyOwner{... */\n    tag_88:\n        /* \"LiquidERC20.sol\":3484:3489  owner */\n      0x0b\n      0x00\n      swap1\n      sload\n      swap1\n      0x0100\n      exp\n      swap1\n      div\n      0xffffffffffffffffffffffffffffffffffffffff\n      and\n        /* \"LiquidERC20.sol\":3472:3489  msg.sender==owner */\n      0xffffffffffffffffffffffffffffffffffffffff\n      and\n        /* \"LiquidERC20.sol\":3472:3482  msg.sender */\n      caller\n        /* \"LiquidERC20.sol\":3472:3489  msg.sender==owner */\n      0xffffffffffffffffffffffffffffffffffffffff\n      and\n      eq\n        /* \"LiquidERC20.sol\":3463:3490  require (msg.sender==owner) */\n      tag_200\n      jumpi\n      0x00\n      dup1\n      revert\n    tag_200:\n        /* \"LiquidERC20.sol\":2313:2325  _hookAddress */\n      dup1\n        /* \"LiquidERC20.sol\":2299:2310  hookAddress */\n      0x0a\n      0x00\n        /* \"LiquidERC20.sol\":2299:2325  hookAddress = _hookAddress */\n      0x0100\n      exp\n      dup2\n      sload\n      dup2\n      0xffffffffffffffffffffffffffffffffffffffff\n      mul\n      not\n      and\n      swap1\n      dup4\n      0xffffffffffffffffffffffffffffffffffffffff\n      and\n      mul\n      or\n      swap1\n      sstore\n      pop\n        /* \"LiquidERC20.sol\":2225:2332  function setHookAddress(address _hookAddress) external onlyOwner{... */\n      pop\n      jump\t// out\n        /* \"@openzeppelin/contracts/token/ERC20/ERC20.sol\":3408:3533  function balanceOf(address account) public view virtual override returns (uint256) {... */\n    tag_92:\n        /* \"@openzeppelin/contracts/token/ERC20/ERC20.sol\":3482:3489  uint256 */\n      0x00\n        /* \"@openzeppelin/contracts/token/ERC20/ERC20.sol\":3508:3517  _balances */\n      dup1\n        /* \"@openzeppelin/contracts/token/ERC20/ERC20.sol\":3508:3526  _balances[account] */\n      0x00\n        /* \"@openzeppelin/contracts/token/ERC20/ERC20.sol\":3518:3525  account */\n      dup4\n        /* \"@openzeppelin/contracts/token/ERC20/ERC20.sol\":3508:3526  _balances[account] */\n      0xffffffffffffffffffffffffffffffffffffffff\n      and\n      0xffffffffffffffffffffffffffffffffffffffff\n      and\n      dup2\n      mstore\n      0x20\n      add\n      swap1\n      dup2\n      mstore\n      0x20\n      add\n      0x00\n      keccak256\n      sload\n        /* \"@openzeppelin/contracts/token/ERC20/ERC20.sol\":3501:3526  return _balances[account] */\n      swap1\n      pop\n        /* \"@openzeppelin/contracts/token/ERC20/ERC20.sol\":3408:3533  function balanceOf(address account) public view virtual override returns (uint256) {... */\n      swap2\n      swap1\n      pop\n      jump\t// out\n        /* \"LiquidERC20.sol\":2080:2219  function setOracle(Oracle _oracle) public onlyOwner{... */\n    tag_98:\n        /* \"LiquidERC20.sol\":3484:3489  owner */\n      0x0b\n      0x00\n      swap1\n      sload\n      swap1\n      0x0100\n      exp\n      swap1\n      div\n      0xffffffffffffffffffffffffffffffffffffffff\n      and\n        /* \"LiquidERC20.sol\":3472:3489  msg.sender==owner */\n      0xffffffffffffffffffffffffffffffffffffffff\n      and\n        /* \"LiquidERC20.sol\":3472:3482  msg.sender */\n      caller\n        /* \"LiquidERC20.sol\":3472:3489  msg.sender==owner */\n      0xffffffffffffffffffffffffffffffffffffffff\n      and\n      eq\n        /* \"LiquidERC20.sol\":3463:3490  require (msg.sender==owner) */\n      tag_204\n      jumpi\n      0x00\n      dup1\n      revert\n    tag_204:\n        /* \"LiquidERC20.sol\":2150:2159  oracleSet */\n      0x11\n      0x14\n      swap1\n      sload\n      swap1\n      0x0100\n      exp\n      swap1\n      div\n      0xff\n      and\n        /* \"LiquidERC20.sol\":2149:2159  !oracleSet */\n      iszero\n        /* \"LiquidERC20.sol\":2141:2160  require(!oracleSet) */\n      tag_206\n      jumpi\n      0x00\n      dup1\n      revert\n    tag_206:\n        /* \"LiquidERC20.sol\":2179:2186  _oracle */\n      dup1\n        /* \"LiquidERC20.sol\":2170:2176  oracle */\n      0x12\n      0x00\n        /* \"LiquidERC20.sol\":2170:2186  oracle = _oracle */\n      0x0100\n      exp\n      dup2\n      sload\n      dup2\n      0xffffffffffffffffffffffffffffffffffffffff\n      mul\n      not\n      and\n      swap1\n      dup4\n      0xffffffffffffffffffffffffffffffffffffffff\n      and\n      mul\n      or\n      swap1\n      sstore\n      pop\n        /* \"LiquidERC20.sol\":2208:2212  true */\n      0x01\n        /* \"LiquidERC20.sol\":2196:2205  oracleSet */\n      0x11\n      0x14\n        /* \"LiquidERC20.sol\":2196:2212  oracleSet = true */\n      0x0100\n      exp\n      dup2\n      sload\n      dup2\n      0xff\n      mul\n      not\n      and\n      swap1\n      dup4\n      iszero\n      iszero\n      mul\n      or\n      swap1\n      sstore\n      pop\n        /* \"LiquidERC20.sol\":2080:2219  function setOracle(Oracle _oracle) public onlyOwner{... */\n      pop\n      jump\t// out\n        /* \"LiquidERC20.sol\":1935:1955  Oracle public oracle */\n    tag_101:\n      0x12\n      0x00\n      swap1\n      sload\n      swap1\n      0x0100\n      exp\n      swap1\n      div\n      0xffffffffffffffffffffffffffffffffffffffff\n      and\n      dup2\n      jump\t// out\n        /* \"LiquidERC20.sol\":1471:1491  address public owner */\n    tag_106:\n      0x0b\n      0x00\n      swap1\n      sload\n      swap1\n      0x0100\n      exp\n      swap1\n      div\n      0xffffffffffffffffffffffffffffffffffffffff\n      and\n      dup2\n      jump\t// out\n        /* \"@openzeppelin/contracts/token/ERC20/ERC20.sol\":2367:2469  function symbol() public view virtual override returns (string memory) {... */\n    tag_110:\n        /* \"@openzeppelin/contracts/token/ERC20/ERC20.sol\":2423:2436  string memory */\n      0x60\n        /* \"@openzeppelin/contracts/token/ERC20/ERC20.sol\":2455:2462  _symbol */\n      0x04\n        /* \"@openzeppelin/contracts/token/ERC20/ERC20.sol\":2448:2462  return _symbol */\n      dup1\n      sload\n      tag_208\n      swap1\n      tag_148\n      jump\t// in\n    tag_208:\n      dup1\n      0x1f\n      add\n      0x20\n      dup1\n      swap2\n      div\n      mul\n      0x20\n      add\n      mload(0x40)\n      swap1\n      dup2\n      add\n      0x40\n      mstore\n      dup1\n      swap3\n      swap2\n      swap1\n      dup2\n      dup2\n      mstore\n      0x20\n      add\n      dup3\n      dup1\n      sload\n      tag_209\n      swap1\n      tag_148\n      jump\t// in\n    tag_209:\n      dup1\n      iszero\n      tag_210\n      jumpi\n      dup1\n      0x1f\n      lt\n      tag_211\n      jumpi\n      0x0100\n      dup1\n      dup4\n      sload\n      div\n      mul\n      dup4\n      mstore\n      swap2\n      0x20\n      add\n      swap2\n      jump(tag_210)\n    tag_211:\n      dup3\n      add\n      swap2\n      swap1\n      0x00\n      mstore\n      keccak256(0x00, 0x20)\n      swap1\n    tag_212:\n      dup2\n      sload\n      dup2\n      mstore\n      swap1\n      0x01\n      add\n      swap1\n      0x20\n      add\n      dup1\n      dup4\n      gt\n      tag_212\n      jumpi\n      dup3\n      swap1\n      sub\n      0x1f\n      and\n      dup3\n      add\n      swap2\n    tag_210:\n      pop\n      pop\n      pop\n      pop\n      pop\n      swap1\n      pop\n        /* \"@openzeppelin/contracts/token/ERC20/ERC20.sol\":2367:2469  function symbol() public view virtual override returns (string memory) {... */\n      swap1\n      jump\t// out\n        /* \"LiquidERC20.sol\":2730:2858  function hookMint(uint _numberOfTokens, address _previousHolder) public {... */\n    tag_116:\n        /* \"LiquidERC20.sol\":2812:2851  _mint(_previousHolder, _numberOfTokens) */\n      tag_214\n        /* \"LiquidERC20.sol\":2818:2833  _previousHolder */\n      dup2\n        /* \"LiquidERC20.sol\":2835:2850  _numberOfTokens */\n      dup4\n        /* \"LiquidERC20.sol\":2812:2817  _mint */\n      tag_162\n        /* \"LiquidERC20.sol\":2812:2851  _mint(_previousHolder, _numberOfTokens) */\n      jump\t// in\n    tag_214:\n        /* \"LiquidERC20.sol\":2730:2858  function hookMint(uint _numberOfTokens, address _previousHolder) public {... */\n      pop\n      pop\n      jump\t// out\n        /* \"@openzeppelin/contracts/token/ERC20/ERC20.sol\":6594:7021  function decreaseAllowance(address spender, uint256 subtractedValue) public virtual returns (bool) {... */\n    tag_120:\n        /* \"@openzeppelin/contracts/token/ERC20/ERC20.sol\":6687:6691  bool */\n      0x00\n        /* \"@openzeppelin/contracts/token/ERC20/ERC20.sol\":6703:6716  address owner */\n      dup1\n        /* \"@openzeppelin/contracts/token/ERC20/ERC20.sol\":6719:6731  _msgSender() */\n      tag_216\n        /* \"@openzeppelin/contracts/token/ERC20/ERC20.sol\":6719:6729  _msgSender */\n      tag_155\n        /* \"@openzeppelin/contracts/token/ERC20/ERC20.sol\":6719:6731  _msgSender() */\n      jump\t// in\n    tag_216:\n        /* \"@openzeppelin/contracts/token/ERC20/ERC20.sol\":6703:6731  address owner = _msgSender() */\n      swap1\n      pop\n        /* \"@openzeppelin/contracts/token/ERC20/ERC20.sol\":6741:6765  uint256 currentAllowance */\n      0x00\n        /* \"@openzeppelin/contracts/token/ERC20/ERC20.sol\":6768:6793  allowance(owner, spender) */\n      tag_217\n        /* \"@openzeppelin/contracts/token/ERC20/ERC20.sol\":6778:6783  owner */\n      dup3\n        /* \"@openzeppelin/contracts/token/ERC20/ERC20.sol\":6785:6792  spender */\n      dup7\n        /* \"@openzeppelin/contracts/token/ERC20/ERC20.sol\":6768:6777  allowance */\n      tag_144\n        /* \"@openzeppelin/contracts/token/ERC20/ERC20.sol\":6768:6793  allowance(owner, spender) */\n      jump\t// in\n    tag_217:\n        /* \"@openzeppelin/contracts/token/ERC20/ERC20.sol\":6741:6793  uint256 currentAllowance = allowance(owner, spender) */\n      swap1\n      pop\n        /* \"@openzeppelin/contracts/token/ERC20/ERC20.sol\":6831:6846  subtractedValue */\n      dup4\n        /* \"@openzeppelin/contracts/token/ERC20/ERC20.sol\":6811:6827  currentAllowance */\n      dup2\n        /* \"@openzeppelin/contracts/token/ERC20/ERC20.sol\":6811:6846  currentAllowance >= subtractedValue */\n      lt\n      iszero\n        /* \"@openzeppelin/contracts/token/ERC20/ERC20.sol\":6803:6888  require(currentAllowance >= subtractedValue, \"ERC20: decreased allowance below zero\") */\n      tag_218\n      jumpi\n      mload(0x40)\n      0x08c379a000000000000000000000000000000000000000000000000000000000\n      dup2\n      mstore\n      0x04\n      add\n      tag_219\n      swap1\n      tag_220\n      jump\t// in\n    tag_219:\n      mload(0x40)\n      dup1\n      swap2\n      sub\n      swap1\n      revert\n    tag_218:\n        /* \"@openzeppelin/contracts/token/ERC20/ERC20.sol\":6922:6982  _approve(owner, spender, currentAllowance - subtractedValue) */\n      tag_221\n        /* \"@openzeppelin/contracts/token/ERC20/ERC20.sol\":6931:6936  owner */\n      dup3\n        /* \"@openzeppelin/contracts/token/ERC20/ERC20.sol\":6938:6945  spender */\n      dup7\n        /* \"@openzeppelin/contracts/token/ERC20/ERC20.sol\":6966:6981  subtractedValue */\n      dup7\n        /* \"@openzeppelin/contracts/token/ERC20/ERC20.sol\":6947:6963  currentAllowance */\n      dup5\n        /* \"@openzeppelin/contracts/token/ERC20/ERC20.sol\":6947:6981  currentAllowance - subtractedValue */\n      sub\n        /* \"@openzeppelin/contracts/token/ERC20/ERC20.sol\":6922:6930  _approve */\n      tag_157\n        /* \"@openzeppelin/contracts/token/ERC20/ERC20.sol\":6922:6982  _approve(owner, spender, currentAllowance - subtractedValue) */\n      jump\t// in\n    tag_221:\n        /* \"@openzeppelin/contracts/token/ERC20/ERC20.sol\":7010:7014  true */\n      0x01\n        /* \"@openzeppelin/contracts/token/ERC20/ERC20.sol\":7003:7014  return true */\n      swap3\n      pop\n      pop\n      pop\n        /* \"@openzeppelin/contracts/token/ERC20/ERC20.sol\":6594:7021  function decreaseAllowance(address spender, uint256 subtractedValue) public virtual returns (bool) {... */\n      swap3\n      swap2\n      pop\n      pop\n      jump\t// out\n        /* \"@openzeppelin/contracts/token/ERC20/ERC20.sol\":3729:3918  function transfer(address to, uint256 amount) public virtual override returns (bool) {... */\n    tag_125:\n        /* \"@openzeppelin/contracts/token/ERC20/ERC20.sol\":3808:3812  bool */\n      0x00\n        /* \"@openzeppelin/contracts/token/ERC20/ERC20.sol\":3824:3837  address owner */\n      dup1\n        /* \"@openzeppelin/contracts/token/ERC20/ERC20.sol\":3840:3852  _msgSender() */\n      tag_223\n        /* \"@openzeppelin/contracts/token/ERC20/ERC20.sol\":3840:3850  _msgSender */\n      tag_155\n        /* \"@openzeppelin/contracts/token/ERC20/ERC20.sol\":3840:3852  _msgSender() */\n      jump\t// in\n    tag_223:\n        /* \"@openzeppelin/contracts/token/ERC20/ERC20.sol\":3824:3852  address owner = _msgSender() */\n      swap1\n      pop\n        /* \"@openzeppelin/contracts/token/ERC20/ERC20.sol\":3862:3890  _transfer(owner, to, amount) */\n      tag_224\n        /* \"@openzeppelin/contracts/token/ERC20/ERC20.sol\":3872:3877  owner */\n      dup2\n        /* \"@openzeppelin/contracts/token/ERC20/ERC20.sol\":3879:3881  to */\n      dup6\n        /* \"@openzeppelin/contracts/token/ERC20/ERC20.sol\":3883:3889  amount */\n      dup6\n        /* \"@openzeppelin/contracts/token/ERC20/ERC20.sol\":3862:3871  _transfer */\n      tag_186\n        /* \"@openzeppelin/contracts/token/ERC20/ERC20.sol\":3862:3890  _transfer(owner, to, amount) */\n      jump\t// in\n    tag_224:\n        /* \"@openzeppelin/contracts/token/ERC20/ERC20.sol\":3907:3911  true */\n      0x01\n        /* \"@openzeppelin/contracts/token/ERC20/ERC20.sol\":3900:3911  return true */\n      swap2\n      pop\n      pop\n        /* \"@openzeppelin/contracts/token/ERC20/ERC20.sol\":3729:3918  function transfer(address to, uint256 amount) public virtual override returns (bool) {... */\n      swap3\n      swap2\n      pop\n      pop\n      jump\t// out\n        /* \"LiquidERC20.sol\":1538:1559  address[] public path */\n    tag_130:\n      0x0d\n      dup2\n      dup2\n      sload\n      dup2\n      lt\n      tag_225\n      jumpi\n      0x00\n      dup1\n      revert\n    tag_225:\n      swap1\n      0x00\n      mstore\n      keccak256(0x00, 0x20)\n      add\n      0x00\n      swap2\n      pop\n      sload\n      swap1\n      0x0100\n      exp\n      swap1\n      div\n      0xffffffffffffffffffffffffffffffffffffffff\n      and\n      dup2\n      jump\t// out\n        /* \"LiquidERC20.sol\":1607:1703  function getOracleAddress() public view returns (address){... */\n    tag_134:\n        /* \"LiquidERC20.sol\":1656:1663  address */\n      0x00\n        /* \"LiquidERC20.sol\":1689:1695  oracle */\n      0x12\n      0x00\n      swap1\n      sload\n      swap1\n      0x0100\n      exp\n      swap1\n      div\n      0xffffffffffffffffffffffffffffffffffffffff\n      and\n        /* \"LiquidERC20.sol\":1674:1696  return address(oracle) */\n      swap1\n      pop\n        /* \"LiquidERC20.sol\":1607:1703  function getOracleAddress() public view returns (address){... */\n      swap1\n      jump\t// out\n        /* \"LiquidERC20.sol\":1498:1531  address public uniswapPairAddress */\n    tag_138:\n      0x0c\n      0x00\n      swap1\n      sload\n      swap1\n      0x0100\n      exp\n      swap1\n      div\n      0xffffffffffffffffffffffffffffffffffffffff\n      and\n      dup2\n      jump\t// out\n        /* \"@openzeppelin/contracts/token/ERC20/ERC20.sol\":3976:4125  function allowance(address owner, address spender) public view virtual override returns (uint256) {... */\n    tag_144:\n        /* \"@openzeppelin/contracts/token/ERC20/ERC20.sol\":4065:4072  uint256 */\n      0x00\n        /* \"@openzeppelin/contracts/token/ERC20/ERC20.sol\":4091:4102  _allowances */\n      0x01\n        /* \"@openzeppelin/contracts/token/ERC20/ERC20.sol\":4091:4109  _allowances[owner] */\n      0x00\n        /* \"@openzeppelin/contracts/token/ERC20/ERC20.sol\":4103:4108  owner */\n      dup5\n        /* \"@openzeppelin/contracts/token/ERC20/ERC20.sol\":4091:4109  _allowances[owner] */\n      0xffffffffffffffffffffffffffffffffffffffff\n      and\n      0xffffffffffffffffffffffffffffffffffffffff\n      and\n      dup2\n      mstore\n      0x20\n      add\n      swap1\n      dup2\n      mstore\n      0x20\n      add\n      0x00\n      keccak256\n        /* \"@openzeppelin/contracts/token/ERC20/ERC20.sol\":4091:4118  _allowances[owner][spender] */\n      0x00\n        /* \"@openzeppelin/contracts/token/ERC20/ERC20.sol\":4110:4117  spender */\n      dup4\n        /* \"@openzeppelin/contracts/token/ERC20/ERC20.sol\":4091:4118  _allowances[owner][spender] */\n      0xffffffffffffffffffffffffffffffffffffffff\n      and\n      0xffffffffffffffffffffffffffffffffffffffff\n      and\n      dup2\n      mstore\n      0x20\n      add\n      swap1\n      dup2\n      mstore\n      0x20\n      add\n      0x00\n      keccak256\n      sload\n        /* \"@openzeppelin/contracts/token/ERC20/ERC20.sol\":4084:4118  return _allowances[owner][spender] */\n      swap1\n      pop\n        /* \"@openzeppelin/contracts/token/ERC20/ERC20.sol\":3976:4125  function allowance(address owner, address spender) public view virtual override returns (uint256) {... */\n      swap3\n      swap2\n      pop\n      pop\n      jump\t// out\n        /* \"@openzeppelin/contracts/utils/Context.sol\":640:736  function _msgSender() internal view virtual returns (address) {... */\n    tag_155:\n        /* \"@openzeppelin/contracts/utils/Context.sol\":693:700  address */\n      0x00\n        /* \"@openzeppelin/contracts/utils/Context.sol\":719:729  msg.sender */\n      caller\n        /* \"@openzeppelin/contracts/utils/Context.sol\":712:729  return msg.sender */\n      swap1\n      pop\n        /* \"@openzeppelin/contracts/utils/Context.sol\":640:736  function _msgSender() internal view virtual returns (address) {... */\n      swap1\n      jump\t// out\n        /* \"@openzeppelin/contracts/token/ERC20/ERC20.sol\":10110:10480  function _approve(... */\n    tag_157:\n        /* \"@openzeppelin/contracts/token/ERC20/ERC20.sol\":10258:10259  0 */\n      0x00\n        /* \"@openzeppelin/contracts/token/ERC20/ERC20.sol\":10241:10260  owner != address(0) */\n      0xffffffffffffffffffffffffffffffffffffffff\n      and\n        /* \"@openzeppelin/contracts/token/ERC20/ERC20.sol\":10241:10246  owner */\n      dup4\n        /* \"@openzeppelin/contracts/token/ERC20/ERC20.sol\":10241:10260  owner != address(0) */\n      0xffffffffffffffffffffffffffffffffffffffff\n      and\n      eq\n      iszero\n        /* \"@openzeppelin/contracts/token/ERC20/ERC20.sol\":10233:10301  require(owner != address(0), \"ERC20: approve from the zero address\") */\n      tag_231\n      jumpi\n      mload(0x40)\n      0x08c379a000000000000000000000000000000000000000000000000000000000\n      dup2\n      mstore\n      0x04\n      add\n      tag_232\n      swap1\n      tag_233\n      jump\t// in\n    tag_232:\n      mload(0x40)\n      dup1\n      swap2\n      sub\n      swap1\n      revert\n    tag_231:\n        /* \"@openzeppelin/contracts/token/ERC20/ERC20.sol\":10338:10339  0 */\n      0x00\n        /* \"@openzeppelin/contracts/token/ERC20/ERC20.sol\":10319:10340  spender != address(0) */\n      0xffffffffffffffffffffffffffffffffffffffff\n      and\n        /* \"@openzeppelin/contracts/token/ERC20/ERC20.sol\":10319:10326  spender */\n      dup3\n        /* \"@openzeppelin/contracts/token/ERC20/ERC20.sol\":10319:10340  spender != address(0) */\n      0xffffffffffffffffffffffffffffffffffffffff\n      and\n      eq\n      iszero\n        /* \"@openzeppelin/contracts/token/ERC20/ERC20.sol\":10311:10379  require(spender != address(0), \"ERC20: approve to the zero address\") */\n      tag_234\n      jumpi\n      mload(0x40)\n      0x08c379a000000000000000000000000000000000000000000000000000000000\n      dup2\n      mstore\n      0x04\n      add\n      tag_235\n      swap1\n      tag_236\n      jump\t// in\n    tag_235:\n      mload(0x40)\n      dup1\n      swap2\n      sub\n      swap1\n      revert\n    tag_234:\n        /* \"@openzeppelin/contracts/token/ERC20/ERC20.sol\":10420:10426  amount */\n      dup1\n        /* \"@openzeppelin/contracts/token/ERC20/ERC20.sol\":10390:10401  _allowances */\n      0x01\n        /* \"@openzeppelin/contracts/token/ERC20/ERC20.sol\":10390:10408  _allowances[owner] */\n      0x00\n        /* \"@openzeppelin/contracts/token/ERC20/ERC20.sol\":10402:10407  owner */\n      dup6\n        /* \"@openzeppelin/contracts/token/ERC20/ERC20.sol\":10390:10408  _allowances[owner] */\n      0xffffffffffffffffffffffffffffffffffffffff\n      and\n      0xffffffffffffffffffffffffffffffffffffffff\n      and\n      dup2\n      mstore\n      0x20\n      add\n      swap1\n      dup2\n      mstore\n      0x20\n      add\n      0x00\n      keccak256\n        /* \"@openzeppelin/contracts/token/ERC20/ERC20.sol\":10390:10417  _allowances[owner][spender] */\n      0x00\n        /* \"@openzeppelin/contracts/token/ERC20/ERC20.sol\":10409:10416  spender */\n      dup5\n        /* \"@openzeppelin/contracts/token/ERC20/ERC20.sol\":10390:10417  _allowances[owner][spender] */\n      0xffffffffffffffffffffffffffffffffffffffff\n      and\n      0xffffffffffffffffffffffffffffffffffffffff\n      and\n      dup2\n      mstore\n      0x20\n      add\n      swap1\n      dup2\n      mstore\n      0x20\n      add\n      0x00\n      keccak256\n        /* \"@openzeppelin/contracts/token/ERC20/ERC20.sol\":10390:10426  _allowances[owner][spender] = amount */\n      dup2\n      swap1\n      sstore\n      pop\n        /* \"@openzeppelin/contracts/token/ERC20/ERC20.sol\":10457:10464  spender */\n      dup2\n        /* \"@openzeppelin/contracts/token/ERC20/ERC20.sol\":10441:10473  Approval(owner, spender, amount) */\n      0xffffffffffffffffffffffffffffffffffffffff\n      and\n        /* \"@openzeppelin/contracts/token/ERC20/ERC20.sol\":10450:10455  owner */\n      dup4\n        /* \"@openzeppelin/contracts/token/ERC20/ERC20.sol\":10441:10473  Approval(owner, spender, amount) */\n      0xffffffffffffffffffffffffffffffffffffffff\n      and\n      0x8c5be1e5ebec7d5bd14f71427d1e84f3dd0314c0f7b2291e5b200ac8c7c3b925\n        /* \"@openzeppelin/contracts/token/ERC20/ERC20.sol\":10466:10472  amount */\n      dup4\n        /* \"@openzeppelin/contracts/token/ERC20/ERC20.sol\":10441:10473  Approval(owner, spender, amount) */\n      mload(0x40)\n      tag_237\n      swap2\n      swap1\n      tag_52\n      jump\t// in\n    tag_237:\n      mload(0x40)\n      dup1\n      swap2\n      sub\n      swap1\n      log3\n        /* \"@openzeppelin/contracts/token/ERC20/ERC20.sol\":10110:10480  function _approve(... */\n      pop\n      pop\n      pop\n      jump\t// out\n        /* \"@openzeppelin/contracts/token/ERC20/ERC20.sol\":8402:8791  function _mint(address account, uint256 amount) internal virtual {... */\n    tag_162:\n        /* \"@openzeppelin/contracts/token/ERC20/ERC20.sol\":8504:8505  0 */\n      0x00\n        /* \"@openzeppelin/contracts/token/ERC20/ERC20.sol\":8485:8506  account != address(0) */\n      0xffffffffffffffffffffffffffffffffffffffff\n      and\n        /* \"@openzeppelin/contracts/token/ERC20/ERC20.sol\":8485:8492  account */\n      dup3\n        /* \"@openzeppelin/contracts/token/ERC20/ERC20.sol\":8485:8506  account != address(0) */\n      0xffffffffffffffffffffffffffffffffffffffff\n      and\n      eq\n      iszero\n        /* \"@openzeppelin/contracts/token/ERC20/ERC20.sol\":8477:8542  require(account != address(0), \"ERC20: mint to the zero address\") */\n      tag_239\n      jumpi\n      mload(0x40)\n      0x08c379a000000000000000000000000000000000000000000000000000000000\n      dup2\n      mstore\n      0x04\n      add\n      tag_240\n      swap1\n      tag_241\n      jump\t// in\n    tag_240:\n      mload(0x40)\n      dup1\n      swap2\n      sub\n      swap1\n      revert\n    tag_239:\n        /* \"@openzeppelin/contracts/token/ERC20/ERC20.sol\":8553:8602  _beforeTokenTransfer(address(0), account, amount) */\n      tag_242\n        /* \"@openzeppelin/contracts/token/ERC20/ERC20.sol\":8582:8583  0 */\n      0x00\n        /* \"@openzeppelin/contracts/token/ERC20/ERC20.sol\":8586:8593  account */\n      dup4\n        /* \"@openzeppelin/contracts/token/ERC20/ERC20.sol\":8595:8601  amount */\n      dup4\n        /* \"@openzeppelin/contracts/token/ERC20/ERC20.sol\":8553:8573  _beforeTokenTransfer */\n      tag_243\n        /* \"@openzeppelin/contracts/token/ERC20/ERC20.sol\":8553:8602  _beforeTokenTransfer(address(0), account, amount) */\n      jump\t// in\n    tag_242:\n        /* \"@openzeppelin/contracts/token/ERC20/ERC20.sol\":8629:8635  amount */\n      dup1\n        /* \"@openzeppelin/contracts/token/ERC20/ERC20.sol\":8613:8625  _totalSupply */\n      0x02\n      0x00\n        /* \"@openzeppelin/contracts/token/ERC20/ERC20.sol\":8613:8635  _totalSupply += amount */\n      dup3\n      dup3\n      sload\n      tag_244\n      swap2\n      swap1\n      tag_195\n      jump\t// in\n    tag_244:\n      swap3\n      pop\n      pop\n      dup2\n      swap1\n      sstore\n      pop\n        /* \"@openzeppelin/contracts/token/ERC20/ERC20.sol\":8667:8673  amount */\n      dup1\n        /* \"@openzeppelin/contracts/token/ERC20/ERC20.sol\":8645:8654  _balances */\n      0x00\n        /* \"@openzeppelin/contracts/token/ERC20/ERC20.sol\":8645:8663  _balances[account] */\n      dup1\n        /* \"@openzeppelin/contracts/token/ERC20/ERC20.sol\":8655:8662  account */\n      dup5\n        /* \"@openzeppelin/contracts/token/ERC20/ERC20.sol\":8645:8663  _balances[account] */\n      0xffffffffffffffffffffffffffffffffffffffff\n      and\n      0xffffffffffffffffffffffffffffffffffffffff\n      and\n      dup2\n      mstore\n      0x20\n      add\n      swap1\n      dup2\n      mstore\n      0x20\n      add\n      0x00\n      keccak256\n      0x00\n        /* \"@openzeppelin/contracts/token/ERC20/ERC20.sol\":8645:8673  _balances[account] += amount */\n      dup3\n      dup3\n      sload\n      tag_245\n      swap2\n      swap1\n      tag_195\n      jump\t// in\n    tag_245:\n      swap3\n      pop\n      pop\n      dup2\n      swap1\n      sstore\n      pop\n        /* \"@openzeppelin/contracts/token/ERC20/ERC20.sol\":8709:8716  account */\n      dup2\n        /* \"@openzeppelin/contracts/token/ERC20/ERC20.sol\":8688:8725  Transfer(address(0), account, amount) */\n      0xffffffffffffffffffffffffffffffffffffffff\n      and\n        /* \"@openzeppelin/contracts/token/ERC20/ERC20.sol\":8705:8706  0 */\n      0x00\n        /* \"@openzeppelin/contracts/token/ERC20/ERC20.sol\":8688:8725  Transfer(address(0), account, amount) */\n      0xffffffffffffffffffffffffffffffffffffffff\n      and\n      0xddf252ad1be2c89b69c2b068fc378daa952ba7f163c4a11628f55a4df523b3ef\n        /* \"@openzeppelin/contracts/token/ERC20/ERC20.sol\":8718:8724  amount */\n      dup4\n        /* \"@openzeppelin/contracts/token/ERC20/ERC20.sol\":8688:8725  Transfer(address(0), account, amount) */\n      mload(0x40)\n      tag_246\n      swap2\n      swap1\n      tag_52\n      jump\t// in\n    tag_246:\n      mload(0x40)\n      dup1\n      swap2\n      sub\n      swap1\n      log3\n        /* \"@openzeppelin/contracts/token/ERC20/ERC20.sol\":8736:8784  _afterTokenTransfer(address(0), account, amount) */\n      tag_247\n        /* \"@openzeppelin/contracts/token/ERC20/ERC20.sol\":8764:8765  0 */\n      0x00\n        /* \"@openzeppelin/contracts/token/ERC20/ERC20.sol\":8768:8775  account */\n      dup4\n        /* \"@openzeppelin/contracts/token/ERC20/ERC20.sol\":8777:8783  amount */\n      dup4\n        /* \"@openzeppelin/contracts/token/ERC20/ERC20.sol\":8736:8755  _afterTokenTransfer */\n      tag_248\n        /* \"@openzeppelin/contracts/token/ERC20/ERC20.sol\":8736:8784  _afterTokenTransfer(address(0), account, amount) */\n      jump\t// in\n    tag_247:\n        /* \"@openzeppelin/contracts/token/ERC20/ERC20.sol\":8402:8791  function _mint(address account, uint256 amount) internal virtual {... */\n      pop\n      pop\n      jump\t// out\n        /* \"@openzeppelin/contracts/token/ERC20/ERC20.sol\":10761:11202  function _spendAllowance(... */\n    tag_184:\n        /* \"@openzeppelin/contracts/token/ERC20/ERC20.sol\":10891:10915  uint256 currentAllowance */\n      0x00\n        /* \"@openzeppelin/contracts/token/ERC20/ERC20.sol\":10918:10943  allowance(owner, spender) */\n      tag_250\n        /* \"@openzeppelin/contracts/token/ERC20/ERC20.sol\":10928:10933  owner */\n      dup5\n        /* \"@openzeppelin/contracts/token/ERC20/ERC20.sol\":10935:10942  spender */\n      dup5\n        /* \"@openzeppelin/contracts/token/ERC20/ERC20.sol\":10918:10927  allowance */\n      tag_144\n        /* \"@openzeppelin/contracts/token/ERC20/ERC20.sol\":10918:10943  allowance(owner, spender) */\n      jump\t// in\n    tag_250:\n        /* \"@openzeppelin/contracts/token/ERC20/ERC20.sol\":10891:10943  uint256 currentAllowance = allowance(owner, spender) */\n      swap1\n      pop\n        /* \"@openzeppelin/contracts/token/ERC20/ERC20.sol\":10977:10994  type(uint256).max */\n      0xffffffffffffffffffffffffffffffffffffffffffffffffffffffffffffffff\n        /* \"@openzeppelin/contracts/token/ERC20/ERC20.sol\":10957:10973  currentAllowance */\n      dup2\n        /* \"@openzeppelin/contracts/token/ERC20/ERC20.sol\":10957:10994  currentAllowance != type(uint256).max */\n      eq\n        /* \"@openzeppelin/contracts/token/ERC20/ERC20.sol\":10953:11196  if (currentAllowance != type(uint256).max) {... */\n      tag_251\n      jumpi\n        /* \"@openzeppelin/contracts/token/ERC20/ERC20.sol\":11038:11044  amount */\n      dup2\n        /* \"@openzeppelin/contracts/token/ERC20/ERC20.sol\":11018:11034  currentAllowance */\n      dup2\n        /* \"@openzeppelin/contracts/token/ERC20/ERC20.sol\":11018:11044  currentAllowance >= amount */\n      lt\n      iszero\n        /* \"@openzeppelin/contracts/token/ERC20/ERC20.sol\":11010:11078  require(currentAllowance >= amount, \"ERC20: insufficient allowance\") */\n      tag_252\n      jumpi\n      mload(0x40)\n      0x08c379a000000000000000000000000000000000000000000000000000000000\n      dup2\n      mstore\n      0x04\n      add\n      tag_253\n      swap1\n      tag_254\n      jump\t// in\n    tag_253:\n      mload(0x40)\n      dup1\n      swap2\n      sub\n      swap1\n      revert\n    tag_252:\n        /* \"@openzeppelin/contracts/token/ERC20/ERC20.sol\":11120:11171  _approve(owner, spender, currentAllowance - amount) */\n      tag_255\n        /* \"@openzeppelin/contracts/token/ERC20/ERC20.sol\":11129:11134  owner */\n      dup5\n        /* \"@openzeppelin/contracts/token/ERC20/ERC20.sol\":11136:11143  spender */\n      dup5\n        /* \"@openzeppelin/contracts/token/ERC20/ERC20.sol\":11164:11170  amount */\n      dup5\n        /* \"@openzeppelin/contracts/token/ERC20/ERC20.sol\":11145:11161  currentAllowance */\n      dup5\n        /* \"@openzeppelin/contracts/token/ERC20/ERC20.sol\":11145:11170  currentAllowance - amount */\n      sub\n        /* \"@openzeppelin/contracts/token/ERC20/ERC20.sol\":11120:11128  _approve */\n      tag_157\n        /* \"@openzeppelin/contracts/token/ERC20/ERC20.sol\":11120:11171  _approve(owner, spender, currentAllowance - amount) */\n      jump\t// in\n    tag_255:\n        /* \"@openzeppelin/contracts/token/ERC20/ERC20.sol\":10953:11196  if (currentAllowance != type(uint256).max) {... */\n    tag_251:\n        /* \"@openzeppelin/contracts/token/ERC20/ERC20.sol\":10881:11202  {... */\n      pop\n        /* \"@openzeppelin/contracts/token/ERC20/ERC20.sol\":10761:11202  function _spendAllowance(... */\n      pop\n      pop\n      pop\n      jump\t// out\n        /* \"@openzeppelin/contracts/token/ERC20/ERC20.sol\":7475:8126  function _transfer(... */\n    tag_186:\n        /* \"@openzeppelin/contracts/token/ERC20/ERC20.sol\":7617:7618  0 */\n      0x00\n        /* \"@openzeppelin/contracts/token/ERC20/ERC20.sol\":7601:7619  from != address(0) */\n      0xffffffffffffffffffffffffffffffffffffffff\n      and\n        /* \"@openzeppelin/contracts/token/ERC20/ERC20.sol\":7601:7605  from */\n      dup4\n        /* \"@openzeppelin/contracts/token/ERC20/ERC20.sol\":7601:7619  from != address(0) */\n      0xffffffffffffffffffffffffffffffffffffffff\n      and\n      eq\n      iszero\n        /* \"@openzeppelin/contracts/token/ERC20/ERC20.sol\":7593:7661  require(from != address(0), \"ERC20: transfer from the zero address\") */\n      tag_257\n      jumpi\n      mload(0x40)\n      0x08c379a000000000000000000000000000000000000000000000000000000000\n      dup2\n      mstore\n      0x04\n      add\n      tag_258\n      swap1\n      tag_259\n      jump\t// in\n    tag_258:\n      mload(0x40)\n      dup1\n      swap2\n      sub\n      swap1\n      revert\n    tag_257:\n        /* \"@openzeppelin/contracts/token/ERC20/ERC20.sol\":7693:7694  0 */\n      0x00\n        /* \"@openzeppelin/contracts/token/ERC20/ERC20.sol\":7679:7695  to != address(0) */\n      0xffffffffffffffffffffffffffffffffffffffff\n      and\n        /* \"@openzeppelin/contracts/token/ERC20/ERC20.sol\":7679:7681  to */\n      dup3\n        /* \"@openzeppelin/contracts/token/ERC20/ERC20.sol\":7679:7695  to != address(0) */\n      0xffffffffffffffffffffffffffffffffffffffff\n      and\n      eq\n      iszero\n        /* \"@openzeppelin/contracts/token/ERC20/ERC20.sol\":7671:7735  require(to != address(0), \"ERC20: transfer to the zero address\") */\n      tag_260\n      jumpi\n      mload(0x40)\n      0x08c379a000000000000000000000000000000000000000000000000000000000\n      dup2\n      mstore\n      0x04\n      add\n      tag_261\n      swap1\n      tag_262\n      jump\t// in\n    tag_261:\n      mload(0x40)\n      dup1\n      swap2\n      sub\n      swap1\n      revert\n    tag_260:\n        /* \"@openzeppelin/contracts/token/ERC20/ERC20.sol\":7746:7784  _beforeTokenTransfer(from, to, amount) */\n      tag_263\n        /* \"@openzeppelin/contracts/token/ERC20/ERC20.sol\":7767:7771  from */\n      dup4\n        /* \"@openzeppelin/contracts/token/ERC20/ERC20.sol\":7773:7775  to */\n      dup4\n        /* \"@openzeppelin/contracts/token/ERC20/ERC20.sol\":7777:7783  amount */\n      dup4\n        /* \"@openzeppelin/contracts/token/ERC20/ERC20.sol\":7746:7766  _beforeTokenTransfer */\n      tag_243\n        /* \"@openzeppelin/contracts/token/ERC20/ERC20.sol\":7746:7784  _beforeTokenTransfer(from, to, amount) */\n      jump\t// in\n    tag_263:\n        /* \"@openzeppelin/contracts/token/ERC20/ERC20.sol\":7795:7814  uint256 fromBalance */\n      0x00\n        /* \"@openzeppelin/contracts/token/ERC20/ERC20.sol\":7817:7826  _balances */\n      dup1\n        /* \"@openzeppelin/contracts/token/ERC20/ERC20.sol\":7817:7832  _balances[from] */\n      0x00\n        /* \"@openzeppelin/contracts/token/ERC20/ERC20.sol\":7827:7831  from */\n      dup6\n        /* \"@openzeppelin/contracts/token/ERC20/ERC20.sol\":7817:7832  _balances[from] */\n      0xffffffffffffffffffffffffffffffffffffffff\n      and\n      0xffffffffffffffffffffffffffffffffffffffff\n      and\n      dup2\n      mstore\n      0x20\n      add\n      swap1\n      dup2\n      mstore\n      0x20\n      add\n      0x00\n      keccak256\n      sload\n        /* \"@openzeppelin/contracts/token/ERC20/ERC20.sol\":7795:7832  uint256 fromBalance = _balances[from] */\n      swap1\n      pop\n        /* \"@openzeppelin/contracts/token/ERC20/ERC20.sol\":7865:7871  amount */\n      dup2\n        /* \"@openzeppelin/contracts/token/ERC20/ERC20.sol\":7850:7861  fromBalance */\n      dup2\n        /* \"@openzeppelin/contracts/token/ERC20/ERC20.sol\":7850:7871  fromBalance >= amount */\n      lt\n      iszero\n        /* \"@openzeppelin/contracts/token/ERC20/ERC20.sol\":7842:7914  require(fromBalance >= amount, \"ERC20: transfer amount exceeds balance\") */\n      tag_264\n      jumpi\n      mload(0x40)\n      0x08c379a000000000000000000000000000000000000000000000000000000000\n      dup2\n      mstore\n      0x04\n      add\n      tag_265\n      swap1\n      tag_266\n      jump\t// in\n    tag_265:\n      mload(0x40)\n      dup1\n      swap2\n      sub\n      swap1\n      revert\n    tag_264:\n        /* \"@openzeppelin/contracts/token/ERC20/ERC20.sol\":7980:7986  amount */\n      dup2\n        /* \"@openzeppelin/contracts/token/ERC20/ERC20.sol\":7966:7977  fromBalance */\n      dup2\n        /* \"@openzeppelin/contracts/token/ERC20/ERC20.sol\":7966:7986  fromBalance - amount */\n      sub\n        /* \"@openzeppelin/contracts/token/ERC20/ERC20.sol\":7948:7957  _balances */\n      0x00\n        /* \"@openzeppelin/contracts/token/ERC20/ERC20.sol\":7948:7963  _balances[from] */\n      dup1\n        /* \"@openzeppelin/contracts/token/ERC20/ERC20.sol\":7958:7962  from */\n      dup7\n        /* \"@openzeppelin/contracts/token/ERC20/ERC20.sol\":7948:7963  _balances[from] */\n      0xffffffffffffffffffffffffffffffffffffffff\n      and\n      0xffffffffffffffffffffffffffffffffffffffff\n      and\n      dup2\n      mstore\n      0x20\n      add\n      swap1\n      dup2\n      mstore\n      0x20\n      add\n      0x00\n      keccak256\n        /* \"@openzeppelin/contracts/token/ERC20/ERC20.sol\":7948:7986  _balances[from] = fromBalance - amount */\n      dup2\n      swap1\n      sstore\n      pop\n        /* \"@openzeppelin/contracts/token/ERC20/ERC20.sol\":8023:8029  amount */\n      dup2\n        /* \"@openzeppelin/contracts/token/ERC20/ERC20.sol\":8006:8015  _balances */\n      0x00\n        /* \"@openzeppelin/contracts/token/ERC20/ERC20.sol\":8006:8019  _balances[to] */\n      dup1\n        /* \"@openzeppelin/contracts/token/ERC20/ERC20.sol\":8016:8018  to */\n      dup6\n        /* \"@openzeppelin/contracts/token/ERC20/ERC20.sol\":8006:8019  _balances[to] */\n      0xffffffffffffffffffffffffffffffffffffffff\n      and\n      0xffffffffffffffffffffffffffffffffffffffff\n      and\n      dup2\n      mstore\n      0x20\n      add\n      swap1\n      dup2\n      mstore\n      0x20\n      add\n      0x00\n      keccak256\n      0x00\n        /* \"@openzeppelin/contracts/token/ERC20/ERC20.sol\":8006:8029  _balances[to] += amount */\n      dup3\n      dup3\n      sload\n      tag_267\n      swap2\n      swap1\n      tag_195\n      jump\t// in\n    tag_267:\n      swap3\n      pop\n      pop\n      dup2\n      swap1\n      sstore\n      pop\n        /* \"@openzeppelin/contracts/token/ERC20/ERC20.sol\":8060:8062  to */\n      dup3\n        /* \"@openzeppelin/contracts/token/ERC20/ERC20.sol\":8045:8071  Transfer(from, to, amount) */\n      0xffffffffffffffffffffffffffffffffffffffff\n      and\n        /* \"@openzeppelin/contracts/token/ERC20/ERC20.sol\":8054:8058  from */\n      dup5\n        /* \"@openzeppelin/contracts/token/ERC20/ERC20.sol\":8045:8071  Transfer(from, to, amount) */\n      0xffffffffffffffffffffffffffffffffffffffff\n      and\n      0xddf252ad1be2c89b69c2b068fc378daa952ba7f163c4a11628f55a4df523b3ef\n        /* \"@openzeppelin/contracts/token/ERC20/ERC20.sol\":8064:8070  amount */\n      dup5\n        /* \"@openzeppelin/contracts/token/ERC20/ERC20.sol\":8045:8071  Transfer(from, to, amount) */\n      mload(0x40)\n      tag_268\n      swap2\n      swap1\n      tag_52\n      jump\t// in\n    tag_268:\n      mload(0x40)\n      dup1\n      swap2\n      sub\n      swap1\n      log3\n        /* \"@openzeppelin/contracts/token/ERC20/ERC20.sol\":8082:8119  _afterTokenTransfer(from, to, amount) */\n      tag_269\n        /* \"@openzeppelin/contracts/token/ERC20/ERC20.sol\":8102:8106  from */\n      dup5\n        /* \"@openzeppelin/contracts/token/ERC20/ERC20.sol\":8108:8110  to */\n      dup5\n        /* \"@openzeppelin/contracts/token/ERC20/ERC20.sol\":8112:8118  amount */\n      dup5\n        /* \"@openzeppelin/contracts/token/ERC20/ERC20.sol\":8082:8101  _afterTokenTransfer */\n      tag_248\n        /* \"@openzeppelin/contracts/token/ERC20/ERC20.sol\":8082:8119  _afterTokenTransfer(from, to, amount) */\n      jump\t// in\n    tag_269:\n        /* \"@openzeppelin/contracts/token/ERC20/ERC20.sol\":7583:8126  {... */\n      pop\n        /* \"@openzeppelin/contracts/token/ERC20/ERC20.sol\":7475:8126  function _transfer(... */\n      pop\n      pop\n      pop\n      jump\t// out\n        /* \"@openzeppelin/contracts/token/ERC20/ERC20.sol\":9111:9687  function _burn(address account, uint256 amount) internal virtual {... */\n    tag_198:\n        /* \"@openzeppelin/contracts/token/ERC20/ERC20.sol\":9213:9214  0 */\n      0x00\n        /* \"@openzeppelin/contracts/token/ERC20/ERC20.sol\":9194:9215  account != address(0) */\n      0xffffffffffffffffffffffffffffffffffffffff\n      and\n        /* \"@openzeppelin/contracts/token/ERC20/ERC20.sol\":9194:9201  account */\n      dup3\n        /* \"@openzeppelin/contracts/token/ERC20/ERC20.sol\":9194:9215  account != address(0) */\n      0xffffffffffffffffffffffffffffffffffffffff\n      and\n      eq\n      iszero\n        /* \"@openzeppelin/contracts/token/ERC20/ERC20.sol\":9186:9253  require(account != address(0), \"ERC20: burn from the zero address\") */\n      tag_271\n      jumpi\n      mload(0x40)\n      0x08c379a000000000000000000000000000000000000000000000000000000000\n      dup2\n      mstore\n      0x04\n      add\n      tag_272\n      swap1\n      tag_273\n      jump\t// in\n    tag_272:\n      mload(0x40)\n      dup1\n      swap2\n      sub\n      swap1\n      revert\n    tag_271:\n        /* \"@openzeppelin/contracts/token/ERC20/ERC20.sol\":9264:9313  _beforeTokenTransfer(account, address(0), amount) */\n      tag_274\n        /* \"@openzeppelin/contracts/token/ERC20/ERC20.sol\":9285:9292  account */\n      dup3\n        /* \"@openzeppelin/contracts/token/ERC20/ERC20.sol\":9302:9303  0 */\n      0x00\n        /* \"@openzeppelin/contracts/token/ERC20/ERC20.sol\":9306:9312  amount */\n      dup4\n        /* \"@openzeppelin/contracts/token/ERC20/ERC20.sol\":9264:9284  _beforeTokenTransfer */\n      tag_243\n        /* \"@openzeppelin/contracts/token/ERC20/ERC20.sol\":9264:9313  _beforeTokenTransfer(account, address(0), amount) */\n      jump\t// in\n    tag_274:\n        /* \"@openzeppelin/contracts/token/ERC20/ERC20.sol\":9324:9346  uint256 accountBalance */\n      0x00\n        /* \"@openzeppelin/contracts/token/ERC20/ERC20.sol\":9349:9358  _balances */\n      dup1\n        /* \"@openzeppelin/contracts/token/ERC20/ERC20.sol\":9349:9367  _balances[account] */\n      0x00\n        /* \"@openzeppelin/contracts/token/ERC20/ERC20.sol\":9359:9366  account */\n      dup5\n        /* \"@openzeppelin/contracts/token/ERC20/ERC20.sol\":9349:9367  _balances[account] */\n      0xffffffffffffffffffffffffffffffffffffffff\n      and\n      0xffffffffffffffffffffffffffffffffffffffff\n      and\n      dup2\n      mstore\n      0x20\n      add\n      swap1\n      dup2\n      mstore\n      0x20\n      add\n      0x00\n      keccak256\n      sload\n        /* \"@openzeppelin/contracts/token/ERC20/ERC20.sol\":9324:9367  uint256 accountBalance = _balances[account] */\n      swap1\n      pop\n        /* \"@openzeppelin/contracts/token/ERC20/ERC20.sol\":9403:9409  amount */\n      dup2\n        /* \"@openzeppelin/contracts/token/ERC20/ERC20.sol\":9385:9399  accountBalance */\n      dup2\n        /* \"@openzeppelin/contracts/token/ERC20/ERC20.sol\":9385:9409  accountBalance >= amount */\n      lt\n      iszero\n        /* \"@openzeppelin/contracts/token/ERC20/ERC20.sol\":9377:9448  require(accountBalance >= amount, \"ERC20: burn amount exceeds balance\") */\n      tag_275\n      jumpi\n      mload(0x40)\n      0x08c379a000000000000000000000000000000000000000000000000000000000\n      dup2\n      mstore\n      0x04\n      add\n      tag_276\n      swap1\n      tag_277\n      jump\t// in\n    tag_276:\n      mload(0x40)\n      dup1\n      swap2\n      sub\n      swap1\n      revert\n    tag_275:\n        /* \"@openzeppelin/contracts/token/ERC20/ERC20.sol\":9520:9526  amount */\n      dup2\n        /* \"@openzeppelin/contracts/token/ERC20/ERC20.sol\":9503:9517  accountBalance */\n      dup2\n        /* \"@openzeppelin/contracts/token/ERC20/ERC20.sol\":9503:9526  accountBalance - amount */\n      sub\n        /* \"@openzeppelin/contracts/token/ERC20/ERC20.sol\":9482:9491  _balances */\n      0x00\n        /* \"@openzeppelin/contracts/token/ERC20/ERC20.sol\":9482:9500  _balances[account] */\n      dup1\n        /* \"@openzeppelin/contracts/token/ERC20/ERC20.sol\":9492:9499  account */\n      dup6\n        /* \"@openzeppelin/contracts/token/ERC20/ERC20.sol\":9482:9500  _balances[account] */\n      0xffffffffffffffffffffffffffffffffffffffff\n      and\n      0xffffffffffffffffffffffffffffffffffffffff\n      and\n      dup2\n      mstore\n      0x20\n      add\n      swap1\n      dup2\n      mstore\n      0x20\n      add\n      0x00\n      keccak256\n        /* \"@openzeppelin/contracts/token/ERC20/ERC20.sol\":9482:9526  _balances[account] = accountBalance - amount */\n      dup2\n      swap1\n      sstore\n      pop\n        /* \"@openzeppelin/contracts/token/ERC20/ERC20.sol\":9562:9568  amount */\n      dup2\n        /* \"@openzeppelin/contracts/token/ERC20/ERC20.sol\":9546:9558  _totalSupply */\n      0x02\n      0x00\n        /* \"@openzeppelin/contracts/token/ERC20/ERC20.sol\":9546:9568  _totalSupply -= amount */\n      dup3\n      dup3\n      sload\n      tag_278\n      swap2\n      swap1\n      tag_279\n      jump\t// in\n    tag_278:\n      swap3\n      pop\n      pop\n      dup2\n      swap1\n      sstore\n      pop\n        /* \"@openzeppelin/contracts/token/ERC20/ERC20.sol\":9610:9611  0 */\n      0x00\n        /* \"@openzeppelin/contracts/token/ERC20/ERC20.sol\":9584:9621  Transfer(account, address(0), amount) */\n      0xffffffffffffffffffffffffffffffffffffffff\n      and\n        /* \"@openzeppelin/contracts/token/ERC20/ERC20.sol\":9593:9600  account */\n      dup4\n        /* \"@openzeppelin/contracts/token/ERC20/ERC20.sol\":9584:9621  Transfer(account, address(0), amount) */\n      0xffffffffffffffffffffffffffffffffffffffff\n      and\n      0xddf252ad1be2c89b69c2b068fc378daa952ba7f163c4a11628f55a4df523b3ef\n        /* \"@openzeppelin/contracts/token/ERC20/ERC20.sol\":9614:9620  amount */\n      dup5\n        /* \"@openzeppelin/contracts/token/ERC20/ERC20.sol\":9584:9621  Transfer(account, address(0), amount) */\n      mload(0x40)\n      tag_280\n      swap2\n      swap1\n      tag_52\n      jump\t// in\n    tag_280:\n      mload(0x40)\n      dup1\n      swap2\n      sub\n      swap1\n      log3\n        /* \"@openzeppelin/contracts/token/ERC20/ERC20.sol\":9632:9680  _afterTokenTransfer(account, address(0), amount) */\n      tag_281\n        /* \"@openzeppelin/contracts/token/ERC20/ERC20.sol\":9652:9659  account */\n      dup4\n        /* \"@openzeppelin/contracts/token/ERC20/ERC20.sol\":9669:9670  0 */\n      0x00\n        /* \"@openzeppelin/contracts/token/ERC20/ERC20.sol\":9673:9679  amount */\n      dup5\n        /* \"@openzeppelin/contracts/token/ERC20/ERC20.sol\":9632:9651  _afterTokenTransfer */\n      tag_248\n        /* \"@openzeppelin/contracts/token/ERC20/ERC20.sol\":9632:9680  _afterTokenTransfer(account, address(0), amount) */\n      jump\t// in\n    tag_281:\n        /* \"@openzeppelin/contracts/token/ERC20/ERC20.sol\":9176:9687  {... */\n      pop\n        /* \"@openzeppelin/contracts/token/ERC20/ERC20.sol\":9111:9687  function _burn(address account, uint256 amount) internal virtual {... */\n      pop\n      pop\n      jump\t// out\n        /* \"@openzeppelin/contracts/token/ERC20/ERC20.sol\":11786:11907  function _beforeTokenTransfer(... */\n    tag_243:\n      pop\n      pop\n      pop\n      jump\t// out\n        /* \"LiquidERC20.sol\":2338:2637  function _afterTokenTransfer(... */\n    tag_248:\n        /* \"LiquidERC20.sol\":2491:2504  poolActivated */\n      0x12\n      0x14\n      swap1\n      sload\n      swap1\n      0x0100\n      exp\n      swap1\n      div\n      0xff\n      and\n        /* \"LiquidERC20.sol\":2487:2631  if (poolActivated){... */\n      iszero\n      tag_284\n      jumpi\n        /* \"LiquidERC20.sol\":2564:2570  oracle */\n      0x12\n      0x00\n      swap1\n      sload\n      swap1\n      0x0100\n      exp\n      swap1\n      div\n      0xffffffffffffffffffffffffffffffffffffffff\n      and\n        /* \"LiquidERC20.sol\":2564:2583  oracle.updatePrices */\n      0xffffffffffffffffffffffffffffffffffffffff\n      and\n      0x49dd1262\n        /* \"LiquidERC20.sol\":2564:2585  oracle.updatePrices() */\n      mload(0x40)\n      dup2\n      0xffffffff\n      and\n      0xe0\n      shl\n      dup2\n      mstore\n      0x04\n      add\n      0x00\n      mload(0x40)\n      dup1\n      dup4\n      sub\n      dup2\n      0x00\n      dup8\n      dup1\n      extcodesize\n      iszero\n      dup1\n      iszero\n      tag_285\n      jumpi\n      0x00\n      dup1\n      revert\n    tag_285:\n      pop\n      gas\n      call\n      iszero\n      dup1\n      iszero\n      tag_287\n      jumpi\n      returndatasize\n      0x00\n      dup1\n      returndatacopy\n      revert(0x00, returndatasize)\n    tag_287:\n      pop\n      pop\n      pop\n      pop\n        /* \"LiquidERC20.sol\":2595:2601  oracle */\n      0x12\n      0x00\n      swap1\n      sload\n      swap1\n      0x0100\n      exp\n      swap1\n      div\n      0xffffffffffffffffffffffffffffffffffffffff\n      and\n        /* \"LiquidERC20.sol\":2595:2618  oracle.updateQuantities */\n      0xffffffffffffffffffffffffffffffffffffffff\n      and\n      0xd36fc0ff\n        /* \"LiquidERC20.sol\":2595:2620  oracle.updateQuantities() */\n      mload(0x40)\n      dup2\n      0xffffffff\n      and\n      0xe0\n      shl\n      dup2\n      mstore\n      0x04\n      add\n      0x00\n      mload(0x40)\n      dup1\n      dup4\n      sub\n      dup2\n      0x00\n      dup8\n      dup1\n      extcodesize\n      iszero\n      dup1\n      iszero\n      tag_288\n      jumpi\n      0x00\n      dup1\n      revert\n    tag_288:\n      pop\n      gas\n      call\n      iszero\n      dup1\n      iszero\n      tag_290\n      jumpi\n      returndatasize\n      0x00\n      dup1\n      returndatacopy\n      revert(0x00, returndatasize)\n    tag_290:\n      pop\n      pop\n      pop\n      pop\n        /* \"LiquidERC20.sol\":2487:2631  if (poolActivated){... */\n    tag_284:\n        /* \"LiquidERC20.sol\":2338:2637  function _afterTokenTransfer(... */\n      pop\n      pop\n      pop\n      jump\t// out\n        /* \"#utility.yul\":7:146   */\n    tag_292:\n        /* \"#utility.yul\":53:58   */\n      0x00\n        /* \"#utility.yul\":91:97   */\n      dup2\n        /* \"#utility.yul\":78:98   */\n      calldataload\n        /* \"#utility.yul\":69:98   */\n      swap1\n      pop\n        /* \"#utility.yul\":107:140   */\n      tag_294\n        /* \"#utility.yul\":134:139   */\n      dup2\n        /* \"#utility.yul\":107:140   */\n      tag_295\n      jump\t// in\n    tag_294:\n        /* \"#utility.yul\":7:146   */\n      swap3\n      swap2\n      pop\n      pop\n      jump\t// out\n        /* \"#utility.yul\":152:295   */\n    tag_296:\n        /* \"#utility.yul\":209:214   */\n      0x00\n        /* \"#utility.yul\":240:246   */\n      dup2\n        /* \"#utility.yul\":234:247   */\n      mload\n        /* \"#utility.yul\":225:247   */\n      swap1\n      pop\n        /* \"#utility.yul\":256:289   */\n      tag_298\n        /* \"#utility.yul\":283:288   */\n      dup2\n        /* \"#utility.yul\":256:289   */\n      tag_295\n      jump\t// in\n    tag_298:\n        /* \"#utility.yul\":152:295   */\n      swap3\n      swap2\n      pop\n      pop\n      jump\t// out\n        /* \"#utility.yul\":301:470   */\n    tag_299:\n        /* \"#utility.yul\":362:367   */\n      0x00\n        /* \"#utility.yul\":400:406   */\n      dup2\n        /* \"#utility.yul\":387:407   */\n      calldataload\n        /* \"#utility.yul\":378:407   */\n      swap1\n      pop\n        /* \"#utility.yul\":416:464   */\n      tag_301\n        /* \"#utility.yul\":458:463   */\n      dup2\n        /* \"#utility.yul\":416:464   */\n      tag_302\n      jump\t// in\n    tag_301:\n        /* \"#utility.yul\":301:470   */\n      swap3\n      swap2\n      pop\n      pop\n      jump\t// out\n        /* \"#utility.yul\":476:615   */\n    tag_303:\n        /* \"#utility.yul\":522:527   */\n      0x00\n        /* \"#utility.yul\":560:566   */\n      dup2\n        /* \"#utility.yul\":547:567   */\n      calldataload\n        /* \"#utility.yul\":538:567   */\n      swap1\n      pop\n        /* \"#utility.yul\":576:609   */\n      tag_305\n        /* \"#utility.yul\":603:608   */\n      dup2\n        /* \"#utility.yul\":576:609   */\n      tag_306\n      jump\t// in\n    tag_305:\n        /* \"#utility.yul\":476:615   */\n      swap3\n      swap2\n      pop\n      pop\n      jump\t// out\n        /* \"#utility.yul\":621:764   */\n    tag_307:\n        /* \"#utility.yul\":678:683   */\n      0x00\n        /* \"#utility.yul\":709:715   */\n      dup2\n        /* \"#utility.yul\":703:716   */\n      mload\n        /* \"#utility.yul\":694:716   */\n      swap1\n      pop\n        /* \"#utility.yul\":725:758   */\n      tag_309\n        /* \"#utility.yul\":752:757   */\n      dup2\n        /* \"#utility.yul\":725:758   */\n      tag_306\n      jump\t// in\n    tag_309:\n        /* \"#utility.yul\":621:764   */\n      swap3\n      swap2\n      pop\n      pop\n      jump\t// out\n        /* \"#utility.yul\":770:1099   */\n    tag_46:\n        /* \"#utility.yul\":829:835   */\n      0x00\n        /* \"#utility.yul\":878:880   */\n      0x20\n        /* \"#utility.yul\":866:875   */\n      dup3\n        /* \"#utility.yul\":857:864   */\n      dup5\n        /* \"#utility.yul\":853:876   */\n      sub\n        /* \"#utility.yul\":849:881   */\n      slt\n        /* \"#utility.yul\":846:965   */\n      iszero\n      tag_311\n      jumpi\n        /* \"#utility.yul\":884:963   */\n      tag_312\n      tag_313\n      jump\t// in\n    tag_312:\n        /* \"#utility.yul\":846:965   */\n    tag_311:\n        /* \"#utility.yul\":1004:1005   */\n      0x00\n        /* \"#utility.yul\":1029:1082   */\n      tag_314\n        /* \"#utility.yul\":1074:1081   */\n      dup5\n        /* \"#utility.yul\":1065:1071   */\n      dup3\n        /* \"#utility.yul\":1054:1063   */\n      dup6\n        /* \"#utility.yul\":1050:1072   */\n      add\n        /* \"#utility.yul\":1029:1082   */\n      tag_292\n      jump\t// in\n    tag_314:\n        /* \"#utility.yul\":1019:1082   */\n      swap2\n      pop\n        /* \"#utility.yul\":975:1092   */\n      pop\n        /* \"#utility.yul\":770:1099   */\n      swap3\n      swap2\n      pop\n      pop\n      jump\t// out\n        /* \"#utility.yul\":1105:1456   */\n    tag_169:\n        /* \"#utility.yul\":1175:1181   */\n      0x00\n        /* \"#utility.yul\":1224:1226   */\n      0x20\n        /* \"#utility.yul\":1212:1221   */\n      dup3\n        /* \"#utility.yul\":1203:1210   */\n      dup5\n        /* \"#utility.yul\":1199:1222   */\n      sub\n        /* \"#utility.yul\":1195:1227   */\n      slt\n        /* \"#utility.yul\":1192:1311   */\n      iszero\n      tag_316\n      jumpi\n        /* \"#utility.yul\":1230:1309   */\n      tag_317\n      tag_313\n      jump\t// in\n    tag_317:\n        /* \"#utility.yul\":1192:1311   */\n    tag_316:\n        /* \"#utility.yul\":1350:1351   */\n      0x00\n        /* \"#utility.yul\":1375:1439   */\n      tag_318\n        /* \"#utility.yul\":1431:1438   */\n      dup5\n        /* \"#utility.yul\":1422:1428   */\n      dup3\n        /* \"#utility.yul\":1411:1420   */\n      dup6\n        /* \"#utility.yul\":1407:1429   */\n      add\n        /* \"#utility.yul\":1375:1439   */\n      tag_296\n      jump\t// in\n    tag_318:\n        /* \"#utility.yul\":1365:1439   */\n      swap2\n      pop\n        /* \"#utility.yul\":1321:1449   */\n      pop\n        /* \"#utility.yul\":1105:1456   */\n      swap3\n      swap2\n      pop\n      pop\n      jump\t// out\n        /* \"#utility.yul\":1462:1936   */\n    tag_143:\n        /* \"#utility.yul\":1530:1536   */\n      0x00\n        /* \"#utility.yul\":1538:1544   */\n      dup1\n        /* \"#utility.yul\":1587:1589   */\n      0x40\n        /* \"#utility.yul\":1575:1584   */\n      dup4\n        /* \"#utility.yul\":1566:1573   */\n      dup6\n        /* \"#utility.yul\":1562:1585   */\n      sub\n        /* \"#utility.yul\":1558:1590   */\n      slt\n        /* \"#utility.yul\":1555:1674   */\n      iszero\n      tag_320\n      jumpi\n        /* \"#utility.yul\":1593:1672   */\n      tag_321\n      tag_313\n      jump\t// in\n    tag_321:\n        /* \"#utility.yul\":1555:1674   */\n    tag_320:\n        /* \"#utility.yul\":1713:1714   */\n      0x00\n        /* \"#utility.yul\":1738:1791   */\n      tag_322\n        /* \"#utility.yul\":1783:1790   */\n      dup6\n        /* \"#utility.yul\":1774:1780   */\n      dup3\n        /* \"#utility.yul\":1763:1772   */\n      dup7\n        /* \"#utility.yul\":1759:1781   */\n      add\n        /* \"#utility.yul\":1738:1791   */\n      tag_292\n      jump\t// in\n    tag_322:\n        /* \"#utility.yul\":1728:1791   */\n      swap3\n      pop\n        /* \"#utility.yul\":1684:1801   */\n      pop\n        /* \"#utility.yul\":1840:1842   */\n      0x20\n        /* \"#utility.yul\":1866:1919   */\n      tag_323\n        /* \"#utility.yul\":1911:1918   */\n      dup6\n        /* \"#utility.yul\":1902:1908   */\n      dup3\n        /* \"#utility.yul\":1891:1900   */\n      dup7\n        /* \"#utility.yul\":1887:1909   */\n      add\n        /* \"#utility.yul\":1866:1919   */\n      tag_292\n      jump\t// in\n    tag_323:\n        /* \"#utility.yul\":1856:1919   */\n      swap2\n      pop\n        /* \"#utility.yul\":1811:1929   */\n      pop\n        /* \"#utility.yul\":1462:1936   */\n      swap3\n      pop\n      swap3\n      swap1\n      pop\n      jump\t// out\n        /* \"#utility.yul\":1942:2561   */\n    tag_56:\n        /* \"#utility.yul\":2019:2025   */\n      0x00\n        /* \"#utility.yul\":2027:2033   */\n      dup1\n        /* \"#utility.yul\":2035:2041   */\n      0x00\n        /* \"#utility.yul\":2084:2086   */\n      0x60\n        /* \"#utility.yul\":2072:2081   */\n      dup5\n        /* \"#utility.yul\":2063:2070   */\n      dup7\n        /* \"#utility.yul\":2059:2082   */\n      sub\n        /* \"#utility.yul\":2055:2087   */\n      slt\n        /* \"#utility.yul\":2052:2171   */\n      iszero\n      tag_325\n      jumpi\n        /* \"#utility.yul\":2090:2169   */\n      tag_326\n      tag_313\n      jump\t// in\n    tag_326:\n        /* \"#utility.yul\":2052:2171   */\n    tag_325:\n        /* \"#utility.yul\":2210:2211   */\n      0x00\n        /* \"#utility.yul\":2235:2288   */\n      tag_327\n        /* \"#utility.yul\":2280:2287   */\n      dup7\n        /* \"#utility.yul\":2271:2277   */\n      dup3\n        /* \"#utility.yul\":2260:2269   */\n      dup8\n        /* \"#utility.yul\":2256:2278   */\n      add\n        /* \"#utility.yul\":2235:2288   */\n      tag_292\n      jump\t// in\n    tag_327:\n        /* \"#utility.yul\":2225:2288   */\n      swap4\n      pop\n        /* \"#utility.yul\":2181:2298   */\n      pop\n        /* \"#utility.yul\":2337:2339   */\n      0x20\n        /* \"#utility.yul\":2363:2416   */\n      tag_328\n        /* \"#utility.yul\":2408:2415   */\n      dup7\n        /* \"#utility.yul\":2399:2405   */\n      dup3\n        /* \"#utility.yul\":2388:2397   */\n      dup8\n        /* \"#utility.yul\":2384:2406   */\n      add\n        /* \"#utility.yul\":2363:2416   */\n      tag_292\n      jump\t// in\n    tag_328:\n        /* \"#utility.yul\":2353:2416   */\n      swap3\n      pop\n        /* \"#utility.yul\":2308:2426   */\n      pop\n        /* \"#utility.yul\":2465:2467   */\n      0x40\n        /* \"#utility.yul\":2491:2544   */\n      tag_329\n        /* \"#utility.yul\":2536:2543   */\n      dup7\n        /* \"#utility.yul\":2527:2533   */\n      dup3\n        /* \"#utility.yul\":2516:2525   */\n      dup8\n        /* \"#utility.yul\":2512:2534   */\n      add\n        /* \"#utility.yul\":2491:2544   */\n      tag_303\n      jump\t// in\n    tag_329:\n        /* \"#utility.yul\":2481:2544   */\n      swap2\n      pop\n        /* \"#utility.yul\":2436:2554   */\n      pop\n        /* \"#utility.yul\":1942:2561   */\n      swap3\n      pop\n      swap3\n      pop\n      swap3\n      jump\t// out\n        /* \"#utility.yul\":2567:3041   */\n    tag_37:\n        /* \"#utility.yul\":2635:2641   */\n      0x00\n        /* \"#utility.yul\":2643:2649   */\n      dup1\n        /* \"#utility.yul\":2692:2694   */\n      0x40\n        /* \"#utility.yul\":2680:2689   */\n      dup4\n        /* \"#utility.yul\":2671:2678   */\n      dup6\n        /* \"#utility.yul\":2667:2690   */\n      sub\n        /* \"#utility.yul\":2663:2695   */\n      slt\n        /* \"#utility.yul\":2660:2779   */\n      iszero\n      tag_331\n      jumpi\n        /* \"#utility.yul\":2698:2777   */\n      tag_332\n      tag_313\n      jump\t// in\n    tag_332:\n        /* \"#utility.yul\":2660:2779   */\n    tag_331:\n        /* \"#utility.yul\":2818:2819   */\n      0x00\n        /* \"#utility.yul\":2843:2896   */\n      tag_333\n        /* \"#utility.yul\":2888:2895   */\n      dup6\n        /* \"#utility.yul\":2879:2885   */\n      dup3\n        /* \"#utility.yul\":2868:2877   */\n      dup7\n        /* \"#utility.yul\":2864:2886   */\n      add\n        /* \"#utility.yul\":2843:2896   */\n      tag_292\n      jump\t// in\n    tag_333:\n        /* \"#utility.yul\":2833:2896   */\n      swap3\n      pop\n        /* \"#utility.yul\":2789:2906   */\n      pop\n        /* \"#utility.yul\":2945:2947   */\n      0x20\n        /* \"#utility.yul\":2971:3024   */\n      tag_334\n        /* \"#utility.yul\":3016:3023   */\n      dup6\n        /* \"#utility.yul\":3007:3013   */\n      dup3\n        /* \"#utility.yul\":2996:3005   */\n      dup7\n        /* \"#utility.yul\":2992:3014   */\n      add\n        /* \"#utility.yul\":2971:3024   */\n      tag_303\n      jump\t// in\n    tag_334:\n        /* \"#utility.yul\":2961:3024   */\n      swap2\n      pop\n        /* \"#utility.yul\":2916:3034   */\n      pop\n        /* \"#utility.yul\":2567:3041   */\n      swap3\n      pop\n      swap3\n      swap1\n      pop\n      jump\t// out\n        /* \"#utility.yul\":3047:3406   */\n    tag_97:\n        /* \"#utility.yul\":3121:3127   */\n      0x00\n        /* \"#utility.yul\":3170:3172   */\n      0x20\n        /* \"#utility.yul\":3158:3167   */\n      dup3\n        /* \"#utility.yul\":3149:3156   */\n      dup5\n        /* \"#utility.yul\":3145:3168   */\n      sub\n        /* \"#utility.yul\":3141:3173   */\n      slt\n        /* \"#utility.yul\":3138:3257   */\n      iszero\n      tag_336\n      jumpi\n        /* \"#utility.yul\":3176:3255   */\n      tag_337\n      tag_313\n      jump\t// in\n    tag_337:\n        /* \"#utility.yul\":3138:3257   */\n    tag_336:\n        /* \"#utility.yul\":3296:3297   */\n      0x00\n        /* \"#utility.yul\":3321:3389   */\n      tag_338\n        /* \"#utility.yul\":3381:3388   */\n      dup5\n        /* \"#utility.yul\":3372:3378   */\n      dup3\n        /* \"#utility.yul\":3361:3370   */\n      dup6\n        /* \"#utility.yul\":3357:3379   */\n      add\n        /* \"#utility.yul\":3321:3389   */\n      tag_299\n      jump\t// in\n    tag_338:\n        /* \"#utility.yul\":3311:3389   */\n      swap2\n      pop\n        /* \"#utility.yul\":3267:3399   */\n      pop\n        /* \"#utility.yul\":3047:3406   */\n      swap3\n      swap2\n      pop\n      pop\n      jump\t// out\n        /* \"#utility.yul\":3412:3741   */\n    tag_62:\n        /* \"#utility.yul\":3471:3477   */\n      0x00\n        /* \"#utility.yul\":3520:3522   */\n      0x20\n        /* \"#utility.yul\":3508:3517   */\n      dup3\n        /* \"#utility.yul\":3499:3506   */\n      dup5\n        /* \"#utility.yul\":3495:3518   */\n      sub\n        /* \"#utility.yul\":3491:3523   */\n      slt\n        /* \"#utility.yul\":3488:3607   */\n      iszero\n      tag_340\n      jumpi\n        /* \"#utility.yul\":3526:3605   */\n      tag_341\n      tag_313\n      jump\t// in\n    tag_341:\n        /* \"#utility.yul\":3488:3607   */\n    tag_340:\n        /* \"#utility.yul\":3646:3647   */\n      0x00\n        /* \"#utility.yul\":3671:3724   */\n      tag_342\n        /* \"#utility.yul\":3716:3723   */\n      dup5\n        /* \"#utility.yul\":3707:3713   */\n      dup3\n        /* \"#utility.yul\":3696:3705   */\n      dup6\n        /* \"#utility.yul\":3692:3714   */\n      add\n        /* \"#utility.yul\":3671:3724   */\n      tag_303\n      jump\t// in\n    tag_342:\n        /* \"#utility.yul\":3661:3724   */\n      swap2\n      pop\n        /* \"#utility.yul\":3617:3734   */\n      pop\n        /* \"#utility.yul\":3412:3741   */\n      swap3\n      swap2\n      pop\n      pop\n      jump\t// out\n        /* \"#utility.yul\":3747:4221   */\n    tag_115:\n        /* \"#utility.yul\":3815:3821   */\n      0x00\n        /* \"#utility.yul\":3823:3829   */\n      dup1\n        /* \"#utility.yul\":3872:3874   */\n      0x40\n        /* \"#utility.yul\":3860:3869   */\n      dup4\n        /* \"#utility.yul\":3851:3858   */\n      dup6\n        /* \"#utility.yul\":3847:3870   */\n      sub\n        /* \"#utility.yul\":3843:3875   */\n      slt\n        /* \"#utility.yul\":3840:3959   */\n      iszero\n      tag_344\n      jumpi\n        /* \"#utility.yul\":3878:3957   */\n      tag_345\n      tag_313\n      jump\t// in\n    tag_345:\n        /* \"#utility.yul\":3840:3959   */\n    tag_344:\n        /* \"#utility.yul\":3998:3999   */\n      0x00\n        /* \"#utility.yul\":4023:4076   */\n      tag_346\n        /* \"#utility.yul\":4068:4075   */\n      dup6\n        /* \"#utility.yul\":4059:4065   */\n      dup3\n        /* \"#utility.yul\":4048:4057   */\n      dup7\n        /* \"#utility.yul\":4044:4066   */\n      add\n        /* \"#utility.yul\":4023:4076   */\n      tag_303\n      jump\t// in\n    tag_346:\n        /* \"#utility.yul\":4013:4076   */\n      swap3\n      pop\n        /* \"#utility.yul\":3969:4086   */\n      pop\n        /* \"#utility.yul\":4125:4127   */\n      0x20\n        /* \"#utility.yul\":4151:4204   */\n      tag_347\n        /* \"#utility.yul\":4196:4203   */\n      dup6\n        /* \"#utility.yul\":4187:4193   */\n      dup3\n        /* \"#utility.yul\":4176:4185   */\n      dup7\n        /* \"#utility.yul\":4172:4194   */\n      add\n        /* \"#utility.yul\":4151:4204   */\n      tag_292\n      jump\t// in\n    tag_347:\n        /* \"#utility.yul\":4141:4204   */\n      swap2\n      pop\n        /* \"#utility.yul\":4096:4214   */\n      pop\n        /* \"#utility.yul\":3747:4221   */\n      swap3\n      pop\n      swap3\n      swap1\n      pop\n      jump\t// out\n        /* \"#utility.yul\":4227:4890   */\n    tag_176:\n        /* \"#utility.yul\":4315:4321   */\n      0x00\n        /* \"#utility.yul\":4323:4329   */\n      dup1\n        /* \"#utility.yul\":4331:4337   */\n      0x00\n        /* \"#utility.yul\":4380:4382   */\n      0x60\n        /* \"#utility.yul\":4368:4377   */\n      dup5\n        /* \"#utility.yul\":4359:4366   */\n      dup7\n        /* \"#utility.yul\":4355:4378   */\n      sub\n        /* \"#utility.yul\":4351:4383   */\n      slt\n        /* \"#utility.yul\":4348:4467   */\n      iszero\n      tag_349\n      jumpi\n        /* \"#utility.yul\":4386:4465   */\n      tag_350\n      tag_313\n      jump\t// in\n    tag_350:\n        /* \"#utility.yul\":4348:4467   */\n    tag_349:\n        /* \"#utility.yul\":4506:4507   */\n      0x00\n        /* \"#utility.yul\":4531:4595   */\n      tag_351\n        /* \"#utility.yul\":4587:4594   */\n      dup7\n        /* \"#utility.yul\":4578:4584   */\n      dup3\n        /* \"#utility.yul\":4567:4576   */\n      dup8\n        /* \"#utility.yul\":4563:4585   */\n      add\n        /* \"#utility.yul\":4531:4595   */\n      tag_307\n      jump\t// in\n    tag_351:\n        /* \"#utility.yul\":4521:4595   */\n      swap4\n      pop\n        /* \"#utility.yul\":4477:4605   */\n      pop\n        /* \"#utility.yul\":4644:4646   */\n      0x20\n        /* \"#utility.yul\":4670:4734   */\n      tag_352\n        /* \"#utility.yul\":4726:4733   */\n      dup7\n        /* \"#utility.yul\":4717:4723   */\n      dup3\n        /* \"#utility.yul\":4706:4715   */\n      dup8\n        /* \"#utility.yul\":4702:4724   */\n      add\n        /* \"#utility.yul\":4670:4734   */\n      tag_307\n      jump\t// in\n    tag_352:\n        /* \"#utility.yul\":4660:4734   */\n      swap3\n      pop\n        /* \"#utility.yul\":4615:4744   */\n      pop\n        /* \"#utility.yul\":4783:4785   */\n      0x40\n        /* \"#utility.yul\":4809:4873   */\n      tag_353\n        /* \"#utility.yul\":4865:4872   */\n      dup7\n        /* \"#utility.yul\":4856:4862   */\n      dup3\n        /* \"#utility.yul\":4845:4854   */\n      dup8\n        /* \"#utility.yul\":4841:4863   */\n      add\n        /* \"#utility.yul\":4809:4873   */\n      tag_307\n      jump\t// in\n    tag_353:\n        /* \"#utility.yul\":4799:4873   */\n      swap2\n      pop\n        /* \"#utility.yul\":4754:4883   */\n      pop\n        /* \"#utility.yul\":4227:4890   */\n      swap3\n      pop\n      swap3\n      pop\n      swap3\n      jump\t// out\n        /* \"#utility.yul\":4896:5038   */\n    tag_354:\n        /* \"#utility.yul\":4999:5031   */\n      tag_356\n        /* \"#utility.yul\":5025:5030   */\n      dup2\n        /* \"#utility.yul\":4999:5031   */\n      tag_357\n      jump\t// in\n    tag_356:\n        /* \"#utility.yul\":4994:4997   */\n      dup3\n        /* \"#utility.yul\":4987:5032   */\n      mstore\n        /* \"#utility.yul\":4896:5038   */\n      pop\n      pop\n      jump\t// out\n        /* \"#utility.yul\":5044:5162   */\n    tag_358:\n        /* \"#utility.yul\":5131:5155   */\n      tag_360\n        /* \"#utility.yul\":5149:5154   */\n      dup2\n        /* \"#utility.yul\":5131:5155   */\n      tag_361\n      jump\t// in\n    tag_360:\n        /* \"#utility.yul\":5126:5129   */\n      dup3\n        /* \"#utility.yul\":5119:5156   */\n      mstore\n        /* \"#utility.yul\":5044:5162   */\n      pop\n      pop\n      jump\t// out\n        /* \"#utility.yul\":5168:5277   */\n    tag_362:\n        /* \"#utility.yul\":5249:5270   */\n      tag_364\n        /* \"#utility.yul\":5264:5269   */\n      dup2\n        /* \"#utility.yul\":5249:5270   */\n      tag_365\n      jump\t// in\n    tag_364:\n        /* \"#utility.yul\":5244:5247   */\n      dup3\n        /* \"#utility.yul\":5237:5271   */\n      mstore\n        /* \"#utility.yul\":5168:5277   */\n      pop\n      pop\n      jump\t// out\n        /* \"#utility.yul\":5283:5444   */\n    tag_366:\n        /* \"#utility.yul\":5385:5437   */\n      tag_368\n        /* \"#utility.yul\":5431:5436   */\n      dup2\n        /* \"#utility.yul\":5385:5437   */\n      tag_369\n      jump\t// in\n    tag_368:\n        /* \"#utility.yul\":5380:5383   */\n      dup3\n        /* \"#utility.yul\":5373:5438   */\n      mstore\n        /* \"#utility.yul\":5283:5444   */\n      pop\n      pop\n      jump\t// out\n        /* \"#utility.yul\":5450:5597   */\n    tag_370:\n        /* \"#utility.yul\":5545:5590   */\n      tag_372\n        /* \"#utility.yul\":5584:5589   */\n      dup2\n        /* \"#utility.yul\":5545:5590   */\n      tag_373\n      jump\t// in\n    tag_372:\n        /* \"#utility.yul\":5540:5543   */\n      dup3\n        /* \"#utility.yul\":5533:5591   */\n      mstore\n        /* \"#utility.yul\":5450:5597   */\n      pop\n      pop\n      jump\t// out\n        /* \"#utility.yul\":5603:5967   */\n    tag_374:\n        /* \"#utility.yul\":5691:5694   */\n      0x00\n        /* \"#utility.yul\":5719:5758   */\n      tag_376\n        /* \"#utility.yul\":5752:5757   */\n      dup3\n        /* \"#utility.yul\":5719:5758   */\n      tag_377\n      jump\t// in\n    tag_376:\n        /* \"#utility.yul\":5774:5845   */\n      tag_378\n        /* \"#utility.yul\":5838:5844   */\n      dup2\n        /* \"#utility.yul\":5833:5836   */\n      dup6\n        /* \"#utility.yul\":5774:5845   */\n      tag_379\n      jump\t// in\n    tag_378:\n        /* \"#utility.yul\":5767:5845   */\n      swap4\n      pop\n        /* \"#utility.yul\":5854:5906   */\n      tag_380\n        /* \"#utility.yul\":5899:5905   */\n      dup2\n        /* \"#utility.yul\":5894:5897   */\n      dup6\n        /* \"#utility.yul\":5887:5891   */\n      0x20\n        /* \"#utility.yul\":5880:5885   */\n      dup7\n        /* \"#utility.yul\":5876:5892   */\n      add\n        /* \"#utility.yul\":5854:5906   */\n      tag_381\n      jump\t// in\n    tag_380:\n        /* \"#utility.yul\":5931:5960   */\n      tag_382\n        /* \"#utility.yul\":5953:5959   */\n      dup2\n        /* \"#utility.yul\":5931:5960   */\n      tag_383\n      jump\t// in\n    tag_382:\n        /* \"#utility.yul\":5926:5929   */\n      dup5\n        /* \"#utility.yul\":5922:5961   */\n      add\n        /* \"#utility.yul\":5915:5961   */\n      swap2\n      pop\n        /* \"#utility.yul\":5695:5967   */\n      pop\n        /* \"#utility.yul\":5603:5967   */\n      swap3\n      swap2\n      pop\n      pop\n      jump\t// out\n        /* \"#utility.yul\":5973:6339   */\n    tag_384:\n        /* \"#utility.yul\":6115:6118   */\n      0x00\n        /* \"#utility.yul\":6136:6203   */\n      tag_386\n        /* \"#utility.yul\":6200:6202   */\n      0x23\n        /* \"#utility.yul\":6195:6198   */\n      dup4\n        /* \"#utility.yul\":6136:6203   */\n      tag_379\n      jump\t// in\n    tag_386:\n        /* \"#utility.yul\":6129:6203   */\n      swap2\n      pop\n        /* \"#utility.yul\":6212:6305   */\n      tag_387\n        /* \"#utility.yul\":6301:6304   */\n      dup3\n        /* \"#utility.yul\":6212:6305   */\n      tag_388\n      jump\t// in\n    tag_387:\n        /* \"#utility.yul\":6330:6332   */\n      0x40\n        /* \"#utility.yul\":6325:6328   */\n      dup3\n        /* \"#utility.yul\":6321:6333   */\n      add\n        /* \"#utility.yul\":6314:6333   */\n      swap1\n      pop\n        /* \"#utility.yul\":5973:6339   */\n      swap2\n      swap1\n      pop\n      jump\t// out\n        /* \"#utility.yul\":6345:6711   */\n    tag_389:\n        /* \"#utility.yul\":6487:6490   */\n      0x00\n        /* \"#utility.yul\":6508:6575   */\n      tag_391\n        /* \"#utility.yul\":6572:6574   */\n      0x22\n        /* \"#utility.yul\":6567:6570   */\n      dup4\n        /* \"#utility.yul\":6508:6575   */\n      tag_379\n      jump\t// in\n    tag_391:\n        /* \"#utility.yul\":6501:6575   */\n      swap2\n      pop\n        /* \"#utility.yul\":6584:6677   */\n      tag_392\n        /* \"#utility.yul\":6673:6676   */\n      dup3\n        /* \"#utility.yul\":6584:6677   */\n      tag_393\n      jump\t// in\n    tag_392:\n        /* \"#utility.yul\":6702:6704   */\n      0x40\n        /* \"#utility.yul\":6697:6700   */\n      dup3\n        /* \"#utility.yul\":6693:6705   */\n      add\n        /* \"#utility.yul\":6686:6705   */\n      swap1\n      pop\n        /* \"#utility.yul\":6345:6711   */\n      swap2\n      swap1\n      pop\n      jump\t// out\n        /* \"#utility.yul\":6717:7083   */\n    tag_394:\n        /* \"#utility.yul\":6859:6862   */\n      0x00\n        /* \"#utility.yul\":6880:6947   */\n      tag_396\n        /* \"#utility.yul\":6944:6946   */\n      0x22\n        /* \"#utility.yul\":6939:6942   */\n      dup4\n        /* \"#utility.yul\":6880:6947   */\n      tag_379\n      jump\t// in\n    tag_396:\n        /* \"#utility.yul\":6873:6947   */\n      swap2\n      pop\n        /* \"#utility.yul\":6956:7049   */\n      tag_397\n        /* \"#utility.yul\":7045:7048   */\n      dup3\n        /* \"#utility.yul\":6956:7049   */\n      tag_398\n      jump\t// in\n    tag_397:\n        /* \"#utility.yul\":7074:7076   */\n      0x40\n        /* \"#utility.yul\":7069:7072   */\n      dup3\n        /* \"#utility.yul\":7065:7077   */\n      add\n        /* \"#utility.yul\":7058:7077   */\n      swap1\n      pop\n        /* \"#utility.yul\":6717:7083   */\n      swap2\n      swap1\n      pop\n      jump\t// out\n        /* \"#utility.yul\":7089:7455   */\n    tag_399:\n        /* \"#utility.yul\":7231:7234   */\n      0x00\n        /* \"#utility.yul\":7252:7319   */\n      tag_401\n        /* \"#utility.yul\":7316:7318   */\n      0x1d\n        /* \"#utility.yul\":7311:7314   */\n      dup4\n        /* \"#utility.yul\":7252:7319   */\n      tag_379\n      jump\t// in\n    tag_401:\n        /* \"#utility.yul\":7245:7319   */\n      swap2\n      pop\n        /* \"#utility.yul\":7328:7421   */\n      tag_402\n        /* \"#utility.yul\":7417:7420   */\n      dup3\n        /* \"#utility.yul\":7328:7421   */\n      tag_403\n      jump\t// in\n    tag_402:\n        /* \"#utility.yul\":7446:7448   */\n      0x20\n        /* \"#utility.yul\":7441:7444   */\n      dup3\n        /* \"#utility.yul\":7437:7449   */\n      add\n        /* \"#utility.yul\":7430:7449   */\n      swap1\n      pop\n        /* \"#utility.yul\":7089:7455   */\n      swap2\n      swap1\n      pop\n      jump\t// out\n        /* \"#utility.yul\":7461:7827   */\n    tag_404:\n        /* \"#utility.yul\":7603:7606   */\n      0x00\n        /* \"#utility.yul\":7624:7691   */\n      tag_406\n        /* \"#utility.yul\":7688:7690   */\n      0x26\n        /* \"#utility.yul\":7683:7686   */\n      dup4\n        /* \"#utility.yul\":7624:7691   */\n      tag_379\n      jump\t// in\n    tag_406:\n        /* \"#utility.yul\":7617:7691   */\n      swap2\n      pop\n        /* \"#utility.yul\":7700:7793   */\n      tag_407\n        /* \"#utility.yul\":7789:7792   */\n      dup3\n        /* \"#utility.yul\":7700:7793   */\n      tag_408\n      jump\t// in\n    tag_407:\n        /* \"#utility.yul\":7818:7820   */\n      0x40\n        /* \"#utility.yul\":7813:7816   */\n      dup3\n        /* \"#utility.yul\":7809:7821   */\n      add\n        /* \"#utility.yul\":7802:7821   */\n      swap1\n      pop\n        /* \"#utility.yul\":7461:7827   */\n      swap2\n      swap1\n      pop\n      jump\t// out\n        /* \"#utility.yul\":7833:8199   */\n    tag_409:\n        /* \"#utility.yul\":7975:7978   */\n      0x00\n        /* \"#utility.yul\":7996:8063   */\n      tag_411\n        /* \"#utility.yul\":8060:8062   */\n      0x21\n        /* \"#utility.yul\":8055:8058   */\n      dup4\n        /* \"#utility.yul\":7996:8063   */\n      tag_379\n      jump\t// in\n    tag_411:\n        /* \"#utility.yul\":7989:8063   */\n      swap2\n      pop\n        /* \"#utility.yul\":8072:8165   */\n      tag_412\n        /* \"#utility.yul\":8161:8164   */\n      dup3\n        /* \"#utility.yul\":8072:8165   */\n      tag_413\n      jump\t// in\n    tag_412:\n        /* \"#utility.yul\":8190:8192   */\n      0x40\n        /* \"#utility.yul\":8185:8188   */\n      dup3\n        /* \"#utility.yul\":8181:8193   */\n      add\n        /* \"#utility.yul\":8174:8193   */\n      swap1\n      pop\n        /* \"#utility.yul\":7833:8199   */\n      swap2\n      swap1\n      pop\n      jump\t// out\n        /* \"#utility.yul\":8205:8571   */\n    tag_414:\n        /* \"#utility.yul\":8347:8350   */\n      0x00\n        /* \"#utility.yul\":8368:8435   */\n      tag_416\n        /* \"#utility.yul\":8432:8434   */\n      0x25\n        /* \"#utility.yul\":8427:8430   */\n      dup4\n        /* \"#utility.yul\":8368:8435   */\n      tag_379\n      jump\t// in\n    tag_416:\n        /* \"#utility.yul\":8361:8435   */\n      swap2\n      pop\n        /* \"#utility.yul\":8444:8537   */\n      tag_417\n        /* \"#utility.yul\":8533:8536   */\n      dup3\n        /* \"#utility.yul\":8444:8537   */\n      tag_418\n      jump\t// in\n    tag_417:\n        /* \"#utility.yul\":8562:8564   */\n      0x40\n        /* \"#utility.yul\":8557:8560   */\n      dup3\n        /* \"#utility.yul\":8553:8565   */\n      add\n        /* \"#utility.yul\":8546:8565   */\n      swap1\n      pop\n        /* \"#utility.yul\":8205:8571   */\n      swap2\n      swap1\n      pop\n      jump\t// out\n        /* \"#utility.yul\":8577:8943   */\n    tag_419:\n        /* \"#utility.yul\":8719:8722   */\n      0x00\n        /* \"#utility.yul\":8740:8807   */\n      tag_421\n        /* \"#utility.yul\":8804:8806   */\n      0x24\n        /* \"#utility.yul\":8799:8802   */\n      dup4\n        /* \"#utility.yul\":8740:8807   */\n      tag_379\n      jump\t// in\n    tag_421:\n        /* \"#utility.yul\":8733:8807   */\n      swap2\n      pop\n        /* \"#utility.yul\":8816:8909   */\n      tag_422\n        /* \"#utility.yul\":8905:8908   */\n      dup3\n        /* \"#utility.yul\":8816:8909   */\n      tag_423\n      jump\t// in\n    tag_422:\n        /* \"#utility.yul\":8934:8936   */\n      0x40\n        /* \"#utility.yul\":8929:8932   */\n      dup3\n        /* \"#utility.yul\":8925:8937   */\n      add\n        /* \"#utility.yul\":8918:8937   */\n      swap1\n      pop\n        /* \"#utility.yul\":8577:8943   */\n      swap2\n      swap1\n      pop\n      jump\t// out\n        /* \"#utility.yul\":8949:9315   */\n    tag_424:\n        /* \"#utility.yul\":9091:9094   */\n      0x00\n        /* \"#utility.yul\":9112:9179   */\n      tag_426\n        /* \"#utility.yul\":9176:9178   */\n      0x25\n        /* \"#utility.yul\":9171:9174   */\n      dup4\n        /* \"#utility.yul\":9112:9179   */\n      tag_379\n      jump\t// in\n    tag_426:\n        /* \"#utility.yul\":9105:9179   */\n      swap2\n      pop\n        /* \"#utility.yul\":9188:9281   */\n      tag_427\n        /* \"#utility.yul\":9277:9280   */\n      dup3\n        /* \"#utility.yul\":9188:9281   */\n      tag_428\n      jump\t// in\n    tag_427:\n        /* \"#utility.yul\":9306:9308   */\n      0x40\n        /* \"#utility.yul\":9301:9304   */\n      dup3\n        /* \"#utility.yul\":9297:9309   */\n      add\n        /* \"#utility.yul\":9290:9309   */\n      swap1\n      pop\n        /* \"#utility.yul\":8949:9315   */\n      swap2\n      swap1\n      pop\n      jump\t// out\n        /* \"#utility.yul\":9321:9687   */\n    tag_429:\n        /* \"#utility.yul\":9463:9466   */\n      0x00\n        /* \"#utility.yul\":9484:9551   */\n      tag_431\n        /* \"#utility.yul\":9548:9550   */\n      0x1f\n        /* \"#utility.yul\":9543:9546   */\n      dup4\n        /* \"#utility.yul\":9484:9551   */\n      tag_379\n      jump\t// in\n    tag_431:\n        /* \"#utility.yul\":9477:9551   */\n      swap2\n      pop\n        /* \"#utility.yul\":9560:9653   */\n      tag_432\n        /* \"#utility.yul\":9649:9652   */\n      dup3\n        /* \"#utility.yul\":9560:9653   */\n      tag_433\n      jump\t// in\n    tag_432:\n        /* \"#utility.yul\":9678:9680   */\n      0x20\n        /* \"#utility.yul\":9673:9676   */\n      dup3\n        /* \"#utility.yul\":9669:9681   */\n      add\n        /* \"#utility.yul\":9662:9681   */\n      swap1\n      pop\n        /* \"#utility.yul\":9321:9687   */\n      swap2\n      swap1\n      pop\n      jump\t// out\n        /* \"#utility.yul\":9693:9811   */\n    tag_434:\n        /* \"#utility.yul\":9780:9804   */\n      tag_436\n        /* \"#utility.yul\":9798:9803   */\n      dup2\n        /* \"#utility.yul\":9780:9804   */\n      tag_437\n      jump\t// in\n    tag_436:\n        /* \"#utility.yul\":9775:9778   */\n      dup3\n        /* \"#utility.yul\":9768:9805   */\n      mstore\n        /* \"#utility.yul\":9693:9811   */\n      pop\n      pop\n      jump\t// out\n        /* \"#utility.yul\":9817:9929   */\n    tag_438:\n        /* \"#utility.yul\":9900:9922   */\n      tag_440\n        /* \"#utility.yul\":9916:9921   */\n      dup2\n        /* \"#utility.yul\":9900:9922   */\n      tag_441\n      jump\t// in\n    tag_440:\n        /* \"#utility.yul\":9895:9898   */\n      dup3\n        /* \"#utility.yul\":9888:9923   */\n      mstore\n        /* \"#utility.yul\":9817:9929   */\n      pop\n      pop\n      jump\t// out\n        /* \"#utility.yul\":9935:10157   */\n    tag_75:\n        /* \"#utility.yul\":10028:10032   */\n      0x00\n        /* \"#utility.yul\":10066:10068   */\n      0x20\n        /* \"#utility.yul\":10055:10064   */\n      dup3\n        /* \"#utility.yul\":10051:10069   */\n      add\n        /* \"#utility.yul\":10043:10069   */\n      swap1\n      pop\n        /* \"#utility.yul\":10079:10150   */\n      tag_443\n        /* \"#utility.yul\":10147:10148   */\n      0x00\n        /* \"#utility.yul\":10136:10145   */\n      dup4\n        /* \"#utility.yul\":10132:10149   */\n      add\n        /* \"#utility.yul\":10123:10129   */\n      dup5\n        /* \"#utility.yul\":10079:10150   */\n      tag_358\n      jump\t// in\n    tag_443:\n        /* \"#utility.yul\":9935:10157   */\n      swap3\n      swap2\n      pop\n      pop\n      jump\t// out\n        /* \"#utility.yul\":10163:10417   */\n    tag_65:\n        /* \"#utility.yul\":10272:10276   */\n      0x00\n        /* \"#utility.yul\":10310:10312   */\n      0x20\n        /* \"#utility.yul\":10299:10308   */\n      dup3\n        /* \"#utility.yul\":10295:10313   */\n      add\n        /* \"#utility.yul\":10287:10313   */\n      swap1\n      pop\n        /* \"#utility.yul\":10323:10410   */\n      tag_445\n        /* \"#utility.yul\":10407:10408   */\n      0x00\n        /* \"#utility.yul\":10396:10405   */\n      dup4\n        /* \"#utility.yul\":10392:10409   */\n      add\n        /* \"#utility.yul\":10383:10389   */\n      dup5\n        /* \"#utility.yul\":10323:10410   */\n      tag_354\n      jump\t// in\n    tag_445:\n        /* \"#utility.yul\":10163:10417   */\n      swap3\n      swap2\n      pop\n      pop\n      jump\t// out\n        /* \"#utility.yul\":10423:10755   */\n    tag_164:\n        /* \"#utility.yul\":10544:10548   */\n      0x00\n        /* \"#utility.yul\":10582:10584   */\n      0x40\n        /* \"#utility.yul\":10571:10580   */\n      dup3\n        /* \"#utility.yul\":10567:10585   */\n      add\n        /* \"#utility.yul\":10559:10585   */\n      swap1\n      pop\n        /* \"#utility.yul\":10595:10666   */\n      tag_447\n        /* \"#utility.yul\":10663:10664   */\n      0x00\n        /* \"#utility.yul\":10652:10661   */\n      dup4\n        /* \"#utility.yul\":10648:10665   */\n      add\n        /* \"#utility.yul\":10639:10645   */\n      dup6\n        /* \"#utility.yul\":10595:10666   */\n      tag_358\n      jump\t// in\n    tag_447:\n        /* \"#utility.yul\":10676:10748   */\n      tag_448\n        /* \"#utility.yul\":10744:10746   */\n      0x20\n        /* \"#utility.yul\":10733:10742   */\n      dup4\n        /* \"#utility.yul\":10729:10747   */\n      add\n        /* \"#utility.yul\":10720:10726   */\n      dup5\n        /* \"#utility.yul\":10676:10748   */\n      tag_358\n      jump\t// in\n    tag_448:\n        /* \"#utility.yul\":10423:10755   */\n      swap4\n      swap3\n      pop\n      pop\n      pop\n      jump\t// out\n        /* \"#utility.yul\":10761:11568   */\n    tag_171:\n        /* \"#utility.yul\":11010:11014   */\n      0x00\n        /* \"#utility.yul\":11048:11051   */\n      0xc0\n        /* \"#utility.yul\":11037:11046   */\n      dup3\n        /* \"#utility.yul\":11033:11052   */\n      add\n        /* \"#utility.yul\":11025:11052   */\n      swap1\n      pop\n        /* \"#utility.yul\":11062:11133   */\n      tag_450\n        /* \"#utility.yul\":11130:11131   */\n      0x00\n        /* \"#utility.yul\":11119:11128   */\n      dup4\n        /* \"#utility.yul\":11115:11132   */\n      add\n        /* \"#utility.yul\":11106:11112   */\n      dup10\n        /* \"#utility.yul\":11062:11133   */\n      tag_358\n      jump\t// in\n    tag_450:\n        /* \"#utility.yul\":11143:11215   */\n      tag_451\n        /* \"#utility.yul\":11211:11213   */\n      0x20\n        /* \"#utility.yul\":11200:11209   */\n      dup4\n        /* \"#utility.yul\":11196:11214   */\n      add\n        /* \"#utility.yul\":11187:11193   */\n      dup9\n        /* \"#utility.yul\":11143:11215   */\n      tag_434\n      jump\t// in\n    tag_451:\n        /* \"#utility.yul\":11225:11305   */\n      tag_452\n        /* \"#utility.yul\":11301:11303   */\n      0x40\n        /* \"#utility.yul\":11290:11299   */\n      dup4\n        /* \"#utility.yul\":11286:11304   */\n      add\n        /* \"#utility.yul\":11277:11283   */\n      dup8\n        /* \"#utility.yul\":11225:11305   */\n      tag_370\n      jump\t// in\n    tag_452:\n        /* \"#utility.yul\":11315:11395   */\n      tag_453\n        /* \"#utility.yul\":11391:11393   */\n      0x60\n        /* \"#utility.yul\":11380:11389   */\n      dup4\n        /* \"#utility.yul\":11376:11394   */\n      add\n        /* \"#utility.yul\":11367:11373   */\n      dup7\n        /* \"#utility.yul\":11315:11395   */\n      tag_370\n      jump\t// in\n    tag_453:\n        /* \"#utility.yul\":11405:11478   */\n      tag_454\n        /* \"#utility.yul\":11473:11476   */\n      0x80\n        /* \"#utility.yul\":11462:11471   */\n      dup4\n        /* \"#utility.yul\":11458:11477   */\n      add\n        /* \"#utility.yul\":11449:11455   */\n      dup6\n        /* \"#utility.yul\":11405:11478   */\n      tag_358\n      jump\t// in\n    tag_454:\n        /* \"#utility.yul\":11488:11561   */\n      tag_455\n        /* \"#utility.yul\":11556:11559   */\n      0xa0\n        /* \"#utility.yul\":11545:11554   */\n      dup4\n        /* \"#utility.yul\":11541:11560   */\n      add\n        /* \"#utility.yul\":11532:11538   */\n      dup5\n        /* \"#utility.yul\":11488:11561   */\n      tag_434\n      jump\t// in\n    tag_455:\n        /* \"#utility.yul\":10761:11568   */\n      swap8\n      swap7\n      pop\n      pop\n      pop\n      pop\n      pop\n      pop\n      pop\n      jump\t// out\n        /* \"#utility.yul\":11574:11784   */\n    tag_40:\n        /* \"#utility.yul\":11661:11665   */\n      0x00\n        /* \"#utility.yul\":11699:11701   */\n      0x20\n        /* \"#utility.yul\":11688:11697   */\n      dup3\n        /* \"#utility.yul\":11684:11702   */\n      add\n        /* \"#utility.yul\":11676:11702   */\n      swap1\n      pop\n        /* \"#utility.yul\":11712:11777   */\n      tag_457\n        /* \"#utility.yul\":11774:11775   */\n      0x00\n        /* \"#utility.yul\":11763:11772   */\n      dup4\n        /* \"#utility.yul\":11759:11776   */\n      add\n        /* \"#utility.yul\":11750:11756   */\n      dup5\n        /* \"#utility.yul\":11712:11777   */\n      tag_362\n      jump\t// in\n    tag_457:\n        /* \"#utility.yul\":11574:11784   */\n      swap3\n      swap2\n      pop\n      pop\n      jump\t// out\n        /* \"#utility.yul\":11790:12042   */\n    tag_103:\n        /* \"#utility.yul\":11898:11902   */\n      0x00\n        /* \"#utility.yul\":11936:11938   */\n      0x20\n        /* \"#utility.yul\":11925:11934   */\n      dup3\n        /* \"#utility.yul\":11921:11939   */\n      add\n        /* \"#utility.yul\":11913:11939   */\n      swap1\n      pop\n        /* \"#utility.yul\":11949:12035   */\n      tag_459\n        /* \"#utility.yul\":12032:12033   */\n      0x00\n        /* \"#utility.yul\":12021:12030   */\n      dup4\n        /* \"#utility.yul\":12017:12034   */\n      add\n        /* \"#utility.yul\":12008:12014   */\n      dup5\n        /* \"#utility.yul\":11949:12035   */\n      tag_366\n      jump\t// in\n    tag_459:\n        /* \"#utility.yul\":11790:12042   */\n      swap3\n      swap2\n      pop\n      pop\n      jump\t// out\n        /* \"#utility.yul\":12048:12361   */\n    tag_33:\n        /* \"#utility.yul\":12161:12165   */\n      0x00\n        /* \"#utility.yul\":12199:12201   */\n      0x20\n        /* \"#utility.yul\":12188:12197   */\n      dup3\n        /* \"#utility.yul\":12184:12202   */\n      add\n        /* \"#utility.yul\":12176:12202   */\n      swap1\n      pop\n        /* \"#utility.yul\":12248:12257   */\n      dup2\n        /* \"#utility.yul\":12242:12246   */\n      dup2\n        /* \"#utility.yul\":12238:12258   */\n      sub\n        /* \"#utility.yul\":12234:12235   */\n      0x00\n        /* \"#utility.yul\":12223:12232   */\n      dup4\n        /* \"#utility.yul\":12219:12236   */\n      add\n        /* \"#utility.yul\":12212:12259   */\n      mstore\n        /* \"#utility.yul\":12276:12354   */\n      tag_461\n        /* \"#utility.yul\":12349:12353   */\n      dup2\n        /* \"#utility.yul\":12340:12346   */\n      dup5\n        /* \"#utility.yul\":12276:12354   */\n      tag_374\n      jump\t// in\n    tag_461:\n        /* \"#utility.yul\":12268:12354   */\n      swap1\n      pop\n        /* \"#utility.yul\":12048:12361   */\n      swap3\n      swap2\n      pop\n      pop\n      jump\t// out\n        /* \"#utility.yul\":12367:12786   */\n    tag_262:\n        /* \"#utility.yul\":12533:12537   */\n      0x00\n        /* \"#utility.yul\":12571:12573   */\n      0x20\n        /* \"#utility.yul\":12560:12569   */\n      dup3\n        /* \"#utility.yul\":12556:12574   */\n      add\n        /* \"#utility.yul\":12548:12574   */\n      swap1\n      pop\n        /* \"#utility.yul\":12620:12629   */\n      dup2\n        /* \"#utility.yul\":12614:12618   */\n      dup2\n        /* \"#utility.yul\":12610:12630   */\n      sub\n        /* \"#utility.yul\":12606:12607   */\n      0x00\n        /* \"#utility.yul\":12595:12604   */\n      dup4\n        /* \"#utility.yul\":12591:12608   */\n      add\n        /* \"#utility.yul\":12584:12631   */\n      mstore\n        /* \"#utility.yul\":12648:12779   */\n      tag_463\n        /* \"#utility.yul\":12774:12778   */\n      dup2\n        /* \"#utility.yul\":12648:12779   */\n      tag_384\n      jump\t// in\n    tag_463:\n        /* \"#utility.yul\":12640:12779   */\n      swap1\n      pop\n        /* \"#utility.yul\":12367:12786   */\n      swap2\n      swap1\n      pop\n      jump\t// out\n        /* \"#utility.yul\":12792:13211   */\n    tag_277:\n        /* \"#utility.yul\":12958:12962   */\n      0x00\n        /* \"#utility.yul\":12996:12998   */\n      0x20\n        /* \"#utility.yul\":12985:12994   */\n      dup3\n        /* \"#utility.yul\":12981:12999   */\n      add\n        /* \"#utility.yul\":12973:12999   */\n      swap1\n      pop\n        /* \"#utility.yul\":13045:13054   */\n      dup2\n        /* \"#utility.yul\":13039:13043   */\n      dup2\n        /* \"#utility.yul\":13035:13055   */\n      sub\n        /* \"#utility.yul\":13031:13032   */\n      0x00\n        /* \"#utility.yul\":13020:13029   */\n      dup4\n        /* \"#utility.yul\":13016:13033   */\n      add\n        /* \"#utility.yul\":13009:13056   */\n      mstore\n        /* \"#utility.yul\":13073:13204   */\n      tag_465\n        /* \"#utility.yul\":13199:13203   */\n      dup2\n        /* \"#utility.yul\":13073:13204   */\n      tag_389\n      jump\t// in\n    tag_465:\n        /* \"#utility.yul\":13065:13204   */\n      swap1\n      pop\n        /* \"#utility.yul\":12792:13211   */\n      swap2\n      swap1\n      pop\n      jump\t// out\n        /* \"#utility.yul\":13217:13636   */\n    tag_236:\n        /* \"#utility.yul\":13383:13387   */\n      0x00\n        /* \"#utility.yul\":13421:13423   */\n      0x20\n        /* \"#utility.yul\":13410:13419   */\n      dup3\n        /* \"#utility.yul\":13406:13424   */\n      add\n        /* \"#utility.yul\":13398:13424   */\n      swap1\n      pop\n        /* \"#utility.yul\":13470:13479   */\n      dup2\n        /* \"#utility.yul\":13464:13468   */\n      dup2\n        /* \"#utility.yul\":13460:13480   */\n      sub\n        /* \"#utility.yul\":13456:13457   */\n      0x00\n        /* \"#utility.yul\":13445:13454   */\n      dup4\n        /* \"#utility.yul\":13441:13458   */\n      add\n        /* \"#utility.yul\":13434:13481   */\n      mstore\n        /* \"#utility.yul\":13498:13629   */\n      tag_467\n        /* \"#utility.yul\":13624:13628   */\n      dup2\n        /* \"#utility.yul\":13498:13629   */\n      tag_394\n      jump\t// in\n    tag_467:\n        /* \"#utility.yul\":13490:13629   */\n      swap1\n      pop\n        /* \"#utility.yul\":13217:13636   */\n      swap2\n      swap1\n      pop\n      jump\t// out\n        /* \"#utility.yul\":13642:14061   */\n    tag_254:\n        /* \"#utility.yul\":13808:13812   */\n      0x00\n        /* \"#utility.yul\":13846:13848   */\n      0x20\n        /* \"#utility.yul\":13835:13844   */\n      dup3\n        /* \"#utility.yul\":13831:13849   */\n      add\n        /* \"#utility.yul\":13823:13849   */\n      swap1\n      pop\n        /* \"#utility.yul\":13895:13904   */\n      dup2\n        /* \"#utility.yul\":13889:13893   */\n      dup2\n        /* \"#utility.yul\":13885:13905   */\n      sub\n        /* \"#utility.yul\":13881:13882   */\n      0x00\n        /* \"#utility.yul\":13870:13879   */\n      dup4\n        /* \"#utility.yul\":13866:13883   */\n      add\n        /* \"#utility.yul\":13859:13906   */\n      mstore\n        /* \"#utility.yul\":13923:14054   */\n      tag_469\n        /* \"#utility.yul\":14049:14053   */\n      dup2\n        /* \"#utility.yul\":13923:14054   */\n      tag_399\n      jump\t// in\n    tag_469:\n        /* \"#utility.yul\":13915:14054   */\n      swap1\n      pop\n        /* \"#utility.yul\":13642:14061   */\n      swap2\n      swap1\n      pop\n      jump\t// out\n        /* \"#utility.yul\":14067:14486   */\n    tag_266:\n        /* \"#utility.yul\":14233:14237   */\n      0x00\n        /* \"#utility.yul\":14271:14273   */\n      0x20\n        /* \"#utility.yul\":14260:14269   */\n      dup3\n        /* \"#utility.yul\":14256:14274   */\n      add\n        /* \"#utility.yul\":14248:14274   */\n      swap1\n      pop\n        /* \"#utility.yul\":14320:14329   */\n      dup2\n        /* \"#utility.yul\":14314:14318   */\n      dup2\n        /* \"#utility.yul\":14310:14330   */\n      sub\n        /* \"#utility.yul\":14306:14307   */\n      0x00\n        /* \"#utility.yul\":14295:14304   */\n      dup4\n        /* \"#utility.yul\":14291:14308   */\n      add\n        /* \"#utility.yul\":14284:14331   */\n      mstore\n        /* \"#utility.yul\":14348:14479   */\n      tag_471\n        /* \"#utility.yul\":14474:14478   */\n      dup2\n        /* \"#utility.yul\":14348:14479   */\n      tag_404\n      jump\t// in\n    tag_471:\n        /* \"#utility.yul\":14340:14479   */\n      swap1\n      pop\n        /* \"#utility.yul\":14067:14486   */\n      swap2\n      swap1\n      pop\n      jump\t// out\n        /* \"#utility.yul\":14492:14911   */\n    tag_273:\n        /* \"#utility.yul\":14658:14662   */\n      0x00\n        /* \"#utility.yul\":14696:14698   */\n      0x20\n        /* \"#utility.yul\":14685:14694   */\n      dup3\n        /* \"#utility.yul\":14681:14699   */\n      add\n        /* \"#utility.yul\":14673:14699   */\n      swap1\n      pop\n        /* \"#utility.yul\":14745:14754   */\n      dup2\n        /* \"#utility.yul\":14739:14743   */\n      dup2\n        /* \"#utility.yul\":14735:14755   */\n      sub\n        /* \"#utility.yul\":14731:14732   */\n      0x00\n        /* \"#utility.yul\":14720:14729   */\n      dup4\n        /* \"#utility.yul\":14716:14733   */\n      add\n        /* \"#utility.yul\":14709:14756   */\n      mstore\n        /* \"#utility.yul\":14773:14904   */\n      tag_473\n        /* \"#utility.yul\":14899:14903   */\n      dup2\n        /* \"#utility.yul\":14773:14904   */\n      tag_409\n      jump\t// in\n    tag_473:\n        /* \"#utility.yul\":14765:14904   */\n      swap1\n      pop\n        /* \"#utility.yul\":14492:14911   */\n      swap2\n      swap1\n      pop\n      jump\t// out\n        /* \"#utility.yul\":14917:15336   */\n    tag_259:\n        /* \"#utility.yul\":15083:15087   */\n      0x00\n        /* \"#utility.yul\":15121:15123   */\n      0x20\n        /* \"#utility.yul\":15110:15119   */\n      dup3\n        /* \"#utility.yul\":15106:15124   */\n      add\n        /* \"#utility.yul\":15098:15124   */\n      swap1\n      pop\n        /* \"#utility.yul\":15170:15179   */\n      dup2\n        /* \"#utility.yul\":15164:15168   */\n      dup2\n        /* \"#utility.yul\":15160:15180   */\n      sub\n        /* \"#utility.yul\":15156:15157   */\n      0x00\n        /* \"#utility.yul\":15145:15154   */\n      dup4\n        /* \"#utility.yul\":15141:15158   */\n      add\n        /* \"#utility.yul\":15134:15181   */\n      mstore\n        /* \"#utility.yul\":15198:15329   */\n      tag_475\n        /* \"#utility.yul\":15324:15328   */\n      dup2\n        /* \"#utility.yul\":15198:15329   */\n      tag_414\n      jump\t// in\n    tag_475:\n        /* \"#utility.yul\":15190:15329   */\n      swap1\n      pop\n        /* \"#utility.yul\":14917:15336   */\n      swap2\n      swap1\n      pop\n      jump\t// out\n        /* \"#utility.yul\":15342:15761   */\n    tag_233:\n        /* \"#utility.yul\":15508:15512   */\n      0x00\n        /* \"#utility.yul\":15546:15548   */\n      0x20\n        /* \"#utility.yul\":15535:15544   */\n      dup3\n        /* \"#utility.yul\":15531:15549   */\n      add\n        /* \"#utility.yul\":15523:15549   */\n      swap1\n      pop\n        /* \"#utility.yul\":15595:15604   */\n      dup2\n        /* \"#utility.yul\":15589:15593   */\n      dup2\n        /* \"#utility.yul\":15585:15605   */\n      sub\n        /* \"#utility.yul\":15581:15582   */\n      0x00\n        /* \"#utility.yul\":15570:15579   */\n      dup4\n        /* \"#utility.yul\":15566:15583   */\n      add\n        /* \"#utility.yul\":15559:15606   */\n      mstore\n        /* \"#utility.yul\":15623:15754   */\n      tag_477\n        /* \"#utility.yul\":15749:15753   */\n      dup2\n        /* \"#utility.yul\":15623:15754   */\n      tag_419\n      jump\t// in\n    tag_477:\n        /* \"#utility.yul\":15615:15754   */\n      swap1\n      pop\n        /* \"#utility.yul\":15342:15761   */\n      swap2\n      swap1\n      pop\n      jump\t// out\n        /* \"#utility.yul\":15767:16186   */\n    tag_220:\n        /* \"#utility.yul\":15933:15937   */\n      0x00\n        /* \"#utility.yul\":15971:15973   */\n      0x20\n        /* \"#utility.yul\":15960:15969   */\n      dup3\n        /* \"#utility.yul\":15956:15974   */\n      add\n        /* \"#utility.yul\":15948:15974   */\n      swap1\n      pop\n        /* \"#utility.yul\":16020:16029   */\n      dup2\n        /* \"#utility.yul\":16014:16018   */\n      dup2\n        /* \"#utility.yul\":16010:16030   */\n      sub\n        /* \"#utility.yul\":16006:16007   */\n      0x00\n        /* \"#utility.yul\":15995:16004   */\n      dup4\n        /* \"#utility.yul\":15991:16008   */\n      add\n        /* \"#utility.yul\":15984:16031   */\n      mstore\n        /* \"#utility.yul\":16048:16179   */\n      tag_479\n        /* \"#utility.yul\":16174:16178   */\n      dup2\n        /* \"#utility.yul\":16048:16179   */\n      tag_424\n      jump\t// in\n    tag_479:\n        /* \"#utility.yul\":16040:16179   */\n      swap1\n      pop\n        /* \"#utility.yul\":15767:16186   */\n      swap2\n      swap1\n      pop\n      jump\t// out\n        /* \"#utility.yul\":16192:16611   */\n    tag_241:\n        /* \"#utility.yul\":16358:16362   */\n      0x00\n        /* \"#utility.yul\":16396:16398   */\n      0x20\n        /* \"#utility.yul\":16385:16394   */\n      dup3\n        /* \"#utility.yul\":16381:16399   */\n      add\n        /* \"#utility.yul\":16373:16399   */\n      swap1\n      pop\n        /* \"#utility.yul\":16445:16454   */\n      dup2\n        /* \"#utility.yul\":16439:16443   */\n      dup2\n        /* \"#utility.yul\":16435:16455   */\n      sub\n        /* \"#utility.yul\":16431:16432   */\n      0x00\n        /* \"#utility.yul\":16420:16429   */\n      dup4\n        /* \"#utility.yul\":16416:16433   */\n      add\n        /* \"#utility.yul\":16409:16456   */\n      mstore\n        /* \"#utility.yul\":16473:16604   */\n      tag_481\n        /* \"#utility.yul\":16599:16603   */\n      dup2\n        /* \"#utility.yul\":16473:16604   */\n      tag_429\n      jump\t// in\n    tag_481:\n        /* \"#utility.yul\":16465:16604   */\n      swap1\n      pop\n        /* \"#utility.yul\":16192:16611   */\n      swap2\n      swap1\n      pop\n      jump\t// out\n        /* \"#utility.yul\":16617:16839   */\n    tag_52:\n        /* \"#utility.yul\":16710:16714   */\n      0x00\n        /* \"#utility.yul\":16748:16750   */\n      0x20\n        /* \"#utility.yul\":16737:16746   */\n      dup3\n        /* \"#utility.yul\":16733:16751   */\n      add\n        /* \"#utility.yul\":16725:16751   */\n      swap1\n      pop\n        /* \"#utility.yul\":16761:16832   */\n      tag_483\n        /* \"#utility.yul\":16829:16830   */\n      0x00\n        /* \"#utility.yul\":16818:16827   */\n      dup4\n        /* \"#utility.yul\":16814:16831   */\n      add\n        /* \"#utility.yul\":16805:16811   */\n      dup5\n        /* \"#utility.yul\":16761:16832   */\n      tag_434\n      jump\t// in\n    tag_483:\n        /* \"#utility.yul\":16617:16839   */\n      swap3\n      swap2\n      pop\n      pop\n      jump\t// out\n        /* \"#utility.yul\":16845:17059   */\n    tag_70:\n        /* \"#utility.yul\":16934:16938   */\n      0x00\n        /* \"#utility.yul\":16972:16974   */\n      0x20\n        /* \"#utility.yul\":16961:16970   */\n      dup3\n        /* \"#utility.yul\":16957:16975   */\n      add\n        /* \"#utility.yul\":16949:16975   */\n      swap1\n      pop\n        /* \"#utility.yul\":16985:17052   */\n      tag_485\n        /* \"#utility.yul\":17049:17050   */\n      0x00\n        /* \"#utility.yul\":17038:17047   */\n      dup4\n        /* \"#utility.yul\":17034:17051   */\n      add\n        /* \"#utility.yul\":17025:17031   */\n      dup5\n        /* \"#utility.yul\":16985:17052   */\n      tag_438\n      jump\t// in\n    tag_485:\n        /* \"#utility.yul\":16845:17059   */\n      swap3\n      swap2\n      pop\n      pop\n      jump\t// out\n        /* \"#utility.yul\":17146:17245   */\n    tag_377:\n        /* \"#utility.yul\":17198:17204   */\n      0x00\n        /* \"#utility.yul\":17232:17237   */\n      dup2\n        /* \"#utility.yul\":17226:17238   */\n      mload\n        /* \"#utility.yul\":17216:17238   */\n      swap1\n      pop\n        /* \"#utility.yul\":17146:17245   */\n      swap2\n      swap1\n      pop\n      jump\t// out\n        /* \"#utility.yul\":17251:17420   */\n    tag_379:\n        /* \"#utility.yul\":17335:17346   */\n      0x00\n        /* \"#utility.yul\":17369:17375   */\n      dup3\n        /* \"#utility.yul\":17364:17367   */\n      dup3\n        /* \"#utility.yul\":17357:17376   */\n      mstore\n        /* \"#utility.yul\":17409:17413   */\n      0x20\n        /* \"#utility.yul\":17404:17407   */\n      dup3\n        /* \"#utility.yul\":17400:17414   */\n      add\n        /* \"#utility.yul\":17385:17414   */\n      swap1\n      pop\n        /* \"#utility.yul\":17251:17420   */\n      swap3\n      swap2\n      pop\n      pop\n      jump\t// out\n        /* \"#utility.yul\":17426:17731   */\n    tag_195:\n        /* \"#utility.yul\":17466:17469   */\n      0x00\n        /* \"#utility.yul\":17485:17505   */\n      tag_491\n        /* \"#utility.yul\":17503:17504   */\n      dup3\n        /* \"#utility.yul\":17485:17505   */\n      tag_437\n      jump\t// in\n    tag_491:\n        /* \"#utility.yul\":17480:17505   */\n      swap2\n      pop\n        /* \"#utility.yul\":17519:17539   */\n      tag_492\n        /* \"#utility.yul\":17537:17538   */\n      dup4\n        /* \"#utility.yul\":17519:17539   */\n      tag_437\n      jump\t// in\n    tag_492:\n        /* \"#utility.yul\":17514:17539   */\n      swap3\n      pop\n        /* \"#utility.yul\":17673:17674   */\n      dup3\n        /* \"#utility.yul\":17605:17671   */\n      0xffffffffffffffffffffffffffffffffffffffffffffffffffffffffffffffff\n        /* \"#utility.yul\":17601:17675   */\n      sub\n        /* \"#utility.yul\":17598:17599   */\n      dup3\n        /* \"#utility.yul\":17595:17676   */\n      gt\n        /* \"#utility.yul\":17592:17699   */\n      iszero\n      tag_493\n      jumpi\n        /* \"#utility.yul\":17679:17697   */\n      tag_494\n      tag_495\n      jump\t// in\n    tag_494:\n        /* \"#utility.yul\":17592:17699   */\n    tag_493:\n        /* \"#utility.yul\":17723:17724   */\n      dup3\n        /* \"#utility.yul\":17720:17721   */\n      dup3\n        /* \"#utility.yul\":17716:17725   */\n      add\n        /* \"#utility.yul\":17709:17725   */\n      swap1\n      pop\n        /* \"#utility.yul\":17426:17731   */\n      swap3\n      swap2\n      pop\n      pop\n      jump\t// out\n        /* \"#utility.yul\":17737:17928   */\n    tag_279:\n        /* \"#utility.yul\":17777:17781   */\n      0x00\n        /* \"#utility.yul\":17797:17817   */\n      tag_497\n        /* \"#utility.yul\":17815:17816   */\n      dup3\n        /* \"#utility.yul\":17797:17817   */\n      tag_437\n      jump\t// in\n    tag_497:\n        /* \"#utility.yul\":17792:17817   */\n      swap2\n      pop\n        /* \"#utility.yul\":17831:17851   */\n      tag_498\n        /* \"#utility.yul\":17849:17850   */\n      dup4\n        /* \"#utility.yul\":17831:17851   */\n      tag_437\n      jump\t// in\n    tag_498:\n        /* \"#utility.yul\":17826:17851   */\n      swap3\n      pop\n        /* \"#utility.yul\":17870:17871   */\n      dup3\n        /* \"#utility.yul\":17867:17868   */\n      dup3\n        /* \"#utility.yul\":17864:17872   */\n      lt\n        /* \"#utility.yul\":17861:17895   */\n      iszero\n      tag_499\n      jumpi\n        /* \"#utility.yul\":17875:17893   */\n      tag_500\n      tag_495\n      jump\t// in\n    tag_500:\n        /* \"#utility.yul\":17861:17895   */\n    tag_499:\n        /* \"#utility.yul\":17920:17921   */\n      dup3\n        /* \"#utility.yul\":17917:17918   */\n      dup3\n        /* \"#utility.yul\":17913:17922   */\n      sub\n        /* \"#utility.yul\":17905:17922   */\n      swap1\n      pop\n        /* \"#utility.yul\":17737:17928   */\n      swap3\n      swap2\n      pop\n      pop\n      jump\t// out\n        /* \"#utility.yul\":17934:18030   */\n    tag_361:\n        /* \"#utility.yul\":17971:17978   */\n      0x00\n        /* \"#utility.yul\":18000:18024   */\n      tag_502\n        /* \"#utility.yul\":18018:18023   */\n      dup3\n        /* \"#utility.yul\":18000:18024   */\n      tag_503\n      jump\t// in\n    tag_502:\n        /* \"#utility.yul\":17989:18024   */\n      swap1\n      pop\n        /* \"#utility.yul\":17934:18030   */\n      swap2\n      swap1\n      pop\n      jump\t// out\n        /* \"#utility.yul\":18036:18140   */\n    tag_357:\n        /* \"#utility.yul\":18081:18088   */\n      0x00\n        /* \"#utility.yul\":18110:18134   */\n      tag_505\n        /* \"#utility.yul\":18128:18133   */\n      dup3\n        /* \"#utility.yul\":18110:18134   */\n      tag_503\n      jump\t// in\n    tag_505:\n        /* \"#utility.yul\":18099:18134   */\n      swap1\n      pop\n        /* \"#utility.yul\":18036:18140   */\n      swap2\n      swap1\n      pop\n      jump\t// out\n        /* \"#utility.yul\":18146:18236   */\n    tag_365:\n        /* \"#utility.yul\":18180:18187   */\n      0x00\n        /* \"#utility.yul\":18223:18228   */\n      dup2\n        /* \"#utility.yul\":18216:18229   */\n      iszero\n        /* \"#utility.yul\":18209:18230   */\n      iszero\n        /* \"#utility.yul\":18198:18230   */\n      swap1\n      pop\n        /* \"#utility.yul\":18146:18236   */\n      swap2\n      swap1\n      pop\n      jump\t// out\n        /* \"#utility.yul\":18242:18353   */\n    tag_507:\n        /* \"#utility.yul\":18294:18301   */\n      0x00\n        /* \"#utility.yul\":18323:18347   */\n      tag_509\n        /* \"#utility.yul\":18341:18346   */\n      dup3\n        /* \"#utility.yul\":18323:18347   */\n      tag_361\n      jump\t// in\n    tag_509:\n        /* \"#utility.yul\":18312:18347   */\n      swap1\n      pop\n        /* \"#utility.yul\":18242:18353   */\n      swap2\n      swap1\n      pop\n      jump\t// out\n        /* \"#utility.yul\":18359:18485   */\n    tag_503:\n        /* \"#utility.yul\":18396:18403   */\n      0x00\n        /* \"#utility.yul\":18436:18478   */\n      0xffffffffffffffffffffffffffffffffffffffff\n        /* \"#utility.yul\":18429:18434   */\n      dup3\n        /* \"#utility.yul\":18425:18479   */\n      and\n        /* \"#utility.yul\":18414:18479   */\n      swap1\n      pop\n        /* \"#utility.yul\":18359:18485   */\n      swap2\n      swap1\n      pop\n      jump\t// out\n        /* \"#utility.yul\":18491:18568   */\n    tag_437:\n        /* \"#utility.yul\":18528:18535   */\n      0x00\n        /* \"#utility.yul\":18557:18562   */\n      dup2\n        /* \"#utility.yul\":18546:18562   */\n      swap1\n      pop\n        /* \"#utility.yul\":18491:18568   */\n      swap2\n      swap1\n      pop\n      jump\t// out\n        /* \"#utility.yul\":18574:18660   */\n    tag_441:\n        /* \"#utility.yul\":18609:18616   */\n      0x00\n        /* \"#utility.yul\":18649:18653   */\n      0xff\n        /* \"#utility.yul\":18642:18647   */\n      dup3\n        /* \"#utility.yul\":18638:18654   */\n      and\n        /* \"#utility.yul\":18627:18654   */\n      swap1\n      pop\n        /* \"#utility.yul\":18574:18660   */\n      swap2\n      swap1\n      pop\n      jump\t// out\n        /* \"#utility.yul\":18666:18807   */\n    tag_369:\n        /* \"#utility.yul\":18731:18740   */\n      0x00\n        /* \"#utility.yul\":18764:18801   */\n      tag_514\n        /* \"#utility.yul\":18795:18800   */\n      dup3\n        /* \"#utility.yul\":18764:18801   */\n      tag_515\n      jump\t// in\n    tag_514:\n        /* \"#utility.yul\":18751:18801   */\n      swap1\n      pop\n        /* \"#utility.yul\":18666:18807   */\n      swap2\n      swap1\n      pop\n      jump\t// out\n        /* \"#utility.yul\":18813:18934   */\n    tag_373:\n        /* \"#utility.yul\":18871:18880   */\n      0x00\n        /* \"#utility.yul\":18904:18928   */\n      tag_517\n        /* \"#utility.yul\":18922:18927   */\n      dup3\n        /* \"#utility.yul\":18904:18928   */\n      tag_437\n      jump\t// in\n    tag_517:\n        /* \"#utility.yul\":18891:18928   */\n      swap1\n      pop\n        /* \"#utility.yul\":18813:18934   */\n      swap2\n      swap1\n      pop\n      jump\t// out\n        /* \"#utility.yul\":18940:19066   */\n    tag_515:\n        /* \"#utility.yul\":18990:18999   */\n      0x00\n        /* \"#utility.yul\":19023:19060   */\n      tag_519\n        /* \"#utility.yul\":19054:19059   */\n      dup3\n        /* \"#utility.yul\":19023:19060   */\n      tag_520\n      jump\t// in\n    tag_519:\n        /* \"#utility.yul\":19010:19060   */\n      swap1\n      pop\n        /* \"#utility.yul\":18940:19066   */\n      swap2\n      swap1\n      pop\n      jump\t// out\n        /* \"#utility.yul\":19072:19185   */\n    tag_520:\n        /* \"#utility.yul\":19122:19131   */\n      0x00\n        /* \"#utility.yul\":19155:19179   */\n      tag_522\n        /* \"#utility.yul\":19173:19178   */\n      dup3\n        /* \"#utility.yul\":19155:19179   */\n      tag_503\n      jump\t// in\n    tag_522:\n        /* \"#utility.yul\":19142:19179   */\n      swap1\n      pop\n        /* \"#utility.yul\":19072:19185   */\n      swap2\n      swap1\n      pop\n      jump\t// out\n        /* \"#utility.yul\":19191:19498   */\n    tag_381:\n        /* \"#utility.yul\":19259:19260   */\n      0x00\n        /* \"#utility.yul\":19269:19382   */\n    tag_524:\n        /* \"#utility.yul\":19283:19289   */\n      dup4\n        /* \"#utility.yul\":19280:19281   */\n      dup2\n        /* \"#utility.yul\":19277:19290   */\n      lt\n        /* \"#utility.yul\":19269:19382   */\n      iszero\n      tag_526\n      jumpi\n        /* \"#utility.yul\":19368:19369   */\n      dup1\n        /* \"#utility.yul\":19363:19366   */\n      dup3\n        /* \"#utility.yul\":19359:19370   */\n      add\n        /* \"#utility.yul\":19353:19371   */\n      mload\n        /* \"#utility.yul\":19349:19350   */\n      dup2\n        /* \"#utility.yul\":19344:19347   */\n      dup5\n        /* \"#utility.yul\":19340:19351   */\n      add\n        /* \"#utility.yul\":19333:19372   */\n      mstore\n        /* \"#utility.yul\":19305:19307   */\n      0x20\n        /* \"#utility.yul\":19302:19303   */\n      dup2\n        /* \"#utility.yul\":19298:19308   */\n      add\n        /* \"#utility.yul\":19293:19308   */\n      swap1\n      pop\n        /* \"#utility.yul\":19269:19382   */\n      jump(tag_524)\n    tag_526:\n        /* \"#utility.yul\":19400:19406   */\n      dup4\n        /* \"#utility.yul\":19397:19398   */\n      dup2\n        /* \"#utility.yul\":19394:19407   */\n      gt\n        /* \"#utility.yul\":19391:19492   */\n      iszero\n      tag_527\n      jumpi\n        /* \"#utility.yul\":19480:19481   */\n      0x00\n        /* \"#utility.yul\":19471:19477   */\n      dup5\n        /* \"#utility.yul\":19466:19469   */\n      dup5\n        /* \"#utility.yul\":19462:19478   */\n      add\n        /* \"#utility.yul\":19455:19482   */\n      mstore\n        /* \"#utility.yul\":19391:19492   */\n    tag_527:\n        /* \"#utility.yul\":19240:19498   */\n      pop\n        /* \"#utility.yul\":19191:19498   */\n      pop\n      pop\n      pop\n      jump\t// out\n        /* \"#utility.yul\":19504:19824   */\n    tag_148:\n        /* \"#utility.yul\":19548:19554   */\n      0x00\n        /* \"#utility.yul\":19585:19586   */\n      0x02\n        /* \"#utility.yul\":19579:19583   */\n      dup3\n        /* \"#utility.yul\":19575:19587   */\n      div\n        /* \"#utility.yul\":19565:19587   */\n      swap1\n      pop\n        /* \"#utility.yul\":19632:19633   */\n      0x01\n        /* \"#utility.yul\":19626:19630   */\n      dup3\n        /* \"#utility.yul\":19622:19634   */\n      and\n        /* \"#utility.yul\":19653:19671   */\n      dup1\n        /* \"#utility.yul\":19643:19724   */\n      tag_529\n      jumpi\n        /* \"#utility.yul\":19709:19713   */\n      0x7f\n        /* \"#utility.yul\":19701:19707   */\n      dup3\n        /* \"#utility.yul\":19697:19714   */\n      and\n        /* \"#utility.yul\":19687:19714   */\n      swap2\n      pop\n        /* \"#utility.yul\":19643:19724   */\n    tag_529:\n        /* \"#utility.yul\":19771:19773   */\n      0x20\n        /* \"#utility.yul\":19763:19769   */\n      dup3\n        /* \"#utility.yul\":19760:19774   */\n      lt\n        /* \"#utility.yul\":19740:19758   */\n      dup2\n        /* \"#utility.yul\":19737:19775   */\n      eq\n        /* \"#utility.yul\":19734:19818   */\n      iszero\n      tag_530\n      jumpi\n        /* \"#utility.yul\":19790:19808   */\n      tag_531\n      tag_532\n      jump\t// in\n    tag_531:\n        /* \"#utility.yul\":19734:19818   */\n    tag_530:\n        /* \"#utility.yul\":19555:19824   */\n      pop\n        /* \"#utility.yul\":19504:19824   */\n      swap2\n      swap1\n      pop\n      jump\t// out\n        /* \"#utility.yul\":19830:20010   */\n    tag_495:\n        /* \"#utility.yul\":19878:19955   */\n      0x4e487b7100000000000000000000000000000000000000000000000000000000\n        /* \"#utility.yul\":19875:19876   */\n      0x00\n        /* \"#utility.yul\":19868:19956   */\n      mstore\n        /* \"#utility.yul\":19975:19979   */\n      0x11\n        /* \"#utility.yul\":19972:19973   */\n      0x04\n        /* \"#utility.yul\":19965:19980   */\n      mstore\n        /* \"#utility.yul\":19999:20003   */\n      0x24\n        /* \"#utility.yul\":19996:19997   */\n      0x00\n        /* \"#utility.yul\":19989:20004   */\n      revert\n        /* \"#utility.yul\":20016:20196   */\n    tag_532:\n        /* \"#utility.yul\":20064:20141   */\n      0x4e487b7100000000000000000000000000000000000000000000000000000000\n        /* \"#utility.yul\":20061:20062   */\n      0x00\n        /* \"#utility.yul\":20054:20142   */\n      mstore\n        /* \"#utility.yul\":20161:20165   */\n      0x22\n        /* \"#utility.yul\":20158:20159   */\n      0x04\n        /* \"#utility.yul\":20151:20166   */\n      mstore\n        /* \"#utility.yul\":20185:20189   */\n      0x24\n        /* \"#utility.yul\":20182:20183   */\n      0x00\n        /* \"#utility.yul\":20175:20190   */\n      revert\n        /* \"#utility.yul\":20325:20442   */\n    tag_313:\n        /* \"#utility.yul\":20434:20435   */\n      0x00\n        /* \"#utility.yul\":20431:20432   */\n      dup1\n        /* \"#utility.yul\":20424:20436   */\n      revert\n        /* \"#utility.yul\":20448:20550   */\n    tag_383:\n        /* \"#utility.yul\":20489:20495   */\n      0x00\n        /* \"#utility.yul\":20540:20542   */\n      0x1f\n        /* \"#utility.yul\":20536:20543   */\n      not\n        /* \"#utility.yul\":20531:20533   */\n      0x1f\n        /* \"#utility.yul\":20524:20529   */\n      dup4\n        /* \"#utility.yul\":20520:20534   */\n      add\n        /* \"#utility.yul\":20516:20544   */\n      and\n        /* \"#utility.yul\":20506:20544   */\n      swap1\n      pop\n        /* \"#utility.yul\":20448:20550   */\n      swap2\n      swap1\n      pop\n      jump\t// out\n        /* \"#utility.yul\":20556:20778   */\n    tag_388:\n        /* \"#utility.yul\":20696:20730   */\n      0x45524332303a207472616e7366657220746f20746865207a65726f2061646472\n        /* \"#utility.yul\":20692:20693   */\n      0x00\n        /* \"#utility.yul\":20684:20690   */\n      dup3\n        /* \"#utility.yul\":20680:20694   */\n      add\n        /* \"#utility.yul\":20673:20731   */\n      mstore\n        /* \"#utility.yul\":20765:20770   */\n      0x6573730000000000000000000000000000000000000000000000000000000000\n        /* \"#utility.yul\":20760:20762   */\n      0x20\n        /* \"#utility.yul\":20752:20758   */\n      dup3\n        /* \"#utility.yul\":20748:20763   */\n      add\n        /* \"#utility.yul\":20741:20771   */\n      mstore\n        /* \"#utility.yul\":20556:20778   */\n      pop\n      jump\t// out\n        /* \"#utility.yul\":20784:21005   */\n    tag_393:\n        /* \"#utility.yul\":20924:20958   */\n      0x45524332303a206275726e20616d6f756e7420657863656564732062616c616e\n        /* \"#utility.yul\":20920:20921   */\n      0x00\n        /* \"#utility.yul\":20912:20918   */\n      dup3\n        /* \"#utility.yul\":20908:20922   */\n      add\n        /* \"#utility.yul\":20901:20959   */\n      mstore\n        /* \"#utility.yul\":20993:20997   */\n      0x6365000000000000000000000000000000000000000000000000000000000000\n        /* \"#utility.yul\":20988:20990   */\n      0x20\n        /* \"#utility.yul\":20980:20986   */\n      dup3\n        /* \"#utility.yul\":20976:20991   */\n      add\n        /* \"#utility.yul\":20969:20998   */\n      mstore\n        /* \"#utility.yul\":20784:21005   */\n      pop\n      jump\t// out\n        /* \"#utility.yul\":21011:21232   */\n    tag_398:\n        /* \"#utility.yul\":21151:21185   */\n      0x45524332303a20617070726f766520746f20746865207a65726f206164647265\n        /* \"#utility.yul\":21147:21148   */\n      0x00\n        /* \"#utility.yul\":21139:21145   */\n      dup3\n        /* \"#utility.yul\":21135:21149   */\n      add\n        /* \"#utility.yul\":21128:21186   */\n      mstore\n        /* \"#utility.yul\":21220:21224   */\n      0x7373000000000000000000000000000000000000000000000000000000000000\n        /* \"#utility.yul\":21215:21217   */\n      0x20\n        /* \"#utility.yul\":21207:21213   */\n      dup3\n        /* \"#utility.yul\":21203:21218   */\n      add\n        /* \"#utility.yul\":21196:21225   */\n      mstore\n        /* \"#utility.yul\":21011:21232   */\n      pop\n      jump\t// out\n        /* \"#utility.yul\":21238:21417   */\n    tag_403:\n        /* \"#utility.yul\":21378:21409   */\n      0x45524332303a20696e73756666696369656e7420616c6c6f77616e6365000000\n        /* \"#utility.yul\":21374:21375   */\n      0x00\n        /* \"#utility.yul\":21366:21372   */\n      dup3\n        /* \"#utility.yul\":21362:21376   */\n      add\n        /* \"#utility.yul\":21355:21410   */\n      mstore\n        /* \"#utility.yul\":21238:21417   */\n      pop\n      jump\t// out\n        /* \"#utility.yul\":21423:21648   */\n    tag_408:\n        /* \"#utility.yul\":21563:21597   */\n      0x45524332303a207472616e7366657220616d6f756e7420657863656564732062\n        /* \"#utility.yul\":21559:21560   */\n      0x00\n        /* \"#utility.yul\":21551:21557   */\n      dup3\n        /* \"#utility.yul\":21547:21561   */\n      add\n        /* \"#utility.yul\":21540:21598   */\n      mstore\n        /* \"#utility.yul\":21632:21640   */\n      0x616c616e63650000000000000000000000000000000000000000000000000000\n        /* \"#utility.yul\":21627:21629   */\n      0x20\n        /* \"#utility.yul\":21619:21625   */\n      dup3\n        /* \"#utility.yul\":21615:21630   */\n      add\n        /* \"#utility.yul\":21608:21641   */\n      mstore\n        /* \"#utility.yul\":21423:21648   */\n      pop\n      jump\t// out\n        /* \"#utility.yul\":21654:21874   */\n    tag_413:\n        /* \"#utility.yul\":21794:21828   */\n      0x45524332303a206275726e2066726f6d20746865207a65726f20616464726573\n        /* \"#utility.yul\":21790:21791   */\n      0x00\n        /* \"#utility.yul\":21782:21788   */\n      dup3\n        /* \"#utility.yul\":21778:21792   */\n      add\n        /* \"#utility.yul\":21771:21829   */\n      mstore\n        /* \"#utility.yul\":21863:21866   */\n      0x7300000000000000000000000000000000000000000000000000000000000000\n        /* \"#utility.yul\":21858:21860   */\n      0x20\n        /* \"#utility.yul\":21850:21856   */\n      dup3\n        /* \"#utility.yul\":21846:21861   */\n      add\n        /* \"#utility.yul\":21839:21867   */\n      mstore\n        /* \"#utility.yul\":21654:21874   */\n      pop\n      jump\t// out\n        /* \"#utility.yul\":21880:22104   */\n    tag_418:\n        /* \"#utility.yul\":22020:22054   */\n      0x45524332303a207472616e736665722066726f6d20746865207a65726f206164\n        /* \"#utility.yul\":22016:22017   */\n      0x00\n        /* \"#utility.yul\":22008:22014   */\n      dup3\n        /* \"#utility.yul\":22004:22018   */\n      add\n        /* \"#utility.yul\":21997:22055   */\n      mstore\n        /* \"#utility.yul\":22089:22096   */\n      0x6472657373000000000000000000000000000000000000000000000000000000\n        /* \"#utility.yul\":22084:22086   */\n      0x20\n        /* \"#utility.yul\":22076:22082   */\n      dup3\n        /* \"#utility.yul\":22072:22087   */\n      add\n        /* \"#utility.yul\":22065:22097   */\n      mstore\n        /* \"#utility.yul\":21880:22104   */\n      pop\n      jump\t// out\n        /* \"#utility.yul\":22110:22333   */\n    tag_423:\n        /* \"#utility.yul\":22250:22284   */\n      0x45524332303a20617070726f76652066726f6d20746865207a65726f20616464\n        /* \"#utility.yul\":22246:22247   */\n      0x00\n        /* \"#utility.yul\":22238:22244   */\n      dup3\n        /* \"#utility.yul\":22234:22248   */\n      add\n        /* \"#utility.yul\":22227:22285   */\n      mstore\n        /* \"#utility.yul\":22319:22325   */\n      0x7265737300000000000000000000000000000000000000000000000000000000\n        /* \"#utility.yul\":22314:22316   */\n      0x20\n        /* \"#utility.yul\":22306:22312   */\n      dup3\n        /* \"#utility.yul\":22302:22317   */\n      add\n        /* \"#utility.yul\":22295:22326   */\n      mstore\n        /* \"#utility.yul\":22110:22333   */\n      pop\n      jump\t// out\n        /* \"#utility.yul\":22339:22563   */\n    tag_428:\n        /* \"#utility.yul\":22479:22513   */\n      0x45524332303a2064656372656173656420616c6c6f77616e63652062656c6f77\n        /* \"#utility.yul\":22475:22476   */\n      0x00\n        /* \"#utility.yul\":22467:22473   */\n      dup3\n        /* \"#utility.yul\":22463:22477   */\n      add\n        /* \"#utility.yul\":22456:22514   */\n      mstore\n        /* \"#utility.yul\":22548:22555   */\n      0x207a65726f000000000000000000000000000000000000000000000000000000\n        /* \"#utility.yul\":22543:22545   */\n      0x20\n        /* \"#utility.yul\":22535:22541   */\n      dup3\n        /* \"#utility.yul\":22531:22546   */\n      add\n        /* \"#utility.yul\":22524:22556   */\n      mstore\n        /* \"#utility.yul\":22339:22563   */\n      pop\n      jump\t// out\n        /* \"#utility.yul\":22569:22750   */\n    tag_433:\n        /* \"#utility.yul\":22709:22742   */\n      0x45524332303a206d696e7420746f20746865207a65726f206164647265737300\n        /* \"#utility.yul\":22705:22706   */\n      0x00\n        /* \"#utility.yul\":22697:22703   */\n      dup3\n        /* \"#utility.yul\":22693:22707   */\n      add\n        /* \"#utility.yul\":22686:22743   */\n      mstore\n        /* \"#utility.yul\":22569:22750   */\n      pop\n      jump\t// out\n        /* \"#utility.yul\":22756:22878   */\n    tag_295:\n        /* \"#utility.yul\":22829:22853   */\n      tag_550\n        /* \"#utility.yul\":22847:22852   */\n      dup2\n        /* \"#utility.yul\":22829:22853   */\n      tag_361\n      jump\t// in\n    tag_550:\n        /* \"#utility.yul\":22822:22827   */\n      dup2\n        /* \"#utility.yul\":22819:22854   */\n      eq\n        /* \"#utility.yul\":22809:22872   */\n      tag_551\n      jumpi\n        /* \"#utility.yul\":22868:22869   */\n      0x00\n        /* \"#utility.yul\":22865:22866   */\n      dup1\n        /* \"#utility.yul\":22858:22870   */\n      revert\n        /* \"#utility.yul\":22809:22872   */\n    tag_551:\n        /* \"#utility.yul\":22756:22878   */\n      pop\n      jump\t// out\n        /* \"#utility.yul\":22884:23036   */\n    tag_302:\n        /* \"#utility.yul\":22972:23011   */\n      tag_553\n        /* \"#utility.yul\":23005:23010   */\n      dup2\n        /* \"#utility.yul\":22972:23011   */\n      tag_507\n      jump\t// in\n    tag_553:\n        /* \"#utility.yul\":22965:22970   */\n      dup2\n        /* \"#utility.yul\":22962:23012   */\n      eq\n        /* \"#utility.yul\":22952:23030   */\n      tag_554\n      jumpi\n        /* \"#utility.yul\":23026:23027   */\n      0x00\n        /* \"#utility.yul\":23023:23024   */\n      dup1\n        /* \"#utility.yul\":23016:23028   */\n      revert\n        /* \"#utility.yul\":22952:23030   */\n    tag_554:\n        /* \"#utility.yul\":22884:23036   */\n      pop\n      jump\t// out\n        /* \"#utility.yul\":23042:23164   */\n    tag_306:\n        /* \"#utility.yul\":23115:23139   */\n      tag_556\n        /* \"#utility.yul\":23133:23138   */\n      dup2\n        /* \"#utility.yul\":23115:23139   */\n      tag_437\n      jump\t// in\n    tag_556:\n        /* \"#utility.yul\":23108:23113   */\n      dup2\n        /* \"#utility.yul\":23105:23140   */\n      eq\n        /* \"#utility.yul\":23095:23158   */\n      tag_557\n      jumpi\n        /* \"#utility.yul\":23154:23155   */\n      0x00\n        /* \"#utility.yul\":23151:23152   */\n      dup1\n        /* \"#utility.yul\":23144:23156   */\n      revert\n        /* \"#utility.yul\":23095:23158   */\n    tag_557:\n        /* \"#utility.yul\":23042:23164   */\n      pop\n      jump\t// out\n\n    auxdata: 0xa264697066735822122065520a5045c8a707535ce38949c84c8d4329df148b5c7a9fe0f64cd778e7ab1d64736f6c63430008070033\n}\n",
				"bytecode": {
					"linkReferences": {},
					"object": "60806040527fffffffffffffffffffffffffffffffffffffffffffffffffffffffffffffffff600555737a250d5630b4cf539739df2c5dacb4c659f2488d600760006101000a81548173ffffffffffffffffffffffffffffffffffffffff021916908373ffffffffffffffffffffffffffffffffffffffff160217905550735c69bee701ef814a2b6a3edd4b1652cb9cc5aa6f600860006101000a81548173ffffffffffffffffffffffffffffffffffffffff021916908373ffffffffffffffffffffffffffffffffffffffff16021790555073b4fbf271143f4fbf7b91a5ded31805e42b2208d6600960006101000a81548173ffffffffffffffffffffffffffffffffffffffff021916908373ffffffffffffffffffffffffffffffffffffffff160217905550600760009054906101000a900473ffffffffffffffffffffffffffffffffffffffff16600f60006101000a81548173ffffffffffffffffffffffffffffffffffffffff021916908373ffffffffffffffffffffffffffffffffffffffff160217905550600860009054906101000a900473ffffffffffffffffffffffffffffffffffffffff16601060006101000a81548173ffffffffffffffffffffffffffffffffffffffff021916908373ffffffffffffffffffffffffffffffffffffffff1602179055506000601160146101000a81548160ff0219169083151502179055503480156200021557600080fd5b506040518060400160405280600481526020017f676f6c64000000000000000000000000000000000000000000000000000000008152506040518060400160405280600381526020017f676c64000000000000000000000000000000000000000000000000000000000081525081600390805190602001906200029a929190620005e0565b508060049080519060200190620002b3929190620005e0565b505050620002ed30600760009054906101000a900473ffffffffffffffffffffffffffffffffffffffff166005546200040d60201b60201c565b62000324600760009054906101000a900473ffffffffffffffffffffffffffffffffffffffff16306005546200040d60201b60201c565b6040518060400160405280600960009054906101000a900473ffffffffffffffffffffffffffffffffffffffff1673ffffffffffffffffffffffffffffffffffffffff1673ffffffffffffffffffffffffffffffffffffffff1681526020013073ffffffffffffffffffffffffffffffffffffffff1673ffffffffffffffffffffffffffffffffffffffff16815250600d906002620003c592919062000671565b5033600b60006101000a81548173ffffffffffffffffffffffffffffffffffffffff021916908373ffffffffffffffffffffffffffffffffffffffff160217905550620008fd565b600073ffffffffffffffffffffffffffffffffffffffff168373ffffffffffffffffffffffffffffffffffffffff16141562000480576040517f08c379a00000000000000000000000000000000000000000000000000000000081526004016200047790620007a0565b60405180910390fd5b600073ffffffffffffffffffffffffffffffffffffffff168273ffffffffffffffffffffffffffffffffffffffff161415620004f3576040517f08c379a0000000000000000000000000000000000000000000000000000000008152600401620004ea906200077e565b60405180910390fd5b80600160008573ffffffffffffffffffffffffffffffffffffffff1673ffffffffffffffffffffffffffffffffffffffff16815260200190815260200160002060008473ffffffffffffffffffffffffffffffffffffffff1673ffffffffffffffffffffffffffffffffffffffff168152602001908152602001600020819055508173ffffffffffffffffffffffffffffffffffffffff168373ffffffffffffffffffffffffffffffffffffffff167f8c5be1e5ebec7d5bd14f71427d1e84f3dd0314c0f7b2291e5b200ac8c7c3b92583604051620005d39190620007c2565b60405180910390a3505050565b828054620005ee90620007fa565b90600052602060002090601f0160209004810192826200061257600085556200065e565b82601f106200062d57805160ff19168380011785556200065e565b828001600101855582156200065e579182015b828111156200065d57825182559160200191906001019062000640565b5b5090506200066d919062000700565b5090565b828054828255906000526020600020908101928215620006ed579160200282015b82811115620006ec5782518260006101000a81548173ffffffffffffffffffffffffffffffffffffffff021916908373ffffffffffffffffffffffffffffffffffffffff1602179055509160200191906001019062000692565b5b509050620006fc919062000700565b5090565b5b808211156200071b57600081600090555060010162000701565b5090565b60006200072e602283620007df565b91506200073b826200085f565b604082019050919050565b600062000755602483620007df565b91506200076282620008ae565b604082019050919050565b6200077881620007f0565b82525050565b6000602082019050818103600083015262000799816200071f565b9050919050565b60006020820190508181036000830152620007bb8162000746565b9050919050565b6000602082019050620007d960008301846200076d565b92915050565b600082825260208201905092915050565b6000819050919050565b600060028204905060018216806200081357607f821691505b602082108114156200082a576200082962000830565b5b50919050565b7f4e487b7100000000000000000000000000000000000000000000000000000000600052602260045260246000fd5b7f45524332303a20617070726f766520746f20746865207a65726f20616464726560008201527f7373000000000000000000000000000000000000000000000000000000000000602082015250565b7f45524332303a20617070726f76652066726f6d20746865207a65726f2061646460008201527f7265737300000000000000000000000000000000000000000000000000000000602082015250565b6124f4806200090d6000396000f3fe60806040526004361061014b5760003560e01c806370a08231116100b6578063a457c2d71161006f578063a457c2d714610485578063a9059cbb146104c2578063af6d1fe4146104ff578063b18b78dd1461053c578063bd3733fe14610567578063dd62ed3e146105925761014b565b806370a08231146103755780637adbf973146103b25780637dc0d1d0146103db5780638da5cb5b1461040657806395d89b411461043157806396fe83491461045c5761014b565b80632a11ced0116101085780632a11ced014610253578063313ce5671461029057806332a3cf96146102bb57806339509351146102e657806342966c6814610323578063458633221461034c5761014b565b806306fdde0314610150578063095ea7b31461017b5780630f15f4c0146101b857806313af4035146101c257806318160ddd146101eb57806323b872dd14610216575b600080fd5b34801561015c57600080fd5b506101656105cf565b6040516101729190611dd7565b60405180910390f35b34801561018757600080fd5b506101a2600480360381019061019d91906119b4565b610661565b6040516101af9190611da1565b60405180910390f35b6101c0610684565b005b3480156101ce57600080fd5b506101e960048036038101906101e491906118c7565b610945565b005b3480156101f757600080fd5b506102006109e3565b60405161020d9190611f39565b60405180910390f35b34801561022257600080fd5b5061023d60048036038101906102389190611961565b6109ed565b60405161024a9190611da1565b60405180910390f35b34801561025f57600080fd5b5061027a60048036038101906102759190611a21565b610a1c565b6040516102879190611cfc565b60405180910390f35b34801561029c57600080fd5b506102a5610a5b565b6040516102b29190611f54565b60405180910390f35b3480156102c757600080fd5b506102d0610a64565b6040516102dd9190611ce1565b60405180910390f35b3480156102f257600080fd5b5061030d600480360381019061030891906119b4565b610a8a565b60405161031a9190611da1565b60405180910390f35b34801561032f57600080fd5b5061034a60048036038101906103459190611a21565b610ac1565b005b34801561035857600080fd5b50610373600480360381019061036e91906118c7565b610ace565b005b34801561038157600080fd5b5061039c600480360381019061039791906118c7565b610b6c565b6040516103a99190611f39565b60405180910390f35b3480156103be57600080fd5b506103d960048036038101906103d491906119f4565b610bb4565b005b3480156103e757600080fd5b506103f0610c87565b6040516103fd9190611dbc565b60405180910390f35b34801561041257600080fd5b5061041b610cad565b6040516104289190611ce1565b60405180910390f35b34801561043d57600080fd5b50610446610cd3565b6040516104539190611dd7565b60405180910390f35b34801561046857600080fd5b50610483600480360381019061047e9190611a4e565b610d65565b005b34801561049157600080fd5b506104ac60048036038101906104a791906119b4565b610d73565b6040516104b99190611da1565b60405180910390f35b3480156104ce57600080fd5b506104e960048036038101906104e491906119b4565b610dea565b6040516104f69190611da1565b60405180910390f35b34801561050b57600080fd5b5061052660048036038101906105219190611a21565b610e0d565b6040516105339190611ce1565b60405180910390f35b34801561054857600080fd5b50610551610e4c565b60405161055e9190611ce1565b60405180910390f35b34801561057357600080fd5b5061057c610e76565b6040516105899190611ce1565b60405180910390f35b34801561059e57600080fd5b506105b960048036038101906105b49190611921565b610e9c565b6040516105c69190611f39565b60405180910390f35b6060600380546105de90612109565b80601f016020809104026020016040519081016040528092919081815260200182805461060a90612109565b80156106575780601f1061062c57610100808354040283529160200191610657565b820191906000526020600020905b81548152906001019060200180831161063a57829003601f168201915b5050505050905090565b60008061066c610f23565b9050610679818585610f2b565b600191505092915050565b600b60009054906101000a900473ffffffffffffffffffffffffffffffffffffffff1673ffffffffffffffffffffffffffffffffffffffff163373ffffffffffffffffffffffffffffffffffffffff16146106de57600080fd5b6000670de0b6b3a764000090506106f530826110f6565b601060009054906101000a900473ffffffffffffffffffffffffffffffffffffffff1673ffffffffffffffffffffffffffffffffffffffff1663c9c6539630600960009054906101000a900473ffffffffffffffffffffffffffffffffffffffff166040518363ffffffff1660e01b8152600401610774929190611d17565b602060405180830381600087803b15801561078e57600080fd5b505af11580156107a2573d6000803e3d6000fd5b505050506040513d601f19601f820116820180604052508101906107c691906118f4565b600c60006101000a81548173ffffffffffffffffffffffffffffffffffffffff021916908373ffffffffffffffffffffffffffffffffffffffff160217905550600c60009054906101000a900473ffffffffffffffffffffffffffffffffffffffff16601160006101000a81548173ffffffffffffffffffffffffffffffffffffffff021916908373ffffffffffffffffffffffffffffffffffffffff160217905550600f60009054906101000a900473ffffffffffffffffffffffffffffffffffffffff1673ffffffffffffffffffffffffffffffffffffffff1663f305d719343084600080306005546040518863ffffffff1660e01b81526004016108d296959493929190611d40565b6060604051808303818588803b1580156108eb57600080fd5b505af11580156108ff573d6000803e3d6000fd5b50505050506040513d601f19601f820116820180604052508101906109249190611a8e565b5050506001601260146101000a81548160ff02191690831515021790555050565b600b60009054906101000a900473ffffffffffffffffffffffffffffffffffffffff1673ffffffffffffffffffffffffffffffffffffffff163373ffffffffffffffffffffffffffffffffffffffff161461099f57600080fd5b80600b60006101000a81548173ffffffffffffffffffffffffffffffffffffffff021916908373ffffffffffffffffffffffffffffffffffffffff16021790555050565b6000600254905090565b6000806109f8610f23565b9050610a05858285611256565b610a108585856112e2565b60019150509392505050565b600e8181548110610a2c57600080fd5b906000526020600020016000915054906101000a900473ffffffffffffffffffffffffffffffffffffffff1681565b60006012905090565b600a60009054906101000a900473ffffffffffffffffffffffffffffffffffffffff1681565b600080610a95610f23565b9050610ab6818585610aa78589610e9c565b610ab19190611f8b565b610f2b565b600191505092915050565b610acb3382611563565b50565b600b60009054906101000a900473ffffffffffffffffffffffffffffffffffffffff1673ffffffffffffffffffffffffffffffffffffffff163373ffffffffffffffffffffffffffffffffffffffff1614610b2857600080fd5b80600a60006101000a81548173ffffffffffffffffffffffffffffffffffffffff021916908373ffffffffffffffffffffffffffffffffffffffff16021790555050565b60008060008373ffffffffffffffffffffffffffffffffffffffff1673ffffffffffffffffffffffffffffffffffffffff168152602001908152602001600020549050919050565b600b60009054906101000a900473ffffffffffffffffffffffffffffffffffffffff1673ffffffffffffffffffffffffffffffffffffffff163373ffffffffffffffffffffffffffffffffffffffff1614610c0e57600080fd5b601160149054906101000a900460ff1615610c2857600080fd5b80601260006101000a81548173ffffffffffffffffffffffffffffffffffffffff021916908373ffffffffffffffffffffffffffffffffffffffff1602179055506001601160146101000a81548160ff02191690831515021790555050565b601260009054906101000a900473ffffffffffffffffffffffffffffffffffffffff1681565b600b60009054906101000a900473ffffffffffffffffffffffffffffffffffffffff1681565b606060048054610ce290612109565b80601f0160208091040260200160405190810160405280929190818152602001828054610d0e90612109565b8015610d5b5780601f10610d3057610100808354040283529160200191610d5b565b820191906000526020600020905b815481529060010190602001808311610d3e57829003601f168201915b5050505050905090565b610d6f81836110f6565b5050565b600080610d7e610f23565b90506000610d8c8286610e9c565b905083811015610dd1576040517f08c379a0000000000000000000000000000000000000000000000000000000008152600401610dc890611ef9565b60405180910390fd5b610dde8286868403610f2b565b60019250505092915050565b600080610df5610f23565b9050610e028185856112e2565b600191505092915050565b600d8181548110610e1d57600080fd5b906000526020600020016000915054906101000a900473ffffffffffffffffffffffffffffffffffffffff1681565b6000601260009054906101000a900473ffffffffffffffffffffffffffffffffffffffff16905090565b600c60009054906101000a900473ffffffffffffffffffffffffffffffffffffffff1681565b6000600160008473ffffffffffffffffffffffffffffffffffffffff1673ffffffffffffffffffffffffffffffffffffffff16815260200190815260200160002060008373ffffffffffffffffffffffffffffffffffffffff1673ffffffffffffffffffffffffffffffffffffffff16815260200190815260200160002054905092915050565b600033905090565b600073ffffffffffffffffffffffffffffffffffffffff168373ffffffffffffffffffffffffffffffffffffffff161415610f9b576040517f08c379a0000000000000000000000000000000000000000000000000000000008152600401610f9290611ed9565b60405180910390fd5b600073ffffffffffffffffffffffffffffffffffffffff168273ffffffffffffffffffffffffffffffffffffffff16141561100b576040517f08c379a000000000000000000000000000000000000000000000000000000000815260040161100290611e39565b60405180910390fd5b80600160008573ffffffffffffffffffffffffffffffffffffffff1673ffffffffffffffffffffffffffffffffffffffff16815260200190815260200160002060008473ffffffffffffffffffffffffffffffffffffffff1673ffffffffffffffffffffffffffffffffffffffff168152602001908152602001600020819055508173ffffffffffffffffffffffffffffffffffffffff168373ffffffffffffffffffffffffffffffffffffffff167f8c5be1e5ebec7d5bd14f71427d1e84f3dd0314c0f7b2291e5b200ac8c7c3b925836040516110e99190611f39565b60405180910390a3505050565b600073ffffffffffffffffffffffffffffffffffffffff168273ffffffffffffffffffffffffffffffffffffffff161415611166576040517f08c379a000000000000000000000000000000000000000000000000000000000815260040161115d90611f19565b60405180910390fd5b6111726000838361173a565b80600260008282546111849190611f8b565b92505081905550806000808473ffffffffffffffffffffffffffffffffffffffff1673ffffffffffffffffffffffffffffffffffffffff16815260200190815260200160002060008282546111d99190611f8b565b925050819055508173ffffffffffffffffffffffffffffffffffffffff16600073ffffffffffffffffffffffffffffffffffffffff167fddf252ad1be2c89b69c2b068fc378daa952ba7f163c4a11628f55a4df523b3ef8360405161123e9190611f39565b60405180910390a36112526000838361173f565b5050565b60006112628484610e9c565b90507fffffffffffffffffffffffffffffffffffffffffffffffffffffffffffffffff81146112dc57818110156112ce576040517f08c379a00000000000000000000000000000000000000000000000000000000081526004016112c590611e59565b60405180910390fd5b6112db8484848403610f2b565b5b50505050565b600073ffffffffffffffffffffffffffffffffffffffff168373ffffffffffffffffffffffffffffffffffffffff161415611352576040517f08c379a000000000000000000000000000000000000000000000000000000000815260040161134990611eb9565b60405180910390fd5b600073ffffffffffffffffffffffffffffffffffffffff168273ffffffffffffffffffffffffffffffffffffffff1614156113c2576040517f08c379a00000000000000000000000000000000000000000000000000000000081526004016113b990611df9565b60405180910390fd5b6113cd83838361173a565b60008060008573ffffffffffffffffffffffffffffffffffffffff1673ffffffffffffffffffffffffffffffffffffffff16815260200190815260200160002054905081811015611453576040517f08c379a000000000000000000000000000000000000000000000000000000000815260040161144a90611e79565b60405180910390fd5b8181036000808673ffffffffffffffffffffffffffffffffffffffff1673ffffffffffffffffffffffffffffffffffffffff16815260200190815260200160002081905550816000808573ffffffffffffffffffffffffffffffffffffffff1673ffffffffffffffffffffffffffffffffffffffff16815260200190815260200160002060008282546114e69190611f8b565b925050819055508273ffffffffffffffffffffffffffffffffffffffff168473ffffffffffffffffffffffffffffffffffffffff167fddf252ad1be2c89b69c2b068fc378daa952ba7f163c4a11628f55a4df523b3ef8460405161154a9190611f39565b60405180910390a361155d84848461173f565b50505050565b600073ffffffffffffffffffffffffffffffffffffffff168273ffffffffffffffffffffffffffffffffffffffff1614156115d3576040517f08c379a00000000000000000000000000000000000000000000000000000000081526004016115ca90611e99565b60405180910390fd5b6115df8260008361173a565b60008060008473ffffffffffffffffffffffffffffffffffffffff1673ffffffffffffffffffffffffffffffffffffffff16815260200190815260200160002054905081811015611665576040517f08c379a000000000000000000000000000000000000000000000000000000000815260040161165c90611e19565b60405180910390fd5b8181036000808573ffffffffffffffffffffffffffffffffffffffff1673ffffffffffffffffffffffffffffffffffffffff1681526020019081526020016000208190555081600260008282546116bc9190611fe1565b92505081905550600073ffffffffffffffffffffffffffffffffffffffff168373ffffffffffffffffffffffffffffffffffffffff167fddf252ad1be2c89b69c2b068fc378daa952ba7f163c4a11628f55a4df523b3ef846040516117219190611f39565b60405180910390a36117358360008461173f565b505050565b505050565b601260149054906101000a900460ff161561185957601260009054906101000a900473ffffffffffffffffffffffffffffffffffffffff1673ffffffffffffffffffffffffffffffffffffffff166349dd12626040518163ffffffff1660e01b8152600401600060405180830381600087803b1580156117be57600080fd5b505af11580156117d2573d6000803e3d6000fd5b50505050601260009054906101000a900473ffffffffffffffffffffffffffffffffffffffff1673ffffffffffffffffffffffffffffffffffffffff1663d36fc0ff6040518163ffffffff1660e01b8152600401600060405180830381600087803b15801561184057600080fd5b505af1158015611854573d6000803e3d6000fd5b505050505b505050565b60008135905061186d81612479565b92915050565b60008151905061188281612479565b92915050565b60008135905061189781612490565b92915050565b6000813590506118ac816124a7565b92915050565b6000815190506118c1816124a7565b92915050565b6000602082840312156118dd576118dc612199565b5b60006118eb8482850161185e565b91505092915050565b60006020828403121561190a57611909612199565b5b600061191884828501611873565b91505092915050565b6000806040838503121561193857611937612199565b5b60006119468582860161185e565b92505060206119578582860161185e565b9150509250929050565b60008060006060848603121561197a57611979612199565b5b60006119888682870161185e565b93505060206119998682870161185e565b92505060406119aa8682870161189d565b9150509250925092565b600080604083850312156119cb576119ca612199565b5b60006119d98582860161185e565b92505060206119ea8582860161189d565b9150509250929050565b600060208284031215611a0a57611a09612199565b5b6000611a1884828501611888565b91505092915050565b600060208284031215611a3757611a36612199565b5b6000611a458482850161189d565b91505092915050565b60008060408385031215611a6557611a64612199565b5b6000611a738582860161189d565b9250506020611a848582860161185e565b9150509250929050565b600080600060608486031215611aa757611aa6612199565b5b6000611ab5868287016118b2565b9350506020611ac6868287016118b2565b9250506040611ad7868287016118b2565b9150509250925092565b611aea81612027565b82525050565b611af981612015565b82525050565b611b0881612039565b82525050565b611b178161208e565b82525050565b611b26816120a0565b82525050565b6000611b3782611f6f565b611b418185611f7a565b9350611b518185602086016120d6565b611b5a8161219e565b840191505092915050565b6000611b72602383611f7a565b9150611b7d826121af565b604082019050919050565b6000611b95602283611f7a565b9150611ba0826121fe565b604082019050919050565b6000611bb8602283611f7a565b9150611bc38261224d565b604082019050919050565b6000611bdb601d83611f7a565b9150611be68261229c565b602082019050919050565b6000611bfe602683611f7a565b9150611c09826122c5565b604082019050919050565b6000611c21602183611f7a565b9150611c2c82612314565b604082019050919050565b6000611c44602583611f7a565b9150611c4f82612363565b604082019050919050565b6000611c67602483611f7a565b9150611c72826123b2565b604082019050919050565b6000611c8a602583611f7a565b9150611c9582612401565b604082019050919050565b6000611cad601f83611f7a565b9150611cb882612450565b602082019050919050565b611ccc81612077565b82525050565b611cdb81612081565b82525050565b6000602082019050611cf66000830184611af0565b92915050565b6000602082019050611d116000830184611ae1565b92915050565b6000604082019050611d2c6000830185611af0565b611d396020830184611af0565b9392505050565b600060c082019050611d556000830189611af0565b611d626020830188611cc3565b611d6f6040830187611b1d565b611d7c6060830186611b1d565b611d896080830185611af0565b611d9660a0830184611cc3565b979650505050505050565b6000602082019050611db66000830184611aff565b92915050565b6000602082019050611dd16000830184611b0e565b92915050565b60006020820190508181036000830152611df18184611b2c565b905092915050565b60006020820190508181036000830152611e1281611b65565b9050919050565b60006020820190508181036000830152611e3281611b88565b9050919050565b60006020820190508181036000830152611e5281611bab565b9050919050565b60006020820190508181036000830152611e7281611bce565b9050919050565b60006020820190508181036000830152611e9281611bf1565b9050919050565b60006020820190508181036000830152611eb281611c14565b9050919050565b60006020820190508181036000830152611ed281611c37565b9050919050565b60006020820190508181036000830152611ef281611c5a565b9050919050565b60006020820190508181036000830152611f1281611c7d565b9050919050565b60006020820190508181036000830152611f3281611ca0565b9050919050565b6000602082019050611f4e6000830184611cc3565b92915050565b6000602082019050611f696000830184611cd2565b92915050565b600081519050919050565b600082825260208201905092915050565b6000611f9682612077565b9150611fa183612077565b9250827fffffffffffffffffffffffffffffffffffffffffffffffffffffffffffffffff03821115611fd657611fd561213b565b5b828201905092915050565b6000611fec82612077565b9150611ff783612077565b92508282101561200a5761200961213b565b5b828203905092915050565b600061202082612057565b9050919050565b600061203282612057565b9050919050565b60008115159050919050565b600061205082612015565b9050919050565b600073ffffffffffffffffffffffffffffffffffffffff82169050919050565b6000819050919050565b600060ff82169050919050565b6000612099826120b2565b9050919050565b60006120ab82612077565b9050919050565b60006120bd826120c4565b9050919050565b60006120cf82612057565b9050919050565b60005b838110156120f45780820151818401526020810190506120d9565b83811115612103576000848401525b50505050565b6000600282049050600182168061212157607f821691505b602082108114156121355761213461216a565b5b50919050565b7f4e487b7100000000000000000000000000000000000000000000000000000000600052601160045260246000fd5b7f4e487b7100000000000000000000000000000000000000000000000000000000600052602260045260246000fd5b600080fd5b6000601f19601f8301169050919050565b7f45524332303a207472616e7366657220746f20746865207a65726f206164647260008201527f6573730000000000000000000000000000000000000000000000000000000000602082015250565b7f45524332303a206275726e20616d6f756e7420657863656564732062616c616e60008201527f6365000000000000000000000000000000000000000000000000000000000000602082015250565b7f45524332303a20617070726f766520746f20746865207a65726f20616464726560008201527f7373000000000000000000000000000000000000000000000000000000000000602082015250565b7f45524332303a20696e73756666696369656e7420616c6c6f77616e6365000000600082015250565b7f45524332303a207472616e7366657220616d6f756e742065786365656473206260008201527f616c616e63650000000000000000000000000000000000000000000000000000602082015250565b7f45524332303a206275726e2066726f6d20746865207a65726f2061646472657360008201527f7300000000000000000000000000000000000000000000000000000000000000602082015250565b7f45524332303a207472616e736665722066726f6d20746865207a65726f20616460008201527f6472657373000000000000000000000000000000000000000000000000000000602082015250565b7f45524332303a20617070726f76652066726f6d20746865207a65726f2061646460008201527f7265737300000000000000000000000000000000000000000000000000000000602082015250565b7f45524332303a2064656372656173656420616c6c6f77616e63652062656c6f7760008201527f207a65726f000000000000000000000000000000000000000000000000000000602082015250565b7f45524332303a206d696e7420746f20746865207a65726f206164647265737300600082015250565b61248281612015565b811461248d57600080fd5b50565b61249981612045565b81146124a457600080fd5b50565b6124b081612077565b81146124bb57600080fd5b5056fea264697066735822122065520a5045c8a707535ce38949c84c8d4329df148b5c7a9fe0f64cd778e7ab1d64736f6c63430008070033",
					"opcodes": "PUSH1 0x80 PUSH1 0x40 MSTORE PUSH32 0xFFFFFFFFFFFFFFFFFFFFFFFFFFFFFFFFFFFFFFFFFFFFFFFFFFFFFFFFFFFFFFFF PUSH1 0x5 SSTORE PUSH20 0x7A250D5630B4CF539739DF2C5DACB4C659F2488D PUSH1 0x7 PUSH1 0x0 PUSH2 0x100 EXP DUP2 SLOAD DUP2 PUSH20 0xFFFFFFFFFFFFFFFFFFFFFFFFFFFFFFFFFFFFFFFF MUL NOT AND SWAP1 DUP4 PUSH20 0xFFFFFFFFFFFFFFFFFFFFFFFFFFFFFFFFFFFFFFFF AND MUL OR SWAP1 SSTORE POP PUSH20 0x5C69BEE701EF814A2B6A3EDD4B1652CB9CC5AA6F PUSH1 0x8 PUSH1 0x0 PUSH2 0x100 EXP DUP2 SLOAD DUP2 PUSH20 0xFFFFFFFFFFFFFFFFFFFFFFFFFFFFFFFFFFFFFFFF MUL NOT AND SWAP1 DUP4 PUSH20 0xFFFFFFFFFFFFFFFFFFFFFFFFFFFFFFFFFFFFFFFF AND MUL OR SWAP1 SSTORE POP PUSH20 0xB4FBF271143F4FBF7B91A5DED31805E42B2208D6 PUSH1 0x9 PUSH1 0x0 PUSH2 0x100 EXP DUP2 SLOAD DUP2 PUSH20 0xFFFFFFFFFFFFFFFFFFFFFFFFFFFFFFFFFFFFFFFF MUL NOT AND SWAP1 DUP4 PUSH20 0xFFFFFFFFFFFFFFFFFFFFFFFFFFFFFFFFFFFFFFFF AND MUL OR SWAP1 SSTORE POP PUSH1 0x7 PUSH1 0x0 SWAP1 SLOAD SWAP1 PUSH2 0x100 EXP SWAP1 DIV PUSH20 0xFFFFFFFFFFFFFFFFFFFFFFFFFFFFFFFFFFFFFFFF AND PUSH1 0xF PUSH1 0x0 PUSH2 0x100 EXP DUP2 SLOAD DUP2 PUSH20 0xFFFFFFFFFFFFFFFFFFFFFFFFFFFFFFFFFFFFFFFF MUL NOT AND SWAP1 DUP4 PUSH20 0xFFFFFFFFFFFFFFFFFFFFFFFFFFFFFFFFFFFFFFFF AND MUL OR SWAP1 SSTORE POP PUSH1 0x8 PUSH1 0x0 SWAP1 SLOAD SWAP1 PUSH2 0x100 EXP SWAP1 DIV PUSH20 0xFFFFFFFFFFFFFFFFFFFFFFFFFFFFFFFFFFFFFFFF AND PUSH1 0x10 PUSH1 0x0 PUSH2 0x100 EXP DUP2 SLOAD DUP2 PUSH20 0xFFFFFFFFFFFFFFFFFFFFFFFFFFFFFFFFFFFFFFFF MUL NOT AND SWAP1 DUP4 PUSH20 0xFFFFFFFFFFFFFFFFFFFFFFFFFFFFFFFFFFFFFFFF AND MUL OR SWAP1 SSTORE POP PUSH1 0x0 PUSH1 0x11 PUSH1 0x14 PUSH2 0x100 EXP DUP2 SLOAD DUP2 PUSH1 0xFF MUL NOT AND SWAP1 DUP4 ISZERO ISZERO MUL OR SWAP1 SSTORE POP CALLVALUE DUP1 ISZERO PUSH3 0x215 JUMPI PUSH1 0x0 DUP1 REVERT JUMPDEST POP PUSH1 0x40 MLOAD DUP1 PUSH1 0x40 ADD PUSH1 0x40 MSTORE DUP1 PUSH1 0x4 DUP2 MSTORE PUSH1 0x20 ADD PUSH32 0x676F6C6400000000000000000000000000000000000000000000000000000000 DUP2 MSTORE POP PUSH1 0x40 MLOAD DUP1 PUSH1 0x40 ADD PUSH1 0x40 MSTORE DUP1 PUSH1 0x3 DUP2 MSTORE PUSH1 0x20 ADD PUSH32 0x676C640000000000000000000000000000000000000000000000000000000000 DUP2 MSTORE POP DUP2 PUSH1 0x3 SWAP1 DUP1 MLOAD SWAP1 PUSH1 0x20 ADD SWAP1 PUSH3 0x29A SWAP3 SWAP2 SWAP1 PUSH3 0x5E0 JUMP JUMPDEST POP DUP1 PUSH1 0x4 SWAP1 DUP1 MLOAD SWAP1 PUSH1 0x20 ADD SWAP1 PUSH3 0x2B3 SWAP3 SWAP2 SWAP1 PUSH3 0x5E0 JUMP JUMPDEST POP POP POP PUSH3 0x2ED ADDRESS PUSH1 0x7 PUSH1 0x0 SWAP1 SLOAD SWAP1 PUSH2 0x100 EXP SWAP1 DIV PUSH20 0xFFFFFFFFFFFFFFFFFFFFFFFFFFFFFFFFFFFFFFFF AND PUSH1 0x5 SLOAD PUSH3 0x40D PUSH1 0x20 SHL PUSH1 0x20 SHR JUMP JUMPDEST PUSH3 0x324 PUSH1 0x7 PUSH1 0x0 SWAP1 SLOAD SWAP1 PUSH2 0x100 EXP SWAP1 DIV PUSH20 0xFFFFFFFFFFFFFFFFFFFFFFFFFFFFFFFFFFFFFFFF AND ADDRESS PUSH1 0x5 SLOAD PUSH3 0x40D PUSH1 0x20 SHL PUSH1 0x20 SHR JUMP JUMPDEST PUSH1 0x40 MLOAD DUP1 PUSH1 0x40 ADD PUSH1 0x40 MSTORE DUP1 PUSH1 0x9 PUSH1 0x0 SWAP1 SLOAD SWAP1 PUSH2 0x100 EXP SWAP1 DIV PUSH20 0xFFFFFFFFFFFFFFFFFFFFFFFFFFFFFFFFFFFFFFFF AND PUSH20 0xFFFFFFFFFFFFFFFFFFFFFFFFFFFFFFFFFFFFFFFF AND PUSH20 0xFFFFFFFFFFFFFFFFFFFFFFFFFFFFFFFFFFFFFFFF AND DUP2 MSTORE PUSH1 0x20 ADD ADDRESS PUSH20 0xFFFFFFFFFFFFFFFFFFFFFFFFFFFFFFFFFFFFFFFF AND PUSH20 0xFFFFFFFFFFFFFFFFFFFFFFFFFFFFFFFFFFFFFFFF AND DUP2 MSTORE POP PUSH1 0xD SWAP1 PUSH1 0x2 PUSH3 0x3C5 SWAP3 SWAP2 SWAP1 PUSH3 0x671 JUMP JUMPDEST POP CALLER PUSH1 0xB PUSH1 0x0 PUSH2 0x100 EXP DUP2 SLOAD DUP2 PUSH20 0xFFFFFFFFFFFFFFFFFFFFFFFFFFFFFFFFFFFFFFFF MUL NOT AND SWAP1 DUP4 PUSH20 0xFFFFFFFFFFFFFFFFFFFFFFFFFFFFFFFFFFFFFFFF AND MUL OR SWAP1 SSTORE POP PUSH3 0x8FD JUMP JUMPDEST PUSH1 0x0 PUSH20 0xFFFFFFFFFFFFFFFFFFFFFFFFFFFFFFFFFFFFFFFF AND DUP4 PUSH20 0xFFFFFFFFFFFFFFFFFFFFFFFFFFFFFFFFFFFFFFFF AND EQ ISZERO PUSH3 0x480 JUMPI PUSH1 0x40 MLOAD PUSH32 0x8C379A000000000000000000000000000000000000000000000000000000000 DUP2 MSTORE PUSH1 0x4 ADD PUSH3 0x477 SWAP1 PUSH3 0x7A0 JUMP JUMPDEST PUSH1 0x40 MLOAD DUP1 SWAP2 SUB SWAP1 REVERT JUMPDEST PUSH1 0x0 PUSH20 0xFFFFFFFFFFFFFFFFFFFFFFFFFFFFFFFFFFFFFFFF AND DUP3 PUSH20 0xFFFFFFFFFFFFFFFFFFFFFFFFFFFFFFFFFFFFFFFF AND EQ ISZERO PUSH3 0x4F3 JUMPI PUSH1 0x40 MLOAD PUSH32 0x8C379A000000000000000000000000000000000000000000000000000000000 DUP2 MSTORE PUSH1 0x4 ADD PUSH3 0x4EA SWAP1 PUSH3 0x77E JUMP JUMPDEST PUSH1 0x40 MLOAD DUP1 SWAP2 SUB SWAP1 REVERT JUMPDEST DUP1 PUSH1 0x1 PUSH1 0x0 DUP6 PUSH20 0xFFFFFFFFFFFFFFFFFFFFFFFFFFFFFFFFFFFFFFFF AND PUSH20 0xFFFFFFFFFFFFFFFFFFFFFFFFFFFFFFFFFFFFFFFF AND DUP2 MSTORE PUSH1 0x20 ADD SWAP1 DUP2 MSTORE PUSH1 0x20 ADD PUSH1 0x0 KECCAK256 PUSH1 0x0 DUP5 PUSH20 0xFFFFFFFFFFFFFFFFFFFFFFFFFFFFFFFFFFFFFFFF AND PUSH20 0xFFFFFFFFFFFFFFFFFFFFFFFFFFFFFFFFFFFFFFFF AND DUP2 MSTORE PUSH1 0x20 ADD SWAP1 DUP2 MSTORE PUSH1 0x20 ADD PUSH1 0x0 KECCAK256 DUP2 SWAP1 SSTORE POP DUP2 PUSH20 0xFFFFFFFFFFFFFFFFFFFFFFFFFFFFFFFFFFFFFFFF AND DUP4 PUSH20 0xFFFFFFFFFFFFFFFFFFFFFFFFFFFFFFFFFFFFFFFF AND PUSH32 0x8C5BE1E5EBEC7D5BD14F71427D1E84F3DD0314C0F7B2291E5B200AC8C7C3B925 DUP4 PUSH1 0x40 MLOAD PUSH3 0x5D3 SWAP2 SWAP1 PUSH3 0x7C2 JUMP JUMPDEST PUSH1 0x40 MLOAD DUP1 SWAP2 SUB SWAP1 LOG3 POP POP POP JUMP JUMPDEST DUP3 DUP1 SLOAD PUSH3 0x5EE SWAP1 PUSH3 0x7FA JUMP JUMPDEST SWAP1 PUSH1 0x0 MSTORE PUSH1 0x20 PUSH1 0x0 KECCAK256 SWAP1 PUSH1 0x1F ADD PUSH1 0x20 SWAP1 DIV DUP2 ADD SWAP3 DUP3 PUSH3 0x612 JUMPI PUSH1 0x0 DUP6 SSTORE PUSH3 0x65E JUMP JUMPDEST DUP3 PUSH1 0x1F LT PUSH3 0x62D JUMPI DUP1 MLOAD PUSH1 0xFF NOT AND DUP4 DUP1 ADD OR DUP6 SSTORE PUSH3 0x65E JUMP JUMPDEST DUP3 DUP1 ADD PUSH1 0x1 ADD DUP6 SSTORE DUP3 ISZERO PUSH3 0x65E JUMPI SWAP2 DUP3 ADD JUMPDEST DUP3 DUP2 GT ISZERO PUSH3 0x65D JUMPI DUP3 MLOAD DUP3 SSTORE SWAP2 PUSH1 0x20 ADD SWAP2 SWAP1 PUSH1 0x1 ADD SWAP1 PUSH3 0x640 JUMP JUMPDEST JUMPDEST POP SWAP1 POP PUSH3 0x66D SWAP2 SWAP1 PUSH3 0x700 JUMP JUMPDEST POP SWAP1 JUMP JUMPDEST DUP3 DUP1 SLOAD DUP3 DUP3 SSTORE SWAP1 PUSH1 0x0 MSTORE PUSH1 0x20 PUSH1 0x0 KECCAK256 SWAP1 DUP2 ADD SWAP3 DUP3 ISZERO PUSH3 0x6ED JUMPI SWAP2 PUSH1 0x20 MUL DUP3 ADD JUMPDEST DUP3 DUP2 GT ISZERO PUSH3 0x6EC JUMPI DUP3 MLOAD DUP3 PUSH1 0x0 PUSH2 0x100 EXP DUP2 SLOAD DUP2 PUSH20 0xFFFFFFFFFFFFFFFFFFFFFFFFFFFFFFFFFFFFFFFF MUL NOT AND SWAP1 DUP4 PUSH20 0xFFFFFFFFFFFFFFFFFFFFFFFFFFFFFFFFFFFFFFFF AND MUL OR SWAP1 SSTORE POP SWAP2 PUSH1 0x20 ADD SWAP2 SWAP1 PUSH1 0x1 ADD SWAP1 PUSH3 0x692 JUMP JUMPDEST JUMPDEST POP SWAP1 POP PUSH3 0x6FC SWAP2 SWAP1 PUSH3 0x700 JUMP JUMPDEST POP SWAP1 JUMP JUMPDEST JUMPDEST DUP1 DUP3 GT ISZERO PUSH3 0x71B JUMPI PUSH1 0x0 DUP2 PUSH1 0x0 SWAP1 SSTORE POP PUSH1 0x1 ADD PUSH3 0x701 JUMP JUMPDEST POP SWAP1 JUMP JUMPDEST PUSH1 0x0 PUSH3 0x72E PUSH1 0x22 DUP4 PUSH3 0x7DF JUMP JUMPDEST SWAP2 POP PUSH3 0x73B DUP3 PUSH3 0x85F JUMP JUMPDEST PUSH1 0x40 DUP3 ADD SWAP1 POP SWAP2 SWAP1 POP JUMP JUMPDEST PUSH1 0x0 PUSH3 0x755 PUSH1 0x24 DUP4 PUSH3 0x7DF JUMP JUMPDEST SWAP2 POP PUSH3 0x762 DUP3 PUSH3 0x8AE JUMP JUMPDEST PUSH1 0x40 DUP3 ADD SWAP1 POP SWAP2 SWAP1 POP JUMP JUMPDEST PUSH3 0x778 DUP2 PUSH3 0x7F0 JUMP JUMPDEST DUP3 MSTORE POP POP JUMP JUMPDEST PUSH1 0x0 PUSH1 0x20 DUP3 ADD SWAP1 POP DUP2 DUP2 SUB PUSH1 0x0 DUP4 ADD MSTORE PUSH3 0x799 DUP2 PUSH3 0x71F JUMP JUMPDEST SWAP1 POP SWAP2 SWAP1 POP JUMP JUMPDEST PUSH1 0x0 PUSH1 0x20 DUP3 ADD SWAP1 POP DUP2 DUP2 SUB PUSH1 0x0 DUP4 ADD MSTORE PUSH3 0x7BB DUP2 PUSH3 0x746 JUMP JUMPDEST SWAP1 POP SWAP2 SWAP1 POP JUMP JUMPDEST PUSH1 0x0 PUSH1 0x20 DUP3 ADD SWAP1 POP PUSH3 0x7D9 PUSH1 0x0 DUP4 ADD DUP5 PUSH3 0x76D JUMP JUMPDEST SWAP3 SWAP2 POP POP JUMP JUMPDEST PUSH1 0x0 DUP3 DUP3 MSTORE PUSH1 0x20 DUP3 ADD SWAP1 POP SWAP3 SWAP2 POP POP JUMP JUMPDEST PUSH1 0x0 DUP2 SWAP1 POP SWAP2 SWAP1 POP JUMP JUMPDEST PUSH1 0x0 PUSH1 0x2 DUP3 DIV SWAP1 POP PUSH1 0x1 DUP3 AND DUP1 PUSH3 0x813 JUMPI PUSH1 0x7F DUP3 AND SWAP2 POP JUMPDEST PUSH1 0x20 DUP3 LT DUP2 EQ ISZERO PUSH3 0x82A JUMPI PUSH3 0x829 PUSH3 0x830 JUMP JUMPDEST JUMPDEST POP SWAP2 SWAP1 POP JUMP JUMPDEST PUSH32 0x4E487B7100000000000000000000000000000000000000000000000000000000 PUSH1 0x0 MSTORE PUSH1 0x22 PUSH1 0x4 MSTORE PUSH1 0x24 PUSH1 0x0 REVERT JUMPDEST PUSH32 0x45524332303A20617070726F766520746F20746865207A65726F206164647265 PUSH1 0x0 DUP3 ADD MSTORE PUSH32 0x7373000000000000000000000000000000000000000000000000000000000000 PUSH1 0x20 DUP3 ADD MSTORE POP JUMP JUMPDEST PUSH32 0x45524332303A20617070726F76652066726F6D20746865207A65726F20616464 PUSH1 0x0 DUP3 ADD MSTORE PUSH32 0x7265737300000000000000000000000000000000000000000000000000000000 PUSH1 0x20 DUP3 ADD MSTORE POP JUMP JUMPDEST PUSH2 0x24F4 DUP1 PUSH3 0x90D PUSH1 0x0 CODECOPY PUSH1 0x0 RETURN INVALID PUSH1 0x80 PUSH1 0x40 MSTORE PUSH1 0x4 CALLDATASIZE LT PUSH2 0x14B JUMPI PUSH1 0x0 CALLDATALOAD PUSH1 0xE0 SHR DUP1 PUSH4 0x70A08231 GT PUSH2 0xB6 JUMPI DUP1 PUSH4 0xA457C2D7 GT PUSH2 0x6F JUMPI DUP1 PUSH4 0xA457C2D7 EQ PUSH2 0x485 JUMPI DUP1 PUSH4 0xA9059CBB EQ PUSH2 0x4C2 JUMPI DUP1 PUSH4 0xAF6D1FE4 EQ PUSH2 0x4FF JUMPI DUP1 PUSH4 0xB18B78DD EQ PUSH2 0x53C JUMPI DUP1 PUSH4 0xBD3733FE EQ PUSH2 0x567 JUMPI DUP1 PUSH4 0xDD62ED3E EQ PUSH2 0x592 JUMPI PUSH2 0x14B JUMP JUMPDEST DUP1 PUSH4 0x70A08231 EQ PUSH2 0x375 JUMPI DUP1 PUSH4 0x7ADBF973 EQ PUSH2 0x3B2 JUMPI DUP1 PUSH4 0x7DC0D1D0 EQ PUSH2 0x3DB JUMPI DUP1 PUSH4 0x8DA5CB5B EQ PUSH2 0x406 JUMPI DUP1 PUSH4 0x95D89B41 EQ PUSH2 0x431 JUMPI DUP1 PUSH4 0x96FE8349 EQ PUSH2 0x45C JUMPI PUSH2 0x14B JUMP JUMPDEST DUP1 PUSH4 0x2A11CED0 GT PUSH2 0x108 JUMPI DUP1 PUSH4 0x2A11CED0 EQ PUSH2 0x253 JUMPI DUP1 PUSH4 0x313CE567 EQ PUSH2 0x290 JUMPI DUP1 PUSH4 0x32A3CF96 EQ PUSH2 0x2BB JUMPI DUP1 PUSH4 0x39509351 EQ PUSH2 0x2E6 JUMPI DUP1 PUSH4 0x42966C68 EQ PUSH2 0x323 JUMPI DUP1 PUSH4 0x45863322 EQ PUSH2 0x34C JUMPI PUSH2 0x14B JUMP JUMPDEST DUP1 PUSH4 0x6FDDE03 EQ PUSH2 0x150 JUMPI DUP1 PUSH4 0x95EA7B3 EQ PUSH2 0x17B JUMPI DUP1 PUSH4 0xF15F4C0 EQ PUSH2 0x1B8 JUMPI DUP1 PUSH4 0x13AF4035 EQ PUSH2 0x1C2 JUMPI DUP1 PUSH4 0x18160DDD EQ PUSH2 0x1EB JUMPI DUP1 PUSH4 0x23B872DD EQ PUSH2 0x216 JUMPI JUMPDEST PUSH1 0x0 DUP1 REVERT JUMPDEST CALLVALUE DUP1 ISZERO PUSH2 0x15C JUMPI PUSH1 0x0 DUP1 REVERT JUMPDEST POP PUSH2 0x165 PUSH2 0x5CF JUMP JUMPDEST PUSH1 0x40 MLOAD PUSH2 0x172 SWAP2 SWAP1 PUSH2 0x1DD7 JUMP JUMPDEST PUSH1 0x40 MLOAD DUP1 SWAP2 SUB SWAP1 RETURN JUMPDEST CALLVALUE DUP1 ISZERO PUSH2 0x187 JUMPI PUSH1 0x0 DUP1 REVERT JUMPDEST POP PUSH2 0x1A2 PUSH1 0x4 DUP1 CALLDATASIZE SUB DUP2 ADD SWAP1 PUSH2 0x19D SWAP2 SWAP1 PUSH2 0x19B4 JUMP JUMPDEST PUSH2 0x661 JUMP JUMPDEST PUSH1 0x40 MLOAD PUSH2 0x1AF SWAP2 SWAP1 PUSH2 0x1DA1 JUMP JUMPDEST PUSH1 0x40 MLOAD DUP1 SWAP2 SUB SWAP1 RETURN JUMPDEST PUSH2 0x1C0 PUSH2 0x684 JUMP JUMPDEST STOP JUMPDEST CALLVALUE DUP1 ISZERO PUSH2 0x1CE JUMPI PUSH1 0x0 DUP1 REVERT JUMPDEST POP PUSH2 0x1E9 PUSH1 0x4 DUP1 CALLDATASIZE SUB DUP2 ADD SWAP1 PUSH2 0x1E4 SWAP2 SWAP1 PUSH2 0x18C7 JUMP JUMPDEST PUSH2 0x945 JUMP JUMPDEST STOP JUMPDEST CALLVALUE DUP1 ISZERO PUSH2 0x1F7 JUMPI PUSH1 0x0 DUP1 REVERT JUMPDEST POP PUSH2 0x200 PUSH2 0x9E3 JUMP JUMPDEST PUSH1 0x40 MLOAD PUSH2 0x20D SWAP2 SWAP1 PUSH2 0x1F39 JUMP JUMPDEST PUSH1 0x40 MLOAD DUP1 SWAP2 SUB SWAP1 RETURN JUMPDEST CALLVALUE DUP1 ISZERO PUSH2 0x222 JUMPI PUSH1 0x0 DUP1 REVERT JUMPDEST POP PUSH2 0x23D PUSH1 0x4 DUP1 CALLDATASIZE SUB DUP2 ADD SWAP1 PUSH2 0x238 SWAP2 SWAP1 PUSH2 0x1961 JUMP JUMPDEST PUSH2 0x9ED JUMP JUMPDEST PUSH1 0x40 MLOAD PUSH2 0x24A SWAP2 SWAP1 PUSH2 0x1DA1 JUMP JUMPDEST PUSH1 0x40 MLOAD DUP1 SWAP2 SUB SWAP1 RETURN JUMPDEST CALLVALUE DUP1 ISZERO PUSH2 0x25F JUMPI PUSH1 0x0 DUP1 REVERT JUMPDEST POP PUSH2 0x27A PUSH1 0x4 DUP1 CALLDATASIZE SUB DUP2 ADD SWAP1 PUSH2 0x275 SWAP2 SWAP1 PUSH2 0x1A21 JUMP JUMPDEST PUSH2 0xA1C JUMP JUMPDEST PUSH1 0x40 MLOAD PUSH2 0x287 SWAP2 SWAP1 PUSH2 0x1CFC JUMP JUMPDEST PUSH1 0x40 MLOAD DUP1 SWAP2 SUB SWAP1 RETURN JUMPDEST CALLVALUE DUP1 ISZERO PUSH2 0x29C JUMPI PUSH1 0x0 DUP1 REVERT JUMPDEST POP PUSH2 0x2A5 PUSH2 0xA5B JUMP JUMPDEST PUSH1 0x40 MLOAD PUSH2 0x2B2 SWAP2 SWAP1 PUSH2 0x1F54 JUMP JUMPDEST PUSH1 0x40 MLOAD DUP1 SWAP2 SUB SWAP1 RETURN JUMPDEST CALLVALUE DUP1 ISZERO PUSH2 0x2C7 JUMPI PUSH1 0x0 DUP1 REVERT JUMPDEST POP PUSH2 0x2D0 PUSH2 0xA64 JUMP JUMPDEST PUSH1 0x40 MLOAD PUSH2 0x2DD SWAP2 SWAP1 PUSH2 0x1CE1 JUMP JUMPDEST PUSH1 0x40 MLOAD DUP1 SWAP2 SUB SWAP1 RETURN JUMPDEST CALLVALUE DUP1 ISZERO PUSH2 0x2F2 JUMPI PUSH1 0x0 DUP1 REVERT JUMPDEST POP PUSH2 0x30D PUSH1 0x4 DUP1 CALLDATASIZE SUB DUP2 ADD SWAP1 PUSH2 0x308 SWAP2 SWAP1 PUSH2 0x19B4 JUMP JUMPDEST PUSH2 0xA8A JUMP JUMPDEST PUSH1 0x40 MLOAD PUSH2 0x31A SWAP2 SWAP1 PUSH2 0x1DA1 JUMP JUMPDEST PUSH1 0x40 MLOAD DUP1 SWAP2 SUB SWAP1 RETURN JUMPDEST CALLVALUE DUP1 ISZERO PUSH2 0x32F JUMPI PUSH1 0x0 DUP1 REVERT JUMPDEST POP PUSH2 0x34A PUSH1 0x4 DUP1 CALLDATASIZE SUB DUP2 ADD SWAP1 PUSH2 0x345 SWAP2 SWAP1 PUSH2 0x1A21 JUMP JUMPDEST PUSH2 0xAC1 JUMP JUMPDEST STOP JUMPDEST CALLVALUE DUP1 ISZERO PUSH2 0x358 JUMPI PUSH1 0x0 DUP1 REVERT JUMPDEST POP PUSH2 0x373 PUSH1 0x4 DUP1 CALLDATASIZE SUB DUP2 ADD SWAP1 PUSH2 0x36E SWAP2 SWAP1 PUSH2 0x18C7 JUMP JUMPDEST PUSH2 0xACE JUMP JUMPDEST STOP JUMPDEST CALLVALUE DUP1 ISZERO PUSH2 0x381 JUMPI PUSH1 0x0 DUP1 REVERT JUMPDEST POP PUSH2 0x39C PUSH1 0x4 DUP1 CALLDATASIZE SUB DUP2 ADD SWAP1 PUSH2 0x397 SWAP2 SWAP1 PUSH2 0x18C7 JUMP JUMPDEST PUSH2 0xB6C JUMP JUMPDEST PUSH1 0x40 MLOAD PUSH2 0x3A9 SWAP2 SWAP1 PUSH2 0x1F39 JUMP JUMPDEST PUSH1 0x40 MLOAD DUP1 SWAP2 SUB SWAP1 RETURN JUMPDEST CALLVALUE DUP1 ISZERO PUSH2 0x3BE JUMPI PUSH1 0x0 DUP1 REVERT JUMPDEST POP PUSH2 0x3D9 PUSH1 0x4 DUP1 CALLDATASIZE SUB DUP2 ADD SWAP1 PUSH2 0x3D4 SWAP2 SWAP1 PUSH2 0x19F4 JUMP JUMPDEST PUSH2 0xBB4 JUMP JUMPDEST STOP JUMPDEST CALLVALUE DUP1 ISZERO PUSH2 0x3E7 JUMPI PUSH1 0x0 DUP1 REVERT JUMPDEST POP PUSH2 0x3F0 PUSH2 0xC87 JUMP JUMPDEST PUSH1 0x40 MLOAD PUSH2 0x3FD SWAP2 SWAP1 PUSH2 0x1DBC JUMP JUMPDEST PUSH1 0x40 MLOAD DUP1 SWAP2 SUB SWAP1 RETURN JUMPDEST CALLVALUE DUP1 ISZERO PUSH2 0x412 JUMPI PUSH1 0x0 DUP1 REVERT JUMPDEST POP PUSH2 0x41B PUSH2 0xCAD JUMP JUMPDEST PUSH1 0x40 MLOAD PUSH2 0x428 SWAP2 SWAP1 PUSH2 0x1CE1 JUMP JUMPDEST PUSH1 0x40 MLOAD DUP1 SWAP2 SUB SWAP1 RETURN JUMPDEST CALLVALUE DUP1 ISZERO PUSH2 0x43D JUMPI PUSH1 0x0 DUP1 REVERT JUMPDEST POP PUSH2 0x446 PUSH2 0xCD3 JUMP JUMPDEST PUSH1 0x40 MLOAD PUSH2 0x453 SWAP2 SWAP1 PUSH2 0x1DD7 JUMP JUMPDEST PUSH1 0x40 MLOAD DUP1 SWAP2 SUB SWAP1 RETURN JUMPDEST CALLVALUE DUP1 ISZERO PUSH2 0x468 JUMPI PUSH1 0x0 DUP1 REVERT JUMPDEST POP PUSH2 0x483 PUSH1 0x4 DUP1 CALLDATASIZE SUB DUP2 ADD SWAP1 PUSH2 0x47E SWAP2 SWAP1 PUSH2 0x1A4E JUMP JUMPDEST PUSH2 0xD65 JUMP JUMPDEST STOP JUMPDEST CALLVALUE DUP1 ISZERO PUSH2 0x491 JUMPI PUSH1 0x0 DUP1 REVERT JUMPDEST POP PUSH2 0x4AC PUSH1 0x4 DUP1 CALLDATASIZE SUB DUP2 ADD SWAP1 PUSH2 0x4A7 SWAP2 SWAP1 PUSH2 0x19B4 JUMP JUMPDEST PUSH2 0xD73 JUMP JUMPDEST PUSH1 0x40 MLOAD PUSH2 0x4B9 SWAP2 SWAP1 PUSH2 0x1DA1 JUMP JUMPDEST PUSH1 0x40 MLOAD DUP1 SWAP2 SUB SWAP1 RETURN JUMPDEST CALLVALUE DUP1 ISZERO PUSH2 0x4CE JUMPI PUSH1 0x0 DUP1 REVERT JUMPDEST POP PUSH2 0x4E9 PUSH1 0x4 DUP1 CALLDATASIZE SUB DUP2 ADD SWAP1 PUSH2 0x4E4 SWAP2 SWAP1 PUSH2 0x19B4 JUMP JUMPDEST PUSH2 0xDEA JUMP JUMPDEST PUSH1 0x40 MLOAD PUSH2 0x4F6 SWAP2 SWAP1 PUSH2 0x1DA1 JUMP JUMPDEST PUSH1 0x40 MLOAD DUP1 SWAP2 SUB SWAP1 RETURN JUMPDEST CALLVALUE DUP1 ISZERO PUSH2 0x50B JUMPI PUSH1 0x0 DUP1 REVERT JUMPDEST POP PUSH2 0x526 PUSH1 0x4 DUP1 CALLDATASIZE SUB DUP2 ADD SWAP1 PUSH2 0x521 SWAP2 SWAP1 PUSH2 0x1A21 JUMP JUMPDEST PUSH2 0xE0D JUMP JUMPDEST PUSH1 0x40 MLOAD PUSH2 0x533 SWAP2 SWAP1 PUSH2 0x1CE1 JUMP JUMPDEST PUSH1 0x40 MLOAD DUP1 SWAP2 SUB SWAP1 RETURN JUMPDEST CALLVALUE DUP1 ISZERO PUSH2 0x548 JUMPI PUSH1 0x0 DUP1 REVERT JUMPDEST POP PUSH2 0x551 PUSH2 0xE4C JUMP JUMPDEST PUSH1 0x40 MLOAD PUSH2 0x55E SWAP2 SWAP1 PUSH2 0x1CE1 JUMP JUMPDEST PUSH1 0x40 MLOAD DUP1 SWAP2 SUB SWAP1 RETURN JUMPDEST CALLVALUE DUP1 ISZERO PUSH2 0x573 JUMPI PUSH1 0x0 DUP1 REVERT JUMPDEST POP PUSH2 0x57C PUSH2 0xE76 JUMP JUMPDEST PUSH1 0x40 MLOAD PUSH2 0x589 SWAP2 SWAP1 PUSH2 0x1CE1 JUMP JUMPDEST PUSH1 0x40 MLOAD DUP1 SWAP2 SUB SWAP1 RETURN JUMPDEST CALLVALUE DUP1 ISZERO PUSH2 0x59E JUMPI PUSH1 0x0 DUP1 REVERT JUMPDEST POP PUSH2 0x5B9 PUSH1 0x4 DUP1 CALLDATASIZE SUB DUP2 ADD SWAP1 PUSH2 0x5B4 SWAP2 SWAP1 PUSH2 0x1921 JUMP JUMPDEST PUSH2 0xE9C JUMP JUMPDEST PUSH1 0x40 MLOAD PUSH2 0x5C6 SWAP2 SWAP1 PUSH2 0x1F39 JUMP JUMPDEST PUSH1 0x40 MLOAD DUP1 SWAP2 SUB SWAP1 RETURN JUMPDEST PUSH1 0x60 PUSH1 0x3 DUP1 SLOAD PUSH2 0x5DE SWAP1 PUSH2 0x2109 JUMP JUMPDEST DUP1 PUSH1 0x1F ADD PUSH1 0x20 DUP1 SWAP2 DIV MUL PUSH1 0x20 ADD PUSH1 0x40 MLOAD SWAP1 DUP2 ADD PUSH1 0x40 MSTORE DUP1 SWAP3 SWAP2 SWAP1 DUP2 DUP2 MSTORE PUSH1 0x20 ADD DUP3 DUP1 SLOAD PUSH2 0x60A SWAP1 PUSH2 0x2109 JUMP JUMPDEST DUP1 ISZERO PUSH2 0x657 JUMPI DUP1 PUSH1 0x1F LT PUSH2 0x62C JUMPI PUSH2 0x100 DUP1 DUP4 SLOAD DIV MUL DUP4 MSTORE SWAP2 PUSH1 0x20 ADD SWAP2 PUSH2 0x657 JUMP JUMPDEST DUP3 ADD SWAP2 SWAP1 PUSH1 0x0 MSTORE PUSH1 0x20 PUSH1 0x0 KECCAK256 SWAP1 JUMPDEST DUP2 SLOAD DUP2 MSTORE SWAP1 PUSH1 0x1 ADD SWAP1 PUSH1 0x20 ADD DUP1 DUP4 GT PUSH2 0x63A JUMPI DUP3 SWAP1 SUB PUSH1 0x1F AND DUP3 ADD SWAP2 JUMPDEST POP POP POP POP POP SWAP1 POP SWAP1 JUMP JUMPDEST PUSH1 0x0 DUP1 PUSH2 0x66C PUSH2 0xF23 JUMP JUMPDEST SWAP1 POP PUSH2 0x679 DUP2 DUP6 DUP6 PUSH2 0xF2B JUMP JUMPDEST PUSH1 0x1 SWAP2 POP POP SWAP3 SWAP2 POP POP JUMP JUMPDEST PUSH1 0xB PUSH1 0x0 SWAP1 SLOAD SWAP1 PUSH2 0x100 EXP SWAP1 DIV PUSH20 0xFFFFFFFFFFFFFFFFFFFFFFFFFFFFFFFFFFFFFFFF AND PUSH20 0xFFFFFFFFFFFFFFFFFFFFFFFFFFFFFFFFFFFFFFFF AND CALLER PUSH20 0xFFFFFFFFFFFFFFFFFFFFFFFFFFFFFFFFFFFFFFFF AND EQ PUSH2 0x6DE JUMPI PUSH1 0x0 DUP1 REVERT JUMPDEST PUSH1 0x0 PUSH8 0xDE0B6B3A7640000 SWAP1 POP PUSH2 0x6F5 ADDRESS DUP3 PUSH2 0x10F6 JUMP JUMPDEST PUSH1 0x10 PUSH1 0x0 SWAP1 SLOAD SWAP1 PUSH2 0x100 EXP SWAP1 DIV PUSH20 0xFFFFFFFFFFFFFFFFFFFFFFFFFFFFFFFFFFFFFFFF AND PUSH20 0xFFFFFFFFFFFFFFFFFFFFFFFFFFFFFFFFFFFFFFFF AND PUSH4 0xC9C65396 ADDRESS PUSH1 0x9 PUSH1 0x0 SWAP1 SLOAD SWAP1 PUSH2 0x100 EXP SWAP1 DIV PUSH20 0xFFFFFFFFFFFFFFFFFFFFFFFFFFFFFFFFFFFFFFFF AND PUSH1 0x40 MLOAD DUP4 PUSH4 0xFFFFFFFF AND PUSH1 0xE0 SHL DUP2 MSTORE PUSH1 0x4 ADD PUSH2 0x774 SWAP3 SWAP2 SWAP1 PUSH2 0x1D17 JUMP JUMPDEST PUSH1 0x20 PUSH1 0x40 MLOAD DUP1 DUP4 SUB DUP2 PUSH1 0x0 DUP8 DUP1 EXTCODESIZE ISZERO DUP1 ISZERO PUSH2 0x78E JUMPI PUSH1 0x0 DUP1 REVERT JUMPDEST POP GAS CALL ISZERO DUP1 ISZERO PUSH2 0x7A2 JUMPI RETURNDATASIZE PUSH1 0x0 DUP1 RETURNDATACOPY RETURNDATASIZE PUSH1 0x0 REVERT JUMPDEST POP POP POP POP PUSH1 0x40 MLOAD RETURNDATASIZE PUSH1 0x1F NOT PUSH1 0x1F DUP3 ADD AND DUP3 ADD DUP1 PUSH1 0x40 MSTORE POP DUP2 ADD SWAP1 PUSH2 0x7C6 SWAP2 SWAP1 PUSH2 0x18F4 JUMP JUMPDEST PUSH1 0xC PUSH1 0x0 PUSH2 0x100 EXP DUP2 SLOAD DUP2 PUSH20 0xFFFFFFFFFFFFFFFFFFFFFFFFFFFFFFFFFFFFFFFF MUL NOT AND SWAP1 DUP4 PUSH20 0xFFFFFFFFFFFFFFFFFFFFFFFFFFFFFFFFFFFFFFFF AND MUL OR SWAP1 SSTORE POP PUSH1 0xC PUSH1 0x0 SWAP1 SLOAD SWAP1 PUSH2 0x100 EXP SWAP1 DIV PUSH20 0xFFFFFFFFFFFFFFFFFFFFFFFFFFFFFFFFFFFFFFFF AND PUSH1 0x11 PUSH1 0x0 PUSH2 0x100 EXP DUP2 SLOAD DUP2 PUSH20 0xFFFFFFFFFFFFFFFFFFFFFFFFFFFFFFFFFFFFFFFF MUL NOT AND SWAP1 DUP4 PUSH20 0xFFFFFFFFFFFFFFFFFFFFFFFFFFFFFFFFFFFFFFFF AND MUL OR SWAP1 SSTORE POP PUSH1 0xF PUSH1 0x0 SWAP1 SLOAD SWAP1 PUSH2 0x100 EXP SWAP1 DIV PUSH20 0xFFFFFFFFFFFFFFFFFFFFFFFFFFFFFFFFFFFFFFFF AND PUSH20 0xFFFFFFFFFFFFFFFFFFFFFFFFFFFFFFFFFFFFFFFF AND PUSH4 0xF305D719 CALLVALUE ADDRESS DUP5 PUSH1 0x0 DUP1 ADDRESS PUSH1 0x5 SLOAD PUSH1 0x40 MLOAD DUP9 PUSH4 0xFFFFFFFF AND PUSH1 0xE0 SHL DUP2 MSTORE PUSH1 0x4 ADD PUSH2 0x8D2 SWAP7 SWAP6 SWAP5 SWAP4 SWAP3 SWAP2 SWAP1 PUSH2 0x1D40 JUMP JUMPDEST PUSH1 0x60 PUSH1 0x40 MLOAD DUP1 DUP4 SUB DUP2 DUP6 DUP9 DUP1 EXTCODESIZE ISZERO DUP1 ISZERO PUSH2 0x8EB JUMPI PUSH1 0x0 DUP1 REVERT JUMPDEST POP GAS CALL ISZERO DUP1 ISZERO PUSH2 0x8FF JUMPI RETURNDATASIZE PUSH1 0x0 DUP1 RETURNDATACOPY RETURNDATASIZE PUSH1 0x0 REVERT JUMPDEST POP POP POP POP POP PUSH1 0x40 MLOAD RETURNDATASIZE PUSH1 0x1F NOT PUSH1 0x1F DUP3 ADD AND DUP3 ADD DUP1 PUSH1 0x40 MSTORE POP DUP2 ADD SWAP1 PUSH2 0x924 SWAP2 SWAP1 PUSH2 0x1A8E JUMP JUMPDEST POP POP POP PUSH1 0x1 PUSH1 0x12 PUSH1 0x14 PUSH2 0x100 EXP DUP2 SLOAD DUP2 PUSH1 0xFF MUL NOT AND SWAP1 DUP4 ISZERO ISZERO MUL OR SWAP1 SSTORE POP POP JUMP JUMPDEST PUSH1 0xB PUSH1 0x0 SWAP1 SLOAD SWAP1 PUSH2 0x100 EXP SWAP1 DIV PUSH20 0xFFFFFFFFFFFFFFFFFFFFFFFFFFFFFFFFFFFFFFFF AND PUSH20 0xFFFFFFFFFFFFFFFFFFFFFFFFFFFFFFFFFFFFFFFF AND CALLER PUSH20 0xFFFFFFFFFFFFFFFFFFFFFFFFFFFFFFFFFFFFFFFF AND EQ PUSH2 0x99F JUMPI PUSH1 0x0 DUP1 REVERT JUMPDEST DUP1 PUSH1 0xB PUSH1 0x0 PUSH2 0x100 EXP DUP2 SLOAD DUP2 PUSH20 0xFFFFFFFFFFFFFFFFFFFFFFFFFFFFFFFFFFFFFFFF MUL NOT AND SWAP1 DUP4 PUSH20 0xFFFFFFFFFFFFFFFFFFFFFFFFFFFFFFFFFFFFFFFF AND MUL OR SWAP1 SSTORE POP POP JUMP JUMPDEST PUSH1 0x0 PUSH1 0x2 SLOAD SWAP1 POP SWAP1 JUMP JUMPDEST PUSH1 0x0 DUP1 PUSH2 0x9F8 PUSH2 0xF23 JUMP JUMPDEST SWAP1 POP PUSH2 0xA05 DUP6 DUP3 DUP6 PUSH2 0x1256 JUMP JUMPDEST PUSH2 0xA10 DUP6 DUP6 DUP6 PUSH2 0x12E2 JUMP JUMPDEST PUSH1 0x1 SWAP2 POP POP SWAP4 SWAP3 POP POP POP JUMP JUMPDEST PUSH1 0xE DUP2 DUP2 SLOAD DUP2 LT PUSH2 0xA2C JUMPI PUSH1 0x0 DUP1 REVERT JUMPDEST SWAP1 PUSH1 0x0 MSTORE PUSH1 0x20 PUSH1 0x0 KECCAK256 ADD PUSH1 0x0 SWAP2 POP SLOAD SWAP1 PUSH2 0x100 EXP SWAP1 DIV PUSH20 0xFFFFFFFFFFFFFFFFFFFFFFFFFFFFFFFFFFFFFFFF AND DUP2 JUMP JUMPDEST PUSH1 0x0 PUSH1 0x12 SWAP1 POP SWAP1 JUMP JUMPDEST PUSH1 0xA PUSH1 0x0 SWAP1 SLOAD SWAP1 PUSH2 0x100 EXP SWAP1 DIV PUSH20 0xFFFFFFFFFFFFFFFFFFFFFFFFFFFFFFFFFFFFFFFF AND DUP2 JUMP JUMPDEST PUSH1 0x0 DUP1 PUSH2 0xA95 PUSH2 0xF23 JUMP JUMPDEST SWAP1 POP PUSH2 0xAB6 DUP2 DUP6 DUP6 PUSH2 0xAA7 DUP6 DUP10 PUSH2 0xE9C JUMP JUMPDEST PUSH2 0xAB1 SWAP2 SWAP1 PUSH2 0x1F8B JUMP JUMPDEST PUSH2 0xF2B JUMP JUMPDEST PUSH1 0x1 SWAP2 POP POP SWAP3 SWAP2 POP POP JUMP JUMPDEST PUSH2 0xACB CALLER DUP3 PUSH2 0x1563 JUMP JUMPDEST POP JUMP JUMPDEST PUSH1 0xB PUSH1 0x0 SWAP1 SLOAD SWAP1 PUSH2 0x100 EXP SWAP1 DIV PUSH20 0xFFFFFFFFFFFFFFFFFFFFFFFFFFFFFFFFFFFFFFFF AND PUSH20 0xFFFFFFFFFFFFFFFFFFFFFFFFFFFFFFFFFFFFFFFF AND CALLER PUSH20 0xFFFFFFFFFFFFFFFFFFFFFFFFFFFFFFFFFFFFFFFF AND EQ PUSH2 0xB28 JUMPI PUSH1 0x0 DUP1 REVERT JUMPDEST DUP1 PUSH1 0xA PUSH1 0x0 PUSH2 0x100 EXP DUP2 SLOAD DUP2 PUSH20 0xFFFFFFFFFFFFFFFFFFFFFFFFFFFFFFFFFFFFFFFF MUL NOT AND SWAP1 DUP4 PUSH20 0xFFFFFFFFFFFFFFFFFFFFFFFFFFFFFFFFFFFFFFFF AND MUL OR SWAP1 SSTORE POP POP JUMP JUMPDEST PUSH1 0x0 DUP1 PUSH1 0x0 DUP4 PUSH20 0xFFFFFFFFFFFFFFFFFFFFFFFFFFFFFFFFFFFFFFFF AND PUSH20 0xFFFFFFFFFFFFFFFFFFFFFFFFFFFFFFFFFFFFFFFF AND DUP2 MSTORE PUSH1 0x20 ADD SWAP1 DUP2 MSTORE PUSH1 0x20 ADD PUSH1 0x0 KECCAK256 SLOAD SWAP1 POP SWAP2 SWAP1 POP JUMP JUMPDEST PUSH1 0xB PUSH1 0x0 SWAP1 SLOAD SWAP1 PUSH2 0x100 EXP SWAP1 DIV PUSH20 0xFFFFFFFFFFFFFFFFFFFFFFFFFFFFFFFFFFFFFFFF AND PUSH20 0xFFFFFFFFFFFFFFFFFFFFFFFFFFFFFFFFFFFFFFFF AND CALLER PUSH20 0xFFFFFFFFFFFFFFFFFFFFFFFFFFFFFFFFFFFFFFFF AND EQ PUSH2 0xC0E JUMPI PUSH1 0x0 DUP1 REVERT JUMPDEST PUSH1 0x11 PUSH1 0x14 SWAP1 SLOAD SWAP1 PUSH2 0x100 EXP SWAP1 DIV PUSH1 0xFF AND ISZERO PUSH2 0xC28 JUMPI PUSH1 0x0 DUP1 REVERT JUMPDEST DUP1 PUSH1 0x12 PUSH1 0x0 PUSH2 0x100 EXP DUP2 SLOAD DUP2 PUSH20 0xFFFFFFFFFFFFFFFFFFFFFFFFFFFFFFFFFFFFFFFF MUL NOT AND SWAP1 DUP4 PUSH20 0xFFFFFFFFFFFFFFFFFFFFFFFFFFFFFFFFFFFFFFFF AND MUL OR SWAP1 SSTORE POP PUSH1 0x1 PUSH1 0x11 PUSH1 0x14 PUSH2 0x100 EXP DUP2 SLOAD DUP2 PUSH1 0xFF MUL NOT AND SWAP1 DUP4 ISZERO ISZERO MUL OR SWAP1 SSTORE POP POP JUMP JUMPDEST PUSH1 0x12 PUSH1 0x0 SWAP1 SLOAD SWAP1 PUSH2 0x100 EXP SWAP1 DIV PUSH20 0xFFFFFFFFFFFFFFFFFFFFFFFFFFFFFFFFFFFFFFFF AND DUP2 JUMP JUMPDEST PUSH1 0xB PUSH1 0x0 SWAP1 SLOAD SWAP1 PUSH2 0x100 EXP SWAP1 DIV PUSH20 0xFFFFFFFFFFFFFFFFFFFFFFFFFFFFFFFFFFFFFFFF AND DUP2 JUMP JUMPDEST PUSH1 0x60 PUSH1 0x4 DUP1 SLOAD PUSH2 0xCE2 SWAP1 PUSH2 0x2109 JUMP JUMPDEST DUP1 PUSH1 0x1F ADD PUSH1 0x20 DUP1 SWAP2 DIV MUL PUSH1 0x20 ADD PUSH1 0x40 MLOAD SWAP1 DUP2 ADD PUSH1 0x40 MSTORE DUP1 SWAP3 SWAP2 SWAP1 DUP2 DUP2 MSTORE PUSH1 0x20 ADD DUP3 DUP1 SLOAD PUSH2 0xD0E SWAP1 PUSH2 0x2109 JUMP JUMPDEST DUP1 ISZERO PUSH2 0xD5B JUMPI DUP1 PUSH1 0x1F LT PUSH2 0xD30 JUMPI PUSH2 0x100 DUP1 DUP4 SLOAD DIV MUL DUP4 MSTORE SWAP2 PUSH1 0x20 ADD SWAP2 PUSH2 0xD5B JUMP JUMPDEST DUP3 ADD SWAP2 SWAP1 PUSH1 0x0 MSTORE PUSH1 0x20 PUSH1 0x0 KECCAK256 SWAP1 JUMPDEST DUP2 SLOAD DUP2 MSTORE SWAP1 PUSH1 0x1 ADD SWAP1 PUSH1 0x20 ADD DUP1 DUP4 GT PUSH2 0xD3E JUMPI DUP3 SWAP1 SUB PUSH1 0x1F AND DUP3 ADD SWAP2 JUMPDEST POP POP POP POP POP SWAP1 POP SWAP1 JUMP JUMPDEST PUSH2 0xD6F DUP2 DUP4 PUSH2 0x10F6 JUMP JUMPDEST POP POP JUMP JUMPDEST PUSH1 0x0 DUP1 PUSH2 0xD7E PUSH2 0xF23 JUMP JUMPDEST SWAP1 POP PUSH1 0x0 PUSH2 0xD8C DUP3 DUP7 PUSH2 0xE9C JUMP JUMPDEST SWAP1 POP DUP4 DUP2 LT ISZERO PUSH2 0xDD1 JUMPI PUSH1 0x40 MLOAD PUSH32 0x8C379A000000000000000000000000000000000000000000000000000000000 DUP2 MSTORE PUSH1 0x4 ADD PUSH2 0xDC8 SWAP1 PUSH2 0x1EF9 JUMP JUMPDEST PUSH1 0x40 MLOAD DUP1 SWAP2 SUB SWAP1 REVERT JUMPDEST PUSH2 0xDDE DUP3 DUP7 DUP7 DUP5 SUB PUSH2 0xF2B JUMP JUMPDEST PUSH1 0x1 SWAP3 POP POP POP SWAP3 SWAP2 POP POP JUMP JUMPDEST PUSH1 0x0 DUP1 PUSH2 0xDF5 PUSH2 0xF23 JUMP JUMPDEST SWAP1 POP PUSH2 0xE02 DUP2 DUP6 DUP6 PUSH2 0x12E2 JUMP JUMPDEST PUSH1 0x1 SWAP2 POP POP SWAP3 SWAP2 POP POP JUMP JUMPDEST PUSH1 0xD DUP2 DUP2 SLOAD DUP2 LT PUSH2 0xE1D JUMPI PUSH1 0x0 DUP1 REVERT JUMPDEST SWAP1 PUSH1 0x0 MSTORE PUSH1 0x20 PUSH1 0x0 KECCAK256 ADD PUSH1 0x0 SWAP2 POP SLOAD SWAP1 PUSH2 0x100 EXP SWAP1 DIV PUSH20 0xFFFFFFFFFFFFFFFFFFFFFFFFFFFFFFFFFFFFFFFF AND DUP2 JUMP JUMPDEST PUSH1 0x0 PUSH1 0x12 PUSH1 0x0 SWAP1 SLOAD SWAP1 PUSH2 0x100 EXP SWAP1 DIV PUSH20 0xFFFFFFFFFFFFFFFFFFFFFFFFFFFFFFFFFFFFFFFF AND SWAP1 POP SWAP1 JUMP JUMPDEST PUSH1 0xC PUSH1 0x0 SWAP1 SLOAD SWAP1 PUSH2 0x100 EXP SWAP1 DIV PUSH20 0xFFFFFFFFFFFFFFFFFFFFFFFFFFFFFFFFFFFFFFFF AND DUP2 JUMP JUMPDEST PUSH1 0x0 PUSH1 0x1 PUSH1 0x0 DUP5 PUSH20 0xFFFFFFFFFFFFFFFFFFFFFFFFFFFFFFFFFFFFFFFF AND PUSH20 0xFFFFFFFFFFFFFFFFFFFFFFFFFFFFFFFFFFFFFFFF AND DUP2 MSTORE PUSH1 0x20 ADD SWAP1 DUP2 MSTORE PUSH1 0x20 ADD PUSH1 0x0 KECCAK256 PUSH1 0x0 DUP4 PUSH20 0xFFFFFFFFFFFFFFFFFFFFFFFFFFFFFFFFFFFFFFFF AND PUSH20 0xFFFFFFFFFFFFFFFFFFFFFFFFFFFFFFFFFFFFFFFF AND DUP2 MSTORE PUSH1 0x20 ADD SWAP1 DUP2 MSTORE PUSH1 0x20 ADD PUSH1 0x0 KECCAK256 SLOAD SWAP1 POP SWAP3 SWAP2 POP POP JUMP JUMPDEST PUSH1 0x0 CALLER SWAP1 POP SWAP1 JUMP JUMPDEST PUSH1 0x0 PUSH20 0xFFFFFFFFFFFFFFFFFFFFFFFFFFFFFFFFFFFFFFFF AND DUP4 PUSH20 0xFFFFFFFFFFFFFFFFFFFFFFFFFFFFFFFFFFFFFFFF AND EQ ISZERO PUSH2 0xF9B JUMPI PUSH1 0x40 MLOAD PUSH32 0x8C379A000000000000000000000000000000000000000000000000000000000 DUP2 MSTORE PUSH1 0x4 ADD PUSH2 0xF92 SWAP1 PUSH2 0x1ED9 JUMP JUMPDEST PUSH1 0x40 MLOAD DUP1 SWAP2 SUB SWAP1 REVERT JUMPDEST PUSH1 0x0 PUSH20 0xFFFFFFFFFFFFFFFFFFFFFFFFFFFFFFFFFFFFFFFF AND DUP3 PUSH20 0xFFFFFFFFFFFFFFFFFFFFFFFFFFFFFFFFFFFFFFFF AND EQ ISZERO PUSH2 0x100B JUMPI PUSH1 0x40 MLOAD PUSH32 0x8C379A000000000000000000000000000000000000000000000000000000000 DUP2 MSTORE PUSH1 0x4 ADD PUSH2 0x1002 SWAP1 PUSH2 0x1E39 JUMP JUMPDEST PUSH1 0x40 MLOAD DUP1 SWAP2 SUB SWAP1 REVERT JUMPDEST DUP1 PUSH1 0x1 PUSH1 0x0 DUP6 PUSH20 0xFFFFFFFFFFFFFFFFFFFFFFFFFFFFFFFFFFFFFFFF AND PUSH20 0xFFFFFFFFFFFFFFFFFFFFFFFFFFFFFFFFFFFFFFFF AND DUP2 MSTORE PUSH1 0x20 ADD SWAP1 DUP2 MSTORE PUSH1 0x20 ADD PUSH1 0x0 KECCAK256 PUSH1 0x0 DUP5 PUSH20 0xFFFFFFFFFFFFFFFFFFFFFFFFFFFFFFFFFFFFFFFF AND PUSH20 0xFFFFFFFFFFFFFFFFFFFFFFFFFFFFFFFFFFFFFFFF AND DUP2 MSTORE PUSH1 0x20 ADD SWAP1 DUP2 MSTORE PUSH1 0x20 ADD PUSH1 0x0 KECCAK256 DUP2 SWAP1 SSTORE POP DUP2 PUSH20 0xFFFFFFFFFFFFFFFFFFFFFFFFFFFFFFFFFFFFFFFF AND DUP4 PUSH20 0xFFFFFFFFFFFFFFFFFFFFFFFFFFFFFFFFFFFFFFFF AND PUSH32 0x8C5BE1E5EBEC7D5BD14F71427D1E84F3DD0314C0F7B2291E5B200AC8C7C3B925 DUP4 PUSH1 0x40 MLOAD PUSH2 0x10E9 SWAP2 SWAP1 PUSH2 0x1F39 JUMP JUMPDEST PUSH1 0x40 MLOAD DUP1 SWAP2 SUB SWAP1 LOG3 POP POP POP JUMP JUMPDEST PUSH1 0x0 PUSH20 0xFFFFFFFFFFFFFFFFFFFFFFFFFFFFFFFFFFFFFFFF AND DUP3 PUSH20 0xFFFFFFFFFFFFFFFFFFFFFFFFFFFFFFFFFFFFFFFF AND EQ ISZERO PUSH2 0x1166 JUMPI PUSH1 0x40 MLOAD PUSH32 0x8C379A000000000000000000000000000000000000000000000000000000000 DUP2 MSTORE PUSH1 0x4 ADD PUSH2 0x115D SWAP1 PUSH2 0x1F19 JUMP JUMPDEST PUSH1 0x40 MLOAD DUP1 SWAP2 SUB SWAP1 REVERT JUMPDEST PUSH2 0x1172 PUSH1 0x0 DUP4 DUP4 PUSH2 0x173A JUMP JUMPDEST DUP1 PUSH1 0x2 PUSH1 0x0 DUP3 DUP3 SLOAD PUSH2 0x1184 SWAP2 SWAP1 PUSH2 0x1F8B JUMP JUMPDEST SWAP3 POP POP DUP2 SWAP1 SSTORE POP DUP1 PUSH1 0x0 DUP1 DUP5 PUSH20 0xFFFFFFFFFFFFFFFFFFFFFFFFFFFFFFFFFFFFFFFF AND PUSH20 0xFFFFFFFFFFFFFFFFFFFFFFFFFFFFFFFFFFFFFFFF AND DUP2 MSTORE PUSH1 0x20 ADD SWAP1 DUP2 MSTORE PUSH1 0x20 ADD PUSH1 0x0 KECCAK256 PUSH1 0x0 DUP3 DUP3 SLOAD PUSH2 0x11D9 SWAP2 SWAP1 PUSH2 0x1F8B JUMP JUMPDEST SWAP3 POP POP DUP2 SWAP1 SSTORE POP DUP2 PUSH20 0xFFFFFFFFFFFFFFFFFFFFFFFFFFFFFFFFFFFFFFFF AND PUSH1 0x0 PUSH20 0xFFFFFFFFFFFFFFFFFFFFFFFFFFFFFFFFFFFFFFFF AND PUSH32 0xDDF252AD1BE2C89B69C2B068FC378DAA952BA7F163C4A11628F55A4DF523B3EF DUP4 PUSH1 0x40 MLOAD PUSH2 0x123E SWAP2 SWAP1 PUSH2 0x1F39 JUMP JUMPDEST PUSH1 0x40 MLOAD DUP1 SWAP2 SUB SWAP1 LOG3 PUSH2 0x1252 PUSH1 0x0 DUP4 DUP4 PUSH2 0x173F JUMP JUMPDEST POP POP JUMP JUMPDEST PUSH1 0x0 PUSH2 0x1262 DUP5 DUP5 PUSH2 0xE9C JUMP JUMPDEST SWAP1 POP PUSH32 0xFFFFFFFFFFFFFFFFFFFFFFFFFFFFFFFFFFFFFFFFFFFFFFFFFFFFFFFFFFFFFFFF DUP2 EQ PUSH2 0x12DC JUMPI DUP2 DUP2 LT ISZERO PUSH2 0x12CE JUMPI PUSH1 0x40 MLOAD PUSH32 0x8C379A000000000000000000000000000000000000000000000000000000000 DUP2 MSTORE PUSH1 0x4 ADD PUSH2 0x12C5 SWAP1 PUSH2 0x1E59 JUMP JUMPDEST PUSH1 0x40 MLOAD DUP1 SWAP2 SUB SWAP1 REVERT JUMPDEST PUSH2 0x12DB DUP5 DUP5 DUP5 DUP5 SUB PUSH2 0xF2B JUMP JUMPDEST JUMPDEST POP POP POP POP JUMP JUMPDEST PUSH1 0x0 PUSH20 0xFFFFFFFFFFFFFFFFFFFFFFFFFFFFFFFFFFFFFFFF AND DUP4 PUSH20 0xFFFFFFFFFFFFFFFFFFFFFFFFFFFFFFFFFFFFFFFF AND EQ ISZERO PUSH2 0x1352 JUMPI PUSH1 0x40 MLOAD PUSH32 0x8C379A000000000000000000000000000000000000000000000000000000000 DUP2 MSTORE PUSH1 0x4 ADD PUSH2 0x1349 SWAP1 PUSH2 0x1EB9 JUMP JUMPDEST PUSH1 0x40 MLOAD DUP1 SWAP2 SUB SWAP1 REVERT JUMPDEST PUSH1 0x0 PUSH20 0xFFFFFFFFFFFFFFFFFFFFFFFFFFFFFFFFFFFFFFFF AND DUP3 PUSH20 0xFFFFFFFFFFFFFFFFFFFFFFFFFFFFFFFFFFFFFFFF AND EQ ISZERO PUSH2 0x13C2 JUMPI PUSH1 0x40 MLOAD PUSH32 0x8C379A000000000000000000000000000000000000000000000000000000000 DUP2 MSTORE PUSH1 0x4 ADD PUSH2 0x13B9 SWAP1 PUSH2 0x1DF9 JUMP JUMPDEST PUSH1 0x40 MLOAD DUP1 SWAP2 SUB SWAP1 REVERT JUMPDEST PUSH2 0x13CD DUP4 DUP4 DUP4 PUSH2 0x173A JUMP JUMPDEST PUSH1 0x0 DUP1 PUSH1 0x0 DUP6 PUSH20 0xFFFFFFFFFFFFFFFFFFFFFFFFFFFFFFFFFFFFFFFF AND PUSH20 0xFFFFFFFFFFFFFFFFFFFFFFFFFFFFFFFFFFFFFFFF AND DUP2 MSTORE PUSH1 0x20 ADD SWAP1 DUP2 MSTORE PUSH1 0x20 ADD PUSH1 0x0 KECCAK256 SLOAD SWAP1 POP DUP2 DUP2 LT ISZERO PUSH2 0x1453 JUMPI PUSH1 0x40 MLOAD PUSH32 0x8C379A000000000000000000000000000000000000000000000000000000000 DUP2 MSTORE PUSH1 0x4 ADD PUSH2 0x144A SWAP1 PUSH2 0x1E79 JUMP JUMPDEST PUSH1 0x40 MLOAD DUP1 SWAP2 SUB SWAP1 REVERT JUMPDEST DUP2 DUP2 SUB PUSH1 0x0 DUP1 DUP7 PUSH20 0xFFFFFFFFFFFFFFFFFFFFFFFFFFFFFFFFFFFFFFFF AND PUSH20 0xFFFFFFFFFFFFFFFFFFFFFFFFFFFFFFFFFFFFFFFF AND DUP2 MSTORE PUSH1 0x20 ADD SWAP1 DUP2 MSTORE PUSH1 0x20 ADD PUSH1 0x0 KECCAK256 DUP2 SWAP1 SSTORE POP DUP2 PUSH1 0x0 DUP1 DUP6 PUSH20 0xFFFFFFFFFFFFFFFFFFFFFFFFFFFFFFFFFFFFFFFF AND PUSH20 0xFFFFFFFFFFFFFFFFFFFFFFFFFFFFFFFFFFFFFFFF AND DUP2 MSTORE PUSH1 0x20 ADD SWAP1 DUP2 MSTORE PUSH1 0x20 ADD PUSH1 0x0 KECCAK256 PUSH1 0x0 DUP3 DUP3 SLOAD PUSH2 0x14E6 SWAP2 SWAP1 PUSH2 0x1F8B JUMP JUMPDEST SWAP3 POP POP DUP2 SWAP1 SSTORE POP DUP3 PUSH20 0xFFFFFFFFFFFFFFFFFFFFFFFFFFFFFFFFFFFFFFFF AND DUP5 PUSH20 0xFFFFFFFFFFFFFFFFFFFFFFFFFFFFFFFFFFFFFFFF AND PUSH32 0xDDF252AD1BE2C89B69C2B068FC378DAA952BA7F163C4A11628F55A4DF523B3EF DUP5 PUSH1 0x40 MLOAD PUSH2 0x154A SWAP2 SWAP1 PUSH2 0x1F39 JUMP JUMPDEST PUSH1 0x40 MLOAD DUP1 SWAP2 SUB SWAP1 LOG3 PUSH2 0x155D DUP5 DUP5 DUP5 PUSH2 0x173F JUMP JUMPDEST POP POP POP POP JUMP JUMPDEST PUSH1 0x0 PUSH20 0xFFFFFFFFFFFFFFFFFFFFFFFFFFFFFFFFFFFFFFFF AND DUP3 PUSH20 0xFFFFFFFFFFFFFFFFFFFFFFFFFFFFFFFFFFFFFFFF AND EQ ISZERO PUSH2 0x15D3 JUMPI PUSH1 0x40 MLOAD PUSH32 0x8C379A000000000000000000000000000000000000000000000000000000000 DUP2 MSTORE PUSH1 0x4 ADD PUSH2 0x15CA SWAP1 PUSH2 0x1E99 JUMP JUMPDEST PUSH1 0x40 MLOAD DUP1 SWAP2 SUB SWAP1 REVERT JUMPDEST PUSH2 0x15DF DUP3 PUSH1 0x0 DUP4 PUSH2 0x173A JUMP JUMPDEST PUSH1 0x0 DUP1 PUSH1 0x0 DUP5 PUSH20 0xFFFFFFFFFFFFFFFFFFFFFFFFFFFFFFFFFFFFFFFF AND PUSH20 0xFFFFFFFFFFFFFFFFFFFFFFFFFFFFFFFFFFFFFFFF AND DUP2 MSTORE PUSH1 0x20 ADD SWAP1 DUP2 MSTORE PUSH1 0x20 ADD PUSH1 0x0 KECCAK256 SLOAD SWAP1 POP DUP2 DUP2 LT ISZERO PUSH2 0x1665 JUMPI PUSH1 0x40 MLOAD PUSH32 0x8C379A000000000000000000000000000000000000000000000000000000000 DUP2 MSTORE PUSH1 0x4 ADD PUSH2 0x165C SWAP1 PUSH2 0x1E19 JUMP JUMPDEST PUSH1 0x40 MLOAD DUP1 SWAP2 SUB SWAP1 REVERT JUMPDEST DUP2 DUP2 SUB PUSH1 0x0 DUP1 DUP6 PUSH20 0xFFFFFFFFFFFFFFFFFFFFFFFFFFFFFFFFFFFFFFFF AND PUSH20 0xFFFFFFFFFFFFFFFFFFFFFFFFFFFFFFFFFFFFFFFF AND DUP2 MSTORE PUSH1 0x20 ADD SWAP1 DUP2 MSTORE PUSH1 0x20 ADD PUSH1 0x0 KECCAK256 DUP2 SWAP1 SSTORE POP DUP2 PUSH1 0x2 PUSH1 0x0 DUP3 DUP3 SLOAD PUSH2 0x16BC SWAP2 SWAP1 PUSH2 0x1FE1 JUMP JUMPDEST SWAP3 POP POP DUP2 SWAP1 SSTORE POP PUSH1 0x0 PUSH20 0xFFFFFFFFFFFFFFFFFFFFFFFFFFFFFFFFFFFFFFFF AND DUP4 PUSH20 0xFFFFFFFFFFFFFFFFFFFFFFFFFFFFFFFFFFFFFFFF AND PUSH32 0xDDF252AD1BE2C89B69C2B068FC378DAA952BA7F163C4A11628F55A4DF523B3EF DUP5 PUSH1 0x40 MLOAD PUSH2 0x1721 SWAP2 SWAP1 PUSH2 0x1F39 JUMP JUMPDEST PUSH1 0x40 MLOAD DUP1 SWAP2 SUB SWAP1 LOG3 PUSH2 0x1735 DUP4 PUSH1 0x0 DUP5 PUSH2 0x173F JUMP JUMPDEST POP POP POP JUMP JUMPDEST POP POP POP JUMP JUMPDEST PUSH1 0x12 PUSH1 0x14 SWAP1 SLOAD SWAP1 PUSH2 0x100 EXP SWAP1 DIV PUSH1 0xFF AND ISZERO PUSH2 0x1859 JUMPI PUSH1 0x12 PUSH1 0x0 SWAP1 SLOAD SWAP1 PUSH2 0x100 EXP SWAP1 DIV PUSH20 0xFFFFFFFFFFFFFFFFFFFFFFFFFFFFFFFFFFFFFFFF AND PUSH20 0xFFFFFFFFFFFFFFFFFFFFFFFFFFFFFFFFFFFFFFFF AND PUSH4 0x49DD1262 PUSH1 0x40 MLOAD DUP2 PUSH4 0xFFFFFFFF AND PUSH1 0xE0 SHL DUP2 MSTORE PUSH1 0x4 ADD PUSH1 0x0 PUSH1 0x40 MLOAD DUP1 DUP4 SUB DUP2 PUSH1 0x0 DUP8 DUP1 EXTCODESIZE ISZERO DUP1 ISZERO PUSH2 0x17BE JUMPI PUSH1 0x0 DUP1 REVERT JUMPDEST POP GAS CALL ISZERO DUP1 ISZERO PUSH2 0x17D2 JUMPI RETURNDATASIZE PUSH1 0x0 DUP1 RETURNDATACOPY RETURNDATASIZE PUSH1 0x0 REVERT JUMPDEST POP POP POP POP PUSH1 0x12 PUSH1 0x0 SWAP1 SLOAD SWAP1 PUSH2 0x100 EXP SWAP1 DIV PUSH20 0xFFFFFFFFFFFFFFFFFFFFFFFFFFFFFFFFFFFFFFFF AND PUSH20 0xFFFFFFFFFFFFFFFFFFFFFFFFFFFFFFFFFFFFFFFF AND PUSH4 0xD36FC0FF PUSH1 0x40 MLOAD DUP2 PUSH4 0xFFFFFFFF AND PUSH1 0xE0 SHL DUP2 MSTORE PUSH1 0x4 ADD PUSH1 0x0 PUSH1 0x40 MLOAD DUP1 DUP4 SUB DUP2 PUSH1 0x0 DUP8 DUP1 EXTCODESIZE ISZERO DUP1 ISZERO PUSH2 0x1840 JUMPI PUSH1 0x0 DUP1 REVERT JUMPDEST POP GAS CALL ISZERO DUP1 ISZERO PUSH2 0x1854 JUMPI RETURNDATASIZE PUSH1 0x0 DUP1 RETURNDATACOPY RETURNDATASIZE PUSH1 0x0 REVERT JUMPDEST POP POP POP POP JUMPDEST POP POP POP JUMP JUMPDEST PUSH1 0x0 DUP2 CALLDATALOAD SWAP1 POP PUSH2 0x186D DUP2 PUSH2 0x2479 JUMP JUMPDEST SWAP3 SWAP2 POP POP JUMP JUMPDEST PUSH1 0x0 DUP2 MLOAD SWAP1 POP PUSH2 0x1882 DUP2 PUSH2 0x2479 JUMP JUMPDEST SWAP3 SWAP2 POP POP JUMP JUMPDEST PUSH1 0x0 DUP2 CALLDATALOAD SWAP1 POP PUSH2 0x1897 DUP2 PUSH2 0x2490 JUMP JUMPDEST SWAP3 SWAP2 POP POP JUMP JUMPDEST PUSH1 0x0 DUP2 CALLDATALOAD SWAP1 POP PUSH2 0x18AC DUP2 PUSH2 0x24A7 JUMP JUMPDEST SWAP3 SWAP2 POP POP JUMP JUMPDEST PUSH1 0x0 DUP2 MLOAD SWAP1 POP PUSH2 0x18C1 DUP2 PUSH2 0x24A7 JUMP JUMPDEST SWAP3 SWAP2 POP POP JUMP JUMPDEST PUSH1 0x0 PUSH1 0x20 DUP3 DUP5 SUB SLT ISZERO PUSH2 0x18DD JUMPI PUSH2 0x18DC PUSH2 0x2199 JUMP JUMPDEST JUMPDEST PUSH1 0x0 PUSH2 0x18EB DUP5 DUP3 DUP6 ADD PUSH2 0x185E JUMP JUMPDEST SWAP2 POP POP SWAP3 SWAP2 POP POP JUMP JUMPDEST PUSH1 0x0 PUSH1 0x20 DUP3 DUP5 SUB SLT ISZERO PUSH2 0x190A JUMPI PUSH2 0x1909 PUSH2 0x2199 JUMP JUMPDEST JUMPDEST PUSH1 0x0 PUSH2 0x1918 DUP5 DUP3 DUP6 ADD PUSH2 0x1873 JUMP JUMPDEST SWAP2 POP POP SWAP3 SWAP2 POP POP JUMP JUMPDEST PUSH1 0x0 DUP1 PUSH1 0x40 DUP4 DUP6 SUB SLT ISZERO PUSH2 0x1938 JUMPI PUSH2 0x1937 PUSH2 0x2199 JUMP JUMPDEST JUMPDEST PUSH1 0x0 PUSH2 0x1946 DUP6 DUP3 DUP7 ADD PUSH2 0x185E JUMP JUMPDEST SWAP3 POP POP PUSH1 0x20 PUSH2 0x1957 DUP6 DUP3 DUP7 ADD PUSH2 0x185E JUMP JUMPDEST SWAP2 POP POP SWAP3 POP SWAP3 SWAP1 POP JUMP JUMPDEST PUSH1 0x0 DUP1 PUSH1 0x0 PUSH1 0x60 DUP5 DUP7 SUB SLT ISZERO PUSH2 0x197A JUMPI PUSH2 0x1979 PUSH2 0x2199 JUMP JUMPDEST JUMPDEST PUSH1 0x0 PUSH2 0x1988 DUP7 DUP3 DUP8 ADD PUSH2 0x185E JUMP JUMPDEST SWAP4 POP POP PUSH1 0x20 PUSH2 0x1999 DUP7 DUP3 DUP8 ADD PUSH2 0x185E JUMP JUMPDEST SWAP3 POP POP PUSH1 0x40 PUSH2 0x19AA DUP7 DUP3 DUP8 ADD PUSH2 0x189D JUMP JUMPDEST SWAP2 POP POP SWAP3 POP SWAP3 POP SWAP3 JUMP JUMPDEST PUSH1 0x0 DUP1 PUSH1 0x40 DUP4 DUP6 SUB SLT ISZERO PUSH2 0x19CB JUMPI PUSH2 0x19CA PUSH2 0x2199 JUMP JUMPDEST JUMPDEST PUSH1 0x0 PUSH2 0x19D9 DUP6 DUP3 DUP7 ADD PUSH2 0x185E JUMP JUMPDEST SWAP3 POP POP PUSH1 0x20 PUSH2 0x19EA DUP6 DUP3 DUP7 ADD PUSH2 0x189D JUMP JUMPDEST SWAP2 POP POP SWAP3 POP SWAP3 SWAP1 POP JUMP JUMPDEST PUSH1 0x0 PUSH1 0x20 DUP3 DUP5 SUB SLT ISZERO PUSH2 0x1A0A JUMPI PUSH2 0x1A09 PUSH2 0x2199 JUMP JUMPDEST JUMPDEST PUSH1 0x0 PUSH2 0x1A18 DUP5 DUP3 DUP6 ADD PUSH2 0x1888 JUMP JUMPDEST SWAP2 POP POP SWAP3 SWAP2 POP POP JUMP JUMPDEST PUSH1 0x0 PUSH1 0x20 DUP3 DUP5 SUB SLT ISZERO PUSH2 0x1A37 JUMPI PUSH2 0x1A36 PUSH2 0x2199 JUMP JUMPDEST JUMPDEST PUSH1 0x0 PUSH2 0x1A45 DUP5 DUP3 DUP6 ADD PUSH2 0x189D JUMP JUMPDEST SWAP2 POP POP SWAP3 SWAP2 POP POP JUMP JUMPDEST PUSH1 0x0 DUP1 PUSH1 0x40 DUP4 DUP6 SUB SLT ISZERO PUSH2 0x1A65 JUMPI PUSH2 0x1A64 PUSH2 0x2199 JUMP JUMPDEST JUMPDEST PUSH1 0x0 PUSH2 0x1A73 DUP6 DUP3 DUP7 ADD PUSH2 0x189D JUMP JUMPDEST SWAP3 POP POP PUSH1 0x20 PUSH2 0x1A84 DUP6 DUP3 DUP7 ADD PUSH2 0x185E JUMP JUMPDEST SWAP2 POP POP SWAP3 POP SWAP3 SWAP1 POP JUMP JUMPDEST PUSH1 0x0 DUP1 PUSH1 0x0 PUSH1 0x60 DUP5 DUP7 SUB SLT ISZERO PUSH2 0x1AA7 JUMPI PUSH2 0x1AA6 PUSH2 0x2199 JUMP JUMPDEST JUMPDEST PUSH1 0x0 PUSH2 0x1AB5 DUP7 DUP3 DUP8 ADD PUSH2 0x18B2 JUMP JUMPDEST SWAP4 POP POP PUSH1 0x20 PUSH2 0x1AC6 DUP7 DUP3 DUP8 ADD PUSH2 0x18B2 JUMP JUMPDEST SWAP3 POP POP PUSH1 0x40 PUSH2 0x1AD7 DUP7 DUP3 DUP8 ADD PUSH2 0x18B2 JUMP JUMPDEST SWAP2 POP POP SWAP3 POP SWAP3 POP SWAP3 JUMP JUMPDEST PUSH2 0x1AEA DUP2 PUSH2 0x2027 JUMP JUMPDEST DUP3 MSTORE POP POP JUMP JUMPDEST PUSH2 0x1AF9 DUP2 PUSH2 0x2015 JUMP JUMPDEST DUP3 MSTORE POP POP JUMP JUMPDEST PUSH2 0x1B08 DUP2 PUSH2 0x2039 JUMP JUMPDEST DUP3 MSTORE POP POP JUMP JUMPDEST PUSH2 0x1B17 DUP2 PUSH2 0x208E JUMP JUMPDEST DUP3 MSTORE POP POP JUMP JUMPDEST PUSH2 0x1B26 DUP2 PUSH2 0x20A0 JUMP JUMPDEST DUP3 MSTORE POP POP JUMP JUMPDEST PUSH1 0x0 PUSH2 0x1B37 DUP3 PUSH2 0x1F6F JUMP JUMPDEST PUSH2 0x1B41 DUP2 DUP6 PUSH2 0x1F7A JUMP JUMPDEST SWAP4 POP PUSH2 0x1B51 DUP2 DUP6 PUSH1 0x20 DUP7 ADD PUSH2 0x20D6 JUMP JUMPDEST PUSH2 0x1B5A DUP2 PUSH2 0x219E JUMP JUMPDEST DUP5 ADD SWAP2 POP POP SWAP3 SWAP2 POP POP JUMP JUMPDEST PUSH1 0x0 PUSH2 0x1B72 PUSH1 0x23 DUP4 PUSH2 0x1F7A JUMP JUMPDEST SWAP2 POP PUSH2 0x1B7D DUP3 PUSH2 0x21AF JUMP JUMPDEST PUSH1 0x40 DUP3 ADD SWAP1 POP SWAP2 SWAP1 POP JUMP JUMPDEST PUSH1 0x0 PUSH2 0x1B95 PUSH1 0x22 DUP4 PUSH2 0x1F7A JUMP JUMPDEST SWAP2 POP PUSH2 0x1BA0 DUP3 PUSH2 0x21FE JUMP JUMPDEST PUSH1 0x40 DUP3 ADD SWAP1 POP SWAP2 SWAP1 POP JUMP JUMPDEST PUSH1 0x0 PUSH2 0x1BB8 PUSH1 0x22 DUP4 PUSH2 0x1F7A JUMP JUMPDEST SWAP2 POP PUSH2 0x1BC3 DUP3 PUSH2 0x224D JUMP JUMPDEST PUSH1 0x40 DUP3 ADD SWAP1 POP SWAP2 SWAP1 POP JUMP JUMPDEST PUSH1 0x0 PUSH2 0x1BDB PUSH1 0x1D DUP4 PUSH2 0x1F7A JUMP JUMPDEST SWAP2 POP PUSH2 0x1BE6 DUP3 PUSH2 0x229C JUMP JUMPDEST PUSH1 0x20 DUP3 ADD SWAP1 POP SWAP2 SWAP1 POP JUMP JUMPDEST PUSH1 0x0 PUSH2 0x1BFE PUSH1 0x26 DUP4 PUSH2 0x1F7A JUMP JUMPDEST SWAP2 POP PUSH2 0x1C09 DUP3 PUSH2 0x22C5 JUMP JUMPDEST PUSH1 0x40 DUP3 ADD SWAP1 POP SWAP2 SWAP1 POP JUMP JUMPDEST PUSH1 0x0 PUSH2 0x1C21 PUSH1 0x21 DUP4 PUSH2 0x1F7A JUMP JUMPDEST SWAP2 POP PUSH2 0x1C2C DUP3 PUSH2 0x2314 JUMP JUMPDEST PUSH1 0x40 DUP3 ADD SWAP1 POP SWAP2 SWAP1 POP JUMP JUMPDEST PUSH1 0x0 PUSH2 0x1C44 PUSH1 0x25 DUP4 PUSH2 0x1F7A JUMP JUMPDEST SWAP2 POP PUSH2 0x1C4F DUP3 PUSH2 0x2363 JUMP JUMPDEST PUSH1 0x40 DUP3 ADD SWAP1 POP SWAP2 SWAP1 POP JUMP JUMPDEST PUSH1 0x0 PUSH2 0x1C67 PUSH1 0x24 DUP4 PUSH2 0x1F7A JUMP JUMPDEST SWAP2 POP PUSH2 0x1C72 DUP3 PUSH2 0x23B2 JUMP JUMPDEST PUSH1 0x40 DUP3 ADD SWAP1 POP SWAP2 SWAP1 POP JUMP JUMPDEST PUSH1 0x0 PUSH2 0x1C8A PUSH1 0x25 DUP4 PUSH2 0x1F7A JUMP JUMPDEST SWAP2 POP PUSH2 0x1C95 DUP3 PUSH2 0x2401 JUMP JUMPDEST PUSH1 0x40 DUP3 ADD SWAP1 POP SWAP2 SWAP1 POP JUMP JUMPDEST PUSH1 0x0 PUSH2 0x1CAD PUSH1 0x1F DUP4 PUSH2 0x1F7A JUMP JUMPDEST SWAP2 POP PUSH2 0x1CB8 DUP3 PUSH2 0x2450 JUMP JUMPDEST PUSH1 0x20 DUP3 ADD SWAP1 POP SWAP2 SWAP1 POP JUMP JUMPDEST PUSH2 0x1CCC DUP2 PUSH2 0x2077 JUMP JUMPDEST DUP3 MSTORE POP POP JUMP JUMPDEST PUSH2 0x1CDB DUP2 PUSH2 0x2081 JUMP JUMPDEST DUP3 MSTORE POP POP JUMP JUMPDEST PUSH1 0x0 PUSH1 0x20 DUP3 ADD SWAP1 POP PUSH2 0x1CF6 PUSH1 0x0 DUP4 ADD DUP5 PUSH2 0x1AF0 JUMP JUMPDEST SWAP3 SWAP2 POP POP JUMP JUMPDEST PUSH1 0x0 PUSH1 0x20 DUP3 ADD SWAP1 POP PUSH2 0x1D11 PUSH1 0x0 DUP4 ADD DUP5 PUSH2 0x1AE1 JUMP JUMPDEST SWAP3 SWAP2 POP POP JUMP JUMPDEST PUSH1 0x0 PUSH1 0x40 DUP3 ADD SWAP1 POP PUSH2 0x1D2C PUSH1 0x0 DUP4 ADD DUP6 PUSH2 0x1AF0 JUMP JUMPDEST PUSH2 0x1D39 PUSH1 0x20 DUP4 ADD DUP5 PUSH2 0x1AF0 JUMP JUMPDEST SWAP4 SWAP3 POP POP POP JUMP JUMPDEST PUSH1 0x0 PUSH1 0xC0 DUP3 ADD SWAP1 POP PUSH2 0x1D55 PUSH1 0x0 DUP4 ADD DUP10 PUSH2 0x1AF0 JUMP JUMPDEST PUSH2 0x1D62 PUSH1 0x20 DUP4 ADD DUP9 PUSH2 0x1CC3 JUMP JUMPDEST PUSH2 0x1D6F PUSH1 0x40 DUP4 ADD DUP8 PUSH2 0x1B1D JUMP JUMPDEST PUSH2 0x1D7C PUSH1 0x60 DUP4 ADD DUP7 PUSH2 0x1B1D JUMP JUMPDEST PUSH2 0x1D89 PUSH1 0x80 DUP4 ADD DUP6 PUSH2 0x1AF0 JUMP JUMPDEST PUSH2 0x1D96 PUSH1 0xA0 DUP4 ADD DUP5 PUSH2 0x1CC3 JUMP JUMPDEST SWAP8 SWAP7 POP POP POP POP POP POP POP JUMP JUMPDEST PUSH1 0x0 PUSH1 0x20 DUP3 ADD SWAP1 POP PUSH2 0x1DB6 PUSH1 0x0 DUP4 ADD DUP5 PUSH2 0x1AFF JUMP JUMPDEST SWAP3 SWAP2 POP POP JUMP JUMPDEST PUSH1 0x0 PUSH1 0x20 DUP3 ADD SWAP1 POP PUSH2 0x1DD1 PUSH1 0x0 DUP4 ADD DUP5 PUSH2 0x1B0E JUMP JUMPDEST SWAP3 SWAP2 POP POP JUMP JUMPDEST PUSH1 0x0 PUSH1 0x20 DUP3 ADD SWAP1 POP DUP2 DUP2 SUB PUSH1 0x0 DUP4 ADD MSTORE PUSH2 0x1DF1 DUP2 DUP5 PUSH2 0x1B2C JUMP JUMPDEST SWAP1 POP SWAP3 SWAP2 POP POP JUMP JUMPDEST PUSH1 0x0 PUSH1 0x20 DUP3 ADD SWAP1 POP DUP2 DUP2 SUB PUSH1 0x0 DUP4 ADD MSTORE PUSH2 0x1E12 DUP2 PUSH2 0x1B65 JUMP JUMPDEST SWAP1 POP SWAP2 SWAP1 POP JUMP JUMPDEST PUSH1 0x0 PUSH1 0x20 DUP3 ADD SWAP1 POP DUP2 DUP2 SUB PUSH1 0x0 DUP4 ADD MSTORE PUSH2 0x1E32 DUP2 PUSH2 0x1B88 JUMP JUMPDEST SWAP1 POP SWAP2 SWAP1 POP JUMP JUMPDEST PUSH1 0x0 PUSH1 0x20 DUP3 ADD SWAP1 POP DUP2 DUP2 SUB PUSH1 0x0 DUP4 ADD MSTORE PUSH2 0x1E52 DUP2 PUSH2 0x1BAB JUMP JUMPDEST SWAP1 POP SWAP2 SWAP1 POP JUMP JUMPDEST PUSH1 0x0 PUSH1 0x20 DUP3 ADD SWAP1 POP DUP2 DUP2 SUB PUSH1 0x0 DUP4 ADD MSTORE PUSH2 0x1E72 DUP2 PUSH2 0x1BCE JUMP JUMPDEST SWAP1 POP SWAP2 SWAP1 POP JUMP JUMPDEST PUSH1 0x0 PUSH1 0x20 DUP3 ADD SWAP1 POP DUP2 DUP2 SUB PUSH1 0x0 DUP4 ADD MSTORE PUSH2 0x1E92 DUP2 PUSH2 0x1BF1 JUMP JUMPDEST SWAP1 POP SWAP2 SWAP1 POP JUMP JUMPDEST PUSH1 0x0 PUSH1 0x20 DUP3 ADD SWAP1 POP DUP2 DUP2 SUB PUSH1 0x0 DUP4 ADD MSTORE PUSH2 0x1EB2 DUP2 PUSH2 0x1C14 JUMP JUMPDEST SWAP1 POP SWAP2 SWAP1 POP JUMP JUMPDEST PUSH1 0x0 PUSH1 0x20 DUP3 ADD SWAP1 POP DUP2 DUP2 SUB PUSH1 0x0 DUP4 ADD MSTORE PUSH2 0x1ED2 DUP2 PUSH2 0x1C37 JUMP JUMPDEST SWAP1 POP SWAP2 SWAP1 POP JUMP JUMPDEST PUSH1 0x0 PUSH1 0x20 DUP3 ADD SWAP1 POP DUP2 DUP2 SUB PUSH1 0x0 DUP4 ADD MSTORE PUSH2 0x1EF2 DUP2 PUSH2 0x1C5A JUMP JUMPDEST SWAP1 POP SWAP2 SWAP1 POP JUMP JUMPDEST PUSH1 0x0 PUSH1 0x20 DUP3 ADD SWAP1 POP DUP2 DUP2 SUB PUSH1 0x0 DUP4 ADD MSTORE PUSH2 0x1F12 DUP2 PUSH2 0x1C7D JUMP JUMPDEST SWAP1 POP SWAP2 SWAP1 POP JUMP JUMPDEST PUSH1 0x0 PUSH1 0x20 DUP3 ADD SWAP1 POP DUP2 DUP2 SUB PUSH1 0x0 DUP4 ADD MSTORE PUSH2 0x1F32 DUP2 PUSH2 0x1CA0 JUMP JUMPDEST SWAP1 POP SWAP2 SWAP1 POP JUMP JUMPDEST PUSH1 0x0 PUSH1 0x20 DUP3 ADD SWAP1 POP PUSH2 0x1F4E PUSH1 0x0 DUP4 ADD DUP5 PUSH2 0x1CC3 JUMP JUMPDEST SWAP3 SWAP2 POP POP JUMP JUMPDEST PUSH1 0x0 PUSH1 0x20 DUP3 ADD SWAP1 POP PUSH2 0x1F69 PUSH1 0x0 DUP4 ADD DUP5 PUSH2 0x1CD2 JUMP JUMPDEST SWAP3 SWAP2 POP POP JUMP JUMPDEST PUSH1 0x0 DUP2 MLOAD SWAP1 POP SWAP2 SWAP1 POP JUMP JUMPDEST PUSH1 0x0 DUP3 DUP3 MSTORE PUSH1 0x20 DUP3 ADD SWAP1 POP SWAP3 SWAP2 POP POP JUMP JUMPDEST PUSH1 0x0 PUSH2 0x1F96 DUP3 PUSH2 0x2077 JUMP JUMPDEST SWAP2 POP PUSH2 0x1FA1 DUP4 PUSH2 0x2077 JUMP JUMPDEST SWAP3 POP DUP3 PUSH32 0xFFFFFFFFFFFFFFFFFFFFFFFFFFFFFFFFFFFFFFFFFFFFFFFFFFFFFFFFFFFFFFFF SUB DUP3 GT ISZERO PUSH2 0x1FD6 JUMPI PUSH2 0x1FD5 PUSH2 0x213B JUMP JUMPDEST JUMPDEST DUP3 DUP3 ADD SWAP1 POP SWAP3 SWAP2 POP POP JUMP JUMPDEST PUSH1 0x0 PUSH2 0x1FEC DUP3 PUSH2 0x2077 JUMP JUMPDEST SWAP2 POP PUSH2 0x1FF7 DUP4 PUSH2 0x2077 JUMP JUMPDEST SWAP3 POP DUP3 DUP3 LT ISZERO PUSH2 0x200A JUMPI PUSH2 0x2009 PUSH2 0x213B JUMP JUMPDEST JUMPDEST DUP3 DUP3 SUB SWAP1 POP SWAP3 SWAP2 POP POP JUMP JUMPDEST PUSH1 0x0 PUSH2 0x2020 DUP3 PUSH2 0x2057 JUMP JUMPDEST SWAP1 POP SWAP2 SWAP1 POP JUMP JUMPDEST PUSH1 0x0 PUSH2 0x2032 DUP3 PUSH2 0x2057 JUMP JUMPDEST SWAP1 POP SWAP2 SWAP1 POP JUMP JUMPDEST PUSH1 0x0 DUP2 ISZERO ISZERO SWAP1 POP SWAP2 SWAP1 POP JUMP JUMPDEST PUSH1 0x0 PUSH2 0x2050 DUP3 PUSH2 0x2015 JUMP JUMPDEST SWAP1 POP SWAP2 SWAP1 POP JUMP JUMPDEST PUSH1 0x0 PUSH20 0xFFFFFFFFFFFFFFFFFFFFFFFFFFFFFFFFFFFFFFFF DUP3 AND SWAP1 POP SWAP2 SWAP1 POP JUMP JUMPDEST PUSH1 0x0 DUP2 SWAP1 POP SWAP2 SWAP1 POP JUMP JUMPDEST PUSH1 0x0 PUSH1 0xFF DUP3 AND SWAP1 POP SWAP2 SWAP1 POP JUMP JUMPDEST PUSH1 0x0 PUSH2 0x2099 DUP3 PUSH2 0x20B2 JUMP JUMPDEST SWAP1 POP SWAP2 SWAP1 POP JUMP JUMPDEST PUSH1 0x0 PUSH2 0x20AB DUP3 PUSH2 0x2077 JUMP JUMPDEST SWAP1 POP SWAP2 SWAP1 POP JUMP JUMPDEST PUSH1 0x0 PUSH2 0x20BD DUP3 PUSH2 0x20C4 JUMP JUMPDEST SWAP1 POP SWAP2 SWAP1 POP JUMP JUMPDEST PUSH1 0x0 PUSH2 0x20CF DUP3 PUSH2 0x2057 JUMP JUMPDEST SWAP1 POP SWAP2 SWAP1 POP JUMP JUMPDEST PUSH1 0x0 JUMPDEST DUP4 DUP2 LT ISZERO PUSH2 0x20F4 JUMPI DUP1 DUP3 ADD MLOAD DUP2 DUP5 ADD MSTORE PUSH1 0x20 DUP2 ADD SWAP1 POP PUSH2 0x20D9 JUMP JUMPDEST DUP4 DUP2 GT ISZERO PUSH2 0x2103 JUMPI PUSH1 0x0 DUP5 DUP5 ADD MSTORE JUMPDEST POP POP POP POP JUMP JUMPDEST PUSH1 0x0 PUSH1 0x2 DUP3 DIV SWAP1 POP PUSH1 0x1 DUP3 AND DUP1 PUSH2 0x2121 JUMPI PUSH1 0x7F DUP3 AND SWAP2 POP JUMPDEST PUSH1 0x20 DUP3 LT DUP2 EQ ISZERO PUSH2 0x2135 JUMPI PUSH2 0x2134 PUSH2 0x216A JUMP JUMPDEST JUMPDEST POP SWAP2 SWAP1 POP JUMP JUMPDEST PUSH32 0x4E487B7100000000000000000000000000000000000000000000000000000000 PUSH1 0x0 MSTORE PUSH1 0x11 PUSH1 0x4 MSTORE PUSH1 0x24 PUSH1 0x0 REVERT JUMPDEST PUSH32 0x4E487B7100000000000000000000000000000000000000000000000000000000 PUSH1 0x0 MSTORE PUSH1 0x22 PUSH1 0x4 MSTORE PUSH1 0x24 PUSH1 0x0 REVERT JUMPDEST PUSH1 0x0 DUP1 REVERT JUMPDEST PUSH1 0x0 PUSH1 0x1F NOT PUSH1 0x1F DUP4 ADD AND SWAP1 POP SWAP2 SWAP1 POP JUMP JUMPDEST PUSH32 0x45524332303A207472616E7366657220746F20746865207A65726F2061646472 PUSH1 0x0 DUP3 ADD MSTORE PUSH32 0x6573730000000000000000000000000000000000000000000000000000000000 PUSH1 0x20 DUP3 ADD MSTORE POP JUMP JUMPDEST PUSH32 0x45524332303A206275726E20616D6F756E7420657863656564732062616C616E PUSH1 0x0 DUP3 ADD MSTORE PUSH32 0x6365000000000000000000000000000000000000000000000000000000000000 PUSH1 0x20 DUP3 ADD MSTORE POP JUMP JUMPDEST PUSH32 0x45524332303A20617070726F766520746F20746865207A65726F206164647265 PUSH1 0x0 DUP3 ADD MSTORE PUSH32 0x7373000000000000000000000000000000000000000000000000000000000000 PUSH1 0x20 DUP3 ADD MSTORE POP JUMP JUMPDEST PUSH32 0x45524332303A20696E73756666696369656E7420616C6C6F77616E6365000000 PUSH1 0x0 DUP3 ADD MSTORE POP JUMP JUMPDEST PUSH32 0x45524332303A207472616E7366657220616D6F756E7420657863656564732062 PUSH1 0x0 DUP3 ADD MSTORE PUSH32 0x616C616E63650000000000000000000000000000000000000000000000000000 PUSH1 0x20 DUP3 ADD MSTORE POP JUMP JUMPDEST PUSH32 0x45524332303A206275726E2066726F6D20746865207A65726F20616464726573 PUSH1 0x0 DUP3 ADD MSTORE PUSH32 0x7300000000000000000000000000000000000000000000000000000000000000 PUSH1 0x20 DUP3 ADD MSTORE POP JUMP JUMPDEST PUSH32 0x45524332303A207472616E736665722066726F6D20746865207A65726F206164 PUSH1 0x0 DUP3 ADD MSTORE PUSH32 0x6472657373000000000000000000000000000000000000000000000000000000 PUSH1 0x20 DUP3 ADD MSTORE POP JUMP JUMPDEST PUSH32 0x45524332303A20617070726F76652066726F6D20746865207A65726F20616464 PUSH1 0x0 DUP3 ADD MSTORE PUSH32 0x7265737300000000000000000000000000000000000000000000000000000000 PUSH1 0x20 DUP3 ADD MSTORE POP JUMP JUMPDEST PUSH32 0x45524332303A2064656372656173656420616C6C6F77616E63652062656C6F77 PUSH1 0x0 DUP3 ADD MSTORE PUSH32 0x207A65726F000000000000000000000000000000000000000000000000000000 PUSH1 0x20 DUP3 ADD MSTORE POP JUMP JUMPDEST PUSH32 0x45524332303A206D696E7420746F20746865207A65726F206164647265737300 PUSH1 0x0 DUP3 ADD MSTORE POP JUMP JUMPDEST PUSH2 0x2482 DUP2 PUSH2 0x2015 JUMP JUMPDEST DUP2 EQ PUSH2 0x248D JUMPI PUSH1 0x0 DUP1 REVERT JUMPDEST POP JUMP JUMPDEST PUSH2 0x2499 DUP2 PUSH2 0x2045 JUMP JUMPDEST DUP2 EQ PUSH2 0x24A4 JUMPI PUSH1 0x0 DUP1 REVERT JUMPDEST POP JUMP JUMPDEST PUSH2 0x24B0 DUP2 PUSH2 0x2077 JUMP JUMPDEST DUP2 EQ PUSH2 0x24BB JUMPI PUSH1 0x0 DUP1 REVERT JUMPDEST POP JUMP INVALID LOG2 PUSH5 0x6970667358 0x22 SLT KECCAK256 PUSH6 0x520A5045C8A7 SMOD MSTORE8 0x5C 0xE3 DUP10 0x49 0xC8 0x4C DUP14 NUMBER 0x29 0xDF EQ DUP12 0x5C PUSH27 0x9FE0F64CD778E7AB1D64736F6C6343000807003300000000000000 "
				},
				"gasEstimates": {
					"creation": {
						"codeDepositCost": "1892000",
						"executionCost": "infinite",
						"totalCost": "infinite"
					},
					"external": {
						"activate()": "infinite",
						"allowance(address,address)": "infinite",
						"approve(address,uint256)": "infinite",
						"balanceOf(address)": "2864",
						"burn(uint256)": "infinite",
						"decimals()": "388",
						"decreaseAllowance(address,uint256)": "infinite",
						"getOracleAddress()": "2610",
						"holders(uint256)": "4979",
						"hookAddress()": "2581",
						"hookMint(uint256,address)": "infinite",
						"increaseAllowance(address,uint256)": "infinite",
						"name()": "infinite",
						"oracle()": "2667",
						"owner()": "2603",
						"path(uint256)": "5022",
						"setHookAddress(address)": "27025",
						"setOracle(address)": "53503",
						"setOwner(address)": "26982",
						"symbol()": "infinite",
						"totalSupply()": "2549",
						"transfer(address,uint256)": "infinite",
						"transferFrom(address,address,uint256)": "infinite",
						"uniswapPairAddress()": "2624"
					},
					"internal": {
						"_afterTokenTransfer(address,address,uint256)": "infinite"
					}
				},
				"methodIdentifiers": {
					"activate()": "0f15f4c0",
					"allowance(address,address)": "dd62ed3e",
					"approve(address,uint256)": "095ea7b3",
					"balanceOf(address)": "70a08231",
					"burn(uint256)": "42966c68",
					"decimals()": "313ce567",
					"decreaseAllowance(address,uint256)": "a457c2d7",
					"getOracleAddress()": "b18b78dd",
					"holders(uint256)": "2a11ced0",
					"hookAddress()": "32a3cf96",
					"hookMint(uint256,address)": "96fe8349",
					"increaseAllowance(address,uint256)": "39509351",
					"name()": "06fdde03",
					"oracle()": "7dc0d1d0",
					"owner()": "8da5cb5b",
					"path(uint256)": "af6d1fe4",
					"setHookAddress(address)": "45863322",
					"setOracle(address)": "7adbf973",
					"setOwner(address)": "13af4035",
					"symbol()": "95d89b41",
					"totalSupply()": "18160ddd",
					"transfer(address,uint256)": "a9059cbb",
					"transferFrom(address,address,uint256)": "23b872dd",
					"uniswapPairAddress()": "bd3733fe"
				}
			},
			"storageLayout": {
				"storage": [
					{
						"astId": 15,
						"contract": "LiquidERC20.sol:liquidERC",
						"label": "_balances",
						"offset": 0,
						"slot": "0",
						"type": "t_mapping(t_address,t_uint256)"
					},
					{
						"astId": 21,
						"contract": "LiquidERC20.sol:liquidERC",
						"label": "_allowances",
						"offset": 0,
						"slot": "1",
						"type": "t_mapping(t_address,t_mapping(t_address,t_uint256))"
					},
					{
						"astId": 23,
						"contract": "LiquidERC20.sol:liquidERC",
						"label": "_totalSupply",
						"offset": 0,
						"slot": "2",
						"type": "t_uint256"
					},
					{
						"astId": 25,
						"contract": "LiquidERC20.sol:liquidERC",
						"label": "_name",
						"offset": 0,
						"slot": "3",
						"type": "t_string_storage"
					},
					{
						"astId": 27,
						"contract": "LiquidERC20.sol:liquidERC",
						"label": "_symbol",
						"offset": 0,
						"slot": "4",
						"type": "t_string_storage"
					},
					{
						"astId": 1485,
						"contract": "LiquidERC20.sol:liquidERC",
						"label": "maxUint",
						"offset": 0,
						"slot": "5",
						"type": "t_uint256"
					},
					{
						"astId": 1487,
						"contract": "LiquidERC20.sol:liquidERC",
						"label": "ethBalance",
						"offset": 0,
						"slot": "6",
						"type": "t_uint256"
					},
					{
						"astId": 1490,
						"contract": "LiquidERC20.sol:liquidERC",
						"label": "uniswapRouterAddress",
						"offset": 0,
						"slot": "7",
						"type": "t_address"
					},
					{
						"astId": 1493,
						"contract": "LiquidERC20.sol:liquidERC",
						"label": "uniswapFactoryAddress",
						"offset": 0,
						"slot": "8",
						"type": "t_address"
					},
					{
						"astId": 1496,
						"contract": "LiquidERC20.sol:liquidERC",
						"label": "wethAddress",
						"offset": 0,
						"slot": "9",
						"type": "t_address"
					},
					{
						"astId": 1498,
						"contract": "LiquidERC20.sol:liquidERC",
						"label": "hookAddress",
						"offset": 0,
						"slot": "10",
						"type": "t_address"
					},
					{
						"astId": 1500,
						"contract": "LiquidERC20.sol:liquidERC",
						"label": "owner",
						"offset": 0,
						"slot": "11",
						"type": "t_address"
					},
					{
						"astId": 1502,
						"contract": "LiquidERC20.sol:liquidERC",
						"label": "uniswapPairAddress",
						"offset": 0,
						"slot": "12",
						"type": "t_address"
					},
					{
						"astId": 1505,
						"contract": "LiquidERC20.sol:liquidERC",
						"label": "path",
						"offset": 0,
						"slot": "13",
						"type": "t_array(t_address)dyn_storage"
					},
					{
						"astId": 1508,
						"contract": "LiquidERC20.sol:liquidERC",
						"label": "holders",
						"offset": 0,
						"slot": "14",
						"type": "t_array(t_address_payable)dyn_storage"
					},
					{
						"astId": 1525,
						"contract": "LiquidERC20.sol:liquidERC",
						"label": "UniswapRouter",
						"offset": 0,
						"slot": "15",
						"type": "t_contract(IUniswapV2Router02)1411"
					},
					{
						"astId": 1531,
						"contract": "LiquidERC20.sol:liquidERC",
						"label": "UniswapFactory",
						"offset": 0,
						"slot": "16",
						"type": "t_contract(IUniswapV2Factory)773"
					},
					{
						"astId": 1534,
						"contract": "LiquidERC20.sol:liquidERC",
						"label": "UniswapPair",
						"offset": 0,
						"slot": "17",
						"type": "t_contract(IUniswapV2Pair)1015"
					},
					{
						"astId": 1537,
						"contract": "LiquidERC20.sol:liquidERC",
						"label": "oracleSet",
						"offset": 20,
						"slot": "17",
						"type": "t_bool"
					},
					{
						"astId": 1540,
						"contract": "LiquidERC20.sol:liquidERC",
						"label": "oracle",
						"offset": 0,
						"slot": "18",
						"type": "t_contract(Oracle)1436"
					},
					{
						"astId": 1542,
						"contract": "LiquidERC20.sol:liquidERC",
						"label": "poolActivated",
						"offset": 20,
						"slot": "18",
						"type": "t_bool"
					}
				],
				"types": {
					"t_address": {
						"encoding": "inplace",
						"label": "address",
						"numberOfBytes": "20"
					},
					"t_address_payable": {
						"encoding": "inplace",
						"label": "address payable",
						"numberOfBytes": "20"
					},
					"t_array(t_address)dyn_storage": {
						"base": "t_address",
						"encoding": "dynamic_array",
						"label": "address[]",
						"numberOfBytes": "32"
					},
					"t_array(t_address_payable)dyn_storage": {
						"base": "t_address_payable",
						"encoding": "dynamic_array",
						"label": "address payable[]",
						"numberOfBytes": "32"
					},
					"t_bool": {
						"encoding": "inplace",
						"label": "bool",
						"numberOfBytes": "1"
					},
					"t_contract(IUniswapV2Factory)773": {
						"encoding": "inplace",
						"label": "contract IUniswapV2Factory",
						"numberOfBytes": "20"
					},
					"t_contract(IUniswapV2Pair)1015": {
						"encoding": "inplace",
						"label": "contract IUniswapV2Pair",
						"numberOfBytes": "20"
					},
					"t_contract(IUniswapV2Router02)1411": {
						"encoding": "inplace",
						"label": "contract IUniswapV2Router02",
						"numberOfBytes": "20"
					},
					"t_contract(Oracle)1436": {
						"encoding": "inplace",
						"label": "contract Oracle",
						"numberOfBytes": "20"
					},
					"t_mapping(t_address,t_mapping(t_address,t_uint256))": {
						"encoding": "mapping",
						"key": "t_address",
						"label": "mapping(address => mapping(address => uint256))",
						"numberOfBytes": "32",
						"value": "t_mapping(t_address,t_uint256)"
					},
					"t_mapping(t_address,t_uint256)": {
						"encoding": "mapping",
						"key": "t_address",
						"label": "mapping(address => uint256)",
						"numberOfBytes": "32",
						"value": "t_uint256"
					},
					"t_string_storage": {
						"encoding": "bytes",
						"label": "string",
						"numberOfBytes": "32"
					},
					"t_uint256": {
						"encoding": "inplace",
						"label": "uint256",
						"numberOfBytes": "32"
					}
				}
			},
			"userdoc": {
				"kind": "user",
				"methods": {},
				"version": 1
			}
		}
	}
}