{
	"Hook.sol": {
		"TransactionsAndHook": {
			"abi": [
				{
					"inputs": [
						{
							"internalType": "address",
							"name": "_ERC20",
							"type": "address"
						},
						{
							"internalType": "address",
							"name": "_uniswapPair",
							"type": "address"
						},
						{
							"internalType": "address",
							"name": "_oracle",
							"type": "address"
						},
						{
							"internalType": "address",
							"name": "_crownNFT",
							"type": "address"
						},
						{
							"internalType": "address",
							"name": "_POAP",
							"type": "address"
						},
						{
							"internalType": "address",
							"name": "_initialHolder",
							"type": "address"
						}
					],
					"stateMutability": "nonpayable",
					"type": "constructor"
				},
				{
					"anonymous": false,
					"inputs": [
						{
							"indexed": false,
							"internalType": "string",
							"name": "message",
							"type": "string"
						}
					],
					"name": "Log",
					"type": "event"
				},
				{
					"anonymous": false,
					"inputs": [
						{
							"indexed": false,
							"internalType": "uint256",
							"name": "number",
							"type": "uint256"
						}
					],
					"name": "Log",
					"type": "event"
				},
				{
					"anonymous": false,
					"inputs": [
						{
							"indexed": false,
							"internalType": "address",
							"name": "ad",
							"type": "address"
						}
					],
					"name": "Log",
					"type": "event"
				},
				{
					"inputs": [],
					"name": "ERC20Address",
					"outputs": [
						{
							"internalType": "address",
							"name": "",
							"type": "address"
						}
					],
					"stateMutability": "view",
					"type": "function"
				},
				{
					"inputs": [],
					"name": "POAPAddress",
					"outputs": [
						{
							"internalType": "address",
							"name": "",
							"type": "address"
						}
					],
					"stateMutability": "view",
					"type": "function"
				},
				{
					"inputs": [],
					"name": "WethAddress",
					"outputs": [
						{
							"internalType": "address",
							"name": "",
							"type": "address"
						}
					],
					"stateMutability": "view",
					"type": "function"
				},
				{
					"inputs": [],
					"name": "buyEth",
					"outputs": [
						{
							"internalType": "uint256",
							"name": "",
							"type": "uint256"
						}
					],
					"stateMutability": "view",
					"type": "function"
				},
				{
					"inputs": [],
					"name": "crownNFTAddress",
					"outputs": [
						{
							"internalType": "address",
							"name": "",
							"type": "address"
						}
					],
					"stateMutability": "view",
					"type": "function"
				},
				{
					"inputs": [],
					"name": "getLastEthRecieved",
					"outputs": [
						{
							"internalType": "uint256",
							"name": "",
							"type": "uint256"
						}
					],
					"stateMutability": "view",
					"type": "function"
				},
				{
					"inputs": [],
					"name": "getWethBalance",
					"outputs": [
						{
							"internalType": "uint256",
							"name": "",
							"type": "uint256"
						}
					],
					"stateMutability": "view",
					"type": "function"
				},
				{
					"inputs": [],
					"name": "liquidityEth",
					"outputs": [
						{
							"internalType": "uint256",
							"name": "",
							"type": "uint256"
						}
					],
					"stateMutability": "view",
					"type": "function"
				},
				{
					"inputs": [
						{
							"internalType": "uint256",
							"name": "tokens",
							"type": "uint256"
						}
					],
					"name": "mintSomeTokens",
					"outputs": [],
					"stateMutability": "nonpayable",
					"type": "function"
				},
				{
					"inputs": [],
					"name": "oracleAddress",
					"outputs": [
						{
							"internalType": "address",
							"name": "",
							"type": "address"
						}
					],
					"stateMutability": "view",
					"type": "function"
				},
				{
					"inputs": [
						{
							"internalType": "uint256",
							"name": "",
							"type": "uint256"
						}
					],
					"name": "path",
					"outputs": [
						{
							"internalType": "address",
							"name": "",
							"type": "address"
						}
					],
					"stateMutability": "view",
					"type": "function"
				},
				{
					"inputs": [],
					"name": "percentLiquidity",
					"outputs": [
						{
							"internalType": "uint256",
							"name": "",
							"type": "uint256"
						}
					],
					"stateMutability": "view",
					"type": "function"
				},
				{
					"inputs": [
						{
							"internalType": "address",
							"name": "_newOwner",
							"type": "address"
						}
					],
					"name": "superBuy",
					"outputs": [],
					"stateMutability": "payable",
					"type": "function"
				},
				{
					"inputs": [],
					"name": "totalRoyalties",
					"outputs": [
						{
							"internalType": "uint256",
							"name": "",
							"type": "uint256"
						}
					],
					"stateMutability": "view",
					"type": "function"
				},
				{
					"inputs": [
						{
							"internalType": "uint256",
							"name": "",
							"type": "uint256"
						}
					],
					"name": "transactionFromPOAPId",
					"outputs": [
						{
							"internalType": "uint256",
							"name": "POAPId",
							"type": "uint256"
						},
						{
							"internalType": "address",
							"name": "purchaser",
							"type": "address"
						},
						{
							"internalType": "uint256",
							"name": "receivedEth",
							"type": "uint256"
						}
					],
					"stateMutability": "view",
					"type": "function"
				},
				{
					"inputs": [],
					"name": "uniswapPairAddress",
					"outputs": [
						{
							"internalType": "address",
							"name": "",
							"type": "address"
						}
					],
					"stateMutability": "view",
					"type": "function"
				},
				{
					"inputs": [],
					"name": "uniswapRouterAddress",
					"outputs": [
						{
							"internalType": "address",
							"name": "",
							"type": "address"
						}
					],
					"stateMutability": "view",
					"type": "function"
				},
				{
					"inputs": [
						{
							"internalType": "address",
							"name": "_address",
							"type": "address"
						}
					],
					"name": "updateERC20Address",
					"outputs": [],
					"stateMutability": "nonpayable",
					"type": "function"
				},
				{
					"inputs": [
						{
							"internalType": "address",
							"name": "_ERC20Address",
							"type": "address"
						}
					],
					"name": "withdraw",
					"outputs": [],
					"stateMutability": "nonpayable",
					"type": "function"
				},
				{
					"stateMutability": "payable",
					"type": "receive"
				}
			],
			"devdoc": {
				"kind": "dev",
				"methods": {},
				"version": 1
			},
			"evm": {
				"assembly": "    /* \"Hook.sol\":1281:9894  contract TransactionsAndHook{... */\n  mstore(0x40, 0x80)\n    /* \"Hook.sol\":2126:2168  0xB4FBF271143F4FBf7B91A5ded31805e42b2208d6 */\n  0xb4fbf271143f4fbf7b91a5ded31805e42b2208d6\n    /* \"Hook.sol\":2097:2168  address public WethAddress = 0xB4FBF271143F4FBf7B91A5ded31805e42b2208d6 */\n  0x00\n  dup1\n  0x0100\n  exp\n  dup2\n  sload\n  dup2\n  0xffffffffffffffffffffffffffffffffffffffff\n  mul\n  not\n  and\n  swap1\n  dup4\n  0xffffffffffffffffffffffffffffffffffffffff\n  and\n  mul\n  or\n  swap1\n  sstore\n  pop\n    /* \"Hook.sol\":2386:2428  0x7a250d5630B4cF539739dF2C5dAcb4c659F2488D */\n  0x7a250d5630b4cf539739df2c5dacb4c659f2488d\n    /* \"Hook.sol\":2348:2428  address public uniswapRouterAddress = 0x7a250d5630B4cF539739dF2C5dAcb4c659F2488D */\n  0x06\n  exp(0x0100, 0x00)\n  dup2\n  sload\n  dup2\n  0xffffffffffffffffffffffffffffffffffffffff\n  mul\n  not\n  and\n  swap1\n  dup4\n  0xffffffffffffffffffffffffffffffffffffffff\n  and\n  mul\n  or\n  swap1\n  sstore\n  pop\n    /* \"Hook.sol\":2480:2491  POAPAddress */\n  0x05\n  0x00\n  swap1\n  sload\n  swap1\n  0x0100\n  exp\n  swap1\n  div\n  0xffffffffffffffffffffffffffffffffffffffff\n  and\n    /* \"Hook.sol\":2461:2492  iPOAP POAP = iPOAP(POAPAddress) */\n  0x08\n  exp(0x0100, 0x00)\n  dup2\n  sload\n  dup2\n  0xffffffffffffffffffffffffffffffffffffffff\n  mul\n  not\n  and\n  swap1\n  dup4\n  0xffffffffffffffffffffffffffffffffffffffff\n  and\n  mul\n  or\n  swap1\n  sstore\n  pop\n    /* \"Hook.sol\":2523:2534  WethAddress */\n  0x00\n  dup1\n  sload\n  swap1\n  0x0100\n  exp\n  swap1\n  div\n  0xffffffffffffffffffffffffffffffffffffffff\n  and\n    /* \"Hook.sol\":2498:2535  WethLike WETH = WethLike(WethAddress) */\n  0x09\n  exp(0x0100, 0x00)\n  dup2\n  sload\n  dup2\n  0xffffffffffffffffffffffffffffffffffffffff\n  mul\n  not\n  and\n  swap1\n  dup4\n  0xffffffffffffffffffffffffffffffffffffffff\n  and\n  mul\n  or\n  swap1\n  sstore\n  pop\n    /* \"Hook.sol\":2566:2579  oracleAddress */\n  0x03\n  0x00\n  swap1\n  sload\n  swap1\n  0x0100\n  exp\n  swap1\n  div\n  0xffffffffffffffffffffffffffffffffffffffff\n  and\n    /* \"Hook.sol\":2541:2580  iOracle Oracle = iOracle(oracleAddress) */\n  0x0a\n  exp(0x0100, 0x00)\n  dup2\n  sload\n  dup2\n  0xffffffffffffffffffffffffffffffffffffffff\n  mul\n  not\n  and\n  swap1\n  dup4\n  0xffffffffffffffffffffffffffffffffffffffff\n  and\n  mul\n  or\n  swap1\n  sstore\n  pop\n    /* \"Hook.sol\":2640:2660  uniswapRouterAddress */\n  0x06\n  0x00\n  swap1\n  sload\n  swap1\n  0x0100\n  exp\n  swap1\n  div\n  0xffffffffffffffffffffffffffffffffffffffff\n  and\n    /* \"Hook.sol\":2586:2661  IUniswapV2Router02 UniswapRouter = IUniswapV2Router02(uniswapRouterAddress) */\n  0x0b\n  exp(0x0100, 0x00)\n  dup2\n  sload\n  dup2\n  0xffffffffffffffffffffffffffffffffffffffff\n  mul\n  not\n  and\n  swap1\n  dup4\n  0xffffffffffffffffffffffffffffffffffffffff\n  and\n  mul\n  or\n  swap1\n  sstore\n  pop\n    /* \"Hook.sol\":1315:1973  constructor(address _ERC20,address _uniswapPair,address _oracle,address _crownNFT,address _POAP, address _initialHolder){... */\n  callvalue\n  dup1\n  iszero\n  tag_1\n  jumpi\n  0x00\n  dup1\n  revert\ntag_1:\n  pop\n  mload(0x40)\n  sub(codesize, bytecodeSize)\n  dup1\n  bytecodeSize\n  dup4\n  codecopy\n  dup2\n  dup2\n  add\n  0x40\n  mstore\n  dup2\n  add\n  swap1\n  tag_2\n  swap2\n  swap1\n  tag_3\n  jump\t// in\ntag_2:\n    /* \"Hook.sol\":1533:1539  _ERC20 */\n  dup6\n    /* \"Hook.sol\":1518:1530  ERC20Address */\n  0x01\n  0x00\n    /* \"Hook.sol\":1518:1539  ERC20Address = _ERC20 */\n  0x0100\n  exp\n  dup2\n  sload\n  dup2\n  0xffffffffffffffffffffffffffffffffffffffff\n  mul\n  not\n  and\n  swap1\n  dup4\n  0xffffffffffffffffffffffffffffffffffffffff\n  and\n  mul\n  or\n  swap1\n  sstore\n  pop\n    /* \"Hook.sol\":1570:1582  _uniswapPair */\n  dup5\n    /* \"Hook.sol\":1549:1567  uniswapPairAddress */\n  0x02\n  0x00\n    /* \"Hook.sol\":1549:1582  uniswapPairAddress = _uniswapPair */\n  0x0100\n  exp\n  dup2\n  sload\n  dup2\n  0xffffffffffffffffffffffffffffffffffffffff\n  mul\n  not\n  and\n  swap1\n  dup4\n  0xffffffffffffffffffffffffffffffffffffffff\n  and\n  mul\n  or\n  swap1\n  sstore\n  pop\n    /* \"Hook.sol\":1608:1615  _oracle */\n  dup4\n    /* \"Hook.sol\":1592:1605  oracleAddress */\n  0x03\n  0x00\n    /* \"Hook.sol\":1592:1615  oracleAddress = _oracle */\n  0x0100\n  exp\n  dup2\n  sload\n  dup2\n  0xffffffffffffffffffffffffffffffffffffffff\n  mul\n  not\n  and\n  swap1\n  dup4\n  0xffffffffffffffffffffffffffffffffffffffff\n  and\n  mul\n  or\n  swap1\n  sstore\n  pop\n    /* \"Hook.sol\":1642:1655  oracleAddress */\n  0x03\n  0x00\n  swap1\n  sload\n  swap1\n  0x0100\n  exp\n  swap1\n  div\n  0xffffffffffffffffffffffffffffffffffffffff\n  and\n    /* \"Hook.sol\":1625:1631  Oracle */\n  0x0a\n  0x00\n    /* \"Hook.sol\":1625:1656  Oracle = iOracle(oracleAddress) */\n  0x0100\n  exp\n  dup2\n  sload\n  dup2\n  0xffffffffffffffffffffffffffffffffffffffff\n  mul\n  not\n  and\n  swap1\n  dup4\n  0xffffffffffffffffffffffffffffffffffffffff\n  and\n  mul\n  or\n  swap1\n  sstore\n  pop\n    /* \"Hook.sol\":1684:1693  _crownNFT */\n  dup3\n    /* \"Hook.sol\":1666:1681  crownNFTAddress */\n  0x04\n  0x00\n    /* \"Hook.sol\":1666:1693  crownNFTAddress = _crownNFT */\n  0x0100\n  exp\n  dup2\n  sload\n  dup2\n  0xffffffffffffffffffffffffffffffffffffffff\n  mul\n  not\n  and\n  swap1\n  dup4\n  0xffffffffffffffffffffffffffffffffffffffff\n  and\n  mul\n  or\n  swap1\n  sstore\n  pop\n    /* \"Hook.sol\":1717:1722  _POAP */\n  dup2\n    /* \"Hook.sol\":1703:1714  POAPAddress */\n  0x05\n  0x00\n    /* \"Hook.sol\":1703:1722  POAPAddress = _POAP */\n  0x0100\n  exp\n  dup2\n  sload\n  dup2\n  0xffffffffffffffffffffffffffffffffffffffff\n  mul\n  not\n  and\n  swap1\n  dup4\n  0xffffffffffffffffffffffffffffffffffffffff\n  and\n  mul\n  or\n  swap1\n  sstore\n  pop\n    /* \"Hook.sol\":1745:1756  POAPAddress */\n  0x05\n  0x00\n  swap1\n  sload\n  swap1\n  0x0100\n  exp\n  swap1\n  div\n  0xffffffffffffffffffffffffffffffffffffffff\n  and\n    /* \"Hook.sol\":1732:1736  POAP */\n  0x08\n  0x00\n    /* \"Hook.sol\":1732:1757  POAP = iPOAP(POAPAddress) */\n  0x0100\n  exp\n  dup2\n  sload\n  dup2\n  0xffffffffffffffffffffffffffffffffffffffff\n  mul\n  not\n  and\n  swap1\n  dup4\n  0xffffffffffffffffffffffffffffffffffffffff\n  and\n  mul\n  or\n  swap1\n  sstore\n  pop\n    /* \"Hook.sol\":1767:1804  setInitialTranscation(_initialHolder) */\n  tag_6\n    /* \"Hook.sol\":1789:1803  _initialHolder */\n  dup2\n    /* \"Hook.sol\":1767:1788  setInitialTranscation */\n  shl(0x20, tag_7)\n    /* \"Hook.sol\":1767:1804  setInitialTranscation(_initialHolder) */\n  0x20\n  shr\n  jump\t// in\ntag_6:\n    /* \"Hook.sol\":1814:1847  path = [WethAddress,ERC20Address] */\n  mload(0x40)\n  dup1\n  0x40\n  add\n  0x40\n  mstore\n  dup1\n    /* \"Hook.sol\":1822:1833  WethAddress */\n  0x00\n  dup1\n  sload\n  swap1\n  0x0100\n  exp\n  swap1\n  div\n  0xffffffffffffffffffffffffffffffffffffffff\n  and\n    /* \"Hook.sol\":1814:1847  path = [WethAddress,ERC20Address] */\n  0xffffffffffffffffffffffffffffffffffffffff\n  and\n  0xffffffffffffffffffffffffffffffffffffffff\n  and\n  dup2\n  mstore\n  0x20\n  add\n    /* \"Hook.sol\":1834:1846  ERC20Address */\n  0x01\n  0x00\n  swap1\n  sload\n  swap1\n  0x0100\n  exp\n  swap1\n  div\n  0xffffffffffffffffffffffffffffffffffffffff\n  and\n    /* \"Hook.sol\":1814:1847  path = [WethAddress,ERC20Address] */\n  0xffffffffffffffffffffffffffffffffffffffff\n  and\n  0xffffffffffffffffffffffffffffffffffffffff\n  and\n  dup2\n  mstore\n  pop\n    /* \"Hook.sol\":1814:1818  path */\n  0x07\n    /* \"Hook.sol\":1814:1847  path = [WethAddress,ERC20Address] */\n  swap1\n  0x02\n  tag_8\n  swap3\n  swap2\n  swap1\n  tag_9\n  jump\t// in\ntag_8:\n  pop\n    /* \"Hook.sol\":1315:1973  constructor(address _ERC20,address _uniswapPair,address _oracle,address _crownNFT,address _POAP, address _initialHolder){... */\n  pop\n  pop\n  pop\n  pop\n  pop\n  pop\n    /* \"Hook.sol\":1281:9894  contract TransactionsAndHook{... */\n  jump(tag_10)\n    /* \"Hook.sol\":2998:3113  function setInitialTranscation (address _initialHolder) internal {... */\ntag_7:\n    /* \"Hook.sol\":3073:3106  newTransaction(0, _initialHolder) */\n  tag_12\n    /* \"Hook.sol\":3088:3089  0 */\n  0x00\n    /* \"Hook.sol\":3091:3105  _initialHolder */\n  dup3\n    /* \"Hook.sol\":3073:3087  newTransaction */\n  shl(0x20, tag_13)\n    /* \"Hook.sol\":3073:3106  newTransaction(0, _initialHolder) */\n  0x20\n  shr\n  jump\t// in\ntag_12:\n    /* \"Hook.sol\":2998:3113  function setInitialTranscation (address _initialHolder) internal {... */\n  pop\n  jump\t// out\n    /* \"Hook.sol\":3119:3479  function newTransaction (uint _receivedEth, address _newOwner) internal {... */\ntag_13:\n    /* \"Hook.sol\":3201:3212  uint POAPId */\n  0x00\n    /* \"Hook.sol\":3215:3222  POAPIds */\n  0x0d\n    /* \"Hook.sol\":3215:3229  POAPIds.length */\n  dup1\n  sload\n  swap1\n  pop\n    /* \"Hook.sol\":3201:3229  uint POAPId = POAPIds.length */\n  swap1\n  pop\n    /* \"Hook.sol\":3239:3270  Transaction storage transaction */\n  0x00\n    /* \"Hook.sol\":3273:3294  transactionFromPOAPId */\n  0x0c\n    /* \"Hook.sol\":3273:3310  transactionFromPOAPId[POAPIds.length] */\n  0x00\n    /* \"Hook.sol\":3295:3302  POAPIds */\n  0x0d\n    /* \"Hook.sol\":3295:3309  POAPIds.length */\n  dup1\n  sload\n  swap1\n  pop\n    /* \"Hook.sol\":3273:3310  transactionFromPOAPId[POAPIds.length] */\n  dup2\n  mstore\n  0x20\n  add\n  swap1\n  dup2\n  mstore\n  0x20\n  add\n  0x00\n  keccak256\n    /* \"Hook.sol\":3239:3310  Transaction storage transaction = transactionFromPOAPId[POAPIds.length] */\n  swap1\n  pop\n    /* \"Hook.sol\":3341:3347  POAPId */\n  dup2\n    /* \"Hook.sol\":3320:3331  transaction */\n  dup2\n    /* \"Hook.sol\":3320:3338  transaction.POAPId */\n  0x00\n  add\n    /* \"Hook.sol\":3320:3347  transaction.POAPId = POAPId */\n  dup2\n  swap1\n  sstore\n  pop\n    /* \"Hook.sol\":3381:3390  _newOwner */\n  dup3\n    /* \"Hook.sol\":3357:3368  transaction */\n  dup2\n    /* \"Hook.sol\":3357:3378  transaction.purchaser */\n  0x01\n  add\n  0x00\n    /* \"Hook.sol\":3357:3390  transaction.purchaser = _newOwner */\n  0x0100\n  exp\n  dup2\n  sload\n  dup2\n  0xffffffffffffffffffffffffffffffffffffffff\n  mul\n  not\n  and\n  swap1\n  dup4\n  0xffffffffffffffffffffffffffffffffffffffff\n  and\n  mul\n  or\n  swap1\n  sstore\n  pop\n    /* \"Hook.sol\":3426:3438  _receivedEth */\n  dup4\n    /* \"Hook.sol\":3400:3411  transaction */\n  dup2\n    /* \"Hook.sol\":3400:3423  transaction.receivedEth */\n  0x02\n  add\n    /* \"Hook.sol\":3400:3438  transaction.receivedEth = _receivedEth */\n  dup2\n  swap1\n  sstore\n  pop\n    /* \"Hook.sol\":3448:3455  POAPIds */\n  0x0d\n    /* \"Hook.sol\":3461:3467  POAPId */\n  dup3\n    /* \"Hook.sol\":3448:3468  POAPIds.push(POAPId) */\n  swap1\n  dup1\n  0x01\n  dup2\n  sload\n  add\n  dup1\n  dup3\n  sstore\n  dup1\n  swap2\n  pop\n  pop\n  0x01\n  swap1\n  sub\n  swap1\n  0x00\n  mstore\n  keccak256(0x00, 0x20)\n  add\n  0x00\n  swap1\n  swap2\n  swap1\n  swap2\n  swap1\n  swap2\n  pop\n  sstore\n    /* \"Hook.sol\":3191:3479  {... */\n  pop\n  pop\n    /* \"Hook.sol\":3119:3479  function newTransaction (uint _receivedEth, address _newOwner) internal {... */\n  pop\n  pop\n  jump\t// out\n    /* \"Hook.sol\":1281:9894  contract TransactionsAndHook{... */\ntag_9:\n  dup3\n  dup1\n  sload\n  dup3\n  dup3\n  sstore\n  swap1\n  0x00\n  mstore\n  keccak256(0x00, 0x20)\n  swap1\n  dup2\n  add\n  swap3\n  dup3\n  iszero\n  tag_16\n  jumpi\n  swap2\n  0x20\n  mul\n  dup3\n  add\ntag_17:\n  dup3\n  dup2\n  gt\n  iszero\n  tag_18\n  jumpi\n  dup3\n  mload\n  dup3\n  exp(0x0100, 0x00)\n  dup2\n  sload\n  dup2\n  0xffffffffffffffffffffffffffffffffffffffff\n  mul\n  not\n  and\n  swap1\n  dup4\n  0xffffffffffffffffffffffffffffffffffffffff\n  and\n  mul\n  or\n  swap1\n  sstore\n  pop\n  swap2\n  0x20\n  add\n  swap2\n  swap1\n  0x01\n  add\n  swap1\n  jump(tag_17)\ntag_18:\ntag_16:\n  pop\n  swap1\n  pop\n  tag_19\n  swap2\n  swap1\n  tag_20\n  jump\t// in\ntag_19:\n  pop\n  swap1\n  jump\t// out\ntag_20:\ntag_21:\n  dup1\n  dup3\n  gt\n  iszero\n  tag_22\n  jumpi\n  0x00\n  dup2\n  0x00\n  swap1\n  sstore\n  pop\n  0x01\n  add\n  jump(tag_21)\ntag_22:\n  pop\n  swap1\n  jump\t// out\n    /* \"#utility.yul\":88:205   */\ntag_24:\n    /* \"#utility.yul\":197:198   */\n  0x00\n    /* \"#utility.yul\":194:195   */\n  dup1\n    /* \"#utility.yul\":187:199   */\n  revert\n    /* \"#utility.yul\":334:460   */\ntag_26:\n    /* \"#utility.yul\":371:378   */\n  0x00\n    /* \"#utility.yul\":411:453   */\n  0xffffffffffffffffffffffffffffffffffffffff\n    /* \"#utility.yul\":404:409   */\n  dup3\n    /* \"#utility.yul\":400:454   */\n  and\n    /* \"#utility.yul\":389:454   */\n  swap1\n  pop\n    /* \"#utility.yul\":334:460   */\n  swap2\n  swap1\n  pop\n  jump\t// out\n    /* \"#utility.yul\":466:562   */\ntag_27:\n    /* \"#utility.yul\":503:510   */\n  0x00\n    /* \"#utility.yul\":532:556   */\n  tag_36\n    /* \"#utility.yul\":550:555   */\n  dup3\n    /* \"#utility.yul\":532:556   */\n  tag_26\n  jump\t// in\ntag_36:\n    /* \"#utility.yul\":521:556   */\n  swap1\n  pop\n    /* \"#utility.yul\":466:562   */\n  swap2\n  swap1\n  pop\n  jump\t// out\n    /* \"#utility.yul\":568:690   */\ntag_28:\n    /* \"#utility.yul\":641:665   */\n  tag_38\n    /* \"#utility.yul\":659:664   */\n  dup2\n    /* \"#utility.yul\":641:665   */\n  tag_27\n  jump\t// in\ntag_38:\n    /* \"#utility.yul\":634:639   */\n  dup2\n    /* \"#utility.yul\":631:666   */\n  eq\n    /* \"#utility.yul\":621:684   */\n  tag_39\n  jumpi\n    /* \"#utility.yul\":680:681   */\n  0x00\n    /* \"#utility.yul\":677:678   */\n  dup1\n    /* \"#utility.yul\":670:682   */\n  revert\n    /* \"#utility.yul\":621:684   */\ntag_39:\n    /* \"#utility.yul\":568:690   */\n  pop\n  jump\t// out\n    /* \"#utility.yul\":696:839   */\ntag_29:\n    /* \"#utility.yul\":753:758   */\n  0x00\n    /* \"#utility.yul\":784:790   */\n  dup2\n    /* \"#utility.yul\":778:791   */\n  mload\n    /* \"#utility.yul\":769:791   */\n  swap1\n  pop\n    /* \"#utility.yul\":800:833   */\n  tag_41\n    /* \"#utility.yul\":827:832   */\n  dup2\n    /* \"#utility.yul\":800:833   */\n  tag_28\n  jump\t// in\ntag_41:\n    /* \"#utility.yul\":696:839   */\n  swap3\n  swap2\n  pop\n  pop\n  jump\t// out\n    /* \"#utility.yul\":845:1979   */\ntag_3:\n    /* \"#utility.yul\":960:966   */\n  0x00\n    /* \"#utility.yul\":968:974   */\n  dup1\n    /* \"#utility.yul\":976:982   */\n  0x00\n    /* \"#utility.yul\":984:990   */\n  dup1\n    /* \"#utility.yul\":992:998   */\n  0x00\n    /* \"#utility.yul\":1000:1006   */\n  dup1\n    /* \"#utility.yul\":1049:1052   */\n  0xc0\n    /* \"#utility.yul\":1037:1046   */\n  dup8\n    /* \"#utility.yul\":1028:1035   */\n  dup10\n    /* \"#utility.yul\":1024:1047   */\n  sub\n    /* \"#utility.yul\":1020:1053   */\n  slt\n    /* \"#utility.yul\":1017:1137   */\n  iszero\n  tag_43\n  jumpi\n    /* \"#utility.yul\":1056:1135   */\n  tag_44\n  tag_24\n  jump\t// in\ntag_44:\n    /* \"#utility.yul\":1017:1137   */\ntag_43:\n    /* \"#utility.yul\":1176:1177   */\n  0x00\n    /* \"#utility.yul\":1201:1265   */\n  tag_45\n    /* \"#utility.yul\":1257:1264   */\n  dup10\n    /* \"#utility.yul\":1248:1254   */\n  dup3\n    /* \"#utility.yul\":1237:1246   */\n  dup11\n    /* \"#utility.yul\":1233:1255   */\n  add\n    /* \"#utility.yul\":1201:1265   */\n  tag_29\n  jump\t// in\ntag_45:\n    /* \"#utility.yul\":1191:1265   */\n  swap7\n  pop\n    /* \"#utility.yul\":1147:1275   */\n  pop\n    /* \"#utility.yul\":1314:1316   */\n  0x20\n    /* \"#utility.yul\":1340:1404   */\n  tag_46\n    /* \"#utility.yul\":1396:1403   */\n  dup10\n    /* \"#utility.yul\":1387:1393   */\n  dup3\n    /* \"#utility.yul\":1376:1385   */\n  dup11\n    /* \"#utility.yul\":1372:1394   */\n  add\n    /* \"#utility.yul\":1340:1404   */\n  tag_29\n  jump\t// in\ntag_46:\n    /* \"#utility.yul\":1330:1404   */\n  swap6\n  pop\n    /* \"#utility.yul\":1285:1414   */\n  pop\n    /* \"#utility.yul\":1453:1455   */\n  0x40\n    /* \"#utility.yul\":1479:1543   */\n  tag_47\n    /* \"#utility.yul\":1535:1542   */\n  dup10\n    /* \"#utility.yul\":1526:1532   */\n  dup3\n    /* \"#utility.yul\":1515:1524   */\n  dup11\n    /* \"#utility.yul\":1511:1533   */\n  add\n    /* \"#utility.yul\":1479:1543   */\n  tag_29\n  jump\t// in\ntag_47:\n    /* \"#utility.yul\":1469:1543   */\n  swap5\n  pop\n    /* \"#utility.yul\":1424:1553   */\n  pop\n    /* \"#utility.yul\":1592:1594   */\n  0x60\n    /* \"#utility.yul\":1618:1682   */\n  tag_48\n    /* \"#utility.yul\":1674:1681   */\n  dup10\n    /* \"#utility.yul\":1665:1671   */\n  dup3\n    /* \"#utility.yul\":1654:1663   */\n  dup11\n    /* \"#utility.yul\":1650:1672   */\n  add\n    /* \"#utility.yul\":1618:1682   */\n  tag_29\n  jump\t// in\ntag_48:\n    /* \"#utility.yul\":1608:1682   */\n  swap4\n  pop\n    /* \"#utility.yul\":1563:1692   */\n  pop\n    /* \"#utility.yul\":1731:1734   */\n  0x80\n    /* \"#utility.yul\":1758:1822   */\n  tag_49\n    /* \"#utility.yul\":1814:1821   */\n  dup10\n    /* \"#utility.yul\":1805:1811   */\n  dup3\n    /* \"#utility.yul\":1794:1803   */\n  dup11\n    /* \"#utility.yul\":1790:1812   */\n  add\n    /* \"#utility.yul\":1758:1822   */\n  tag_29\n  jump\t// in\ntag_49:\n    /* \"#utility.yul\":1748:1822   */\n  swap3\n  pop\n    /* \"#utility.yul\":1702:1832   */\n  pop\n    /* \"#utility.yul\":1871:1874   */\n  0xa0\n    /* \"#utility.yul\":1898:1962   */\n  tag_50\n    /* \"#utility.yul\":1954:1961   */\n  dup10\n    /* \"#utility.yul\":1945:1951   */\n  dup3\n    /* \"#utility.yul\":1934:1943   */\n  dup11\n    /* \"#utility.yul\":1930:1952   */\n  add\n    /* \"#utility.yul\":1898:1962   */\n  tag_29\n  jump\t// in\ntag_50:\n    /* \"#utility.yul\":1888:1962   */\n  swap2\n  pop\n    /* \"#utility.yul\":1842:1972   */\n  pop\n    /* \"#utility.yul\":845:1979   */\n  swap3\n  swap6\n  pop\n  swap3\n  swap6\n  pop\n  swap3\n  swap6\n  jump\t// out\n    /* \"Hook.sol\":1281:9894  contract TransactionsAndHook{... */\ntag_10:\n  dataSize(sub_0)\n  dup1\n  dataOffset(sub_0)\n  0x00\n  codecopy\n  0x00\n  return\nstop\n\nsub_0: assembly {\n        /* \"Hook.sol\":1281:9894  contract TransactionsAndHook{... */\n      mstore(0x40, 0x80)\n      jumpi(tag_1, lt(calldatasize, 0x04))\n      shr(0xe0, calldataload(0x00))\n      dup1\n      0xa09ede07\n      gt\n      tag_22\n      jumpi\n      dup1\n      0xaf6d1fe4\n      gt\n      tag_23\n      jumpi\n      dup1\n      0xaf6d1fe4\n      eq\n      tag_17\n      jumpi\n      dup1\n      0xbd3733fe\n      eq\n      tag_18\n      jumpi\n      dup1\n      0xbfd9ea5b\n      eq\n      tag_19\n      jumpi\n      dup1\n      0xc1f2e5f1\n      eq\n      tag_20\n      jumpi\n      dup1\n      0xd4afa675\n      eq\n      tag_21\n      jumpi\n      jump(tag_2)\n    tag_23:\n      dup1\n      0xa09ede07\n      eq\n      tag_12\n      jumpi\n      dup1\n      0xa6021ace\n      eq\n      tag_13\n      jumpi\n      dup1\n      0xa785a3d8\n      eq\n      tag_14\n      jumpi\n      dup1\n      0xa89ae4ba\n      eq\n      tag_15\n      jumpi\n      dup1\n      0xaef75107\n      eq\n      tag_16\n      jumpi\n      jump(tag_2)\n    tag_22:\n      dup1\n      0x4cfd1ba5\n      gt\n      tag_24\n      jumpi\n      dup1\n      0x4cfd1ba5\n      eq\n      tag_7\n      jumpi\n      dup1\n      0x51cff8d9\n      eq\n      tag_8\n      jumpi\n      dup1\n      0x777b506f\n      eq\n      tag_9\n      jumpi\n      dup1\n      0x86d02608\n      eq\n      tag_10\n      jumpi\n      dup1\n      0x9dd58b58\n      eq\n      tag_11\n      jumpi\n      jump(tag_2)\n    tag_24:\n      dup1\n      0x0b2b4d9b\n      eq\n      tag_3\n      jumpi\n      dup1\n      0x1b017fde\n      eq\n      tag_4\n      jumpi\n      dup1\n      0x20ca3c7f\n      eq\n      tag_5\n      jumpi\n      dup1\n      0x2c4c3c1b\n      eq\n      tag_6\n      jumpi\n      jump(tag_2)\n    tag_1:\n      jumpi(tag_2, calldatasize)\n      stop\n    tag_2:\n      0x00\n      dup1\n      revert\n        /* \"Hook.sol\":9721:9847  function superBuy(address _newOwner) public payable{... */\n    tag_3:\n      tag_27\n      0x04\n      dup1\n      calldatasize\n      sub\n      dup2\n      add\n      swap1\n      tag_28\n      swap2\n      swap1\n      tag_29\n      jump\t// in\n    tag_28:\n      tag_30\n      jump\t// in\n    tag_27:\n      stop\n        /* \"Hook.sol\":2793:2885  function updateERC20Address(address _address) public{... */\n    tag_4:\n      callvalue\n      dup1\n      iszero\n      tag_31\n      jumpi\n      0x00\n      dup1\n      revert\n    tag_31:\n      pop\n      tag_32\n      0x04\n      dup1\n      calldatasize\n      sub\n      dup2\n      add\n      swap1\n      tag_33\n      swap2\n      swap1\n      tag_29\n      jump\t// in\n    tag_33:\n      tag_34\n      jump\t// in\n    tag_32:\n      stop\n        /* \"Hook.sol\":2348:2428  address public uniswapRouterAddress = 0x7a250d5630B4cF539739dF2C5dAcb4c659F2488D */\n    tag_5:\n      callvalue\n      dup1\n      iszero\n      tag_35\n      jumpi\n      0x00\n      dup1\n      revert\n    tag_35:\n      pop\n      tag_36\n      tag_37\n      jump\t// in\n    tag_36:\n      mload(0x40)\n      tag_38\n      swap2\n      swap1\n      tag_39\n      jump\t// in\n    tag_38:\n      mload(0x40)\n      dup1\n      swap2\n      sub\n      swap1\n      return\n        /* \"Hook.sol\":2667:2725  mapping (uint => Transaction) public transactionFromPOAPId */\n    tag_6:\n      callvalue\n      dup1\n      iszero\n      tag_40\n      jumpi\n      0x00\n      dup1\n      revert\n    tag_40:\n      pop\n      tag_41\n      0x04\n      dup1\n      calldatasize\n      sub\n      dup2\n      add\n      swap1\n      tag_42\n      swap2\n      swap1\n      tag_43\n      jump\t// in\n    tag_42:\n      tag_44\n      jump\t// in\n    tag_41:\n      mload(0x40)\n      tag_45\n      swap4\n      swap3\n      swap2\n      swap1\n      tag_46\n      jump\t// in\n    tag_45:\n      mload(0x40)\n      dup1\n      swap2\n      sub\n      swap1\n      return\n        /* \"Hook.sol\":5742:5760  uint public buyEth */\n    tag_7:\n      callvalue\n      dup1\n      iszero\n      tag_47\n      jumpi\n      0x00\n      dup1\n      revert\n    tag_47:\n      pop\n      tag_48\n      tag_49\n      jump\t// in\n    tag_48:\n      mload(0x40)\n      tag_50\n      swap2\n      swap1\n      tag_51\n      jump\t// in\n    tag_50:\n      mload(0x40)\n      dup1\n      swap2\n      sub\n      swap1\n      return\n        /* \"Hook.sol\":3489:3691  function withdraw(address _ERC20Address) public {... */\n    tag_8:\n      callvalue\n      dup1\n      iszero\n      tag_52\n      jumpi\n      0x00\n      dup1\n      revert\n    tag_52:\n      pop\n      tag_53\n      0x04\n      dup1\n      calldatasize\n      sub\n      dup2\n      add\n      swap1\n      tag_54\n      swap2\n      swap1\n      tag_29\n      jump\t// in\n    tag_54:\n      tag_55\n      jump\t// in\n    tag_53:\n      stop\n        /* \"Hook.sol\":2280:2310  address public crownNFTAddress */\n    tag_9:\n      callvalue\n      dup1\n      iszero\n      tag_56\n      jumpi\n      0x00\n      dup1\n      revert\n    tag_56:\n      pop\n      tag_57\n      tag_58\n      jump\t// in\n    tag_57:\n      mload(0x40)\n      tag_59\n      swap2\n      swap1\n      tag_39\n      jump\t// in\n    tag_59:\n      mload(0x40)\n      dup1\n      swap2\n      sub\n      swap1\n      return\n        /* \"Hook.sol\":2751:2777  uint public totalRoyalties */\n    tag_10:\n      callvalue\n      dup1\n      iszero\n      tag_60\n      jumpi\n      0x00\n      dup1\n      revert\n    tag_60:\n      pop\n      tag_61\n      tag_62\n      jump\t// in\n    tag_61:\n      mload(0x40)\n      tag_63\n      swap2\n      swap1\n      tag_51\n      jump\t// in\n    tag_63:\n      mload(0x40)\n      dup1\n      swap2\n      sub\n      swap1\n      return\n        /* \"Hook.sol\":3697:3802  function getWethBalance() public view returns (uint){... */\n    tag_11:\n      callvalue\n      dup1\n      iszero\n      tag_64\n      jumpi\n      0x00\n      dup1\n      revert\n    tag_64:\n      pop\n      tag_65\n      tag_66\n      jump\t// in\n    tag_65:\n      mload(0x40)\n      tag_67\n      swap2\n      swap1\n      tag_51\n      jump\t// in\n    tag_67:\n      mload(0x40)\n      dup1\n      swap2\n      sub\n      swap1\n      return\n        /* \"Hook.sol\":5766:5790  uint public liquidityEth */\n    tag_12:\n      callvalue\n      dup1\n      iszero\n      tag_68\n      jumpi\n      0x00\n      dup1\n      revert\n    tag_68:\n      pop\n      tag_69\n      tag_70\n      jump\t// in\n    tag_69:\n      mload(0x40)\n      tag_71\n      swap2\n      swap1\n      tag_51\n      jump\t// in\n    tag_71:\n      mload(0x40)\n      dup1\n      swap2\n      sub\n      swap1\n      return\n        /* \"Hook.sol\":2174:2201  address public ERC20Address */\n    tag_13:\n      callvalue\n      dup1\n      iszero\n      tag_72\n      jumpi\n      0x00\n      dup1\n      revert\n    tag_72:\n      pop\n      tag_73\n      tag_74\n      jump\t// in\n    tag_73:\n      mload(0x40)\n      tag_75\n      swap2\n      swap1\n      tag_39\n      jump\t// in\n    tag_75:\n      mload(0x40)\n      dup1\n      swap2\n      sub\n      swap1\n      return\n        /* \"Hook.sol\":2097:2168  address public WethAddress = 0xB4FBF271143F4FBf7B91A5ded31805e42b2208d6 */\n    tag_14:\n      callvalue\n      dup1\n      iszero\n      tag_76\n      jumpi\n      0x00\n      dup1\n      revert\n    tag_76:\n      pop\n      tag_77\n      tag_78\n      jump\t// in\n    tag_77:\n      mload(0x40)\n      tag_79\n      swap2\n      swap1\n      tag_39\n      jump\t// in\n    tag_79:\n      mload(0x40)\n      dup1\n      swap2\n      sub\n      swap1\n      return\n        /* \"Hook.sol\":2246:2274  address public oracleAddress */\n    tag_15:\n      callvalue\n      dup1\n      iszero\n      tag_80\n      jumpi\n      0x00\n      dup1\n      revert\n    tag_80:\n      pop\n      tag_81\n      tag_82\n      jump\t// in\n    tag_81:\n      mload(0x40)\n      tag_83\n      swap2\n      swap1\n      tag_39\n      jump\t// in\n    tag_83:\n      mload(0x40)\n      dup1\n      swap2\n      sub\n      swap1\n      return\n        /* \"Hook.sol\":2316:2342  address public POAPAddress */\n    tag_16:\n      callvalue\n      dup1\n      iszero\n      tag_84\n      jumpi\n      0x00\n      dup1\n      revert\n    tag_84:\n      pop\n      tag_85\n      tag_86\n      jump\t// in\n    tag_85:\n      mload(0x40)\n      tag_87\n      swap2\n      swap1\n      tag_39\n      jump\t// in\n    tag_87:\n      mload(0x40)\n      dup1\n      swap2\n      sub\n      swap1\n      return\n        /* \"Hook.sol\":2434:2455  address[] public path */\n    tag_17:\n      callvalue\n      dup1\n      iszero\n      tag_88\n      jumpi\n      0x00\n      dup1\n      revert\n    tag_88:\n      pop\n      tag_89\n      0x04\n      dup1\n      calldatasize\n      sub\n      dup2\n      add\n      swap1\n      tag_90\n      swap2\n      swap1\n      tag_43\n      jump\t// in\n    tag_90:\n      tag_91\n      jump\t// in\n    tag_89:\n      mload(0x40)\n      tag_92\n      swap2\n      swap1\n      tag_39\n      jump\t// in\n    tag_92:\n      mload(0x40)\n      dup1\n      swap2\n      sub\n      swap1\n      return\n        /* \"Hook.sol\":2207:2240  address public uniswapPairAddress */\n    tag_18:\n      callvalue\n      dup1\n      iszero\n      tag_93\n      jumpi\n      0x00\n      dup1\n      revert\n    tag_93:\n      pop\n      tag_94\n      tag_95\n      jump\t// in\n    tag_94:\n      mload(0x40)\n      tag_96\n      swap2\n      swap1\n      tag_39\n      jump\t// in\n    tag_96:\n      mload(0x40)\n      dup1\n      swap2\n      sub\n      swap1\n      return\n        /* \"Hook.sol\":3809:3938  function getLastEthRecieved() public view returns (uint){... */\n    tag_19:\n      callvalue\n      dup1\n      iszero\n      tag_97\n      jumpi\n      0x00\n      dup1\n      revert\n    tag_97:\n      pop\n      tag_98\n      tag_99\n      jump\t// in\n    tag_98:\n      mload(0x40)\n      tag_100\n      swap2\n      swap1\n      tag_51\n      jump\t// in\n    tag_100:\n      mload(0x40)\n      dup1\n      swap2\n      sub\n      swap1\n      return\n        /* \"Hook.sol\":3948:4434  function percentLiquidity() public view returns (uint){... */\n    tag_20:\n      callvalue\n      dup1\n      iszero\n      tag_101\n      jumpi\n      0x00\n      dup1\n      revert\n    tag_101:\n      pop\n      tag_102\n      tag_103\n      jump\t// in\n    tag_102:\n      mload(0x40)\n      tag_104\n      swap2\n      swap1\n      tag_51\n      jump\t// in\n    tag_104:\n      mload(0x40)\n      dup1\n      swap2\n      sub\n      swap1\n      return\n        /* \"Hook.sol\":9602:9715  function mintSomeTokens (uint tokens) public {... */\n    tag_21:\n      callvalue\n      dup1\n      iszero\n      tag_105\n      jumpi\n      0x00\n      dup1\n      revert\n    tag_105:\n      pop\n      tag_106\n      0x04\n      dup1\n      calldatasize\n      sub\n      dup2\n      add\n      swap1\n      tag_107\n      swap2\n      swap1\n      tag_43\n      jump\t// in\n    tag_107:\n      tag_108\n      jump\t// in\n    tag_106:\n      stop\n        /* \"Hook.sol\":9721:9847  function superBuy(address _newOwner) public payable{... */\n    tag_30:\n        /* \"Hook.sol\":9782:9818  newTransaction(msg.value, _newOwner) */\n      tag_110\n        /* \"Hook.sol\":9797:9806  msg.value */\n      callvalue\n        /* \"Hook.sol\":9808:9817  _newOwner */\n      dup3\n        /* \"Hook.sol\":9782:9796  newTransaction */\n      tag_111\n        /* \"Hook.sol\":9782:9818  newTransaction(msg.value, _newOwner) */\n      jump\t// in\n    tag_110:\n        /* \"Hook.sol\":9828:9840  processETH() */\n      tag_112\n        /* \"Hook.sol\":9828:9838  processETH */\n      tag_113\n        /* \"Hook.sol\":9828:9840  processETH() */\n      jump\t// in\n    tag_112:\n        /* \"Hook.sol\":9721:9847  function superBuy(address _newOwner) public payable{... */\n      pop\n      jump\t// out\n        /* \"Hook.sol\":2793:2885  function updateERC20Address(address _address) public{... */\n    tag_34:\n        /* \"Hook.sol\":2870:2878  _address */\n      dup1\n        /* \"Hook.sol\":2855:2867  ERC20Address */\n      0x01\n      0x00\n        /* \"Hook.sol\":2855:2878  ERC20Address = _address */\n      0x0100\n      exp\n      dup2\n      sload\n      dup2\n      0xffffffffffffffffffffffffffffffffffffffff\n      mul\n      not\n      and\n      swap1\n      dup4\n      0xffffffffffffffffffffffffffffffffffffffff\n      and\n      mul\n      or\n      swap1\n      sstore\n      pop\n        /* \"Hook.sol\":2793:2885  function updateERC20Address(address _address) public{... */\n      pop\n      jump\t// out\n        /* \"Hook.sol\":2348:2428  address public uniswapRouterAddress = 0x7a250d5630B4cF539739dF2C5dAcb4c659F2488D */\n    tag_37:\n      0x06\n      0x00\n      swap1\n      sload\n      swap1\n      0x0100\n      exp\n      swap1\n      div\n      0xffffffffffffffffffffffffffffffffffffffff\n      and\n      dup2\n      jump\t// out\n        /* \"Hook.sol\":2667:2725  mapping (uint => Transaction) public transactionFromPOAPId */\n    tag_44:\n      mstore(0x20, 0x0c)\n      dup1\n      0x00\n      mstore\n      keccak256(0x00, 0x40)\n      0x00\n      swap2\n      pop\n      swap1\n      pop\n      dup1\n      0x00\n      add\n      sload\n      swap1\n      dup1\n      0x01\n      add\n      0x00\n      swap1\n      sload\n      swap1\n      0x0100\n      exp\n      swap1\n      div\n      0xffffffffffffffffffffffffffffffffffffffff\n      and\n      swap1\n      dup1\n      0x02\n      add\n      sload\n      swap1\n      pop\n      dup4\n      jump\t// out\n        /* \"Hook.sol\":5742:5760  uint public buyEth */\n    tag_49:\n      sload(0x0f)\n      dup2\n      jump\t// out\n        /* \"Hook.sol\":3489:3691  function withdraw(address _ERC20Address) public {... */\n    tag_55:\n        /* \"Hook.sol\":3547:3559  IERC20 ERC20 */\n      0x00\n        /* \"Hook.sol\":3569:3582  _ERC20Address */\n      dup2\n        /* \"Hook.sol\":3547:3583  IERC20 ERC20 = IERC20(_ERC20Address) */\n      swap1\n      pop\n        /* \"Hook.sol\":3593:3606  uint _balance */\n      0x00\n        /* \"Hook.sol\":3609:3614  ERC20 */\n      dup2\n        /* \"Hook.sol\":3609:3624  ERC20.balanceOf */\n      0xffffffffffffffffffffffffffffffffffffffff\n      and\n      0x70a08231\n        /* \"Hook.sol\":3633:3637  this */\n      address\n        /* \"Hook.sol\":3609:3639  ERC20.balanceOf(address(this)) */\n      mload(0x40)\n      dup3\n      0xffffffff\n      and\n      0xe0\n      shl\n      dup2\n      mstore\n      0x04\n      add\n      tag_116\n      swap2\n      swap1\n      tag_39\n      jump\t// in\n    tag_116:\n      0x20\n      mload(0x40)\n      dup1\n      dup4\n      sub\n      dup2\n      dup7\n      gas\n      staticcall\n      iszero\n      dup1\n      iszero\n      tag_118\n      jumpi\n      returndatasize\n      0x00\n      dup1\n      returndatacopy\n      revert(0x00, returndatasize)\n    tag_118:\n      pop\n      pop\n      pop\n      pop\n      mload(0x40)\n      returndatasize\n      not(0x1f)\n      0x1f\n      dup3\n      add\n      and\n      dup3\n      add\n      dup1\n      0x40\n      mstore\n      pop\n      dup2\n      add\n      swap1\n      tag_119\n      swap2\n      swap1\n      tag_120\n      jump\t// in\n    tag_119:\n        /* \"Hook.sol\":3593:3639  uint _balance = ERC20.balanceOf(address(this)) */\n      swap1\n      pop\n        /* \"Hook.sol\":3649:3654  ERC20 */\n      dup2\n        /* \"Hook.sol\":3649:3663  ERC20.transfer */\n      0xffffffffffffffffffffffffffffffffffffffff\n      and\n      0xa9059cbb\n        /* \"Hook.sol\":3664:3674  msg.sender */\n      caller\n        /* \"Hook.sol\":3675:3683  _balance */\n      dup4\n        /* \"Hook.sol\":3649:3684  ERC20.transfer(msg.sender,_balance) */\n      mload(0x40)\n      dup4\n      0xffffffff\n      and\n      0xe0\n      shl\n      dup2\n      mstore\n      0x04\n      add\n      tag_121\n      swap3\n      swap2\n      swap1\n      tag_122\n      jump\t// in\n    tag_121:\n      0x20\n      mload(0x40)\n      dup1\n      dup4\n      sub\n      dup2\n      0x00\n      dup8\n      gas\n      call\n      iszero\n      dup1\n      iszero\n      tag_124\n      jumpi\n      returndatasize\n      0x00\n      dup1\n      returndatacopy\n      revert(0x00, returndatasize)\n    tag_124:\n      pop\n      pop\n      pop\n      pop\n      mload(0x40)\n      returndatasize\n      not(0x1f)\n      0x1f\n      dup3\n      add\n      and\n      dup3\n      add\n      dup1\n      0x40\n      mstore\n      pop\n      dup2\n      add\n      swap1\n      tag_125\n      swap2\n      swap1\n      tag_126\n      jump\t// in\n    tag_125:\n      pop\n        /* \"Hook.sol\":3537:3691  {... */\n      pop\n      pop\n        /* \"Hook.sol\":3489:3691  function withdraw(address _ERC20Address) public {... */\n      pop\n      jump\t// out\n        /* \"Hook.sol\":2280:2310  address public crownNFTAddress */\n    tag_58:\n      0x04\n      0x00\n      swap1\n      sload\n      swap1\n      0x0100\n      exp\n      swap1\n      div\n      0xffffffffffffffffffffffffffffffffffffffff\n      and\n      dup2\n      jump\t// out\n        /* \"Hook.sol\":2751:2777  uint public totalRoyalties */\n    tag_62:\n      sload(0x0e)\n      dup2\n      jump\t// out\n        /* \"Hook.sol\":3697:3802  function getWethBalance() public view returns (uint){... */\n    tag_66:\n        /* \"Hook.sol\":3744:3748  uint */\n      0x00\n        /* \"Hook.sol\":3766:3770  WETH */\n      0x09\n      0x00\n      swap1\n      sload\n      swap1\n      0x0100\n      exp\n      swap1\n      div\n      0xffffffffffffffffffffffffffffffffffffffff\n      and\n        /* \"Hook.sol\":3766:3780  WETH.balanceOf */\n      0xffffffffffffffffffffffffffffffffffffffff\n      and\n      0x70a08231\n        /* \"Hook.sol\":3789:3793  this */\n      address\n        /* \"Hook.sol\":3766:3795  WETH.balanceOf(address(this)) */\n      mload(0x40)\n      dup3\n      0xffffffff\n      and\n      0xe0\n      shl\n      dup2\n      mstore\n      0x04\n      add\n      tag_128\n      swap2\n      swap1\n      tag_39\n      jump\t// in\n    tag_128:\n      0x20\n      mload(0x40)\n      dup1\n      dup4\n      sub\n      dup2\n      dup7\n      gas\n      staticcall\n      iszero\n      dup1\n      iszero\n      tag_130\n      jumpi\n      returndatasize\n      0x00\n      dup1\n      returndatacopy\n      revert(0x00, returndatasize)\n    tag_130:\n      pop\n      pop\n      pop\n      pop\n      mload(0x40)\n      returndatasize\n      not(0x1f)\n      0x1f\n      dup3\n      add\n      and\n      dup3\n      add\n      dup1\n      0x40\n      mstore\n      pop\n      dup2\n      add\n      swap1\n      tag_131\n      swap2\n      swap1\n      tag_120\n      jump\t// in\n    tag_131:\n        /* \"Hook.sol\":3759:3795  return WETH.balanceOf(address(this)) */\n      swap1\n      pop\n        /* \"Hook.sol\":3697:3802  function getWethBalance() public view returns (uint){... */\n      swap1\n      jump\t// out\n        /* \"Hook.sol\":5766:5790  uint public liquidityEth */\n    tag_70:\n      sload(0x10)\n      dup2\n      jump\t// out\n        /* \"Hook.sol\":2174:2201  address public ERC20Address */\n    tag_74:\n      0x01\n      0x00\n      swap1\n      sload\n      swap1\n      0x0100\n      exp\n      swap1\n      div\n      0xffffffffffffffffffffffffffffffffffffffff\n      and\n      dup2\n      jump\t// out\n        /* \"Hook.sol\":2097:2168  address public WethAddress = 0xB4FBF271143F4FBf7B91A5ded31805e42b2208d6 */\n    tag_78:\n      0x00\n      dup1\n      sload\n      swap1\n      0x0100\n      exp\n      swap1\n      div\n      0xffffffffffffffffffffffffffffffffffffffff\n      and\n      dup2\n      jump\t// out\n        /* \"Hook.sol\":2246:2274  address public oracleAddress */\n    tag_82:\n      0x03\n      0x00\n      swap1\n      sload\n      swap1\n      0x0100\n      exp\n      swap1\n      div\n      0xffffffffffffffffffffffffffffffffffffffff\n      and\n      dup2\n      jump\t// out\n        /* \"Hook.sol\":2316:2342  address public POAPAddress */\n    tag_86:\n      0x05\n      0x00\n      swap1\n      sload\n      swap1\n      0x0100\n      exp\n      swap1\n      div\n      0xffffffffffffffffffffffffffffffffffffffff\n      and\n      dup2\n      jump\t// out\n        /* \"Hook.sol\":2434:2455  address[] public path */\n    tag_91:\n      0x07\n      dup2\n      dup2\n      sload\n      dup2\n      lt\n      tag_132\n      jumpi\n      0x00\n      dup1\n      revert\n    tag_132:\n      swap1\n      0x00\n      mstore\n      keccak256(0x00, 0x20)\n      add\n      0x00\n      swap2\n      pop\n      sload\n      swap1\n      0x0100\n      exp\n      swap1\n      div\n      0xffffffffffffffffffffffffffffffffffffffff\n      and\n      dup2\n      jump\t// out\n        /* \"Hook.sol\":2207:2240  address public uniswapPairAddress */\n    tag_95:\n      0x02\n      0x00\n      swap1\n      sload\n      swap1\n      0x0100\n      exp\n      swap1\n      div\n      0xffffffffffffffffffffffffffffffffffffffff\n      and\n      dup2\n      jump\t// out\n        /* \"Hook.sol\":3809:3938  function getLastEthRecieved() public view returns (uint){... */\n    tag_99:\n        /* \"Hook.sol\":3860:3864  uint */\n      0x00\n        /* \"Hook.sol\":3882:3903  transactionFromPOAPId */\n      0x0c\n        /* \"Hook.sol\":3882:3919  transactionFromPOAPId[POAPIds.length] */\n      0x00\n        /* \"Hook.sol\":3904:3911  POAPIds */\n      0x0d\n        /* \"Hook.sol\":3904:3918  POAPIds.length */\n      dup1\n      sload\n      swap1\n      pop\n        /* \"Hook.sol\":3882:3919  transactionFromPOAPId[POAPIds.length] */\n      dup2\n      mstore\n      0x20\n      add\n      swap1\n      dup2\n      mstore\n      0x20\n      add\n      0x00\n      keccak256\n        /* \"Hook.sol\":3882:3931  transactionFromPOAPId[POAPIds.length].receivedEth */\n      0x02\n      add\n      sload\n        /* \"Hook.sol\":3875:3931  return transactionFromPOAPId[POAPIds.length].receivedEth */\n      swap1\n      pop\n        /* \"Hook.sol\":3809:3938  function getLastEthRecieved() public view returns (uint){... */\n      swap1\n      jump\t// out\n        /* \"Hook.sol\":3948:4434  function percentLiquidity() public view returns (uint){... */\n    tag_103:\n        /* \"Hook.sol\":3997:4001  uint */\n      0x00\n        /* \"Hook.sol\":4157:4168  uint supply */\n      dup1\n        /* \"Hook.sol\":4178:4190  ERC20Address */\n      0x01\n      0x00\n      swap1\n      sload\n      swap1\n      0x0100\n      exp\n      swap1\n      div\n      0xffffffffffffffffffffffffffffffffffffffff\n      and\n        /* \"Hook.sol\":4171:4203  IERC20(ERC20Address).totalSupply */\n      0xffffffffffffffffffffffffffffffffffffffff\n      and\n      0x18160ddd\n        /* \"Hook.sol\":4171:4205  IERC20(ERC20Address).totalSupply() */\n      mload(0x40)\n      dup2\n      0xffffffff\n      and\n      0xe0\n      shl\n      dup2\n      mstore\n      0x04\n      add\n      0x20\n      mload(0x40)\n      dup1\n      dup4\n      sub\n      dup2\n      dup7\n      gas\n      staticcall\n      iszero\n      dup1\n      iszero\n      tag_137\n      jumpi\n      returndatasize\n      0x00\n      dup1\n      returndatacopy\n      revert(0x00, returndatasize)\n    tag_137:\n      pop\n      pop\n      pop\n      pop\n      mload(0x40)\n      returndatasize\n      not(0x1f)\n      0x1f\n      dup3\n      add\n      and\n      dup3\n      add\n      dup1\n      0x40\n      mstore\n      pop\n      dup2\n      add\n      swap1\n      tag_138\n      swap2\n      swap1\n      tag_120\n      jump\t// in\n    tag_138:\n        /* \"Hook.sol\":4157:4205  uint supply = IERC20(ERC20Address).totalSupply() */\n      swap1\n      pop\n        /* \"Hook.sol\":4261:4275  uint liquidity */\n      0x00\n        /* \"Hook.sol\":4283:4295  ERC20Address */\n      0x01\n      0x00\n      swap1\n      sload\n      swap1\n      0x0100\n      exp\n      swap1\n      div\n      0xffffffffffffffffffffffffffffffffffffffff\n      and\n        /* \"Hook.sol\":4276:4306  IERC20(ERC20Address).balanceOf */\n      0xffffffffffffffffffffffffffffffffffffffff\n      and\n      0x70a08231\n        /* \"Hook.sol\":4307:4325  uniswapPairAddress */\n      0x02\n      0x00\n      swap1\n      sload\n      swap1\n      0x0100\n      exp\n      swap1\n      div\n      0xffffffffffffffffffffffffffffffffffffffff\n      and\n        /* \"Hook.sol\":4276:4326  IERC20(ERC20Address).balanceOf(uniswapPairAddress) */\n      mload(0x40)\n      dup3\n      0xffffffff\n      and\n      0xe0\n      shl\n      dup2\n      mstore\n      0x04\n      add\n      tag_139\n      swap2\n      swap1\n      tag_39\n      jump\t// in\n    tag_139:\n      0x20\n      mload(0x40)\n      dup1\n      dup4\n      sub\n      dup2\n      dup7\n      gas\n      staticcall\n      iszero\n      dup1\n      iszero\n      tag_141\n      jumpi\n      returndatasize\n      0x00\n      dup1\n      returndatacopy\n      revert(0x00, returndatasize)\n    tag_141:\n      pop\n      pop\n      pop\n      pop\n      mload(0x40)\n      returndatasize\n      not(0x1f)\n      0x1f\n      dup3\n      add\n      and\n      dup3\n      add\n      dup1\n      0x40\n      mstore\n      pop\n      dup2\n      add\n      swap1\n      tag_142\n      swap2\n      swap1\n      tag_120\n      jump\t// in\n    tag_142:\n        /* \"Hook.sol\":4261:4326  uint liquidity=IERC20(ERC20Address).balanceOf(uniswapPairAddress) */\n      swap1\n      pop\n        /* \"Hook.sol\":4420:4426  supply */\n      dup2\n        /* \"Hook.sol\":4415:4418  100 */\n      0x64\n        /* \"Hook.sol\":4405:4414  liquidity */\n      dup3\n        /* \"Hook.sol\":4405:4418  liquidity*100 */\n      tag_143\n      swap2\n      swap1\n      tag_144\n      jump\t// in\n    tag_143:\n        /* \"Hook.sol\":4404:4426  (liquidity*100)/supply */\n      tag_145\n      swap2\n      swap1\n      tag_146\n      jump\t// in\n    tag_145:\n        /* \"Hook.sol\":4397:4427  return((liquidity*100)/supply) */\n      swap3\n      pop\n      pop\n      pop\n        /* \"Hook.sol\":3948:4434  function percentLiquidity() public view returns (uint){... */\n      swap1\n      jump\t// out\n        /* \"Hook.sol\":9602:9715  function mintSomeTokens (uint tokens) public {... */\n    tag_108:\n        /* \"Hook.sol\":9666:9678  ERC20Address */\n      0x01\n      0x00\n      swap1\n      sload\n      swap1\n      0x0100\n      exp\n      swap1\n      div\n      0xffffffffffffffffffffffffffffffffffffffff\n      and\n        /* \"Hook.sol\":9657:9688  WethLike(ERC20Address).hookMint */\n      0xffffffffffffffffffffffffffffffffffffffff\n      and\n      0x96fe8349\n        /* \"Hook.sol\":9689:9695  tokens */\n      dup3\n        /* \"Hook.sol\":9697:9707  msg.sender */\n      caller\n        /* \"Hook.sol\":9657:9708  WethLike(ERC20Address).hookMint(tokens, msg.sender) */\n      mload(0x40)\n      dup4\n      0xffffffff\n      and\n      0xe0\n      shl\n      dup2\n      mstore\n      0x04\n      add\n      tag_148\n      swap3\n      swap2\n      swap1\n      tag_149\n      jump\t// in\n    tag_148:\n      0x00\n      mload(0x40)\n      dup1\n      dup4\n      sub\n      dup2\n      0x00\n      dup8\n      dup1\n      extcodesize\n      iszero\n      dup1\n      iszero\n      tag_150\n      jumpi\n      0x00\n      dup1\n      revert\n    tag_150:\n      pop\n      gas\n      call\n      iszero\n      dup1\n      iszero\n      tag_152\n      jumpi\n      returndatasize\n      0x00\n      dup1\n      returndatacopy\n      revert(0x00, returndatasize)\n    tag_152:\n      pop\n      pop\n      pop\n      pop\n        /* \"Hook.sol\":9602:9715  function mintSomeTokens (uint tokens) public {... */\n      pop\n      jump\t// out\n        /* \"Hook.sol\":3119:3479  function newTransaction (uint _receivedEth, address _newOwner) internal {... */\n    tag_111:\n        /* \"Hook.sol\":3201:3212  uint POAPId */\n      0x00\n        /* \"Hook.sol\":3215:3222  POAPIds */\n      0x0d\n        /* \"Hook.sol\":3215:3229  POAPIds.length */\n      dup1\n      sload\n      swap1\n      pop\n        /* \"Hook.sol\":3201:3229  uint POAPId = POAPIds.length */\n      swap1\n      pop\n        /* \"Hook.sol\":3239:3270  Transaction storage transaction */\n      0x00\n        /* \"Hook.sol\":3273:3294  transactionFromPOAPId */\n      0x0c\n        /* \"Hook.sol\":3273:3310  transactionFromPOAPId[POAPIds.length] */\n      0x00\n        /* \"Hook.sol\":3295:3302  POAPIds */\n      0x0d\n        /* \"Hook.sol\":3295:3309  POAPIds.length */\n      dup1\n      sload\n      swap1\n      pop\n        /* \"Hook.sol\":3273:3310  transactionFromPOAPId[POAPIds.length] */\n      dup2\n      mstore\n      0x20\n      add\n      swap1\n      dup2\n      mstore\n      0x20\n      add\n      0x00\n      keccak256\n        /* \"Hook.sol\":3239:3310  Transaction storage transaction = transactionFromPOAPId[POAPIds.length] */\n      swap1\n      pop\n        /* \"Hook.sol\":3341:3347  POAPId */\n      dup2\n        /* \"Hook.sol\":3320:3331  transaction */\n      dup2\n        /* \"Hook.sol\":3320:3338  transaction.POAPId */\n      0x00\n      add\n        /* \"Hook.sol\":3320:3347  transaction.POAPId = POAPId */\n      dup2\n      swap1\n      sstore\n      pop\n        /* \"Hook.sol\":3381:3390  _newOwner */\n      dup3\n        /* \"Hook.sol\":3357:3368  transaction */\n      dup2\n        /* \"Hook.sol\":3357:3378  transaction.purchaser */\n      0x01\n      add\n      0x00\n        /* \"Hook.sol\":3357:3390  transaction.purchaser = _newOwner */\n      0x0100\n      exp\n      dup2\n      sload\n      dup2\n      0xffffffffffffffffffffffffffffffffffffffff\n      mul\n      not\n      and\n      swap1\n      dup4\n      0xffffffffffffffffffffffffffffffffffffffff\n      and\n      mul\n      or\n      swap1\n      sstore\n      pop\n        /* \"Hook.sol\":3426:3438  _receivedEth */\n      dup4\n        /* \"Hook.sol\":3400:3411  transaction */\n      dup2\n        /* \"Hook.sol\":3400:3423  transaction.receivedEth */\n      0x02\n      add\n        /* \"Hook.sol\":3400:3438  transaction.receivedEth = _receivedEth */\n      dup2\n      swap1\n      sstore\n      pop\n        /* \"Hook.sol\":3448:3455  POAPIds */\n      0x0d\n        /* \"Hook.sol\":3461:3467  POAPId */\n      dup3\n        /* \"Hook.sol\":3448:3468  POAPIds.push(POAPId) */\n      swap1\n      dup1\n      0x01\n      dup2\n      sload\n      add\n      dup1\n      dup3\n      sstore\n      dup1\n      swap2\n      pop\n      pop\n      0x01\n      swap1\n      sub\n      swap1\n      0x00\n      mstore\n      keccak256(0x00, 0x20)\n      add\n      0x00\n      swap1\n      swap2\n      swap1\n      swap2\n      swap1\n      swap2\n      pop\n      sstore\n        /* \"Hook.sol\":3191:3479  {... */\n      pop\n      pop\n        /* \"Hook.sol\":3119:3479  function newTransaction (uint _receivedEth, address _newOwner) internal {... */\n      pop\n      pop\n      jump\t// out\n        /* \"Hook.sol\":7837:9596  function processETH() internal{... */\n    tag_113:\n        /* \"Hook.sol\":7877:7890  uint msgValue */\n      0x00\n        /* \"Hook.sol\":7893:7902  msg.value */\n      callvalue\n        /* \"Hook.sol\":7877:7902  uint msgValue = msg.value */\n      swap1\n      pop\n        /* \"Hook.sol\":7922:7923  0 */\n      0x00\n        /* \"Hook.sol\":7915:7921  buyEth */\n      sload(0x0f)\n        /* \"Hook.sol\":7915:7923  buyEth>0 */\n      gt\n        /* \"Hook.sol\":7912:8162  if(buyEth>0){... */\n      iszero\n      tag_156\n      jumpi\n        /* \"Hook.sol\":7938:7951  uint _balance */\n      0x00\n        /* \"Hook.sol\":7954:7975  address(this).balance */\n      selfbalance\n        /* \"Hook.sol\":7938:7975  uint _balance = address(this).balance */\n      swap1\n      pop\n        /* \"Hook.sol\":7989:8007  buyAndBurn(buyEth) */\n      tag_157\n        /* \"Hook.sol\":8000:8006  buyEth */\n      sload(0x0f)\n        /* \"Hook.sol\":7989:7999  buyAndBurn */\n      tag_158\n        /* \"Hook.sol\":7989:8007  buyAndBurn(buyEth) */\n      jump\t// in\n    tag_157:\n        /* \"Hook.sol\":8021:8037  uint _newBalance */\n      0x00\n        /* \"Hook.sol\":8040:8061  address(this).balance */\n      selfbalance\n        /* \"Hook.sol\":8021:8061  uint _newBalance = address(this).balance */\n      swap1\n      pop\n        /* \"Hook.sol\":8075:8091  uint _difference */\n      0x00\n        /* \"Hook.sol\":8105:8116  _newBalance */\n      dup2\n        /* \"Hook.sol\":8094:8102  _balance */\n      dup4\n        /* \"Hook.sol\":8094:8116  _balance - _newBalance */\n      tag_159\n      swap2\n      swap1\n      tag_160\n      jump\t// in\n    tag_159:\n        /* \"Hook.sol\":8075:8116  uint _difference = _balance - _newBalance */\n      swap1\n      pop\n        /* \"Hook.sol\":8140:8151  _difference */\n      dup1\n        /* \"Hook.sol\":8130:8136  buyEth */\n      0x0f\n      0x00\n        /* \"Hook.sol\":8130:8151  buyEth -= _difference */\n      dup3\n      dup3\n      sload\n      tag_161\n      swap2\n      swap1\n      tag_160\n      jump\t// in\n    tag_161:\n      swap3\n      pop\n      pop\n      dup2\n      swap1\n      sstore\n      pop\n        /* \"Hook.sol\":7924:8162  {... */\n      pop\n      pop\n      pop\n        /* \"Hook.sol\":7912:8162  if(buyEth>0){... */\n    tag_156:\n        /* \"Hook.sol\":8187:8188  0 */\n      0x00\n        /* \"Hook.sol\":8174:8186  liquidityEth */\n      sload(0x10)\n        /* \"Hook.sol\":8174:8188  liquidityEth>0 */\n      gt\n        /* \"Hook.sol\":8171:8445  if(liquidityEth>0){... */\n      iszero\n      tag_162\n      jumpi\n        /* \"Hook.sol\":8203:8216  uint _balance */\n      0x00\n        /* \"Hook.sol\":8219:8240  address(this).balance */\n      selfbalance\n        /* \"Hook.sol\":8203:8240  uint _balance = address(this).balance */\n      swap1\n      pop\n        /* \"Hook.sol\":8254:8284  provideLiquidity(liquidityEth) */\n      tag_163\n        /* \"Hook.sol\":8271:8283  liquidityEth */\n      sload(0x10)\n        /* \"Hook.sol\":8254:8270  provideLiquidity */\n      tag_164\n        /* \"Hook.sol\":8254:8284  provideLiquidity(liquidityEth) */\n      jump\t// in\n    tag_163:\n      pop\n        /* \"Hook.sol\":8298:8314  uint _newBalance */\n      0x00\n        /* \"Hook.sol\":8317:8338  address(this).balance */\n      selfbalance\n        /* \"Hook.sol\":8298:8338  uint _newBalance = address(this).balance */\n      swap1\n      pop\n        /* \"Hook.sol\":8352:8368  uint _difference */\n      0x00\n        /* \"Hook.sol\":8382:8393  _newBalance */\n      dup2\n        /* \"Hook.sol\":8371:8379  _balance */\n      dup4\n        /* \"Hook.sol\":8371:8393  _balance - _newBalance */\n      tag_165\n      swap2\n      swap1\n      tag_160\n      jump\t// in\n    tag_165:\n        /* \"Hook.sol\":8352:8393  uint _difference = _balance - _newBalance */\n      swap1\n      pop\n        /* \"Hook.sol\":8423:8434  _difference */\n      dup1\n        /* \"Hook.sol\":8407:8419  liquidityEth */\n      0x10\n      0x00\n        /* \"Hook.sol\":8407:8434  liquidityEth -= _difference */\n      dup3\n      dup3\n      sload\n      tag_166\n      swap2\n      swap1\n      tag_160\n      jump\t// in\n    tag_166:\n      swap3\n      pop\n      pop\n      dup2\n      swap1\n      sstore\n      pop\n        /* \"Hook.sol\":8189:8445  {... */\n      pop\n      pop\n      pop\n        /* \"Hook.sol\":8171:8445  if(liquidityEth>0){... */\n    tag_162:\n        /* \"Hook.sol\":8458:8480  address previousHolder */\n      0x00\n        /* \"Hook.sol\":8483:8504  transactionFromPOAPId */\n      0x0c\n        /* \"Hook.sol\":8483:8523  transactionFromPOAPId[POAPIds.length -1] */\n      0x00\n        /* \"Hook.sol\":8521:8522  1 */\n      0x01\n        /* \"Hook.sol\":8505:8512  POAPIds */\n      0x0d\n        /* \"Hook.sol\":8505:8519  POAPIds.length */\n      dup1\n      sload\n      swap1\n      pop\n        /* \"Hook.sol\":8505:8522  POAPIds.length -1 */\n      tag_167\n      swap2\n      swap1\n      tag_160\n      jump\t// in\n    tag_167:\n        /* \"Hook.sol\":8483:8523  transactionFromPOAPId[POAPIds.length -1] */\n      dup2\n      mstore\n      0x20\n      add\n      swap1\n      dup2\n      mstore\n      0x20\n      add\n      0x00\n      keccak256\n        /* \"Hook.sol\":8483:8533  transactionFromPOAPId[POAPIds.length -1].purchaser */\n      0x01\n      add\n      0x00\n      swap1\n      sload\n      swap1\n      0x0100\n      exp\n      swap1\n      div\n      0xffffffffffffffffffffffffffffffffffffffff\n      and\n        /* \"Hook.sol\":8458:8533  address previousHolder = transactionFromPOAPId[POAPIds.length -1].purchaser */\n      swap1\n      pop\n        /* \"Hook.sol\":8547:8584  erc20ToPreviousHolder(previousHolder) */\n      tag_168\n        /* \"Hook.sol\":8569:8583  previousHolder */\n      dup2\n        /* \"Hook.sol\":8547:8568  erc20ToPreviousHolder */\n      tag_169\n        /* \"Hook.sol\":8547:8584  erc20ToPreviousHolder(previousHolder) */\n      jump\t// in\n    tag_168:\n        /* \"Hook.sol\":8598:8602  POAP */\n      0x08\n      0x00\n      swap1\n      sload\n      swap1\n      0x0100\n      exp\n      swap1\n      div\n      0xffffffffffffffffffffffffffffffffffffffff\n      and\n        /* \"Hook.sol\":8598:8607  POAP.mint */\n      0xffffffffffffffffffffffffffffffffffffffff\n      and\n      0x6a627842\n        /* \"Hook.sol\":8608:8622  previousHolder */\n      dup3\n        /* \"Hook.sol\":8598:8623  POAP.mint(previousHolder) */\n      mload(0x40)\n      dup3\n      0xffffffff\n      and\n      0xe0\n      shl\n      dup2\n      mstore\n      0x04\n      add\n      tag_170\n      swap2\n      swap1\n      tag_39\n      jump\t// in\n    tag_170:\n      0x00\n      mload(0x40)\n      dup1\n      dup4\n      sub\n      dup2\n      0x00\n      dup8\n      dup1\n      extcodesize\n      iszero\n      dup1\n      iszero\n      tag_171\n      jumpi\n      0x00\n      dup1\n      revert\n    tag_171:\n      pop\n      gas\n      call\n      iszero\n      dup1\n      iszero\n      tag_173\n      jumpi\n      returndatasize\n      0x00\n      dup1\n      returndatacopy\n      revert(0x00, returndatasize)\n    tag_173:\n      pop\n      pop\n      pop\n      pop\n        /* \"Hook.sol\":8633:8655  uint _percentLiquidity */\n      0x00\n        /* \"Hook.sol\":8658:8676  percentLiquidity() */\n      tag_174\n        /* \"Hook.sol\":8658:8674  percentLiquidity */\n      tag_103\n        /* \"Hook.sol\":8658:8676  percentLiquidity() */\n      jump\t// in\n    tag_174:\n        /* \"Hook.sol\":8633:8676  uint _percentLiquidity = percentLiquidity() */\n      swap1\n      pop\n        /* \"Hook.sol\":8691:8716  Log('previous Holder is') */\n      0xcf34ef537ac33ee1ac626ca1587a0a7e8e51561e5514f8cb36afa1c5102b3bab\n      mload(0x40)\n      tag_175\n      swap1\n      tag_176\n      jump\t// in\n    tag_175:\n      mload(0x40)\n      dup1\n      swap2\n      sub\n      swap1\n      log1\n        /* \"Hook.sol\":8731:8750  Log(previousHolder) */\n      0xb8a00d6d8ca1be30bfec34d8f97e55f0f0fd9eeb7fb46e030516363d4cfe1ad6\n        /* \"Hook.sol\":8735:8749  previousHolder */\n      dup3\n        /* \"Hook.sol\":8731:8750  Log(previousHolder) */\n      mload(0x40)\n      tag_177\n      swap2\n      swap1\n      tag_39\n      jump\t// in\n    tag_177:\n      mload(0x40)\n      dup1\n      swap2\n      sub\n      swap1\n      log1\n        /* \"Hook.sol\":8765:8797  Log('current liquidity percent') */\n      0xcf34ef537ac33ee1ac626ca1587a0a7e8e51561e5514f8cb36afa1c5102b3bab\n      mload(0x40)\n      tag_178\n      swap1\n      tag_179\n      jump\t// in\n    tag_178:\n      mload(0x40)\n      dup1\n      swap2\n      sub\n      swap1\n      log1\n        /* \"Hook.sol\":8812:8834  Log(_percentLiquidity) */\n      0x909c57d5c6ac08245cf2a6de3900e2b868513fa59099b92b27d8db823d92df9c\n        /* \"Hook.sol\":8816:8833  _percentLiquidity */\n      dup2\n        /* \"Hook.sol\":8812:8834  Log(_percentLiquidity) */\n      mload(0x40)\n      tag_180\n      swap2\n      swap1\n      tag_51\n      jump\t// in\n    tag_180:\n      mload(0x40)\n      dup1\n      swap2\n      sub\n      swap1\n      log1\n        /* \"Hook.sol\":8914:8916  20 */\n      0x14\n        /* \"Hook.sol\":8896:8913  _percentLiquidity */\n      dup2\n        /* \"Hook.sol\":8896:8916  _percentLiquidity>20 */\n      gt\n        /* \"Hook.sol\":8893:9590  if(_percentLiquidity>20){... */\n      iszero\n      tag_181\n      jumpi\n        /* \"Hook.sol\":8931:8944  uint _balance */\n      0x00\n        /* \"Hook.sol\":8947:8968  address(this).balance */\n      selfbalance\n        /* \"Hook.sol\":8931:8968  uint _balance = address(this).balance */\n      swap1\n      pop\n        /* \"Hook.sol\":8982:9003  buyAndBurn(msg.value) */\n      tag_182\n        /* \"Hook.sol\":8993:9002  msg.value */\n      callvalue\n        /* \"Hook.sol\":8982:8992  buyAndBurn */\n      tag_158\n        /* \"Hook.sol\":8982:9003  buyAndBurn(msg.value) */\n      jump\t// in\n    tag_182:\n        /* \"Hook.sol\":9017:9033  uint _newBalance */\n      0x00\n        /* \"Hook.sol\":9036:9057  address(this).balance */\n      selfbalance\n        /* \"Hook.sol\":9017:9057  uint _newBalance = address(this).balance */\n      swap1\n      pop\n        /* \"Hook.sol\":9071:9087  uint _difference */\n      0x00\n        /* \"Hook.sol\":9101:9112  _newBalance */\n      dup2\n        /* \"Hook.sol\":9090:9098  _balance */\n      dup4\n        /* \"Hook.sol\":9090:9112  _balance - _newBalance */\n      tag_183\n      swap2\n      swap1\n      tag_160\n      jump\t// in\n    tag_183:\n        /* \"Hook.sol\":9071:9112  uint _difference = _balance - _newBalance */\n      swap1\n      pop\n        /* \"Hook.sol\":9126:9154  uint _amountLeftFromMsgValue */\n      0x00\n        /* \"Hook.sol\":9168:9179  _difference */\n      dup2\n        /* \"Hook.sol\":9157:9165  msgValue */\n      dup8\n        /* \"Hook.sol\":9157:9179  msgValue - _difference */\n      tag_184\n      swap2\n      swap1\n      tag_160\n      jump\t// in\n    tag_184:\n        /* \"Hook.sol\":9126:9179  uint _amountLeftFromMsgValue = msgValue - _difference */\n      swap1\n      pop\n        /* \"Hook.sol\":9203:9226  _amountLeftFromMsgValue */\n      dup1\n        /* \"Hook.sol\":9193:9199  buyEth */\n      0x0f\n      0x00\n        /* \"Hook.sol\":9193:9226  buyEth += _amountLeftFromMsgValue */\n      dup3\n      dup3\n      sload\n      tag_185\n      swap2\n      swap1\n      tag_186\n      jump\t// in\n    tag_185:\n      swap3\n      pop\n      pop\n      dup2\n      swap1\n      sstore\n      pop\n        /* \"Hook.sol\":8917:9238  {... */\n      pop\n      pop\n      pop\n      pop\n        /* \"Hook.sol\":8893:9590  if(_percentLiquidity>20){... */\n      jump(tag_187)\n    tag_181:\n        /* \"Hook.sol\":9258:9271  uint _balance */\n      0x00\n        /* \"Hook.sol\":9274:9295  address(this).balance */\n      selfbalance\n        /* \"Hook.sol\":9258:9295  uint _balance = address(this).balance */\n      swap1\n      pop\n        /* \"Hook.sol\":9309:9349  provideLiquidity(liquidityEth+msg.value) */\n      tag_188\n        /* \"Hook.sol\":9339:9348  msg.value */\n      callvalue\n        /* \"Hook.sol\":9326:9338  liquidityEth */\n      sload(0x10)\n        /* \"Hook.sol\":9326:9348  liquidityEth+msg.value */\n      tag_189\n      swap2\n      swap1\n      tag_186\n      jump\t// in\n    tag_189:\n        /* \"Hook.sol\":9309:9325  provideLiquidity */\n      tag_164\n        /* \"Hook.sol\":9309:9349  provideLiquidity(liquidityEth+msg.value) */\n      jump\t// in\n    tag_188:\n      pop\n        /* \"Hook.sol\":9363:9379  uint _newBalance */\n      0x00\n        /* \"Hook.sol\":9382:9403  address(this).balance */\n      selfbalance\n        /* \"Hook.sol\":9363:9403  uint _newBalance = address(this).balance */\n      swap1\n      pop\n        /* \"Hook.sol\":9417:9433  uint _difference */\n      0x00\n        /* \"Hook.sol\":9447:9458  _newBalance */\n      dup2\n        /* \"Hook.sol\":9436:9444  _balance */\n      dup4\n        /* \"Hook.sol\":9436:9458  _balance - _newBalance */\n      tag_190\n      swap2\n      swap1\n      tag_160\n      jump\t// in\n    tag_190:\n        /* \"Hook.sol\":9417:9458  uint _difference = _balance - _newBalance */\n      swap1\n      pop\n        /* \"Hook.sol\":9472:9500  uint _amountLeftFromMsgValue */\n      0x00\n        /* \"Hook.sol\":9514:9525  _difference */\n      dup2\n        /* \"Hook.sol\":9503:9511  msgValue */\n      dup8\n        /* \"Hook.sol\":9503:9525  msgValue - _difference */\n      tag_191\n      swap2\n      swap1\n      tag_160\n      jump\t// in\n    tag_191:\n        /* \"Hook.sol\":9472:9525  uint _amountLeftFromMsgValue = msgValue - _difference */\n      swap1\n      pop\n        /* \"Hook.sol\":9555:9578  _amountLeftFromMsgValue */\n      dup1\n        /* \"Hook.sol\":9539:9551  liquidityEth */\n      0x10\n      0x00\n        /* \"Hook.sol\":9539:9578  liquidityEth += _amountLeftFromMsgValue */\n      dup3\n      dup3\n      sload\n      tag_192\n      swap2\n      swap1\n      tag_186\n      jump\t// in\n    tag_192:\n      swap3\n      pop\n      pop\n      dup2\n      swap1\n      sstore\n      pop\n        /* \"Hook.sol\":9244:9590  {... */\n      pop\n      pop\n      pop\n      pop\n        /* \"Hook.sol\":8893:9590  if(_percentLiquidity>20){... */\n    tag_187:\n        /* \"Hook.sol\":7867:9596  {... */\n      pop\n      pop\n      pop\n        /* \"Hook.sol\":7837:9596  function processETH() internal{... */\n      jump\t// out\n        /* \"Hook.sol\":6853:7134  function buyAndBurn(uint _buyEth) internal{... */\n    tag_158:\n        /* \"Hook.sol\":6905:6916  uint tokens */\n      0x00\n        /* \"Hook.sol\":6919:6937  buyTokens(_buyEth) */\n      tag_194\n        /* \"Hook.sol\":6929:6936  _buyEth */\n      dup3\n        /* \"Hook.sol\":6919:6928  buyTokens */\n      tag_195\n        /* \"Hook.sol\":6919:6937  buyTokens(_buyEth) */\n      jump\t// in\n    tag_194:\n        /* \"Hook.sol\":6905:6937  uint tokens = buyTokens(_buyEth) */\n      swap1\n      pop\n        /* \"Hook.sol\":6960:6972  ERC20Address */\n      0x01\n      0x00\n      swap1\n      sload\n      swap1\n      0x0100\n      exp\n      swap1\n      div\n      0xffffffffffffffffffffffffffffffffffffffff\n      and\n        /* \"Hook.sol\":6951:6978  WethLike(ERC20Address).burn */\n      0xffffffffffffffffffffffffffffffffffffffff\n      and\n      0x9dc29fac\n        /* \"Hook.sol\":6979:6989  msg.sender */\n      caller\n        /* \"Hook.sol\":6991:6997  tokens */\n      dup4\n        /* \"Hook.sol\":6951:6998  WethLike(ERC20Address).burn(msg.sender, tokens) */\n      mload(0x40)\n      dup4\n      0xffffffff\n      and\n      0xe0\n      shl\n      dup2\n      mstore\n      0x04\n      add\n      tag_196\n      swap3\n      swap2\n      swap1\n      tag_122\n      jump\t// in\n    tag_196:\n      0x00\n      mload(0x40)\n      dup1\n      dup4\n      sub\n      dup2\n      0x00\n      dup8\n      dup1\n      extcodesize\n      iszero\n      dup1\n      iszero\n      tag_197\n      jumpi\n      0x00\n      dup1\n      revert\n    tag_197:\n      pop\n      gas\n      call\n      swap3\n      pop\n      pop\n      pop\n      dup1\n      iszero\n      tag_198\n      jumpi\n      pop\n      0x01\n    tag_198:\n        /* \"Hook.sol\":6947:7128  try WethLike(ERC20Address).burn(msg.sender, tokens){... */\n      tag_199\n      jumpi\n        /* \"Hook.sol\":7090:7117  Log('tokens cant be burnt') */\n      0xcf34ef537ac33ee1ac626ca1587a0a7e8e51561e5514f8cb36afa1c5102b3bab\n      mload(0x40)\n      tag_203\n      swap1\n      tag_204\n      jump\t// in\n    tag_203:\n      mload(0x40)\n      dup1\n      swap2\n      sub\n      swap1\n      log1\n        /* \"Hook.sol\":6947:7128  try WethLike(ERC20Address).burn(msg.sender, tokens){... */\n      jump(tag_205)\n    tag_199:\n        /* \"Hook.sol\":7017:7046  Log('tokens have been burnt') */\n      0xcf34ef537ac33ee1ac626ca1587a0a7e8e51561e5514f8cb36afa1c5102b3bab\n      mload(0x40)\n      tag_206\n      swap1\n      tag_207\n      jump\t// in\n    tag_206:\n      mload(0x40)\n      dup1\n      swap2\n      sub\n      swap1\n      log1\n        /* \"Hook.sol\":6947:7128  try WethLike(ERC20Address).burn(msg.sender, tokens){... */\n    tag_205:\n        /* \"Hook.sol\":6895:7134  {... */\n      pop\n        /* \"Hook.sol\":6853:7134  function buyAndBurn(uint _buyEth) internal{... */\n      pop\n      jump\t// out\n        /* \"Hook.sol\":4440:5736  function provideLiquidity(uint _liquidityEth) internal returns (uint){... */\n    tag_164:\n        /* \"Hook.sol\":4504:4508  uint */\n      0x00\n        /* \"Hook.sol\":4528:4555  uint ERC20LiquidityProvided */\n      dup1\n        /* \"Hook.sol\":4635:4659  uint currentERC20Balance */\n      0x00\n        /* \"Hook.sol\":4669:4681  ERC20Address */\n      0x01\n      0x00\n      swap1\n      sload\n      swap1\n      0x0100\n      exp\n      swap1\n      div\n      0xffffffffffffffffffffffffffffffffffffffff\n      and\n        /* \"Hook.sol\":4662:4692  IERC20(ERC20Address).balanceOf */\n      0xffffffffffffffffffffffffffffffffffffffff\n      and\n      0x70a08231\n        /* \"Hook.sol\":4701:4705  this */\n      address\n        /* \"Hook.sol\":4662:4707  IERC20(ERC20Address).balanceOf(address(this)) */\n      mload(0x40)\n      dup3\n      0xffffffff\n      and\n      0xe0\n      shl\n      dup2\n      mstore\n      0x04\n      add\n      tag_209\n      swap2\n      swap1\n      tag_39\n      jump\t// in\n    tag_209:\n      0x20\n      mload(0x40)\n      dup1\n      dup4\n      sub\n      dup2\n      dup7\n      gas\n      staticcall\n      iszero\n      dup1\n      iszero\n      tag_211\n      jumpi\n      returndatasize\n      0x00\n      dup1\n      returndatacopy\n      revert(0x00, returndatasize)\n    tag_211:\n      pop\n      pop\n      pop\n      pop\n      mload(0x40)\n      returndatasize\n      not(0x1f)\n      0x1f\n      dup3\n      add\n      and\n      dup3\n      add\n      dup1\n      0x40\n      mstore\n      pop\n      dup2\n      add\n      swap1\n      tag_212\n      swap2\n      swap1\n      tag_120\n      jump\t// in\n    tag_212:\n        /* \"Hook.sol\":4635:4707  uint currentERC20Balance = IERC20(ERC20Address).balanceOf(address(this)) */\n      swap1\n      pop\n        /* \"Hook.sol\":4790:4807  uint tokensToSend */\n      0x00\n        /* \"Hook.sol\":4866:4869  100 */\n      0x64\n        /* \"Hook.sol\":4860:4863  105 */\n      0x69\n        /* \"Hook.sol\":4810:4816  Oracle */\n      0x0a\n      0x00\n      swap1\n      sload\n      swap1\n      0x0100\n      exp\n      swap1\n      div\n      0xffffffffffffffffffffffffffffffffffffffff\n      and\n        /* \"Hook.sol\":4810:4830  Oracle.consultPrices */\n      0xffffffffffffffffffffffffffffffffffffffff\n      and\n      0x3ac35585\n        /* \"Hook.sol\":4831:4842  WethAddress */\n      0x00\n      dup1\n      sload\n      swap1\n      0x0100\n      exp\n      swap1\n      div\n      0xffffffffffffffffffffffffffffffffffffffff\n      and\n        /* \"Hook.sol\":4844:4857  _liquidityEth */\n      dup10\n        /* \"Hook.sol\":4810:4858  Oracle.consultPrices(WethAddress, _liquidityEth) */\n      mload(0x40)\n      dup4\n      0xffffffff\n      and\n      0xe0\n      shl\n      dup2\n      mstore\n      0x04\n      add\n      tag_213\n      swap3\n      swap2\n      swap1\n      tag_122\n      jump\t// in\n    tag_213:\n      0x20\n      mload(0x40)\n      dup1\n      dup4\n      sub\n      dup2\n      dup7\n      gas\n      staticcall\n      iszero\n      dup1\n      iszero\n      tag_215\n      jumpi\n      returndatasize\n      0x00\n      dup1\n      returndatacopy\n      revert(0x00, returndatasize)\n    tag_215:\n      pop\n      pop\n      pop\n      pop\n      mload(0x40)\n      returndatasize\n      not(0x1f)\n      0x1f\n      dup3\n      add\n      and\n      dup3\n      add\n      dup1\n      0x40\n      mstore\n      pop\n      dup2\n      add\n      swap1\n      tag_216\n      swap2\n      swap1\n      tag_120\n      jump\t// in\n    tag_216:\n        /* \"Hook.sol\":4810:4863  Oracle.consultPrices(WethAddress, _liquidityEth)* 105 */\n      tag_217\n      swap2\n      swap1\n      tag_144\n      jump\t// in\n    tag_217:\n        /* \"Hook.sol\":4810:4869  Oracle.consultPrices(WethAddress, _liquidityEth)* 105 / 100 */\n      tag_218\n      swap2\n      swap1\n      tag_146\n      jump\t// in\n    tag_218:\n        /* \"Hook.sol\":4790:4869  uint tokensToSend = Oracle.consultPrices(WethAddress, _liquidityEth)* 105 / 100 */\n      swap1\n      pop\n        /* \"Hook.sol\":4991:5010  currentERC20Balance */\n      dup2\n        /* \"Hook.sol\":4976:4988  tokensToSend */\n      dup2\n        /* \"Hook.sol\":4976:5010  tokensToSend > currentERC20Balance */\n      gt\n        /* \"Hook.sol\":4973:5196  if(tokensToSend > currentERC20Balance){... */\n      iszero\n      tag_219\n      jumpi\n        /* \"Hook.sol\":5034:5046  ERC20Address */\n      0x01\n      0x00\n      swap1\n      sload\n      swap1\n      0x0100\n      exp\n      swap1\n      div\n      0xffffffffffffffffffffffffffffffffffffffff\n      and\n        /* \"Hook.sol\":5025:5056  WethLike(ERC20Address).hookMint */\n      0xffffffffffffffffffffffffffffffffffffffff\n      and\n      0x96fe8349\n        /* \"Hook.sol\":5070:5089  currentERC20Balance */\n      dup4\n        /* \"Hook.sol\":5057:5069  tokensToSend */\n      dup4\n        /* \"Hook.sol\":5057:5089  tokensToSend-currentERC20Balance */\n      tag_220\n      swap2\n      swap1\n      tag_160\n      jump\t// in\n    tag_220:\n        /* \"Hook.sol\":5098:5102  this */\n      address\n        /* \"Hook.sol\":5025:5104  WethLike(ERC20Address).hookMint(tokensToSend-currentERC20Balance,address(this)) */\n      mload(0x40)\n      dup4\n      0xffffffff\n      and\n      0xe0\n      shl\n      dup2\n      mstore\n      0x04\n      add\n      tag_221\n      swap3\n      swap2\n      swap1\n      tag_149\n      jump\t// in\n    tag_221:\n      0x00\n      mload(0x40)\n      dup1\n      dup4\n      sub\n      dup2\n      0x00\n      dup8\n      dup1\n      extcodesize\n      iszero\n      dup1\n      iszero\n      tag_222\n      jumpi\n      0x00\n      dup1\n      revert\n    tag_222:\n      pop\n      gas\n      call\n      iszero\n      dup1\n      iszero\n      tag_224\n      jumpi\n      returndatasize\n      0x00\n      dup1\n      returndatacopy\n      revert(0x00, returndatasize)\n    tag_224:\n      pop\n      pop\n      pop\n      pop\n        /* \"Hook.sol\":5147:5159  ERC20Address */\n      0x01\n      0x00\n      swap1\n      sload\n      swap1\n      0x0100\n      exp\n      swap1\n      div\n      0xffffffffffffffffffffffffffffffffffffffff\n      and\n        /* \"Hook.sol\":5140:5170  IERC20(ERC20Address).balanceOf */\n      0xffffffffffffffffffffffffffffffffffffffff\n      and\n      0x70a08231\n        /* \"Hook.sol\":5179:5183  this */\n      address\n        /* \"Hook.sol\":5140:5185  IERC20(ERC20Address).balanceOf(address(this)) */\n      mload(0x40)\n      dup3\n      0xffffffff\n      and\n      0xe0\n      shl\n      dup2\n      mstore\n      0x04\n      add\n      tag_225\n      swap2\n      swap1\n      tag_39\n      jump\t// in\n    tag_225:\n      0x20\n      mload(0x40)\n      dup1\n      dup4\n      sub\n      dup2\n      dup7\n      gas\n      staticcall\n      iszero\n      dup1\n      iszero\n      tag_227\n      jumpi\n      returndatasize\n      0x00\n      dup1\n      returndatacopy\n      revert(0x00, returndatasize)\n    tag_227:\n      pop\n      pop\n      pop\n      pop\n      mload(0x40)\n      returndatasize\n      not(0x1f)\n      0x1f\n      dup3\n      add\n      and\n      dup3\n      add\n      dup1\n      0x40\n      mstore\n      pop\n      dup2\n      add\n      swap1\n      tag_228\n      swap2\n      swap1\n      tag_120\n      jump\t// in\n    tag_228:\n        /* \"Hook.sol\":5118:5185  currentERC20Balance = IERC20(ERC20Address).balanceOf(address(this)) */\n      swap2\n      pop\n        /* \"Hook.sol\":4973:5196  if(tokensToSend > currentERC20Balance){... */\n    tag_219:\n        /* \"Hook.sol\":5268:5281  UniswapRouter */\n      0x0b\n      0x00\n      swap1\n      sload\n      swap1\n      0x0100\n      exp\n      swap1\n      div\n      0xffffffffffffffffffffffffffffffffffffffff\n      and\n        /* \"Hook.sol\":5268:5297  UniswapRouter.addLiquidityETH */\n      0xffffffffffffffffffffffffffffffffffffffff\n      and\n      0xf305d719\n        /* \"Hook.sol\":5306:5319  _liquidityEth */\n      dup7\n        /* \"Hook.sol\":5330:5334  this */\n      address\n        /* \"Hook.sol\":5337:5349  tokensToSend */\n      dup5\n        /* \"Hook.sol\":5371:5374  105 */\n      0x69\n        /* \"Hook.sol\":5367:5369  95 */\n      0x5f\n        /* \"Hook.sol\":5352:5364  tokensToSend */\n      dup8\n        /* \"Hook.sol\":5352:5369  tokensToSend * 95 */\n      tag_229\n      swap2\n      swap1\n      tag_144\n      jump\t// in\n    tag_229:\n        /* \"Hook.sol\":5351:5374  (tokensToSend * 95)/105 */\n      tag_230\n      swap2\n      swap1\n      tag_146\n      jump\t// in\n    tag_230:\n        /* \"Hook.sol\":5397:5400  100 */\n      0x64\n        /* \"Hook.sol\":5393:5395  95 */\n      0x5f\n        /* \"Hook.sol\":5377:5390  _liquidityEth */\n      dup13\n        /* \"Hook.sol\":5377:5395  _liquidityEth * 95 */\n      tag_231\n      swap2\n      swap1\n      tag_144\n      jump\t// in\n    tag_231:\n        /* \"Hook.sol\":5376:5400  (_liquidityEth * 95)/100 */\n      tag_232\n      swap2\n      swap1\n      tag_146\n      jump\t// in\n    tag_232:\n        /* \"Hook.sol\":5410:5414  this */\n      address\n        /* \"Hook.sol\":5417:5431  type(uint).max */\n      0xffffffffffffffffffffffffffffffffffffffffffffffffffffffffffffffff\n        /* \"Hook.sol\":5268:5432  UniswapRouter.addLiquidityETH {value: _liquidityEth} (address(this), tokensToSend, (tokensToSend * 95)/105, (_liquidityEth * 95)/100, address(this), type(uint).max) */\n      mload(0x40)\n      dup9\n      0xffffffff\n      and\n      0xe0\n      shl\n      dup2\n      mstore\n      0x04\n      add\n      tag_233\n      swap7\n      swap6\n      swap5\n      swap4\n      swap3\n      swap2\n      swap1\n      tag_234\n      jump\t// in\n    tag_233:\n      0x60\n      mload(0x40)\n      dup1\n      dup4\n      sub\n      dup2\n      dup6\n      dup9\n      gas\n      call\n      swap4\n      pop\n      pop\n      pop\n      pop\n      dup1\n      iszero\n      tag_235\n      jumpi\n      pop\n      mload(0x40)\n      returndatasize\n      not(0x1f)\n      0x1f\n      dup3\n      add\n      and\n      dup3\n      add\n      dup1\n      0x40\n      mstore\n      pop\n      dup2\n      add\n      swap1\n      tag_236\n      swap2\n      swap1\n      tag_237\n      jump\t// in\n    tag_236:\n      0x01\n    tag_235:\n        /* \"Hook.sol\":5264:5689  try UniswapRouter.addLiquidityETH {value: _liquidityEth} (address(this), tokensToSend, (tokensToSend * 95)/105, (_liquidityEth * 95)/100, address(this), type(uint).max)... */\n      tag_238\n      jumpi\n        /* \"Hook.sol\":5649:5678  Log(\"Liquidity Not Provided\") */\n      0xcf34ef537ac33ee1ac626ca1587a0a7e8e51561e5514f8cb36afa1c5102b3bab\n      mload(0x40)\n      tag_242\n      swap1\n      tag_243\n      jump\t// in\n    tag_242:\n      mload(0x40)\n      dup1\n      swap2\n      sub\n      swap1\n      log1\n        /* \"Hook.sol\":5264:5689  try UniswapRouter.addLiquidityETH {value: _liquidityEth} (address(this), tokensToSend, (tokensToSend * 95)/105, (_liquidityEth * 95)/100, address(this), type(uint).max)... */\n      jump(tag_244)\n    tag_238:\n      pop\n      pop\n      pop\n        /* \"Hook.sol\":5460:5498  Log(\"liquidity Successfully Provided\") */\n      0xcf34ef537ac33ee1ac626ca1587a0a7e8e51561e5514f8cb36afa1c5102b3bab\n      mload(0x40)\n      tag_245\n      swap1\n      tag_246\n      jump\t// in\n    tag_245:\n      mload(0x40)\n      dup1\n      swap2\n      sub\n      swap1\n      log1\n        /* \"Hook.sol\":5566:5578  ERC20Address */\n      0x01\n      0x00\n      swap1\n      sload\n      swap1\n      0x0100\n      exp\n      swap1\n      div\n      0xffffffffffffffffffffffffffffffffffffffff\n      and\n        /* \"Hook.sol\":5559:5589  IERC20(ERC20Address).balanceOf */\n      0xffffffffffffffffffffffffffffffffffffffff\n      and\n      0x70a08231\n        /* \"Hook.sol\":5598:5602  this */\n      address\n        /* \"Hook.sol\":5559:5604  IERC20(ERC20Address).balanceOf(address(this)) */\n      mload(0x40)\n      dup3\n      0xffffffff\n      and\n      0xe0\n      shl\n      dup2\n      mstore\n      0x04\n      add\n      tag_247\n      swap2\n      swap1\n      tag_39\n      jump\t// in\n    tag_247:\n      0x20\n      mload(0x40)\n      dup1\n      dup4\n      sub\n      dup2\n      dup7\n      gas\n      staticcall\n      iszero\n      dup1\n      iszero\n      tag_249\n      jumpi\n      returndatasize\n      0x00\n      dup1\n      returndatacopy\n      revert(0x00, returndatasize)\n    tag_249:\n      pop\n      pop\n      pop\n      pop\n      mload(0x40)\n      returndatasize\n      not(0x1f)\n      0x1f\n      dup3\n      add\n      and\n      dup3\n      add\n      dup1\n      0x40\n      mstore\n      pop\n      dup2\n      add\n      swap1\n      tag_250\n      swap2\n      swap1\n      tag_120\n      jump\t// in\n    tag_250:\n        /* \"Hook.sol\":5537:5556  currentERC20Balance */\n      dup3\n        /* \"Hook.sol\":5537:5604  currentERC20Balance - IERC20(ERC20Address).balanceOf(address(this)) */\n      tag_251\n      swap2\n      swap1\n      tag_160\n      jump\t// in\n    tag_251:\n        /* \"Hook.sol\":5512:5604  ERC20LiquidityProvided = currentERC20Balance - IERC20(ERC20Address).balanceOf(address(this)) */\n      swap3\n      pop\n        /* \"Hook.sol\":5264:5689  try UniswapRouter.addLiquidityETH {value: _liquidityEth} (address(this), tokensToSend, (tokensToSend * 95)/105, (_liquidityEth * 95)/100, address(this), type(uint).max)... */\n    tag_244:\n        /* \"Hook.sol\":5706:5728  ERC20LiquidityProvided */\n      dup3\n        /* \"Hook.sol\":5698:5729  return (ERC20LiquidityProvided) */\n      swap4\n      pop\n      pop\n      pop\n      pop\n        /* \"Hook.sol\":4440:5736  function provideLiquidity(uint _liquidityEth) internal returns (uint){... */\n      swap2\n      swap1\n      pop\n      jump\t// out\n        /* \"Hook.sol\":7140:7831  function erc20ToPreviousHolder(address previousHolder) internal{... */\n    tag_169:\n        /* \"Hook.sol\":7213:7227  uint ethAmount */\n      0x00\n        /* \"Hook.sol\":7230:7251  transactionFromPOAPId */\n      0x0c\n        /* \"Hook.sol\":7230:7271  transactionFromPOAPId[POAPIds.length - 1] */\n      0x00\n        /* \"Hook.sol\":7269:7270  1 */\n      0x01\n        /* \"Hook.sol\":7252:7259  POAPIds */\n      0x0d\n        /* \"Hook.sol\":7252:7266  POAPIds.length */\n      dup1\n      sload\n      swap1\n      pop\n        /* \"Hook.sol\":7252:7270  POAPIds.length - 1 */\n      tag_253\n      swap2\n      swap1\n      tag_160\n      jump\t// in\n    tag_253:\n        /* \"Hook.sol\":7230:7271  transactionFromPOAPId[POAPIds.length - 1] */\n      dup2\n      mstore\n      0x20\n      add\n      swap1\n      dup2\n      mstore\n      0x20\n      add\n      0x00\n      keccak256\n        /* \"Hook.sol\":7230:7283  transactionFromPOAPId[POAPIds.length - 1].receivedEth */\n      0x02\n      add\n      sload\n        /* \"Hook.sol\":7213:7283  uint ethAmount = transactionFromPOAPId[POAPIds.length - 1].receivedEth */\n      swap1\n      pop\n        /* \"Hook.sol\":7309:7310  0 */\n      0x00\n        /* \"Hook.sol\":7296:7305  ethAmount */\n      dup2\n        /* \"Hook.sol\":7296:7310  ethAmount == 0 */\n      sub\n        /* \"Hook.sol\":7293:7825  if(ethAmount == 0){}else{... */\n      iszero\n      tag_255\n      jumpi\n        /* \"Hook.sol\":7336:7342  Oracle */\n      0x0a\n      0x00\n      swap1\n      sload\n      swap1\n      0x0100\n      exp\n      swap1\n      div\n      0xffffffffffffffffffffffffffffffffffffffff\n      and\n        /* \"Hook.sol\":7336:7356  Oracle.consultPrices */\n      0xffffffffffffffffffffffffffffffffffffffff\n      and\n      0x3ac35585\n        /* \"Hook.sol\":7357:7368  WethAddress */\n      0x00\n      dup1\n      sload\n      swap1\n      0x0100\n      exp\n      swap1\n      div\n      0xffffffffffffffffffffffffffffffffffffffff\n      and\n        /* \"Hook.sol\":7369:7378  ethAmount */\n      dup4\n        /* \"Hook.sol\":7336:7379  Oracle.consultPrices(WethAddress,ethAmount) */\n      mload(0x40)\n      dup4\n      0xffffffff\n      and\n      0xe0\n      shl\n      dup2\n      mstore\n      0x04\n      add\n      tag_256\n      swap3\n      swap2\n      swap1\n      tag_122\n      jump\t// in\n    tag_256:\n      0x20\n      mload(0x40)\n      dup1\n      dup4\n      sub\n      dup2\n      dup7\n      gas\n      staticcall\n      swap3\n      pop\n      pop\n      pop\n      dup1\n      iszero\n      tag_257\n      jumpi\n      pop\n      mload(0x40)\n      returndatasize\n      not(0x1f)\n      0x1f\n      dup3\n      add\n      and\n      dup3\n      add\n      dup1\n      0x40\n      mstore\n      pop\n      dup2\n      add\n      swap1\n      tag_258\n      swap2\n      swap1\n      tag_120\n      jump\t// in\n    tag_258:\n      0x01\n    tag_257:\n        /* \"Hook.sol\":7331:7815  try  Oracle.consultPrices(WethAddress,ethAmount){... */\n      tag_259\n      jumpi\n        /* \"Hook.sol\":7763:7800  Log ('price cant be got from Oracle') */\n      0xcf34ef537ac33ee1ac626ca1587a0a7e8e51561e5514f8cb36afa1c5102b3bab\n      mload(0x40)\n      tag_263\n      swap1\n      tag_264\n      jump\t// in\n    tag_263:\n      mload(0x40)\n      dup1\n      swap2\n      sub\n      swap1\n      log1\n        /* \"Hook.sol\":7331:7815  try  Oracle.consultPrices(WethAddress,ethAmount){... */\n      jump(tag_265)\n    tag_259:\n      pop\n        /* \"Hook.sol\":7401:7418  uint amountToMint */\n      0x00\n        /* \"Hook.sol\":7419:7425  Oracle */\n      0x0a\n      0x00\n      swap1\n      sload\n      swap1\n      0x0100\n      exp\n      swap1\n      div\n      0xffffffffffffffffffffffffffffffffffffffff\n      and\n        /* \"Hook.sol\":7419:7439  Oracle.consultPrices */\n      0xffffffffffffffffffffffffffffffffffffffff\n      and\n      0x3ac35585\n        /* \"Hook.sol\":7440:7451  WethAddress */\n      0x00\n      dup1\n      sload\n      swap1\n      0x0100\n      exp\n      swap1\n      div\n      0xffffffffffffffffffffffffffffffffffffffff\n      and\n        /* \"Hook.sol\":7452:7461  ethAmount */\n      dup5\n        /* \"Hook.sol\":7419:7462  Oracle.consultPrices(WethAddress,ethAmount) */\n      mload(0x40)\n      dup4\n      0xffffffff\n      and\n      0xe0\n      shl\n      dup2\n      mstore\n      0x04\n      add\n      tag_266\n      swap3\n      swap2\n      swap1\n      tag_122\n      jump\t// in\n    tag_266:\n      0x20\n      mload(0x40)\n      dup1\n      dup4\n      sub\n      dup2\n      dup7\n      gas\n      staticcall\n      iszero\n      dup1\n      iszero\n      tag_268\n      jumpi\n      returndatasize\n      0x00\n      dup1\n      returndatacopy\n      revert(0x00, returndatasize)\n    tag_268:\n      pop\n      pop\n      pop\n      pop\n      mload(0x40)\n      returndatasize\n      not(0x1f)\n      0x1f\n      dup3\n      add\n      and\n      dup3\n      add\n      dup1\n      0x40\n      mstore\n      pop\n      dup2\n      add\n      swap1\n      tag_269\n      swap2\n      swap1\n      tag_120\n      jump\t// in\n    tag_269:\n        /* \"Hook.sol\":7401:7462  uint amountToMint=Oracle.consultPrices(WethAddress,ethAmount) */\n      swap1\n      pop\n        /* \"Hook.sol\":7497:7509  ERC20Address */\n      0x01\n      0x00\n      swap1\n      sload\n      swap1\n      0x0100\n      exp\n      swap1\n      div\n      0xffffffffffffffffffffffffffffffffffffffff\n      and\n        /* \"Hook.sol\":7488:7519  WethLike(ERC20Address).hookMint */\n      0xffffffffffffffffffffffffffffffffffffffff\n      and\n      0x96fe8349\n        /* \"Hook.sol\":7520:7532  amountToMint */\n      dup3\n        /* \"Hook.sol\":7533:7547  previousHolder */\n      dup6\n        /* \"Hook.sol\":7488:7548  WethLike(ERC20Address).hookMint(amountToMint,previousHolder) */\n      mload(0x40)\n      dup4\n      0xffffffff\n      and\n      0xe0\n      shl\n      dup2\n      mstore\n      0x04\n      add\n      tag_270\n      swap3\n      swap2\n      swap1\n      tag_149\n      jump\t// in\n    tag_270:\n      0x00\n      mload(0x40)\n      dup1\n      dup4\n      sub\n      dup2\n      0x00\n      dup8\n      dup1\n      extcodesize\n      iszero\n      dup1\n      iszero\n      tag_271\n      jumpi\n      0x00\n      dup1\n      revert\n    tag_271:\n      pop\n      gas\n      call\n      swap3\n      pop\n      pop\n      pop\n      dup1\n      iszero\n      tag_272\n      jumpi\n      pop\n      0x01\n    tag_272:\n        /* \"Hook.sol\":7484:7721  try WethLike(ERC20Address).hookMint(amountToMint,previousHolder){... */\n      tag_273\n      jumpi\n        /* \"Hook.sol\":7674:7719  Log('price got from Oracle but couldnt mint') */\n      0xcf34ef537ac33ee1ac626ca1587a0a7e8e51561e5514f8cb36afa1c5102b3bab\n      mload(0x40)\n      tag_277\n      swap1\n      tag_278\n      jump\t// in\n    tag_277:\n      mload(0x40)\n      dup1\n      swap2\n      sub\n      swap1\n      log1\n        /* \"Hook.sol\":7484:7721  try WethLike(ERC20Address).hookMint(amountToMint,previousHolder){... */\n      jump(tag_279)\n    tag_273:\n        /* \"Hook.sol\":7579:7618  Log('tokens minted to previous holder') */\n      0xcf34ef537ac33ee1ac626ca1587a0a7e8e51561e5514f8cb36afa1c5102b3bab\n      mload(0x40)\n      tag_280\n      swap1\n      tag_281\n      jump\t// in\n    tag_280:\n      mload(0x40)\n      dup1\n      swap2\n      sub\n      swap1\n      log1\n        /* \"Hook.sol\":7484:7721  try WethLike(ERC20Address).hookMint(amountToMint,previousHolder){... */\n    tag_279:\n        /* \"Hook.sol\":7379:7722  {... */\n      pop\n        /* \"Hook.sol\":7331:7815  try  Oracle.consultPrices(WethAddress,ethAmount){... */\n    tag_265:\n        /* \"Hook.sol\":7293:7825  if(ethAmount == 0){}else{... */\n    tag_255:\n        /* \"Hook.sol\":7203:7831  {... */\n      pop\n        /* \"Hook.sol\":7140:7831  function erc20ToPreviousHolder(address previousHolder) internal{... */\n      pop\n      jump\t// out\n        /* \"Hook.sol\":5797:6847  function buyTokens(uint _buyEth) internal returns (uint){... */\n    tag_195:\n        /* \"Hook.sol\":5848:5852  uint */\n      0x00\n        /* \"Hook.sol\":5863:5887  uint initialTokenbalance */\n      dup1\n        /* \"Hook.sol\":5897:5921  uint numberOfTokensToBuy */\n      0x00\n        /* \"Hook.sol\":5942:5954  ERC20Address */\n      0x01\n      0x00\n      swap1\n      sload\n      swap1\n      0x0100\n      exp\n      swap1\n      div\n      0xffffffffffffffffffffffffffffffffffffffff\n      and\n        /* \"Hook.sol\":5935:5965  IERC20(ERC20Address).balanceOf */\n      0xffffffffffffffffffffffffffffffffffffffff\n      and\n      0x70a08231\n        /* \"Hook.sol\":5974:5978  this */\n      address\n        /* \"Hook.sol\":5935:5980  IERC20(ERC20Address).balanceOf(address(this)) */\n      mload(0x40)\n      dup3\n      0xffffffff\n      and\n      0xe0\n      shl\n      dup2\n      mstore\n      0x04\n      add\n      tag_283\n      swap2\n      swap1\n      tag_39\n      jump\t// in\n    tag_283:\n      0x20\n      mload(0x40)\n      dup1\n      dup4\n      sub\n      dup2\n      dup7\n      gas\n      staticcall\n      swap3\n      pop\n      pop\n      pop\n      dup1\n      iszero\n      tag_284\n      jumpi\n      pop\n      mload(0x40)\n      returndatasize\n      not(0x1f)\n      0x1f\n      dup3\n      add\n      and\n      dup3\n      add\n      dup1\n      0x40\n      mstore\n      pop\n      dup2\n      add\n      swap1\n      tag_285\n      swap2\n      swap1\n      tag_120\n      jump\t// in\n    tag_285:\n      0x01\n    tag_284:\n        /* \"Hook.sol\":5931:6154  try IERC20(ERC20Address).balanceOf(address(this)) {... */\n      tag_286\n      jumpi\n        /* \"Hook.sol\":6103:6143  Log('cant get balance of this contract') */\n      0xcf34ef537ac33ee1ac626ca1587a0a7e8e51561e5514f8cb36afa1c5102b3bab\n      mload(0x40)\n      tag_290\n      swap1\n      tag_291\n      jump\t// in\n    tag_290:\n      mload(0x40)\n      dup1\n      swap2\n      sub\n      swap1\n      log1\n        /* \"Hook.sol\":5931:6154  try IERC20(ERC20Address).balanceOf(address(this)) {... */\n      jump(tag_292)\n    tag_286:\n      pop\n        /* \"Hook.sol\":6020:6032  ERC20Address */\n      0x01\n      0x00\n      swap1\n      sload\n      swap1\n      0x0100\n      exp\n      swap1\n      div\n      0xffffffffffffffffffffffffffffffffffffffff\n      and\n        /* \"Hook.sol\":6013:6043  IERC20(ERC20Address).balanceOf */\n      0xffffffffffffffffffffffffffffffffffffffff\n      and\n      0x70a08231\n        /* \"Hook.sol\":6052:6056  this */\n      address\n        /* \"Hook.sol\":6013:6058  IERC20(ERC20Address).balanceOf(address(this)) */\n      mload(0x40)\n      dup3\n      0xffffffff\n      and\n      0xe0\n      shl\n      dup2\n      mstore\n      0x04\n      add\n      tag_293\n      swap2\n      swap1\n      tag_39\n      jump\t// in\n    tag_293:\n      0x20\n      mload(0x40)\n      dup1\n      dup4\n      sub\n      dup2\n      dup7\n      gas\n      staticcall\n      iszero\n      dup1\n      iszero\n      tag_295\n      jumpi\n      returndatasize\n      0x00\n      dup1\n      returndatacopy\n      revert(0x00, returndatasize)\n    tag_295:\n      pop\n      pop\n      pop\n      pop\n      mload(0x40)\n      returndatasize\n      not(0x1f)\n      0x1f\n      dup3\n      add\n      and\n      dup3\n      add\n      dup1\n      0x40\n      mstore\n      pop\n      dup2\n      add\n      swap1\n      tag_296\n      swap2\n      swap1\n      tag_120\n      jump\t// in\n    tag_296:\n        /* \"Hook.sol\":5991:6058  initialTokenbalance = IERC20(ERC20Address).balanceOf(address(this)) */\n      swap2\n      pop\n        /* \"Hook.sol\":5931:6154  try IERC20(ERC20Address).balanceOf(address(this)) {... */\n    tag_292:\n        /* \"Hook.sol\":6167:6173  Oracle */\n      0x0a\n      0x00\n      swap1\n      sload\n      swap1\n      0x0100\n      exp\n      swap1\n      div\n      0xffffffffffffffffffffffffffffffffffffffff\n      and\n        /* \"Hook.sol\":6167:6187  Oracle.consultPrices */\n      0xffffffffffffffffffffffffffffffffffffffff\n      and\n      0x3ac35585\n        /* \"Hook.sol\":6188:6199  WethAddress */\n      0x00\n      dup1\n      sload\n      swap1\n      0x0100\n      exp\n      swap1\n      div\n      0xffffffffffffffffffffffffffffffffffffffff\n      and\n        /* \"Hook.sol\":6201:6208  _buyEth */\n      dup7\n        /* \"Hook.sol\":6167:6209  Oracle.consultPrices(WethAddress, _buyEth) */\n      mload(0x40)\n      dup4\n      0xffffffff\n      and\n      0xe0\n      shl\n      dup2\n      mstore\n      0x04\n      add\n      tag_297\n      swap3\n      swap2\n      swap1\n      tag_122\n      jump\t// in\n    tag_297:\n      0x20\n      mload(0x40)\n      dup1\n      dup4\n      sub\n      dup2\n      dup7\n      gas\n      staticcall\n      swap3\n      pop\n      pop\n      pop\n      dup1\n      iszero\n      tag_298\n      jumpi\n      pop\n      mload(0x40)\n      returndatasize\n      not(0x1f)\n      0x1f\n      dup3\n      add\n      and\n      dup3\n      add\n      dup1\n      0x40\n      mstore\n      pop\n      dup2\n      add\n      swap1\n      tag_299\n      swap2\n      swap1\n      tag_120\n      jump\t// in\n    tag_299:\n      0x01\n    tag_298:\n        /* \"Hook.sol\":6163:6462  try Oracle.consultPrices(WethAddress, _buyEth) {... */\n      tag_300\n      jumpi\n        /* \"Hook.sol\":6418:6451  Log('cant get price from Oracle') */\n      0xcf34ef537ac33ee1ac626ca1587a0a7e8e51561e5514f8cb36afa1c5102b3bab\n      mload(0x40)\n      tag_304\n      swap1\n      tag_305\n      jump\t// in\n    tag_304:\n      mload(0x40)\n      dup1\n      swap2\n      sub\n      swap1\n      log1\n        /* \"Hook.sol\":6163:6462  try Oracle.consultPrices(WethAddress, _buyEth) {... */\n      jump(tag_306)\n    tag_300:\n      pop\n        /* \"Hook.sol\":6242:6248  Oracle */\n      0x0a\n      0x00\n      swap1\n      sload\n      swap1\n      0x0100\n      exp\n      swap1\n      div\n      0xffffffffffffffffffffffffffffffffffffffff\n      and\n        /* \"Hook.sol\":6242:6262  Oracle.consultPrices */\n      0xffffffffffffffffffffffffffffffffffffffff\n      and\n      0x3ac35585\n        /* \"Hook.sol\":6263:6274  WethAddress */\n      0x00\n      dup1\n      sload\n      swap1\n      0x0100\n      exp\n      swap1\n      div\n      0xffffffffffffffffffffffffffffffffffffffff\n      and\n        /* \"Hook.sol\":6276:6283  _buyEth */\n      dup7\n        /* \"Hook.sol\":6242:6284  Oracle.consultPrices(WethAddress, _buyEth) */\n      mload(0x40)\n      dup4\n      0xffffffff\n      and\n      0xe0\n      shl\n      dup2\n      mstore\n      0x04\n      add\n      tag_307\n      swap3\n      swap2\n      swap1\n      tag_122\n      jump\t// in\n    tag_307:\n      0x20\n      mload(0x40)\n      dup1\n      dup4\n      sub\n      dup2\n      dup7\n      gas\n      staticcall\n      iszero\n      dup1\n      iszero\n      tag_309\n      jumpi\n      returndatasize\n      0x00\n      dup1\n      returndatacopy\n      revert(0x00, returndatasize)\n    tag_309:\n      pop\n      pop\n      pop\n      pop\n      mload(0x40)\n      returndatasize\n      not(0x1f)\n      0x1f\n      dup3\n      add\n      and\n      dup3\n      add\n      dup1\n      0x40\n      mstore\n      pop\n      dup2\n      add\n      swap1\n      tag_310\n      swap2\n      swap1\n      tag_120\n      jump\t// in\n    tag_310:\n        /* \"Hook.sol\":6220:6284  numberOfTokensToBuy = Oracle.consultPrices(WethAddress, _buyEth) */\n      swap1\n      pop\n        /* \"Hook.sol\":6299:6333  Log ('number of Tokens to Buy is') */\n      0xcf34ef537ac33ee1ac626ca1587a0a7e8e51561e5514f8cb36afa1c5102b3bab\n      mload(0x40)\n      tag_311\n      swap1\n      tag_312\n      jump\t// in\n    tag_311:\n      mload(0x40)\n      dup1\n      swap2\n      sub\n      swap1\n      log1\n        /* \"Hook.sol\":6348:6373  Log (numberOfTokensToBuy) */\n      0x909c57d5c6ac08245cf2a6de3900e2b868513fa59099b92b27d8db823d92df9c\n        /* \"Hook.sol\":6353:6372  numberOfTokensToBuy */\n      dup2\n        /* \"Hook.sol\":6348:6373  Log (numberOfTokensToBuy) */\n      mload(0x40)\n      tag_313\n      swap2\n      swap1\n      tag_51\n      jump\t// in\n    tag_313:\n      mload(0x40)\n      dup1\n      swap2\n      sub\n      swap1\n      log1\n        /* \"Hook.sol\":6163:6462  try Oracle.consultPrices(WethAddress, _buyEth) {... */\n    tag_306:\n        /* \"Hook.sol\":6472:6489  uint amountOutMin */\n      0x00\n        /* \"Hook.sol\":6540:6553  UniswapRouter */\n      0x0b\n      0x00\n      swap1\n      sload\n      swap1\n      0x0100\n      exp\n      swap1\n      div\n      0xffffffffffffffffffffffffffffffffffffffff\n      and\n        /* \"Hook.sol\":6540:6575  UniswapRouter.swapExactETHForTokens */\n      0xffffffffffffffffffffffffffffffffffffffff\n      and\n      0x7ff36ab5\n        /* \"Hook.sol\":6583:6590  _buyEth */\n      dup7\n        /* \"Hook.sol\":6592:6604  amountOutMin */\n      dup4\n        /* \"Hook.sol\":6606:6610  path */\n      0x07\n        /* \"Hook.sol\":6612:6622  msg.sender */\n      caller\n        /* \"Hook.sol\":6624:6638  type(uint).max */\n      0xffffffffffffffffffffffffffffffffffffffffffffffffffffffffffffffff\n        /* \"Hook.sol\":6540:6639  UniswapRouter.swapExactETHForTokens{value: _buyEth}(amountOutMin, path, msg.sender, type(uint).max) */\n      mload(0x40)\n      dup7\n      0xffffffff\n      and\n      0xe0\n      shl\n      dup2\n      mstore\n      0x04\n      add\n      tag_314\n      swap5\n      swap4\n      swap3\n      swap2\n      swap1\n      tag_315\n      jump\t// in\n    tag_314:\n      0x00\n      mload(0x40)\n      dup1\n      dup4\n      sub\n      dup2\n      dup6\n      dup9\n      gas\n      call\n      swap4\n      pop\n      pop\n      pop\n      pop\n      dup1\n      iszero\n      tag_316\n      jumpi\n      pop\n      mload(0x40)\n      returndatasize\n      0x00\n      dup3\n      returndatacopy\n      returndatasize\n      not(0x1f)\n      0x1f\n      dup3\n      add\n      and\n      dup3\n      add\n      dup1\n      0x40\n      mstore\n      pop\n      dup2\n      add\n      swap1\n      tag_317\n      swap2\n      swap1\n      tag_318\n      jump\t// in\n    tag_317:\n      0x01\n    tag_316:\n        /* \"Hook.sol\":6536:6745  try UniswapRouter.swapExactETHForTokens{value: _buyEth}(amountOutMin, path, msg.sender, type(uint).max)... */\n      tag_319\n      jumpi\n        /* \"Hook.sol\":6710:6734  Log(\"tokens not bought\") */\n      0xcf34ef537ac33ee1ac626ca1587a0a7e8e51561e5514f8cb36afa1c5102b3bab\n      mload(0x40)\n      tag_323\n      swap1\n      tag_324\n      jump\t// in\n    tag_323:\n      mload(0x40)\n      dup1\n      swap2\n      sub\n      swap1\n      log1\n        /* \"Hook.sol\":6536:6745  try UniswapRouter.swapExactETHForTokens{value: _buyEth}(amountOutMin, path, msg.sender, type(uint).max)... */\n      jump(tag_325)\n    tag_319:\n      pop\n        /* \"Hook.sol\":6655:6675  Log(\"tokens bought\") */\n      0xcf34ef537ac33ee1ac626ca1587a0a7e8e51561e5514f8cb36afa1c5102b3bab\n      mload(0x40)\n      tag_326\n      swap1\n      tag_327\n      jump\t// in\n    tag_326:\n      mload(0x40)\n      dup1\n      swap2\n      sub\n      swap1\n      log1\n        /* \"Hook.sol\":6536:6745  try UniswapRouter.swapExactETHForTokens{value: _buyEth}(amountOutMin, path, msg.sender, type(uint).max)... */\n    tag_325:\n        /* \"Hook.sol\":6811:6830  initialTokenbalance */\n      dup3\n        /* \"Hook.sol\":6770:6782  ERC20Address */\n      0x01\n      0x00\n      swap1\n      sload\n      swap1\n      0x0100\n      exp\n      swap1\n      div\n      0xffffffffffffffffffffffffffffffffffffffff\n      and\n        /* \"Hook.sol\":6763:6793  IERC20(ERC20Address).balanceOf */\n      0xffffffffffffffffffffffffffffffffffffffff\n      and\n      0x70a08231\n        /* \"Hook.sol\":6802:6806  this */\n      address\n        /* \"Hook.sol\":6763:6808  IERC20(ERC20Address).balanceOf(address(this)) */\n      mload(0x40)\n      dup3\n      0xffffffff\n      and\n      0xe0\n      shl\n      dup2\n      mstore\n      0x04\n      add\n      tag_328\n      swap2\n      swap1\n      tag_39\n      jump\t// in\n    tag_328:\n      0x20\n      mload(0x40)\n      dup1\n      dup4\n      sub\n      dup2\n      dup7\n      gas\n      staticcall\n      iszero\n      dup1\n      iszero\n      tag_330\n      jumpi\n      returndatasize\n      0x00\n      dup1\n      returndatacopy\n      revert(0x00, returndatasize)\n    tag_330:\n      pop\n      pop\n      pop\n      pop\n      mload(0x40)\n      returndatasize\n      not(0x1f)\n      0x1f\n      dup3\n      add\n      and\n      dup3\n      add\n      dup1\n      0x40\n      mstore\n      pop\n      dup2\n      add\n      swap1\n      tag_331\n      swap2\n      swap1\n      tag_120\n      jump\t// in\n    tag_331:\n        /* \"Hook.sol\":6763:6830  IERC20(ERC20Address).balanceOf(address(this)) - initialTokenbalance */\n      tag_332\n      swap2\n      swap1\n      tag_160\n      jump\t// in\n    tag_332:\n        /* \"Hook.sol\":6756:6830  return IERC20(ERC20Address).balanceOf(address(this)) - initialTokenbalance */\n      swap4\n      pop\n      pop\n      pop\n      pop\n        /* \"Hook.sol\":5797:6847  function buyTokens(uint _buyEth) internal returns (uint){... */\n      swap2\n      swap1\n      pop\n      jump\t// out\n        /* \"#utility.yul\":7:82   */\n    tag_333:\n        /* \"#utility.yul\":40:46   */\n      0x00\n        /* \"#utility.yul\":73:75   */\n      0x40\n        /* \"#utility.yul\":67:76   */\n      mload\n        /* \"#utility.yul\":57:76   */\n      swap1\n      pop\n        /* \"#utility.yul\":7:82   */\n      swap1\n      jump\t// out\n        /* \"#utility.yul\":88:205   */\n    tag_334:\n        /* \"#utility.yul\":197:198   */\n      0x00\n        /* \"#utility.yul\":194:195   */\n      dup1\n        /* \"#utility.yul\":187:199   */\n      revert\n        /* \"#utility.yul\":211:328   */\n    tag_335:\n        /* \"#utility.yul\":320:321   */\n      0x00\n        /* \"#utility.yul\":317:318   */\n      dup1\n        /* \"#utility.yul\":310:322   */\n      revert\n        /* \"#utility.yul\":334:460   */\n    tag_336:\n        /* \"#utility.yul\":371:378   */\n      0x00\n        /* \"#utility.yul\":411:453   */\n      0xffffffffffffffffffffffffffffffffffffffff\n        /* \"#utility.yul\":404:409   */\n      dup3\n        /* \"#utility.yul\":400:454   */\n      and\n        /* \"#utility.yul\":389:454   */\n      swap1\n      pop\n        /* \"#utility.yul\":334:460   */\n      swap2\n      swap1\n      pop\n      jump\t// out\n        /* \"#utility.yul\":466:562   */\n    tag_337:\n        /* \"#utility.yul\":503:510   */\n      0x00\n        /* \"#utility.yul\":532:556   */\n      tag_406\n        /* \"#utility.yul\":550:555   */\n      dup3\n        /* \"#utility.yul\":532:556   */\n      tag_336\n      jump\t// in\n    tag_406:\n        /* \"#utility.yul\":521:556   */\n      swap1\n      pop\n        /* \"#utility.yul\":466:562   */\n      swap2\n      swap1\n      pop\n      jump\t// out\n        /* \"#utility.yul\":568:690   */\n    tag_338:\n        /* \"#utility.yul\":641:665   */\n      tag_408\n        /* \"#utility.yul\":659:664   */\n      dup2\n        /* \"#utility.yul\":641:665   */\n      tag_337\n      jump\t// in\n    tag_408:\n        /* \"#utility.yul\":634:639   */\n      dup2\n        /* \"#utility.yul\":631:666   */\n      eq\n        /* \"#utility.yul\":621:684   */\n      tag_409\n      jumpi\n        /* \"#utility.yul\":680:681   */\n      0x00\n        /* \"#utility.yul\":677:678   */\n      dup1\n        /* \"#utility.yul\":670:682   */\n      revert\n        /* \"#utility.yul\":621:684   */\n    tag_409:\n        /* \"#utility.yul\":568:690   */\n      pop\n      jump\t// out\n        /* \"#utility.yul\":696:835   */\n    tag_339:\n        /* \"#utility.yul\":742:747   */\n      0x00\n        /* \"#utility.yul\":780:786   */\n      dup2\n        /* \"#utility.yul\":767:787   */\n      calldataload\n        /* \"#utility.yul\":758:787   */\n      swap1\n      pop\n        /* \"#utility.yul\":796:829   */\n      tag_411\n        /* \"#utility.yul\":823:828   */\n      dup2\n        /* \"#utility.yul\":796:829   */\n      tag_338\n      jump\t// in\n    tag_411:\n        /* \"#utility.yul\":696:835   */\n      swap3\n      swap2\n      pop\n      pop\n      jump\t// out\n        /* \"#utility.yul\":841:1170   */\n    tag_29:\n        /* \"#utility.yul\":900:906   */\n      0x00\n        /* \"#utility.yul\":949:951   */\n      0x20\n        /* \"#utility.yul\":937:946   */\n      dup3\n        /* \"#utility.yul\":928:935   */\n      dup5\n        /* \"#utility.yul\":924:947   */\n      sub\n        /* \"#utility.yul\":920:952   */\n      slt\n        /* \"#utility.yul\":917:1036   */\n      iszero\n      tag_413\n      jumpi\n        /* \"#utility.yul\":955:1034   */\n      tag_414\n      tag_334\n      jump\t// in\n    tag_414:\n        /* \"#utility.yul\":917:1036   */\n    tag_413:\n        /* \"#utility.yul\":1075:1076   */\n      0x00\n        /* \"#utility.yul\":1100:1153   */\n      tag_415\n        /* \"#utility.yul\":1145:1152   */\n      dup5\n        /* \"#utility.yul\":1136:1142   */\n      dup3\n        /* \"#utility.yul\":1125:1134   */\n      dup6\n        /* \"#utility.yul\":1121:1143   */\n      add\n        /* \"#utility.yul\":1100:1153   */\n      tag_339\n      jump\t// in\n    tag_415:\n        /* \"#utility.yul\":1090:1153   */\n      swap2\n      pop\n        /* \"#utility.yul\":1046:1163   */\n      pop\n        /* \"#utility.yul\":841:1170   */\n      swap3\n      swap2\n      pop\n      pop\n      jump\t// out\n        /* \"#utility.yul\":1176:1294   */\n    tag_340:\n        /* \"#utility.yul\":1263:1287   */\n      tag_417\n        /* \"#utility.yul\":1281:1286   */\n      dup2\n        /* \"#utility.yul\":1263:1287   */\n      tag_337\n      jump\t// in\n    tag_417:\n        /* \"#utility.yul\":1258:1261   */\n      dup3\n        /* \"#utility.yul\":1251:1288   */\n      mstore\n        /* \"#utility.yul\":1176:1294   */\n      pop\n      pop\n      jump\t// out\n        /* \"#utility.yul\":1300:1522   */\n    tag_39:\n        /* \"#utility.yul\":1393:1397   */\n      0x00\n        /* \"#utility.yul\":1431:1433   */\n      0x20\n        /* \"#utility.yul\":1420:1429   */\n      dup3\n        /* \"#utility.yul\":1416:1434   */\n      add\n        /* \"#utility.yul\":1408:1434   */\n      swap1\n      pop\n        /* \"#utility.yul\":1444:1515   */\n      tag_419\n        /* \"#utility.yul\":1512:1513   */\n      0x00\n        /* \"#utility.yul\":1501:1510   */\n      dup4\n        /* \"#utility.yul\":1497:1514   */\n      add\n        /* \"#utility.yul\":1488:1494   */\n      dup5\n        /* \"#utility.yul\":1444:1515   */\n      tag_340\n      jump\t// in\n    tag_419:\n        /* \"#utility.yul\":1300:1522   */\n      swap3\n      swap2\n      pop\n      pop\n      jump\t// out\n        /* \"#utility.yul\":1528:1605   */\n    tag_341:\n        /* \"#utility.yul\":1565:1572   */\n      0x00\n        /* \"#utility.yul\":1594:1599   */\n      dup2\n        /* \"#utility.yul\":1583:1599   */\n      swap1\n      pop\n        /* \"#utility.yul\":1528:1605   */\n      swap2\n      swap1\n      pop\n      jump\t// out\n        /* \"#utility.yul\":1611:1733   */\n    tag_342:\n        /* \"#utility.yul\":1684:1708   */\n      tag_422\n        /* \"#utility.yul\":1702:1707   */\n      dup2\n        /* \"#utility.yul\":1684:1708   */\n      tag_341\n      jump\t// in\n    tag_422:\n        /* \"#utility.yul\":1677:1682   */\n      dup2\n        /* \"#utility.yul\":1674:1709   */\n      eq\n        /* \"#utility.yul\":1664:1727   */\n      tag_423\n      jumpi\n        /* \"#utility.yul\":1723:1724   */\n      0x00\n        /* \"#utility.yul\":1720:1721   */\n      dup1\n        /* \"#utility.yul\":1713:1725   */\n      revert\n        /* \"#utility.yul\":1664:1727   */\n    tag_423:\n        /* \"#utility.yul\":1611:1733   */\n      pop\n      jump\t// out\n        /* \"#utility.yul\":1739:1878   */\n    tag_343:\n        /* \"#utility.yul\":1785:1790   */\n      0x00\n        /* \"#utility.yul\":1823:1829   */\n      dup2\n        /* \"#utility.yul\":1810:1830   */\n      calldataload\n        /* \"#utility.yul\":1801:1830   */\n      swap1\n      pop\n        /* \"#utility.yul\":1839:1872   */\n      tag_425\n        /* \"#utility.yul\":1866:1871   */\n      dup2\n        /* \"#utility.yul\":1839:1872   */\n      tag_342\n      jump\t// in\n    tag_425:\n        /* \"#utility.yul\":1739:1878   */\n      swap3\n      swap2\n      pop\n      pop\n      jump\t// out\n        /* \"#utility.yul\":1884:2213   */\n    tag_43:\n        /* \"#utility.yul\":1943:1949   */\n      0x00\n        /* \"#utility.yul\":1992:1994   */\n      0x20\n        /* \"#utility.yul\":1980:1989   */\n      dup3\n        /* \"#utility.yul\":1971:1978   */\n      dup5\n        /* \"#utility.yul\":1967:1990   */\n      sub\n        /* \"#utility.yul\":1963:1995   */\n      slt\n        /* \"#utility.yul\":1960:2079   */\n      iszero\n      tag_427\n      jumpi\n        /* \"#utility.yul\":1998:2077   */\n      tag_428\n      tag_334\n      jump\t// in\n    tag_428:\n        /* \"#utility.yul\":1960:2079   */\n    tag_427:\n        /* \"#utility.yul\":2118:2119   */\n      0x00\n        /* \"#utility.yul\":2143:2196   */\n      tag_429\n        /* \"#utility.yul\":2188:2195   */\n      dup5\n        /* \"#utility.yul\":2179:2185   */\n      dup3\n        /* \"#utility.yul\":2168:2177   */\n      dup6\n        /* \"#utility.yul\":2164:2186   */\n      add\n        /* \"#utility.yul\":2143:2196   */\n      tag_343\n      jump\t// in\n    tag_429:\n        /* \"#utility.yul\":2133:2196   */\n      swap2\n      pop\n        /* \"#utility.yul\":2089:2206   */\n      pop\n        /* \"#utility.yul\":1884:2213   */\n      swap3\n      swap2\n      pop\n      pop\n      jump\t// out\n        /* \"#utility.yul\":2219:2337   */\n    tag_344:\n        /* \"#utility.yul\":2306:2330   */\n      tag_431\n        /* \"#utility.yul\":2324:2329   */\n      dup2\n        /* \"#utility.yul\":2306:2330   */\n      tag_341\n      jump\t// in\n    tag_431:\n        /* \"#utility.yul\":2301:2304   */\n      dup3\n        /* \"#utility.yul\":2294:2331   */\n      mstore\n        /* \"#utility.yul\":2219:2337   */\n      pop\n      pop\n      jump\t// out\n        /* \"#utility.yul\":2343:2785   */\n    tag_46:\n        /* \"#utility.yul\":2492:2496   */\n      0x00\n        /* \"#utility.yul\":2530:2532   */\n      0x60\n        /* \"#utility.yul\":2519:2528   */\n      dup3\n        /* \"#utility.yul\":2515:2533   */\n      add\n        /* \"#utility.yul\":2507:2533   */\n      swap1\n      pop\n        /* \"#utility.yul\":2543:2614   */\n      tag_433\n        /* \"#utility.yul\":2611:2612   */\n      0x00\n        /* \"#utility.yul\":2600:2609   */\n      dup4\n        /* \"#utility.yul\":2596:2613   */\n      add\n        /* \"#utility.yul\":2587:2593   */\n      dup7\n        /* \"#utility.yul\":2543:2614   */\n      tag_344\n      jump\t// in\n    tag_433:\n        /* \"#utility.yul\":2624:2696   */\n      tag_434\n        /* \"#utility.yul\":2692:2694   */\n      0x20\n        /* \"#utility.yul\":2681:2690   */\n      dup4\n        /* \"#utility.yul\":2677:2695   */\n      add\n        /* \"#utility.yul\":2668:2674   */\n      dup6\n        /* \"#utility.yul\":2624:2696   */\n      tag_340\n      jump\t// in\n    tag_434:\n        /* \"#utility.yul\":2706:2778   */\n      tag_435\n        /* \"#utility.yul\":2774:2776   */\n      0x40\n        /* \"#utility.yul\":2763:2772   */\n      dup4\n        /* \"#utility.yul\":2759:2777   */\n      add\n        /* \"#utility.yul\":2750:2756   */\n      dup5\n        /* \"#utility.yul\":2706:2778   */\n      tag_344\n      jump\t// in\n    tag_435:\n        /* \"#utility.yul\":2343:2785   */\n      swap5\n      swap4\n      pop\n      pop\n      pop\n      pop\n      jump\t// out\n        /* \"#utility.yul\":2791:3013   */\n    tag_51:\n        /* \"#utility.yul\":2884:2888   */\n      0x00\n        /* \"#utility.yul\":2922:2924   */\n      0x20\n        /* \"#utility.yul\":2911:2920   */\n      dup3\n        /* \"#utility.yul\":2907:2925   */\n      add\n        /* \"#utility.yul\":2899:2925   */\n      swap1\n      pop\n        /* \"#utility.yul\":2935:3006   */\n      tag_437\n        /* \"#utility.yul\":3003:3004   */\n      0x00\n        /* \"#utility.yul\":2992:3001   */\n      dup4\n        /* \"#utility.yul\":2988:3005   */\n      add\n        /* \"#utility.yul\":2979:2985   */\n      dup5\n        /* \"#utility.yul\":2935:3006   */\n      tag_344\n      jump\t// in\n    tag_437:\n        /* \"#utility.yul\":2791:3013   */\n      swap3\n      swap2\n      pop\n      pop\n      jump\t// out\n        /* \"#utility.yul\":3019:3162   */\n    tag_345:\n        /* \"#utility.yul\":3076:3081   */\n      0x00\n        /* \"#utility.yul\":3107:3113   */\n      dup2\n        /* \"#utility.yul\":3101:3114   */\n      mload\n        /* \"#utility.yul\":3092:3114   */\n      swap1\n      pop\n        /* \"#utility.yul\":3123:3156   */\n      tag_439\n        /* \"#utility.yul\":3150:3155   */\n      dup2\n        /* \"#utility.yul\":3123:3156   */\n      tag_342\n      jump\t// in\n    tag_439:\n        /* \"#utility.yul\":3019:3162   */\n      swap3\n      swap2\n      pop\n      pop\n      jump\t// out\n        /* \"#utility.yul\":3168:3519   */\n    tag_120:\n        /* \"#utility.yul\":3238:3244   */\n      0x00\n        /* \"#utility.yul\":3287:3289   */\n      0x20\n        /* \"#utility.yul\":3275:3284   */\n      dup3\n        /* \"#utility.yul\":3266:3273   */\n      dup5\n        /* \"#utility.yul\":3262:3285   */\n      sub\n        /* \"#utility.yul\":3258:3290   */\n      slt\n        /* \"#utility.yul\":3255:3374   */\n      iszero\n      tag_441\n      jumpi\n        /* \"#utility.yul\":3293:3372   */\n      tag_442\n      tag_334\n      jump\t// in\n    tag_442:\n        /* \"#utility.yul\":3255:3374   */\n    tag_441:\n        /* \"#utility.yul\":3413:3414   */\n      0x00\n        /* \"#utility.yul\":3438:3502   */\n      tag_443\n        /* \"#utility.yul\":3494:3501   */\n      dup5\n        /* \"#utility.yul\":3485:3491   */\n      dup3\n        /* \"#utility.yul\":3474:3483   */\n      dup6\n        /* \"#utility.yul\":3470:3492   */\n      add\n        /* \"#utility.yul\":3438:3502   */\n      tag_345\n      jump\t// in\n    tag_443:\n        /* \"#utility.yul\":3428:3502   */\n      swap2\n      pop\n        /* \"#utility.yul\":3384:3512   */\n      pop\n        /* \"#utility.yul\":3168:3519   */\n      swap3\n      swap2\n      pop\n      pop\n      jump\t// out\n        /* \"#utility.yul\":3525:3857   */\n    tag_122:\n        /* \"#utility.yul\":3646:3650   */\n      0x00\n        /* \"#utility.yul\":3684:3686   */\n      0x40\n        /* \"#utility.yul\":3673:3682   */\n      dup3\n        /* \"#utility.yul\":3669:3687   */\n      add\n        /* \"#utility.yul\":3661:3687   */\n      swap1\n      pop\n        /* \"#utility.yul\":3697:3768   */\n      tag_445\n        /* \"#utility.yul\":3765:3766   */\n      0x00\n        /* \"#utility.yul\":3754:3763   */\n      dup4\n        /* \"#utility.yul\":3750:3767   */\n      add\n        /* \"#utility.yul\":3741:3747   */\n      dup6\n        /* \"#utility.yul\":3697:3768   */\n      tag_340\n      jump\t// in\n    tag_445:\n        /* \"#utility.yul\":3778:3850   */\n      tag_446\n        /* \"#utility.yul\":3846:3848   */\n      0x20\n        /* \"#utility.yul\":3835:3844   */\n      dup4\n        /* \"#utility.yul\":3831:3849   */\n      add\n        /* \"#utility.yul\":3822:3828   */\n      dup5\n        /* \"#utility.yul\":3778:3850   */\n      tag_344\n      jump\t// in\n    tag_446:\n        /* \"#utility.yul\":3525:3857   */\n      swap4\n      swap3\n      pop\n      pop\n      pop\n      jump\t// out\n        /* \"#utility.yul\":3863:3953   */\n    tag_346:\n        /* \"#utility.yul\":3897:3904   */\n      0x00\n        /* \"#utility.yul\":3940:3945   */\n      dup2\n        /* \"#utility.yul\":3933:3946   */\n      iszero\n        /* \"#utility.yul\":3926:3947   */\n      iszero\n        /* \"#utility.yul\":3915:3947   */\n      swap1\n      pop\n        /* \"#utility.yul\":3863:3953   */\n      swap2\n      swap1\n      pop\n      jump\t// out\n        /* \"#utility.yul\":3959:4075   */\n    tag_347:\n        /* \"#utility.yul\":4029:4050   */\n      tag_449\n        /* \"#utility.yul\":4044:4049   */\n      dup2\n        /* \"#utility.yul\":4029:4050   */\n      tag_346\n      jump\t// in\n    tag_449:\n        /* \"#utility.yul\":4022:4027   */\n      dup2\n        /* \"#utility.yul\":4019:4051   */\n      eq\n        /* \"#utility.yul\":4009:4069   */\n      tag_450\n      jumpi\n        /* \"#utility.yul\":4065:4066   */\n      0x00\n        /* \"#utility.yul\":4062:4063   */\n      dup1\n        /* \"#utility.yul\":4055:4067   */\n      revert\n        /* \"#utility.yul\":4009:4069   */\n    tag_450:\n        /* \"#utility.yul\":3959:4075   */\n      pop\n      jump\t// out\n        /* \"#utility.yul\":4081:4218   */\n    tag_348:\n        /* \"#utility.yul\":4135:4140   */\n      0x00\n        /* \"#utility.yul\":4166:4172   */\n      dup2\n        /* \"#utility.yul\":4160:4173   */\n      mload\n        /* \"#utility.yul\":4151:4173   */\n      swap1\n      pop\n        /* \"#utility.yul\":4182:4212   */\n      tag_452\n        /* \"#utility.yul\":4206:4211   */\n      dup2\n        /* \"#utility.yul\":4182:4212   */\n      tag_347\n      jump\t// in\n    tag_452:\n        /* \"#utility.yul\":4081:4218   */\n      swap3\n      swap2\n      pop\n      pop\n      jump\t// out\n        /* \"#utility.yul\":4224:4569   */\n    tag_126:\n        /* \"#utility.yul\":4291:4297   */\n      0x00\n        /* \"#utility.yul\":4340:4342   */\n      0x20\n        /* \"#utility.yul\":4328:4337   */\n      dup3\n        /* \"#utility.yul\":4319:4326   */\n      dup5\n        /* \"#utility.yul\":4315:4338   */\n      sub\n        /* \"#utility.yul\":4311:4343   */\n      slt\n        /* \"#utility.yul\":4308:4427   */\n      iszero\n      tag_454\n      jumpi\n        /* \"#utility.yul\":4346:4425   */\n      tag_455\n      tag_334\n      jump\t// in\n    tag_455:\n        /* \"#utility.yul\":4308:4427   */\n    tag_454:\n        /* \"#utility.yul\":4466:4467   */\n      0x00\n        /* \"#utility.yul\":4491:4552   */\n      tag_456\n        /* \"#utility.yul\":4544:4551   */\n      dup5\n        /* \"#utility.yul\":4535:4541   */\n      dup3\n        /* \"#utility.yul\":4524:4533   */\n      dup6\n        /* \"#utility.yul\":4520:4542   */\n      add\n        /* \"#utility.yul\":4491:4552   */\n      tag_348\n      jump\t// in\n    tag_456:\n        /* \"#utility.yul\":4481:4552   */\n      swap2\n      pop\n        /* \"#utility.yul\":4437:4562   */\n      pop\n        /* \"#utility.yul\":4224:4569   */\n      swap3\n      swap2\n      pop\n      pop\n      jump\t// out\n        /* \"#utility.yul\":4575:4755   */\n    tag_349:\n        /* \"#utility.yul\":4623:4700   */\n      0x4e487b7100000000000000000000000000000000000000000000000000000000\n        /* \"#utility.yul\":4620:4621   */\n      0x00\n        /* \"#utility.yul\":4613:4701   */\n      mstore\n        /* \"#utility.yul\":4720:4724   */\n      0x11\n        /* \"#utility.yul\":4717:4718   */\n      0x04\n        /* \"#utility.yul\":4710:4725   */\n      mstore\n        /* \"#utility.yul\":4744:4748   */\n      0x24\n        /* \"#utility.yul\":4741:4742   */\n      0x00\n        /* \"#utility.yul\":4734:4749   */\n      revert\n        /* \"#utility.yul\":4761:5171   */\n    tag_144:\n        /* \"#utility.yul\":4801:4808   */\n      0x00\n        /* \"#utility.yul\":4824:4844   */\n      tag_459\n        /* \"#utility.yul\":4842:4843   */\n      dup3\n        /* \"#utility.yul\":4824:4844   */\n      tag_341\n      jump\t// in\n    tag_459:\n        /* \"#utility.yul\":4819:4844   */\n      swap2\n      pop\n        /* \"#utility.yul\":4858:4878   */\n      tag_460\n        /* \"#utility.yul\":4876:4877   */\n      dup4\n        /* \"#utility.yul\":4858:4878   */\n      tag_341\n      jump\t// in\n    tag_460:\n        /* \"#utility.yul\":4853:4878   */\n      swap3\n      pop\n        /* \"#utility.yul\":4913:4914   */\n      dup3\n        /* \"#utility.yul\":4910:4911   */\n      dup3\n        /* \"#utility.yul\":4906:4915   */\n      mul\n        /* \"#utility.yul\":4935:4965   */\n      tag_461\n        /* \"#utility.yul\":4953:4964   */\n      dup2\n        /* \"#utility.yul\":4935:4965   */\n      tag_341\n      jump\t// in\n    tag_461:\n        /* \"#utility.yul\":4924:4965   */\n      swap2\n      pop\n        /* \"#utility.yul\":5114:5115   */\n      dup3\n        /* \"#utility.yul\":5105:5112   */\n      dup3\n        /* \"#utility.yul\":5101:5116   */\n      div\n        /* \"#utility.yul\":5098:5099   */\n      dup5\n        /* \"#utility.yul\":5095:5117   */\n      eq\n        /* \"#utility.yul\":5075:5076   */\n      dup4\n        /* \"#utility.yul\":5068:5077   */\n      iszero\n        /* \"#utility.yul\":5048:5131   */\n      or\n        /* \"#utility.yul\":5025:5164   */\n      tag_462\n      jumpi\n        /* \"#utility.yul\":5144:5162   */\n      tag_463\n      tag_349\n      jump\t// in\n    tag_463:\n        /* \"#utility.yul\":5025:5164   */\n    tag_462:\n        /* \"#utility.yul\":4809:5171   */\n      pop\n        /* \"#utility.yul\":4761:5171   */\n      swap3\n      swap2\n      pop\n      pop\n      jump\t// out\n        /* \"#utility.yul\":5177:5357   */\n    tag_350:\n        /* \"#utility.yul\":5225:5302   */\n      0x4e487b7100000000000000000000000000000000000000000000000000000000\n        /* \"#utility.yul\":5222:5223   */\n      0x00\n        /* \"#utility.yul\":5215:5303   */\n      mstore\n        /* \"#utility.yul\":5322:5326   */\n      0x12\n        /* \"#utility.yul\":5319:5320   */\n      0x04\n        /* \"#utility.yul\":5312:5327   */\n      mstore\n        /* \"#utility.yul\":5346:5350   */\n      0x24\n        /* \"#utility.yul\":5343:5344   */\n      0x00\n        /* \"#utility.yul\":5336:5351   */\n      revert\n        /* \"#utility.yul\":5363:5548   */\n    tag_146:\n        /* \"#utility.yul\":5403:5404   */\n      0x00\n        /* \"#utility.yul\":5420:5440   */\n      tag_466\n        /* \"#utility.yul\":5438:5439   */\n      dup3\n        /* \"#utility.yul\":5420:5440   */\n      tag_341\n      jump\t// in\n    tag_466:\n        /* \"#utility.yul\":5415:5440   */\n      swap2\n      pop\n        /* \"#utility.yul\":5454:5474   */\n      tag_467\n        /* \"#utility.yul\":5472:5473   */\n      dup4\n        /* \"#utility.yul\":5454:5474   */\n      tag_341\n      jump\t// in\n    tag_467:\n        /* \"#utility.yul\":5449:5474   */\n      swap3\n      pop\n        /* \"#utility.yul\":5493:5494   */\n      dup3\n        /* \"#utility.yul\":5483:5518   */\n      tag_468\n      jumpi\n        /* \"#utility.yul\":5498:5516   */\n      tag_469\n      tag_350\n      jump\t// in\n    tag_469:\n        /* \"#utility.yul\":5483:5518   */\n    tag_468:\n        /* \"#utility.yul\":5540:5541   */\n      dup3\n        /* \"#utility.yul\":5537:5538   */\n      dup3\n        /* \"#utility.yul\":5533:5542   */\n      div\n        /* \"#utility.yul\":5528:5542   */\n      swap1\n      pop\n        /* \"#utility.yul\":5363:5548   */\n      swap3\n      swap2\n      pop\n      pop\n      jump\t// out\n        /* \"#utility.yul\":5554:5886   */\n    tag_149:\n        /* \"#utility.yul\":5675:5679   */\n      0x00\n        /* \"#utility.yul\":5713:5715   */\n      0x40\n        /* \"#utility.yul\":5702:5711   */\n      dup3\n        /* \"#utility.yul\":5698:5716   */\n      add\n        /* \"#utility.yul\":5690:5716   */\n      swap1\n      pop\n        /* \"#utility.yul\":5726:5797   */\n      tag_471\n        /* \"#utility.yul\":5794:5795   */\n      0x00\n        /* \"#utility.yul\":5783:5792   */\n      dup4\n        /* \"#utility.yul\":5779:5796   */\n      add\n        /* \"#utility.yul\":5770:5776   */\n      dup6\n        /* \"#utility.yul\":5726:5797   */\n      tag_344\n      jump\t// in\n    tag_471:\n        /* \"#utility.yul\":5807:5879   */\n      tag_472\n        /* \"#utility.yul\":5875:5877   */\n      0x20\n        /* \"#utility.yul\":5864:5873   */\n      dup4\n        /* \"#utility.yul\":5860:5878   */\n      add\n        /* \"#utility.yul\":5851:5857   */\n      dup5\n        /* \"#utility.yul\":5807:5879   */\n      tag_340\n      jump\t// in\n    tag_472:\n        /* \"#utility.yul\":5554:5886   */\n      swap4\n      swap3\n      pop\n      pop\n      pop\n      jump\t// out\n        /* \"#utility.yul\":5892:6086   */\n    tag_160:\n        /* \"#utility.yul\":5932:5936   */\n      0x00\n        /* \"#utility.yul\":5952:5972   */\n      tag_474\n        /* \"#utility.yul\":5970:5971   */\n      dup3\n        /* \"#utility.yul\":5952:5972   */\n      tag_341\n      jump\t// in\n    tag_474:\n        /* \"#utility.yul\":5947:5972   */\n      swap2\n      pop\n        /* \"#utility.yul\":5986:6006   */\n      tag_475\n        /* \"#utility.yul\":6004:6005   */\n      dup4\n        /* \"#utility.yul\":5986:6006   */\n      tag_341\n      jump\t// in\n    tag_475:\n        /* \"#utility.yul\":5981:6006   */\n      swap3\n      pop\n        /* \"#utility.yul\":6030:6031   */\n      dup3\n        /* \"#utility.yul\":6027:6028   */\n      dup3\n        /* \"#utility.yul\":6023:6032   */\n      sub\n        /* \"#utility.yul\":6015:6032   */\n      swap1\n      pop\n        /* \"#utility.yul\":6054:6055   */\n      dup2\n        /* \"#utility.yul\":6048:6052   */\n      dup2\n        /* \"#utility.yul\":6045:6056   */\n      gt\n        /* \"#utility.yul\":6042:6079   */\n      iszero\n      tag_476\n      jumpi\n        /* \"#utility.yul\":6059:6077   */\n      tag_477\n      tag_349\n      jump\t// in\n    tag_477:\n        /* \"#utility.yul\":6042:6079   */\n    tag_476:\n        /* \"#utility.yul\":5892:6086   */\n      swap3\n      swap2\n      pop\n      pop\n      jump\t// out\n        /* \"#utility.yul\":6092:6261   */\n    tag_351:\n        /* \"#utility.yul\":6176:6187   */\n      0x00\n        /* \"#utility.yul\":6210:6216   */\n      dup3\n        /* \"#utility.yul\":6205:6208   */\n      dup3\n        /* \"#utility.yul\":6198:6217   */\n      mstore\n        /* \"#utility.yul\":6250:6254   */\n      0x20\n        /* \"#utility.yul\":6245:6248   */\n      dup3\n        /* \"#utility.yul\":6241:6255   */\n      add\n        /* \"#utility.yul\":6226:6255   */\n      swap1\n      pop\n        /* \"#utility.yul\":6092:6261   */\n      swap3\n      swap2\n      pop\n      pop\n      jump\t// out\n        /* \"#utility.yul\":6267:6435   */\n    tag_352:\n        /* \"#utility.yul\":6407:6427   */\n      0x70726576696f757320486f6c6465722069730000000000000000000000000000\n        /* \"#utility.yul\":6403:6404   */\n      0x00\n        /* \"#utility.yul\":6395:6401   */\n      dup3\n        /* \"#utility.yul\":6391:6405   */\n      add\n        /* \"#utility.yul\":6384:6428   */\n      mstore\n        /* \"#utility.yul\":6267:6435   */\n      pop\n      jump\t// out\n        /* \"#utility.yul\":6441:6807   */\n    tag_353:\n        /* \"#utility.yul\":6583:6586   */\n      0x00\n        /* \"#utility.yul\":6604:6671   */\n      tag_481\n        /* \"#utility.yul\":6668:6670   */\n      0x12\n        /* \"#utility.yul\":6663:6666   */\n      dup4\n        /* \"#utility.yul\":6604:6671   */\n      tag_351\n      jump\t// in\n    tag_481:\n        /* \"#utility.yul\":6597:6671   */\n      swap2\n      pop\n        /* \"#utility.yul\":6680:6773   */\n      tag_482\n        /* \"#utility.yul\":6769:6772   */\n      dup3\n        /* \"#utility.yul\":6680:6773   */\n      tag_352\n      jump\t// in\n    tag_482:\n        /* \"#utility.yul\":6798:6800   */\n      0x20\n        /* \"#utility.yul\":6793:6796   */\n      dup3\n        /* \"#utility.yul\":6789:6801   */\n      add\n        /* \"#utility.yul\":6782:6801   */\n      swap1\n      pop\n        /* \"#utility.yul\":6441:6807   */\n      swap2\n      swap1\n      pop\n      jump\t// out\n        /* \"#utility.yul\":6813:7232   */\n    tag_176:\n        /* \"#utility.yul\":6979:6983   */\n      0x00\n        /* \"#utility.yul\":7017:7019   */\n      0x20\n        /* \"#utility.yul\":7006:7015   */\n      dup3\n        /* \"#utility.yul\":7002:7020   */\n      add\n        /* \"#utility.yul\":6994:7020   */\n      swap1\n      pop\n        /* \"#utility.yul\":7066:7075   */\n      dup2\n        /* \"#utility.yul\":7060:7064   */\n      dup2\n        /* \"#utility.yul\":7056:7076   */\n      sub\n        /* \"#utility.yul\":7052:7053   */\n      0x00\n        /* \"#utility.yul\":7041:7050   */\n      dup4\n        /* \"#utility.yul\":7037:7054   */\n      add\n        /* \"#utility.yul\":7030:7077   */\n      mstore\n        /* \"#utility.yul\":7094:7225   */\n      tag_484\n        /* \"#utility.yul\":7220:7224   */\n      dup2\n        /* \"#utility.yul\":7094:7225   */\n      tag_353\n      jump\t// in\n    tag_484:\n        /* \"#utility.yul\":7086:7225   */\n      swap1\n      pop\n        /* \"#utility.yul\":6813:7232   */\n      swap2\n      swap1\n      pop\n      jump\t// out\n        /* \"#utility.yul\":7238:7413   */\n    tag_354:\n        /* \"#utility.yul\":7378:7405   */\n      0x63757272656e74206c69717569646974792070657263656e7400000000000000\n        /* \"#utility.yul\":7374:7375   */\n      0x00\n        /* \"#utility.yul\":7366:7372   */\n      dup3\n        /* \"#utility.yul\":7362:7376   */\n      add\n        /* \"#utility.yul\":7355:7406   */\n      mstore\n        /* \"#utility.yul\":7238:7413   */\n      pop\n      jump\t// out\n        /* \"#utility.yul\":7419:7785   */\n    tag_355:\n        /* \"#utility.yul\":7561:7564   */\n      0x00\n        /* \"#utility.yul\":7582:7649   */\n      tag_487\n        /* \"#utility.yul\":7646:7648   */\n      0x19\n        /* \"#utility.yul\":7641:7644   */\n      dup4\n        /* \"#utility.yul\":7582:7649   */\n      tag_351\n      jump\t// in\n    tag_487:\n        /* \"#utility.yul\":7575:7649   */\n      swap2\n      pop\n        /* \"#utility.yul\":7658:7751   */\n      tag_488\n        /* \"#utility.yul\":7747:7750   */\n      dup3\n        /* \"#utility.yul\":7658:7751   */\n      tag_354\n      jump\t// in\n    tag_488:\n        /* \"#utility.yul\":7776:7778   */\n      0x20\n        /* \"#utility.yul\":7771:7774   */\n      dup3\n        /* \"#utility.yul\":7767:7779   */\n      add\n        /* \"#utility.yul\":7760:7779   */\n      swap1\n      pop\n        /* \"#utility.yul\":7419:7785   */\n      swap2\n      swap1\n      pop\n      jump\t// out\n        /* \"#utility.yul\":7791:8210   */\n    tag_179:\n        /* \"#utility.yul\":7957:7961   */\n      0x00\n        /* \"#utility.yul\":7995:7997   */\n      0x20\n        /* \"#utility.yul\":7984:7993   */\n      dup3\n        /* \"#utility.yul\":7980:7998   */\n      add\n        /* \"#utility.yul\":7972:7998   */\n      swap1\n      pop\n        /* \"#utility.yul\":8044:8053   */\n      dup2\n        /* \"#utility.yul\":8038:8042   */\n      dup2\n        /* \"#utility.yul\":8034:8054   */\n      sub\n        /* \"#utility.yul\":8030:8031   */\n      0x00\n        /* \"#utility.yul\":8019:8028   */\n      dup4\n        /* \"#utility.yul\":8015:8032   */\n      add\n        /* \"#utility.yul\":8008:8055   */\n      mstore\n        /* \"#utility.yul\":8072:8203   */\n      tag_490\n        /* \"#utility.yul\":8198:8202   */\n      dup2\n        /* \"#utility.yul\":8072:8203   */\n      tag_355\n      jump\t// in\n    tag_490:\n        /* \"#utility.yul\":8064:8203   */\n      swap1\n      pop\n        /* \"#utility.yul\":7791:8210   */\n      swap2\n      swap1\n      pop\n      jump\t// out\n        /* \"#utility.yul\":8216:8407   */\n    tag_186:\n        /* \"#utility.yul\":8256:8259   */\n      0x00\n        /* \"#utility.yul\":8275:8295   */\n      tag_492\n        /* \"#utility.yul\":8293:8294   */\n      dup3\n        /* \"#utility.yul\":8275:8295   */\n      tag_341\n      jump\t// in\n    tag_492:\n        /* \"#utility.yul\":8270:8295   */\n      swap2\n      pop\n        /* \"#utility.yul\":8309:8329   */\n      tag_493\n        /* \"#utility.yul\":8327:8328   */\n      dup4\n        /* \"#utility.yul\":8309:8329   */\n      tag_341\n      jump\t// in\n    tag_493:\n        /* \"#utility.yul\":8304:8329   */\n      swap3\n      pop\n        /* \"#utility.yul\":8352:8353   */\n      dup3\n        /* \"#utility.yul\":8349:8350   */\n      dup3\n        /* \"#utility.yul\":8345:8354   */\n      add\n        /* \"#utility.yul\":8338:8354   */\n      swap1\n      pop\n        /* \"#utility.yul\":8373:8376   */\n      dup1\n        /* \"#utility.yul\":8370:8371   */\n      dup3\n        /* \"#utility.yul\":8367:8377   */\n      gt\n        /* \"#utility.yul\":8364:8400   */\n      iszero\n      tag_494\n      jumpi\n        /* \"#utility.yul\":8380:8398   */\n      tag_495\n      tag_349\n      jump\t// in\n    tag_495:\n        /* \"#utility.yul\":8364:8400   */\n    tag_494:\n        /* \"#utility.yul\":8216:8407   */\n      swap3\n      swap2\n      pop\n      pop\n      jump\t// out\n        /* \"#utility.yul\":8413:8583   */\n    tag_356:\n        /* \"#utility.yul\":8553:8575   */\n      0x746f6b656e732063616e74206265206275726e74000000000000000000000000\n        /* \"#utility.yul\":8549:8550   */\n      0x00\n        /* \"#utility.yul\":8541:8547   */\n      dup3\n        /* \"#utility.yul\":8537:8551   */\n      add\n        /* \"#utility.yul\":8530:8576   */\n      mstore\n        /* \"#utility.yul\":8413:8583   */\n      pop\n      jump\t// out\n        /* \"#utility.yul\":8589:8955   */\n    tag_357:\n        /* \"#utility.yul\":8731:8734   */\n      0x00\n        /* \"#utility.yul\":8752:8819   */\n      tag_498\n        /* \"#utility.yul\":8816:8818   */\n      0x14\n        /* \"#utility.yul\":8811:8814   */\n      dup4\n        /* \"#utility.yul\":8752:8819   */\n      tag_351\n      jump\t// in\n    tag_498:\n        /* \"#utility.yul\":8745:8819   */\n      swap2\n      pop\n        /* \"#utility.yul\":8828:8921   */\n      tag_499\n        /* \"#utility.yul\":8917:8920   */\n      dup3\n        /* \"#utility.yul\":8828:8921   */\n      tag_356\n      jump\t// in\n    tag_499:\n        /* \"#utility.yul\":8946:8948   */\n      0x20\n        /* \"#utility.yul\":8941:8944   */\n      dup3\n        /* \"#utility.yul\":8937:8949   */\n      add\n        /* \"#utility.yul\":8930:8949   */\n      swap1\n      pop\n        /* \"#utility.yul\":8589:8955   */\n      swap2\n      swap1\n      pop\n      jump\t// out\n        /* \"#utility.yul\":8961:9380   */\n    tag_204:\n        /* \"#utility.yul\":9127:9131   */\n      0x00\n        /* \"#utility.yul\":9165:9167   */\n      0x20\n        /* \"#utility.yul\":9154:9163   */\n      dup3\n        /* \"#utility.yul\":9150:9168   */\n      add\n        /* \"#utility.yul\":9142:9168   */\n      swap1\n      pop\n        /* \"#utility.yul\":9214:9223   */\n      dup2\n        /* \"#utility.yul\":9208:9212   */\n      dup2\n        /* \"#utility.yul\":9204:9224   */\n      sub\n        /* \"#utility.yul\":9200:9201   */\n      0x00\n        /* \"#utility.yul\":9189:9198   */\n      dup4\n        /* \"#utility.yul\":9185:9202   */\n      add\n        /* \"#utility.yul\":9178:9225   */\n      mstore\n        /* \"#utility.yul\":9242:9373   */\n      tag_501\n        /* \"#utility.yul\":9368:9372   */\n      dup2\n        /* \"#utility.yul\":9242:9373   */\n      tag_357\n      jump\t// in\n    tag_501:\n        /* \"#utility.yul\":9234:9373   */\n      swap1\n      pop\n        /* \"#utility.yul\":8961:9380   */\n      swap2\n      swap1\n      pop\n      jump\t// out\n        /* \"#utility.yul\":9386:9558   */\n    tag_358:\n        /* \"#utility.yul\":9526:9550   */\n      0x746f6b656e732068617665206265656e206275726e7400000000000000000000\n        /* \"#utility.yul\":9522:9523   */\n      0x00\n        /* \"#utility.yul\":9514:9520   */\n      dup3\n        /* \"#utility.yul\":9510:9524   */\n      add\n        /* \"#utility.yul\":9503:9551   */\n      mstore\n        /* \"#utility.yul\":9386:9558   */\n      pop\n      jump\t// out\n        /* \"#utility.yul\":9564:9930   */\n    tag_359:\n        /* \"#utility.yul\":9706:9709   */\n      0x00\n        /* \"#utility.yul\":9727:9794   */\n      tag_504\n        /* \"#utility.yul\":9791:9793   */\n      0x16\n        /* \"#utility.yul\":9786:9789   */\n      dup4\n        /* \"#utility.yul\":9727:9794   */\n      tag_351\n      jump\t// in\n    tag_504:\n        /* \"#utility.yul\":9720:9794   */\n      swap2\n      pop\n        /* \"#utility.yul\":9803:9896   */\n      tag_505\n        /* \"#utility.yul\":9892:9895   */\n      dup3\n        /* \"#utility.yul\":9803:9896   */\n      tag_358\n      jump\t// in\n    tag_505:\n        /* \"#utility.yul\":9921:9923   */\n      0x20\n        /* \"#utility.yul\":9916:9919   */\n      dup3\n        /* \"#utility.yul\":9912:9924   */\n      add\n        /* \"#utility.yul\":9905:9924   */\n      swap1\n      pop\n        /* \"#utility.yul\":9564:9930   */\n      swap2\n      swap1\n      pop\n      jump\t// out\n        /* \"#utility.yul\":9936:10355   */\n    tag_207:\n        /* \"#utility.yul\":10102:10106   */\n      0x00\n        /* \"#utility.yul\":10140:10142   */\n      0x20\n        /* \"#utility.yul\":10129:10138   */\n      dup3\n        /* \"#utility.yul\":10125:10143   */\n      add\n        /* \"#utility.yul\":10117:10143   */\n      swap1\n      pop\n        /* \"#utility.yul\":10189:10198   */\n      dup2\n        /* \"#utility.yul\":10183:10187   */\n      dup2\n        /* \"#utility.yul\":10179:10199   */\n      sub\n        /* \"#utility.yul\":10175:10176   */\n      0x00\n        /* \"#utility.yul\":10164:10173   */\n      dup4\n        /* \"#utility.yul\":10160:10177   */\n      add\n        /* \"#utility.yul\":10153:10200   */\n      mstore\n        /* \"#utility.yul\":10217:10348   */\n      tag_507\n        /* \"#utility.yul\":10343:10347   */\n      dup2\n        /* \"#utility.yul\":10217:10348   */\n      tag_359\n      jump\t// in\n    tag_507:\n        /* \"#utility.yul\":10209:10348   */\n      swap1\n      pop\n        /* \"#utility.yul\":9936:10355   */\n      swap2\n      swap1\n      pop\n      jump\t// out\n        /* \"#utility.yul\":10361:11136   */\n    tag_234:\n        /* \"#utility.yul\":10594:10598   */\n      0x00\n        /* \"#utility.yul\":10632:10635   */\n      0xc0\n        /* \"#utility.yul\":10621:10630   */\n      dup3\n        /* \"#utility.yul\":10617:10636   */\n      add\n        /* \"#utility.yul\":10609:10636   */\n      swap1\n      pop\n        /* \"#utility.yul\":10646:10717   */\n      tag_509\n        /* \"#utility.yul\":10714:10715   */\n      0x00\n        /* \"#utility.yul\":10703:10712   */\n      dup4\n        /* \"#utility.yul\":10699:10716   */\n      add\n        /* \"#utility.yul\":10690:10696   */\n      dup10\n        /* \"#utility.yul\":10646:10717   */\n      tag_340\n      jump\t// in\n    tag_509:\n        /* \"#utility.yul\":10727:10799   */\n      tag_510\n        /* \"#utility.yul\":10795:10797   */\n      0x20\n        /* \"#utility.yul\":10784:10793   */\n      dup4\n        /* \"#utility.yul\":10780:10798   */\n      add\n        /* \"#utility.yul\":10771:10777   */\n      dup9\n        /* \"#utility.yul\":10727:10799   */\n      tag_344\n      jump\t// in\n    tag_510:\n        /* \"#utility.yul\":10809:10881   */\n      tag_511\n        /* \"#utility.yul\":10877:10879   */\n      0x40\n        /* \"#utility.yul\":10866:10875   */\n      dup4\n        /* \"#utility.yul\":10862:10880   */\n      add\n        /* \"#utility.yul\":10853:10859   */\n      dup8\n        /* \"#utility.yul\":10809:10881   */\n      tag_344\n      jump\t// in\n    tag_511:\n        /* \"#utility.yul\":10891:10963   */\n      tag_512\n        /* \"#utility.yul\":10959:10961   */\n      0x60\n        /* \"#utility.yul\":10948:10957   */\n      dup4\n        /* \"#utility.yul\":10944:10962   */\n      add\n        /* \"#utility.yul\":10935:10941   */\n      dup7\n        /* \"#utility.yul\":10891:10963   */\n      tag_344\n      jump\t// in\n    tag_512:\n        /* \"#utility.yul\":10973:11046   */\n      tag_513\n        /* \"#utility.yul\":11041:11044   */\n      0x80\n        /* \"#utility.yul\":11030:11039   */\n      dup4\n        /* \"#utility.yul\":11026:11045   */\n      add\n        /* \"#utility.yul\":11017:11023   */\n      dup6\n        /* \"#utility.yul\":10973:11046   */\n      tag_340\n      jump\t// in\n    tag_513:\n        /* \"#utility.yul\":11056:11129   */\n      tag_514\n        /* \"#utility.yul\":11124:11127   */\n      0xa0\n        /* \"#utility.yul\":11113:11122   */\n      dup4\n        /* \"#utility.yul\":11109:11128   */\n      add\n        /* \"#utility.yul\":11100:11106   */\n      dup5\n        /* \"#utility.yul\":11056:11129   */\n      tag_344\n      jump\t// in\n    tag_514:\n        /* \"#utility.yul\":10361:11136   */\n      swap8\n      swap7\n      pop\n      pop\n      pop\n      pop\n      pop\n      pop\n      pop\n      jump\t// out\n        /* \"#utility.yul\":11142:11805   */\n    tag_237:\n        /* \"#utility.yul\":11230:11236   */\n      0x00\n        /* \"#utility.yul\":11238:11244   */\n      dup1\n        /* \"#utility.yul\":11246:11252   */\n      0x00\n        /* \"#utility.yul\":11295:11297   */\n      0x60\n        /* \"#utility.yul\":11283:11292   */\n      dup5\n        /* \"#utility.yul\":11274:11281   */\n      dup7\n        /* \"#utility.yul\":11270:11293   */\n      sub\n        /* \"#utility.yul\":11266:11298   */\n      slt\n        /* \"#utility.yul\":11263:11382   */\n      iszero\n      tag_516\n      jumpi\n        /* \"#utility.yul\":11301:11380   */\n      tag_517\n      tag_334\n      jump\t// in\n    tag_517:\n        /* \"#utility.yul\":11263:11382   */\n    tag_516:\n        /* \"#utility.yul\":11421:11422   */\n      0x00\n        /* \"#utility.yul\":11446:11510   */\n      tag_518\n        /* \"#utility.yul\":11502:11509   */\n      dup7\n        /* \"#utility.yul\":11493:11499   */\n      dup3\n        /* \"#utility.yul\":11482:11491   */\n      dup8\n        /* \"#utility.yul\":11478:11500   */\n      add\n        /* \"#utility.yul\":11446:11510   */\n      tag_345\n      jump\t// in\n    tag_518:\n        /* \"#utility.yul\":11436:11510   */\n      swap4\n      pop\n        /* \"#utility.yul\":11392:11520   */\n      pop\n        /* \"#utility.yul\":11559:11561   */\n      0x20\n        /* \"#utility.yul\":11585:11649   */\n      tag_519\n        /* \"#utility.yul\":11641:11648   */\n      dup7\n        /* \"#utility.yul\":11632:11638   */\n      dup3\n        /* \"#utility.yul\":11621:11630   */\n      dup8\n        /* \"#utility.yul\":11617:11639   */\n      add\n        /* \"#utility.yul\":11585:11649   */\n      tag_345\n      jump\t// in\n    tag_519:\n        /* \"#utility.yul\":11575:11649   */\n      swap3\n      pop\n        /* \"#utility.yul\":11530:11659   */\n      pop\n        /* \"#utility.yul\":11698:11700   */\n      0x40\n        /* \"#utility.yul\":11724:11788   */\n      tag_520\n        /* \"#utility.yul\":11780:11787   */\n      dup7\n        /* \"#utility.yul\":11771:11777   */\n      dup3\n        /* \"#utility.yul\":11760:11769   */\n      dup8\n        /* \"#utility.yul\":11756:11778   */\n      add\n        /* \"#utility.yul\":11724:11788   */\n      tag_345\n      jump\t// in\n    tag_520:\n        /* \"#utility.yul\":11714:11788   */\n      swap2\n      pop\n        /* \"#utility.yul\":11669:11798   */\n      pop\n        /* \"#utility.yul\":11142:11805   */\n      swap3\n      pop\n      swap3\n      pop\n      swap3\n      jump\t// out\n        /* \"#utility.yul\":11811:11983   */\n    tag_360:\n        /* \"#utility.yul\":11951:11975   */\n      0x4c6971756964697479204e6f742050726f766964656400000000000000000000\n        /* \"#utility.yul\":11947:11948   */\n      0x00\n        /* \"#utility.yul\":11939:11945   */\n      dup3\n        /* \"#utility.yul\":11935:11949   */\n      add\n        /* \"#utility.yul\":11928:11976   */\n      mstore\n        /* \"#utility.yul\":11811:11983   */\n      pop\n      jump\t// out\n        /* \"#utility.yul\":11989:12355   */\n    tag_361:\n        /* \"#utility.yul\":12131:12134   */\n      0x00\n        /* \"#utility.yul\":12152:12219   */\n      tag_523\n        /* \"#utility.yul\":12216:12218   */\n      0x16\n        /* \"#utility.yul\":12211:12214   */\n      dup4\n        /* \"#utility.yul\":12152:12219   */\n      tag_351\n      jump\t// in\n    tag_523:\n        /* \"#utility.yul\":12145:12219   */\n      swap2\n      pop\n        /* \"#utility.yul\":12228:12321   */\n      tag_524\n        /* \"#utility.yul\":12317:12320   */\n      dup3\n        /* \"#utility.yul\":12228:12321   */\n      tag_360\n      jump\t// in\n    tag_524:\n        /* \"#utility.yul\":12346:12348   */\n      0x20\n        /* \"#utility.yul\":12341:12344   */\n      dup3\n        /* \"#utility.yul\":12337:12349   */\n      add\n        /* \"#utility.yul\":12330:12349   */\n      swap1\n      pop\n        /* \"#utility.yul\":11989:12355   */\n      swap2\n      swap1\n      pop\n      jump\t// out\n        /* \"#utility.yul\":12361:12780   */\n    tag_243:\n        /* \"#utility.yul\":12527:12531   */\n      0x00\n        /* \"#utility.yul\":12565:12567   */\n      0x20\n        /* \"#utility.yul\":12554:12563   */\n      dup3\n        /* \"#utility.yul\":12550:12568   */\n      add\n        /* \"#utility.yul\":12542:12568   */\n      swap1\n      pop\n        /* \"#utility.yul\":12614:12623   */\n      dup2\n        /* \"#utility.yul\":12608:12612   */\n      dup2\n        /* \"#utility.yul\":12604:12624   */\n      sub\n        /* \"#utility.yul\":12600:12601   */\n      0x00\n        /* \"#utility.yul\":12589:12598   */\n      dup4\n        /* \"#utility.yul\":12585:12602   */\n      add\n        /* \"#utility.yul\":12578:12625   */\n      mstore\n        /* \"#utility.yul\":12642:12773   */\n      tag_526\n        /* \"#utility.yul\":12768:12772   */\n      dup2\n        /* \"#utility.yul\":12642:12773   */\n      tag_361\n      jump\t// in\n    tag_526:\n        /* \"#utility.yul\":12634:12773   */\n      swap1\n      pop\n        /* \"#utility.yul\":12361:12780   */\n      swap2\n      swap1\n      pop\n      jump\t// out\n        /* \"#utility.yul\":12786:12967   */\n    tag_362:\n        /* \"#utility.yul\":12926:12959   */\n      0x6c6971756964697479205375636365737366756c6c792050726f766964656400\n        /* \"#utility.yul\":12922:12923   */\n      0x00\n        /* \"#utility.yul\":12914:12920   */\n      dup3\n        /* \"#utility.yul\":12910:12924   */\n      add\n        /* \"#utility.yul\":12903:12960   */\n      mstore\n        /* \"#utility.yul\":12786:12967   */\n      pop\n      jump\t// out\n        /* \"#utility.yul\":12973:13339   */\n    tag_363:\n        /* \"#utility.yul\":13115:13118   */\n      0x00\n        /* \"#utility.yul\":13136:13203   */\n      tag_529\n        /* \"#utility.yul\":13200:13202   */\n      0x1f\n        /* \"#utility.yul\":13195:13198   */\n      dup4\n        /* \"#utility.yul\":13136:13203   */\n      tag_351\n      jump\t// in\n    tag_529:\n        /* \"#utility.yul\":13129:13203   */\n      swap2\n      pop\n        /* \"#utility.yul\":13212:13305   */\n      tag_530\n        /* \"#utility.yul\":13301:13304   */\n      dup3\n        /* \"#utility.yul\":13212:13305   */\n      tag_362\n      jump\t// in\n    tag_530:\n        /* \"#utility.yul\":13330:13332   */\n      0x20\n        /* \"#utility.yul\":13325:13328   */\n      dup3\n        /* \"#utility.yul\":13321:13333   */\n      add\n        /* \"#utility.yul\":13314:13333   */\n      swap1\n      pop\n        /* \"#utility.yul\":12973:13339   */\n      swap2\n      swap1\n      pop\n      jump\t// out\n        /* \"#utility.yul\":13345:13764   */\n    tag_246:\n        /* \"#utility.yul\":13511:13515   */\n      0x00\n        /* \"#utility.yul\":13549:13551   */\n      0x20\n        /* \"#utility.yul\":13538:13547   */\n      dup3\n        /* \"#utility.yul\":13534:13552   */\n      add\n        /* \"#utility.yul\":13526:13552   */\n      swap1\n      pop\n        /* \"#utility.yul\":13598:13607   */\n      dup2\n        /* \"#utility.yul\":13592:13596   */\n      dup2\n        /* \"#utility.yul\":13588:13608   */\n      sub\n        /* \"#utility.yul\":13584:13585   */\n      0x00\n        /* \"#utility.yul\":13573:13582   */\n      dup4\n        /* \"#utility.yul\":13569:13586   */\n      add\n        /* \"#utility.yul\":13562:13609   */\n      mstore\n        /* \"#utility.yul\":13626:13757   */\n      tag_532\n        /* \"#utility.yul\":13752:13756   */\n      dup2\n        /* \"#utility.yul\":13626:13757   */\n      tag_363\n      jump\t// in\n    tag_532:\n        /* \"#utility.yul\":13618:13757   */\n      swap1\n      pop\n        /* \"#utility.yul\":13345:13764   */\n      swap2\n      swap1\n      pop\n      jump\t// out\n        /* \"#utility.yul\":13770:13949   */\n    tag_364:\n        /* \"#utility.yul\":13910:13941   */\n      0x70726963652063616e7420626520676f742066726f6d204f7261636c65000000\n        /* \"#utility.yul\":13906:13907   */\n      0x00\n        /* \"#utility.yul\":13898:13904   */\n      dup3\n        /* \"#utility.yul\":13894:13908   */\n      add\n        /* \"#utility.yul\":13887:13942   */\n      mstore\n        /* \"#utility.yul\":13770:13949   */\n      pop\n      jump\t// out\n        /* \"#utility.yul\":13955:14321   */\n    tag_365:\n        /* \"#utility.yul\":14097:14100   */\n      0x00\n        /* \"#utility.yul\":14118:14185   */\n      tag_535\n        /* \"#utility.yul\":14182:14184   */\n      0x1d\n        /* \"#utility.yul\":14177:14180   */\n      dup4\n        /* \"#utility.yul\":14118:14185   */\n      tag_351\n      jump\t// in\n    tag_535:\n        /* \"#utility.yul\":14111:14185   */\n      swap2\n      pop\n        /* \"#utility.yul\":14194:14287   */\n      tag_536\n        /* \"#utility.yul\":14283:14286   */\n      dup3\n        /* \"#utility.yul\":14194:14287   */\n      tag_364\n      jump\t// in\n    tag_536:\n        /* \"#utility.yul\":14312:14314   */\n      0x20\n        /* \"#utility.yul\":14307:14310   */\n      dup3\n        /* \"#utility.yul\":14303:14315   */\n      add\n        /* \"#utility.yul\":14296:14315   */\n      swap1\n      pop\n        /* \"#utility.yul\":13955:14321   */\n      swap2\n      swap1\n      pop\n      jump\t// out\n        /* \"#utility.yul\":14327:14746   */\n    tag_264:\n        /* \"#utility.yul\":14493:14497   */\n      0x00\n        /* \"#utility.yul\":14531:14533   */\n      0x20\n        /* \"#utility.yul\":14520:14529   */\n      dup3\n        /* \"#utility.yul\":14516:14534   */\n      add\n        /* \"#utility.yul\":14508:14534   */\n      swap1\n      pop\n        /* \"#utility.yul\":14580:14589   */\n      dup2\n        /* \"#utility.yul\":14574:14578   */\n      dup2\n        /* \"#utility.yul\":14570:14590   */\n      sub\n        /* \"#utility.yul\":14566:14567   */\n      0x00\n        /* \"#utility.yul\":14555:14564   */\n      dup4\n        /* \"#utility.yul\":14551:14568   */\n      add\n        /* \"#utility.yul\":14544:14591   */\n      mstore\n        /* \"#utility.yul\":14608:14739   */\n      tag_538\n        /* \"#utility.yul\":14734:14738   */\n      dup2\n        /* \"#utility.yul\":14608:14739   */\n      tag_365\n      jump\t// in\n    tag_538:\n        /* \"#utility.yul\":14600:14739   */\n      swap1\n      pop\n        /* \"#utility.yul\":14327:14746   */\n      swap2\n      swap1\n      pop\n      jump\t// out\n        /* \"#utility.yul\":14752:14977   */\n    tag_366:\n        /* \"#utility.yul\":14892:14926   */\n      0x707269636520676f742066726f6d204f7261636c652062757420636f756c646e\n        /* \"#utility.yul\":14888:14889   */\n      0x00\n        /* \"#utility.yul\":14880:14886   */\n      dup3\n        /* \"#utility.yul\":14876:14890   */\n      add\n        /* \"#utility.yul\":14869:14927   */\n      mstore\n        /* \"#utility.yul\":14961:14969   */\n      0x74206d696e740000000000000000000000000000000000000000000000000000\n        /* \"#utility.yul\":14956:14958   */\n      0x20\n        /* \"#utility.yul\":14948:14954   */\n      dup3\n        /* \"#utility.yul\":14944:14959   */\n      add\n        /* \"#utility.yul\":14937:14970   */\n      mstore\n        /* \"#utility.yul\":14752:14977   */\n      pop\n      jump\t// out\n        /* \"#utility.yul\":14983:15349   */\n    tag_367:\n        /* \"#utility.yul\":15125:15128   */\n      0x00\n        /* \"#utility.yul\":15146:15213   */\n      tag_541\n        /* \"#utility.yul\":15210:15212   */\n      0x26\n        /* \"#utility.yul\":15205:15208   */\n      dup4\n        /* \"#utility.yul\":15146:15213   */\n      tag_351\n      jump\t// in\n    tag_541:\n        /* \"#utility.yul\":15139:15213   */\n      swap2\n      pop\n        /* \"#utility.yul\":15222:15315   */\n      tag_542\n        /* \"#utility.yul\":15311:15314   */\n      dup3\n        /* \"#utility.yul\":15222:15315   */\n      tag_366\n      jump\t// in\n    tag_542:\n        /* \"#utility.yul\":15340:15342   */\n      0x40\n        /* \"#utility.yul\":15335:15338   */\n      dup3\n        /* \"#utility.yul\":15331:15343   */\n      add\n        /* \"#utility.yul\":15324:15343   */\n      swap1\n      pop\n        /* \"#utility.yul\":14983:15349   */\n      swap2\n      swap1\n      pop\n      jump\t// out\n        /* \"#utility.yul\":15355:15774   */\n    tag_278:\n        /* \"#utility.yul\":15521:15525   */\n      0x00\n        /* \"#utility.yul\":15559:15561   */\n      0x20\n        /* \"#utility.yul\":15548:15557   */\n      dup3\n        /* \"#utility.yul\":15544:15562   */\n      add\n        /* \"#utility.yul\":15536:15562   */\n      swap1\n      pop\n        /* \"#utility.yul\":15608:15617   */\n      dup2\n        /* \"#utility.yul\":15602:15606   */\n      dup2\n        /* \"#utility.yul\":15598:15618   */\n      sub\n        /* \"#utility.yul\":15594:15595   */\n      0x00\n        /* \"#utility.yul\":15583:15592   */\n      dup4\n        /* \"#utility.yul\":15579:15596   */\n      add\n        /* \"#utility.yul\":15572:15619   */\n      mstore\n        /* \"#utility.yul\":15636:15767   */\n      tag_544\n        /* \"#utility.yul\":15762:15766   */\n      dup2\n        /* \"#utility.yul\":15636:15767   */\n      tag_367\n      jump\t// in\n    tag_544:\n        /* \"#utility.yul\":15628:15767   */\n      swap1\n      pop\n        /* \"#utility.yul\":15355:15774   */\n      swap2\n      swap1\n      pop\n      jump\t// out\n        /* \"#utility.yul\":15780:15962   */\n    tag_368:\n        /* \"#utility.yul\":15920:15954   */\n      0x746f6b656e73206d696e74656420746f2070726576696f757320686f6c646572\n        /* \"#utility.yul\":15916:15917   */\n      0x00\n        /* \"#utility.yul\":15908:15914   */\n      dup3\n        /* \"#utility.yul\":15904:15918   */\n      add\n        /* \"#utility.yul\":15897:15955   */\n      mstore\n        /* \"#utility.yul\":15780:15962   */\n      pop\n      jump\t// out\n        /* \"#utility.yul\":15968:16334   */\n    tag_369:\n        /* \"#utility.yul\":16110:16113   */\n      0x00\n        /* \"#utility.yul\":16131:16198   */\n      tag_547\n        /* \"#utility.yul\":16195:16197   */\n      0x20\n        /* \"#utility.yul\":16190:16193   */\n      dup4\n        /* \"#utility.yul\":16131:16198   */\n      tag_351\n      jump\t// in\n    tag_547:\n        /* \"#utility.yul\":16124:16198   */\n      swap2\n      pop\n        /* \"#utility.yul\":16207:16300   */\n      tag_548\n        /* \"#utility.yul\":16296:16299   */\n      dup3\n        /* \"#utility.yul\":16207:16300   */\n      tag_368\n      jump\t// in\n    tag_548:\n        /* \"#utility.yul\":16325:16327   */\n      0x20\n        /* \"#utility.yul\":16320:16323   */\n      dup3\n        /* \"#utility.yul\":16316:16328   */\n      add\n        /* \"#utility.yul\":16309:16328   */\n      swap1\n      pop\n        /* \"#utility.yul\":15968:16334   */\n      swap2\n      swap1\n      pop\n      jump\t// out\n        /* \"#utility.yul\":16340:16759   */\n    tag_281:\n        /* \"#utility.yul\":16506:16510   */\n      0x00\n        /* \"#utility.yul\":16544:16546   */\n      0x20\n        /* \"#utility.yul\":16533:16542   */\n      dup3\n        /* \"#utility.yul\":16529:16547   */\n      add\n        /* \"#utility.yul\":16521:16547   */\n      swap1\n      pop\n        /* \"#utility.yul\":16593:16602   */\n      dup2\n        /* \"#utility.yul\":16587:16591   */\n      dup2\n        /* \"#utility.yul\":16583:16603   */\n      sub\n        /* \"#utility.yul\":16579:16580   */\n      0x00\n        /* \"#utility.yul\":16568:16577   */\n      dup4\n        /* \"#utility.yul\":16564:16581   */\n      add\n        /* \"#utility.yul\":16557:16604   */\n      mstore\n        /* \"#utility.yul\":16621:16752   */\n      tag_550\n        /* \"#utility.yul\":16747:16751   */\n      dup2\n        /* \"#utility.yul\":16621:16752   */\n      tag_369\n      jump\t// in\n    tag_550:\n        /* \"#utility.yul\":16613:16752   */\n      swap1\n      pop\n        /* \"#utility.yul\":16340:16759   */\n      swap2\n      swap1\n      pop\n      jump\t// out\n        /* \"#utility.yul\":16765:16985   */\n    tag_370:\n        /* \"#utility.yul\":16905:16939   */\n      0x63616e74206765742062616c616e6365206f66207468697320636f6e74726163\n        /* \"#utility.yul\":16901:16902   */\n      0x00\n        /* \"#utility.yul\":16893:16899   */\n      dup3\n        /* \"#utility.yul\":16889:16903   */\n      add\n        /* \"#utility.yul\":16882:16940   */\n      mstore\n        /* \"#utility.yul\":16974:16977   */\n      0x7400000000000000000000000000000000000000000000000000000000000000\n        /* \"#utility.yul\":16969:16971   */\n      0x20\n        /* \"#utility.yul\":16961:16967   */\n      dup3\n        /* \"#utility.yul\":16957:16972   */\n      add\n        /* \"#utility.yul\":16950:16978   */\n      mstore\n        /* \"#utility.yul\":16765:16985   */\n      pop\n      jump\t// out\n        /* \"#utility.yul\":16991:17357   */\n    tag_371:\n        /* \"#utility.yul\":17133:17136   */\n      0x00\n        /* \"#utility.yul\":17154:17221   */\n      tag_553\n        /* \"#utility.yul\":17218:17220   */\n      0x21\n        /* \"#utility.yul\":17213:17216   */\n      dup4\n        /* \"#utility.yul\":17154:17221   */\n      tag_351\n      jump\t// in\n    tag_553:\n        /* \"#utility.yul\":17147:17221   */\n      swap2\n      pop\n        /* \"#utility.yul\":17230:17323   */\n      tag_554\n        /* \"#utility.yul\":17319:17322   */\n      dup3\n        /* \"#utility.yul\":17230:17323   */\n      tag_370\n      jump\t// in\n    tag_554:\n        /* \"#utility.yul\":17348:17350   */\n      0x40\n        /* \"#utility.yul\":17343:17346   */\n      dup3\n        /* \"#utility.yul\":17339:17351   */\n      add\n        /* \"#utility.yul\":17332:17351   */\n      swap1\n      pop\n        /* \"#utility.yul\":16991:17357   */\n      swap2\n      swap1\n      pop\n      jump\t// out\n        /* \"#utility.yul\":17363:17782   */\n    tag_291:\n        /* \"#utility.yul\":17529:17533   */\n      0x00\n        /* \"#utility.yul\":17567:17569   */\n      0x20\n        /* \"#utility.yul\":17556:17565   */\n      dup3\n        /* \"#utility.yul\":17552:17570   */\n      add\n        /* \"#utility.yul\":17544:17570   */\n      swap1\n      pop\n        /* \"#utility.yul\":17616:17625   */\n      dup2\n        /* \"#utility.yul\":17610:17614   */\n      dup2\n        /* \"#utility.yul\":17606:17626   */\n      sub\n        /* \"#utility.yul\":17602:17603   */\n      0x00\n        /* \"#utility.yul\":17591:17600   */\n      dup4\n        /* \"#utility.yul\":17587:17604   */\n      add\n        /* \"#utility.yul\":17580:17627   */\n      mstore\n        /* \"#utility.yul\":17644:17775   */\n      tag_556\n        /* \"#utility.yul\":17770:17774   */\n      dup2\n        /* \"#utility.yul\":17644:17775   */\n      tag_371\n      jump\t// in\n    tag_556:\n        /* \"#utility.yul\":17636:17775   */\n      swap1\n      pop\n        /* \"#utility.yul\":17363:17782   */\n      swap2\n      swap1\n      pop\n      jump\t// out\n        /* \"#utility.yul\":17788:17964   */\n    tag_372:\n        /* \"#utility.yul\":17928:17956   */\n      0x63616e74206765742070726963652066726f6d204f7261636c65000000000000\n        /* \"#utility.yul\":17924:17925   */\n      0x00\n        /* \"#utility.yul\":17916:17922   */\n      dup3\n        /* \"#utility.yul\":17912:17926   */\n      add\n        /* \"#utility.yul\":17905:17957   */\n      mstore\n        /* \"#utility.yul\":17788:17964   */\n      pop\n      jump\t// out\n        /* \"#utility.yul\":17970:18336   */\n    tag_373:\n        /* \"#utility.yul\":18112:18115   */\n      0x00\n        /* \"#utility.yul\":18133:18200   */\n      tag_559\n        /* \"#utility.yul\":18197:18199   */\n      0x1a\n        /* \"#utility.yul\":18192:18195   */\n      dup4\n        /* \"#utility.yul\":18133:18200   */\n      tag_351\n      jump\t// in\n    tag_559:\n        /* \"#utility.yul\":18126:18200   */\n      swap2\n      pop\n        /* \"#utility.yul\":18209:18302   */\n      tag_560\n        /* \"#utility.yul\":18298:18301   */\n      dup3\n        /* \"#utility.yul\":18209:18302   */\n      tag_372\n      jump\t// in\n    tag_560:\n        /* \"#utility.yul\":18327:18329   */\n      0x20\n        /* \"#utility.yul\":18322:18325   */\n      dup3\n        /* \"#utility.yul\":18318:18330   */\n      add\n        /* \"#utility.yul\":18311:18330   */\n      swap1\n      pop\n        /* \"#utility.yul\":17970:18336   */\n      swap2\n      swap1\n      pop\n      jump\t// out\n        /* \"#utility.yul\":18342:18761   */\n    tag_305:\n        /* \"#utility.yul\":18508:18512   */\n      0x00\n        /* \"#utility.yul\":18546:18548   */\n      0x20\n        /* \"#utility.yul\":18535:18544   */\n      dup3\n        /* \"#utility.yul\":18531:18549   */\n      add\n        /* \"#utility.yul\":18523:18549   */\n      swap1\n      pop\n        /* \"#utility.yul\":18595:18604   */\n      dup2\n        /* \"#utility.yul\":18589:18593   */\n      dup2\n        /* \"#utility.yul\":18585:18605   */\n      sub\n        /* \"#utility.yul\":18581:18582   */\n      0x00\n        /* \"#utility.yul\":18570:18579   */\n      dup4\n        /* \"#utility.yul\":18566:18583   */\n      add\n        /* \"#utility.yul\":18559:18606   */\n      mstore\n        /* \"#utility.yul\":18623:18754   */\n      tag_562\n        /* \"#utility.yul\":18749:18753   */\n      dup2\n        /* \"#utility.yul\":18623:18754   */\n      tag_373\n      jump\t// in\n    tag_562:\n        /* \"#utility.yul\":18615:18754   */\n      swap1\n      pop\n        /* \"#utility.yul\":18342:18761   */\n      swap2\n      swap1\n      pop\n      jump\t// out\n        /* \"#utility.yul\":18767:18943   */\n    tag_374:\n        /* \"#utility.yul\":18907:18935   */\n      0x6e756d626572206f6620546f6b656e7320746f20427579206973000000000000\n        /* \"#utility.yul\":18903:18904   */\n      0x00\n        /* \"#utility.yul\":18895:18901   */\n      dup3\n        /* \"#utility.yul\":18891:18905   */\n      add\n        /* \"#utility.yul\":18884:18936   */\n      mstore\n        /* \"#utility.yul\":18767:18943   */\n      pop\n      jump\t// out\n        /* \"#utility.yul\":18949:19315   */\n    tag_375:\n        /* \"#utility.yul\":19091:19094   */\n      0x00\n        /* \"#utility.yul\":19112:19179   */\n      tag_565\n        /* \"#utility.yul\":19176:19178   */\n      0x1a\n        /* \"#utility.yul\":19171:19174   */\n      dup4\n        /* \"#utility.yul\":19112:19179   */\n      tag_351\n      jump\t// in\n    tag_565:\n        /* \"#utility.yul\":19105:19179   */\n      swap2\n      pop\n        /* \"#utility.yul\":19188:19281   */\n      tag_566\n        /* \"#utility.yul\":19277:19280   */\n      dup3\n        /* \"#utility.yul\":19188:19281   */\n      tag_374\n      jump\t// in\n    tag_566:\n        /* \"#utility.yul\":19306:19308   */\n      0x20\n        /* \"#utility.yul\":19301:19304   */\n      dup3\n        /* \"#utility.yul\":19297:19309   */\n      add\n        /* \"#utility.yul\":19290:19309   */\n      swap1\n      pop\n        /* \"#utility.yul\":18949:19315   */\n      swap2\n      swap1\n      pop\n      jump\t// out\n        /* \"#utility.yul\":19321:19740   */\n    tag_312:\n        /* \"#utility.yul\":19487:19491   */\n      0x00\n        /* \"#utility.yul\":19525:19527   */\n      0x20\n        /* \"#utility.yul\":19514:19523   */\n      dup3\n        /* \"#utility.yul\":19510:19528   */\n      add\n        /* \"#utility.yul\":19502:19528   */\n      swap1\n      pop\n        /* \"#utility.yul\":19574:19583   */\n      dup2\n        /* \"#utility.yul\":19568:19572   */\n      dup2\n        /* \"#utility.yul\":19564:19584   */\n      sub\n        /* \"#utility.yul\":19560:19561   */\n      0x00\n        /* \"#utility.yul\":19549:19558   */\n      dup4\n        /* \"#utility.yul\":19545:19562   */\n      add\n        /* \"#utility.yul\":19538:19585   */\n      mstore\n        /* \"#utility.yul\":19602:19733   */\n      tag_568\n        /* \"#utility.yul\":19728:19732   */\n      dup2\n        /* \"#utility.yul\":19602:19733   */\n      tag_375\n      jump\t// in\n    tag_568:\n        /* \"#utility.yul\":19594:19733   */\n      swap1\n      pop\n        /* \"#utility.yul\":19321:19740   */\n      swap2\n      swap1\n      pop\n      jump\t// out\n        /* \"#utility.yul\":19746:19857   */\n    tag_376:\n        /* \"#utility.yul\":19810:19816   */\n      0x00\n        /* \"#utility.yul\":19844:19849   */\n      dup2\n        /* \"#utility.yul\":19838:19850   */\n      sload\n        /* \"#utility.yul\":19828:19850   */\n      swap1\n      pop\n        /* \"#utility.yul\":19746:19857   */\n      swap2\n      swap1\n      pop\n      jump\t// out\n        /* \"#utility.yul\":19863:20047   */\n    tag_377:\n        /* \"#utility.yul\":19962:19973   */\n      0x00\n        /* \"#utility.yul\":19996:20002   */\n      dup3\n        /* \"#utility.yul\":19991:19994   */\n      dup3\n        /* \"#utility.yul\":19984:20003   */\n      mstore\n        /* \"#utility.yul\":20036:20040   */\n      0x20\n        /* \"#utility.yul\":20031:20034   */\n      dup3\n        /* \"#utility.yul\":20027:20041   */\n      add\n        /* \"#utility.yul\":20012:20041   */\n      swap1\n      pop\n        /* \"#utility.yul\":19863:20047   */\n      swap3\n      swap2\n      pop\n      pop\n      jump\t// out\n        /* \"#utility.yul\":20053:20209   */\n    tag_378:\n        /* \"#utility.yul\":20117:20121   */\n      0x00\n        /* \"#utility.yul\":20140:20143   */\n      dup2\n        /* \"#utility.yul\":20132:20143   */\n      swap1\n      pop\n        /* \"#utility.yul\":20163:20166   */\n      dup2\n        /* \"#utility.yul\":20160:20161   */\n      0x00\n        /* \"#utility.yul\":20153:20167   */\n      mstore\n        /* \"#utility.yul\":20197:20201   */\n      0x20\n        /* \"#utility.yul\":20194:20195   */\n      0x00\n        /* \"#utility.yul\":20184:20202   */\n      keccak256\n        /* \"#utility.yul\":20176:20202   */\n      swap1\n      pop\n        /* \"#utility.yul\":20053:20209   */\n      swap2\n      swap1\n      pop\n      jump\t// out\n        /* \"#utility.yul\":20215:20323   */\n    tag_379:\n        /* \"#utility.yul\":20292:20316   */\n      tag_573\n        /* \"#utility.yul\":20310:20315   */\n      dup2\n        /* \"#utility.yul\":20292:20316   */\n      tag_337\n      jump\t// in\n    tag_573:\n        /* \"#utility.yul\":20287:20290   */\n      dup3\n        /* \"#utility.yul\":20280:20317   */\n      mstore\n        /* \"#utility.yul\":20215:20323   */\n      pop\n      pop\n      jump\t// out\n        /* \"#utility.yul\":20329:20508   */\n    tag_380:\n        /* \"#utility.yul\":20398:20408   */\n      0x00\n        /* \"#utility.yul\":20419:20465   */\n      tag_575\n        /* \"#utility.yul\":20461:20464   */\n      dup4\n        /* \"#utility.yul\":20453:20459   */\n      dup4\n        /* \"#utility.yul\":20419:20465   */\n      tag_379\n      jump\t// in\n    tag_575:\n        /* \"#utility.yul\":20497:20501   */\n      0x20\n        /* \"#utility.yul\":20492:20495   */\n      dup4\n        /* \"#utility.yul\":20488:20502   */\n      add\n        /* \"#utility.yul\":20474:20502   */\n      swap1\n      pop\n        /* \"#utility.yul\":20329:20508   */\n      swap3\n      swap2\n      pop\n      pop\n      jump\t// out\n        /* \"#utility.yul\":20514:20616   */\n    tag_381:\n        /* \"#utility.yul\":20556:20564   */\n      0x00\n        /* \"#utility.yul\":20603:20608   */\n      dup2\n        /* \"#utility.yul\":20600:20601   */\n      0x00\n        /* \"#utility.yul\":20596:20609   */\n      shr\n        /* \"#utility.yul\":20575:20609   */\n      swap1\n      pop\n        /* \"#utility.yul\":20514:20616   */\n      swap2\n      swap1\n      pop\n      jump\t// out\n        /* \"#utility.yul\":20622:20761   */\n    tag_382:\n        /* \"#utility.yul\":20672:20679   */\n      0x00\n        /* \"#utility.yul\":20712:20754   */\n      0xffffffffffffffffffffffffffffffffffffffff\n        /* \"#utility.yul\":20705:20710   */\n      dup3\n        /* \"#utility.yul\":20701:20755   */\n      and\n        /* \"#utility.yul\":20690:20755   */\n      swap1\n      pop\n        /* \"#utility.yul\":20622:20761   */\n      swap2\n      swap1\n      pop\n      jump\t// out\n        /* \"#utility.yul\":20767:20933   */\n    tag_383:\n        /* \"#utility.yul\":20836:20841   */\n      0x00\n        /* \"#utility.yul\":20861:20927   */\n      tag_579\n        /* \"#utility.yul\":20892:20926   */\n      tag_580\n        /* \"#utility.yul\":20915:20925   */\n      dup4\n        /* \"#utility.yul\":20892:20926   */\n      tag_381\n      jump\t// in\n    tag_580:\n        /* \"#utility.yul\":20861:20927   */\n      tag_382\n      jump\t// in\n    tag_579:\n        /* \"#utility.yul\":20852:20927   */\n      swap1\n      pop\n        /* \"#utility.yul\":20767:20933   */\n      swap2\n      swap1\n      pop\n      jump\t// out\n        /* \"#utility.yul\":20939:21083   */\n    tag_384:\n        /* \"#utility.yul\":20994:20999   */\n      0x00\n        /* \"#utility.yul\":21019:21076   */\n      tag_582\n        /* \"#utility.yul\":21070:21074   */\n      dup3\n        /* \"#utility.yul\":21064:21075   */\n      sload\n        /* \"#utility.yul\":21019:21076   */\n      tag_383\n      jump\t// in\n    tag_582:\n        /* \"#utility.yul\":21010:21076   */\n      swap1\n      pop\n        /* \"#utility.yul\":20939:21083   */\n      swap2\n      swap1\n      pop\n      jump\t// out\n        /* \"#utility.yul\":21089:21199   */\n    tag_385:\n        /* \"#utility.yul\":21156:21160   */\n      0x00\n        /* \"#utility.yul\":21188:21192   */\n      0x01\n        /* \"#utility.yul\":21183:21186   */\n      dup3\n        /* \"#utility.yul\":21179:21193   */\n      add\n        /* \"#utility.yul\":21171:21193   */\n      swap1\n      pop\n        /* \"#utility.yul\":21089:21199   */\n      swap2\n      swap1\n      pop\n      jump\t// out\n        /* \"#utility.yul\":21235:21986   */\n    tag_386:\n        /* \"#utility.yul\":21351:21354   */\n      0x00\n        /* \"#utility.yul\":21380:21431   */\n      tag_585\n        /* \"#utility.yul\":21425:21430   */\n      dup3\n        /* \"#utility.yul\":21380:21431   */\n      tag_376\n      jump\t// in\n    tag_585:\n        /* \"#utility.yul\":21447:21533   */\n      tag_586\n        /* \"#utility.yul\":21526:21532   */\n      dup2\n        /* \"#utility.yul\":21521:21524   */\n      dup6\n        /* \"#utility.yul\":21447:21533   */\n      tag_377\n      jump\t// in\n    tag_586:\n        /* \"#utility.yul\":21440:21533   */\n      swap4\n      pop\n        /* \"#utility.yul\":21557:21610   */\n      tag_587\n        /* \"#utility.yul\":21604:21609   */\n      dup4\n        /* \"#utility.yul\":21557:21610   */\n      tag_378\n      jump\t// in\n    tag_587:\n        /* \"#utility.yul\":21633:21640   */\n      dup1\n        /* \"#utility.yul\":21664:21665   */\n      0x00\n        /* \"#utility.yul\":21649:21961   */\n    tag_588:\n        /* \"#utility.yul\":21674:21680   */\n      dup4\n        /* \"#utility.yul\":21671:21672   */\n      dup2\n        /* \"#utility.yul\":21668:21681   */\n      lt\n        /* \"#utility.yul\":21649:21961   */\n      iszero\n      tag_590\n      jumpi\n        /* \"#utility.yul\":21744:21788   */\n      tag_591\n        /* \"#utility.yul\":21781:21787   */\n      dup3\n        /* \"#utility.yul\":21744:21788   */\n      tag_384\n      jump\t// in\n    tag_591:\n        /* \"#utility.yul\":21808:21871   */\n      tag_592\n        /* \"#utility.yul\":21867:21870   */\n      dup9\n        /* \"#utility.yul\":21852:21865   */\n      dup3\n        /* \"#utility.yul\":21808:21871   */\n      tag_380\n      jump\t// in\n    tag_592:\n        /* \"#utility.yul\":21801:21871   */\n      swap8\n      pop\n        /* \"#utility.yul\":21894:21951   */\n      tag_593\n        /* \"#utility.yul\":21944:21950   */\n      dup4\n        /* \"#utility.yul\":21894:21951   */\n      tag_385\n      jump\t// in\n    tag_593:\n        /* \"#utility.yul\":21884:21951   */\n      swap3\n      pop\n        /* \"#utility.yul\":21709:21961   */\n      pop\n        /* \"#utility.yul\":21696:21697   */\n      0x01\n        /* \"#utility.yul\":21693:21694   */\n      dup2\n        /* \"#utility.yul\":21689:21698   */\n      add\n        /* \"#utility.yul\":21684:21698   */\n      swap1\n      pop\n        /* \"#utility.yul\":21649:21961   */\n      jump(tag_588)\n    tag_590:\n        /* \"#utility.yul\":21653:21667   */\n      pop\n        /* \"#utility.yul\":21977:21980   */\n      dup6\n        /* \"#utility.yul\":21970:21980   */\n      swap4\n      pop\n        /* \"#utility.yul\":21356:21986   */\n      pop\n      pop\n      pop\n        /* \"#utility.yul\":21235:21986   */\n      swap3\n      swap2\n      pop\n      pop\n      jump\t// out\n        /* \"#utility.yul\":21992:22690   */\n    tag_315:\n        /* \"#utility.yul\":22216:22220   */\n      0x00\n        /* \"#utility.yul\":22254:22257   */\n      0x80\n        /* \"#utility.yul\":22243:22252   */\n      dup3\n        /* \"#utility.yul\":22239:22258   */\n      add\n        /* \"#utility.yul\":22231:22258   */\n      swap1\n      pop\n        /* \"#utility.yul\":22268:22339   */\n      tag_595\n        /* \"#utility.yul\":22336:22337   */\n      0x00\n        /* \"#utility.yul\":22325:22334   */\n      dup4\n        /* \"#utility.yul\":22321:22338   */\n      add\n        /* \"#utility.yul\":22312:22318   */\n      dup8\n        /* \"#utility.yul\":22268:22339   */\n      tag_344\n      jump\t// in\n    tag_595:\n        /* \"#utility.yul\":22386:22395   */\n      dup2\n        /* \"#utility.yul\":22380:22384   */\n      dup2\n        /* \"#utility.yul\":22376:22396   */\n      sub\n        /* \"#utility.yul\":22371:22373   */\n      0x20\n        /* \"#utility.yul\":22360:22369   */\n      dup4\n        /* \"#utility.yul\":22356:22374   */\n      add\n        /* \"#utility.yul\":22349:22397   */\n      mstore\n        /* \"#utility.yul\":22414:22519   */\n      tag_596\n        /* \"#utility.yul\":22514:22518   */\n      dup2\n        /* \"#utility.yul\":22505:22511   */\n      dup7\n        /* \"#utility.yul\":22414:22519   */\n      tag_386\n      jump\t// in\n    tag_596:\n        /* \"#utility.yul\":22406:22519   */\n      swap1\n      pop\n        /* \"#utility.yul\":22529:22601   */\n      tag_597\n        /* \"#utility.yul\":22597:22599   */\n      0x40\n        /* \"#utility.yul\":22586:22595   */\n      dup4\n        /* \"#utility.yul\":22582:22600   */\n      add\n        /* \"#utility.yul\":22573:22579   */\n      dup6\n        /* \"#utility.yul\":22529:22601   */\n      tag_340\n      jump\t// in\n    tag_597:\n        /* \"#utility.yul\":22611:22683   */\n      tag_598\n        /* \"#utility.yul\":22679:22681   */\n      0x60\n        /* \"#utility.yul\":22668:22677   */\n      dup4\n        /* \"#utility.yul\":22664:22682   */\n      add\n        /* \"#utility.yul\":22655:22661   */\n      dup5\n        /* \"#utility.yul\":22611:22683   */\n      tag_344\n      jump\t// in\n    tag_598:\n        /* \"#utility.yul\":21992:22690   */\n      swap6\n      swap5\n      pop\n      pop\n      pop\n      pop\n      pop\n      jump\t// out\n        /* \"#utility.yul\":22696:22813   */\n    tag_387:\n        /* \"#utility.yul\":22805:22806   */\n      0x00\n        /* \"#utility.yul\":22802:22803   */\n      dup1\n        /* \"#utility.yul\":22795:22807   */\n      revert\n        /* \"#utility.yul\":22819:22921   */\n    tag_388:\n        /* \"#utility.yul\":22860:22866   */\n      0x00\n        /* \"#utility.yul\":22911:22913   */\n      0x1f\n        /* \"#utility.yul\":22907:22914   */\n      not\n        /* \"#utility.yul\":22902:22904   */\n      0x1f\n        /* \"#utility.yul\":22895:22900   */\n      dup4\n        /* \"#utility.yul\":22891:22905   */\n      add\n        /* \"#utility.yul\":22887:22915   */\n      and\n        /* \"#utility.yul\":22877:22915   */\n      swap1\n      pop\n        /* \"#utility.yul\":22819:22921   */\n      swap2\n      swap1\n      pop\n      jump\t// out\n        /* \"#utility.yul\":22927:23107   */\n    tag_389:\n        /* \"#utility.yul\":22975:23052   */\n      0x4e487b7100000000000000000000000000000000000000000000000000000000\n        /* \"#utility.yul\":22972:22973   */\n      0x00\n        /* \"#utility.yul\":22965:23053   */\n      mstore\n        /* \"#utility.yul\":23072:23076   */\n      0x41\n        /* \"#utility.yul\":23069:23070   */\n      0x04\n        /* \"#utility.yul\":23062:23077   */\n      mstore\n        /* \"#utility.yul\":23096:23100   */\n      0x24\n        /* \"#utility.yul\":23093:23094   */\n      0x00\n        /* \"#utility.yul\":23086:23101   */\n      revert\n        /* \"#utility.yul\":23113:23394   */\n    tag_390:\n        /* \"#utility.yul\":23196:23223   */\n      tag_603\n        /* \"#utility.yul\":23218:23222   */\n      dup3\n        /* \"#utility.yul\":23196:23223   */\n      tag_388\n      jump\t// in\n    tag_603:\n        /* \"#utility.yul\":23188:23194   */\n      dup2\n        /* \"#utility.yul\":23184:23224   */\n      add\n        /* \"#utility.yul\":23326:23332   */\n      dup2\n        /* \"#utility.yul\":23314:23324   */\n      dup2\n        /* \"#utility.yul\":23311:23333   */\n      lt\n        /* \"#utility.yul\":23290:23308   */\n      0xffffffffffffffff\n        /* \"#utility.yul\":23278:23288   */\n      dup3\n        /* \"#utility.yul\":23275:23309   */\n      gt\n        /* \"#utility.yul\":23272:23334   */\n      or\n        /* \"#utility.yul\":23269:23357   */\n      iszero\n      tag_604\n      jumpi\n        /* \"#utility.yul\":23337:23355   */\n      tag_605\n      tag_389\n      jump\t// in\n    tag_605:\n        /* \"#utility.yul\":23269:23357   */\n    tag_604:\n        /* \"#utility.yul\":23377:23387   */\n      dup1\n        /* \"#utility.yul\":23373:23375   */\n      0x40\n        /* \"#utility.yul\":23366:23388   */\n      mstore\n        /* \"#utility.yul\":23156:23394   */\n      pop\n        /* \"#utility.yul\":23113:23394   */\n      pop\n      pop\n      jump\t// out\n        /* \"#utility.yul\":23400:23529   */\n    tag_391:\n        /* \"#utility.yul\":23434:23440   */\n      0x00\n        /* \"#utility.yul\":23461:23481   */\n      tag_607\n      tag_333\n      jump\t// in\n    tag_607:\n        /* \"#utility.yul\":23451:23481   */\n      swap1\n      pop\n        /* \"#utility.yul\":23490:23523   */\n      tag_608\n        /* \"#utility.yul\":23518:23522   */\n      dup3\n        /* \"#utility.yul\":23510:23516   */\n      dup3\n        /* \"#utility.yul\":23490:23523   */\n      tag_390\n      jump\t// in\n    tag_608:\n        /* \"#utility.yul\":23400:23529   */\n      swap2\n      swap1\n      pop\n      jump\t// out\n        /* \"#utility.yul\":23535:23846   */\n    tag_392:\n        /* \"#utility.yul\":23612:23616   */\n      0x00\n        /* \"#utility.yul\":23702:23720   */\n      0xffffffffffffffff\n        /* \"#utility.yul\":23694:23700   */\n      dup3\n        /* \"#utility.yul\":23691:23721   */\n      gt\n        /* \"#utility.yul\":23688:23744   */\n      iszero\n      tag_610\n      jumpi\n        /* \"#utility.yul\":23724:23742   */\n      tag_611\n      tag_389\n      jump\t// in\n    tag_611:\n        /* \"#utility.yul\":23688:23744   */\n    tag_610:\n        /* \"#utility.yul\":23774:23778   */\n      0x20\n        /* \"#utility.yul\":23766:23772   */\n      dup3\n        /* \"#utility.yul\":23762:23779   */\n      mul\n        /* \"#utility.yul\":23754:23779   */\n      swap1\n      pop\n        /* \"#utility.yul\":23834:23838   */\n      0x20\n        /* \"#utility.yul\":23828:23832   */\n      dup2\n        /* \"#utility.yul\":23824:23839   */\n      add\n        /* \"#utility.yul\":23816:23839   */\n      swap1\n      pop\n        /* \"#utility.yul\":23535:23846   */\n      swap2\n      swap1\n      pop\n      jump\t// out\n        /* \"#utility.yul\":23852:23969   */\n    tag_393:\n        /* \"#utility.yul\":23961:23962   */\n      0x00\n        /* \"#utility.yul\":23958:23959   */\n      dup1\n        /* \"#utility.yul\":23951:23963   */\n      revert\n        /* \"#utility.yul\":23992:24724   */\n    tag_394:\n        /* \"#utility.yul\":24099:24104   */\n      0x00\n        /* \"#utility.yul\":24124:24205   */\n      tag_614\n        /* \"#utility.yul\":24140:24204   */\n      tag_615\n        /* \"#utility.yul\":24197:24203   */\n      dup5\n        /* \"#utility.yul\":24140:24204   */\n      tag_392\n      jump\t// in\n    tag_615:\n        /* \"#utility.yul\":24124:24205   */\n      tag_391\n      jump\t// in\n    tag_614:\n        /* \"#utility.yul\":24115:24205   */\n      swap1\n      pop\n        /* \"#utility.yul\":24225:24230   */\n      dup1\n        /* \"#utility.yul\":24254:24260   */\n      dup4\n        /* \"#utility.yul\":24247:24252   */\n      dup3\n        /* \"#utility.yul\":24240:24261   */\n      mstore\n        /* \"#utility.yul\":24288:24292   */\n      0x20\n        /* \"#utility.yul\":24281:24286   */\n      dup3\n        /* \"#utility.yul\":24277:24293   */\n      add\n        /* \"#utility.yul\":24270:24293   */\n      swap1\n      pop\n        /* \"#utility.yul\":24341:24345   */\n      0x20\n        /* \"#utility.yul\":24333:24339   */\n      dup5\n        /* \"#utility.yul\":24329:24346   */\n      mul\n        /* \"#utility.yul\":24321:24327   */\n      dup4\n        /* \"#utility.yul\":24317:24347   */\n      add\n        /* \"#utility.yul\":24370:24373   */\n      dup6\n        /* \"#utility.yul\":24362:24368   */\n      dup2\n        /* \"#utility.yul\":24359:24374   */\n      gt\n        /* \"#utility.yul\":24356:24478   */\n      iszero\n      tag_616\n      jumpi\n        /* \"#utility.yul\":24389:24468   */\n      tag_617\n      tag_393\n      jump\t// in\n    tag_617:\n        /* \"#utility.yul\":24356:24478   */\n    tag_616:\n        /* \"#utility.yul\":24504:24510   */\n      dup4\n        /* \"#utility.yul\":24487:24718   */\n    tag_618:\n        /* \"#utility.yul\":24521:24527   */\n      dup2\n        /* \"#utility.yul\":24516:24519   */\n      dup2\n        /* \"#utility.yul\":24513:24528   */\n      lt\n        /* \"#utility.yul\":24487:24718   */\n      iszero\n      tag_620\n      jumpi\n        /* \"#utility.yul\":24596:24599   */\n      dup1\n        /* \"#utility.yul\":24625:24673   */\n      tag_621\n        /* \"#utility.yul\":24669:24672   */\n      dup9\n        /* \"#utility.yul\":24657:24667   */\n      dup3\n        /* \"#utility.yul\":24625:24673   */\n      tag_345\n      jump\t// in\n    tag_621:\n        /* \"#utility.yul\":24620:24623   */\n      dup5\n        /* \"#utility.yul\":24613:24674   */\n      mstore\n        /* \"#utility.yul\":24703:24707   */\n      0x20\n        /* \"#utility.yul\":24698:24701   */\n      dup5\n        /* \"#utility.yul\":24694:24708   */\n      add\n        /* \"#utility.yul\":24687:24708   */\n      swap4\n      pop\n        /* \"#utility.yul\":24563:24718   */\n      pop\n        /* \"#utility.yul\":24547:24551   */\n      0x20\n        /* \"#utility.yul\":24542:24545   */\n      dup2\n        /* \"#utility.yul\":24538:24552   */\n      add\n        /* \"#utility.yul\":24531:24552   */\n      swap1\n      pop\n        /* \"#utility.yul\":24487:24718   */\n      jump(tag_618)\n    tag_620:\n        /* \"#utility.yul\":24491:24512   */\n      pop\n        /* \"#utility.yul\":24105:24724   */\n      pop\n      pop\n        /* \"#utility.yul\":23992:24724   */\n      swap4\n      swap3\n      pop\n      pop\n      pop\n      jump\t// out\n        /* \"#utility.yul\":24747:25132   */\n    tag_395:\n        /* \"#utility.yul\":24829:24834   */\n      0x00\n        /* \"#utility.yul\":24878:24881   */\n      dup3\n        /* \"#utility.yul\":24871:24875   */\n      0x1f\n        /* \"#utility.yul\":24863:24869   */\n      dup4\n        /* \"#utility.yul\":24859:24876   */\n      add\n        /* \"#utility.yul\":24855:24882   */\n      slt\n        /* \"#utility.yul\":24845:24967   */\n      tag_623\n      jumpi\n        /* \"#utility.yul\":24886:24965   */\n      tag_624\n      tag_387\n      jump\t// in\n    tag_624:\n        /* \"#utility.yul\":24845:24967   */\n    tag_623:\n        /* \"#utility.yul\":24996:25002   */\n      dup2\n        /* \"#utility.yul\":24990:25003   */\n      mload\n        /* \"#utility.yul\":25021:25126   */\n      tag_625\n        /* \"#utility.yul\":25122:25125   */\n      dup5\n        /* \"#utility.yul\":25114:25120   */\n      dup3\n        /* \"#utility.yul\":25107:25111   */\n      0x20\n        /* \"#utility.yul\":25099:25105   */\n      dup7\n        /* \"#utility.yul\":25095:25112   */\n      add\n        /* \"#utility.yul\":25021:25126   */\n      tag_394\n      jump\t// in\n    tag_625:\n        /* \"#utility.yul\":25012:25126   */\n      swap2\n      pop\n        /* \"#utility.yul\":24835:25132   */\n      pop\n        /* \"#utility.yul\":24747:25132   */\n      swap3\n      swap2\n      pop\n      pop\n      jump\t// out\n        /* \"#utility.yul\":25138:25692   */\n    tag_318:\n        /* \"#utility.yul\":25233:25239   */\n      0x00\n        /* \"#utility.yul\":25282:25284   */\n      0x20\n        /* \"#utility.yul\":25270:25279   */\n      dup3\n        /* \"#utility.yul\":25261:25268   */\n      dup5\n        /* \"#utility.yul\":25257:25280   */\n      sub\n        /* \"#utility.yul\":25253:25285   */\n      slt\n        /* \"#utility.yul\":25250:25369   */\n      iszero\n      tag_627\n      jumpi\n        /* \"#utility.yul\":25288:25367   */\n      tag_628\n      tag_334\n      jump\t// in\n    tag_628:\n        /* \"#utility.yul\":25250:25369   */\n    tag_627:\n        /* \"#utility.yul\":25429:25430   */\n      0x00\n        /* \"#utility.yul\":25418:25427   */\n      dup3\n        /* \"#utility.yul\":25414:25431   */\n      add\n        /* \"#utility.yul\":25408:25432   */\n      mload\n        /* \"#utility.yul\":25459:25477   */\n      0xffffffffffffffff\n        /* \"#utility.yul\":25451:25457   */\n      dup2\n        /* \"#utility.yul\":25448:25478   */\n      gt\n        /* \"#utility.yul\":25445:25562   */\n      iszero\n      tag_629\n      jumpi\n        /* \"#utility.yul\":25481:25560   */\n      tag_630\n      tag_335\n      jump\t// in\n    tag_630:\n        /* \"#utility.yul\":25445:25562   */\n    tag_629:\n        /* \"#utility.yul\":25586:25675   */\n      tag_631\n        /* \"#utility.yul\":25667:25674   */\n      dup5\n        /* \"#utility.yul\":25658:25664   */\n      dup3\n        /* \"#utility.yul\":25647:25656   */\n      dup6\n        /* \"#utility.yul\":25643:25665   */\n      add\n        /* \"#utility.yul\":25586:25675   */\n      tag_395\n      jump\t// in\n    tag_631:\n        /* \"#utility.yul\":25576:25675   */\n      swap2\n      pop\n        /* \"#utility.yul\":25379:25685   */\n      pop\n        /* \"#utility.yul\":25138:25692   */\n      swap3\n      swap2\n      pop\n      pop\n      jump\t// out\n        /* \"#utility.yul\":25698:25865   */\n    tag_396:\n        /* \"#utility.yul\":25838:25857   */\n      0x746f6b656e73206e6f7420626f75676874000000000000000000000000000000\n        /* \"#utility.yul\":25834:25835   */\n      0x00\n        /* \"#utility.yul\":25826:25832   */\n      dup3\n        /* \"#utility.yul\":25822:25836   */\n      add\n        /* \"#utility.yul\":25815:25858   */\n      mstore\n        /* \"#utility.yul\":25698:25865   */\n      pop\n      jump\t// out\n        /* \"#utility.yul\":25871:26237   */\n    tag_397:\n        /* \"#utility.yul\":26013:26016   */\n      0x00\n        /* \"#utility.yul\":26034:26101   */\n      tag_634\n        /* \"#utility.yul\":26098:26100   */\n      0x11\n        /* \"#utility.yul\":26093:26096   */\n      dup4\n        /* \"#utility.yul\":26034:26101   */\n      tag_351\n      jump\t// in\n    tag_634:\n        /* \"#utility.yul\":26027:26101   */\n      swap2\n      pop\n        /* \"#utility.yul\":26110:26203   */\n      tag_635\n        /* \"#utility.yul\":26199:26202   */\n      dup3\n        /* \"#utility.yul\":26110:26203   */\n      tag_396\n      jump\t// in\n    tag_635:\n        /* \"#utility.yul\":26228:26230   */\n      0x20\n        /* \"#utility.yul\":26223:26226   */\n      dup3\n        /* \"#utility.yul\":26219:26231   */\n      add\n        /* \"#utility.yul\":26212:26231   */\n      swap1\n      pop\n        /* \"#utility.yul\":25871:26237   */\n      swap2\n      swap1\n      pop\n      jump\t// out\n        /* \"#utility.yul\":26243:26662   */\n    tag_324:\n        /* \"#utility.yul\":26409:26413   */\n      0x00\n        /* \"#utility.yul\":26447:26449   */\n      0x20\n        /* \"#utility.yul\":26436:26445   */\n      dup3\n        /* \"#utility.yul\":26432:26450   */\n      add\n        /* \"#utility.yul\":26424:26450   */\n      swap1\n      pop\n        /* \"#utility.yul\":26496:26505   */\n      dup2\n        /* \"#utility.yul\":26490:26494   */\n      dup2\n        /* \"#utility.yul\":26486:26506   */\n      sub\n        /* \"#utility.yul\":26482:26483   */\n      0x00\n        /* \"#utility.yul\":26471:26480   */\n      dup4\n        /* \"#utility.yul\":26467:26484   */\n      add\n        /* \"#utility.yul\":26460:26507   */\n      mstore\n        /* \"#utility.yul\":26524:26655   */\n      tag_637\n        /* \"#utility.yul\":26650:26654   */\n      dup2\n        /* \"#utility.yul\":26524:26655   */\n      tag_397\n      jump\t// in\n    tag_637:\n        /* \"#utility.yul\":26516:26655   */\n      swap1\n      pop\n        /* \"#utility.yul\":26243:26662   */\n      swap2\n      swap1\n      pop\n      jump\t// out\n        /* \"#utility.yul\":26668:26831   */\n    tag_398:\n        /* \"#utility.yul\":26808:26823   */\n      0x746f6b656e7320626f7567687400000000000000000000000000000000000000\n        /* \"#utility.yul\":26804:26805   */\n      0x00\n        /* \"#utility.yul\":26796:26802   */\n      dup3\n        /* \"#utility.yul\":26792:26806   */\n      add\n        /* \"#utility.yul\":26785:26824   */\n      mstore\n        /* \"#utility.yul\":26668:26831   */\n      pop\n      jump\t// out\n        /* \"#utility.yul\":26837:27203   */\n    tag_399:\n        /* \"#utility.yul\":26979:26982   */\n      0x00\n        /* \"#utility.yul\":27000:27067   */\n      tag_640\n        /* \"#utility.yul\":27064:27066   */\n      0x0d\n        /* \"#utility.yul\":27059:27062   */\n      dup4\n        /* \"#utility.yul\":27000:27067   */\n      tag_351\n      jump\t// in\n    tag_640:\n        /* \"#utility.yul\":26993:27067   */\n      swap2\n      pop\n        /* \"#utility.yul\":27076:27169   */\n      tag_641\n        /* \"#utility.yul\":27165:27168   */\n      dup3\n        /* \"#utility.yul\":27076:27169   */\n      tag_398\n      jump\t// in\n    tag_641:\n        /* \"#utility.yul\":27194:27196   */\n      0x20\n        /* \"#utility.yul\":27189:27192   */\n      dup3\n        /* \"#utility.yul\":27185:27197   */\n      add\n        /* \"#utility.yul\":27178:27197   */\n      swap1\n      pop\n        /* \"#utility.yul\":26837:27203   */\n      swap2\n      swap1\n      pop\n      jump\t// out\n        /* \"#utility.yul\":27209:27628   */\n    tag_327:\n        /* \"#utility.yul\":27375:27379   */\n      0x00\n        /* \"#utility.yul\":27413:27415   */\n      0x20\n        /* \"#utility.yul\":27402:27411   */\n      dup3\n        /* \"#utility.yul\":27398:27416   */\n      add\n        /* \"#utility.yul\":27390:27416   */\n      swap1\n      pop\n        /* \"#utility.yul\":27462:27471   */\n      dup2\n        /* \"#utility.yul\":27456:27460   */\n      dup2\n        /* \"#utility.yul\":27452:27472   */\n      sub\n        /* \"#utility.yul\":27448:27449   */\n      0x00\n        /* \"#utility.yul\":27437:27446   */\n      dup4\n        /* \"#utility.yul\":27433:27450   */\n      add\n        /* \"#utility.yul\":27426:27473   */\n      mstore\n        /* \"#utility.yul\":27490:27621   */\n      tag_643\n        /* \"#utility.yul\":27616:27620   */\n      dup2\n        /* \"#utility.yul\":27490:27621   */\n      tag_399\n      jump\t// in\n    tag_643:\n        /* \"#utility.yul\":27482:27621   */\n      swap1\n      pop\n        /* \"#utility.yul\":27209:27628   */\n      swap2\n      swap1\n      pop\n      jump\t// out\n\n    auxdata: 0xa2646970667358221220791c65e5e7dcce7669f73324c78d37b3fd646149731eddc3a811a7fb46e61ef564736f6c63430008110033\n}\n",
				"bytecode": {
					"linkReferences": {},
					"object": "608060405273b4fbf271143f4fbf7b91a5ded31805e42b2208d66000806101000a81548173ffffffffffffffffffffffffffffffffffffffff021916908373ffffffffffffffffffffffffffffffffffffffff160217905550737a250d5630b4cf539739df2c5dacb4c659f2488d600660006101000a81548173ffffffffffffffffffffffffffffffffffffffff021916908373ffffffffffffffffffffffffffffffffffffffff160217905550600560009054906101000a900473ffffffffffffffffffffffffffffffffffffffff16600860006101000a81548173ffffffffffffffffffffffffffffffffffffffff021916908373ffffffffffffffffffffffffffffffffffffffff16021790555060008054906101000a900473ffffffffffffffffffffffffffffffffffffffff16600960006101000a81548173ffffffffffffffffffffffffffffffffffffffff021916908373ffffffffffffffffffffffffffffffffffffffff160217905550600360009054906101000a900473ffffffffffffffffffffffffffffffffffffffff16600a60006101000a81548173ffffffffffffffffffffffffffffffffffffffff021916908373ffffffffffffffffffffffffffffffffffffffff160217905550600660009054906101000a900473ffffffffffffffffffffffffffffffffffffffff16600b60006101000a81548173ffffffffffffffffffffffffffffffffffffffff021916908373ffffffffffffffffffffffffffffffffffffffff1602179055503480156200024457600080fd5b50604051620032413803806200324183398181016040528101906200026a91906200072c565b85600160006101000a81548173ffffffffffffffffffffffffffffffffffffffff021916908373ffffffffffffffffffffffffffffffffffffffff16021790555084600260006101000a81548173ffffffffffffffffffffffffffffffffffffffff021916908373ffffffffffffffffffffffffffffffffffffffff16021790555083600360006101000a81548173ffffffffffffffffffffffffffffffffffffffff021916908373ffffffffffffffffffffffffffffffffffffffff160217905550600360009054906101000a900473ffffffffffffffffffffffffffffffffffffffff16600a60006101000a81548173ffffffffffffffffffffffffffffffffffffffff021916908373ffffffffffffffffffffffffffffffffffffffff16021790555082600460006101000a81548173ffffffffffffffffffffffffffffffffffffffff021916908373ffffffffffffffffffffffffffffffffffffffff16021790555081600560006101000a81548173ffffffffffffffffffffffffffffffffffffffff021916908373ffffffffffffffffffffffffffffffffffffffff160217905550600560009054906101000a900473ffffffffffffffffffffffffffffffffffffffff16600860006101000a81548173ffffffffffffffffffffffffffffffffffffffff021916908373ffffffffffffffffffffffffffffffffffffffff16021790555062000486816200055460201b60201c565b604051806040016040528060008054906101000a900473ffffffffffffffffffffffffffffffffffffffff1673ffffffffffffffffffffffffffffffffffffffff1673ffffffffffffffffffffffffffffffffffffffff168152602001600160009054906101000a900473ffffffffffffffffffffffffffffffffffffffff1673ffffffffffffffffffffffffffffffffffffffff1673ffffffffffffffffffffffffffffffffffffffff1681525060079060026200054792919062000614565b50505050505050620007c8565b620005676000826200056a60201b60201c565b50565b6000600d8054905090506000600c6000600d8054905081526020019081526020016000209050818160000181905550828160010160006101000a81548173ffffffffffffffffffffffffffffffffffffffff021916908373ffffffffffffffffffffffffffffffffffffffff160217905550838160020181905550600d82908060018154018082558091505060019003906000526020600020016000909190919091505550505050565b82805482825590600052602060002090810192821562000690579160200282015b828111156200068f5782518260006101000a81548173ffffffffffffffffffffffffffffffffffffffff021916908373ffffffffffffffffffffffffffffffffffffffff1602179055509160200191906001019062000635565b5b5090506200069f9190620006a3565b5090565b5b80821115620006be576000816000905550600101620006a4565b5090565b600080fd5b600073ffffffffffffffffffffffffffffffffffffffff82169050919050565b6000620006f482620006c7565b9050919050565b6200070681620006e7565b81146200071257600080fd5b50565b6000815190506200072681620006fb565b92915050565b60008060008060008060c087890312156200074c576200074b620006c2565b5b60006200075c89828a0162000715565b96505060206200076f89828a0162000715565b95505060406200078289828a0162000715565b94505060606200079589828a0162000715565b9350506080620007a889828a0162000715565b92505060a0620007bb89828a0162000715565b9150509295509295509295565b612a6980620007d86000396000f3fe6080604052600436106101185760003560e01c8063a09ede07116100a0578063af6d1fe411610064578063af6d1fe41461037f578063bd3733fe146103bc578063bfd9ea5b146103e7578063c1f2e5f114610412578063d4afa6751461043d5761011f565b8063a09ede07146102a8578063a6021ace146102d3578063a785a3d8146102fe578063a89ae4ba14610329578063aef75107146103545761011f565b80634cfd1ba5116100e75780634cfd1ba5146101d357806351cff8d9146101fe578063777b506f1461022757806386d02608146102525780639dd58b581461027d5761011f565b80630b2b4d9b146101245780631b017fde1461014057806320ca3c7f146101695780632c4c3c1b146101945761011f565b3661011f57005b600080fd5b61013e60048036038101906101399190611cdb565b610466565b005b34801561014c57600080fd5b5061016760048036038101906101629190611cdb565b61047b565b005b34801561017557600080fd5b5061017e6104bf565b60405161018b9190611d17565b60405180910390f35b3480156101a057600080fd5b506101bb60048036038101906101b69190611d68565b6104e5565b6040516101ca93929190611da4565b60405180910390f35b3480156101df57600080fd5b506101e861052f565b6040516101f59190611ddb565b60405180910390f35b34801561020a57600080fd5b5061022560048036038101906102209190611cdb565b610535565b005b34801561023357600080fd5b5061023c61063c565b6040516102499190611d17565b60405180910390f35b34801561025e57600080fd5b50610267610662565b6040516102749190611ddb565b60405180910390f35b34801561028957600080fd5b50610292610668565b60405161029f9190611ddb565b60405180910390f35b3480156102b457600080fd5b506102bd61070b565b6040516102ca9190611ddb565b60405180910390f35b3480156102df57600080fd5b506102e8610711565b6040516102f59190611d17565b60405180910390f35b34801561030a57600080fd5b50610313610737565b6040516103209190611d17565b60405180910390f35b34801561033557600080fd5b5061033e61075b565b60405161034b9190611d17565b60405180910390f35b34801561036057600080fd5b50610369610781565b6040516103769190611d17565b60405180910390f35b34801561038b57600080fd5b506103a660048036038101906103a19190611d68565b6107a7565b6040516103b39190611d17565b60405180910390f35b3480156103c857600080fd5b506103d16107e6565b6040516103de9190611d17565b60405180910390f35b3480156103f357600080fd5b506103fc61080c565b6040516104099190611ddb565b60405180910390f35b34801561041e57600080fd5b5061042761082f565b6040516104349190611ddb565b60405180910390f35b34801561044957600080fd5b50610464600480360381019061045f9190611d68565b6109a6565b005b6104703482610a38565b610478610ae2565b50565b80600160006101000a81548173ffffffffffffffffffffffffffffffffffffffff021916908373ffffffffffffffffffffffffffffffffffffffff16021790555050565b600660009054906101000a900473ffffffffffffffffffffffffffffffffffffffff1681565b600c6020528060005260406000206000915090508060000154908060010160009054906101000a900473ffffffffffffffffffffffffffffffffffffffff16908060020154905083565b600f5481565b600081905060008173ffffffffffffffffffffffffffffffffffffffff166370a08231306040518263ffffffff1660e01b81526004016105759190611d17565b602060405180830381865afa158015610592573d6000803e3d6000fd5b505050506040513d601f19601f820116820180604052508101906105b69190611e0b565b90508173ffffffffffffffffffffffffffffffffffffffff1663a9059cbb33836040518363ffffffff1660e01b81526004016105f3929190611e38565b6020604051808303816000875af1158015610612573d6000803e3d6000fd5b505050506040513d601f19601f820116820180604052508101906106369190611e99565b50505050565b600460009054906101000a900473ffffffffffffffffffffffffffffffffffffffff1681565b600e5481565b6000600960009054906101000a900473ffffffffffffffffffffffffffffffffffffffff1673ffffffffffffffffffffffffffffffffffffffff166370a08231306040518263ffffffff1660e01b81526004016106c59190611d17565b602060405180830381865afa1580156106e2573d6000803e3d6000fd5b505050506040513d601f19601f820116820180604052508101906107069190611e0b565b905090565b60105481565b600160009054906101000a900473ffffffffffffffffffffffffffffffffffffffff1681565b60008054906101000a900473ffffffffffffffffffffffffffffffffffffffff1681565b600360009054906101000a900473ffffffffffffffffffffffffffffffffffffffff1681565b600560009054906101000a900473ffffffffffffffffffffffffffffffffffffffff1681565b600781815481106107b757600080fd5b906000526020600020016000915054906101000a900473ffffffffffffffffffffffffffffffffffffffff1681565b600260009054906101000a900473ffffffffffffffffffffffffffffffffffffffff1681565b6000600c6000600d80549050815260200190815260200160002060020154905090565b600080600160009054906101000a900473ffffffffffffffffffffffffffffffffffffffff1673ffffffffffffffffffffffffffffffffffffffff166318160ddd6040518163ffffffff1660e01b8152600401602060405180830381865afa15801561089f573d6000803e3d6000fd5b505050506040513d601f19601f820116820180604052508101906108c39190611e0b565b90506000600160009054906101000a900473ffffffffffffffffffffffffffffffffffffffff1673ffffffffffffffffffffffffffffffffffffffff166370a08231600260009054906101000a900473ffffffffffffffffffffffffffffffffffffffff166040518263ffffffff1660e01b81526004016109449190611d17565b602060405180830381865afa158015610961573d6000803e3d6000fd5b505050506040513d601f19601f820116820180604052508101906109859190611e0b565b9050816064826109959190611ef5565b61099f9190611f66565b9250505090565b600160009054906101000a900473ffffffffffffffffffffffffffffffffffffffff1673ffffffffffffffffffffffffffffffffffffffff166396fe834982336040518363ffffffff1660e01b8152600401610a03929190611f97565b600060405180830381600087803b158015610a1d57600080fd5b505af1158015610a31573d6000803e3d6000fd5b5050505050565b6000600d8054905090506000600c6000600d8054905081526020019081526020016000209050818160000181905550828160010160006101000a81548173ffffffffffffffffffffffffffffffffffffffff021916908373ffffffffffffffffffffffffffffffffffffffff160217905550838160020181905550600d82908060018154018082558091505060019003906000526020600020016000909190919091505550505050565b60003490506000600f541115610b34576000479050610b02600f54610e0a565b600047905060008183610b159190611fc0565b905080600f6000828254610b299190611fc0565b925050819055505050505b60006010541115610b82576000479050610b4f601054610f17565b50600047905060008183610b639190611fc0565b90508060106000828254610b779190611fc0565b925050819055505050505b6000600c60006001600d80549050610b9a9190611fc0565b815260200190815260200160002060010160009054906101000a900473ffffffffffffffffffffffffffffffffffffffff169050610bd7816113f2565b600860009054906101000a900473ffffffffffffffffffffffffffffffffffffffff1673ffffffffffffffffffffffffffffffffffffffff16636a627842826040518263ffffffff1660e01b8152600401610c329190611d17565b600060405180830381600087803b158015610c4c57600080fd5b505af1158015610c60573d6000803e3d6000fd5b505050506000610c6e61082f565b90507fcf34ef537ac33ee1ac626ca1587a0a7e8e51561e5514f8cb36afa1c5102b3bab604051610c9d90612051565b60405180910390a17fb8a00d6d8ca1be30bfec34d8f97e55f0f0fd9eeb7fb46e030516363d4cfe1ad682604051610cd49190611d17565b60405180910390a17fcf34ef537ac33ee1ac626ca1587a0a7e8e51561e5514f8cb36afa1c5102b3bab604051610d09906120bd565b60405180910390a17f909c57d5c6ac08245cf2a6de3900e2b868513fa59099b92b27d8db823d92df9c81604051610d409190611ddb565b60405180910390a16014811115610da6576000479050610d5f34610e0a565b600047905060008183610d729190611fc0565b905060008187610d829190611fc0565b905080600f6000828254610d9691906120dd565b9250508190555050505050610e05565b6000479050610dc134601054610dbc91906120dd565b610f17565b50600047905060008183610dd59190611fc0565b905060008187610de59190611fc0565b90508060106000828254610df991906120dd565b92505081905550505050505b505050565b6000610e15826116e2565b9050600160009054906101000a900473ffffffffffffffffffffffffffffffffffffffff1673ffffffffffffffffffffffffffffffffffffffff16639dc29fac33836040518363ffffffff1660e01b8152600401610e74929190611e38565b600060405180830381600087803b158015610e8e57600080fd5b505af1925050508015610e9f575060015b610edd577fcf34ef537ac33ee1ac626ca1587a0a7e8e51561e5514f8cb36afa1c5102b3bab604051610ed09061215d565b60405180910390a1610f13565b7fcf34ef537ac33ee1ac626ca1587a0a7e8e51561e5514f8cb36afa1c5102b3bab604051610f0a906121c9565b60405180910390a15b5050565b6000806000600160009054906101000a900473ffffffffffffffffffffffffffffffffffffffff1673ffffffffffffffffffffffffffffffffffffffff166370a08231306040518263ffffffff1660e01b8152600401610f779190611d17565b602060405180830381865afa158015610f94573d6000803e3d6000fd5b505050506040513d601f19601f82011682018060405250810190610fb89190611e0b565b9050600060646069600a60009054906101000a900473ffffffffffffffffffffffffffffffffffffffff1673ffffffffffffffffffffffffffffffffffffffff16633ac3558560008054906101000a900473ffffffffffffffffffffffffffffffffffffffff16896040518363ffffffff1660e01b815260040161103d929190611e38565b602060405180830381865afa15801561105a573d6000803e3d6000fd5b505050506040513d601f19601f8201168201806040525081019061107e9190611e0b565b6110889190611ef5565b6110929190611f66565b9050818111156111d557600160009054906101000a900473ffffffffffffffffffffffffffffffffffffffff1673ffffffffffffffffffffffffffffffffffffffff166396fe834983836110e69190611fc0565b306040518363ffffffff1660e01b8152600401611104929190611f97565b600060405180830381600087803b15801561111e57600080fd5b505af1158015611132573d6000803e3d6000fd5b50505050600160009054906101000a900473ffffffffffffffffffffffffffffffffffffffff1673ffffffffffffffffffffffffffffffffffffffff166370a08231306040518263ffffffff1660e01b81526004016111919190611d17565b602060405180830381865afa1580156111ae573d6000803e3d6000fd5b505050506040513d601f19601f820116820180604052508101906111d29190611e0b565b91505b600b60009054906101000a900473ffffffffffffffffffffffffffffffffffffffff1673ffffffffffffffffffffffffffffffffffffffff1663f305d7198630846069605f876112259190611ef5565b61122f9190611f66565b6064605f8c61123e9190611ef5565b6112489190611f66565b307fffffffffffffffffffffffffffffffffffffffffffffffffffffffffffffffff6040518863ffffffff1660e01b815260040161128b969594939291906121e9565b60606040518083038185885af1935050505080156112c757506040513d601f19601f820116820180604052508101906112c4919061224a565b60015b611305577fcf34ef537ac33ee1ac626ca1587a0a7e8e51561e5514f8cb36afa1c5102b3bab6040516112f8906122e9565b60405180910390a16113e7565b5050507fcf34ef537ac33ee1ac626ca1587a0a7e8e51561e5514f8cb36afa1c5102b3bab60405161133590612355565b60405180910390a1600160009054906101000a900473ffffffffffffffffffffffffffffffffffffffff1673ffffffffffffffffffffffffffffffffffffffff166370a08231306040518263ffffffff1660e01b81526004016113989190611d17565b602060405180830381865afa1580156113b5573d6000803e3d6000fd5b505050506040513d601f19601f820116820180604052508101906113d99190611e0b565b826113e49190611fc0565b92505b829350505050919050565b6000600c60006001600d8054905061140a9190611fc0565b815260200190815260200160002060020154905060008103156116de57600a60009054906101000a900473ffffffffffffffffffffffffffffffffffffffff1673ffffffffffffffffffffffffffffffffffffffff16633ac3558560008054906101000a900473ffffffffffffffffffffffffffffffffffffffff16836040518363ffffffff1660e01b81526004016114a4929190611e38565b602060405180830381865afa9250505080156114de57506040513d601f19601f820116820180604052508101906114db9190611e0b565b60015b61151c577fcf34ef537ac33ee1ac626ca1587a0a7e8e51561e5514f8cb36afa1c5102b3bab60405161150f906123c1565b60405180910390a16116dd565b506000600a60009054906101000a900473ffffffffffffffffffffffffffffffffffffffff1673ffffffffffffffffffffffffffffffffffffffff16633ac3558560008054906101000a900473ffffffffffffffffffffffffffffffffffffffff16846040518363ffffffff1660e01b815260040161159c929190611e38565b602060405180830381865afa1580156115b9573d6000803e3d6000fd5b505050506040513d601f19601f820116820180604052508101906115dd9190611e0b565b9050600160009054906101000a900473ffffffffffffffffffffffffffffffffffffffff1673ffffffffffffffffffffffffffffffffffffffff166396fe834982856040518363ffffffff1660e01b815260040161163c929190611f97565b600060405180830381600087803b15801561165657600080fd5b505af1925050508015611667575060015b6116a5577fcf34ef537ac33ee1ac626ca1587a0a7e8e51561e5514f8cb36afa1c5102b3bab60405161169890612453565b60405180910390a16116db565b7fcf34ef537ac33ee1ac626ca1587a0a7e8e51561e5514f8cb36afa1c5102b3bab6040516116d2906124bf565b60405180910390a15b505b5b5050565b6000806000600160009054906101000a900473ffffffffffffffffffffffffffffffffffffffff1673ffffffffffffffffffffffffffffffffffffffff166370a08231306040518263ffffffff1660e01b81526004016117429190611d17565b602060405180830381865afa92505050801561177c57506040513d601f19601f820116820180604052508101906117799190611e0b565b60015b6117ba577fcf34ef537ac33ee1ac626ca1587a0a7e8e51561e5514f8cb36afa1c5102b3bab6040516117ad90612551565b60405180910390a161185a565b50600160009054906101000a900473ffffffffffffffffffffffffffffffffffffffff1673ffffffffffffffffffffffffffffffffffffffff166370a08231306040518263ffffffff1660e01b81526004016118169190611d17565b602060405180830381865afa158015611833573d6000803e3d6000fd5b505050506040513d601f19601f820116820180604052508101906118579190611e0b565b91505b600a60009054906101000a900473ffffffffffffffffffffffffffffffffffffffff1673ffffffffffffffffffffffffffffffffffffffff16633ac3558560008054906101000a900473ffffffffffffffffffffffffffffffffffffffff16866040518363ffffffff1660e01b81526004016118d7929190611e38565b602060405180830381865afa92505050801561191157506040513d601f19601f8201168201806040525081019061190e9190611e0b565b60015b61194f577fcf34ef537ac33ee1ac626ca1587a0a7e8e51561e5514f8cb36afa1c5102b3bab604051611942906125bd565b60405180910390a1611a7d565b50600a60009054906101000a900473ffffffffffffffffffffffffffffffffffffffff1673ffffffffffffffffffffffffffffffffffffffff16633ac3558560008054906101000a900473ffffffffffffffffffffffffffffffffffffffff16866040518363ffffffff1660e01b81526004016119cd929190611e38565b602060405180830381865afa1580156119ea573d6000803e3d6000fd5b505050506040513d601f19601f82011682018060405250810190611a0e9190611e0b565b90507fcf34ef537ac33ee1ac626ca1587a0a7e8e51561e5514f8cb36afa1c5102b3bab604051611a3d90612629565b60405180910390a17f909c57d5c6ac08245cf2a6de3900e2b868513fa59099b92b27d8db823d92df9c81604051611a749190611ddb565b60405180910390a15b6000600b60009054906101000a900473ffffffffffffffffffffffffffffffffffffffff1673ffffffffffffffffffffffffffffffffffffffff16637ff36ab586836007337fffffffffffffffffffffffffffffffffffffffffffffffffffffffffffffffff6040518663ffffffff1660e01b8152600401611b02949392919061276d565b60006040518083038185885af193505050508015611b4357506040513d6000823e3d601f19601f82011682018060405250810190611b409190612912565b60015b611b81577fcf34ef537ac33ee1ac626ca1587a0a7e8e51561e5514f8cb36afa1c5102b3bab604051611b74906129a7565b60405180910390a1611bb8565b507fcf34ef537ac33ee1ac626ca1587a0a7e8e51561e5514f8cb36afa1c5102b3bab604051611baf90612a13565b60405180910390a15b82600160009054906101000a900473ffffffffffffffffffffffffffffffffffffffff1673ffffffffffffffffffffffffffffffffffffffff166370a08231306040518263ffffffff1660e01b8152600401611c149190611d17565b602060405180830381865afa158015611c31573d6000803e3d6000fd5b505050506040513d601f19601f82011682018060405250810190611c559190611e0b565b611c5f9190611fc0565b9350505050919050565b6000604051905090565b600080fd5b600080fd5b600073ffffffffffffffffffffffffffffffffffffffff82169050919050565b6000611ca882611c7d565b9050919050565b611cb881611c9d565b8114611cc357600080fd5b50565b600081359050611cd581611caf565b92915050565b600060208284031215611cf157611cf0611c73565b5b6000611cff84828501611cc6565b91505092915050565b611d1181611c9d565b82525050565b6000602082019050611d2c6000830184611d08565b92915050565b6000819050919050565b611d4581611d32565b8114611d5057600080fd5b50565b600081359050611d6281611d3c565b92915050565b600060208284031215611d7e57611d7d611c73565b5b6000611d8c84828501611d53565b91505092915050565b611d9e81611d32565b82525050565b6000606082019050611db96000830186611d95565b611dc66020830185611d08565b611dd36040830184611d95565b949350505050565b6000602082019050611df06000830184611d95565b92915050565b600081519050611e0581611d3c565b92915050565b600060208284031215611e2157611e20611c73565b5b6000611e2f84828501611df6565b91505092915050565b6000604082019050611e4d6000830185611d08565b611e5a6020830184611d95565b9392505050565b60008115159050919050565b611e7681611e61565b8114611e8157600080fd5b50565b600081519050611e9381611e6d565b92915050565b600060208284031215611eaf57611eae611c73565b5b6000611ebd84828501611e84565b91505092915050565b7f4e487b7100000000000000000000000000000000000000000000000000000000600052601160045260246000fd5b6000611f0082611d32565b9150611f0b83611d32565b9250828202611f1981611d32565b91508282048414831517611f3057611f2f611ec6565b5b5092915050565b7f4e487b7100000000000000000000000000000000000000000000000000000000600052601260045260246000fd5b6000611f7182611d32565b9150611f7c83611d32565b925082611f8c57611f8b611f37565b5b828204905092915050565b6000604082019050611fac6000830185611d95565b611fb96020830184611d08565b9392505050565b6000611fcb82611d32565b9150611fd683611d32565b9250828203905081811115611fee57611fed611ec6565b5b92915050565b600082825260208201905092915050565b7f70726576696f757320486f6c6465722069730000000000000000000000000000600082015250565b600061203b601283611ff4565b915061204682612005565b602082019050919050565b6000602082019050818103600083015261206a8161202e565b9050919050565b7f63757272656e74206c69717569646974792070657263656e7400000000000000600082015250565b60006120a7601983611ff4565b91506120b282612071565b602082019050919050565b600060208201905081810360008301526120d68161209a565b9050919050565b60006120e882611d32565b91506120f383611d32565b925082820190508082111561210b5761210a611ec6565b5b92915050565b7f746f6b656e732063616e74206265206275726e74000000000000000000000000600082015250565b6000612147601483611ff4565b915061215282612111565b602082019050919050565b600060208201905081810360008301526121768161213a565b9050919050565b7f746f6b656e732068617665206265656e206275726e7400000000000000000000600082015250565b60006121b3601683611ff4565b91506121be8261217d565b602082019050919050565b600060208201905081810360008301526121e2816121a6565b9050919050565b600060c0820190506121fe6000830189611d08565b61220b6020830188611d95565b6122186040830187611d95565b6122256060830186611d95565b6122326080830185611d08565b61223f60a0830184611d95565b979650505050505050565b60008060006060848603121561226357612262611c73565b5b600061227186828701611df6565b935050602061228286828701611df6565b925050604061229386828701611df6565b9150509250925092565b7f4c6971756964697479204e6f742050726f766964656400000000000000000000600082015250565b60006122d3601683611ff4565b91506122de8261229d565b602082019050919050565b60006020820190508181036000830152612302816122c6565b9050919050565b7f6c6971756964697479205375636365737366756c6c792050726f766964656400600082015250565b600061233f601f83611ff4565b915061234a82612309565b602082019050919050565b6000602082019050818103600083015261236e81612332565b9050919050565b7f70726963652063616e7420626520676f742066726f6d204f7261636c65000000600082015250565b60006123ab601d83611ff4565b91506123b682612375565b602082019050919050565b600060208201905081810360008301526123da8161239e565b9050919050565b7f707269636520676f742066726f6d204f7261636c652062757420636f756c646e60008201527f74206d696e740000000000000000000000000000000000000000000000000000602082015250565b600061243d602683611ff4565b9150612448826123e1565b604082019050919050565b6000602082019050818103600083015261246c81612430565b9050919050565b7f746f6b656e73206d696e74656420746f2070726576696f757320686f6c646572600082015250565b60006124a9602083611ff4565b91506124b482612473565b602082019050919050565b600060208201905081810360008301526124d88161249c565b9050919050565b7f63616e74206765742062616c616e6365206f66207468697320636f6e7472616360008201527f7400000000000000000000000000000000000000000000000000000000000000602082015250565b600061253b602183611ff4565b9150612546826124df565b604082019050919050565b6000602082019050818103600083015261256a8161252e565b9050919050565b7f63616e74206765742070726963652066726f6d204f7261636c65000000000000600082015250565b60006125a7601a83611ff4565b91506125b282612571565b602082019050919050565b600060208201905081810360008301526125d68161259a565b9050919050565b7f6e756d626572206f6620546f6b656e7320746f20427579206973000000000000600082015250565b6000612613601a83611ff4565b915061261e826125dd565b602082019050919050565b6000602082019050818103600083015261264281612606565b9050919050565b600081549050919050565b600082825260208201905092915050565b60008190508160005260206000209050919050565b61268381611c9d565b82525050565b6000612695838361267a565b60208301905092915050565b60008160001c9050919050565b600073ffffffffffffffffffffffffffffffffffffffff82169050919050565b60006126e16126dc836126a1565b6126ae565b9050919050565b60006126f482546126ce565b9050919050565b6000600182019050919050565b600061271382612649565b61271d8185612654565b935061272883612665565b8060005b838110156127605761273d826126e8565b6127478882612689565b9750612752836126fb565b92505060018101905061272c565b5085935050505092915050565b60006080820190506127826000830187611d95565b81810360208301526127948186612708565b90506127a36040830185611d08565b6127b06060830184611d95565b95945050505050565b600080fd5b6000601f19601f8301169050919050565b7f4e487b7100000000000000000000000000000000000000000000000000000000600052604160045260246000fd5b612807826127be565b810181811067ffffffffffffffff82111715612826576128256127cf565b5b80604052505050565b6000612839611c69565b905061284582826127fe565b919050565b600067ffffffffffffffff821115612865576128646127cf565b5b602082029050602081019050919050565b600080fd5b600061288e6128898461284a565b61282f565b905080838252602082019050602084028301858111156128b1576128b0612876565b5b835b818110156128da57806128c68882611df6565b8452602084019350506020810190506128b3565b5050509392505050565b600082601f8301126128f9576128f86127b9565b5b815161290984826020860161287b565b91505092915050565b60006020828403121561292857612927611c73565b5b600082015167ffffffffffffffff81111561294657612945611c78565b5b612952848285016128e4565b91505092915050565b7f746f6b656e73206e6f7420626f75676874000000000000000000000000000000600082015250565b6000612991601183611ff4565b915061299c8261295b565b602082019050919050565b600060208201905081810360008301526129c081612984565b9050919050565b7f746f6b656e7320626f7567687400000000000000000000000000000000000000600082015250565b60006129fd600d83611ff4565b9150612a08826129c7565b602082019050919050565b60006020820190508181036000830152612a2c816129f0565b905091905056fea2646970667358221220791c65e5e7dcce7669f73324c78d37b3fd646149731eddc3a811a7fb46e61ef564736f6c63430008110033",
					"opcodes": "PUSH1 0x80 PUSH1 0x40 MSTORE PUSH20 0xB4FBF271143F4FBF7B91A5DED31805E42B2208D6 PUSH1 0x0 DUP1 PUSH2 0x100 EXP DUP2 SLOAD DUP2 PUSH20 0xFFFFFFFFFFFFFFFFFFFFFFFFFFFFFFFFFFFFFFFF MUL NOT AND SWAP1 DUP4 PUSH20 0xFFFFFFFFFFFFFFFFFFFFFFFFFFFFFFFFFFFFFFFF AND MUL OR SWAP1 SSTORE POP PUSH20 0x7A250D5630B4CF539739DF2C5DACB4C659F2488D PUSH1 0x6 PUSH1 0x0 PUSH2 0x100 EXP DUP2 SLOAD DUP2 PUSH20 0xFFFFFFFFFFFFFFFFFFFFFFFFFFFFFFFFFFFFFFFF MUL NOT AND SWAP1 DUP4 PUSH20 0xFFFFFFFFFFFFFFFFFFFFFFFFFFFFFFFFFFFFFFFF AND MUL OR SWAP1 SSTORE POP PUSH1 0x5 PUSH1 0x0 SWAP1 SLOAD SWAP1 PUSH2 0x100 EXP SWAP1 DIV PUSH20 0xFFFFFFFFFFFFFFFFFFFFFFFFFFFFFFFFFFFFFFFF AND PUSH1 0x8 PUSH1 0x0 PUSH2 0x100 EXP DUP2 SLOAD DUP2 PUSH20 0xFFFFFFFFFFFFFFFFFFFFFFFFFFFFFFFFFFFFFFFF MUL NOT AND SWAP1 DUP4 PUSH20 0xFFFFFFFFFFFFFFFFFFFFFFFFFFFFFFFFFFFFFFFF AND MUL OR SWAP1 SSTORE POP PUSH1 0x0 DUP1 SLOAD SWAP1 PUSH2 0x100 EXP SWAP1 DIV PUSH20 0xFFFFFFFFFFFFFFFFFFFFFFFFFFFFFFFFFFFFFFFF AND PUSH1 0x9 PUSH1 0x0 PUSH2 0x100 EXP DUP2 SLOAD DUP2 PUSH20 0xFFFFFFFFFFFFFFFFFFFFFFFFFFFFFFFFFFFFFFFF MUL NOT AND SWAP1 DUP4 PUSH20 0xFFFFFFFFFFFFFFFFFFFFFFFFFFFFFFFFFFFFFFFF AND MUL OR SWAP1 SSTORE POP PUSH1 0x3 PUSH1 0x0 SWAP1 SLOAD SWAP1 PUSH2 0x100 EXP SWAP1 DIV PUSH20 0xFFFFFFFFFFFFFFFFFFFFFFFFFFFFFFFFFFFFFFFF AND PUSH1 0xA PUSH1 0x0 PUSH2 0x100 EXP DUP2 SLOAD DUP2 PUSH20 0xFFFFFFFFFFFFFFFFFFFFFFFFFFFFFFFFFFFFFFFF MUL NOT AND SWAP1 DUP4 PUSH20 0xFFFFFFFFFFFFFFFFFFFFFFFFFFFFFFFFFFFFFFFF AND MUL OR SWAP1 SSTORE POP PUSH1 0x6 PUSH1 0x0 SWAP1 SLOAD SWAP1 PUSH2 0x100 EXP SWAP1 DIV PUSH20 0xFFFFFFFFFFFFFFFFFFFFFFFFFFFFFFFFFFFFFFFF AND PUSH1 0xB PUSH1 0x0 PUSH2 0x100 EXP DUP2 SLOAD DUP2 PUSH20 0xFFFFFFFFFFFFFFFFFFFFFFFFFFFFFFFFFFFFFFFF MUL NOT AND SWAP1 DUP4 PUSH20 0xFFFFFFFFFFFFFFFFFFFFFFFFFFFFFFFFFFFFFFFF AND MUL OR SWAP1 SSTORE POP CALLVALUE DUP1 ISZERO PUSH3 0x244 JUMPI PUSH1 0x0 DUP1 REVERT JUMPDEST POP PUSH1 0x40 MLOAD PUSH3 0x3241 CODESIZE SUB DUP1 PUSH3 0x3241 DUP4 CODECOPY DUP2 DUP2 ADD PUSH1 0x40 MSTORE DUP2 ADD SWAP1 PUSH3 0x26A SWAP2 SWAP1 PUSH3 0x72C JUMP JUMPDEST DUP6 PUSH1 0x1 PUSH1 0x0 PUSH2 0x100 EXP DUP2 SLOAD DUP2 PUSH20 0xFFFFFFFFFFFFFFFFFFFFFFFFFFFFFFFFFFFFFFFF MUL NOT AND SWAP1 DUP4 PUSH20 0xFFFFFFFFFFFFFFFFFFFFFFFFFFFFFFFFFFFFFFFF AND MUL OR SWAP1 SSTORE POP DUP5 PUSH1 0x2 PUSH1 0x0 PUSH2 0x100 EXP DUP2 SLOAD DUP2 PUSH20 0xFFFFFFFFFFFFFFFFFFFFFFFFFFFFFFFFFFFFFFFF MUL NOT AND SWAP1 DUP4 PUSH20 0xFFFFFFFFFFFFFFFFFFFFFFFFFFFFFFFFFFFFFFFF AND MUL OR SWAP1 SSTORE POP DUP4 PUSH1 0x3 PUSH1 0x0 PUSH2 0x100 EXP DUP2 SLOAD DUP2 PUSH20 0xFFFFFFFFFFFFFFFFFFFFFFFFFFFFFFFFFFFFFFFF MUL NOT AND SWAP1 DUP4 PUSH20 0xFFFFFFFFFFFFFFFFFFFFFFFFFFFFFFFFFFFFFFFF AND MUL OR SWAP1 SSTORE POP PUSH1 0x3 PUSH1 0x0 SWAP1 SLOAD SWAP1 PUSH2 0x100 EXP SWAP1 DIV PUSH20 0xFFFFFFFFFFFFFFFFFFFFFFFFFFFFFFFFFFFFFFFF AND PUSH1 0xA PUSH1 0x0 PUSH2 0x100 EXP DUP2 SLOAD DUP2 PUSH20 0xFFFFFFFFFFFFFFFFFFFFFFFFFFFFFFFFFFFFFFFF MUL NOT AND SWAP1 DUP4 PUSH20 0xFFFFFFFFFFFFFFFFFFFFFFFFFFFFFFFFFFFFFFFF AND MUL OR SWAP1 SSTORE POP DUP3 PUSH1 0x4 PUSH1 0x0 PUSH2 0x100 EXP DUP2 SLOAD DUP2 PUSH20 0xFFFFFFFFFFFFFFFFFFFFFFFFFFFFFFFFFFFFFFFF MUL NOT AND SWAP1 DUP4 PUSH20 0xFFFFFFFFFFFFFFFFFFFFFFFFFFFFFFFFFFFFFFFF AND MUL OR SWAP1 SSTORE POP DUP2 PUSH1 0x5 PUSH1 0x0 PUSH2 0x100 EXP DUP2 SLOAD DUP2 PUSH20 0xFFFFFFFFFFFFFFFFFFFFFFFFFFFFFFFFFFFFFFFF MUL NOT AND SWAP1 DUP4 PUSH20 0xFFFFFFFFFFFFFFFFFFFFFFFFFFFFFFFFFFFFFFFF AND MUL OR SWAP1 SSTORE POP PUSH1 0x5 PUSH1 0x0 SWAP1 SLOAD SWAP1 PUSH2 0x100 EXP SWAP1 DIV PUSH20 0xFFFFFFFFFFFFFFFFFFFFFFFFFFFFFFFFFFFFFFFF AND PUSH1 0x8 PUSH1 0x0 PUSH2 0x100 EXP DUP2 SLOAD DUP2 PUSH20 0xFFFFFFFFFFFFFFFFFFFFFFFFFFFFFFFFFFFFFFFF MUL NOT AND SWAP1 DUP4 PUSH20 0xFFFFFFFFFFFFFFFFFFFFFFFFFFFFFFFFFFFFFFFF AND MUL OR SWAP1 SSTORE POP PUSH3 0x486 DUP2 PUSH3 0x554 PUSH1 0x20 SHL PUSH1 0x20 SHR JUMP JUMPDEST PUSH1 0x40 MLOAD DUP1 PUSH1 0x40 ADD PUSH1 0x40 MSTORE DUP1 PUSH1 0x0 DUP1 SLOAD SWAP1 PUSH2 0x100 EXP SWAP1 DIV PUSH20 0xFFFFFFFFFFFFFFFFFFFFFFFFFFFFFFFFFFFFFFFF AND PUSH20 0xFFFFFFFFFFFFFFFFFFFFFFFFFFFFFFFFFFFFFFFF AND PUSH20 0xFFFFFFFFFFFFFFFFFFFFFFFFFFFFFFFFFFFFFFFF AND DUP2 MSTORE PUSH1 0x20 ADD PUSH1 0x1 PUSH1 0x0 SWAP1 SLOAD SWAP1 PUSH2 0x100 EXP SWAP1 DIV PUSH20 0xFFFFFFFFFFFFFFFFFFFFFFFFFFFFFFFFFFFFFFFF AND PUSH20 0xFFFFFFFFFFFFFFFFFFFFFFFFFFFFFFFFFFFFFFFF AND PUSH20 0xFFFFFFFFFFFFFFFFFFFFFFFFFFFFFFFFFFFFFFFF AND DUP2 MSTORE POP PUSH1 0x7 SWAP1 PUSH1 0x2 PUSH3 0x547 SWAP3 SWAP2 SWAP1 PUSH3 0x614 JUMP JUMPDEST POP POP POP POP POP POP POP PUSH3 0x7C8 JUMP JUMPDEST PUSH3 0x567 PUSH1 0x0 DUP3 PUSH3 0x56A PUSH1 0x20 SHL PUSH1 0x20 SHR JUMP JUMPDEST POP JUMP JUMPDEST PUSH1 0x0 PUSH1 0xD DUP1 SLOAD SWAP1 POP SWAP1 POP PUSH1 0x0 PUSH1 0xC PUSH1 0x0 PUSH1 0xD DUP1 SLOAD SWAP1 POP DUP2 MSTORE PUSH1 0x20 ADD SWAP1 DUP2 MSTORE PUSH1 0x20 ADD PUSH1 0x0 KECCAK256 SWAP1 POP DUP2 DUP2 PUSH1 0x0 ADD DUP2 SWAP1 SSTORE POP DUP3 DUP2 PUSH1 0x1 ADD PUSH1 0x0 PUSH2 0x100 EXP DUP2 SLOAD DUP2 PUSH20 0xFFFFFFFFFFFFFFFFFFFFFFFFFFFFFFFFFFFFFFFF MUL NOT AND SWAP1 DUP4 PUSH20 0xFFFFFFFFFFFFFFFFFFFFFFFFFFFFFFFFFFFFFFFF AND MUL OR SWAP1 SSTORE POP DUP4 DUP2 PUSH1 0x2 ADD DUP2 SWAP1 SSTORE POP PUSH1 0xD DUP3 SWAP1 DUP1 PUSH1 0x1 DUP2 SLOAD ADD DUP1 DUP3 SSTORE DUP1 SWAP2 POP POP PUSH1 0x1 SWAP1 SUB SWAP1 PUSH1 0x0 MSTORE PUSH1 0x20 PUSH1 0x0 KECCAK256 ADD PUSH1 0x0 SWAP1 SWAP2 SWAP1 SWAP2 SWAP1 SWAP2 POP SSTORE POP POP POP POP JUMP JUMPDEST DUP3 DUP1 SLOAD DUP3 DUP3 SSTORE SWAP1 PUSH1 0x0 MSTORE PUSH1 0x20 PUSH1 0x0 KECCAK256 SWAP1 DUP2 ADD SWAP3 DUP3 ISZERO PUSH3 0x690 JUMPI SWAP2 PUSH1 0x20 MUL DUP3 ADD JUMPDEST DUP3 DUP2 GT ISZERO PUSH3 0x68F JUMPI DUP3 MLOAD DUP3 PUSH1 0x0 PUSH2 0x100 EXP DUP2 SLOAD DUP2 PUSH20 0xFFFFFFFFFFFFFFFFFFFFFFFFFFFFFFFFFFFFFFFF MUL NOT AND SWAP1 DUP4 PUSH20 0xFFFFFFFFFFFFFFFFFFFFFFFFFFFFFFFFFFFFFFFF AND MUL OR SWAP1 SSTORE POP SWAP2 PUSH1 0x20 ADD SWAP2 SWAP1 PUSH1 0x1 ADD SWAP1 PUSH3 0x635 JUMP JUMPDEST JUMPDEST POP SWAP1 POP PUSH3 0x69F SWAP2 SWAP1 PUSH3 0x6A3 JUMP JUMPDEST POP SWAP1 JUMP JUMPDEST JUMPDEST DUP1 DUP3 GT ISZERO PUSH3 0x6BE JUMPI PUSH1 0x0 DUP2 PUSH1 0x0 SWAP1 SSTORE POP PUSH1 0x1 ADD PUSH3 0x6A4 JUMP JUMPDEST POP SWAP1 JUMP JUMPDEST PUSH1 0x0 DUP1 REVERT JUMPDEST PUSH1 0x0 PUSH20 0xFFFFFFFFFFFFFFFFFFFFFFFFFFFFFFFFFFFFFFFF DUP3 AND SWAP1 POP SWAP2 SWAP1 POP JUMP JUMPDEST PUSH1 0x0 PUSH3 0x6F4 DUP3 PUSH3 0x6C7 JUMP JUMPDEST SWAP1 POP SWAP2 SWAP1 POP JUMP JUMPDEST PUSH3 0x706 DUP2 PUSH3 0x6E7 JUMP JUMPDEST DUP2 EQ PUSH3 0x712 JUMPI PUSH1 0x0 DUP1 REVERT JUMPDEST POP JUMP JUMPDEST PUSH1 0x0 DUP2 MLOAD SWAP1 POP PUSH3 0x726 DUP2 PUSH3 0x6FB JUMP JUMPDEST SWAP3 SWAP2 POP POP JUMP JUMPDEST PUSH1 0x0 DUP1 PUSH1 0x0 DUP1 PUSH1 0x0 DUP1 PUSH1 0xC0 DUP8 DUP10 SUB SLT ISZERO PUSH3 0x74C JUMPI PUSH3 0x74B PUSH3 0x6C2 JUMP JUMPDEST JUMPDEST PUSH1 0x0 PUSH3 0x75C DUP10 DUP3 DUP11 ADD PUSH3 0x715 JUMP JUMPDEST SWAP7 POP POP PUSH1 0x20 PUSH3 0x76F DUP10 DUP3 DUP11 ADD PUSH3 0x715 JUMP JUMPDEST SWAP6 POP POP PUSH1 0x40 PUSH3 0x782 DUP10 DUP3 DUP11 ADD PUSH3 0x715 JUMP JUMPDEST SWAP5 POP POP PUSH1 0x60 PUSH3 0x795 DUP10 DUP3 DUP11 ADD PUSH3 0x715 JUMP JUMPDEST SWAP4 POP POP PUSH1 0x80 PUSH3 0x7A8 DUP10 DUP3 DUP11 ADD PUSH3 0x715 JUMP JUMPDEST SWAP3 POP POP PUSH1 0xA0 PUSH3 0x7BB DUP10 DUP3 DUP11 ADD PUSH3 0x715 JUMP JUMPDEST SWAP2 POP POP SWAP3 SWAP6 POP SWAP3 SWAP6 POP SWAP3 SWAP6 JUMP JUMPDEST PUSH2 0x2A69 DUP1 PUSH3 0x7D8 PUSH1 0x0 CODECOPY PUSH1 0x0 RETURN INVALID PUSH1 0x80 PUSH1 0x40 MSTORE PUSH1 0x4 CALLDATASIZE LT PUSH2 0x118 JUMPI PUSH1 0x0 CALLDATALOAD PUSH1 0xE0 SHR DUP1 PUSH4 0xA09EDE07 GT PUSH2 0xA0 JUMPI DUP1 PUSH4 0xAF6D1FE4 GT PUSH2 0x64 JUMPI DUP1 PUSH4 0xAF6D1FE4 EQ PUSH2 0x37F JUMPI DUP1 PUSH4 0xBD3733FE EQ PUSH2 0x3BC JUMPI DUP1 PUSH4 0xBFD9EA5B EQ PUSH2 0x3E7 JUMPI DUP1 PUSH4 0xC1F2E5F1 EQ PUSH2 0x412 JUMPI DUP1 PUSH4 0xD4AFA675 EQ PUSH2 0x43D JUMPI PUSH2 0x11F JUMP JUMPDEST DUP1 PUSH4 0xA09EDE07 EQ PUSH2 0x2A8 JUMPI DUP1 PUSH4 0xA6021ACE EQ PUSH2 0x2D3 JUMPI DUP1 PUSH4 0xA785A3D8 EQ PUSH2 0x2FE JUMPI DUP1 PUSH4 0xA89AE4BA EQ PUSH2 0x329 JUMPI DUP1 PUSH4 0xAEF75107 EQ PUSH2 0x354 JUMPI PUSH2 0x11F JUMP JUMPDEST DUP1 PUSH4 0x4CFD1BA5 GT PUSH2 0xE7 JUMPI DUP1 PUSH4 0x4CFD1BA5 EQ PUSH2 0x1D3 JUMPI DUP1 PUSH4 0x51CFF8D9 EQ PUSH2 0x1FE JUMPI DUP1 PUSH4 0x777B506F EQ PUSH2 0x227 JUMPI DUP1 PUSH4 0x86D02608 EQ PUSH2 0x252 JUMPI DUP1 PUSH4 0x9DD58B58 EQ PUSH2 0x27D JUMPI PUSH2 0x11F JUMP JUMPDEST DUP1 PUSH4 0xB2B4D9B EQ PUSH2 0x124 JUMPI DUP1 PUSH4 0x1B017FDE EQ PUSH2 0x140 JUMPI DUP1 PUSH4 0x20CA3C7F EQ PUSH2 0x169 JUMPI DUP1 PUSH4 0x2C4C3C1B EQ PUSH2 0x194 JUMPI PUSH2 0x11F JUMP JUMPDEST CALLDATASIZE PUSH2 0x11F JUMPI STOP JUMPDEST PUSH1 0x0 DUP1 REVERT JUMPDEST PUSH2 0x13E PUSH1 0x4 DUP1 CALLDATASIZE SUB DUP2 ADD SWAP1 PUSH2 0x139 SWAP2 SWAP1 PUSH2 0x1CDB JUMP JUMPDEST PUSH2 0x466 JUMP JUMPDEST STOP JUMPDEST CALLVALUE DUP1 ISZERO PUSH2 0x14C JUMPI PUSH1 0x0 DUP1 REVERT JUMPDEST POP PUSH2 0x167 PUSH1 0x4 DUP1 CALLDATASIZE SUB DUP2 ADD SWAP1 PUSH2 0x162 SWAP2 SWAP1 PUSH2 0x1CDB JUMP JUMPDEST PUSH2 0x47B JUMP JUMPDEST STOP JUMPDEST CALLVALUE DUP1 ISZERO PUSH2 0x175 JUMPI PUSH1 0x0 DUP1 REVERT JUMPDEST POP PUSH2 0x17E PUSH2 0x4BF JUMP JUMPDEST PUSH1 0x40 MLOAD PUSH2 0x18B SWAP2 SWAP1 PUSH2 0x1D17 JUMP JUMPDEST PUSH1 0x40 MLOAD DUP1 SWAP2 SUB SWAP1 RETURN JUMPDEST CALLVALUE DUP1 ISZERO PUSH2 0x1A0 JUMPI PUSH1 0x0 DUP1 REVERT JUMPDEST POP PUSH2 0x1BB PUSH1 0x4 DUP1 CALLDATASIZE SUB DUP2 ADD SWAP1 PUSH2 0x1B6 SWAP2 SWAP1 PUSH2 0x1D68 JUMP JUMPDEST PUSH2 0x4E5 JUMP JUMPDEST PUSH1 0x40 MLOAD PUSH2 0x1CA SWAP4 SWAP3 SWAP2 SWAP1 PUSH2 0x1DA4 JUMP JUMPDEST PUSH1 0x40 MLOAD DUP1 SWAP2 SUB SWAP1 RETURN JUMPDEST CALLVALUE DUP1 ISZERO PUSH2 0x1DF JUMPI PUSH1 0x0 DUP1 REVERT JUMPDEST POP PUSH2 0x1E8 PUSH2 0x52F JUMP JUMPDEST PUSH1 0x40 MLOAD PUSH2 0x1F5 SWAP2 SWAP1 PUSH2 0x1DDB JUMP JUMPDEST PUSH1 0x40 MLOAD DUP1 SWAP2 SUB SWAP1 RETURN JUMPDEST CALLVALUE DUP1 ISZERO PUSH2 0x20A JUMPI PUSH1 0x0 DUP1 REVERT JUMPDEST POP PUSH2 0x225 PUSH1 0x4 DUP1 CALLDATASIZE SUB DUP2 ADD SWAP1 PUSH2 0x220 SWAP2 SWAP1 PUSH2 0x1CDB JUMP JUMPDEST PUSH2 0x535 JUMP JUMPDEST STOP JUMPDEST CALLVALUE DUP1 ISZERO PUSH2 0x233 JUMPI PUSH1 0x0 DUP1 REVERT JUMPDEST POP PUSH2 0x23C PUSH2 0x63C JUMP JUMPDEST PUSH1 0x40 MLOAD PUSH2 0x249 SWAP2 SWAP1 PUSH2 0x1D17 JUMP JUMPDEST PUSH1 0x40 MLOAD DUP1 SWAP2 SUB SWAP1 RETURN JUMPDEST CALLVALUE DUP1 ISZERO PUSH2 0x25E JUMPI PUSH1 0x0 DUP1 REVERT JUMPDEST POP PUSH2 0x267 PUSH2 0x662 JUMP JUMPDEST PUSH1 0x40 MLOAD PUSH2 0x274 SWAP2 SWAP1 PUSH2 0x1DDB JUMP JUMPDEST PUSH1 0x40 MLOAD DUP1 SWAP2 SUB SWAP1 RETURN JUMPDEST CALLVALUE DUP1 ISZERO PUSH2 0x289 JUMPI PUSH1 0x0 DUP1 REVERT JUMPDEST POP PUSH2 0x292 PUSH2 0x668 JUMP JUMPDEST PUSH1 0x40 MLOAD PUSH2 0x29F SWAP2 SWAP1 PUSH2 0x1DDB JUMP JUMPDEST PUSH1 0x40 MLOAD DUP1 SWAP2 SUB SWAP1 RETURN JUMPDEST CALLVALUE DUP1 ISZERO PUSH2 0x2B4 JUMPI PUSH1 0x0 DUP1 REVERT JUMPDEST POP PUSH2 0x2BD PUSH2 0x70B JUMP JUMPDEST PUSH1 0x40 MLOAD PUSH2 0x2CA SWAP2 SWAP1 PUSH2 0x1DDB JUMP JUMPDEST PUSH1 0x40 MLOAD DUP1 SWAP2 SUB SWAP1 RETURN JUMPDEST CALLVALUE DUP1 ISZERO PUSH2 0x2DF JUMPI PUSH1 0x0 DUP1 REVERT JUMPDEST POP PUSH2 0x2E8 PUSH2 0x711 JUMP JUMPDEST PUSH1 0x40 MLOAD PUSH2 0x2F5 SWAP2 SWAP1 PUSH2 0x1D17 JUMP JUMPDEST PUSH1 0x40 MLOAD DUP1 SWAP2 SUB SWAP1 RETURN JUMPDEST CALLVALUE DUP1 ISZERO PUSH2 0x30A JUMPI PUSH1 0x0 DUP1 REVERT JUMPDEST POP PUSH2 0x313 PUSH2 0x737 JUMP JUMPDEST PUSH1 0x40 MLOAD PUSH2 0x320 SWAP2 SWAP1 PUSH2 0x1D17 JUMP JUMPDEST PUSH1 0x40 MLOAD DUP1 SWAP2 SUB SWAP1 RETURN JUMPDEST CALLVALUE DUP1 ISZERO PUSH2 0x335 JUMPI PUSH1 0x0 DUP1 REVERT JUMPDEST POP PUSH2 0x33E PUSH2 0x75B JUMP JUMPDEST PUSH1 0x40 MLOAD PUSH2 0x34B SWAP2 SWAP1 PUSH2 0x1D17 JUMP JUMPDEST PUSH1 0x40 MLOAD DUP1 SWAP2 SUB SWAP1 RETURN JUMPDEST CALLVALUE DUP1 ISZERO PUSH2 0x360 JUMPI PUSH1 0x0 DUP1 REVERT JUMPDEST POP PUSH2 0x369 PUSH2 0x781 JUMP JUMPDEST PUSH1 0x40 MLOAD PUSH2 0x376 SWAP2 SWAP1 PUSH2 0x1D17 JUMP JUMPDEST PUSH1 0x40 MLOAD DUP1 SWAP2 SUB SWAP1 RETURN JUMPDEST CALLVALUE DUP1 ISZERO PUSH2 0x38B JUMPI PUSH1 0x0 DUP1 REVERT JUMPDEST POP PUSH2 0x3A6 PUSH1 0x4 DUP1 CALLDATASIZE SUB DUP2 ADD SWAP1 PUSH2 0x3A1 SWAP2 SWAP1 PUSH2 0x1D68 JUMP JUMPDEST PUSH2 0x7A7 JUMP JUMPDEST PUSH1 0x40 MLOAD PUSH2 0x3B3 SWAP2 SWAP1 PUSH2 0x1D17 JUMP JUMPDEST PUSH1 0x40 MLOAD DUP1 SWAP2 SUB SWAP1 RETURN JUMPDEST CALLVALUE DUP1 ISZERO PUSH2 0x3C8 JUMPI PUSH1 0x0 DUP1 REVERT JUMPDEST POP PUSH2 0x3D1 PUSH2 0x7E6 JUMP JUMPDEST PUSH1 0x40 MLOAD PUSH2 0x3DE SWAP2 SWAP1 PUSH2 0x1D17 JUMP JUMPDEST PUSH1 0x40 MLOAD DUP1 SWAP2 SUB SWAP1 RETURN JUMPDEST CALLVALUE DUP1 ISZERO PUSH2 0x3F3 JUMPI PUSH1 0x0 DUP1 REVERT JUMPDEST POP PUSH2 0x3FC PUSH2 0x80C JUMP JUMPDEST PUSH1 0x40 MLOAD PUSH2 0x409 SWAP2 SWAP1 PUSH2 0x1DDB JUMP JUMPDEST PUSH1 0x40 MLOAD DUP1 SWAP2 SUB SWAP1 RETURN JUMPDEST CALLVALUE DUP1 ISZERO PUSH2 0x41E JUMPI PUSH1 0x0 DUP1 REVERT JUMPDEST POP PUSH2 0x427 PUSH2 0x82F JUMP JUMPDEST PUSH1 0x40 MLOAD PUSH2 0x434 SWAP2 SWAP1 PUSH2 0x1DDB JUMP JUMPDEST PUSH1 0x40 MLOAD DUP1 SWAP2 SUB SWAP1 RETURN JUMPDEST CALLVALUE DUP1 ISZERO PUSH2 0x449 JUMPI PUSH1 0x0 DUP1 REVERT JUMPDEST POP PUSH2 0x464 PUSH1 0x4 DUP1 CALLDATASIZE SUB DUP2 ADD SWAP1 PUSH2 0x45F SWAP2 SWAP1 PUSH2 0x1D68 JUMP JUMPDEST PUSH2 0x9A6 JUMP JUMPDEST STOP JUMPDEST PUSH2 0x470 CALLVALUE DUP3 PUSH2 0xA38 JUMP JUMPDEST PUSH2 0x478 PUSH2 0xAE2 JUMP JUMPDEST POP JUMP JUMPDEST DUP1 PUSH1 0x1 PUSH1 0x0 PUSH2 0x100 EXP DUP2 SLOAD DUP2 PUSH20 0xFFFFFFFFFFFFFFFFFFFFFFFFFFFFFFFFFFFFFFFF MUL NOT AND SWAP1 DUP4 PUSH20 0xFFFFFFFFFFFFFFFFFFFFFFFFFFFFFFFFFFFFFFFF AND MUL OR SWAP1 SSTORE POP POP JUMP JUMPDEST PUSH1 0x6 PUSH1 0x0 SWAP1 SLOAD SWAP1 PUSH2 0x100 EXP SWAP1 DIV PUSH20 0xFFFFFFFFFFFFFFFFFFFFFFFFFFFFFFFFFFFFFFFF AND DUP2 JUMP JUMPDEST PUSH1 0xC PUSH1 0x20 MSTORE DUP1 PUSH1 0x0 MSTORE PUSH1 0x40 PUSH1 0x0 KECCAK256 PUSH1 0x0 SWAP2 POP SWAP1 POP DUP1 PUSH1 0x0 ADD SLOAD SWAP1 DUP1 PUSH1 0x1 ADD PUSH1 0x0 SWAP1 SLOAD SWAP1 PUSH2 0x100 EXP SWAP1 DIV PUSH20 0xFFFFFFFFFFFFFFFFFFFFFFFFFFFFFFFFFFFFFFFF AND SWAP1 DUP1 PUSH1 0x2 ADD SLOAD SWAP1 POP DUP4 JUMP JUMPDEST PUSH1 0xF SLOAD DUP2 JUMP JUMPDEST PUSH1 0x0 DUP2 SWAP1 POP PUSH1 0x0 DUP2 PUSH20 0xFFFFFFFFFFFFFFFFFFFFFFFFFFFFFFFFFFFFFFFF AND PUSH4 0x70A08231 ADDRESS PUSH1 0x40 MLOAD DUP3 PUSH4 0xFFFFFFFF AND PUSH1 0xE0 SHL DUP2 MSTORE PUSH1 0x4 ADD PUSH2 0x575 SWAP2 SWAP1 PUSH2 0x1D17 JUMP JUMPDEST PUSH1 0x20 PUSH1 0x40 MLOAD DUP1 DUP4 SUB DUP2 DUP7 GAS STATICCALL ISZERO DUP1 ISZERO PUSH2 0x592 JUMPI RETURNDATASIZE PUSH1 0x0 DUP1 RETURNDATACOPY RETURNDATASIZE PUSH1 0x0 REVERT JUMPDEST POP POP POP POP PUSH1 0x40 MLOAD RETURNDATASIZE PUSH1 0x1F NOT PUSH1 0x1F DUP3 ADD AND DUP3 ADD DUP1 PUSH1 0x40 MSTORE POP DUP2 ADD SWAP1 PUSH2 0x5B6 SWAP2 SWAP1 PUSH2 0x1E0B JUMP JUMPDEST SWAP1 POP DUP2 PUSH20 0xFFFFFFFFFFFFFFFFFFFFFFFFFFFFFFFFFFFFFFFF AND PUSH4 0xA9059CBB CALLER DUP4 PUSH1 0x40 MLOAD DUP4 PUSH4 0xFFFFFFFF AND PUSH1 0xE0 SHL DUP2 MSTORE PUSH1 0x4 ADD PUSH2 0x5F3 SWAP3 SWAP2 SWAP1 PUSH2 0x1E38 JUMP JUMPDEST PUSH1 0x20 PUSH1 0x40 MLOAD DUP1 DUP4 SUB DUP2 PUSH1 0x0 DUP8 GAS CALL ISZERO DUP1 ISZERO PUSH2 0x612 JUMPI RETURNDATASIZE PUSH1 0x0 DUP1 RETURNDATACOPY RETURNDATASIZE PUSH1 0x0 REVERT JUMPDEST POP POP POP POP PUSH1 0x40 MLOAD RETURNDATASIZE PUSH1 0x1F NOT PUSH1 0x1F DUP3 ADD AND DUP3 ADD DUP1 PUSH1 0x40 MSTORE POP DUP2 ADD SWAP1 PUSH2 0x636 SWAP2 SWAP1 PUSH2 0x1E99 JUMP JUMPDEST POP POP POP POP JUMP JUMPDEST PUSH1 0x4 PUSH1 0x0 SWAP1 SLOAD SWAP1 PUSH2 0x100 EXP SWAP1 DIV PUSH20 0xFFFFFFFFFFFFFFFFFFFFFFFFFFFFFFFFFFFFFFFF AND DUP2 JUMP JUMPDEST PUSH1 0xE SLOAD DUP2 JUMP JUMPDEST PUSH1 0x0 PUSH1 0x9 PUSH1 0x0 SWAP1 SLOAD SWAP1 PUSH2 0x100 EXP SWAP1 DIV PUSH20 0xFFFFFFFFFFFFFFFFFFFFFFFFFFFFFFFFFFFFFFFF AND PUSH20 0xFFFFFFFFFFFFFFFFFFFFFFFFFFFFFFFFFFFFFFFF AND PUSH4 0x70A08231 ADDRESS PUSH1 0x40 MLOAD DUP3 PUSH4 0xFFFFFFFF AND PUSH1 0xE0 SHL DUP2 MSTORE PUSH1 0x4 ADD PUSH2 0x6C5 SWAP2 SWAP1 PUSH2 0x1D17 JUMP JUMPDEST PUSH1 0x20 PUSH1 0x40 MLOAD DUP1 DUP4 SUB DUP2 DUP7 GAS STATICCALL ISZERO DUP1 ISZERO PUSH2 0x6E2 JUMPI RETURNDATASIZE PUSH1 0x0 DUP1 RETURNDATACOPY RETURNDATASIZE PUSH1 0x0 REVERT JUMPDEST POP POP POP POP PUSH1 0x40 MLOAD RETURNDATASIZE PUSH1 0x1F NOT PUSH1 0x1F DUP3 ADD AND DUP3 ADD DUP1 PUSH1 0x40 MSTORE POP DUP2 ADD SWAP1 PUSH2 0x706 SWAP2 SWAP1 PUSH2 0x1E0B JUMP JUMPDEST SWAP1 POP SWAP1 JUMP JUMPDEST PUSH1 0x10 SLOAD DUP2 JUMP JUMPDEST PUSH1 0x1 PUSH1 0x0 SWAP1 SLOAD SWAP1 PUSH2 0x100 EXP SWAP1 DIV PUSH20 0xFFFFFFFFFFFFFFFFFFFFFFFFFFFFFFFFFFFFFFFF AND DUP2 JUMP JUMPDEST PUSH1 0x0 DUP1 SLOAD SWAP1 PUSH2 0x100 EXP SWAP1 DIV PUSH20 0xFFFFFFFFFFFFFFFFFFFFFFFFFFFFFFFFFFFFFFFF AND DUP2 JUMP JUMPDEST PUSH1 0x3 PUSH1 0x0 SWAP1 SLOAD SWAP1 PUSH2 0x100 EXP SWAP1 DIV PUSH20 0xFFFFFFFFFFFFFFFFFFFFFFFFFFFFFFFFFFFFFFFF AND DUP2 JUMP JUMPDEST PUSH1 0x5 PUSH1 0x0 SWAP1 SLOAD SWAP1 PUSH2 0x100 EXP SWAP1 DIV PUSH20 0xFFFFFFFFFFFFFFFFFFFFFFFFFFFFFFFFFFFFFFFF AND DUP2 JUMP JUMPDEST PUSH1 0x7 DUP2 DUP2 SLOAD DUP2 LT PUSH2 0x7B7 JUMPI PUSH1 0x0 DUP1 REVERT JUMPDEST SWAP1 PUSH1 0x0 MSTORE PUSH1 0x20 PUSH1 0x0 KECCAK256 ADD PUSH1 0x0 SWAP2 POP SLOAD SWAP1 PUSH2 0x100 EXP SWAP1 DIV PUSH20 0xFFFFFFFFFFFFFFFFFFFFFFFFFFFFFFFFFFFFFFFF AND DUP2 JUMP JUMPDEST PUSH1 0x2 PUSH1 0x0 SWAP1 SLOAD SWAP1 PUSH2 0x100 EXP SWAP1 DIV PUSH20 0xFFFFFFFFFFFFFFFFFFFFFFFFFFFFFFFFFFFFFFFF AND DUP2 JUMP JUMPDEST PUSH1 0x0 PUSH1 0xC PUSH1 0x0 PUSH1 0xD DUP1 SLOAD SWAP1 POP DUP2 MSTORE PUSH1 0x20 ADD SWAP1 DUP2 MSTORE PUSH1 0x20 ADD PUSH1 0x0 KECCAK256 PUSH1 0x2 ADD SLOAD SWAP1 POP SWAP1 JUMP JUMPDEST PUSH1 0x0 DUP1 PUSH1 0x1 PUSH1 0x0 SWAP1 SLOAD SWAP1 PUSH2 0x100 EXP SWAP1 DIV PUSH20 0xFFFFFFFFFFFFFFFFFFFFFFFFFFFFFFFFFFFFFFFF AND PUSH20 0xFFFFFFFFFFFFFFFFFFFFFFFFFFFFFFFFFFFFFFFF AND PUSH4 0x18160DDD PUSH1 0x40 MLOAD DUP2 PUSH4 0xFFFFFFFF AND PUSH1 0xE0 SHL DUP2 MSTORE PUSH1 0x4 ADD PUSH1 0x20 PUSH1 0x40 MLOAD DUP1 DUP4 SUB DUP2 DUP7 GAS STATICCALL ISZERO DUP1 ISZERO PUSH2 0x89F JUMPI RETURNDATASIZE PUSH1 0x0 DUP1 RETURNDATACOPY RETURNDATASIZE PUSH1 0x0 REVERT JUMPDEST POP POP POP POP PUSH1 0x40 MLOAD RETURNDATASIZE PUSH1 0x1F NOT PUSH1 0x1F DUP3 ADD AND DUP3 ADD DUP1 PUSH1 0x40 MSTORE POP DUP2 ADD SWAP1 PUSH2 0x8C3 SWAP2 SWAP1 PUSH2 0x1E0B JUMP JUMPDEST SWAP1 POP PUSH1 0x0 PUSH1 0x1 PUSH1 0x0 SWAP1 SLOAD SWAP1 PUSH2 0x100 EXP SWAP1 DIV PUSH20 0xFFFFFFFFFFFFFFFFFFFFFFFFFFFFFFFFFFFFFFFF AND PUSH20 0xFFFFFFFFFFFFFFFFFFFFFFFFFFFFFFFFFFFFFFFF AND PUSH4 0x70A08231 PUSH1 0x2 PUSH1 0x0 SWAP1 SLOAD SWAP1 PUSH2 0x100 EXP SWAP1 DIV PUSH20 0xFFFFFFFFFFFFFFFFFFFFFFFFFFFFFFFFFFFFFFFF AND PUSH1 0x40 MLOAD DUP3 PUSH4 0xFFFFFFFF AND PUSH1 0xE0 SHL DUP2 MSTORE PUSH1 0x4 ADD PUSH2 0x944 SWAP2 SWAP1 PUSH2 0x1D17 JUMP JUMPDEST PUSH1 0x20 PUSH1 0x40 MLOAD DUP1 DUP4 SUB DUP2 DUP7 GAS STATICCALL ISZERO DUP1 ISZERO PUSH2 0x961 JUMPI RETURNDATASIZE PUSH1 0x0 DUP1 RETURNDATACOPY RETURNDATASIZE PUSH1 0x0 REVERT JUMPDEST POP POP POP POP PUSH1 0x40 MLOAD RETURNDATASIZE PUSH1 0x1F NOT PUSH1 0x1F DUP3 ADD AND DUP3 ADD DUP1 PUSH1 0x40 MSTORE POP DUP2 ADD SWAP1 PUSH2 0x985 SWAP2 SWAP1 PUSH2 0x1E0B JUMP JUMPDEST SWAP1 POP DUP2 PUSH1 0x64 DUP3 PUSH2 0x995 SWAP2 SWAP1 PUSH2 0x1EF5 JUMP JUMPDEST PUSH2 0x99F SWAP2 SWAP1 PUSH2 0x1F66 JUMP JUMPDEST SWAP3 POP POP POP SWAP1 JUMP JUMPDEST PUSH1 0x1 PUSH1 0x0 SWAP1 SLOAD SWAP1 PUSH2 0x100 EXP SWAP1 DIV PUSH20 0xFFFFFFFFFFFFFFFFFFFFFFFFFFFFFFFFFFFFFFFF AND PUSH20 0xFFFFFFFFFFFFFFFFFFFFFFFFFFFFFFFFFFFFFFFF AND PUSH4 0x96FE8349 DUP3 CALLER PUSH1 0x40 MLOAD DUP4 PUSH4 0xFFFFFFFF AND PUSH1 0xE0 SHL DUP2 MSTORE PUSH1 0x4 ADD PUSH2 0xA03 SWAP3 SWAP2 SWAP1 PUSH2 0x1F97 JUMP JUMPDEST PUSH1 0x0 PUSH1 0x40 MLOAD DUP1 DUP4 SUB DUP2 PUSH1 0x0 DUP8 DUP1 EXTCODESIZE ISZERO DUP1 ISZERO PUSH2 0xA1D JUMPI PUSH1 0x0 DUP1 REVERT JUMPDEST POP GAS CALL ISZERO DUP1 ISZERO PUSH2 0xA31 JUMPI RETURNDATASIZE PUSH1 0x0 DUP1 RETURNDATACOPY RETURNDATASIZE PUSH1 0x0 REVERT JUMPDEST POP POP POP POP POP JUMP JUMPDEST PUSH1 0x0 PUSH1 0xD DUP1 SLOAD SWAP1 POP SWAP1 POP PUSH1 0x0 PUSH1 0xC PUSH1 0x0 PUSH1 0xD DUP1 SLOAD SWAP1 POP DUP2 MSTORE PUSH1 0x20 ADD SWAP1 DUP2 MSTORE PUSH1 0x20 ADD PUSH1 0x0 KECCAK256 SWAP1 POP DUP2 DUP2 PUSH1 0x0 ADD DUP2 SWAP1 SSTORE POP DUP3 DUP2 PUSH1 0x1 ADD PUSH1 0x0 PUSH2 0x100 EXP DUP2 SLOAD DUP2 PUSH20 0xFFFFFFFFFFFFFFFFFFFFFFFFFFFFFFFFFFFFFFFF MUL NOT AND SWAP1 DUP4 PUSH20 0xFFFFFFFFFFFFFFFFFFFFFFFFFFFFFFFFFFFFFFFF AND MUL OR SWAP1 SSTORE POP DUP4 DUP2 PUSH1 0x2 ADD DUP2 SWAP1 SSTORE POP PUSH1 0xD DUP3 SWAP1 DUP1 PUSH1 0x1 DUP2 SLOAD ADD DUP1 DUP3 SSTORE DUP1 SWAP2 POP POP PUSH1 0x1 SWAP1 SUB SWAP1 PUSH1 0x0 MSTORE PUSH1 0x20 PUSH1 0x0 KECCAK256 ADD PUSH1 0x0 SWAP1 SWAP2 SWAP1 SWAP2 SWAP1 SWAP2 POP SSTORE POP POP POP POP JUMP JUMPDEST PUSH1 0x0 CALLVALUE SWAP1 POP PUSH1 0x0 PUSH1 0xF SLOAD GT ISZERO PUSH2 0xB34 JUMPI PUSH1 0x0 SELFBALANCE SWAP1 POP PUSH2 0xB02 PUSH1 0xF SLOAD PUSH2 0xE0A JUMP JUMPDEST PUSH1 0x0 SELFBALANCE SWAP1 POP PUSH1 0x0 DUP2 DUP4 PUSH2 0xB15 SWAP2 SWAP1 PUSH2 0x1FC0 JUMP JUMPDEST SWAP1 POP DUP1 PUSH1 0xF PUSH1 0x0 DUP3 DUP3 SLOAD PUSH2 0xB29 SWAP2 SWAP1 PUSH2 0x1FC0 JUMP JUMPDEST SWAP3 POP POP DUP2 SWAP1 SSTORE POP POP POP POP JUMPDEST PUSH1 0x0 PUSH1 0x10 SLOAD GT ISZERO PUSH2 0xB82 JUMPI PUSH1 0x0 SELFBALANCE SWAP1 POP PUSH2 0xB4F PUSH1 0x10 SLOAD PUSH2 0xF17 JUMP JUMPDEST POP PUSH1 0x0 SELFBALANCE SWAP1 POP PUSH1 0x0 DUP2 DUP4 PUSH2 0xB63 SWAP2 SWAP1 PUSH2 0x1FC0 JUMP JUMPDEST SWAP1 POP DUP1 PUSH1 0x10 PUSH1 0x0 DUP3 DUP3 SLOAD PUSH2 0xB77 SWAP2 SWAP1 PUSH2 0x1FC0 JUMP JUMPDEST SWAP3 POP POP DUP2 SWAP1 SSTORE POP POP POP POP JUMPDEST PUSH1 0x0 PUSH1 0xC PUSH1 0x0 PUSH1 0x1 PUSH1 0xD DUP1 SLOAD SWAP1 POP PUSH2 0xB9A SWAP2 SWAP1 PUSH2 0x1FC0 JUMP JUMPDEST DUP2 MSTORE PUSH1 0x20 ADD SWAP1 DUP2 MSTORE PUSH1 0x20 ADD PUSH1 0x0 KECCAK256 PUSH1 0x1 ADD PUSH1 0x0 SWAP1 SLOAD SWAP1 PUSH2 0x100 EXP SWAP1 DIV PUSH20 0xFFFFFFFFFFFFFFFFFFFFFFFFFFFFFFFFFFFFFFFF AND SWAP1 POP PUSH2 0xBD7 DUP2 PUSH2 0x13F2 JUMP JUMPDEST PUSH1 0x8 PUSH1 0x0 SWAP1 SLOAD SWAP1 PUSH2 0x100 EXP SWAP1 DIV PUSH20 0xFFFFFFFFFFFFFFFFFFFFFFFFFFFFFFFFFFFFFFFF AND PUSH20 0xFFFFFFFFFFFFFFFFFFFFFFFFFFFFFFFFFFFFFFFF AND PUSH4 0x6A627842 DUP3 PUSH1 0x40 MLOAD DUP3 PUSH4 0xFFFFFFFF AND PUSH1 0xE0 SHL DUP2 MSTORE PUSH1 0x4 ADD PUSH2 0xC32 SWAP2 SWAP1 PUSH2 0x1D17 JUMP JUMPDEST PUSH1 0x0 PUSH1 0x40 MLOAD DUP1 DUP4 SUB DUP2 PUSH1 0x0 DUP8 DUP1 EXTCODESIZE ISZERO DUP1 ISZERO PUSH2 0xC4C JUMPI PUSH1 0x0 DUP1 REVERT JUMPDEST POP GAS CALL ISZERO DUP1 ISZERO PUSH2 0xC60 JUMPI RETURNDATASIZE PUSH1 0x0 DUP1 RETURNDATACOPY RETURNDATASIZE PUSH1 0x0 REVERT JUMPDEST POP POP POP POP PUSH1 0x0 PUSH2 0xC6E PUSH2 0x82F JUMP JUMPDEST SWAP1 POP PUSH32 0xCF34EF537AC33EE1AC626CA1587A0A7E8E51561E5514F8CB36AFA1C5102B3BAB PUSH1 0x40 MLOAD PUSH2 0xC9D SWAP1 PUSH2 0x2051 JUMP JUMPDEST PUSH1 0x40 MLOAD DUP1 SWAP2 SUB SWAP1 LOG1 PUSH32 0xB8A00D6D8CA1BE30BFEC34D8F97E55F0F0FD9EEB7FB46E030516363D4CFE1AD6 DUP3 PUSH1 0x40 MLOAD PUSH2 0xCD4 SWAP2 SWAP1 PUSH2 0x1D17 JUMP JUMPDEST PUSH1 0x40 MLOAD DUP1 SWAP2 SUB SWAP1 LOG1 PUSH32 0xCF34EF537AC33EE1AC626CA1587A0A7E8E51561E5514F8CB36AFA1C5102B3BAB PUSH1 0x40 MLOAD PUSH2 0xD09 SWAP1 PUSH2 0x20BD JUMP JUMPDEST PUSH1 0x40 MLOAD DUP1 SWAP2 SUB SWAP1 LOG1 PUSH32 0x909C57D5C6AC08245CF2A6DE3900E2B868513FA59099B92B27D8DB823D92DF9C DUP2 PUSH1 0x40 MLOAD PUSH2 0xD40 SWAP2 SWAP1 PUSH2 0x1DDB JUMP JUMPDEST PUSH1 0x40 MLOAD DUP1 SWAP2 SUB SWAP1 LOG1 PUSH1 0x14 DUP2 GT ISZERO PUSH2 0xDA6 JUMPI PUSH1 0x0 SELFBALANCE SWAP1 POP PUSH2 0xD5F CALLVALUE PUSH2 0xE0A JUMP JUMPDEST PUSH1 0x0 SELFBALANCE SWAP1 POP PUSH1 0x0 DUP2 DUP4 PUSH2 0xD72 SWAP2 SWAP1 PUSH2 0x1FC0 JUMP JUMPDEST SWAP1 POP PUSH1 0x0 DUP2 DUP8 PUSH2 0xD82 SWAP2 SWAP1 PUSH2 0x1FC0 JUMP JUMPDEST SWAP1 POP DUP1 PUSH1 0xF PUSH1 0x0 DUP3 DUP3 SLOAD PUSH2 0xD96 SWAP2 SWAP1 PUSH2 0x20DD JUMP JUMPDEST SWAP3 POP POP DUP2 SWAP1 SSTORE POP POP POP POP POP PUSH2 0xE05 JUMP JUMPDEST PUSH1 0x0 SELFBALANCE SWAP1 POP PUSH2 0xDC1 CALLVALUE PUSH1 0x10 SLOAD PUSH2 0xDBC SWAP2 SWAP1 PUSH2 0x20DD JUMP JUMPDEST PUSH2 0xF17 JUMP JUMPDEST POP PUSH1 0x0 SELFBALANCE SWAP1 POP PUSH1 0x0 DUP2 DUP4 PUSH2 0xDD5 SWAP2 SWAP1 PUSH2 0x1FC0 JUMP JUMPDEST SWAP1 POP PUSH1 0x0 DUP2 DUP8 PUSH2 0xDE5 SWAP2 SWAP1 PUSH2 0x1FC0 JUMP JUMPDEST SWAP1 POP DUP1 PUSH1 0x10 PUSH1 0x0 DUP3 DUP3 SLOAD PUSH2 0xDF9 SWAP2 SWAP1 PUSH2 0x20DD JUMP JUMPDEST SWAP3 POP POP DUP2 SWAP1 SSTORE POP POP POP POP POP JUMPDEST POP POP POP JUMP JUMPDEST PUSH1 0x0 PUSH2 0xE15 DUP3 PUSH2 0x16E2 JUMP JUMPDEST SWAP1 POP PUSH1 0x1 PUSH1 0x0 SWAP1 SLOAD SWAP1 PUSH2 0x100 EXP SWAP1 DIV PUSH20 0xFFFFFFFFFFFFFFFFFFFFFFFFFFFFFFFFFFFFFFFF AND PUSH20 0xFFFFFFFFFFFFFFFFFFFFFFFFFFFFFFFFFFFFFFFF AND PUSH4 0x9DC29FAC CALLER DUP4 PUSH1 0x40 MLOAD DUP4 PUSH4 0xFFFFFFFF AND PUSH1 0xE0 SHL DUP2 MSTORE PUSH1 0x4 ADD PUSH2 0xE74 SWAP3 SWAP2 SWAP1 PUSH2 0x1E38 JUMP JUMPDEST PUSH1 0x0 PUSH1 0x40 MLOAD DUP1 DUP4 SUB DUP2 PUSH1 0x0 DUP8 DUP1 EXTCODESIZE ISZERO DUP1 ISZERO PUSH2 0xE8E JUMPI PUSH1 0x0 DUP1 REVERT JUMPDEST POP GAS CALL SWAP3 POP POP POP DUP1 ISZERO PUSH2 0xE9F JUMPI POP PUSH1 0x1 JUMPDEST PUSH2 0xEDD JUMPI PUSH32 0xCF34EF537AC33EE1AC626CA1587A0A7E8E51561E5514F8CB36AFA1C5102B3BAB PUSH1 0x40 MLOAD PUSH2 0xED0 SWAP1 PUSH2 0x215D JUMP JUMPDEST PUSH1 0x40 MLOAD DUP1 SWAP2 SUB SWAP1 LOG1 PUSH2 0xF13 JUMP JUMPDEST PUSH32 0xCF34EF537AC33EE1AC626CA1587A0A7E8E51561E5514F8CB36AFA1C5102B3BAB PUSH1 0x40 MLOAD PUSH2 0xF0A SWAP1 PUSH2 0x21C9 JUMP JUMPDEST PUSH1 0x40 MLOAD DUP1 SWAP2 SUB SWAP1 LOG1 JUMPDEST POP POP JUMP JUMPDEST PUSH1 0x0 DUP1 PUSH1 0x0 PUSH1 0x1 PUSH1 0x0 SWAP1 SLOAD SWAP1 PUSH2 0x100 EXP SWAP1 DIV PUSH20 0xFFFFFFFFFFFFFFFFFFFFFFFFFFFFFFFFFFFFFFFF AND PUSH20 0xFFFFFFFFFFFFFFFFFFFFFFFFFFFFFFFFFFFFFFFF AND PUSH4 0x70A08231 ADDRESS PUSH1 0x40 MLOAD DUP3 PUSH4 0xFFFFFFFF AND PUSH1 0xE0 SHL DUP2 MSTORE PUSH1 0x4 ADD PUSH2 0xF77 SWAP2 SWAP1 PUSH2 0x1D17 JUMP JUMPDEST PUSH1 0x20 PUSH1 0x40 MLOAD DUP1 DUP4 SUB DUP2 DUP7 GAS STATICCALL ISZERO DUP1 ISZERO PUSH2 0xF94 JUMPI RETURNDATASIZE PUSH1 0x0 DUP1 RETURNDATACOPY RETURNDATASIZE PUSH1 0x0 REVERT JUMPDEST POP POP POP POP PUSH1 0x40 MLOAD RETURNDATASIZE PUSH1 0x1F NOT PUSH1 0x1F DUP3 ADD AND DUP3 ADD DUP1 PUSH1 0x40 MSTORE POP DUP2 ADD SWAP1 PUSH2 0xFB8 SWAP2 SWAP1 PUSH2 0x1E0B JUMP JUMPDEST SWAP1 POP PUSH1 0x0 PUSH1 0x64 PUSH1 0x69 PUSH1 0xA PUSH1 0x0 SWAP1 SLOAD SWAP1 PUSH2 0x100 EXP SWAP1 DIV PUSH20 0xFFFFFFFFFFFFFFFFFFFFFFFFFFFFFFFFFFFFFFFF AND PUSH20 0xFFFFFFFFFFFFFFFFFFFFFFFFFFFFFFFFFFFFFFFF AND PUSH4 0x3AC35585 PUSH1 0x0 DUP1 SLOAD SWAP1 PUSH2 0x100 EXP SWAP1 DIV PUSH20 0xFFFFFFFFFFFFFFFFFFFFFFFFFFFFFFFFFFFFFFFF AND DUP10 PUSH1 0x40 MLOAD DUP4 PUSH4 0xFFFFFFFF AND PUSH1 0xE0 SHL DUP2 MSTORE PUSH1 0x4 ADD PUSH2 0x103D SWAP3 SWAP2 SWAP1 PUSH2 0x1E38 JUMP JUMPDEST PUSH1 0x20 PUSH1 0x40 MLOAD DUP1 DUP4 SUB DUP2 DUP7 GAS STATICCALL ISZERO DUP1 ISZERO PUSH2 0x105A JUMPI RETURNDATASIZE PUSH1 0x0 DUP1 RETURNDATACOPY RETURNDATASIZE PUSH1 0x0 REVERT JUMPDEST POP POP POP POP PUSH1 0x40 MLOAD RETURNDATASIZE PUSH1 0x1F NOT PUSH1 0x1F DUP3 ADD AND DUP3 ADD DUP1 PUSH1 0x40 MSTORE POP DUP2 ADD SWAP1 PUSH2 0x107E SWAP2 SWAP1 PUSH2 0x1E0B JUMP JUMPDEST PUSH2 0x1088 SWAP2 SWAP1 PUSH2 0x1EF5 JUMP JUMPDEST PUSH2 0x1092 SWAP2 SWAP1 PUSH2 0x1F66 JUMP JUMPDEST SWAP1 POP DUP2 DUP2 GT ISZERO PUSH2 0x11D5 JUMPI PUSH1 0x1 PUSH1 0x0 SWAP1 SLOAD SWAP1 PUSH2 0x100 EXP SWAP1 DIV PUSH20 0xFFFFFFFFFFFFFFFFFFFFFFFFFFFFFFFFFFFFFFFF AND PUSH20 0xFFFFFFFFFFFFFFFFFFFFFFFFFFFFFFFFFFFFFFFF AND PUSH4 0x96FE8349 DUP4 DUP4 PUSH2 0x10E6 SWAP2 SWAP1 PUSH2 0x1FC0 JUMP JUMPDEST ADDRESS PUSH1 0x40 MLOAD DUP4 PUSH4 0xFFFFFFFF AND PUSH1 0xE0 SHL DUP2 MSTORE PUSH1 0x4 ADD PUSH2 0x1104 SWAP3 SWAP2 SWAP1 PUSH2 0x1F97 JUMP JUMPDEST PUSH1 0x0 PUSH1 0x40 MLOAD DUP1 DUP4 SUB DUP2 PUSH1 0x0 DUP8 DUP1 EXTCODESIZE ISZERO DUP1 ISZERO PUSH2 0x111E JUMPI PUSH1 0x0 DUP1 REVERT JUMPDEST POP GAS CALL ISZERO DUP1 ISZERO PUSH2 0x1132 JUMPI RETURNDATASIZE PUSH1 0x0 DUP1 RETURNDATACOPY RETURNDATASIZE PUSH1 0x0 REVERT JUMPDEST POP POP POP POP PUSH1 0x1 PUSH1 0x0 SWAP1 SLOAD SWAP1 PUSH2 0x100 EXP SWAP1 DIV PUSH20 0xFFFFFFFFFFFFFFFFFFFFFFFFFFFFFFFFFFFFFFFF AND PUSH20 0xFFFFFFFFFFFFFFFFFFFFFFFFFFFFFFFFFFFFFFFF AND PUSH4 0x70A08231 ADDRESS PUSH1 0x40 MLOAD DUP3 PUSH4 0xFFFFFFFF AND PUSH1 0xE0 SHL DUP2 MSTORE PUSH1 0x4 ADD PUSH2 0x1191 SWAP2 SWAP1 PUSH2 0x1D17 JUMP JUMPDEST PUSH1 0x20 PUSH1 0x40 MLOAD DUP1 DUP4 SUB DUP2 DUP7 GAS STATICCALL ISZERO DUP1 ISZERO PUSH2 0x11AE JUMPI RETURNDATASIZE PUSH1 0x0 DUP1 RETURNDATACOPY RETURNDATASIZE PUSH1 0x0 REVERT JUMPDEST POP POP POP POP PUSH1 0x40 MLOAD RETURNDATASIZE PUSH1 0x1F NOT PUSH1 0x1F DUP3 ADD AND DUP3 ADD DUP1 PUSH1 0x40 MSTORE POP DUP2 ADD SWAP1 PUSH2 0x11D2 SWAP2 SWAP1 PUSH2 0x1E0B JUMP JUMPDEST SWAP2 POP JUMPDEST PUSH1 0xB PUSH1 0x0 SWAP1 SLOAD SWAP1 PUSH2 0x100 EXP SWAP1 DIV PUSH20 0xFFFFFFFFFFFFFFFFFFFFFFFFFFFFFFFFFFFFFFFF AND PUSH20 0xFFFFFFFFFFFFFFFFFFFFFFFFFFFFFFFFFFFFFFFF AND PUSH4 0xF305D719 DUP7 ADDRESS DUP5 PUSH1 0x69 PUSH1 0x5F DUP8 PUSH2 0x1225 SWAP2 SWAP1 PUSH2 0x1EF5 JUMP JUMPDEST PUSH2 0x122F SWAP2 SWAP1 PUSH2 0x1F66 JUMP JUMPDEST PUSH1 0x64 PUSH1 0x5F DUP13 PUSH2 0x123E SWAP2 SWAP1 PUSH2 0x1EF5 JUMP JUMPDEST PUSH2 0x1248 SWAP2 SWAP1 PUSH2 0x1F66 JUMP JUMPDEST ADDRESS PUSH32 0xFFFFFFFFFFFFFFFFFFFFFFFFFFFFFFFFFFFFFFFFFFFFFFFFFFFFFFFFFFFFFFFF PUSH1 0x40 MLOAD DUP9 PUSH4 0xFFFFFFFF AND PUSH1 0xE0 SHL DUP2 MSTORE PUSH1 0x4 ADD PUSH2 0x128B SWAP7 SWAP6 SWAP5 SWAP4 SWAP3 SWAP2 SWAP1 PUSH2 0x21E9 JUMP JUMPDEST PUSH1 0x60 PUSH1 0x40 MLOAD DUP1 DUP4 SUB DUP2 DUP6 DUP9 GAS CALL SWAP4 POP POP POP POP DUP1 ISZERO PUSH2 0x12C7 JUMPI POP PUSH1 0x40 MLOAD RETURNDATASIZE PUSH1 0x1F NOT PUSH1 0x1F DUP3 ADD AND DUP3 ADD DUP1 PUSH1 0x40 MSTORE POP DUP2 ADD SWAP1 PUSH2 0x12C4 SWAP2 SWAP1 PUSH2 0x224A JUMP JUMPDEST PUSH1 0x1 JUMPDEST PUSH2 0x1305 JUMPI PUSH32 0xCF34EF537AC33EE1AC626CA1587A0A7E8E51561E5514F8CB36AFA1C5102B3BAB PUSH1 0x40 MLOAD PUSH2 0x12F8 SWAP1 PUSH2 0x22E9 JUMP JUMPDEST PUSH1 0x40 MLOAD DUP1 SWAP2 SUB SWAP1 LOG1 PUSH2 0x13E7 JUMP JUMPDEST POP POP POP PUSH32 0xCF34EF537AC33EE1AC626CA1587A0A7E8E51561E5514F8CB36AFA1C5102B3BAB PUSH1 0x40 MLOAD PUSH2 0x1335 SWAP1 PUSH2 0x2355 JUMP JUMPDEST PUSH1 0x40 MLOAD DUP1 SWAP2 SUB SWAP1 LOG1 PUSH1 0x1 PUSH1 0x0 SWAP1 SLOAD SWAP1 PUSH2 0x100 EXP SWAP1 DIV PUSH20 0xFFFFFFFFFFFFFFFFFFFFFFFFFFFFFFFFFFFFFFFF AND PUSH20 0xFFFFFFFFFFFFFFFFFFFFFFFFFFFFFFFFFFFFFFFF AND PUSH4 0x70A08231 ADDRESS PUSH1 0x40 MLOAD DUP3 PUSH4 0xFFFFFFFF AND PUSH1 0xE0 SHL DUP2 MSTORE PUSH1 0x4 ADD PUSH2 0x1398 SWAP2 SWAP1 PUSH2 0x1D17 JUMP JUMPDEST PUSH1 0x20 PUSH1 0x40 MLOAD DUP1 DUP4 SUB DUP2 DUP7 GAS STATICCALL ISZERO DUP1 ISZERO PUSH2 0x13B5 JUMPI RETURNDATASIZE PUSH1 0x0 DUP1 RETURNDATACOPY RETURNDATASIZE PUSH1 0x0 REVERT JUMPDEST POP POP POP POP PUSH1 0x40 MLOAD RETURNDATASIZE PUSH1 0x1F NOT PUSH1 0x1F DUP3 ADD AND DUP3 ADD DUP1 PUSH1 0x40 MSTORE POP DUP2 ADD SWAP1 PUSH2 0x13D9 SWAP2 SWAP1 PUSH2 0x1E0B JUMP JUMPDEST DUP3 PUSH2 0x13E4 SWAP2 SWAP1 PUSH2 0x1FC0 JUMP JUMPDEST SWAP3 POP JUMPDEST DUP3 SWAP4 POP POP POP POP SWAP2 SWAP1 POP JUMP JUMPDEST PUSH1 0x0 PUSH1 0xC PUSH1 0x0 PUSH1 0x1 PUSH1 0xD DUP1 SLOAD SWAP1 POP PUSH2 0x140A SWAP2 SWAP1 PUSH2 0x1FC0 JUMP JUMPDEST DUP2 MSTORE PUSH1 0x20 ADD SWAP1 DUP2 MSTORE PUSH1 0x20 ADD PUSH1 0x0 KECCAK256 PUSH1 0x2 ADD SLOAD SWAP1 POP PUSH1 0x0 DUP2 SUB ISZERO PUSH2 0x16DE JUMPI PUSH1 0xA PUSH1 0x0 SWAP1 SLOAD SWAP1 PUSH2 0x100 EXP SWAP1 DIV PUSH20 0xFFFFFFFFFFFFFFFFFFFFFFFFFFFFFFFFFFFFFFFF AND PUSH20 0xFFFFFFFFFFFFFFFFFFFFFFFFFFFFFFFFFFFFFFFF AND PUSH4 0x3AC35585 PUSH1 0x0 DUP1 SLOAD SWAP1 PUSH2 0x100 EXP SWAP1 DIV PUSH20 0xFFFFFFFFFFFFFFFFFFFFFFFFFFFFFFFFFFFFFFFF AND DUP4 PUSH1 0x40 MLOAD DUP4 PUSH4 0xFFFFFFFF AND PUSH1 0xE0 SHL DUP2 MSTORE PUSH1 0x4 ADD PUSH2 0x14A4 SWAP3 SWAP2 SWAP1 PUSH2 0x1E38 JUMP JUMPDEST PUSH1 0x20 PUSH1 0x40 MLOAD DUP1 DUP4 SUB DUP2 DUP7 GAS STATICCALL SWAP3 POP POP POP DUP1 ISZERO PUSH2 0x14DE JUMPI POP PUSH1 0x40 MLOAD RETURNDATASIZE PUSH1 0x1F NOT PUSH1 0x1F DUP3 ADD AND DUP3 ADD DUP1 PUSH1 0x40 MSTORE POP DUP2 ADD SWAP1 PUSH2 0x14DB SWAP2 SWAP1 PUSH2 0x1E0B JUMP JUMPDEST PUSH1 0x1 JUMPDEST PUSH2 0x151C JUMPI PUSH32 0xCF34EF537AC33EE1AC626CA1587A0A7E8E51561E5514F8CB36AFA1C5102B3BAB PUSH1 0x40 MLOAD PUSH2 0x150F SWAP1 PUSH2 0x23C1 JUMP JUMPDEST PUSH1 0x40 MLOAD DUP1 SWAP2 SUB SWAP1 LOG1 PUSH2 0x16DD JUMP JUMPDEST POP PUSH1 0x0 PUSH1 0xA PUSH1 0x0 SWAP1 SLOAD SWAP1 PUSH2 0x100 EXP SWAP1 DIV PUSH20 0xFFFFFFFFFFFFFFFFFFFFFFFFFFFFFFFFFFFFFFFF AND PUSH20 0xFFFFFFFFFFFFFFFFFFFFFFFFFFFFFFFFFFFFFFFF AND PUSH4 0x3AC35585 PUSH1 0x0 DUP1 SLOAD SWAP1 PUSH2 0x100 EXP SWAP1 DIV PUSH20 0xFFFFFFFFFFFFFFFFFFFFFFFFFFFFFFFFFFFFFFFF AND DUP5 PUSH1 0x40 MLOAD DUP4 PUSH4 0xFFFFFFFF AND PUSH1 0xE0 SHL DUP2 MSTORE PUSH1 0x4 ADD PUSH2 0x159C SWAP3 SWAP2 SWAP1 PUSH2 0x1E38 JUMP JUMPDEST PUSH1 0x20 PUSH1 0x40 MLOAD DUP1 DUP4 SUB DUP2 DUP7 GAS STATICCALL ISZERO DUP1 ISZERO PUSH2 0x15B9 JUMPI RETURNDATASIZE PUSH1 0x0 DUP1 RETURNDATACOPY RETURNDATASIZE PUSH1 0x0 REVERT JUMPDEST POP POP POP POP PUSH1 0x40 MLOAD RETURNDATASIZE PUSH1 0x1F NOT PUSH1 0x1F DUP3 ADD AND DUP3 ADD DUP1 PUSH1 0x40 MSTORE POP DUP2 ADD SWAP1 PUSH2 0x15DD SWAP2 SWAP1 PUSH2 0x1E0B JUMP JUMPDEST SWAP1 POP PUSH1 0x1 PUSH1 0x0 SWAP1 SLOAD SWAP1 PUSH2 0x100 EXP SWAP1 DIV PUSH20 0xFFFFFFFFFFFFFFFFFFFFFFFFFFFFFFFFFFFFFFFF AND PUSH20 0xFFFFFFFFFFFFFFFFFFFFFFFFFFFFFFFFFFFFFFFF AND PUSH4 0x96FE8349 DUP3 DUP6 PUSH1 0x40 MLOAD DUP4 PUSH4 0xFFFFFFFF AND PUSH1 0xE0 SHL DUP2 MSTORE PUSH1 0x4 ADD PUSH2 0x163C SWAP3 SWAP2 SWAP1 PUSH2 0x1F97 JUMP JUMPDEST PUSH1 0x0 PUSH1 0x40 MLOAD DUP1 DUP4 SUB DUP2 PUSH1 0x0 DUP8 DUP1 EXTCODESIZE ISZERO DUP1 ISZERO PUSH2 0x1656 JUMPI PUSH1 0x0 DUP1 REVERT JUMPDEST POP GAS CALL SWAP3 POP POP POP DUP1 ISZERO PUSH2 0x1667 JUMPI POP PUSH1 0x1 JUMPDEST PUSH2 0x16A5 JUMPI PUSH32 0xCF34EF537AC33EE1AC626CA1587A0A7E8E51561E5514F8CB36AFA1C5102B3BAB PUSH1 0x40 MLOAD PUSH2 0x1698 SWAP1 PUSH2 0x2453 JUMP JUMPDEST PUSH1 0x40 MLOAD DUP1 SWAP2 SUB SWAP1 LOG1 PUSH2 0x16DB JUMP JUMPDEST PUSH32 0xCF34EF537AC33EE1AC626CA1587A0A7E8E51561E5514F8CB36AFA1C5102B3BAB PUSH1 0x40 MLOAD PUSH2 0x16D2 SWAP1 PUSH2 0x24BF JUMP JUMPDEST PUSH1 0x40 MLOAD DUP1 SWAP2 SUB SWAP1 LOG1 JUMPDEST POP JUMPDEST JUMPDEST POP POP JUMP JUMPDEST PUSH1 0x0 DUP1 PUSH1 0x0 PUSH1 0x1 PUSH1 0x0 SWAP1 SLOAD SWAP1 PUSH2 0x100 EXP SWAP1 DIV PUSH20 0xFFFFFFFFFFFFFFFFFFFFFFFFFFFFFFFFFFFFFFFF AND PUSH20 0xFFFFFFFFFFFFFFFFFFFFFFFFFFFFFFFFFFFFFFFF AND PUSH4 0x70A08231 ADDRESS PUSH1 0x40 MLOAD DUP3 PUSH4 0xFFFFFFFF AND PUSH1 0xE0 SHL DUP2 MSTORE PUSH1 0x4 ADD PUSH2 0x1742 SWAP2 SWAP1 PUSH2 0x1D17 JUMP JUMPDEST PUSH1 0x20 PUSH1 0x40 MLOAD DUP1 DUP4 SUB DUP2 DUP7 GAS STATICCALL SWAP3 POP POP POP DUP1 ISZERO PUSH2 0x177C JUMPI POP PUSH1 0x40 MLOAD RETURNDATASIZE PUSH1 0x1F NOT PUSH1 0x1F DUP3 ADD AND DUP3 ADD DUP1 PUSH1 0x40 MSTORE POP DUP2 ADD SWAP1 PUSH2 0x1779 SWAP2 SWAP1 PUSH2 0x1E0B JUMP JUMPDEST PUSH1 0x1 JUMPDEST PUSH2 0x17BA JUMPI PUSH32 0xCF34EF537AC33EE1AC626CA1587A0A7E8E51561E5514F8CB36AFA1C5102B3BAB PUSH1 0x40 MLOAD PUSH2 0x17AD SWAP1 PUSH2 0x2551 JUMP JUMPDEST PUSH1 0x40 MLOAD DUP1 SWAP2 SUB SWAP1 LOG1 PUSH2 0x185A JUMP JUMPDEST POP PUSH1 0x1 PUSH1 0x0 SWAP1 SLOAD SWAP1 PUSH2 0x100 EXP SWAP1 DIV PUSH20 0xFFFFFFFFFFFFFFFFFFFFFFFFFFFFFFFFFFFFFFFF AND PUSH20 0xFFFFFFFFFFFFFFFFFFFFFFFFFFFFFFFFFFFFFFFF AND PUSH4 0x70A08231 ADDRESS PUSH1 0x40 MLOAD DUP3 PUSH4 0xFFFFFFFF AND PUSH1 0xE0 SHL DUP2 MSTORE PUSH1 0x4 ADD PUSH2 0x1816 SWAP2 SWAP1 PUSH2 0x1D17 JUMP JUMPDEST PUSH1 0x20 PUSH1 0x40 MLOAD DUP1 DUP4 SUB DUP2 DUP7 GAS STATICCALL ISZERO DUP1 ISZERO PUSH2 0x1833 JUMPI RETURNDATASIZE PUSH1 0x0 DUP1 RETURNDATACOPY RETURNDATASIZE PUSH1 0x0 REVERT JUMPDEST POP POP POP POP PUSH1 0x40 MLOAD RETURNDATASIZE PUSH1 0x1F NOT PUSH1 0x1F DUP3 ADD AND DUP3 ADD DUP1 PUSH1 0x40 MSTORE POP DUP2 ADD SWAP1 PUSH2 0x1857 SWAP2 SWAP1 PUSH2 0x1E0B JUMP JUMPDEST SWAP2 POP JUMPDEST PUSH1 0xA PUSH1 0x0 SWAP1 SLOAD SWAP1 PUSH2 0x100 EXP SWAP1 DIV PUSH20 0xFFFFFFFFFFFFFFFFFFFFFFFFFFFFFFFFFFFFFFFF AND PUSH20 0xFFFFFFFFFFFFFFFFFFFFFFFFFFFFFFFFFFFFFFFF AND PUSH4 0x3AC35585 PUSH1 0x0 DUP1 SLOAD SWAP1 PUSH2 0x100 EXP SWAP1 DIV PUSH20 0xFFFFFFFFFFFFFFFFFFFFFFFFFFFFFFFFFFFFFFFF AND DUP7 PUSH1 0x40 MLOAD DUP4 PUSH4 0xFFFFFFFF AND PUSH1 0xE0 SHL DUP2 MSTORE PUSH1 0x4 ADD PUSH2 0x18D7 SWAP3 SWAP2 SWAP1 PUSH2 0x1E38 JUMP JUMPDEST PUSH1 0x20 PUSH1 0x40 MLOAD DUP1 DUP4 SUB DUP2 DUP7 GAS STATICCALL SWAP3 POP POP POP DUP1 ISZERO PUSH2 0x1911 JUMPI POP PUSH1 0x40 MLOAD RETURNDATASIZE PUSH1 0x1F NOT PUSH1 0x1F DUP3 ADD AND DUP3 ADD DUP1 PUSH1 0x40 MSTORE POP DUP2 ADD SWAP1 PUSH2 0x190E SWAP2 SWAP1 PUSH2 0x1E0B JUMP JUMPDEST PUSH1 0x1 JUMPDEST PUSH2 0x194F JUMPI PUSH32 0xCF34EF537AC33EE1AC626CA1587A0A7E8E51561E5514F8CB36AFA1C5102B3BAB PUSH1 0x40 MLOAD PUSH2 0x1942 SWAP1 PUSH2 0x25BD JUMP JUMPDEST PUSH1 0x40 MLOAD DUP1 SWAP2 SUB SWAP1 LOG1 PUSH2 0x1A7D JUMP JUMPDEST POP PUSH1 0xA PUSH1 0x0 SWAP1 SLOAD SWAP1 PUSH2 0x100 EXP SWAP1 DIV PUSH20 0xFFFFFFFFFFFFFFFFFFFFFFFFFFFFFFFFFFFFFFFF AND PUSH20 0xFFFFFFFFFFFFFFFFFFFFFFFFFFFFFFFFFFFFFFFF AND PUSH4 0x3AC35585 PUSH1 0x0 DUP1 SLOAD SWAP1 PUSH2 0x100 EXP SWAP1 DIV PUSH20 0xFFFFFFFFFFFFFFFFFFFFFFFFFFFFFFFFFFFFFFFF AND DUP7 PUSH1 0x40 MLOAD DUP4 PUSH4 0xFFFFFFFF AND PUSH1 0xE0 SHL DUP2 MSTORE PUSH1 0x4 ADD PUSH2 0x19CD SWAP3 SWAP2 SWAP1 PUSH2 0x1E38 JUMP JUMPDEST PUSH1 0x20 PUSH1 0x40 MLOAD DUP1 DUP4 SUB DUP2 DUP7 GAS STATICCALL ISZERO DUP1 ISZERO PUSH2 0x19EA JUMPI RETURNDATASIZE PUSH1 0x0 DUP1 RETURNDATACOPY RETURNDATASIZE PUSH1 0x0 REVERT JUMPDEST POP POP POP POP PUSH1 0x40 MLOAD RETURNDATASIZE PUSH1 0x1F NOT PUSH1 0x1F DUP3 ADD AND DUP3 ADD DUP1 PUSH1 0x40 MSTORE POP DUP2 ADD SWAP1 PUSH2 0x1A0E SWAP2 SWAP1 PUSH2 0x1E0B JUMP JUMPDEST SWAP1 POP PUSH32 0xCF34EF537AC33EE1AC626CA1587A0A7E8E51561E5514F8CB36AFA1C5102B3BAB PUSH1 0x40 MLOAD PUSH2 0x1A3D SWAP1 PUSH2 0x2629 JUMP JUMPDEST PUSH1 0x40 MLOAD DUP1 SWAP2 SUB SWAP1 LOG1 PUSH32 0x909C57D5C6AC08245CF2A6DE3900E2B868513FA59099B92B27D8DB823D92DF9C DUP2 PUSH1 0x40 MLOAD PUSH2 0x1A74 SWAP2 SWAP1 PUSH2 0x1DDB JUMP JUMPDEST PUSH1 0x40 MLOAD DUP1 SWAP2 SUB SWAP1 LOG1 JUMPDEST PUSH1 0x0 PUSH1 0xB PUSH1 0x0 SWAP1 SLOAD SWAP1 PUSH2 0x100 EXP SWAP1 DIV PUSH20 0xFFFFFFFFFFFFFFFFFFFFFFFFFFFFFFFFFFFFFFFF AND PUSH20 0xFFFFFFFFFFFFFFFFFFFFFFFFFFFFFFFFFFFFFFFF AND PUSH4 0x7FF36AB5 DUP7 DUP4 PUSH1 0x7 CALLER PUSH32 0xFFFFFFFFFFFFFFFFFFFFFFFFFFFFFFFFFFFFFFFFFFFFFFFFFFFFFFFFFFFFFFFF PUSH1 0x40 MLOAD DUP7 PUSH4 0xFFFFFFFF AND PUSH1 0xE0 SHL DUP2 MSTORE PUSH1 0x4 ADD PUSH2 0x1B02 SWAP5 SWAP4 SWAP3 SWAP2 SWAP1 PUSH2 0x276D JUMP JUMPDEST PUSH1 0x0 PUSH1 0x40 MLOAD DUP1 DUP4 SUB DUP2 DUP6 DUP9 GAS CALL SWAP4 POP POP POP POP DUP1 ISZERO PUSH2 0x1B43 JUMPI POP PUSH1 0x40 MLOAD RETURNDATASIZE PUSH1 0x0 DUP3 RETURNDATACOPY RETURNDATASIZE PUSH1 0x1F NOT PUSH1 0x1F DUP3 ADD AND DUP3 ADD DUP1 PUSH1 0x40 MSTORE POP DUP2 ADD SWAP1 PUSH2 0x1B40 SWAP2 SWAP1 PUSH2 0x2912 JUMP JUMPDEST PUSH1 0x1 JUMPDEST PUSH2 0x1B81 JUMPI PUSH32 0xCF34EF537AC33EE1AC626CA1587A0A7E8E51561E5514F8CB36AFA1C5102B3BAB PUSH1 0x40 MLOAD PUSH2 0x1B74 SWAP1 PUSH2 0x29A7 JUMP JUMPDEST PUSH1 0x40 MLOAD DUP1 SWAP2 SUB SWAP1 LOG1 PUSH2 0x1BB8 JUMP JUMPDEST POP PUSH32 0xCF34EF537AC33EE1AC626CA1587A0A7E8E51561E5514F8CB36AFA1C5102B3BAB PUSH1 0x40 MLOAD PUSH2 0x1BAF SWAP1 PUSH2 0x2A13 JUMP JUMPDEST PUSH1 0x40 MLOAD DUP1 SWAP2 SUB SWAP1 LOG1 JUMPDEST DUP3 PUSH1 0x1 PUSH1 0x0 SWAP1 SLOAD SWAP1 PUSH2 0x100 EXP SWAP1 DIV PUSH20 0xFFFFFFFFFFFFFFFFFFFFFFFFFFFFFFFFFFFFFFFF AND PUSH20 0xFFFFFFFFFFFFFFFFFFFFFFFFFFFFFFFFFFFFFFFF AND PUSH4 0x70A08231 ADDRESS PUSH1 0x40 MLOAD DUP3 PUSH4 0xFFFFFFFF AND PUSH1 0xE0 SHL DUP2 MSTORE PUSH1 0x4 ADD PUSH2 0x1C14 SWAP2 SWAP1 PUSH2 0x1D17 JUMP JUMPDEST PUSH1 0x20 PUSH1 0x40 MLOAD DUP1 DUP4 SUB DUP2 DUP7 GAS STATICCALL ISZERO DUP1 ISZERO PUSH2 0x1C31 JUMPI RETURNDATASIZE PUSH1 0x0 DUP1 RETURNDATACOPY RETURNDATASIZE PUSH1 0x0 REVERT JUMPDEST POP POP POP POP PUSH1 0x40 MLOAD RETURNDATASIZE PUSH1 0x1F NOT PUSH1 0x1F DUP3 ADD AND DUP3 ADD DUP1 PUSH1 0x40 MSTORE POP DUP2 ADD SWAP1 PUSH2 0x1C55 SWAP2 SWAP1 PUSH2 0x1E0B JUMP JUMPDEST PUSH2 0x1C5F SWAP2 SWAP1 PUSH2 0x1FC0 JUMP JUMPDEST SWAP4 POP POP POP POP SWAP2 SWAP1 POP JUMP JUMPDEST PUSH1 0x0 PUSH1 0x40 MLOAD SWAP1 POP SWAP1 JUMP JUMPDEST PUSH1 0x0 DUP1 REVERT JUMPDEST PUSH1 0x0 DUP1 REVERT JUMPDEST PUSH1 0x0 PUSH20 0xFFFFFFFFFFFFFFFFFFFFFFFFFFFFFFFFFFFFFFFF DUP3 AND SWAP1 POP SWAP2 SWAP1 POP JUMP JUMPDEST PUSH1 0x0 PUSH2 0x1CA8 DUP3 PUSH2 0x1C7D JUMP JUMPDEST SWAP1 POP SWAP2 SWAP1 POP JUMP JUMPDEST PUSH2 0x1CB8 DUP2 PUSH2 0x1C9D JUMP JUMPDEST DUP2 EQ PUSH2 0x1CC3 JUMPI PUSH1 0x0 DUP1 REVERT JUMPDEST POP JUMP JUMPDEST PUSH1 0x0 DUP2 CALLDATALOAD SWAP1 POP PUSH2 0x1CD5 DUP2 PUSH2 0x1CAF JUMP JUMPDEST SWAP3 SWAP2 POP POP JUMP JUMPDEST PUSH1 0x0 PUSH1 0x20 DUP3 DUP5 SUB SLT ISZERO PUSH2 0x1CF1 JUMPI PUSH2 0x1CF0 PUSH2 0x1C73 JUMP JUMPDEST JUMPDEST PUSH1 0x0 PUSH2 0x1CFF DUP5 DUP3 DUP6 ADD PUSH2 0x1CC6 JUMP JUMPDEST SWAP2 POP POP SWAP3 SWAP2 POP POP JUMP JUMPDEST PUSH2 0x1D11 DUP2 PUSH2 0x1C9D JUMP JUMPDEST DUP3 MSTORE POP POP JUMP JUMPDEST PUSH1 0x0 PUSH1 0x20 DUP3 ADD SWAP1 POP PUSH2 0x1D2C PUSH1 0x0 DUP4 ADD DUP5 PUSH2 0x1D08 JUMP JUMPDEST SWAP3 SWAP2 POP POP JUMP JUMPDEST PUSH1 0x0 DUP2 SWAP1 POP SWAP2 SWAP1 POP JUMP JUMPDEST PUSH2 0x1D45 DUP2 PUSH2 0x1D32 JUMP JUMPDEST DUP2 EQ PUSH2 0x1D50 JUMPI PUSH1 0x0 DUP1 REVERT JUMPDEST POP JUMP JUMPDEST PUSH1 0x0 DUP2 CALLDATALOAD SWAP1 POP PUSH2 0x1D62 DUP2 PUSH2 0x1D3C JUMP JUMPDEST SWAP3 SWAP2 POP POP JUMP JUMPDEST PUSH1 0x0 PUSH1 0x20 DUP3 DUP5 SUB SLT ISZERO PUSH2 0x1D7E JUMPI PUSH2 0x1D7D PUSH2 0x1C73 JUMP JUMPDEST JUMPDEST PUSH1 0x0 PUSH2 0x1D8C DUP5 DUP3 DUP6 ADD PUSH2 0x1D53 JUMP JUMPDEST SWAP2 POP POP SWAP3 SWAP2 POP POP JUMP JUMPDEST PUSH2 0x1D9E DUP2 PUSH2 0x1D32 JUMP JUMPDEST DUP3 MSTORE POP POP JUMP JUMPDEST PUSH1 0x0 PUSH1 0x60 DUP3 ADD SWAP1 POP PUSH2 0x1DB9 PUSH1 0x0 DUP4 ADD DUP7 PUSH2 0x1D95 JUMP JUMPDEST PUSH2 0x1DC6 PUSH1 0x20 DUP4 ADD DUP6 PUSH2 0x1D08 JUMP JUMPDEST PUSH2 0x1DD3 PUSH1 0x40 DUP4 ADD DUP5 PUSH2 0x1D95 JUMP JUMPDEST SWAP5 SWAP4 POP POP POP POP JUMP JUMPDEST PUSH1 0x0 PUSH1 0x20 DUP3 ADD SWAP1 POP PUSH2 0x1DF0 PUSH1 0x0 DUP4 ADD DUP5 PUSH2 0x1D95 JUMP JUMPDEST SWAP3 SWAP2 POP POP JUMP JUMPDEST PUSH1 0x0 DUP2 MLOAD SWAP1 POP PUSH2 0x1E05 DUP2 PUSH2 0x1D3C JUMP JUMPDEST SWAP3 SWAP2 POP POP JUMP JUMPDEST PUSH1 0x0 PUSH1 0x20 DUP3 DUP5 SUB SLT ISZERO PUSH2 0x1E21 JUMPI PUSH2 0x1E20 PUSH2 0x1C73 JUMP JUMPDEST JUMPDEST PUSH1 0x0 PUSH2 0x1E2F DUP5 DUP3 DUP6 ADD PUSH2 0x1DF6 JUMP JUMPDEST SWAP2 POP POP SWAP3 SWAP2 POP POP JUMP JUMPDEST PUSH1 0x0 PUSH1 0x40 DUP3 ADD SWAP1 POP PUSH2 0x1E4D PUSH1 0x0 DUP4 ADD DUP6 PUSH2 0x1D08 JUMP JUMPDEST PUSH2 0x1E5A PUSH1 0x20 DUP4 ADD DUP5 PUSH2 0x1D95 JUMP JUMPDEST SWAP4 SWAP3 POP POP POP JUMP JUMPDEST PUSH1 0x0 DUP2 ISZERO ISZERO SWAP1 POP SWAP2 SWAP1 POP JUMP JUMPDEST PUSH2 0x1E76 DUP2 PUSH2 0x1E61 JUMP JUMPDEST DUP2 EQ PUSH2 0x1E81 JUMPI PUSH1 0x0 DUP1 REVERT JUMPDEST POP JUMP JUMPDEST PUSH1 0x0 DUP2 MLOAD SWAP1 POP PUSH2 0x1E93 DUP2 PUSH2 0x1E6D JUMP JUMPDEST SWAP3 SWAP2 POP POP JUMP JUMPDEST PUSH1 0x0 PUSH1 0x20 DUP3 DUP5 SUB SLT ISZERO PUSH2 0x1EAF JUMPI PUSH2 0x1EAE PUSH2 0x1C73 JUMP JUMPDEST JUMPDEST PUSH1 0x0 PUSH2 0x1EBD DUP5 DUP3 DUP6 ADD PUSH2 0x1E84 JUMP JUMPDEST SWAP2 POP POP SWAP3 SWAP2 POP POP JUMP JUMPDEST PUSH32 0x4E487B7100000000000000000000000000000000000000000000000000000000 PUSH1 0x0 MSTORE PUSH1 0x11 PUSH1 0x4 MSTORE PUSH1 0x24 PUSH1 0x0 REVERT JUMPDEST PUSH1 0x0 PUSH2 0x1F00 DUP3 PUSH2 0x1D32 JUMP JUMPDEST SWAP2 POP PUSH2 0x1F0B DUP4 PUSH2 0x1D32 JUMP JUMPDEST SWAP3 POP DUP3 DUP3 MUL PUSH2 0x1F19 DUP2 PUSH2 0x1D32 JUMP JUMPDEST SWAP2 POP DUP3 DUP3 DIV DUP5 EQ DUP4 ISZERO OR PUSH2 0x1F30 JUMPI PUSH2 0x1F2F PUSH2 0x1EC6 JUMP JUMPDEST JUMPDEST POP SWAP3 SWAP2 POP POP JUMP JUMPDEST PUSH32 0x4E487B7100000000000000000000000000000000000000000000000000000000 PUSH1 0x0 MSTORE PUSH1 0x12 PUSH1 0x4 MSTORE PUSH1 0x24 PUSH1 0x0 REVERT JUMPDEST PUSH1 0x0 PUSH2 0x1F71 DUP3 PUSH2 0x1D32 JUMP JUMPDEST SWAP2 POP PUSH2 0x1F7C DUP4 PUSH2 0x1D32 JUMP JUMPDEST SWAP3 POP DUP3 PUSH2 0x1F8C JUMPI PUSH2 0x1F8B PUSH2 0x1F37 JUMP JUMPDEST JUMPDEST DUP3 DUP3 DIV SWAP1 POP SWAP3 SWAP2 POP POP JUMP JUMPDEST PUSH1 0x0 PUSH1 0x40 DUP3 ADD SWAP1 POP PUSH2 0x1FAC PUSH1 0x0 DUP4 ADD DUP6 PUSH2 0x1D95 JUMP JUMPDEST PUSH2 0x1FB9 PUSH1 0x20 DUP4 ADD DUP5 PUSH2 0x1D08 JUMP JUMPDEST SWAP4 SWAP3 POP POP POP JUMP JUMPDEST PUSH1 0x0 PUSH2 0x1FCB DUP3 PUSH2 0x1D32 JUMP JUMPDEST SWAP2 POP PUSH2 0x1FD6 DUP4 PUSH2 0x1D32 JUMP JUMPDEST SWAP3 POP DUP3 DUP3 SUB SWAP1 POP DUP2 DUP2 GT ISZERO PUSH2 0x1FEE JUMPI PUSH2 0x1FED PUSH2 0x1EC6 JUMP JUMPDEST JUMPDEST SWAP3 SWAP2 POP POP JUMP JUMPDEST PUSH1 0x0 DUP3 DUP3 MSTORE PUSH1 0x20 DUP3 ADD SWAP1 POP SWAP3 SWAP2 POP POP JUMP JUMPDEST PUSH32 0x70726576696F757320486F6C6465722069730000000000000000000000000000 PUSH1 0x0 DUP3 ADD MSTORE POP JUMP JUMPDEST PUSH1 0x0 PUSH2 0x203B PUSH1 0x12 DUP4 PUSH2 0x1FF4 JUMP JUMPDEST SWAP2 POP PUSH2 0x2046 DUP3 PUSH2 0x2005 JUMP JUMPDEST PUSH1 0x20 DUP3 ADD SWAP1 POP SWAP2 SWAP1 POP JUMP JUMPDEST PUSH1 0x0 PUSH1 0x20 DUP3 ADD SWAP1 POP DUP2 DUP2 SUB PUSH1 0x0 DUP4 ADD MSTORE PUSH2 0x206A DUP2 PUSH2 0x202E JUMP JUMPDEST SWAP1 POP SWAP2 SWAP1 POP JUMP JUMPDEST PUSH32 0x63757272656E74206C69717569646974792070657263656E7400000000000000 PUSH1 0x0 DUP3 ADD MSTORE POP JUMP JUMPDEST PUSH1 0x0 PUSH2 0x20A7 PUSH1 0x19 DUP4 PUSH2 0x1FF4 JUMP JUMPDEST SWAP2 POP PUSH2 0x20B2 DUP3 PUSH2 0x2071 JUMP JUMPDEST PUSH1 0x20 DUP3 ADD SWAP1 POP SWAP2 SWAP1 POP JUMP JUMPDEST PUSH1 0x0 PUSH1 0x20 DUP3 ADD SWAP1 POP DUP2 DUP2 SUB PUSH1 0x0 DUP4 ADD MSTORE PUSH2 0x20D6 DUP2 PUSH2 0x209A JUMP JUMPDEST SWAP1 POP SWAP2 SWAP1 POP JUMP JUMPDEST PUSH1 0x0 PUSH2 0x20E8 DUP3 PUSH2 0x1D32 JUMP JUMPDEST SWAP2 POP PUSH2 0x20F3 DUP4 PUSH2 0x1D32 JUMP JUMPDEST SWAP3 POP DUP3 DUP3 ADD SWAP1 POP DUP1 DUP3 GT ISZERO PUSH2 0x210B JUMPI PUSH2 0x210A PUSH2 0x1EC6 JUMP JUMPDEST JUMPDEST SWAP3 SWAP2 POP POP JUMP JUMPDEST PUSH32 0x746F6B656E732063616E74206265206275726E74000000000000000000000000 PUSH1 0x0 DUP3 ADD MSTORE POP JUMP JUMPDEST PUSH1 0x0 PUSH2 0x2147 PUSH1 0x14 DUP4 PUSH2 0x1FF4 JUMP JUMPDEST SWAP2 POP PUSH2 0x2152 DUP3 PUSH2 0x2111 JUMP JUMPDEST PUSH1 0x20 DUP3 ADD SWAP1 POP SWAP2 SWAP1 POP JUMP JUMPDEST PUSH1 0x0 PUSH1 0x20 DUP3 ADD SWAP1 POP DUP2 DUP2 SUB PUSH1 0x0 DUP4 ADD MSTORE PUSH2 0x2176 DUP2 PUSH2 0x213A JUMP JUMPDEST SWAP1 POP SWAP2 SWAP1 POP JUMP JUMPDEST PUSH32 0x746F6B656E732068617665206265656E206275726E7400000000000000000000 PUSH1 0x0 DUP3 ADD MSTORE POP JUMP JUMPDEST PUSH1 0x0 PUSH2 0x21B3 PUSH1 0x16 DUP4 PUSH2 0x1FF4 JUMP JUMPDEST SWAP2 POP PUSH2 0x21BE DUP3 PUSH2 0x217D JUMP JUMPDEST PUSH1 0x20 DUP3 ADD SWAP1 POP SWAP2 SWAP1 POP JUMP JUMPDEST PUSH1 0x0 PUSH1 0x20 DUP3 ADD SWAP1 POP DUP2 DUP2 SUB PUSH1 0x0 DUP4 ADD MSTORE PUSH2 0x21E2 DUP2 PUSH2 0x21A6 JUMP JUMPDEST SWAP1 POP SWAP2 SWAP1 POP JUMP JUMPDEST PUSH1 0x0 PUSH1 0xC0 DUP3 ADD SWAP1 POP PUSH2 0x21FE PUSH1 0x0 DUP4 ADD DUP10 PUSH2 0x1D08 JUMP JUMPDEST PUSH2 0x220B PUSH1 0x20 DUP4 ADD DUP9 PUSH2 0x1D95 JUMP JUMPDEST PUSH2 0x2218 PUSH1 0x40 DUP4 ADD DUP8 PUSH2 0x1D95 JUMP JUMPDEST PUSH2 0x2225 PUSH1 0x60 DUP4 ADD DUP7 PUSH2 0x1D95 JUMP JUMPDEST PUSH2 0x2232 PUSH1 0x80 DUP4 ADD DUP6 PUSH2 0x1D08 JUMP JUMPDEST PUSH2 0x223F PUSH1 0xA0 DUP4 ADD DUP5 PUSH2 0x1D95 JUMP JUMPDEST SWAP8 SWAP7 POP POP POP POP POP POP POP JUMP JUMPDEST PUSH1 0x0 DUP1 PUSH1 0x0 PUSH1 0x60 DUP5 DUP7 SUB SLT ISZERO PUSH2 0x2263 JUMPI PUSH2 0x2262 PUSH2 0x1C73 JUMP JUMPDEST JUMPDEST PUSH1 0x0 PUSH2 0x2271 DUP7 DUP3 DUP8 ADD PUSH2 0x1DF6 JUMP JUMPDEST SWAP4 POP POP PUSH1 0x20 PUSH2 0x2282 DUP7 DUP3 DUP8 ADD PUSH2 0x1DF6 JUMP JUMPDEST SWAP3 POP POP PUSH1 0x40 PUSH2 0x2293 DUP7 DUP3 DUP8 ADD PUSH2 0x1DF6 JUMP JUMPDEST SWAP2 POP POP SWAP3 POP SWAP3 POP SWAP3 JUMP JUMPDEST PUSH32 0x4C6971756964697479204E6F742050726F766964656400000000000000000000 PUSH1 0x0 DUP3 ADD MSTORE POP JUMP JUMPDEST PUSH1 0x0 PUSH2 0x22D3 PUSH1 0x16 DUP4 PUSH2 0x1FF4 JUMP JUMPDEST SWAP2 POP PUSH2 0x22DE DUP3 PUSH2 0x229D JUMP JUMPDEST PUSH1 0x20 DUP3 ADD SWAP1 POP SWAP2 SWAP1 POP JUMP JUMPDEST PUSH1 0x0 PUSH1 0x20 DUP3 ADD SWAP1 POP DUP2 DUP2 SUB PUSH1 0x0 DUP4 ADD MSTORE PUSH2 0x2302 DUP2 PUSH2 0x22C6 JUMP JUMPDEST SWAP1 POP SWAP2 SWAP1 POP JUMP JUMPDEST PUSH32 0x6C6971756964697479205375636365737366756C6C792050726F766964656400 PUSH1 0x0 DUP3 ADD MSTORE POP JUMP JUMPDEST PUSH1 0x0 PUSH2 0x233F PUSH1 0x1F DUP4 PUSH2 0x1FF4 JUMP JUMPDEST SWAP2 POP PUSH2 0x234A DUP3 PUSH2 0x2309 JUMP JUMPDEST PUSH1 0x20 DUP3 ADD SWAP1 POP SWAP2 SWAP1 POP JUMP JUMPDEST PUSH1 0x0 PUSH1 0x20 DUP3 ADD SWAP1 POP DUP2 DUP2 SUB PUSH1 0x0 DUP4 ADD MSTORE PUSH2 0x236E DUP2 PUSH2 0x2332 JUMP JUMPDEST SWAP1 POP SWAP2 SWAP1 POP JUMP JUMPDEST PUSH32 0x70726963652063616E7420626520676F742066726F6D204F7261636C65000000 PUSH1 0x0 DUP3 ADD MSTORE POP JUMP JUMPDEST PUSH1 0x0 PUSH2 0x23AB PUSH1 0x1D DUP4 PUSH2 0x1FF4 JUMP JUMPDEST SWAP2 POP PUSH2 0x23B6 DUP3 PUSH2 0x2375 JUMP JUMPDEST PUSH1 0x20 DUP3 ADD SWAP1 POP SWAP2 SWAP1 POP JUMP JUMPDEST PUSH1 0x0 PUSH1 0x20 DUP3 ADD SWAP1 POP DUP2 DUP2 SUB PUSH1 0x0 DUP4 ADD MSTORE PUSH2 0x23DA DUP2 PUSH2 0x239E JUMP JUMPDEST SWAP1 POP SWAP2 SWAP1 POP JUMP JUMPDEST PUSH32 0x707269636520676F742066726F6D204F7261636C652062757420636F756C646E PUSH1 0x0 DUP3 ADD MSTORE PUSH32 0x74206D696E740000000000000000000000000000000000000000000000000000 PUSH1 0x20 DUP3 ADD MSTORE POP JUMP JUMPDEST PUSH1 0x0 PUSH2 0x243D PUSH1 0x26 DUP4 PUSH2 0x1FF4 JUMP JUMPDEST SWAP2 POP PUSH2 0x2448 DUP3 PUSH2 0x23E1 JUMP JUMPDEST PUSH1 0x40 DUP3 ADD SWAP1 POP SWAP2 SWAP1 POP JUMP JUMPDEST PUSH1 0x0 PUSH1 0x20 DUP3 ADD SWAP1 POP DUP2 DUP2 SUB PUSH1 0x0 DUP4 ADD MSTORE PUSH2 0x246C DUP2 PUSH2 0x2430 JUMP JUMPDEST SWAP1 POP SWAP2 SWAP1 POP JUMP JUMPDEST PUSH32 0x746F6B656E73206D696E74656420746F2070726576696F757320686F6C646572 PUSH1 0x0 DUP3 ADD MSTORE POP JUMP JUMPDEST PUSH1 0x0 PUSH2 0x24A9 PUSH1 0x20 DUP4 PUSH2 0x1FF4 JUMP JUMPDEST SWAP2 POP PUSH2 0x24B4 DUP3 PUSH2 0x2473 JUMP JUMPDEST PUSH1 0x20 DUP3 ADD SWAP1 POP SWAP2 SWAP1 POP JUMP JUMPDEST PUSH1 0x0 PUSH1 0x20 DUP3 ADD SWAP1 POP DUP2 DUP2 SUB PUSH1 0x0 DUP4 ADD MSTORE PUSH2 0x24D8 DUP2 PUSH2 0x249C JUMP JUMPDEST SWAP1 POP SWAP2 SWAP1 POP JUMP JUMPDEST PUSH32 0x63616E74206765742062616C616E6365206F66207468697320636F6E74726163 PUSH1 0x0 DUP3 ADD MSTORE PUSH32 0x7400000000000000000000000000000000000000000000000000000000000000 PUSH1 0x20 DUP3 ADD MSTORE POP JUMP JUMPDEST PUSH1 0x0 PUSH2 0x253B PUSH1 0x21 DUP4 PUSH2 0x1FF4 JUMP JUMPDEST SWAP2 POP PUSH2 0x2546 DUP3 PUSH2 0x24DF JUMP JUMPDEST PUSH1 0x40 DUP3 ADD SWAP1 POP SWAP2 SWAP1 POP JUMP JUMPDEST PUSH1 0x0 PUSH1 0x20 DUP3 ADD SWAP1 POP DUP2 DUP2 SUB PUSH1 0x0 DUP4 ADD MSTORE PUSH2 0x256A DUP2 PUSH2 0x252E JUMP JUMPDEST SWAP1 POP SWAP2 SWAP1 POP JUMP JUMPDEST PUSH32 0x63616E74206765742070726963652066726F6D204F7261636C65000000000000 PUSH1 0x0 DUP3 ADD MSTORE POP JUMP JUMPDEST PUSH1 0x0 PUSH2 0x25A7 PUSH1 0x1A DUP4 PUSH2 0x1FF4 JUMP JUMPDEST SWAP2 POP PUSH2 0x25B2 DUP3 PUSH2 0x2571 JUMP JUMPDEST PUSH1 0x20 DUP3 ADD SWAP1 POP SWAP2 SWAP1 POP JUMP JUMPDEST PUSH1 0x0 PUSH1 0x20 DUP3 ADD SWAP1 POP DUP2 DUP2 SUB PUSH1 0x0 DUP4 ADD MSTORE PUSH2 0x25D6 DUP2 PUSH2 0x259A JUMP JUMPDEST SWAP1 POP SWAP2 SWAP1 POP JUMP JUMPDEST PUSH32 0x6E756D626572206F6620546F6B656E7320746F20427579206973000000000000 PUSH1 0x0 DUP3 ADD MSTORE POP JUMP JUMPDEST PUSH1 0x0 PUSH2 0x2613 PUSH1 0x1A DUP4 PUSH2 0x1FF4 JUMP JUMPDEST SWAP2 POP PUSH2 0x261E DUP3 PUSH2 0x25DD JUMP JUMPDEST PUSH1 0x20 DUP3 ADD SWAP1 POP SWAP2 SWAP1 POP JUMP JUMPDEST PUSH1 0x0 PUSH1 0x20 DUP3 ADD SWAP1 POP DUP2 DUP2 SUB PUSH1 0x0 DUP4 ADD MSTORE PUSH2 0x2642 DUP2 PUSH2 0x2606 JUMP JUMPDEST SWAP1 POP SWAP2 SWAP1 POP JUMP JUMPDEST PUSH1 0x0 DUP2 SLOAD SWAP1 POP SWAP2 SWAP1 POP JUMP JUMPDEST PUSH1 0x0 DUP3 DUP3 MSTORE PUSH1 0x20 DUP3 ADD SWAP1 POP SWAP3 SWAP2 POP POP JUMP JUMPDEST PUSH1 0x0 DUP2 SWAP1 POP DUP2 PUSH1 0x0 MSTORE PUSH1 0x20 PUSH1 0x0 KECCAK256 SWAP1 POP SWAP2 SWAP1 POP JUMP JUMPDEST PUSH2 0x2683 DUP2 PUSH2 0x1C9D JUMP JUMPDEST DUP3 MSTORE POP POP JUMP JUMPDEST PUSH1 0x0 PUSH2 0x2695 DUP4 DUP4 PUSH2 0x267A JUMP JUMPDEST PUSH1 0x20 DUP4 ADD SWAP1 POP SWAP3 SWAP2 POP POP JUMP JUMPDEST PUSH1 0x0 DUP2 PUSH1 0x0 SHR SWAP1 POP SWAP2 SWAP1 POP JUMP JUMPDEST PUSH1 0x0 PUSH20 0xFFFFFFFFFFFFFFFFFFFFFFFFFFFFFFFFFFFFFFFF DUP3 AND SWAP1 POP SWAP2 SWAP1 POP JUMP JUMPDEST PUSH1 0x0 PUSH2 0x26E1 PUSH2 0x26DC DUP4 PUSH2 0x26A1 JUMP JUMPDEST PUSH2 0x26AE JUMP JUMPDEST SWAP1 POP SWAP2 SWAP1 POP JUMP JUMPDEST PUSH1 0x0 PUSH2 0x26F4 DUP3 SLOAD PUSH2 0x26CE JUMP JUMPDEST SWAP1 POP SWAP2 SWAP1 POP JUMP JUMPDEST PUSH1 0x0 PUSH1 0x1 DUP3 ADD SWAP1 POP SWAP2 SWAP1 POP JUMP JUMPDEST PUSH1 0x0 PUSH2 0x2713 DUP3 PUSH2 0x2649 JUMP JUMPDEST PUSH2 0x271D DUP2 DUP6 PUSH2 0x2654 JUMP JUMPDEST SWAP4 POP PUSH2 0x2728 DUP4 PUSH2 0x2665 JUMP JUMPDEST DUP1 PUSH1 0x0 JUMPDEST DUP4 DUP2 LT ISZERO PUSH2 0x2760 JUMPI PUSH2 0x273D DUP3 PUSH2 0x26E8 JUMP JUMPDEST PUSH2 0x2747 DUP9 DUP3 PUSH2 0x2689 JUMP JUMPDEST SWAP8 POP PUSH2 0x2752 DUP4 PUSH2 0x26FB JUMP JUMPDEST SWAP3 POP POP PUSH1 0x1 DUP2 ADD SWAP1 POP PUSH2 0x272C JUMP JUMPDEST POP DUP6 SWAP4 POP POP POP POP SWAP3 SWAP2 POP POP JUMP JUMPDEST PUSH1 0x0 PUSH1 0x80 DUP3 ADD SWAP1 POP PUSH2 0x2782 PUSH1 0x0 DUP4 ADD DUP8 PUSH2 0x1D95 JUMP JUMPDEST DUP2 DUP2 SUB PUSH1 0x20 DUP4 ADD MSTORE PUSH2 0x2794 DUP2 DUP7 PUSH2 0x2708 JUMP JUMPDEST SWAP1 POP PUSH2 0x27A3 PUSH1 0x40 DUP4 ADD DUP6 PUSH2 0x1D08 JUMP JUMPDEST PUSH2 0x27B0 PUSH1 0x60 DUP4 ADD DUP5 PUSH2 0x1D95 JUMP JUMPDEST SWAP6 SWAP5 POP POP POP POP POP JUMP JUMPDEST PUSH1 0x0 DUP1 REVERT JUMPDEST PUSH1 0x0 PUSH1 0x1F NOT PUSH1 0x1F DUP4 ADD AND SWAP1 POP SWAP2 SWAP1 POP JUMP JUMPDEST PUSH32 0x4E487B7100000000000000000000000000000000000000000000000000000000 PUSH1 0x0 MSTORE PUSH1 0x41 PUSH1 0x4 MSTORE PUSH1 0x24 PUSH1 0x0 REVERT JUMPDEST PUSH2 0x2807 DUP3 PUSH2 0x27BE JUMP JUMPDEST DUP2 ADD DUP2 DUP2 LT PUSH8 0xFFFFFFFFFFFFFFFF DUP3 GT OR ISZERO PUSH2 0x2826 JUMPI PUSH2 0x2825 PUSH2 0x27CF JUMP JUMPDEST JUMPDEST DUP1 PUSH1 0x40 MSTORE POP POP POP JUMP JUMPDEST PUSH1 0x0 PUSH2 0x2839 PUSH2 0x1C69 JUMP JUMPDEST SWAP1 POP PUSH2 0x2845 DUP3 DUP3 PUSH2 0x27FE JUMP JUMPDEST SWAP2 SWAP1 POP JUMP JUMPDEST PUSH1 0x0 PUSH8 0xFFFFFFFFFFFFFFFF DUP3 GT ISZERO PUSH2 0x2865 JUMPI PUSH2 0x2864 PUSH2 0x27CF JUMP JUMPDEST JUMPDEST PUSH1 0x20 DUP3 MUL SWAP1 POP PUSH1 0x20 DUP2 ADD SWAP1 POP SWAP2 SWAP1 POP JUMP JUMPDEST PUSH1 0x0 DUP1 REVERT JUMPDEST PUSH1 0x0 PUSH2 0x288E PUSH2 0x2889 DUP5 PUSH2 0x284A JUMP JUMPDEST PUSH2 0x282F JUMP JUMPDEST SWAP1 POP DUP1 DUP4 DUP3 MSTORE PUSH1 0x20 DUP3 ADD SWAP1 POP PUSH1 0x20 DUP5 MUL DUP4 ADD DUP6 DUP2 GT ISZERO PUSH2 0x28B1 JUMPI PUSH2 0x28B0 PUSH2 0x2876 JUMP JUMPDEST JUMPDEST DUP4 JUMPDEST DUP2 DUP2 LT ISZERO PUSH2 0x28DA JUMPI DUP1 PUSH2 0x28C6 DUP9 DUP3 PUSH2 0x1DF6 JUMP JUMPDEST DUP5 MSTORE PUSH1 0x20 DUP5 ADD SWAP4 POP POP PUSH1 0x20 DUP2 ADD SWAP1 POP PUSH2 0x28B3 JUMP JUMPDEST POP POP POP SWAP4 SWAP3 POP POP POP JUMP JUMPDEST PUSH1 0x0 DUP3 PUSH1 0x1F DUP4 ADD SLT PUSH2 0x28F9 JUMPI PUSH2 0x28F8 PUSH2 0x27B9 JUMP JUMPDEST JUMPDEST DUP2 MLOAD PUSH2 0x2909 DUP5 DUP3 PUSH1 0x20 DUP7 ADD PUSH2 0x287B JUMP JUMPDEST SWAP2 POP POP SWAP3 SWAP2 POP POP JUMP JUMPDEST PUSH1 0x0 PUSH1 0x20 DUP3 DUP5 SUB SLT ISZERO PUSH2 0x2928 JUMPI PUSH2 0x2927 PUSH2 0x1C73 JUMP JUMPDEST JUMPDEST PUSH1 0x0 DUP3 ADD MLOAD PUSH8 0xFFFFFFFFFFFFFFFF DUP2 GT ISZERO PUSH2 0x2946 JUMPI PUSH2 0x2945 PUSH2 0x1C78 JUMP JUMPDEST JUMPDEST PUSH2 0x2952 DUP5 DUP3 DUP6 ADD PUSH2 0x28E4 JUMP JUMPDEST SWAP2 POP POP SWAP3 SWAP2 POP POP JUMP JUMPDEST PUSH32 0x746F6B656E73206E6F7420626F75676874000000000000000000000000000000 PUSH1 0x0 DUP3 ADD MSTORE POP JUMP JUMPDEST PUSH1 0x0 PUSH2 0x2991 PUSH1 0x11 DUP4 PUSH2 0x1FF4 JUMP JUMPDEST SWAP2 POP PUSH2 0x299C DUP3 PUSH2 0x295B JUMP JUMPDEST PUSH1 0x20 DUP3 ADD SWAP1 POP SWAP2 SWAP1 POP JUMP JUMPDEST PUSH1 0x0 PUSH1 0x20 DUP3 ADD SWAP1 POP DUP2 DUP2 SUB PUSH1 0x0 DUP4 ADD MSTORE PUSH2 0x29C0 DUP2 PUSH2 0x2984 JUMP JUMPDEST SWAP1 POP SWAP2 SWAP1 POP JUMP JUMPDEST PUSH32 0x746F6B656E7320626F7567687400000000000000000000000000000000000000 PUSH1 0x0 DUP3 ADD MSTORE POP JUMP JUMPDEST PUSH1 0x0 PUSH2 0x29FD PUSH1 0xD DUP4 PUSH2 0x1FF4 JUMP JUMPDEST SWAP2 POP PUSH2 0x2A08 DUP3 PUSH2 0x29C7 JUMP JUMPDEST PUSH1 0x20 DUP3 ADD SWAP1 POP SWAP2 SWAP1 POP JUMP JUMPDEST PUSH1 0x0 PUSH1 0x20 DUP3 ADD SWAP1 POP DUP2 DUP2 SUB PUSH1 0x0 DUP4 ADD MSTORE PUSH2 0x2A2C DUP2 PUSH2 0x29F0 JUMP JUMPDEST SWAP1 POP SWAP2 SWAP1 POP JUMP INVALID LOG2 PUSH5 0x6970667358 0x22 SLT KECCAK256 PUSH26 0x1C65E5E7DCCE7669F73324C78D37B3FD646149731EDDC3A811A7 0xFB CHAINID 0xE6 0x1E CREATE2 PUSH5 0x736F6C6343 STOP ADDMOD GT STOP CALLER "
				},
				"gasEstimates": {
					"creation": {
						"codeDepositCost": "2171400",
						"executionCost": "infinite",
						"totalCost": "infinite"
					},
					"external": {
						"ERC20Address()": "2559",
						"POAPAddress()": "2625",
						"WethAddress()": "2578",
						"buyEth()": "2452",
						"crownNFTAddress()": "2581",
						"getLastEthRecieved()": "4695",
						"getWethBalance()": "infinite",
						"liquidityEth()": "2452",
						"mintSomeTokens(uint256)": "infinite",
						"oracleAddress()": "2603",
						"path(uint256)": "4978",
						"percentLiquidity()": "infinite",
						"superBuy(address)": "infinite",
						"totalRoyalties()": "2518",
						"transactionFromPOAPId(uint256)": "infinite",
						"uniswapPairAddress()": "2558",
						"uniswapRouterAddress()": "2582",
						"updateERC20Address(address)": "24768",
						"withdraw(address)": "infinite"
					},
					"internal": {
						"buyAndBurn(uint256)": "infinite",
						"buyTokens(uint256)": "infinite",
						"erc20ToPreviousHolder(address)": "infinite",
						"newTransaction(uint256,address)": "119275",
						"processETH()": "infinite",
						"provideLiquidity(uint256)": "infinite",
						"setInitialTranscation(address)": "infinite"
					}
				},
				"methodIdentifiers": {
					"ERC20Address()": "a6021ace",
					"POAPAddress()": "aef75107",
					"WethAddress()": "a785a3d8",
					"buyEth()": "4cfd1ba5",
					"crownNFTAddress()": "777b506f",
					"getLastEthRecieved()": "bfd9ea5b",
					"getWethBalance()": "9dd58b58",
					"liquidityEth()": "a09ede07",
					"mintSomeTokens(uint256)": "d4afa675",
					"oracleAddress()": "a89ae4ba",
					"path(uint256)": "af6d1fe4",
					"percentLiquidity()": "c1f2e5f1",
					"superBuy(address)": "0b2b4d9b",
					"totalRoyalties()": "86d02608",
					"transactionFromPOAPId(uint256)": "2c4c3c1b",
					"uniswapPairAddress()": "bd3733fe",
					"uniswapRouterAddress()": "20ca3c7f",
					"updateERC20Address(address)": "1b017fde",
					"withdraw(address)": "51cff8d9"
				}
			},
			"storageLayout": {
				"storage": [
					{
						"astId": 644,
						"contract": "Hook.sol:TransactionsAndHook",
						"label": "WethAddress",
						"offset": 0,
						"slot": "0",
						"type": "t_address"
					},
					{
						"astId": 646,
						"contract": "Hook.sol:TransactionsAndHook",
						"label": "ERC20Address",
						"offset": 0,
						"slot": "1",
						"type": "t_address"
					},
					{
						"astId": 648,
						"contract": "Hook.sol:TransactionsAndHook",
						"label": "uniswapPairAddress",
						"offset": 0,
						"slot": "2",
						"type": "t_address"
					},
					{
						"astId": 650,
						"contract": "Hook.sol:TransactionsAndHook",
						"label": "oracleAddress",
						"offset": 0,
						"slot": "3",
						"type": "t_address"
					},
					{
						"astId": 652,
						"contract": "Hook.sol:TransactionsAndHook",
						"label": "crownNFTAddress",
						"offset": 0,
						"slot": "4",
						"type": "t_address"
					},
					{
						"astId": 654,
						"contract": "Hook.sol:TransactionsAndHook",
						"label": "POAPAddress",
						"offset": 0,
						"slot": "5",
						"type": "t_address"
					},
					{
						"astId": 657,
						"contract": "Hook.sol:TransactionsAndHook",
						"label": "uniswapRouterAddress",
						"offset": 0,
						"slot": "6",
						"type": "t_address"
					},
					{
						"astId": 660,
						"contract": "Hook.sol:TransactionsAndHook",
						"label": "path",
						"offset": 0,
						"slot": "7",
						"type": "t_array(t_address)dyn_storage"
					},
					{
						"astId": 666,
						"contract": "Hook.sol:TransactionsAndHook",
						"label": "POAP",
						"offset": 0,
						"slot": "8",
						"type": "t_contract(iPOAP)483"
					},
					{
						"astId": 672,
						"contract": "Hook.sol:TransactionsAndHook",
						"label": "WETH",
						"offset": 0,
						"slot": "9",
						"type": "t_contract(WethLike)547"
					},
					{
						"astId": 678,
						"contract": "Hook.sol:TransactionsAndHook",
						"label": "Oracle",
						"offset": 0,
						"slot": "10",
						"type": "t_contract(iOracle)517"
					},
					{
						"astId": 684,
						"contract": "Hook.sol:TransactionsAndHook",
						"label": "UniswapRouter",
						"offset": 0,
						"slot": "11",
						"type": "t_contract(IUniswapV2Router02)473"
					},
					{
						"astId": 689,
						"contract": "Hook.sol:TransactionsAndHook",
						"label": "transactionFromPOAPId",
						"offset": 0,
						"slot": "12",
						"type": "t_mapping(t_uint256,t_struct(Transaction)711_storage)"
					},
					{
						"astId": 692,
						"contract": "Hook.sol:TransactionsAndHook",
						"label": "POAPIds",
						"offset": 0,
						"slot": "13",
						"type": "t_array(t_uint256)dyn_storage"
					},
					{
						"astId": 694,
						"contract": "Hook.sol:TransactionsAndHook",
						"label": "totalRoyalties",
						"offset": 0,
						"slot": "14",
						"type": "t_uint256"
					},
					{
						"astId": 983,
						"contract": "Hook.sol:TransactionsAndHook",
						"label": "buyEth",
						"offset": 0,
						"slot": "15",
						"type": "t_uint256"
					},
					{
						"astId": 985,
						"contract": "Hook.sol:TransactionsAndHook",
						"label": "liquidityEth",
						"offset": 0,
						"slot": "16",
						"type": "t_uint256"
					}
				],
				"types": {
					"t_address": {
						"encoding": "inplace",
						"label": "address",
						"numberOfBytes": "20"
					},
					"t_array(t_address)dyn_storage": {
						"base": "t_address",
						"encoding": "dynamic_array",
						"label": "address[]",
						"numberOfBytes": "32"
					},
					"t_array(t_uint256)dyn_storage": {
						"base": "t_uint256",
						"encoding": "dynamic_array",
						"label": "uint256[]",
						"numberOfBytes": "32"
					},
					"t_contract(IUniswapV2Router02)473": {
						"encoding": "inplace",
						"label": "contract IUniswapV2Router02",
						"numberOfBytes": "20"
					},
					"t_contract(WethLike)547": {
						"encoding": "inplace",
						"label": "contract WethLike",
						"numberOfBytes": "20"
					},
					"t_contract(iOracle)517": {
						"encoding": "inplace",
						"label": "contract iOracle",
						"numberOfBytes": "20"
					},
					"t_contract(iPOAP)483": {
						"encoding": "inplace",
						"label": "contract iPOAP",
						"numberOfBytes": "20"
					},
					"t_mapping(t_uint256,t_struct(Transaction)711_storage)": {
						"encoding": "mapping",
						"key": "t_uint256",
						"label": "mapping(uint256 => struct TransactionsAndHook.Transaction)",
						"numberOfBytes": "32",
						"value": "t_struct(Transaction)711_storage"
					},
					"t_struct(Transaction)711_storage": {
						"encoding": "inplace",
						"label": "struct TransactionsAndHook.Transaction",
						"members": [
							{
								"astId": 706,
								"contract": "Hook.sol:TransactionsAndHook",
								"label": "POAPId",
								"offset": 0,
								"slot": "0",
								"type": "t_uint256"
							},
							{
								"astId": 708,
								"contract": "Hook.sol:TransactionsAndHook",
								"label": "purchaser",
								"offset": 0,
								"slot": "1",
								"type": "t_address"
							},
							{
								"astId": 710,
								"contract": "Hook.sol:TransactionsAndHook",
								"label": "receivedEth",
								"offset": 0,
								"slot": "2",
								"type": "t_uint256"
							}
						],
						"numberOfBytes": "96"
					},
					"t_uint256": {
						"encoding": "inplace",
						"label": "uint256",
						"numberOfBytes": "32"
					}
				}
			},
			"userdoc": {
				"kind": "user",
				"methods": {},
				"version": 1
			}
		}
	}
}